PROFAMCHA050901043000043008000008CC Disclaimer - FAST - Generic (:08-:10)                                                                                    150                                
PGRFAMCHA050901043008045646002638Katie And Orbie                                   EP: 4-050                                                     C19664A1065607ECC                              
PROFAMCHA050901045646045700000014PH - 01 - FRANNY/SOMETHING/HOZE (SEP05) (:14 - 16)                                                                          150                                
ID FAMCHA050901045700045710000010PS Playhouse AM Block Open (:10-:15)                                                                                        150                                
PROFAMCHA050901045710045720000010CC Disclaimer - FAST - Generic (:08-:10)                                                                                    150                                
PGRFAMCHA050901045720051950002230Franny's Feet                                     EPS # 1-011                                                   C23970A1065607ECC                              
PRCFAMCHA050901051950051955000005Astral ID (FEB05)                                                                                                           150                                
PROFAMCHA050901051955052009000014PH - 02 - SOMETHING/HOZE/KING (SEP05) (:14 - 16)                                                                            150                                
ID FAMCHA050901052009052024000015Franny's Feet Web BBD - Part of Playhouse @ family                                                                          150                                
ID FAMCHA050901052024052037000013PS Playhouse AM Block Open (:10-:15)                                                                                        150                                
PROFAMCHA050901052037052045000008CC Disclaimer - FAST - Family.ca (:08-:10)                                                                                  150                                
PGRFAMCHA050901052045054316002231Something Else                                    EPS # 1-006                                                   B69260A1065607ECC                              
PROFAMCHA050901054316054330000014PH - 03 - HOZE/KING/SPIDERMAN (SEP05) (:14 - 16)                                                                            150                                
ID FAMCHA050901054330054340000010PS Playhouse AM Block Open (:10-:15)                                                                                        150                                
PROFAMCHA050901054340054349000009CC Disclaimer - FAST - Family.ca (:08-:10)                                                                                  150                                
PGRFAMCHA050901054349060628002239Hoze Houndz                                       EP: 4-041                                                     B63377A1065607ECC                              
PRCFAMCHA050901060628060633000005Astral ID (FEB05)                                                                                                           150                                
PROFAMCHA050901060633060647000014PH - 04 - KING/SPIDERMAN/KIM (SEP05) (:14 - 16)                                                                             150                                
ID FAMCHA050901060647060658000011PS Playhouse AM Block Open (:10-:15)                                                                                        150                                
PROFAMCHA050901060658060707000009CC Disclaimer - FAST - Family.ca (:08-:10)                                                                                  150                                
PGRFAMCHA050901060707062937002230King                                              EP: 4-040                                                     C25350A1025607ECC                              
PROFAMCHA050901062937062951000014PH - 05 - SPIDERMAN/KIM/RECESS (SEP05) (:14 - 16)                                                                           150                                
ID FAMCHA050901062951063004000013Mad Dash Block Open (:13-:15)                                                                                               150                                
PGRFAMCHA050901063004065147002143Spiderman                                         EP: 01                                                        C02618 1025607E                                
PRCFAMCHA050901065147065152000005Astral ID (FEB05)                                                                                                           150                                
PROFAMCHA050901065152065207000015MD - 01 (AM) - KIM/RECESS/WEEKENDERS (SEP05) (:14                                                                           150                                
PRCFAMCHA050901065207065237000030xxBrandy & Mr. Whiskers (PREM) - Premiering Today                                                                           150                                
PROFAMCHA050901065237065307000030Kim Possible 007 (FEB05) (MD) - Coming Up Next                                                                              150                                
PRCFAMCHA050901065307065345000038RFR CD Blast Interstitial - (Aug 15 - Sep 16) (4x                                                                           150                                
PROFAMCHA050901065345065423000038Recess - Keepin Clean (MD/AM) - (SEP05) - Today @                                                                           150                                
PRCFAMCHA050901065423065446000023Mad Dash - WEEKENDERS - Pizza                                                                                               150                                
PRCFAMCHA050901065446065516000030Suite Life of Zack and Cody (PREM) - Premiering Sa                                                                          150                                
PROFAMCHA050901065516065534000018Larger Than Life (PP) - Tomorrow @ 7:30pm                                                                                   150                                
PRCFAMCHA050901065534065543000009xxFamily Bumpers - (Phase 3 Spring 05) - Giant Foo                                                                          150                                
ID FAMCHA050901065543065558000015Mad Dash Block Open (:13-:15)                                                                                               150                                
PGRFAMCHA050901065558071852002254Disney's Kim Possible                             EP: 1-064                                                            6068607E                                
PROFAMCHA050901071852071907000015MD - 02 (AM) - RECESS/WEEKENDERS/LILO (SEP05) (:14                                                                          150                                
PRCFAMCHA050901071907071936000029Lloyd In Space (PREM) (Oops) - Premiering Today @                                                                           150                                
PROFAMCHA050901071936071956000020Recess - Kindergarten (MD/AM) - (SEP05) - Coming U                                                                          150                                
PRCFAMCHA050901071956072041000045Famous Players Popcorn Parties (1x)                                                                                         150                                
PROFAMCHA050901072041072135000054Weekenders - B-Ball (MD/AM) - (SEP05) - Today @ 7:                                                                          150                                
PRCFAMCHA050901072135072217000042Family Kicks - 3x, daily (MD/NS/NSW)                                                                                        150                                
PROFAMCHA050901072217072255000038xxNed's 1 Day Crash Course - Monday from 12 - 6pm                                                                           150                                
PROFAMCHA050901072255072307000012Mad Dash - RECESS - Sprinkler                                                                                               150                                
PRCFAMCHA050901072307072337000030Buzz On Maggie (PREM) - Premieres Tomorrow @ 12:10                                                                          150                                
PRCFAMCHA050901072337072343000006Family Bumpers - (Phase 2 F/W 04) - Gymnastics (MD                                                                          150                                
ID FAMCHA050901072343072356000013Mad Dash Block Open (:13-:15)                                                                                               150                                
PGRFAMCHA050901072356074631002235Disney's Recess                                   EP: 1-009                                                            6068607E                                
PRCFAMCHA050901074631074636000005Astral ID (FEB05)                                                                                                           150                                
PROFAMCHA050901074636074651000015MD - 03 (AM) - WEEKENDERS/LILO/WINNIE (SEP05) (:14                                                                          150                                
PRCFAMCHA050901074651074721000030xxBrandy & Mr. Whiskers (PREM) - Premiering Today                                                                           150                                
PROFAMCHA050901074721074815000054Weekenders - B-Ball (MD/AM) - (SEP05) - Coming Up                                                                           150                                
PRCFAMCHA050901074815074901000046xxFamily Hits Take 2 CD (Aug 19 - Oct 13) (5x, dai                                                                          150                                
PROFAMCHA050901074901074929000028Lilo & Stitch (MD) (SEP05) - Today @ 8:15am                                                                                 150                                
PROFAMCHA050901074929074936000007xxZoey 101 ID - You're watching family..NADM                                                                                150                                
PROFAMCHA050901074936075001000025Fluke (WDP) - Sunday @ 1:30pm                                                                                               150                                
PRCFAMCHA050901075001075031000030Suite Life of Zack and Cody (PREM) - Premiering Sa                                                                          150                                
PRCFAMCHA050901075031075042000011Family Bumpers - (Phase 2 F/W 04) - Science (MD-AM                                                                          150                                
ID FAMCHA050901075042075056000014Mad Dash Block Open (:13-:15)                                                                                               150                                
PGRFAMCHA050901075056081350002254Disney's The Weekenders                           EP: 1-001                                                           A6068607E                                
PROFAMCHA050901081350081405000015MD - 04 (AM-T/T) - LILO/WINNIE/BEN (SEP05) (:14 -                                                                           150                                
PRCFAMCHA050901081405081434000029Lloyd In Space (PREM) (Oops) - Premiering Today @                                                                           150                                
PROFAMCHA050901081434081501000027Lilo & Stitch (MD) (SEP05) - Coming Up Next                                                                                 150                                
PRCFAMCHA050901081501081532000031NBA Jam Session 2005 - (July 13 - Sep 19) (3x)                                                                              150                                
PRCFAMCHA050901081532081603000031King (PH) (SEP05) (NEW EPS) - New Episodes Today @                                                                          150                                
PRCFAMCHA050901081603081625000022Family Lab - Amazing Pet Talker Cutdown - Cat (Bab                                                                          150                                
PROFAMCHA050901081625081703000038xxNed's 1 Day Crash Course - Monday from 12 - 6pm                                                                           150                                
PRCFAMCHA050901081703081733000030Buzz On Maggie (PREM) - Premieres Tomorrow @ 12:10                                                                          150                                
PRCFAMCHA050901081733081742000009Naturally Sadie ID's - You're watching Family...NA                                                                          150                                
ID FAMCHA050901081742081757000015Mad Dash Block Open (:13-:15)                                                                                               150                                
PGRFAMCHA050901081757084036002239Disney's Lilo & Stitch: The Series                EP: 61                                                               6068607E                                
PRCFAMCHA050901084036084041000005Astral ID (FEB05)                                                                                                           150                                
PROFAMCHA050901084041084056000015PH - 06 (T/T) - WINNIE/BENJAMIN/MACDONALD (SEP05)                                                                           150                                
PROFAMCHA050901084056084126000030Winnie the Pooh (PH/AM) (SEP05) - Coming Up Next                                                                            150                                
PRCFAMCHA050901084126084146000020Benjamin Bear - Snack (PH-T/T) (SEP05) - Today @ 9                                                                          150                                
PRCFAMCHA050901084146084205000019Playhouse - HOZE HOUNDZ - Code Blue                                                                                         150                                
PROFAMCHA050901084205084224000019Henry's World (SEP05) - Today @ 11am                                                                                        150                                
INTFAMCHA050901084224084344000120They Might Be Giants (ABC's) - Go for G                                                                                60688120                                
PRCFAMCHA050901084344084415000031King (PH) (SEP05) (NEW EPS) - New Episodes Today @                                                                          150                                
PRCFAMCHA050901084415084430000015xxFranny's Feet - Bowleriffic (PH-M/W/F) - (SEP05)                                                                          150                                
PRCFAMCHA050901084430084442000012Family Bumpers - (Phase 1 Spring 04) - Funhouse (P                                                                          150                                
ID FAMCHA050901084442084455000013PS Playhouse AM Block Open (:10-:15)                                                                                        150                                
PROFAMCHA050901084455084505000010CC Disclaimer - FAST - Generic (:08-:10)                                                                                    150                                
PGRFAMCHA050901084505090751002246The New Adventures of Winnie the Pooh             EP: 1-007                                                            6068607ECC                              
PROFAMCHA050901090751090806000015PH - 07 (T/T) - BENJAMIN/MACDONALD/MERMAID (SEP05)                                                                          150                                
PRCFAMCHA050901090806090818000012Benjamin Bear - Slide (PH) (SEP05) - Coming Up Nex                                                                          150                                
PROFAMCHA050901090818090837000019Henry's World (SEP05) - Today @ 11am                                                                                        150                                
PRCFAMCHA050901090837090943000106Playhouse - WINNIE THE POOH - Christopher Robin                                                                             150                                
PRCFAMCHA050901090943091014000031King (PH) (SEP05) (NEW EPS) - New Episodes Today @                                                                          150                                
PRCFAMCHA050901091014091044000030xxFranny's Feet - Feet Talkin' (PH-M/W/F) - (NEW E                                                                          150                                
ID FAMCHA050901091044091057000013PS Playhouse AM Block Open (:10-:15)                                                                                        150                                
PROFAMCHA050901091057091106000009CC Disclaimer - FAST - Generic (:08-:10)                                                                                    150                                
PGRFAMCHA050901091106093341002235The Secret World Of Benjamin Bear                 EPS # 1-012                                                   B75157A1065607ECC                              
PRCFAMCHA050901093341093346000005Astral ID (FEB05)                                                                                                           150                                
PROFAMCHA050901093346093401000015PH - 08 (T/T) - MACDONALD/MERMAID/PB&J (SEP05) (:1                                                                          150                                
PROFAMCHA050901093401093420000019Henry's World (SEP05) - Today @ 11am                                                                                        150                                
PRCFAMCHA050901093420093451000031King (PH) (SEP05) (NEW EPS) - New Episodes Today @                                                                          150                                
PRCFAMCHA050901093451093506000015xxFranny's Feet - Bowleriffic (PH-M/W/F) - (SEP05)                                                                          150                                
PRCFAMCHA050901093506093520000014Playhouse - HOZE HOUNDZ - Skater                                                                                            150                                
ID FAMCHA050901093520093535000015Franny's Feet Web BBD - Part of Playhouse @ family                                                                          150                                
PRCFAMCHA050901093535093544000009Radio Free Roscoe ID (MAR) - You're Watching Famil                                                                          150                                
ID FAMCHA050901093544093555000011PS Playhouse AM Block Open (:10-:15)                                                                                        150                                
PGRFAMCHA050901093555100530002935New MacDonald's Farm                              EP: 01                                                               7028607E                                
PROFAMCHA050901100530100545000015PH - 09 (T/T) - MERMAID/PB&J/HENRY (SEP05) (:14 -                                                                           150                                
PROFAMCHA050901100545100609000024xxLittle Mermaid (Trouble) - Coming Up Next                                                                                 150                                
PROFAMCHA050901100609100628000019Henry's World (SEP05) - Today @ 11am                                                                                        150                                
PRCFAMCHA050901100628100714000046Playhouse - STANLEY - Squirrel Song                                                                                         150                                
PRCFAMCHA050901100714100744000030xxFranny's Feet - Feet Talkin' (PH-M/W/F) - (NEW E                                                                          150                                
ID FAMCHA050901100744100758000014PS Playhouse AM Block Open (:10-:15)                                                                                        150                                
PROFAMCHA050901100758100807000009CC Disclaimer - FAST - Generic (:08-:10)                                                                                    150                                
PGRFAMCHA050901100807103106002259The Little Mermaid                                EP: 1-013                                                            6068607ECC                              
PRCFAMCHA050901103106103111000005Astral ID (FEB05)                                                                                                           150                                
PROFAMCHA050901103111103125000014PH - 10 - PB&J/HENRY/KING (SEP05) (:14 - 16)                                                                                150                                
PROFAMCHA050901103125103144000019Henry's World (SEP05) - Today @ 11am                                                                                        150                                
PRCFAMCHA050901103144103215000031King (PH) (SEP05) (NEW EPS) - New Episodes Today @                                                                          150                                
INTFAMCHA050901103215103330000115They Might Be Giants (ABC's) - QU                                                                                      60688120                                
PRCFAMCHA050901103330103345000015xxFranny's Feet - Bowleriffic (PH-M/W/F) - (SEP05)                                                                          150                                
ID FAMCHA050901103345103355000010PS Playhouse AM Block Open (:10-:15)                                                                                        150                                
PROFAMCHA050901103355103405000010CC Disclaimer - FAST - Generic (:08-:10)                                                                                    150                                
PGRFAMCHA050901103405105623002218PB&J Otter                                        EP: 1-001                                                           A6068607ECC                              
PROFAMCHA050901105623105638000015PH - 11 - HENRY/KING/LILO (SEP05) (:14 - 16)                                                                                150                                
PROFAMCHA050901105638105657000019Henry's World (SEP05) - Coming Up Next                                                                                      150                                
PRCFAMCHA050901105657105728000031King (PH) (SEP05) (NEW EPS) - New Episodes Today @                                                                          150                                
PRCFAMCHA050901105728105742000014Playhouse - HOZE HOUNDZ - Skater                                                                                            150                                
PRCFAMCHA050901105742105812000030xxFranny's Feet - Feet Talkin' (PH-M/W/F) - (NEW E                                                                          150                                
PROFAMCHA050901105812105842000030xxWinnie the Pooh (PH/AM) (SEP05) - Tomorrow @ 8:4                                                                          150                                
ID FAMCHA050901105842105856000014PS Playhouse AM Block Open (:10-:15)                                                                                        150                                
PROFAMCHA050901105856105906000010CC Disclaimer - FAST - Generic (:08-:10)                                                                                    150                                
PGRFAMCHA050901105906112300002354Henry's World                                     EP: 1-009                                                     B66551A1065607GCC                              
PRCFAMCHA050901112300112305000005Astral ID (FEB05)                                                                                                           150                                
PROFAMCHA050901112305112320000015PH - 12 (M-T) - KING/LILO/BRANDY (SEP05) (:14 - 16                                                                          150                                
PRCFAMCHA050901112320112351000031King (PH) (SEP05) (NEW EPS) - New Episodes Coming                                                                           150                                
PRCFAMCHA050901112351112426000035Playhouse - KATIE & ORBIE - Did You Know?                                                                                   150                                
PRCFAMCHA050901112426112441000015xxFranny's Feet - Bowleriffic (PH-M/W/F) - (SEP05)                                                                          150                                
ID FAMCHA050901112441112455000014PS Playhouse AM Block Open (:10-:15)                                                                                        150                                
PROFAMCHA050901112455112505000010CC Disclaimer - FAST - Generic (:08-:10)                                                                                    150                                
PGRFAMCHA050901112505114735002230King                                              EPS # 027                                                     C25350A1065607ECC                              
PROFAMCHA050901114735114751000016MD - 05 (LU-M-T) - LILO/BRANDY/ALADDIN (SEP05) (:1                                                                          150                                
PRCFAMCHA050901114751114820000029Lloyd In Space (PREM) (Oops) - Premiering Today @                                                                           150                                
PROFAMCHA050901114820114847000027Lilo & Stitch (MD) (SEP05) - Coming Up Next                                                                                 150                                
ID FAMCHA050901114847114902000015Mad Dash Block Open (:13-:15)                                                                                               150                                
PGRFAMCHA050901114902121141002239Disney's Lilo & Stitch                            EPS # 36                                                            A6068607E                                
PRCFAMCHA050901121141121146000005Astral ID (FEB05)                                                                                                           150                                
PROFAMCHA050901121146121202000016MD - 06 (LU-M-T) - BRANDY/ALADDIN/HOZE (SEP05) (:1                                                                          150                                
PRCFAMCHA050901121202121232000030xxBrandy & Mr. Whiskers (PREM) - Premiering Next                                                                            150                                
PRCFAMCHA050901121232121244000012Mad Dash - WEEKENDERS - Reality                                                                                             150                                
ID FAMCHA050901121244121259000015Mad Dash Block Open (:13-:15)                                                                                               150                                
PGRFAMCHA050901121259123537002238Disney's Brandy & Mr. Whiskers                    EP: 01                                                               6028607E                                
PROFAMCHA050901123537123552000015MD - 07 (LU) - ALADDIN/HOZE/HOUSE (SEP05) (:14 - 1                                                                          150                                
PROFAMCHA050901123552123622000030xxAladdin (Genie) - Coming Up Next                                                                                          150                                
PRCFAMCHA050901123622123651000029Lloyd In Space (PREM) (Oops) - Premiering Today @                                                                           150                                
ID FAMCHA050901123651123704000013Mad Dash Block Open (:13-:15)                                                                                               150                                
PROFAMCHA050901123704123714000010CC Disclaimer - FAST - Generic (:08-:10)                                                                                    150                                
PGRFAMCHA050901123714125954002240Disney's Aladdin                                  EP: 1-060                                                            6068607ECC                              
PRCFAMCHA050901125954125959000005Astral ID (FEB05)                                                                                                           150                                
PROFAMCHA050901125959130013000014MD - 08 (LU) - HOZE/HOUSE/DALMATIAN (SEP05) (:14 -                                                                          150                                
ID FAMCHA050901130013130026000013Mad Dash Block Open (:13-:15)                                                                                               150                                
PROFAMCHA050901130026130036000010CC Disclaimer - FAST - Generic (:08-:10)                                                                                    150                                
PGRFAMCHA050901130036132311002235Hoze Houndz                                       EP: 2-014                                                     B34003A1065607ECC                              
PROFAMCHA050901132311132325000014MD - 09 (LU) - HOUSE/DALMATIAN/HERCULES (SEP05) (:                                                                          150                                
PROFAMCHA050901132325132411000046Fillmore! - Chase (MD) (SEP05) - Today @ 2:35pm                                                                             150                                
ID FAMCHA050901132411132424000013Mad Dash Block Open (:13-:15)                                                                                               150                                
PGRFAMCHA050901132424134701002237Disney's House Of Mouse                           EP: 1-033                                                           A6068607E                                
PRCFAMCHA050901134701134706000005Astral ID (FEB05)                                                                                                           150                                
PROFAMCHA050901134706134720000014MD - 10 (LU) - DALMATIAN/HERCULES/FILLMORE (SEP05)                                                                          150                                
PRCFAMCHA050901134720134750000030Buzz On Maggie (PREM) - Premieres Tomorrow @ 12:10                                                                          150                                
ID FAMCHA050901134750134805000015Mad Dash Block Open (:13-:15)                                                                                               150                                
PGRFAMCHA050901134805141052002247Disney's 101 Dalmatians: The Series               EPS # 1-022                                                         A6068607E                                
PROFAMCHA050901141052141106000014MD - 11 (LU) - HERCULES/FILLMORE/WEEKENDERS (SEP05                                                                          150                                
PRCFAMCHA050901141106141135000029Lloyd In Space (PREM) (Oops) - Premiering Today @                                                                           150                                
PROFAMCHA050901141135141159000024Hercules (Count) - Coming Up Next                                                                                           150                                
ID FAMCHA050901141159141212000013Mad Dash Block Open (:13-:15)                                                                                               150                                
PGRFAMCHA050901141212143507002255Disney's Hercules                                 EP: 1-026                                                            6068607E                                
PRCFAMCHA050901143507143512000005Astral ID (FEB05)                                                                                                           150                                
PROFAMCHA050901143512143526000014MD - 12 (LU) - FILLMORE/WEEKENDERS/LLOYD (SEP05) (                                                                          150                                
PROFAMCHA050901143526143612000046Fillmore! - Chase (MD) (SEP05) - Coming Up Next                                                                             150                                
ID FAMCHA050901143612143626000014Mad Dash Block Open (:13-:15)                                                                                               150                                
PGRFAMCHA050901143626145904002238Disney's Fillmore!                                EPS # 1-022                                                         A6068607E                                
PROFAMCHA050901145904145918000014MD - 13 (PM) - WEEKENDERS/LLOYD/DAVE (SEP05) (:14                                                                           150                                
PROFAMCHA050901145918150012000054Weekenders - B-Ball (MD/PM) - (SEP05) - Coming Up                                                                           150                                
ID FAMCHA050901150012150025000013Mad Dash Block Open (:13-:15)                                                                                               150                                
PROFAMCHA050901150025150033000008CC Disclaimer - FAST - Generic (:08-:10)                                                                                    150                                
PGRFAMCHA050901150033152320002247Disney's The Weekenders                           EP: 1-033                                                           A6068607ECC                              
PRCFAMCHA050901152320152325000005Astral ID (FEB05)                                                                                                           150                                
PROFAMCHA050901152325152339000014MD - 14 (PM) - LLOYD/DAVE/PROUD (SEP05) (:14 - 16)                                                                          150                                
PRCFAMCHA050901152339152408000029Lloyd In Space (PREM) (Oops) - Premiering Next                                                                              150                                
PRCFAMCHA050901152408152431000023Mad Dash - WEEKENDERS - Pizza                                                                                               150                                
PROFAMCHA050901152431152447000016Dave the Barbarian - CHEERLEADER (MD) - Today @ 3:                                                                          150                                
PRCFAMCHA050901152447152456000009xxFamily Bumpers - (Phase 2 F/W 04) - Skateboard (                                                                          150                                
ID FAMCHA050901152456152510000014Mad Dash Block Open (:13-:15)                                                                                               150                                
PGRFAMCHA050901152510154803002253Disney's Lloyd In Space                           EP: 01                                                               6028607E                                
PROFAMCHA050901154803154818000015MD - 15 (PM) - DAVE/PROUD/RECESS (SEP05) (:14 - 16                                                                          150                                
PROFAMCHA050901154818154841000023Dave the Barbarian - DANCE (MD) (SEP05) - Coming U                                                                          150                                
PRCFAMCHA050901154841154919000038RFR CD Blast Interstitial - (Aug 15 - Sep 16) (4x                                                                           150                                
PROFAMCHA050901154919154939000020Recess - Kindergarten (MD/PM) - (SEP05) - Today @                                                                           150                                
PRCFAMCHA050901154939154954000015Family Lab - Amazing Pet Talker Cutdown - Dog                                                                               150                                
PROFAMCHA050901154954155018000024xxLizzie McGuire - SFX (MD) - Today @ 5:35pm                                                                                150                                
PRCFAMCHA050901155018155100000042Family Kicks - 3x, daily (MD/NS/NSW)                                                                                        150                                
PRCFAMCHA050901155100155122000022Mad Dash - LIZZIE MCGUIRE - Chase                                                                                           150                                
PRCFAMCHA050901155122155152000030Buzz On Maggie (PREM) - Premieres Tomorrow @ 12:10                                                                          150                                
ID FAMCHA050901155152155207000015Mad Dash Block Open (:13-:15)                                                                                               150                                
PGRFAMCHA050901155207161446002239Disney's Dave the Barbarian                       EPS # 18                                                             6068607E                                
PRCFAMCHA050901161446161451000005Astral ID (FEB05)                                                                                                           150                                
PROFAMCHA050901161451161505000014MD - 16 (PM) - PROUD/RECESS/KIM (SEP05) (:14 - 16)                                                                          150                                
PROFAMCHA050901161505161533000028Proud Family (NOV04) (MD) - Coming Up Next                                                                                  150                                
PROFAMCHA050901161533161613000040Hillary Duff - Blast Interstitial                                                                                           150                                
PROFAMCHA050901161613161651000038Recess - Keepin Clean (MD/PM) - (SEP05) - Today @                                                                           150                                
ID FAMCHA050901161651161704000013Mad Dash Block Open (:13-:15)                                                                                               150                                
PROFAMCHA050901161704161713000009CC Disclaimer - FAST - Generic (:08-:10)                                                                                    150                                
PGRFAMCHA050901161713163948002235The Proud Family                                  EP: 2-021                                                           A6068607ECC                              
PROFAMCHA050901163948164003000015MD - 17 (PM-M-T) - RECESS/KIM/LIZZIE (SEP05) (:14                                                                           150                                
PRCFAMCHA050901164003164033000030Buzz On Maggie (PREM) - Premieres Tomorrow @ 12:10                                                                          150                                
PROFAMCHA050901164033164053000020Recess - Kindergarten (MD/PM) - (SEP05) - Coming U                                                                          150                                
PRCFAMCHA050901164053164139000046xxFamily Hits Take 2 CD (Aug 19 - Oct 13) (5x, dai                                                                          150                                
PROFAMCHA050901164139164203000024xxLizzie McGuire - SFX (MD) - Today @ 5:35pm                                                                                150                                
PRCFAMCHA050901164203164214000011Naturally Sadie ID's - I'm Charlotte, you're watch                                                                          150                                
PRCFAMCHA050901164214164243000029Lloyd In Space (Oops) - Tomorrow @ 3:25pm                                                                                   150                                
PRCFAMCHA050901164243164249000006Family Bumpers - (Phase 2 F/W 04) - Gymnastics (MD                                                                          150                                
ID FAMCHA050901164249164303000014Mad Dash Block Open (:13-:15)                                                                                               150                                
PGRFAMCHA050901164303170537002234Disney's Recess                                   EP: 1-010                                                            6068607E                                
PRCFAMCHA050901170537170542000005Astral ID (FEB05)                                                                                                           150                                
PROFAMCHA050901170542170556000014MD - 18 (PM-M-T) - KIM/LIZZIE/EVEN (SEP05) (:14 -                                                                           150                                
PRCFAMCHA050901170556170626000030Suite Life of Zack and Cody (PREM) - Premiering Sa                                                                          150                                
PROFAMCHA050901170626170656000030Kim Possible 007 (FEB05) (MD) - Coming Up Next                                                                              150                                
PROFAMCHA050901170656170716000020Laurentien - Fashion 101 - Contest Winner (Aug 25                                                                           150                                
PROFAMCHA050901170716170740000024xxLizzie McGuire - SFX (MD) - Today @ 5:35pm                                                                                150                                
PROFAMCHA050901170740170748000008Phil of the Future IDs - I'm Ricky Ullman, You're                                                                           150                                
ID FAMCHA050901170748170802000014Mad Dash Block Open (:13-:15)                                                                                               150                                
PGRFAMCHA050901170802173056002254Disney's Kim Possible                             EPS # 1-055                                                          6068607E                                
PROFAMCHA050901173056173110000014MD - 19 (PM-M-T) - LIZZIE/EVEN/DARCY (SEP05) (:14                                                                           150                                
PRCFAMCHA050901173110173140000030Buzz On Maggie (PREM) - Premieres Tomorrow @ 12:10                                                                          150                                
PROFAMCHA050901173140173204000024xxLizzie McGuire - SFX (MD) - Coming Up Next                                                                                150                                
PROFAMCHA050901173204173246000042Nintendo Nintendogs - (Aug 9 - Sept 4)                                                                                      150                                
PROFAMCHA050901173246173305000019xxEven Stevens - What's Up (SEPT05) - (NS/M-TH) -                                                                           150                                
PRCFAMCHA050901173305173322000017Family Lab - Amazing Pet Talker Cutdown - Fish (Fa                                                                          150                                
PRCFAMCHA050901173322173347000025Darcy's Wild Life - (FREAK OUT) (NS) (SEP05) - Ton                                                                          150                                
ID FAMCHA050901173347173400000013Mad Dash Block Open (:13-:15)                                                                                               150                                
ID FAMCHA050901173400173408000008Magic of Disney - MAD DASH - Shape (:06-:09)                                                                                150                                
PGRFAMCHA050901173408175642002234Lizzie McGuire                                    EP: 2-032                                                           A6068607B                                
PRCFAMCHA050901175642175647000005Astral ID (FEB05)                                                                                                           150                                
PRCFAMCHA050901175647175717000030Suite Life of Zack and Cody (PREM) - Premiering Sa                                                                          150                                
PROFAMCHA050901175717175751000034xxEven Stevens - Corn Dog (SEPT05) - (NS/M-TH) - C                                                                          150                                
PRCFAMCHA050901175751175822000031NBA Jam Session 2005 - (July 13 - Sep 19) (3x)                                                                              150                                
PRCFAMCHA050901175822175849000027Darcy's Wild Life - (CHICKS) (NSW) (SEP05) - Tonig                                                                          150                                
PROFAMCHA050901175849175928000039xxNed's - 13 days of Neducation - Tonight @ 7pm                                                                             150                                
PRCFAMCHA050901175928175958000030Take 2 Teaser - Starting September 2nd (Generic)                                                                            150                                
PRCFAMCHA050901175958180004000006Family Bumpers - (Phase 3 Spring 05) - Bubble Gum                                                                           150                                
ID FAMCHA050901180004180018000014Nonstop Block Open (:14-:17)                                                                                                150                                
PROFAMCHA050901180018180028000010CC Disclaimer - FAST - Generic (:08-:10)                                                                                    150                                
PGRFAMCHA050901180028182259002231Even Stevens                                      EP: 3-011                                                           A6068807BCC                              
PRCFAMCHA050901182259182324000025Darcy's Wild Life - (FREAK OUT) (NS) (SEP05) - Com                                                                          150                                
PROFAMCHA050901182324182404000040Hillary Duff - Blast Interstitial                                                                                           150                                
PROFAMCHA050901182404182443000039xxNed's - 13 days of Neducation - Tonight @ 7pm                                                                             150                                
PRCFAMCHA050901182443182529000046xxFamily Hits Take 2 CD (Aug 19 - Oct 13) (5x, dai                                                                          150                                
PRCFAMCHA050901182529182556000027xxRadio Free Roscoe - (NS/M-T) (SEP05) - Tonight @                                                                          150                                
PRCFAMCHA050901182556182641000045Famous Players Popcorn Parties (1x)                                                                                         150                                
PROFAMCHA050901182641182700000019xxEven Stevens - What's Up (SEPT05) - (NS/M-TH) -                                                                           150                                
PRCFAMCHA050901182700182732000032xxThat's So Raven - Visions (NS) (SEP05) - Monday                                                                           150                                
PROFAMCHA050901182732182832000100Tiger Cruise (PP) (PREM) - Premiering Sept 9 @ 7:3                                                                          150                                
PROFAMCHA050901182832182910000038xxNed's 1 Day Crash Course - Monday from 12 - 6pm                                                                           150                                
PRCFAMCHA050901182910182940000030Take 2 Teaser - Starting September 2nd (Generic)                                                                            150                                
PRCFAMCHA050901182940182952000012xxFamily Bumpers - (Phase 1 Spring 04) - Picnic (M                                                                          150                                
ID FAMCHA050901182952183006000014Nonstop Block Open (:14-:17)                                                                                                150                                
PROFAMCHA050901183006183016000010CC Disclaimer - FAST - Generic (:08-:10)                                                                                    150                                
PGRFAMCHA050901183016185146002130Darcy's Wild Life                                 EP: 07                                                        A03954 1065607BCC                              
PRCFAMCHA050901185146185151000005Astral ID (FEB05)                                                                                                           150                                
PRCFAMCHA050901185151185221000030Suite Life of Zack and Cody (PREM) - Premiering Sa                                                                          150                                
PROFAMCHA050901185221185300000039xxNed's - 13 days of Neducation - Coming Up Next                                                                            150                                
PROFAMCHA050901185300185352000052Laurentien - Fashion 101 - (Aug 15 - Jan 1)                                                                                 150                                
PRCFAMCHA050901185352185419000027xxRadio Free Roscoe - (NS/M-T) (SEP05) - Tonight @                                                                          150                                
PRCFAMCHA050901185419185442000023Family Lab - Amazing Pet Talker Cutdown - Monkey                                                                            150                                
PROFAMCHA050901185442185516000034xxEven Stevens - Corn Dog (SEPT05) - (NS/M-TH) - M                                                                          150                                
PROFAMCHA050901185516185558000042Nintendo Nintendogs - (Aug 9 - Sept 4)                                                                                      150                                
PROFAMCHA050901185558185628000030xxZoey 101 - Perfect (NS/FRI) (MAR05) - Tomorrow @                                                                          150                                
ID FAMCHA050901185628185653000025Darcy's Wild Life Web BBD - visit family.ca                                                                                 150                                
PRCFAMCHA050901185653185723000030Phil of the Future (NS) (PHIL) (DEC04) - Tomorrow                                                                           150                                
PRCFAMCHA050901185723185754000031Naturally Sadie - TIE (Clip) (NSW) - Weekends @ 6:                                                                          150                                
PROFAMCHA050901185754185832000038xxNed's 1 Day Crash Course - Monday from 12 - 6pm                                                                           150                                
PROFAMCHA050901185832185857000025Fluke (WDP) - Sunday @ 1:30pm                                                                                               150                                
PRCFAMCHA050901185857185915000018xxRadio Free Roscoe - Webthrow (Waller)*DNU                                                                                 150                                
PRCFAMCHA050901185915185945000030Take 2 Teaser - Starting September 2nd (Generic)                                                                            150                                
ID FAMCHA050901185945190000000015Nonstop Block Open (:14-:17)                                                                                                150                                
PROFAMCHA050901190000190010000010CC Disclaimer - FAST - Generic (:08-:10)                                                                                    150                                
PGRFAMCHA050901190010192437002427Ned's Declassified School Survival Guide          EPS # 12                                                             2068807BCC                              
PROFAMCHA050901192437192452000015NS - 07 (M-T) SMART/RADIO/BMW (SEP05) (:14 - 16)                                                                            150                                
PRCFAMCHA050901192452192519000027xxRadio Free Roscoe - (NS/M-T) (SEP05) - Tonight @                                                                          150                                
PRCFAMCHA050901192519192601000042Family Kicks - 3x, daily (MD/NS/NSW)                                                                                        150                                
PROFAMCHA050901192601192631000030xxZoey 101 - Perfect (NS/FRI) (MAR05) - Tomorrow @                                                                          150                                
PROFAMCHA050901192631192650000019xxEven Stevens - What's Up (SEPT05) - (NS/M-TH) -                                                                           150                                
PROFAMCHA050901192650192729000039xxNed's - 13 days of Neducation - Tomorrow @ 7pm                                                                            150                                
PRCFAMCHA050901192729192759000030Take 2 Teaser - Starting September 2nd (Generic)                                                                            150                                
ID FAMCHA050901192759192834000035Ned's Web Spot (SMS) (upto Oct 15)                                                                                          150                                
PROFAMCHA050901192834192934000100Tiger Cruise (PP) (PREM) - Premiering Sept 9 @ 7:3                                                                          150                                
PRCFAMCHA050901192934192943000009xxFamily Bumpers - (Phase 1 Spring 04) - Baseball                                                                           150                                
ID FAMCHA050901192943193000000017Nonstop Block Open (:14-:17)                                                                                                150                                
PROFAMCHA050901193000193010000010CC Disclaimer - FAST - Generic (:08-:10)                                                                                    150                                
PGRFAMCHA050901193010195237002227Smart Guy                                         EP: 1-046                                                           A6068807BCC                              
PRCFAMCHA050901195237195242000005Astral ID (FEB05)                                                                                                           150                                
PROFAMCHA050901195242195257000015NS - 08 (M-T) RADIO/BMW/N-PIX (SEP05) (:14 - 16)                                                                            150                                
PRCFAMCHA050901195257195327000030Suite Life of Zack and Cody (PREM) - Premiering Sa                                                                          150                                
PRCFAMCHA050901195327195354000027xxRadio Free Roscoe - (NS/M-T) (SEP05) - Coming Up                                                                          150                                
PRCFAMCHA050901195354195440000046xxFamily Hits Take 2 CD (Aug 19 - Oct 13) (5x, dai                                                                          150                                
PROFAMCHA050901195440195510000030xxZoey 101 - Perfect (NS/FRI) (MAR05) - Tomorrow @                                                                          150                                
PRCFAMCHA050901195510195540000030Phil of the Future (NS) (PIM) (DEC04) - Tomorrow @                                                                          150                                
PROFAMCHA050901195540195619000039xxNed's - 13 days of Neducation - Tomorrow @ 7pm                                                                            150                                
PRCFAMCHA050901195619195651000032xxThat's So Raven - Science Riff (NS) (SEP05) - Mo                                                                          150                                
ID FAMCHA050901195651195726000035Ned's Web Spot (SMS) (upto Oct 15)                                                                                          150                                
PROFAMCHA050901195726195805000039xxBrotherly Love (NSW) (SEP05) - Weekends @ 11:35a                                                                          150                                
PROFAMCHA050901195805195843000038xxNed's 1 Day Crash Course - Monday from 12 - 6pm                                                                           150                                
PROFAMCHA050901195843195901000018Larger Than Life (PP) - Tomorrow @ 7:30pm                                                                                   150                                
PRCFAMCHA050901195901195912000011Naturally Sadie ID's - I'm Charlotte, you're watch                                                                          150                                
PROFAMCHA050901195912195937000025Fluke (WDP) - Sunday @ 1:30pm                                                                                               150                                
PRCFAMCHA050901195937195944000007Family Bumpers - (Phase 2 F/W 04) - Hockey (MD-L/M                                                                          150                                
ID FAMCHA050901195944200000000016Nonstop Block Open (:14-:17)                                                                                                150                                
PROFAMCHA050901200000200010000010CC Disclaimer - FAST - Generic (:08-:10)                                                                                    150                                
PGRFAMCHA050901200010202240002230Radio Free Roscoe                                 EPS # 36                                                      A05969A1065607ACC                              
PROFAMCHA050901202240202255000015NS - 08 (M-T) RADIO/BMW/N-PIX (SEP05) (:14 - 16)                                                                            150                                
PRCFAMCHA050901202255202325000030Suite Life of Zack and Cody (PREM) - Premiering Sa                                                                          150                                
PROFAMCHA050901202325202407000042Nintendo Nintendogs - (Aug 9 - Sept 4)                                                                                      150                                
PROFAMCHA050901202407202437000030xxZoey 101 - Perfect (NS/FRI) (MAR05) - Tomorrow @                                                                          150                                
PRCFAMCHA050901202437202515000038RFR CD Blast Interstitial - (Aug 15 - Sep 16) (4x                                                                           150                                
PRCFAMCHA050901202515202545000030Phil of the Future (NS) (PHIL) (DEC04) - Tomorrow                                                                           150                                
PRCFAMCHA050901202545202603000018Family Lab - Amazing Pet Talker Cutdown - Turtle (                                                                          150                                
PROFAMCHA050901202603202642000039xxNed's - 13 days of Neducation - Tomorrow @ 7pm                                                                            150                                
PRCFAMCHA050901202642202714000032xxThat's So Raven - Science Riff (NS) (SEP05) - Mo                                                                          150                                
PROFAMCHA050901202714202814000100Tiger Cruise (PP) (PREM) - Premiering Sept 9 @ 7:3                                                                          150                                
PROFAMCHA050901202814202852000038xxNed's 1 Day Crash Course - Monday from 12 - 6pm                                                                           150                                
PROFAMCHA050901202852202910000018Larger Than Life (PP) - Tomorrow @ 7:30pm                                                                                   150                                
PRCFAMCHA050901202910202940000030Take 2 Teaser - Starting September 2nd (Generic)                                                                            150                                
PROFAMCHA050901202940202946000006Phil of the Future IDs - You're Watching Family...                                                                          150                                
ID FAMCHA050901202946203000000014Nonstop Block Open (:14-:17)                                                                                                150                                
PROFAMCHA050901203000203010000010CC Disclaimer - FAST - Generic (:08-:10)                                                                                    150                                
PGRFAMCHA050901203010205121002111Boy Meets World                                   EP: 1-116                                                           B6068807BCC                              
PRCFAMCHA050901205121205126000005Astral ID (FEB05)                                                                                                           150                                
PROFAMCHA050901205126205142000016Nightly Pix Line-up (SEPT) - GENERIC (:14-:16)                                                                              150                                
PRCFAMCHA050901205142205212000030Suite Life of Zack and Cody (PREM) - Premiering Sa                                                                          150                                
ID FAMCHA050901205212205237000025Darcy's Wild Life Web BBD - visit family.ca                                                                                 150                                
PROFAMCHA050901205237205307000030xxZoey 101 - Perfect (NS/FRI) (MAR05) - Tomorrow @                                                                          150                                
PRCFAMCHA050901205307205338000031NBA Jam Session 2005 - (July 13 - Sep 19) (3x)                                                                              150                                
PROFAMCHA050901205338205417000039xxNed's - 13 days of Neducation - Tomorrow @ 7pm                                                                            150                                
PRCFAMCHA050901205417205449000032xxThat's So Raven - Science Riff (NS) (SEP05) - Mo                                                                          150                                
PROFAMCHA050901205449205459000010FAMJAM - Open/Close                                                                                                         150                                
INTFAMCHA050901205459205714000215MV Disney - (FAMILY HITS 2) - Cinderella - Cheetah                                                                     60688120                                
PROFAMCHA050901205714205728000014xxFAMJAM - Close (FAMILY) xxDNUxx                                                                                           150                                
PROFAMCHA050901205728205806000038xxNed's 1 Day Crash Course - Monday from 12 - 6pm                                                                           150                                
PROFAMCHA050901205806205831000025Fluke (WDP) - Sunday @ 1:30pm                                                                                               150                                
ID FAMCHA050901205831205906000035Ned's Web Spot (SMS) (upto Oct 15)                                                                                          150                                
PRCFAMCHA050901205906205936000030Take 2 Teaser - Starting September 2nd (Generic)                                                                            150                                
PRCFAMCHA050901205936205945000009xxFamily Bumpers - (Phase 3 Spring 05) - Giant Foo                                                                          150                                
ID FAMCHA050901205945210001000016Nonstop Block Open (:14-:17)                                                                                                150                                
ID FAMCHA050901210001210010000009xxRating - 14A - Ian (:10)                                                                                                  150                                
PGRFAMCHA050901210010224703014653Hannah And Her Sisters                                                                                                B2068807D                                
PROFAMCHA050901224703224718000015NS - 11 (M-T) LIFE/RADIO/MENTORS (SEP05) (:14 - 16                                                                          150                                
PRCFAMCHA050901224718224748000030Suite Life of Zack and Cody (PREM) - Premiering Sa                                                                          150                                
PROFAMCHA050901224748224833000045Hoze Houndz (GROCERIES - FALL 2003) - Weekdays @ 6                                                                          150                                
PRCFAMCHA050901224833224919000046xxFamily Hits Take 2 CD (Aug 19 - Oct 13) (5x, dai                                                                          150                                
PROFAMCHA050901224919224949000030xxZoey 101 - Perfect (NS/FRI) (MAR05) - Tomorrow @                                                                          150                                
PRCFAMCHA050901224949225006000017Family Lab - Amazing Pet Talker Cutdown - Fish (Sh                                                                          150                                
PROFAMCHA050901225006225045000039xxNed's - 13 days of Neducation - Tomorrow @ 7pm                                                                            150                                
PRCFAMCHA050901225045225115000030Phil of the Future (NS) (PIM) (DEC04) - Tomorrow @                                                                          150                                
PRCFAMCHA050901225115225147000032xxThat's So Raven - Science Riff (NS) (SEP05) - Mo                                                                          150                                
PROFAMCHA050901225147225157000010FAMJAM - Open/Close                                                                                                         150                                
INTFAMCHA050901225157225513000316MV Disney - Girl Power (Cheetah Girls)                                                                                 60688120                                
PROFAMCHA050901225513225527000014xxFAMJAM - Close (FAMILY) xxDNUxx                                                                                           150                                
PROFAMCHA050901225527225551000024xxLizzie McGuire - SFX (NSW/AM) - Weekends @ 7:50a                                                                          150                                
PRCFAMCHA050901225551225622000031Naturally Sadie - TIE (Clip) (NSW) - Weekends @ 6:                                                                          150                                
PRCFAMCHA050901225622225649000027Darcy's Wild Life - (CHICKS) (NSW) (SEP05) - Weeke                                                                          150                                
PROFAMCHA050901225649225749000100Tiger Cruise (PP) (PREM) - Premiering Sept 9 @ 7:3                                                                          150                                
PRCFAMCHA050901225749225819000030Take 2 Teaser - Starting September 2nd (Generic)                                                                            150                                
PROFAMCHA050901225819225857000038xxNed's 1 Day Crash Course - Monday from 12 - 6pm                                                                           150                                
PROFAMCHA050901225857225915000018Larger Than Life (PP) - Tomorrow @ 7:30pm                                                                                   150                                
PROFAMCHA050901225915225940000025Fluke (WDP) - Sunday @ 1:30pm                                                                                               150                                
PRCFAMCHA050901225940225949000009Family Bumpers - (Phase 1 Spring 04) - Soccer (MD-                                                                          150                                
ID FAMCHA050901225949230006000017Nonstop Block Open (:14-:17)                                                                                                150                                
PGRFAMCHA050901230006234732004726My So-Called Life                                 EPS # 05                                                             6068807A                                
PRCFAMCHA050901234732234737000005Astral ID (FEB05)                                                                                                           150                                
PROFAMCHA050901234737234752000015NS - 12 (M-T) RADIO/MENTORS/SPIDER (SEP05) (:14 -                                                                           150                                
PRCFAMCHA050901234752234822000030Suite Life of Zack and Cody (PREM) - Premiering Sa                                                                          150                                
PRCFAMCHA050901234822234849000027xxRadio Free Roscoe - (NS/M-T) (SEP05) - Coming Up                                                                          150                                
PRCFAMCHA050901234849234918000029Nonstop - BOY MEETS WORLD - Shampoo                                                                                         150                                
PROFAMCHA050901234918234936000018Larger Than Life (PP) - Tomorrow @ 7:30pm                                                                                   150                                
PRCFAMCHA050901234936234945000009Radio Free Roscoe ID (MAR) - You're Watching Famil                                                                          150                                
PRCFAMCHA050901234945234951000006Family Bumpers - (Phase 3 Spring 05) - Bubble Gum                                                                           150                                
ID FAMCHA050901234951235005000014Nonstop Block Open (:14-:17)                                                                                                150                                
PROFAMCHA050901235005235014000009CC Disclaimer - SLOW - Family.ca (:08-:10)                                                                                  150                                
PGRFAMCHA050901235014001244002230Radio Free Roscoe                                 EP: 001                                                       B88716A1065607ACC                              
PROFAMCHA050901001244001258000014NS - 13 (M-F) MENTORS/SPIDER (SEP05) (:14 - 16)                                                                             150                                
PROFAMCHA050901001258001315000017xxZoey 101 - Jaime (NS/FRI) (MAR05) - Tomorrow @ 6                                                                          150                                
PRCFAMCHA050901001315001353000038RFR CD Blast Interstitial - (Aug 15 - Sep 16) (4x                                                                           150                                
ID FAMCHA050901001353001407000014Nonstop Block Open (:14-:17)                                                                                                150                                
PROFAMCHA050901001407001416000009CC Disclaimer - SLOW - Family.ca (:08-:10)                                                                                  150                                
PGRFAMCHA050901001416003727002311Mentors                                           EP: 3-033                                                     C18998A1065607ACC                              
PRCFAMCHA050901003727003732000005Astral ID (FEB05)                                                                                                           150                                
PROFAMCHA050901003732003746000014NS - 14 (M-F) SPIDER (SEP05) (:14 - 16)                                                                                     150                                
PRCFAMCHA050901003746003816000030Take 2 Teaser - Starting September 2nd (Generic)                                                                            150                                
PRCFAMCHA050901003816003848000032xxThat's So Raven - Science Riff (NS) (SEP05) - Mo                                                                          150                                
ID FAMCHA050901003848003905000017Nonstop Block Open (:14-:17)                                                                                                150                                
PGRFAMCHA050901003905010048002143Spiderman                                         EP: 01                                                        C02618 1065607E                                
PROFAMCHA050901010048010106000018Larger Than Life (PP) - Tomorrow @ 7:30pm                                                                                   150                                
PROFAMCHA050901010106010136000030xxZoey 101 - Perfect (NS/FRI) (MAR05) - Tomorrow @                                                                          150                                
PRCFAMCHA050901010136010152000016xxRadio Free Roscoe - Webthrow (Smog)*DNU                                                                                   150                                
PRCFAMCHA050901010152010222000030Suite Life of Zack and Cody (PREM) - Premiering Sa                                                                          150                                
SO FAMCHA050901010222011422001200Sign Off                                                                                                                                                       
OFFFAMCHA050901011422043000031538OFF AIR                                                                                                                                                        
PROFAMCHA050902043000043009000009CC Disclaimer - FAST - Family.ca (:08-:10)                                                                                  150                                
PGRFAMCHA050902043009045647002638Katie And Orbie                                   EP: 4-051                                                     C19664A1065607ECC                              
PROFAMCHA050902045647045702000015PH - 01 - FRANNY/SOMETHING/HOZE (SEP05) (:14 - 16)                                                                          150                                
ID FAMCHA050902045702045715000013PS Playhouse AM Block Open (:10-:15)                                                                                        150                                
PROFAMCHA050902045715045724000009CC Disclaimer - FAST - Family.ca (:08-:10)                                                                                  150                                
PGRFAMCHA050902045724051954002230Franny's Feet                                     EPS # 1-012                                                   C23970A1065607ECC                              
PRCFAMCHA050902051954051959000005Astral ID (FEB05)                                                                                                           150                                
PROFAMCHA050902051959052014000015PH - 02 - SOMETHING/HOZE/KING (SEP05) (:14 - 16)                                                                            150                                
ID FAMCHA050902052014052027000013PS Playhouse AM Block Open (:10-:15)                                                                                        150                                
PROFAMCHA050902052027052036000009CC Disclaimer - FAST - Family.ca (:08-:10)                                                                                  150                                
PGRFAMCHA050902052036054309002233Something Else                                    EP: 1-007                                                     B69261A1065607ECC                              
PROFAMCHA050902054309054324000015PH - 03 - HOZE/KING/SPIDERMAN (SEP05) (:14 - 16)                                                                            150                                
ID FAMCHA050902054324054337000013PS Playhouse AM Block Open (:10-:15)                                                                                        150                                
PROFAMCHA050902054337054346000009CC Disclaimer - FAST - Family.ca (:08-:10)                                                                                  150                                
PGRFAMCHA050902054346060624002238Hoze Houndz                                       EP: 4-042                                                     B63378A1065607ECC                              
PRCFAMCHA050902060624060629000005Astral ID (FEB05)                                                                                                           150                                
PROFAMCHA050902060629060644000015PH - 04 - KING/SPIDERMAN/KIM (SEP05) (:14 - 16)                                                                             150                                
ID FAMCHA050902060644060657000013PS Playhouse AM Block Open (:10-:15)                                                                                        150                                
PROFAMCHA050902060657060706000009CC Disclaimer - FAST - Family.ca (:08-:10)                                                                                  150                                
PGRFAMCHA050902060706062936002230King                                              EP: 4-041                                                     C25350A1025607ECC                              
PROFAMCHA050902062936062951000015PH - 05 - SPIDERMAN/KIM/RECESS (SEP05) (:14 - 16)                                                                           150                                
ID FAMCHA050902062951063005000014Mad Dash Block Open (:13-:15)                                                                                               150                                
PGRFAMCHA050902063005065148002143Spiderman                                         EP: 02                                                        C02618 1025607E                                
PRCFAMCHA050902065148065153000005Astral ID (FEB05)                                                                                                           150                                
PROFAMCHA050902065153065208000015MD - 01 (AM) - KIM/RECESS/WEEKENDERS (SEP05) (:14                                                                           150                                
PRCFAMCHA050902065208065238000030Buzz On Maggie (PREM) - Premieres Today @ 12:10pm                                                                           150                                
PROFAMCHA050902065238065308000030Kim Possible 007 (FEB05) (MD) - Coming Up Next                                                                              150                                
PRCFAMCHA050902065308065346000038RFR CD Blast Interstitial - (Aug 15 - Sep 16) (4x                                                                           150                                
PROFAMCHA050902065346065424000038Recess - Keepin Clean (MD/AM) - (SEP05) - Today @                                                                           150                                
PRCFAMCHA050902065424065446000022Family Lab - Amazing Pet Talker Cutdown - Cat (Bab                                                                          150                                
PRCFAMCHA050902065446065516000030Suite Life of Zack and Cody (PREM) - Premiering To                                                                          150                                
PROFAMCHA050902065516065534000018Larger Than Life (PP) - Tonight @ 7:30pm                                                                                    150                                
PRCFAMCHA050902065534065545000011Naturally Sadie ID's - I'm Charlotte, you're watch                                                                          150                                
ID FAMCHA050902065545065600000015Mad Dash Block Open (:13-:15)                                                                                               150                                
PGRFAMCHA050902065600071854002254Disney's Kim Possible                             EP: 1-065                                                            6068607E                                
PROFAMCHA050902071854071910000016MD - 02 (AM) - RECESS/WEEKENDERS/LILO (SEP05) (:14                                                                          150                                
PRCFAMCHA050902071910071940000030Buzz On Maggie (PREM) - Premieres Today @ 12:10pm                                                                           150                                
PROFAMCHA050902071940072018000038Recess - Keepin Clean (MD/AM) - (SEP05) - Coming U                                                                          150                                
PRCFAMCHA050902072018072104000046xxFamily Hits Take 2 CD (Aug 19 - Oct 13) (5x, dai                                                                          150                                
PROFAMCHA050902072104072158000054Weekenders - B-Ball (MD/AM) - (SEP05) - Today @ 7:                                                                          150                                
PROFAMCHA050902072158072226000028Lilo & Stitch (MD) (SEP05) - Today @ 8:15am                                                                                 150                                
PRCFAMCHA050902072226072250000024Mad Dash - RECESS - Removal                                                                                                 150                                
PRCFAMCHA050902072250072320000030Suite Life of Zack and Cody (PREM) - Premiering To                                                                          150                                
PROFAMCHA050902072320072338000018Larger Than Life (PP) - Tonight @ 7:30pm                                                                                    150                                
PRCFAMCHA050902072338072344000006Family Bumpers - (Phase 2 F/W 04) - Gymnastics (MD                                                                          150                                
ID FAMCHA050902072344072359000015Mad Dash Block Open (:13-:15)                                                                                               150                                
PGRFAMCHA050902072359074633002234Disney's Recess                                   EP: 1-010                                                            6068607E                                
PRCFAMCHA050902074633074638000005Astral ID (FEB05)                                                                                                           150                                
PROFAMCHA050902074638074652000014MD - 03 (AM) - WEEKENDERS/LILO/WINNIE (SEP05) (:14                                                                          150                                
PRCFAMCHA050902074652074722000030Buzz On Maggie (PREM) - Premieres Today @ 12:10pm                                                                           150                                
PROFAMCHA050902074722074816000054Weekenders - B-Ball (MD/AM) - (SEP05) - Coming Up                                                                           150                                
PRCFAMCHA050902074816074858000042Family Kicks - 3x, daily (MD/NS/NSW)                                                                                        150                                
PROFAMCHA050902074858074926000028Lilo & Stitch (MD) (SEP05) - Today @ 8:15am                                                                                 150                                
PRCFAMCHA050902074926074949000023Mad Dash - WEEKENDERS - Pizza                                                                                               150                                
PRCFAMCHA050902074949075019000030Suite Life of Zack and Cody (PREM) - Premiering To                                                                          150                                
PROFAMCHA050902075019075037000018Larger Than Life (PP) - Tonight @ 7:30pm                                                                                    150                                
PRCFAMCHA050902075037075048000011Family Bumpers - (Phase 2 F/W 04) - Science (MD-AM                                                                          150                                
ID FAMCHA050902075048075103000015Mad Dash Block Open (:13-:15)                                                                                               150                                
PROFAMCHA050902075103075112000009CC Disclaimer - FAST - Family.ca (:08-:10)                                                                                  150                                
PGRFAMCHA050902075112081406002254Disney's The Weekenders                           EP: 1-002                                                           A6068607E                                
PROFAMCHA050902081406081421000015MD - 04 (AM-M/W/F) - LILO/WINNIE/FRANNY (SEP05) (:                                                                          150                                
PRCFAMCHA050902081421081451000030Buzz On Maggie (PREM) - Premieres Today @ 12:10pm                                                                           150                                
PROFAMCHA050902081451081518000027Lilo & Stitch (MD) (SEP05) - Coming Up Next                                                                                 150                                
PRCFAMCHA050902081518081549000031NBA Jam Session 2005 - (July 13 - Sep 19) (3x)                                                                              150                                
PRCFAMCHA050902081549081600000011Naturally Sadie ID's - I'm Charlotte, you're watch                                                                          150                                
PRCFAMCHA050902081600081645000045Famous Players Popcorn Parties (1x)                                                                                         150                                
PRCFAMCHA050902081645081715000030Suite Life of Zack and Cody (PREM) - Premiering To                                                                          150                                
PRCFAMCHA050902081715081730000015Family Lab - Amazing Pet Talker Cutdown - Dog                                                                               150                                
PROFAMCHA050902081730081748000018Larger Than Life (PP) - Tonight @ 7:30pm                                                                                    150                                
ID FAMCHA050902081748081801000013Mad Dash Block Open (:13-:15)                                                                                               150                                
PROFAMCHA050902081801081810000009CC Disclaimer - FAST - Family.ca (:08-:10)                                                                                  150                                
PGRFAMCHA050902081810084049002239Disney's Lilo & Stitch: The Series                EP: 62                                                               6028607E                                
PRCFAMCHA050902084049084054000005Astral ID (FEB05)                                                                                                           150                                
PROFAMCHA050902084054084108000014PH - 06 (M/W/F) - WINNIE/FRANNY/MACDONALD (SEP05)                                                                           150                                
PROFAMCHA050902084108084138000030Winnie the Pooh (PH/AM) (SEP05) - Coming Up Next                                                                            150                                
PRCFAMCHA050902084138084208000030xxFranny's Feet - Feet Talkin' (PH-M/W/F) - (NEW E                                                                          150                                
INTFAMCHA050902084208084338000130They Might Be Giants (ABC's) - Clap Your Hands                                                                         60688120                                
PROFAMCHA050902084338084357000019Henry's World (SEP05) - Today @ 11am                                                                                        150                                
PRCFAMCHA050902084357084432000035Playhouse - KATIE & ORBIE - Did You Know?                                                                                   150                                
PRCFAMCHA050902084432084452000020Benjamin Bear - Snack (PH-T/T) (SEP05) - Tuesday &                                                                          150                                
ID FAMCHA050902084452084503000011PS Playhouse AM Block Open (:10-:15)                                                                                        150                                
PROFAMCHA050902084503084512000009CC Disclaimer - FAST - Family.ca (:08-:10)                                                                                  150                                
PGRFAMCHA050902084512090755002243The New Adventures of Winnie the Pooh             EP: 1-008                                                            6068607ECC                              
PROFAMCHA050902090755090810000015PH - 07 (M/W/F) - FRANNY/MACDONALD/BELLE (SEP05) (                                                                          150                                
PRCFAMCHA050902090810090825000015xxFranny's Feet - Bowleriffic (PH-M/W/F) - (SEP05)                                                                          150                                
PROFAMCHA050902090825090844000019Henry's World (SEP05) - Today @ 11am                                                                                        150                                
INTFAMCHA050902090844091004000120They Might Be Giants (ABC's) - Go for G                                                                                60688120                                
PRCFAMCHA050902091004091035000031King (PH) (SEP05) (NEW EPS) - New Episodes Today @                                                                          150                                
PRCFAMCHA050902091035091047000012Benjamin Bear - Slide (PH-WKND) (SEP05) - Tomorrow                                                                          150                                
ID FAMCHA050902091047091100000013PS Playhouse AM Block Open (:10-:15)                                                                                        150                                
PROFAMCHA050902091100091109000009CC Disclaimer - FAST - Family.ca (:08-:10)                                                                                  150                                
PGRFAMCHA050902091109093339002230Franny's Feet                                     EPS # 14                                                      C23971 1025607ECC                              
PRCFAMCHA050902093339093344000005Astral ID (FEB05)                                                                                                           150                                
PROFAMCHA050902093344093359000015PH - 08 (M/W/F) - MACDONALD/BELLE/PB&J (SEP05) (:1                                                                          150                                
PROFAMCHA050902093359093418000019Henry's World (SEP05) - Today @ 11am                                                                                        150                                
ID FAMCHA050902093418093433000015Franny's Feet Web BBD - Part of Playhouse @ family                                                                          150                                
PRCFAMCHA050902093433093504000031King (PH) (SEP05) (NEW EPS) - New Episodes Today @                                                                          150                                
PRCFAMCHA050902093504093527000023Playhouse - HOUSE OF MOUSE - Calculator                                                                                     150                                
PRCFAMCHA050902093527093547000020Benjamin Bear - Snack (PH-WKND) (SEP05) - Tomorrow                                                                          150                                
ID FAMCHA050902093547093600000013PS Playhouse AM Block Open (:10-:15)                                                                                        150                                
PGRFAMCHA050902093600100556002956New MacDonald's Farm                              EP: 02                                                               7028607E                                
PROFAMCHA050902100556100611000015PH - 09 (M/W/F) - BELLE/PB&J/HENRY (SEP05) (:14 -                                                                           150                                
PROFAMCHA050902100611100630000019Henry's World (SEP05) - Today @ 11am                                                                                        150                                
PRCFAMCHA050902100630100701000031King (PH) (SEP05) (NEW EPS) - New Episodes Today @                                                                          150                                
PRCFAMCHA050902100701100736000035Playhouse - KATIE & ORBIE - Did You Know?                                                                                   150                                
PRCFAMCHA050902100736100748000012Benjamin Bear - Slide (PH-WKND) (SEP05) - Tomorrow                                                                          150                                
ID FAMCHA050902100748100800000012PS Playhouse AM Block Open (:10-:15)                                                                                        150                                
PGRFAMCHA050902100800103042002242Disney's Sing Me A Story With Belle               EP: 01                                                               6028607G                                
PRCFAMCHA050902103042103047000005Astral ID (FEB05)                                                                                                           150                                
PROFAMCHA050902103047103102000015PH - 10 - PB&J/HENRY/KING (SEP05) (:14 - 16)                                                                                150                                
PROFAMCHA050902103102103121000019Henry's World (SEP05) - Today @ 11am                                                                                        150                                
