SO FAMCHA040301043000043011000011Sign On (oct 1)                                                                                                                                                
PROFAMCHA040301043011043020000009CC Disclaimer - FAST - Family.ca (:08-:10)                                                                                  150                                
PGRFAMCHA040301043020045313002253Franklin                                          Franklin the Copycat/Big Brother Franklin                     B3667111065607ECC                              
PROFAMCHA040301045313045329000016PS - 01(PH) - WTP/KATIE/FRANKLIN (:14-:16)                                                                                  150                                
ID FAMCHA040301045329045342000013PS Playhouse AM Block Open (:10-:15)                                                                                        150                                
PROFAMCHA040301045342045351000009CC Disclaimer - FAST - Family.ca (:08-:10)                                                                                  150                                
PGRFAMCHA040301045351051634002243New Adventures of Winnie the Pooh; The            Tigger Is The Mother of Invention/Bug Stops Here                     6068607ECC                              
PROFAMCHA040301051634051650000016xxPS - 02(PH) - KATIE/FRANKLIN/RIPLEY (:14-:16)                                                                             150                                
ID FAMCHA040301051650051703000013PS Playhouse AM Block Open (:10-:15)                                                                                        150                                
PROFAMCHA040301051703051712000009CC Disclaimer - FAST - Family.ca (:08-:10)                                                                                  150                                
PGRFAMCHA040301051712054350002638Katie And Orbie                                   The Steam Engine/Orbie In Snow/The Water Sprite's             B6228011065607ECC                              
PROFAMCHA040301054350054406000016xxPS - 03(PH) - FRANKLIN/RIPLEY/HOZE (:14-:16)                                                                              150                                
ID FAMCHA040301054406054419000013PS Playhouse AM Block Open (:10-:15)                                                                                        150                                
PROFAMCHA040301054419054428000009CC Disclaimer - FAST - Family.ca (:08-:10)                                                                                  150                                
PGRFAMCHA040301054428060721002253Franklin                                          Franklin and the Grump/Franklin's Promise                     B3667211065607ECC                              
PROFAMCHA040301060721060736000015xxPS - 04(PH) - RIPLEY/HOZE/KNIGHT (:14-:16)                                                                                150                                
PRCFAMCHA040301060736060750000014Playhouse - HOZE HOUNDZ - Skater                                                                                            150                                
ID FAMCHA040301060750060800000010PS Playhouse AM Block Open (:10-:15)                                                                                        150                                
PROFAMCHA040301060800060809000009CC Disclaimer - FAST - Family.ca (:08-:10)                                                                                  150                                
PGRFAMCHA040301060809063239002430Ripley's Believe It Or Not!                       Head's I Win, Tails You Lose                                  B71299 1065607ECC                              
PROFAMCHA040301063239063255000016xxPS - 05(PH) - HOZE/KNIGHT/PRLR (:14-:16)                                                                                  150                                
PRCFAMCHA040301063255063340000045xxHoze Houndz (PAMPER - FALL 2003) - Coming Up (PH                                                                          150                                
PRCFAMCHA040301063340063415000035Playhouse - KATIE & ORBIE - Discoveries                                                                                     150                                
PROFAMCHA040301063415063447000032xxJojo's Circus - Today @ 9:45am                                                                                            150                                
ID FAMCHA040301063447063500000013PS Playhouse AM Block Open (:10-:15)                                                                                        150                                
PROFAMCHA040301063500063509000009CC Disclaimer - FAST - Family.ca (:08-:10)                                                                                  150                                
PGRFAMCHA040301063509065744002235Hoze Houndz                                       Flower Power/Vacation Bound Hound                             B3400311065607ECC                              
PROFAMCHA040301065744065800000016xxPS - 06(PB) - KNIGHT/PRLR/GADGET (:14-:16)                                                                                150                                
PRCFAMCHA040301065800065830000030xxPower Box Block Promo - Coming Up *DNU*                                                                                   150                                
PROFAMCHA040301065830065900000030Recess (NOV2003) - Today @ 11:50am                                                                                          150                                
PRCFAMCHA040301065900065916000016Radio Free Roscoe - Webthrow (Smog)                                                                                         150                                
PROFAMCHA040301065916065946000030Goof Troop (FEB 2004) - Today @ 12:35pm                                                                                     150                                
ID FAMCHA040301065946070000000014Power Box Block Open (:12-:15)                                                                                              150                                
PROFAMCHA040301070000070009000009CC Disclaimer - FAST - Family.ca (:08-:10)                                                                                  150                                
PGRFAMCHA040301070009072134002125Mon Colle Knights                                 EPS # 1-034                                                         16068607ECC                              
PROFAMCHA040301072134072150000016xxPS - 07(PB) - PRLR/GADGET/DALMATIANS (:14-:16)                                                                            150                                
PRCFAMCHA040301072150072220000030xxPower Box Block Promo - Weekdays, Starting @ 7am                                                                          150                                
INTFAMCHA040301072220072539000319Art Attack - Garbage Truckman                                                                                          60686120                                
PROFAMCHA040301072539072609000030Recess (NOV2003) - Today @ 11:50am                                                                                          150                                
INTFAMCHA040301072609072724000115Gagsters - Dirty Diaper                                                                                               120686120                                
PRCFAMCHA040301072724072754000030MAD DASH LUNCH - Block Promo - Today @ 11:50am                                                                              150                                
PRCFAMCHA040301072754072824000030Spring Break In Contest (Mar 1 - Mar 28)                                                                                    150                                
PROFAMCHA040301072824072854000030Goof Troop (FEB 2004) - Today @ 12:35pm                                                                                     150                                
INTFAMCHA040301072854072917000023Harrisons; The - Marker Beard                                                                                         110626120                                
PROFAMCHA040301072917072945000028Proud Family (BOND) - (MD) - Today @ 5:05pm                                                                                 150                                
ID FAMCHA040301072945073000000015Power Box Block Open (:12-:15)                                                                                              150                                
PGRFAMCHA040301073000075128002128Power Rangers Lightspeed Rescue                   The Omega Project                                                   16068607E                                
PROFAMCHA040301075128075142000014PS - 08(PB) - GADGET/DALMATIANS/FRANKLIN (:14-:16)                                                                          150                                
PROFAMCHA040301075142075212000030Gadget & The Gadgetinis - (PB) - Coming Up                                                                                  150                                
PRCFAMCHA040301075212075242000030MAD DASH LUNCH - Block Promo - Today @ 11:50am                                                                              150                                
INTFAMCHA040301075242075553000311Art Attack - Boys Playing Basketball                                                                                   60686120                                
PROFAMCHA040301075553075623000030Recess (NOV2003) - Today @ 11:50am                                                                                          150                                
INTFAMCHA040301075623075702000039Harrisons; The - Woke Up Like This                                                                                    110626120                                
PROFAMCHA040301075702075732000030Goof Troop (FEB 2004) - Today @ 12:35pm                                                                                     150                                
INTFAMCHA040301075732075917000145Gagsters - Prankin' Parrot                                                                                            120686120                                
PROFAMCHA040301075917075947000030Weekenders (MESS) - Today @ 3:50pm                                                                                          150                                
ID FAMCHA040301075947080000000013Power Box Block Open (:12-:15)                                                                                              150                                
PGRFAMCHA040301080000082213002213Gadget & the Gadgetinis                           EPS # 1-036                                                         16068607E                                
PROFAMCHA040301082213082229000016PS - 09(PH) - DALMATIANS/FRANKLIN/WTP (:14-:16)                                                                             150                                
PROFAMCHA040301082229082301000032xxJojo's Circus - Today @ 9:45am                                                                                            150                                
PROFAMCHA040301082301082331000030xxDisney's 101 Dalmatians - Coming Up                                                                                       150                                
INTFAMCHA040301082331082531000200Disney Circle Time - The Greedy Dog (anywhere but                                                                      60688120                                
PRCFAMCHA040301082531082602000031xxFranklin (HANKY - FALL 2003) - Today @ 8:55am                                                                             150                                
INTFAMCHA040301082602082918000316Art Attack - Party Clown                                                                                               60286120                                
PROFAMCHA040301082918082948000030Stanley - TEDDY BEAR - Today @ 10:10am                                                                                      150                                
ID FAMCHA040301082948083000000012PS Playhouse AM Block Open (:10-:15)                                                                                        150                                
PGRFAMCHA040301083000085249002249Disney's 101 Dalmatians: The Series               EPS # 1-010                                                         16068607E                                
PROFAMCHA040301085249085305000016PS - 10(PH) - FRANKLIN/WTP/JOJO (:14-:16) (JAN12)                                                                           150                                
PRCFAMCHA040301085305085340000035xxFranklin (CANOE - FALL 2003) - Coming Up (PH)                                                                             150                                
PRCFAMCHA040301085340085415000035Playhouse - KATIE & ORBIE - Discoveries                                                                                     150                                
PROFAMCHA040301085415085447000032xxJojo's Circus - Today @ 9:45am                                                                                            150                                
ID FAMCHA040301085447085500000013PS Playhouse AM Block Open (:10-:15)                                                                                        150                                
PROFAMCHA040301085500085509000009CC Disclaimer - FAST - Family.ca (:08-:10)                                                                                  150                                
PGRFAMCHA040301085509091802002253Franklin                                          Franklin the Fabulous/Franklin Camps Out                      B3666911065607ECC                              
PROFAMCHA040301091802091818000016PS - 11(PH) - WTP/JOJO/STANLEY (:14-:16) (JAN12)                                                                            150                                
PRCFAMCHA040301091818091849000031xxFranklin (HANKY - FALL 2003) - Coming Up (PH)                                                                             150                                
PRCFAMCHA040301091849091916000027Playhouse - FRANKLIN - Laundry                                                                                              150                                
PROFAMCHA040301091916091948000032xxJojo's Circus - Today @ 9:45am                                                                                            150                                
ID FAMCHA040301091948092000000012PS Playhouse AM Block Open (:10-:15)                                                                                        150                                
PROFAMCHA040301092000092009000009CC Disclaimer - FAST - Family.ca (:08-:10)                                                                                  150                                
PGRFAMCHA040301092009094250002241New Adventures of Winnie the Pooh; The            Easy Come Easy Gopher/Invasion of Pooh Snatcher                      6068607ECC                              
PROFAMCHA040301094250094305000015PS - 12(PH) - JOJO/STANLEY/HENRY (:14-:16) (JAN12)                                                                          150                                
PROFAMCHA040301094305094337000032xxJojo's Circus - Coming Up                                                                                                 150                                
PROFAMCHA040301094337094407000030Stanley - TEDDY BEAR - Today @ 10:10am                                                                                      150                                
PRCFAMCHA040301094407094437000030Henry's World - TEDDY - Today @ 10:35am                                                                                     150                                
PRCFAMCHA040301094437094505000028xxChip 'n Dale (FALL 2003) - Today @ 11am                                                                                   150                                
PRCFAMCHA040301094505094550000045xxHoze Houndz (PAMPER - FALL 2003) - Today @ 2:10p                                                                          150                                
ID FAMCHA040301094550094600000010PS Playhouse AM Block Open (:10-:15)                                                                                        150                                
PGRFAMCHA040301094600101007002407JoJo's Circus                                     EPS # 22                                                            16028607E                                
PROFAMCHA040301101007101023000016PS - 13(PH) - STANLEY/HENRY/CHIP (:14-:16) (JAN12)                                                                          150                                
PROFAMCHA040301101023101053000030Stanley - TEDDY BEAR - Next                                                                                                 150                                
PRCFAMCHA040301101053101123000030Henry's World - TEDDY - Today @ 10:35am                                                                                     150                                
PRCFAMCHA040301101123101150000027Playhouse - FRANKLIN - Laundry                                                                                              150                                
PRCFAMCHA040301101150101218000028xxChip 'n Dale (FALL 2003) - Today @ 11am                                                                                   150                                
ID FAMCHA040301101218101229000011PS Playhouse AM Block Open (:10-:15)                                                                                        150                                
PROFAMCHA040301101229101238000009CC Disclaimer - FAST - Family.ca (:08-:10)                                                                                  150                                
PGRFAMCHA040301101238103633002355Stanley                                           Proud As A Peacock/Mistaken Mermaid                                 16068607ECC                              
PROFAMCHA040301103633103649000016PS - 14(PH) - HENRY/CHIP/ART (:14-:16) (JAN12)                                                                              150                                
PRCFAMCHA040301103649103719000030Henry's World - TEDDY - Coming Up                                                                                           150                                
PRCFAMCHA040301103719103747000028xxChip 'n Dale (FALL 2003) - Today @ 11am                                                                                   150                                
ID FAMCHA040301103747103800000013PS Playhouse AM Block Open (:10-:15)                                                                                        150                                
PROFAMCHA040301103800103809000009CC Disclaimer - FAST - Family.ca (:08-:10)                                                                                  150                                
PGRFAMCHA040301103809110210002401Henry's World                                     Henry The Magnificent/Jump To It                              B6654911065607GCC                              
PROFAMCHA040301110210110226000016PS - 15(PH) - CHIP/ART/RECESS (:14-:16)                                                                                     150                                
PRCFAMCHA040301110226110254000028xxChip 'n Dale (FALL 2003) - Coming Up                                                                                      150                                
PRCFAMCHA040301110254110317000023Playhouse - HOUSE OF MOUSE - Calculator                                                                                     150                                
PROFAMCHA040301110317110347000030xxHouse of Mouse (FALL 2003) - Today @ 2:35pm                                                                               150                                
ID FAMCHA040301110347110400000013PS Playhouse AM Block Open (:10-:15)                                                                                        150                                
ID FAMCHA040301110400110408000008Magic of Disney - PLAYHOUSE - Shape (:06-:09)                                                                               150                                
PGRFAMCHA040301110408112659002251Chip 'n Dale Rescue Rangers                       Parental Discretion Retired                                         16068607E                                
PROFAMCHA040301112659112715000016PS - 16(PH) - ART/RECESS/FILLMORE (:14-:16) (JAN)                                                                           150                                
PROFAMCHA040301112715112745000030xxDisney's 101 Dalmatians - Today @ 1:25pm                                                                                  150                                
PRCFAMCHA040301112745112817000032xxHoze Houndz (GROCERIES - FALL 2003) - Today @ 2:                                                                          150                                
PROFAMCHA040301112817112847000030xxHouse of Mouse (FALL 2003) - Today @ 2:35pm                                                                               150                                
ID FAMCHA040301112847112900000013PS Playhouse AM Block Open (:10-:15)                                                                                        150                                
PGRFAMCHA040301112900114407001507Art Attack                                                                                                             60686110                                
PROFAMCHA040301114407114423000016PS - 17(MD) - RECESS/FILLMORE/GOOF (:14-:16) (JAN1                                                                          150                                
PROFAMCHA040301114423114453000030Recess (NOV2003) - Coming Up                                                                                                150                                
PROFAMCHA040301114453114523000030Goof Troop (FEB 2004) - Today @ 12:35pm                                                                                     150                                
INTFAMCHA040301114523114630000107Gagsters - Dirty Dentures                                                                                             120686120                                
PROFAMCHA040301114630114700000030Weekenders (MESS) - Today @ 3:50pm                                                                                          150                                
PRCFAMCHA040301114700114710000010Mad Dash - LIZZIE MCGUIRE - Going In                                                                                        150                                
PROFAMCHA040301114710114730000020Recess - VCC Cross Promo (Feb 29 - Mar 31)                                                                                  150                                
PROFAMCHA040301114730114758000028Proud Family (BOND) - (MD) - Today @ 5:05pm                                                                                 150                                
INTFAMCHA040301114758114916000118Gagsters - Crabby                                                                                                     120686120                                
PRCFAMCHA040301114916114946000030MAD DASH LUNCH - Block Promo - Next                                                                                         150                                
ID FAMCHA040301114946115001000015PS Mad Dash Block Open (:13-:15)                                                                                            150                                
PGRFAMCHA040301115001121251002250Disney's Recess                                   Principals Of Golf/All The Principal's Men                          16068607E                                
PROFAMCHA040301121251121307000016PS - 18(MD) - FILLMORE/GOOF/TEAMO (:14-:16) (JAN1)                                                                          150                                
ID FAMCHA040301121307121322000015PS Mad Dash Block Open (:13-:15)                                                                                            150                                
PGRFAMCHA040301121322123559002237Disney's Fillmore!                                EPS # 1-017                                                         16068607E                                
PROFAMCHA040301123559123615000016PS - 19(MD) - GOOF/TEAMO/DALMATIANS (:14-:16) (JAN                                                                          150                                
PRCFAMCHA040301123615123645000030Good Boy! DVD Release - Blast Interstial - Version                                                                          150                                
ID FAMCHA040301123645123700000015Mad Dash Block Open (:13-:15)                                                                                               150                                
PROFAMCHA040301123700123710000010CC Disclaimer - FAST - Family.ca (:08-:10)                                                                                  150                                
PGRFAMCHA040301123710125957002247Goof Troop                                        For Pete's Sake                                                     16068607ECC                              
PROFAMCHA040301125957130013000016PS - 20(MD) - TEAMO/DALMATIANS/CHIP (:14-:16) (JAN                                                                          150                                
PROFAMCHA040301130013130025000012Mad Dash - RECESS - Sprinkler                                                                                               150                                
PROFAMCHA040301130025130045000020Recess - VCC Cross Promo (Feb 29 - Mar 31)                                                                                  150                                
ID FAMCHA040301130045130100000015Mad Dash Block Open (:13-:15)                                                                                               150                                
PROFAMCHA040301130100130109000009CC Disclaimer - FAST - Family.ca (:08-:10)                                                                                  150                                
PGRFAMCHA040301130109132402002253Disney's Teamo Supremo                            Thog The Caveman Returns/Mr.Large's Slippery Schem                  16068607ECC                              
PROFAMCHA040301132402132418000016PS - 21(PH) - DALMATIANS/CHIP/HOZE (:14-:16)                                                                                150                                
ID FAMCHA040301132418132433000015PS Playhouse PM Block Open (:10-:15)                                                                                        150                                
PGRFAMCHA040301132433134717002244Disney's 101 Dalmatians: The Series               EPS # 1-011                                                         16068607E                                
PROFAMCHA040301134717134733000016PS - 22(PH) - CHIP/HOZE/HOM (:14-:16)                                                                                       150                                
PRCFAMCHA040301134733134747000014Playhouse - HOZE HOUNDZ - Skater                                                                                            150                                
ID FAMCHA040301134747134800000013PS Playhouse PM Block Open (:10-:15)                                                                                        150                                
ID FAMCHA040301134800134808000008Magic of Disney - PLAYHOUSE - Wipe (:06-:09)                                                                                150                                
PGRFAMCHA040301134808141053002245Chip 'n Dale Rescue Rangers                       Risky Beesness                                                      16068607E                                
PROFAMCHA040301141053141109000016PS - 23(PH) - HOZE/HOM/TIMON (:14-:16)                                                                                      150                                
PRCFAMCHA040301141109141149000040xxHoze Houndz (PIRATES - FALL 2003) - Coming Up (P                                                                          150                                
ID FAMCHA040301141149141200000011PS Playhouse PM Block Open (:10-:15)                                                                                        150                                
PROFAMCHA040301141200141209000009CC Disclaimer - FAST - Family.ca (:08-:10)                                                                                  150                                
PGRFAMCHA040301141209143447002238Hoze Houndz                                       Metamorphosis/Snowed                                          A6340111065607ECC                              
PROFAMCHA040301143447143502000015PS - 24(PH) - HOM/TIMON/LILO (:14-:16) (JAN1)                                                                               150                                
PROFAMCHA040301143502143532000030xxHouse of Mouse (FALL 2003) - Coming Up                                                                                    150                                
PRCFAMCHA040301143532143550000018xxHoze Houndz (RUNNING - FALL 2003) - Tomorrow @ 2                                                                          150                                
ID FAMCHA040301143550143600000010PS Playhouse PM Block Open (:10-:15)                                                                                        150                                
PGRFAMCHA040301143600145837002237Disney's House Of Mouse                           Music Day                                                           16068607E                                
PROFAMCHA040301145837145851000014Mad Dash  - 01 - TIMON/LILO/WEEKENDERS (:14-:16) (                                                                          150                                
PRCFAMCHA040301145851145921000030Mad Dash - GUIDE - Coming Up                                                                                                150                                
PROFAMCHA040301145921145941000020Recess - VCC Cross Promo (Feb 29 - Mar 31)                                                                                  150                                
PRCFAMCHA040301145941145953000012Mad Dash - WEEKENDERS - Reality                                                                                             150                                
ID FAMCHA040301145953150006000013Mad Dash Block Open (:13-:15)                                                                                               150                                
PGRFAMCHA040301150006152252002246Lion King's Timon & Pumbaa; The                   Throw Your Hog in the Ring/Slalom Proble                             6068607E                                
PROFAMCHA040301152252152307000015Mad Dash  - 02 - LILO/WEEKENDERS/RECESS (:14-:16)                                                                           150                                
PRCFAMCHA040301152307152337000030Mad Dash - GUIDE - You're Watching                                                                                          150                                
PROFAMCHA040301152337152407000030Recess (NOV2003) - Today @ 4:15pm                                                                                           150                                
PRCFAMCHA040301152407152437000030Spring Break In Contest (Mar 1 - Mar 28)                                                                                    150                                
PRCFAMCHA040301152437152447000010Mad Dash - LIZZIE MCGUIRE - Going In                                                                                        150                                
ID FAMCHA040301152447152500000013Mad Dash Block Open (:13-:15)                                                                                               150                                
PGRFAMCHA040301152500154740002240Disney's Lilo & Stitch: The Series                EPS # 04                                                            16068607E                                
PROFAMCHA040301154740154756000016Mad Dash  - 03 - WEEKENDERS/RECESS/KIM (:14-:16)                                                                            150                                
PROFAMCHA040301154756154826000030Weekenders (MESS) - Coming Up                                                                                               150                                
PRCFAMCHA040301154826154856000030Good Boy! DVD Release - Blast Interstial - Version                                                                          150                                
PROFAMCHA040301154856154926000030xxKim Possible (NOV2003) - (MD) - Today @ 4:40pm                                                                            150                                
PROFAMCHA040301154926154944000018xxThat's So Raven (FALL 2003) - Today @ 5:30pm                                                                              150                                
ID FAMCHA040301154944154959000015Mad Dash Block Open (:13-:15)                                                                                               150                                
PROFAMCHA040301154959155008000009CC Disclaimer - FAST - Family.ca (:08-:10)                                                                                  150                                
PGRFAMCHA040301155008161240002232Disney's The Weekenders                           Dead Ringer/Carver The Terrible                                     16068607ECC                              
PROFAMCHA040301161240161256000016Mad Dash  - 04 - RECESS/KIM/PROUD (:14-:16)                                                                                 150                                
PROFAMCHA040301161256161326000030Recess (NOV2003) - Coming Up                                                                                                150                                
PRCFAMCHA040301161326161356000030Looney Tunes DVD Blast! Interstitial - Vers. 1 (Fe                                                                          150                                
PROFAMCHA040301161356161426000030xxKim Possible (NOV2003) - (MD) - Today @ 4:40pm                                                                            150                                
PRCFAMCHA040301161426161501000035Bullying Pledge - Ongoing to September 1                                                                                    150                                
PROFAMCHA040301161501161529000028Proud Family (BOND) - (MD) - Today @ 5:05pm                                                                                 150                                
PROFAMCHA040301161529161547000018xxThat's So Raven (FALL 2003) - Today @ 5:30pm                                                                              150                                
ID FAMCHA040301161547161600000013Mad Dash Block Open (:13-:15)                                                                                               150                                
PGRFAMCHA040301161600163835002235Disney's Recess                                   Parent's Night/Swing On Thru to the Other Side                       6068607E                                
PROFAMCHA040301163835163851000016Mad Dash  - 05 - KIM/PROUD/LIZZIE (:14-:16)                                                                                 150                                
PROFAMCHA040301163851163921000030xxKim Possible (NOV2003) - (MD) - Coming Up                                                                                 150                                
PRCFAMCHA040301163921163951000030Family Birthday Club #1 - ONGOING (G)                                                                                       150                                
PROFAMCHA040301163951164019000028Proud Family (BOND) - (MD) - Today @ 5:05pm                                                                                 150                                
PROFAMCHA040301164019164052000033Agent Cody Banks 2 Blast Interstital - Vers 1 (Feb                                                                    1     150                                
PRCFAMCHA040301164052164112000020Radio Free Roscoe - Webthrow (Shady Lane)                                                                                   150                                
PROFAMCHA040301164112164146000034xxLizzie McGuire - GROWN UP (MD) - Today @ 5:35pm                                                                           150                                
ID FAMCHA040301164146164200000014Mad Dash Block Open (:13-:15)                                                                                               150                                
PGRFAMCHA040301164200170449002249Disney's Kim Possible                             EPS # 1-026                                                         16068607E                                
PROFAMCHA040301170449170505000016Mad Dash  - 06 - PROUD/LIZZIE/ALL (:14-:16)                                                                                 150                                
PROFAMCHA040301170505170533000028Proud Family (BOND) - (MD) - Coming Up                                                                                      150                                
PRCFAMCHA040301170533170612000039Mad Dash - WEEKENDERS - Arrival                                                                                             150                                
PRCFAMCHA040301170612170642000030Good Boy! DVD Release - Blast Interstial - Version                                                                          150                                
PROFAMCHA040301170642170716000034xxLizzie McGuire - GROWN UP (MD) - Today @ 5:35pm                                                                           150                                
PRCFAMCHA040301170716170746000030Mad Dash - GUIDE - You're Watching                                                                                          150                                
ID FAMCHA040301170746170800000014Mad Dash Block Open (:13-:15)                                                                                               150                                
PGRFAMCHA040301170800173036002236Proud Family; The                                 EPS # 2-028                                                         16068807E                                
PROFAMCHA040301173036173052000016Mad Dash  - 07(NOV) - LIZZIE/ALL/RAVEN (:14-:16)                                                                            150                                
PROFAMCHA040301173052173126000034xxLizzie McGuire - GROWN UP (MD) - Coming Up                                                                                150                                
PROFAMCHA040301173126173156000030xxAll That - HEAR THAT? - NS - Tonight @ 6pm                                                                                150                                
PRCFAMCHA040301173156173226000030Mad Dash - GUIDE - You're Watching                                                                                          150                                
PROFAMCHA040301173226173259000033Agent Cody Banks 2 Blast Interstital - Vers 1 (Feb                                                                    1     150                                
PROFAMCHA040301173259173311000012Mad Dash - RECESS - Sprinkler                                                                                               150                                
PROFAMCHA040301173311173345000034xxLizzie McGuire - Spring Break In - Weekdays @ 8a                                                                          150                                
ID FAMCHA040301173345173400000015Mad Dash Block Open (:13-:15)                                                                                               150                                
ID FAMCHA040301173400173408000008Magic of Disney - MAD DASH - Shape (:06-:09)                                                                                150                                
PGRFAMCHA040301173408175643002235Lizzie McGuire                                    Sibling Bonds                                                       16068607B                                
PROFAMCHA040301175643175658000015Nonstop - 01(M-T/NOV) - ALL/RAVEN/EVEN (:14-:16)                                                                            150                                
PROFAMCHA040301175658175728000030xxAll That - HEAR THAT? - NS - Coming Up                                                                                    150                                
PRCFAMCHA040301175728175745000017Radio Free Roscoe - Webthrow (Question Mark)                                                                                150                                
PRCFAMCHA040301175745175815000030Looney Tunes DVD Blast! Interstitial - Vers. 1 (Fe                                                                          150                                
PROFAMCHA040301175815175845000030xxThat's So Raven (GOOD LIFE) - (NS) - Tonight @ 6                                                                          150                                
PRCFAMCHA040301175845175915000030xxRadio Free Roscoe (NS/M-T) - Tonight @ 7:30pm                                                                             150                                
PROFAMCHA040301175915175945000030xxAll That - Spring Break In - Weekdays @ 8:55am                                                                            150                                
ID FAMCHA040301175945180000000015Nonstop Block Open (:14-:17)                                                                                                150                                
PGRFAMCHA040301180000182000002000All That                                                                                                              120686090                                
PROFAMCHA040301182000182014000014Nonstop - 02(M-T/NOV) - RAVEN/EVEN/RADIO (:14-:16)                                                                          150                                
PROFAMCHA040301182014182032000018xxThat's So Raven (FALL 2003) - Coming Up (NS)                                                                              150                                
PRCFAMCHA040301182032182051000019Radio Free Roscoe - Webthrow (Pronto)                                                                                       150                                
PRCFAMCHA040301182051182121000030Family Birthday Club #2 - ONGOING (G)                                                                                       150                                
PROFAMCHA040301182121182146000025Even Stevens (SIBLINGS) - (NS/M-T) - Tonight @ 7pm                                                                          150                                
PRCFAMCHA040301182146182156000010Nonstop - BRENDAN LEONARD - Jumps                                                                                           150                                
PRCFAMCHA040301182156182246000050Bullying PSA - Ongoing to September 1                                                                                       150                                
INTFAMCHA040301182246182706000420Art Attack - Genie                                                                                                     60686120                                
PRCFAMCHA040301182706182736000030xxRadio Free Roscoe (NS/M-T) - Tonight @ 7:30pm                                                                             150                                
INTFAMCHA040301182736182845000109Gagsters - Candy Surprise                                                                                             120686120                                
PRCFAMCHA040301182845182915000030Spring Break In Contest (Mar 1 - Mar 28)                                                                                    150                                
PROFAMCHA040301182915182945000030xxThat's So Raven - Spring Break In - Weekdays @ 9                                                                          150                                
ID FAMCHA040301182945183000000015Nonstop Block Open (:14-:17)                                                                                                150                                
PROFAMCHA040301183000183009000009CC Disclaimer - FAST - Family.ca (:08-:10)                                                                                  150                                
PGRFAMCHA040301183009185249002240That's So Raven                                   Campaign In The Neck                                                16068807BCC                              
PROFAMCHA040301185249185303000014Nonstop - 03(M-T/JAN) - EVEN/RADIO/BMW (:14-:16) (                                                                          150                                
PROFAMCHA040301185303185328000025Even Stevens (SIBLINGS) - (NS) - Coming Up                                                                                  150                                
PRCFAMCHA040301185328185358000030xxRadio Free Roscoe (NS/M-T) - Tonight @ 7:30pm                                                                             150                                
PRCFAMCHA040301185358185428000030Looney Tunes DVD Blast! Interstitial - Vers. 1 (Fe                                                                          150                                
PROFAMCHA040301185428185458000030Boy Meets World (SCRAWNY) - (NS) - Tonight @ 8pm                                                                            150                                
PROFAMCHA040301185458185508000010FAMJAM - Open                                                                                                               150                                
INTFAMCHA040301185508185738000230MV Disney - Girl Power (Cheetah Girls)                                                                                 60688120                                
PROFAMCHA040301185738185752000014FAMJAM - Close (EMAIL)                                                                                                      150                                
PRCFAMCHA040301185752185822000030xxIn A Heartbeat (FALL2003) - Tonight @ 8:30pm                                                                              150                                
PROFAMCHA040301185822185852000030Brendan Leonard (#2 - FALL 2003) - Tonight @ 11pm                                                                           150                                
PRCFAMCHA040301185852185921000029Nonstop - BOY MEETS WORLD - Shampoo                                                                                         150                                
PROFAMCHA040301185921185946000025xxEven Stevens - Spring Break In - Weekdays @ 9:30                                                                          150                                
ID FAMCHA040301185946190000000014Nonstop Block Open (:14-:17)                                                                                                150                                
PROFAMCHA040301190000190009000009CC Disclaimer - FAST - Family.ca (:08-:10)                                                                                  150                                
PGRFAMCHA040301190009192240002231Even Stevens                                      Hardly Famous                                                       16068807BCC                              
PROFAMCHA040301192240192255000015xxNonstop - 04(M-T) - RADIO/BMW/HEARTBEAT (:14-:16                                                                          150                                
PRCFAMCHA040301192255192325000030xxRadio Free Roscoe - Coming Up                                                                                             150                                
PROFAMCHA040301192325192355000030Boy Meets World (SCRAWNY) - (NS) - Tonight @ 8pm                                                                            150                                
PRCFAMCHA040301192355192425000030Spy Kids 3D: Game Over Blast Interstital - Vers 2                                                                           150                                
PROFAMCHA040301192425192435000010FAMJAM - Open                                                                                                               150                                
INTFAMCHA040301192435192723000248MV Disney - Teacher's Pet (Christy Romano)                                                                             60688120                                
PROFAMCHA040301192723192737000014FAMJAM - Close (FAMILY)                                                                                                     150                                
PRCFAMCHA040301192737192752000015Nonstop - ALL THAT - Mouth                                                                                                  150                                
INTFAMCHA040301192752192916000124Gagsters - Copy Cat                                                                                                   120686120                                
PRCFAMCHA040301192916192946000030xxIn A Heartbeat (FALL2003) - Tonight @ 8:30pm                                                                              150                                
ID FAMCHA040301192946193000000014Nonstop Block Open (:14-:17)                                                                                                150                                
PROFAMCHA040301193000193009000009CC Disclaimer - FAST - Family.ca (:08-:10)                                                                                  150                                
PGRFAMCHA040301193009195239002230Radio Free Roscoe                                 EPS # 010                                                     A8872611065607ACC                              
PROFAMCHA040301195239195255000016xxNonstop - 05(M-T) - BMW/HEARTBEAT/N-PIX (:14-:16                                                                          150                                
PROFAMCHA040301195255195325000030Boy Meets World (SCRAWNY) - (NS) - Coming Up                                                                                150                                
PRCFAMCHA040301195325195349000024xxIn A Heartbeat (FALL2003) - Tonight @ 8:30pm                                                                              150                                
PRCFAMCHA040301195349195419000030Good Boy! DVD Release - Blast Interstial - Version                                                                          150                                
PROFAMCHA040301195419195429000010FAMJAM - Open                                                                                                               150                                
INTFAMCHA040301195429195759000330MV Disney - Come Clean (Hillary Duff)                                                                                  60688120                                
PROFAMCHA040301195759195813000014FAMJAM - Close (FAMILY)                                                                                                     150                                
PROFAMCHA040301195813195844000031Brendan Leonard (#1 - FALL 2003) - Tonight @ 11pm                                                                           150                                
PROFAMCHA040301195844195916000032xxSmart Guy (MOE'S WORLD) - (NSW/AM) - Weekends @                                                                           150                                
PROFAMCHA040301195916195946000030xxBoy Meets World - Spring Break In - Weekdays @ 1                                                                          150                                
ID FAMCHA040301195946200000000014Nonstop Block Open (:14-:17)                                                                                                150                                
PROFAMCHA040301200000200008000008CC Disclaimer - FAST - Family.ca (:08-:10)                                                                                  150                                
PGRFAMCHA040301200008202148002140Boy Meets World                                   Honesty Night                                                       26068807BCC                              
PROFAMCHA040301202148202202000014xxNonstop - 06(M-T) - HEARTBEAT/N-PIX (:14-:16)                                                                             150                                
PRCFAMCHA040301202202202226000024xxIn A Heartbeat (FALL2003) - Coming Up                                                                                     150                                
PRCFAMCHA040301202226202256000030Looney Tunes DVD Blast! Interstitial - Vers. 1 (Fe                                                                          150                                
PROFAMCHA040301202256202326000030xxThat's So Raven (GOOD LIFE) - (NS) - Tomorrow @                                                                           150                                
PROFAMCHA040301202326202336000010FAMJAM - Open                                                                                                               150                                
INTFAMCHA040301202336202659000323MV Disney - Superstition (Raven)                                                                                       60688120                                
PROFAMCHA040301202659202713000014FAMJAM - Close (EMAIL)                                                                                                      150                                
PROFAMCHA040301202713202738000025Even Stevens (SIBLINGS) - (NS/M-T) - Tomorrow @ 7p                                                                          150                                
INTFAMCHA040301202738202916000138Gagsters - Excuse Me                                                                                                  120686120                                
PRCFAMCHA040301202916202946000030xxRadio Free Roscoe (NS/M-T) - Tomorrow @ 7:30pm                                                                            150                                
ID FAMCHA040301202946203000000014Nonstop Block Open (:14-:17)                                                                                                150                                
PROFAMCHA040301203000203009000009CC Disclaimer - FAST - Family.ca (:08-:10)                                                                                  150                                
PGRFAMCHA040301203009205654002645In A Heartbeat                                    New Kid In Town                                               B5719011065807ACC                              
PROFAMCHA040301205242205258000016Nightly Pix Line-up (SEPT) - GENERIC (:14-:16)                                                                              150                                
PROFAMCHA040301205258205329000031Brendan Leonard (#1 - FALL 2003) - Tonight @ 11pm                                                                           150                                
PRCFAMCHA040301205329205409000040Nonstop - AMANDA SHOW - Dandruff                                                                                            150                                
PROFAMCHA040301205409205419000010FAMJAM - Open                                                                                                               150                                
MVCFAMCHA040301205409210000000551MV - Hey Ya (Outkast)                                                                                                 1     120                                
PROFAMCHA040301205831205845000014FAMJAM - Close (WEB)                                                                                                        150                                
PRCFAMCHA040301205845205915000030Spring Break In Contest (Mar 1 - Mar 28)                                                                                    150                                
PROFAMCHA040301205915205945000030xxAll That - HEAR THAT? - NS - Tomorrow @ 6pm                                                                               150                                
ID FAMCHA040301205945210000000015Nightly Pix Movie Open (:10-:15)                                                                                            150                                
ID FAMCHA040301210000210009000009Rating - PG - Ian (:08-:10)                                                                                                 150                                
PROFAMCHA040301210009210018000009CC Disclaimer - SLOW - Generic (:08-:10)                                                                                    150                                
PGRFAMCHA040301210018230052020034Awakenings                                                                                                            22068807DCC                              
PROFAMCHA040301230052230108000016Nonstop - 08(M/T-MAR) - BRENDAN/SMART/RADIO (:14-:                                                                          150                                
ID FAMCHA040301230108230123000015Nonstop Block Open (:14-:17)                                                                                                150                                
PROFAMCHA040301230123230132000009CC Disclaimer - SLOW - Generic (:08-:10)                                                                                    150                                
PGRFAMCHA040301230132232241002109Brendan Leonard Show; The                         EPS # 1-021                                                         26068807FCC                              
PROFAMCHA040301232241232257000016Nonstop - 08b(M-T/MAR) - SMART/RADIO/DARK (:14-:16                                                                          150                                
PROFAMCHA040301232257232327000030xxAll That - HEAR THAT? - NS - Tomorrow @ 6pm                                                                               150                                
PROFAMCHA040301232327232357000030Amanda Show - FACES - (NS/FRI) - Fridays @ 6pm                                                                              150                                
PROFAMCHA040301232357232407000010FAMJAM - Open                                                                                                               150                                
INTFAMCHA040301232407232742000335MV Disney - I've Got To Move (Calvin Richardson)                                                                       60688120                                
PROFAMCHA040301232742232756000014FAMJAM - Close (FAMILY)                                                                                                     150                                
INTFAMCHA040301232756232916000120Gagsters - Footloose                                                                                                  120686120                                
PROFAMCHA040301232916232946000030xxTeen Angel - (NS/FRI) - Fridays @ 7pm                                                                                     150                                
ID FAMCHA040301232946233000000014Nonstop Block Open (:14-:17)                                                                                                150                                
PROFAMCHA040301233000233009000009CC Disclaimer - SLOW - Generic (:08-:10)                                                                                    150                                
PGRFAMCHA040301233009235238002229Smart Guy                                         Henderson House Party                                               16068807BCC                              
PROFAMCHA040301235238235254000016Nonstop - 09 - RADIO/DARK (:14-:16) (MAR)                                                                                   150                                
PRCFAMCHA040301235254235324000030xxRadio Free Roscoe - Coming Up                                                                                             150                                
PROFAMCHA040301235324235342000018xxThat's So Raven (FALL 2003) - Tomorrow @ 6:30pm                                                                           150                                
PROFAMCHA040301235342235352000010FAMJAM - Open                                                                                                               150                                
INTFAMCHA040301235352235725000333xxMV Disney - Reflection (CHRISTINA AGUILERA)                                                                          60688120                                
PROFAMCHA040301235725235739000014FAMJAM - Close (FAMILY)                                                                                                     150                                
PROFAMCHA040301235739235809000030Boy Meets World (SCRAWNY) - (NS) - Tomorrow @ 8pm                                                                           150                                
INTFAMCHA040301235809235912000103Gagsters - Box Of Chocolates                                                                                          120686120                                
PROFAMCHA040301235912235944000032xxSmart Guy (MOE'S WORLD) - (NSW/AM) - Weekends @                                                                           150                                
ID FAMCHA040301235944000000000016Nonstop Block Open (:14-:17)                                                                                                150                                
PROFAMCHA040301000000000010000010CC Disclaimer - SLOW - Generic (:08-:10)                                                                                    150                                
PGRFAMCHA040301000010002240002230Radio Free Roscoe                                 About A Girl                                                  A8871611065607ACC                              
PROFAMCHA040301002240002256000016Nonstop - 10 - DARK (:14-:16) (MAR)                                                                                         150                                
PROFAMCHA040301002256002314000018xxThat's So Raven (FALL 2003) - Tomorrow @ 6:30pm                                                                           150                                
PRCFAMCHA040301002314002346000032Nonstop - JETT JACKSON - Crisis                                                                                             150                                
PROFAMCHA040301002346002411000025Even Stevens (SIBLINGS) - (NS/M-T) - Tomorrow @ 7p                                                                          150                                
PROFAMCHA040301002411002421000010FAMJAM - Open                                                                                                               150                                
INTFAMCHA040301002421002752000331MV Disney - So Yesterday (HILARY DUFF)                                                                                 60688120                                
PROFAMCHA040301002752002806000014FAMJAM - Close (EMAIL)                                                                                                      150                                
INTFAMCHA040301002806002916000110Gagsters - Loaded Wallet                                                                                              120686120                                
PRCFAMCHA040301002916002946000030xxIn A Heartbeat (FALL2003) - Tomorrow @ 8:30pm                                                                             150                                
ID FAMCHA040301002946003003000017Nonstop Block Open (:14-:17)                                                                                                150                                
PGRFAMCHA040301003003010638003635Are You Afraid Of The Dark?                       The Tale of the Unexpected Visitor                            SR0306 1066807A                                
PRCFAMCHA040301005438005508000030xxRadio Free Roscoe (NS/M-T) - Tomorrow @ 7:30pm                                                                            150                                
PROFAMCHA040301005508005538000030xxAll That - HEAR THAT? - NS - Tomorrow @ 6pm                                                                               150                                
PROFAMCHA040301005538005608000030Boy Meets World (SCRAWNY) - (NS) - Tomorrow @ 8pm                                                                           150                                
PROFAMCHA040301005608005618000010FAMJAM - Open                                                                                                               150                                
INTFAMCHA040301005618005929000311MV Disney - Grazing In The Grass (Raven)                                                                               60688120                                
PROFAMCHA040301005929005943000014FAMJAM - Close (FAMILY)                                                                                                     150                                
PRCFAMCHA040301005943010013000030xxIn A Heartbeat (FALL2003) - Tomorrow @ 8:30pm                                                                             150                                
PROFAMCHA040301010013010043000030Amanda Show - FACES - (NS/FRI) - Fridays @ 6pm                                                                              150                                
PRCFAMCHA040301010043010118000035Nonstop - AMANDA SHOW - Horoscope                                                                                           150                                
PROFAMCHA040301010118010148000030xxTeen Angel - (NS/FRI) - Fridays @ 7pm                                                                                     150                                
ID FAMCHA040301010148010203000015Nonstop Block Open (:14-:17)                                                                                                150                                
SO FAMCHA040301010203011403001200Sign Off                                                                                                                                                       
OFFFAMCHA040301011403043000031557OFF AIR                                                                                                                                                        
SO FAMCHA040302043000043011000011Sign On (oct 1)                                                                                                                                                
PROFAMCHA040302043011043020000009CC Disclaimer - FAST - Family (:08-:10)                                                                                     150                                
PGRFAMCHA040302043020045313002253Franklin                                          Franklin and the Thunderstorm/Franklin's Maple Syr            B3667311065607ECC                              
PROFAMCHA040302045313045327000014PS - 01(PH) - WTP/KATIE/FRANKLIN (:14-:16)                                                                                  150                                
ID FAMCHA040302045327045337000010PS Playhouse AM Block Open (:10-:15)                                                                                        150                                
PROFAMCHA040302045337045346000009CC Disclaimer - FAST - Family.ca (:08-:10)                                                                                  150                                
PGRFAMCHA040302045346051627002241New Adventures of Winnie the Pooh; The            Tigger Got Your Tongue/A Bird In Hand                                6068607ECC                              
PROFAMCHA040302051627051643000016xxPS - 02(PH) - KATIE/FRANKLIN/RIPLEY (:14-:16)                                                                             150                                
ID FAMCHA040302051643051658000015PS Playhouse AM Block Open (:10-:15)                                                                                        150                                
PROFAMCHA040302051658051708000010CC Disclaimer - FAST - Generic (:08-:10)                                                                                    150                                
PGRFAMCHA040302051708054346002638Katie And Orbie                                   Tap Shoes/The Letter/I Really Love You                        B6228111065607ECC                              
PROFAMCHA040302054346054400000014xxPS - 03(PH) - FRANKLIN/RIPLEY/HOZE (:14-:16)                                                                              150                                
ID FAMCHA040302054400054410000010PS Playhouse AM Block Open (:10-:15)                                                                                        150                                
PROFAMCHA040302054410054419000009CC Disclaimer - FAST - Family (:08-:10)                                                                                     150                                
PGRFAMCHA040302054419060712002253Franklin                                          Franklin Helps Out/Franklin's Missing Snacks                  B3667411065607ECC                              
PROFAMCHA040302060712060728000016xxPS - 04(PH) - RIPLEY/HOZE/KNIGHT (:14-:16)                                                                                150                                
PRCFAMCHA040302060728060747000019Playhouse - HOZE HOUNDZ - Code Blue                                                                                         150                                
ID FAMCHA040302060747060800000013PS Playhouse AM Block Open (:10-:15)                                                                                        150                                
PROFAMCHA040302060800060809000009CC Disclaimer - FAST - Family.ca (:08-:10)                                                                                  150                                
PGRFAMCHA040302060809063239002430Ripley's Believe It Or Not!                       A Flare for Fashion                                           B71300 1065607ECC                              
PROFAMCHA040302063239063253000014xxPS - 05(PH) - HOZE/KNIGHT/PRLR (:14-:16)                                                                                  150                                
PRCFAMCHA040302063253063325000032xxHoze Houndz (GROCERIES - FALL 2003) - Coming Up                                                                           150                                
PRCFAMCHA040302063325063421000056Playhouse - STANLEY - Fish Song                                                                                             150                                
PROFAMCHA040302063421063451000030xxHouse of Mouse (FALL 2003) - Today @ 2:35pm                                                                               150                                
ID FAMCHA040302063451063501000010PS Playhouse AM Block Open (:10-:15)                                                                                        150                                
PROFAMCHA040302063501063511000010CC Disclaimer - FAST - Generic (:08-:10)                                                                                    150                                
PGRFAMCHA040302063511065746002235Hoze Houndz                                       Fortune Hunting Houndz/Bone Dry Hollow                        B3400411065607ECC                              
PROFAMCHA040302065746065800000014xxPS - 06(PB) - KNIGHT/PRLR/GADGET (:14-:16)                                                                                150                                
PROFAMCHA040302065800065834000034xxLizzie McGuire - Spring Break In - Weekdays @ 8a                                                                          150                                
INTFAMCHA040302065834065918000044Harrisons; The - Baby Spit Up                                                                                         110626120                                
PROFAMCHA040302065918065948000030You Wish - Spring Break In - Weekdays @ 11:45am                                                                             150                                
ID FAMCHA040302065948070000000012Power Box Block Open (:12-:15)                                                                                              150                                
PROFAMCHA040302070000070009000009CC Disclaimer - FAST - Family (:08-:10)                                                                                     150                                
PGRFAMCHA040302070009072134002125Mon Colle Knights                                 EPS # 1-035                                                         16068607ECC                              
PROFAMCHA040302072134072150000016xxPS - 07(PB) - PRLR/GADGET/DALMATIANS (:14-:16)                                                                            150                                
PROFAMCHA040302072150072220000030xxAmanda Show; The - Spring Break In - Weekdays @                                                                           150                                
PROFAMCHA040302072220072250000030Gadget & The Gadgetinis - (PB) - Today @ 8am                                                                                150                                
INTFAMCHA040302072250072719000429Art Attack - Cowboy                                                                                                    60686120                                
PROFAMCHA040302072719072749000030xxBoy Meets World - Spring Break In - Weekdays @ 1                                                                          150                                
INTFAMCHA040302072749072844000055Gagsters - Clingy Kid *DNU*                                                                                           120686120                                
PROFAMCHA040302072844072914000030Mon Colle Knights - Today @ 7am                                                                                             150                                
PROFAMCHA040302072914072944000030xxTeen Angel - Spring Break In - Weekdays @ 11:20a                                                                          150                                
ID FAMCHA040302072944072959000015Power Box Block Open (:12-:15)                                                                                              150                                
PGRFAMCHA040302072959075127002128Power Rangers Lightspeed Rescue                   The Fifth Crystal                                                   16068607E                                
PROFAMCHA040302075127075143000016PS - 08(PB) - GADGET/DALMATIANS/FRANKLIN (:14-:16)                                                                          150                                
PROFAMCHA040302075143075213000030xxThat's So Raven - Spring Break In - Weekdays @ 9                                                                          150                                
PROFAMCHA040302075213075243000030Gadget & The Gadgetinis - (PB) - Coming Up                                                                                  150                                
PRCFAMCHA040302075243075313000030Spring Break In Contest (Mar 1 - Mar 28)                                                                                    150                                
PROFAMCHA040302075313075343000030Mon Colle Knights - Today @ 7am                                                                                             150                                
INTFAMCHA040302075343075820000437Art Attack - Down Town                                                                                                 60686120                                
PROFAMCHA040302075820075845000025xxEven Stevens - Spring Break In - Weekdays @ 9:30                                                                          150                                
PRCFAMCHA040302075845075915000030xxPower Box Block Promo - Weekdays, Starting @ 7am                                                                          150                                
PROFAMCHA040302075915075945000030xxAll That - Spring Break In - Weekdays @ 8:55am                                                                            150                                
ID FAMCHA040302075945080000000015Power Box Block Open (:12-:15)                                                                                              150                                
PGRFAMCHA040302080000082212002212Gadget & the Gadgetinis                           EPS # 1-037                                                         16068607E                                
PROFAMCHA040302082212082228000016PS - 09(PH) - DALMATIANS/FRANKLIN/WTP (:14-:16)                                                                             150                                
PROFAMCHA040302082228082258000030xxDisney's 101 Dalmatians - Coming Up                                                                                       150                                
PRCFAMCHA040302082258082333000035xxFranklin (CANOE - FALL 2003) - Today @ 8:55am                                                                             150                                
INTFAMCHA040302082333082613000240Art Attack - Baggage Plane                                                                                             60688120                                
PROFAMCHA040302082613082645000032xxJojo's Circus - Today @ 9:45am                                                                                            150                                
INTFAMCHA040302082645082917000232MV Disney - With A Few Good Friends (CARLY SIMON)                                                                      60688120                                
PROFAMCHA040302082917082947000030Stanley - TEDDY BEAR - Today @ 10:10am                                                                                      150                                
ID FAMCHA040302082947083000000013PS Playhouse AM Block Open (:10-:15)                                                                                        150                                
PGRFAMCHA040302083000085251002251Disney's 101 Dalmatians: The Series               EPS # 1-012                                                         16068607E                                
PROFAMCHA040302085251085307000016PS - 10(PH) - FRANKLIN/WTP/JOJO (:14-:16) (JAN12)                                                                           150                                
PRCFAMCHA040302085307085338000031xxFranklin (HANKY - FALL 2003) - Coming Up (PH)                                                                             150                                
PRCFAMCHA040302085338085444000106Playhouse - WINNIE THE POOH - Christopher Robin                                                                             150                                
ID FAMCHA040302085444085459000015PS Playhouse AM Block Open (:10-:15)                                                                                        150                                
PROFAMCHA040302085459085508000009CC Disclaimer - FAST - Family.ca (:08-:10)                                                                                  150                                
PGRFAMCHA040302085508091801002253Franklin                                          Franklin Finds a Puppy/Franklin Takes the Bus                 B3667011065607ECC                              
PROFAMCHA040302091801091817000016PS - 11(PH) - WTP/JOJO/STANLEY (:14-:16) (JAN12)                                                                            150                                
PROFAMCHA040302091817091849000032xxJojo's Circus - Today @ 9:45am                                                                                            150                                
PRCFAMCHA040302091849091916000027Playhouse - FRANKLIN - Laundry                                                                                              150                                
PROFAMCHA040302091916091946000030Stanley - TEDDY BEAR - Today @ 10:10am                                                                                      150                                
ID FAMCHA040302091946092000000014PS Playhouse AM Block Open (:10-:15)                                                                                        150                                
PROFAMCHA040302092000092010000010CC Disclaimer - FAST - Generic (:08-:10)                                                                                    150                                
PGRFAMCHA040302092010094246002236New Adventures of Winnie the Pooh; The            Sorry, Wrong Slusher                                                 6068607ECC                              
PROFAMCHA040302094246094301000015PS - 12(PH) - JOJO/STANLEY/HENRY (:14-:16) (JAN12)                                                                          150                                
PROFAMCHA040302094301094333000032xxJojo's Circus - Coming Up                                                                                                 150                                
INTFAMCHA040302094333094518000145Disney Circle Time - The Fox And The Crow (anywher                                                                     60688120                                
PROFAMCHA040302094518094548000030Stanley - TEDDY BEAR - Today @ 10:10am                                                                                      150                                
ID FAMCHA040302094548094600000012PS Playhouse AM Block Open (:10-:15)                                                                                        150                                
PGRFAMCHA040302094600101007002407JoJo's Circus                                     EPS # 01                                                            16068607E                                
PROFAMCHA040302101007101021000014PS - 13(PH) - STANLEY/HENRY/CHIP (:14-:16) (JAN12)                                                                          150                                
PROFAMCHA040302101021101051000030Stanley - TEDDY BEAR - Next                                                                                                 150                                
PRCFAMCHA040302101051101147000056Playhouse - STANLEY - Fish Song                                                                                             150                                
PRCFAMCHA040302101147101217000030Henry's World - TEDDY - Today @ 10:35am                                                                                     150                                
ID FAMCHA040302101217101227000010PS Playhouse AM Block Open (:10-:15)                                                                                        150                                
PROFAMCHA040302101227101236000009CC Disclaimer - FAST - Family (:08-:10)                                                                                     150                                
PGRFAMCHA040302101236103634002358Stanley                                           Mockingbird Scat/Horsepower                                         16068607ECC                              
PROFAMCHA040302103634103650000016PS - 14(PH) - HENRY/CHIP/ART (:14-:16) (JAN12)                                                                              150                                
PRCFAMCHA040302103650103746000056Playhouse - STANLEY - Fish Song                                                                                             150                                
ID FAMCHA040302103746103800000014PS Playhouse AM Block Open (:10-:15)                                                                                        150                                
PROFAMCHA040302103800103809000009CC Disclaimer - FAST - Family.ca (:08-:10)                                                                                  150                                
PGRFAMCHA040302103809110158002349Henry's World                                     Hitch In Time/Doris's Day                                     B6655011065607GCC                              
PROFAMCHA040302110158110214000016PS - 15(PH) - CHIP/ART/RECESS (:14-:16)                                                                                     150                                
PRCFAMCHA040302110214110242000028xxChip 'n Dale (FALL 2003) - Coming Up                                                                                      150                                
PRCFAMCHA040302110242110348000106Playhouse - WINNIE THE POOH - Christopher Robin                                                                             150                                
ID FAMCHA040302110348110400000012PS Playhouse AM Block Open (:10-:15)                                                                                        150                                
ID FAMCHA040302110400110409000009Magic of Disney - PLAYHOUSE - Shape (:06-:09)                                                                               150                                
PGRFAMCHA040302110409112653002244Chip 'n Dale Rescue Rangers                       Bearing Up Baby                                                     16068607E                                
PROFAMCHA040302112653112709000016PS - 16(PH) - ART/RECESS/FILLMORE (:14-:16) (JAN)                                                                           150                                
PROFAMCHA040302112709112739000030xxHouse of Mouse (FALL 2003) - Today @ 2:35pm                                                                               150                                
PRCFAMCHA040302112739112812000033Playhouse - HOUSE OF MOUSE - Someone's Watching                                                                             150                                
PRCFAMCHA040302112812112844000032xxHoze Houndz (GROCERIES - FALL 2003) - Today @ 2:                                                                          150                                
ID FAMCHA040302112844112859000015PS Playhouse AM Block Open (:10-:15)                                                                                        150                                
PGRFAMCHA040302112859114407001508Art Attack                                                                                                             60686110                                
PROFAMCHA040302114407114423000016PS - 17(MD) - RECESS/FILLMORE/GOOF (:14-:16) (JAN1                                                                          150                                
PROFAMCHA040302114423114457000034xxLizzie McGuire - Spring Break In - Weekdays @ 8a                                                                          150                                
PROFAMCHA040302114457114527000030Recess (NOV2003) - Coming Up                                                                                                150                                
PROFAMCHA040302114527114559000032xxSmart Guy - Spring Break In - Weekdays @ 10:50am                                                                          150                                
PROFAMCHA040302114559114619000020Recess - VCC Cross Promo (Feb 29 - Mar 31)                                                                                  150                                
INTFAMCHA040302114619114749000130xxMovie Surfers Miracle - Interstitial #1xDNUx                                                                         60688120                                
PRCFAMCHA040302114749114819000030Good Boy! DVD Release - Blast Interstial - Version                                                                          150                                
INTFAMCHA040302114819114917000058Gagsters - Flying Fries                                                                                               120686120                                
PROFAMCHA040302114917114947000030You Wish - Spring Break In - Weekdays @ 11:45am                                                                             150                                
ID FAMCHA040302114947115000000013PS Mad Dash Block Open (:13-:15)                                                                                            150                                
PGRFAMCHA040302115000121251002251Disney's Recess                                   Lawson And His Crew                                                 16068607E                                
PROFAMCHA040302121251121305000014PS - 18(MD) - FILLMORE/GOOF/TEAMO (:14-:16) (JAN1)                                                                          150                                
ID FAMCHA040302121305121318000013PS Mad Dash Block Open (:13-:15)                                                                                            150                                
PGRFAMCHA040302121318123556002238Disney's Fillmore!                                EPS # 1-018                                                         16068607E                                
PROFAMCHA040302123556123612000016PS - 19(MD) - GOOF/TEAMO/DALMATIANS (:14-:16) (JAN                                                                          150                                
PROFAMCHA040302123612123642000030xxTeen Angel - Spring Break In - Weekdays @ 11:20a                                                                          150                                
ID FAMCHA040302123642123657000015Mad Dash Block Open (:13-:15)                                                                                               150                                
PROFAMCHA040302123657123707000010CC Disclaimer - FAST - Generic (:08-:10)                                                                                    150                                
PGRFAMCHA040302123707125953002246Goof Troop                                        Big City Blues                                                      16068607ECC                              
PROFAMCHA040302125953130007000014PS - 20(MD) - TEAMO/DALMATIANS/CHIP (:14-:16) (JAN                                                                          150                                
PROFAMCHA040302130007130025000018xxThat's So Raven (FALL 2003) - Tonight @ 6:30pm                                                                            150                                
PRCFAMCHA040302130025130045000020Radio Free Roscoe - Webthrow (Shady Lane)                                                                                   150                                
ID FAMCHA040302130045130100000015Mad Dash Block Open (:13-:15)                                                                                               150                                
PROFAMCHA040302130100130109000009CC Disclaimer - FAST - Family (:08-:10)                                                                                     150                                
PGRFAMCHA040302130109132405002256Disney's Teamo Supremo                            Sounds of the Songstress/Calling Captain Excellent                  16068607ECC                              
PROFAMCHA040302132405132419000014PS - 21(PH) - DALMATIANS/CHIP/HOZE (:14-:16)                                                                                150                                
ID FAMCHA040302132419132429000010PS Playhouse PM Block Open (:10-:15)                                                                                        150                                
PGRFAMCHA040302132429134716002247Disney's 101 Dalmatians: The Series               EPS # 1-013                                                         16068607E                                
PROFAMCHA040302134716134732000016PS - 22(PH) - CHIP/HOZE/HOM (:14-:16)                                                                                       150                                
PRCFAMCHA040302134732134746000014Playhouse - HOZE HOUNDZ - Skater                                                                                            150                                
ID FAMCHA040302134746134800000014PS Playhouse PM Block Open (:10-:15)                                                                                        150                                
ID FAMCHA040302134800134808000008Magic of Disney - PLAYHOUSE - Wipe (:06-:09)                                                                                150                                
PGRFAMCHA040302134808141057002249Chip 'n Dale Rescue Rangers                       Out To Launch                                                       16068607E                                
PROFAMCHA040302141057141113000016PS - 23(PH) - HOZE/HOM/TIMON (:14-:16)                                                                                      150                                
PRCFAMCHA040302141113141146000033Playhouse - HOUSE OF MOUSE - Someone's Watching                                                                             150                                
ID FAMCHA040302141146141200000014PS Playhouse PM Block Open (:10-:15)                                                                                        150                                
PROFAMCHA040302141200141209000009CC Disclaimer - FAST - Family.ca (:08-:10)                                                                                  150                                
PGRFAMCHA040302141209143444002235Hoze Houndz                                       Ghost in the Machine/Savage Steamer                           B1712111065607ECC                              
PROFAMCHA040302143444143500000016PS - 24(PH) - HOM/TIMON/LILO (:14-:16) (JAN1)                                                                               150                                
PRCFAMCHA040302143500143546000046Playhouse - STANLEY - Squirrel Song                                                                                         150                                
ID FAMCHA040302143546143600000014PS Playhouse PM Block Open (:10-:15)                                                                                        150                                
PROFAMCHA040302143600143610000010CC Disclaimer - FAST - Generic (:08-:10)                                                                                    150                                
PGRFAMCHA040302143610145847002237Disney's House Of Mouse                           House Of Scrooge                                                    16068607ECC                              
PROFAMCHA040302145847145901000014Mad Dash  - 01 - TIMON/LILO/WEEKENDERS (:14-:16) (                                                                          150                                
PROFAMCHA040302145901145935000034xxLizzie McGuire - Spring Break In - Weekdays @ 8a                                                                          150                                
PROFAMCHA040302145935145947000012Mad Dash - RECESS - Sprinkler                                                                                               150                                
ID FAMCHA040302145947150000000013Mad Dash Block Open (:13-:15)                                                                                               150                                
PGRFAMCHA040302150000152245002245Lion King's Timon & Pumbaa; The                   Circus Jerks/Nest Best Thing                                         6068607E                                
PROFAMCHA040302152245152301000016Mad Dash  - 02 - LILO/WEEKENDERS/RECESS (:14-:16)                                                                           150                                
PROFAMCHA040302152301152331000030xxAmanda Show; The - Spring Break In - Weekdays @                                                                           150                                
