PGRFAMCHA150101043000045232002232DEBRA!                                            EP: 13                                                        C35763 1065607ACD                              
PROFAMCHA150101045232045302000030Episodic Next Step (HD) 2-35 - New Episode Tomorro                                                                          150                                
PRCFAMCHA150101045302045318000016Taylor Matthews Contest ID (HD) Go to Family.ca (D                                                                          150                                
PRCFAMCHA150101045318045348000030Stunt Gimme More Twistmas Marathon (HD) A&A - Toda                                                                          150                                
PRCFAMCHA150101045348045418000030KC Undercover (HD) Slick Spy Spot #3 - Prems Frida                                                                          150                                
PGRFAMCHA150101045418045448000030Int Olaf-A-Lot Shorts (HD) S2 - Beauty Sleep (Dec8                                                                     60688120CC                              
PRCFAMCHA150101045448045509000021Family Bumper Flex (HD) Bike Trails (:20-:24) (Mar                                                                          150                                
PROFAMCHA150101045509045554000045Episodic Jessie (HD) 320 - New episode Tomorrow @                                                                           150                                
PGRFAMCHA150101045554051827002233Really Me                                         EP: 06                                                        B33828 1065607BCD                              
PROFAMCHA150101051827051835000008D-JR Live Action ID - Stella & Sam - Coming Up (Ma                                                                          150                                
PROFAMCHA150101051835051900000025D-JR Live Action ID - #13 Make Bed (May2012)                                                                                150                                
PROFAMCHA150101051900051925000025D-JR OOB - Post Christmas Movies - Weekdays @ 12p                                                                           150                                
PROFAMCHA150101051925052007000042D-JR Promo - Bananas in Pajamas - Get more on the                                                                           150                                
PROFAMCHA150101052007052032000025D-JR Live Action ID - #20 Calendar (May2012)                                                                                150                                
PROFAMCHA150101052032052040000008D-JR Live Action ID - Stella & Sam - Now (Mar2013)                                                                          150                                
PROFAMCHA150101052040052055000015D-JR - Daily ID - Thursday (Feb2014)                                                                                        150                                
PGRFAMCHA150101052055054410002315Stella and Sam                                    EP: 05                                                        C32553 1065607ECD                              
PROFAMCHA150101054410054445000035D-JR OOB - Post Christmas Marathons - Weekday Afte                                                                          150                                
PROFAMCHA150101054445054451000006D-JR - Hero Flex ID - Green (:06-:10) (Feb2014)                                                                             150                                
PGRFAMCHA150101054451060722002231Justin Time                                       EP: 06                                                        C36486 1065607ECD                              
PROFAMCHA150101060722060730000008D-JR Live Action ID - Justin Time - Coming Up (Sep                                                                          150                                
PROFAMCHA150101060730060755000025D-JR Live Action ID - #63 Wash Face (Sep2013)                                                                               150                                
PROFAMCHA150101060755060820000025D-JR OOB - Post Christmas Movies - Weekdays @ 12p                                                                           150                                
PROFAMCHA150101060820060905000045D-JR Promo - Sheriff Callie - Weekends @ 1130 on D                                                                          150                                
PROFAMCHA150101060905060930000025D-JR Live Action ID - #65 Putting Toys Away (Sept2                                                                          150                                
PROFAMCHA150101060930060938000008D-JR Live Action ID - Justin Time - Now (Sept2014)                                                                          150                                
PROFAMCHA150101060938060953000015D-JR - Monthly ID - January (Jan2015)                                                                                       150                                
PGRFAMCHA150101060953063222002229Justin Time                                       EP: 07                                                        C36486 1065607ECD                              
PRCFAMCHA150101063222063311000049Episodic A&A (HD) 3-22 - New episode Tonight @ 7 (                                                                          150                                
PROFAMCHA150101063311063356000045Stunt NOP, For the Win (HD) Tomorrow Night Startin                                                                          150                                
PRCFAMCHA150101063356063410000014Family Bumper Flex (HD) Flex ID - Music ID (:14-:1                                                                          150                                
PROFAMCHA150101063410063440000030Cloud 9 (HD) Twistmas - Tomorrow Night @ 8:00 (Dec                                                                          150                                
PRCFAMCHA150101063440063453000013Family Flex Next (HD) ANT Farm - Jake (:12-:14) (A                                                                          150                                
PGRFAMCHA150101063453065709002216Disney A.N.T. Farm                                EP: 20                                                               6068607BCC                              
PRCFAMCHA150101065709065729000020Family's Newest & Best (HD) On Family (Dec2014)                                                                             150                                
PROFAMCHA150101065729065759000030Episodic Next Step (HD) 2-35 - New Episode Tomorro                                                                          150                                
PRCFAMCHA150101065759065815000016Taylor Matthews Contest ID (HD) Go to Family.ca (D                                                                          150                                
PROFAMCHA150101065815065832000017Twistmas 2014 (HD) Nikki Yanofsky - Wacky Gift (De                                                                          150                                
PRCFAMCHA150101065832065850000018Family Bumper Flex (HD) Break Dance (:18-:21) (Mar                                                                          150                                
PRCFAMCHA150101065850065920000030Stunt Gimme More Twistmas Marathon (HD) A&A - Toda                                                                          150                                
PRCFAMCHA150101065920065934000014Family Flex Next (HD) Jessie - Luke (:12-:14) (Apr                                                                          150                                
PGRFAMCHA150101065934072207002233Disney Jessie                                     EP: 13                                                               6068807BCC                              
PROFAMCHA150101072207072252000045Episodic Jessie (HD) 320 - New episode Tomorrow @                                                                           150                                
PRCFAMCHA150101072252072337000045Austin & Ally (HD) Pitch Perfect - Coming Up Next                                                                           150                                
PGRFAMCHA150101072337072407000030Int Olaf-A-Lot Shorts (HD) S2 - Having the Right M                                                                     60688120CC                              
PROFAMCHA150101072407072437000030Cloud 9 (HD) Twistmas - Tomorrow Night @ 8:00 (Dec                                                                          150                                
PROFAMCHA150101072437072452000015KC Undercover (HD) Slick Spy Spot #2 - Prems Frida                                                                          150                                
PGRFAMCHA150101072452072814000322MV Non Disney (HD) Eleven Past One - Im Ready (Alb                                                                     10615120CC                              
PRCFAMCHA150101072814072836000022Game Change Friday (HD) December (Dec26-Jan4)(mini                                                                          150                                
PRCFAMCHA150101072836072855000019Family Bumper Flex (HD) Dog Park (:19-:21) (Mar201                                                                          150                                
PROFAMCHA150101072855072925000030Episodic Next Step (HD) 2-35 - New Episode Tomorro                                                                          150                                
PRCFAMCHA150101072925072938000013Family Flex Next (HD) A&A - Laura (:12-:14) (Apr20                                                                          150                                
PGRFAMCHA150101072938075254002316Disney Austin & Ally                              EP: 18                                                               6068807BCC                              
PRCFAMCHA150101075254075343000049Episodic A&A (HD) 3-22 - New episode Tonight @ 7 (                                                                          150                                
PROFAMCHA150101075343075418000035DWAB (HD) Refresh - Stan Dating Video - Coming Up                                                                           150                                
PRCFAMCHA150101075418075438000020Family's Newest & Best (HD) On Family (Dec2014)                                                                             150                                
PROFAMCHA150101075438075638000200Int Get to Know (HD) Taylor Matthews More (Dec26-J                                                                          150CC                              
PROFAMCHA150101075638075708000030Episodic Next Step (HD) 2-35 - New Episode Tomorro                                                                          150                                
PROFAMCHA150101075708075753000045TNS Viewing Party (HD) Phase 3 - Only 1 More Day (                                                                          150                                
PGRFAMCHA150101075753075813000020Int Olaf-A-Lot Shorts (HD) S2 - Reindeer (Dec8-Feb                                                                     60688120CC                              
PRCFAMCHA150101075813075829000016Family Bumper Flex (HD) Flex ID - ANT Farm (:16-:2                                                                          150                                
PROFAMCHA150101075829075845000016Twistmas 2014 (HD) Austin Mahone - Wacky Gift (Dec                                                                          150                                
PROFAMCHA150101075845075930000045Episodic Jessie (HD) 320 - New episode Tomorrow @                                                                           150                                
PRCFAMCHA150101075930075945000015Family Flex Next (HD) DWAB Ghannelius (Aug 2013) (                                                                          150                                
PGRFAMCHA150101075945082218002233Disney Dog with a Blog                            EP: 13                                                               6068807BCC                              
PROFAMCHA150101082218082303000045Stunt NOP, For the Win (HD) Tomorrow Night Startin                                                                          150                                
PROFAMCHA150101082303082322000019WOWP (HD) Clip Bad Time - Coming Up Next (April 20                                                                          150                                
PRCFAMCHA150101082322082411000049Episodic A&A (HD) 3-22 - New episode Tonight @ 7 (                                                                          150                                
PRCFAMCHA150101082411082427000016Taylor Matthews Contest ID (HD) Go to Family.ca (D                                                                          150                                
MVCFAMCHA150101082427082829000402MV Non Disney (HD) Megan Nicole - Electrified (Oct                                                                     20688150CC                              
PROFAMCHA150101082829082847000018Next Step Tour Announcement #2 (HD) Tomodachi Life                                                                          150                                
PRCFAMCHA150101082847082909000022Family Bumper Flex (HD) Fifteen Logos (:21-:22) (N                                                                          150                                
PROFAMCHA150101082909082939000030Cloud 9 (HD) Twistmas - Tomorrow Night @ 8:00 (Dec                                                                          150                                
PROFAMCHA150101082939082945000006WOWP (HD) ID - Jennifer Stone 1 "Coming Up Next" (                                                                          150                                
PGRFAMCHA150101082945085201002216Disney Wizards of Waverly Place                   EP: 01                                                               6068607BCC                              
PRCFAMCHA150101085201085231000030Stunt Gimme More Twistmas Marathon (HD) A&A - Toda                                                                          150                                
PRCFAMCHA150101085231085305000034GLC Marching Band (HD) Coming Up Next (Nov2013)                                                                             150                                
PROFAMCHA150101085305085335000030Episodic Next Step (HD) 2-35 - New Episode Tomorro                                                                          150                                
MVCFAMCHA150101085335085705000330MV Non Disney (HD) Victoria Duffield - Paper Plane                                                                     10615150CC                              
PRCFAMCHA150101085705085735000030KC Undercover (HD) Slick Spy Spot #3 - Prems Frida                                                                          150                                
PROFAMCHA150101085735085756000021Twistmas 2014 (HD) Sabrina Carpenter - Best Gift (                                                                          150                                
PRCFAMCHA150101085756085816000020Family's Newest & Best (HD) On Family (Dec2014)                                                                             150                                
PRCFAMCHA150101085816085833000017Family Bumper Flex (HD) Flip Book (:15-:18) (Nov 2                                                                          150                                
PROFAMCHA150101085833085918000045Episodic Jessie (HD) 320 - New episode Tomorrow @                                                                           150                                
PRCFAMCHA150101085918085938000020Family's Newest & Best (HD) On Family (Dec2014)                                                                             150                                
PROFAMCHA150101085938085944000006GLC (HD) ID - Bridget Mendler 4 "Coming Up Next" (                                                                          150                                
PGRFAMCHA150101085944092215002231Good Luck Charlie                                 EP: 06                                                               6068707BCC                              
PROFAMCHA150101092215092245000030Cloud 9 (HD) Twistmas - Tomorrow Night @ 8:00 (Dec                                                                          150                                
PROFAMCHA150101092245092330000045PAF Secret Agent (HD) Coming Up Next (Jan2014)                                                                              150                                
PRCFAMCHA150101092330092419000049Episodic A&A (HD) 3-22 - New episode Tonight @ 7 (                                                                          150                                
PROFAMCHA150101092419092432000013Twistmas 2014 (HD) Callum Worthy - Best Gift (Dec1                                                                          150                                
PGRFAMCHA150101092432092740000308MV Non Disney (HD) Taylor Matthews - Do What You W                                                                     10615120CC                              
PROFAMCHA150101092740092825000045TNS Viewing Party (HD) Phase 3 - Only 1 More Day (                                                                          150                                
PRCFAMCHA150101092825092841000016Family Bumper Flex (HD) Flex ID - Music ID (:14-:1                                                                          150                                
PROFAMCHA150101092841092926000045Stunt NOP, For the Win (HD) Tomorrow Night Startin                                                                          150                                
PROFAMCHA150101092926092943000017PAF (HD) Disney Refresh CD - Coming Up Next (April                                                                          150                                
PGRFAMCHA150101092943095214002231Disney Phineas and Ferb                           EP: 15                                                               6068607ECC                              
PRCFAMCHA150101095214095234000020Family's Newest & Best (HD) On Family (Dec2014)                                                                             150                                
PROFAMCHA150101095234095319000045Episodic Jessie (HD) 320 - New episode Tomorrow @                                                                           150                                
PGRFAMCHA150101095319095649000330Mickey Mouse Shorts (HD) 2-05 Goofy's Grandma (Jul                                                                     60688120CC                              
PRCFAMCHA150101095649095719000030Stunt Gimme More Twistmas Marathon (HD) A&A - Toda                                                                          150                                
PRCFAMCHA150101095719095735000016Taylor Matthews Contest ID (HD) Go to Family.ca (D                                                                          150                                
PROFAMCHA150101095735095807000032Twistmas 2014 (HD) Crystalyne - Best Gift (Dec18-J                                                                          150                                
PRCFAMCHA150101095807095829000022Game Change Friday (HD) December (Dec26-Jan4)(mini                                                                          150                                
PRCFAMCHA150101095829095848000019Family Bumper Flex (HD) Garage Band (:17-:21) (Nov                                                                          150                                
PROFAMCHA150101095848095906000018Next Step Tour Announcement #2 (HD) Doh Vinci (2x/                                                                          150                                
PROFAMCHA150101095906095936000030Episodic Next Step (HD) 2-35 - New Episode Tomorro                                                                          150                                
PGRFAMCHA150101095936102136002200Lego - The New Yoda Chronicles                    EP: 06                                                               2068607ECC                              
PRCFAMCHA150101102136102225000049Episodic A&A (HD) 3-22 - New episode Tonight @ 7 (                                                                          150                                
PGRFAMCHA150101102225102350000125MV Lift (HD) A&A - Stuck On You (ep 3-08) (Aug2014                                                                     60685120CC                              
PROFAMCHA150101102350102420000030Cloud 9 (HD) Twistmas - Tomorrow Night @ 8:00 (Dec                                                                          150                                
PRCFAMCHA150101102420102442000022Game Change Friday (HD) December (Dec26-Jan4)(mini                                                                          150                                
PGRFAMCHA150101102442102811000329Mickey Mouse Shorts (HD) 2-01 Cable Car Chaos (Apr                                                                     60688120CC                              
PRCFAMCHA150101102811102841000030KC Undercover (HD) Slick Spy Spot #1 - Prems Frida                                                                          150                                
PRCFAMCHA150101102841102902000021Family Bumper Flex (HD) Longboard (:19-:21) (Mar20                                                                          150                                
PROFAMCHA150101102902102947000045Stunt NOP, For the Win (HD) Tomorrow Night Startin                                                                          150                                
PGRFAMCHA150101102947105146002159LEGO Star Wars: The New Yoda Chronicles           EP: 07                                                              A2068607ECC                              
MVCFAMCHA150101105146105500000314MV Lift BTS 2014 (HD) Cody Simpson Got Me Good (Oc                                                                     10218150CC                              
PRCFAMCHA150101105500105530000030Stunt Gimme More Twistmas Marathon (HD) A&A - Toda                                                                          150                                
PROFAMCHA150101105530105549000019GLC Promo 2 (HD) Coming Up Next (Sep2013)                                                                                   150                                
PROFAMCHA150101105549105619000030Episodic Next Step (HD) 2-35 - New Episode Tomorro                                                                          150                                
PROFAMCHA150101105619105704000045TNS Viewing Party (HD) Phase 3 - Only 1 More Day (                                                                          150                                
PRCFAMCHA150101105704105722000018Family Bumper Flex (HD) Flex ID - ANT Farm (:16-:2                                                                          150                                
PROFAMCHA150101105722105812000050Crayola                                                                                                                     150                                
PROFAMCHA150101105812105857000045Episodic Jessie (HD) 320 - New episode Tomorrow @                                                                           150                                
PRCFAMCHA150101105857105917000020Family's Newest & Best (HD) On Family (Dec2014)                                                                             150                                
PROFAMCHA150101105917105922000005GLC (HD) ID - Bradley Perry 6 "Coming Up Next" (ge                                                                          150                                
PGRFAMCHA150101105922112140002218Disney Good Luck Charlie                          EP: 20                                                               6068807BCC                              
PROFAMCHA150101112140112225000045Stunt NOP, For the Win (HD) Tomorrow Night Startin                                                                          150                                
PROFAMCHA150101112225112250000025GLC Promo 1 (HD) Coming Up Next (Sep2013)                                                                                   150                                
PROFAMCHA150101112250112320000030Cloud 9 (HD) Twistmas - Tomorrow Night @ 8:00 (Dec                                                                          150                                
PRCFAMCHA150101112320112336000016Taylor Matthews Contest ID (HD) Go to Family.ca (D                                                                          150                                
PGRFAMCHA150101112336112536000200Frozen Wkd (HD) Lift - Do You Want To Build A Snow                                                                     60688120CC                              
PROFAMCHA150101112536112554000018Next Step Tour Announcement #2 (HD) Rebelle (2x/da                                                                          150                                
PROFAMCHA150101112554112644000050Movie Star Planet                                                                                                           150                                
PROFAMCHA150101112644112719000035D-JR OOB - Post Christmas Marathons - Weekday Afte                                                                          150                                
PRCFAMCHA150101112719112736000017Family Bumper Flex (HD) Trampoline (:15-:21) (Mar2                                                                          150                                
PGRFAMCHA150101112736112836000100Copper Top Flop Show (HD) 118 Code Red (Aug13)                                                                         60688120CC                              
PRCFAMCHA150101112836112925000049Episodic A&A (HD) 3-22 - New episode Tonight @ 7 (                                                                          150                                
PROFAMCHA150101112925112930000005GLC (HD) ID - Jason Dolley 2 - "Coming Up Next" (g                                                                          150                                
PGRFAMCHA150101112930115131002201Good Luck Charlie                                 EP: 04                                                               6068707BCC                              
PRCFAMCHA150101115131115151000020Family's Newest & Best (HD) On Family (Dec2014)                                                                             150                                
PROFAMCHA150101115151115221000030Win Lose or Draw (HD) Gen 1 - Coming Up Next (Apri                                                                          150                                
PRCFAMCHA150101115221115251000030Stunt Gimme More Twistmas Marathon (HD) A&A - Toda                                                                          150                                
PROFAMCHA150101115251115336000045Episodic Jessie (HD) 320 - New episode Tomorrow @                                                                           150                                
PGRFAMCHA150101115336115406000030Int Olaf-A-Lot Shorts (HD) S2 - Beauty Sleep (Dec8                                                                     60688120CC                              
PROFAMCHA150101115406115421000015KC Undercover (HD) Slick Spy Spot #2 - Prems Frida                                                                          150                                
PROFAMCHA150101115421115511000050Disney Interactive                                                                                                          150                                
PRCFAMCHA150101115511115533000022Game Change Friday (HD) December (Dec26-Jan4)(mini                                                                          150                                
PROFAMCHA150101115533115607000034Twistmas 2014 (HD) Brandon & Savannah - Best Gift                                                                           150                                
PROFAMCHA150101115607115807000200Int Get to Know (HD) Taylor Matthews More (Dec26-J                                                                          150CC                              
PRCFAMCHA150101115807115829000022Family Bumper Flex (HD) Bike Trails (:20-:24) (Mar                                                                          150                                
PROFAMCHA150101115829115859000030Episodic Next Step (HD) 2-35 - New Episode Tomorro                                                                          150                                
PROFAMCHA150101115859115929000030Win Lose or Draw (HD) Gen 2 - Coming Up Next (Apri                                                                          150                                
PGRFAMCHA150101115929120610000641Disney Win, Lose or Draw                          EP: 04                                                               6068807BCC                              
PRCFAMCHA150101120610120640000030KC Undercover (HD) Slick Spy Spot #3 - Prems Frida                                                                          150                                
PGRFAMCHA150101120640121311000631Disney Win, Lose or Draw                          EP: 04                                                               6068807BCC                              
PROFAMCHA150101121311121341000030Episodic Next Step (HD) 2-35 - New Episode Tomorro                                                                          150                                
PGRFAMCHA150101121341121947000606Disney Win, Lose or Draw                          EP: 04                                                               6068807BCC                              
PROFAMCHA150101121947122031000044Planet 51 (HD) Saturday @ Noon (Dec2014)                                                                                    150                                
PGRFAMCHA150101122031122341000310Disney Win, Lose or Draw                          EP: 04                                                               6068807BCC                              
PRCFAMCHA150101122341122430000049Episodic A&A (HD) 3-22 - New episode Tonight @ 7 (                                                                          150                                
PROFAMCHA150101122430122453000023WOWP (HD) Harper - Coming Up Next (April 2013)                                                                              150                                
PRCFAMCHA150101122453122513000020Family's Newest & Best (HD) On Family (Dec2014)                                                                             150                                
PROFAMCHA150101122513122603000050Crayola                                                                                                                     150                                
PROFAMCHA150101122603122648000045Episodic Jessie (HD) 320 - New episode Tomorrow @                                                                           150                                
PROFAMCHA150101122648122713000025D-JR OOB - Post Christmas Movies - Weekdays @ 12p                                                                           150                                
PRCFAMCHA150101122713122731000018Family Bumper Flex (HD) Flex ID - Music ID (:14-:1                                                                          150                                
PROFAMCHA150101122731122816000045TNS Viewing Party (HD) Phase 3 - Only 1 More Day (                                                                          150                                
PROFAMCHA150101122816122901000045Stunt NOP, For the Win (HD) Tomorrow Night Startin                                                                          150                                
PROFAMCHA150101122901122907000006WOWP (HD) ID - Jennifer Stone 2 "Coming Up Next" (                                                                          150                                
PGRFAMCHA150101122907125139002232Disney Wizards of Waverly Place                   EP: 12                                                               6068607BCC                              
PROFAMCHA150101125139125224000045Episodic Jessie (HD) 320 - New episode Tomorrow @                                                                           150                                
PROFAMCHA150101125224125243000019WOWP (HD) Clip Bad Time - Coming Up Next (April 20                                                                          150                                
PRCFAMCHA150101125243125313000030Stunt Gimme More Twistmas Marathon (HD) A&A - Toda                                                                          150                                
PROFAMCHA150101125313125343000030Episodic Next Step (HD) 2-35 - New Episode Tomorro                                                                          150                                
PROFAMCHA150101125343125401000018Next Step Tour Announcement #2 (HD) Tomodachi Life                                                                          150                                
PGRFAMCHA150101125401125709000308MV Non Disney (HD) Taylor Matthews - Do What You W                                                                     10615120CC                              
PROFAMCHA150101125709125724000015KC Undercover (HD) Slick Spy Spot #2 - Prems Frida                                                                          150                                
PROFAMCHA150101125724125814000050Movie Star Planet                                                                                                           150                                
PROFAMCHA150101125814125843000029Twistmas 2014 (HD) Nikki Yanofsky - Best Gift (Dec                                                                          150                                
PRCFAMCHA150101125843125904000021Family Bumper Flex (HD) Break Dance (:18-:21) (Mar                                                                          150                                
PRCFAMCHA150101125904125924000020Family's Newest & Best (HD) On Family (Dec2014)                                                                             150                                
PROFAMCHA150101125924125930000006WOWP (HD) ID - Jennifer Stone 1 "Coming Up Next" (                                                                          150                                
PGRFAMCHA150101125930132201002231Disney Wizards of Waverly Place                   EP: 10                                                               6068607BCC                              
PROFAMCHA150101132201132246000045Stunt NOP, For the Win (HD) Tomorrow Night Startin                                                                          150                                
PROFAMCHA150101132246132311000025DWAB (HD) Clip Promo - Coming Up Next (Oct2013)                                                                             150                                
PRCFAMCHA150101132311132331000020Family's Newest & Best (HD) On Family (Dec2014)                                                                             150                                
PROFAMCHA150101132331132401000030Cloud 9 (HD) Twistmas - Tomorrow Night @ 8:00 (Dec                                                                          150                                
PGRFAMCHA150101132401132616000215Short GF Mabel's Scrapbook (HD) Petting Zoo (Jul30                                                                     60688120CC                              
PRCFAMCHA150101132616132638000022Game Change Friday (HD) December (Dec26-Jan4)(mini                                                                          150                                
PROFAMCHA150101132638132728000050Feld Entertainment                                                                                                          150                                
PROFAMCHA150101132728132803000035D-JR OOB - Post Christmas Marathons - Weekday Afte                                                                          150                                
PRCFAMCHA150101132803132822000019Family Bumper Flex (HD) Dog Park (:19-:21) (Mar201                                                                          150                                
PRCFAMCHA150101132822132911000049Episodic A&A (HD) 3-22 - New episode Tonight @ 7 (                                                                          150                                
PRCFAMCHA150101132911132926000015Family Flex Next (HD) DWAB Ghannelius (Aug 2013) (                                                                          150                                
PGRFAMCHA150101132926135159002233Disney Dog with a Blog                            EP: 13                                                               6068807BCC                              
MVCFAMCHA150101135159135501000302MV Lift BTS 2014 (HD) Megan Nicole - Never Wanna L                                                                     10618150CC                              
PROFAMCHA150101135501135531000030LAM Generic (HD) - Coming Up Next (May2014)                                                                                 150                                
PRCFAMCHA150101135531135601000030Stunt Gimme More Twistmas Marathon (HD) A&A - Toda                                                                          150                                
PRCFAMCHA150101135601135621000020Family's Newest & Best (HD) On Family (Dec2014)                                                                             150                                
PROFAMCHA150101135621135706000045Episodic Jessie (HD) 320 - New episode Tomorrow @                                                                           150                                
PROFAMCHA150101135706135721000015KC Undercover (HD) Slick Spy Spot #2 - Prems Frida                                                                          150                                
PRCFAMCHA150101135721135738000017Family Bumper Flex (HD) Flex ID - ANT Farm (:16-:2                                                                          150                                
PROFAMCHA150101135738135808000030Episodic Next Step (HD) 2-35 - New Episode Tomorro                                                                          150                                
PROFAMCHA150101135808135853000045TNS Viewing Party (HD) Phase 3 - Only 1 More Day (                                                                          150                                
PRCFAMCHA150101135853135912000019Family Flex Next (HD) LAM - Dove (:10-:19) (Jul201                                                                          150                                
PGRFAMCHA150101135912142245002333Disney Liv and Maddie                             EP: 11                                                               6068807BCC                              
PROFAMCHA150101142245142330000045Stunt NOP, For the Win (HD) Tomorrow Night Startin                                                                          150                                
PROFAMCHA150101142330142413000043Austin & Ally (HD) Bud Sell Refresh - Coming Up Ne                                                                          150                                
PROFAMCHA150101142413142457000044Planet 51 (HD) Saturday @ Noon (Dec2014)                                                                                    150                                
PROFAMCHA150101142457142547000050Walt Disney Pictures                                                                                                        150                                
PROFAMCHA150101142547142612000025D-JR OOB - Post Christmas Movies - Weekdays @ 12p                                                                           150                                
PGRFAMCHA150101142612142712000100MV Disney (HD) Synergy - Dove - You Me & Beat (ep                                                                      60688120CC                              
PROFAMCHA150101142712142757000045Girl Meets World (HD) Farkle/Comedy Sell - Check f                                                                          150                                
PRCFAMCHA150101142757142818000021Family Bumper Flex (HD) Fifteen Logos (:21-:22) (N                                                                          150                                
PRCFAMCHA150101142818142834000016Taylor Matthews Contest ID (HD) Go to Family.ca (D                                                                          150                                
PRCFAMCHA150101142834142854000020Family's Newest & Best (HD) On Family (Dec2014)                                                                             150                                
PRCFAMCHA150101142854142908000014Family Flex Next (HD) A&A Raini (Aug 2013) (:13-:1                                                                          150                                
PGRFAMCHA150101142908145210002302Disney Austin & Ally                              EP: 09                                                               6068807BCC                              
PRCFAMCHA150101145210145240000030Stunt Gimme More Twistmas Marathon (HD) A&A - Toda                                                                          150                                
MVCFAMCHA150101145240145557000317MV Disney (HD) R5 - Smile (Dec23-Mar23)                                                                                60685150CC                              
PROFAMCHA150101145557145627000030Jessie (HD) Generic - Coming up Next (May2014)                                                                              150                                
PRCFAMCHA150101145627145647000020Family's Newest & Best (HD) On Family (Dec2014)                                                                             150                                
PRCFAMCHA150101145647145709000022Game Change Friday (HD) December (Dec26-Jan4)(mini                                                                          150                                
PRCFAMCHA150101145709145739000030KC Undercover (HD) Slick Spy Spot #3 - Prems Frida                                                                          150                                
PROFAMCHA150101145739145805000026Twistmas 2014 (HD) Tenille - Wacky Gift (Dec18-Jan                                                                          150                                
PRCFAMCHA150101145805145823000018Family Bumper Flex (HD) Flip Book (:15-:18) (Nov 2                                                                          150                                
PROFAMCHA150101145823145841000018Next Step Tour Announcement #2 (HD) Nintendo 3DS (                                                                          150                                
PROFAMCHA150101145841145911000030Episodic Next Step (HD) 2-35 - New Episode Tomorro                                                                          150                                
PRCFAMCHA150101145911145925000014Family Flex Next (HD) Jessie - Zuri (:12-:14) (Apr                                                                          150                                
PGRFAMCHA150101145925152200002235Disney Jessie                                     EP: 03                                                               6068807BCC                              
PROFAMCHA150101152200152245000045Episodic Jessie (HD) 320 - New episode Tomorrow @                                                                           150                                
PROFAMCHA150101152245152330000045Girl Meets World (HD) Farkle/Comedy Sell - Coming                                                                           150                                
PROFAMCHA150101152330152400000030Episodic Next Step (HD) 2-35 - New Episode Tomorro                                                                          150                                
PROFAMCHA150101152400152445000045TNS Viewing Party (HD) Phase 3 - Only 1 More Day (                                                                          150                                
PROFAMCHA150101152445152535000050Disney Interactive                                                                                                          150                                
PROFAMCHA150101152535152601000026Twistmas 2014 (HD) Megan Nicole - Best Gift (Dec18                                                                          150                                
PROFAMCHA150101152601152636000035D-JR OOB - Post Christmas Marathons - Weekday Afte                                                                          150                                
PRCFAMCHA150101152636152654000018Family Bumper Flex (HD) Flex ID - Music ID (:14-:1                                                                          150                                
PRCFAMCHA150101152654152714000020Family's Newest & Best (HD) On Family (Dec2014)                                                                             150                                
PGRFAMCHA150101152714152814000100Copper Top Flop Show (HD) 118 Code Red (Aug13)                                                                         60688120CC                              
PRCFAMCHA150101152814152903000049Episodic A&A (HD) 3-22 - New episode Tonight @ 7 (                                                                          150                                
PRCFAMCHA150101152903152923000020Family Flex Next (HD) GMW - Rowan (:10-:20) (Jul20                                                                          150                                
PGRFAMCHA150101152923155127002204Disney Girl Meets World                           EP: 05                                                              A6068707BCC                              
PRCFAMCHA150101155127155147000020Family's Newest & Best (HD) On Family (Dec2014)                                                                             150                                
PRCFAMCHA150101155147155217000030Stunt Gimme More Twistmas Marathon (HD) A&A - Comi                                                                          150                                
PROFAMCHA150101155217155247000030Cloud 9 (HD) Twistmas - Tomorrow Night @ 8:00 (Dec                                                                          150                                
PGRFAMCHA150101155247155517000230Short GF Mabel's Scrapbook (HD) Heist Movie (Aug6)                                                                     60688120CC                              
PRCFAMCHA150101155517155533000016Taylor Matthews Contest ID (HD) Go to Family.ca (D                                                                          150                                
PROFAMCHA150101155533155623000050Walt Disney Pictures                                                                                                        150                                
PRCFAMCHA150101155623155712000049Episodic A&A (HD) 3-22 - New episode Tonight @ 7 (                                                                          150                                
PROFAMCHA150101155712155737000025Twistmas 2014 (HD) Anastasia A - Wacky Gift (Dec18                                                                          150                                
PROFAMCHA150101155737155807000030DXD Penn Zero (HD) Log Jam 2015 Live Action Sizzle                                                                          150                                
PRCFAMCHA150101155807155828000021Family Bumper Flex (HD) Garage Band (:17-:21) (Nov                                                                          150                                
PROFAMCHA150101155828155913000045Stunt NOP, For the Win (HD) Tomorrow Night Startin                                                                          150                                
PRCFAMCHA150101155913155927000014Family Flex Next (HD) A&A - Laura (:12-:14) (Apr20                                                                          150                                
PGRFAMCHA150101155927162201002234Disney Austin & Ally                              EP: 21                                                               6068807BCC                              
PROFAMCHA150101162201162246000045Episodic Jessie (HD) 320 - New episode Tomorrow @                                                                           150                                
PRCFAMCHA150101162246162316000030Stunt Gimme More Twistmas Marathon (HD) A&A - Cont                                                                          150                                
PROFAMCHA150101162316162346000030Episodic Next Step (HD) 2-35 - New Episode Tomorro                                                                          150                                
PRCFAMCHA150101162346162408000022Game Change Friday (HD) December (Dec26-Jan4)(mini                                                                          150                                
PRCFAMCHA150101162408162438000030KC Undercover (HD) Slick Spy Spot #1 - Prems Frida                                                                          150                                
PRCFAMCHA150101162438162527000049Episodic A&A (HD) 3-22 - New episode Tonight @ 7 (                                                                          150                                
PROFAMCHA150101162527162727000200Int Get to Know (HD) Taylor Matthews More (Dec26-J                                                                          150CC                              
PROFAMCHA150101162727162811000044Planet 51 (HD) Saturday @ Noon (Dec2014)                                                                                    150                                
PRCFAMCHA150101162811162832000021Family Bumper Flex (HD) Longboard (:19-:21) (Mar20                                                                          150                                
PRCFAMCHA150101162832162852000020Family's Newest & Best (HD) On Family (Dec2014)                                                                             150                                
PRCFAMCHA150101162852162907000015Family Flex Next (HD) A&A Raini (Aug 2013) (:13-:1                                                                          150                                
PGRFAMCHA150101162907165139002232Disney Austin & Ally                              EP: 15                                                               6068807BCC                              
PROFAMCHA150101165139165209000030Episodic Next Step (HD) 2-35 - New Episode Tomorro                                                                          150                                
PROFAMCHA150101165209165254000045TNS Viewing Party (HD) Phase 3 - Only 1 More Day (                                                                          150                                
PRCFAMCHA150101165254165324000030Stunt Gimme More Twistmas Marathon (HD) A&A - Cont                                                                          150                                
PGRFAMCHA150101165324165524000200Copper Top Flop Show (HD) 117 Master Wrapper (Dec                                                                      60688120CC                              
PRCFAMCHA150101165524165544000020Family's Newest & Best (HD) On Family (Dec2014)                                                                             150                                
PRCFAMCHA150101165544165628000044Twistmas 2013 (HD) Mixed Talent NYE Resolutions (D                                                                          150                                
PROFAMCHA150101165628165718000050Crayola                                                                                                                     150                                
PROFAMCHA150101165718165812000054DXD Penn Zero (HD) Log Jam 2015 Animation Sizzle (                                                                          150                                
PRCFAMCHA150101165812165832000020Family Bumper Flex (HD) Flex ID - ANT Farm (:16-:2                                                                          150                                
PROFAMCHA150101165832165917000045Episodic Jessie (HD) 320 - New episode Tomorrow @                                                                           150                                
PRCFAMCHA150101165917165931000014Family Flex Next (HD) A&A - Laura (:12-:14) (Apr20                                                                          150                                
PGRFAMCHA150101165931172204002233Disney Austin & Ally                              EP: 16                                                               6068807BCC                              
PRCFAMCHA150101172204172224000020Family's Newest & Best (HD) On Family (Dec2014)                                                                             150                                
PRCFAMCHA150101172224172254000030Stunt Gimme More Twistmas Marathon (HD) A&A - Cont                                                                          150                                
PGRFAMCHA150101172254172454000200Copper Top Flop Show (HD) 102 Woot Coach #1 (Feb28                                                                     60688120CC                              
PROFAMCHA150101172454172524000030Cloud 9 (HD) Twistmas - Tomorrow Night @ 8:00 (Dec                                                                          150                                
PRCFAMCHA150101172524172540000016Taylor Matthews Contest ID (HD) Go to Family.ca (D                                                                          150                                
PRCFAMCHA150101172540172629000049Episodic A&A (HD) 3-22 - New episode Tonight @ 7 (                                                                          150                                
PROFAMCHA150101172629172719000050Feld Entertainment                                                                                                          150                                
PROFAMCHA150101172719172751000032Twistmas 2014 (HD) Crystalyne - Best Gift (Dec18-J                                                                          150                                
PROFAMCHA150101172751172809000018Next Step Tour Announcement #2 (HD) Doh Vinci (2x/                                                                          150                                
PRCFAMCHA150101172809172830000021Family Bumper Flex (HD) Trampoline (:15-:21) (Mar2                                                                          150                                
PROFAMCHA150101172830172915000045Stunt NOP, For the Win (HD) Tomorrow Night Startin                                                                          150                                
PRCFAMCHA150101172915172930000015Family Flex Next (HD) A&A Raini (Aug 2013) (:13-:1                                                                          150                                
PGRFAMCHA150101172930175219002249Disney Austin & Ally                              EP: 20                                                               6068807BCC                              
PROFAMCHA150101175219175249000030Episodic Next Step (HD) 2-35 - New Episode Tomorro                                                                          150                                
PRCFAMCHA150101175249175319000030Stunt Gimme More Twistmas Marathon (HD) A&A - Cont                                                                          150                                
PGRFAMCHA150101175319175519000200Copper Top Flop Show (HD) 107 NewsWorthy Part 2  (                                                                     60688120CC                              
PROFAMCHA150101175519175604000045Episodic Jessie (HD) 320 - New episode Tomorrow @                                                                           150                                
PRCFAMCHA150101175604175626000022Game Change Friday (HD) December (Dec26-Jan4)(mini                                                                          150                                
PROFAMCHA150101175626175716000050Movie Star Planet                                                                                                           150                                
PROFAMCHA150101175716175731000015KC Undercover (HD) Slick Spy Spot #2 - Prems Frida                                                                          150                                
PROFAMCHA150101175731175752000021Twistmas 2014 (HD) Sabrina Carpenter - Best Gift (                                                                          150                                
PROFAMCHA150101175752175822000030DXD Penn Zero (HD) Log Jam 2015 Live Action Sizzle                                                                          150                                
PRCFAMCHA150101175822175846000024Family Bumper Flex (HD) Bike Trails (:20-:24) (Mar                                                                          150                                
PRCFAMCHA150101175846175906000020Family's Newest & Best (HD) On Family (Dec2014)                                                                             150                                
PRCFAMCHA150101175906175920000014Family Flex Next (HD) A&A - Laura (:12-:14) (Apr20                                                                          150                                
PGRFAMCHA150101175920182223002303Disney Austin & Ally                              EP: 19                                                               6068807BCC                              
PROFAMCHA150101182223182253000030Cloud 9 (HD) Twistmas - Tomorrow Night @ 8:00 (Dec                                                                          150                                
PRCFAMCHA150101182253182323000030Stunt Gimme More Twistmas Marathon (HD) A&A - Cont                                                                          150                                
PGRFAMCHA150101182323182523000200Copper Top Flop Show (HD) 103 Woot Coach #2 (Mar7)                                                                     60688120CC                              
PRCFAMCHA150101182523182543000020Family's Newest & Best (HD) On Family (Dec2014)                                                                             150                                
PRCFAMCHA150101182543182632000049Episodic A&A (HD) 3-22 - New episode Tonight @ 7 (                                                                          150                                
PROFAMCHA150101182632182722000050Crayola                                                                                                                     150                                
PROFAMCHA150101182722182807000045TNS Viewing Party (HD) Phase 3 - Only 1 More Day (                                                                          150                                
PRCFAMCHA150101182807182825000018Family Bumper Flex (HD) Flex ID - Music ID (:14-:1                                                                          150                                
PROFAMCHA150101182825182910000045Stunt NOP, For the Win (HD) Tomorrow Night Startin                                                                          150                                
PRCFAMCHA150101182910182925000015Family Flex Next (HD) A&A Raini (Aug 2013) (:13-:1                                                                          150                                
PGRFAMCHA150101182925185158002233Disney Austin & Ally                              EP: 14                                                               6068807BCC                              
PROFAMCHA150101185158185243000045Episodic Jessie (HD) 320 - New episode Tomorrow @                                                                           150                                
PRCFAMCHA150101185243185313000030Stunt Gimme More Twistmas Marathon (HD) A&A - Cont                                                                          150                                
PGRFAMCHA150101185313185458000145Copper Top Flop Show (HD) 113 Ghost Writer (Nov29)                                                                     60688120CC                              
PROFAMCHA150101185458185516000018Next Step Tour Announcement #2 (HD) Rebelle (2x/da                                                                          150                                
PROFAMCHA150101185516185546000030Episodic Next Step (HD) 2-35 - New Episode Tomorro                                                                          150                                
PRCFAMCHA150101185546185602000016Taylor Matthews Contest ID (HD) Go to Family.ca (D                                                                          150                                
PROFAMCHA150101185602185652000050Walt Disney Pictures                                                                                                        150                                
PROFAMCHA150101185652185746000054DXD Penn Zero (HD) Log Jam 2015 Animation Sizzle (                                                                          150                                
PRCFAMCHA150101185746185807000021Family Bumper Flex (HD) Break Dance (:18-:21) (Mar                                                                          150                                
PGRFAMCHA150101185807185837000030Int Olaf-A-Lot Shorts (HD) S2 - Having the Right M                                                                     60688120CC                              
PRCFAMCHA150101185837185857000020Family's Newest & Best (HD) On Family (Dec2014)                                                                             150                                
PRCFAMCHA150101185857185946000049Episodic A&A (HD) 3-22 - New episode Coming Up Nex                                                                          150                                
PGRFAMCHA150101185946192319002333Disney Austin & Ally                              EP: 22                                                               6028807BCC                              
PROFAMCHA150101192319192404000045Episodic Jessie (HD) 320 - New episode Tomorrow @                                                                           150                                
PRCFAMCHA150101192404192424000020Next Step Season 2 B (HD) Riley - Coming Up Next (                                                                          150                                
PROFAMCHA150101192424192454000030Cloud 9 (HD) Twistmas - Tomorrow Night @ 8:00 (Dec                                                                          150                                
PGRFAMCHA150101192454192654000200Frozen Wkd (HD) Lift - Do You Want To Build A Snow                                                                     60688120CC                              
PRCFAMCHA150101192654192716000022Game Change Friday (HD) December (Dec26-Jan4)(mini                                                                          150                                
PROFAMCHA150101192716192806000050Movie Star Planet                                                                                                           150                                
PROFAMCHA150101192806192840000034Twistmas 2014 (HD) Brandon & Savannah - Best Gift                                                                           150                                
PRCFAMCHA150101192840192901000021Family Bumper Flex (HD) Dog Park (:19-:21) (Mar201                                                                          150                                
PRCFAMCHA150101192901192921000020Family's Newest & Best (HD) On Family (Dec2014)                                                                             150                                
PROFAMCHA150101192921192936000015Next Step Season 2 B (HD) James - Coming Up Next (                                                                          150                                
PGRFAMCHA150101192936195222002246The Next Step                                     EP: 32                                                        A36426 1055607ACD3                             
PROFAMCHA150101195222195252000030Episodic Next Step (HD) 2-35 - New Episode Tomorro                                                                          150                                
PROFAMCHA150101195252195337000045TNS Viewing Party (HD) Phase 3 - Only 1 More Day (                                                                          150                                
PRCFAMCHA150101195337195422000045Austin & Ally (HD) Pitch Perfect - Coming Up Next                                                                           150                                
PRCFAMCHA150101195422195442000020Family's Newest & Best (HD) On Family (Dec2014)                                                                             150                                
PRCFAMCHA150101195442195512000030KC Undercover (HD) Slick Spy Spot #3 - Prems Frida                                                                          150                                
PGRFAMCHA150101195512195742000230Short GF TV Short (HD) #1 (Aug13)                                                                                      60688120CC                              
PRCFAMCHA150101195742195758000016Taylor Matthews Contest ID (HD) Go to Family.ca (D                                                                          150                                
PROFAMCHA150101195758195828000030DXD Penn Zero (HD) Log Jam 2015 Live Action Sizzle                                                                          150                                
PRCFAMCHA150101195828195848000020Family Bumper Flex (HD) Flex ID - ANT Farm (:16-:2                                                                          150                                
PROFAMCHA150101195848195933000045Episodic Jessie (HD) 320 - New episode Tomorrow @                                                                           150                                
PRCFAMCHA150101195933195947000014Family Flex Next (HD) A&A - Laura (:12-:14) (Apr20                                                                          150                                
PGRFAMCHA150101195947202305002318Disney Austin & Ally                              EP: 18                                                               6068807BCC                              
PRCFAMCHA150101202305202325000020Family's Newest & Best (HD) On Family (Dec2014)                                                                             150                                
PROFAMCHA150101202325202355000030GLC Promo 3 (HD) Coming Up Next (Sep2013)                                                                                   150                                
PROFAMCHA150101202355202425000030Cloud 9 (HD) Twistmas - Tomorrow Night @ 8:00 (Dec                                                                          150                                
PGRFAMCHA150101202425202754000329Mickey Mouse Shorts (HD) 1-02 No Service (July12)                                                                      60688120CC                              
PRCFAMCHA150101202754202810000016Taylor Matthews Contest ID (HD) Go to Family.ca (D                                                                          150                                
PROFAMCHA150101202810202835000025D-JR OOB - Post Christmas Movies - Weekdays @ 12p                                                                           150                                
PRCFAMCHA150101202835202857000022Family Bumper Flex (HD) Fifteen Logos (:21-:22) (N                                                                          150                                
PROFAMCHA150101202857202942000045Stunt NOP, For the Win (HD) Tomorrow Night Startin                                                                          150                                
PROFAMCHA150101202942202948000006GLC (HD) ID - Bridget Mendler 4 "Coming Up Next" (                                                                          150                                
PGRFAMCHA150101202948205222002234Good Luck Charlie                                 EP: 06                                                               6068707BCC                              
PROFAMCHA150101205222205307000045Episodic Jessie (HD) 320 - New episode Tomorrow @                                                                           150                                
PROFAMCHA150101205307205330000023Next Step Season 2 B (HD) Eldon - Coming Up Next (                                                                          150                                
PRCFAMCHA150101205330205352000022Game Change Friday (HD) December (Dec26-Jan4)(mini                                                                          150                                
MVCFAMCHA150101205352205754000402MV Non Disney (HD) Megan Nicole - Electrified (Oct                                                                     20688150CC                              
PROFAMCHA150101205754205828000034Twistmas 2014 (HD) Kelli Berglund - Best Gift (Dec                                                                          150                                
PROFAMCHA150101205828205843000015KC Undercover (HD) Slick Spy Spot #2 - Prems Frida                                                                          150                                
PRCFAMCHA150101205843205901000018Family Bumper Flex (HD) Flip Book (:15-:18) (Nov 2                                                                          150                                
PRCFAMCHA150101205901205921000020Family's Newest & Best (HD) On Family (Dec2014)                                                                             150                                
PRCFAMCHA150101205921205942000021Next Step Season 2 B (HD) West - Coming Up Next (S                                                                          150                                
PGRFAMCHA150101205942212228002246The Next Step                                     EP: 14                                                        C36838 1055607ACD3                             
PROFAMCHA150101212228212258000030Episodic Next Step (HD) 2-35 - New Episode Tomorro                                                                          150                                
MVCFAMCHA150101212258212653000355MV Lift BTS 2014 (HD) Crystalyne - Punks Dont Danc                                                                     10618150CC                              
PRCFAMCHA150101212653212713000020Family's Newest & Best (HD) On Family (Dec2014)                                                                             150                                
PROFAMCHA150101212713212743000030Cloud 9 (HD) Twistmas - Tomorrow Night @ 8:00 (Dec                                                                          150                                
PROFAMCHA150101212743212801000018Next Step Tour Announcement #2 (HD) Tomodachi Life                                                                          150                                
PROFAMCHA150101212801212814000013Twistmas 2014 (HD) Callum Worthy - Best Gift (Dec1                                                                          150                                
PROFAMCHA150101212814212849000035D-JR OOB - Post Christmas Marathons - Weekday Afte                                                                          150                                
PRCFAMCHA150101212849212907000018Family Bumper Flex (HD) Flex ID - Music ID (:14-:1                                                                          150                                
PROFAMCHA150101212907212952000045Episodic Jessie (HD) 320 - New episode Tomorrow @                                                                           150                                
PGRFAMCHA150101212952215224002232Wingin' It                                        EP: 09                                                        C32727 1065607ACD                              
PROFAMCHA150101215224215309000045Stunt NOP, For the Win (HD) Tomorrow Night Startin                                                                          150                                
PROFAMCHA150101215309215328000019GLC Promo 2 (HD) Coming Up Next (Sep2013)                                                                                   150                                
PROFAMCHA150101215328215358000030Cloud 9 (HD) Twistmas - Tomorrow Night @ 8:00 (Dec                                                                          150                                
PGRFAMCHA150101215358215743000345Mickey Mouse Shorts (HD) 1-12 Dog Show (Nov 1)                                                                         60688120CC                              
PROFAMCHA150101215743215828000045TNS Viewing Party (HD) Phase 3 - Only 1 More Day (                                                                          150                                
PROFAMCHA150101215828215854000026Twistmas 2014 (HD) Tenille - Wacky Gift (Dec18-Jan                                                                          150                                
PRCFAMCHA150101215854215910000016Taylor Matthews Contest ID (HD) Go to Family.ca (D                                                                          150                                
PRCFAMCHA150101215910215931000021Family Bumper Flex (HD) Garage Band (:17-:21) (Nov                                                                          150                                
PRCFAMCHA150101215931215951000020Family's Newest & Best (HD) On Family (Dec2014)                                                                             150                                
PROFAMCHA150101215951215956000005GLC (HD) ID - Jason Dolley 2 - "Coming Up Next" (g                                                                          150                                
PGRFAMCHA150101215956222215002219Disney Good Luck Charlie                          EP: 20                                                               6068807BCC                              
PROFAMCHA150101222215222245000030Episodic Next Step (HD) 2-35 - New Episode Tomorro                                                                          150                                
PROFAMCHA150101222245222315000030Win Lose or Draw (HD) Gen 2 - Coming Up Next (Apri                                                                          150                                
MVCFAMCHA150101222315222645000330MV Non Disney (HD) Victoria Duffield - Paper Plane                                                                     10615150CC                              
PRCFAMCHA150101222645222705000020Family's Newest & Best (HD) On Family (Dec2014)                                                                             150                                
PRCFAMCHA150101222705222727000022Game Change Friday (HD) December (Dec26-Jan4)(mini                                                                          150                                
PGRFAMCHA150101222727222757000030Int Olaf-A-Lot Shorts (HD) S2 - Paying Attention (                                                                     60688120CC                              
PROFAMCHA150101222757222822000025D-JR OOB - Post Christmas Movies - Weekdays @ 12p                                                                           150                                
PRCFAMCHA150101222822222843000021Family Bumper Flex (HD) Longboard (:19-:21) (Mar20                                                                          150                                
PROFAMCHA150101222843222928000045Episodic Jessie (HD) 320 - New episode Tomorrow @                                                                           150                                
PROFAMCHA150101222928222958000030Win Lose or Draw (HD) Gen 1 - Coming Up Next (Apri                                                                          150                                
PGRFAMCHA150101222958223640000642Disney Win, Lose or Draw                          EP: 04                                                               6068807BCC                              
PRCFAMCHA150101223640223700000020Family's Newest & Best (HD) On Family (Dec2014)                                                                             150                                
PGRFAMCHA150101223700224332000632Disney Win, Lose or Draw                          EP: 04                                                               6068807BCC                              
PROFAMCHA150101224332224402000030Episodic Next Step (HD) 2-35 - New Episode Tomorro                                                                          150                                
PGRFAMCHA150101224402225009000607Disney Win, Lose or Draw                          EP: 04                                                               6068807BCC                              
PROFAMCHA150101225009225054000045Episodic Jessie (HD) 320 - New episode Tomorrow @                                                                           150                                
PGRFAMCHA150101225054225405000311Disney Win, Lose or Draw                          EP: 04                                                               6068807BCC                              
PROFAMCHA150101225405225435000030Cloud 9 (HD) Twistmas - Tomorrow Night @ 8:00 (Dec                                                                          150                                
PROFAMCHA150101225435225454000019WOWP (HD) Clip Bad Time - Coming Up Next (April 20                                                                          150                                
PRCFAMCHA150101225454225524000030KC Undercover (HD) Slick Spy Spot #3 - Prems Frida                                                                          150                                
PROFAMCHA150101225524225711000147Int Get to Know (HD) Taylor Matthews (Dec26-Jan4)                                                                           150CC                              
PROFAMCHA150101225711225756000045TNS Viewing Party (HD) Phase 3 - Only 1 More Day (                                                                          150                                
PGRFAMCHA150101225756225826000030Int Olaf-A-Lot Shorts (HD) S2 - Sharing is Caring                                                                      60688120CC                              
PRCFAMCHA150101225826225846000020Family Bumper Flex (HD) Flex ID - ANT Farm (:16-:2                                                                          150                                
PROFAMCHA150101225846225902000016Twistmas 2014 (HD) Austin Mahone - Wacky Gift (Dec                                                                          150                                
PROFAMCHA150101225902225947000045Stunt NOP, For the Win (HD) Tomorrow Night Startin                                                                          150                                
PROFAMCHA150101225947225953000006WOWP (HD) ID - Jennifer Stone 1 "Coming Up Next" (                                                                          150                                
PGRFAMCHA150101225953232227002234Disney Wizards of Waverly Place                   EP: 12                                                               6068607BCC                              
MVCFAMCHA150101232227232611000344MV Lift BTS 2014 (HD) Sabrina Carpenter - Take on                                                                      10618150CC                              
PROFAMCHA150101232611232641000030Episodic Next Step (HD) 2-35 - New Episode Tomorro                                                                          150                                
PRCFAMCHA150101232641232701000020Family's Newest & Best (HD) On Family (Dec2014)                                                                             150                                
PRCFAMCHA150101232701232717000016Taylor Matthews Contest ID (HD) Go to Family.ca (D                                                                          150                                
PROFAMCHA150101232717232801000044Planet 51 (HD) Saturday @ Noon (Dec2014)                                                                                    150                                
PROFAMCHA150101232801232818000017Twistmas 2014 (HD) Nikki Yanofsky - Wacky Gift (De                                                                          150                                
PROFAMCHA150101232818232853000035D-JR OOB - Post Christmas Marathons - Weekday Afte                                                                          150                                
PRCFAMCHA150101232853232914000021Family Bumper Flex (HD) Trampoline (:15-:21) (Mar2                                                                          150                                
PROFAMCHA150101232914232959000045Episodic Jessie (HD) 320 - New episode Tomorrow @                                                                           150                                
PGRFAMCHA150101232959235230002231Life with Derek                                   EP: 09                                                        C26822 1065607BCC                              
PGRFAMCHA150101235230235750000520MV Lift BTS 2014 (HD) Next Step Dancers (Oct2014)                                                                      10618150CC                              
PROFAMCHA150101235750235835000045Stunt NOP, For the Win (HD) Tomorrow Night Startin                                                                          150                                
PROFAMCHA150101235835235905000030Cloud 9 (HD) Twistmas - Tomorrow Night @ 8:00 (Dec                                                                          150                                
PRCFAMCHA150101235905235927000022Game Change Friday (HD) December (Dec26-Jan4)(mini                                                                          150                                
PRCFAMCHA150101235927235949000022Family Bumper Flex (HD) Fifteen Logos (:21-:22) (N                                                                          150                                
PRCFAMCHA150101235949000009000020Family's Newest & Best (HD) On Family (Dec2014)                                                                             150                                
PGRFAMCHA150101000009002246002237The Latest Buzz                                   EP: 26                                                        C30362 1065607BCC                              
PROFAMCHA150101002246002316000030Episodic Next Step (HD) 2-35 - New Episode Tomorro                                                                          150                                
PROFAMCHA150101002316002401000045TNS Viewing Party (HD) Phase 3 - Only 1 More Day (                                                                          150                                
MVCFAMCHA150101002401002745000344MV Non Disney (HD) Echosmith - Cool Kids (Mark P V                                                                     10615150CC                              
PRCFAMCHA150101002745002805000020Family's Newest & Best (HD) On Family (Dec2014)                                                                             150                                
PROFAMCHA150101002805002820000015KC Undercover (HD) Slick Spy Spot #2 - Prems Frida                                                                          150                                
PROFAMCHA150101002820002845000025D-JR OOB - Post Christmas Movies - Weekdays @ 12p                                                                           150                                
PRCFAMCHA150101002845002903000018Family Bumper Flex (HD) Flex ID - Music ID (:14-:1                                                                          150                                
PROFAMCHA150101002903002948000045Episodic Jessie (HD) 320 - New episode Tomorrow @                                                                           150                                
PGRFAMCHA150101002948005220002232Wingin' It                                        EP: 13                                                        C32727 1065607ACD                              
MVCFAMCHA150101005220005546000326MV Lift BTS 2014 (HD) Cody Simpson - Pretty Brown                                                                      10618150CC                              
PRCFAMCHA150101005546005606000020Family's Newest & Best (HD) On Family (Dec2014)                                                                             150                                
PROFAMCHA150101005606005651000045Episodic Jessie (HD) 320 - New episode Tomorrow @                                                                           150                                
PRCFAMCHA150101005651005707000016Taylor Matthews Contest ID (HD) Go to Family.ca (D                                                                          150                                
PGRFAMCHA150101005707005737000030Int Olaf-A-Lot Shorts (HD) S2 - Having the Right M                                                                     60688120CC                              
PROFAMCHA150101005737005821000044Planet 51 (HD) Saturday @ Noon (Dec2014)                                                                                    150                                
PROFAMCHA150101005821005842000021Twistmas 2014 (HD) Sabrina Carpenter - Best Gift (                                                                          150                                
PRCFAMCHA150101005842005903000021Family Bumper Flex (HD) Break Dance (:18-:21) (Mar                                                                          150                                
PRCFAMCHA150101005903005933000030KC Undercover (HD) Slick Spy Spot #3 - Prems Frida                                                                          150                                
PROFAMCHA150101005933010003000030Episodic Next Step (HD) 2-35 - New Episode Tomorro                                                                          150                                
PGRFAMCHA150101010003012236002233DEBRA!                                            EP: 09                                                        C35763 1065607ACD                              
PRCFAMCHA150101012236012257000021Family Bumper Flex (HD) Dog Park (:19-:21) (Mar201                                                                          150                                
PGRFAMCHA150101012257014525002228What's Up, Warthogs!                              EP: 05                                                        C32738 1065607BCC                              
PRCFAMCHA150101014525014545000020Family Bumper Flex (HD) Flex ID - ANT Farm (:16-:2                                                                          150                                
PGRFAMCHA150101014545020802002217Disney Wizards of Waverly Place                   EP: 01                                                               6068607BCC                              
PRCFAMCHA150101020802020824000022Family Bumper Flex (HD) Fifteen Logos (:21-:22) (N                                                                          150                                
PGRFAMCHA150101020824023055002231Really Me                                         EP: 03                                                        C35342 1065607ACD                              
PRCFAMCHA150101023055023126000031Family Bumper Flex (HD) Flex ID - Austin & Ally (F                                                                          150                                
PGRFAMCHA150101023126025357002231Life with Derek                                   EP: 22                                                        C26822 1065607BCC                              
PRCFAMCHA150101025357025415000018Family Bumper Flex (HD) Flip Book (:15-:18) (Nov 2                                                                          150                                
PGRFAMCHA150101025415031617002202Slugterra                                         EP: 06                                                        A33763 1065607ACC                              
PRCFAMCHA150101031617031635000018Family Bumper Flex (HD) Flex ID - Jessie ID (:15-:                                                                          150                                
PGRFAMCHA150101031635033857002222What's Up, Warthogs!                              EP: 08                                                        B33327 1065607BCC                              
PRCFAMCHA150101033857033918000021Family Bumper Flex (HD) Garage Band (:17-:21) (Nov                                                                          150                                
PGRFAMCHA150101033918040154002236The Latest Buzz                                   EP: 21                                                        C30362 1065607BCC                              
PRCFAMCHA150101040154040212000018Family Bumper Flex (HD) Flex ID - Music ID (:14-:1                                                                          150                                
PGRFAMCHA150101040212042442002230Life with Derek                                   EP: 06                                                        C23968A1065607BCC                              
PROFAMCHA150101042442042527000045Stunt NOP, For the Win (HD) Tonight Starting @ 7 (                                                                          150                                
PROFAMCHA150101042527042611000044Planet 51 (HD) Tomorrow @ Noon (Dec2014)                                                                                    150                                
PGRFAMCHA150101042611042919000308MV Non Disney (HD) Taylor Matthews - Do What You W                                                                     10615120CC                              
PRCFAMCHA150101042919042939000020Family Bumper Flex (HD) Longboard (:19-:21) (Mar20                                                                          150                                
PRCFAMCHA150101042939042959000020Family's Newest & Best (HD) On Family (Dec2014)                                                                             150                                
OFFFAMCHA150101042959043000000001OFF AIR                                                                                                                                                        
PGRFAMCHA150102043000045233002233DEBRA!                                            EP: 05                                                        C35763 1065607ACD                              
PROFAMCHA150102045233045318000045Episodic Jessie (HD) 320 - New episode Tonight @ 7                                                                          150                                
PRCFAMCHA150102045318045340000022Game Change Friday (HD) December (Dec26-Jan4)(mini                                                                          150                                
PROFAMCHA150102045340045424000044Planet 51 (HD) Tomorrow @ Noon (Dec2014)                                                                                    150                                
PRCFAMCHA150102045424045442000018Family Bumper Flex ID (HD) Twistmas - Gifts (:14-:                                                                          150                                
PRCFAMCHA150102045442045512000030KC Undercover (HD) Slick Spy Spot #3 - Prems Frida                                                                          150                                
PROFAMCHA150102045512045542000030Episodic Next Step (HD) 2-35 - New Episode Tonight                                                                          150                                
PGRFAMCHA150102045542051814002232Really Me                                         EP: 07                                                        B33828 1065607BCD                              
PROFAMCHA150102051814051822000008D-JR Live Action ID - Stella & Sam - Coming Up (Ma                                                                          150                                
PROFAMCHA150102051822051847000025D-JR Live Action ID - #15 Sidewalk Chalk (Sep2013)                                                                          150                                
PROFAMCHA150102051847051912000025D-JR OOB - Post Christmas Movies - Weekdays @ 12p                                                                           150                                
PROFAMCHA150102051912051957000045D-JR Promo - Sheriff Callie - Weekends @ 1130 on D                                                                          150                                
PROFAMCHA150102051957052022000025D-JR Live Action ID - #28 Clapping Game (Sep2013)                                                                           150                                
PROFAMCHA150102052022052030000008D-JR Live Action ID - Stella & Sam - Now (Mar2013)                                                                          150                                
PROFAMCHA150102052030052040000010D-JR - Hero Flex ID - Blue (:06-:10) (Feb2014)                                                                              150                                
PGRFAMCHA150102052040054356002316Stella and Sam                                    EP: 02                                                        C32553 1065607ECD                              
PROFAMCHA150102054356054431000035D-JR OOB - Post Christmas Marathons - Weekday Afte                                                                          150                                
PROFAMCHA150102054431054446000015D-JR - Daily ID - Friday (Feb2014)                                                                                          150                                
PGRFAMCHA150102054446060717002231Justin Time                                       EP: 08                                                        C36486 1065607ECD                              
PROFAMCHA150102060717060725000008D-JR Live Action ID - Justin Time - Coming Up (Sep                                                                          150                                
PROFAMCHA150102060725060750000025D-JR Live Action ID - #50 Feed Dog (Sep2013)                                                                                150                                
PROFAMCHA150102060750060815000025D-JR OOB - Post Christmas Movies - Weekdays @ 12p                                                                           150                                
PROFAMCHA150102060815060857000042D-JR Promo - Sofia The First - Get More Wknds @ 11                                                                          150                                
PROFAMCHA150102060857060922000025D-JR Live Action ID - #72 Family Tree Craft (Sept2                                                                          150                                
PROFAMCHA150102060922060930000008D-JR Live Action ID - Justin Time - Now (Sept2014)                                                                          150                                
PROFAMCHA150102060930060940000010D-JR - Hero Flex ID - Green (:06-:10) (Feb2014)                                                                             150                                
PGRFAMCHA150102060940063209002229Justin Time                                       EP: 09                                                        C36486 1065607ECD                              
PROFAMCHA150102063209063254000045Stunt NOP, For the Win (HD) Tonight Starting @ 7 (                                                                          150                                
PRCFAMCHA150102063254063352000058Teen Beach Movie (HD) Trailer CD - Sunday @ Noon (                                                                          150                                
PRCFAMCHA150102063352063411000019Family Bumper Flex ID (HD) Twistmas - Snowglobe (:                                                                          150                                
PROFAMCHA150102063411063431000020Episodic Mighty Med (HD) 206 - DXD Special Pres Fr                                                                          150                                
PRCFAMCHA150102063431063445000014Family Flex Next (HD) ANT Farm - Jake (:12-:14) (A                                                                          150                                
