PGRFAMCHA140401043000045231002231The Secret World of Benjamin Bear                 EP: 19                                                        C26066 1065607ECC                              
PROFAMCHA140401045231045238000007D-JR Live Action ID - Franny's Feet - Coming Up (M                                                                          150                                
PROFAMCHA140401045238045303000025D-JR Live Action ID - #63 Wash Face (Sep2013)                                                                               150                                
PROFAMCHA140401045303045333000030D-JR Promo - On demand online REVISED - D-JR.ca (M                                                                          150                                
PROFAMCHA140401045333045425000052D-JR Promo - Doc McStuffins - Get more on the chan                                                                          150                                
PROFAMCHA140401045425045510000045D-JR OOB - Sherriff 116 - New Episode April 6 @ 11                                                                          150                                
PROFAMCHA140401045510045535000025D-JR Live Action ID - #47 Making Breakfast (May201                                                                          150                                
PROFAMCHA140401045535045542000007D-JR Live Action ID - Franny's Feet - Now (May2012                                                                          150                                
PROFAMCHA140401045542045552000010D-JR - Hero Flex ID - Green (:06-:10) (Feb2014)                                                                             150                                
PGRFAMCHA140401045552051824002232Franny's Feet                                     EP: 47                                                        C31292 1065607ECC                              
PROFAMCHA140401051824051831000007D-JR Live Action ID - SWOBB - Coming Up (May2012)                                                                           150                                
PROFAMCHA140401051831051856000025D-JR Live Action ID - #50 Feed Dog (Sep2013)                                                                                150                                
PROFAMCHA140401051856052008000112D-JR OOB - Tripple Rella Saturday April 5 @ 9AM (M                                                                          150                                
PROFAMCHA140401052008052033000025D-JR Live Action ID - #37 Rock Paper Scissors (Sep                                                                          150                                
PROFAMCHA140401052033052040000007D-JR Live Action ID - SWOBB - Now (May2012)                                                                                 150                                
PROFAMCHA140401052040052055000015D-JR - Daily ID - Tuesday (Feb2014)                                                                                         150                                
PGRFAMCHA140401052055054326002231The Secret World of Benjamin Bear                 EP: 45                                                        C31763 1065607ECC                              
PROFAMCHA140401054326054333000007D-JR Live Action ID - Harry & His Dinosaurs - Comi                                                                          150                                
PROFAMCHA140401054333054358000025D-JR Live Action ID - #29 Put Shoes On (Sept2012)                                                                           150                                
PROFAMCHA140401054358054428000030D-JR Promo - Henry Hugglemonster - Get More Henry                                                                           150                                
PROFAMCHA140401054428054453000025D-JR Live Action ID - #33 Feeding Birds (Sep2013)                                                                           150                                
PROFAMCHA140401054453054500000007D-JR Live Action ID - Harry & His Dinosaurs - Now                                                                           150                                
PROFAMCHA140401054500054510000010D-JR - Hero Flex ID - Blue (:06-:10) (Feb2014)                                                                              150                                
PGRFAMCHA140401054510060641002131Harry and His Bucket Full of Dinosaurs            EP: 15                                                        B05034 1065607ECC                              
PROFAMCHA140401060641060649000008D-JR Live Action ID - Stella & Sam - Coming Up (Ma                                                                          150                                
PROFAMCHA140401060649060714000025D-JR Live Action ID - #10 Build A Block Tower (Sep                                                                          150                                
PROFAMCHA140401060714060826000112D-JR OOB - Tripple Rella Saturday April 5 @ 9AM (M                                                                          150                                
PROFAMCHA140401060826060920000054D-JR Promo - Lego Mall Tour (x2 a day) (Feb24-Apr1                                                                          150                                
PROFAMCHA140401060920060945000025D-JR Live Action ID - #20 Calendar (May2012)                                                                                150                                
PROFAMCHA140401060945060953000008D-JR Live Action ID - Stella & Sam - Now (Mar2013)                                                                          150                                
PROFAMCHA140401060953061008000015D-JR - Seasonal ID - Spring (Mar 1-May 31)                                                                                  150                                
PGRFAMCHA140401061008063324002316Stella and Sam                                    EP: 13                                                        C32553 1065607ECD                              
PROFAMCHA140401063324063351000027Stunt IDDI Meet the Cast (HD) Friday Starting @ 53                                                                          150                                
PRCFAMCHA140401063351063416000025Episodic Next Step (HD) 208 New Ep Friday @ 730 (M                                                                          150                                
PRCFAMCHA140401063416063425000009Family Bumper (HD) - Dragonflies ID (Jan 2011)                                                                              150                                
PROFAMCHA140401063425063455000030Win Lose or Draw (HD) Premise CT - Premieres Monda                                                                          150                                
PROFAMCHA140401063455063510000015ANT Farm (HD) Refresh CT - Coming Up Next (April 2                                                                          150                                
PGRFAMCHA140401063510065841002331Disney A.N.T. Farm                                EP: 05                                                               6068607BCC                              
PROFAMCHA140401065841065911000030Episodic IDDI (HD) 106 New Ep Friday @ 7 (Mar31-Ap                                                                          150                                
PROFAMCHA140401065911065956000045Mattel                                                                                                                      150                                
PRCFAMCHA140401065956070010000014Family Flex Next (HD) SIU Zendaya (Aug 2013) (:13-                                                                          150                                
PGRFAMCHA140401070010072243002233Disney Shake It Up                                EP: 07                                                               6068707BCC                              
PROFAMCHA140401072243072258000015Win Lose or Draw (HD) CT Premieres Monday @ 7 (Mar                                                                          150                                
PROFAMCHA140401072258072348000050Parmalat                                                                                                                    150                                
PROFAMCHA140401072348072403000015Web Mickey Mouse Online Game (HD) Play games on fa                                                                          150                                
PROFAMCHA140401072403072453000050Walt Disney Studios Home Entertainment                                                                                      150                                
PRCFAMCHA140401072453072507000014Family Flex Next (HD) A&A Raini (Aug 2013) (:13-:1                                                                          150                                
PGRFAMCHA140401072507074838002331Disney Austin & Ally                              EP: 02                                                               6068807BCC                              
PROFAMCHA140401074838074908000030Episodic IDDI (HD) 106 New Ep Friday @ 7 (Mar31-Ap                                                                          150                                
PROFAMCHA140401074908074953000045Activision                                                                                                                  150                                
PRCFAMCHA140401074953075018000025Episodic Next Step (HD) 208 New Ep Friday @ 730 (M                                                                          150                                
PROFAMCHA140401075018075048000030DXD Supercharged Saturday (HD) Sat April 5 @ 530 (                                                                          150                                
PRCFAMCHA140401075048075101000013Family Flex Next (HD) Jessie - Jessie  (:12-:14) (                                                                          150                                
PGRFAMCHA140401075101081336002235Disney Jessie                                     EP: 15                                                               6068807BCC                              
PROFAMCHA140401081336081403000027Stunt IDDI Meet the Cast (HD) Friday Starting @ 53                                                                          150                                
PROFAMCHA140401081403081448000045Win Lose or Draw (HD) Premieres Monday April 7 @ 7                                                                          150                                
PROFAMCHA14040108144808153800005020th Century Fox                                                                                                            150                                
PROFAMCHA140401081538081613000035Sizzle (HD) Family Spring Sizzle (Mar18-Apr11)                                                                              150                                
PRCFAMCHA140401081613081623000010Family Bumper (HD) - Bobbleheads ID (Jan 2011)                                                                              150                                
PROFAMCHA140401081623081713000050Mattel                                                                                                                      150                                
PROFAMCHA140401081713081758000045Episodic LAM (HD) 114 New Ep Friday April 11 @ 630                                                                          150                                
PROFAMCHA140401081758081804000006WOWP (HD) ID - Jennifer Stone 1 "Coming Up Next" (                                                                          150                                
PGRFAMCHA140401081804084208002404Disney Wizards of Waverly Place                   EP: 30                                                               6068607BCC                              
PROFAMCHA140401084208084216000008D-JR Live Action ID - Tickity Toc - Coming Up (Mar                                                                          150                                
PROFAMCHA140401084216084241000025D-JR Live Action ID - #96 Piano (Sep2013)                                                                                   150                                
PROFAMCHA140401084241084335000054D-JR Promo - Lego Mall Tour (x2 a day) (Feb24-Apr1                                                                          150                                
PROFAMCHA140401084335084425000050The Walt Disney Company                                                                                                     150                                
PROFAMCHA140401084425084450000025D-JR Live Action ID - #28 Clapping Game (Sep2013)                                                                           150                                
PROFAMCHA140401084450084458000008D-JR Live Action ID - Tickity Toc - Now (Mar2013)                                                                           150                                
PROFAMCHA140401084458084508000010D-JR - Hero Flex ID - Yellow (:06-:10) (Feb2014)                                                                            150                                
PGRFAMCHA140401084508085623001115Tickety Toc                                       EP: 50                                                               3068605ACC                              
PGRFAMCHA140401085623090739001116Tickety Toc                                       EP: 51                                                               3068605ACC                              
PROFAMCHA140401090739090747000008D-JR Live Action ID - Little Einsteins - Coming Up                                                                          150                                
PROFAMCHA140401090747090812000025D-JR Live Action ID - #8 Reading Book/Quiet Time (                                                                          150                                
PROFAMCHA140401090812090924000112D-JR OOB - Tripple Rella Saturday April 5 @ 9AM (M                                                                          150                                
PROFAMCHA140401090924091009000045D-JR OOB - Sherriff 116 - New Episode April 6 @ 11                                                                          150                                
PROFAMCHA140401091009091034000025D-JR Live Action ID - #12 Feed Goldfish (May2012)                                                                           150                                
PROFAMCHA140401091034091042000008D-JR Live Action ID - Little Einsteins - Now (Nov2                                                                          150                                
PROFAMCHA140401091042091057000015D-JR - Seasonal ID - Spring (Mar 1-May 31)                                                                                  150                                
PGRFAMCHA140401091057093458002401Disney's Little Einsteins                         EP: 18                                                               6068605ACC                              
PROFAMCHA140401093458093505000007D-JR Live Action ID - Handy Manny - Coming Up (May                                                                          150                                
PROFAMCHA140401093505093530000025D-JR Live Action ID - #34 Hide N Seek (Sep2013)                                                                             150                                
PROFAMCHA140401093530093624000054D-JR Promo - Lego Mall Tour (x2 a day) (Feb24-Apr1                                                                          150                                
PROFAMCHA140401093624093649000025D-JR Live Action ID - #51 Chores Board (Sep2013)                                                                            150                                
PROFAMCHA140401093649093656000007D-JR Live Action ID - Handy Manny - Now (May2012)                                                                           150                                
PROFAMCHA140401093656093706000010D-JR - Hero Flex ID - Purple (:06-:10) (Feb2014)                                                                            150                                
PGRFAMCHA140401093706100112002406Handy Manny                                       EP: 23                                                               6068605ACC                              
PROFAMCHA140401100112100120000008D-JR Live Action ID - Jake & the Never Land Pirate                                                                          150                                
PROFAMCHA140401100120100145000025D-JR Live Action ID - #39 Treasure Hunt (Sep2013)                                                                           150                                
PROFAMCHA140401100145100234000049D-JR Promo - Strawberry Shortcake - Get More on th                                                                          150                                
PROFAMCHA140401100234100324000050Feld Entertainment                                                                                                          150                                
PROFAMCHA140401100324100349000025D-JR Live Action ID - # Learning Hot and Cold (Oct                                                                          150                                
PROFAMCHA140401100349100356000007D-JR Live Action ID - Jake & the Never Land Pirate                                                                          150                                
PROFAMCHA140401100356100411000015D-JR - Daily ID - Tuesday (Feb2014)                                                                                         150                                
PGRFAMCHA140401100411102817002406Disney Jake and the Never Land Pirates            EP: 09                                                               6068605ACC                              
PROFAMCHA140401102817102825000008D-JR Live Action ID - Sofia the First - Coming Up                                                                           150                                
PROFAMCHA140401102825102850000025D-JR Live Action ID - #67 Play Dressup (Sep2013)                                                                            150                                
PROFAMCHA140401102850102935000045D-JR OOB - Sherriff 116 - New Episode April 6 @ 11                                                                          150                                
PROFAMCHA140401102935103000000025D-JR Live Action ID - #65 Putting Toys Away (Sept2                                                                          150                                
PROFAMCHA140401103000103008000008D-JR Live Action ID - Sofia the First - Now (Jan20                                                                          150                                
PROFAMCHA140401103008103018000010D-JR - Hero Flex ID - Green (:06-:10) (Feb2014)                                                                             150                                
PGRFAMCHA140401103018105221002203Disney Sofia the First                            EP: 09                                                               6068605ACC                              
PROFAMCHA140401105221105236000015Win Lose or Draw (HD) CT Premieres Monday @ 7 (Mar                                                                          150                                
PROFAMCHA140401105236105251000015ANT Farm (HD) Refresh CT - Coming Up Next (April 2                                                                          150                                
PRCFAMCHA140401105251105329000038Web Next Step (HD) S2 Online Promo (Mar2014)                                                                                150                                
PROFAMCHA14040110532910541900005020th Century Fox                                                                                                            150                                
PGRFAMCHA140401105419105821000402MV Non Disney (HD) Alli Simpson - Notice Me (Feb20                                                                     60685120CC                              
PRCFAMCHA140401105821105834000013Family Bumper (HD) - Drums ID (Jan 2011)                                                                                    150                                
PROFAMCHA140401105834105904000030Episodic DWAB (HD) 213 New Ep Friday April 11 @ 6                                                                           150                                
PROFAMCHA140401105904105937000033ANT Farm (HD) Refresh - Coming Up Next (Jun2013)                                                                            150                                
PROFAMCHA140401105937110007000030Episodic IDDI (HD) 106 New Ep Friday @ 7 (Mar31-Ap                                                                          150                                
PGRFAMCHA140401110007112138002131Disney A.N.T. Farm                                EP: 11                                                               6068607BCC                              
PROFAMCHA140401112138112205000027Stunt IDDI Meet the Cast (HD) Friday Starting @ 53                                                                          150                                
PRCFAMCHA140401112205112219000014Family Flex Next (HD) Jessie - Emma (:12-:14) (Mar                                                                          150                                
PRCFAMCHA140401112219112244000025Episodic Next Step (HD) 208 New Ep Friday @ 730 (M                                                                          150                                
PGRFAMCHA140401112244112631000347MV Universal (HD) John Newman - Love Me Again (Jan                                                                     10615120CC                              
PROFAMCHA140401112631112716000045Activision                                                                                                                  150                                
PRCFAMCHA140401112716112743000027Family Bumper Flex (HD) Flex ID - Austin & Ally (F                                                                          150                                
PROFAMCHA140401112743112855000112D-JR OOB - Tripple Rella Saturday April 5 @ 9AM (M                                                                          150                                
PRCFAMCHA140401112855112921000026Jessie (HD) Clip Promo - Coming Up Next (Oct2013)                                                                           150                                
PROFAMCHA140401112921113006000045Episodic LAM (HD) 114 New Ep Friday April 11 @ 630                                                                          150                                
PGRFAMCHA140401113006115240002234Disney Jessie                                     EP: 03                                                               6068807BCC                              
PGRFAMCHA140401115240115526000246MV Disney (HD) Sabrina Carpenter-Can't Blame A Gir                                                                     10615120                                
PROFAMCHA140401115526115604000038Wingin It (HD) Refresh Promo - Coming Up Next (Apr                                                                          150                                
PROFAMCHA140401115604115634000030DXD Supercharged Saturday (HD) Sat April 5 @ 530 (                                                                          150                                
PROFAMCHA140401115634115719000045Win Lose or Draw (HD) Premieres Monday April 7 @ 7                                                                          150                                
PROFAMCHA140401115719115809000050Parmalat                                                                                                                    150                                
PRCFAMCHA140401115809115830000021Family Bumper Flex (HD) Trampoline (:15-:21) (Mar2                                                                          150                                
PROFAMCHA140401115830115840000010Boston Pizza                                                                                                                150                                
PROFAMCHA140401115840115910000030Episodic DWAB (HD) 213 New Ep Friday April 11 @ 6                                                                           150                                
PROFAMCHA140401115910115948000038Wingin It (HD) Refresh Promo - Coming Up Next (Apr                                                                          150                                
PROFAMCHA140401115948120018000030Episodic IDDI (HD) 106 New Ep Friday @ 7 (Mar31-Ap                                                                          150                                
PGRFAMCHA140401120018122250002232Wingin' It                                        EP: 11                                                        C32727 1065607ACD                              
PROFAMCHA140401122250122317000027Stunt IDDI Meet the Cast (HD) Friday Starting @ 53                                                                          150                                
PROFAMCHA140401122317122323000006WOWP (HD) ID - Jennifer Stone 2 "Coming Up Next" (                                                                          150                                
PGRFAMCHA140401122323122657000334MV Universal (HD) Jess Moskaluke - Catch Me If You                                                                     10615120CC                              
PROFAMCHA140401122657122747000050Mattel                                                                                                                      150                                
PROFAMCHA140401122747122832000045D-JR OOB - Sherriff 116 - New Episode April 6 @ 11                                                                          150                                
PRCFAMCHA140401122832122847000015Family Bumper (HD) - Hot Potato ID (Jan 2011)                                                                               150                                
PROFAMCHA140401122847122932000045Episodic LAM (HD) 114 New Ep Friday April 11 @ 630                                                                          150                                
PROFAMCHA140401122932122951000019WOWP (HD) Clip Bad Time - Coming Up Next (April 20                                                                          150                                
PRCFAMCHA140401122951123016000025Episodic Next Step (HD) 208 New Ep Friday @ 730 (M                                                                          150                                
PGRFAMCHA140401123016125332002316Disney Wizards of Waverly Place                   EP: 05                                                               6068507BCC                              
PROFAMCHA140401125332125402000030Episodic IDDI (HD) 106 New Ep Friday @ 7 (Mar31-Ap                                                                          150                                
PROFAMCHA140401125402125425000023WOWP (HD) Harper - Coming Up Next (April 2013)                                                                              150                                
PGRFAMCHA140401125425125759000334MV Non Disney (HD) Cody Simpson ft Ziggy Marley -                                                                      10615120CC                              
PROFAMCHA140401125759125844000045Mattel                                                                                                                      150                                
PROFAMCHA140401125844125919000035Sizzle (HD) Family Spring Sizzle (Mar18-Apr11)                                                                              150                                
PRCFAMCHA140401125919125935000016Family Bumper Flex (HD) Flex ID - Jessie ID (:15-:                                                                          150                                
PROFAMCHA140401125935130005000030Win Lose or Draw (HD) Premise CT - Premieres Monda                                                                          150                                
PROFAMCHA140401130005130011000006WOWP (HD) ID - Jennifer Stone 1 "Coming Up Next" (                                                                          150                                
PGRFAMCHA140401130011132416002405Disney Wizards of Waverly Place                   EP: 30                                                               6068607BCC                              
PROFAMCHA140401132416132443000027Stunt IDDI Meet the Cast (HD) Friday Starting @ 53                                                                          150                                
PROFAMCHA140401132443132508000025GLC Promo 1 (HD) Coming Up Next (Sep2013)                                                                                   150                                
PROFAMCHA140401132508132538000030Episodic DWAB (HD) 213 New Ep Friday April 11 @ 6                                                                           150                                
PROFAMCHA140401132538132623000045Activision                                                                                                                  150                                
PROFAMCHA140401132623132735000112D-JR OOB - Tripple Rella Saturday April 5 @ 9AM (M                                                                          150                                
PRCFAMCHA140401132735132756000021Family Bumper Flex (HD) Longboard (:19-:21) (Mar20                                                                          150                                
PGRFAMCHA140401132756132941000145ME (HD) Muppets Most Wanted Now Playing (Mar21-Apr                                                                     10615120CC                              
PROFAMCHA140401132941132947000006GLC (HD) ID - Bridget Mendler 4 "Coming Up Next" (                                                                          150                                
PRCFAMCHA140401132947133012000025Episodic Next Step (HD) 208 New Ep Friday @ 730 (M                                                                          150                                
PGRFAMCHA140401133012135245002233Good Luck Charlie                                 EP: 13                                                               6068707BCC                              
PROFAMCHA140401135245135315000030Episodic IDDI (HD) 106 New Ep Friday @ 7 (Mar31-Ap                                                                          150                                
PROFAMCHA140401135315135334000019GLC Promo 2 (HD) Coming Up Next (Sep2013)                                                                                   150                                
PGRFAMCHA140401135334135731000357MV Disney (HD) R5 - Forget About You (w/ concert L                                                                     60685120CC                              
PROFAMCHA140401135731135821000050Walt Disney Studios Home Entertainment                                                                                      150                                
PROFAMCHA140401135821135906000045WOY (HD) Sylvia - Check Family.ca for showtimes (F                                                                          150                                
PRCFAMCHA140401135906135914000008Family Bumper (HD) - Origami ID (Jan 2011)                                                                                  150                                
PROFAMCHA140401135914135959000045Episodic LAM (HD) 114 New Ep Friday April 11 @ 630                                                                          150                                
PROFAMCHA140401135959140004000005GLC (HD) ID - Jason Dolley 3 "Coming Up Next" (gen                                                                          150                                
PROFAMCHA140401140004140019000015Win Lose or Draw (HD) CT Premieres Monday @ 7 (Mar                                                                          150                                
PGRFAMCHA140401140019142220002201Good Luck Charlie                                 EP: 14                                                               6068707BCC                              
PROFAMCHA140401142220142247000027Stunt IDDI Meet the Cast (HD) Friday Starting @ 53                                                                          150                                
PRCFAMCHA140401142247142302000015Family Flex Next (HD) SIU Zendaya (Aug 2013) (:13-                                                                          150                                
PROFAMCHA140401142302142332000030Episodic DWAB (HD) 213 New Ep Friday April 11 @ 6                                                                           150                                
PGRFAMCHA140401142332142411000039SYN (HD) Jungle Book w/ DWAB cast - Parrot (Feb21-                                                                     10615120CC                              
PROFAMCHA140401142411142456000045Mattel                                                                                                                      150                                
PGRFAMCHA140401142456142810000314MV Non Disney (HD) Brendon & Savannah - Hands Up (                                                                     10615120CC                              
PRCFAMCHA140401142810142825000015Family Bumper Flex (HD) Flex ID - Music ID (:14-:1                                                                          150                                
PROFAMCHA140401142825142910000045D-JR OOB - Sherriff 116 - New Episode April 6 @ 11                                                                          150                                
PROFAMCHA140401142910142940000030Shake It Up (HD) Flynn Sell - Coming Up Next (Jun2                                                                          150                                
PRCFAMCHA140401142940143005000025Episodic Next Step (HD) 208 New Ep Friday @ 730 (M                                                                          150                                
PGRFAMCHA140401143005145138002133Disney Shake It Up                                EP: 14                                                               6068707BCC                              
PRCFAMCHA140401145138145203000025Episodic Next Step (HD) 208 New Ep Friday @ 730 (M                                                                          150                                
PROFAMCHA140401145203145219000016Shake It Up (HD) Refresh CD - Coming Up Next (Apri                                                                          150                                
PROFAMCHA140401145219145249000030DXD Supercharged Saturday (HD) Sat April 5 @ 530 (                                                                          150                                
PGRFAMCHA140401145249145346000057SYN (HD) Olaf's Snow Jamz (Mar26-May11)                                                                                10615120CC                              
PROFAMCHA140401145346145436000050Parmalat                                                                                                                    150                                
PGRFAMCHA140401145436145810000334MV Universal (HD) Serena Ryder - Fall (Jan17-Apr6)                                                                     10615120CC                              
PRCFAMCHA140401145810145831000021Family Bumper Flex (HD) Garage Band (:17-:21) (Nov                                                                          150                                
PROFAMCHA140401145831145916000045Win Lose or Draw (HD) Premieres Monday April 7 @ 7                                                                          150                                
PRCFAMCHA140401145916145931000015Family Flex Next (HD) SIU Zendaya (Aug 2013) (:13-                                                                          150                                
PROFAMCHA140401145931150001000030Episodic IDDI (HD) 106 New Ep Friday @ 7 (Mar31-Ap                                                                          150                                
PGRFAMCHA140401150001152235002234Disney Shake It Up                                EP: 07                                                               6068707BCC                              
PROFAMCHA140401152235152302000027Stunt IDDI Meet the Cast (HD) Friday Starting @ 53                                                                          150                                
PROFAMCHA140401152302152317000015ANT Farm (HD) Refresh CT - Coming Up Next (April 2                                                                          150                                
PGRFAMCHA140401152317152532000215Short GF Dipper's Guide (HD) 102 The Mailbox (Nov9                                                                     60688120                                
PROFAMCHA140401152532152623000051Gravity Falls (HD) Refresh - Check Out Family.ca f                                                                          150                                
PROFAMCHA140401152623152713000050Parmalat                                                                                                                    150                                
PRCFAMCHA140401152713152734000021Family Bumper Flex (HD) Dog Park (:19-:21) (Mar201                                                                          150                                
PROFAMCHA140401152734152819000045Activision                                                                                                                  150                                
PRCFAMCHA140401152819152857000038Web Next Step (HD) S2 Online Promo (Mar2014)                                                                                150                                
PROFAMCHA140401152857152930000033ANT Farm (HD) Refresh - Coming Up Next (Jun2013)                                                                            150                                
PROFAMCHA140401152930153015000045Episodic LAM (HD) 114 New Ep Friday April 11 @ 630                                                                          150                                
PGRFAMCHA140401153015155346002331Disney A.N.T. Farm                                EP: 05                                                               6068607BCC                              
PROFAMCHA140401155346155416000030Episodic IDDI (HD) 106 New Ep Friday @ 7 (Mar31-Ap                                                                          150                                
PROFAMCHA140401155416155433000017PAF (HD) Disney Refresh CD - Coming Up Next (April                                                                          150                                
PROFAMCHA140401155433155503000030Win Lose or Draw (HD) Premise CT - Premieres Monda                                                                          150                                
PROFAMCHA140401155503155548000045Activision                                                                                                                  150                                
PROFAMCHA140401155548155623000035Sizzle (HD) Family Spring Sizzle (Mar18-Apr11)                                                                              150                                
PRCFAMCHA140401155623155636000013Family Bumper Flex (HD) Flex ID - Really Me (Apr20                                                                          150                                
PGRFAMCHA140401155636155821000145Copper Top Flop Show (HD) 110 S'Up With Debby Ryan                                                                     60688120                                
PROFAMCHA140401155821155831000010Boston Pizza                                                                                                                150                                
PROFAMCHA140401155831155901000030Episodic DWAB (HD) 213 New Ep Friday April 11 @ 6                                                                           150                                
PROFAMCHA140401155901155946000045PAF Secret Agent (HD) Coming Up Next (Jan2014)                                                                              150                                
PRCFAMCHA140401155946160011000025Episodic Next Step (HD) 208 New Ep Friday @ 730 (M                                                                          150                                
PGRFAMCHA140401160011162242002231Disney Phineas & Ferb                             EP: 07                                                               6068607ECC                              
PROFAMCHA140401162242162312000030DXD PAF (HD) Underwear - Get More PAF on DXD (Mar2                                                                          150                                
PRCFAMCHA140401162312162327000015Family Flex Next (HD) DWAB Ghannelius (Aug 2013) (                                                                          150                                
PGRFAMCHA140401162327162613000246MV Disney (HD) Sabrina Carpenter-Can't Blame A Gir                                                                     10615120                                
PROFAMCHA14040116261316270300005020th Century Fox                                                                                                            150                                
PROFAMCHA140401162703162748000045WOY (HD) Sylvia - Check Family.ca for showtimes (F                                                                          150                                
PRCFAMCHA140401162748162806000018Family Bumper Flex (HD) Flip Book (:15-:18) (Nov 2                                                                          150                                
PROFAMCHA140401162806162821000015Web GLC Online Game (HD) Play Games at family.ca (                                                                          150                                
PROFAMCHA140401162821162911000050Walt Disney Studios Home Entertainment                                                                                      150                                
PROFAMCHA140401162911162946000035DWAB (HD) Refresh - Stan Dating Video - Coming Up                                                                           150                                
PROFAMCHA140401162946163013000027Stunt IDDI Meet the Cast (HD) Friday Starting @ 53                                                                          150                                
PGRFAMCHA140401163013165216002203Disney Dog With A Blog                            EP: 18                                                               6068807BCC                              
PROFAMCHA140401165216165246000030Episodic IDDI (HD) 106 New Ep Friday @ 7 (Mar31-Ap                                                                          150                                
PRCFAMCHA140401165246165259000013Family Flex Next (HD) Jessie - Emma (:12-:14) (Mar                                                                          150                                
PGRFAMCHA140401165259165701000402MV Non Disney (HD) Alli Simpson - Notice Me (Feb20                                                                     60685120CC                              
PROFAMCHA140401165701165746000045Mattel                                                                                                                      150                                
PROFAMCHA140401165746165801000015Web SIU Online Game (HD) Play games on family.ca (                                                                          150                                
PRCFAMCHA140401165801165810000009Family Bumper (HD) - Dragonflies ID (Jan 2011)                                                                              150                                
PROFAMCHA14040116581016590000005020th Century Fox                                                                                                            150                                
PROFAMCHA140401165900165915000015Win Lose or Draw (HD) CT Premieres Monday @ 7 (Mar                                                                          150                                
PROFAMCHA140401165915165945000030Jessie (HD) Happy Place - Coming Up Next (Apr2013)                                                                          150                                
PRCFAMCHA140401165945170010000025Episodic Next Step (HD) 208 New Ep Friday @ 730 (M                                                                          150                                
PGRFAMCHA140401170010172243002233Disney Jessie                                     EP: 15                                                               6068807BCC                              
PROFAMCHA140401172243172310000027Stunt IDDI Meet the Cast (HD) Friday Starting @ 53                                                                          150                                
PROFAMCHA140401172310172325000015Jessie (HD) Refresh CD - Coming Up Next (Apr2013)                                                                           150                                
PGRFAMCHA140401172325172659000334MV Universal (HD) Jess Moskaluke - Catch Me If You                                                                     10615120CC                              
PROFAMCHA140401172659172749000050Mattel                                                                                                                      150                                
PRCFAMCHA140401172749172819000030Web Gravity Falls Online Game (HD) Play games on f                                                                          150                                
PRCFAMCHA140401172819172835000016Family Bumper Flex (HD) Flex ID - ANT Farm (:16-:2                                                                          150                                
PROFAMCHA140401172835172845000010Boston Pizza                                                                                                                150                                
PROFAMCHA140401172845172930000045Episodic LAM (HD) 114 New Ep Friday April 11 @ 630                                                                          150                                
PRCFAMCHA140401172930172943000013Family Flex Next (HD) Jessie - Jessie  (:12-:14) (                                                                          150                                
PROFAMCHA140401172943173013000030DXD Supercharged Saturday (HD) Sat April 5 @ 530 (                                                                          150                                
PGRFAMCHA140401173013175247002234Disney Jessie                                     EP: 03                                                               6068807BCC                              
PROFAMCHA140401175247175317000030Episodic IDDI (HD) 106 New Ep Friday @ 7 (Mar31-Ap                                                                          150                                
PROFAMCHA140401175317175400000043Austin & Ally (HD) Bud Sell Refresh - Coming Up Ne                                                                          150                                
PROFAMCHA140401175400175445000045Win Lose or Draw (HD) Premieres Monday April 7 @ 7                                                                          150                                
PROFAMCHA140401175445175500000015Web Mickey Mouse Online Game (HD) Play games on fa                                                                          150                                
PROFAMCHA14040117550017555000005020th Century Fox                                                                                                            150                                
PGRFAMCHA140401175550175735000145ME (HD) Muppets Most Wanted Now Playing (Mar21-Apr                                                                     10615120CC                              
PRCFAMCHA140401175735175757000022Family Bumper Flex (HD) Fifteen Logos (:21-:22) (N                                                                          150                                
PROFAMCHA140401175757175842000045WOY (HD) Sylvia - Check Family.ca for showtimes (F                                                                          150                                
PROFAMCHA140401175842175932000050Parmalat                                                                                                                    150                                
PRCFAMCHA140401175932175945000013Family Flex Next (HD) A&A Raini (Aug 2013) (:13-:1                                                                          150                                
PRCFAMCHA140401175945180010000025Episodic Next Step (HD) 208 New Ep Friday @ 730 (M                                                                          150                                
PGRFAMCHA140401180010182342002332Disney Austin & Ally                              EP: 02                                                               6068807BCC                              
PROFAMCHA140401182342182409000027Stunt IDDI Meet the Cast (HD) Friday Starting @ 53                                                                          150                                
PRCFAMCHA140401182409182424000015Family Flex Next (HD) A&A Raini (Aug 2013) (:13-:1                                                                          150                                
PGRFAMCHA140401182424182553000129MV Disney (HD) R5 - Forget About You (w/ concert L                                                                     60685120CC                              
PROFAMCHA140401182553182643000050Walt Disney Studios Home Entertainment                                                                                      150                                
PRCFAMCHA140401182643182721000038Web Next Step (HD) S2 Online Promo (Mar2014)                                                                                150                                
PRCFAMCHA140401182721182734000013Family Bumper (HD) - Drums ID (Jan 2011)                                                                                    150                                
PGRFAMCHA140401182734182906000132SYN (HD) Frozen - All About the Music (Mar26-May11                                                                     10215120CC                              
PROFAMCHA140401182906182949000043Austin & Ally (HD) Bud Sell Refresh - Coming Up Ne                                                                          150                                
PROFAMCHA140401182949183019000030Episodic DWAB (HD) 213 New Ep Friday April 11 @ 6                                                                           150                                
PGRFAMCHA140401183019185320002301Disney Austin & Ally                              EP: 09                                                               6068807BCC                              
PROFAMCHA140401185320185350000030Episodic IDDI (HD) 106 New Ep Friday @ 7 (Mar31-Ap                                                                          150                                
PRCFAMCHA140401185350185405000015Family Flex Next (HD) SIU Zendaya (Aug 2013) (:13-                                                                          150                                
PGRFAMCHA140401185405185659000254MV Non Disney (HD) Jordan McIntosh - Grew Up In A                                                                      10615120                                
PROFAMCHA140401185659185749000050Parmalat                                                                                                                    150                                
PRCFAMCHA140401185749185801000012Family Bumper Flex (HD) Flex ID - WUW (May2012) (:                                                                          150                                
PROFAMCHA14040118580118585100005020th Century Fox                                                                                                            150                                
PROFAMCHA140401185851185921000030Win Lose or Draw (HD) Premise CT - Premieres Monda                                                                          150                                
PROFAMCHA140401185921185937000016Shake It Up (HD) Refresh CD - Coming Up Next (Apri                                                                          150                                
PRCFAMCHA140401185937190002000025Episodic Next Step (HD) 208 New Ep Friday @ 730 (M                                                                          150                                
PGRFAMCHA140401190002192236002234Disney Shake It Up                                EP: 07                                                               6068707BCC                              
PROFAMCHA140401192236192303000027Stunt IDDI Meet the Cast (HD) Friday Starting @ 53                                                                          150                                
PROFAMCHA140401192303192308000005GLC (HD) ID - Bradley Perry 5 "Coming Up Next" (ge                                                                          150                                
PGRFAMCHA140401192308192642000334MV Non Disney (HD) Cody Simpson ft Ziggy Marley -                                                                      10615120CC                              
PROFAMCHA14040119264219273200005020th Century Fox                                                                                                            150                                
PRCFAMCHA140401192732192753000021Family Bumper Flex (HD) Dog Park (:19-:21) (Mar201                                                                          150                                
PGRFAMCHA140401192753192938000145Copper Top Flop Show (HD) 111 S'Up With Debby Ryan                                                                     60688120                                
PROFAMCHA140401192938193008000030GLC Promo 3 (HD) Coming Up Next (Sep2013)                                                                                   150                                
PGRFAMCHA140401193008195241002233Good Luck Charlie                                 EP: 13                                                               6068707BCC                              
PGRFAMCHA140401195241195527000246MV Disney (HD) Sabrina Carpenter-Can't Blame A Gir                                                                     10615120                                
PRCFAMCHA140401195527195601000034GLC Marching Band (HD) Coming Up Next (Nov2013)                                                                             150                                
PRCFAMCHA140401195601195626000025Episodic Next Step (HD) 208 New Ep Friday @ 730 (M                                                                          150                                
PROFAMCHA14040119562619571600005020th Century Fox                                                                                                            150                                
PROFAMCHA140401195716195746000030DXD Supercharged Saturday (HD) Sat April 5 @ 530 (                                                                          150                                
PROFAMCHA140401195746195821000035Sizzle (HD) Family Spring Sizzle (Mar18-Apr11)                                                                              150                                
PROFAMCHA140401195821195836000015Win Lose or Draw (HD) CT Premieres Monday @ 7 (Mar                                                                          150                                
PRCFAMCHA140401195836195851000015Family Bumper (HD) - Hot Potato ID (Jan 2011)                                                                               150                                
PROFAMCHA140401195851195936000045Episodic LAM (HD) 114 New Ep Friday April 11 @ 630                                                                          150                                
PROFAMCHA140401195936195942000006GLC (HD) ID - Bridget Mendler 6 "Coming Up Next" (                                                                          150                                
PROFAMCHA140401195942200012000030Episodic IDDI (HD) 106 New Ep Friday @ 7 (Mar31-Ap                                                                          150                                
PGRFAMCHA140401200012202213002201Good Luck Charlie                                 EP: 14                                                               6068707BCC                              
PROFAMCHA140401202213202240000027Stunt IDDI Meet the Cast (HD) Friday Starting @ 53                                                                          150                                
PROFAMCHA140401202240202313000033ANT Farm (HD) Refresh - Coming Up Next (Jun2013)                                                                            150                                
PGRFAMCHA140401202313202645000332MV Universal (HD) Colbie Caillat - Hold On (Feb14-                                                                     10615120CC                              
PROFAMCHA140401202645202655000010Boston Pizza                                                                                                                150                                
PRCFAMCHA140401202655202725000030Family Bumper Flex (HD) Flex ID - Austin & Ally (F                                                                          150                                
PGRFAMCHA140401202725202916000151SYN (HD) Magic of Healthy Living - Try It! Newsies                                                                     10615120CC                              
PROFAMCHA140401202916202931000015ANT Farm (HD) Refresh CT - Coming Up Next (April 2                                                                          150                                
PROFAMCHA140401202931203001000030Episodic DWAB (HD) 213 New Ep Friday April 11 @ 6                                                                           150                                
PGRFAMCHA140401203001205134002133Disney A.N.T. Farm                                EP: 11                                                               6068607BCC                              
PROFAMCHA140401205134205204000030Episodic IDDI (HD) 106 New Ep Friday @ 7 (Mar31-Ap                                                                          150                                
PROFAMCHA140401205204205242000038Wingin It (HD) Refresh Promo - Coming Up Next (Apr                                                                          150                                
PROFAMCHA140401205242205312000030DXD Supercharged Saturday (HD) Sat April 5 @ 530 (                                                                          150                                
PROFAMCHA140401205312205436000124MV Lift (HD) SIU Zendaya - Remember Me (Nov2013)                                                                            150                                
PROFAMCHA140401205436205521000045Activision                                                                                                                  150                                
PROFAMCHA140401205521205606000045WOY (HD) Sylvia - Check Family.ca for showtimes (F                                                                          150                                
PRCFAMCHA140401205606205627000021Family Bumper Flex (HD) Break Dance (:18-:21) (Mar                                                                          150                                
PGRFAMCHA140401205627205812000145ME (HD) Muppets Most Wanted Now Playing (Mar21-Apr                                                                     10615120CC                              
PROFAMCHA140401205812205857000045Win Lose or Draw (HD) Premieres Monday April 7 @ 7                                                                          150                                
PROFAMCHA140401205857205935000038Wingin It (HD) Refresh Promo - Coming Up Next (Apr                                                                          150                                
PRCFAMCHA140401205935210000000025Episodic Next Step (HD) 208 New Ep Friday @ 730 (M                                                                          150                                
PGRFAMCHA140401210000212230002230Wingin' It                                        EP: 10                                                        C35822 1055607ACD3                             
PROFAMCHA140401212230212257000027Stunt IDDI Meet the Cast (HD) Friday Starting @ 53                                                                          150                                
PRCFAMCHA140401212257212326000029Next Step Dancing Is (HD) Eldon - Coming Up Next (                                                                          150                                
PGRFAMCHA140401212326212640000314MV Universal (HD) Nikki Yanofsky - Something New (                                                                     10615120CC                              
PRCFAMCHA140401212640212652000012Family Bumper Flex (HD) Flex ID - Wingin It (Apr20                                                                          150                                
PROFAMCHA140401212652212735000043Austin & Ally (HD) Bud Sell Refresh - Check Family                                                                          150                                
PGRFAMCHA140401212735212845000110SYN (HD) Jungle Book w/ DWAB cast - Elephant (Feb2                                                                     10615120CC                              
PRCFAMCHA140401212845212927000042Next Step Dancing Is (HD) Emily - Coming Up Next (                                                                          150                                
PROFAMCHA140401212927213012000045Episodic LAM (HD) 114 New Ep Friday April 11 @ 630                                                                          150                                
PGRFAMCHA140401213012215257002245The Next Step                                     EP: 14                                                        C36838 1055607ACD3                             
PRCFAMCHA140401215257215322000025Episodic Next Step (HD) 208 New Ep Friday @ 730 (M                                                                          150                                
PROFAMCHA140401215322215327000005GLC (HD) ID - Jason Dolley 2 - "Coming Up Next" (g                                                                          150                                
PGRFAMCHA140401215327215724000357MV Disney (HD) R5 - Forget About You (w/ concert L                                                                     60685120CC                              
PROFAMCHA14040121572421581400005020th Century Fox                                                                                                            150                                
PRCFAMCHA140401215814215831000017Family Bumper Flex (HD) Flex ID - ANT Farm (:16-:2                                                                          150                                
PROFAMCHA140401215831215841000010Boston Pizza                                                                                                                150                                
PROFAMCHA140401215841215911000030Win Lose or Draw (HD) Premise CT - Premieres Monda                                                                          150                                
PROFAMCHA140401215911215930000019GLC Promo 2 (HD) Coming Up Next (Sep2013)                                                                                   150                                
PROFAMCHA140401215930220000000030Episodic IDDI (HD) 106 New Ep Friday @ 7 (Mar31-Ap                                                                          150                                
PGRFAMCHA140401220000222231002231Good Luck Charlie                                 EP: 13                                                               6068707BCC                              
PROFAMCHA140401222231222258000027Stunt IDDI Meet the Cast (HD) Friday Starting @ 53                                                                          150                                
PROFAMCHA140401222258222328000030Jessie (HD) Happy Place - Coming Up Next (Apr2013)                                                                          150                                
PRCFAMCHA140401222328222406000038Web Next Step (HD) S2 Online Promo (Mar2014)                                                                                150                                
PGRFAMCHA140401222406222740000334MV Universal (HD) Serena Ryder - Fall (Jan17-Apr6)                                                                     10615120CC                              
PROFAMCHA140401222740222750000010Boston Pizza                                                                                                                150                                
PROFAMCHA140401222750222825000035Sizzle (HD) Family Spring Sizzle (Mar18-Apr11)                                                                              150                                
PRCFAMCHA140401222825222849000024Family Bumper Flex (HD) Bike Trails (:20-:24) (Mar                                                                          150                                
PROFAMCHA140401222849223001000112D-JR OOB - Tripple Rella Saturday April 5 @ 9AM (M                                                                          150                                
PRCFAMCHA140401223001223015000014Family Flex Next (HD) Jessie - Emma (:12-:14) (Mar                                                                          150                                
PGRFAMCHA140401223015225250002235Disney Jessie                                     EP: 15                                                               6068807BCC                              
PROFAMCHA140401225250225320000030Episodic IDDI (HD) 106 New Ep Friday @ 7 (Mar31-Ap                                                                          150                                
PROFAMCHA140401225320225326000006WOWP (HD) ID - Jennifer Stone 1 "Coming Up Next" (                                                                          150                                
PROFAMCHA140401225326225356000030DXD Supercharged Saturday (HD) Sat April 5 @ 530 (                                                                          150                                
PGRFAMCHA140401225356225730000334MV Universal (HD) Jess Moskaluke - Catch Me If You                                                                     10615120CC                              
PROFAMCHA140401225730225745000015Win Lose or Draw (HD) CT Premieres Monday @ 7 (Mar                                                                          150                                
PRCFAMCHA140401225745225755000010Family Bumper (HD) - Bobbleheads ID (Jan 2011)                                                                              150                                
PGRFAMCHA140401225755225852000057SYN (HD) Olaf's Snow Jamz (Mar26-May11)                                                                                10615120CC                              
PROFAMCHA140401225852225922000030Episodic DWAB (HD) 213 New Ep Friday April 11 @ 6                                                                           150                                
PROFAMCHA140401225922225945000023WOWP (HD) Harper - Coming Up Next (April 2013)                                                                              150                                
PRCFAMCHA140401225945230010000025Episodic Next Step (HD) 208 New Ep Friday @ 730 (M                                                                          150                                
PGRFAMCHA140401230010232326002316Disney Wizards of Waverly Place                   EP: 05                                                               6068507BCC                              
PROFAMCHA140401232326232353000027Stunt IDDI Meet the Cast (HD) Friday Starting @ 53                                                                          150                                
PGRFAMCHA140401232353232740000347MV Universal (HD) John Newman - Love Me Again (Jan                                                                     10615120CC                              
PROFAMCHA140401232740232825000045D-JR OOB - Sherriff 116 - New Episode April 6 @ 11                                                                          150                                
PGRFAMCHA140401232825232935000110SYN (HD) Jungle Book w/ DWAB cast - Tiger (Feb21-A                                                                     10615120CC                              
PROFAMCHA140401232935232950000015Web Jessie Online Game (HD) Play Games at family.c                                                                          150                                
PRCFAMCHA140401232950233000000010Family Bumper Flex (HD) Flex ID - Wingin It (Apr20                                                                          150                                
PGRFAMCHA140401233000235231002231Life with Derek                                   EP: 07                                                        C26822 1065607BCC                              
PROFAMCHA140401235231235301000030Episodic IDDI (HD) 106 New Ep Friday @ 7 (Mar31-Ap                                                                          150                                
PRCFAMCHA140401235301235326000025Episodic Next Step (HD) 208 New Ep Friday @ 730 (M                                                                          150                                
PGRFAMCHA140401235326235728000402MV Non Disney (HD) Alli Simpson - Notice Me (Feb20                                                                     60685120CC                              
PROFAMCHA140401235728235813000045Win Lose or Draw (HD) Premieres Monday April 7 @ 7                                                                          150                                
PROFAMCHA140401235813235858000045WOY (HD) Sylvia - Check Family.ca for showtimes (F                                                                          150                                
PROFAMCHA140401235858235943000045Episodic LAM (HD) 114 New Ep Friday April 11 @ 630                                                                          150                                
PRCFAMCHA140401235943000004000021Family Bumper Flex (HD) Trampoline (:15-:21) (Mar2                                                                          150                                
PGRFAMCHA140401000004002240002236The Latest Buzz                                   EP: 12                                                        C30362 1065607BCC                              
PROFAMCHA140401002240002307000027Stunt IDDI Meet the Cast (HD) Friday Starting @ 53                                                                          150                                
PGRFAMCHA140401002307002621000314MV Universal (HD) Nikki Yanofsky - Something New (                                                                     10615120CC                              
PRCFAMCHA140401002621002651000030Web FOD 2014 Refresh (HD) Family.ca (Mar2014) (2-3                                                                          150                                
PGRFAMCHA140401002651002836000145SYN (HD) NBT: Becky G Discovery (Mar26-Apr15)                                                                          10615120CC                              
PROFAMCHA140401002836002948000112D-JR OOB - Tripple Rella Saturday April 5 @ 9AM (M                                                                          150                                
PRCFAMCHA140401002948002957000009Family Bumper (HD) - Dragonflies ID (Jan 2011)                                                                              150                                
PGRFAMCHA140401002957005228002231Overruled!                                        EP: 04                                                        C28762 1065607ACC                              
PROFAMCHA140401005228005258000030Episodic IDDI (HD) 106 New Ep Friday @ 7 (Mar31-Ap                                                                          150                                
PRCFAMCHA140401005258005323000025Episodic Next Step (HD) 208 New Ep Friday @ 730 (M                                                                          150                                
PGRFAMCHA140401005323005655000332MV Universal (HD) Colbie Caillat - Hold On (Feb14-                                                                     10615120CC                              
PROFAMCHA140401005655005725000030DXD Supercharged Saturday (HD) Sat April 5 @ 530 (                                                                          150                                
PGRFAMCHA140401005725005849000124MV Disney (HD) Austin & Ally - Me & You (Mar5-Apr3                                                                     10615120CC                              
PROFAMCHA140401005849005919000030Win Lose or Draw (HD) Premise CT - Premieres Monda                                                                          150                                
PROFAMCHA140401005919005949000030Episodic DWAB (HD) 213 New Ep Friday April 11 @ 6                                                                           150                                
PRCFAMCHA140401005949010003000014Family Bumper Flex (HD) Flex ID - Really Me (Apr20                                                                          150                                
PGRFAMCHA140401010003012236002233DEBRA!                                            EP: 04                                                        C35763 1065607ACD                              
PRCFAMCHA140401012236012257000021Family Bumper Flex (HD) Longboard (:19-:21) (Mar20                                                                          150                                
PGRFAMCHA140401012257014559002302What's Up, Warthogs!                              EP: 14                                                        C32738 1065607BCC                              
PRCFAMCHA140401014559014612000013Family Bumper (HD) - Drums ID (Jan 2011)                                                                                    150                                
PGRFAMCHA140401014612021015002403Disney Wizards of Waverly Place                   EP: 30                                                               6068607BCC                              
PRCFAMCHA140401021015021033000018Family Bumper Flex (HD) Flex ID - Jessie ID (:15-:                                                                          150                                
PGRFAMCHA140401021033023305002232Really Me                                         EP: 12                                                        C35342 1065607ACD                              
PRCFAMCHA140401023305023326000021Family Bumper Flex (HD) Garage Band (:17-:21) (Nov                                                                          150                                
PGRFAMCHA140401023326025556002230Life with Derek                                   EP: 16                                                        C26822 1065607BCC                              
PRCFAMCHA140401025556025609000013Family Bumper (HD) - Drums ID (Jan 2011)                                                                                    150                                
PGRFAMCHA140401025609031811002202Slugterra                                         EP: 01                                                        A33763 1065607ACC                              
PRCFAMCHA140401031811031829000018Family Bumper Flex (HD) Flex ID - Music ID (:14-:1                                                                          150                                
PGRFAMCHA140401031829034101002232Overruled!                                        EP: 07                                                        C28762 1065607ACC                              
PRCFAMCHA140401034101034119000018Family Bumper Flex (HD) Flip Book (:15-:18) (Nov 2                                                                          150                                
PGRFAMCHA140401034119040355002236The Latest Buzz                                   EP: 06                                                        C30362 1065607BCC                              
PRCFAMCHA140401040355040403000008Family Bumper (HD) - Origami ID (Jan 2011)                                                                                  150                                
PGRFAMCHA140401040403042633002230Life with Derek                                   EP: 14                                                        C26679A1065607BCC                              
PROFAMCHA140401042633042745000112D-JR OOB - Tripple Rella Saturday April 5 @ 9AM (M                                                                          150                                
PROFAMCHA140401042745042810000025D-JR Promo - JATNP - Get more on the channel REV (                                                                          150                                
PROFAMCHA140401042810042904000054D-JR Promo - Lego Mall Tour (x2 a day) (Feb24-Apr1                                                                          150                                
PROFAMCHA140401042904042949000045D-JR OOB - Sherriff 116 - New Episode April 6 @ 11                                                                          150                                
PROFAMCHA140401042949042959000010D-JR - Hero Flex ID - Purple (:06-:10) (Feb2014)                                                                            150                                
OFFFAMCHA140401042959043000000001OFF AIR                                                                                                                                                        
PGRFAMCHA140402043000045231002231The Secret World of Benjamin Bear                 EP: 20                                                        C26066 1065607ECD                              
PROFAMCHA140402045231045238000007D-JR Live Action ID - Franny's Feet - Coming Up (M                                                                          150                                
PROFAMCHA140402045238045303000025D-JR Live Action ID - #11 Counting Goldfish (Sep20                                                                          150                                
PROFAMCHA140402045303045415000112D-JR OOB - Tripple Rella Saturday April 5 @ 9AM (M                                                                          150                                
PROFAMCHA140402045415045515000100D-JR Promo - Tickety Toc - Racing The Clock - Get                                                                           150                                
PROFAMCHA140402045515045540000025D-JR Live Action ID - #13 Make Bed (May2012)                                                                                150                                
PROFAMCHA140402045540045547000007D-JR Live Action ID - Franny's Feet - Now (May2012                                                                          150                                
PROFAMCHA140402045547045602000015D-JR - Seasonal ID - Spring (Mar 1-May 31)                                                                                  150                                
PGRFAMCHA140402045602051835002233Franny's Feet                                     EP: 48                                                        C31292 1065607ECC                              
PROFAMCHA140402051835051842000007D-JR Live Action ID - SWOBB - Coming Up (May2012)                                                                           150                                
PROFAMCHA140402051842051907000025D-JR Live Action ID - #28 Clapping Game (Sep2013)                                                                           150                                
PROFAMCHA140402051907051952000045D-JR OOB - Sherriff 116 - New Episode April 6 @ 11                                                                          150                                
PROFAMCHA140402051952052022000030D-JR Promo - Henry Hugglemonster - Get more HH  on                                                                          150                                
PROFAMCHA140402052022052047000025D-JR Live Action ID - #44 Fold Towels (Sept2012)                                                                            150                                
PROFAMCHA140402052047052054000007D-JR Live Action ID - SWOBB - Now (May2012)                                                                                 150                                
PROFAMCHA140402052054052104000010D-JR - Hero Flex ID - Green (:06-:10) (Feb2014)                                                                             150                                
PGRFAMCHA140402052104054335002231The Secret World of Benjamin Bear                 EP: 46                                                        C31763 1065607ECC                              
PROFAMCHA140402054335054342000007D-JR Live Action ID - Harry & His Dinosaurs - Comi                                                                          150                                
PROFAMCHA140402054342054407000025D-JR Live Action ID - #47 Making Breakfast (May201                                                                          150                                
PROFAMCHA140402054407054422000015D-JR - Daily ID - Wednesday (Feb2014)                                                                                       150                                
PROFAMCHA140402054422054447000025D-JR Live Action ID - #45 Sorting Socks (May2012)                                                                           150                                
PROFAMCHA140402054447054454000007D-JR Live Action ID - Harry & His Dinosaurs - Now                                                                           150                                
PGRFAMCHA140402054454060630002136Harry and His Bucket Full of Dinosaurs            EP: 16                                                        B05035 1065607ECC                              
PROFAMCHA140402060630060638000008D-JR Live Action ID - Stella & Sam - Coming Up (Ma                                                                          150                                
PROFAMCHA140402060638060703000025D-JR Live Action ID - #50 Feed Dog (Sep2013)                                                                                150                                
PROFAMCHA140402060703060748000045D-JR OOB - Sherriff 116 - New Episode April 6 @ 11                                                                          150                                
PROFAMCHA140402060748060840000052D-JR Promo - Doc McStuffins - Get more on the chan                                                                          150                                
PROFAMCHA140402060840060922000042D-JR Promo - Sofia The First - Get More Wknds @ 11                                                                          150                                
PROFAMCHA140402060922060947000025D-JR Live Action ID - #51 Chores Board (Sep2013)                                                                            150                                
PROFAMCHA140402060947060955000008D-JR Live Action ID - Stella & Sam - Now (Mar2013)                                                                          150                                
PROFAMCHA140402060955061005000010D-JR - Hero Flex ID - Purple (:06-:10) (Feb2014)                                                                            150                                
PGRFAMCHA140402061005063320002315Stella and Sam                                    EP: 04                                                        C32553 1065607ECD                              
PROFAMCHA140402063320063350000030Win Lose or Draw (HD) Premise CT - Premieres Monda                                                                          150                                
PRCFAMCHA140402063350063400000010Family Bumper Flex (HD) Flex ID - Wingin It (Apr20                                                                          150                                
PROFAMCHA140402063400063433000033ANT Farm (HD) Refresh - Coming Up Next (Jun2013)                                                                            150                                
PROFAMCHA140402063433063503000030Episodic IDDI (HD) 106 New Ep Friday @ 7 (Mar31-Ap                                                                          150                                
PGRFAMCHA140402063503065819002316Disney A.N.T. Farm                                EP: 08                                                               6068607BCC                              
PRCFAMCHA140402065819065844000025Episodic Next Step (HD) 208 New Ep Friday @ 730 (M                                                                          150                                
PROFAMCHA140402065844065859000015Web ANT Farm Online Game (HD) Play games on family                                                                          150                                
PROFAMCHA140402065859065949000050Mattel                                                                                                                      150                                
PRCFAMCHA140402065949070003000014Family Flex Next (HD) SIU Zendaya (Aug 2013) (:13-                                                                          150                                
PGRFAMCHA140402070003072236002233Disney Shake It Up                                EP: 08                                                               6068707BCC                              
PROFAMCHA140402072236072251000015Win Lose or Draw (HD) CT Premieres Monday @ 7 (Mar                                                                          150                                
PROFAMCHA140402072251072336000045Mattel                                                                                                                      150                                
PROFAMCHA140402072336072403000027Stunt IDDI Meet the Cast (HD) Friday Starting @ 53                                                                          150                                
PROFAMCHA14040207240307245300005020th Century Fox                                                                                                            150                                
PRCFAMCHA140402072453072506000013Family Flex Next (HD) A&A Raini (Aug 2013) (:13-:1                                                                          150                                
PGRFAMCHA140402072506074739002233Disney Austin & Ally                              EP: 03                                                               6068807BCC                              
PROFAMCHA140402074739074819000040Stunt A&A Get To Know (HD) Wednesday Apr 16 Starti                                                                          150                                
PRCFAMCHA140402074819074844000025Episodic Next Step (HD) 208 New Ep Friday @ 730 (M                                                                          150                                
PROFAMCHA140402074844074934000050Parmalat                                                                                                                    150                                
PROFAMCHA140402074934075004000030DXD Supercharged Saturday (HD) Sat April 5 @ 530 (                                                                          150                                
PROFAMCHA140402075004075054000050Walt Disney Studios Home Entertainment                                                                                      150                                
PRCFAMCHA140402075054075106000012Family Flex Next (HD) Jessie - Jessie  (:12-:14) (                                                                          150                                
PGRFAMCHA140402075106081340002234Disney Jessie                                     EP: 24                                                               6068807BCC                              
PROFAMCHA140402081340081355000015Win Lose or Draw (HD) CT Premieres Monday @ 7 (Mar                                                                          150                                
PROFAMCHA140402081355081440000045Activision                                                                                                                  150                                
PGRFAMCHA140402081440081726000246MV Disney (HD) Sabrina Carpenter-Can't Blame A Gir                                                                     10615120                                
PRCFAMCHA140402081726081733000007Selena Gomez Station ID (HD) You're Watching Famil                                                                          150                                
PROFAMCHA140402081733081739000006WOWP (HD) ID - Jennifer Stone 2 "Coming Up Next" (                                                                          150                                
PROFAMCHA140402081739081809000030Episodic IDDI (HD) 106 New Ep Friday @ 7 (Mar31-Ap                                                                          150                                
PGRFAMCHA140402081809084043002234Disney Wizards of Waverly Place                   EP: 28                                                               6068607BCC                              
PROFAMCHA140402084043084051000008D-JR Live Action ID - Tickity Toc - Coming Up (Mar                                                                          150                                
PROFAMCHA140402084051084116000025D-JR Live Action ID - #37 Rock Paper Scissors (Sep                                                                          150                                
PROFAMCHA140402084116084210000054D-JR Promo - Lego Mall Tour (x2 a day) (Feb24-Apr1                                                                          150                                
PROFAMCHA140402084210084300000050Feld Entertainment                                                                                                          150                                
PROFAMCHA140402084300084349000049D-JR Promo - Strawberry Shortcake - Get More on th                                                                          150                                
PROFAMCHA140402084349084434000045D-JR OOB - Sherriff 116 - New Episode April 6 @ 11                                                                          150                                
PROFAMCHA140402084434084459000025D-JR Live Action ID - #50 Feed Dog (Sep2013)                                                                                150                                
PROFAMCHA140402084459084507000008D-JR Live Action ID - Tickity Toc - Now (Mar2013)                                                                           150                                
PROFAMCHA140402084507084517000010D-JR - Hero Flex ID - Blue (:06-:10) (Feb2014)                                                                              150                                
PGRFAMCHA140402084517085633001116Tickety Toc                                       EP: 01                                                               3068605ACC                              
PGRFAMCHA140402085633090735001102Tickety Toc                                       EP: 02                                                               3068605ACC                              
PROFAMCHA140402090735090743000008D-JR Live Action ID - Little Einsteins - Coming Up                                                                          150                                
PROFAMCHA140402090743090808000025D-JR Live Action ID - #96 Piano (Sep2013)                                                                                   150                                
PROFAMCHA140402090808090920000112D-JR OOB - Tripple Rella Saturday April 5 @ 9AM (M                                                                          150                                
PROFAMCHA140402090920091010000050Feld Entertainment                                                                                                          150                                
PROFAMCHA140402091010091035000025D-JR Promo - JATNP - Get more on the channel REV (                                                                          150                                
PROFAMCHA140402091035091100000025D-JR Live Action ID - #63 Wash Face (Sep2013)                                                                               150                                
PROFAMCHA140402091100091108000008D-JR Live Action ID - Little Einsteins - Now (Nov2                                                                          150                                
PROFAMCHA140402091108091118000010D-JR - Hero Flex ID - Purple (:06-:10) (Feb2014)                                                                            150                                
PGRFAMCHA140402091118093519002401Disney's Little Einsteins                         EP: 19                                                               6068605ACC                              
PROFAMCHA140402093519093526000007D-JR Live Action ID - Handy Manny - Coming Up (May                                                                          150                                
PROFAMCHA140402093526093551000025D-JR Live Action ID - #47 Making Breakfast (May201                                                                          150                                
PROFAMCHA140402093551093636000045D-JR Promo - Sheriff Callie - Weekends @ 1130 on D                                                                          150                                
PROFAMCHA140402093636093701000025D-JR Live Action ID - #72 Family Tree Craft (Sept2                                                                          150                                
PROFAMCHA140402093701093708000007D-JR Live Action ID - Handy Manny - Now (May2012)                                                                           150                                
PROFAMCHA140402093708093723000015D-JR - Seasonal ID - Spring (Mar 1-May 31)                                                                                  150                                
PGRFAMCHA140402093723100129002406Handy Manny                                       EP: 12                                                               6068605ACD                              
PROFAMCHA140402100129100137000008D-JR Live Action ID - Jake & the Never Land Pirate                                                                          150                                
PROFAMCHA140402100137100202000025D-JR Live Action ID - #63 Wash Face (Sep2013)                                                                               150                                
PROFAMCHA140402100202100256000054D-JR Promo - Lego Mall Tour (x2 a day) (Feb24-Apr1                                                                          150                                
PROFAMCHA140402100256100346000050The Walt Disney Company                                                                                                     150                                
PROFAMCHA140402100346100411000025D-JR Live Action ID - #51 Chores Board (Sep2013)                                                                            150                                
PROFAMCHA140402100411100418000007D-JR Live Action ID - Jake & the Never Land Pirate                                                                          150                                
PROFAMCHA140402100418100428000010D-JR - Hero Flex ID - Purple (:06-:10) (Feb2014)                                                                            150                                
PGRFAMCHA140402100428102833002405Disney Jake and the Never Land Pirates            EP: 20                                                               6068605A                                
PROFAMCHA140402102833102841000008D-JR Live Action ID - Sofia the First - Coming Up                                                                           150                                
PROFAMCHA140402102841102906000025D-JR Live Action ID - #8 Reading Book/Quiet Time (                                                                          150                                
