SO FAMCHA070401043000043011000011Sign On (oct 1)                                                                                                                                                
PRCFAMCHA070401043011043020000009CC Disclaimer - FAST - Generic (:08-:10) $$$                                                                                150                                
PGRFAMCHA070401043020045423002403Henry's World                                     EPS # 2-023                                                   B81054A1065607GCC                              
PRCFAMCHA070401045423045428000005Astral ID (FEB05) $$$                                                                                                       150                                
PRCFAMCHA070401045428045443000015PH - 01 - BEN/FRANNY/KING (SAT/SUN) (JUNE06) (:14                                                                           150                                
ID FAMCHA070401045443045456000013PS Playhouse AM Block Open (:10-:15) $$$                                                                                    150                                
PRCFAMCHA070401045456045505000009CC Disclaimer - FAST - Family.ca (:08-:10) $$$                                                                              150                                
PGRFAMCHA070401045505051740002235The Secret World Of Benjamin Bear                 EPS # 1-011                                                   B75156A1065607ECC                              
PRCFAMCHA070401051740051755000015PH - 02 - FRANNY/KING (SAT/SUN) (JUNE06) (:14 - :1                                                                          150                                
ID FAMCHA070401051755051808000013PS Playhouse AM Block Open (:10-:15) $$$                                                                                    150                                
PRCFAMCHA070401051808051817000009CC Disclaimer - FAST - Generic (:08-:10) $$$                                                                                150                                
PGRFAMCHA070401051817054047002230Franny's Feet                                     EPS # 36                                                      C23971 1065607ECC                              
PRCFAMCHA070401054047054052000005Astral ID (FEB05) $$$                                                                                                       150                                
PRCFAMCHA070401054052054107000015PH - 03 - KING (SAT/SUN) (JUNE06) (:14 - :16) $$$                                                                           150                                
ID FAMCHA070401054107054120000013PS Playhouse AM Block Open (:10-:15) $$$                                                                                    150                                
PRCFAMCHA070401054120054129000009CC Disclaimer - FAST - Family.ca (:08-:10) $$$                                                                              150                                
PGRFAMCHA070401054129060359002230King                                              EPS # 036                                                     C25350A1065607ECC                              
PROFAMCHA070401060359060418000019Jetix Block Open $$$ (:18-:21)                                                                                              150                                
PGRFAMCHA070401060418062702002244Oban Star Racers                                  EP: 04                                                               2068607E                                
PRCFAMCHA070401062702062707000005Astral ID (FEB05) $$$                                                                                                       150                                
PROFAMCHA070401062707062737000030Jump In Dance (online) - Friday afternoon @ 2                                                                               150                                
PROFAMCHA070401062737062742000005Jetix Bumper (Sept 06)                                                                                                      150                                
PRCFAMCHA070401062742062821000039Family Lab - Pet Talker Cutdown - My name is Leona                                                                          150                                
PROFAMCHA070401062821062844000023WITCH (JETIX) - This morning @ 7:20 (Sept06)                                                                                150                                
PROFAMCHA070401062844062903000019Jetix Block Open $$$ (:18-:21)                                                                                              150                                
PRCFAMCHA070401062903062912000009CC Disclaimer - FAST - Generic (:08-:10) $$$                                                                                150                                
PGRFAMCHA070401062912065151002239Power Rangers:  Operation Overdrive               EP: 02                                                               2028607ECC                              
PROFAMCHA070401065151065241000050xxEaster Stunt - Friday @ 2:00                                                                                              150                                
PRCFAMCHA070401065241065317000036xxFamous Players Popcorn Parties REVISED(Nov06) 3/                                                                          150                                
PROFAMCHA070401065317065340000023WITCH (JETIX) - This morning @ 7:20 (Sept06)                                                                                150                                
PROFAMCHA070401065340065358000018Jetix Block Open $$$ (:18-:21)                                                                                              150                                
PRCFAMCHA070401065358065407000009CC Disclaimer - FAST - Family.ca (:08-:10) $$$                                                                              150                                
PGRFAMCHA070401065407071646002239Yin Yang Yo!                                      EP: 02                                                               2028607ECC                              
PRCFAMCHA070401071646071651000005Astral ID (FEB05) $$$                                                                                                       150                                
PRCFAMCHA070401071651071701000010JTX - 04 - WITCH/LIZZIE (SEPT06) $$$                                                                                        150                                
PROFAMCHA070401071701071724000023WITCH (JETIX) - Coming Up Next (Sept06)                                                                                     150                                
PGRFAMCHA070401071724071854000130xxMovie Surfers - Meet the Robinsons - Now Playing                                                                    A60688120                                
PRCFAMCHA070401071854071934000040Family Lab - Pet Talker Cutdown - Teacher Eats Lun                                                                          150                                
PGRFAMCHA070401071934071944000010xxMovie Surfers - Meet the Robinsons - Family ID -                                                                    A60688120                                
PROFAMCHA070401071944072003000019Jetix Block Open $$$ (:18-:21)                                                                                              150                                
PGRFAMCHA070401072003074145002142W.I.T.C.H.                                        EP: 07                                                               2068607E                                
PRCFAMCHA070401074145074157000012NSW - 02 - LIZZIE/SUITE (APR06) (:11 - 13) $$$                                                                              150                                
PROFAMCHA070401074157074227000030Jump In Dance (online) - Friday afternoon @ 2                                                                               150                                
PROFAMCHA070401074227074257000030xxLizzie McGuire - (Romeo) (APR06) (NSW/AM or PM)                                                                           150                                
PROFAMCHA070401074257074331000034xxBarbie Fairytopia REVISION- Avail Now (March15-A                                                                          150                                
PROFAMCHA070401074331074358000027Zoey 101 - LOGAN - NSW (MAY06) (may13-aug30) This                                                                           150                                
PROFAMCHA070401074358074408000010FAMJAM - Open/Close                                                                                                         150                                
PGRFAMCHA070401074408074553000145MV Disney - Superstition (Raven)                                                                                       60688120                                
PROFAMCHA070401074553074607000014xxFAMJAM - Close (FAMILY) xxDNUxx                                                                                           150                                
PRCFAMCHA070401074607074640000033Naturally Sadie - New Eps WOO YOUR BOO Tonight @ 6                                                                          150                                
PROFAMCHA070401074640074712000032xxJump In DVD REVISION (Avail Apr 3) (Mar29-Apr 2)                                                                          150                                
PROFAMCHA070401074712074740000028xxHannah Montana - NS - Tushy Tear (Oct06) Fridays                                                                          150                                
PROFAMCHA070401074740074757000017Nonstop Weekend Block Open (:16-:18) APR06 $$$                                                                              150                                
ID FAMCHA070401074757074805000008Magic of Disney - NS/NSW/PB - Shape (:06-:09) $$$                                                                           150                                
PGRFAMCHA070401074805081039002234Lizzie McGuire                                    EPS # 2-027                                                         A6068607B                                
PRCFAMCHA070401081039081044000005Astral ID (FEB05) $$$                                                                                                       150                                
PRCFAMCHA070401081044081056000012NSW - 03 - SUITE/ZOEY (APR06) (:11 - 13) $$$                                                                                150                                
PROFAMCHA070401081056081146000050xxEaster Stunt - Friday @ 2:00                                                                                              150                                
PROFAMCHA070401081146081225000039xxSuite Life of Z & C - NSW - GIRLFRIEND 1 - Comin                                                                          150                                
PROFAMCHA070401081225081307000042xxEragon DVD (Avail Now) (Mar20-Apr 8) $$$                                                                                  150                                
PROFAMCHA070401081307081337000030Zoey 101 - QUINN (NSW) (MAR07) - This morning @ 8:                                                                          150                                
PROFAMCHA070401081337081407000030Spectrobes Blast (Avail Now) (March 12-April 1)                                                                             150                                
PROFAMCHA070401081407081450000043Cory In The House (NSW) (MAR07) - This morning @ 9                                                                          150                                
PRCFAMCHA070401081450081503000013NSW Bumper $$$ - Fashion (:12-:14) JUNE06  **DNU                                                                            150                                
ID FAMCHA070401081503081511000008Magic of Disney - NS/NSW/PB - Shape (:06-:09) $$$                                                                           150                                
PGRFAMCHA070401081511083750002239Suite Life of Zack & Cody, The                    EP: 12                                                               6068607B                                
PROFAMCHA070401083750083834000044Zoey 101 - PHONE DIARY (NSW) (JUNE06) - Coming Up                                                                           150                                
PROFAMCHA070401083834083908000034xxCharlotte's Web DVD REV (Avail April 3) (Mar26-A                                                                          150                                
PROFAMCHA070401083908083951000043Cory In The House (NSW) (MAR07) - This morning @ 9                                                                          150                                
PROFAMCHA070401083951084001000010FAMJAM - Open/Close                                                                                                         150                                
PGRFAMCHA070401084001084134000133MV Disney - Superstition (Raven)                                                                                       60688120                                
PROFAMCHA070401084134084148000014xxFAMJAM - Close (FAMILY) xxDNUxx                                                                                           150                                
PROFAMCHA070401084148084208000020Ned's DSSG - Drum Roll (JUNE06) NSW This Morn @ 11                                                                          150                                
PROFAMCHA070401084208084249000041Zoey 101 VIP Fashion Spree Contest (Feb 26-June 3)                                                                          150                                
PROFAMCHA070401084249084311000022xx8 Simple Rules (APR06) (NSW) - BRIDGET DRUMS - T                                                                          150                                
PRCFAMCHA070401084311084327000016NSW Bumper $$$ - Tennis (:15-:17) APR06                                                                                     150                                
PRCFAMCHA070401084327084337000010CC Disclaimer - FAST - Generic (:08-:10) $$$                                                                                150                                
PGRFAMCHA070401084337090709002332Zoey 101 Season 2                                 EP: 19                                                              A2068807BCC                              
PRCFAMCHA070401090709090714000005Astral ID (FEB05) $$$                                                                                                       150                                
PROFAMCHA070401090714090804000050xxEaster Stunt - Friday @ 2:00                                                                                              150                                
PROFAMCHA070401090804090847000043Cory In The House (NSW) (MAR07) - Coming Up Next                                                                            150                                
PROFAMCHA070401090847090921000034xxBarbie Fairytopia REVISION- Avail Now (March15-A                                                                          150                                
PROFAMCHA070401090921090951000030xxSinbad Show NSW Responsible (SEPT06) This morn @                                                                          150                                
PROFAMCHA070401090951091025000034xxJordan Pruitt CD (Avail Now) (Mar19-Apr 8) $$$ (                                                                          150                                
PROFAMCHA070401091025091055000030Zoey 101 - QUINN (NS) (MAR07) - New Eps - Friday N                                                                          150                                
PROFAMCHA070401091055091119000024xxMeet The Robinsons Game Blast (Avail Now) (Mar27                                                                          150                                
PROFAMCHA070401091119091149000030Jump In Dance (online) - Friday afternoon @ 2                                                                               150                                
PRCFAMCHA070401091149091158000009NSW Bumper $$$ - Dodgeball (:07-:09) APR06                                                                                  150                                
PRCFAMCHA070401091158091207000009CC Disclaimer - FAST - Family.ca (:08-:10) $$$                                                                              150                                
PGRFAMCHA070401091207093445002238Cory in the House                                 EP: 04                                                               6028607BCC                              
PROFAMCHA070401093445093451000006Raven ID's II - Stay tuned, That's So Raven Coming                                                                          150                                
PROFAMCHA070401093451093538000047xxHappy Feet Contest (March12-Apr1)  $$$                                                                                    150                                
PROFAMCHA070401093538093608000030Phil of the Future THINGS TO COME (NSW) (APR06) -                                                                           150                                
PROFAMCHA070401093608093618000010FAMJAM - Open/Close                                                                                                         150                                
PGRFAMCHA070401093618093914000256MV NON-DISNEY (MD, NS, NSW) - Holly Dolly - The Do                                                                     70688120                                
PROFAMCHA070401093914093928000014xxFAMJAM - Close (FAMILY) xxDNUxx                                                                                           150                                
PRCFAMCHA070401093928093958000030xxDarcy's Wild Life (NEWS) NSW (APR06) - Tonight @                                                                          150                                
PROFAMCHA070401093958094030000032xxHannah Montana CD (Avail Now) (Feb9-Apr6)                                                                                 150                                
PRCFAMCHA070401094030094103000033Naturally Sadie - New Eps WOO YOUR BOO Tonight @ 6                                                                          150                                
PRCFAMCHA070401094103094116000013NSW Bumper $$$ - Fashion (:12-:14) JUNE06  **DNU                                                                            150                                
PRCFAMCHA070401094116094125000009CC Disclaimer - FAST - Generic (:08-:10) $$$                                                                                150                                
PGRFAMCHA070401094125100401002236That's So Raven                                   EP: 75                                                               6068607BCC                              
PRCFAMCHA070401100401100406000005Astral ID (FEB05) $$$                                                                                                       150                                
PROFAMCHA070401100406100416000010Aly & A.J. IDs - Phil of the Future Next                                                                                    150                                
PROFAMCHA070401100416100446000030Double Teamed (SEPT12) - Next Friday @ 7:30pm                                                                               150                                
PROFAMCHA070401100446100518000032xxJump In DVD REVISION (Avail Apr 3) (Mar29-Apr 2)                                                                          150                                
PROFAMCHA070401100518100539000021Ned's DSSG - RECORDER (AUG06) NSW This Morn @ 11:0                                                                          150                                
PROFAMCHA070401100539100549000010FAMJAM - Open/Close                                                                                                         150                                
PGRFAMCHA070401100549100835000246MV Disney - Superstition (Raven)                                                                                       60688120                                
PROFAMCHA070401100835100849000014xxFAMJAM - Close (FAMILY) xxDNUxx                                                                                           150                                
PRCFAMCHA070401100849100907000018xxLife with Derek NSW OJ (SEPT06) Tonight @ 7:50                                                                            150                                
PROFAMCHA070401100907100948000041Zoey 101 VIP Fashion Spree Contest (Feb 26-June 3)                                                                          150                                
PROFAMCHA070401100948101018000030Jump In Dance (online) - Friday afternoon @ 2                                                                               150                                
PRCFAMCHA070401101018101034000016NSW Bumper $$$ - Tennis (:15-:17) APR06                                                                                     150                                
ID FAMCHA070401101034101042000008Magic of Disney - NS/NSW/PB - Wipe (:06-:09) $$$                                                                            150                                
PGRFAMCHA070401101042103318002236Phil of the Future Yr 2                           EP: 27                                                               6068607B                                
PRCFAMCHA070401103318103330000012NSW - 08 - BMW/NEDS (APR06) (:11 - 13) $$$                                                                                  150                                
PROFAMCHA070401103330103400000030Double Teamed (SEPT12) - Next Friday @ 7:30pm                                                                               150                                
PROFAMCHA070401103400103430000030Spectrobes Blast (Avail Now) (March 12-April 1)                                                                             150                                
PROFAMCHA070401103430103505000035Smart Guy GOOD FRIEND (JULY06) NSW - This afternoo                                                                          150                                
PRCFAMCHA070401103505103605000100Family Lab- Duplicator (DEC06) use as filler (min                                                                           150                                
PROFAMCHA070401103605103644000039xxSuite Life of Z & C - NSW - GIRLFRIEND 1 - This                                                                           150                                
PROFAMCHA070401103644103718000034xxCharlotte's Web DVD REV (Avail April 3) (Mar26-A                                                                          150                                
PROFAMCHA070401103718103748000030Zoey 101 - QUINN (NS) (MAR07) - New Eps - Friday N                                                                          150                                
PRCFAMCHA070401103748103757000009NSW Bumper $$$ - Dodgeball (:07-:09) APR06                                                                                  150                                
ID FAMCHA070401103757103805000008Magic of Disney - NS/NSW/PB - Wipe (:06-:09) $$$                                                                            150                                
PRCFAMCHA070401103805103814000009CC Disclaimer - FAST - Generic (:08-:10) $$$                                                                                150                                
PGRFAMCHA070401103814105954002140Boy Meets World                                   EP: 1-106                                                           B6068807BCC                              
PRCFAMCHA070401105954105959000005Astral ID (FEB05) $$$                                                                                                       150                                
PRCFAMCHA070401105959110012000013NSW - 09 - NEDS/SINBAD (SEPT06) (:11 - 13) $$$                                                                              150                                
PROFAMCHA070401110012110042000030Jump In Dance (online) - Friday afternoon @ 2                                                                               150                                
PROFAMCHA070401110042110104000022xxNed's DSSG - CRAZY DOG (AUG06) NSW Coming Up Nex                                                                          150                                
PROFAMCHA070401110104110151000047xxHappy Feet Contest (March12-Apr1)  $$$                                                                                    150                                
PRCFAMCHA070401110151110157000006Family Bumpers - Reptile Pet - Burp (MD/NS/NSW)                                                                             150                                
PROFAMCHA070401110157110227000030xxSinbad Show NSW Responsible (SEPT06) This morn @                                                                          150                                
PRCFAMCHA070401110227110303000036xxFamous Players Popcorn Parties REVISED(Nov06) 3/                                                                          150                                
PRCFAMCHA070401110303110336000033Naturally Sadie - New Eps WOO YOUR BOO Tonight @ 6                                                                          150                                
PROFAMCHA070401110336110418000042xxEragon DVD (Avail Now) (Mar20-Apr 8) $$$                                                                                  150                                
PRCFAMCHA070401110418110448000030xxDarcy's Wild Life (NEWS) NSW (APR06) - Tonight @                                                                          150                                
PRCFAMCHA070401110448110502000014NSW Bumper $$$ - Fashion (:12-:14) JUNE06  **DNU                                                                            150                                
PGRFAMCHA070401110502112918002416Ned's Declassified School Survival Guide          EP: 25                                                               2068807B                                
PRCFAMCHA070401112918112930000012NSW - 10 - SINBAD/PP (SEPT06) (:11 - :13) $$$                                                                               150                                
PROFAMCHA070401112930113020000050xxEaster Stunt - Friday @ 2:00                                                                                              150                                
PROFAMCHA070401113020113050000030xxSinbad Show NS Responsible (SEPT06) Coming Up Ne                                                                          150                                
PROFAMCHA070401113050113125000035Smart Guy GOOD FRIEND (JULY06) NSW - This afternoo                                                                          150                                
PRCFAMCHA070401113125113145000020Family Lab- Hair Growth Cream Cutdown - Brad Afro                                                                           150                                
PROFAMCHA070401113145113215000030xxThat's So Raven (APR06) LUNCH (NSW) - Tonight @                                                                           150                                
PROFAMCHA070401113215113242000027xx8 Simple Rules (APR06) (NSW) - DAD JUMPS GUN - T                                                                          150                                
PROFAMCHA070401113242113312000030xxJump In Soundtrack (Avail Now) (Jan 30-Apr22) $$                                                                          150                                
PROFAMCHA070401113312113342000030Zoey 101 - QUINN (NS) (MAR07) - New Eps - Friday N                                                                          150                                
PRCFAMCHA070401113342113358000016NSW Bumper $$$ - Tennis (:15-:17) APR06                                                                                     150                                
PGRFAMCHA070401113358115640002242The Sinbad Show                                   EP: 06                                                               2068507B                                
PRCFAMCHA070401115640115645000005Astral ID (FEB05) $$$                                                                                                       150                                
PRCFAMCHA070401115645115658000013NSW - 11 - PP/SMART GUY (July06) (:11 - :13) $$$                                                                            150                                
PROFAMCHA070401115658115728000030Jump In Dance (online) - Friday afternoon @ 2                                                                               150                                
PROFAMCHA070401115728115802000034xxBarbie Fairytopia REVISION- Avail Now (March15-A                                                                          150                                
PROFAMCHA070401115802115832000030Phil of the Future THINGS TO COME (NSW) (APR06) -                                                                           150                                
PROFAMCHA070401115832115904000032xxJump In DVD REVISION (Avail Apr 3) (Mar29-Apr 2)                                                                          150                                
PRCFAMCHA070401115904115937000033Naturally Sadie - New Eps WOO YOUR BOO Tonight @ 6                                                                          150                                
ID FAMCHA070401115937115957000020Popcorn Pix Block Open $$$ (JUNE 06) (:18-:20)                                                                              150                                
ID FAMCHA070401115957120007000010Rating - G - (DEC05) (:08 - :10) $$$                                                                                        150                                
PGRFAMCHA070401120007133850013843Snow Dogs                                                                                                             A6068807D                                
PRCFAMCHA070401133850133903000013NSW - 11 - PP/SMART GUY (July06) (:11 - :13) $$$                                                                            150                                
ID FAMCHA070401133903133923000020Popcorn Pix Block Open $$$ (JUNE 06) (:18-:20)                                                                              150                                
ID FAMCHA070401133923133933000010Rating - G - (DEC05) (:08 - :10) $$$                                                                                        150                                
PRCFAMCHA070401133933133943000010CC Disclaimer - FAST - Family.ca (:08-:10) $$$                                                                              150                                
PGRFAMCHA070401133943145928011945The Bike Squad                                                                                                        B2068807DCC                              
PRCFAMCHA070401145928145933000005Astral ID (FEB05) $$$                                                                                                       150                                
PRCFAMCHA070401145933145945000012NSW - 12 -SMART/LIZZIE (APR06) (:11 - :13) $$$                                                                              150                                
PROFAMCHA070401145945150002000017Nonstop Weekend Block Open (:16-:18) APR06 $$$                                                                              150                                
ID FAMCHA070401150002150010000008Magic of Disney - NS/NSW/PB - Shape (:06-:09) $$$                                                                           150                                
PRCFAMCHA070401150010150019000009CC Disclaimer - FAST - Family.ca (:08-:10) $$$                                                                              150                                
PGRFAMCHA070401150019152246002227Smart Guy                                         EP: 1-026                                                           A6068807BCC                              
PRCFAMCHA070401152246152258000012NSW - 13 -LIZZIE/SUITE (APR06) (:11 - :13) $$$                                                                              150                                
PROFAMCHA070401152258152326000028Lizzie McGuire - (Sick) (APR06) (NSW/AMorPM) -   C                                                                          150                                
PROFAMCHA070401152326152356000030xxReplacements (FEB07) BABYSITTER (NSW) - Today @                                                                           150                                
PRCFAMCHA070401152356152404000008NSW Bumper $$$ - Dodgeball (:07-:09) APR06                                                                                  150                                
ID FAMCHA070401152404152412000008Magic of Disney - NS/NSW/PB - Shape (:06-:09) $$$                                                                           150                                
PRCFAMCHA070401152412152421000009CC Disclaimer - FAST - Generic (:08-:10) $$$                                                                                150                                
PGRFAMCHA070401152421154652002231Lizzie McGuire                                    EP: 2-007                                                           A6068607BCC                              
PRCFAMCHA070401154652154657000005Astral ID (FEB05) $$$                                                                                                       150                                
PRCFAMCHA070401154657154709000012NSW - 14 -SUITE/PROUD (APR06) (:11 - :13) $$$                                                                               150                                
PROFAMCHA070401154709154739000030Jump In Dance (online) - Friday afternoon @ 2                                                                               150                                
PROFAMCHA070401154739154827000048xxSuite Life of Zack & Cody NSW COMMERCIAL (MAY06)                                                                          150                                
PGRFAMCHA070401154827154957000130xxMovie Surfers - Meet the Robinsons - Now Playing                                                                    A60688120                                
PROFAMCHA070401154957155028000031xxAmerican Dragon - (MD) - Weekday afternoons @ 1:                                                                          150                                
PROFAMCHA070401155028155053000025xxRecess Sketches OCT 06 - THE ASSIGNMENT - Diary                                                                           150                                
PRCFAMCHA070401155053155106000013NSW Bumper $$$ - Fashion (:12-:14) JUNE06  **DNU                                                                            150                                
ID FAMCHA070401155106155114000008Magic of Disney - NS/NSW/PB - Wipe (:06-:09) $$$                                                                            150                                
PGRFAMCHA070401155114161353002239Suite Life of Zack & Cody , The                   EP: 09                                                               6068607B                                
PRCFAMCHA070401161353161405000012NSW - 15 - PROUD/REPLACEMENTS (JAN06) (:11 - :13)                                                                           150                                
PROFAMCHA070401161405161454000049Proud Family (APR06) STRIKE (NSW) - Coming Up Next                                                                          150                                
PROFAMCHA070401161454161524000030xxReplacements (FEB07) LIBRARIAN (NSW) - Today @ 4                                                                          150                                
PROFAMCHA070401161524161554000030xxKim Possible - EVIL (NSW) (MAR07) This afternoon                                                                          150                                
PROFAMCHA070401161554161628000034xxJordan Pruitt CD (Avail Now) (Mar19-Apr 8) $$$ (                                                                          150                                
PROFAMCHA070401161628161653000025xxRecess Sketches OCT 06 - THE ASSIGNMENT - Gold C                                                                          150                                
PROFAMCHA070401161653161743000050xxEaster Stunt - Friday @ 2:00                                                                                              150                                
PRCFAMCHA070401161743161758000015NSW Bumper $$$ - Tennis (:15-:17) APR06                                                                                     150                                
ID FAMCHA070401161758161806000008Magic of Disney - NS/NSW/PB - Shape (:06-:09) $$$                                                                           150                                
PGRFAMCHA070401161806164039002233The Proud Family                                  EPS # 2-024                                                         A6068607E                                
PRCFAMCHA070401164039164044000005Astral ID (FEB05) $$$                                                                                                       150                                
PRCFAMCHA070401164044164056000012NSW - 16 - REPLACEMENTS/KIM (JAN07) (:11 - :13) $$                                                                          150                                
PROFAMCHA070401164056164126000030xxReplacements (FEB07) BABYSITTER (NSW) - Coming U                                                                          150                                
PROFAMCHA070401164126164150000024xxMeet The Robinsons Game Blast (Avail Now) (Mar27                                                                          150                                
PRCFAMCHA070401164150164220000030MMM Weekdays @ 6:55 (APR06)                                                                                                 150                                
PROFAMCHA070401164220164230000010FAMJAM - Open/Close                                                                                                         150                                
PGRFAMCHA070401164230164329000059MV Disney - (FAMILY HITS) That's So Raven Theme So                                                                     60688120                                
PROFAMCHA070401164329164343000014xxFAMJAM - Close (FAMILY) xxDNUxx                                                                                           150                                
PROFAMCHA070401164343164408000025xxRecess Sketches OCT 06 - THE ASSIGNMENT - Guru                                                                            150                                
PROFAMCHA070401164408164438000030xxJump In Soundtrack (Avail Now) (Jan 30-Apr22) $$                                                                          150                                
PROFAMCHA070401164438164508000030Jump In Dance (online) - Friday afternoon @ 2                                                                               150                                
PRCFAMCHA070401164508164515000007NSW Bumper $$$ - Dodgeball (:07-:09) APR06                                                                                  150                                
PRCFAMCHA070401164515164524000009CC Disclaimer - FAST - Generic (:08-:10) $$$                                                                                150                                
PGRFAMCHA070401164524170803002239Disney's The Replacements                         EP: 11                                                               2068607ECC                              
PRCFAMCHA070401170803170815000012NSW - 17 - KIM/PHIL (APR06) (:11 - :13) $$$                                                                                 150                                
PROFAMCHA070401170815170845000030xxKim Possible - EVIL (NSW) (MAR07) Coming Up Next                                                                          150                                
PROFAMCHA070401170845170915000030Spectrobes Blast (Avail Now) (March 12-April 1)                                                                             150                                
PROFAMCHA070401170915170946000031xxAmerican Dragon - (MD) - Weekday afternoons @ 1:                                                                          150                                
PRCFAMCHA070401170946171015000029Family Lab- Hair Growth Cream Cutdown - I Grew Up                                                                           150                                
PROFAMCHA070401171015171043000028xxDave the Barbarian - WIGGIN (MD) -  Weekday afte                                                                          150                                
PROFAMCHA070401171043171115000032xxHannah Montana CD (Avail Now) (Feb9-Apr6)                                                                                 150                                
PROFAMCHA070401171115171149000034Proud Family (APR06) GET BURNED (MD) - Weekday Aft                                                                          150                                
PRCFAMCHA070401171149171203000014NSW Bumper $$$ - Fashion (:12-:14) JUNE06  **DNU                                                                            150                                
PRCFAMCHA070401171203171212000009CC Disclaimer - FAST - Generic (:08-:10) $$$                                                                                150                                
PGRFAMCHA070401171212173503002251Disney's Kim Possible                             EP: 1-010                                                           A6068607ECC                              
PRCFAMCHA070401173503173508000005Astral ID (FEB05) $$$                                                                                                       150                                
PRCFAMCHA070401173508173520000012NSW - 18 - PHIL/SADIE (APR06) (:11 - :13) $$$                                                                               150                                
PROFAMCHA070401173520173550000030Jump In Dance (online) - Friday afternoon @ 2                                                                               150                                
PROFAMCHA070401173550173620000030Phil of the Future THINGS TO COME (NSW) (APR06) -                                                                           150                                
PROFAMCHA070401173620173702000042xxEragon DVD (Avail Now) (Mar20-Apr 8) $$$                                                                                  150                                
PRCFAMCHA070401173702173735000033Naturally Sadie - New Eps WOO YOUR BOO Tonight @ 6                                                                          150                                
PROFAMCHA070401173735173803000028xxHannah Montana - NS - Tushy Tear (Oct06) Fridays                                                                          150                                
PROFAMCHA070401173803173833000030Zoey 101 - QUINN (NS) (MAR07) - New Eps - Friday N                                                                          150                                
PROFAMCHA070401173833173851000018Phil of the Future IDs - Ricky Caveman - stay tune                                                                          150                                
PRCFAMCHA070401173851173906000015NSW Bumper $$$ - Tennis (:15-:17) APR06                                                                                     150                                
ID FAMCHA070401173906173914000008Magic of Disney - NS/NSW/PB - Wipe (:06-:09) $$$                                                                            150                                
PGRFAMCHA070401173914180154002240Phil of the Future                                EPS # 04                                                             6068607B                                
PRCFAMCHA070401180154180206000012NSW - 19 - SADIE/DARCY (APR06) (:11 - :13) $$$                                                                              150                                
PROFAMCHA070401180206180256000050xxEaster Stunt - Friday @ 2:00                                                                                              150                                
PRCFAMCHA070401180256180329000033Naturally Sadie - New Eps WOO YOUR BOO NEXT (to Ma                                                                          150                                
PROFAMCHA070401180329180401000032xxHannah Montana CD (Avail Now) (Feb9-Apr6)                                                                                 150                                
PRCFAMCHA070401180401180431000030xxDarcy's Wild Life (NEWS) NSW (APR06) - Tonight @                                                                          150                                
PRCFAMCHA070401180431180442000011Family Bumpers - (Phase 2 F/W 04) - Science (MD-AM                                                                          150                                
PROFAMCHA070401180442180512000030xxThat's So Raven (APR06) LUNCH (NSW) - Tonight @                                                                           150                                
PROFAMCHA070401180512180542000030xxJump In Soundtrack (Avail Now) (Jan 30-Apr22) $$                                                                          150                                
PRCFAMCHA070401180542180601000019xxNaturally Sadie ID's (NOV06) - Ben - Podcast ver                                                                          150                                
PRCFAMCHA070401180601180608000007NSW Bumper $$$ - Dodgeball (:07-:09) APR06                                                                                  150                                
PRCFAMCHA070401180608180617000009CC Disclaimer - FAST - Generic (:08-:10) $$$                                                                                150                                
PGRFAMCHA070401180617182847002230Naturally, Sadie Season 2                         EP: 47                                                        C25428 1025607ACC                              
PRCFAMCHA070401182847182852000005Astral ID (FEB05) $$$                                                                                                       150                                
PRCFAMCHA070401182852182904000012NSW - 20 - DARCY/RAVEN (APR06) (:11 - :13) $$$                                                                              150                                
PRCFAMCHA070401182904182913000009Darcy's IDs - Shannon - Nonstop animal fun...next                                                                           150                                
PGRFAMCHA070401182913183043000130xxMovie Surfers - Meet the Robinsons - Now Playing                                                                    A60688120                                
PROFAMCHA070401183043183113000030Jump In Dance (online) - Friday afternoon @ 2                                                                               150                                
PROFAMCHA070401183113183143000030Spectrobes Blast (Avail Now) (March 12-April 1)                                                                             150                                
PGRFAMCHA070401183143183153000010xxMovie Surfers - Meet the Robinsons - Family ID -                                                                    A60688120                                
PRCFAMCHA070401183153183205000012NSW Bumper $$$ - Fashion (:12-:14) JUNE06  **DNU                                                                            150                                
PRCFAMCHA070401183205183214000009CC Disclaimer - FAST - Family.ca (:08-:10) $$$                                                                              150                                
PGRFAMCHA070401183214185344002130Darcy's Wild Life                                 EP: 01                                                        A03948 1065607BCC                              
PRCFAMCHA070401185344185356000012NSW - 21 - RAVEN/ZOEY (MAY06) (:11 - :13) $$$                                                                               150                                
PROFAMCHA070401185356185402000006Raven ID's II - Stay tuned, That's So Raven Coming                                                                          150                                
PROFAMCHA070401185402185443000041Zoey 101 VIP Fashion Spree Contest (Feb 26-June 3)                                                                          150                                
PROFAMCHA070401185443185513000030Zoey 101 - QUINN (NSW) (MAR07) - Tonight @ 7:25                                                                             150                                
PRCFAMCHA070401185513185531000018xxLife with Derek NSW OJ (SEPT06) Tonight @ 7:50                                                                            150                                
PROFAMCHA070401185531185541000010FAMJAM - Open/Close                                                                                                         150                                
PGRFAMCHA070401185541185852000311MV Disney - (MD/NS/NSW) - Vanessa Hudgens - Say OK                                                                     60288120                                
PROFAMCHA070401185852185906000014xxFAMJAM - Close (FAMILY) xxDNUxx                                                                                           150                                
PROFAMCHA070401185906185919000013Bonnie - Life With NSW - Tonight @ 8:40 (Sept 06)                                                                           150                                
PROFAMCHA070401185919185943000024xxMeet The Robinsons Game Blast (Avail Now) (Mar27                                                                          150                                
PROFAMCHA070401185943190011000028So Little Time (NS Flat Tire) (APR06) - Tomorrow N                                                                          150                                
PGRFAMCHA070401190011190021000010xxMovie Surfers - Meet the Robinsons - Family ID -                                                                    A60688120                                
PRCFAMCHA070401190021190036000015NSW Bumper $$$ - Tennis (:15-:17) APR06                                                                                     150                                
ID FAMCHA070401190036190044000008Magic of Disney - NS/NSW/PB - Shape (:06-:09) $$$                                                                           150                                
PRCFAMCHA070401190044190053000009CC Disclaimer - FAST - Generic (:08-:10) $$$                                                                                150                                
PGRFAMCHA070401190053192333002240That's So Raven                                   EP: 1-009                                                            6068607BCC                              
PRCFAMCHA070401192333192338000005Astral ID (FEB05) $$$                                                                                                       150                                
PRCFAMCHA070401192338192349000011NSW - 22 - ZOEY/DEREK (MAY06) (:11 - :13) $$$                                                                               150                                
PROFAMCHA070401192349192416000027Zoey 101 - LOGAN - NSW (MAY06) (may13-aug30) Comin                                                                          150                                
PROFAMCHA070401192416192448000032xxJump In DVD REVISION (Avail Apr 3) (Mar29-Apr 2)                                                                          150                                
PROFAMCHA070401192448192538000050xxEaster Stunt - Friday @ 2:00                                                                                              150                                
PRCFAMCHA070401192538192546000008NSW Bumper $$$ - Dodgeball (:07-:09) APR06                                                                                  150                                
PRCFAMCHA070401192546192554000008CC Disclaimer - FAST - Family.ca (:08-:10) $$$                                                                              150                                
PGRFAMCHA070401192554194926002332Zoey 101                                          EP: 14                                                              A2068807BCC                              
PRCFAMCHA070401194926194938000012NSW - 23 - DEREK/8 SIMPLE (APR06) (:11 - :13) $$$                                                                           150                                
PRCFAMCHA070401194938194956000018xxLife with Derek NSW OJ (SEPT06) Coming Up Next                                                                            150                                
PRCFAMCHA070401194956195032000036xxFamous Players Popcorn Parties REVISED(Nov06) 3/                                                                          150                                
PROFAMCHA070401195032195102000030Zoey 101 - QUINN (NS) (MAR07) - New Eps - Friday N                                                                          150                                
PRCFAMCHA070401195102195116000014NSW Bumper $$$ - Fashion (:12-:14) JUNE06  **DNU                                                                            150                                
PRCFAMCHA070401195116195124000008CC Disclaimer - FAST - Generic (:08-:10) $$$                                                                                150                                
PGRFAMCHA070401195124201354002230Life with Derek Season 2                          EP: 14                                                        C26679A1055607BCC3                             
PRCFAMCHA070401201354201359000005Astral ID (FEB05) $$$                                                                                                       150                                
PRCFAMCHA070401201359201411000012NSW - 24 - 8 SIMPLE/BONNIE (SEPT06) (:11 - :13) $$                                                                          150                                
PROFAMCHA070401201411201443000032xxJump In DVD REVISION (Avail Apr 3) (Mar29-Apr 2)                                                                          150                                
PRCFAMCHA070401201443201457000014Family Bumpers - (Phase 1 Spring 04) - Basketball                                                                           150                                
PROFAMCHA070401201457201544000047xxHappy Feet Contest (March12-Apr1)  $$$                                                                                    150                                
PRCFAMCHA070401201544201600000016NSW Bumper $$$ - Tennis (:15-:17) APR06                                                                                     150                                
PRCFAMCHA070401201600201609000009CC Disclaimer - FAST - Family.ca (:08-:10) $$$                                                                              150                                
PGRFAMCHA0704012016092037450021368 Simple Rules                                    EP: 63                                                              B2068807BCC                              
PRCFAMCHA070401203745203757000012NSW - 25 - BONNIE/NPIX (SEPT06) (:11 - :13) $$$                                                                             150                                
PROFAMCHA070401203757203810000013Bonnie - Life With NSW - Coming Up Next (Sept 06)                                                                           150                                
PRCFAMCHA070401203810203817000007NSW Bumper $$$ - Dodgeball (:07-:09) APR06                                                                                  150                                
PGRFAMCHA070401203817205957002140Life With Bonnie                                  EP: 30                                                               2068507B                                
PRCFAMCHA070401205957210002000005Astral ID (FEB05) $$$                                                                                                       150                                
PRCFAMCHA070401210002210014000012NSW - 26 - NPIX/MOVIE ENT (SEPT06) (:11 - :13) $$$                                                                          150                                
PROFAMCHA070401210014210025000011xxNightly Pix Movie Open (:10-:15)                                                                                          150                                
ID FAMCHA070401210025210034000009Rating - PG - (DEC05) (:08 - :10) $$$                                                                                       150                                
PRCFAMCHA070401210034210043000009CC Disclaimer - SLOW - Family.ca (:08-:10) $$$                                                                              150                                
PGRFAMCHA070401210043223347013304Rocket Man                                                                                                            B6068807DCC                              
PROFAMCHA070401223347223400000013xxNightly Pix Movie Open (:10-:15)                                                                                          150                                
PRCFAMCHA070401223400223412000012NSW - 27 - MOVIE ENT/NPIX (SEPT06) (:11 - :13) $$$                                                                          150                                
PRCFAMCHA070401223412225012001600Movie Entertainment (8)                                                                                               B     150                                
PRCFAMCHA070401225012225017000005Astral ID (FEB05) $$$                                                                                                       150                                
PRCFAMCHA070401225017225029000012NSW - 28 - NPIX/RADIO (SEPT06) (:11 - :13) $$$                                                                              150                                
PROFAMCHA070401225029225042000013xxNightly Pix Movie Open (:10-:15)                                                                                          150                                
ID FAMCHA070401225042225051000009Rating - PG - (DEC05) (:08 - :10) $$$                                                                                       150                                
PGRFAMCHA070401225051003603014512Prefontaine                                                                                                           B6068807D                                
PRCFAMCHA070401003603003615000012NSW - 29 - RADIO/SPIDERMAN (SEPT06) (:11 - :13) $$                                                                          150                                
PROFAMCHA070401003615003632000017Nonstop Weekend Block Open (:16-:18) APR06 $$$                                                                              150                                
PRCFAMCHA070401003632003641000009CC Disclaimer - SLOW - Generic (:08-:10) $$$                                                                                150                                
PGRFAMCHA070401003641005912002231Radio Free Roscoe                                 EPS # 41                                                      A05974A1065607ACC                              
PRCFAMCHA070401005912005917000005Astral ID (FEB05) $$$                                                                                                       150                                
PRCFAMCHA070401005917005929000012NSW - 30 - SPIDER (APR06) (:11 - :13) $$$                                                                                   150                                
PRCFAMCHA070401005929005942000013NSW Bumper $$$ - Fashion (:12-:14) JUNE06  **DNU                                                                            150                                
PGRFAMCHA070401005942012123002141Spiderman                                         EP: 06                                                        C02618 1065607E                                
PRCFAMCHA070401012123012139000016NSW Bumper $$$ - Tennis (:15-:17) APR06                                                                                     150                                
SO FAMCHA070401012139012151000012Sign Off                                                                                                                                                       
OFFFAMCHA070401012151043000030809OFF AIR                                                                                                                                                        
SO FAMCHA070402043000043011000011Sign On (oct 1)                                                                                                                                                
PGRFAMCHA070402043011045646002635Katie And Orbie                                   EP: 1-009                                                     P16148A1065607E                                
PRCFAMCHA070402045646045701000015PH - 04 - FRANNY/SOMETHING/HOZE  (:14 - :16) (APR0                                                                          150                                
ID FAMCHA070402045701045714000013PS Playhouse AM Block Open (:10-:15) $$$                                                                                    150                                
PRCFAMCHA070402045714045719000005Astral ID (FEB05) $$$                                                                                                       150                                
PRCFAMCHA070402045719045728000009CC Disclaimer - FAST - Family.ca (:08-:10) $$$                                                                              150                                
PGRFAMCHA070402045728051958002230Franny's Feet                                     EPS # 1-007                                                   C23970A1065607ECC                              
PRCFAMCHA070402051958052014000016PH - 05 - SOMETHING/HOZE/KING (:14 - :16) (APR06)                                                                           150                                
ID FAMCHA070402052014052027000013PS Playhouse AM Block Open (:10-:15) $$$                                                                                    150                                
PRCFAMCHA070402052027052036000009CC Disclaimer - FAST - Generic (:08-:10) $$$                                                                                150                                
PGRFAMCHA070402052036054307002231Something Else                                    EP: 1-002                                                     B69256A1065607ECC                              
PRCFAMCHA070402054307054312000005Astral ID (FEB05) $$$                                                                                                       150                                
PRCFAMCHA070402054312054328000016PH - 06 - HOZE/KING/SPIDERMAN (:14 - :16) (APR06)                                                                           150                                
ID FAMCHA070402054328054341000013PS Playhouse AM Block Open (:10-:15) $$$                                                                                    150                                
PRCFAMCHA070402054341054350000009CC Disclaimer - FAST - Family.ca (:08-:10) $$$                                                                              150                                
PGRFAMCHA070402054350060625002235Hoze Houndz                                       EP: 3-032                                                     B45773A1065607ECC                              
PRCFAMCHA070402060625060641000016PH - 07 - KING/SPIDERMAN/KIM  (:14 - :16) (APR06)                                                                           150                                
ID FAMCHA070402060641060654000013PS Playhouse AM Block Open (:10-:15) $$$                                                                                    150                                
PRCFAMCHA070402060654060703000009CC Disclaimer - FAST - Generic (:08-:10) $$$                                                                                150                                
PGRFAMCHA070402060703062933002230King                                              EP: 010                                                       B75765A1065607ECC                              
PRCFAMCHA070402062933062938000005Astral ID (FEB05) $$$                                                                                                       150                                
PRCFAMCHA070402062938062953000015PH - 08- SPIDERMAN/KIM ( (:14 - :16) (APR06) $$$                                                                            150                                
PROFAMCHA070402062953063012000019MadMadMornings Block Open $$$                                                                                               150                                
PGRFAMCHA070402063012065157002145Spiderman                                         EP: 23                                                        C02618 1065607E                                
PRCFAMCHA070402065157065212000015MMM - 01 (AM) - KIM/RECESS/WEEKENDERS (OCT05) (:14                                                                          150                                
PROFAMCHA070402065212065224000012xxKim Possible READY (MMM) (AUG 06) Coming Up Next                                                                          150                                
PROFAMCHA070402065224065254000030xxJump In Soundtrack (Avail Now) (Jan 30-Apr22) $$                                                                          150                                
PROFAMCHA070402065254065301000007MadMadMornings Bumper                                                                                                       150                                
PGRFAMCHA070402065301065431000130xxMovie Surfers - Meet the Robinsons - Now Playing                                                                    A60688120                                
PROFAMCHA070402065431065501000030Jump In Dance (online) - Friday afternoon @ 2                                                                               150                                
PROFAMCHA070402065501065533000032xxHannah Montana CD (Avail Now) (Feb9-Apr6)                                                                                 150                                
PGRFAMCHA070402065533065543000010xxMovie Surfers - Meet the Robinsons - Family ID -                                                                    A60688120                                
PROFAMCHA070402065543065602000019MadMadMornings Block Open $$$                                                                                               150                                
PRCFAMCHA070402065602065611000009CC Disclaimer - FAST - Generic (:08-:10) $$$                                                                                150                                
PGRFAMCHA070402065611071902002251Disney's Kim Possible                             EP: 1-008                                                           A6068607ECC                              
PRCFAMCHA070402071902071907000005Astral ID (FEB05) $$$                                                                                                       150                                
PRCFAMCHA070402071907071921000014MMM - 02 (AM) - RECESS/WEEKENDERS/LILO (OCT05) (:1                                                                          150                                
PROFAMCHA070402071921072011000050xxEaster Stunt - Friday Apr 6 & Apr 9 @ 2:00                                                                                150                                
PROFAMCHA070402072011072056000045xxRecess - SNACKS FOR SNITCHES (MMM) - (MAY06) - C                                                                          150                                
PROFAMCHA070402072056072130000034xxBarbie Fairytopia REVISION- Avail Now (March15-A                                                                          150                                
PROFAMCHA070402072130072206000036Weekenders - PIZZA (MMM) - (APR06) - This Morning                                                                           150                                
PROFAMCHA070402072206072237000031xxAmerican Dragon - (MD) - This afternoon @ 1:00 (                                                                          150                                
PROFAMCHA070402072237072301000024xxMeet The Robinsons Game Blast (Avail Now) (Mar27                                                                          150                                
PROFAMCHA070402072301072335000034Proud Family (JULY06) MOM YELLS (MD) -  This After                                                                          150                                
PROFAMCHA070402072335072354000019MadMadMornings Block Open $$$                                                                                               150                                
PGRFAMCHA070402072354074628002234Disney's Recess                                   EP: 1-042                                                            6068607E                                
PRCFAMCHA070402074628074643000015PH - 09 - WEEKENDERS/LILO/EINSTEINS (:14 - :16) (A                                                                          150                                
PROFAMCHA070402074643074719000036Weekenders - PIZZA (MMM) - (APR06) - Coming Up Nex                                                                          150                                
PROFAMCHA070402074719074751000032xxJump In DVD REVISION (Avail Apr 3) (Mar29-Apr 2)                                                                          150                                
PRCFAMCHA070402074751074757000006Family Bumpers - Reptile Pet - Car Horn (MD/NS/NSW                                                                          150                                
PROFAMCHA070402074757074807000010FAMJAM - Open/Close                                                                                                         150                                
PGRFAMCHA070402074807074907000100MV Disney - (MD/NS/NSW) - AnnasophiRobb- Keep Your                                                                    A60688120                                
PROFAMCHA070402074907074921000014xxFAMJAM - Close (FAMILY) xxDNUxx                                                                                           150                                
PROFAMCHA070402074921074946000025xxRecess Sketches OCT 06 - THE ASSIGNMENT - Africa                                                                          150                                
PRCFAMCHA070402074946075022000036xxFamous Players Popcorn Parties REVISED(Nov06) 3/                                                                          150                                
PROFAMCHA070402075022075052000030Jump In Dance (online) - Friday afternoon @ 2                                                                               150                                
PROFAMCHA070402075052075111000019MadMadMornings Block Open $$$                                                                                               150                                
PRCFAMCHA070402075111075121000010CC Disclaimer - FAST - Family.ca (:08-:10) $$$                                                                              150                                
PGRFAMCHA070402075121081407002246Disney's The Weekenders                           EP: 1-027                                                           A6068607ECC                              
PRCFAMCHA070402081407081412000005Astral ID (FEB05) $$$                                                                                                       150                                
PRCFAMCHA070402081412081427000015PH - 10 - LILO/EINSTEINS/WINNIE (:14 - :16) (APR06                                                                          150                                
PROFAMCHA070402081427081517000050xxEaster Stunt - Friday Apr 6 & Apr 9 @ 2:00                                                                                150                                
PROFAMCHA070402081517081534000017xxLilo & Stitch (MMM) (APR06) LICK- coming Up Next                                                                          150                                
PROFAMCHA070402081534081558000024xxMeet The Robinsons Game Blast (Avail Now) (Mar27                                                                          150                                
PROFAMCHA070402081558081629000031xxAmerican Dragon - (MD) - This afternoon @ 1:00 (                                                                          150                                
PROFAMCHA070402081629081654000025xxRecess Sketches OCT 06 - THE ASSIGNMENT - Apple                                                                           150                                
PROFAMCHA070402081654081742000048xxSuite Life of Z & C -MD Commercial - This aftern                                                                          150                                
PROFAMCHA070402081742081801000019MadMadMornings Block Open $$$                                                                                               150                                
PRCFAMCHA070402081801081810000009CC Disclaimer - FAST - Generic (:08-:10) $$$                                                                                150                                
PGRFAMCHA070402081810084049002239Disney's Lilo & Stitch                            EPS # 16                                                            A6068607ECC                              
PRCFAMCHA070402084049084105000016PH - 11 -EINSTEINS/WINNIE/BEAR  (:14 - :16) (NOV06                                                                          150                                
PROFAMCHA070402084105084135000030Little Einstein (PH) (PRESCHOOL) - Coming Up Next                                                                           150                                
PGRFAMCHA070402084135084448000313MV Disney - (PH) - The Kid In You (KRYSTAL MARIE H                                                                     60688120                                
ID FAMCHA070402084448084501000013PS Playhouse AM Block Open (:10-:15) $$$                                                                                    150                                
PGRFAMCHA070402084501090906002405Disney's Little Einsteins                         EP: 06                                                               6068607E                                
PRCFAMCHA070402090906090911000005Astral ID (FEB05) $$$                                                                                                       150                                
PRCFAMCHA070402090911090927000016PH - 12 -WINNIE/BEAR/JOJO  (:14 - :16) (NOV06) $$$                                                                          150                                
PROFAMCHA070402090927090957000030Winnie the Pooh (PH/AM) (APR06) - This Morning @ 9                                                                          150                                
PRCFAMCHA070402090957091027000030Franny's Feet - Concept (APR06)(PH-Mon) - This Mor                                                                          150                                
ID FAMCHA070402091027091040000013PS Playhouse AM Block Open (:10-:15) $$$                                                                                    150                                
ID FAMCHA070402091040091048000008Magic of Disney - PLAYHOUSE - Shape (:06-:09) $$$                                                                           150                                
PRCFAMCHA070402091048091057000009CC Disclaimer - FAST - Generic (:08-:10) $$$                                                                                150                                
PGRFAMCHA070402091057093417002320The New Adventures of Winnie the Pooh             EP: 1-022                                                            6068607ECC                              
PRCFAMCHA070402093417093432000015PH - 13 -BEAR/JOJO/FRANNY  (:14 - :16) (NOV06) $$$                                                                          150                                
PROFAMCHA070402093432093448000016xxJojo's Circus - MAGIC - OCT 06 - This morn @ 10:                                                                          150                                
PROFAMCHA070402093448093530000042Higglytown HEROES - (MAR07) - This morning @ 10:55                                                                          150                                
PRCFAMCHA070402093530093600000030Benjamin Bear - (PH-Tue) (OCT06) - Tomorrow morn @                                                                          150                                
PROFAMCHA070402093600093656000056Handy Manny - TOOLS - (MAR07) - Wed mornings @ 10:                                                                          150                                
ID FAMCHA070402093656093709000013PS Playhouse AM Block Open (:10-:15) $$$                                                                                    150                                
PGRFAMCHA070402093709100114002405Bear In the Big Blue House                        EP: 005                                                              2068607E                                
PRCFAMCHA070402100114100119000005Astral ID (FEB05) $$$                                                                                                       150                                
PRCFAMCHA070402100119100134000015PH - 14 -JOJO/FRANNY/HIGGLY (:14 - :16) (FEB07) $$                                                                          150                                
PROFAMCHA070402100134100150000016xxJojo's Circus - MAGIC - OCT 06 - Coming Up Next                                                                           150                                
PRCFAMCHA070402100150100217000027Playhouse Web Promo - Family.ca                                                                                             150                                
PRCFAMCHA070402100217100232000015Franny's Feet - Bowleriffic (PH-Mon) - (APR06) - T                                                                          150                                
PGRFAMCHA070402100232100347000115They Might Be Giants (ABC's) - QU                                                                                      60688120                                
ID FAMCHA070402100347100400000013PS Playhouse AM Block Open (:10-:15) $$$                                                                                    150                                
ID FAMCHA070402100400100408000008Magic of Disney - PLAYHOUSE - Wipe (:06-:09) $$$                                                                            150                                
PGRFAMCHA070402100408102816002408JoJo's Circus                                     EPS # 07                                                            A6068607E                                
PRCFAMCHA070402102816102831000015PH - 15 -FRANNY/HIGGLY/KING (:14 - :16) (FEB07) $$                                                                          150                                
PRCFAMCHA070402102831102901000030Franny's Feet - Concept  (APR06)(PH-M/Wknd) - Comi                                                                          150                                
PROFAMCHA070402102901102943000042Higglytown HEROES - (MAR07) - This morning @ 10:55                                                                          150                                
PROFAMCHA070402102943103013000030Little Einstein (PH) (PRESCHOOL) - Tomorrow @ 8:45                                                                          150                                
PROFAMCHA070402103013103043000030Winnie the Pooh (PH/AM) (APR06) - Tomorrow Morning                                                                          150                                
ID FAMCHA070402103043103056000013PS Playhouse AM Block Open (:10-:15) $$$                                                                                    150                                
PRCFAMCHA070402103056103105000009CC Disclaimer - FAST - Generic (:08-:10) $$$                                                                                150                                
PGRFAMCHA070402103105105335002230Franny's Feet                                     EPS # 31                                                      C23971 1065607ECC                              
PRCFAMCHA070402105335105340000005Astral ID (FEB05) $$$                                                                                                       150                                
PRCFAMCHA070402105340105355000015PH - 16 -HIGGLY/KING/RECESS (:14- :16) (FEB07) $$$                                                                          150                                
PROFAMCHA070402105355105437000042Higglytown HEROES - (MAR07) - Coming Up Next                                                                                150                                
PRCFAMCHA070402105437105457000020Benjamin Bear - Snack (PHTue) (APR06) - Tomorrow M                                                                          150                                
PROFAMCHA070402105457105526000029Playhouse - WINNIE THE POOH - Tigger Bounce                                                                                 150                                
PROFAMCHA070402105526105626000100Mickey Mouse Clubhouse (Video 2) Friday morn @ 10:                                                                          150                                
ID FAMCHA070402105626105639000013PS Playhouse AM Block Open (:10-:15) $$$                                                                                    150                                
ID FAMCHA070402105639105647000008Magic of Disney - PLAYHOUSE - Shape (:06-:09) $$$                                                                           150                                
PGRFAMCHA070402105647112052002405Higglytown Heroes                                 EPS # 16                                                             6068607E                                
PRCFAMCHA070402112052112107000015PH - 17 -KING/RECESS/KIM (:14 - :16) (APR06) $$$                                                                            150                                
PRCFAMCHA070402112107112138000031King (PH) (APR06) - Coming Up Next                                                                                          150                                
PRCFAMCHA070402112138112150000012Family Bumpers - (Phase 1 Spring 04) - Funhouse (P                                                                          150                                
PGRFAMCHA070402112150112450000300They Might Be Giants (ABC's) - Can You Find It?                                                                        60688120                                
ID FAMCHA070402112450112503000013PS Playhouse AM Block Open (:10-:15) $$$                                                                                    150                                
PRCFAMCHA070402112503112512000009CC Disclaimer - FAST - Generic (:08-:10) $$$                                                                                150                                
PGRFAMCHA070402112512114742002230King                                              EP: 008                                                       B75763A1065607ECC                              
PRCFAMCHA070402114742114747000005Astral ID (FEB05) $$$                                                                                                       150                                
PRCFAMCHA070402114747114759000012MD - 01 - RECESS/KIM (APR06) (:11 - :13) $$$                                                                                150                                
PROFAMCHA070402114759114844000045xxRecess - SNACKS FOR SNITCHES (MD) - (MAY06) - Co                                                                          150                                
PROFAMCHA070402114844114901000017Mad Dash Block Open (:16-:18) APR06 $$$                                                                                     150                                
PGRFAMCHA070402114901121136002235Disney's Recess                                   EP: 1-057                                                           A6068607E                                
PRCFAMCHA070402121136121148000012MD - 02 - KIM/WEEKENDERS (APR06) (:11 - :13) $$$                                                                            150                                
PROFAMCHA070402121148121218000030xxKim Possible - EVIL (MD) (MAR07) Coming Up Next                                                                           150                                
PROFAMCHA070402121218121249000031xxAmerican Dragon - (MD) - This afternoon @ 1:00 (                                                                          150                                
PRCFAMCHA070402121249121258000009MD Bumper - $$$ Race Cars (:08-:10) JUNE06 **DNU                                                                            150                                
PRCFAMCHA070402121258121307000009CC Disclaimer - FAST - Family.ca (:08-:10) $$$                                                                              150                                
PGRFAMCHA070402121307123600002253Disney's Kim Possible                             EPS # 1-033                                                         A6068607ECC                              
PRCFAMCHA070402123600123605000005Astral ID (FEB05) $$$                                                                                                       150                                
PRCFAMCHA070402123605123617000012MD - 03 - WEEKENDERS/AMERICAN DRAGON (JAN07) (:11                                                                           150                                
PROFAMCHA070402123617123653000036Weekenders - PIZZA (MD) - (APR06) - Coming Up Next                                                                          150                                
PRCFAMCHA070402123653123709000016MD Bumper - $$$ Shopping Race (:15-:17) APR06                                                                               150                                
PRCFAMCHA070402123709123718000009CC Disclaimer - FAST - Generic (:08-:10) $$$                                                                                150                                
PGRFAMCHA070402123718125951002233Disney's The Weekenders                           EP: 1-028                                                           A6068607ECC                              
PRCFAMCHA070402125951130003000012MD - 04 - AMERICAN DRAGON/EMPEROR (JAN07) (:11 - :                                                                          150                                
PRCFAMCHA070402130003130011000008MD Bumper - $$$ Ski Race (:07-:09) APR06                                                                                    150                                
PGRFAMCHA070402130011132247002236Disney's American Dragon:  Jake Long              EP: 39                                                               6028607E                                
PRCFAMCHA070402132247132252000005Astral ID (FEB05) $$$                                                                                                       150                                
PRCFAMCHA070402132252132304000012MD - 05 - EMPEROR/LILO (JAN07) (:11 - :13) $$$                                                                              150                                
PROFAMCHA070402132304132321000017xxLilo & Stitch (MD) LICK (APR06) - This Afternoon                                                                          150                                
PRCFAMCHA070402132321132351000030MMM Weekdays @ 6:55 (APR06)                                                                                                 150                                
PRCFAMCHA070402132351132400000009MD Bumper - $$$ Race Cars (:08-:10) JUNE06 **DNU                                                                            150                                
PGRFAMCHA070402132400134636002236Disney's The Emperor's New School                 EP: 20                                                               6068807E                                
PRCFAMCHA070402134636134648000012MD - 06 - LILO/FILLMORE! (APR06) (:11 - :13) $$$                                                                            150                                
PROFAMCHA070402134648134710000022Fillmore! - POLLY (MD) (APR06) - This Afternoon @                                                                           150                                
PROFAMCHA070402134710134740000030xxLizzie McGuire - (Romeo) (APR06) (NSW/AM) - Week                                                                          150                                
PRCFAMCHA070402134740134756000016MD Bumper - $$$ Shopping Race (:15-:17) APR06                                                                               150                                
PRCFAMCHA070402134756134804000008CC Disclaimer - FAST - Generic (:08-:10) $$$                                                                                150                                
PGRFAMCHA070402134804141043002239Disney's Lilo & Stitch: The Series                EP: 63                                                               6068607ECC                              
PRCFAMCHA070402141043141048000005Astral ID (FEB05) $$$                                                                                                       150                                
PRCFAMCHA070402141048141100000012MD - 07 - FILLMORE!/PROUD (APR06) (:11 - :13) $$$                                                                           150                                
PROFAMCHA070402141100141122000022Fillmore! - POLLY (MD) (APR06) - coming up next                                                                             150                                
PROFAMCHA070402141122141150000028xxDave the Barbarian - WIGGIN (MD) -  This afterno                                                                          150                                
PRCFAMCHA070402141150141159000009MD Bumper - $$$ Ski Race (:07-:09) APR06                                                                                    150                                
PGRFAMCHA070402141159143437002238Disney's Fillmore!                                EPS # 1-011                                                         A6068607E                                
PRCFAMCHA070402143437143449000012MD - 08 - PROUD/WEEKENDERS (APR06) (:11 - :13) $$$                                                                          150                                
PROFAMCHA070402143449143523000034Proud Family (APR06) GET BURNED (MD) - Coming Up N                                                                          150                                
PROFAMCHA070402143523143557000034xxJordan Pruitt CD (Avail Now) (Mar19-Apr 8) $$$ (                                                                          150                                
PRCFAMCHA070402143557143606000009MD Bumper - $$$ Race Cars (:08-:10) JUNE06 **DNU                                                                            150                                
ID FAMCHA070402143606143614000008Magic of Disney - MAD DASH - Wipe (:06-:09) $$$                                                                             150                                
PGRFAMCHA070402143614145847002233The Proud Family                                  EPS # 2-024                                                         A6068607E                                
PRCFAMCHA070402145847145852000005Astral ID (FEB05) $$$                                                                                                       150                                
PRCFAMCHA070402145852145904000012MD - 09 - WEEKENDERS/LLOYD (APR06) (:11 - :13) $$$                                                                          150                                
PROFAMCHA070402145904145928000024xxLloyd In Space (DATE) (JUNE06) MD- This aftterno                                                                          150                                
PROFAMCHA070402145928145952000024xxMeet The Robinsons Game Blast (Avail Now) (Mar27                                                                          150                                
PROFAMCHA070402145952150009000017Mad Dash Block Open (:16-:18) APR06 $$$                                                                                     150                                
PRCFAMCHA070402150009150018000009CC Disclaimer - FAST - Generic (:08-:10) $$$                                                                                150                                
PGRFAMCHA070402150018152312002254Disney's The Weekenders                           EP: 1-002                                                           A6068607ECC                              
PRCFAMCHA070402152312152324000012MD - 10 - LLOYD/DAVE (APR06) (:11 - :13) $$$                                                                                150                                
PROFAMCHA070402152324152348000024xxLloyd In Space (DATE) (JUNE06) MD- Coming up nex                                                                          150                                
PROFAMCHA070402152348152430000042xxEragon DVD (Avail Now) (Mar20-Apr 8) $$$                                                                                  150                                
PGRFAMCHA070402152430152440000010xxMovie Surfers - Meet the Robinsons - Family ID -                                                                    A60688120                                
PRCFAMCHA070402152440152456000016MD Bumper - $$$ Shopping Race (:15-:17) APR06                                                                               150                                
PGRFAMCHA070402152456154749002253Disney's Lloyd In Space                           EP: 11                                                               6068607E                                
PRCFAMCHA070402154749154754000005Astral ID (FEB05) $$$                                                                                                       150                                
PRCFAMCHA070402154754154806000012MD - 11 - DAVE/PROUD (APR06) (:11 - :13) $$$                                                                                150                                
PROFAMCHA070402154806154834000028xxDave the Barbarian - WIGGIN (MD) -  Coming Up Ne                                                                          150                                
PROFAMCHA070402154834154906000032xxJump In DVD REVISION (Avail Apr 3) (Mar29-Apr 2)                                                                          150                                
PRCFAMCHA070402154906154920000014Family Bumpers - (Phase 1 Spring 04) - Basketball                                                                           150                                
PGRFAMCHA070402154920155050000130xxMovie Surfers - Meet the Robinsons - Now Playing                                                                    A60688120                                
PROFAMCHA070402155050155115000025xxRecess Sketches OCT 06 - THE ASSIGNMENT - Autogr                                                                          150                                
PROFAMCHA070402155115155139000024xxMeet The Robinsons Game Blast (Avail Now) (Mar27                                                                          150                                
