OFFFAMCHA000601043000060000013000                                                                                                                                                               
SO FAMCHA000601060000060011000011Sign On (oct 1)                                                                                                                                                
PROFAMCHA000601060011060016000005CC Disclaimer (oct) **DO NOT USE**                                                                                                                             
PGRFAMCHA000601060016062416002400Hello Mrs. Cherrywinkle                           Why, Oh Why, Oh Why                                           C14683A1065607ACC                              
ID FAMCHA000601062416062426000010Generic ID - Bubbles                                                                                                                                           
PROFAMCHA000601062426062531000105Adventures of Gummi Bears - Today @ 7am (MAR)                                                                                                                  
ID FAMCHA000601062531062539000008URL(1) - NEWSLETTER                                                                                                                                            
PGRFAMCHA000601062539062910000331MV Disney - Baby Mine (Alison Krauss)                                                                                  60688130                                
PRCFAMCHA000601062910062940000030Franklin - Weekdays @ 7:30am (MAR)                                                                                                                             
ID FAMCHA000601062940063000000020Morning block open play pen                                                                                                                                    
PROFAMCHA000601063000063005000005CC Disclaimer (oct) **DO NOT USE**                                                                                                                             
PGRFAMCHA000601063005065415002410Busy World Of Richard Scarry; The                 Bananas The Magician/First Horseless/Princess Hild            P24316 1065607ECC                              
ID FAMCHA000601065415065420000005Generic ID - Bubbles                                                                                                                                           
PRCFAMCHA000601065420065450000030Franklin - Weekdays @ 7:30am (MAR)                                                                                                                             
PROFAMCHA000601065450065555000105Adventures of Gummi Bears - Next (MAR)                                                                                                                         
PGRFAMCHA000601065555065805000210Music Break - Sebastian's Party Gras: Iko Iko                                                                          60686130                                
PRCFAMCHA000601065805065835000030Funshine Tour - Generic Event Promo                                                                                                                            
PRCFAMCHA000601065835065905000030Funshine Tour - Location Spot #1-3 (MAY29-JUN04)                                                                                                               
PRCFAMCHA000601065905065940000035Little Lulu Show; The - Saturday @ 6:30pm (oct1)                                                                                                               
PRCFAMCHA000601065940065950000010Morning Block menu background (flex time)                                                                                                                      
ID FAMCHA000601065950070000000010Magic of Disney - V2(sky) - KID FEMALE                                                                                                                         
PROFAMCHA000601070000070005000005CC Disclaimer (oct) **DO NOT USE**                                                                                                                             
PGRFAMCHA000601070005072244002239Adventures of the Gummi Bears; The                He Who Laughs Last                                                   6068607ECC                              
ID FAMCHA000601072244072249000005Generic ID - Bubbles                                                                                                                                           
PRCFAMCHA000601072249072324000035Little Lulu Show; The - Saturday @ 6:30pm (oct1)                                                                                                               
PRCFAMCHA000601072324072354000030Franklin - Next (MAR)                                                                                                                                          
PROFAMCHA000601072354072424000030Madeline - 8:30am on Saturday (oct)                                                                                                                            
ID FAMCHA000601072424072431000007URL(1) - FUNSTUFF                                                                                                                                              
PGRFAMCHA000601072431072857000426MV Disney - Love Will Find A Way (oct)                                                                                 60688130                                
PROFAMCHA000601072857072919000022Disney's One Too - Today @ 4:30 (Oct 1)                                                                                                                        
PROFAMCHA000601072919072940000021Recess - Today @ 5:30 pm (oct1)                                                                                                                                
ID FAMCHA000601072940073000000020Morning block open play pen                                                                                                                                    
PROFAMCHA000601073000073005000005CC Disclaimer (oct) **DO NOT USE**                                                                                                                             
PGRFAMCHA000601073005075258002253Franklin                                          Franklin's Day Off/Franklin's Homemade Cookies                P02772A1065607ECC                              
ID FAMCHA000601075258075308000010Generic ID - confetti                                                                                                                                          
PROFAMCHA000601075308075335000027Recess - Today @ 5:30 pm (oct1)                                                                                                                                
PGRFAMCHA000601075335075757000422MV Disney - True to your heart (oct 1)                                                                                 60688130                                
PRCFAMCHA000601075757075827000030Funshine Tour - Generic Event Promo                                                                                                                            
PRCFAMCHA000601075827075857000030Funshine Tour - Location Spot #1-3 (MAY29-JUN04)                                                                                                               
PROFAMCHA000601075857075927000030Out of The Box - Tuesday and Thursday @ 8:30am (oc                                                                                                             
PRCFAMCHA000601075927075940000013Morning Block menu background (flex time)                                                                                                                      
ID FAMCHA000601075940080000000020Morning block open play pen                                                                                                                                    
PGRFAMCHA000601080000081945001945Art Attack                                        1-049                                                                60686110                                
ID FAMCHA000601081945081955000010Generic ID - confetti                                                                                                                                          
PROFAMCHA000601081955082025000030Madeline - 8:30am on Saturday (oct)                                                                                                                            
PRCFAMCHA000601082025082055000030Funshine Tour - Generic Event Promo                                                                                                                            
PRCFAMCHA000601082055082125000030Funshine Tour - Location Spot #1-3 (MAY29-JUN04)                                                                                                               
PGRFAMCHA000601082125082755000630Richard Scarry - Pip Pip Goes To London                                                                         P17887 10656130                                
PROFAMCHA000601082755082825000030Crash Zone - Saturday & Sunday @ 6:30am (MAR)                                                                                                                  
PRCFAMCHA000601082825082900000035Little Lulu Show; The - Saturday @ 6:30pm (oct1)                                                                                                               
PRCFAMCHA000601082900083000000100Morning Block-(TT)- Out of the Box next/Babar/Kati                                                                                                             
PGRFAMCHA000601083000085250002250Out of the Box                                    Tube Town                                                            60686110                                
ID FAMCHA000601085250085255000005Generic ID - Couch 2                                                                                                                                           
PROFAMCHA000601085255085400000105Adventures of Gummi Bears - Monday to Friday @ 7am                                                                                                             
PROFAMCHA000601085400085500000100Morning Block-(TT)- Babar next/Katie/Billy                                                                                                                     
PROFAMCHA000601085500085505000005CC Disclaimer (oct) **DO NOT USE**                                                                                                                             
PGRFAMCHA000601085505091820002315Babar                                             The One That Got Away                                         C07575 1065607ECC                              
ID FAMCHA000601091820091830000010Generic ID - Family w/dog                                                                                                                                      
PROFAMCHA000601091830091900000030Crash Zone - Saturday & Sunday @ 6:30am (MAR)                                                                                                                  
PROFAMCHA000601091900092000000100Morning Block-(TT)- Katie next/Billy/Busy                                                                                                                      
PROFAMCHA000601092000092005000005CC Disclaimer (oct) **DO NOT USE**                                                                                                                             
PGRFAMCHA000601092005094641002636Katie And Orbie                                   The Library/Roller Skates/The Scary Movie                     C12449 1065607ECC                              
ID FAMCHA000601094641094646000005Generic ID - Fingerpaint                                                                                                                                       
ID FAMCHA000601094646094700000014URL(FAM1) - GARBAGE                                                                                                                                            
PROFAMCHA000601094700094800000100Morning Block-(TT)- Billy next/Busy/Art Attack                                                                                                                 
PROFAMCHA000601094800094805000005CC Disclaimer (oct) **DO NOT USE**                                                                                                                             
PGRFAMCHA000601094805101228002423Billy The Cat                                     Romeo And Juliet                                              B27652A1065607ECC                              
ID FAMCHA000601101228101238000010Generic ID - Hula Hoop                                                                                                                                         
PROFAMCHA000601101238101300000022Hercules - Today @ 4:30 pm (oct 1)                                                                                                                             
PROFAMCHA000601101300101400000100Morning Block-(TT)- Busy next/Art Attack/PB&J                                                                                                                  
PROFAMCHA000601101400101405000005CC Disclaimer (oct) **DO NOT USE**                                                                                                                             
PGRFAMCHA000601101405103815002410Busy World Of Richard Scarry; The                 Daylight Savings/Eager Beaver's/Pickle Car Wash               P24317 1065607ECC                              
ID FAMCHA000601103815103820000005Generic ID - Marbles                                                                                                                                           
PROFAMCHA000601103820103900000040Microsoap - Weekends @ 2:30pm (MAR)                                                                                                                            
PROFAMCHA000601103900104000000100Morning Block-(TT)- Art Attack next/PB&J/Space Cas                                                                                                             
PGRFAMCHA000601104000105524001524Art Attack                                        1-018                                                                60686110                                
ID FAMCHA000601105524105534000010Generic ID - Pink inner tube                                                                                                                                   
PROFAMCHA000601105534105604000030Out of The Box - Tuesday and Thursday @ 8:30am (oc                                                                                                             
ID FAMCHA000601105604105615000011URL - FATHER'S DAY (May 20 - June 18)                                                                                                                          
PGRFAMCHA000601105615110015000400MV Disney - We Are One (oct)                                                                                           60688130                                
PROFAMCHA000601110015110100000045PB&J Otter - Mon, Wed & Fri @ 8:30am (oct 1)                                                                                                                   
PROFAMCHA000601110100110200000100Morning Block-(TT)- PB&J next/Space Cases                                                                                                                      
PROFAMCHA000601110200110205000005CC Disclaimer (oct) **DO NOT USE**                                                                                                                             
PGRFAMCHA000601110205112427002222PB&J Otter                                        Bagpipe Blues/You Can't Come In                                     A6068607ECC                              
ID FAMCHA000601112427112437000010Generic ID - Ring around the rosie                                                                                                                             
PROFAMCHA000601112437112452000015Doug - Today @ 5:00 pm (oct1)                                                                                                                                  
PGRFAMCHA000601112452112549000057Frankenguy and the Professor - pilot                                                                                   60688130                                
ID FAMCHA000601112549112600000011URL - FATHER'S DAY (May 20 - June 18)                                                                                                                          
PROFAMCHA000601112600112700000100Morning Block-(TT)- Space Cases next                                                                                                                           
PROFAMCHA000601112700112705000005CC Disclaimer (oct) **DO NOT USE**                                                                                                                             
PGRFAMCHA000601112705115125002420Space Cases                                       The Sporting Kind                                             B22688 1165607BCC                              
ID FAMCHA000601115125115140000015Generic ID - confetti                                                                                                                                          
PROFAMCHA000601115140115240000100Morning Block-(TT)- Generic                                                                                                                                    
PROFAMCHA000601115240115319000039Goof Troop - Today @ 3pm                                                                                                                                       
PGRFAMCHA000601115319115809000450MV Disney - Circle of Life (oct 1)                                                                                     60688130                                
PROFAMCHA000601115809115850000041Honey I Shrunk the Kids (series oct) tonight @ 6pm                                                                                                             
PROFAMCHA000601115850115950000100Afternoon Block - Lion King next/Flash Forward/Cla                                                                                                             
ID FAMCHA000601115950120000000010Magic of Disney - V3(water) - TEEN MALE                                                                                                                        
PROFAMCHA000601120000120005000005CC Disclaimer (oct) **DO NOT USE**                                                                                                                             
PGRFAMCHA000601120005122234002229Lion King's Timon & Pumbaa; The                   Isle of Manhood/Puttin' on the Brits                                 6068607ECC                              
ID FAMCHA000601122234122241000007Generic ID - Whisper                                                                                                                                           
PRCFAMCHA000601122241122316000035Little Lulu Show; The - Saturday @ 6:30pm (oct1)                                                                                                               
PROFAMCHA000601122316122401000045Contest - Dig The Dinosaur                                                                                                                                     
PROFAMCHA000601122401122501000100Afternoon Block - Flash Forward next/Clarissa/Litt                                                                                                             
PROFAMCHA000601122501122506000005CC Disclaimer (oct) **DO NOT USE**                                                                                                                             
PGRFAMCHA000601122506124840002334Flash Forward                                     Mud Pack                                                      A04588 1065607ACC                              
ID FAMCHA000601124840124847000007Generic ID - Whisper                                                                                                                                           
ID FAMCHA000601124847124900000013URL(2) - SNACK                                                                                                                                                 
PROFAMCHA000601124900125000000100Afternoon Block - Clarissa next/Little Lulu/Frankl                                                                                                             
PGRFAMCHA000601125000131551002551Clarissa                                          Brain Drain                                                          2068607B                                
PROFAMCHA000601131551131651000100Afternoon Block - Little Lulu next/Franklin/Art At                                                                                                             
PROFAMCHA000601131651131656000005CC Disclaimer (oct) **DO NOT USE**                                                                                                                             
PGRFAMCHA000601131656134048002352Little Lulu Show; The                             Tiny Tot's Syrup/The Night Before Christmas/The Pi            B03815A1065607ECC                              
ID FAMCHA000601134048134103000015Generic ID - confetti                                                                                                                                          
PROFAMCHA000601134103134203000100Afternoon Block - Franklin next/Art Attack/Darkwin                                                                                                             
PROFAMCHA000601134203134208000005CC Disclaimer (oct) **DO NOT USE**                                                                                                                             
PGRFAMCHA000601134208140501002253Franklin                                          Franklin The Spy/Franklin & The Library Book                  B13642 1065607ECC                              
ID FAMCHA000601140501140508000007Generic ID - Whisper                                                                                                                                           
PROFAMCHA000601140508140538000030Bedknobs & Broomsticks - Saturday @ 8pm                                                                                                                        
PROFAMCHA000601140538140600000022Hercules - Today @ 4:30 pm (oct 1)                                                                                                                             
PROFAMCHA000601140600140700000100Afternoon Block - Art Attack next/Darkwing Duck                                                                                                                
PGRFAMCHA000601140700142223001523Art Attack                                        1-019                                                                60686110                                
ID FAMCHA000601142223142228000005Generic ID - Marbles                                                                                                                                           
PROFAMCHA000601142228142328000100Afternoon Block - Darkwing Duck next                                                                                                                           
PROFAMCHA000601142328142358000030Karate Kid (JUN2) - Friday @ 8pm                                                                                                                               
PROFAMCHA000601142358142428000030So Weird - Friday @ 7:00 pm (Oct 1)                                                                                                                            
ID FAMCHA000601142428142436000008URL(2) - TRIVIA                                                                                                                                                
PGRFAMCHA000601142436142647000211MV Disney - Right Back Where We Started From                                                                           60688130                                
PROFAMCHA000601142647142732000045Contest - Dig The Dinosaur                                                                                                                                     
PRCFAMCHA000601142732142820000048Ripley's BION - Saturday @ 11am (MAR)                                                                                                                          
PROFAMCHA000601142820142850000030Bedknobs & Broomsticks - Saturday @ 8pm                                                                                                                        
ID FAMCHA000601142850142900000010Magic of Disney - V2(sky) - TEEN FEMALE                                                                                                                        
PROFAMCHA000601142900142905000005CC Disclaimer (oct) **DO NOT USE**                                                                                                                             
PGRFAMCHA000601142905145139002234Darkwing Duck                                     Inside Binkie's Brain                                                6068607ECC                              
ID FAMCHA000601145139145144000005Generic ID - Couch 1                                                                                                                                           
PROFAMCHA000601145144145244000100Afternoon Block - Generic                                                                                                                                      
PROFAMCHA000601145244145314000030Rip Girls (JUN4) - Sunday @ 8pm                                                                                                                                
PROFAMCHA000601145314145353000039Goof Troop - Next                                                                                                                                              
PROFAMCHA000601145353145423000030Adventures of Pete & Pete - Saturday @ 10am                                                                                                                    
PGRFAMCHA000601145423145756000333MV Disney - Reflection (oct 1)                                                                                         60688130                                
PROFAMCHA000601145756145841000045Contest - Dig The Dinosaur                                                                                                                                     
PROFAMCHA000601145841145911000030Crash Zone - Saturday & Sunday @ 6:30am (MAR)                                                                                                                  
PROFAMCHA000601145911145941000030Bedknobs & Broomsticks - Saturday @ 8pm                                                                                                                        
PRCFAMCHA000601145941145950000009Morning Block menu background (flex time)                                                                                                                      
ID FAMCHA000601145950150000000010Magic of Disney - V2(sky) - TEEN MALE                                                                                                                          
PROFAMCHA000601150000150005000005CC Disclaimer (oct) **DO NOT USE**                                                                                                                             
PGRFAMCHA000601150005152249002244Goof Troop                                        You Camp Take It With You                                            6068607ECC                              
ID FAMCHA000601152249152259000010Generic ID - Hula Hoop                                                                                                                                         
PROFAMCHA000601152259152344000045Man of the House (JUN) - Sunday @ 12pm                                                                                                                         
PROFAMCHA000601152344152414000030Crash Zone - Saturday & Sunday @ 6:30am (MAR)                                                                                                                  
PGRFAMCHA000601152414152755000341MV Disney - Mambo #5                                                                                                   60688130                                
PROFAMCHA000601152755152840000045Contest - Dig The Dinosaur                                                                                                                                     
PROFAMCHA000601152840152920000040Microsoap - Weekends @ 2:30pm (MAR)                                                                                                                            
PROFAMCHA000601152920152950000030Rip Girls (JUN4) - Sunday @ 8pm                                                                                                                                
ID FAMCHA000601152950153000000010Magic of Disney - V3(water) - TEEN FEMALE                                                                                                                      
PROFAMCHA000601153000153005000005CC Disclaimer (oct) **DO NOT USE**                                                                                                                             
PGRFAMCHA000601153005155240002235Disney's Aladdin                                  The Hunted                                                           6068607ECC                              
ID FAMCHA000601155240155255000015Generic ID - confetti                                                                                                                                          
PROFAMCHA000601155255155325000030Karate Kid (JUN2) - Friday @ 8pm                                                                                                                               
PROFAMCHA000601155325155400000035Lion King's Timon & Pumbaa - next (OCT 1)                                                                                                                      
PROFAMCHA000601155400155440000040Microsoap - Weekends @ 2:30pm (MAR)                                                                                                                            
ID FAMCHA000601155440155451000011URL - FATHER'S DAY (May 20 - June 18)                                                                                                                          
PGRFAMCHA000601155451155747000256MV Disney - Strangers Like Me (oct)                                                                                    60688130                                
PROFAMCHA000601155747155832000045Contest - Dig The Dinosaur                                                                                                                                     
PRCFAMCHA000601155832155920000048Ripley's BION - Saturday @ 11am (MAR)                                                                                                                          
PROFAMCHA000601155920155950000030Bedknobs & Broomsticks - Saturday @ 8pm                                                                                                                        
ID FAMCHA000601155950160000000010Magic of Disney - Teen v/o male                                                                                                                                
PROFAMCHA000601160000160005000005CC Disclaimer (oct) **DO NOT USE**                                                                                                                             
PGRFAMCHA000601160005162246002241Lion King's Timon & Pumbaa; The                   Animal Barn/Roach Motel                                              6068607ECC                              
ID FAMCHA000601162246162251000005Generic ID - Fingerpaint                                                                                                                                       
PROFAMCHA000601162251162336000045Man of the House (JUN) - Sunday @ 12pm                                                                                                                         
PROFAMCHA000601162336162351000015Disney's One Too - Next (oct 1)                                                                                                                                
PROFAMCHA000601162351162403000012Mentors - Version 3 - Friday @ 6pm                                                                                                                             
PGRFAMCHA000601162403162554000151Disney Moments - Mickey's Birthday Party                                                                               60688130                                
PROFAMCHA000601162554162615000021Recess - Today @ 5:30 pm (oct1)                                                                                                                                
PGRFAMCHA000601162615162741000126Mix Ups - Birthday Befuddle                                                                                            60688130                                
PRCFAMCHA000601162741162811000030Funshine Tour - Generic Event Promo                                                                                                                            
PRCFAMCHA000601162811162841000030Funshine Tour - Location Spot #1-3 (MAY29-JUN04)                                                                                                               
PROFAMCHA000601162841162903000022So Weird - Friday at 7:00 pm (oct1 )                                                                                                                           
PROFAMCHA000601162903162920000017Hercules - Next (Oct 1)*                                                                                                                                       
PROFAMCHA000601162920162950000030Rip Girls (JUN4) - Sunday @ 8pm                                                                                                                                
ID FAMCHA000601162950163000000010Magic of Disney - Teen v/o female                                                                                                                              
PROFAMCHA000601163000163030000030Disney's One Too - Opening                                                                                                                                     
PGRFAMCHA000601163030165330002300Disney's Hercules                                 Hercules And The Muse of Dance                                       6068607ECC                              
ID FAMCHA000601165330165340000010Generic ID - Hula Hoop                                                                                                                                         
PROFAMCHA000601165340165410000030Karate Kid (JUN2) - Friday @ 8pm                                                                                                                               
PROFAMCHA000601165410165425000015Doug - Next (oct1)                                                                                                                                             
PROFAMCHA000601165425165455000030Crash Zone - Saturday & Sunday @ 6:30am (MAR)                                                                                                                  
PGRFAMCHA000601165455165516000021Doug Sketches - Planet One - Mayor                                                                                     60686130                                
PGRFAMCHA000601165516165638000122Disney Dinner Time(05)- Amelia Earhart (D12 only)                                                                      60686130                                
PROFAMCHA000601165638165723000045Contest - Dig The Dinosaur                                                                                                                                     
PGRFAMCHA000601165723165744000021Doug Sketches - Skeeter's Fun Science Facts - Frog                                                                     60686130                                
PGRFAMCHA000601165744165814000030Disney Magic Drawings(05)- Goofy (D12 only)                                                                            60686130                                
PGRFAMCHA000601165814165835000021Doug Sketches - Skunky's Word of the Day                                                                               60686130                                
PROFAMCHA000601165835165905000030So Weird - Friday @ 7:00 pm (Oct 1)                                                                                                                            
PROFAMCHA000601165905165935000030Bedknobs & Broomsticks - Saturday @ 8pm                                                                                                                        
PRCFAMCHA000601165935165945000010Morning Block menu background (flex time)                                                                                                                      
ID FAMCHA000601165945170000000015Afternoon block pinball open **DO NOT USE**                                                                                                                    
PROFAMCHA000601170000170030000030Disney's One Too - Opening                                                                                                                                     
PGRFAMCHA000601170030172255002225Disney's Doug                                     Doug's Marriage Madness                                              6068607E                                
ID FAMCHA000601172255172300000005Generic ID - Marbles                                                                                                                                           
PROFAMCHA000601172300172345000045Man of the House (JUN) - Sunday @ 12pm                                                                                                                         
PROFAMCHA000601172345172406000021Recess - Next (oct1)                                                                                                                                           
PROFAMCHA000601172406172501000055Generic Series Promo - Celebrate the Day w/Family                                                                                                              
PGRFAMCHA000601172501172522000021Recess Sketches - Kindergartner's Surprise - Plank                                                                     60686130                                
PGRFAMCHA000601172522172708000146Disney Magic Shop(05)- Fantastic Fruit Prediction                                                                      60686130                                
PGRFAMCHA000601172708172729000021Recess Sketches - Gretchen's Inventions - Apple Tr                                                                     60686130                                
PGRFAMCHA000601172729172759000030Disney Magic Drawings(09)- Dumbo (D12 only)                                                                            60686130                                
PGRFAMCHA000601172759172820000021Recess Sketches - The Word - Self Defence                                                                              60686130                                
PROFAMCHA000601172820172905000045Contest - Dig The Dinosaur                                                                                                                                     
PROFAMCHA000601172905172935000030Rip Girls (JUN4) - Sunday @ 8pm                                                                                                                                
PRCFAMCHA000601172935172945000010Morning Block menu background (flex time)                                                                                                                      
ID FAMCHA000601172945173000000015Afternoon block pinball open **DO NOT USE**                                                                                                                    
PROFAMCHA000601173000173030000030Disney's One Too - Opening                                                                                                                                     
PGRFAMCHA000601173030175306002236Disney's Recess                                   Good Luck Charm/Digger's Split Up                                    6068607E                                
ID FAMCHA000601175306175316000010Generic ID - Pink inner tube                                                                                                                                   
PROFAMCHA000601175316175346000030Karate Kid (JUN2) - Friday @ 8pm                                                                                                                               
PROFAMCHA000601175346175427000041Honey I Shrunk the Kids (series oct) next                                                                                                                      
PRCFAMCHA000601175427175500000033Hoze Houndz - Saturday @ 7:00pm                                                                                                                                
PGRFAMCHA000601175500175734000234MV Disney - Pocahontas 2 (oct)                                                                                         60688130                                
PRCFAMCHA000601175734175804000030Funshine Tour - Generic Event Promo                                                                                                                            
PRCFAMCHA000601175804175834000030Funshine Tour - Location Spot #1-3 (MAY29-JUN04)                                                                                                               
ID FAMCHA000601175834175845000011URL - FATHER'S DAY (May 20 - June 18)                                                                                                                          
PRCFAMCHA000601175845175920000035Misguided Angels - Tonight @ 6:45pm (MAR)                                                                                                                      
PROFAMCHA000601175920175950000030Bedknobs & Broomsticks - Saturday @ 8pm                                                                                                                        
ID FAMCHA000601175950180000000010Magic of Disney - V2(sky) - ADULT MALE                                                                                                                         
PGRFAMCHA000601180000184314004314Disney's Honey, I Shrunk The Kids: The TV Show    There's A Pox On Our House                                           6068807B                                
ID FAMCHA000601184314184329000015Generic ID - confetti                                                                                                                                          
PROFAMCHA000601184329184359000030Bedknobs & Broomsticks - Saturday @ 8pm                                                                                                                        
PROFAMCHA000601184359184429000030Rip Girls (JUN4) - Sunday @ 8pm                                                                                                                                
PRCFAMCHA000601184429184439000010Morning Block menu background (flex time)                                                                                                                      
ID FAMCHA000601184439184500000021Prime time open count down                                                                                                                                     
PROFAMCHA000601184500184505000005CC Disclaimer (oct) **DO NOT USE**                                                                                                                             
PGRFAMCHA000601184505190717002212Misguided Angels                                  Psycho                                                        A29539 1065807BCC                              
ID FAMCHA000601190717190722000005Generic ID - Couch 1                                                                                                                                           
PROFAMCHA000601190722190727000005CC Disclaimer (oct) **DO NOT USE**                                                                                                                             
PGRFAMCHA000601190727192956002229Blossom                                           A New Life - Part 1                                                  6068807ACC                              
ID FAMCHA000601192956193001000005Generic ID - soccer **DO NOT USE**                                                                                                                             
PGRFAMCHA000601193001195425002424Are You Afraid Of The Dark?                       The Tale of Watcher's Woods                                   SR0304 1066807A                                
ID FAMCHA000601195425195432000007Generic ID - Whisper                                                                                                                                           
PROFAMCHA000601195432195517000045Man of the House (JUN) - Sunday @ 12pm                                                                                                                         
PROFAMCHA000601195517195536000019So Weird - Friday @ 7:00 pm (oct1 )                                                                                                                            
PROFAMCHA000601195536195621000045Contest - Dig The Dinosaur                                                                                                                                     
ID FAMCHA000601195621195633000012URL(1) - MINI SITES                                                                                                                                            
PROFAMCHA000601195633195645000012Mentors - Version 3 - Friday @ 6pm                                                                                                                             
PRCFAMCHA000601195645195715000030Funshine Tour - Generic Event Promo                                                                                                                            
PRCFAMCHA000601195715195745000030Funshine Tour - Location Spot #1-3 (MAY29-JUN04)                                                                                                               
PROFAMCHA000601195745195817000032Sherlock Holmes - Tonight @ midnight (oct)                                                                                                                     
PROFAMCHA000601195817195909000052Great African Wildlife Rescue - Sunday at 2pm on F                                                                                                             
PROFAMCHA000601195909195939000030Rip Girls (JUN4) - Sunday @ 8pm                                                                                                                                
ID FAMCHA000601195939200000000021Move open family size movie                                                                                                                                    
PROFAMCHA000601200000200007000007Rating - G (oct )                                                                                                                                              
PGRFAMCHA000601200007213354013347Harry and the Hendersons                                                                                              A2068807D                                
ID FAMCHA000601213354213359000005Generic ID - Marbles                                                                                                                                           
PROFAMCHA000601213359213429000030Bedknobs & Broomsticks - Saturday @ 8pm                                                                                                                        
PROFAMCHA000601213429213450000021Recess - Weekdays @ 5:30 pm (oct1)                                                                                                                             
ID FAMCHA000601213450213500000010Magic of Disney - V3(water) - ADULT MALE                                                                                                                       
PROFAMCHA000601213500213505000005CC Disclaimer (oct) **DO NOT USE**                                                                                                                             
PGRFAMCHA000601213505215735002230Movie Surfers Go Inside Disney's Dinosaur                                                                             A60688110CC                              
ID FAMCHA000601215735215742000007Generic ID - Whisper                                                                                                                                           
PROFAMCHA000601215742215827000045Man of the House (JUN) - Sunday @ 12pm                                                                                                                         
PROFAMCHA000601215827215909000042Gargoyles - Tonight @ 11pm (MAR)                                                                                                                               
PROFAMCHA000601215909215939000030Rip Girls (JUN4) - Sunday @ 8pm                                                                                                                                
PRCFAMCHA000601215939215950000011Morning Block menu background (flex time)                                                                                                                      
ID FAMCHA000601215950220000000010Magic of Disney - V3(water) - ADULT FEMALE                                                                                                                     
PGRFAMCHA000601220000225319005319Disney The Fairy Tale Years                                                                                           A6068807E                                
ID FAMCHA000601225319225334000015Generic ID - confetti                                                                                                                                          
PROFAMCHA000601225334225404000030Karate Kid (JUN2) - Friday @ 8pm                                                                                                                               
PROFAMCHA000601225404225446000042Gargoyles - Next (MAR)                                                                                                                                         
PROFAMCHA000601225446225516000030So Weird - Friday @ 7:00 pm (Oct 1)                                                                                                                            
PGRFAMCHA000601225516225812000256MV Disney - Strangers Like Me (oct)                                                                                    60688130                                
PRCFAMCHA000601225812225900000048Ripley's BION - Saturday @ 5pm (MAR)                                                                                                                           
PROFAMCHA000601225900225930000030Bedknobs & Broomsticks - Saturday @ 8pm                                                                                                                        
PRCFAMCHA000601225930225939000009Morning Block menu background (flex time)                                                                                                                      
ID FAMCHA000601225939230000000021Prime time open count down                                                                                                                                     
PGRFAMCHA000601230000232258002258Gargoyles                                         Awakening - Part 5                                                   6068607E                                
ID FAMCHA000601232258232303000005Generic ID - Marbles                                                                                                                                           
PROFAMCHA000601232303232348000045Man of the House (JUN) - Sunday @ 12pm                                                                                                                         
PRCFAMCHA000601232348232418000030Are You Afraid of the Dark(MAR)- Next                                                                                                                          
PROFAMCHA000601232418232450000032Sherlock Holmes - Tonight @ midnight (oct)                                                                                                                     
ID FAMCHA000601232450232501000011URL - FATHER'S DAY (May 20 - June 18)                                                                                                                          
PGRFAMCHA000601232501232808000307MV Disney - Part of your world (oct 1)                                                                                 60688130                                
PROFAMCHA000601232808232900000052Great African Wildlife Rescue - Sunday at 2pm on F                                                                                                             
PROFAMCHA000601232900232930000030Rip Girls (JUN4) - Sunday @ 8pm                                                                                                                                
PRCFAMCHA000601232930232939000009Morning Block menu background (flex time)                                                                                                                      
ID FAMCHA000601232939233000000021Prime time open count down                                                                                                                                     
PGRFAMCHA000601233000235423002423Are You Afraid Of The Dark?                       The Tale of the Phone Police                                  SR0304 1066807A                                
ID FAMCHA000601235423235433000010Generic ID - Hula Hoop                                                                                                                                         
PROFAMCHA000601235433235503000030Karate Kid (JUN2) - Friday @ 8pm                                                                                                                               
PROFAMCHA000601235503235535000032Sherlock Holmes - Next (oct)                                                                                                                                   
PROFAMCHA000601235535235617000042Gargoyles - Friday @ 6:30pm (MAR)                                                                                                                              
PGRFAMCHA000601235617235828000211MV Disney - Right Back Where We Started From                                                                           60688130                                
ID FAMCHA000601235828235839000011URL - FATHER'S DAY (May 20 - June 18)                                                                                                                          
PROFAMCHA000601235839235909000030Adventures of Pete & Pete - Saturday @ 7:30pm                                                                                                                  
PROFAMCHA000601235909235939000030Bedknobs & Broomsticks - Saturday @ 8pm                                                                                                                        
ID FAMCHA000601235939000000000021Prime time open count down                                                                                                                                     
PROFAMCHA000601000000000005000005CC Disclaimer (oct) **DO NOT USE**                                                                                                                             
PGRFAMCHA000601000005002219002214Sherlock Holmes In The 22nd Century               1-013                                                                6068607ECC                              
ID FAMCHA000601002219002224000005Generic ID - Couch 2                                                                                                                                           
PROFAMCHA000601002224002309000045Man of the House (JUN) - Sunday @ 12pm                                                                                                                         
PROFAMCHA000601002309002339000030Crash Zone - Saturday & Sunday @ 6:30am (MAR)                                                                                                                  
PGRFAMCHA000601002339002739000400MV Disney - We Are One (oct)                                                                                           60688130                                
PROFAMCHA000601002739002809000030So Weird - Friday @ 7:00 pm (Oct 1)                                                                                                                            
PGRFAMCHA00060100280900290900010060 Seconds of Science - Flight (anywhere but D12)                                                                      60688130                                
PROFAMCHA000601002909002939000030Rip Girls (JUN4) - Sunday @ 8pm                                                                                                                                
ID FAMCHA000601002939003000000021Prime time open count down                                                                                                                                     
PGRFAMCHA000601003000005551002551Clarissa                                          Brain Drain                                                          2068607B                                
ID FAMCHA000601005551005601000010Generic ID - Family w/dog                                                                                                                                      
PROFAMCHA000601005601005631000030Karate Kid (JUN2) - Friday @ 8pm                                                                                                                               
PROFAMCHA000601005631005656000025Adventures of Pete & Pete - Saturday @ 7:30pm                                                                                                                  
PROFAMCHA000601005656005726000030Bedknobs & Broomsticks - Saturday @ 8pm                                                                                                                        
PGRFAMCHA000601005726010200000434MV Disney - A Dream is a Wish Your Heart Makes (oc                                                                     60688130                                
SO FAMCHA000601010200010212000012Sign Off (oct 1)                                                                                                                                               
OFFFAMCHA000601010212043000032748                                                                                                                                                               
OFFFAMCHA000602043000060000013000                                                                                                                                                               
SO FAMCHA000602060000060011000011Sign On (oct 1)                                                                                                                                                
PROFAMCHA000602060011060016000005CC Disclaimer (oct) **DO NOT USE**                                                                                                                             
PGRFAMCHA000602060016062416002400Hello Mrs. Cherrywinkle                           Muds And Suds                                                 C14683A1065607ACC                              
ID FAMCHA000602062416062426000010Generic ID - confetti                                                                                                                                          
PRCFAMCHA000602062426062456000030Franklin - Weekdays @ 7:30am (MAR)                                                                                                                             
PROFAMCHA000602062456062535000039Goof Troop - Today @ 3pm                                                                                                                                       
PROFAMCHA000602062535062630000055Generic Series Promo - Celebrate the Day w/Family                                                                                                              
PGRFAMCHA000602062630062830000200Disney Circle Time - The Lion & The Mouse Fable (a                                                                     60688130                                
PROFAMCHA000602062830062845000015Doug - Today @ 5:00pm (oct1)                                                                                                                                   
PROFAMCHA000602062845062930000045PB&J Otter - Mon, Wed & Fri @ 8:30am (oct 1)                                                                                                                   
PRCFAMCHA000602062930062940000010Morning Block menu background (flex time)                                                                                                                      
ID FAMCHA000602062940063000000020Morning block open play pen                                                                                                                                    
PROFAMCHA000602063000063005000005CC Disclaimer (oct) **DO NOT USE**                                                                                                                             
PGRFAMCHA000602063005065415002410Busy World Of Richard Scarry; The                 Triple A Deliveries/Stanley's Photo/Lost In Swamp             P24318 1065607ECC                              
ID FAMCHA000602065415065425000010Generic ID - Hula Hoop                                                                                                                                         
PROFAMCHA000602065425065510000045PB&J Otter - Mon, Wed & Fri @ 8:30am (oct 1)                                                                                                                   
PROFAMCHA000602065510065615000105Adventures of Gummi Bears - Next (MAR)                                                                                                                         
PGRFAMCHA000602065615065910000255Art Attack - Skateboarder                                                                                              60686130                                
PRCFAMCHA000602065910065940000030Franklin - Weekdays @ 7:30am (MAR)                                                                                                                             
PRCFAMCHA000602065940065950000010Morning Block menu background (flex time)                                                                                                                      
ID FAMCHA000602065950070000000010Magic of Disney - V3(water) - KID FEMALE                                                                                                                       
PROFAMCHA000602070000070005000005CC Disclaimer (oct) **DO NOT USE**                                                                                                                             
PGRFAMCHA000602070005072244002239Adventures of the Gummi Bears; The                Sweet & Sour Gruffi/Little Bears Lost                                6068607ECC                              
ID FAMCHA000602072244072254000010Generic ID - soccer **DO NOT USE**                                                                                                                             
PROFAMCHA000602072254072333000039Goof Troop - Today @ 3pm                                                                                                                                       
PRCFAMCHA000602072333072403000030Franklin - Next (MAR)                                                                                                                                          
PGRFAMCHA000602072403072558000155Disney Moments - Peter Pan-You Can Fly                                                                                 60688130                                
PRCFAMCHA000602072558072628000030Funshine Tour - Generic Event Promo                                                                                                                            
PRCFAMCHA000602072628072658000030Funshine Tour - Location Spot #1-3 (MAY29-JUN04)                                                                                                               
PGRFAMCHA000602072658072809000111Mix Ups - Cat in the bag                                                                                               60688130                                
ID FAMCHA000602072809072820000011URL - FATHER'S DAY (May 20 - June 18)                                                                                                                          
PRCFAMCHA000602072820072855000035Little Lulu Show; The - Saturday @ 6:30pm (oct1)                                                                                                               
PROFAMCHA000602072855072930000035Lion King's Timon & Pumbaa - wkdays @ noon (OCT 1)                                                                                                             
PRCFAMCHA000602072930072940000010Morning Block menu background (flex time)                                                                                                                      
ID FAMCHA000602072940073000000020Morning block open play pen                                                                                                                                    
PROFAMCHA000602073000073005000005CC Disclaimer (oct) **DO NOT USE**                                                                                                                             
PGRFAMCHA000602073005075258002253Franklin                                          Franklin the Fabulous/Franklin Camps Out                      P02772A1065607ECC                              
ID FAMCHA000602075258075308000010Generic ID - confetti                                                                                                                                          
PROFAMCHA000602075308075338000030Out of The Box - Tuesday and Thursday @ 8:30am (oc                                                                                                             
PROFAMCHA000602075338075408000030Madeline - 8:30am on Saturday (oct)                                                                                                                            
PROFAMCHA000602075408075438000030Crash Zone - Saturday & Sunday @ 6:30am (MAR)                                                                                                                  
PGRFAMCHA000602075438075705000227Disney Moments - Dumbo-Song Of The Roustabouts                                                                         60688130                                
PGRFAMCHA000602075705075835000130Disney Circle Time - Growing Smiles (anywhere but                                                                      60688130                                
PROFAMCHA000602075835075857000022Disney's One Too - Today @ 4:30 (Oct 1)                                                                                                                        
PRCFAMCHA000602075857075930000033Hoze Houndz - Saturday @ 7:00pm                                                                                                                                
PRCFAMCHA000602075930075940000010Morning Block menu background (flex time)                                                                                                                      
ID FAMCHA000602075940080000000020Morning block open play pen                                                                                                                                    
PGRFAMCHA000602080000082007002007Art Attack                                        1-050                                                                60686110                                
ID FAMCHA000602082007082017000010Generic ID - Hula Hoop                                                                                                                                         
PROFAMCHA000602082017082038000021Recess - Today @ 5:30 pm (oct1)                                                                                                                                
ID FAMCHA000602082038082049000011URL - FATHER'S DAY (May 20 - June 18)                                                                                                                          
PROFAMCHA000602082049082128000039Goof Troop - Today @ 3pm                                                                                                                                       
PGRFAMCHA000602082128082757000629Richard Scarry (ii) Newspaper Mom                                                                               P19590 10656130                                
PROFAMCHA000602082757082827000030Crash Zone - Saturday & Sunday @ 6:30am (MAR)                                                                                                                  
PRCFAMCHA000602082827082900000033Hoze Houndz - Saturday @ 7:00pm                                                                                                                                
PRCFAMCHA000602082900083000000100Morning Block-(MWF)- PB&J next/Babar/Katie                                                                                                                     
PROFAMCHA000602083000083005000005CC Disclaimer (oct) **DO NOT USE**                                                                                                                             
PGRFAMCHA000602083005085226002221PB&J Otter                                        Go Away Gorilla/Mama For A Day                                      A6068607ECC                              
ID FAMCHA000602085226085236000010Generic ID - Pink inner tube                                                                                                                                   
PROFAMCHA000602085236085315000039Goof Troop - Today @ 3pm                                                                                                                                       
PROFAMCHA000602085315085345000030Generic Series Promo - There's Always Something On                                                                                                             
PROFAMCHA000602085345085400000015Doug - Today @ 5:00pm (oct1)                                                                                                                                   
PROFAMCHA000602085400085500000100Morning Block-(MWF)- Babar next/Katie/Billy                                                                                                                    
PROFAMCHA000602085500085505000005CC Disclaimer (oct) **DO NOT USE**                                                                                                                             
PGRFAMCHA000602085505091819002314Babar                                             Every Basket Has A Silver Lining                              C07575 1065607ECC                              
ID FAMCHA000602091819091826000007Generic ID - Whisper                                                                                                                                           
PROFAMCHA000602091826091847000021Recess - Today @ 5:30 pm (oct1)                                                                                                                                
ID FAMCHA000602091847091900000013URL(2) - SNACK                                                                                                                                                 
PROFAMCHA000602091900092000000100Morning Block-(MWF)- Katie next/Billy/Busy                                                                                                                     
PROFAMCHA000602092000092005000005CC Disclaimer (oct) **DO NOT USE**                                                                                                                             
PGRFAMCHA000602092005094640002635Katie And Orbie                                   Flying High/The Block Castle/Wet!                             C12449 1065607ECC                              
ID FAMCHA000602094640094645000005Generic ID - Couch 2                                                                                                                                           
PROFAMCHA000602094645094700000015Doug - Today @ 5:00pm (oct1)                                                                                                                                   
PROFAMCHA000602094700094800000100Morning Block-(MWF)- Billy next/Busy/Art Attack                                                                                                                
PROFAMCHA000602094800094805000005CC Disclaimer (oct) **DO NOT USE**                                                                                                                             
PGRFAMCHA000602094805101227002422Billy The Cat                                     Wok On The Wild Side                                          B27653A1065607ECC                              
ID FAMCHA000602101227101234000007Generic ID - Whisper                                                                                                                                           
PROFAMCHA000602101234101251000017Hercules - Today @ 4:30 pm (Oct 1)                                                                                                                             
ID FAMCHA000602101251101300000009URL(FAM1) - ALLOWANCE                                                                                                                                          
PROFAMCHA000602101300101400000100Morning Block-(MWF)- Busy next/Art Attack/Out of t                                                                                                             
PROFAMCHA000602101400101405000005CC Disclaimer (oct) **DO NOT USE**                                                                                                                             
PGRFAMCHA000602101405103815002410Busy World Of Richard Scarry; The                 Mr. Fixit's Super/Cahuchu's Magic/Mr. Bean's Resta            P24319 1065607ECC                              
ID FAMCHA000602103815103825000010Generic ID - Bubbles                                                                                                                                           
PROFAMCHA000602103825103900000035Lion King's Timon & Pumbaa - wkdays @ noon (OCT 1)                                                                                                             
PROFAMCHA000602103900104000000100Morning Block-(MWF)- Art Attack next/Out of the Bo                                                                                                             
PGRFAMCHA000602104000105533001533Art Attack                                        1-020                                                                60686110                                
ID FAMCHA000602105533105543000010Generic ID - Family w/dog                                                                                                                                      
PROFAMCHA000602105543105622000039Goof Troop - Today @ 3pm                                                                                                                                       
PGRFAMCHA000602105622110000000338Art Attack - Merry-Go-Round Horse                                                                                      60686130                                
PRCFAMCHA000602110000110030000030Funshine Tour - Generic Event Promo                                                                                                                            
PRCFAMCHA000602110030110100000030Funshine Tour - Location Spot #1-3 (MAY29-JUN04)                                                                                                               
PROFAMCHA000602110100110200000100Morning Block-(MWF)- Out of the Box next/Space Cas                                                                                                             
PGRFAMCHA000602110200112430002230Out of the Box                                    High Fliers                                                          60686110                                
ID FAMCHA000602112430112440000010Generic ID - confetti                                                                                                                                          
PROFAMCHA000602112440112535000055Generic Series Promo - Celebrate the Day w/Family                                                                                                              
PROFAMCHA000602112535112600000025Adventures of Pete & Pete - Saturday @ 10am                                                                                                                    
PROFAMCHA000602112600112700000100Morning Block-(MWF)- Space Cases next                                                                                                                          
PROFAMCHA000602112700112705000005CC Disclaimer (oct) **DO NOT USE**                                                                                                                             
PGRFAMCHA000602112705115125002420Space Cases                                       Long Distance Calls                                           B22689 1165607BCC                              
ID FAMCHA000602115125115135000010Generic ID - Hula Hoop                                                                                                                                         
PROFAMCHA000602115135115235000100Morning Block-(MWF)- Generic                                                                                                                                   
ID FAMCHA000602115235115246000011URL - FATHER'S DAY (May 20 - June 18)                                                                                                                          
PROFAMCHA000602115246115316000030Rip Girls (JUN4) - Sunday @ 8pm                                                                                                                                
PGRFAMCHA000602115316115726000410MV Disney - Colours of the wind (oct 1)                                                                                60688130                                
PROFAMCHA000602115726115805000039Goof Troop - Today @ 3pm                                                                                                                                       
PROFAMCHA000602115805115820000015Doug - Today @ 5:00pm (oct1)                                                                                                                                   
PROFAMCHA000602115820115850000030Madeline - 8:30am on Saturday (oct)                                                                                                                            
PROFAMCHA000602115850115950000100Afternoon Block - Lion King next/Flash Forward/Cla                                                                                                             
ID FAMCHA000602115950120000000010Magic of Disney - V2(sky) - KID MALE                                                                                                                           
PROFAMCHA000602120000120005000005CC Disclaimer (oct) **DO NOT USE**                                                                                                                             
PGRFAMCHA000602120005122242002237Lion King's Timon & Pumbaa; The                   Shopping Mauled/Library Brouhaha                                     6068607ECC                              
ID FAMCHA000602122242122249000007Generic ID - Whisper                                                                                                                                           
PRCFAMCHA000602122249122319000030Funshine Tour - Generic Event Promo                                                                                                                            
PRCFAMCHA000602122319122349000030Funshine Tour - Location Spot #1-3 (MAY29-JUN04)                                                                                                               
ID FAMCHA000602122349122400000011URL - FATHER'S DAY (May 20 - June 18)                                                                                                                          
PROFAMCHA000602122400122500000100Afternoon Block - Flash Forward next/Clarissa/Litt                                                                                                             
PROFAMCHA000602122500122505000005CC Disclaimer (oct) **DO NOT USE**                                                                                                                             
PGRFAMCHA000602122505124839002334Flash Forward                                     Just Friends                                                  A04589 1065607ACC                              
ID FAMCHA000602124839124849000010Generic ID - Hula Hoop                                                                                                                                         
ID FAMCHA000602124849124900000011URL - FATHER'S DAY (May 20 - June 18)                                                                                                                          
PROFAMCHA000602124900125000000100Afternoon Block - Clarissa next/Little Lulu/Frankl                                                                                                             
PGRFAMCHA000602125000131528002528Clarissa                                          Clarissa Makes a Cake                                                2068607B                                
PROFAMCHA000602131528131628000100Afternoon Block - Little Lulu next/Franklin/Art At                                                                                                             
PROFAMCHA000602131628131633000005CC Disclaimer (oct) **DO NOT USE**                                                                                                                             
PGRFAMCHA000602131633134025002352Little Lulu Show; The                             Space Kids/Case of Disappearing Drum/From Hero to             B03816A1065607ECC                              
ID FAMCHA000602134025134030000005Generic ID - Marbles                                                                                                                                           
PROFAMCHA000602134030134100000030Crash Zone - Saturday & Sunday @ 6:30am (MAR)                                                                                                                  
PROFAMCHA000602134100134200000100Afternoon Block - Franklin next/Art Attack/Darkwin                                                                                                             
PROFAMCHA000602134200134205000005CC Disclaimer (oct) **DO NOT USE**                                                                                                                             
PGRFAMCHA000602134205140458002253Franklin                                          Franklin's Kite/Franklin & The Babysitter                     B13643 1065607ECC                              
ID FAMCHA000602140458140508000010Generic ID - Bubbles                                                                                                                                           
PRCFAMCHA000602140508140543000035Little Lulu Show; The - Saturday @ 6:30pm (oct1)                                                                                                               
PROFAMCHA000602140543140600000017Mentors - Version 2 - Tonight @ 6pm                                                                                                                            
PROFAMCHA000602140600140700000100Afternoon Block - Art Attack next/Darkwing Duck                                                                                                                
PGRFAMCHA000602140700142216001516Art Attack                                        1-021                                                                60686110                                
ID FAMCHA000602142216142226000010Generic ID - Ring around the rosie                                                                                                                             
PROFAMCHA000602142226142256000030Karate Kid (JUN2) - Tonight @ 8pm                                                                                                                              
PROFAMCHA000602142256142337000041Honey I Shrunk the Kids (series oct) Sunday @ 7pm                                                                                                              
PGRFAMCHA000602142337142641000304Music Break - Bobby Mcferrin: Baby                                                                                     60688130                                
PROFAMCHA000602142641142720000039Goof Troop - Today @ 3pm                                                                                                                                       
PROFAMCHA000602142720142750000030Rip Girls (JUN4) - Sunday @ 8pm                                                                                                                                
PROFAMCHA000602142750142850000100Afternoon Block - Darkwing Duck next                                                                                                                           
ID FAMCHA000602142850142900000010Magic of Disney - V3(water) - TEEN FEMALE                                                                                                                      
PROFAMCHA000602142900142905000005CC Disclaimer (oct) **DO NOT USE**                                                                                                                             
PGRFAMCHA000602142905145145002240Darkwing Duck                                     Slime Ok, You're Ok                                                  6068607ECC                              
ID FAMCHA000602145145145155000010Generic ID - Bubbles                                                                                                                                           
PROFAMCHA000602145155145255000100Afternoon Block - Generic                                                                                                                                      
PROFAMCHA000602145255145325000030Karate Kid (JUN2) - Tonight @ 8pm                                                                                                                              
PROFAMCHA000602145325145404000039Goof Troop - Next                                                                                                                                              
PROFAMCHA000602145404145426000022Mentors - Version 1 - Tonight @ 6pm                                                                                                                            
PGRFAMCHA000602145426145825000359MV Disney - Can you feel the love tonight (oct 1)                                                                      60688130                                
PROFAMCHA000602145825145850000025Adventures of Pete & Pete - Saturday @ 10am                                                                                                                    
PROFAMCHA000602145850145911000021Recess - Today @ 5:30 pm (oct1)                                                                                                                                
PROFAMCHA000602145911145941000030Bedknobs & Broomsticks - Saturday @ 8pm                                                                                                                        
PRCFAMCHA000602145941145950000009Morning Block menu background (flex time)                                                                                                                      
ID FAMCHA000602145950150000000010Magic of Disney - V3(water) - TEEN MALE                                                                                                                        
PROFAMCHA000602150000150005000005CC Disclaimer (oct) **DO NOT USE**                                                                                                                             
PGRFAMCHA000602150005152246002241Goof Troop                                        Midnight Movie Madness                                               6068607ECC                              
ID FAMCHA000602152246152251000005Generic ID - Fingerpaint                                                                                                                                       
PROFAMCHA000602152251152306000015Three Fugitives - Premiering on Friday, June 16th                                                                                                              
PROFAMCHA000602152306152341000035Lion King's Timon & Pumbaa - today @ 4:00pm (OCT 1                                                                                                             
PRCFAMCHA000602152341152411000030Funshine Tour - Generic Event Promo                                                                                                                            
PRCFAMCHA000602152411152441000030Funshine Tour - Location Spot #1-3 (MAY29-JUN04)                                                                                                               
PGRFAMCHA000602152441152840000359MV Disney - Beauty and the beast (oct 1)                                                                               60688130                                
PROFAMCHA000602152840152910000030So Weird - Tonight at 6:00 pm (oct1 )                                                                                                                          
PROFAMCHA000602152910152940000030Karate Kid (JUN2) - Tonight @ 8pm                                                                                                                              
PRCFAMCHA000602152940152950000010Morning Block menu background (flex time)                                                                                                                      
ID FAMCHA000602152950153000000010Magic of Disney - V2(sky) - TEEN FEMALE                                                                                                                        
PROFAMCHA000602153000153005000005CC Disclaimer (oct) **DO NOT USE**                                                                                                                             
PGRFAMCHA000602153005155244002239Disney's Aladdin                                  Riders Redux                                                         6068607ECC                              
ID FAMCHA000602155244155254000010Generic ID - Pink inner tube                                                                                                                                   
PROFAMCHA000602155254155324000030Bedknobs & Broomsticks - Saturday @ 8pm                                                                                                                        
ID FAMCHA000602155324155335000011URL - FATHER'S DAY (May 20 - June 18)                                                                                                                          
PROFAMCHA000602155335155410000035Lion King's Timon & Pumbaa - next (OCT 1)                                                                                                                      
PROFAMCHA000602155410155502000052Great African Wildlife Rescue - Sunday at 2pm on F                                                                                                             
PGRFAMCHA000602155502155904000402MV Disney - A Whole New World (oct)                                                                                    60688130                                
PROFAMCHA000602155904155926000022So Weird - Tonight at 7:00 pm (oct1 )                                                                                                                          
PROFAMCHA000602155926155941000015Three Fugitives - Premiering on Friday, June 16th                                                                                                              
PRCFAMCHA000602155941155950000009Morning Block menu background (flex time)                                                                                                                      
ID FAMCHA000602155950160000000010Magic of Disney - V2(sky) - TEEN MALE                                                                                                                          
PROFAMCHA000602160000160005000005CC Disclaimer (oct) **DO NOT USE**                                                                                                                             
PGRFAMCHA000602160005162244002239Lion King's Timon & Pumbaa; The                   Monster Massachusetts/Handle with Caribbean                          6068607ECC                              
ID FAMCHA000602162244162254000010Generic ID - soccer **DO NOT USE**                                                                                                                             
PROFAMCHA000602162254162309000015Three Fugitives - Premiering on Friday, June 16th                                                                                                              
PROFAMCHA000602162309162331000022Disney's One Too - Next (Oct 1)                                                                                                                                
PGRFAMCHA00060216233116243100010060 Seconds of Science - Siphons(12) (anywhere but                                                                      60688130                                
PROFAMCHA000602162431162512000041Honey I Shrunk the Kids (series oct) Sunday @ 7pm                                                                                                              
PGRFAMCHA000602162512162836000324Art Attack - Baby Chicks                                                                                               60686130                                
PROFAMCHA000602162836162858000022Mentors - Version 1 - Tonight @ 6pm                                                                                                                            
PROFAMCHA000602162858162920000022Hercules - Next (oct 1)*                                                                                                                                       
PROFAMCHA000602162920162950000030Karate Kid (JUN2) - Tonight @ 8pm                                                                                                                              
ID FAMCHA000602162950163000000010Magic of Disney - V3(water) - TEEN FEMALE                                                                                                                      
PROFAMCHA000602163000163030000030Disney's One Too - Opening                                                                                                                                     
PGRFAMCHA000602163030165326002256Disney's Hercules                                 Hercules And The Green Eyed Monster                                  6068607ECC                              
ID FAMCHA000602165326165336000010Generic ID - Hula Hoop                                                                                                                                         
PROFAMCHA000602165336165406000030Karate Kid (JUN2) - Tonight @ 8pm                                                                                                                              
PROFAMCHA000602165406165421000015Doug - Next (oct1)                                                                                                                                             
PROFAMCHA000602165421165503000042Gargoyles - Tonight @ 6:30pm (MAR)                                                                                                                             
PGRFAMCHA000602165503165524000021Doug Sketches - A Very Expensive Moment with Bud D                                                                     60686130                                
PGRFAMCHA000602165524165554000030Disney Magic Drawings(06)- Tinkerbell (D12 only)                                                                       60686130                                
