SO FAMCHA120901043000043011000011Sign On (oct 1)                                                                                                                                                
PGRFAMCHA120901043011045416002405Henry's World                                     EPS # 2-021                                                   B81052 1065607ECC                              
ID FAMCHA120901045416045421000005Astral ID (HD) (Jan2011)                                                                                                    150                                
PROFAMCHA120901045421045453000032D-JR Icon Story - SWOBB - Silly Song Part 1 - Comi                                                                          150                                
PROFAMCHA120901045453045523000030D-JR Promo - On demand online REVISED - D-JR.ca (M                                                                          150                                
PROFAMCHA120901045523045533000010D-JR - Short Open (:10) (May2011)                                                                                           150                                
PROFAMCHA120901045533045803000230PH-D Short - Whiffle & Fuzz - 08 - Puppy (Jan10)                                                                            150                                
PROFAMCHA120901045803045809000006D-JR - Short Close (:06) (May2011)                                                                                          150                                
PROFAMCHA120901045809045841000032D-JR Promo - Stella and Sam - Get more on the chan                                                                          150                                
PROFAMCHA120901045841045911000030D-JR Promo - MMCH - Get more MMCH on D-JR the chan                                                                          150                                
PROFAMCHA120901045911045942000031D-JR Icon Story - SWOBB - Silly Song Part 2 - Now                                                                           150                                
PROFAMCHA120901045942045950000008D-JR - Flex ID - Yellow (:6-:10) (Feb2012)                                                                                  150                                
PGRFAMCHA120901045950052227002237The Secret World of Benjamin Bear                 EPS # 1-013                                                   B75158 1065607ECC                              
PROFAMCHA120901052227052234000007D-JR Live Action ID - Harry & His Dinosaurs - Comi                                                                          150                                
PROFAMCHA120901052234052259000025D-JR Live Action ID - #49 Making Lunch Routine (Ma                                                                          150                                
PROFAMCHA120901052259052329000030D-JR Promo - On demand online REVISED - D-JR.ca (M                                                                          150                                
PROFAMCHA120901052329052339000010D-JR - Short Open (:10) (May2011)                                                                                           150                                
PROFAMCHA120901052339052639000300PH-D Short - Mickey Mousekersize Shorts - 03 - Plu                                                                          150CC                              
PROFAMCHA120901052639052645000006D-JR - Short Close (:06) (May2011)                                                                                          150                                
PROFAMCHA120901052645052712000027Doc McStuffins - Get more Doc on D-JR the channel                                                                           150                                
PROFAMCHA120901052712052737000025D-JR Promo - JATNP - Get more on the channel REV (                                                                          150                                
PROFAMCHA120901052737052807000030D-JR - Standalone ID - Light Parade (May2011)                                                                               150                                
PROFAMCHA120901052807052842000035D-JR Promo - Handy Manny - Get more on the channel                                                                          150                                
PROFAMCHA120901052842052912000030D-JR Promo - MMCH - Get more MMCH on D-JR the chan                                                                          150                                
PROFAMCHA120901052912052937000025D-JR Live Action ID - #12 Feed Goldfish (May2012)                                                                           150                                
PROFAMCHA120901052937052944000007D-JR Live Action ID - Harry & His Dinosaurs - Now                                                                           150                                
PROFAMCHA120901052944052955000011D-JR - Station ID (:11) (May2011)                                                                                           150                                
PGRFAMCHA120901052955055131002136Harry and His Bucket Full of Dinosaurs            EP: 03                                                        B05022 1065607ECC                              
ID FAMCHA120901055131055137000006Astral ID (HD) (Jan2011)                                                                                                    150                                
PRCFAMCHA120901055137055223000046Phineas & Ferb Returns to Family (HD) Monday Morni                                                                          150                                
PROFAMCHA120901055223055250000027Good Luck Charlie (HD) Refresh Summer Brand - Week                                                                          150                                
PGRFAMCHA120901055250055612000322MV Disney (HD) Bridgit Mendler - Ready or Not (Aug                                                                     60685120                                
PRCFAMCHA120901055612055634000022Game Change Friday August Promo (HD) Family.ca (Au                                                                          150                                
PROFAMCHA120901055634055704000030xFrenemies (HD) Trailer CD - Today @ Noon (Jan2012                                                                          150                                
PGRFAMCHA120901055704055833000129MV Non Disney (HD) Veronica - Incompatible (March                                                                      10615120                                
PROFAMCHA120901055833055848000015Big Ticket Summer Liner (HD) Ross Lynch - Sept 7 @                                                                          150                                
PROFAMCHA120901055848055909000021Wingin It (HD) Season 2 Promo - ALEX - Coming Up N                                                                          150                                
PROFAMCHA120901055909055959000050Mattel                                                                                                                      150                                
PRCFAMCHA120901055959060012000013Family Bumper Flex (HD) Flex ID - Really Me (Apr20                                                                          150                                
PGRFAMCHA120901060012062243002231Wingin' It                                        EP: 08                                                        C32727 1065607ACD                              
PROFAMCHA120901062243062310000027Phineas & Ferb DCOM (HD) Popcorn Pix - Monday Nigh                                                                          150                                
PROFAMCHA120901062310062353000043Gravity Falls (HD) Gruncle Stan - Weekend Mornings                                                                          150                                
PGRFAMCHA120901062353062742000349MV Non Disney (HD) Victoria Duffield - Break My He                                                                     10615120CC                              
PROFAMCHA120901062742062815000033xAustin & Ally (HD) Music Lesson - Weekend Morning                                                                          150                                
PROFAMCHA120901062815062830000015GLC (HD) Duncan Family Refresh 15s - Weekend After                                                                          150                                
PROFAMCHA120901062830062900000030Jessie (HD) Clip Promo- Scrabble - Weekend Afterno                                                                          150                                
PROFAMCHA120901062900062930000030xWOWP The Movie (HD) What's What - Tomorrow @ Noon                                                                          150                                
PROFAMCHA120901062930063000000030xSLOD (HD) Sandwich - Coming Up Next (April2012)                                                                            150                                
PRCFAMCHA120901063000063018000018Family Summer Bumper (HD) - Beach Ball (June 29-Se                                                                          150                                
PGRFAMCHA120901063018065219002201The Suite Life on Deck                            EP: 22                                                               6068607BCC                              
ID FAMCHA120901065219065224000005Astral ID (HD) (Jan2011)                                                                                                    150                                
PROFAMCHA120901065224065314000050Mattel                                                                                                                      150                                
PROFAMCHA120901065314065344000030Good Luck Charlie (HD) Duncan Family Retag - This                                                                           150                                
PGRFAMCHA120901065344065719000335MV Disney (HD) Coco & Tyler - Me and You (Let It S                                                                     60685120                                
PROFAMCHA120901065719065749000030Wingin It (HD) Bennet High Clip - This Morning @ 9                                                                          150                                
PROFAMCHA120901065749065830000041xAustin & Ally (HD) Music Sell - Weekend Mornings                                                                           150                                
PROFAMCHA120901065830065900000030xShake It Up (HD) Cee Cee Sell - Weekend Mornings                                                                           150                                
PROFAMCHA120901065900065930000030Jessie (HD) Clip Promo- Scrabble - Tuesday Night @                                                                          150                                
PROFAMCHA120901065930065950000020Hannah (HD) Clip Promo Pasta - Coming Up Next (Aug                                                                          150                                
PROFAMCHA120901065950070020000030Phineas & Ferb Spot the Doof (HD) Friday Afternoon                                                                          150                                
PRCFAMCHA120901070020070033000013Family Bumper Flex (HD) Flex ID - WUW (May2012) (:                                                                          150                                
PGRFAMCHA120901070033072306002233Hannah Montana                                    EP: 08                                                               6068807BCC                              
PROFAMCHA120901072306072336000030Phineas & Ferb Where's Perry Pt 2 (HD) Voices- Mon                                                                          150                                
PROFAMCHA120901072336072451000115xANT Farm (HD) Music Video - Weekend Mornings @ 10                                                                          150                                
PGRFAMCHA120901072451072809000318MV Non Disney (HD) Anastasia A - Kiss and Tell (Au                                                                     10615120                                
PROFAMCHA120901072809072839000030xJessie (HD) Happy Place - Weekend Mornings @ 10:3                                                                          150                                
PRCFAMCHA120901072839072901000022Game Change Friday August Promo (HD) Family.ca (Au                                                                          150                                
PRCFAMCHA120901072901072956000055xSoccer Mom (HD) Premiers Friday September 14 @ 8:                                                                          150                                
PROFAMCHA120901072956073009000013xWOWP (HD) Alex S3 GENERIC - Coming Up Next (Jan20                                                                          150                                
PROFAMCHA120901073009073023000014Big Ticket Summer Liner (HD) Allstar Weekend - Sep                                                                          150                                
PRCFAMCHA120901073023073039000016Family Summer Bumper (HD) - Bee (June29-Sept3)                                                                              150                                
PGRFAMCHA120901073039075340002301Disney Wizards of Waverly Place                   EP: 04                                                               6068507BCC                              
ID FAMCHA120901075340075346000006Astral ID (HD) (Jan2011)                                                                                                    150                                
PROFAMCHA120901075346075416000030Phineas & Ferb Spot the Doof (HD) Friday Afternoon                                                                          150                                
PROFAMCHA120901075416075443000027Good Luck Charlie (HD) Refresh Summer Brand - Week                                                                          150                                
PROFAMCHA120901075443075512000029Jessie (HD) Clip Promo- Scrabble - Weekend Morning                                                                          150                                
PGRFAMCHA120901075512075807000255MV Non Disney (HD) Cody Simpson - Got Me Good (Jul                                                                     10615120                                
PROFAMCHA120901075807075848000041xAustin & Ally (HD) Music Sell - Weekend Mornings                                                                           150                                
PROFAMCHA120901075848075918000030xWOWP The Movie (HD) What's What - Tomorrow @ Noon                                                                          150                                
PROFAMCHA120901075918080002000044xPhineas & Ferb (HD) Lines - Coming Up Next (Apr20                                                                          150                                
PRCFAMCHA120901080002080020000018Family Bumper Flex (HD) Flex ID Version #3 (Mar201                                                                          150                                
PGRFAMCHA120901080020082253002233Disney Phineas & Ferb                             EP: 30                                                               6068607ECC                              
PROFAMCHA120901082253082320000027Phineas & Ferb DCOM (HD) Popcorn Pix - Monday Nigh                                                                          150                                
PROFAMCHA120901082320082330000010Glaxo Smith Kline                                                                                                           150                                
PROFAMCHA120901082330082357000027Good Luck Charlie (HD) Refresh Summer Brand - Week                                                                          150                                
PGRFAMCHA120901082357082522000125MV Disney (HD) Ross Lynch - Heard it on the Radio                                                                      60685120CC                              
PROFAMCHA120901082522082552000030Wingin It (HD) Bennet High Clip - This Morning @ 9                                                                          150                                
PROFAMCHA120901082552082642000050Mattel                                                                                                                      150                                
PROFAMCHA120901082642082757000115xANT Farm (HD) Music Video - Weekend Mornings @ 10                                                                          150                                
PRCFAMCHA120901082757082839000042xWUW (HD) Retag - Monday to Thursday Nights @ 9:30                                                                          150                                
PRCFAMCHA120901082839082902000023xGravity Falls (HD) Comedy Sell - Coming Up Next (                                                                          150                                
PROFAMCHA120901082902082952000050Warner Music Canada                                                                                                         150                                
PROFAMCHA120901082952083042000050Mattel                                                                                                                      150                                
PRCFAMCHA120901083042083058000016Family Summer Bumper (HD) - Popsicle (June 29-Sept                                                                          150                                
PGRFAMCHA120901083058085229002131Disney Gravity Falls                              EP: 01                                                               6068607ECC                              
ID FAMCHA120901085229085235000006Astral ID (HD) (Jan2011)                                                                                                    150                                
PROFAMCHA120901085235085245000010LU Summer 2012 (HD) GLC/Wingin It @ 9:30am (8-10)                                                                           150                                
PROFAMCHA120901085245085303000018Big Ticket Summer Liner (HD) Bridgit Mendler - Sep                                                                          150                                
PROFAMCHA120901085303085348000045Feld Entertainment                                                                                                          150                                
PROFAMCHA120901085348085418000030xFrenemies (HD) Trailer CD - Today @ Noon (Jan2012                                                                          150                                
PRCFAMCHA120901085418085440000022Really Me (HD) Keepin It Real - Tonight @ 6:30 (Ap                                                                          150                                
PGRFAMCHA120901085440085802000322MV Disney (HD) Bridgit Mendler - Ready or Not (Aug                                                                     60685120                                
PROFAMCHA120901085802085826000024Jessie (HD) Clip Promo #2 - Tuesday Night @ 8:00 (                                                                          150                                
PRCFAMCHA120901085826085848000022Game Change Friday August Promo (HD) Family.ca (Au                                                                          150                                
PROFAMCHA120901085848085918000030Good Luck Charlie (HD) Duncan Family Refresh - Com                                                                          150                                
PROFAMCHA120901085918085948000030The Canada Group                                                                                                            150                                
PRCFAMCHA120901085948090034000046Phineas & Ferb Returns to Family (HD) Monday Morni                                                                          150                                
PRCFAMCHA120901090034090048000014Family Bumper Flex (HD) Flex ID - Really Me Chest                                                                           150                                
PGRFAMCHA120901090048092438002350Good Luck Charlie                                 EP: 01                                                               6068807BCC                              
PROFAMCHA120901092438092508000030Phineas & Ferb Where's Perry Pt 2 (HD) Voices- Mon                                                                          150                                
PROFAMCHA120901092508092558000050Warner Music Canada                                                                                                         150                                
PROFAMCHA120901092558092628000030xFrenemies (HD) Trailer CD - Today @ Noon (Jan2012                                                                          150                                
PROFAMCHA120901092628092701000033xAustin & Ally (HD) Music Lesson - Weekend Morning                                                                          150                                
PROFAMCHA120901092701092730000029Jessie (HD) Clip Promo- Scrabble - Weekend Morning                                                                          150                                
PGRFAMCHA120901092730092859000129MV Non Disney (HD) Veronica - Incompatible (March                                                                      10615120                                
PROFAMCHA120901092859092929000030Shake It Up (HD) Repack - Weekend Mornings @ 11:30                                                                          150                                
PROFAMCHA120901092929093014000045Live Nation                                                                                                                 150                                
PROFAMCHA120901093014093035000021Wingin It (HD) Season 2 Promo - DENISE - Coming Up                                                                          150                                
PRCFAMCHA120901093035093053000018Family Summer Bumper (HD) - Tennis Ball (June 29-S                                                                          150                                
PRCFAMCHA120901093053093106000013xDescriptive Video Slate (HD) (Jan 2011)                                                                                    150                                
PGRFAMCHA120901093106095335002229Wingin' It                                        EP: 14                                                        C32727 1065607ACD                              
ID FAMCHA120901095335095341000006Astral ID (HD) (Jan2011)                                                                                                    150                                
PROFAMCHA120901095341095351000010LU Summer 2012 (HD) Wingin It/ANT Farm @ 10:00am (                                                                          150                                
PROFAMCHA120901095351095421000030Phineas & Ferb Where's Perry Pt 2 (HD) Voices- Mon                                                                          150                                
PROFAMCHA120901095421095451000030Tennis Canada                                                                                                               150                                
PROFAMCHA120901095451095515000024Jessie (HD) Clip Promo #2 - Weekend Mornngs @ 10:3                                                                          150                                
PGRFAMCHA120901095515095810000255MV Non Disney (HD) Cody Simpson - Got Me Good (Jul                                                                     10615120                                
PROFAMCHA120901095810095825000015GLC (HD) Duncan Family Refresh 15s - This Afternoo                                                                          150                                
PROFAMCHA120901095825095915000050Mattel                                                                                                                      150                                
PRCFAMCHA120901095915095937000022Game Change Friday August Promo (HD) Family.ca (Au                                                                          150                                
PROFAMCHA120901095937095952000015xANT Farm (HD) Refresh Ole McDonald - Coming Up Ne                                                                          150                                
PROFAMCHA120901095952100032000040Kellogg's                                                                                                                   150                                
PROFAMCHA120901100032100047000015Big Ticket Summer Liner (HD) Ross Lynch - Sept 7 @                                                                          150                                
PRCFAMCHA120901100047100101000014Family Bumper Flex (HD) Flex ID - Really Me Chest                                                                           150                                
PGRFAMCHA120901100101102332002231Disney A.N.T. Farm                                EP: 12                                                               6068607BCC                              
PROFAMCHA120901102332102342000010LU Summer 2012 (HD) Jessie/Austin & Ally @ 11:00am                                                                          150                                
PROFAMCHA120901102342102432000050Mattel                                                                                                                      150                                
PROFAMCHA120901102432102517000045Feld Entertainment                                                                                                          150                                
PROFAMCHA120901102517102547000030xFrenemies (HD) Trailer CD - Today @ Noon (Jan2012                                                                          150                                
PGRFAMCHA120901102547102922000335MV Disney (HD) Coco & Tyler - Me and You (Let It S                                                                     60685120                                
PROFAMCHA120901102922102937000015GLC (HD) Duncan Family Refresh 15s - This Afternoo                                                                          150                                
PROFAMCHA120901102937103001000024Jessie (HD) Clip Promo #2 - Coming Up Next (Mar201                                                                          150                                
PROFAMCHA120901103001103031000030The Canada Group                                                                                                            150                                
PROFAMCHA120901103031103058000027Phineas & Ferb DCOM (HD) Popcorn Pix - Monday Nigh                                                                          150                                
PRCFAMCHA120901103058103115000017Family Bumper Flex (HD) Flex ID Version #1 (Mar201                                                                          150                                
PGRFAMCHA120901103115105450002335Disney Jessie                                     EP: 09                                                               6068807BCC                              
ID FAMCHA120901105450105455000005Astral ID (HD) (Jan2011)                                                                                                    150                                
PROFAMCHA120901105455105505000010LU Summer 2012 (HD) Austin & Ally/Shake It Up @ 11                                                                          150                                
PROFAMCHA120901105505105535000030Phineas & Ferb Spot the Doof (HD) Friday Afternoon                                                                          150                                
PROFAMCHA120901105535105620000045Parmalat                                                                                                                    150                                
PROFAMCHA120901105620105635000015GLC (HD) Duncan Family Refresh 15s - Weekend Night                                                                          150                                
PROFAMCHA120901105635105705000030xWOWP The Movie (HD) What's What - Tomorrow @ Noon                                                                          150                                
PGRFAMCHA120901105705105900000155MV Disney (HD) Phineas & Ferb DCOM - Summer (Aug20                                                                     60685120                                
PROFAMCHA120901105900105924000024Jessie (HD) Clip Promo #2 - Tuesday Night @ 8:00 (                                                                          150                                
PROFAMCHA120901105924110014000050Walt Disney Pictures                                                                                                        150                                
PROFAMCHA120901110014110047000033xAustin & Ally (HD) Music Lesson - Coming Up Next                                                                           150                                
PRCFAMCHA120901110047110103000016Family Summer Bumper (HD) - Strawberry/Lady Bug (J                                                                          150                                
PGRFAMCHA120901110103112235002132Disney Austin & Ally                              EP: 07                                                               6068807BCC                              
ID FAMCHA120901112235112240000005Astral ID (HD) (Jan2011)                                                                                                    150                                
PROFAMCHA120901112240112250000010LU Summer 2012 (HD) Shake It Up/Popcorn Pix @ Noon                                                                          150                                
PROFAMCHA120901112250112308000018Big Ticket Summer Liner (HD) Bridgit Mendler - Sep                                                                          150                                
PROFAMCHA120901112308112358000050Walt Disney Pictures                                                                                                        150                                
PGRFAMCHA120901112358112716000318MV Non Disney (HD) Anastasia A - Kiss and Tell (Au                                                                     10615120                                
PROFAMCHA120901112716112746000030Good Luck Charlie (HD) Duncan Family Refresh - Wee                                                                          150                                
PROFAMCHA120901112746112816000030xShake It Up (HD) Cee Cee Sell - Coming Up Next (J                                                                          150                                
PROFAMCHA120901112816112901000045Parmalat                                                                                                                    150                                
PRCFAMCHA120901112901112947000046Phineas & Ferb Returns to Family (HD) Monday Morni                                                                          150                                
PRCFAMCHA120901112947112959000012Family Summer Bumper (HD) - Worm (June 29-Sept3)                                                                            150                                
PGRFAMCHA120901112959115317002318Disney Shake It Up                                EP: 10                                                               6068707BCC                              
ID FAMCHA120901115317115323000006Astral ID (HD) (Jan2011)                                                                                                    150                                
PROFAMCHA120901115323115333000010LU(SS) - 09 - Popcorn Pix/P&F @ 1:30pm (HD) (:9 -                                                                           150                                
PRCFAMCHA120901115333115419000046Phineas & Ferb Returns to Family (HD) Monday Morni                                                                          150                                
PROFAMCHA120901115419115509000050Walt Disney Pictures                                                                                                        150                                
PROFAMCHA120901115509115524000015GLC (HD) Duncan Family Refresh 15s - This Afternoo                                                                          150                                
PROFAMCHA120901115524115548000024Jessie (HD) Clip Promo #2 - Weekend Afternoons @ 4                                                                          150                                
PROFAMCHA120901115548115633000045Sony Pictures Home Entertainment                                                                                            150                                
PRCFAMCHA120901115633115728000055xSoccer Mom (HD) Premiers Friday September 14 @ 8:                                                                          150                                
PROFAMCHA120901115728115753000025D-JR Promo - JATNP - Get more on the channel REV (                                                                          150                                
PROFAMCHA120901115753115823000030xFrenemies (HD) Trailer CD - Coming Up Next (Jan20                                                                          150                                
PROFAMCHA120901115823115903000040Kellogg's                                                                                                                   150                                
PRCFAMCHA120901115903115925000022Game Change Friday August Promo (HD) Family.ca (Au                                                                          150                                
PRCFAMCHA120901115925115955000030Family Bumper Flex (HD) Flex ID Version #2 (Mar201                                                                          150                                
ID FAMCHA120901115955120004000009Popcorn Pix Rating Slate (HD) - G (Jan 2011)                                                                                150                                
ID FAMCHA120901120004120009000005xMagic of Disney Bumper (HD)(:5-:6) (Jan 2011)                                                                              150                                
PGRFAMCHA120901120009132703012654Frenemies                                                                                                             A6068807CCC                              
ID FAMCHA120901132703132708000005Astral ID (HD) (Jan2011)                                                                                                    150                                
PROFAMCHA120901132708132735000027Phineas & Ferb DCOM (HD) Popcorn Pix - Monday Nigh                                                                          150                                
PGRFAMCHA120901132735132830000055MV Disney (HD) Ross Lynch - Heard it on the Radio                                                                      60285120CC                              
PRCFAMCHA120901132830132852000022Game Change Friday August Promo (HD) Family.ca (Au                                                                          150                                
PROFAMCHA120901132852132919000027Doc McStuffins - Get more Doc on D-JR the channel                                                                           150                                
PROFAMCHA120901132919132943000024Phineas&Ferb (HD) Raspberry - Coming Up Next (Apr2                                                                          150                                
PRCFAMCHA120901132943132955000012Family Summer Bumper (HD) - Worm (June 29-Sept3)                                                                            150                                
PGRFAMCHA120901132955135226002231Disney Phineas & Ferb                             EP: 35                                                               6068607ECC                              
ID FAMCHA120901135226135232000006Astral ID (HD) (Jan2011)                                                                                                    150                                
PROFAMCHA120901135232135302000030Phineas & Ferb Spot the Doof (HD) Friday Afternoon                                                                          150                                
PROFAMCHA120901135302135332000030Good Luck Charlie (HD) Duncan Family Refresh - Wee                                                                          150                                
PROFAMCHA120901135332135402000030Shake It Up (HD) Repack - Weekend Afternoons @ 5:0                                                                          150                                
PGRFAMCHA120901135402135724000322MV Disney (HD) Bridgit Mendler - Ready or Not (Aug                                                                     60685120                                
PROFAMCHA120901135724135805000041xAustin & Ally (HD) Music Sell - Weekend Nights @                                                                           150                                
PRCFAMCHA120901135805135900000055xSoccer Mom (HD) Premiers Friday September 14 @ 8:                                                                          150                                
PROFAMCHA120901135900135943000043Gravity Falls (HD) Gruncle Stan - Coming Up Next (                                                                          150                                
PRCFAMCHA120901135943135955000012Family Bumper Flex (HD) Flex ID - WUW (May2012) (:                                                                          150                                
PGRFAMCHA120901135955142229002234Disney Gravity Falls                              EP: 09                                                               6068607ECC                              
PROFAMCHA120901142229142259000030Phineas & Ferb Where's Perry Pt 2 (HD) Voices- Mon                                                                          150                                
PROFAMCHA120901142259142329000030xSLOD (HD) Sandwich - Tonight @ 7:30 (April2012)                                                                            150                                
PROFAMCHA120901142329142441000112xSWAC (HD) Repack - Weekend Nights @ 8:00 (Jun2011                                                                          150                                
PGRFAMCHA120901142441142816000335MV Disney (HD) Coco & Tyler - Me and You (Let It S                                                                     60685120                                
PROFAMCHA120901142816142846000030xWOWP The Movie (HD) What's What - Tomorrow @ Noon                                                                          150                                
PROFAMCHA120901142846142929000043xANT Farm (HD) Refresh Ole McDonald (Long) - Comin                                                                          150                                
PROFAMCHA120901142929142945000016Big Ticket Summer Liner (HD) V&T - BTS Special Thi                                                                          150                                
PRCFAMCHA120901142945143003000018Family Summer Bumper (HD) - Beach Ball (June 29-Se                                                                          150                                
PGRFAMCHA120901143003145234002231Disney A.N.T. Farm                                EP: 11                                                               6068607BCC                              
PROFAMCHA120901145234145243000009LU Summer 2012 (HD) GLC/Sonny With A Chance @ 3:30                                                                          150                                
PRCFAMCHA120901145243145305000022Game Change Friday August Promo (HD) Family.ca (Au                                                                          150                                
PROFAMCHA120901145305145335000030Shake It Up (HD) Repack - Weekend Afternoons @ 5:0                                                                          150                                
PGRFAMCHA120901145335145653000318MV Non Disney (HD) Anastasia A - Kiss and Tell (Au                                                                     10615120                                
PROFAMCHA120901145653145726000033xAustin & Ally (HD) Music Lesson - Weekend Nights                                                                           150                                
PROFAMCHA120901145726145745000019SLOD (HD) Whale Clip Promo - Tonight @ 7:30 (Feb20                                                                          150                                
PROFAMCHA120901145745145815000030xWOWP The Movie (HD) What's What - Tomorrow @ Noon                                                                          150                                
PROFAMCHA120901145815145829000014Big Ticket Summer Liner (HD) Allstar Weekend - Sep                                                                          150                                
PROFAMCHA120901145829145856000027Good Luck Charlie (HD) Refresh Summer Brand - Comi                                                                          150                                
PROFAMCHA120901145856145926000030Phineas & Ferb Where's Perry Pt 2 (HD) Voices- Mon                                                                          150                                
PRCFAMCHA120901145926145944000018Family Bumper Flex (HD) Flex ID Version #3 (Mar201                                                                          150                                
PGRFAMCHA120901145944152149002205Good Luck Charlie                                 EP: 11                                                               6068807BCC                              
ID FAMCHA120901152149152154000005Astral ID (HD) (Jan2011)                                                                                                    150                                
PROFAMCHA120901152154152204000010LU Summer 2012 (HD) SWAC/Jessie @ 4:00pm (8-10)                                                                             150                                
PROFAMCHA120901152204152254000050Mattel                                                                                                                      150                                
PROFAMCHA120901152254152344000050Mattel                                                                                                                      150                                
PROFAMCHA120901152344152414000030xJessie (HD) Happy Place - This Afternoon @ 4pm (M                                                                          150                                
PGRFAMCHA120901152414152709000255MV Non Disney (HD) Cody Simpson - Got Me Good (Jul                                                                     10615120                                
PROFAMCHA120901152709152742000033xAustin & Ally (HD) Music Lesson - Tonight @ 5:30                                                                           150                                
PGRFAMCHA120901152742152852000110MV Disney (HD) Phineas & Ferb DCOM - Brand New Rea                                                                     60685120                                
PROFAMCHA120901152852152937000045xSWAC (HD) Made Up Show - Coming Up Next (Jan2011)                                                                          150                                
PROFAMCHA120901152937153004000027Phineas & Ferb DCOM (HD) Popcorn Pix - Monday Nigh                                                                          150                                
PRCFAMCHA120901153004153020000016Family Summer Bumper (HD) - Bee (June29-Sept3)                                                                              150                                
PGRFAMCHA120901153020155321002301Disney Sonny With A Chance                        EP: 21                                                               6068507BCC                              
PROFAMCHA120901155321155329000008LU Summer 2012 (HD) Jessie/WOWP @ 4:30pm (8-10)                                                                             150                                
PRCFAMCHA120901155329155415000046Phineas & Ferb Returns to Family (HD) Monday Morni                                                                          150                                
PROFAMCHA120901155415155425000010Glaxo Smith Kline                                                                                                           150                                
PROFAMCHA120901155425155455000030xShake It Up (HD) Cee Cee Sell - Weekend Afternoon                                                                          150                                
PRCFAMCHA120901155455155517000022Game Change Friday August Promo (HD) Family.ca (Au                                                                          150                                
PGRFAMCHA120901155517155837000320MV Non Disney (HD) Cody Simpson - Wish U Were Here                                                                     10615120                                
PROFAMCHA120901155837155907000030Good Luck Charlie (HD) Duncan Family Refresh - Wee                                                                          150                                
PROFAMCHA120901155907155937000030xWOWP The Movie (HD) What's What - Tomorrow @ Noon                                                                          150                                
PROFAMCHA120901155937160007000030Jessie (HD) Clip Promo- Scrabble - Coming Up Next                                                                           150                                
PRCFAMCHA120901160007160019000012Family Bumper Flex (HD) Flex ID - Wingin It (Apr20                                                                          150                                
PGRFAMCHA120901160019162310002251Disney Jessie                                     EP: 20                                                               6068807BCC                              
ID FAMCHA120901162310162316000006Astral ID (HD) (Jan2011)                                                                                                    150                                
PROFAMCHA120901162316162326000010LU(SS) - 16 - WOWP/SIU @ 5:00pm (HD) (:9 - :11) Se                                                                          150                                
PROFAMCHA120901162326162341000015Big Ticket Summer Liner (HD) Ross Lynch - Sept 7 @                                                                          150                                
PROFAMCHA120901162341162426000045Parmalat                                                                                                                    150                                
PROFAMCHA120901162426162507000041xAustin & Ally (HD) Music Sell - Weekend Mornings                                                                           150                                
PGRFAMCHA120901162507162856000349MV Non Disney (HD) Victoria Duffield - Break My He                                                                     10615120CC                              
PRCFAMCHA120901162856162918000022Game Change Friday August Promo (HD) Family.ca (Au                                                                          150                                
PROFAMCHA120901162918162941000023xWOWP (HD) Harper - Coming Up Next (Jan2011)                                                                                150                                
PROFAMCHA120901162941163011000030Phineas & Ferb Spot the Doof (HD) Friday Afternoon                                                                          150                                
PRCFAMCHA120901163011163025000014Family Summer Bumper (HD) - Mole (June 29-Sept3)                                                                            150                                
PGRFAMCHA120901163025165311002246Disney Wizards of Waverly Place                   EP: 02                                                               6068607BCC                              
PROFAMCHA120901165311165321000010LU Summer 2012 (HD) SIU/ Austin & Ally @ 5:30pm (8                                                                          150                                
PRCFAMCHA120901165321165407000046Phineas & Ferb Returns to Family (HD) Monday Morni                                                                          150                                
PROFAMCHA120901165407165437000030Tennis Canada                                                                                                               150                                
PROFAMCHA120901165437165507000030Jessie (HD) Clip Promo- Scrabble - Tuesday Night @                                                                          150                                
PGRFAMCHA120901165507165839000332MV Non Disney (HD) Shawn Hook - So Close (Aug1-Nov                                                                     10615120                                
PRCFAMCHA120901165839165921000042xWUW (HD) Retag - Monday to Thursday Nights @ 9:30                                                                          150                                
PROFAMCHA120901165921165951000030xShake It Up (HD) Cee Cee Sell - Coming Up Next (J                                                                          150                                
PRCFAMCHA120901165951170013000022Family Bumper Flex (HD) Flex ID Version #4 (Mar201                                                                          150                                
PGRFAMCHA120901170013172248002235Disney Shake It Up                                EP: 08                                                               6068707BCC                              
ID FAMCHA120901172248172253000005Astral ID (HD) (Jan2011)                                                                                                    150                                
PROFAMCHA120901172253172303000010LU Summer 2012 (HD) Austin & Ally/GLC @ 6:00pm (8-                                                                          150                                
PROFAMCHA120901172303172321000018Big Ticket Summer Liner (HD) Bridgit Mendler - Sep                                                                          150                                
PROFAMCHA120901172321172401000040Kellogg's                                                                                                                   150                                
PROFAMCHA120901172401172516000115xANT Farm (HD) Music Video - Weekend Mornings @ 10                                                                          150                                
PGRFAMCHA120901172516172837000321MV Non Disney (HD) Owl City & Carly Rae Jepsen - G                                                                     10615120                                
PROFAMCHA120901172837172852000015GLC (HD) Duncan Family Refresh 15s - Weekend After                                                                          150                                
PROFAMCHA120901172852172933000041xAustin & Ally (HD) Music Sell - Coming Up Next (M                                                                          150                                
PROFAMCHA120901172933173000000027Phineas & Ferb DCOM (HD) Popcorn Pix - Monday Nigh                                                                          150                                
PRCFAMCHA120901173000173016000016Family Summer Bumper (HD) - Popsicle (June 29-Sept                                                                          150                                
PGRFAMCHA120901173016175247002231Disney Austin & Ally                              EP: 10                                                               6068807BCC                              
PROFAMCHA120901175247175257000010LU Summer 2012 (HD) GLC/Really Me @ 6:30pm (8-10)                                                                           150                                
PROFAMCHA120901175257175347000050Mattel                                                                                                                      150                                
PROFAMCHA120901175347175432000045Parmalat                                                                                                                    150                                
PGRFAMCHA120901175432175754000322MV Disney (HD) Bridgit Mendler - Ready or Not (Aug                                                                     60685120                                
PRCFAMCHA120901175754175849000055xSoccer Mom (HD) Premiers Friday September 14 @ 8:                                                                          150                                
PROFAMCHA120901175849175919000030Good Luck Charlie (HD) Duncan Family Refresh - Com                                                                          150                                
PROFAMCHA120901175919175949000030Phineas & Ferb Spot the Doof (HD) Friday Afternoon                                                                          150                                
PRCFAMCHA120901175949180000000011Family Bumper Flex (HD) Flex ID - Wingin It (Apr20                                                                          150                                
PGRFAMCHA120901180000182234002234Good Luck Charlie                                 EP: 05                                                               6068707BCC                              
ID FAMCHA120901182234182239000005Astral ID (HD) (Jan2011)                                                                                                    150                                
PROFAMCHA120901182239182249000010LU(SS) - 20 - Really Me/WOWP @ 7:00pm (HD) (:9 - :                                                                          150                                
PROFAMCHA120901182249182319000030Phineas & Ferb Where's Perry Pt 2 (HD) Voices- Mon                                                                          150                                
PROFAMCHA120901182319182329000010Glaxo Smith Kline                                                                                                           150                                
PRCFAMCHA120901182329182352000023Gravity Falls (HD) Comedy Sell - Weekend Mornings                                                                           150                                
PROFAMCHA120901182352182422000030xJessie (HD) Happy Place - Weekend Mornings @ 10:3                                                                          150                                
PGRFAMCHA120901182422182740000318MV Non Disney (HD) Anastasia A - Kiss and Tell (Au                                                                     10615120                                
PROFAMCHA120901182740182810000030xWOWP The Movie (HD) What's What - Tomorrow @ Noon                                                                          150                                
PRCFAMCHA120901182810182832000022Really Me (HD) Keepin It Real - Coming Up Next (Ap                                                                          150                                
PROFAMCHA120901182832182912000040Kellogg's                                                                                                                   150                                
PROFAMCHA120901182912183002000050Mattel                                                                                                                      150                                
PRCFAMCHA120901183002183018000016Family Summer Bumper (HD) - Strawberry/Lady Bug (J                                                                          150                                
PGRFAMCHA120901183018185249002231Really Me                                         EP: 06                                                        C35342 1065607ACD                              
PROFAMCHA120901185249185258000009LU(SS) - 21 - WOWP/SLOD @ 7:30pm (HD) (:9 - :11) S                                                                          150                                
PROFAMCHA120901185258185343000045Feld Entertainment                                                                                                          150                                
PROFAMCHA120901185343185433000050Mattel                                                                                                                      150                                
PROFAMCHA120901185433185448000015GLC (HD) Duncan Family Refresh 15s - Weekend After                                                                          150                                
PGRFAMCHA120901185448185743000255MV Non Disney (HD) Cody Simpson - Got Me Good (Jul                                                                     10615120                                
PRCFAMCHA120901185743185805000022Game Change Friday August Promo (HD) Family.ca (Au                                                                          150                                
PROFAMCHA120901185805185819000014Big Ticket Summer Liner (HD) Allstar Weekend - Sep                                                                          150                                
PROFAMCHA120901185819185849000030xWOWP (HD) Spellbook - Coming Up Next (Oct2011)                                                                             150                                
PROFAMCHA120901185849185939000050Warner Music Canada                                                                                                         150                                
PROFAMCHA120901185939190006000027Phineas & Ferb DCOM (HD) Popcorn Pix - Monday Nigh                                                                          150                                
PRCFAMCHA120901190006190025000019Family Bumper Flex (HD) Flex ID Version #2 (Mar201                                                                          150                                
PGRFAMCHA120901190025192300002235Disney Wizards of Waverly Place                   EP: 03                                                               6068607BCC                              
ID FAMCHA120901192300192306000006Astral ID (HD) (Jan2011)                                                                                                    150                                
PROFAMCHA120901192306192316000010LU(SS) - 22 - SLOD/SWAC @ 8:00pm (HD) (:9 - :11) S                                                                          150                                
PRCFAMCHA120901192316192402000046Phineas & Ferb Returns to Family (HD) Monday Morni                                                                          150                                
PROFAMCHA120901192402192447000045Live Nation                                                                                                                 150                                
PROFAMCHA120901192447192514000027Good Luck Charlie (HD) Refresh Summer Brand - Week                                                                          150                                
PGRFAMCHA120901192514192834000320MV Non Disney (HD) Cody Simpson - Wish U Were Here                                                                     10615120                                
PROFAMCHA120901192834192853000019SLOD (HD) Whale Clip Promo - Coming Up Next (Feb20                                                                          150                                
PROFAMCHA120901192853192938000045Parmalat                                                                                                                    150                                
PROFAMCHA120901192938193028000050Mattel                                                                                                                      150                                
PRCFAMCHA120901193028193042000014Family Summer Bumper (HD) - Mole (June 29-Sept3)                                                                            150                                
PGRFAMCHA120901193042195243002201The Suite Life on Deck                            EP: 22                                                               6068607BCC                              
PROFAMCHA120901195243195313000030Phineas & Ferb Spot the Doof (HD) Friday Afternoon                                                                          150                                
PRCFAMCHA120901195313195336000023Gravity Falls (HD) Comedy Sell - Weekend Mornings                                                                           150                                
PROFAMCHA120901195336195406000030xWOWP The Movie (HD) What's What - Tomorrow @ Noon                                                                          150                                
PGRFAMCHA120901195406195741000335MV Disney (HD) Coco & Tyler - Me and You (Let It S                                                                     60685120                                
PROFAMCHA120901195741195856000115xANT Farm (HD) Music Video - Monday Night @ 8:00 (                                                                          150                                
PRCFAMCHA120901195856195938000042xWUW (HD) Retag - Monday to Thursday Nights @ 9:30                                                                          150                                
PROFAMCHA120901195938195952000014xSWAC (HD) S2 Generic - Coming Up Next (Jan2011)                                                                            150                                
PRCFAMCHA120901195952200003000011Family Bumper Flex (HD) Flex ID - Wingin It (Apr20                                                                          150                                
PGRFAMCHA120901200003202326002323Disney Sonny With A Chance                        EP: 07                                                               6068507BCC                              
ID FAMCHA120901202326202332000006Astral ID (HD) (Jan2011)                                                                                                    150                                
PROFAMCHA120901202332202342000010LU Summer 2012 (HD) So Random/Popcorn Pix @ 9:00pm                                                                          150                                
PROFAMCHA120901202342202412000030Phineas & Ferb Where's Perry Pt 2 (HD) Voices- Mon                                                                          150                                
PROFAMCHA120901202412202457000045Parmalat                                                                                                                    150                                
PROFAMCHA120901202457202512000015GLC (HD) Duncan Family Refresh 15s - Weekend After                                                                          150                                
PGRFAMCHA120901202512202844000332MV Non Disney (HD) Shawn Hook - So Close (Aug1-Nov                                                                     10615120                                
PROFAMCHA120901202844202929000045So Random (HD) Boy Sell - Coming Up Next (Sunday A                                                                          150                                
PROFAMCHA120901202929202943000014Big Ticket Summer Liner (HD) Allstar Weekend - Sep                                                                          150                                
PRCFAMCHA120901202943202955000012Family Summer Bumper (HD) - Worm (June 29-Sept3)                                                                            150                                
PGRFAMCHA120901202955205159002204So Random!                                        EP: 03                                                               6068807BCC                              
ID FAMCHA120901205159205204000005Astral ID (HD) (Jan2011)                                                                                                    150                                
PROFAMCHA120901205204205234000030Phineas & Ferb Where's Perry Pt 2 (HD) Voices- Mon                                                                          150                                
PROFAMCHA120901205234205324000050Mattel                                                                                                                      150                                
PRCFAMCHA120901205324205347000023Gravity Falls (HD) Comedy Sell - Weekend Mornings                                                                           150                                
PGRFAMCHA120901205347205736000349MV Non Disney (HD) Victoria Duffield - Break My He                                                                     10615120CC                              
PROFAMCHA120901205736205826000050Mattel                                                                                                                      150                                
PROFAMCHA120901205826205853000027Good Luck Charlie (HD) Refresh Summer Brand - Week                                                                          150                                
PROFAMCHA120901205853205923000030xWOWP The Movie (HD) What's What - Tomorrow @ Noon                                                                          150                                
PROFAMCHA120901205923205958000035D-JR Promo - Handy Manny - Get more on the channel                                                                          150                                
PROFAMCHA120901205958210016000018Big Ticket Summer Liner (HD) Bridgit Mendler - Sep                                                                          150                                
PRCFAMCHA120901210016210032000016Family Bumper Flex (HD) Flex ID - Really Me Chest                                                                           150                                
ID FAMCHA120901210032210041000009Popcorn Pix Rating Slate (HD) - G (Jan 2011)                                                                                150                                
PGRFAMCHA120901210041223728013647The Cheetah Girls II (Sing-A-Long)                                                                                    A6068807CCC                              
ID FAMCHA120901223728223743000015Popcorn Pix Block Open (HD)  (Jan2011)                                                                                      150                                
ID FAMCHA120901223743223752000009Popcorn Pix Rating Slate (HD) - G (Jan 2011)                                                                                150                                
ID FAMCHA120901223752223757000005xMagic of Disney Bumper (HD)(:5-:6) (Jan 2011)                                                                              150                                
PGRFAMCHA120901223757235651011854The Suite Life Movie                                                                                                  A6068807CCC                              
ID FAMCHA120901235651235657000006Astral ID (HD) (Jan2011)                                                                                                    150                                
PROFAMCHA120901235657235713000016Big Ticket Summer Liner (HD) V&T - BTS Special Thi                                                                          150                                
PGRFAMCHA120901235713235838000125MV Disney (HD) Ross Lynch - Heard it on the Radio                                                                      60685120CC                              
PROFAMCHA120901235838235903000025D-JR Promo - JATNP - Get more on the channel REV (                                                                          150                                
PROFAMCHA120901235903235933000030Phineas & Ferb Spot the Doof (HD) Friday Afternoon                                                                          150                                
PRCFAMCHA120901235933235955000022Family Bumper Flex (HD) Flex ID Version #1 (Mar201                                                                          150                                
PGRFAMCHA120901235955002230002235The Latest Buzz                                   EP: 19                                                        C30362 1065607BCC                              
PROFAMCHA120901002230002320000050Mattel                                                                                                                      150                                
PROFAMCHA120901002320002435000115xANT Farm (HD) Music Video - Weekend Mornings @ 10                                                                          150                                
PGRFAMCHA120901002435002730000255MV Non Disney (HD) Cody Simpson - Got Me Good (Jul                                                                     10615120                                
PRCFAMCHA120901002730002825000055xSoccer Mom (HD) Premiers Friday September 14 @ 8:                                                                          150                                
PROFAMCHA120901002825002912000047xOverruled! (HD) Refresh - Coming Up Next (Jan2011                                                                          150                                
PRCFAMCHA120901002912002958000046Phineas & Ferb Returns to Family (HD) Monday Morni                                                                          150                                
PRCFAMCHA120901002958003016000018Family Summer Bumper (HD) - Tennis Ball (June 29-S                                                                          150                                
PGRFAMCHA120901003016005249002233Overruled!                                        EP: 04                                                        C28762 1065607ACC                              
PRCFAMCHA120901005249005311000022Game Change Friday August Promo (HD) Family.ca (Au                                                                          150                                
PGRFAMCHA120901005311005636000325MV Non Disney (HD) Victoria Duffield - Feel (Apr13                                                                     10615120                                
PROFAMCHA120901005636005706000030xWOWP The Movie (HD) What's What - Tomorrow @ Noon                                                                          150                                
PRCFAMCHA120901005706005748000042xWUW (HD) Retag - Monday to Thursday Nights @ 9:30                                                                          150                                
PRCFAMCHA120901005748005843000055xSoccer Mom (HD) Premiers Friday September 14 @ 8:                                                                          150                                
PROFAMCHA120901005843005918000035xDEBRA! (HD) Hypotenuse Promo - Coming Up Next (De                                                                          150                                
PROFAMCHA120901005918005934000016Big Ticket Summer Liner (HD) V&T - BTS Special Thi                                                                          150                                
PROFAMCHA120901005934010001000027Phineas & Ferb DCOM (HD) Popcorn Pix - Monday Nigh                                                                          150                                
PRCFAMCHA120901010001010017000016Family Bumper Flex (HD) Flex ID - WUW (May2012) (:                                                                          150                                
PGRFAMCHA120901010017012248002231DEBRA!                                            EP: 01                                                        C35763 1065607ACD                              
ID FAMCHA120901012248012253000005Astral ID (HD) (Jan2011)                                                                                                    150                                
PRCFAMCHA120901012253012307000014Family Summer Bumper (HD) - Mole (June 29-Sept3)                                                                            150                                
PGRFAMCHA120901012307014540002233Disney JONAS                                      EP: 05                                                               6068507BCC                              
PRCFAMCHA120901014540014610000030Family Bumper Flex (HD) Flex ID Version #2 (Mar201                                                                          150                                
ID FAMCHA120901014610014615000005xMagic of Disney Bumper (HD)(:5-:6) (Jan 2011)                                                                              150                                
PGRFAMCHA120901014615020856002241Phil of the Future                                EPS # 11                                                             6068607BCD                              
ID FAMCHA120901020856020902000006Astral ID (HD) (Jan2011)                                                                                                    150                                
PRCFAMCHA120901020902020918000016Family Summer Bumper (HD) - Popsicle (June 29-Sept                                                                          150                                
ID FAMCHA120901020918020923000005xMagic of Disney Bumper (HD)(:5-:6) (Jan 2011)                                                                              150                                
PGRFAMCHA120901020923023418002455The Elephant Princess                             EP: 13                                                               7068507ACC                              
PROFAMCHA120901023418023428000010LU - 37 - DEREK/CORY 2:55am (HD) (:9 - :11) Jan201                                                                          150                                
PRCFAMCHA120901023428023444000016Family Bumper Flex (HD) Flex ID - WUW (May2012) (:                                                                          150                                
PGRFAMCHA120901023444025714002230Life with Derek                                   EP: 11                                                        C23968A1065607BCC                              
ID FAMCHA120901025714025720000006Astral ID (HD) (Jan2011)                                                                                                    150                                
PROFAMCHA120901025720025730000010LU - 38 - CORY/RAVEN 3:20am (HD) (:9 - :11) Jan201                                                                          150                                
PRCFAMCHA120901025730025746000016Family Summer Bumper (HD) - Strawberry/Lady Bug (J                                                                          150                                
PGRFAMCHA120901025746032022002236Disney Cory in the House                          EP: 17                                                               6068607BCC                              
PROFAMCHA120901032022032032000010LU - 39 - RAVEN/SLZC 3:40am (HD) (:9 - :11) Jan201                                                                          150                                
PRCFAMCHA120901032032032051000019Family Bumper Flex (HD) Flex ID Version #3 (Mar201                                                                          150                                
ID FAMCHA120901032051032056000005xMagic of Disney Bumper (HD)(:5-:6) (Jan 2011)                                                                              150                                
PGRFAMCHA120901032056034250002154That's So Raven                                   EP: 15                                                               6068607BCC                              
PROFAMCHA120901034250034259000009LU - 40 - SLZC/DEREK 4:05am (HD) (:9 - :11) Jan201                                                                          150                                
PRCFAMCHA120901034259034317000018Family Summer Bumper (HD) - Tennis Ball (June 29-S                                                                          150                                
ID FAMCHA120901034317034322000005xMagic of Disney Bumper (HD)(:5-:6) (Jan 2011)                                                                              150                                
PGRFAMCHA120901034322040601002239The Suite Life of Zack and Cody                   EP: 39                                                               6068607BCC                              
PROFAMCHA120901040601040611000010LU - 41 - LIFE WITH DEREK (HD) (:9 - :11) Jan2011                                                                           150                                
PRCFAMCHA120901040611040627000016Family Bumper Flex (HD) Flex ID - Really Me Chest                                                                           150                                
PGRFAMCHA120901040627042857002230Life with Derek                                   EP: 22                                                        C26822 1065607BCC                              
PROFAMCHA120901042857042922000025D-JR Promo - JATNP - Get more on the channel REV (                                                                          150                                
PROFAMCHA120901042922042949000027Doc McStuffins - Get more Doc on D-JR the channel                                                                           150                                
PROFAMCHA120901042949042959000010D-JR - Flex ID - Blue (:6-:10) (Feb2012)                                                                                    150                                
OFFFAMCHA120901042959043000000001OFF AIR                                                                                                                                                        
SO FAMCHA120902043000043011000011Sign On (oct 1)                                                                                                                                                
PGRFAMCHA120902043011045416002405Henry's World                                     EPS # 2-022                                                   B81053 1065607ECC                              
ID FAMCHA120902045416045421000005Astral ID (HD) (Jan2011)                                                                                                    150                                
PROFAMCHA120902045421045428000007D-JR Live Action ID - SWOBB - Coming Up (May2012)                                                                           150                                
PROFAMCHA120902045428045453000025D-JR Live Action ID - #49 Making Lunch Routine (Ma                                                                          150                                
PROFAMCHA120902045453045523000030D-JR Promo - On demand online REVISED - D-JR.ca (M                                                                          150                                
PROFAMCHA120902045523045529000006D-JR - Short Close (:06) (May2011)                                                                                          150                                
PROFAMCHA120902045529045758000229PH-D Short - Whiffle & Fuzz - 05 - Parrot (Jan10)                                                                           150                                
PROFAMCHA120902045758045808000010D-JR - Short Open (:10) (May2011)                                                                                           150                                
PROFAMCHA120902045808045838000030D-JR Promo - MMCH - Get more MMCH on D-JR the chan                                                                          150                                
PROFAMCHA120902045838045913000035D-JR Promo - Handy Manny - Get more on the channel                                                                          150                                
PROFAMCHA120902045913045938000025D-JR Live Action ID - #20 Calendar (May2012)                                                                                150                                
PROFAMCHA120902045938045945000007D-JR Live Action ID - SWOBB - Now (May2012)                                                                                 150                                
PROFAMCHA120902045945045955000010D-JR - Flex ID - Green (:6-:10) (Feb2012)                                                                                   150                                
PGRFAMCHA120902045955052228002233The Secret World of Benjamin Bear                 EP: 15                                                        C26066 1065607ECC                              
ID FAMCHA120902052228052233000005Astral ID (HD) (Jan2011)                                                                                                    150                                
PROFAMCHA120902052233052305000032D-JR Icon Story - Harry & His Bucket - Silly Song                                                                           150                                
PROFAMCHA120902052305052335000030D-JR Promo - On demand online REVISED - D-JR.ca (M                                                                          150                                
PROFAMCHA120902052335052345000010D-JR - Short Open (:10) (May2011)                                                                                           150                                
PROFAMCHA120902052345052645000300PH-D Short - Mickey Mousekersize Shorts - 09 - Fol                                                                          150CC                              
PROFAMCHA120902052645052651000006D-JR - Short Close (:06) (May2011)                                                                                          150                                
PROFAMCHA120902052651052718000027Doc McStuffins - Get more Doc on D-JR the channel                                                                           150                                
PROFAMCHA120902052718052743000025D-JR Promo - JATNP - Get more on the channel REV (                                                                          150                                
PROFAMCHA120902052743052818000035D-JR Promo - Handy Manny - Get more on the channel                                                                          150                                
PROFAMCHA120902052818052848000030D-JR - Standalone ID - Light Parade (May2011)                                                                               150                                
PROFAMCHA120902052848052920000032D-JR Promo - Stella and Sam - Get more on the chan                                                                          150                                
PROFAMCHA120902052920052951000031D-JR Icon Story - Harry & His Bucket - Silly Song                                                                           150                                
PROFAMCHA120902052951053001000010D-JR - Flex ID - Yellow (:6-:10) (Feb2012)                                                                                  150                                
PGRFAMCHA120902053001055139002138Harry and His Bucket Full of Dinosaurs            EP: 04                                                        B05023 1065607ECC                              
PRCFAMCHA120902055139055209000030Big Ticket Summer Concert Special (HD) Friday Nigh                                                                          150                                
PROFAMCHA120902055209055239000030xSLOD (HD) Retag - Weekend Mornings @ 6:30 (Jun201                                                                          150                                
PGRFAMCHA120902055239055509000230Fashion Frenzy Stunt MV (HD) Sunday Sept 16 Starti                                                                     60285120                                
PROFAMCHA120902055509055552000043Gravity Falls (HD) Gruncle Stan - This Morning @ 8                                                                          150                                
PROFAMCHA120902055552055622000030Jessie (HD) Clip Promo- Scrabble - This Morning @                                                                           150                                
PGRFAMCHA120902055622055747000125MV Disney (HD) Ross Lynch - Heard it on the Radio                                                                      60685120CC                              
PROFAMCHA120902055747055828000041xAustin & Ally (HD) Music Sell - This Morning @ 11                                                                          150                                
PROFAMCHA120902055828055849000021Wingin It (HD) Season 2 Promo - ALEX - Coming Up N                                                                          150                                
PRCFAMCHA120902055849055935000046Phineas & Ferb Returns to Family (HD) Tom Morning                                                                           150                                
PRCFAMCHA120902055935060005000030Family Bumper Flex (HD) Flex ID Version #3 (Mar201                                                                          150                                
PGRFAMCHA120902060005062235002230Wingin' It                                        EP: 11                                                        C32727 1065607ACD                              
PROFAMCHA120902062235062251000016Big Ticket Summer Liner (HD) V&T - BTS Special Thi                                                                          150                                
PROFAMCHA120902062251062306000015xANT Farm (HD) Refresh Ole McDonald - This Morning                                                                          150                                
PROFAMCHA120902062306062336000030xShake It Up (HD) Cee Cee Sell - Weekend Mornings                                                                           150                                
PROFAMCHA120902062336062406000030xWOWP The Movie (HD) What's What - Today @ Noon (J                                                                          150                                
PGRFAMCHA120902062406062728000322MV Disney (HD) Bridgit Mendler - Ready or Not (Aug                                                                     60685120                                
PROFAMCHA120902062728062758000030Good Luck Charlie (HD) Duncan Family Refresh - Wee                                                                          150                                
PROFAMCHA120902062758062848000050Mattel                                                                                                                      150                                
PROFAMCHA120902062848062918000030xSLOD (HD) Sandwich - Coming Up Next (April2012)                                                                            150                                
PROFAMCHA120902062918062945000027Phineas & Ferb DCOM (HD) Popcorn Pix - Tomorrow Ni                                                                          150                                
PRCFAMCHA120902062945063003000018Family Summer Bumper (HD) - Tennis Ball (June 29-S                                                                          150                                
PGRFAMCHA120902063003065136002133The Suite Life on Deck                            EP: 16                                                               6068607BCC                              
ID FAMCHA120902065136065141000005Astral ID (HD) (Jan2011)                                                                                                    150                                
PROFAMCHA120902065141065155000014Big Ticket Summer Liner (HD) Allstar Weekend - Sep                                                                          150                                
PROFAMCHA120902065155065238000043Gravity Falls (HD) Gruncle Stan - This Morning @ 8                                                                          150                                
PROFAMCHA120902065238065321000043xANT Farm (HD) Refresh Ole McDonald (Long) - This                                                                           150                                
PGRFAMCHA120902065321065653000332MV Non Disney (HD) Shawn Hook - So Close (Aug1-Nov                                                                     10615120                                
PROFAMCHA120902065653065738000045So Random (HD) Boy Sell - This Afternoon @ 3:30 (J                                                                          150                                
PRCFAMCHA120902065738065833000055xSoccer Mom (HD) Premiers Friday September 14 @ 8:                                                                          150                                
PROFAMCHA120902065833065929000056xHannah (HD) Dec Refresh - Coming Up Next (Dec2011                                                                          150                                
PROFAMCHA120902065929065959000030Phineas & Ferb Spot the Doof (HD) Friday Afternoon                                                                          150                                
PRCFAMCHA120902065959070015000016Family Bumper Flex (HD) Flex ID - WUW (May2012) (:                                                                          150                                
PGRFAMCHA120902070015072248002233Hannah Montana                                    EP: 15                                                               6068807BCC                              
ID FAMCHA120902072248072254000006Astral ID (HD) (Jan2011)                                                                                                    150                                
PROFAMCHA120902072254072312000018Big Ticket Summer Liner (HD) Bridgit Mendler - Sep                                                                          150                                
PROFAMCHA120902072312072342000030Wingin It (HD) Bennet High Clip - This Morning @ 9                                                                          150                                
PROFAMCHA120902072342072412000030xJessie (HD) Happy Place - Weekend Mornings @ 10:3                                                                          150                                
PGRFAMCHA120902072412072733000321MV Non Disney (HD) Owl City & Carly Rae Jepsen - G                                                                     10615120                                
PROFAMCHA120902072733072806000033xAustin & Ally (HD) Music Lesson - Weekend Morning                                                                          150                                
PROFAMCHA120902072806072836000030xShake It Up (HD) Cee Cee Sell - This Morning @ 11                                                                          150                                
PROFAMCHA120902072836072859000023xHigh School Musical (HD) Popcorn Pix - Saturday @                                                                          150                                
PROFAMCHA120902072859072929000030xWOWP (HD) Spellbook - Coming Up Next (Oct2011)                                                                             150                                
PROFAMCHA120902072929072959000030Phineas & Ferb Where's Perry Pt 2 (HD) Voices - To                                                                          150                                
PRCFAMCHA120902072959073011000012Family Summer Bumper (HD) - Worm (June 29-Sept3)                                                                            150                                
PGRFAMCHA120902073011075242002231Disney Wizards of Waverly Place                   EP: 06                                                               6068507BCC                              
ID FAMCHA120902075242075247000005Astral ID (HD) (Jan2011)                                                                                                    150                                
PRCFAMCHA120902075247075333000046Phineas & Ferb Returns to Family (HD) Tom Morning                                                                           150                                
PROFAMCHA120902075333075416000043Gravity Falls (HD) Gruncle Stan - This Morning @ 8                                                                          150                                
PROFAMCHA120902075416075446000030xWOWP The Movie (HD) What's What - Today @ Noon (J                                                                          150                                
PGRFAMCHA120902075446075806000320MV Non Disney (HD) Cody Simpson - Wish U Were Here                                                                     10615120                                
PROFAMCHA120902075806075833000027Good Luck Charlie (HD) Refresh Summer Brand - This                                                                          150                                
PROFAMCHA120902075833075917000044xPhineas & Ferb (HD) Lines - Coming Up Next (Apr20                                                                          150                                
PROFAMCHA120902075917075932000015Big Ticket Summer Liner (HD) Ross Lynch - Sept 7 @                                                                          150                                
PRCFAMCHA120902075932075950000018Family Bumper Flex (HD) Flex ID Version #4 (Mar201                                                                          150                                
PGRFAMCHA120902075950082223002233Disney Phineas & Ferb                             EP: 39                                                               6068607ECC                              
PRCFAMCHA120902082223082253000030Big Ticket Summer Concert Special (HD) Friday Nigh                                                                          150                                
PROFAMCHA120902082253082343000050Walt Disney Pictures                                                                                                        150                                
PROFAMCHA120902082343082413000030xWOWP The Movie (HD) What's What - Today @ Noon (J                                                                          150                                
PGRFAMCHA120902082413082802000349MV Non Disney (HD) Victoria Duffield - Break My He                                                                     10615120CC                              
PRCFAMCHA120902082802082825000023xGravity Falls (HD) Comedy Sell - Coming Up Next (                                                                          150                                
PROFAMCHA120902082825082915000050Mattel                                                                                                                      150                                
PROFAMCHA120902082915082942000027Phineas & Ferb DCOM (HD) Popcorn Pix - Tomorrow Ni                                                                          150                                
PRCFAMCHA120902082942083000000018Family Summer Bumper (HD) - Beach Ball (June 29-Se                                                                          150                                
PGRFAMCHA120902083000085134002134Disney Gravity Falls                              EP: 08                                                               6068607ECC                              
ID FAMCHA120902085134085139000005Astral ID (HD) (Jan2011)                                                                                                    150                                
PROFAMCHA120902085139085149000010LU Summer 2012 (HD) GLC/Wingin It @ 9:30am (8-10)                                                                           150                                
PROFAMCHA120902085149085205000016Big Ticket Summer Liner (HD) V&T - BTS Special Thi                                                                          150                                
PROFAMCHA120902085205085255000050Warner Music Canada                                                                                                         150                                
PROFAMCHA120902085255085325000030Wingin It (HD) Bennet High Clip - This Morning @ 9                                                                          150                                
PROFAMCHA120902085325085408000043xANT Farm (HD) Refresh Ole McDonald (Long) - Weeke                                                                          150                                
