SO FAMCHA030101043000043011000011Sign On (oct 1)                                                                                                                                                
PROFAMCHA030101043011043020000009CC Disclaimer - FAST - Click Club (:08-:10) **DNU*                                                                          150                                
PGRFAMCHA030101043020045352002332Little Lulu Show; The                             You Do the Math, Great Escape, The Little Lola Sho            B20209A1065607ECC                              
PROFAMCHA030101045352045405000013PS-01- Playhouse - ART/KATIE/FRANKLIN (:13-:16)                                                                             150                                
OFFFAMCHA030101045405045415000010PS Playhouse Block Open (:10-:15)                                                                                                                              
PGRFAMCHA030101045415050905001450Art Attack                                        1-127                                                               A60686110                                
PROFAMCHA030101050905050919000014PS-02- Playhouse - KATIE/FRANKLIN/HOZE (:13-:16)                                                                            150                                
PROFAMCHA030101050919050952000033Stanley (CAT BATH) - Today @ 9:35am                                                                                         150                                
INTFAMCHA030101050952051310000318MV Disney - Can't Help Falling In Love                                                                                 60688120                                
PRCFAMCHA030101051310051348000038Henry's World (PARTY) - Weekends @ 6:40pm                                                                                   150                                
OFFFAMCHA030101051348051400000012PS Playhouse Block Open (:10-:15)                                                                                                                              
PROFAMCHA030101051400051409000009CC Disclaimer - FAST - Family (:08-:10)                                                                                     150                                
PGRFAMCHA030101051409054044002635Katie And Orbie                                   The Movie/Nasty Night/Dashing Through The Snow                C11896A1065607ECC                              
PROFAMCHA030101054044054058000014PS-03- Playhouse - FRANKLIN/HOZE/LULU (:13-:16)                                                                             150                                
PROFAMCHA030101054058054148000050Art Attack (BASEBALL) - Weekends @ 3pm                                                                                      150                                
OFFFAMCHA030101054148054200000012PS Playhouse Block Open (:10-:15)                                                                                                                              
PROFAMCHA030101054200054208000008CC Disclaimer - FAST - Family.ca (:08-:10)                                                                                  150                                
PGRFAMCHA030101054208060501002253Franklin                                          Franklin Rides A Bike/Franklin Is Messy                       B10184A1065607ECC                              
PROFAMCHA030101060501060515000014PS-04- Playhouse - HOZE/LULU (:13-:16)                                                                                      150                                
PRCFAMCHA030101060515060547000032Henry's World (WISH) - Weekends @ 6:40pm                                                                                    150                                
OFFFAMCHA030101060547060600000013PS Playhouse Block Open (:10-:15)                                                                                                                              
PROFAMCHA030101060600060609000009CC Disclaimer - FAST - Click Club (:08-:10) **DNU*                                                                          150                                
PGRFAMCHA030101060609062844002235Hoze Houndz                                       The Day The Houndz Stood Still/Poeticize                      B34013A1065607ECC                              
PROFAMCHA030101062844062856000012PS-05- Playhouse - LULU (:10-:13)                                                                                           150                                
PROFAMCHA030101062856062946000050Art Attack (BASEBALL) - Weekends @ 3pm                                                                                      150                                
OFFFAMCHA030101062946063000000014PS Playhouse Block Open (:10-:15)                                                                                                                              
PROFAMCHA030101063000063009000009CC Disclaimer - FAST - Generic (:08-:10)                                                                                    150                                
PGRFAMCHA030101063009065340002331Little Lulu Show; The                             Iggy and the Ice Cream Factory, Game Show Gaffe, A            B20198A1065607ECC                              
PROFAMCHA030101065340065354000014PS-06- Power Box - BUZZ/PRLR/PRWF (:13-:16)                                                                                 150                                
PROFAMCHA030101065354065409000015New Year's Day - Today, Starting @ 11:15am                                                                                  150                                
PROFAMCHA030101065409065439000030Mad Dash Block Promo - Today from 3pm to 6pm                                                                                150                                
INTFAMCHA030101065439065854000415MV Disney - You'll Be In My Heart (PHIL COLLINS)                                                                       60688120                                
PROFAMCHA030101065854065916000022xxTeamo Supremo (PIE) - Weekends @ 5pm                                                                                      150                                
PROFAMCHA030101065916065946000030xxKim Possible (GENERIC) - Weekends @ 4:35pm                                                                                150                                
OFFFAMCHA030101065946070000000014Power Box Block Open (:10-:15)                                                                                                                                 
PROFAMCHA030101070000070009000009CC Disclaimer - FAST - Family (:08-:10)                                                                                     150                                
PGRFAMCHA030101070009072232002223Disney/Pixar's Buzz Lightyear of Star Command     First Missions                                                       6068607ECC                              
PROFAMCHA030101072232072246000014PS-07- Power Box - PRLR/PRWF/HOM (:13-:16)                                                                                  150                                
PROFAMCHA030101072246072301000015New Year's Day - Today, Starting @ 11:15am                                                                                  150                                
PROFAMCHA030101072301072331000030Mad Dash Block Promo - Today from 3pm to 6pm                                                                                150                                
INTFAMCHA030101072331072501000130Klootz - Espace 01                                                                                                    A10658120                                
PROFAMCHA030101072501072528000027Pepper Ann (WHO IS SHE?) - Today @ 3:50pm                                                                                   150                                
INTFAMCHA030101072528072923000355Art Attack - Soccer Goalie                                                                                             60686120                                
PROFAMCHA030101072923072946000023Proud Family (HERO) - Weekends @ 4:10pm                                                                                     150                                
OFFFAMCHA030101072946073000000014PS Power Box Block Open (:10-:15)                                                                                                                              
PGRFAMCHA030101073000075128002128Power Rangers Lightspeed Rescue                   Operation Lightspeed                                                A6028607E                                
PROFAMCHA030101075128075141000013PS-08- Power Box - PRWF/HOM (:10-:13)                                                                                       150                                
PROFAMCHA030101075141075156000015New Year's Day - Today, Starting @ 11:15am                                                                                  150                                
PROFAMCHA030101075156075241000045Lizzie McGuire (MAGIC TRICK) - Today @ 5:35pm                                                                               150                                
INTFAMCHA030101075241075411000130Klootz - Olympics 02                                                                                                  A10658120                                
PROFAMCHA030101075411075434000023Your Big Break (B-52) - Sunday @ 8pm                                                                                        150                                
INTFAMCHA030101075434075845000411MV Disney - I'm Still Here **DNU***                                                                                    60688120                                
PROFAMCHA030101075845075945000100Amanda Show (UNDERPANTS) - Tonight @ 6pm                                                                                    150                                
OFFFAMCHA030101075945080000000015PS Power Box Block Open (:10-:15)                                                                                                                              
PGRFAMCHA030101080000082126002126Power Rangers Wild Force                          Lionheart                                                           A6068607E                                
PROFAMCHA030101082126082136000010PS-09- Power Box - HOM (:08-:11)                                                                                            150                                
PROFAMCHA030101082136082151000015New Year's Day - Today, Starting @ 11:15am                                                                                  150                                
INTFAMCHA030101082151082321000130Klootz - Espace 02                                                                                                    A10658120                                
PROFAMCHA030101082321082333000012Buzz Lightyear (SPACE RANGER) - Today @ 3:25pm                                                                              150                                
PROFAMCHA030101082333082423000050Art Attack (BASEBALL) - Weekends @ 3pm                                                                                      150                                
PROFAMCHA030101082423082447000024Legend of Tarzan (S.O.S) - Today @ 4:15pm                                                                                   150                                
OFFFAMCHA030101082447082500000013PS Power Box Block Open (:10-:15)                                                                                                                              
PROFAMCHA030101082500082509000009CC Disclaimer - FAST - Family.ca (:08-:10)                                                                                  150                                
PGRFAMCHA030101082509084738002229Disney's House Of Mouse                           Everybody Loves Mickey                                              A6068607E                                
PROFAMCHA030101084738084752000014PS-10- Playhouse - ELMO/KATIE/STANLEY (:13-:16)                                                                             150                                
PROFAMCHA030101084752084825000033Stanley (CAT BATH) - Today @ 9:35am                                                                                         150                                
PRCFAMCHA030101084825084847000022Hoze Houndz (FIREFIGHTER) - Tomorrow @ 11:15am                                                                              150                                
OFFFAMCHA030101084847084900000013PS Playhouse Block Open (:10-:15)                                                                                                                              
PGRFAMCHA030101084900090628001728Elmo's World                                      Transportation                                                      A2068607G                                
PROFAMCHA030101090628090641000013PS-11- Playhouse(MWF) - KATIE/STANLEY/WTP (:13-:16                                                                          150                                
PRCFAMCHA030101090641090719000038Henry's World (PARTY) - Weekends @ 6:40pm                                                                                   150                                
PROFAMCHA030101090719090752000033Stanley (CAT BATH) - Today @ 9:35am                                                                                         150                                
OFFFAMCHA030101090752090802000010PS Playhouse Block Open (:10-:15)                                                                                                                              
PROFAMCHA030101090802090810000008CC Disclaimer - FAST - Generic (:08-:10)                                                                                    150                                
PGRFAMCHA030101090810093448002638Katie And Orbie                                   Pizza/The Argument/Sidewalk Storyboard                        C19664A1055607ECC3                             
PROFAMCHA030101093448093502000014PS-12- Playhouse(MWF) - STANLEY/WTP/OOTB (:13-:16)                                                                          150                                
PRCFAMCHA030101093502093524000022Hoze Houndz (FIREFIGHTER) - Tomorrow @ 11:15am                                                                              150                                
PROFAMCHA030101093524093546000022xxTeamo Supremo (PIE) - Weekends @ 5pm                                                                                      150                                
OFFFAMCHA030101093546093600000014PS Playhouse Block Open (:10-:15)                                                                                                                              
PROFAMCHA030101093600093609000009CC Disclaimer - FAST - Family (:08-:10)                                                                                     150                                
PGRFAMCHA030101093609100008002359Stanley                                           Snow Monkey See, Snow Monkey Do/Sick Day Stanley                    A6068607ECC                              
PROFAMCHA030101100008100021000013PS-13- Playhouse(MWF) - WTP/OOTB/DUCKTALES (:13-:1                                                                          150                                
PRCFAMCHA030101100021100043000022Hoze Houndz (FIREFIGHTER) - Tomorrow @ 11:15am                                                                              150                                
OFFFAMCHA030101100043100053000010PS Playhouse Block Open (:10-:15)                                                                                                                              
ID FAMCHA030101100053100101000008Magic of Disney - PLAYHOUSE - Shape (:06-:09)                                                                               150                                
PROFAMCHA030101100101100109000008CC Disclaimer - FAST - Family.ca (:08-:10)                                                                                  150                                
PGRFAMCHA030101100109102427002318New Adventures of Winnie the Pooh; The            A Very, Very Large Animal/Fish Out Of...                             6068607ECC                              
PROFAMCHA030101102427102442000015New Year's Day - Today, Starting @ 11:15am                                                                                  150                                
PROFAMCHA030101102442102517000035Playground - GOOF TROOP - Manners                                                                                           150                                
PROFAMCHA030101102517102547000030Mad Dash Block Promo - Today from 3pm to 6pm                                                                                150                                
OFFFAMCHA030101102547102600000013PS Playground Block Open (:10-:15) *DNU POST AUG 1                                                                                                             
PGRFAMCHA030101102600105005002405Out of the Box                                    Happy New Year!                                                     A6068607A                                
PROFAMCHA030101105005105020000015New Year's Day - Today, Starting @ 11:15am                                                                                  150                                
PROFAMCHA030101105020105047000027Pepper Ann (WHO IS SHE?) - Today @ 3:50pm                                                                                   150                                
OFFFAMCHA030101105047105100000013PS Playground Block Open (:10-:15) *DNU POST AUG 1                                                                                                             
PROFAMCHA030101105100105109000009CC Disclaimer - FAST - Click Club (:08-:10) **DNU*                                                                          150                                
PGRFAMCHA030101105109111354002245Disney's DuckTales                                The Good Muddahs                                                    A6068607ECC                              
PROFAMCHA030101111354111409000015New Year's Day - Coming Up (RUDOLPH'S SHINY NEW YE                                                                          150                                
ID FAMCHA030101111409111422000013Schoolhouse Promo - Weekday Mornings                                                                                        150                                
PROFAMCHA030101111422111452000030Jett Jackson: The Movie (CONFUSION) - Friday @ 7:3                                                                          150                                
PROFAMCHA030101111452111500000008Holiday Fun - Holiday Special - Coming Up                                                                                   150                                
PGRFAMCHA030101111500120503005003Rudolph's Shiny New Year                                                                                              A2068807E                                
PROFAMCHA030101120503120518000015New Year's Day - Coming Up (CADET KELLY)                                                                                    150                                
PROFAMCHA030101120518120526000008Holiday Fun - Holiday Special - Coming Up                                                                                   150                                
PRCFAMCHA030101120526120535000009Rating - G - Ian (:08-:10)                                                                                                  150                                
PROFAMCHA030101120535120544000009CC Disclaimer - SLOW - Family (:08-:10)                                                                                     150                                
ID FAMCHA030101120544120552000008Magic of Disney - PIX - Shape (:06-:09)                                                                                     150                                
PGRFAMCHA030101120552134606014014Cadet Kelly                                                                                                           A6068807CCC                              
PROFAMCHA030101134606134621000015New Year's Day - Coming Up (DENNIS THE MENACE)                                                                              150                                
PROFAMCHA030101134621134651000030Jett Jackson: The Movie (MEETING) - Friday @ 7:30p                                                                          150                                
INTFAMCHA030101134651134821000130Klootz - Pole Nord 01                                                                                                 A10658120                                
PROFAMCHA030101134821134921000100Amanda Show (UNDERPANTS) - Tonight @ 6pm                                                                                    150                                
PROFAMCHA030101134921134951000030Lizzie McGuire (MATT) - Today @ 5:35pm                                                                                      150                                
PROFAMCHA030101134951134959000008Holiday Fun - Holiday Special - Coming Up                                                                                   150                                
PRCFAMCHA030101134959135009000010Rating - PG - Ian (:08-:10)                                                                                                 150                                
PROFAMCHA030101135009135018000009CC Disclaimer - FAST - Family.ca (:08-:10)                                                                                  150                                
PGRFAMCHA030101135018152618013600Dennis the Menace                                                                                                     B2068807DCC                              
PROFAMCHA030101152618152631000013MD - 02 - BUZZ/PEPPER/TARZAN (:13-:16)                                                                                      150                                
OFFFAMCHA030101152631152641000010Mad Dash Block Open (:10-:15)                                                                                                                                  
PGRFAMCHA030101152641154924002243Disney/Pixar's Buzz Lightyear of Star Command     Enemy Without A Face                                                A6068607E                                
PROFAMCHA030101154924154937000013MD - 03 - PEPPER/TARZAN/WKNDRS (:13-:16)                                                                                    150                                
ID FAMCHA030101154937154950000013Schoolhouse Promo - Weekday Mornings                                                                                        150                                
OFFFAMCHA030101154950155000000010Mad Dash Block Open (:10-:15)                                                                                                                                  
PROFAMCHA030101155000155009000009CC Disclaimer - FAST - Generic (:08-:10)                                                                                    150                                
PGRFAMCHA030101155009161258002249Disney's Pepper Ann                               Great Beyond/Jaybird of a Father                                     6068607ECC                              
PROFAMCHA030101161258161314000016MD - 04 - TARZAN/WKNDRS/RECESS (:13-:16)                                                                                    150                                
PROFAMCHA030101161314161344000030Jett Jackson: The Movie (CONFUSION) - Friday @ 7:3                                                                          150                                
INTFAMCHA030101161344161514000130Klootz - Ferme 01                                                                                                     A10658120                                
PROFAMCHA030101161514161544000030Ruthless People - Premieres Friday @ 9pm                                                                                    150                                
OFFFAMCHA030101161544161559000015Mad Dash Block Open (:10-:15)                                                                                                                                  
PGRFAMCHA030101161559163845002246Disney's The Legend of Tarzan                     Lost Treasure                                                       A6068607E                                
PROFAMCHA030101163845163900000015MD - 05 - WKNDRS/RECESS/LIZZIE (:13-:16)                                                                                    150                                
PROFAMCHA030101163900163930000030Jett Jackson: The Movie (MEETING) - Friday @ 7:30p                                                                          150                                
INTFAMCHA030101163930164115000145Art Attack - Rice Tiger                                                                                                60686120                                
PROFAMCHA030101164115164145000030Ruthless People - Premieres Friday @ 9pm                                                                                    150                                
OFFFAMCHA030101164145164200000015Mad Dash Block Open (:10-:15)                                                                                                                                  
PGRFAMCHA030101164200170454002254Disney's The Weekenders                           Listen Up/Never Say Diorama                                         A6068607E                                
PROFAMCHA030101170454170509000015MD - 06 - RECESS/LIZZIE/AMANDA (:13-:16)                                                                                    150                                
PROFAMCHA030101170509170539000030Jett Jackson: The Movie (CONFUSION) - Friday @ 7:3                                                                          150                                
PROFAMCHA030101170539170551000012Mad Dash - PEPPER ANN - Helmut Hair                                                                                         150                                
PROFAMCHA030101170551170631000040xxTeen Angel (UNDERWEAR) - Weekends @ 11:05am                                                                               150                                
PROFAMCHA030101170631170715000044Mad Dash - LEGEND OF TARZAN - Coconut                                                                                       150                                
PROFAMCHA030101170715170745000030Ruthless People - Premieres Friday @ 9pm                                                                                    150                                
OFFFAMCHA030101170745170800000015Mad Dash Block Open (:10-:15)                                                                                                                                  
PGRFAMCHA030101170800173036002236Disney's Recess                                   Yope from Norway/The Library Kid                                     6068607E                                
PROFAMCHA030101173036173049000013MD - 07 - LIZZIE/AMANDA/ALLTHAT (:13-:16)                                                                                   150                                
PROFAMCHA030101173049173119000030Jett Jackson: The Movie (MEETING) - Friday @ 7:30p                                                                          150                                
INTFAMCHA030101173119173249000130Klootz - Western 01                                                                                                   A10658120                                
PROFAMCHA030101173249173311000022Mad Dash - LIZZIE MCGUIRE - Chase                                                                                           150                                
PROFAMCHA030101173311173341000030Ruthless People - Premieres Friday @ 9pm                                                                                    150                                
OFFFAMCHA030101173341173352000011Mad Dash Block Open (:10-:15)                                                                                                                                  
ID FAMCHA030101173352173400000008Magic of Disney - MAD DASH - Wipe (:06-:09)                                                                                 150                                
PGRFAMCHA030101173400175634002234Lizzie McGuire                                    Bad Girl McGuire                                                    A6068607B                                
PROFAMCHA030101175634175647000013NS - MON-THURS - 01 - AMNDA/ALL/EVEN (:13-:16)                                                                              150                                
PROFAMCHA030101175647175717000030Jett Jackson: The Movie (CONFUSION) - Friday @ 7:3                                                                          150                                
INTFAMCHA030101175717175922000205SGB-TV: Ep.08 Nicky McCrimmon                                                                                         A10656120                                
PROFAMCHA030101175922175952000030Ruthless People - Premieres Friday @ 9pm                                                                                    150                                
OFFFAMCHA030101175952180002000010Nonstop Block Open (:10-:15)                                                                                                                                   
PGRFAMCHA030101180002182422002420Amanda Show; The                                  1-013                                                               A20686090                                
ID FAMCHA030101182422182425000003Astral "A Network Of" Logo - English Animation                                                                              150                                
PROFAMCHA030101182425182439000014NS - MON-THURS - 02 - ALL/EVEN/JETT (:13-:16)                                                                               150                                
PROFAMCHA030101182439182509000030Jett Jackson: The Movie (MEETING) - Friday @ 7:30p                                                                          150                                
INTFAMCHA030101182509182920000411MV Disney - I'm Still Here **DNU***                                                                                    60688120                                
PROFAMCHA030101182920182950000030Ruthless People - Premieres Friday @ 9pm                                                                                    150                                
OFFFAMCHA030101182950183000000010Nonstop Block Open (:10-:15)                                                                                                                                   
PGRFAMCHA030101183000185420002420All That                                          607                                                                 A20686090                                
ID FAMCHA030101185420185423000003Astral "A Network Of" Logo - English Animation                                                                              150                                
PROFAMCHA030101185423185436000013NS - MON-THURS - 03 - EVEN/JETT/BMW (:13-:16)                                                                               150                                
PROFAMCHA030101185436185506000030Jett Jackson: The Movie (CONFUSION) - Friday @ 7:3                                                                          150                                
PROFAMCHA030101185506185551000045Lizzie McGuire (MAGIC TRICK) - Tomorrow @ 5:35pm                                                                            150                                
INTFAMCHA030101185551185911000320MV Disney - Remember The Magic (BRIAN MCKNIGHT)                                                                        60688120                                
PROFAMCHA030101185911185941000030Ruthless People - Premieres Friday @ 9pm                                                                                    150                                
OFFFAMCHA030101185941185952000011Nonstop Block Open (:10-:15)                                                                                                                                   
ID FAMCHA030101185952190000000008Magic of Disney - NS/NSW/PB - Shape (:06-:09)                                                                               150                                
PROFAMCHA030101190000190009000009CC Disclaimer - FAST - Family (:08-:10)                                                                                     150                                
PGRFAMCHA030101190009192248002239Even Stevens                                      Tight End In Traction                                               A6068807BCC                              
ID FAMCHA030101192248192251000003Astral "A Network Of" Logo - English Animation                                                                              150                                
PROFAMCHA030101192251192305000014xxNS - MON-THURS - 04 - JETT/BMW/DARK (:13-:16)*DN                                                                          150                                
PROFAMCHA030101192305192335000030Jett Jackson: The Movie (MEETING) - Friday @ 7:30p                                                                          150                                
PRCFAMCHA030101192335192405000030Get Wild On Family Contest                                                                                                  150                                
PROFAMCHA030101192405192415000010FAMJAM - Open                                                                                                               150                                
INTFAMCHA030101192415192816000401MV - Do You Remember (Aaron Carter)                                                                                   A20688120                                
PROFAMCHA030101192816192830000014FAMJAM - Close (EMAIL)                                                                                                      150                                
PROFAMCHA030101192830192918000048Nonstop - AMANDA SHOW - Camera                                                                                              150                                
PROFAMCHA030101192918192948000030Ruthless People - Premieres Friday @ 9pm                                                                                    150                                
OFFFAMCHA030101192948193000000012Nonstop Block Open (:10-:15)                                                                                                                                   
PROFAMCHA030101193000193009000009CC Disclaimer - FAST - Family.ca (:08-:10)                                                                                  150                                
PGRFAMCHA030101193009195439002430Famous Jett Jackson; The                          Wheels                                                        B57164 1065607ACC                              
ID FAMCHA030101195439195442000003Astral "A Network Of" Logo - English Animation                                                                              150                                
PROFAMCHA030101195442195456000014xxNS - MON-THURS - 05 - BMW/DARK/N-PIX (:13-:16)*D                                                                          150                                
PROFAMCHA030101195456195526000030Jett Jackson: The Movie (CONFUSION) - Friday @ 7:3                                                                          150                                
INTFAMCHA030101195526195920000354Art Attack - Weight Lifter                                                                                             60686120                                
PROFAMCHA030101195920195950000030Ruthless People - Premieres Friday @ 9pm                                                                                    150                                
OFFFAMCHA030101195950200000000010Nonstop Block Open (:10-:15)                                                                                                                                   
PROFAMCHA030101200000200009000009CC Disclaimer - FAST - Click Club (:08-:10) **DNU*                                                                          150                                
PGRFAMCHA030101200009202242002233Boy Meets World                                   Train Of Fools                                                      B6028807BCC                              
ID FAMCHA030101202242202245000003Astral "A Network Of" Logo - English Animation                                                                              150                                
PROFAMCHA030101202245202258000013xxNS - MON-THURS - 06 - DARK/N-PIX (:10-:13)*DNU*                                                                           150                                
PROFAMCHA030101202258202328000030Jett Jackson: The Movie (MEETING) - Friday @ 7:30p                                                                          150                                
PROFAMCHA030101202328202428000100Amanda Show (UNDERPANTS) - Weeknights @ 6pm                                                                                 150                                
INTFAMCHA030101202428202831000403Art Attack - Skiers (WINTER)                                                                                           60686120                                
PROFAMCHA030101202831202916000045Lizzie McGuire (MAGIC TRICK) - Tomorrow @ 5:35pm                                                                            150                                
PROFAMCHA030101202916202946000030Ruthless People - Premieres Friday @ 9pm                                                                                    150                                
OFFFAMCHA030101202946203000000014Nonstop Block Open (:10-:15)                                                                                                                                   
PGRFAMCHA030101203000205434002434Are You Afraid Of The Dark?                       The Tale of the Long Ago Locket                               SR0305 1066807A                                
ID FAMCHA030101205434205437000003Astral "A Network Of" Logo - English Animation                                                                              150                                
PROFAMCHA030101205437205447000010Nightly Pix Line-up - 04 - DRAMA (:08-:11)                                                                                  150                                
PROFAMCHA030101205447205517000030Jett Jackson: The Movie (CONFUSION) - Friday @ 7:3                                                                          150                                
PRCFAMCHA030101205517205547000030Get Wild On Family Contest                                                                                                  150                                
INTFAMCHA030101205547205920000333Art Attack - Mermaid                                                                                                   60686120                                
PROFAMCHA030101205920205950000030Ruthless People - Premieres Friday @ 9pm                                                                                    150                                
ID FAMCHA030101205950210000000010Nightly Pix Movie Open (:10-:15)                                                                                            150                                
PRCFAMCHA030101210000210009000009Rating - PG - Ian (:08-:10)                                                                                                 150                                
PROFAMCHA030101210009210018000009CC Disclaimer - SLOW - Click Club (:08-:10) **DNU*                                                                          150                                
PGRFAMCHA030101210018223905013847Driving Miss Daisy                                                                                                    B2068807DCC                              
ID FAMCHA030101223905223908000003Astral "A Network Of" Logo - English Animation                                                                              150                                
PROFAMCHA030101223908223921000013xxNS - MON-THURS - 07 - DARK/NOWHERE/AMAZING (:13-                                                                          150                                
OFFFAMCHA030101223921223931000010Nonstop Block Open (:10-:15)                                                                                                                                   
PGRFAMCHA030101223931230406002435Are You Afraid Of The Dark?                       The Tale of the Silver Servant                                SR0305 1066807A                                
ID FAMCHA030101230406230409000003Astral "A Network Of" Logo - English Animation                                                                              150                                
PROFAMCHA030101230409230422000013xxNS - MON-THURS - 08 - NOWHERE/AMAZING/DARK (:13-                                                                          150                                
OFFFAMCHA030101230422230432000010Nonstop Block Open (:10-:15)                                                                                                                                   
PROFAMCHA030101230432230440000008CC Disclaimer - SLOW - Family (:08-:10)                                                                                     150                                
PGRFAMCHA030101230440234932004452Nowhere Man                                       A Rough Whimper Of Insanity                                         C6068807ACC                              
ID FAMCHA030101234932234935000003Astral "A Network Of" Logo - English Animation                                                                              150                                
PROFAMCHA030101234935234945000010NS - MON-THURS - 09 - AMAZING/DARK (:10-:13)                                                                                150                                
PROFAMCHA030101234945235015000030Jett Jackson: The Movie (CONFUSION) - Friday @ 7:3                                                                          150                                
PGRFAMCHA030101235015235908000853Mpt-Tennis Racquet                                                                                                     60688150                                
PROFAMCHA030101235908235919000011Nonstop - ALL THAT - Boring                                                                                                 150                                
PROFAMCHA030101235919235949000030Ruthless People - Premieres Friday @ 9pm                                                                                    150                                
OFFFAMCHA030101235949000002000013Nonstop Block Open (:10-:15)                                                                                                                                   
PGRFAMCHA030101000002002338002336Amazing Stories                                   Life On Death Row                                                   A2068807A                                
ID FAMCHA030101002338002341000003Astral "A Network Of" Logo - English Animation                                                                              150                                
PROFAMCHA030101002341002351000010NS - MON-THURS - 10 - DARK (:08-:11)                                                                                        150                                
PROFAMCHA030101002351002421000030Jett Jackson: The Movie (MEETING) - Friday @ 7:30p                                                                          150                                
PROFAMCHA030101002421002521000100Amanda Show (UNDERPANTS) - Weeknights @ 6pm                                                                                 150                                
INTFAMCHA030101002521002920000359MV Disney - Beauty And The Beast (PEBO BRYSON/CELI                                                                     60688120                                
PROFAMCHA030101002920002950000030Ruthless People - Premieres Friday @ 9pm                                                                                    150                                
OFFFAMCHA030101002950003000000010Nonstop Block Open (:10-:15)                                                                                                                                   
PGRFAMCHA030101003000005435002435Are You Afraid Of The Dark?                       The Tale of the Room for Rent                                 SR0305 1066807A                                
ID FAMCHA030101005435005438000003Astral "A Network Of" Logo - English Animation                                                                              150                                
PROFAMCHA030101005438005508000030Jett Jackson: The Movie (CONFUSION) - Friday @ 7:3                                                                          150                                
INTFAMCHA030101005508005638000130Klootz - Medecin 03 (post 7PM)                                                                                        A10658120                                
PROFAMCHA030101005638005649000011Nonstop - ALL THAT - Boring                                                                                                 150                                
PROFAMCHA030101005649005719000030Ruthless People - Premieres Friday @ 9pm                                                                                    150                                
INTFAMCHA030101005719010201000442Art Attack - Ice Skaters (WINTER)                                                                                      60686120                                
SO FAMCHA030101010201010213000012Sign Off (oct 1)                                                                                                                                               
OFFFAMCHA030101010213043000032747                                                                                                                                                               
SO FAMCHA030102043000043011000011Sign On (oct 1)                                                                                                                                                
PROFAMCHA030102043011043020000009CC Disclaimer - FAST - Generic (:08-:10)                                                                                    150                                
PGRFAMCHA030102043020045352002332Little Lulu Show; The                             The Fright Racket, The Lucky Gold Piece, Very Litt            B20184A1065607ECC                              
PROFAMCHA030102045352045406000014PS-01- Playhouse - ART/KATIE/FRANKLIN (:13-:16)                                                                             150                                
OFFFAMCHA030102045406045419000013PS Playhouse Block Open (:10-:15)                                                                                                                              
PGRFAMCHA030102045419050909001450Art Attack                                        1-127                                                               A60686110                                
PROFAMCHA030102050909050923000014PS-02- Playhouse - KATIE/FRANKLIN/HOZE (:13-:16)                                                                            150                                
PROFAMCHA030102050923050956000033Stanley (CAT BATH) - Today @ 9:35am                                                                                         150                                
INTFAMCHA030102050956051309000313MV Disney - The Kid In You (KRYSTAL MARIE HARRIS)                                                                      60688120                                
PRCFAMCHA030102051309051347000038Henry's World (PARTY) - Weekends @ 6:40pm                                                                                   150                                
OFFFAMCHA030102051347051400000013PS Playhouse Block Open (:10-:15)                                                                                                                              
PROFAMCHA030102051400051409000009CC Disclaimer - FAST - Family (:08-:10)                                                                                     150                                
PGRFAMCHA030102051409054044002635Katie And Orbie                                   The Umbrella/Great Idea/Everybody Counts                      C11896A1065607ECC                              
PROFAMCHA030102054044054058000014PS-03- Playhouse - FRANKLIN/HOZE/LULU (:13-:16)                                                                             150                                
PRCFAMCHA030102054058054130000032Henry's World (WISH) - Weekends @ 6:40pm                                                                                    150                                
ID FAMCHA030102054130054150000020Schoolhouse Promo - This Morning                                                                                            150                                
OFFFAMCHA030102054150054200000010PS Playhouse Block Open (:10-:15)                                                                                                                              
PROFAMCHA030102054200054209000009CC Disclaimer - FAST - Family.ca (:08-:10)                                                                                  150                                
PGRFAMCHA030102054209060502002253Franklin                                          Franklin Fibs/Franklin's Blanket                              B10185A1065607ECC                              
PROFAMCHA030102060502060516000014PS-04- Playhouse - HOZE/LULU (:13-:16)                                                                                      150                                
PRCFAMCHA030102060516060548000032Henry's World (WISH) - Weekends @ 6:40pm                                                                                    150                                
OFFFAMCHA030102060548060600000012PS Playhouse Block Open (:10-:15)                                                                                                                              
PROFAMCHA030102060600060609000009CC Disclaimer - FAST - Click Club (:08-:10) **DNU*                                                                          150                                
PGRFAMCHA030102060609062844002235Hoze Houndz                                       Little Green Men From Planet Ten/Hozer The Hero               B34014A1065607ECC                              
PROFAMCHA030102062844062856000012PS-05- Playhouse - LULU (:10-:13)                                                                                           150                                
PRCFAMCHA030102062856062918000022Hoze Houndz (FIREFIGHTER) - Today @ 11:15am                                                                                 150                                
PROFAMCHA030102062918062948000030Art Attack (HORSE) - Weekends @ 3pm                                                                                         150                                
OFFFAMCHA030102062948063000000012PS Playhouse Block Open (:10-:15)                                                                                                                              
PROFAMCHA030102063000063009000009CC Disclaimer - FAST - Generic (:08-:10)                                                                                    150                                
PGRFAMCHA030102063009065339002330Little Lulu Show; The                             The Big Egg, The Little Girl Who Never Heard of Gh            B20185A1065607ECC                              
PROFAMCHA030102065339065353000014PS-06- Power Box - BUZZ/PRLR/PRWF (:13-:16)                                                                                 150                                
PROFAMCHA030102065353065417000024Legend of Tarzan (S.O.S) - Today @ 4:15pm                                                                                   150                                
PROFAMCHA030102065417065444000027Pepper Ann (WHO IS SHE?) - Today @ 3:50pm                                                                                   150                                
INTFAMCHA030102065444065855000411MV Disney - I'm Still Here **DNU***                                                                                    60688120                                
PROFAMCHA030102065855065917000022xxTeamo Supremo (PIE) - Weekends @ 5pm                                                                                      150                                
PROFAMCHA030102065917065947000030xxKim Possible (GENERIC) - Weekends @ 4:35pm                                                                                150                                
OFFFAMCHA030102065947070000000013PS Power Box Block Open (:10-:15)                                                                                                                              
PROFAMCHA030102070000070009000009CC Disclaimer - FAST - Generic (:08-:10)                                                                                    150                                
PGRFAMCHA030102070009072201002152Disney/Pixar's Buzz Lightyear of Star Command     Sunquake                                                             6068607ECC                              
PROFAMCHA030102072201072215000014PS-07- Power Box - PRLR/PRWF/HOM (:13-:16)                                                                                  150                                
PROFAMCHA030102072215072238000023Proud Family (HERO) - Weekends @ 4:10pm                                                                                     150                                
PROFAMCHA030102072238072302000024Legend of Tarzan (S.O.S) - Today @ 4:15pm                                                                                   150                                
INTFAMCHA030102072302072639000337MV Disney - Supergirl (KRYSTAL MARIE HARRIS)                                                                           60688120                                
PROFAMCHA030102072639072654000015Recess (SPRINKLER) - Today @ 5:05pm                                                                                         150                                
INTFAMCHA030102072654072934000240Art Attack - Baggage Plane                                                                                             60688120                                
PROFAMCHA030102072934072949000015Weekenders (REALITY) - Today @ 4:40pm                                                                                       150                                
OFFFAMCHA030102072949073000000011PS Power Box Block Open (:10-:15)                                                                                                                              
PGRFAMCHA030102073000075128002128Power Rangers Lightspeed Rescue                   Lightspeed Teamwork                                                 A6028607E                                
PROFAMCHA030102075128075140000012PS-08- Power Box - PRWF/HOM (:10-:13)                                                                                       150                                
PROFAMCHA030102075140075155000015Recess (SPRINKLER) - Today @ 5:05pm                                                                                         150                                
INTFAMCHA030102075155075536000341MV Disney - Mambo #5 (LOU BEGA)                                                                                        60688120                                
PROFAMCHA030102075536075606000030xxKim Possible (GENERIC) - Weekends @ 4:35pm                                                                                150                                
INTFAMCHA030102075606075932000326Art Attack - Guitarist                                                                                                 60686120                                
PROFAMCHA030102075932075947000015Weekenders (REALITY) - Today @ 4:40pm                                                                                       150                                
OFFFAMCHA030102075947080000000013PS Power Box Block Open (:10-:15)                                                                                                                              
PGRFAMCHA030102080000082127002127Power Rangers Wild Force                          Darkness Awakening                                                  A6068607E                                
PROFAMCHA030102082127082137000010PS-09- Power Box - HOM (:08-:11)                                                                                            150                                
PROFAMCHA030102082137082149000012Buzz Lightyear (SPACE RANGER) - Today @ 3:25pm                                                                              150                                
PROFAMCHA030102082149082216000027Pepper Ann (WHO IS SHE?) - Today @ 3:50pm                                                                                   150                                
PROFAMCHA030102082216082226000010FAMJAM - Open                                                                                                               150                                
INTFAMCHA030102082226082601000335MV - One Step Closer (S Club Jrs)                                                                                     A30688120                                
PROFAMCHA030102082601082615000014FAMJAM - Close (WEB)                                                                                                        150                                
PROFAMCHA030102082615082637000022xxTeamo Supremo (PIE) - Weekends @ 5pm                                                                                      150                                
INTFAMCHA030102082637082919000242Art Attack - Killer Whale                                                                                              60686120                                
PROFAMCHA030102082919082949000030xxKim Possible (GENERIC) - Weekends @ 4:35pm                                                                                150                                
OFFFAMCHA030102082949083000000011PS Power Box Block Open (:10-:15)                                                                                                                              
PGRFAMCHA030102083000085229002229Disney's House Of Mouse                           Everybody Loves Mickey                                              A6068607E                                
PROFAMCHA030102085229085243000014PS-10- Playhouse - ELMO/KATIE/STANLEY (:13-:16)                                                                             150                                
OFFFAMCHA030102085243085256000013PS Playhouse Block Open (:10-:15)                                                                                                                              
PGRFAMCHA030102085256090949001653Elmo's World                                      Dogs                                                                A2068607G                                
PROFAMCHA030102090949091003000014PS-11- Playhouse(TT) - KATIE/STANLEY/BOP (:13-:16)                                                                          150                                
OFFFAMCHA030102091003091016000013PS Playhouse Block Open (:10-:15)                                                                                                                              
PROFAMCHA030102091016091025000009CC Disclaimer - FAST - Generic (:08-:10)                                                                                    150                                
PGRFAMCHA030102091025093703002638Katie And Orbie                                   Street Hockey/Bubble Trouble/Chopsticks                       C19664A1055607ECC3                             
PROFAMCHA030102093703093717000014PS-12- Playhouse(TT) - STANLEY/BOP/OOTB (:13-:16)                                                                           150                                
OFFFAMCHA030102093717093730000013PS Playhouse Block Open (:10-:15)                                                                                                                              
PROFAMCHA030102093730093739000009CC Disclaimer - FAST - Family (:08-:10)                                                                                     150                                
PGRFAMCHA030102093739100142002403Stanley                                           Ant Picnic/The Tooth About Teeth                                    A6028607ECC                              
PROFAMCHA030102100142100156000014PS-13- Playhouse(TT) - BOP/OOTB/DUCKTALES (:13-:16                                                                          150                                
OFFFAMCHA030102100156100209000013PS Playhouse Block Open (:10-:15)                                                                                                                              
ID FAMCHA030102100209100217000008Magic of Disney - PLAYHOUSE - Shape (:06-:09)                                                                               150                                
PGRFAMCHA030102100217102619002402Book Of Pooh; The                                 Tiggers Replacement/Over The Hill                                    6068607G                                
PROFAMCHA030102102619102633000014PS-14- Playground - OOTB/DUCKTALES/HOZE (:13-:16)                                                                           150                                
OFFFAMCHA030102102633102646000013PS Playground Block Open (:10-:15) *DNU POST AUG 1                                                                                                             
PROFAMCHA030102102646102655000009CC Disclaimer - FAST - Generic (:08-:10)                                                                                    150                                
PGRFAMCHA030102102655105030002335Out of the Box                                    Sing A Song                                                         A6068607ACC                              
PROFAMCHA030102105030105044000014PS-15- Playground - DUCKTALES/HOZE/LULU (:13-:16)                                                                           150                                
OFFFAMCHA030102105044105059000015PS Playground Block Open (:10-:15) *DNU POST AUG 1                                                                                                             
PROFAMCHA030102105059105108000009CC Disclaimer - FAST - Family (:08-:10)                                                                                     150                                
PGRFAMCHA030102105108111353002245Disney's DuckTales                                The Good Muddahs                                                    A6068607ECC                              
PROFAMCHA030102111353111407000014PS-16- Playground - HOZE/LULU/SMART (:13-:16)                                                                               150                                
PROFAMCHA030102111407111419000012Buzz Lightyear (SPACE RANGER) - Today @ 3:25pm                                                                              150                                
PROFAMCHA030102111419111454000035Playground - GOOF TROOP - Manners                                                                                           150                                
PRCFAMCHA030102111454111532000038Henry's World (PARTY) - Weekends @ 6:40pm                                                                                   150                                
PROFAMCHA030102111532111547000015Weekenders (REALITY) - Today @ 4:40pm                                                                                       150                                
OFFFAMCHA030102111547111600000013PS Playground Block Open (:10-:15) *DNU POST AUG 1                                                                                                             
PROFAMCHA030102111600111609000009CC Disclaimer - FAST - Family.ca (:08-:10)                                                                                  150                                
PGRFAMCHA030102111609113849002240Hoze Houndz                                       Hockey Night In Bonehead Hollow/Merry Mealz                   A63376A1065607ECC                              
PROFAMCHA030102113849113903000014PS-17- Playground - LULU/SMART/ELMO (:13-:16)                                                                               150                                
PROFAMCHA030102113903113930000027Pepper Ann (WHO IS SHE?) - Today @ 3:50pm                                                                                   150                                
PROFAMCHA030102113930113959000029Playground - HOUSE OF MOUSE - Snug                                                                                          150                                
PROFAMCHA030102113959114023000024Legend of Tarzan (S.O.S) - Today @ 4:15pm                                                                                   150                                
PROFAMCHA030102114023114037000014Playground - HOZE HOUNDZ - Skater                                                                                           150                                
PROFAMCHA030102114037114049000012Buzz Lightyear (SPACE RANGER) - Today @ 3:25pm                                                                              150                                
OFFFAMCHA030102114049114100000011PS Playground Block Open (:10-:15) *DNU POST AUG 1                                                                                                             
PROFAMCHA030102114100114109000009CC Disclaimer - FAST - Generic (:08-:10)                                                                                    150                                
PGRFAMCHA030102114109120441002332Little Lulu Show; The                             Bowlfinger/Great Tubbini                                      B20191A1065607E                                
PROFAMCHA030102120441120455000014PS-18- Playground - SMART/ELMO/KATIE (:13-:16)                                                                              150                                
PROFAMCHA030102120455120522000027Pepper Ann (WHO IS SHE?) - Today @ 3:50pm                                                                                   150                                
PROFAMCHA030102120522120548000026PR Wild Force (EXPO) - Weekends @ 6:30am                                                                                    150                                
OFFFAMCHA030102120548120600000012PS Playground Block Open (:10-:15) *DNU POST AUG 1                                                                                                             
PROFAMCHA030102120600120609000009CC Disclaimer - FAST - Generic (:08-:10)                                                                                    150                                
PGRFAMCHA030102120609122835002226Smart Guy                                         I Was A Teenage Sports Wife                                         A6068807BCC                              
PROFAMCHA030102122835122849000014PS-19- Playhouse - ELMO/KATIE/STANLEY (:13-:16)                                                                             150                                
PROFAMCHA030102122849122922000033Stanley (CAT BATH) - Today @ 1:20pm                                                                                         150                                
PROFAMCHA030102122922123028000106Playhouse - WINNIE THE POOH - Christopher Robin                                                                             150                                
PRCFAMCHA030102123028123050000022Hoze Houndz (FIREFIGHTER) - Today @ 3pm                                                                                     150                                
OFFFAMCHA030102123050123100000010PS Playhouse Block Open (:10-:15)                                                                                                                              
PGRFAMCHA030102123100124633001533Elmo's World                                      Bananas                                                             A2068607G                                
PROFAMCHA030102124633124647000014PS-20- Playhouse(TT) - KATIE/STANLEY/BOP (:13-:16)                                                                          150                                
PROFAMCHA030102124647124720000033Stanley (CAT BATH) - Today @ 1:20pm                                                                                         150                                
INTFAMCHA030102124720125009000249MV Disney - My Funny Friend & Me (STING)                                                                               60688120                                
PRCFAMCHA030102125009125047000038Henry's World (PARTY) - Weekends @ 6:40pm                                                                                   150                                
OFFFAMCHA030102125047125100000013PS Playhouse Block Open (:10-:15)                                                                                                                              
PROFAMCHA030102125100125109000009CC Disclaimer - FAST - Family (:08-:10)                                                                                     150                                
PGRFAMCHA030102125109131747002638Katie And Orbie                                   Bike Path/Neighbourhood Picnic/Cleaning Out The Ba            C19664A1055607ECC3                             
PROFAMCHA030102131747131801000014PS-21- Playhouse(TT) - STANLEY/BOP/OOTB (:13-:16)                                                                           150                                
PROFAMCHA030102131801131834000033Stanley (CAT BATH) - Weekdays @ 9:35am                                                                                      150                                
ID FAMCHA030102131834131847000013Schoolhouse Promo - Weekday Mornings                                                                                        150                                
OFFFAMCHA030102131847131900000013PS Playhouse Block Open (:10-:15)                                                                                                                              
PROFAMCHA030102131900131909000009CC Disclaimer - FAST - Family.ca (:08-:10)                                                                                  150                                
PGRFAMCHA030102131909134312002403Stanley                                           The Really Real Dragon/It Pays To Be A Pelican                      A6028607ECC                              
PROFAMCHA030102134312134326000014PS-22- Playhouse(TT) - BOP/OOTB/DUCKTALES (:13-:16                                                                          150                                
ID FAMCHA030102134326134341000015Schoolhouse Promo - Weekday Mornings                                                                                        150                                
OFFFAMCHA030102134341134352000011PS Playhouse Block Open (:10-:15)                                                                                                                              
ID FAMCHA030102134352134400000008Magic of Disney - PLAYHOUSE - Shape (:06-:09)                                                                               150                                
PGRFAMCHA030102134400140802002402Book Of Pooh; The                                 Kessie Wises Up/Eeyores Tailversary                                  6068607G                                
PROFAMCHA030102140802140814000012PS-23- Playhouse - OOTB/DUCKTALES (:10-:13)                                                                                 150                                
PROFAMCHA030102140814140847000033Stanley (CAT BATH) - Weekdays @ 9:35am                                                                                      150                                
OFFFAMCHA030102140847140900000013PS Playhouse Block Open (:10-:15)                                                                                                                              
PROFAMCHA030102140900140909000009CC Disclaimer - FAST - Generic (:08-:10)                                                                                    150                                
PGRFAMCHA030102140909143132002223Out of the Box                                    Rainbow Colours                                                      60686110CC                              
PROFAMCHA030102143132143142000010PS-24- Playhouse - DUCKTALES (:08-:11)                                                                                      150                                
PRCFAMCHA030102143142143220000038Henry's World (PARTY) - Weekends @ 6:40pm                                                                                   150                                
PRCFAMCHA030102143220143242000022Hoze Houndz (FIREFIGHTER) - Today @ 3pm                                                                                     150                                
PROFAMCHA030102143242143357000115Playhouse - BOOK OF POOH - The Plan *DNU*                                                                                   150                                
PROFAMCHA030102143357143447000050Art Attack (BASEBALL) - Weekends @ 3pm                                                                                      150                                
OFFFAMCHA030102143447143500000013PS Playhouse Block Open (:10-:15)                                                                                                                              
PROFAMCHA030102143500143509000009CC Disclaimer - FAST - Family (:08-:10)                                                                                     150                                
PGRFAMCHA030102143509145755002246Disney's DuckTales                                My Mother The Psychic                                               A6068607ECC                              
PROFAMCHA030102145755145809000014xxMD - 01 - HOZE/BUZZ/PEPPER (:13-:16)*DNU*                                                                                 150                                
PROFAMCHA030102145809145839000030Lizzie McGuire (MATT) - Today @ 5:35pm                                                                                      150                                
PROFAMCHA030102145839145918000039Mad Dash - WEEKENDERS - Arrival                                                                                             150                                
PROFAMCHA030102145918145946000028All That (PHONE) - Tonight @ 6:30pm                                                                                         150                                
OFFFAMCHA030102145946150000000014Mad Dash Block Open (:10-:15)                                                                                                                                  
PROFAMCHA030102150000150009000009CC Disclaimer - FAST - Family.ca (:08-:10)                                                                                  150                                
PGRFAMCHA030102150009152249002240Hoze Houndz                                       Hockey Night In Bonehead Hollow/Merry Mealz                   A63376A1065607ECC                              
PROFAMCHA030102152249152303000014MD - 02 - BUZZ/PEPPER/TARZAN (:13-:16)                                                                                      150                                
PROFAMCHA030102152303152333000030Jett Jackson: The Movie (CONFUSION) - Tomorrow @ 7                                                                          150                                
PROFAMCHA030102152333152420000047Amanda Show (HAM) - Tonight @ 6pm                                                                                           150                                
PROFAMCHA030102152420152447000027Even Stevens (GOLF) - Tonight @ 7pm                                                                                         150                                
OFFFAMCHA030102152447152500000013Mad Dash Block Open (:10-:15)                                                                                                                                  
PGRFAMCHA030102152500154743002243Disney/Pixar's Buzz Lightyear of Star Command     Enemy Without A Face                                                A6068607E                                
PROFAMCHA030102154743154757000014MD - 03 - PEPPER/TARZAN/WKNDRS (:13-:16)                                                                                    150                                
PROFAMCHA030102154757154827000030Jett Jackson: The Movie (MEETING) - Tomorrow @ 7:3                                                                          150                                
PROFAMCHA030102154827154917000050Mad Dash - LIZZIE MCGUIRE - Blooper #6 *DNU*                                                                                150                                
PROFAMCHA030102154917154947000030Ruthless People - Premieres Tomorrow @ 9pm                                                                                  150                                
OFFFAMCHA030102154947155000000013Mad Dash Block Open (:10-:15)                                                                                                                                  
PROFAMCHA030102155000155009000009CC Disclaimer - FAST - Generic (:08-:10)                                                                                    150                                
PGRFAMCHA030102155009161258002249Disney's Pepper Ann                               Great Beyond/Jaybird of a Father                                     6068607ECC                              
PROFAMCHA030102161258161312000014MD - 04 - TARZAN/WKNDRS/RECESS (:13-:16)                                                                                    150                                
PROFAMCHA030102161312161342000030Jett Jackson: The Movie (CONFUSION) - Tomorrow @ 7                                                                          150                                
PROFAMCHA030102161342161412000030xxBoy Meets World - Tonight @ 8pm                                                                                           150                                
PROFAMCHA030102161412161442000030Mad Dash Block Promo - Weekdays from 3pm to 6pm                                                                             150                                
PROFAMCHA030102161442161517000035Mad Dash - LIZZIE MCGUIRE - Blooper #7 *DNU*                                                                                150                                
PROFAMCHA030102161517161547000030Ruthless People - Premieres Tomorrow @ 9pm                                                                                  150                                
OFFFAMCHA030102161547161600000013Mad Dash Block Open (:10-:15)                                                                                                                                  
PGRFAMCHA030102161600163846002246Disney's The Legend of Tarzan                     Lost Treasure                                                       A6068607E                                
PROFAMCHA030102163846163900000014MD - 05 - WKNDRS/RECESS/LIZZIE (:13-:16)                                                                                    150                                
PROFAMCHA030102163900163930000030Jett Jackson: The Movie (CONFUSION) - Tomorrow @ 7                                                                          150                                
PROFAMCHA030102163930164020000050Mad Dash - LIZZIE MCGUIRE - Blooper #6 *DNU*                                                                                150                                
PROFAMCHA030102164020164050000030Lizzie McGuire (MATT) - Today @ 5:35pm                                                                                      150                                
PROFAMCHA030102164050164117000027Even Stevens (GOLF) - Tonight @ 7pm                                                                                         150                                
PROFAMCHA030102164117164147000030Ruthless People - Premieres Tomorrow @ 9pm                                                                                  150                                
OFFFAMCHA030102164147164200000013Mad Dash Block Open (:10-:15)                                                                                                                                  
PGRFAMCHA030102164200170454002254Disney's The Weekenders                           Listen Up/Never Say Diorama                                         A6068607E                                
PROFAMCHA030102170454170508000014MD - 06 - RECESS/LIZZIE/AMANDA (:13-:16)                                                                                    150                                
PROFAMCHA030102170508170538000030Jett Jackson: The Movie (CONFUSION) - Tomorrow @ 7                                                                          150                                
PROFAMCHA030102170538170608000030xxBoy Meets World - Tonight @ 8pm                                                                                           150                                
PROFAMCHA030102170608170648000040xxTeen Angel (UNDERWEAR) - Weekends @ 11:05am                                                                               150                                
PROFAMCHA030102170648170720000032PR Wild Force (CHAIR) - Weekends @ 6:30am                                                                                   150                                
PROFAMCHA030102170720170750000030Ruthless People - Premieres Tomorrow @ 9pm                                                                                  150                                
OFFFAMCHA030102170750170800000010Mad Dash Block Open (:10-:15)                                                                                                                                  
PGRFAMCHA030102170800173036002236Disney's Recess                                   Yope from Norway/The Library Kid                                     6068607E                                
PROFAMCHA030102173036173050000014MD - 07 - LIZZIE/AMANDA/ALLTHAT (:13-:16)                                                                                   150                                
PROFAMCHA030102173050173120000030Jett Jackson: The Movie (MEETING) - Tomorrow @ 7:3                                                                          150                                
PROFAMCHA030102173120173153000033Mad Dash - WEEKENDERS - Clown                                                                                               150                                
PROFAMCHA030102173153173219000026PR Wild Force (EXPO) - Weekends @ 6:30am                                                                                    150                                
PROFAMCHA030102173219173259000040xxTeen Angel (UNDERWEAR) - Weekends @ 11:05am                                                                               150                                
PROFAMCHA030102173259173309000010Mad Dash - LIZZIE MCGUIRE - Going In                                                                                        150                                
PROFAMCHA030102173309173339000030Ruthless People - Premieres Tomorrow @ 9pm                                                                                  150                                
OFFFAMCHA030102173339173352000013Mad Dash Block Open (:10-:15)                                                                                                                                  
ID FAMCHA030102173352173400000008Magic of Disney - MAD DASH - Wipe (:06-:09)                                                                                 150                                
PGRFAMCHA030102173400175634002234Lizzie McGuire                                    Bad Girl McGuire                                                    A6068607B                                
PROFAMCHA030102175634175648000014NS - MON-THURS - 01 - AMNDA/ALL/EVEN (:13-:16)                                                                              150                                
PROFAMCHA030102175648175718000030Jett Jackson: The Movie (CONFUSION) - Tomorrow @ 7                                                                          150                                
PROFAMCHA030102175718175745000027Even Stevens (GOLF) - Tonight @ 7pm                                                                                         150                                
INTFAMCHA030102175745175849000104Jack and Marcel: Ep.064 "Frozen Slipper"                                                                              A40688120                                
PROFAMCHA030102175849175919000030xxBoy Meets World - Tonight @ 8pm                                                                                           150                                
PROFAMCHA030102175919175949000030Ruthless People - Premieres Tomorrow @ 9pm                                                                                  150                                
OFFFAMCHA030102175949180000000011Nonstop Block Open (:10-:15)                                                                                                                                   
PGRFAMCHA030102180000182206002206Amanda Show; The                                  2-014                                                               A20686090                                
ID FAMCHA030102182206182209000003Astral "A Network Of" Logo - English Animation                                                                              150                                
PROFAMCHA030102182209182223000014NS - MON-THURS - 02 - ALL/EVEN/JETT (:13-:16)                                                                               150                                
PROFAMCHA030102182223182253000030Jett Jackson: The Movie (MEETING) - Tomorrow @ 7:3                                                                          150                                
PROFAMCHA030102182253182323000030xxBoy Meets World - Tonight @ 8pm                                                                                           150                                
INTFAMCHA030102182323182524000201SGB-TV: Ep.06 Josh Jackson                                                                                            A10656120                                
PROFAMCHA030102182524182540000016Nonstop - DARK - Dodge Ball                                                                                                 150                                
INTFAMCHA030102182540182917000337MV Disney - Supergirl (KRYSTAL MARIE HARRIS)                                                                           60688120                                
PROFAMCHA030102182917182947000030Ruthless People - Premieres Tomorrow @ 9pm                                                                                  150                                
OFFFAMCHA030102182947183000000013Nonstop Block Open (:10-:15)                                                                                                                                   
PGRFAMCHA030102183000185420002420All That                                          608                                                                 A20686090                                
ID FAMCHA030102185420185423000003Astral "A Network Of" Logo - English Animation                                                                              150                                
PROFAMCHA030102185423185437000014NS - MON-THURS - 03 - EVEN/JETT/BMW (:13-:16)                                                                               150                                
PROFAMCHA030102185437185507000030Jett Jackson: The Movie (CONFUSION) - Tomorrow @ 7                                                                          150                                
INTFAMCHA030102185507185705000158SGB-TV: Ep.07 Avril Lavigne                                                                                           A10656120                                
PROFAMCHA030102185705185727000022Nonstop - BOY MEETS WORLD - Girl's Washroom                                                                                 150                                
PROFAMCHA030102185727185738000011Nonstop - ALL THAT - Boring                                                                                                 150                                
PROFAMCHA030102185738185818000040xxTeen Angel (UNDERWEAR) - Weekends @ 11:05am                                                                               150                                
PRCFAMCHA030102185818185848000030Get Wild On Family Contest                                                                                                  150                                
PROFAMCHA030102185848185909000021Nonstop - DARK - Plants                                                                                                     150                                
PROFAMCHA030102185909185939000030Ruthless People - Premieres Tomorrow @ 9pm                                                                                  150                                
OFFFAMCHA030102185939185952000013Nonstop Block Open (:10-:15)                                                                                                                                   
ID FAMCHA030102185952190000000008Magic of Disney - NS/NSW/PB - Wipe (:06-:09)                                                                                150                                
PROFAMCHA030102190000190009000009CC Disclaimer - FAST - Family (:08-:10)                                                                                     150                                
PGRFAMCHA030102190009192248002239Even Stevens                                      Broadcast Blues                                                     A6068807BCC                              
ID FAMCHA030102192248192253000005Astral "A Network Of" Logo - English Animation                                                                              150                                
PROFAMCHA030102192253192307000014xxNS - MON-THURS - 04 - JETT/BMW/DARK (:13-:16)*DN                                                                          150                                
PROFAMCHA030102192307192337000030Jett Jackson: The Movie (CONFUSION) - Tomorrow @ 7                                                                          150                                
INTFAMCHA030102192337192650000313MV Disney - The Kid In You (KRYSTAL MARIE HARRIS)                                                                      60688120                                
INTFAMCHA030102192650192820000130Klootz - Western 01                                                                                                   A10658120                                
PRCFAMCHA030102192820192850000030Get Wild On Family Contest                                                                                                  150                                
PROFAMCHA030102192850192916000026PR Wild Force (WAKEUP) - Weekends @ 6:30am                                                                                  150                                
PROFAMCHA030102192916192946000030Ruthless People - Premieres Tomorrow @ 9pm                                                                                  150                                
OFFFAMCHA030102192946193000000014Nonstop Block Open (:10-:15)                                                                                                                                   
PROFAMCHA030102193000193009000009CC Disclaimer - FAST - Family.ca (:08-:10)                                                                                  150                                
PGRFAMCHA030102193009195439002430Famous Jett Jackson; The                          Heroes                                                        B57165 1065607ACC                              
ID FAMCHA030102195439195442000003Astral "A Network Of" Logo - English Animation                                                                              150                                
PROFAMCHA030102195442195456000014xxNS - MON-THURS - 05 - BMW/DARK/N-PIX (:13-:16)*D                                                                          150                                
PROFAMCHA030102195456195526000030Jett Jackson: The Movie (MEETING) - Tomorrow @ 7:3                                                                          150                                
INTFAMCHA030102195526195822000256MV Disney - Strangers Like Me (PHIL COLLINS)                                                                           60688120                                
PROFAMCHA030102195822195848000026PR Wild Force (EXPO) - Weekends @ 6:30am                                                                                    150                                
PROFAMCHA030102195848195918000030Lizzie McGuire (MATT) - Tomorrow @ 5:35pm                                                                                   150                                
PROFAMCHA030102195918195948000030Ruthless People - Premieres Tomorrow @ 9pm                                                                                  150                                
OFFFAMCHA030102195948200000000012Nonstop Block Open (:10-:15)                                                                                                                                   
PROFAMCHA030102200000200009000009CC Disclaimer - FAST - Generic (:08-:10)                                                                                    150                                
PGRFAMCHA030102200009202200002151Boy Meets World                                   Wheels                                                              B6028807BCC                              
ID FAMCHA030102202200202205000005Astral "A Network Of" Logo - English Animation                                                                              150                                
PROFAMCHA030102202205202217000012xxNS - MON-THURS - 06 - DARK/N-PIX (:10-:13)*DNU*                                                                           150                                
PROFAMCHA030102202217202247000030Jett Jackson: The Movie (CONFUSION) - Tomorrow @ 7                                                                          150                                
PROFAMCHA030102202247202317000030Lizzie McGuire (MATT) - Tomorrow @ 5:35pm                                                                                   150                                
PROFAMCHA030102202317202343000026PR Wild Force (EXPO) - Weekends @ 6:30am                                                                                    150                                
PROFAMCHA030102202343202353000010FAMJAM - Open                                                                                                               150                                
INTFAMCHA030102202353202730000337MV - Do I Have To Cry For You (Nick Carter)                                                                           A20688120                                
PROFAMCHA030102202730202744000014FAMJAM - Close (WEB)                                                                                                        150                                
PROFAMCHA030102202744202824000040xxTeen Angel (UNDERWEAR) - Weekends @ 11:05am                                                                               150                                
PROFAMCHA030102202824202852000028Nonstop - DARK - Highway 13                                                                                                 150                                
