SO FAMCHA050501043000043011000011Sign On (oct 1)                                                                                                                                                
PROFAMCHA050501043011043020000009CC Disclaimer - FAST - Family.ca (:08-:10)                                                                                  150                                
PGRFAMCHA050501043020045313002253Franklin                                          EP: 4-041                                                     B38148A1065607ECC                              
PRCFAMCHA050501045313045318000005Astral ID (FEB05)                                                                                                           150                                
PROFAMCHA050501045318045333000015Nnstp Wknd - 01(PH) - WTP/BENJAMIN/FRANNY (:14-:16                                                                          150                                
ID FAMCHA050501045333045346000013PS Playhouse AM Block Open (:10-:15)                                                                                        150                                
PROFAMCHA050501045346045355000009CC Disclaimer - FAST - Family.ca (:08-:10)                                                                                  150                                
PGRFAMCHA050501045355051759002404Henry's World                                     EP: 1-010                                                     B66552A1065607GCC                              
PROFAMCHA050501051759051814000015Nnstp Wknd - 01(PH) - WTP/BENJAMIN/FRANNY (:14-:16                                                                          150                                
ID FAMCHA050501051814051827000013PS Playhouse AM Block Open (:10-:15)                                                                                        150                                
PROFAMCHA050501051827051836000009CC Disclaimer - FAST - Family.ca (:08-:10)                                                                                  150                                
PGRFAMCHA050501051836054109002233The Secret World Of Benjamin Bear                 EPS # 1-005                                                   A75150A1065607ECC                              
PRCFAMCHA050501054109054114000005Astral ID (FEB05)                                                                                                           150                                
PROFAMCHA050501054114054129000015Nnstp Wknd - 01(PH) - WTP/BENJAMIN/FRANNY (:14-:16                                                                          150                                
ID FAMCHA050501054129054144000015Franny's Feet Web BBD - Part of Playhouse @ family                                                                          150                                
ID FAMCHA050501054144054157000013PS Playhouse AM Block Open (:10-:15)                                                                                        150                                
PROFAMCHA050501054157054206000009CC Disclaimer - FAST - Family.ca (:08-:10)                                                                                  150                                
PGRFAMCHA050501054206060436002230Franny's Feet                                     EPS # 1-006                                                   C23970A1065607ECC                              
PROFAMCHA050501060436060451000015Nnstp Wknd - 01(PH) - WTP/BENJAMIN/FRANNY (:14-:16                                                                          150                                
PRCFAMCHA050501060451060519000028Power Box Block Promo (APR04) - (PB) - Tomorrow @                                                                           150                                
ID FAMCHA050501060519060534000015xxPower Box Block Open (:10-:15)                                                                                            150                                
PGRFAMCHA050501060534062703002129Daigunder                                         EPS # 14                                                             2068607E                                
PRCFAMCHA050501062703062708000005Astral ID (FEB05)                                                                                                           150                                
PROFAMCHA050501062708062723000015Nnstp Wknd - 01(PH) - WTP/BENJAMIN/FRANNY (:14-:16                                                                          150                                
PROFAMCHA050501062723062755000032Power Rangers - SPD - He's Tough - Today @ 6:55am                                                                           150                                
PROFAMCHA050501062755062819000024Lizzie McGuire - SFX (NSW/AM) - Today @ 7:50am                                                                              150                                
PRCFAMCHA050501062819062847000028Power Box Block Promo (APR04) - (PB) - Tomorrow @                                                                           150                                
PRCFAMCHA050501062847062914000027Radio Free Roscoe - (APR05) (NSW/AM) - Today @ 8:1                                                                          150                                
PRCFAMCHA050501062914062934000020Radio Free Roscoe - Webthrow (Shady Lane)                                                                                   150                                
PRCFAMCHA050501062934062945000011Family Bumpers - (Phase 2 F/W 04) - Science (MD-AM                                                                          150                                
ID FAMCHA050501062945063000000015xxPower Box Block Open (:10-:15)                                                                                            150                                
PGRFAMCHA050501063000065124002124Power Rangers Dino Thunder                        EPS # 21                                                            A6068607E                                
PROFAMCHA050501065124065138000014Nnstp Wknd - 01(PH) - WTP/BENJAMIN/FRANNY (:14-:16                                                                          150                                
PROFAMCHA050501065138065210000032Power Rangers - SPD - He's Tough - Coming Up Next                                                                           150                                
PROFAMCHA050501065210065233000023Lizzie McGuire - SFX2 (NSW/AM) - Today @ 7:50am                                                                             150                                
PRCFAMCHA050501065233065301000028Power Box Block Promo (APR04) - (PB) - Tomorrow @                                                                           150                                
PRCFAMCHA050501065301065328000027Radio Free Roscoe - (APR05) (NSW/AM) - Today @ 8:1                                                                          150                                
PRCFAMCHA050501065328065358000030Phil of the Future (NSW) (PHIL) (DEC04) - Today @                                                                           150                                
PRCFAMCHA050501065358065417000019Nonstop Weekend - EVEN STEVENS - Locker                                                                                     150                                
PRCFAMCHA050501065417065450000033That's So Raven - Dog Wash (NSW/AM) (MAR05) - Toda                                                                          150                                
ID FAMCHA050501065450065502000012xxPower Box Block Open (:10-:15)                                                                                            150                                
PGRFAMCHA050501065502071741002239Power Rangers Space Patrol Delta                  EP: 07                                                               6068607E                                
PRCFAMCHA050501071741071746000005Astral ID (FEB05)                                                                                                           150                                
PROFAMCHA050501071746071800000014Nnstp Wknd - 01(PH) - WTP/BENJAMIN/FRANNY (:14-:16                                                                          150                                
PRCFAMCHA050501071800071824000024Darcy's Wild Life - Chimp (PREM) - Premiering Tomo                                                                          150                                
PRCFAMCHA050501071824071856000032xxNonstop Weekend Block Promo (NSW) - On Family                                                                             150                                
PROFAMCHA050501071856071920000024Lizzie McGuire - SFX (NSW/AM) - Today @ 7:50am                                                                              150                                
PRCFAMCHA050501071920071944000024Nonstop Weekend - EVEN STEVENS - Banned                                                                                     150                                
PROFAMCHA050501071944072016000032Power Rangers - SPD - He's Tough - Weekends @ 6:55                                                                          150                                
PROFAMCHA050501072016072046000030All That (NS/MAR) - Coming Up Next                                                                                          150                                
ID FAMCHA050501072046072102000016Nonstop Weekend Block Open (:14-:17)                                                                                        150                                
PGRFAMCHA050501072102074102002000All That                                          EP: 832                                                             A20686090                                
PROFAMCHA050501074102074118000016Nnstp Wknd - 01(PH) - WTP/BENJAMIN/FRANNY (:14-:16                                                                          150                                
PRCFAMCHA050501074118074148000030Darcy's Wild Life - (PREM) - Premiering Tomorrow @                                                                          150                                
PROFAMCHA050501074148074212000024Lizzie McGuire - SFX (NSW) - Coming Up Next                                                                                 150                                
PRCFAMCHA050501074212074239000027Radio Free Roscoe - (APR05) (NSW/AM) - Today @ 8:1                                                                          150                                
PRCFAMCHA050501074239074311000032That's So Raven - Visions (NSW/AM) (MAR05) - Today                                                                          150                                
PROFAMCHA050501074311074325000014xxFAMJAM - Close (FAMILY) xxDNUxx                                                                                           150                                
INTFAMCHA050501074325074622000257MV - Take A Walk (Sara Paxton) PREMIERING ON MAY 2                                                                    A20287120                                
PROFAMCHA050501074622074632000010FAMJAM - Open/Close                                                                                                         150                                
PROFAMCHA050501074632074702000030Zoey 101 - Perfect (NSW) (MAR05) - Today @ 9:40am                                                                           150                                
PRCFAMCHA050501074702074732000030xxNonstop Weekend Block Promo (NSW) - On Family                                                                             150                                
PROFAMCHA050501074732074805000033Even Stevens - Stinky Feet (MAR05) - (NSW) - Today                                                                          150                                
PROFAMCHA050501074805074835000030Gordy (PP) - Friday @ 7:30pm                                                                                                150                                
PROFAMCHA050501074835074843000008Zoey 101 ID - Log onto family.ca for info on Zoey                                                                           150                                
PRCFAMCHA050501074843074849000006Family Bumpers - (Phase 2 F/W 04) - Gymnastics (MD                                                                          150                                
ID FAMCHA050501074849074903000014Nonstop Weekend Block Open (:14-:17)                                                                                        150                                
ID FAMCHA050501074903074910000007Magic of Disney - NS/NSW/PB - Shape (:06-:09)                                                                               150                                
PGRFAMCHA050501074910081144002234Lizzie McGuire                                    EP: 2-021                                                           A6068607B                                
PRCFAMCHA050501081144081149000005Astral ID (FEB05)                                                                                                           150                                
PROFAMCHA050501081149081203000014Nnstp Wknd - 01(PH) - WTP/BENJAMIN/FRANNY (:14-:16                                                                          150                                
PRCFAMCHA050501081203081230000027Radio Free Roscoe - (APR05) (NSW) - Coming Up Next                                                                          150                                
PROFAMCHA050501081230081343000113Bullying - The Pledge 2004 (w/o music)                                                                                      150                                
PRCFAMCHA050501081343081413000030Phil of the Future (NSW) (PHIL) (DEC04) - Today @                                                                           150                                
PROFAMCHA050501081413081437000024Lizzie McGuire - SFX (NSW/PM) - Today @ 3:25pm                                                                              150                                
PRCFAMCHA050501081437081530000053SBO Bash Highlights (3x daily, MD-PM/NS/NSW) air b                                                                          150                                
PRCFAMCHA050501081530081554000024Darcy's Wild Life - Chimp (PREM) - Premiering Tomo                                                                          150                                
ID FAMCHA050501081554081609000015Nonstop Weekend Block Open (:14-:17)                                                                                        150                                
PROFAMCHA050501081609081618000009CC Disclaimer - FAST - Family.ca (:08-:10)                                                                                  150                                
PGRFAMCHA050501081618083848002230Radio Free Roscoe                                 EPS # 33                                                      A05966A1065607ACC                              
PROFAMCHA050501083848083903000015Nnstp Wknd - 01(PH) - WTP/BENJAMIN/FRANNY (:14-:16                                                                          150                                
PRCFAMCHA050501083903083933000030Darcy's Wild Life - (PREM) - Premiering Tomorrow @                                                                          150                                
PRCFAMCHA050501083933084003000030Phil of the Future (NSW) (PHIL) (DEC04) - Coming U                                                                          150                                
PRCFAMCHA050501084003084035000032That's So Raven - Visions (NSW/AM) (MAR05) - Today                                                                          150                                
PRCFAMCHA050501084035084105000030xxNonstop Weekend Block Promo (NSW) - On Family                                                                             150                                
PROFAMCHA050501084105084135000030Zoey 101 - Perfect (NSW) (MAR05) - Today @ 9:40am                                                                           150                                
PROFAMCHA050501084135084309000134Bullying - The Pledge 2004 (w/o music)                                                                                      150                                
PROFAMCHA050501084309084342000033Even Stevens - Stinky Feet (MAR05) - (NSW) - Today                                                                          150                                
PRCFAMCHA050501084342084412000030Radio Free Roscoe (NSW/PM) - NEW EPS - Sundays @ 7                                                                          150                                
PRCFAMCHA050501084412084431000019Nonstop Weekend - EVEN STEVENS - Locker                                                                                     150                                
PRCFAMCHA050501084431084445000014xxFamily Bumpers - (Phase 1 Spring 04) - Basketbal                                                                          150                                
ID FAMCHA050501084445084500000015Nonstop Weekend Block Open (:14-:17)                                                                                        150                                
PGRFAMCHA050501084500090740002240Phil of the Future                                EPS # 17                                                             6068807B                                
PRCFAMCHA050501090740090745000005Astral ID (FEB05)                                                                                                           150                                
PROFAMCHA050501090745090800000015Nnstp Wknd - 01(PH) - WTP/BENJAMIN/FRANNY (:14-:16                                                                          150                                
PRCFAMCHA050501090800090824000024Darcy's Wild Life - Chimp (PREM) - Premiering Tomo                                                                          150                                
PRCFAMCHA050501090824090857000033That's So Raven - Dog Wash (NSW) (MAR05) - Coming                                                                           150                                
PROFAMCHA050501090857090927000030Zoey 101 - Perfect (NSW) (MAR05) - Today @ 9:40am                                                                           150                                
PRCFAMCHA050501090927091012000045Famous Players Popcorn Parties                                                                                              150                                
PROFAMCHA050501091012091045000033Even Stevens - Stinky Feet (MAR05) - (NSW) - Today                                                                          150                                
PROFAMCHA050501091045091115000030Double Teamed (SEPT12) - Next Friday @ 7:30pm                                                                               150                                
PROFAMCHA050501091115091145000030Ned's DSSG - TIPS (NSW) (APR05) - Today @ 11:05am                                                                           150                                
PROFAMCHA050501091145091224000039Brotherly Love (NSW) - Tomorrow @ 11:30am                                                                                   150                                
PRCFAMCHA050501091224091254000030xxNonstop Weekend Block Promo (NSW) - On Family                                                                             150                                
PROFAMCHA050501091254091324000030American Dragon: Jake Long - Today @ 5:10pm                                                                                 150                                
PROFAMCHA050501091324091354000030Gordy (PP) - Friday @ 7:30pm                                                                                                150                                
ID FAMCHA050501091354091411000017Nonstop Weekend Block Open (:14-:17)                                                                                        150                                
PGRFAMCHA050501091411093650002239That's So Raven                                   EPS # 1-045                                                          6068807B                                
PROFAMCHA050501093650093704000014Nnstp Wknd - 01(PH) - WTP/BENJAMIN/FRANNY (:14-:16                                                                          150                                
PRCFAMCHA050501093704093734000030Darcy's Wild Life - (PREM) - Premiering Tomorrow @                                                                          150                                
PROFAMCHA050501093734093804000030Zoey 101 - Perfect (NSW) (MAR05) - Coming Up Next                                                                           150                                
PRCFAMCHA050501093804093834000030xxNonstop Weekend Block Promo (NSW) - On Family                                                                             150                                
PROFAMCHA050501093834093907000033Even Stevens - Stinky Feet (MAR05) - (NSW) - Today                                                                          150                                
PRCFAMCHA050501093907093926000019Radio Free Roscoe - Webthrow (Pronto)                                                                                       150                                
PROFAMCHA050501093926093947000021Laurentien/Zoey - BBD Question 6 (April 29 & May 1                                                                          150                                
ID FAMCHA050501093947094001000014Nonstop Weekend Block Open (:14-:17)                                                                                        150                                
PGRFAMCHA050501094001100233002232Zoey 101                                          EPS # 06                                                             2068807BCC                              
PRCFAMCHA050501100233100238000005Astral ID (FEB05)                                                                                                           150                                
PROFAMCHA050501100238100252000014Nnstp Wknd - 13 - EVEN/BMW/NED (:14-:16) (MAR05)                                                                            150                                
PRCFAMCHA050501100252100316000024Darcy's Wild Life - Chimp (PREM) - Premiering Tomo                                                                          150                                
PROFAMCHA050501100316100349000033Even Stevens - Stinky Feet (MAR05) - (NSW) - Comin                                                                          150                                
PROFAMCHA050501100349100419000030Double Teamed (SEPT12) - Next Friday @ 7:30pm                                                                               150                                
PROFAMCHA050501100419100448000029Smart Guy (APR04) - Mon to Thurs @ 11:30pm                                                                                  150                                
PROFAMCHA050501100448100458000010FAMJAM - Open/Close                                                                                                         150                                
INTFAMCHA050501100458100755000257MV - Take A Walk (Sara Paxton) PREMIERING ON MAY 2                                                                    A20687120                                
PROFAMCHA050501100755100809000014xxFAMJAM - Close (FAMILY) xxDNUxx                                                                                           150                                
PROFAMCHA050501100809100848000039Brotherly Love (NSW) - Tomorrow @ 11:30am                                                                                   150                                
PRCFAMCHA050501100848100918000030xxNonstop Weekend Block Promo (NSW) - On Family                                                                             150                                
PROFAMCHA050501100918100948000030American Dragon: Jake Long - Today @ 5:10pm                                                                                 150                                
PRCFAMCHA050501100948101015000027Radio Free Roscoe - (APR05) (NSW/PM) - Tonight @ 7                                                                          150                                
PROFAMCHA050501101015101032000017Zoey 101 - Jaime (NS/FRI) (MAR05) - Fridays @ 6pm                                                                           150                                
PROFAMCHA050501101032101040000008Phil of the Future IDs - I'm Ricky Ullman, You're                                                                           150                                
PRCFAMCHA050501101040101052000012xxFamily Bumpers - (Phase 1 Spring 04) - Pillow Fi                                                                          150                                
ID FAMCHA050501101052101108000016Nonstop Weekend Block Open (:14-:17)                                                                                        150                                
ID FAMCHA050501101108101116000008Magic of Disney - NS/NSW/PB - Wipe (:06-:09)                                                                                150                                
PROFAMCHA050501101116101125000009CC Disclaimer - FAST - Family.ca (:08-:10)                                                                                  150                                
PGRFAMCHA050501101125103357002232Even Stevens                                      EP: 3-013                                                           A6068807BCC                              
PROFAMCHA050501103357103412000015Nnstp Wknd - 01(PH) - WTP/BENJAMIN/FRANNY (:14-:16                                                                          150                                
PRCFAMCHA050501103412103442000030Darcy's Wild Life - (PREM) - Premiering Tomorrow @                                                                          150                                
PROFAMCHA050501103442103512000030Double Teamed (SEPT12) - Next Friday @ 7:30pm                                                                               150                                
PROFAMCHA050501103512103542000030Ned's DSSG - TIPS (NSW) (APR05) - Today @ 11:05am                                                                           150                                
PRCFAMCHA050501103542103612000030xxNonstop Weekend Block Promo (NSW) - On Family                                                                             150                                
PROFAMCHA050501103612103651000039Brotherly Love (NSW) - Tomorrow @ 11:30am                                                                                   150                                
PROFAMCHA050501103651103721000030Smart Guy (APR04) - Mon to Thurs @ 11:30pm                                                                                  150                                
PROFAMCHA050501103721103745000024Lizzie McGuire - SFX (NSW/PM) - Today @ 3:25pm                                                                              150                                
PROFAMCHA050501103745103815000030That's So Raven (GOOD LIFE) - Mon to Thu @ 6:30pm                                                                           150                                
PROFAMCHA050501103815103845000030Gordy (PP) - Friday @ 7:30pm                                                                                                150                                
ID FAMCHA050501103845103859000014Nonstop Weekend Block Open (:14-:17)                                                                                        150                                
PROFAMCHA050501103859103908000009CC Disclaimer - FAST - Family.ca (:08-:10)                                                                                  150                                
PGRFAMCHA050501103908110135002227Boy Meets World                                   EP: 1-049                                                           B6068807BCC                              
PRCFAMCHA050501110135110140000005Astral ID (FEB05)                                                                                                           150                                
PROFAMCHA050501110140110154000014Nnstp Wknd - 01(PH) - WTP/BENJAMIN/FRANNY (:14-:16                                                                          150                                
PRCFAMCHA050501110154110218000024Darcy's Wild Life - Chimp (PREM) - Premiering Tomo                                                                          150                                
PROFAMCHA050501110218110248000030Ned's DSSG - TIPS (NSW) (APR05) - Coming Up Next                                                                            150                                
PRCFAMCHA050501110248110318000030xxNonstop Weekend Block Promo (NSW) - On Family                                                                             150                                
PROFAMCHA050501110318110342000024Lizzie McGuire - SFX (NSW/PM) - Today @ 3:25pm                                                                              150                                
PRCFAMCHA050501110342110349000007Family Bumpers - (Phase 2 F/W 04) - Hockey (MD-L/M                                                                          150                                
ID FAMCHA050501110349110403000014Nonstop Weekend Block Open (:14-:17)                                                                                        150                                
PROFAMCHA050501110403110412000009CC Disclaimer - FAST - Family.ca (:08-:10)                                                                                  150                                
PGRFAMCHA050501110412112837002425Ned's Declassified School Survival Guide          EPS # 05                                                             2068807BCC                              
PRCFAMCHA050501112837112907000030Darcy's Wild Life - (PREM) - Premiering Tomorrow @                                                                          150                                
PROFAMCHA050501112907112946000039Brotherly Love (NSW) - Tomorrow @ 11:30am                                                                                   150                                
PROFAMCHA050501112946113120000134Bullying - The Pledge 2004 (w/o music)                                                                                      150                                
PROFAMCHA050501113120113150000030Smart Guy (APR04) - Mon to Thurs @ 11:30pm                                                                                  150                                
PROFAMCHA050501113150113214000024Lizzie McGuire - SFX (NSW/PM) - Today @ 3:25pm                                                                              150                                
PROFAMCHA050501113214113244000030Gordy (PP) - Friday @ 7:30pm                                                                                                150                                
ID FAMCHA050501113244113300000016Nonstop Weekend Block Open (:14-:17)                                                                                        150                                
PGRFAMCHA050501113300115509002209Brotherly Love                                    EPS # 22                                                             6068807B                                
PRCFAMCHA050501115509115514000005Astral ID (FEB05)                                                                                                           150                                
PROFAMCHA050501115514115529000015Nonstop Weekend - 17(SEP) - WDP MOVIE (:14-:16)                                                                             150                                
PRCFAMCHA050501115529115553000024Darcy's Wild Life - Chimp (PREM) - Premiering Tomo                                                                          150                                
PROFAMCHA050501115553115603000010FAMJAM - Open/Close                                                                                                         150                                
INTFAMCHA050501115603115900000257MV - Take A Walk (Sara Paxton) PREMIERING ON MAY 2                                                                    A20687120                                
PROFAMCHA050501115900115914000014xxFAMJAM - Close (FAMILY) xxDNUxx                                                                                           150                                
PROFAMCHA050501115914115944000030Smart Guy (APR04) - Mon to Thurs @ 11:30pm                                                                                  150                                
ID FAMCHA050501115944120000000016Weekend Double Pix Movie Open (:13-:17)                                                                                     150                                
ID FAMCHA050501120000120009000009Rating - PG - Ian (:08-:10)                                                                                                 150                                
PGRFAMCHA050501120009133205013156Lightning, The White Stallion                                                                                         B2068807D                                
PROFAMCHA050501133205133221000016Nonstop Weekend - 17(SEP) - WDP MOVIE (:14-:16)                                                                             150                                
ID FAMCHA050501133221133238000017Weekend Double Pix Movie Open (:13-:17)                                                                                     150                                
ID FAMCHA050501133238133247000009Rating - PG - Ian (:08-:10)                                                                                                 150                                
PGRFAMCHA050501133247150220012933Clifford                                                                                                              B2068807D                                
PRCFAMCHA050501150220150225000005Astral ID (FEB05)                                                                                                           150                                
PROFAMCHA050501150225150241000016Nnstp Wknd - 01(PH) - WTP/BENJAMIN/FRANNY (:14-:16                                                                          150                                
ID FAMCHA050501150241150256000015Nonstop Weekend Block Open (:14-:17)                                                                                        150                                
PROFAMCHA050501150256150305000009CC Disclaimer - FAST - Family.ca (:08-:10)                                                                                  150                                
PGRFAMCHA050501150305152531002226Smart Guy                                         EP: 1-042                                                           A6068807BCC                              
PROFAMCHA050501152531152546000015Nnstp Wknd - 01(PH) - WTP/BENJAMIN/FRANNY (:14-:16                                                                          150                                
ID FAMCHA050501152546152601000015Nonstop Weekend Block Open (:14-:17)                                                                                        150                                
ID FAMCHA050501152601152609000008Magic of Disney - NS/NSW/PB - Shape (:06-:09)                                                                               150                                
PROFAMCHA050501152609152618000009CC Disclaimer - FAST - Family.ca (:08-:10)                                                                                  150                                
PGRFAMCHA050501152618154849002231Lizzie McGuire                                    EP: 2-001                                                           A6068607BCC                              
PRCFAMCHA050501154849154854000005Astral ID (FEB05)                                                                                                           150                                
PROFAMCHA050501154854154909000015Nnstp Wknd - 19 - RAVEN/PROUD/FILLMORE (:14-:16) (                                                                          150                                
PRCFAMCHA050501154909154933000024Darcy's Wild Life - Chimp (PREM) - Premiering Tomo                                                                          150                                
PROFAMCHA050501154933155011000038Sandlot 2 DVD Blast! Available May 3 (April 28 - M                                                                          150                                
PROFAMCHA050501155011155057000046Fillmore! - Chase (NSW) (APR05) - Today @ 4:45pm                                                                            150                                
ID FAMCHA050501155057155111000014Nonstop Weekend Block Open (:14-:17)                                                                                        150                                
PGRFAMCHA050501155111161350002239That's So Raven                                   EPS # 1-046                                                          6068807B                                
PROFAMCHA050501161350161404000014Nonstop Weekend - 21 - PROUD/FILLMORE/KIM (:14-:16                                                                          150                                
PROFAMCHA050501161404161419000015Proud Family (BOND) - (MD) - Coming Up                                                                                      150                                
PROFAMCHA050501161419161455000036Barbie Fashion Fever Contest                                                                                                150                                
PROFAMCHA050501161455161541000046Fillmore! - Chase (NSW) (APR05) - Today @ 4:45pm                                                                            150                                
PROFAMCHA050501161541161611000030Gordy (PP) - Friday @ 7:30pm                                                                                                150                                
PRCFAMCHA050501161611161704000053SBO Bash Highlights (3x daily, MD-PM/NS/NSW) air b                                                                          150                                
PROFAMCHA050501161704161727000023Lizzie McGuire - SFX2 (MD) - Tomorrow @ 5:35pm                                                                              150                                
PRCFAMCHA050501161727161757000030Darcy's Wild Life - (PREM) - Premiering Tomorrow @                                                                          150                                
ID FAMCHA050501161757161811000014Nonstop Weekend Block Open (:14-:17)                                                                                        150                                
PGRFAMCHA050501161811164046002235The Proud Family                                  EPS # 2-030                                                         A6068807E                                
PRCFAMCHA050501164046164051000005Astral ID (FEB05)                                                                                                           150                                
PROFAMCHA050501164051164105000014Nonstop Weekend - 22 - FILLMORE/KIM/LIZZIE (:14-:1                                                                          150                                
PRCFAMCHA050501164105164129000024Darcy's Wild Life - Chimp (PREM) - Premiering Tomo                                                                          150                                
PROFAMCHA050501164129164203000034Fillmore (STYLISH) - (NSW) - Weekends @ 4:15pm                                                                              150                                
PROFAMCHA050501164203164233000030American Dragon: Jake Long - Today @ 5:10pm                                                                                 150                                
PROFAMCHA050501164233164303000030Kim Possible (NOV2003) - (MD) - Coming Up                                                                                   150                                
PRCFAMCHA050501164303164352000049Nonstop Weekend - LIZZIE MCGUIRE - Chimp                                                                                    150                                
PROFAMCHA050501164352164422000030Brotherly Love (NSW) - Tomorrow @ 11:30am                                                                                   150                                
PROFAMCHA050501164422164452000030Mentors (AUG04) (NSW) - Tonight @ 6:30pm                                                                                    150                                
PRCFAMCHA050501164452164458000006Family Bumpers - (Phase 2 F/W 04) - Gymnastics (MD                                                                          150                                
ID FAMCHA050501164458164515000017Nonstop Weekend Block Open (:14-:17)                                                                                        150                                
PGRFAMCHA050501164515170753002238Disney's Fillmore!                                EPS # 1-010                                                         A6068607E                                
PROFAMCHA050501170753170807000014Nnstp Wknd - 01(PH) - WTP/BENJAMIN/FRANNY (:14-:16                                                                          150                                
PROFAMCHA050501170807170837000030American Dragon: Jake Long - Coming Up Next                                                                                 150                                
PROFAMCHA050501170837170907000030Kim Possible (NOV2003) - (MD) - Coming Up                                                                                   150                                
PROFAMCHA050501170907170937000030Brotherly Love (NSW) - Tomorrow @ 11:30am                                                                                   150                                
INTFAMCHA050501170937171057000120Gagsters - Alien Attack                           EP: 46                                                              A20686120                                
PRCFAMCHA050501171057171127000030Darcy's Wild Life - (PREM) - Premiering Tomorrow @                                                                          150                                
PROFAMCHA050501171127171157000030Gordy (PP) - Friday @ 7:30pm                                                                                                150                                
ID FAMCHA050501171157171212000015Nonstop Weekend Block Open (:14-:17)                                                                                        150                                
PGRFAMCHA050501171212173451002239Disney's American Dragon: Jake Long               EPS # 14                                                             6028607E                                
PRCFAMCHA050501173451173456000005Astral ID (FEB05)                                                                                                           150                                
PROFAMCHA050501173456173510000014Nnstp Wknd - 01(PH) - WTP/BENJAMIN/FRANNY (:14-:16                                                                          150                                
PRCFAMCHA050501173510173534000024Darcy's Wild Life - Chimp (PREM) - Premiering Tomo                                                                          150                                
PROFAMCHA050501173534173604000030Kim Possible (NOV2003) - (MD) - Coming Up                                                                                   150                                
PROFAMCHA050501173604173634000030Brotherly Love (NSW) - Tomorrow @ 11:30am                                                                                   150                                
PROFAMCHA050501173634173645000011Nonstop Weekend - LIZZIE MCGUIRE - Junk Food                                                                                150                                
PROFAMCHA050501173645173715000030Mentors (AUG04) (NSW) - Tonight @ 6:30pm                                                                                    150                                
PROFAMCHA050501173715173828000113Bullying - The Pledge 2004 (w/o music)                                                                                      150                                
PRCFAMCHA050501173828173855000027Radio Free Roscoe - (APR05) (NSW/PM) - Tonight @ 7                                                                          150                                
ID FAMCHA050501173855173911000016Nonstop Weekend Block Open (:14-:17)                                                                                        150                                
PGRFAMCHA050501173911180205002254Disney's Kim Possible                             EPS # 1-039                                                         A6068607E                                
PROFAMCHA050501180205180221000016Nnstp Wknd - 01(PH) - WTP/BENJAMIN/FRANNY (:14-:16                                                                          150                                
PRCFAMCHA050501180221180251000030Darcy's Wild Life - (PREM) - Premiering Tomorrow @                                                                          150                                
PROFAMCHA050501180251180321000030Brotherly Love (NSW) - Tomorrow @ 11:30am                                                                                   150                                
PROFAMCHA050501180321180359000038Sandlot 2 DVD Blast! Available May 3 (April 28 - M                                                                          150                                
PRCFAMCHA050501180359180426000027Radio Free Roscoe - (APR05) (NSW/PM) - Tonight @ 7                                                                          150                                
PROFAMCHA050501180426180459000033In A Heartbeat (AUG04) (NSW) - Tonight @ 7:25pm                                                                             150                                
PROFAMCHA050501180459180529000030Knock First (AUG04) (NSW/PM) - Weekends @ 7:50pm                                                                            150                                
PROFAMCHA050501180529180559000030Gordy (PP) - Friday @ 7:30pm                                                                                                150                                
ID FAMCHA050501180559180613000014Nonstop Weekend Block Open (:14-:17)                                                                                        150                                
PGRFAMCHA050501180613182852002239Disney's Dave the Barbarian                       EPS # 07                                                             6068607E                                
PRCFAMCHA050501182852182857000005Astral ID (FEB05)                                                                                                           150                                
PROFAMCHA050501182857182912000015Nnstp Wknd - 01(PH) - WTP/BENJAMIN/FRANNY (:14-:16                                                                          150                                
PRCFAMCHA050501182912182936000024Darcy's Wild Life - Chimp (PREM) - Premiering Tomo                                                                          150                                
PROFAMCHA050501182936183006000030Mentors (AUG04) (NSW) - Coming Up Next                                                                                      150                                
PRCFAMCHA050501183006183033000027Radio Free Roscoe - (APR05) (NSW/PM) - Tonight @ 7                                                                          150                                
PRCFAMCHA050501183033183118000045Famous Players Popcorn Parties                                                                                              150                                
PROFAMCHA050501183118183151000033In A Heartbeat (AUG04) (NSW) - Tonight @ 7:25pm                                                                             150                                
PRCFAMCHA050501183151183218000027Nonstop Weekend - KIM POSSIBLE - Villains                                                                                   150                                
PROFAMCHA050501183218183248000030Knock First (AUG04) (NSW/PM) - Weekends @ 7:50pm                                                                            150                                
PRCFAMCHA050501183248183257000009Family Bumpers - (Phase 2 F/W 04) - Skateboard (MD                                                                          150                                
ID FAMCHA050501183257183311000014Nonstop Weekend Block Open (:14-:17)                                                                                        150                                
PROFAMCHA050501183311183320000009CC Disclaimer - FAST - Family.ca (:08-:10)                                                                                  150                                
PGRFAMCHA050501183320185631002311Mentors                                           EP: 4-043                                                     C20779A1055607ACC                              
PROFAMCHA050501185631185645000014Nnstp Wknd - 26 - RADIO/HEARTBEAT/KNOCK (:14-:16)                                                                           150                                
PRCFAMCHA050501185645185715000030Darcy's Wild Life - (PREM) - Premiering Tomorrow @                                                                          150                                
PRCFAMCHA050501185715185742000027Radio Free Roscoe - (APR05) (NSW) - Coming Up Next                                                                          150                                
PROFAMCHA050501185742185916000134Bullying - The Pledge 2004 (w/o music)                                                                                      150                                
PROFAMCHA050501185916185949000033In A Heartbeat (AUG04) (NSW) - Tonight @ 7:25pm                                                                             150                                
PROFAMCHA050501185949185955000006Phil of the Future IDs - You're Watching Family...                                                                          150                                
ID FAMCHA050501185955190009000014Nonstop Weekend Block Open (:14-:17)                                                                                        150                                
PROFAMCHA050501190009190018000009CC Disclaimer - FAST - Family.ca (:08-:10)                                                                                  150                                
PGRFAMCHA050501190018192248002230Radio Free Roscoe                                 EPS # 45                                                      A05978A1025607ACC                              
PRCFAMCHA050501192248192253000005Astral ID (FEB05)                                                                                                           150                                
PROFAMCHA050501192253192308000015Nnstp Wknd - 27 - HEARTBEAT/KNOCK/DARK (:14-:16) (                                                                          150                                
PROFAMCHA050501192308192341000033In A Heartbeat (AUG04) (NSW) - Coming Up Next                                                                               150                                
PRCFAMCHA050501192341192434000053SBO Bash Highlights (3x daily, MD-PM/NS/NSW) air b                                                                          150                                
PROFAMCHA050501192434192445000011Nonstop Weekend - LIZZIE MCGUIRE - Junk Food                                                                                150                                
PRCFAMCHA050501192445192454000009xxFamily Bumpers - (Phase 1 Spring 04) - DJ Spinni                                                                          150                                
ID FAMCHA050501192454192508000014Nonstop Weekend Block Open (:14-:17)                                                                                        150                                
PROFAMCHA050501192508192517000009CC Disclaimer - FAST - Family.ca (:08-:10)                                                                                  150                                
PGRFAMCHA050501192517194750002233In A Heartbeat                                    EP: 1-007                                                     B57189A1065807ACC                              
PROFAMCHA050501194750194804000014Nnstp Wknd - 01(PH) - WTP/BENJAMIN/FRANNY (:14-:16                                                                          150                                
PRCFAMCHA050501194804194834000030Darcy's Wild Life - (PREM) - Premiering Tomorrow @                                                                          150                                
PROFAMCHA050501194834194904000030Knock First (AUG04) (NSW/PM) - Weekends @ 7:50pm                                                                            150                                
PRCFAMCHA050501194904194931000027Radio Free Roscoe - (APR05) (NS/M-T) - Tomorrow @                                                                           150                                
PROFAMCHA050501194931195001000030Gordy (PP) - Friday @ 7:30pm                                                                                                150                                
ID FAMCHA050501195001195015000014Nonstop Weekend Block Open (:14-:17)                                                                                        150                                
PROFAMCHA050501195015195024000009CC Disclaimer - FAST - Family.ca (:08-:10)                                                                                  150                                
PGRFAMCHA050501195024201133002109Knock First                                       EPS # 10                                                             20688110CC                              
PRCFAMCHA050501201133201138000005Astral ID (FEB05)                                                                                                           150                                
PROFAMCHA050501201138201152000014Nnstp Wknd - 01(PH) - WTP/BENJAMIN/FRANNY (:14-:16                                                                          150                                
PRCFAMCHA050501201152201216000024Darcy's Wild Life - Chimp (PREM) - Premiering Tomo                                                                          150                                
PROFAMCHA050501201216201329000113Bullying - The Pledge 2004 (w/o music)                                                                                      150                                
INTFAMCHA050501201329201423000054Gagsters                                          EP: 46                                                              A20686120                                
PRCFAMCHA050501201423201453000030Radio Free Roscoe (NSW/PM) - NEW EPS - Sundays @ 7                                                                          150                                
PROFAMCHA050501201453201523000030Double Teamed (SEPT12) - Next Friday @ 7:30pm                                                                               150                                
PROFAMCHA050501201523201553000030Gordy (PP) - Friday @ 7:30pm                                                                                                150                                
ID FAMCHA050501201553201609000016Nonstop Weekend Block Open (:14-:17)                                                                                        150                                
PGRFAMCHA050501201609204029002420Are You Afraid Of The Dark?                       EP: 1-070                                                     SR0307 1066807ACC                              
PROFAMCHA050501204029204043000014Nnstp Wknd - 01(PH) - WTP/BENJAMIN/FRANNY (:14-:16                                                                          150                                
PRCFAMCHA050501204043204058000015@ The Movies (AUG04 -1) - Weekens @ 8:40pm                                                                                  150                                
PRCFAMCHA050501204058204128000030Darcy's Wild Life - (PREM) - Premiering Tomorrow @                                                                          150                                
PRCFAMCHA050501204128204137000009Radio Free Roscoe ID (MAR) - You're Watching Famil                                                                          150                                
ID FAMCHA050501204137204151000014Nonstop Weekend Block Open (:14-:17)                                                                                        150                                
PGRFAMCHA050501204151205751001600@ The Movies (1)                                                                                                      B10628150                                
PROFAMCHA050501205751205805000014Nightly Pix Line-up (SEPT) - GENERIC (:14-:16)                                                                              150                                
PRCFAMCHA050501205805205835000030Darcy's Wild Life - (PREM) - Premiering Tomorrow @                                                                          150                                
PRCFAMCHA050501205835205907000032That's So Raven - Science Riff (NS) (MAY05) - Tomo                                                                          150                                
PRCFAMCHA050501205907205926000019Nonstop Weekend - EVEN STEVENS - Locker                                                                                     150                                
PROFAMCHA050501205926205956000030Gordy (PP) - Friday @ 7:30pm                                                                                                150                                
ID FAMCHA050501205956210006000010xxNightly Pix Movie Open (:10-:15)                                                                                          150                                
ID FAMCHA050501210006210015000009Rating - PG - Ian (:08-:10)                                                                                                 150                                
PGRFAMCHA050501210015224654014639School Ties                                                                                                           C2068807D                                
PRCFAMCHA050501224654224659000005Astral ID (FEB05)                                                                                                           150                                
PROFAMCHA050501224659224714000015Nightly Pix Line-up (SEPT) - GENERIC (:14-:16)                                                                              150                                
ID FAMCHA050501224714224725000011xxNightly Pix Movie Open (:10-:15)                                                                                          150                                
ID FAMCHA050501224725224735000010Rating - AA - Ian (:08-:10)                                                                                                 150                                
PGRFAMCHA050501224735002317013542The Presidio                                                                                                          C2068807D                                
PROFAMCHA050501002317002333000016Nnstp Wknd - 01(PH) - WTP/BENJAMIN/FRANNY (:14-:16                                                                          150                                
PRCFAMCHA050501002333002357000024Darcy's Wild Life - Chimp (PREM) - Premiering Tomo                                                                          150                                
PRCFAMCHA050501002357002429000032That's So Raven - Visions (NS) (MAY05) - Tomorrow                                                                           150                                
PROFAMCHA050501002429002439000010FAMJAM - Open/Close                                                                                                         150                                
INTFAMCHA050501002439002802000323MV Disney - Come Clean (Hillary Duff)                                                                                  60688120                                
PROFAMCHA050501002802002816000014xxFAMJAM - Close (FAMILY) xxDNUxx                                                                                           150                                
PROFAMCHA050501002816002846000030Zoey 101 - Perfect (NS/FRI) (MAR05) - Friday @ 6pm                                                                          150                                
PROFAMCHA050501002846002915000029Smart Guy (APR04) - Mon to Thurs @ 11:30pm                                                                                  150                                
PROFAMCHA050501002915002945000030Gordy (PP) - Friday @ 7:30pm                                                                                                150                                
ID FAMCHA050501002945003002000017Nonstop Weekend Block Open (:14-:17)                                                                                        150                                
PGRFAMCHA050501003002005422002420Are You Afraid Of The Dark?                       EP: 1-005                                                     SR0302 1066807A                                
PRCFAMCHA050501005422005427000005Astral ID (FEB05)                                                                                                           150                                
PRCFAMCHA050501005427005457000030Darcy's Wild Life - (PREM) - Premiering Tomorrow @                                                                          150                                
PRCFAMCHA050501005457005529000032That's So Raven - Science Riff (NS) (MAY05) - Tomo                                                                          150                                
PROFAMCHA050501005529005539000010FAMJAM - Open/Close                                                                                                         150                                
INTFAMCHA050501005539005842000303MV Disney - Girl Power (Cheetah Girls)                                                                                 60688120                                
PROFAMCHA050501005842005856000014xxFAMJAM - Close (FAMILY) xxDNUxx                                                                                           150                                
PRCFAMCHA050501005856005926000030Phil of the Future (NS) (PIM) (DEC04) - Friday @ 6                                                                          150                                
INTFAMCHA050501005926010025000059Gagsters - Alien Attack                           EP: 46                                                              A20686120                                
PROFAMCHA050501010025010055000030Zoey 101 - Perfect (NS/FRI) (MAR05) - Friday @ 6pm                                                                          150                                
PROFAMCHA050501010055010124000029Smart Guy (APR04) - Mon to Thurs @ 11:30pm                                                                                  150                                
PROFAMCHA050501010124010154000030Gordy (PP) - Friday @ 7:30pm                                                                                                150                                
PRCFAMCHA050501010154010224000030Astral - Clock (until June 26)                                                                                              150                                
SO FAMCHA050501010224010236000012Sign Off                                                                                                                                                       
OFFFAMCHA050501010236043000032724OFF AIR                                                                                                                                                        
SO FAMCHA050502043000043011000011Sign On (oct 1)                                                                                                                                                
PROFAMCHA050502043011043020000009CC Disclaimer - FAST - Family.ca (:08-:10)                                                                                  150                                
PGRFAMCHA050502043020045313002253Franklin                                          EPS # 4-042                                                   B38149A1065607ECC                              
PRCFAMCHA050502045313045318000005Astral ID (FEB05)                                                                                                           150                                
PROFAMCHA050502045318045333000015PS - 01(PH) - WTP/Benjamin/Franny                                                                                           150                                
ID FAMCHA050502045333045346000013PS Playhouse AM Block Open (:10-:15)                                                                                        150                                
PROFAMCHA050502045346045355000009CC Disclaimer - FAST - Family.ca (:08-:10)                                                                                  150                                
PGRFAMCHA050502045355051625002230King                                              EPS # 2-022                                                   B75777A1065607ECC                              
PROFAMCHA050502051625051640000015PS - 01(PH) - WTP/Benjamin/Franny                                                                                           150                                
ID FAMCHA050502051640051653000013PS Playhouse AM Block Open (:10-:15)                                                                                        150                                
PROFAMCHA050502051653051702000009CC Disclaimer - FAST - Family.ca (:08-:10)                                                                                  150                                
PGRFAMCHA050502051702054342002640Katie And Orbie                                   EP: 4-040                                                     C19664A1065607ECC                              
PRCFAMCHA050502054342054347000005Astral ID (FEB05)                                                                                                           150                                
PROFAMCHA050502054347054403000016PS - 01(PH) - WTP/Benjamin/Franny                                                                                           150                                
ID FAMCHA050502054403054416000013PS Playhouse AM Block Open (:10-:15)                                                                                        150                                
PROFAMCHA050502054416054425000009CC Disclaimer - FAST - Family.ca (:08-:10)                                                                                  150                                
PGRFAMCHA050502054425060718002253Franklin                                          EP: 4-043                                                     B38150A1065607ECC                              
PROFAMCHA050502060718060733000015PS - 01(PH) - WTP/Benjamin/Franny                                                                                           150                                
ID FAMCHA050502060733060746000013PS Playhouse AM Block Open (:10-:15)                                                                                        150                                
PROFAMCHA050502060746060755000009CC Disclaimer - FAST - Family.ca (:08-:10)                                                                                  150                                
PGRFAMCHA050502060755063026002231Something Else                                    EP: 1-010                                                     B69264A1065607ECC                              
PRCFAMCHA050502063026063031000005Astral ID (FEB05)                                                                                                           150                                
PROFAMCHA050502063031063046000015PS - 01(PH) - WTP/Benjamin/Franny                                                                                           150                                
ID FAMCHA050502063046063059000013PS Playhouse AM Block Open (:10-:15)                                                                                        150                                
PROFAMCHA050502063059063108000009CC Disclaimer - FAST - Family.ca (:08-:10)                                                                                  150                                
PGRFAMCHA050502063108065343002235Hoze Houndz                                       EP: 2-019                                                     B34008 1065607ECC                              
PROFAMCHA050502065343065358000015PS - 01(PH) - WTP/Benjamin/Franny                                                                                           150                                
ID FAMCHA050502065358065412000014Mad Dash Block Open (:13-:15)                                                                                               150                                
PROFAMCHA050502065412065421000009CC Disclaimer - FAST - Family.ca (:08-:10)                                                                                  150                                
PGRFAMCHA050502065421071653002232Disney's Aladdin                                  EP: 1-069                                                            6068607ECC                              
PRCFAMCHA050502071653071658000005Astral ID (FEB05)                                                                                                           150                                
PROFAMCHA050502071658071712000014PS - 01(PH) - WTP/Benjamin/Franny                                                                                           150                                
PRCFAMCHA050502071712071742000030Darcy's Wild Life - (PREM) - Premiering Tonight @                                                                           150                                
PROFAMCHA050502071742071812000030Kim Possible 007 (FEB05) (MD) - Coming Up Next                                                                              150                                
PROFAMCHA050502071812071925000113Bullying - The Pledge 2004 (w/o music)                                                                                      150                                
PROFAMCHA050502071925071953000028Lilo & Stitch (MD/AM) (JAN05) - Today @ 7:50am                                                                              150                                
PROFAMCHA050502071953072017000024Hercules (Count) - Today @ 12:10pm                                                                                          150                                
PROFAMCHA050502072017072047000030Gordy (PP) - Friday @ 7:30pm                                                                                                150                                
ID FAMCHA050502072047072100000013Mad Dash Block Open (:13-:15)                                                                                               150                                
PGRFAMCHA050502072100074354002254Disney's Kim Possible                             EPS # 1-035                                                         A6068607E                                
PROFAMCHA050502074354074409000015PS - 01(PH) - WTP/Benjamin/Franny                                                                                           150                                
PRCFAMCHA050502074409074433000024Darcy's Wild Life - Chimp (PREM) - Premiering Toni                                                                          150                                
PROFAMCHA050502074433074501000028Lilo & Stitch (MD) (JAN05) - Coming Up Next                                                                                 150                                
PROFAMCHA050502074501074525000024Jason (Hiking) - Today @ 11:25am                                                                                            150                                
PROFAMCHA050502074525074556000031Hercules (Wits) - Today @ 12:10pm                                                                                           150                                
PROFAMCHA050502074556074618000022Recess - Dance - (APR05) - Today @ 3:50pm                                                                                   150                                
PROFAMCHA050502074618074648000030Brotherly Love (NSW) - Tomorrow @ 11:30am                                                                                   150                                
INTFAMCHA050502074648074742000054Gagsters                                          EP: 46                                                              A20686120                                
PROFAMCHA050502074742074810000028Proud Family (BOND) - (MD) - Coming Up                                                                                      150                                
PROFAMCHA050502074810074840000030Gordy (PP) - Friday @ 7:30pm                                                                                                150                                
PRCFAMCHA050502074840074846000006Family Bumpers - (Phase 2 F/W 04) - Gymnastics (MD                                                                          150                                
ID FAMCHA050502074846074900000014Mad Dash Block Open (:13-:15)                                                                                               150                                
PGRFAMCHA050502074900081139002239Disney's Lilo & Stitch                            EPS # 37                                                            A6068607E                                
PRCFAMCHA050502081139081144000005Astral ID (FEB05)                                                                                                           150                                
PROFAMCHA050502081144081200000016PS - 01(PH) - WTP/Benjamin/Franny                                                                                           150                                
PRCFAMCHA050502081200081230000030Darcy's Wild Life - (PREM) - Premiering Tonight @                                                                           150                                
PRCFAMCHA050502081230081300000030xxFranny's Feet (PH-M/W/F) - Today @ 8:45am                                                                                 150                                
PROFAMCHA050502081300081329000029xxWinnie the Pooh (TRAP) (PH/AM) - Today @ 9:10am                                                                           150                                
PROFAMCHA050502081329081359000030Stanley - Get Into It (MAR05) - (PH-M/W/F) - Today                                                                          150                                
INTFAMCHA050502081359081529000130Disney Circle Time (2005) - Growing Smiles                                                                             60688120                                
PROFAMCHA050502081529081548000019Henry's World (JAN05) - Today @ 10:35am                                                                                     150                                
PRCFAMCHA050502081548081619000031King (FRIENDS/0804) (PH/AM) - Weekdays @ 11am                                                                               150                                
PROFAMCHA050502081619081649000030Gordy (PP) - Friday @ 7:30pm                                                                                                150                                
ID FAMCHA050502081649081704000015Mad Dash Block Open (:13-:15)                                                                                               150                                
PROFAMCHA050502081704081713000009CC Disclaimer - FAST - Family.ca (:08-:10)                                                                                  150                                
PGRFAMCHA050502081713084017002304The Little Mermaid                                EP: 1-015                                                            6068607ECC                              
PROFAMCHA050502084017084032000015PS - 01(PH) - WTP/Benjamin/Franny                                                                                           150                                
PRCFAMCHA050502084032084102000030xxFranny's Feet (PH) - Coming Up Next                                                                                       150                                
ID FAMCHA050502084102084117000015Franny's Feet Web BBD - Part of Playhouse @ family                                                                          150                                
PROFAMCHA050502084117084146000029xxWinnie the Pooh (TRAP) (PH/AM) - Today @ 9:10am                                                                           150                                
PROFAMCHA050502084146084216000030Stanley - Get Into It (MAR05) - (PH-M/W/F) - Today                                                                          150                                
PRCFAMCHA050502084216084312000056Playhouse - STANLEY - Fish Song                                                                                             150                                
PROFAMCHA050502084312084342000030Higgly Town Heroes (MAR05) (T/T) - Tomorrow @ 10:0                                                                          150                                
PROFAMCHA050502084342084401000019Henry's World (JAN05) - Today @ 10:35am                                                                                     150                                
PRCFAMCHA050502084401084432000031King (FRIENDS/0804) (PH/AM) - Weekdays @ 11am                                                                               150                                
PRCFAMCHA050502084432084449000017Hoze Houndz (SQUIRT) - (PS) - Weekdays @ 6:35am                                                                             150                                
ID FAMCHA050502084449084500000011PS Playhouse PM Block Open (:10-:15)                                                                                        150                                
PROFAMCHA050502084500084509000009CC Disclaimer - FAST - Family.ca (:08-:10)                                                                                  150                                
PGRFAMCHA050502084509090739002230Franny's Feet                                     EPS # 1-010                                                   C23970A1065607ECC                              
PRCFAMCHA050502090739090744000005Astral ID (FEB05)                                                                                                           150                                
PROFAMCHA050502090744090759000015PS - 01(PH) - WTP/Benjamin/Franny                                                                                           150                                
PROFAMCHA050502090759090828000029xxWinnie the Pooh (TRAP) (PH/AM) - Coming Up Next                                                                           150                                
PROFAMCHA050502090828090858000030Stanley - Get Into It (MAR05) - (PH-M/W/F) - Today                                                                          150                                
PROFAMCHA050502090858090917000019Henry's World (JAN05) - Today @ 10:35am                                                                                     150                                
PRCFAMCHA050502090917090948000031King (FRIENDS/0804) (PH/AM) - Weekdays @ 11am                                                                               150                                
INTFAMCHA050502090948091203000215Disney Circle Time (2005) - Endless Story                                                                              60688120                                
PROFAMCHA050502091203091233000030Higgly Town Heroes (MAR05) (T/T) - Tomorrow @ 10:0                                                                          150                                
ID FAMCHA050502091233091248000015Franny's Feet Web BBD - Part of Playhouse @ family                                                                          150                                
ID FAMCHA050502091248091300000012PS Playhouse AM Block Open (:10-:15)                                                                                        150                                
PROFAMCHA050502091300091309000009CC Disclaimer - FAST - Family.ca (:08-:10)                                                                                  150                                
PGRFAMCHA050502091309093555002246The New Adventures of Winnie the Pooh             EP: 1-015                                                            6068607ECC                              
PROFAMCHA050502093555093610000015PS - 01(PH) - WTP/Benjamin/Franny                                                                                           150                                
PROFAMCHA050502093610093640000030Stanley - Get Into It (MAR05) - (PH-M/W/F) - Today                                                                          150                                
PROFAMCHA050502093640093659000019Henry's World (JAN05) - Today @ 10:35am                                                                                     150                                
PRCFAMCHA050502093659093730000031King (FRIENDS/0804) (PH/AM) - Weekdays @ 11am                                                                               150                                
PRCFAMCHA050502093730093747000017Hoze Houndz (SQUIRT) - (PS) - Weekdays @ 6:35am                                                                             150                                
PRCFAMCHA050502093747093833000046Playhouse - STANLEY - Squirrel Song                                                                                         150                                
PRCFAMCHA050502093833093905000032xxBenjamin Bear (PH-T/T) - Tomorrow @ 8:45am                                                                                150                                
PROFAMCHA050502093905093935000030Higgly Town Heroes (MAR05) (T/T) - Tomorrow @ 10:0                                                                          150                                
PRCFAMCHA050502093935093947000012Family Bumpers - (Phase 1 Spring 04) - Funhouse (P                                                                          150                                
ID FAMCHA050502093947094000000013PS Playhouse AM Block Open (:10-:15)                                                                                        150                                
PGRFAMCHA050502094000100402002402JoJo's Circus                                     EPS # 28                                                             6068607E                                
PRCFAMCHA050502100402100407000005Astral ID (FEB05)                                                                                                           150                                
PROFAMCHA050502100407100421000014PS - 01(PH) - WTP/Benjamin/Franny                                                                                           150                                
PROFAMCHA050502100421100451000030Stanley - Get Into It (MAR05) - (PH-M/W/F) - Comin                                                                          150                                
PROFAMCHA050502100451100510000019Henry's World (JAN05) - Today @ 10:35am                                                                                     150                                
PRCFAMCHA050502100510100541000031King (FRIENDS/0804) (PH/AM) - Weekdays @ 11am                                                                               150                                
PRCFAMCHA050502100541100555000014Playhouse - HOZE HOUNDZ - Skater                                                                                            150                                
PRCFAMCHA050502100555100627000032xxBenjamin Bear (PH-T/T) - Tomorrow @ 8:45am                                                                                150                                
PRCFAMCHA050502100627100723000056Playhouse - STANLEY - Fish Song                                                                                             150                                
PROFAMCHA050502100723100753000030Higgly Town Heroes (MAR05) (T/T) - Tomorrow @ 10:0                                                                          150                                
ID FAMCHA050502100753100805000012PS Playhouse AM Block Open (:10-:15)                                                                                        150                                
PROFAMCHA050502100805100814000009CC Disclaimer - FAST - Family.ca (:08-:10)                                                                                  150                                
PGRFAMCHA050502100814103211002357Stanley                                           EP: 1-006                                                           A6068607ECC                              
PROFAMCHA050502103211103226000015PS - 01(PH) - WTP/Benjamin/Franny                                                                                           150                                
PROFAMCHA050502103226103245000019Henry's World (JAN05) - Coming Up Next                                                                                      150                                
PRCFAMCHA050502103245103316000031King (FRIENDS/0804) (PH/AM) - Weekdays @ 11am                                                                               150                                
PRCFAMCHA050502103316103348000032xxBenjamin Bear (PH-T/T) - Tomorrow @ 8:45am                                                                                150                                
ID FAMCHA050502103348103400000012PS Playhouse AM Block Open (:10-:15)                                                                                        150                                
PROFAMCHA050502103400103409000009CC Disclaimer - FAST - Family.ca (:08-:10)                                                                                  150                                
PGRFAMCHA050502103409105811002402Henry's World                                     EP: 2-026                                                     B81057A1065607GCC                              
PRCFAMCHA050502105811105816000005Astral ID (FEB05)                                                                                                           150                                
PROFAMCHA050502105816105831000015PS - 01(PH) - WTP/Benjamin/Franny                                                                                           150                                
PRCFAMCHA050502105831105902000031King (FRIENDS/0804) (PH/AM) - Weekdays @ 11am                                                                               150                                
PRCFAMCHA050502105902105916000014Playhouse - HOZE HOUNDZ - Skater                                                                                            150                                
PRCFAMCHA050502105916105948000032xxBenjamin Bear (PH-T/T) - Tomorrow @ 8:45am                                                                                150                                
ID FAMCHA050502105948110000000012PS Playhouse AM Block Open (:10-:15)                                                                                        150                                
PROFAMCHA050502110000110009000009CC Disclaimer - FAST - Family.ca (:08-:10)                                                                                  150                                
PGRFAMCHA050502110009112239002230King                                              EP: 003                                                       B75758A1065607ECC                              
PROFAMCHA050502112239112254000015PS - 01(PH) - WTP/Benjamin/Franny                                                                                           150                                
PRCFAMCHA050502112254112318000024Darcy's Wild Life - Chimp (PREM) - Premiering Toni                                                                          150                                
PROFAMCHA050502112318112342000024Jason (Hiking) - Coming Up Next                                                                                             150                                
PROFAMCHA050502112342112413000031Hercules (Wits) - Today @ 12:10pm                                                                                           150                                
PROFAMCHA050502112413112447000034Fillmore (STYLISH) - (NSW) - Weekends @ 4:15pm                                                                              150                                
PROFAMCHA050502112447112509000022Recess - Dance - (APR05) - Today @ 3:50pm                                                                                   150                                
PROFAMCHA050502112509112539000030Brotherly Love (NSW) - Tomorrow @ 11:30am                                                                                   150                                
PROFAMCHA050502112539112607000028Proud Family (BOND) - (MD) - Coming Up                                                                                      150                                
PROFAMCHA050502112607112637000030Gordy (PP) - Friday @ 7:30pm                                                                                                150                                
PROFAMCHA050502112637112645000008Phil of the Future IDs - I'm Ricky Ullman, You're                                                                           150                                
ID FAMCHA050502112645112700000015Mad Dash Block Open (:13-:15)                                                                                               150                                
PGRFAMCHA050502112700114915002215Jason and the Heroes of Mount Olympus             EPS # 12                                                             6068607E                                
PRCFAMCHA050502114915114920000005Astral ID (FEB05)                                                                                                           150                                
PROFAMCHA050502114920114935000015PS - 01(PH) - WTP/Benjamin/Franny                                                                                           150                                
PRCFAMCHA050502114935114947000012Mad Dash - WEEKENDERS - Reality                                                                                             150                                
ID FAMCHA050502114947115000000013Mad Dash Block Open (:13-:15)                                                                                               150                                
PGRFAMCHA050502115000121239002239Disney's Lilo & Stitch: The Series                EP: 52                                                               6068607E                                
PROFAMCHA050502121239121254000015PS - 01(PH) - WTP/Benjamin/Franny                                                                                           150                                
ID FAMCHA050502121254121308000014Mad Dash Block Open (:13-:15)                                                                                               150                                
PROFAMCHA050502121308121317000009CC Disclaimer - FAST - Family.ca (:08-:10)                                                                                  150                                
PGRFAMCHA050502121317123615002258Disney's Hercules                                 EP: 1-048                                                            6068607ECC                              
PRCFAMCHA050502123615123620000005Astral ID (FEB05)                                                                                                           150                                
PROFAMCHA050502123620123635000015PS - 01(PH) - WTP/Benjamin/Franny                                                                                           150                                
PRCFAMCHA050502123635123645000010Mad Dash - LIZZIE MCGUIRE - Going In                                                                                        150                                
ID FAMCHA050502123645123700000015Mad Dash Block Open (:13-:15)                                                                                               150                                
PROFAMCHA050502123700123709000009CC Disclaimer - FAST - Family.ca (:08-:10)                                                                                  150                                
PGRFAMCHA050502123709130001002252Goof Troop                                        EP: 1-023                                                            6068607ECC                              
PROFAMCHA050502130001130016000015PS - 01(PH) - WTP/Benjamin/Franny                                                                                           150                                
PROFAMCHA050502130016130052000036Barbie Fashion Fever Contest                                                                                                150                                
ID FAMCHA050502130052130107000015PS Playhouse PM Block Open (:10-:15)                                                                                        150                                
PROFAMCHA050502130107130116000009CC Disclaimer - FAST - Family.ca (:08-:10)                                                                                  150                                
PGRFAMCHA050502130116132419002303The Little Mermaid                                EP: 1-030                                                            6068607ECC                              
PRCFAMCHA050502132419132424000005Astral ID (FEB05)                                                                                                           150                                
PROFAMCHA050502132424132438000014PS - 01(PH) - WTP/Benjamin/Franny                                                                                           150                                
PRCFAMCHA050502132438132450000012Family Bumpers - (Phase 1 Spring 04) - Funhouse (P                                                                          150                                
ID FAMCHA050502132450132500000010PS Playhouse PM Block Open (:10-:15)                                                                                        150                                
PROFAMCHA050502132500132509000009CC Disclaimer - FAST - Family.ca (:08-:10)                                                                                  150                                
PGRFAMCHA050502132509134749002240Disney's Aladdin                                  EP: 1-013                                                           A6068607ECC                              
PROFAMCHA050502134749134804000015PS - 22(PH) - DALMATIANS/HOZE/HOUSE (:14-:16) (AUG                                                                          150                                
ID FAMCHA050502134804134819000015PS Playhouse PM Block Open (:10-:15)                                                                                        150                                
PGRFAMCHA050502134819141103002244Disney's 101 Dalmatians: The Series               EPS # 1-042                                                         A6068607E                                
PRCFAMCHA050502141103141108000005Astral ID (FEB05)                                                                                                           150                                
