SO FAMCHA020701043000043011000011Sign On (oct 1)                                                                                                                                                
PGRFAMCHA020701043011045415002404Out of the Box                                    Horsing Around                                                      A6068607A                                
ID FAMCHA020701045415045420000005Generic ID - Fingerpaint                                                                                                    150                                
PROFAMCHA020701045420045430000010Preschool Line-Up - 01 - ART/KATIE/DUCKTALES                                                                                150                                
PGRFAMCHA020701045430051440002010Art Attack                                        1-077                                                                60686110                                
ID FAMCHA020701051440051450000010Generic ID - Hula Hoop                                                                                                      150                                
PROFAMCHA020701051450051500000010Preschool Line-Up - 02 - KATIE/DUCKTALES/LULU                                                                               150                                
PROFAMCHA020701051500051508000008CC Is Brought To You By - Ian **DNU AFTER 09/22**                                                                           150                                
PGRFAMCHA020701051508054143002635Katie And Orbie                                   How Orbie Helped/Stone Cold Soup/Orbie's Wish                 C11896A1065607ECC                              
ID FAMCHA020701054143054153000010Generic ID - Family w/dog                                                                                                   150                                
PROFAMCHA020701054153054219000026DuckTales (CLIP) - Coming Up                                                                                                150                                
PROFAMCHA020701054219054237000018Elmo's World (NEW EPS) - Today @ 8:45am                                                                                     150                                
PROFAMCHA020701054237054250000013Little Lulu (SWEEP) - Today @ 6:05am                                                                                        150                                
PROFAMCHA020701054250054300000010Preschool Line-Up - 03 - DUCKTALES/LULU/FRANKLIN                                                                            150                                
PROFAMCHA020701054300054308000008CC Is Brought To You By - Lark **DNU AFTER 09/22**                                                                          150                                
PGRFAMCHA020701054308060556002248Disney's DuckTales                                Nothing To Fear                                                     A6068607ECC                              
ID FAMCHA020701060556060601000005Generic ID - Marbles                                                                                                        150                                
PROFAMCHA020701060601060619000018Elmo's World (NEW EPS) - Today @ 8:45am                                                                                     150                                
PROFAMCHA020701060619060650000031Hoze Houndz (TEETH) - Today @ 11:35am                                                                                       150                                
PROFAMCHA020701060650060700000010Preschool Line-Up - 04 - LULU/FRANKLIN/GOOF                                                                                 150                                
PROFAMCHA020701060700060708000008CC Is Brought To You By - Ian **DNU AFTER 09/22**                                                                           150                                
PGRFAMCHA020701060708063043002335Little Lulu Show; The                             Wild Boy, The Whistle Blower, Elephant Ride                   B20186A1065607ECC                              
ID FAMCHA020701063043063048000005Generic ID - Bubbles*                                                                                                       150                                
PROFAMCHA020701063048063058000010Preschool Line-Up - 05 - FRANKLIN/GOOF/BUZZ                                                                                 150                                
PROFAMCHA020701063058063106000008CC Is Brought To You By - Lark **DNU AFTER 09/22**                                                                          150                                
PGRFAMCHA020701063106065359002253Franklin                                          Franklin's Big Game/Franklin's Reading Club                   A53205A1065607ECC                              
ID FAMCHA020701065359065404000005Generic ID - Fingerpaint                                                                                                    150                                
PRCFAMCHA020701065404065418000014Goof Troop (SOUP) - Coming Up                                                                                               150                                
PRCFAMCHA020701065418065456000038Funshine 2002 - GENERIC TOUR SPOT                                                                                           150                                
PRCFAMCHA020701065456065529000033Funshine 2002 - Spot #07 - JUN 29 TO JUL 01                                                                                 150                                
ID FAMCHA020701065529065544000015Schoolhouse Promo - Coming Up                                                                                               150                                
PROFAMCHA020701065544065559000015PB&J Otter (SAND) - Today @ 9:30am                                                                                          150                                
INTFAMCHA020701065559065922000323Schoolhouse Rock - Little Twelvetoes                                                                                  A60686120                                
PROFAMCHA020701065922065940000018Buzz Lightyear (DO YOUR BEST) - Today @ 7:30am                                                                              150                                
PROFAMCHA020701065940065950000010Preschool Line-Up - 06 - GOOF/BUZZ/ART                                                                                      150                                
ID FAMCHA020701065950070000000010xxMagic of Disney - V2(sky) - KID FEMALE                                                                                    150                                
PROFAMCHA020701070000070008000008CC Is Brought To You By - Lark **DNU AFTER 09/22**                                                                          150                                
PGRFAMCHA020701070008072250002242Goof Troop                                        Cabana Fever                                                         6068607ECC                              
ID FAMCHA020701072250072300000010Generic ID - Ring around the rosie                                                                                          150                                
PROFAMCHA020701072300072323000023Buzz Lightyear (PROTON BURGERS) - Coming Up                                                                                 150                                
PROFAMCHA020701072323072340000017Katie and Orbie (OCT2001) - Today @ 9:55am                                                                                  150                                
PROFAMCHA020701072340072408000028Stanley (ELEPHANT) - Today @ 9:05am                                                                                         150                                
ID FAMCHA020701072408072428000020Schoolhouse Promo - Coming Up                                                                                               150                                
PROFAMCHA020701072428072444000016Legend of Tarzan (THUNDER-D12/WKNDS) - Today @ 5pm                                                                          150                                
INTFAMCHA020701072444072807000323Schoolhouse Rock - Telegraph Line                                                                                     A60686120                                
PRCFAMCHA020701072807072845000038Funshine 2002 - GENERIC TOUR SPOT                                                                                           150                                
PRCFAMCHA020701072845072918000033Funshine 2002 - Spot #07 - JUN 29 TO JUL 01                                                                                 150                                
PROFAMCHA020701072918072932000014New Adv of WTP (REMOTE) - Today @ 10:20am                                                                                   150                                
PROFAMCHA020701072932072950000018Elmo's World (NEW EPS) - Today @ 8:45am                                                                                     150                                
PROFAMCHA020701072950073002000012Preschool Line-Up - 07 - BUZZ/ART/LULU                                                                                      150                                
PROFAMCHA020701073002073010000008CC Is Brought To You By - Ian **DNU AFTER 09/22**                                                                           150                                
PGRFAMCHA020701073010075203002153Disney/Pixar's Buzz Lightyear of Star Command     Star Crossed                                                         6068607ECC                              
ID FAMCHA020701075203075213000010Generic ID - Pink inner tube                                                                                                150                                
PROFAMCHA020701075213075241000028Art Attack (SCOTSMAN) - Coming Up                                                                                           150                                
INTFAMCHA020701075241075543000302Art Attack - Ballerina                                                                                                 60686120                                
ID FAMCHA020701075543075558000015Schoolhouse Promo - Coming Up                                                                                               150                                
PROFAMCHA020701075558075611000013Little Lulu (SWEEP) - Today @ 8:20am                                                                                        150                                
INTFAMCHA020701075611075934000323Schoolhouse Rock - A Noun Is A Person, Place or Th                                                                    A60686120                                
PROFAMCHA020701075934075952000018Elmo's World (NEW EPS) - Today @ 8:45am                                                                                     150                                
PROFAMCHA020701075952080007000015Preschool Line-Up - 08 - ART/LULU/ELMO                                                                                      150                                
PGRFAMCHA020701080007081455001448Art Attack                                        1-111                                                                60686110                                
PROFAMCHA020701081455081508000013Little Lulu (SWEEP) - Coming Up                                                                                             150                                
PROFAMCHA020701081508081526000018Elmo's World (NEW EPS) - Today @ 8:45am                                                                                     150                                
PROFAMCHA020701081526081552000026Stanley (BABY PICS) - Today @ 9:05am                                                                                        150                                
ID FAMCHA020701081552081612000020Schoolhouse Promo - Coming Up                                                                                               150                                
PRCFAMCHA020701081612081639000027Franklin (FIXIT) - Today @ 12:25pm                                                                                          150                                
INTFAMCHA020701081639082002000323Schoolhouse Rock - Tax Man Max                                                                                        A60686120                                
PRCFAMCHA020701082002082025000023Goof Troop (TV) - Weekdays @ 7am                                                                                            150                                
PROFAMCHA020701082025082047000022Legend of Tarzan (MY JEWEL-D12/WKNDS) - Today @ 5p                                                                          150                                
PROFAMCHA020701082047082101000014Preschool Line-Up - 09 - LULU/ELMO/STANLEY                                                                                  150                                
PROFAMCHA020701082101082109000008CC Is Brought To You By - Lark **DNU AFTER 09/22**                                                                          150                                
PGRFAMCHA020701082109084442002333Little Lulu Show; The                             First Aid Brigade, Matinee Madness, It's a Dogs Li            B20194A1065607ECC                              
ID FAMCHA020701084442084447000005Generic ID - Couch 2*                                                                                                       150                                
PROFAMCHA020701084447084505000018Elmo's World (NEW EPS) - Coming Up                                                                                          150                                
PROFAMCHA020701084505084527000022Stanley (ANTELOPE) - Today @ 9:05am                                                                                         150                                
PROFAMCHA020701084527084552000025New Adv of WTP (TREE) - Today @ 10:20am                                                                                     150                                
PROFAMCHA020701084552084602000010Preschool Line-Up - 10 - ELMO/STANLEY/PB&J                                                                                  150                                
PGRFAMCHA020701084602090046001444Elmo's World                                      Bugs                                                                A2028607G                                
ID FAMCHA020701090046090053000007Generic ID - Whisper*                                                                                                       150                                
PROFAMCHA020701090053090115000022Stanley (ANTELOPE) - Coming Up                                                                                              150                                
PROFAMCHA020701090115090142000027PB&J Otter (PIE) - Today @ 9:30am                                                                                           150                                
INTFAMCHA020701090142090452000310Art Attack - Digger                                                                                                    60686120                                
PROFAMCHA020701090452090507000015Preschool Line-Up - 11 - STANLEY/PB&J/KATIE                                                                                 150                                
PROFAMCHA020701090507090515000008CC Is Brought To You By - Lark **DNU AFTER 09/22**                                                                          150                                
PGRFAMCHA020701090515092913002358Stanley                                           The Joker/Baby Pictures                                             A6068607ECC                              
PROFAMCHA020701092913092931000018Elmo's World (NEW EPS) - Today @ 12:45pm                                                                                    150                                
PROFAMCHA020701092931092949000018Hoze Houndz (FOOD) - Today @ 11:35am                                                                                        150                                
PROFAMCHA020701092949092959000010Preschool Line-Up - 12 - PB&J/KATIE/WTP                                                                                     150                                
PROFAMCHA020701092959093007000008CC Is Brought To You By - Ian **DNU AFTER 09/22**                                                                           150                                
PGRFAMCHA020701093007095229002222PB&J Otter                                        Bagpipe Blues/You Can't Come In                                     A6068607ECC                              
ID FAMCHA020701095229095239000010Generic ID - Bubbles                                                                                                        150                                
PROFAMCHA020701095239095256000017Katie and Orbie (OCT2001) - Coming Up                                                                                       150                                
PROFAMCHA020701095256095314000018Hoze Houndz (FOOD) - Today @ 11:35am                                                                                        150                                
PROFAMCHA020701095314095324000010Kidsummer 2002 - Indigo/Chapters                                                                                            150                                
INTFAMCHA020701095324095431000107Disney Moments-Many Adventures Of Ichabod-Headless                                                                     60688120                                
PROFAMCHA020701095431095449000018Elmo's World (NEW EPS) - Today @ 12:45pm                                                                                    150                                
PROFAMCHA020701095449095459000010Preschool Line-Up - 13 - KATIE/WTP/OOTB                                                                                     150                                
PROFAMCHA020701095459095507000008CC Is Brought To You By - Lark **DNU AFTER 09/22**                                                                          150                                
PGRFAMCHA020701095507102147002640Katie And Orbie                                   New Bike/Sorry/Tooth Fairy                                    C19664A1055607ECC3                             
ID FAMCHA020701102147102153000006Generic ID - soccer                                                                                                         150                                
PROFAMCHA020701102153102218000025New Adv of WTP (TREE) - Coming Up                                                                                           150                                
PROFAMCHA020701102218102240000022Legend of Tarzan (MY JEWEL-D12/WKNDS) - Today @ 5p                                                                          150                                
PROFAMCHA020701102240102250000010Preschool Line-Up - 14 - WTP/OOTB/DUCKTALES                                                                                 150                                
ID FAMCHA020701102250102300000010xxMagic of Disney - V2(sky) - KID FEMALE                                                                                    150                                
PROFAMCHA020701102300102308000008CC Is Brought To You By - Ian **DNU AFTER 09/22**                                                                           150                                
PGRFAMCHA020701102308104545002237New Adventures of Winnie the Pooh; The            How Much Is The Rabbit In The Window                                 6068607ECC                              
ID FAMCHA020701104545104555000010Generic ID - Ring around the rosie                                                                                          150                                
PROFAMCHA020701104555104613000018Elmo's World (NEW EPS) - Today @ 12:45pm                                                                                    150                                
PROFAMCHA020701104613104623000010Kidsummer 2002 - Ford                                                                                                       150                                
PROFAMCHA020701104623104649000026DuckTales (CLIP) - Today @ 11:10am                                                                                          150                                
PROFAMCHA020701104649104659000010Preschool Line-Up - 15 - OOTB/DUCKTALES/HOZE                                                                                150                                
PGRFAMCHA020701104659111100002401Out of the Box                                    Making Mistakes                                                     A6068607A                                
ID FAMCHA020701111100111105000005Generic ID - Couch 2*                                                                                                       150                                
PROFAMCHA020701111105111115000010Preschool Line-Up - 16 - DUCKTALES/HOZE/LULU                                                                                150                                
PROFAMCHA020701111115111123000008CC Is Brought To You By - Lark **DNU AFTER 09/22**                                                                          150                                
PGRFAMCHA020701111123113410002247Disney's DuckTales                                The Duck Who Knew Too Much                                          A6068607ECC                              
ID FAMCHA020701113410113416000006Generic ID - soccer                                                                                                         150                                
PROFAMCHA020701113416113434000018Elmo's World (NEW EPS) - Today @ 12:45pm                                                                                    150                                
PROFAMCHA020701113434113449000015PB&J Otter (SAND) - Today @ 1:30pm                                                                                          150                                
PROFAMCHA020701113449113459000010Preschool Line-Up - 17 - HOZE/LULU/FRANKLIN                                                                                 150                                
PROFAMCHA020701113459113507000008CC Is Brought To You By - Ian **DNU AFTER 09/22**                                                                           150                                
PGRFAMCHA020701113507115741002234Hoze Houndz                                       Fish Tales/Money Where Your Mouth Is                          B45770A1065607ECC                              
ID FAMCHA020701115741115751000010Generic ID - confetti                                                                                                       150                                
PROFAMCHA020701115751115804000013Little Lulu (SWEEP) - Coming Up                                                                                             150                                
PROFAMCHA020701115804115826000022Legend of Tarzan (MY JEWEL-D12/WKNDS) - Today @ 5p                                                                          150                                
PRCFAMCHA020701115826115849000023Franklin (HICCUP) - Today @ 12:25pm                                                                                         150                                
PROFAMCHA020701115849115859000010Preschool Line-Up - 18 - LULU/FRANKLIN/ELMO                                                                                 150                                
PROFAMCHA020701115859115907000008CC Is Brought To You By - Lark **DNU AFTER 09/22**                                                                          150                                
PGRFAMCHA020701115907122239002332Little Lulu Show; The                             Lulu Stays Put, Shoeless Lulu, Star Search                    B20195A1065607ECC                              
ID FAMCHA020701122239122249000010Generic ID - Family w/dog                                                                                                   150                                
PRCFAMCHA020701122249122312000023Franklin (HICCUP) - Coming Up                                                                                               150                                
PRCFAMCHA020701122312122331000019Goof Troop (TENNIS) - Weekdays @ 7am                                                                                        150                                
PROFAMCHA020701122331122349000018Elmo's World (NEW EPS) - Today @ 12:45pm                                                                                    150                                
PROFAMCHA020701122349122359000010Preschool Line-Up - 19 - FRANKLIN/ELMO/STANLEY                                                                              150                                
PROFAMCHA020701122359122407000008CC Is Brought To You By - Ian **DNU AFTER 09/22**                                                                           150                                
PGRFAMCHA020701122407124700002253Franklin                                          Franklin In Two Places/Franklin's First Star                  A53206A1065607ECC                              
ID FAMCHA020701124700124710000010Generic ID - Hula Hoop                                                                                                      150                                
PROFAMCHA020701124710124728000018Elmo's World (NEW EPS) - Coming Up                                                                                          150                                
PROFAMCHA020701124728124750000022Stanley (ANTELOPE) - Today @ 1:05pm                                                                                         150                                
PROFAMCHA020701124750124800000010Preschool Line-Up - 20 - ELMO/STANLEY/PB&J                                                                                  150                                
PGRFAMCHA020701124800130244001444Elmo's World                                      Bugs                                                                A2068607G                                
ID FAMCHA020701130244130251000007Generic ID - Whisper*                                                                                                       150                                
PROFAMCHA020701130251130317000026Stanley (BABY PICS) - Coming Up                                                                                             150                                
INTFAMCHA020701130317130632000315Art Attack - Sailing Ship                                                                                              60686120                                
PROFAMCHA020701130632130649000017Katie and Orbie (OCT2001) - Today @ 1:55pm                                                                                  150                                
PROFAMCHA020701130649130659000010Preschool Line-Up - 21 - STANLEY/PB&J/KATIE                                                                                 150                                
PROFAMCHA020701130659130707000008CC Is Brought To You By - Lark **DNU AFTER 09/22**                                                                          150                                
PGRFAMCHA020701130707133106002359Stanley                                           Remembering With Elephants/Garbage Can Bandit                       A6068607ECC                              
ID FAMCHA020701133106133111000005Generic ID - Couch 2*                                                                                                       150                                
PROFAMCHA020701133111133118000007PB&J Otter (AUG2001) - Kite - Coming Up                                                                                     150                                
PROFAMCHA020701133118133149000031Hoze Houndz (TEETH) - Today @ 3:35pm                                                                                        150                                
PROFAMCHA020701133149133200000011Preschool Line-Up - 22 - PB&J/KATIE/WTP                                                                                     150                                
PROFAMCHA020701133200133208000008CC Is Brought To You By - Ian **DNU AFTER 09/22**                                                                           150                                
PGRFAMCHA020701133208135429002221PB&J Otter                                        Go Away Gorilla/Mama For A Day                                      A6068607ECC                              
ID FAMCHA020701135429135435000006Generic ID - soccer                                                                                                         150                                
PROFAMCHA020701135435135452000017Katie and Orbie (OCT2001) - Coming Up                                                                                       150                                
PROFAMCHA020701135452135502000010Kidsummer 2002 - Fujifilm                                                                                                   150                                
INTFAMCHA020701135502135632000130MV Disney - Walk The Llama Llama                                                                                       60688120                                
PROFAMCHA020701135632135650000018Buzz Lightyear (DO YOUR BEST) - Today @ 4pm                                                                                 150                                
PROFAMCHA020701135650135700000010Preschool Line-Up - 23 - KATIE/WTP/OOTB                                                                                     150                                
PROFAMCHA020701135700135708000008CC Is Brought To You By - Lark **DNU AFTER 09/22**                                                                          150                                
PGRFAMCHA020701135708142349002641Katie And Orbie                                   In Kyra's Pocket/Sandbox/Yee Ping's Appendix                  C19664A1055607ECC3                             
ID FAMCHA020701142349142359000010Generic ID - Ring around the rosie                                                                                          150                                
PROFAMCHA020701142359142424000025New Adv of WTP (TREE) - Coming Up                                                                                           150                                
PROFAMCHA020701142424142440000016Legend of Tarzan (THUNDER-D12/WKNDS) - Today @ 5pm                                                                          150                                
PROFAMCHA020701142440142450000010Preschool Line-Up - 24 - WTP/OOTB/DUCKTALES                                                                                 150                                
ID FAMCHA020701142450142500000010xxMagic of Disney - V3(water) - TEEN FEMALE                                                                                 150                                
PROFAMCHA020701142500142508000008CC Is Brought To You By - Ian **DNU AFTER 09/22**                                                                           150                                
PGRFAMCHA020701142508144751002243New Adventures of Winnie the Pooh; The            Gone With The Wind/Nothing But the Tooth                             6068607ECC                              
ID FAMCHA020701144751144801000010Generic ID - Bubbles                                                                                                        150                                
PROFAMCHA020701144801144816000015Out of the Box - Coming Up                                                                                                  150                                
PROFAMCHA020701144816144832000016Legend of Tarzan (THUNDER-D12/WKNDS) - Today @ 5pm                                                                          150                                
PROFAMCHA020701144832144850000018Hoze Houndz (FOOD) - Today @ 3:35pm                                                                                         150                                
PROFAMCHA020701144850144905000015Preschool Line-Up - 25 - OOTB/DUCKTALES/HOZE                                                                                150                                
PGRFAMCHA020701144905151306002401Out of the Box                                    Tickets Please                                                      A6068607A                                
ID FAMCHA020701151306151311000005Generic ID - Couch 2*                                                                                                       150                                
PROFAMCHA020701151311151321000010Preschool Line-Up - 26 - DUCKTALES/HOZE/BUZZ                                                                                150                                
PROFAMCHA020701151321151329000008CC Is Brought To You By - Ian **DNU AFTER 09/22**                                                                           150                                
PGRFAMCHA020701151329153609002240Disney's DuckTales                                New Gizmo Kids On The Block                                         A6068607ECC                              
ID FAMCHA020701153609153615000006Generic ID - soccer                                                                                                         150                                
PROFAMCHA020701153615153655000040Buzz Lightyear (TRANDIBULATOR) - Today @ 4pm                                                                                150                                
PROFAMCHA020701153655153705000010Preschool Line-Up - 27 - HOZE/BUZZ                                                                                          150                                
PROFAMCHA020701153705153713000008CC Is Brought To You By - Lark **DNU AFTER 09/22**                                                                          150                                
PGRFAMCHA020701153713155948002235Hoze Houndz                                       Perfect Plan/Poppa Wheelie                                    B45771A1065607ECC                              
ID FAMCHA020701155948155955000007Generic ID - Whisper*                                                                                                       150                                
ID FAMCHA020701155955160005000010xxMagic of Disney - V3(water) - TEEN MALE                                                                                   150                                
PROFAMCHA020701160005160035000030Disney's One Too - Opening                                                                                                  150                                
PROFAMCHA020701160035160043000008CC Is Brought To You By - Games                                                                                             150                                
PGRFAMCHA020701160043162237002154Disney/Pixar's Buzz Lightyear of Star Command     Planet of the Lost                                                   6068607ECC                              
ID FAMCHA020701162237162247000010Generic ID - Hula Hoop                                                                                                      150                                
PROFAMCHA020701162247162317000030Very Ernest Weekend - Friday/Saturday @ 9pm                                                                                 150                                
PROFAMCHA020701162317162346000029Recess (COOL VINCE-D12/WKNDS) - Today @ 5:30pm                                                                              150                                
PROFAMCHA020701162346162413000027Even Stevens (DREAM) - Tonight @ 6:30pm                                                                                     150                                
PRCFAMCHA020701162413162451000038Funshine 2002 - GENERIC TOUR SPOT                                                                                           150                                
PRCFAMCHA020701162451162524000033Funshine 2002 - Spot #07 - JUN 29 TO JUL 01                                                                                 150                                
INTFAMCHA020701162524162846000322Art Attack - Kayak                                                                                                     60686120                                
PROFAMCHA020701162846162910000024Honey, I Shrunk the Kids (AUG2001) - Tonight @ 8pm                                                                          150                                
PROFAMCHA020701162910162937000027SPDF - JUL07 - Sunday @ 12pm                                                                                                150                                
PRCFAMCHA020701162937162942000005Morning Block menu background (flex time)                                                                                   150                                
ID FAMCHA020701162942163000000018Afternoon block pinball open                                                                                                150                                
PROFAMCHA020701163000163030000030Disney's One Too - Opening                                                                                                  150                                
PROFAMCHA020701163030163038000008CC Is Brought To You By - Click Club                                                                                        150                                
PGRFAMCHA020701163038165327002249Disney's Pepper Ann                               An Otterbio-Graphy/Greensleeves                                      6068607ECC                              
ID FAMCHA020701165327165337000010Generic ID - Family w/dog                                                                                                   150                                
PROFAMCHA020701165337165407000030Very Ernest Weekend - Friday/Saturday @ 9pm                                                                                 150                                
PROFAMCHA020701165407165442000035Legend of Tarzan (PICKS&NIBBLES-D12/WKNDS) - Comin                                                                          150                                
PROFAMCHA020701165442165512000030Famous Jett Jackson - Tonight @ 7pm (WKNGHTS)                                                                               150                                
PROFAMCHA020701165512165556000044Funshine Contest Spot                                                                                                       150                                
INTFAMCHA020701165556165739000143MV Disney - Siamese Cat Song                                                                                           60688120                                
PROFAMCHA020701165739165749000010Kidsummer 2002 - Rogers Video                                                                                               150                                
PROFAMCHA020701165749165817000028Recess (LOGIC-D12/WKNDS) - Today @ 5:30pm                                                                                   150                                
PROFAMCHA020701165817165905000048Amanda Show (JACUZZI) - Tonight @ 6pm                                                                                       150                                
PROFAMCHA020701165905165932000027SPDF - JUL07 - Sunday @ 12pm                                                                                                150                                
PRCFAMCHA020701165932165942000010Morning Block menu background (flex time)                                                                                   150                                
ID FAMCHA020701165942170000000018Afternoon block pinball open                                                                                                150                                
PROFAMCHA020701170000170030000030Disney's One Too - Opening                                                                                                  150                                
PGRFAMCHA020701170030172314002244Disney's The Legend of Tarzan                     Return of LA                                                        A6068607E                                
ID FAMCHA020701172314172321000007Generic ID - Whisper*                                                                                                       150                                
PROFAMCHA020701172321172351000030Very Ernest Weekend - Friday/Saturday @ 9pm                                                                                 150                                
PROFAMCHA020701172351172408000017Recess (TATTLETALE-D12/WKNDS) - Coming Up                                                                                   150                                
PRCFAMCHA020701172408172446000038Funshine 2002 - GENERIC TOUR SPOT                                                                                           150                                
INTFAMCHA020701172446172810000324Art Attack - Astronaut                                                                                                 60686120                                
PROFAMCHA020701172810172832000022Even Stevens (KARAOKE) - Tonight @ 6:30pm                                                                                   150                                
PRCFAMCHA020701172832172905000033Funshine 2002 - Spot #07 - JUN 29 TO JUL 01                                                                                 150                                
PROFAMCHA020701172905172932000027SPDF - JUL07 - Sunday @ 12pm                                                                                                150                                
PRCFAMCHA020701172932172942000010Morning Block menu background (flex time)                                                                                   150                                
ID FAMCHA020701172942173000000018Afternoon block pinball open                                                                                                150                                
PROFAMCHA020701173000173030000030Disney's One Too - Opening                                                                                                  150                                
PGRFAMCHA020701173030175305002235Disney's Recess                                   Shiner/Stand-Up Randall                                              6068607E                                
ID FAMCHA020701175305175310000005Generic ID - Fingerpaint                                                                                                    150                                
PROFAMCHA020701175310175340000030Very Ernest Weekend - Friday/Saturday @ 9pm                                                                                 150                                
PROFAMCHA020701175340175440000100Amanda Show (UNDERPANTS) - Coming Up                                                                                        150                                
PROFAMCHA020701175440175524000044Funshine Contest Spot                                                                                                       150                                
INTFAMCHA020701175524175842000318MV Disney - Can't Help Falling In Love                                                                                 60688120                                
PROFAMCHA020701175842175912000030Famous Jett Jackson - Tonight @ 7pm (WKNGHTS)                                                                               150                                
PROFAMCHA020701175912175939000027SPDF - JUL07 - Sunday @ 12pm                                                                                                150                                
ID FAMCHA020701175939180000000021Prime time open count down                                                                                                  150                                
PGRFAMCHA020701180000182406002406Amanda Show; The                                  1-001                                                               A20686090                                
ID FAMCHA020701182406182416000010Generic ID - Pink inner tube                                                                                                150                                
PROFAMCHA020701182416182446000030Very Ernest Weekend - Friday/Saturday @ 9pm                                                                                 150                                
PROFAMCHA020701182446182459000013Even Stevens (WASSUP) - Coming Up                                                                                           150                                
PROFAMCHA020701182459182543000044Funshine Contest Spot                                                                                                       150                                
INTFAMCHA020701182543182843000300Art Attack - Jack-In-The-Box                                                                                           60686120                                
PROFAMCHA020701182843182913000030Famous Jett Jackson - Tonight @ 7pm (WKNGHTS)                                                                               150                                
PROFAMCHA020701182913182940000027SPDF - JUL07 - Sunday @ 12pm                                                                                                150                                
PRCFAMCHA020701182940182950000010Morning Block menu background (flex time)                                                                                   150                                
ID FAMCHA020701182950183000000010xxMagic of Disney - V3(water) - ADULT MALE                                                                                  150                                
PROFAMCHA020701183000183008000008CC Is Brought To You By - Click Club                                                                                        150                                
PGRFAMCHA020701183008185250002242Even Stevens                                      Almost Perfect                                                      A6068807BCC                              
ID FAMCHA020701185250185300000010Generic ID - Pink inner tube                                                                                                150                                
PROFAMCHA020701185300185330000030Very Ernest Weekend - Friday/Saturday @ 9pm                                                                                 150                                
PROFAMCHA020701185330185400000030Famous Jett Jackson - Coming Up                                                                                             150                                
PROFAMCHA020701185400185444000044Funshine Contest Spot                                                                                                       150                                
INTFAMCHA020701185444185808000324Art Attack - Rocking Horse                                                                                             60686120                                
PROFAMCHA020701185808185832000024Honey, I Shrunk the Kids (AUG2001) - Tonight @ 8pm                                                                          150                                
PROFAMCHA020701185832185902000030Are You Afraid of the Dark? (PT.1) - Tonight @ 8:4                                                                          150                                
PROFAMCHA020701185902185929000027SPDF - JUL07 - Sunday @ 12pm                                                                                                150                                
PRCFAMCHA020701185929185939000010Morning Block menu background (flex time)                                                                                   150                                
ID FAMCHA020701185939190000000021Prime time open count down                                                                                                  150                                
PROFAMCHA020701190000190008000008CC Is Brought To You By - Games                                                                                             150                                
PGRFAMCHA020701190008192438002430Famous Jett Jackson; The                          Holly                                                         B57178 1065607ACC                              
ID FAMCHA020701192438192448000010Generic ID - confetti                                                                                                       150                                
PROFAMCHA020701192448192518000030Very Ernest Weekend - Friday/Saturday @ 9pm                                                                                 150                                
PROFAMCHA020701192518192542000024Honey, I Shrunk the Kids (AUG2001) - Tonight @ 8pm                                                                          150                                
PROFAMCHA020701192542192558000016Legend of Tarzan (THUNDER-D12/WKNDS) - Weekdays @                                                                           150                                
PROFAMCHA020701192558192627000029Recess (COOL VINCE-D12/WKNDS) - Weekdays @ 5:30pm                                                                           150                                
INTFAMCHA020701192627192731000104Jack and Marcel: Ep.046 "Icarus"                                                                                      A40688120                                
PROFAMCHA020701192731192801000030Are You Afraid of the Dark? (PT.1) - Tonight @ 8:4                                                                          150                                
PRCFAMCHA020701192801192839000038Funshine 2002 - GENERIC TOUR SPOT                                                                                           150                                
PRCFAMCHA020701192839192912000033Funshine 2002 - Spot #07 - JUN 29 TO JUL 01                                                                                 150                                
PROFAMCHA020701192912192939000027SPDF - JUL07 - Sunday @ 12pm                                                                                                150                                
ID FAMCHA020701192939193000000021Prime time open count down                                                                                                  150                                
PROFAMCHA020701193000193008000008CC Is Brought To You By - Games                                                                                             150                                
PGRFAMCHA020701193008195135002127ALF                                               Hit Me With Your Best Shot                                          A2068807BCC                              
ID FAMCHA020701195135195146000011Generic ID - soccer                                                                                                         150                                
PROFAMCHA020701195146195216000030Very Ernest Weekend - Friday/Saturday @ 9pm                                                                                 150                                
PROFAMCHA020701195216195240000024Honey, I Shrunk the Kids (AUG2001) - Coming Up                                                                              150                                
PRCFAMCHA020701195240195318000038Funshine 2002 - GENERIC TOUR SPOT                                                                                           150                                
PRCFAMCHA020701195318195351000033Funshine 2002 - Spot #07 - JUN 29 TO JUL 01                                                                                 150                                
PROFAMCHA020701195351195421000030Are You Afraid of the Dark? (PT.1) - Tonight @ 8:4                                                                          150                                
PROFAMCHA020701195421195431000010MV FAMJAM - Teaser (Generic)                                                                                                150                                
PROFAMCHA020701195431195451000020Amanda Show (LOBSTERS) - Weeknights @ 6pm                                                                                   150                                
INTFAMCHA020701195451195822000331xMV - Frontin' On Me (Velvet Empire)                                                                                  A10658120                                
PROFAMCHA020701195822195828000006MV Web Throw - music@family.ca                                                                                              150                                
PROFAMCHA020701195828195912000044Funshine Contest Spot                                                                                                       150                                
PROFAMCHA020701195912195939000027SPDF - JUL07 - Sunday @ 12pm                                                                                                150                                
PRCFAMCHA020701195939195950000011Morning Block menu background (flex time)                                                                                   150                                
ID FAMCHA020701195950200000000010Prime time open top of hour                                                                                                 150                                
PROFAMCHA020701200000200007000007CC Is Brought To You By - Click Club                                                                                        150                                
PGRFAMCHA020701200007204348004341Disney's Honey, I Shrunk The Kids: The TV Show    Honey, We're Stuck In The 70's                                       6068807B                                
ID FAMCHA020701204348204355000007Generic ID - Whisper*                                                                                                       150                                
PROFAMCHA020701204355204439000044Funshine Contest Spot                                                                                                       150                                
ID FAMCHA020701204439204500000021Prime time open count down                                                                                                  150                                
PROFAMCHA020701204500204507000007CC Is Brought To You By - Games                                                                                             150                                
PGRFAMCHA020701204507205811001304Are You Afraid of the Dark?                       The Time Trap Pt.2                                            SR0308A1066807ACC                              
ID FAMCHA020701205811205821000010Generic ID - Family w/dog                                                                                                   150                                
PROFAMCHA020701205821205851000030Very Ernest Weekend - Friday/Saturday @ 9pm                                                                                 150                                
PROFAMCHA020701205851205904000013Even Stevens (WASSUP) - Weeknights @ 6:30pm                                                                                 150                                
PROFAMCHA020701205904205931000027SPDF - JUL07 - Sunday @ 12pm                                                                                                150                                
PRCFAMCHA020701205931205940000009Morning Block menu background (flex time)                                                                                   150                                
ID FAMCHA020701205940210000000020Move open family size movie                                                                                                 150                                
PROFAMCHA020701210000210007000007Rating - PG - Ian                                                                                                           150                                
PGRFAMCHA020701210007223323013316Great Outdoors; The                                                                                                   B2068807D                                
ID FAMCHA020701223323223328000005Generic ID - Couch 2*                                                                                                       150                                
PROFAMCHA020701223328223335000007CC Is Brought To You By - Click Club                                                                                        150                                
PGRFAMCHA020701223335224728001353Are You Afraid of the Dark?                       Reanimator Pt.1                                               SR0308A1066807ACC                              
ID FAMCHA020701224728224733000005Generic ID - Marbles                                                                                                        150                                
ID FAMCHA020701224733224753000020Move open family size movie                                                                                                 150                                
PROFAMCHA020701224753224800000007Rating - AA - Ian                                                                                                           150                                
PROFAMCHA020701224800224807000007CC Is Brought To You By - Games                                                                                             150                                
PGRFAMCHA020701224807004237015430Year of Living Dangerously; The                                                                                       C2068807DCC                              
ID FAMCHA020701004237004242000005Generic ID - Couch 2*                                                                                                       150                                
ID FAMCHA020701004242004303000021Prime time open count down                                                                                                  150                                
PROFAMCHA020701004303004311000008CC Is Brought To You By - Games                                                                                             150                                
PGRFAMCHA020701004311010438002127ALF                                               Hit Me With Your Best Shot                                          A2068807BCC                              
ID FAMCHA020701010438010443000005Generic ID - Bubbles*                                                                                                       150                                
ID FAMCHA020701010443010504000021Prime time open count down                                                                                                  150                                
PROFAMCHA020701010504010512000008CC Is Brought To You By - Click Club                                                                                        150                                
PGRFAMCHA020701010512012932002420Are You Afraid Of The Dark?                       The Tale of the Virtual Pets                                  SR0307 1066807ACC                              
SO FAMCHA020701012932012944000012Sign Off (oct 1)                                                                                                                                               
OFFFAMCHA020701012944043000030016                                                                                                                                                               
SO FAMCHA020702043000043011000011Sign On (oct 1)                                                                                                                                                
PGRFAMCHA020702043011045412002401Out of the Box                                    Making Mistakes                                                     A6068607A                                
ID FAMCHA020702045412045417000005Generic ID - Couch 2*                                                                                                       150                                
PROFAMCHA020702045417045427000010Preschool Line-Up - 01 - ART/KATIE/DUCKTALES                                                                                150                                
PGRFAMCHA020702045427051410001943Art Attack                                        1-078                                                                60686110                                
ID FAMCHA020702051410051415000005Generic ID - Bubbles*                                                                                                       150                                
PROFAMCHA020702051415051432000017Katie and Orbie (OCT2001) - Coming Up                                                                                       150                                
PROFAMCHA020702051432051450000018Stanley (MAR) - Today @ 9:05am                                                                                              150                                
PROFAMCHA020702051450051500000010Preschool Line-Up - 02 - KATIE/DUCKTALES/LULU                                                                               150                                
PROFAMCHA020702051500051508000008CC Is Brought To You By - Ian **DNU AFTER 09/22**                                                                           150                                
PGRFAMCHA020702051508054143002635Katie And Orbie                                   The Cottage/Am I Invisible/Does It Have Eggs In It            C11896A1065607ECC                              
ID FAMCHA020702054143054158000015Generic ID - confetti                                                                                                       150                                
PROFAMCHA020702054158054224000026DuckTales (CLIP) - Coming Up                                                                                                150                                
PROFAMCHA020702054224054250000026Stanley (BABY PICS) - Today @ 9:05am                                                                                        150                                
PROFAMCHA020702054250054300000010Preschool Line-Up - 03 - DUCKTALES/LULU/FRANKLIN                                                                            150                                
PROFAMCHA020702054300054308000008CC Is Brought To You By - Lark **DNU AFTER 09/22**                                                                          150                                
PGRFAMCHA020702054308060556002248Disney's DuckTales                                Dr. Jekyll & Mr. Mcduck                                             A6068607ECC                              
ID FAMCHA020702060556060606000010Generic ID - confetti                                                                                                       150                                
PROFAMCHA020702060606060619000013Little Lulu (SWEEP) - Coming Up                                                                                             150                                
PROFAMCHA020702060619060650000031Hoze Houndz (TEETH) - Today @ 11:35am                                                                                       150                                
PROFAMCHA020702060650060700000010Preschool Line-Up - 04 - LULU/FRANKLIN/GOOF                                                                                 150                                
PROFAMCHA020702060700060708000008CC Is Brought To You By - Ian **DNU AFTER 09/22**                                                                           150                                
PGRFAMCHA020702060708063045002337Little Lulu Show; The                             The Beast in the Clubhouse, Gone Finshin', Out, Ou            B20187A1065607ECC                              
ID FAMCHA020702063045063050000005Generic ID - Couch 1*                                                                                                       150                                
PROFAMCHA020702063050063100000010Preschool Line-Up - 05 - FRANKLIN/GOOF/BUZZ                                                                                 150                                
PROFAMCHA020702063100063108000008CC Is Brought To You By - Lark **DNU AFTER 09/22**                                                                          150                                
PGRFAMCHA020702063108065401002253Franklin                                          Franklin Loses A Book/Franklin Likes Betty                    A53207A1065607ECC                              
ID FAMCHA020702065401065406000005Generic ID - Couch 2*                                                                                                       150                                
PRCFAMCHA020702065406065420000014Goof Troop (SOUP) - Coming Up                                                                                               150                                
PRCFAMCHA020702065420065458000038Funshine 2002 - GENERIC TOUR SPOT                                                                                           150                                
PRCFAMCHA020702065458065521000023Funshine 2002 - Spot #08 - JUL 02 TO JUL 07                                                                                 150                                
ID FAMCHA020702065521065541000020Schoolhouse Promo - Coming Up                                                                                               150                                
PROFAMCHA020702065541065608000027Recess (FRIENDSHIP-D12/WKNDS) - Today @ 5:30pm                                                                              150                                
INTFAMCHA020702065608065931000323Schoolhouse Rock - The Four-Legged Zoo                                                                                A60686120                                
PROFAMCHA020702065931065940000009PB&J Otter (AUG2001) - Open - Today @ 9:30am                                                                                150                                
PROFAMCHA020702065940065950000010Preschool Line-Up - 06 - GOOF/BUZZ/ART                                                                                      150                                
ID FAMCHA020702065950070000000010xxMagic of Disney - V2(sky) - KID FEMALE                                                                                    150                                
PROFAMCHA020702070000070008000008CC Is Brought To You By - Ian **DNU AFTER 09/22**                                                                           150                                
PGRFAMCHA020702070008072259002251Goof Troop                                        Where There's Smoke, There's Goof                                    6068607ECC                              
ID FAMCHA020702072259072309000010Generic ID - Family w/dog                                                                                                   150                                
PROFAMCHA020702072309072349000040Buzz Lightyear (TRANDIBULATOR) - Coming Up                                                                                  150                                
PRCFAMCHA020702072349072427000038Funshine 2002 - GENERIC TOUR SPOT                                                                                           150                                
PRCFAMCHA020702072427072450000023Funshine 2002 - Spot #08 - JUL 02 TO JUL 07                                                                                 150                                
PROFAMCHA020702072450072518000028Art Attack (SCOTSMAN) - Today @ 8am                                                                                         150                                
ID FAMCHA020702072518072533000015Schoolhouse Promo - Coming Up                                                                                               150                                
PROFAMCHA020702072533072551000018Elmo's World (NEW EPS) - Today @ 8:45am                                                                                     150                                
INTFAMCHA020702072551072914000323Schoolhouse Rock - Tax Man Max                                                                                        A60686120                                
PRCFAMCHA020702072914072941000027Franklin (FIXIT) - Today @ 12:25pm                                                                                          150                                
PROFAMCHA020702072941072950000009PB&J Otter (AUG2001) - Open - Today @ 9:30am                                                                                150                                
PROFAMCHA020702072950073005000015Preschool Line-Up - 07 - BUZZ/ART/LULU                                                                                      150                                
PROFAMCHA020702073005073013000008CC Is Brought To You By - Lark **DNU AFTER 09/22**                                                                          150                                
PGRFAMCHA020702073013075206002153Disney/Pixar's Buzz Lightyear of Star Command     Haunted Moon                                                         6068607ECC                              
ID FAMCHA020702075206075211000005Generic ID - Fingerpaint                                                                                                    150                                
PROFAMCHA020702075211075225000014Art Attack (ART) - Coming Up                                                                                                150                                
PROFAMCHA020702075225075251000026Stanley (BABY PICS) - Today @ 9:05am                                                                                        150                                
ID FAMCHA020702075251075304000013Schoolhouse Promo - Coming Up                                                                                               150                                
PRCFAMCHA020702075304075327000023Goof Troop (TV) - Weekdays @ 7am                                                                                            150                                
INTFAMCHA020702075327075650000323Schoolhouse Rock - Conjunction Junction                                                                               A60686120                                
INTFAMCHA020702075650075941000251Art Attack - Zebra                                                                                                     60686120                                
PROFAMCHA020702075941075955000014New Adv of WTP (REMOTE) - Today @ 10:20am                                                                                   150                                
PROFAMCHA020702075955080009000014Preschool Line-Up - 08 - ART/LULU/ELMO                                                                                      150                                
PGRFAMCHA020702080009081507001458Art Attack                                        1-112                                                                60686110                                
ID FAMCHA020702081507081517000010Generic ID - Hula Hoop                                                                                                      150                                
PROFAMCHA020702081517081530000013Little Lulu (SWEEP) - Coming Up                                                                                             150                                
PROFAMCHA020702081530081548000018Elmo's World (NEW EPS) - Today @ 8:45am                                                                                     150                                
ID FAMCHA020702081548081608000020Schoolhouse Promo - Coming Up                                                                                               150                                
PROFAMCHA020702081608081625000017Katie and Orbie (OCT2001) - Today @ 9:55am                                                                                  150                                
INTFAMCHA020702081625081948000323Schoolhouse Rock - Three Is a Magic Number                                                                            A60686120                                
PROFAMCHA020702081948082028000040Buzz Lightyear (TRANDIBULATOR) - Today @ 4pm                                                                                150                                
PROFAMCHA020702082028082059000031Hoze Houndz (TEETH) - Today @ 11:35am                                                                                       150                                
PROFAMCHA020702082059082112000013Preschool Line-Up - 09 - LULU/ELMO/STANLEY                                                                                  150                                
PROFAMCHA020702082112082120000008CC Is Brought To You By - Ian **DNU AFTER 09/22**                                                                           150                                
PGRFAMCHA020702082120084454002334Little Lulu Show; The                             The untold Story, Amok in the Mall, The World Reco            B20196A1065607ECC                              
ID FAMCHA020702084454084501000007Generic ID - Whisper*                                                                                                       150                                
PROFAMCHA020702084501084519000018Elmo's World (NEW EPS) - Coming Up                                                                                          150                                
PROFAMCHA020702084519084534000015Out of the Box - Today @ 10:45am                                                                                            150                                
PROFAMCHA020702084534084602000028Stanley (ELEPHANT) - Today @ 9:05am                                                                                         150                                
PROFAMCHA020702084602084613000011Preschool Line-Up - 10 - ELMO/STANLEY/PB&J                                                                                  150                                
PGRFAMCHA020702084613090147001534Elmo's World                                      Games                                                               A2028607G                                
ID FAMCHA020702090147090152000005Generic ID - Bubbles*                                                                                                       150                                
PROFAMCHA020702090152090214000022Stanley (ANTELOPE) - Coming Up                                                                                              150                                
PROFAMCHA020702090214090227000013Little Lulu (SWEEP) - Today @ 12pm                                                                                          150                                
PROFAMCHA020702090227090237000010Kidsummer 2002 - Ford                                                                                                       150                                
INTFAMCHA020702090237090437000200Disney Circle Time - The Lion & The Mouse Fable (a                                                                     60688120                                
PRCFAMCHA020702090437090504000027Franklin (SUB) - Today @ 12:25pm                                                                                            150                                
PROFAMCHA020702090504090514000010Preschool Line-Up - 11 - STANLEY/PB&J/KATIE                                                                                 150                                
PROFAMCHA020702090514090521000007CC Is Brought To You By - Lark                                                                                              150                                
PGRFAMCHA020702090521092917002356Stanley                                           Little Dog Lost                                                     A6068607ECC                              
PROFAMCHA020702092917092932000015PB&J Otter (SAND) - Coming Up                                                                                               150                                
ID FAMCHA020702092932092952000020Schoolhouse Promo - Weekday Mornings                                                                                        150                                
PROFAMCHA020702092952093003000011Preschool Line-Up - 12 - PB&J/KATIE/WTP                                                                                     150                                
PROFAMCHA020702093003093011000008CC Is Brought To You By - Ian **DNU AFTER 09/22**                                                                           150                                
PGRFAMCHA020702093011095233002222PB&J Otter                                        Born To Chirp/Mega-melon                                            A6068607ECC                              
ID FAMCHA020702095233095240000007Generic ID - Whisper*                                                                                                       150                                
PROFAMCHA020702095240095257000017Katie and Orbie (OCT2001) - Coming Up                                                                                       150                                
PRCFAMCHA020702095257095320000023Franklin (HICCUP) - Today @ 12:25pm                                                                                         150                                
PROFAMCHA020702095320095330000010Kidsummer 2002 - Toronto Blue Jays                                                                                          150                                
INTFAMCHA020702095330095427000057Frankenguy and the Professor - Hoola Hoop                                                                              60688120                                
PROFAMCHA020702095427095452000025New Adv of WTP (TREE) - Today @ 10:20am                                                                                     150                                
PROFAMCHA020702095452095504000012Preschool Line-Up - 13 - KATIE/WTP/OOTB                                                                                     150                                
PROFAMCHA020702095504095513000009CC Is Brought To You By - Lark                                                                                              150                                
PGRFAMCHA020702095513102151002638Katie And Orbie                                   Mrs Parette's Necklace/Orbie and the Pumpkin Seed/            C19664A1055607ECC3                             
ID FAMCHA020702102151102156000005Generic ID - Bubbles*                                                                                                       150                                
PROFAMCHA020702102156102210000014New Adv of WTP (REMOTE) - Coming Up                                                                                         150                                
PROFAMCHA020702102210102245000035Legend of Tarzan (PICKS&NIBBLES-D12/WKNDS) - Today                                                                          150                                
PROFAMCHA020702102245102255000010Preschool Line-Up - 14 - WTP/OOTB/DUCKTALES                                                                                 150                                
ID FAMCHA020702102255102305000010xxMagic of Disney - V2(sky) - KID MALE                                                                                      150                                
PROFAMCHA020702102305102313000008CC Is Brought To You By - Ian **DNU AFTER 09/22**                                                                           150                                
PGRFAMCHA020702102313104554002241New Adventures of Winnie the Pooh; The            Paw And Order                                                       A6068607ECC                              
ID FAMCHA020702104554104600000006Generic ID - soccer                                                                                                         150                                
PROFAMCHA020702104600104615000015Out of the Box - Coming Up                                                                                                  150                                
PROFAMCHA020702104615104655000040Buzz Lightyear (TRANDIBULATOR) - Today @ 4pm                                                                                150                                
PROFAMCHA020702104655104705000010Preschool Line-Up - 15 - OOTB/DUCKTALES/HOZE                                                                                150                                
PGRFAMCHA020702104705111035002330Out of the Box                                    Playhouse Mouse                                                      60686110                                
ID FAMCHA020702111035111040000005Generic ID - Bubbles*                                                                                                       150                                
ID FAMCHA020702111040111055000015Schoolhouse Promo - Weekday Mornings                                                                                        150                                
PROFAMCHA020702111055111105000010Preschool Line-Up - 16 - DUCKTALES/HOZE/LULU                                                                                150                                
PROFAMCHA020702111105111113000008CC Is Brought To You By - Lark **DNU AFTER 09/22**                                                                          150                                
PGRFAMCHA020702111113113400002247Disney's DuckTales                                Scrooge's Last Adventure                                            A6068607ECC                              
ID FAMCHA020702113400113405000005Generic ID - Bubbles*                                                                                                       150                                
PROFAMCHA020702113405113436000031Hoze Houndz (TEETH) - Coming Up                                                                                             150                                
ID FAMCHA020702113436113456000020Schoolhouse Promo - Weekday Mornings                                                                                        150                                
PROFAMCHA020702113456113506000010Preschool Line-Up - 17 - HOZE/LULU/FRANKLIN                                                                                 150                                
PROFAMCHA020702113506113513000007CC Is Brought To You By - Ian                                                                                               150                                
PGRFAMCHA020702113513115749002236Hoze Houndz                                       You Oughtta Be In B Pictures/Who's Your Mummy                 B45772A1065607ECC                              
ID FAMCHA020702115749115754000005Generic ID - Couch 2*                                                                                                       150                                
PROFAMCHA020702115754115807000013Little Lulu (SWEEP) - Coming Up                                                                                             150                                
PROFAMCHA020702115807115833000026Stanley (BABY PICS) - Today @ 1:05pm                                                                                        150                                
PROFAMCHA020702115833115855000022Legend of Tarzan (MY JEWEL-D12/WKNDS) - Today @ 5p                                                                          150                                
PROFAMCHA020702115855115905000010Preschool Line-Up - 18 - LULU/FRANKLIN/ELMO                                                                                 150                                
PROFAMCHA020702115905115913000008CC Is Brought To You By - Lark **DNU AFTER 09/22**                                                                          150                                
PGRFAMCHA020702115913122248002335Little Lulu Show; The                             Breakout, The Great Golf Club Chase, Jumpin' Jelly            B20197A1065607ECC                              
ID FAMCHA020702122248122259000011Generic ID - soccer                                                                                                         150                                
PRCFAMCHA020702122259122326000027Franklin (FIXIT) - Coming Up                                                                                                150                                
PROFAMCHA020702122326122355000029Recess (COOL VINCE-D12/WKNDS) - Today @ 5:30pm                                                                              150                                
PROFAMCHA020702122355122405000010Preschool Line-Up - 19 - FRANKLIN/ELMO/STANLEY                                                                              150                                
PROFAMCHA020702122405122413000008CC Is Brought To You By - Ian **DNU AFTER 09/22**                                                                           150                                
PGRFAMCHA020702122413124706002253Franklin                                          Franklin The Teacher/Allergy                                  A53208A1065607ECC                              
ID FAMCHA020702124706124711000005Generic ID - Couch 1*                                                                                                       150                                
PROFAMCHA020702124711124729000018Elmo's World (NEW EPS) - Coming Up                                                                                          150                                
PROFAMCHA020702124729124755000026Stanley (BABY PICS) - Today @ 1:05pm                                                                                        150                                
PROFAMCHA020702124755124806000011Preschool Line-Up - 20 - ELMO/STANLEY/PB&J                                                                                  150                                
PGRFAMCHA020702124806130340001534Elmo's World                                      Games                                                               A2068607G                                
ID FAMCHA020702130340130351000011Generic ID - soccer                                                                                                         150                                
PROFAMCHA020702130351130419000028Stanley (ELEPHANT) - Coming Up                                                                                              150                                
PROFAMCHA020702130419130446000027PB&J Otter (PIE) - Today @ 1:30pm                                                                                           150                                
INTFAMCHA020702130446130631000145Disney Circle Time - The Milkmaids Pail (anywhere                                                                      60688120                                
PROFAMCHA020702130631130656000025New Adv of WTP (TREE) - Today @ 2:25pm                                                                                      150                                
PROFAMCHA020702130656130708000012Preschool Line-Up - 21 - STANLEY/PB&J/KATIE                                                                                 150                                
PROFAMCHA020702130708130716000008CC Is Brought To You By - Lark **DNU AFTER 09/22**                                                                          150                                
PGRFAMCHA020702130716133115002359Stanley                                           Snow Monkey See, Snow Monkey Do/Sick Day Stanley                    A6068607ECC                              
ID FAMCHA020702133115133130000015Generic ID - confetti                                                                                                       150                                
PROFAMCHA020702133130133157000027PB&J Otter (PIE) - Coming Up                                                                                                150                                
PROFAMCHA020702133157133207000010Preschool Line-Up - 22 - PB&J/KATIE/WTP                                                                                     150                                
PROFAMCHA020702133207133216000009CC Is Brought To You By - Ian                                                                                               150                                
PGRFAMCHA020702133216135437002221PB&J Otter                                        The Silent Treatment/Picture Perfect                                A6068607ECC                              
ID FAMCHA020702135437135447000010Generic ID - Bubbles                                                                                                        150                                
PROFAMCHA020702135447135504000017Katie and Orbie (OCT2001) - Coming Up                                                                                       150                                
PROFAMCHA020702135504135514000010Kidsummer 2002 - Indigo/Chapters                                                                                            150                                
INTFAMCHA020702135514135644000130MV Disney - Walk The Llama Llama                                                                                       60688120                                
PRCFAMCHA020702135644135658000014Goof Troop (SOUP) - Weekdays @ 7am                                                                                          150                                
PROFAMCHA020702135658135708000010Preschool Line-Up - 23 - KATIE/WTP/OOTB                                                                                     150                                
PROFAMCHA020702135708135716000008CC Is Brought To You By - Lark **DNU AFTER 09/22**                                                                          150                                
PGRFAMCHA020702135716142354002638Katie And Orbie                                   Chill/Christian/Seventh Wave                                  C19664A1055607ECC3                             
ID FAMCHA020702142354142401000007Generic ID - Whisper*                                                                                                       150                                
PROFAMCHA020702142401142426000025New Adv of WTP (TREE) - Coming Up                                                                                           150                                
PROFAMCHA020702142426142448000022Stanley (ANTELOPE) - Weekdays @ 9:05am                                                                                      150                                
PROFAMCHA020702142448142458000010Preschool Line-Up - 24 - WTP/OOTB/DUCKTALES                                                                                 150                                
ID FAMCHA020702142458142508000010xxMagic of Disney - V3(water) - TEEN FEMALE                                                                                 150                                
PROFAMCHA020702142508142516000008CC Is Brought To You By - Ian **DNU AFTER 09/22**                                                                           150                                
PGRFAMCHA020702142516144801002245New Adventures of Winnie the Pooh; The            Honey For A Bunny/Trap As Trap Can                                  A6068607ECC                              
ID FAMCHA020702144801144808000007Generic ID - Whisper*                                                                                                       150                                
PROFAMCHA020702144808144823000015Out of the Box - Coming Up                                                                                                  150                                
PROFAMCHA020702144823144858000035Legend of Tarzan (PICKS&NIBBLES-D12/WKNDS) - Today                                                                          150                                
PROFAMCHA020702144858144911000013Preschool Line-Up - 25 - OOTB/DUCKTALES/HOZE                                                                                150                                
PGRFAMCHA020702144911151116002205Out of the Box                                    Doctor Octor                                                         60686110                                
ID FAMCHA020702151116151121000005Generic ID - Marbles                                                                                                        150                                
PROFAMCHA020702151121151147000026DuckTales (CLIP) - Coming Up                                                                                                150                                
PROFAMCHA020702151147151218000031Hoze Houndz (TEETH) - Today @ 3:35pm                                                                                        150                                
PRCFAMCHA020702151218151232000014Goof Troop (SOUP) - Weekdays @ 7am                                                                                          150                                
PROFAMCHA020702151232151301000029Recess (COOL VINCE-D12/WKNDS) - Today @ 5:30pm                                                                              150                                
PROFAMCHA020702151301151311000010Preschool Line-Up - 26 - DUCKTALES/HOZE/BUZZ                                                                                150                                
PROFAMCHA020702151311151319000008CC Is Brought To You By - Lark **DNU AFTER 09/22**                                                                          150                                
PGRFAMCHA020702151319153604002245Disney's DuckTales                                The Golden Goose (part 1)                                           A6068607ECC                              
ID FAMCHA020702153604153615000011Generic ID - soccer                                                                                                         150                                
PROFAMCHA020702153615153641000026Hoze Houndz (GAS) - Coming Up                                                                                               150                                
ID FAMCHA020702153641153701000020Schoolhouse Promo - Weekday Mornings                                                                                        150                                
PROFAMCHA020702153701153711000010Preschool Line-Up - 27 - HOZE/BUZZ                                                                                          150                                
PROFAMCHA020702153711153719000008CC Is Brought To You By - Ian **DNU AFTER 09/22**                                                                           150                                
PGRFAMCHA020702153719155954002235Hoze Houndz                                       Hozer Blows A Kiss/Make Up Your Mind                          B45773A1065607ECC                              
ID FAMCHA020702155954160001000007Generic ID - Whisper*                                                                                                       150                                
ID FAMCHA020702160001160011000010xxMagic of Disney - V3(water) - TEEN MALE                                                                                   150                                
PROFAMCHA020702160011160041000030Disney's One Too - Opening                                                                                                  150                                
PROFAMCHA020702160041160049000008CC Is Brought To You By - Games                                                                                             150                                
