PGRFAMCHA150701043000045235002235The Latest Buzz                                   EP: 24                                                        C30362 1065607BCC                              
PROFAMCHA150701045235045310000035BTS Concert 2015 (HD) Tour CD - Go to Family.ca fo                                                                          150                                
PROFAMCHA150701045310045340000030Hank Zipzer (HD) Character Sell - New Eps Begin Fr                                                                          150                                
PRCFAMCHA150701045340045438000058Descendants (HD) Meet Villian Kids Mal - Prems Fri                                                                          150                                
PRCFAMCHA150701045438045502000024Family Bumper Flex (HD) Bike Trails (:20-:24) (Mar                                                                          150                                
PRCFAMCHA150701045502045537000035Cool Cool Summer Marathons (HD) Weekday Afternoons                                                                          150                                
PRCFAMCHA150701045537045607000030Episodic K.C. Undercover (HD) 1-17 - New Episode T                                                                          150                                
PRCFAMCHA150701045607045621000014Descriptive Video Slate (HD) (Apr2013)                                                                                      150                                
PGRFAMCHA150701045621051852002231Really Me                                         EP: 13                                                        C35342 1065607ACD                              
PROFAMCHA150701051852051900000008D-JR Live Action ID - Stella & Sam - Coming Up (Ma                                                                          150                                
PROFAMCHA150701051900051925000025D-JR Live Action ID - #20 Calendar (May2012)                                                                                150                                
PROFAMCHA150701051925052004000039D-JR Promo - Justin Time - Get more on D-JR the ch                                                                          150                                
PROFAMCHA150701052004052028000024D-JR Promo - Sarah & Duck - Get More on D-JR the C                                                                          150                                
PROFAMCHA150701052028052053000025D-JR Live Action ID - #34 Hide N Seek (Sep2013)                                                                             150                                
PROFAMCHA150701052053052101000008D-JR Live Action ID - Stella & Sam - Now (Mar2013)                                                                          150                                
PROFAMCHA150701052101052111000010D-JR - Hero Flex ID - Blue (:06-:10) (Feb2014)                                                                              150                                
PRCFAMCHA150701052111052125000014Descriptive Video Slate (HD) (Apr2013)                                                                                      150                                
PGRFAMCHA150701052125054440002315Stella and Sam                                    EP: 06                                                        C32553 1065607ECD                              
PROFAMCHA150701054440054455000015D-JR Promo - Thomas & Friends - Get More on D-JR t                                                                          150                                
PROFAMCHA150701054455054504000009D-JR - Hero Flex ID - Green (:06-:10) (Feb2014)                                                                             150                                
PRCFAMCHA150701054504054518000014Descriptive Video Slate (HD) (Apr2013)                                                                                      150                                
PGRFAMCHA150701054518060748002230Justin Time                                       EP: 04                                                        C36486 1065607ECD                              
PROFAMCHA150701060748060756000008D-JR Live Action ID - Justin Time - Coming Up (Sep                                                                          150                                
PROFAMCHA150701060756060821000025D-JR Live Action ID - #67 Play Dressup (Sep2013)                                                                            150                                
PROFAMCHA150701060821060910000049D-JR Promo - Strawberry Shortcake - Get More on th                                                                          150                                
PROFAMCHA150701060910060925000015D-JR Promo - Thomas & Friends - Get More on D-JR t                                                                          150                                
PROFAMCHA150701060925060950000025D-JR Live Action ID - #48 Help Feed Sibling (Sept2                                                                          150                                
PROFAMCHA150701060950060958000008D-JR Live Action ID - Justin Time - Now (Sept2014)                                                                          150                                
PROFAMCHA150701060958061008000010D-JR - Hero Flex ID - Purple (:06-:10) (Feb2014)                                                                            150                                
PRCFAMCHA150701061008061022000014Descriptive Video Slate (HD) (Apr2013)                                                                                      150                                
PGRFAMCHA150701061022063252002230Justin Time                                       EP: 05                                                        C36486 1065607ECD                              
PRCFAMCHA150701063252063320000028Stunt Summer Film Fest (HD) Princess Protection Pr                                                                          150                                
PROFAMCHA150701063320063357000037PAF (HD) Refresh May2015 - Coming Up Next (May2015                                                                          150                                
PROFAMCHA150701063357063412000015BTS Concert 2015 (HD) Vamps Concert Announce - Go                                                                           150                                
PRCFAMCHA150701063412063433000021Family Bumper Flex (HD) Break Dance (:18-:21) (Mar                                                                          150                                
PROFAMCHA150701063433063503000030Hank Zipzer (HD) Character Sell - New Eps Begin Fr                                                                          150                                
PGRFAMCHA150701063503065734002231Disney Phineas and Ferb                           EP: 22                                                               6068607ECC                              
PRCFAMCHA150701065734065804000030Teen Beach 2 "Sync It" (HD) Trailer CD - Premieres                                                                          150                                
PROFAMCHA150701065804065821000017PAF (HD) Disney Refresh CD - Coming Up Next (April                                                                          150                                
PROFAMCHA150701065821065911000050Mattel                                                                                                                      150                                
PROFAMCHA150701065911065923000012BTS Concert 2015 (HD) Shane Harte - BTS Liner 2: T                                                                          150                                
PRCFAMCHA150701065923065944000021Family Bumper Flex (HD) Dog Park (:19-:21) (Mar201                                                                          150                                
PROFAMCHA150701065944065959000015Episodic GMW (HD) 2-04 - New Episode Tomorrow Nigh                                                                          150                                
PGRFAMCHA150701065959072232002233Disney Phineas and Ferb                           EP: 06                                                               6068607ECC                              
PRCFAMCHA150701072232072307000035Cool Cool Summer Marathons (HD) Weekday Afternoons                                                                          150                                
PRCFAMCHA150701072307072337000030Episodic K.C. Undercover (HD) 1-17 - New Episode T                                                                          150                                
PROFAMCHA150701072337072428000051Gravity Falls (HD) Refresh - Coming Up Next (Jun20                                                                          150                                
PGRFAMCHA150701072428072528000100Int Shane Harte (HD) Writing (Jun29-Jul12)                                                                             10618120                                
PROFAMCHA150701072528072603000035BTS Concert 2015 (HD) Tour CD - Go to Family.ca fo                                                                          150                                
PROFAMCHA150701072603072643000040Kellogg's                                                                                                                   150                                
PRCFAMCHA150701072643072705000022Family Bumper Flex (HD) Fifteen Logos (:21-:22) (N                                                                          150                                
PROFAMCHA150701072705072755000050Universal Pictures                                                                                                          150                                
PRCFAMCHA150701072755072812000017Family.ca Video Player (HD) Generic Message - Vers                                                                          150                                
PROFAMCHA150701072812072907000055Lego                                                                                                                        150                                
PRCFAMCHA150701072907072937000030Teen Beach 2 "Sync It" (HD) Trailer CD - Premieres                                                                          150                                
PRCFAMCHA150701072937073000000023Gravity Falls (HD) Comedy Sell - Coming Up Next (A                                                                          150                                
PGRFAMCHA150701073000075318002318Disney Gravity Falls                              EP: 19                                                               6068607ECC                              
PRCFAMCHA150701075318075348000030Episodic Next Step (HD) Ep 3-13 (Generic) - Friday                                                                          150                                
PROFAMCHA150701075348075418000030Win Lose or Draw (HD) Gen 1 - Coming Up Next (Apri                                                                          150                                
PRCFAMCHA150701075418075503000045Descendants (HD) Arrive Trailer CD - Premieres Fri                                                                          150                                
PROFAMCHA150701075503075543000040Kellogg's                                                                                                                   150                                
PROFAMCHA150701075543075613000030Hank Zipzer (HD) Character Sell - New Eps Begin Fr                                                                          150                                
PRCFAMCHA150701075613075618000005Shane Harte Promo Liner (HD) You're Watching Famil                                                                          150                                
PROFAMCHA150701075618075713000055Lego                                                                                                                        150                                
PROFAMCHA150701075713075728000015BTS Concert 2015 (HD) Vamps Concert Announce - Go                                                                           150                                
PRCFAMCHA150701075728075758000030Family.ca Disney Online Drive (HD) K.C. Undercover                                                                          150                                
PROFAMCHA150701075758075843000045Walt Disney Pictures                                                                                                        150                                
PRCFAMCHA150701075843075859000016Family Bumper Flex (HD) Flex ID - Music ID (:14-:1                                                                          150                                
PRCFAMCHA150701075859075927000028Stunt Summer Film Fest (HD) Princess Protection Pr                                                                          150                                
PROFAMCHA150701075927075957000030Win Lose or Draw (HD) Gen 2 - Coming Up Next (Apri                                                                          150                                
PGRFAMCHA150701075957080627000630Disney Win, Lose or Draw                          EP: 23                                                               6068807BCC                              
PROFAMCHA150701080627080642000015Episodic GMW (HD) 2-04 - New Episode Tomorrow Nigh                                                                          150                                
PGRFAMCHA150701080642081322000640Disney Win, Lose or Draw                          EP: 23                                                               6068807BCC                              
PROFAMCHA150701081322081357000035BTS Concert 2015 (HD) Tour CD - Go to Family.ca fo                                                                          150                                
PGRFAMCHA150701081357081953000556Disney Win, Lose or Draw                          EP: 23                                                               6068807BCC                              
PRCFAMCHA150701081953082051000058Descendants (HD) Meet Villian Kids Mal - Prems Fri                                                                          150                                
PGRFAMCHA150701082051082415000324Disney Win, Lose or Draw                          EP: 23                                                               6068807BCC                              
PRCFAMCHA150701082415082450000035Cool Cool Summer Marathons (HD) Weekday Afternoons                                                                          150                                
PRCFAMCHA150701082450082520000030Episodic K.C. Undercover (HD) 1-17 - New Episode T                                                                          150                                
PROFAMCHA150701082520082543000023WOWP (HD) Harper - Coming Up Next (April 2013)                                                                              150                                
PROFAMCHA150701082543082623000040Kellogg's                                                                                                                   150                                
PROFAMCHA150701082623082653000030Hank Zipzer (HD) Character Sell - New Eps Begin Fr                                                                          150                                
PROFAMCHA150701082653082748000055Lego                                                                                                                        150                                
PRCFAMCHA150701082748082806000018Family Bumper Flex (HD) Flip Book (:15-:18) (Nov 2                                                                          150                                
PRCFAMCHA150701082806082836000030Web FOD 2014 Refresh (HD) Family.ca (Mar2014) (2-3                                                                          150                                
PROFAMCHA150701082836082926000050Walt Disney Studios Home Entertainment                                                                                      150                                
PRCFAMCHA150701082926082956000030Teen Beach 2 "Sync It" (HD) Trailer CD - Premieres                                                                          150                                
PROFAMCHA150701082956083002000006WOWP (HD) ID - Jennifer Stone 2 "Coming Up Next" (                                                                          150                                
PGRFAMCHA150701083002085233002231Disney Wizards of Waverly Place                   EP: 04                                                               6068607BCC                              
PRCFAMCHA150701085233085301000028Stunt Summer Film Fest (HD) Princess Protection Pr                                                                          150                                
PROFAMCHA150701085301085334000033ANT Farm (HD) Refresh - Coming Up Next (Jun2013)                                                                            150                                
PGRFAMCHA150701085334085736000402MV BTS 2015 (HD) Becky G - Lovin' So Hard (L3 with                                                                     10615120CC                              
PROFAMCHA150701085736085757000021BTS Concert 2015 (HD) Becky G Concert Liner - Go t                                                                          150                                
PROFAMCHA150701085757085812000015Episodic GMW (HD) 2-04 - New Episode Tomorrow Nigh                                                                          150                                
PROFAMCHA150701085812085827000015Gaming Show Game (HD) Go to Family.ca (Mar2015)(2-                                                                          150                                
PRCFAMCHA150701085827085842000015Family Bumper (HD) - Hot Potato ID (Jan 2011)                                                                               150                                
PRCFAMCHA150701085842085912000030Episodic Next Step (HD) Ep 3-13 (Generic) - Friday                                                                          150                                
PROFAMCHA150701085912085942000030Hank Zipzer (HD) Character Sell - New Eps Begin Fr                                                                          150                                
PRCFAMCHA150701085942085956000014Family Flex Next (HD) ANT Farm - Jake (:12-:14) (A                                                                          150                                
PGRFAMCHA150701085956092327002331Disney A.N.T. Farm                                EP: 03                                                               6068607BCC                              
PRCFAMCHA150701092327092357000030Teen Beach 2 "Sync It" (HD) Trailer CD - Premieres                                                                          150                                
PRCFAMCHA150701092357092431000034GLC Marching Band (HD) Coming Up Next (Nov2013)                                                                             150                                
PROFAMCHA150701092431092506000035BTS Concert 2015 (HD) Tour CD - Go to Family.ca fo                                                                          150                                
MVCFAMCHA150701092506092817000311MV BTS 2015 (HD) The Vamps Ft Demi Lovato - Somebo                                                                     10618120CC                              
PRCFAMCHA150701092817092838000021Family Bumper Flex (HD) Garage Band (:17-:21) (Nov                                                                          150                                
PRCFAMCHA150701092838092913000035Cool Cool Summer Marathons (HD) Weekday Afternoons                                                                          150                                
PRCFAMCHA150701092913092943000030Episodic K.C. Undercover (HD) 1-17 - New Episode T                                                                          150                                
PRCFAMCHA150701092943092957000014Family Flex Next (HD) GLC - Jason (:12-:14) (Apr20                                                                          150                                
PGRFAMCHA150701092957095228002231Good Luck Charlie                                 EP: 06                                                               6068707BCC                              
PROFAMCHA150701095228095258000030Hank Zipzer (HD) Character Sell - New Eps Begin Fr                                                                          150                                
PROFAMCHA150701095258095341000043Austin & Ally (HD) Bud Sell Refresh - Coming Up Ne                                                                          150                                
PGRFAMCHA150701095341095714000333MV BTS 2015 (HD) Shane Harte - I Need to Let You K                                                                     10615120CC                              
PROFAMCHA150701095714095726000012BTS Concert 2015 (HD) Shane Harte - BTS Liner 1: T                                                                          150                                
PRCFAMCHA150701095726095756000030Episodic Next Step (HD) Ep 3-13 (Generic) - Friday                                                                          150                                
PRCFAMCHA150701095756095826000030Family.ca Disney Online Drive (HD) K.C. Undercover                                                                          150                                
PRCFAMCHA150701095826095854000028Stunt Summer Film Fest (HD) Princess Protection Pr                                                                          150                                
PROFAMCHA150701095854095909000015Episodic GMW (HD) 2-04 - New Episode Tomorrow Nigh                                                                          150                                
PRCFAMCHA150701095909095929000020Family Bumper Flex (HD) Longboard (:19-:21) (Mar20                                                                          150                                
PRCFAMCHA150701095929095944000015Descendants (HD) Defining Descendants - Premieres                                                                           150                                
PRCFAMCHA150701095944095958000014Family Flex Next (HD) A&A - Laura (:12-:14) (Apr20                                                                          150                                
PGRFAMCHA150701095958102314002316Disney Austin & Ally                              EP: 03                                                               6068807BCC                              
PRCFAMCHA150701102314102349000035Cool Cool Summer Marathons (HD) Weekday Afternoons                                                                          150                                
PRCFAMCHA150701102349102419000030Episodic K.C. Undercover (HD) 1-17 - New Episode T                                                                          150                                
PROFAMCHA150701102419102503000044DWAB (HD) Refresh - Coming Up Next (Jan2015)                                                                                150                                
PROFAMCHA150701102503102518000015Gaming Show Game (HD) Go to Family.ca (Mar2015)(2-                                                                          150                                
PGRFAMCHA150701102518102810000252Int Anastasia A (HD) I Got You BTS (May15-Aug15)                                                                       10618120CC                              
PRCFAMCHA150701102810102840000030Teen Beach 2 "Sync It" (HD) Trailer CD - Premieres                                                                          150                                
PRCFAMCHA150701102840102901000021Family Bumper Flex (HD) Trampoline (:15-:21) (Mar2                                                                          150                                
PROFAMCHA150701102901102936000035BTS Concert 2015 (HD) Tour CD - Go to Family.ca fo                                                                          150                                
PRCFAMCHA150701102936102951000015Family Flex Next (HD) DWAB Ghannelius (Aug 2013) (                                                                          150                                
PGRFAMCHA150701102951105138002147Disney Dog With A Blog                            EP: 03                                                               6068807BCC                              
PROFAMCHA150701105138105208000030Hank Zipzer (HD) Character Sell - New Eps Begin Fr                                                                          150                                
PRCFAMCHA150701105208105238000030Gaming Show (HD) Coming Up Next (Nov2014)                                                                                   150                                
PROFAMCHA150701105238105259000021BTS Concert 2015 (HD) Becky G Concert Liner - Go t                                                                          150                                
PGRFAMCHA150701105259105645000346MV BTS 2015 (HD) Becky G - Can't Get Enough (L3 wi                                                                     10615120CC                              
PROFAMCHA150701105645105700000015Episodic GMW (HD) 2-04 - New Episode Tomorrow Nigh                                                                          150                                
PROFAMCHA150701105700105750000050Walt Disney Studios Home Entertainment                                                                                      150                                
PRCFAMCHA150701105750105820000030Episodic Next Step (HD) Ep 3-13 (Generic) - Friday                                                                          150                                
PRCFAMCHA150701105820105837000017Family.ca Video Player (HD) Generic Message - Vers                                                                          150                                
PRCFAMCHA150701105837105901000024Family Bumper Flex (HD) Bike Trails (:20-:24) (Mar                                                                          150                                
PRCFAMCHA150701105901105929000028Stunt Summer Film Fest (HD) Princess Protection Pr                                                                          150                                
PRCFAMCHA150701105929105959000030Gaming Show (HD) Coming Up Next (Nov2014)                                                                                   150                                
PGRFAMCHA150701105959112230002231Gaming Show (In My Parents' Garage)               EP: 03                                                              A1065611ACD                              
PRCFAMCHA150701112230112300000030Teen Beach 2 "Sync It" (HD) Trailer CD - Premieres                                                                          150                                
PROFAMCHA150701112300112330000030Jessie (HD) Generic - Coming up Next (May2014)                                                                              150                                
PRCFAMCHA150701112330112405000035Cool Cool Summer Marathons (HD) Weekday Afternoons                                                                          150                                
PRCFAMCHA150701112405112435000030Episodic K.C. Undercover (HD) 1-17 - New Episode T                                                                          150                                
PGRFAMCHA150701112435112815000340MV Non Disney (HD) Kyle Reynolds - Miles on my Hea                                                                     10615120CC                              
PRCFAMCHA150701112815112824000009Family Bumper (HD) - Dragonflies ID (Jan 2011)                                                                              150                                
PROFAMCHA150701112824112909000045Walt Disney Pictures                                                                                                        150                                
PROFAMCHA150701112909112944000035BTS Concert 2015 (HD) Tour CD - Go to Family.ca fo                                                                          150                                
PRCFAMCHA150701112944112958000014Family Flex Next (HD) Jessie - Emma (:12-:14) (Mar                                                                          150                                
PGRFAMCHA150701112958115230002232Disney Jessie                                     EP: 02                                                               6068807BCC                              
PRCFAMCHA150701115230115330000100Descendants (HD) Meet Villian Kids - Premieres Fri                                                                          150                                
PRCFAMCHA150701115330115400000030Girl Meets World (HD) Take A Bite Out of Life - Co                                                                          150                                
PROFAMCHA150701115400115412000012BTS Concert 2015 (HD) Shane Harte - BTS Liner 2: T                                                                          150                                
PROFAMCHA150701115412115507000055Lego                                                                                                                        150                                
PRCFAMCHA150701115507115537000030Teen Beach 2 "Sync It" (HD) Trailer CD - Premieres                                                                          150                                
PGRFAMCHA150701115537115758000221MV Disney Lift (HD) TB2 - On My Own (Jun2015)                                                                          60685120CC                              
PRCFAMCHA150701115758115828000030Episodic Next Step (HD) Ep 3-13 (Generic) - Friday                                                                          150                                
PROFAMCHA150701115828115843000015Gaming Show Game (HD) Go to Family.ca (Mar2015)(2-                                                                          150                                
PRCFAMCHA150701115843115902000019Family Bumper Flex (HD) Break Dance (:18-:21) (Mar                                                                          150                                
PRCFAMCHA150701115902115930000028Stunt Summer Film Fest (HD) Princess Protection Pr                                                                          150                                
PRCFAMCHA150701115930115950000020Family Flex Next (HD) GMW - Rowan (:10-:20) (Jul20                                                                          150                                
PGRFAMCHA150701115950122124002134Disney Girl Meets World                           EP: 04                                                              A6068707BCC                              
PROFAMCHA150701122124122139000015Episodic GMW (HD) 2-04 - New Episode Tomorrow Nigh                                                                          150                                
PROFAMCHA150701122139122202000023Next Step Season 2 B (HD) Eldon - Coming Up Next (                                                                          150                                
PROFAMCHA150701122202122237000035BTS Concert 2015 (HD) Tour CD - Go to Family.ca fo                                                                          150                                
PGRFAMCHA150701122237122639000402MV BTS 2015 (HD) Becky G - Lovin' So Hard (L3 with                                                                     10615120CC                              
PROFAMCHA150701122639122734000055Lego                                                                                                                        150                                
PROFAMCHA150701122734122804000030Hank Zipzer (HD) Character Sell - New Eps Begin Fr                                                                          150                                
PRCFAMCHA150701122804122821000017Family.ca Video Player (HD) Generic Message - Vers                                                                          150                                
PRCFAMCHA150701122821122842000021Family Bumper Flex (HD) Dog Park (:19-:21) (Mar201                                                                          150                                
PRCFAMCHA150701122842122917000035Cool Cool Summer Marathons (HD) Weekday Afternoons                                                                          150                                
PRCFAMCHA150701122917122947000030Episodic K.C. Undercover (HD) 1-17 - New Episode T                                                                          150                                
PRCFAMCHA150701122947123008000021Next Step Season 2 B (HD) West - Coming Up Next (S                                                                          150                                
PRCFAMCHA150701123008123022000014Descriptive Video Slate (HD) (Apr2013)                                                                                      150                                
PGRFAMCHA150701123022125307002245The Next Step                                     EP: 03                                                        C37994 1065607ACD                              
PRCFAMCHA150701125307125337000030Episodic Next Step (HD) Ep 3-13 (Generic) - Friday                                                                          150                                
PROFAMCHA150701125337125420000043Austin & Ally (HD) Bud Sell Refresh - Coming Up Ne                                                                          150                                
PROFAMCHA150701125420125500000040Kellogg's                                                                                                                   150                                
PROFAMCHA150701125500125530000030Hank Zipzer (HD) Character Sell - New Eps Begin Fr                                                                          150                                
PGRFAMCHA150701125530125630000100Int Shane Harte (HD) Writing (Jun29-Jul12)                                                                             10618120                                
PROFAMCHA150701125630125642000012BTS Concert 2015 (HD) Shane Harte - BTS Liner 2: T                                                                          150                                
PROFAMCHA150701125642125757000115Int Gaming Show (HD) Interstitial #1-16 (Jun29-Jul                                                                          150CC                              
PROFAMCHA150701125757125812000015Episodic GMW (HD) 2-04 - New Episode Tomorrow Nigh                                                                          150                                
PROFAMCHA150701125812125902000050Warner Music Canada                                                                                                         150                                
PRCFAMCHA150701125902125924000022Family Bumper Flex (HD) Fifteen Logos (:21-:22) (N                                                                          150                                
PRCFAMCHA150701125924125952000028Stunt Summer Film Fest (HD) Princess Protection Pr                                                                          150                                
PRCFAMCHA150701125952130007000015Family Flex Next (HD) A&A Raini (Aug 2013) (:13-:1                                                                          150                                
PGRFAMCHA150701130007132239002232Disney Austin & Ally                              EP: 13                                                               6068807BCC                              
PRCFAMCHA150701132239132309000030Teen Beach 2 "Sync It" (HD) Trailer CD - Premieres                                                                          150                                
PRCFAMCHA150701132309132324000015Family Flex Next (HD) A&A Raini (Aug 2013) (:13-:1                                                                          150                                
MVCFAMCHA150701132324132649000325MV BTS 2015 (HD) The Vamps Ft Shawn Mendes - Oh Ce                                                                     10618120CC                              
PROFAMCHA150701132649132724000035BTS Concert 2015 (HD) Tour CD - Go to Family.ca fo                                                                          150                                
PROFAMCHA150701132724132804000040Kellogg's                                                                                                                   150                                
PRCFAMCHA150701132804132817000013Family Bumper (HD) - Drums ID (Jan 2011)                                                                                    150                                
PRCFAMCHA150701132817132822000005Shane Harte Promo Liner (HD) You're Watching Famil                                                                          150                                
PSAFAMCHA150701132822132852000030PSA CMF (HD) Canada on Screen 2015 (Jan2015) (3x/d                                                                     1    130CC                              
PRCFAMCHA150701132852132927000035Cool Cool Summer Marathons (HD) Weekday Afternoons                                                                          150                                
PRCFAMCHA150701132927132957000030Episodic K.C. Undercover (HD) 1-17 - New Episode T                                                                          150                                
PRCFAMCHA150701132957133011000014Family Flex Next (HD) A&A - Laura (:12-:14) (Apr20                                                                          150                                
PGRFAMCHA150701133011135327002316Disney Austin & Ally                              EP: 03                                                               6068807BCC                              
PRCFAMCHA150701135327135355000028Stunt Summer Film Fest (HD) Princess Protection Pr                                                                          150                                
PRCFAMCHA150701135355135425000030KC Undercover (HD) Comedy Action Sell - Coming Up                                                                           150                                
PGRFAMCHA150701135425135555000130Int Shane Harte (HD) BTS of "Let You Know" - Famil                                                                     10618120                                
PROFAMCHA150701135555135607000012BTS Concert 2015 (HD) Shane Harte - BTS Liner 1: T                                                                          150                                
PROFAMCHA150701135607135622000015Episodic GMW (HD) 2-04 - New Episode Tomorrow Nigh                                                                          150                                
PROFAMCHA150701135622135707000045Walt Disney Pictures                                                                                                        150                                
PRCFAMCHA150701135707135737000030Episodic Next Step (HD) Ep 3-13 (Generic) - Friday                                                                          150                                
PRCFAMCHA150701135737135837000100Descendants (HD) Meet Villian Kids Carlos - Prems                                                                           150                                
PRCFAMCHA150701135837135854000017Family Bumper Flex (HD) Flex ID - Music ID (:14-:1                                                                          150                                
PROFAMCHA150701135854135924000030Hank Zipzer (HD) Character Sell - New Eps Begin Fr                                                                          150                                
PRCFAMCHA150701135924135954000030KC Undercover (HD) Comedy Action Sell - Coming Up                                                                           150                                
PGRFAMCHA150701135954142312002318Disney K.C. Undercover                            EP: 06                                                               6068807BCC                              
PRCFAMCHA150701142312142342000030Episodic K.C. Undercover (HD) 1-17 - New Episode T                                                                          150                                
PRCFAMCHA150701142342142417000035Cool Cool Summer Marathons (HD) Starts Next (Jun29                                                                          150                                
PROFAMCHA150701142417142512000055Lego                                                                                                                        150                                
PROFAMCHA150701142512142547000035BTS Concert 2015 (HD) Tour CD - Go to Family.ca fo                                                                          150                                
MVCFAMCHA150701142547142915000328MV BTS 2015 (HD) The Vamps - Wild Heart (Concert L                                                                     10618120CC                              
PRCFAMCHA150701142915142933000018Family Bumper Flex (HD) Flip Book (:15-:18) (Nov 2                                                                          150                                
PRCFAMCHA150701142933143003000030Teen Beach 2 "Sync It" (HD) Trailer CD - Premieres                                                                          150                                
PGRFAMCHA150701143003145251002248Disney K.C. Undercover                            EP: 05                                                               6068807BCC                              
PRCFAMCHA150701145251145319000028Stunt Summer Film Fest (HD) Princess Protection Pr                                                                          150                                
PROFAMCHA150701145319145404000045KC Undercover (HD) Spy Family Comedy Sell - Coming                                                                          150                                
PROFAMCHA150701145404145416000012BTS Concert 2015 (HD) Shane Harte - BTS Liner 1: T                                                                          150                                
PROFAMCHA150701145416145456000040Kellogg's                                                                                                                   150                                
PROFAMCHA150701145456145526000030Hank Zipzer (HD) Character Sell - New Eps Begin Fr                                                                          150                                
MVCFAMCHA150701145526145807000241MV Non Disney (HD) Anastasia A - I Got You (May15-                                                                     20688120CC                              
PRCFAMCHA150701145807145837000030Episodic Next Step (HD) Ep 3-13 (Generic) - Friday                                                                          150                                
PROFAMCHA150701145837145932000055Lego                                                                                                                        150                                
PRCFAMCHA150701145932145953000021Family Bumper Flex (HD) Garage Band (:17-:21) (Nov                                                                          150                                
PROFAMCHA150701145953150008000015Episodic GMW (HD) 2-04 - New Episode Tomorrow Nigh                                                                          150                                
PGRFAMCHA150701150008152411002403Disney K.C. Undercover                            EP: 18                                                               6068807BCC                              
PRCFAMCHA150701152411152441000030Episodic K.C. Undercover (HD) 1-17 - New Episode T                                                                          150                                
PRCFAMCHA150701152441152516000035Cool Cool Summer Marathons (HD) Continues Next (Ju                                                                          150                                
PROFAMCHA150701152516152606000050Walt Disney Studios Home Entertainment                                                                                      150                                
PRCFAMCHA150701152606152636000030Teen Beach 2 "Sync It" (HD) Trailer CD - Premieres                                                                          150                                
PRCFAMCHA150701152636152653000017Family.ca Video Player (HD) Generic Message - Vers                                                                          150                                
PGRFAMCHA150701152653152808000115Synergy (HD) DMS Inside Out with Amy Poehler & Bil                                                                     60688120CC                              
PRCFAMCHA150701152808152829000021Family Bumper Flex (HD) Longboard (:19-:21) (Mar20                                                                          150                                
PROFAMCHA150701152829152919000050Mattel                                                                                                                      150                                
PROFAMCHA150701152919152954000035BTS Concert 2015 (HD) Tour CD - Go to Family.ca fo                                                                          150                                
PGRFAMCHA150701152954155141002147Disney K.C. Undercover                            EP: 09                                                               6028807BCC                              
PRCFAMCHA150701155141155209000028Stunt Summer Film Fest (HD) Princess Protection Pr                                                                          150                                
PRCFAMCHA150701155209155239000030KC Undercover (HD) Comedy Action Sell - Coming Up                                                                           150                                
MVCFAMCHA150701155239155550000311MV BTS 2015 (HD) The Vamps Ft Demi Lovato - Somebo                                                                     10618120CC                              
PROFAMCHA150701155550155605000015BTS Concert 2015 (HD) Vamps Concert Announce - Go                                                                           150                                
PROFAMCHA150701155605155650000045Walt Disney Pictures                                                                                                        150                                
PROFAMCHA150701155650155705000015Episodic GMW (HD) 2-04 - New Episode Tomorrow Nigh                                                                          150                                
PROFAMCHA150701155705155735000030Hank Zipzer (HD) Character Sell - New Eps Begin Fr                                                                          150                                
PRCFAMCHA150701155735155805000030Episodic Next Step (HD) Ep 3-13 (Generic) - Friday                                                                          150                                
PROFAMCHA150701155805155845000040Kellogg's                                                                                                                   150                                
PRCFAMCHA150701155845155906000021Family Bumper Flex (HD) Trampoline (:15-:21) (Mar2                                                                          150                                
PRCFAMCHA150701155906160005000059Descendants (HD) Meet Villian Kids Evie - Prems Fr                                                                          150                                
PGRFAMCHA150701160005162308002303Disney K.C. Undercover                            EP: 10                                                               6028807BCC                              
PRCFAMCHA150701162308162338000030Episodic K.C. Undercover (HD) 1-17 - New Episode T                                                                          150                                
PRCFAMCHA150701162338162413000035Cool Cool Summer Marathons (HD) Continues Next (Ju                                                                          150                                
PROFAMCHA150701162413162453000040Kellogg's                                                                                                                   150                                
PRCFAMCHA150701162453162523000030Teen Beach 2 "Sync It" (HD) Trailer CD - Premieres                                                                          150                                
PGRFAMCHA150701162523162751000228MV Disney Lift (HD) TB2 - Right Where I Wanna Be (                                                                     60685120CC                              
PRCFAMCHA150701162751162815000024Family Bumper Flex (HD) Bike Trails (:20-:24) (Mar                                                                          150                                
PROFAMCHA150701162815162850000035BTS Concert 2015 (HD) Tour CD - Go to Family.ca fo                                                                          150                                
PROFAMCHA150701162850162940000050Universal Pictures                                                                                                          150                                
PROFAMCHA150701162940162955000015Gaming Show Game (HD) Go to Family.ca (Mar2015)(2-                                                                          150                                
PGRFAMCHA150701162955165239002244Disney K.C. Undercover                            EP: 11                                                               6068807BCC                              
PROFAMCHA150701165239165254000015Episodic GMW (HD) 2-04 - New Episode Tomorrow Nigh                                                                          150                                
PROFAMCHA150701165254165339000045KC Undercover (HD) Spy Family Comedy Sell - Coming                                                                          150                                
PROFAMCHA150701165339165429000050Mattel                                                                                                                      150                                
PRCFAMCHA150701165429165459000030Episodic Next Step (HD) Ep 3-13 (Generic) - Friday                                                                          150                                
PRCFAMCHA150701165459165527000028Stunt Summer Film Fest (HD) Princess Protection Pr                                                                          150                                
PGRFAMCHA150701165527165756000229Short GF Mabel's Guide (HD) 08 To Dating (Apr18)                                                                       60688120CC                              
PROFAMCHA150701165756165817000021BTS Concert 2015 (HD) Becky G Concert Liner - Go t                                                                          150                                
PRCFAMCHA150701165817165838000021Family Bumper Flex (HD) Break Dance (:18-:21) (Mar                                                                          150                                
PROFAMCHA150701165838165928000050Walt Disney Studios Home Entertainment                                                                                      150                                
PROFAMCHA150701165928165958000030Hank Zipzer (HD) Character Sell - New Eps Begin Fr                                                                          150                                
PGRFAMCHA150701165958172401002403Disney K.C. Undercover                            EP: 12                                                               6068807BCC                              
PRCFAMCHA150701172401172431000030Episodic Next Step (HD) Ep 3-13 (Generic) - Friday                                                                          150                                
PRCFAMCHA150701172431172506000035Cool Cool Summer Marathons (HD) Continues Next (Ju                                                                          150                                
PROFAMCHA150701172506172551000045Walt Disney Pictures                                                                                                        150                                
PROFAMCHA150701172551172626000035BTS Concert 2015 (HD) Tour CD - Go to Family.ca fo                                                                          150                                
PROFAMCHA150701172626172741000115Int Gaming Show (HD) Interstitial #1-16 (Jun29-Jul                                                                          150CC                              
PRCFAMCHA150701172741172802000021Family Bumper Flex (HD) Dog Park (:19-:21) (Mar201                                                                          150                                
PROFAMCHA150701172802172857000055Lego                                                                                                                        150                                
PRCFAMCHA150701172857172927000030Teen Beach 2 "Sync It" (HD) Trailer CD - Premieres                                                                          150                                
PRCFAMCHA150701172927172957000030Episodic K.C. Undercover (HD) 1-17 - New Episode C                                                                          150                                
PGRFAMCHA150701172957175301002304Disney K.C. Undercover                            EP: 17                                                               6028807BCC                              
PRCFAMCHA150701175301175359000058Descendants (HD) Meet Villian Kids Jay - Prems Fri                                                                          150                                
PRCFAMCHA150701175359175429000030KC Undercover (HD) Comedy Action Sell - Coming Up                                                                           150                                
PGRFAMCHA150701175429175529000100Int Shane Harte (HD) Writing (Jun29-Jul12)                                                                             10618120                                
PROFAMCHA150701175529175541000012BTS Concert 2015 (HD) Shane Harte - BTS Liner 2: T                                                                          150                                
PROFAMCHA150701175541175631000050Universal Pictures                                                                                                          150                                
PROFAMCHA150701175631175701000030Hank Zipzer (HD) Character Sell - New Eps Begin Fr                                                                          150                                
PRCFAMCHA150701175701175731000030Episodic Next Step (HD) Ep 3-13 (Generic) - Friday                                                                          150                                
PRCFAMCHA150701175731175801000030Web FOD 2014 Refresh (HD) Family.ca (Mar2014) (2-3                                                                          150                                
PROFAMCHA150701175801175816000015Episodic GMW (HD) 2-04 - New Episode Tomorrow Nigh                                                                          150                                
PROFAMCHA150701175816175906000050Walt Disney Studios Home Entertainment                                                                                      150                                
PRCFAMCHA150701175906175928000022Family Bumper Flex (HD) Fifteen Logos (:21-:22) (N                                                                          150                                
PRCFAMCHA150701175928175956000028Stunt Summer Film Fest (HD) Princess Protection Pr                                                                          150                                
PGRFAMCHA150701175956182246002250Disney K.C. Undercover                            EP: 08                                                               6068807BCC                              
PRCFAMCHA150701182246182321000035Cool Cool Summer Marathons (HD) Weekday Afternoons                                                                          150                                
PRCFAMCHA150701182321182351000030Girl Meets World (HD) Take A Bite Out of Life - Co                                                                          150                                
PROFAMCHA150701182351182436000045Walt Disney Pictures                                                                                                        150                                
PROFAMCHA150701182436182511000035BTS Concert 2015 (HD) Tour CD - Go to Family.ca fo                                                                          150                                
PROFAMCHA150701182511182601000050Mattel                                                                                                                      150                                
PRCFAMCHA150701182601182616000015Family Bumper (HD) - Hot Potato ID (Jan 2011)                                                                               150                                
PROFAMCHA150701182616182706000050Universal Pictures                                                                                                          150                                
PRCFAMCHA150701182706182736000030Family.ca Disney Online Drive (HD) K.C. Undercover                                                                          150                                
PGRFAMCHA150701182736182921000145This Is Who I Am (HD) Mick (Stan) the Dog (Mar2015                                                                     10615120CC                              
PRCFAMCHA150701182921182951000030Teen Beach 2 "Sync It" (HD) Trailer CD - Premieres                                                                          150                                
PRCFAMCHA150701182951183010000019Family Flex Next (HD) GMW - Sabrina (:10-:19) (Jul                                                                          150                                
PGRFAMCHA150701183010185343002333Disney Girl Meets World                           EP: 03                                                              A6068707BCC                              
PROFAMCHA150701185343185358000015Episodic GMW (HD) 2-04 - New Episode Tomorrow Nigh                                                                          150                                
PROFAMCHA150701185358185423000025GLC Promo 1 (HD) Coming Up Next (Sep2013)                                                                                   150                                
PRCFAMCHA150701185423185451000028Stunt Summer Film Fest (HD) Princess Protection Pr                                                                          150                                
PROFAMCHA150701185451185541000050Universal Pictures                                                                                                          150                                
PRCFAMCHA150701185541185611000030Episodic Next Step (HD) Ep 3-13 (Generic) - Friday                                                                          150                                
PRCFAMCHA150701185611185709000058Descendants (HD) Meet Villian Kids Mal - Prems Fri                                                                          150                                
PROFAMCHA150701185709185804000055Lego                                                                                                                        150                                
PROFAMCHA150701185804185819000015BTS Concert 2015 (HD) Vamps Concert Announce - Go                                                                           150                                
PROFAMCHA150701185819185909000050Walt Disney Studios Home Entertainment                                                                                      150                                
PRCFAMCHA150701185909185923000014Family Bumper Flex (HD) Flex ID - Music ID (:14-:1                                                                          150                                
PROFAMCHA150701185923185953000030Hank Zipzer (HD) Character Sell - New Eps Begin Fr                                                                          150                                
PRCFAMCHA150701185953190007000014Family Flex Next (HD) GLC - Jason (:12-:14) (Apr20                                                                          150                                
PGRFAMCHA150701190007192357002350Good Luck Charlie                                 EP: 01                                                               6068807BCC                              
PRCFAMCHA150701192357192425000028Stunt Summer Film Fest (HD) Princess Protection Pr                                                                          150                                
PROFAMCHA150701192425192515000050Mattel                                                                                                                      150                                
PROFAMCHA150701192515192545000030Hank Zipzer (HD) Character Sell - New Eps Begin Fr                                                                          150                                
PGRFAMCHA150701192545192715000130Int Shane Harte (HD) BTS of "Let You Know" - Famil                                                                     10618120                                
PROFAMCHA150701192715192750000035BTS Concert 2015 (HD) Tour CD - Go to Family.ca fo                                                                          150                                
PROFAMCHA150701192750192830000040Kellogg's                                                                                                                   150                                
PROFAMCHA150701192830192845000015Gaming Show Game (HD) Go to Family.ca (Mar2015)(2-                                                                          150                                
PROFAMCHA150701192845192935000050Walt Disney Studios Home Entertainment                                                                                      150                                
PROFAMCHA150701192935192950000015Episodic GMW (HD) 2-04 - New Episode Tomorrow Nigh                                                                          150                                
ID FAMCHA150701192950193005000015Popcorn Pix Block Open (HD)  (Jan2011)                                                                                      150                                
ID FAMCHA150701193005193014000009Popcorn Pix Rating Slate (HD) - G (Jan 2011)                                                                                150                                
ID FAMCHA150701193014193020000006Popcorn Pix Magic of Disney Bumper (HD) (Apr2013)                                                                           150                                
PGRFAMCHA150701193020205833012813Princess Protection Program                                                                                           A6068807CCC                              
PRCFAMCHA150701205833205901000028Stunt Summer Film Fest (HD) Cloud 9 - Tomorrow Nig                                                                          150                                
PRCFAMCHA150701205901205921000020Family Flex Next (HD) GMW - Rowan (:10-:20) (Jul20                                                                          150                                
PROFAMCHA150701205921205936000015Episodic GMW (HD) 2-04 - New Episode Tomorrow Nigh                                                                          150                                
PROFAMCHA150701205936205957000021BTS Concert 2015 (HD) Becky G Concert Liner - Go t                                                                          150                                
PGRFAMCHA150701205957212330002333Disney Girl Meets World                           EP: 03                                                              A6068707BCC                              
PROFAMCHA150701212330212345000015Episodic GMW (HD) 2-04 - New Episode Tomorrow Nigh                                                                          150                                
PROFAMCHA150701212345212435000050Warner Music Canada                                                                                                         150                                
PRCFAMCHA150701212435212510000035Cool Cool Summer Marathons (HD) Weekday Afternoons                                                                          150                                
PGRFAMCHA150701212510212711000201MV Disney Lift (HD) TB2 - Falling for Ya (Jun2015)                                                                     60685120CC                              
PRCFAMCHA150701212711212741000030Teen Beach 2 "Sync It" (HD) Trailer CD - Premieres                                                                          150                                
PSAFAMCHA150701212741212811000030PSA CMF (HD) Canada on Screen 2015 (Jan2015) (3x/d                                                                     1    130CC                              
PRCFAMCHA150701212811212831000020Family Bumper Flex (HD) Break Dance (:18-:21) (Mar                                                                          150                                
PROFAMCHA150701212831212926000055Lego                                                                                                                        150                                
PROFAMCHA150701212926213001000035BTS Concert 2015 (HD) Tour CD - Go to Family.ca fo                                                                          150                                
PRCFAMCHA150701213001213015000014Descriptive Video Slate (HD) (Apr2013)                                                                                      150                                
PGRFAMCHA150701213015215245002230Wingin' It                                        EP: 28                                                        C32727 1065607ACD                              
PRCFAMCHA150701215245215313000028Stunt Summer Film Fest (HD) Cloud 9 - Tomorrow Nig                                                                          150                                
PROFAMCHA150701215313215343000030GLC Promo 3 (HD) Coming Up Next (Sep2013)                                                                                   150                                
MVCFAMCHA150701215343215708000325MV BTS 2015 (HD) The Vamps Ft Shawn Mendes - Oh Ce                                                                     10618120CC                              
PROFAMCHA150701215708215723000015BTS Concert 2015 (HD) Vamps Concert Announce - Go                                                                           150                                
PROFAMCHA150701215723215818000055Lego                                                                                                                        150                                
PROFAMCHA150701215818215833000015Episodic GMW (HD) 2-04 - New Episode Tomorrow Nigh                                                                          150                                
PRCFAMCHA150701215833215841000008Family Bumper (HD) - Origami ID (Jan 2011)                                                                                  150                                
PRCFAMCHA150701215841215911000030Episodic Next Step (HD) Ep 3-13 (Generic) - Friday                                                                          150                                
PROFAMCHA150701215911215941000030Hank Zipzer (HD) Character Sell - New Eps Begin Fr                                                                          150                                
PRCFAMCHA150701215941215955000014Family Flex Next (HD) GLC - Jason (:12-:14) (Apr20                                                                          150                                
PGRFAMCHA150701215955222558002603Good Luck Charlie                                 EP: 20                                                               6068807BCC                              
PRCFAMCHA150701222558222633000035Cool Cool Summer Marathons (HD) Weekday Afternoons                                                                          150                                
PROFAMCHA150701222633222703000030Win Lose or Draw (HD) Gen 2 - Coming Up Next (Apri                                                                          150                                
PGRFAMCHA150701222703222803000100Int Shane Harte (HD) Writing (Jun29-Jul12)                                                                             10618120                                
PROFAMCHA150701222803222838000035BTS Concert 2015 (HD) Tour CD - Go to Family.ca fo                                                                          150                                
PROFAMCHA150701222838222918000040Kellogg's                                                                                                                   150                                
PRCFAMCHA150701222918222939000021Family Bumper Flex (HD) Longboard (:19-:21) (Mar20                                                                          150                                
PRCFAMCHA150701222939223009000030Teen Beach 2 "Sync It" (HD) Trailer CD - Premieres                                                                          150                                
PGRFAMCHA150701223009223705000656Disney Win, Lose or Draw                          EP: 37                                                               6068807BCC                              
PRCFAMCHA150701223705223733000028Stunt Summer Film Fest (HD) Cloud 9 - Tomorrow Nig                                                                          150                                
PGRFAMCHA150701223733224355000622Disney Win, Lose or Draw                          EP: 37                                                               6068807BCC                              
PRCFAMCHA150701224355224425000030Episodic Next Step (HD) Ep 3-13 (Generic) - Friday                                                                          150                                
PGRFAMCHA150701224425225017000552Disney Win, Lose or Draw                          EP: 37                                                               6068807BCC                              
PROFAMCHA150701225017225047000030Hank Zipzer (HD) Character Sell - New Eps Begin Fr                                                                          150                                
PGRFAMCHA150701225047225404000317Disney Win, Lose or Draw                          EP: 37                                                               6068807BCC                              
PROFAMCHA150701225404225419000015Episodic GMW (HD) 2-04 - New Episode Tomorrow Nigh                                                                          150                                
PROFAMCHA150701225419225425000006WOWP (HD) ID - Jennifer Stone 2 "Coming Up Next" (                                                                          150                                
PGRFAMCHA150701225425225758000333MV BTS 2015 (HD) Shane Harte - I Need to Let You K                                                                     10615120CC                              
PROFAMCHA150701225758225810000012BTS Concert 2015 (HD) Shane Harte - BTS Liner 1: T                                                                          150                                
PROFAMCHA150701225810225850000040Kellogg's                                                                                                                   150                                
PRCFAMCHA150701225850225911000021Family Bumper Flex (HD) Trampoline (:15-:21) (Mar2                                                                          150                                
PRCFAMCHA150701225911225956000045Descendants (HD) Arrive Trailer CD - Premieres Fri                                                                          150                                
PROFAMCHA150701225956230002000006WOWP (HD) ID - Jennifer Stone 1 "Coming Up Next" (                                                                          150                                
PGRFAMCHA150701230002232234002232Disney Wizards of Waverly Place                   EP: 08                                                               6068607BCC                              
PRCFAMCHA150701232234232309000035Cool Cool Summer Marathons (HD) Weekday Afternoons                                                                          150                                
MVCFAMCHA150701232309232752000443MV Non Disney (HD) Ed Sheeran - Thinking Out Loud                                                                      10615120CC                              
PRCFAMCHA150701232752232822000030Teen Beach 2 "Sync It" (HD) Trailer CD - Premieres                                                                          150                                
PRCFAMCHA150701232822232852000030Family.ca Disney Online Drive (HD) K.C. Undercover                                                                          150                                
PRCFAMCHA150701232852232916000024Family Bumper Flex (HD) Bike Trails (:20-:24) (Mar                                                                          150                                
PROFAMCHA150701232916232951000035BTS Concert 2015 (HD) Tour CD - Go to Family.ca fo                                                                          150                                
PGRFAMCHA150701232951235221002230Life with Derek                                   EP: 11                                                        C23968A1065607BCC                              
PRCFAMCHA150701235221235249000028Stunt Summer Film Fest (HD) Cloud 9 - Tomorrow Nig                                                                          150                                
PGRFAMCHA150701235249235651000402MV BTS 2015 (HD) Becky G - Lovin' So Hard (L3 with                                                                     10615120CC                              
PROFAMCHA150701235651235712000021BTS Concert 2015 (HD) Becky G Concert Liner - Go t                                                                          150                                
PROFAMCHA150701235712235807000055Lego                                                                                                                        150                                
PROFAMCHA150701235807235822000015Episodic GMW (HD) 2-04 - New Episode Tomorrow Nigh                                                                          150                                
PRCFAMCHA150701235822235839000017Family.ca Video Player (HD) Generic Message - Vers                                                                          150                                
PRCFAMCHA150701235839235900000021Family Bumper Flex (HD) Break Dance (:18-:21) (Mar                                                                          150                                
PRCFAMCHA150701235900235930000030Episodic Next Step (HD) Ep 3-13 (Generic) - Friday                                                                          150                                
PROFAMCHA150701235930000000000030Hank Zipzer (HD) Character Sell - New Eps Begin Fr                                                                          150                                
PRCFAMCHA150701000000000014000014Descriptive Video Slate (HD) (Apr2013)                                                                                      150                                
PGRFAMCHA150701000014002246002232Wingin' It                                        EP: 07                                                        C35822 1065607ACD                              
PRCFAMCHA150701002246002316000030Teen Beach 2 "Sync It" (HD) Trailer CD - Premieres                                                                          150                                
PGRFAMCHA150701002316002722000406MV Disney Lift (HD) TB2 - That's How We Do (Jun201                                                                     60685120CC                              
PRCFAMCHA150701002722002757000035Cool Cool Summer Marathons (HD) Weekday Afternoons                                                                          150                                
PROFAMCHA150701002757002827000030Hank Zipzer (HD) Character Sell - New Eps Begin Fr                                                                          150                                
PSAFAMCHA150701002827002857000030PSA CMF (HD) Canada on Screen 2015 (Jan2015) (3x/d                                                                     1    130CC                              
PROFAMCHA150701002857002912000015Gaming Show Game (HD) Go to Family.ca (Mar2015)(2-                                                                          150                                
PRCFAMCHA150701002912002933000021Family Bumper Flex (HD) Dog Park (:19-:21) (Mar201                                                                          150                                
PROFAMCHA150701002933003008000035BTS Concert 2015 (HD) Tour CD - Go to Family.ca fo                                                                          150                                
PRCFAMCHA150701003008003022000014Descriptive Video Slate (HD) (Apr2013)                                                                                      150                                
PGRFAMCHA150701003022005254002232Wingin' It                                        EP: 08                                                        C35822 1065607ACD                              
PRCFAMCHA150701005254005354000100Descendants (HD) Meet Villian Kids - Premieres Fri                                                                          150                                
MVCFAMCHA150701005354005756000402MV Non Disney (HD) Jordan McIntosh - Story of My L                                                                     20688120CC                              
PROFAMCHA150701005756005826000030Hank Zipzer (HD) Character Sell - New Eps Begin Fr                                                                          150                                
PROFAMCHA150701005826005841000015Episodic GMW (HD) 2-04 - New Episode Tomorrow Nigh                                                                          150                                
PRCFAMCHA150701005841005909000028Stunt Summer Film Fest (HD) Cloud 9 - Tomorrow Nig                                                                          150                                
PRCFAMCHA150701005909005931000022Family Bumper Flex (HD) Fifteen Logos (:21-:22) (N                                                                          150                                
PRCFAMCHA150701005931010001000030Episodic Next Step (HD) Ep 3-13 (Generic) - Friday                                                                          150                                
PROFAMCHA150701010001010013000012BTS Concert 2015 (HD) Shane Harte - BTS Liner 2: T                                                                          150                                
PGRFAMCHA150701010013012248002235The Latest Buzz                                   EP: 24                                                        C30362 1065607BCC                              
PRCFAMCHA150701012248012306000018Family Bumper Flex (HD) Flex ID - Music ID (:14-:1                                                                          150                                
PGRFAMCHA150701012306014549002243What's Up, Warthogs!                              EP: 04                                                        B33327 1065607BCC                              
PRCFAMCHA150701014549014610000021Family Bumper Flex (HD) Dog Park (:19-:21) (Mar201                                                                          150                                
PGRFAMCHA150701014610020843002233Disney Wizards of Waverly Place                   EP: 07                                                               6068507BCC                              
PRCFAMCHA150701020843020904000021Family Bumper Flex (HD) Garage Band (:17-:21) (Nov                                                                          150                                
PRCFAMCHA150701020904020918000014Descriptive Video Slate (HD) (Apr2013)                                                                                      150                                
PGRFAMCHA150701020918023150002232Really Me                                         EP: 11                                                        B33828 1065607BCD                              
PRCFAMCHA150701023150023211000021Family Bumper Flex (HD) Longboard (:19-:21) (Mar20                                                                          150                                
PGRFAMCHA150701023211025441002230Life With Derek                                   EP: 08                                                        C28491 1065607BCC                              
PRCFAMCHA150701025441025502000021Family Bumper Flex (HD) Trampoline (:15-:21) (Mar2                                                                          150                                
PGRFAMCHA150701025502031705002203Slugterra                                         EP: 09                                                        A33763 1065607ACC                              
PRCFAMCHA150701031705031729000024Family Bumper Flex (HD) Bike Trails (:20-:24) (Mar                                                                          150                                
PGRFAMCHA150701031729033931002202Slugterra                                         EP: 13                                                        A33763 1065607ACC                              
PRCFAMCHA150701033931033952000021Family Bumper Flex (HD) Break Dance (:18-:21) (Mar                                                                          150                                
PGRFAMCHA150701033952040253002301What's Up, Warthogs!                              EP: 04                                                        C32738 1065607BCC                              
PRCFAMCHA150701040253040314000021Family Bumper Flex (HD) Dog Park (:19-:21) (Mar201                                                                          150                                
PGRFAMCHA150701040314042544002230Life With Derek                                   EP: 01                                                        C28491 1065607BCC                              
PRCFAMCHA150701042544042619000035Cool Cool Summer Marathons (HD) Weekday Afternoons                                                                          150                                
PRCFAMCHA150701042619042719000100Descendants (HD) Meet Villian Kids - Premieres Fri                                                                          150                                
PRCFAMCHA150701042719042749000030Episodic Next Step (HD) Ep 3-13 (Generic) - Tomorr                                                                          150                                
PROFAMCHA150701042749042824000035BTS Concert 2015 (HD) Tour CD - Go to Family.ca fo                                                                          150                                
PROFAMCHA150701042824042839000015Episodic GMW (HD) 2-04 - New Episode Tonight @ 5:3                                                                          150                                
PRCFAMCHA150701042839042901000022Family Bumper Flex (HD) Fifteen Logos (:21-:22) (N                                                                          150                                
PROFAMCHA150701042901042931000030Hank Zipzer (HD) Character Sell - New Eps Begin Fr                                                                          150                                
PRCFAMCHA150701042931042959000028Stunt Summer Film Fest (HD) Cloud Nine - Tonight @                                                                          150                                
OFFFAMCHA150701042959043000000001OFF AIR                                                                                                                                                        
PGRFAMCHA150702043000045235002235The Latest Buzz                                   EP: 25                                                        C30362 1065607BCC                              
PRCFAMCHA150702045235045305000030Episodic Next Step (HD) Ep 3-13 (Generic) - Tomorr                                                                          150                                
PROFAMCHA150702045305045340000035BTS Concert 2015 (HD) Tour CD - Go to Family.ca fo                                                                          150                                
PRCFAMCHA150702045340045408000028Stunt Summer Film Fest (HD) Cloud Nine - Tonight @                                                                          150                                
PRCFAMCHA150702045408045508000100Descendants (HD) Meet Villian Kids - Premieres Fri                                                                          150                                
PRCFAMCHA150702045508045538000030Family.ca Disney Online Drive (HD) K.C. Undercover                                                                          150                                
PRCFAMCHA150702045538045602000024Family Bumper Flex (HD) Bike Trails (:20-:24) (Mar                                                                          150                                
PRCFAMCHA150702045602045616000014Descriptive Video Slate (HD) (Apr2013)                                                                                      150                                
PGRFAMCHA150702045616051847002231Really Me                                         EP: 05                                                        B33828 1065607BCD                              
PROFAMCHA150702051847051855000008D-JR Live Action ID - Stella & Sam - Coming Up (Ma                                                                          150                                
PROFAMCHA150702051855051920000025D-JR Live Action ID - #42 Brush Teeth (May2012)                                                                             150                                
PROFAMCHA150702051920051935000015D-JR Promo - Thomas & Friends - Get More on D-JR t                                                                          150                                
PROFAMCHA150702051935052017000042D-JR Promo - Bananas in Pajamas - Get more on the                                                                           150                                
PROFAMCHA150702052017052042000025D-JR Live Action ID - #20 Calendar (May2012)                                                                                150                                
PROFAMCHA150702052042052050000008D-JR Live Action ID - Stella & Sam - Now (Mar2013)                                                                          150                                
PROFAMCHA150702052050052100000010D-JR - Hero Flex ID - Blue (:06-:10) (Feb2014)                                                                              150                                
PRCFAMCHA150702052100052114000014Descriptive Video Slate (HD) (Apr2013)                                                                                      150                                
PGRFAMCHA150702052114054429002315Stella and Sam                                    EP: 13                                                        C32553 1065607ECD                              
PROFAMCHA150702054429054453000024D-JR Promo - Sarah & Duck - Get More on D-JR the C                                                                          150                                
PROFAMCHA150702054453054503000010D-JR - Hero Flex ID - Purple (:06-:10) (Feb2014)                                                                            150                                
PRCFAMCHA150702054503054517000014Descriptive Video Slate (HD) (Apr2013)                                                                                      150                                
PGRFAMCHA150702054517060747002230Justin Time                                       EP: 06                                                        C36486 1065607ECD                              
PROFAMCHA150702060747060755000008D-JR Live Action ID - Justin Time - Coming Up (Sep                                                                          150                                
PROFAMCHA150702060755060820000025D-JR Live Action ID - #51 Chores Board (Sep2013)                                                                            150                                
PROFAMCHA150702060820060909000049D-JR Promo - Strawberry Shortcake - Get More on th                                                                          150                                
PROFAMCHA150702060909060934000025D-JR Live Action ID - #63 Wash Face (Sep2013)                                                                               150                                
PROFAMCHA150702060934060942000008D-JR Live Action ID - Justin Time - Now (Sept2014)                                                                          150                                
PROFAMCHA150702060942060957000015D-JR - Daily ID - Thursday (Feb2014)                                                                                        150                                
PRCFAMCHA150702060957061011000014Descriptive Video Slate (HD) (Apr2013)                                                                                      150                                
PGRFAMCHA150702061011063240002229Justin Time                                       EP: 07                                                        C36486 1065607ECD                              
PRCFAMCHA150702063240063315000035Cool Cool Summer Marathons (HD) Weekday Afternoons                                                                          150                                
PROFAMCHA150702063315063330000015Episodic GMW (HD) 2-04 - New Episode Tonight @ 5:3                                                                          150                                
PROFAMCHA150702063330063347000017PAF (HD) Disney Refresh CD - Coming Up Next (April                                                                          150                                
PRCFAMCHA150702063347063417000030Teen Beach 2 "Sync It" (HD) Trailer CD - Premieres                                                                          150                                
PRCFAMCHA150702063417063438000021Family Bumper Flex (HD) Dog Park (:19-:21) (Mar201                                                                          150                                
PROFAMCHA150702063438063508000030Hank Zipzer (HD) Character Sell - New Eps Begin Fr                                                                          150                                
PGRFAMCHA150702063508065739002231Disney Phineas and Ferb                           EP: 09                                                               6068607ECC                              
PRCFAMCHA150702065739065809000030Episodic Next Step (HD) Ep 3-13 (Generic) - Tomorr                                                                          150                                
PROFAMCHA150702065809065826000017PAF (HD) Disney Refresh CD - Coming Up Next (April                                                                          150                                
PROFAMCHA150702065826065916000050Universal Pictures                                                                                                          150                                
PRCFAMCHA150702065916065934000018Family Bumper Flex (HD) Flex ID - Music ID (:14-:1                                                                          150                                
PROFAMCHA150702065934070009000035BTS Concert 2015 (HD) Tour CD - Go to Family.ca fo                                                                          150                                
PGRFAMCHA150702070009072240002231Disney Phineas and Ferb                           EP: 20                                                               6068607ECC                              
PROFAMCHA150702072240072310000030Hank Zipzer (HD) Character Sell - New Eps Begin Fr                                                                          150                                
PROFAMCHA150702072310072401000051Gravity Falls (HD) Refresh - Coming Up Next (Jun20                                                                          150                                
PGRFAMCHA150702072401072546000145Int Movie Junket (HD) Inside Out (Jun19-Jul19)                                                                         10615120CC                              
PROFAMCHA150702072546072621000035BTS Concert 2015 (HD) Tour CD - Go to Family.ca fo                                                                          150                                
PRCFAMCHA150702072621072651000030Teen Beach 2 "Sync It" (HD) Trailer CD - Premieres                                                                          150                                
PROFAMCHA150702072651072741000050Walt Disney Studios Home Entertainment                                                                                      150                                
PRCFAMCHA150702072741072802000021Family Bumper Flex (HD) Garage Band (:17-:21) (Nov                                                                          150                                
PROFAMCHA150702072802072842000040Kellogg's                                                                                                                   150                                
PRCFAMCHA150702072842072917000035Cool Cool Summer Marathons (HD) Weekday Afternoons                                                                          150                                
PROFAMCHA150702072917072932000015Episodic GMW (HD) 2-04 - New Episode Tonight @ 5:3                                                                          150                                
PRCFAMCHA150702072932072955000023Gravity Falls (HD) Comedy Sell - Coming Up Next (A                                                                          150                                
PGRFAMCHA150702072955075358002403Disney Gravity Falls                              EP: 20                                                               6068607ECC                              
PRCFAMCHA150702075358075426000028Stunt Summer Film Fest (HD) Cloud Nine - Tonight @                                                                          150                                
PROFAMCHA150702075426075456000030Win Lose or Draw (HD) Gen 1 - Coming Up Next (Apri                                                                          150                                
PROFAMCHA150702075456075611000115Int Gaming Show (HD) Interstitial #1-16 (Jun29-Jul                                                                          150CC                              
PROFAMCHA150702075611075646000035BTS Concert 2015 (HD) Tour CD - Go to Family.ca fo                                                                          150                                
PROFAMCHA150702075646075741000055Lego                                                                                                                        150                                
PRCFAMCHA150702075741075811000030Episodic Next Step (HD) Ep 3-13 (Generic) - Tomorr                                                                          150                                
PROFAMCHA150702075811075856000045Walt Disney Pictures                                                                                                        150                                
PRCFAMCHA150702075856075917000021Family Bumper Flex (HD) Trampoline (:15-:21) (Mar2                                                                          150                                
PRCFAMCHA150702075917075932000015Descendants (HD) Defining Descendants - Premieres                                                                           150                                
