SO FAMCHA090101043000043011000011Sign On (oct 1)                                                                                                                                                
PRCFAMCHA090101043011043020000009CC Disclaimer - FAST - Family.ca (:09-:10)                                                                                  150                                
PGRFAMCHA090101043020045656002636Katie And Orbie                                   EP: 2-026                                                     C11896A1065607ECC                              
PRCFAMCHA090101045656045702000006Astral ID (DEC 2007)                                                                                                        150                                
PRCFAMCHA090101045702045713000011FJR - 02 - FRANNY'S FEET / BENJAMIN BEAR (SEPT08)                                                                           150                                
PRCFAMCHA090101045713045728000015Family Jr. Bumper - Portal (:14- :17) (JUL08)                                                                               150                                
PRCFAMCHA090101045728045737000009CC Disclaimer - FAST - Generic (:09-:10)                                                                                    150                                
PGRFAMCHA090101045737052007002230Franny's Feet                                     EPS # 1-009                                                   C23970A1065607ECC                              
PRCFAMCHA090101052007052020000013FJR - 03 - BENJAMIN BEAR / HOZE HOUNDZ (SEPT08)                                                                             150                                
PRCFAMCHA090101052020052032000012Family Jr. Bumper - Music (:11- :14) (JUL08)                                                                                150                                
PRCFAMCHA090101052032052041000009CC Disclaimer - FAST - Family.ca (:09-:10)                                                                                  150                                
PGRFAMCHA090101052041054316002235The Secret World Of Benjamin Bear                 EPS # 1-013                                                   B75158 1065607ECC                              
PRCFAMCHA090101054316054322000006Astral ID (DEC 2007)                                                                                                        150                                
PRCFAMCHA090101054322054333000011FJR - 04 - HOZE HOUNDZ / HENRY'S WORLD (SEPT08)                                                                             150                                
PRCFAMCHA090101054333054345000012Family Jr. Bumper - Collide (:11- :14) (JUL08)                                                                              150                                
PRCFAMCHA090101054345054354000009CC Disclaimer - FAST - Generic (:09-:10)                                                                                    150                                
PGRFAMCHA090101054354060632002238Hoze Houndz                                       EPS # 6-078                                                   C22818A1065607ECC                              
PRCFAMCHA090101060632060645000013FJR - 05 - HENRY'S WORLD / KING (SEPT08)                                                                                    150                                
PRCFAMCHA090101060645060656000011Family Jr. Bumper - Acrobat (:10- :13) (JUL08)                                                                              150                                
PRCFAMCHA090101060656060705000009CC Disclaimer - FAST - Family.ca (:09-:10)                                                                                  150                                
PGRFAMCHA090101060705063106002401Henry's World                                     EP: 2-019                                                     B81050A1065607GCC                              
PRCFAMCHA090101063106063112000006Astral ID (DEC 2007)                                                                                                        150                                
PRCFAMCHA090101063112063123000011FJR - 06 - KING (SEPT08)                                                                                                    150                                
PRCFAMCHA090101063123063138000015Family Jr. Bumper - Portal (:14- :17) (JUL08)                                                                               150                                
PRCFAMCHA090101063138063147000009CC Disclaimer - FAST - Generic (:09-:10)                                                                                    150                                
PGRFAMCHA090101063147065417002230King                                              EPS # 027                                                     C25350 1065607ECC                              
PRCFAMCHA090101065417065429000012MMM - 01 - RECESS/PHINEAS (:11 - :13) (OCT08)                                                                               150                                
PRCFAMCHA090101065429065516000047Yeti Another Holiday Event Spot - 4 X Day                                                                                   150                                
PROFAMCHA090101065516065541000025Recess - CAREER DAY (MMM) - (JULY06) - Coming Up N                                                                          150                                
PROFAMCHA090101065541065600000019MadMadMornings Block Open                                                                                                   150                                
PRCFAMCHA090101065600065610000010CC Disclaimer - FAST - Generic (:09-:10)                                                                                    150                                
PGRFAMCHA090101065610071845002235Disney's Recess                                   EP: 1-041                                                            6068607ECC                              
PRCFAMCHA090101071845071851000006Astral ID (DEC 2007)                                                                                                        150                                
PRCFAMCHA090101071851071904000013MMM - 02 - PHINEAS/WEEKENDERS (:11 - :13) (OCT08)                                                                           150                                
PRCFAMCHA090101071904071939000035Family First Overall Promo - 3/4 Per Day (Sept.6 -                                                                          150                                
PROFAMCHA090101071939072009000030Weekenders - TISH (MMM) This Morning @ 7:50am (NOV                                                                          150                                
PRCFAMCHA090101072009072043000034XMAS/NEW YEAR Bumpers - NYE Resolutions #1 (Dec 26                                                                          150                                
PROFAMCHA090101072043072058000015Kim Possible RON POSSIBLE (MMM) This Morning @ 8:2                                                                          150                                
PGRFAMCHA090101072058072228000130Disney 365 - Handy Manny - Family JR Only (Jan 1-2                                                                    A60288120                                
PROFAMCHA090101072228072246000018Phineas & Ferb (MMM) Phineas Tease - Coming Up Nex                                                                          150                                
PRCFAMCHA090101072246072330000044Game Off - Version 2 - 3 X Day (Dec 26 - Jan 30)                                                                            150                                
PROFAMCHA090101072330072349000019MadMadMornings Block Open                                                                                                   150                                
PRCFAMCHA090101072349072359000010CC Disclaimer - FAST - Family.ca (:09-:10)                                                                                  150                                
PGRFAMCHA090101072359074629002230Phineas & Ferb                                    EP: 17                                                               6068607ECC                              
PRCFAMCHA090101074629074642000013MMM - 03 - WEEKENDERS/KIM POSSIBLE (:11 - :13) (OC                                                                          150                                
PRCFAMCHA090101074642074722000040Really Big Birthdays - March - 3-4 X Day (Dec 26 -                                                                          150                                
PROFAMCHA090101074722074733000011Kim Possible BAD GUYS (MMM) Today @ 8:20am (OCT08)                                                                          150                                
PROFAMCHA090101074733074828000055Hotel For Dogs ME Contest - In Theatres Jan 16 (De                                                                          150                                
PROFAMCHA090101074828074835000007Family Bumpers - (Phase 2 F/W 04) - Snow Twirl (MD                                                                          150                                
PROFAMCHA090101074835074902000027Weekenders - CARVER (MMM) Coming Up Next (NOV08)                                                                            150                                
PROFAMCHA090101074902074942000040Disney Wish List - HSM GAME (Dec 31- Jan 5) $$$                                                                             150                                
PRCFAMCHA090101074942075030000048Family Video Player Promo - No Tag 3/day (not in P                                                                          150                                
PROFAMCHA090101075030075049000019MadMadMornings Block Open                                                                                                   150                                
PRCFAMCHA090101075049075059000010CC Disclaimer - FAST - Family.ca (:09-:10)                                                                                  150                                
PGRFAMCHA090101075059081352002253Disney's The Weekenders                           EP: 1-005                                                           A6068607ECC                              
PRCFAMCHA090101081352081358000006Astral ID (DEC 2007)                                                                                                        150                                
PRCFAMCHA090101081358081410000012MMM - 04 - KIM POSSIBLE (:11 - :13) (OCT08)                                                                                 150                                
PRCFAMCHA090101081410081457000047Yeti Another Holiday Contest - Version 2 - 4 X Day                                                                          150                                
PRCFAMCHA090101081457081547000050Latest Buzz - REPORTER QUIZ (NS) New Episodes Tomo                                                                          150                                
PRCFAMCHA090101081547081628000041XMAS/NEW YEAR Bumpers - How Do You Celebrate The H                                                                          150                                
PROFAMCHA090101081628081643000015Kim Possible RON POSSIBLE (MMM) Coming Up Next (OC                                                                          150                                
PRCFAMCHA090101081643081733000050Family Online Community Promo - 3/4 Day (not in PH                                                                          150                                
PROFAMCHA090101081733081752000019MadMadMornings Block Open                                                                                                   150                                
PRCFAMCHA090101081752081801000009CC Disclaimer - FAST - Generic (:09-:10)                                                                                    150                                
PGRFAMCHA090101081801084052002251Disney's Kim Possible                             EP: 1-002                                                           A6068607ECC                              
PRCFAMCHA090101084052084102000010FJR - 07 - LITTLE EINSTEINS/FRANNY'S FEET (:09 - :                                                                          150                                
PROFAMCHA090101084102084153000051PH-D Promo - Darby's Super Sleuthin Wknd - Starts                                                                           150                                
PRCFAMCHA090101084153084228000035Franny's Feet (FJR) GENERIC - This Morning @ 9:10                                                                           150                                
PROFAMCHA090101084228084313000045Tigger and Pooh (FJR) POOH SELL - This Morning @ 9                                                                          150                                
PROFAMCHA090101084313084343000030Little Einsteins (FJR) PROMO #1 - Coming Up Next (                                                                          150                                
PROFAMCHA090101084343084434000051PH-D Promo - Superbunny To The Rescue Week - Start                                                                          150                                
ID FAMCHA090101084434084451000017Family Jr. Block Open (:14-:17) (JUL08)                                                                                     150                                
PRCFAMCHA090101084451084500000009CC Disclaimer - FAST - Family.ca (:09-:10)                                                                                  150                                
PGRFAMCHA090101084500090905002405Disney's Little Einsteins                         EP: 01                                                               6068607ECC                              
PRCFAMCHA090101090905090911000006Astral ID (DEC 2007)                                                                                                        150                                
PRCFAMCHA090101090911090921000010FJR - 08 - FRANNY'S FEET/TIGGER & POOH (:09 - :12)                                                                          150                                
PROFAMCHA090101090921090951000030Tigger and Pooh (FJR) DARBY SELL - This Morning @                                                                           150                                
PROFAMCHA090101090951091007000016Mickey Mouse Clubhouse (FJR) GENERIC - This Mornin                                                                          150                                
PRCFAMCHA090101091007091042000035Franny's Feet (FJR) GENERIC - Coming Up Next (JUL0                                                                          150                                
PRCFAMCHA090101091042091052000010Family Jr. Bumper - Acrobat (:10- :13) (JUL08)                                                                              150                                
PRCFAMCHA090101091052091101000009CC Disclaimer - FAST - Generic (:09-:10)                                                                                    150                                
PGRFAMCHA090101091101093331002230Franny's Feet                                     EPS # 19                                                      C23971 1065607ECC                              
PRCFAMCHA090101093331093343000012FJR - 09 - TIGGER & POOH/MICKEY MOUSE CLUBHOUSE (:                                                                          150                                
PROFAMCHA090101093343093434000051PH-D Promo - Darby's Super Sleuthin Wknd - Starts                                                                           150                                
PROFAMCHA090101093434093505000031Mickey Mouse Clubhouse (FJR) GENERIC - This Mornin                                                                          150                                
PROFAMCHA090101093505093535000030Winnie The Pooh On Stage (Dec 15 - Jan 4) $$$                                                                               150                                
PROFAMCHA090101093535093635000100Tigger and Pooh (FJR) SUPER SLEUTH - Coming Up Nex                                                                          150                                
PRCFAMCHA090101093635093649000014Family Jr. Bumper - Collide (:11- :14) (JUL08)                                                                              150                                
PRCFAMCHA090101093649093659000010CC Disclaimer - FAST - Family.ca (:09-:10)                                                                                  150                                
PGRFAMCHA090101093659100059002400Disney My Friends Tigger and Pooh                 EP: 15                                                               6068607ECC                              
PRCFAMCHA090101100059100105000006Astral ID (DEC 2007)                                                                                                        150                                
PRCFAMCHA090101100105100118000013FJR - 10 - MMCH / IMAGINATION MOVERS (SEPT08)                                                                               150                                
PROFAMCHA090101100118100209000051PH-D Promo - Superbunny To The Rescue Week - Start                                                                          150                                
PGRFAMCHA090101100209100309000100MV Disney - (MD/NS/NSW) - Jesse McCartney - Just S                                                                     60688120                                
PROFAMCHA090101100309100325000016Mickey Mouse Clubhouse (FJR) GENERIC - Coming Up N                                                                          150                                
PRCFAMCHA090101100325100339000014Family Jr. Bumper - Music (:11- :14) (JUL08)                                                                                150                                
ID FAMCHA090101100339100348000009Magic of Disney - PLAYHOUSE - Shape (:06-:09)                                                                               150                                
PRCFAMCHA090101100348100358000010CC Disclaimer - FAST - Generic (:09-:10)                                                                                    150                                
PGRFAMCHA090101100358102802002404Disney's Mickey Mouse Clubhouse                   EP: 05                                                               6068607ECC                              
PRCFAMCHA090101102802102815000013FJR - 11 - IMAGINATION MOVERS / BENJAMIN BEAR (SEP                                                                          150                                
PROFAMCHA090101102815102906000051PH-D Promo - Darby's Super Sleuthin Wknd - Starts                                                                           150                                
PRCFAMCHA090101102906102936000030Benjamin Bear (FJR) GENERIC - This Morning @ 10:55                                                                          150                                
PRCFAMCHA090101102936103006000030King (FJR) GENERIC - This Morning @ 11:25 (JUL08)                                                                           150                                
PROFAMCHA090101103006103036000030Imagination Movers (FJR) Coming Up Next (SEPT08)                                                                            150                                
PRCFAMCHA090101103036103051000015Family Jr. Bumper - Portal (:14- :17) (JUL08)                                                                               150                                
PRCFAMCHA090101103051103100000009CC Disclaimer - FAST - Family.ca (:09-:10)                                                                                  150                                
PGRFAMCHA090101103100105501002401Disney Imagination Movers                         EP: 10                                                               6068607ACC                              
PRCFAMCHA090101105501105507000006Astral ID (DEC 2007)                                                                                                        150                                
PRCFAMCHA090101105507105518000011FJR - 12 - BENJAMIN BEAR/KING (:10 - :13) (JULY08)                                                                          150                                
PRCFAMCHA090101105518105548000030King (FJR) GENERIC - This Morning @ 11:25 (JUL08)                                                                           150                                
PROFAMCHA090101105548105618000030Winnie The Pooh On Stage (Dec 15 - Jan 4) $$$                                                                               150                                
PRCFAMCHA090101105618105648000030Benjamin Bear (FJR) GENERIC - Coming Up Next (JUL0                                                                          150                                
PRCFAMCHA090101105648105659000011Family Jr. Bumper - Acrobat (:10- :13) (JUL08)                                                                              150                                
PRCFAMCHA090101105659105708000009CC Disclaimer - FAST - Generic (:09-:10)                                                                                    150                                
PGRFAMCHA090101105708111944002236The Secret World Of Benjamin Bear                 EPS # 1-003                                                   B75148 1065607ECC                              
PROFAMCHA090101111944112035000051PH-D Promo - Darby's Super Sleuthin Wknd - Starts                                                                           150                                
PROFAMCHA090101112035112051000016Mickey Mouse Clubhouse (FJR) GENERIC - Tomorrow Mo                                                                          150                                
PGRFAMCHA090101112051112406000315Cars Toons # 3 ( El Mater Dor)                                                                                        A60288120                                
PRCFAMCHA090101112406112436000030King (FJR) GENERIC - Coming Up Next (JUL08)                                                                                 150                                
PRCFAMCHA090101112436112450000014Family Jr. Bumper - Collide (:11- :14) (JUL08)                                                                              150                                
PRCFAMCHA090101112450112500000010CC Disclaimer - FAST - Family.ca (:09-:10)                                                                                  150                                
PGRFAMCHA090101112500114731002231King                                              EPS # 2-016                                                   B75771 1065607ECC                              
PRCFAMCHA090101114731114737000006Astral ID (DEC 2007)                                                                                                        150                                
PROFAMCHA090101114737114822000045Suite Life on Deck TWINS (NSW) Coming Up Next (OCT                                                                          150                                
PRCFAMCHA090101114822114834000012Yeti Watch & Win Billboard - ICE - 4x Marthon/B &                                                                           150                                
PROFAMCHA090101114834114852000018Nonstop Block Open (:16-:18) APR06                                                                                          150                                
PRCFAMCHA090101114852114902000010CC Disclaimer - FAST - Generic (:09-:10)                                                                                    150                                
PGRFAMCHA090101114902121148002246Suite Life on Deck, The                           EP: 01                                                               6068807BCC                              
PRCFAMCHA090101121148121232000044Game Off - Version 2 - 3 X Day (Dec 26 - Jan 30)                                                                            150                                
PROFAMCHA090101121232121303000031Suite Life on Deck LIFE AT SEA (NSW) Coming Up Nex                                                                          150                                
PRCFAMCHA090101121303121351000048Family Video Player Promo - No Tag 3/day (not in P                                                                          150                                
PRCFAMCHA090101121351121400000009NS Bumper - Dodgeball (:07-:09) APR06                                                                                       150                                
PRCFAMCHA090101121400121410000010CC Disclaimer - FAST - Generic (:09-:10)                                                                                    150                                
PGRFAMCHA090101121410123626002216Suite Life on Deck, The                           EP: 07                                                               6068807BCC                              
PRCFAMCHA090101123626123632000006Astral ID (DEC 2007)                                                                                                        150                                
PRCFAMCHA090101123632123707000035Family First Overall Promo - 3/4 Per Day (Sept.6 -                                                                          150                                
PRCFAMCHA090101123707123742000035XMAS/NEW YEAR Bumpers - NYE Resolutions #3 (Dec 26                                                                          150                                
PROFAMCHA090101123742123810000028Camp Rock - Whats What - Prems Tomorrow @ 3:30pm                                                                            150                                
PROFAMCHA090101123810123840000030Suite Life on Deck ROOMMATES (NSW) Coming Up Next                                                                           150                                
PRCFAMCHA090101123840123852000012Yeti Watch & Win Billboard - ICE - 4x Marthon/B &                                                                           150                                
PRCFAMCHA090101123852123905000013NS Bumper - Fashion (:12-:14) APR06                                                                                         150                                
PRCFAMCHA090101123905123914000009CC Disclaimer - FAST - Generic (:09-:10)                                                                                    150                                
PGRFAMCHA090101123914130145002231Suite Life on Deck, The                           EP: 06                                                               6068807BCC                              
PRCFAMCHA090101130145130232000047Yeti Another Holiday Contest - Version 2 - 4 X Day                                                                          150                                
PRCFAMCHA090101130232130311000039XMAS/NEW YEAR Bumpers - Worst Gift Received (Dec 1                                                                          150                                
PROFAMCHA090101130311130327000016Suite Life on Deck (NSW) Coming Up Next (SEPT08)                                                                            150                                
PRCFAMCHA090101130327130344000017Family First Generic Throw - Promo SHORT VERSION -                                                                          150                                
PRCFAMCHA090101130344130401000017NS Bumper - Tennis (:15-:17) APR06                                                                                          150                                
PRCFAMCHA090101130401130410000009CC Disclaimer - FAST - Generic (:09-:10)                                                                                    150                                
PGRFAMCHA090101130410132641002231Suite Life on Deck, The                           EP: 04                                                               6068807BCC                              
PRCFAMCHA090101132641132647000006Astral ID (DEC 2007)                                                                                                        150                                
PRCFAMCHA090101132647132727000040Really Big Birthdays - March - 3-4 X Day (Dec 26 -                                                                          150                                
PRCFAMCHA090101132727132817000050Latest Buzz - REPORTER QUIZ (NS) New Episodes Tomo                                                                          150                                
PRCFAMCHA090101132817132853000036XMAS/NEW YEAR Bumpers - Best Gift Received #1 (Dec                                                                          150                                
PROFAMCHA090101132853132938000045Suite Life on Deck TWINS (NSW) Coming Up Next (OCT                                                                          150                                
PRCFAMCHA090101132938132950000012Yeti Watch & Win Billboard - ICE - 4x Marthon/B &                                                                           150                                
PRCFAMCHA090101132950132958000008NS Bumper - Dodgeball (:07-:09) APR06                                                                                       150                                
PRCFAMCHA090101132958133007000009CC Disclaimer - FAST - Generic (:09-:10)                                                                                    150                                
PGRFAMCHA090101133007135238002231Suite Life on Deck, The                           EP: 08                                                               6068807BCC                              
PRCFAMCHA090101135238135322000044Game Off - Version 2 - 3 X Day (Dec 26 - Jan 30)                                                                            150                                
PROFAMCHA090101135322135354000032Latest Buzz - HEADLINES (NS) NEW EPS Tomorrow Nigh                                                                          150                                
PRCFAMCHA090101135354135428000034XMAS/NEW YEAR Bumpers - NYE Resolutions #1 (Dec 26                                                                          150                                
PROFAMCHA090101135428135436000008Family Bumpers - (Phase 2 F/W 04) - Snow Ball (MD-                                                                          150                                
PROFAMCHA090101135436135446000010FAMJAM - Open/Close                                                                                                         150                                
PGRFAMCHA090101135446135856000410MV Disney - (MD/NS/NSW) - Jesse McCartney - Just S                                                                     60688120                                
PROFAMCHA090101135856135910000014xxFAMJAM - Close (FAMILY) xxDNUxx                                                                                           150                                
PROFAMCHA090101135910135941000031Suite Life on Deck LIFE AT SEA (NSW) Coming Up Nex                                                                          150                                
PRCFAMCHA090101135941135955000014NS Bumper - Fashion (:12-:14) APR06                                                                                         150                                
PRCFAMCHA090101135955140004000009CC Disclaimer - FAST - Generic (:09-:10)                                                                                    150                                
PGRFAMCHA090101140004142235002231Suite Life on Deck, The                           EP: 09                                                               6068807BCC                              
PRCFAMCHA090101142235142241000006Astral ID (DEC 2007)                                                                                                        150                                
PROFAMCHA090101142241142309000028Camp Rock - Whats What - Prems Tomorrow @ 3:30pm                                                                            150                                
PROFAMCHA090101142309142349000040Beethoven's Big Break DVD - Available Now (Dec 30                                                                           150                                
PRCFAMCHA090101142349142419000030Latest Buzz - LOCO LOCO (NS) New Episodes Tomorrow                                                                          150                                
PRCFAMCHA090101142419142458000039XMAS/NEW YEAR Bumpers - Worst Gift Received (Dec 1                                                                          150                                
PROFAMCHA090101142458142505000007Family Bumpers - (Phase 2 F/W 04) - Snow Twirl (MD                                                                          150                                
PROFAMCHA090101142505142515000010FAMJAM - Open/Close                                                                                                         150                                
PGRFAMCHA090101142515142850000335MV Disney - (MD/NS/NSW) - Jesse McCartney - Just S                                                                     60688120                                
PROFAMCHA090101142850142904000014xxFAMJAM - Close (FAMILY) xxDNUxx                                                                                           150                                
PROFAMCHA090101142904142932000028Suite Life on Deck PREMISE (NSW) Coming Up Next (O                                                                          150                                
PRCFAMCHA090101142932142944000012Yeti Watch & Win Billboard - ICE - 4x Marthon/B &                                                                           150                                
PRCFAMCHA090101142944143001000017NS Bumper - Tennis (:15-:17) APR06                                                                                          150                                
PRCFAMCHA090101143001143010000009CC Disclaimer - FAST - Generic (:09-:10)                                                                                    150                                
PGRFAMCHA090101143010145241002231Suite Life on Deck, The                           EP: 10                                                               6068807BCC                              
PRCFAMCHA090101145241145321000040Really Big Birthdays - March - 3-4 X Day (Dec 26 -                                                                          150                                
PROFAMCHA090101145321145349000028Camp Rock - Whats What - Prems Tomorrow @ 3:30pm                                                                            150                                
PROFAMCHA090101145349145429000040Disney Wish List - HSM GAME (Dec 31- Jan 5) $$$                                                                             150                                
PRCFAMCHA090101145429145519000050Latest Buzz - REPORTER QUIZ (NS) New Episodes Tomo                                                                          150                                
PRCFAMCHA090101145519145558000039XMAS/NEW YEAR Bumpers - NYE Resolutions #2 (Dec 26                                                                          150                                
PROFAMCHA090101145558145610000012Family Bumpers - (Phase 3 Spring 05) - Bake (MD/NS                                                                          150                                
PGRFAMCHA090101145610145755000145Cheetah Girls Spot The Moves - Cheetah Love (Jan 1                                                                    A60288120                                
PROFAMCHA090101145755145811000016Suite Life on Deck (NSW) Coming Up Next (SEPT08)                                                                            150                                
PROFAMCHA090101145811145906000055Hotel For Dogs ME Contest - In Theatres Jan 16 (De                                                                          150                                
PRCFAMCHA090101145906145953000047Yeti Another Holiday Event Spot - 4 X Day                                                                                   150                                
PRCFAMCHA090101145953150002000009NS Bumper - Dodgeball (:07-:09) APR06                                                                                       150                                
PRCFAMCHA090101150002150011000009CC Disclaimer - FAST - Generic (:09-:10)                                                                                    150                                
PGRFAMCHA090101150011152242002231Suite Life on Deck, The                           EP: 11                                                               6068807BCC                              
PRCFAMCHA090101152242152248000006Astral ID (DEC 2007)                                                                                                        150                                
PRCFAMCHA090101152248152332000044Game Off - Version 2 - 3 X Day (Dec 26 - Jan 30)                                                                            150                                
PROFAMCHA090101152332152400000028Camp Rock - Whats What - Prems Tomorrow @ 3:30pm                                                                            150                                
PRCFAMCHA090101152400152440000040XMAS/NEW YEAR Bumpers - Best Gift Received #3 (Dec                                                                          150                                
PROFAMCHA090101152440152452000012Family Bumpers - (Phase 1 Spring 04) - Pillow Figh                                                                          150                                
PROFAMCHA090101152452152502000010FAMJAM - Open/Close                                                                                                         150                                
PGRFAMCHA090101152502152759000257MV - Shiloh - Operator - FULL (NOV08)                                                                                  20688120                                
PROFAMCHA090101152759152813000014xxFAMJAM - Close (FAMILY) xxDNUxx                                                                                           150                                
PROFAMCHA090101152813152844000031Jump In - Coming Up Next                                                                                                    150                                
PROFAMCHA090101152844152924000040Beethoven's Big Break DVD - Available Now (Dec 30                                                                           150                                
PRCFAMCHA090101152924152936000012Yeti Watch & Win Billboard - ICE - 4x Marthon/B &                                                                           150                                
PRCFAMCHA090101152936152948000012NS Bumper - Fashion (:12-:14) APR06                                                                                         150                                
ID FAMCHA090101152948152958000010Ratings - G - Popcorn Pix Only (July 07)                                                                                    150                                
PRCFAMCHA090101152958153007000009CC Disclaimer - FAST - Family.ca (:09-:10)                                                                                  150                                
ID FAMCHA090101153007153015000008Magic of Disney - PIX - Wipe (:06-:09)                                                                                      150                                
PGRFAMCHA090101153015165437012422Jump In! (What's What Version)                                                                                        A6068807CCC                              
PRCFAMCHA090101165437165443000006Astral ID (DEC 2007)                                                                                                        150                                
PRCFAMCHA090101165443165455000012Yeti Watch & Win Billboard - ICE - 4x Marthon/B &                                                                           150                                
PROFAMCHA090101165455165558000103Hannah Montana - MOCKUMENTARY (MD) This Afternoon                                                                           150                                
PRCFAMCHA090101165558165630000032XMAS/NEW YEAR Bumpers - Best Gift Received #2 (Dec                                                                          150                                
PROFAMCHA090101165630165638000008Family Bumpers - (Phase 2 F/W 04) - Snow Ball (MD-                                                                          150                                
PROFAMCHA090101165638165648000010FAMJAM - Open/Close                                                                                                         150                                
PGRFAMCHA090101165648170058000410MV Disney - (MD/NS/NSW) - Jesse McCartney - Just S                                                                     60688120                                
PROFAMCHA090101170058170112000014xxFAMJAM - Close (FAMILY) xxDNUxx                                                                                           150                                
PROFAMCHA090101170112170209000057Suite Life of Z & C (MD) FAB LIFESTYLES - Coming U                                                                          150                                
PROFAMCHA090101170209170249000040Paul Blart - Mall Cop Blast - In Theatres Jan 16 (                                                                          150                                
PRCFAMCHA090101170249170339000050Family Online Community Promo - 3/4 Day (not in PH                                                                          150                                
PROFAMCHA090101170339170355000016Mad Dash Block Open (:16-:18) APR06                                                                                         150                                
ID FAMCHA090101170355170403000008Magic of Disney - MAD DASH - Shape (:06-:09)                                                                                150                                
PRCFAMCHA090101170403170412000009CC Disclaimer - FAST - Family.ca (:09-:10)                                                                                  150                                
PGRFAMCHA090101170412172716002304Suite Life of Zack & Cody, The                    EP: 24                                                               6068607BCC                              
PRCFAMCHA090101172716172727000011MD - 14 - HANNAH/ZOEY (:11 - :13) (JULY08)                                                                                  150                                
PROFAMCHA090101172727172807000040Zoey 101 (NS) SAFETY CUPCAKE - Tonight @ 6pm (MAR0                                                                          150                                
PROFAMCHA090101172807172847000040Disney Wish List - HSM GAME (Dec 31- Jan 5) $$$                                                                             150                                
PRCFAMCHA090101172847172930000043Life W Derek (NS) Trailer Generic - Tonight @ 6:30                                                                          150                                
PRCFAMCHA090101172930173006000036XMAS/NEW YEAR Bumpers - NYE Resolutions #4 (Dec 26                                                                          150                                
PROFAMCHA090101173006173047000041Hannah Montana - EVERYWHERE (MD) Coming Up Next (O                                                                          150                                
PRCFAMCHA090101173047173134000047Yeti Another Holiday Event Spot - 4 X Day                                                                                   150                                
PRCFAMCHA090101173134173149000015MD Bumper - Shopping Race (:15-:17) APR06                                                                                   150                                
ID FAMCHA090101173149173155000006Magic of Disney - MAD DASH - Shape (:06-:09)                                                                                150                                
PRCFAMCHA090101173155173204000009CC Disclaimer - FAST - Generic (:09-:10)                                                                                    150                                
PGRFAMCHA090101173204175435002231Hannah Montana - Season 2                         EP: 26                                                               6068807BCC                              
PRCFAMCHA090101175435175441000006Astral ID (DEC 2007)                                                                                                        150                                
PRCFAMCHA090101175441175452000011NS - 01 - ZOEY 101/DEREK (:11 - :13) (MARCH08)                                                                              150                                
PRCFAMCHA090101175452175544000052Life With Derek (NS) Casey & Derek - Tonight @ 6:3                                                                          150                                
PROFAMCHA090101175544175624000040Paul Blart - Mall Cop Blast - In Theatres Jan 16 (                                                                          150                                
PROFAMCHA090101175624175652000028Camp Rock - Whats What - Prems Tomorrow @ 3:30pm                                                                            150                                
PRCFAMCHA090101175652175733000041XMAS/NEW YEAR Bumpers - How Do You Celebrate The H                                                                          150                                
PROFAMCHA090101175733175803000030Zoey 101 (NS) ANOTHER DAY AT PCA - Coming Up Next                                                                           150                                
PROFAMCHA090101175803175858000055Hotel For Dogs ME Contest - In Theatres Jan 16 (De                                                                          150                                
PRCFAMCHA090101175858175938000040Really Big Birthdays - March - 3-4 X Day (Dec 26 -                                                                          150                                
PROFAMCHA090101175938175956000018Nonstop Block Open (:16-:18) APR06                                                                                          150                                
PRCFAMCHA090101175956180005000009CC Disclaimer - FAST - Family.ca (:09-:10)                                                                                  150                                
PGRFAMCHA090101180005182332002327Zoey 101                                          EP: 41                                                               2068807BCC                              
PRCFAMCHA090101182332182345000013NS - 02 - DEREK/WIZARDS (:11 - :13) (OCT08)                                                                                 150                                
PRCFAMCHA090101182345182429000044Game Off - Version 2 - 3 X Day (Dec 26 - Jan 30)                                                                            150                                
PROFAMCHA090101182429182459000030Wizards of Waverrly Place JUSTIN (NS) - Tonight @                                                                           150                                
PRCFAMCHA090101182459182533000034XMAS/NEW YEAR Bumpers - NYE Resolutions #1 (Dec 26                                                                          150                                
PROFAMCHA090101182533182545000012Family Bumpers - (Phase 3 Spring 05) - Bake (MD/NS                                                                          150                                
PGRFAMCHA090101182545182730000145Cheetah Girls Spot The Moves - Dance Me If You Can                                                                    A60288120                                
PRCFAMCHA090101182730182808000038Life W D (NS) Edwin Mystery Man - Coming Up Next (                                                                          150                                
PROFAMCHA090101182808182853000045Walmart/Family Favourites Holiday CD (Nov 18 - Jan                                                                          150                                
PRCFAMCHA090101182853182943000050Family Online Community Promo - 3/4 Day (not in PH                                                                          150                                
PRCFAMCHA090101182943183000000017NS Bumper - Tennis (:15-:17) APR06                                                                                          150                                
PRCFAMCHA090101183000183010000010CC Disclaimer - FAST - Generic (:09-:10)                                                                                    150                                
PGRFAMCHA090101183010185240002230Life with Derek                                   EP: 15                                                        C26822 1055607BCC3                             
PRCFAMCHA090101185240185246000006Astral ID (DEC 2007)                                                                                                        150                                
PRCFAMCHA090101185246185258000012NS - 03 - WIZARDS/RAVEN (:11 - :13) (OCT08)                                                                                 150                                
PROFAMCHA090101185258185325000027That's So Raven CLIP (NS) Tonight @ 7:30pm (SEPT08                                                                          150                                
PROFAMCHA090101185325185405000040Beethoven's Big Break DVD - Available Now (Dec 30                                                                           150                                
PROFAMCHA090101185405185437000032Suite Life of Z & C (NS) IMPRESS - Tonight @ 8pm (                                                                          150                                
PRCFAMCHA090101185437185516000039XMAS/NEW YEAR Bumpers - NYE Resolutions #2 (Dec 26                                                                          150                                
PRCFAMCHA090101185516185545000029Naturally Sadie - CLIP (NS) Tonight @ 8:30pm (MARC                                                                          150                                
PGRFAMCHA090101185545185755000210Suite Life on Deck - Blooper 2 - Weekend Afternoon                                                                    A60688120                                
PROFAMCHA090101185755185825000030Wizards of Waverrly Place SIBLING (NS) - Coming up                                                                          150                                
PROFAMCHA090101185825185910000045Walmart/Family Favourites Holiday CD (Nov 18 - Jan                                                                          150                                
PRCFAMCHA090101185910185957000047Yeti Another Holiday Contest - Version 2 - 4 X Day                                                                          150                                
PRCFAMCHA090101185957190005000008NS Bumper - Dodgeball (:07-:09) APR06                                                                                       150                                
PRCFAMCHA090101190005190014000009CC Disclaimer - FAST - Family.ca (:09-:10)                                                                                  150                                
PGRFAMCHA090101190014192247002233Disney Wizards of Waverly Place                   EP: 02                                                               6068607BCC                              
PRCFAMCHA090101192247192258000011NS - 04 - RAVEN/SUITE LIFE (:11 - :13) (OCT08)                                                                              150                                
PRCFAMCHA090101192258192338000040Really Big Birthdays - March - 3-4 X Day (Dec 26 -                                                                          150                                
PROFAMCHA090101192338192406000028Camp Rock - Whats What - Prems Tomorrow @ 3:30pm                                                                            150                                
PROFAMCHA090101192406192446000040Paul Blart - Mall Cop Blast - In Theatres Jan 16 (                                                                          150                                
PRCFAMCHA090101192446192526000040Naturally Sadie - ROMANTIC (NS) Tonight @ 8:30pm (                                                                          150                                
PRCFAMCHA090101192526192601000035XMAS/NEW YEAR Bumpers - NYE Resolutions #3 (Dec 26                                                                          150                                
PRCFAMCHA090101192601192651000050Latest Buzz - REPORTER QUIZ (NS) New Episodes Tomo                                                                          150                                
PGRFAMCHA090101192651192821000130Cheetah Girls Spot The Moves - One World (Jan 1 -                                                                     A60288120                                
PROFAMCHA090101192821192915000054That's So Raven FORTUNE TELLER (NS) Coming Up Next                                                                          150                                
PRCFAMCHA090101192915192932000017Family First Generic Throw - Promo SHORT VERSION -                                                                          150                                
PRCFAMCHA090101192932192944000012NS Bumper - Fashion (:12-:14) APR06                                                                                         150                                
ID FAMCHA090101192944192952000008Magic of Disney - NS/NSW/PB - Wipe (:06-:09)                                                                                150                                
PRCFAMCHA090101192952193001000009CC Disclaimer - FAST - Generic (:09-:10)                                                                                    150                                
PGRFAMCHA090101193001195239002238That's So Raven                                   EP: 064                                                              6068607BCC                              
PRCFAMCHA090101195239195245000006Astral ID (DEC 2007)                                                                                                        150                                
PRCFAMCHA090101195245195257000012NS - 05 - SUITE LIFE 8:00/SADIE 8:30 (:11 - :13) (                                                                          150                                
PRCFAMCHA090101195257195341000044Game Off - Version 2 - 3 X Day (Dec 26 - Jan 30)                                                                            150                                
PRCFAMCHA090101195341195410000029Naturally Sadie - CLIP (NS) Tonight @ 8:30pm (MARC                                                                          150                                
PROFAMCHA090101195410195505000055Hotel For Dogs ME Contest - In Theatres Jan 16 (De                                                                          150                                
PROFAMCHA090101195505195546000041Hannah Montana - EVERYWHERE (NS) Tonight @ 9pm (OC                                                                          150                                
PRCFAMCHA090101195546195622000036XMAS/NEW YEAR Bumpers - NYE Resolutions #4 (Dec 26                                                                          150                                
PROFAMCHA090101195622195654000032Latest Buzz - HEADLINES (NS) NEW EPS Tomorrow Nigh                                                                          150                                
PRCFAMCHA090101195654195701000007Family Bumpers - (Phase 2 F/W 04) - Hockey (MD-L/M                                                                          150                                
PROFAMCHA090101195701195711000010FAMJAM - Open/Close                                                                                                         150                                
PGRFAMCHA090101195711195841000130MV Disney - (MD/NS/NSW) - Jesse McCartney - Just S                                                                     60688120                                
PROFAMCHA090101195841195855000014xxFAMJAM - Close (FAMILY) xxDNUxx                                                                                           150                                
PROFAMCHA090101195855195927000032Suite Life of Z & C (NS) IMPRESS - Coming Up Next                                                                           150                                
PRCFAMCHA090101195927195942000015NS Bumper - Tennis (:15-:17) APR06                                                                                          150                                
ID FAMCHA090101195942195950000008Magic of Disney - NS/NSW/PB - Shape (:06-:09)                                                                               150                                
PRCFAMCHA090101195950195959000009CC Disclaimer - FAST - Family.ca (:09-:10)                                                                                  150                                
PGRFAMCHA090101195959202238002239Suite Life of Zack & Cody, The                    EP: 03                                                               6068607BCC                              
PRCFAMCHA090101202238202250000012NS - 06 - N. SADIE/HANNAH M (:11 - :13) (MARCH08)                                                                           150                                
PRCFAMCHA090101202250202337000047Yeti Another Holiday Event Spot - 4 X Day                                                                                   150                                
PROFAMCHA090101202337202406000029Hannah Montana - SUPER AWESOME (NS) Tonight @ 9pm                                                                           150                                
PROFAMCHA090101202406202451000045Walmart/Family Favourites Holiday CD (Nov 18 - Jan                                                                          150                                
PRCFAMCHA090101202451202534000043Life W Derek (NS) Trailer Generic - Tonight @ 9:30                                                                          150                                
PRCFAMCHA090101202534202613000039XMAS/NEW YEAR Bumpers - Worst Gift Received (Dec 1                                                                          150                                
PRCFAMCHA090101202613202643000030Latest Buzz - LOCO LOCO (NS) New Episodes Tomorrow                                                                          150                                
PROFAMCHA090101202643202653000010FAMJAM - Open/Close                                                                                                         150                                
PGRFAMCHA090101202653202753000100MV Disney - (MD/NS/NSW) - Jesse McCartney - Just S                                                                     60288120                                
PROFAMCHA090101202753202807000014xxFAMJAM - Close (FAMILY) xxDNUxx                                                                                           150                                
PRCFAMCHA090101202807202847000040Naturally Sadie - ROMANTIC (NS) Coming Up Next (MA                                                                          150                                
PRCFAMCHA090101202847202937000050Family Online Community Promo - 3/4 Day (not in PH                                                                          150                                
PRCFAMCHA090101202937202945000008NS Bumper - Dodgeball (:07-:09) APR06                                                                                       150                                
PRCFAMCHA090101202945202954000009CC Disclaimer - FAST - Generic (:09-:10)                                                                                    150                                
PGRFAMCHA090101202954205224002230Naturally, Sadie                                  EP: 10                                                        C24010 1065607ACC                              
PRCFAMCHA090101205224205230000006Astral ID (DEC 2007)                                                                                                        150                                
PRCFAMCHA090101205230205242000012NS - 07 - HANNAH M/DEREK (:11 - :13) (MARCH08)                                                                              150                                
PRCFAMCHA090101205242205326000044Game Off - Version 2 - 3 X Day (Dec 26 - Jan 30)                                                                            150                                
PRCFAMCHA090101205326205418000052Life With Derek (NS) Casey & Derek - Tonight @ 9:3                                                                          150                                
PRCFAMCHA090101205418205458000040Really Big Birthdays - March - 3-4 X Day (Dec 26 -                                                                          150                                
PROFAMCHA090101205458205541000043Ned's DSSG (NS) Too Cool for School  - Tonight @ 1                                                                          150                                
PRCFAMCHA090101205541205615000034XMAS/NEW YEAR Bumpers - Best Gift Given #1 (Dec 17                                                                          150                                
PGRFAMCHA090101205615205825000210Suite Life on Deck - Blooper 2 - Weekend Afternoon                                                                    A60688120                                
PROFAMCHA090101205825205859000034Hannah Montana (NS) Wig Auditions - Coming Up Next                                                                          150                                
PRCFAMCHA090101205859205934000035Family First Overall Promo - 3/4 Per Day (Sept.6 -                                                                          150                                
PRCFAMCHA090101205934205946000012NS Bumper - Fashion (:12-:14) APR06                                                                                         150                                
ID FAMCHA090101205946205952000006Magic of Disney - MAD DASH - Shape (:06-:09)                                                                                150                                
PRCFAMCHA090101205952210001000009CC Disclaimer - SLOW - Family.ca (:09-:10)                                                                                  150                                
PGRFAMCHA090101210001212239002238Hannah Montana                                    EP: 23                                                               6068807BCC                              
PRCFAMCHA090101212239212250000011NS - 08 - DEREK/NED'S (:11 - :13) (MARCH08)                                                                                 150                                
PROFAMCHA090101212250212333000043Ned's DSSG (NS) Too Cool for School  - Tonight @ 1                                                                          150                                
PRCFAMCHA090101212333212415000042XMAS/NEW YEAR Bumpers - How Do You Ceelebrate NYE                                                                           150                                
PROFAMCHA090101212415212458000043Cory In The House (NS) Tonight @ 10:30pm (SEPT07)                                                                           150                                
PROFAMCHA090101212458212508000010FAMJAM - Open/Close                                                                                                         150                                
PGRFAMCHA090101212508212856000348MV Disney - (MD/NS/NSW) - Jesse McCartney - Just S                                                                     60688120                                
PROFAMCHA090101212856212910000014xxFAMJAM - Close (FAMILY) xxDNUxx                                                                                           150                                
PRCFAMCHA090101212910212937000027Life W D (NS) CLIP - Coming Up Next (JULY08)                                                                                150                                
PRCFAMCHA090101212937212953000016NS Bumper - Tennis (:15-:17) APR06                                                                                          150                                
PRCFAMCHA090101212953213002000009CC Disclaimer - FAST - Generic (:09-:10)                                                                                    150                                
PGRFAMCHA090101213002215232002230Life with Derek                                   EP: 25                                                        C26822 1055607BCC3                             
PRCFAMCHA090101215232215238000006Astral ID (DEC 2007)                                                                                                        150                                
PRCFAMCHA090101215238215250000012NS - 09 - NEDS/CORY IN THE HOUSE (:11 - :13) (SEPT                                                                          150                                
PRCFAMCHA090101215250215337000047Yeti Another Holiday Contest - Version 2 - 4 X Day                                                                          150                                
PROFAMCHA090101215337215410000033Cory In The House (NS) WHAT THEY'RE SAYING - Tonig                                                                          150                                
PROFAMCHA090101215410215450000040Disney Wish List - HSM GAME (Dec 31- Jan 5) $$$                                                                             150                                
PROFAMCHA090101215450215533000043Ned's DSSG (NS) Too Cool for School  - Coming Up N                                                                          150                                
PROFAMCHA090101215533215543000010FAMJAM - Open/Close                                                                                                         150                                
PGRFAMCHA090101215543215840000257MV - Shiloh - Operator - FULL (NOV08)                                                                                  20688120                                
PROFAMCHA090101215840215854000014xxFAMJAM - Close (FAMILY) xxDNUxx                                                                                           150                                
PRCFAMCHA090101215854215944000050Family Online Community Promo - 3/4 Day (not in PH                                                                          150                                
PRCFAMCHA090101215944215952000008NS Bumper - Dodgeball (:07-:09) APR06                                                                                       150                                
PRCFAMCHA090101215952220001000009CC Disclaimer - SLOW - Family.ca (:09-:10)                                                                                  150                                
PGRFAMCHA090101220001222422002421Ned's Declassified School Survival Guide          EP: 16                                                               2068807BCC                              
PRCFAMCHA090101222422222434000012NS - 10 - CORY IN THE HOUSE/SUITE LIFE (:11 - :13)                                                                          150                                
PROFAMCHA090101222434222531000057Suite Life of Z & C FABULOUS LIFESTYLES (NS) Tonig                                                                          150                                
PRCFAMCHA090101222531222604000033XMAS/NEW YEAR Bumpers - Best Gift Given #2 (Dec 17                                                                          150                                
PRCFAMCHA090101222604222647000043Life W Derek (NS) Trailer Generic - Tonight @ 11:3                                                                          150                                
PGRFAMCHA090101222647222832000145Cheetah Girls Spot The Moves - Cheetah Love (Jan 1                                                                    A60688120                                
PROFAMCHA090101222832222932000100Cory In The House - Cory vs. Sophie (NS) Coming Up                                                                          150                                
PRCFAMCHA090101222932222945000013NS Bumper - Fashion (:12-:14) APR06                                                                                         150                                
ID FAMCHA090101222945222953000008Magic of Disney - NS/NSW/PB - Wipe (:06-:09)                                                                                150                                
PRCFAMCHA090101222953223002000009CC Disclaimer - SLOW - Generic (:09 -:10)                                                                                   150                                
PGRFAMCHA090101223002225234002232Cory in the House Season 2                        EP: 02                                                               6068607BCC                              
PRCFAMCHA090101225234225240000006Astral ID (DEC 2007)                                                                                                        150                                
PRCFAMCHA090101225240225252000012NS - 11 - SUITE LIFE/LIFE WITH DEREK (:11 - :13) (                                                                          150                                
PRCFAMCHA090101225252225336000044Game Off - Version 2 - 3 X Day (Dec 26 - Jan 30)                                                                            150                                
PRCFAMCHA090101225336225428000052Life With Derek (NS) Casey & Derek - Tonight @ 11:                                                                          150                                
PRCFAMCHA090101225428225511000043XMAS/NEW YEAR Bumpers - How Do You Ceelebrate NYE                                                                           150                                
PGRFAMCHA090101225511225621000110Suite Life on Deck - Blooper 1 - Weekend Afternoon                                                                    A60688120                                
PROFAMCHA090101225621225631000010FAMJAM - Open/Close                                                                                                         150                                
PGRFAMCHA090101225631225801000130MV Disney - (MD/NS/NSW) - Jesse McCartney - Just S                                                                     60688120                                
PROFAMCHA090101225801225815000014xxFAMJAM - Close (FAMILY) xxDNUxx                                                                                           150                                
PROFAMCHA090101225815225846000031Suite Life of Z & C (NS) TONY HAWK - Coming Up Nex                                                                          150                                
PRCFAMCHA090101225846225926000040Really Big Birthdays - March - 3-4 X Day (Dec 26 -                                                                          150                                
PRCFAMCHA090101225926225942000016NS Bumper - Tennis (:15-:17) APR06                                                                                          150                                
ID FAMCHA090101225942225950000008Magic of Disney - NS/NSW/PB - Shape (:06-:09)                                                                               150                                
PRCFAMCHA090101225950225959000009CC Disclaimer - SLOW - Family.ca (:09-:10)                                                                                  150                                
PGRFAMCHA090101225959232237002238Suite Life of Zack & Cody, The                    EP: 14                                                               6068607BCC                              
PRCFAMCHA090101232237232249000012NS - 12 - LIFE WITH DEREK/SADIE (:11 - :13) (SEPT0                                                                          150                                
PRCFAMCHA090101232249232306000017Family First Generic Throw - Promo SHORT VERSION -                                                                          150                                
PRCFAMCHA090101232306232335000029Naturally Sadie - CLIP (NS) Tonight @ 12:00am (MAY                                                                          150                                
PRCFAMCHA090101232335232410000035XMAS/NEW YEAR Bumpers - NYE Resolutions #3 (Dec 26                                                                          150                                
PRCFAMCHA090101232410232500000050Latest Buzz - REPORTER QUIZ (NS) New Episodes Tomo                                                                          150                                
PROFAMCHA090101232500232510000010FAMJAM - Open/Close                                                                                                         150                                
PGRFAMCHA090101232510232858000348MV Disney - (MD/NS/NSW) - Jesse McCartney - Just S                                                                     60688120                                
PROFAMCHA090101232858232912000014xxFAMJAM - Close (FAMILY) xxDNUxx                                                                                           150                                
PRCFAMCHA090101232912232950000038Life W D (NS) Edwin Mystery Man - Coming Up Next (                                                                          150                                
PRCFAMCHA090101232950232958000008NS Bumper - Dodgeball (:07-:09) APR06                                                                                       150                                
PRCFAMCHA090101232958233007000009CC Disclaimer - SLOW - Generic (:09 -:10)                                                                                   150                                
PGRFAMCHA090101233007235237002230Life with Derek                                   EP: 12                                                        C23968A1065607BCC                              
PRCFAMCHA090101235237235243000006Astral ID (DEC 2007)                                                                                                        150                                
PRCFAMCHA090101235243235254000011NS - 13 - SADIE/SADIE (:11 - :13) (SEPT07)                                                                                  150                                
PRCFAMCHA090101235254235341000047Yeti Another Holiday Event Spot - 4 X Day                                                                                   150                                
PRCFAMCHA090101235341235401000020Latest Buzz - SIZZLE (NS) New Episodes - Tomorrow                                                                           150                                
PRCFAMCHA090101235401235447000046XMAS/NEW YEAR Bumpers - How Do You Celebrate The H                                                                          150                                
PGRFAMCHA090101235447235657000210Suite Life on Deck - Blooper 2 - Weekend Afternoon                                                                    A60688120                                
PROFAMCHA090101235657235707000010FAMJAM - Open/Close                                                                                                         150                                
PGRFAMCHA090101235707235807000100MV Disney - (MD/NS/NSW) - Jesse McCartney - Just S                                                                     60688120                                
PROFAMCHA090101235807235821000014xxFAMJAM - Close (FAMILY) xxDNUxx                                                                                           150                                
PRCFAMCHA090101235821235901000040Naturally Sadie - ROMANTIC (NS) Coming Up Next (MA                                                                          150                                
PRCFAMCHA090101235901235941000040Really Big Birthdays - March - 3-4 X Day (Dec 26 -                                                                          150                                
PRCFAMCHA090101235941235954000013NS Bumper - Fashion (:12-:14) APR06                                                                                         150                                
PRCFAMCHA090101235954000003000009CC Disclaimer - SLOW - Family.ca (:09-:10)                                                                                  150                                
PGRFAMCHA090101000003002234002231Naturally, Sadie                                  EP: 20                                                        C24010 1065607ACC                              
PRCFAMCHA090101002234002247000013NS - 14 - SADIE/HANNAH (:11 - :13) (SEPT07)                                                                                 150                                
PRCFAMCHA090101002247002331000044Game Off - Version 2 - 3 X Day (Dec 26 - Jan 30)                                                                            150                                
PROFAMCHA090101002331002359000028Camp Rock - Whats What - Prems Tomorrow @ 3:30pm                                                                            150                                
PRCFAMCHA090101002359002433000034XMAS/NEW YEAR Bumpers - Best Gift Given #1 (Dec 17                                                                          150                                
PROFAMCHA090101002433002443000010FAMJAM - Open/Close                                                                                                         150                                
PRCFAMCHA090101002443002513000030Latest Buzz - LOCO LOCO (NS) New Episodes Tomorrow                                                                          150                                
PGRFAMCHA090101002513002848000335MV Disney - (MD/NS/NSW) - Jesse McCartney - Just S                                                                     60688120                                
PROFAMCHA090101002848002902000014xxFAMJAM - Close (FAMILY) xxDNUxx                                                                                           150                                
PRCFAMCHA090101002902002931000029Naturally Sadie - CLIP (NS) Coming Up Next (MARCH0                                                                          150                                
PRCFAMCHA090101002931002947000016NS Bumper - Tennis (:15-:17) APR06                                                                                          150                                
PRCFAMCHA090101002947002957000010CC Disclaimer - SLOW - Generic (:09 -:10)                                                                                   150                                
PGRFAMCHA090101002957005227002230Naturally, Sadie                                  EP: 61                                                        C29639 1065607ACC                              
PRCFAMCHA090101005227005233000006Astral ID (DEC 2007)                                                                                                        150                                
PRCFAMCHA090101005233005246000013NS - 15 - HANNAH/CORY (:11 - :13) (OCT08)                                                                                   150                                
PRCFAMCHA090101005246005326000040Really Big Birthdays - March - 3-4 X Day (Dec 26 -                                                                          150                                
PROFAMCHA090101005326005354000028Camp Rock - Whats What - Prems Tomorrow @ 3:30pm                                                                            150                                
PROFAMCHA090101005354005404000010FAMJAM - Open/Close                                                                                                         150                                
PGRFAMCHA090101005404005814000410MV Disney - (MD/NS/NSW) - Jesse McCartney - Just S                                                                     60688120                                
PROFAMCHA090101005814005828000014xxFAMJAM - Close (FAMILY) xxDNUxx                                                                                           150                                
PROFAMCHA090101005828005857000029Hannah Montana - SUPER AWESOME (NS) Coming Up Next                                                                          150                                
PRCFAMCHA090101005857005944000047Yeti Another Holiday Contest - Version 2 - 4 X Day                                                                          150                                
PRCFAMCHA090101005944005952000008NS Bumper - Dodgeball (:07-:09) APR06                                                                                       150                                
ID FAMCHA090101005952010000000008Magic of Disney - NS/NSW/PB - Shape (:06-:09)                                                                               150                                
PRCFAMCHA090101010000010009000009CC Disclaimer - SLOW - Family.ca (:09-:10)                                                                                  150                                
PGRFAMCHA090101010009012247002238Hannah Montana                                    EP: 10                                                               6068807BCC                              
PRCFAMCHA090101012247012300000013NS - 16 -CORY/PHIL (:11 - :13) (OCT08)                                                                                      150                                
PRCFAMCHA090101012300012314000014NS Bumper - Fashion (:12-:14) APR06                                                                                         150                                
ID FAMCHA090101012314012322000008Magic of Disney - NS/NSW/PB - Wipe (:06-:09)                                                                                150                                
PRCFAMCHA090101012322012331000009CC Disclaimer - SLOW - Generic (:09 -:10)                                                                                   150                                
PGRFAMCHA090101012331014609002238Cory in the House                                 EP: 02                                                               6068607BCC                              
PRCFAMCHA090101014609014615000006Astral ID (DEC 2007)                                                                                                        150                                
PRCFAMCHA090101014615014628000013NS - 17 - PHIL/LIZZIE (:11 - :13) (OCT08)                                                                                   150                                
PRCFAMCHA090101014628014645000017NS Bumper - Tennis (:15-:17) APR06                                                                                          150                                
ID FAMCHA090101014645014654000009Magic of Disney - NS/NSW/PB - Shape (:06-:09)                                                                               150                                
PRCFAMCHA090101014654014703000009CC Disclaimer - SLOW - Family.ca (:09-:10)                                                                                  150                                
PGRFAMCHA090101014703020908002205Phil of the Future                                EPS # 16                                                             6068607BCC                              
PRCFAMCHA090101020908020920000012NS - 18 - LIZZIE/LIFE WITH DEREK (:11 - :13) (OCT0                                                                          150                                
PRCFAMCHA090101020920020929000009NS Bumper - Dodgeball (:07-:09) APR06                                                                                       150                                
ID FAMCHA090101020929020937000008Magic of Disney - NS/NSW/PB - Wipe (:06-:09)                                                                                150                                
PRCFAMCHA090101020937020946000009CC Disclaimer - SLOW - Generic (:09 -:10)                                                                                   150                                
PGRFAMCHA090101020946023221002235Lizzie McGuire                                    EP: 1-024                                                            6068607BCC                              
PRCFAMCHA090101023221023227000006Astral ID (DEC 2007)                                                                                                        150                                
PRCFAMCHA090101023227023239000012NS - 19 - LIFE WITH DEREK/CORY IN THE HOUSE (:11 -                                                                          150                                
PRCFAMCHA090101023239023252000013NS Bumper - Fashion (:12-:14) APR06                                                                                         150                                
PRCFAMCHA090101023252023301000009CC Disclaimer - SLOW - Family.ca (:09-:10)                                                                                  150                                
PGRFAMCHA090101023301025531002230Life with Derek                                   EP: 17                                                        C26679A1065607BCC                              
PRCFAMCHA090101025531025543000012NS - 20 -CORY IN THE HOUSE/RAVEN (:11 - :13) (SEPT                                                                          150                                
PRCFAMCHA090101025543025559000016NS Bumper - Tennis (:15-:17) APR06                                                                                          150                                
ID FAMCHA090101025559025607000008Magic of Disney - NS/NSW/PB - Wipe (:06-:09)                                                                                150                                
PRCFAMCHA090101025607025616000009CC Disclaimer - SLOW - Generic (:09 -:10)                                                                                   150                                
PGRFAMCHA090101025616031848002232Cory in the House Season 2                        EP: 02                                                               6068607BCC                              
PRCFAMCHA090101031848031854000006Astral ID (DEC 2007)                                                                                                        150                                
PRCFAMCHA090101031854031907000013NS - 21 - RAVEN/ SUITE LIFE (:11 - :13) (SEPT07)                                                                            150                                
PRCFAMCHA090101031907031915000008NS Bumper - Dodgeball (:07-:09) APR06                                                                                       150                                
ID FAMCHA090101031915031923000008Magic of Disney - NS/NSW/PB - Shape (:06-:09)                                                                               150                                
PRCFAMCHA090101031923031932000009CC Disclaimer - SLOW - Family.ca (:09-:10)                                                                                  150                                
PGRFAMCHA090101031932034209002237That's So Raven                                   EP: 080                                                              6068607BCC                              
PRCFAMCHA090101034209034222000013NS - 22 - SUITE LIFE/LIFE WITH DEREK (:11 - :13) (                                                                          150                                
PRCFAMCHA090101034222034236000014NS Bumper - Fashion (:12-:14) APR06                                                                                         150                                
ID FAMCHA090101034236034245000009Magic of Disney - NS/NSW/PB - Wipe (:06-:09)                                                                                150                                
PRCFAMCHA090101034245034255000010CC Disclaimer - SLOW - Generic (:09 -:10)                                                                                   150                                
PGRFAMCHA090101034255040535002240Suite Life of Zack & Cody, The                    EP: 26                                                               6068607BCC                              
PRCFAMCHA090101040535040541000006Astral ID (DEC 2007)                                                                                                        150                                
PRCFAMCHA090101040541040554000013NS - 23 - LIFE WITH DEREK (:11 - :13) (SEPT07)                                                                              150                                
PRCFAMCHA090101040554040611000017NS Bumper - Tennis (:15-:17) APR06                                                                                          150                                
PRCFAMCHA090101040611040621000010CC Disclaimer - SLOW - Family.ca (:09-:10)                                                                                  150                                
PGRFAMCHA090101040621042851002230Life with Derek                                   EP: 04                                                        C23968A1065607BCC                              
PROFAMCHA090101042851042942000051PH-D Promo - Darby's Super Sleuthin Wknd - Starts                                                                           150                                
ID FAMCHA090101042942042959000017Family Jr. Block Open (:14-:17) (JUL08)                                                                                     150                                
OFFFAMCHA090101042959043000000001OFF AIR                                                                                                                                                        
SO FAMCHA090102043000043011000011Sign On (oct 1)                                                                                                                                                
PRCFAMCHA090102043011043020000009CC Disclaimer - FAST - Family.ca (:09-:10)                                                                                  150                                
PGRFAMCHA090102043020045655002635Katie And Orbie                                   EP: 3-039                                                     C12449A1065607ECC                              
PRCFAMCHA090102045655045701000006Astral ID (DEC 2007)                                                                                                        150                                
PRCFAMCHA090102045701045712000011FJR - 02 - FRANNY'S FEET / BENJAMIN BEAR (SEPT08)                                                                           150                                
PRCFAMCHA090102045712045727000015Family Jr. Bumper - Portal (:14- :17) (JUL08)                                                                               150                                
PRCFAMCHA090102045727045736000009CC Disclaimer - FAST - Generic (:09-:10)                                                                                    150                                
PGRFAMCHA090102045736052006002230Franny's Feet                                     EPS # 1-010                                                   C23970A1065607ECC                              
PRCFAMCHA090102052006052019000013FJR - 03 - BENJAMIN BEAR / HOZE HOUNDZ (SEPT08)                                                                             150                                
PRCFAMCHA090102052019052031000012Family Jr. Bumper - Music (:11- :14) (JUL08)                                                                                150                                
PRCFAMCHA090102052031052040000009CC Disclaimer - FAST - Family.ca (:09-:10)                                                                                  150                                
PGRFAMCHA090102052040054310002230The Secret World Of Benjamin Bear                 EPS # 1-001                                                   B75146 1065607ECC                              
PRCFAMCHA090102054310054316000006Astral ID (DEC 2007)                                                                                                        150                                
PRCFAMCHA090102054316054327000011FJR - 04 - HOZE HOUNDZ / HENRY'S WORLD (SEPT08)                                                                             150                                
PRCFAMCHA090102054327054339000012Family Jr. Bumper - Collide (:11- :14) (JUL08)                                                                              150                                
PRCFAMCHA090102054339054348000009CC Disclaimer - FAST - Generic (:09-:10)                                                                                    150                                
PGRFAMCHA090102054348060628002240Hoze Houndz                                       EP: 4-040                                                     B63376A1065607ECC                              
PRCFAMCHA090102060628060641000013FJR - 05 - HENRY'S WORLD / KING (SEPT08)                                                                                    150                                
PRCFAMCHA090102060641060652000011Family Jr. Bumper - Acrobat (:10- :13) (JUL08)                                                                              150                                
PRCFAMCHA090102060652060701000009CC Disclaimer - FAST - Family.ca (:09-:10)                                                                                  150                                
PGRFAMCHA090102060701063101002400Henry's World                                     EP: 2-020                                                     B81051A1065607GCC                              
PRCFAMCHA090102063101063107000006Astral ID (DEC 2007)                                                                                                        150                                
PRCFAMCHA090102063107063118000011FJR - 06 - KING (SEPT08)                                                                                                    150                                
PRCFAMCHA090102063118063133000015Family Jr. Bumper - Portal (:14- :17) (JUL08)                                                                               150                                
PRCFAMCHA090102063133063142000009CC Disclaimer - FAST - Generic (:09-:10)                                                                                    150                                
PGRFAMCHA090102063142065412002230King                                              EPS # 028                                                     C25350 1065607ECC                              
PRCFAMCHA090102065412065424000012MMM - 01 - RECESS/PHINEAS (:11 - :13) (OCT08)                                                                               150                                
PRCFAMCHA090102065424065511000047Yeti Another Holiday Contest - Version 2 - 4 X Day                                                                          150                                
PROFAMCHA090102065511065544000033Recess - COOTIE SHOTS (MMM) - Coming Up Next  (NOV                                                                          150                                
PROFAMCHA090102065544065603000019MadMadMornings Block Open                                                                                                   150                                
PRCFAMCHA090102065603065612000009CC Disclaimer - FAST - Generic (:09-:10)                                                                                    150                                
PGRFAMCHA090102065612071846002234Disney's Recess                                   EP: 1-042                                                            6068607ECC                              
PRCFAMCHA090102071846071852000006Astral ID (DEC 2007)                                                                                                        150                                
