SO FAMCHA080301043000043011000011Sign On (oct 1)                                                                                                                                                
PRCFAMCHA080301043011043020000009CC Disclaimer - FAST - Family.ca (:08-:10)                                                                                  150                                
PGRFAMCHA080301043020045421002401Henry's World                                     EP: 2-019                                                     B81050A1065607GCC                              
PRCFAMCHA080301045421045427000006Astral ID (DEC 2007)                                                                                                        150                                
PRCFAMCHA080301045427045443000016PH - 21 - BENJAMIN/FRANNY'S/KING(:14 - :16) (SEPT0                                                                          150                                
ID FAMCHA080301045443045456000013PS Playhouse AM Block Open (:10-:15)                                                                                        150                                
PRCFAMCHA080301045456045505000009CC Disclaimer - FAST - Generic (:09-:10)                                                                                    150                                
PGRFAMCHA080301045505051738002233The Secret World Of Benjamin Bear                 EPS # 1-005                                                   B75150 1065607ECC                              
PRCFAMCHA080301051738051753000015PH - 22 - FRANNY'S/KING (:14 - :16) (SEPT07)                                                                                150                                
ID FAMCHA080301051753051806000013PS Playhouse AM Block Open (:10-:15)                                                                                        150                                
PRCFAMCHA080301051806051815000009CC Disclaimer - FAST - Family.ca (:08-:10)                                                                                  150                                
PGRFAMCHA080301051815054045002230Franny's Feet                                     EPS # 18                                                      C23971 1065607ECC                              
PRCFAMCHA080301054045054051000006Astral ID (DEC 2007)                                                                                                        150                                
PRCFAMCHA080301054051054106000015PH - 23 - KING (:14 - :16) (SEPT07)                                                                                         150                                
ID FAMCHA080301054106054119000013PS Playhouse AM Block Open (:10-:15)                                                                                        150                                
PRCFAMCHA080301054119054128000009CC Disclaimer - FAST - Generic (:09-:10)                                                                                    150                                
PGRFAMCHA080301054128060358002230King                                              EP: 001                                                       B75756 1065607ECC                              
PROFAMCHA080301060358060417000019Jetix Block Open (:18-:21)                                                                                                  150                                
PRCFAMCHA080301060417060426000009CC Disclaimer - FAST - Family.ca (:08-:10)                                                                                  150                                
PGRFAMCHA080301060426062658002232Power Rangers:  Operation Overdrive               EP: 16                                                               2068607ECC                              
PRCFAMCHA080301062658062704000006Astral ID (DEC 2007)                                                                                                        150                                
PRCFAMCHA080301062704062752000048Family Video Player Promo - No Tag 3/day (not in P                                                                          150                                
PROFAMCHA080301062752062800000008xxFamily Bumpers - (Phase 2 F/W 04) - Snow Ball (M                                                                          150                                
PROFAMCHA080301062800062842000042SBO - Triple Play Promo - March 10-14 & 17-21 Star                                                                          150                                
PROFAMCHA080301062842062900000018Jetix Block Open (:18-:21)                                                                                                  150                                
PRCFAMCHA080301062900062909000009CC Disclaimer - FAST - Generic (:09-:10)                                                                                    150                                
PGRFAMCHA080301062909065141002232Power Rangers Jungle Fury                         EP: 01                                                               2068607ACC                              
PROFAMCHA080301065141065158000017Phineas & Ferb (NSW) Candace Tease - Tomorrow Afte                                                                          150                                
PGRFAMCHA080301065158065327000129xxReally Short Report - Hannah Montana: One in a M                                                                    A60688120                                
PROFAMCHA080301065327065341000014Phil of the Future IDs - Ricky Tomato - watching f                                                                          150                                
PROFAMCHA080301065341065400000019Jetix Block Open (:18-:21)                                                                                                  150                                
PRCFAMCHA080301065400065409000009CC Disclaimer - FAST - Family.ca (:08-:10)                                                                                  150                                
PGRFAMCHA080301065409071640002231Yin Yang Yo!                                      EP: 02                                                               2068607ECC                              
PRCFAMCHA080301071640071646000006Astral ID (DEC 2007)                                                                                                        150                                
PROFAMCHA080301071646071727000041xxWeb Games Promo - 3xDay MMM, MD, NS, NSW  (Jan 1                                                                          150                                
PROFAMCHA080301071727071805000038xxBratz Kidz Fairy Tales DVD Contest - Available N                                                                          150                                
PROFAMCHA080301071805071817000012xxFamily Bumpers - (Phase 1 Spring 04) - Pillow Fi                                                                          150                                
PRCFAMCHA080301071817071857000040Magazine Spot (MD,NS,NSW) 2/3 day (not in PH) (til                                                                          150                                
PROFAMCHA080301071857071941000044xxSBO - Event/Contest Spot - 3 X Day in MD, NS, NS                                                                          150                                
PROFAMCHA080301071941072000000019Jetix Block Open (:18-:21)                                                                                                  150                                
PRCFAMCHA080301072000072009000009CC Disclaimer - FAST - Generic (:09-:10)                                                                                    150                                
PGRFAMCHA080301072009074306002257Pucca                                             EP: 02                                                               2068607ECC                              
PRCFAMCHA080301074306074319000013NSW - 01 - HANNAH/SUITE LIFE (:11 - :13) (SEPT07)                                                                           150                                
PROFAMCHA080301074319074401000042SBO - Triple Play Promo - March 10-14 & 17-21 Star                                                                          150                                
PROFAMCHA080301074401074435000034Hannah Montana (NSW) Wig Auditions - Coming Up Nex                                                                          150                                
PROFAMCHA080301074435074512000037xx101 Dalmatians Blast - Available March 4 (Feb 21                                                                          150                                
PROFAMCHA080301074512074542000030Suite Life of Z & C - NSW Disclaimer This Morning                                                                           150                                
PRCFAMCHA080301074542074549000007xxFamily Bumpers - (Phase 2 F/W 04) - Hockey (MD-L                                                                          150                                
PROFAMCHA080301074549074606000017Zoey 101 (NSW)  ZOEY, ZOEY, ZOEY - This Morning @                                                                           150                                
PROFAMCHA080301074606074628000022That's So Raven (BEAR) (NSW) This Morning @ 9:40 (                                                                          150                                
PROFAMCHA080301074628074705000037xxBarbie Mariposa DVD Blast - Available Now REVISI                                                                          150                                
PROFAMCHA080301074705074743000038Radio Free Roscoe Online Promo REVISION (MD/NS/NSW                                                                          150                                
PROFAMCHA080301074743074800000017Nonstop Weekend Block Open (:16-:18) APR06                                                                                  150                                
ID FAMCHA080301074800074808000008Magic of Disney - NS/NSW/PB - Shape (:06-:09)                                                                               150                                
PRCFAMCHA080301074808074817000009CC Disclaimer - FAST - Family.ca (:08-:10)                                                                                  150                                
PGRFAMCHA080301074817081055002238Hannah Montana                                    EP: 25                                                               6068807BCC                              
PRCFAMCHA080301081055081101000006Astral ID (DEC 2007)                                                                                                        150                                
PRCFAMCHA080301081101081113000012NSW - 02 - SUITE LIFE/ZOEY 101 (:11 - :13) (SEPT07                                                                          150                                
PROFAMCHA080301081113081149000036Suite Life of Z & C GOLF (NSW) - Coming Up Next (S                                                                          150                                
PROFAMCHA080301081149081222000033xxHorton Hears A Who - Available March 14 (Feb 25-                                                                          150                                
PROFAMCHA080301081222081242000020Zoey 101 - He Loves Her 1 - (NSW) This Morning @ 8                                                                          150                                
PROFAMCHA080301081242081325000043Cory In The House (NSW) (MAR07) - This morning @ 9                                                                          150                                
PROFAMCHA080301081325081359000034xxFamJam CD - Available March 4 (Feb 26 - March 3)                                                                          150                                
PRCFAMCHA080301081359081447000048Family Video Player Promo - No Tag 3/day (not in P                                                                          150                                
PRCFAMCHA080301081447081500000013NSW Bumper - Fashion (:12-:14) JUNE06                                                                                       150                                
ID FAMCHA080301081500081508000008Magic of Disney - MAD DASH - Wipe (:06-:09)                                                                                 150                                
PRCFAMCHA080301081508081517000009CC Disclaimer - FAST - Generic (:09-:10)                                                                                    150                                
PGRFAMCHA080301081517083729002212Suite Life of Zack and Cody, The                  EP: 12                                                               6068607BCC                              
PRCFAMCHA080301083729083742000013NSW - 03 - ZOEY 101/CORY IN THE HOUSE (:11 - :13)                                                                           150                                
PROFAMCHA080301083742083813000031Phineas & Ferb (NSW) Perry Character Sell - New Ep                                                                          150                                
PROFAMCHA080301083813083843000030Zoey 101 - QUINN (NSW) (MAR07) - Coming Up Next                                                                             150                                
PROFAMCHA080301083843083921000038xxBratz Kidz Fairy Tales DVD Contest - Available N                                                                          150                                
PROFAMCHA080301083921084004000043Cory In The House (NSW) (MAR07) - This morning @ 9                                                                          150                                
PROFAMCHA080301084004084059000055Disney Behind The Curtain (MD, NS, NSW) 2 x Day  (                                                                          150                                
PROFAMCHA080301084059084131000032Suite Life of Z & C (NSW) Wonderful Hotel - New Ep                                                                          150                                
PROFAMCHA080301084131084203000032xxJonas Brothers CD Blast - Available Now $$$                                                                               150                                
PROFAMCHA080301084203084244000041xxWeb Games Promo - 3xDay MMM, MD, NS, NSW  (Jan 1                                                                          150                                
PRCFAMCHA080301084244084300000016NSW Bumper - Tennis (:15-:17) APR06                                                                                         150                                
PRCFAMCHA080301084300084309000009CC Disclaimer - FAST - Family.ca (:08-:10)                                                                                  150                                
PGRFAMCHA080301084309090541002232Zoey 101                                          EPS # 11                                                             2068807BCC                              
PRCFAMCHA080301090541090547000006Astral ID (DEC 2007)                                                                                                        150                                
PRCFAMCHA080301090547090600000013NSW - 04 - CORY IN THE HOUSE/RAVEN (:11 - :13) (SE                                                                          150                                
PROFAMCHA080301090600090644000044xxSBO - Event/Contest Spot - 3 X Day in MD, NS, NS                                                                          150                                
PROFAMCHA080301090644090727000043Cory In The House (NSW) (MAR07) - Coming Up Next                                                                            150                                
PROFAMCHA080301090727090757000030xxHSM - The Ice Tour Revised Blast w/o Toronto REV                                                                          150                                
PROFAMCHA080301090757090827000030That's So Raven (SCREAM) (NSW) This Mornings @ 9:4                                                                          150                                
PGRFAMCHA080301090827091006000139Latest Buzz Podcast (NS) Actor Tease 1 - Prems Mar                                                                    A60288120                                
PROFAMCHA080301091006091036000030Wizards of Waverrly Place JUSTIN (NSW) - This Morn                                                                          150                                
PROFAMCHA080301091036091106000030Popcorn Pix - Slapstick - Today @ Noon                                                                                      150                                
PROFAMCHA080301091106091143000037xxBarbie Mariposa DVD Blast - Available Now REVISI                                                                          150                                
PROFAMCHA080301091143091151000008Raven ID's II - Log onto family.ca                                                                                          150                                
PRCFAMCHA080301091151091200000009NSW Bumper - Dodgeball (:07-:09) APR06                                                                                      150                                
ID FAMCHA080301091200091208000008Magic of Disney - NS/NSW/PB - Shape (:06-:09)                                                                               150                                
PRCFAMCHA080301091208091217000009CC Disclaimer - FAST - Generic (:09-:10)                                                                                    150                                
PGRFAMCHA080301091217093418002201Cory in the House Season 2                        EP: 05                                                               6068607BCC                              
PRCFAMCHA080301093418093431000013NSW - 05 - RAVEN/PHIL (:11 - :13) (SEPT07)                                                                                  150                                
PROFAMCHA080301093431093509000038Radio Free Roscoe Online Promo REVISION (MD/NS/NSW                                                                          150                                
PROFAMCHA080301093509093529000020That's So Raven (JUNE06) NO PANTS (NSW) - Coming U                                                                          150                                
PROFAMCHA080301093529093606000037xx101 Dalmatians Blast - Available March 4 (Feb 21                                                                          150                                
PROFAMCHA080301093606093636000030xxWizards of Waverrly Place SIBLING (NSW) - This M                                                                          150                                
PROFAMCHA080301093636093646000010FAMJAM - Open/Close                                                                                                         150                                
PGRFAMCHA080301093646093913000227MV Disney - (MD/NS/NSW) - Jesse McCartney - Just S                                                                     60288120                                
PROFAMCHA080301093913093927000014xxFAMJAM - Close (FAMILY) xxDNUxx                                                                                           150                                
PROFAMCHA080301093927093959000032Suite Life of Z & C (NSW) Wonderful Hotel - New Ep                                                                          150                                
PROFAMCHA080301093959094033000034xxFamJam CD - Available March 4 (Feb 26 - March 3)                                                                          150                                
PROFAMCHA080301094033094047000014Phil of the Future IDs - Ricky Tomato - watching f                                                                          150                                
PRCFAMCHA080301094047094100000013NSW Bumper - Fashion (:12-:14) JUNE06                                                                                       150                                
ID FAMCHA080301094100094108000008Magic of Disney - NS/NSW/PB - Wipe (:06-:09)                                                                                150                                
PRCFAMCHA080301094108094116000008CC Disclaimer - FAST - Family.ca (:08-:10)                                                                                  150                                
PGRFAMCHA080301094116100348002232That's So Raven                                   EP: 091                                                              6068607BCC                              
PRCFAMCHA080301100348100354000006Astral ID (DEC 2007)                                                                                                        150                                
PROFAMCHA080301100354100438000044xxSBO - Event/Contest Spot - 3 X Day in MD, NS, NS                                                                          150                                
PROFAMCHA080301100438100510000032xxJonas Brothers CD Blast - Available Now $$$                                                                               150                                
PROFAMCHA080301100510100540000030Wizards of Waverrly Place JUSTIN (NSW) - This Morn                                                                          150                                
PROFAMCHA080301100540100552000012xxFamily Bumpers - (Phase 3 Spring 05) - Bake (MD/                                                                          150                                
PROFAMCHA080301100552100602000010FAMJAM - Open/Close                                                                                                         150                                
PGRFAMCHA080301100602100732000130MV Disney - (MD/NS/NSW) - Jesse McCartney - Just S                                                                     60288120                                
PROFAMCHA080301100732100746000014xxFAMJAM - Close (FAMILY) xxDNUxx                                                                                           150                                
PROFAMCHA080301100746100817000031Ned's DSSG - Cookie Clip (APR06)(NSW) This Morning                                                                          150                                
PROFAMCHA080301100817100847000030Popcorn Pix - Slapstick - Today @ Noon                                                                                      150                                
PRCFAMCHA080301100847100927000040Magazine Spot (MD,NS,NSW) 2/3 day (not in PH) (til                                                                          150                                
PROFAMCHA080301100927100945000018Phil of the Future IDs - Ricky Caveman - stay tune                                                                          150                                
PRCFAMCHA080301100945101002000017NSW Bumper - Tennis (:15-:17) APR06                                                                                         150                                
ID FAMCHA080301101002101011000009Magic of Disney - NS/NSW/PB - Shape (:06-:09)                                                                               150                                
PGRFAMCHA080301101011103248002237Phil of the Future Yr 2                           EP: 36                                                               6068607BCC                              
PROFAMCHA080301103248103330000042SBO - Triple Play Promo - March 10-14 & 17-21 Star                                                                          150                                
PROFAMCHA080301103330103400000030xxWizards of Waverrly Place SIBLING (NSW) - Coming                                                                          150                                
PROFAMCHA080301103400103438000038xxBratz Kidz Fairy Tales DVD Contest - Available N                                                                          150                                
PROFAMCHA080301103438103458000020Ned's DSSG - Drum Roll (JUNE06) NSW This Morn @ 11                                                                          150                                
PROFAMCHA080301103458103506000008xxFamily Bumpers - (Phase 2 F/W 04) - Snow Ball (M                                                                          150                                
PGRFAMCHA080301103506103635000129xxReally Short Report - Hannah Montana: One in a M                                                                    A60688120                                
PROFAMCHA080301103635103708000033Suite Life of Z & C SCOUT (NSW) - This Morning @ 1                                                                          150                                
PRCFAMCHA080301103708103756000048Family Video Player Promo - No Tag 3/day (not in P                                                                          150                                
PRCFAMCHA080301103756103805000009NSW Bumper - Dodgeball (:07-:09) APR06                                                                                      150                                
PRCFAMCHA080301103805103815000010CC Disclaimer - FAST - Family.ca (:08-:10)                                                                                  150                                
PGRFAMCHA080301103815110013002158Disney Wizards of Waverly Place                   EP: 08                                                               6068607BCC                              
PRCFAMCHA080301110013110019000006Astral ID (DEC 2007)                                                                                                        150                                
PRCFAMCHA080301110019110032000013NSW - 08 - NED'S/SUITE LIFE (:11 - :13) (SEPT07)                                                                            150                                
PROFAMCHA080301110032110113000041xxWeb Games Promo - 3xDay MMM, MD, NS, NSW  (Jan 1                                                                          150                                
PROFAMCHA080301110113110135000022Ned's DSSG - CRAZY DOG (AUG06) NSW Coming Up Next                                                                           150                                
PROFAMCHA080301110135110205000030xxHSM - The Ice Tour Revised Blast w/o Toronto REV                                                                          150                                
PROFAMCHA080301110205110241000036Suite Life of Z & C GOLF (NSW) - This Morning @ 11                                                                          150                                
PROFAMCHA080301110241110336000055Disney Behind The Curtain (MD, NS, NSW) 2 x Day  (                                                                          150                                
PROFAMCHA080301110336110406000030Popcorn Pix - Slapstick - Today @ Noon                                                                                      150                                
PRCFAMCHA080301110406110436000030xxCineplex Latest Buzz Popcorn Parties Pre-Launch                                                                           150                                
PROFAMCHA080301110436110455000019Phineas & Ferb (NSW) Isabella Tease - Tomorrow Aft                                                                          150                                
PRCFAMCHA080301110455110509000014NSW Bumper - Fashion (:12-:14) JUNE06                                                                                       150                                
PRCFAMCHA080301110509110519000010CC Disclaimer - FAST - Generic (:09-:10)                                                                                    150                                
PGRFAMCHA080301110519112940002421Ned's Declassified School Survival Guide          EP: 22                                                               2068807BCC                              
PRCFAMCHA080301112940112951000011NSW - 09 - SUITE LIFE/POPCORN PIX (:11 - :13) (SEP                                                                          150                                
PROFAMCHA080301112951113029000038Radio Free Roscoe Online Promo REVISION (MD/NS/NSW                                                                          150                                
PROFAMCHA080301113029113108000039Suite Life of Z & C - NSW - GIRLFRIEND 1 - Coming                                                                           150                                
PROFAMCHA080301113108113146000038xxBratz Kidz Fairy Tales DVD Contest - Available N                                                                          150                                
PRCFAMCHA080301113146113153000007xxFamily Bumpers - (Phase 2 F/W 04) - Hockey (MD-L                                                                          150                                
PROFAMCHA080301113153113242000049Proud Family (APR06) STRIKE (NSW) - Weekend Aftern                                                                          150                                
PROFAMCHA080301113242113300000018Phineas & Ferb (NSW) Ferb Tease - Tomorrow Afterno                                                                          150                                
PRCFAMCHA080301113300113315000015NSW Bumper - Tennis (:15-:17) APR06                                                                                         150                                
ID FAMCHA080301113315113323000008Magic of Disney - NS/NSW/PB - Shape (:06-:09)                                                                               150                                
PRCFAMCHA080301113323113332000009CC Disclaimer - FAST - Family.ca (:08-:10)                                                                                  150                                
PGRFAMCHA080301113332115609002237Suite Life of Zack & Cody, The                    EP: 55                                                               6068607BCC                              
PRCFAMCHA080301115609115615000006Astral ID (DEC 2007)                                                                                                        150                                
PRCFAMCHA080301115615115628000013NSW - 10 - POPCORN PIX/POPCORN PIX (:11 - :13) (SE                                                                          150                                
PROFAMCHA080301115628115658000030Phineas & Ferb (NSW) Phineas Character Sell - New                                                                           150                                
PROFAMCHA080301115658115728000030Popcorn Pix - Slapstick - Coming Up Next                                                                                    150                                
PROFAMCHA080301115728115801000033xxHorton Hears A Who - Available March 14 (Feb 25-                                                                          150                                
PROFAMCHA080301115801115808000007xxFamily Bumpers - (Phase 2 F/W 04) - Snow Twirl (                                                                          150                                
PROFAMCHA080301115808115840000032Suite Life of Z & C (NSW) Wonderful Hotel - New Ep                                                                          150                                
PRCFAMCHA080301115840115905000025xxPost Launch PHD- Parent Sell (PH, NS, ) Post Lau                                                                          150                                
PRCFAMCHA080301115905115943000038Life W D (NSW) Edwin Mystery Man - Weekend Nights                                                                           150                                
PRCFAMCHA080301115943115952000009NSW Bumper - Dodgeball (:07-:09) APR06                                                                                      150                                
ID FAMCHA080301115952120002000010Ratings - G - Popcorn Pix Only (July 07)                                                                                    150                                
PGRFAMCHA080301120002132359012357Lenny the Wonder Dog                                                                                                  A2068807D                                
PRCFAMCHA080301132359132411000012NSW - 11 - POPCORN PIX/LIZZIE (:11 - :13) (SEPT07)                                                                          150                                
PRCFAMCHA080301132411132459000048Family Video Player Promo - No Tag 3/day (not in P                                                                          150                                
PROFAMCHA080301132459132529000030Popcorn Pix - Slapstick - Coming Up Next                                                                                    150                                
PRCFAMCHA080301132529132559000030xxCineplex Latest Buzz Popcorn Parties Pre-Launch                                                                           150                                
PROFAMCHA080301132559132642000043Cory In The House (NSW) This Afternoon @ 3:25pm (S                                                                          150                                
PROFAMCHA080301132642132652000010FAMJAM - Open/Close                                                                                                         150                                
PGRFAMCHA080301132652132809000117MV Disney - (MD/NS/NSW) - Jesse McCartney - Just S                                                                     60688120                                
PROFAMCHA080301132809132823000014xxFAMJAM - Close (FAMILY) xxDNUxx                                                                                           150                                
PROFAMCHA080301132823132853000030Suite Life of Z & C - NSW Disclaimer This Afternoo                                                                          150                                
PROFAMCHA080301132853132913000020Ned's DSSG - Drum Roll (JUNE06) NSW Tomorrow Morn                                                                           150                                
PRCFAMCHA080301132913132938000025xxPost Launch PHD- Parent Sell (PH, NS, ) Post Lau                                                                          150                                
ID FAMCHA080301132938132958000020Popcorn Pix Block Open (JUNE 06) (:18-:20)                                                                                  150                                
ID FAMCHA080301132958133008000010Ratings - PG - Popcorn Pix Only (July 07)                                                                                   150                                
PRCFAMCHA080301133008133017000009CC Disclaimer - FAST - Family.ca (:08-:10)                                                                                  150                                
PGRFAMCHA080301133017145953012936Penny Promise                                                                                                         B2068807DCC                              
PRCFAMCHA080301145953145959000006Astral ID (DEC 2007)                                                                                                        150                                
PRCFAMCHA080301145959150012000013NSW - 12 - LIZZIE/CORY IN THE HOUSE (:11 - :13) (S                                                                          150                                
PROFAMCHA080301150012150030000018Nonstop Weekend Block Open (:16-:18) APR06                                                                                  150                                
ID FAMCHA080301150030150038000008Magic of Disney - NS/NSW/PB - Wipe (:06-:09)                                                                                150                                
PGRFAMCHA080301150038152312002234Lizzie McGuire                                    EP: 2-029                                                            6068607BCC                              
PRCFAMCHA080301152312152325000013NSW - 13 - CORY IN THE HOUSE/SUITE LIFE (:11 - :13                                                                          150                                
PROFAMCHA080301152325152408000043Cory In The House (NSW) (MAR07) - Coming Up Next                                                                            150                                
PROFAMCHA080301152408152447000039Suite Life of Z & C - NSW - GIRLFRIEND 1 - This Af                                                                          150                                
PRCFAMCHA080301152447152500000013NSW Bumper - Fashion (:12-:14) JUNE06                                                                                       150                                
ID FAMCHA080301152500152508000008Magic of Disney - NS/NSW/PB - Shape (:06-:09)                                                                               150                                
PRCFAMCHA080301152508152517000009CC Disclaimer - FAST - Family.ca (:08-:10)                                                                                  150                                
PGRFAMCHA080301152517154755002238Cory in the House                                 EP: 10                                                               6068607BCC                              
PRCFAMCHA080301154755154801000006Astral ID (DEC 2007)                                                                                                        150                                
PRCFAMCHA080301154801154814000013NSW - 14 - SUITE LIFE/PROUD FAMILY (:11 - :13) (SE                                                                          150                                
PROFAMCHA080301154814154844000030Suite Life of Z & C - NSW Disclaimer Coming Up Nex                                                                          150                                
PRCFAMCHA080301154844154914000030xxCineplex Latest Buzz Popcorn Parties Pre-Launch                                                                           150                                
PROFAMCHA080301154914155003000049Proud Family (APR06) STRIKE (NSW) - This Afternoon                                                                          150                                
PROFAMCHA080301155003155044000041xxWeb Games Promo - 3xDay MMM, MD, NS, NSW  (Jan 1                                                                          150                                
PRCFAMCHA080301155044155100000016NSW Bumper - Tennis (:15-:17) APR06                                                                                         150                                
ID FAMCHA080301155100155108000008Magic of Disney - NS/NSW/PB - Wipe (:06-:09)                                                                                150                                
PRCFAMCHA080301155108155117000009CC Disclaimer - FAST - Generic (:09-:10)                                                                                    150                                
PGRFAMCHA080301155117161355002238Suite Life of Zack & Cody, The                    EP: 25                                                               6068607BCC                              
PROFAMCHA080301161355161433000038Radio Free Roscoe Online Promo REVISION (MD/NS/NSW                                                                          150                                
PROFAMCHA080301161433161522000049Proud Family (APR06) STRIKE (NSW) - Coming Up Next                                                                          150                                
PRCFAMCHA080301161522161602000040Magazine Spot (MD,NS,NSW) 2/3 day (not in PH) (til                                                                          150                                
PROFAMCHA080301161602161614000012xxFamily Bumpers - (Phase 1 Spring 04) - Pillow Fi                                                                          150                                
PROFAMCHA080301161614161709000055Disney Behind The Curtain (MD, NS, NSW) 2 x Day  (                                                                          150                                
PROFAMCHA080301161709161751000042xxSBO - Neds Marathon & Cheetah Girls - Starts Mar                                                                          150                                
PRCFAMCHA080301161751161800000009NSW Bumper - Dodgeball (:07-:09) APR06                                                                                      150                                
ID FAMCHA080301161800161808000008Magic of Disney - NS/NSW/PB - Shape (:06-:09)                                                                               150                                
PRCFAMCHA080301161808161817000009CC Disclaimer - FAST - Family.ca (:08-:10)                                                                                  150                                
PGRFAMCHA080301161817164053002236The Proud Family                                  EP: 2-031                                                           A6068607ECC                              
PRCFAMCHA080301164053164059000006Astral ID (DEC 2007)                                                                                                        150                                
PROFAMCHA080301164059164140000041xxWeb Games Promo - 3xDay MMM, MD, NS, NSW  (Jan 1                                                                          150                                
PROFAMCHA080301164140164210000030Kim Possible EVIL (NSW) (MAY07) Coming Up Next                                                                              150                                
PROFAMCHA080301164210164240000030xxHSM - The Ice Tour Revised Blast w/o Toronto REV                                                                          150                                
PROFAMCHA080301164240164342000102Hannah Montana (NSW) Mockumentry - This Afternoon                                                                           150                                
PROFAMCHA080301164342164359000017Zoey 101 (NSW)  ZOEY, ZOEY, ZOEY - Tonight @ 7:20p                                                                          150                                
PRCFAMCHA080301164359164447000048Family Video Player Promo - No Tag 3/day (not in P                                                                          150                                
PRCFAMCHA080301164447164500000013NSW Bumper - Fashion (:12-:14) JUNE06                                                                                       150                                
PRCFAMCHA080301164500164510000010CC Disclaimer - FAST - Generic (:09-:10)                                                                                    150                                
PGRFAMCHA080301164510170802002252Disney's Kim Possible                             EP: 24                                                              A6068607ECC                              
PROFAMCHA080301170802170846000044xxSBO - Event/Contest Spot - 3 X Day in MD, NS, NS                                                                          150                                
PROFAMCHA080301170846170916000030Phineas & Ferb (NSW) Phineas Character Sell - Comi                                                                          150                                
PROFAMCHA080301170916170954000038xxBratz Kidz Fairy Tales DVD Contest - Available N                                                                          150                                
PROFAMCHA080301170954171028000034Hannah Montana (NSW) Wig Auditions - This Afternoo                                                                          150                                
PROFAMCHA080301171028171105000037Naturally Sadie - TEENAGE (NSW) Saturday Night @ 6                                                                          150                                
PRCFAMCHA080301171105171153000048Family Video Player Promo - No Tag 3/day (not in P                                                                          150                                
PRCFAMCHA080301171153171210000017NSW Bumper - Tennis (:15-:17) APR06                                                                                         150                                
PGRFAMCHA080301171210172412001202Phineas & Ferbuary                                EP: 11B                                                              6028607E                                
PRCFAMCHA080301172412172418000006Astral ID (DEC 2007)                                                                                                        150                                
PRCFAMCHA080301172418172429000011NSW - 18 - HANNAH/SADIE (:11 - :13) (SEPT07)                                                                                150                                
PROFAMCHA080301172429172503000034Hannah Montana (NS) Wig Auditions - Coming Up Next                                                                          150                                
PROFAMCHA080301172503172533000030xxHSM - The Ice Tour Revised Blast w/o Toronto REV                                                                          150                                
PROFAMCHA080301172533172610000037Naturally Sadie - TEENAGE (NSW) Saturday Night @ 6                                                                          150                                
PGRFAMCHA080301172610173110000500Shorty McShorts - Eps 15 - Mascot Prep                                                                                A6068807E                                
PROFAMCHA080301173110173146000036Flight 29 Down - (NSW) Tonight @ 6:30pm (JUNE07)                                                                            150                                
PGRFAMCHA080301173146173300000114Latest Buzz Podcast (NS) Actor Tease 2 - Prems Mar                                                                    A60288120                                
PROFAMCHA080301173300173320000020That's So Raven (JUNE06) NO PANTS (NSW) - Tonight                                                                           150                                
PROFAMCHA080301173320173330000010FAMJAM - Open/Close                                                                                                         150                                
PGRFAMCHA080301173330173739000409MV Disney - (MD/NS/NSW) - Jesse McCartney - Just S                                                                     60688120                                
PROFAMCHA080301173739173753000014xxFAMJAM - Close (FAMILY) xxDNUxx                                                                                           150                                
PROFAMCHA080301173753173835000042SBO - Triple Play Promo - March 10-14 & 17-21 Star                                                                          150                                
PRCFAMCHA080301173835173843000008NSW Bumper - Dodgeball (:07-:09) APR06                                                                                      150                                
ID FAMCHA080301173843173852000009Magic of Disney - NS/NSW/PB - Wipe (:06-:09)                                                                                150                                
PRCFAMCHA080301173852173902000010CC Disclaimer - FAST - Generic (:09-:10)                                                                                    150                                
PGRFAMCHA080301173902180140002238Hannah Montana                                    EP: 17                                                               6068807BCC                              
PRCFAMCHA080301180140180153000013NSW - 19 - SADIE/FLIGHT 29 DOWN (:11 - :13) (SEPT0                                                                          150                                
PROFAMCHA080301180153180235000042xxSBO - Neds Marathon & Cheetah Girls - Starts Mar                                                                          150                                
PROFAMCHA080301180235180312000037Naturally Sadie - TEENAGE (NSW) NEXT (MAY07)                                                                                150                                
PROFAMCHA080301180312180346000034xxFamJam CD - Available March 4 (Feb 26 - March 3)                                                                          150                                
PROFAMCHA080301180346180422000036Flight 29 Down - (NSW) Tonight @ 6:30pm (JUNE07)                                                                            150                                
PROFAMCHA080301180422180502000040xxLittlest Pet Shop Favourite VIP Contest - DOG (F                                                                          150                                
PROFAMCHA080301180502180538000036xxSBO - High School Musical 2 Sing Along Version -                                                                          150                                
PRCFAMCHA080301180538180550000012NSW Bumper - Fashion (:12-:14) JUNE06                                                                                       150                                
PRCFAMCHA080301180550180600000010CC Disclaimer - FAST - Family.ca (:08-:10)                                                                                  150                                
PGRFAMCHA080301180600182830002230Naturally, Sadie                                  EP: 54                                                        A39176 1055607ACC3                             
PRCFAMCHA080301182830182836000006Astral ID (DEC 2007)                                                                                                        150                                
PRCFAMCHA080301182836182849000013NSW - 20 - FLIGHT 29 DOWN/RAVEN (:11 - :13) (SEPT0                                                                          150                                
PROFAMCHA080301182849182925000036Flight 29 Down - (NSW) Coming Up Next (JUNE07)                                                                              150                                
PROFAMCHA080301182925182957000032xxJonas Brothers CD Blast - Available Now $$$                                                                               150                                
PRCFAMCHA080301182957183004000007xxFamily Bumpers - (Phase 2 F/W 04) - Hockey (MD-L                                                                          150                                
PRCFAMCHA080301183004183034000030xxCineplex Latest Buzz Popcorn Parties Pre-Launch                                                                           150                                
PRCFAMCHA080301183034183045000011Naturally Sadie ID's - I'm Charlotte, you're watch                                                                          150                                
PRCFAMCHA080301183045183100000015NSW Bumper - Tennis (:15-:17) APR06                                                                                         150                                
PGRFAMCHA080301183100185231002131Flight 29 Down                                    EP: 23                                                               2068807A                                
PRCFAMCHA080301185231185242000011NSW - 21 - RAVEN/ZOEY 101 (:11 - :13) (SEPT07)                                                                              150                                
PROFAMCHA080301185242185312000030That's So Raven (SCREAM) (NSW) Coming Up Next (APR                                                                          150                                
PROFAMCHA080301185312185349000037xxBarbie Mariposa DVD Blast - Available Now REVISI                                                                          150                                
PROFAMCHA080301185349185406000017Zoey 101 (NSW)  ZOEY, ZOEY, ZOEY - Tonight @ 7:20p                                                                          150                                
PROFAMCHA080301185406185416000010FAMJAM - Open/Close                                                                                                         150                                
PGRFAMCHA080301185416185516000100MV Disney - (MD/NS/NSW) - Jesse McCartney - Just S                                                                     60688120                                
PROFAMCHA080301185516185530000014xxFAMJAM - Close (FAMILY) xxDNUxx                                                                                           150                                
PRCFAMCHA080301185530185600000030Life with Derek (NSW) MORE FUN (OCT06) Tonight @ 7                                                                          150                                
PROFAMCHA080301185600185638000038Radio Free Roscoe Online Promo REVISION (MD/NS/NSW                                                                          150                                
PRCFAMCHA080301185638185645000007NSW Bumper - Dodgeball (:07-:09) APR06                                                                                      150                                
ID FAMCHA080301185645185651000006Magic of Disney - NS/NSW/PB - Shape (:06-:09)                                                                               150                                
PRCFAMCHA080301185651185700000009CC Disclaimer - FAST - Family.ca (:08-:10)                                                                                  150                                
PGRFAMCHA080301185700191939002239That's So Raven                                   EP: 1-006                                                            6068607BCC                              
PRCFAMCHA080301191939191945000006Astral ID (DEC 2007)                                                                                                        150                                
PRCFAMCHA080301191945191958000013NSW - 21 - ZOEY 101/LIFE WITH DEREK (:11 - :13) (S                                                                          150                                
PROFAMCHA080301191958192018000020Zoey 101 - He Loves Her 1 - (NSW) Coming Up Next (                                                                          150                                
PROFAMCHA080301192018192055000037xx101 Dalmatians Blast - Available March 4 (Feb 21                                                                          150                                
PROFAMCHA080301192055192102000007xxFamily Bumpers - (Phase 2 F/W 04) - Snow Twirl (                                                                          150                                
PRCFAMCHA080301192102192132000030xxCineplex Latest Buzz Popcorn Parties Pre-Launch                                                                           150                                
PROFAMCHA080301192132192138000006Phil of the Future IDs - Your Watching Family...NA                                                                          150                                
PRCFAMCHA080301192138192151000013NSW Bumper - Fashion (:12-:14) JUNE06                                                                                       150                                
PRCFAMCHA080301192151192201000010CC Disclaimer - FAST - Generic (:09-:10)                                                                                    150                                
PGRFAMCHA080301192201194433002232Zoey 101                                          EPS # 11                                                             2068807BCC                              
PRCFAMCHA080301194433194446000013NSW - 22 - LIFE WITH DEREK/SUITE LIFE (:11 - :13)                                                                           150                                
PRCFAMCHA080301194446194524000038Life W D (NSW) Edwin Mystery Man - Coming Up Next                                                                           150                                
PROFAMCHA080301194524194554000030xxHSM - The Ice Tour Revised Blast w/o Toronto REV                                                                          150                                
PROFAMCHA080301194554194627000033Suite Life of Z & C SCOUT (NSW) - Tonight @ 8:15pm                                                                          150                                
PROFAMCHA080301194627194703000036xxSBO - High School Musical 2 Sing Along Version -                                                                          150                                
PROFAMCHA080301194703194743000040xxSBO - Cheetah Girls 1 & 2 Promo - March 21 @ 7:3                                                                          150                                
PRCFAMCHA080301194743194800000017NSW Bumper - Tennis (:15-:17) APR06                                                                                         150                                
PRCFAMCHA080301194800194809000009CC Disclaimer - FAST - Family.ca (:08-:10)                                                                                  150                                
PGRFAMCHA080301194809201039002230Life with Derek                                   EP: 18                                                        C26679A1055607BCC3                             
PRCFAMCHA080301201039201045000006Astral ID (DEC 2007)                                                                                                        150                                
PRCFAMCHA080301201045201058000013NSW - 23 - SUITE LIFE/HANNAH (:11 - :13) (SEPT07)                                                                           150                                
PROFAMCHA080301201058201135000037xx101 Dalmatians Blast - Available March 4 (Feb 21                                                                          150                                
PRCFAMCHA080301201135201143000008NSW Bumper - Dodgeball (:07-:09) APR06                                                                                      150                                
ID FAMCHA080301201143201151000008Magic of Disney - NS/NSW/PB - Wipe (:06-:09)                                                                                150                                
PRCFAMCHA080301201151201200000009CC Disclaimer - FAST - Generic (:09-:10)                                                                                    150                                
PGRFAMCHA080301201200203440002240Suite Life of Zack & Cody, The                    EP: 14                                                               6068607BCC                              
PRCFAMCHA080301203440203451000011NSW - 24 - HANNAH/NIGHTLY PIX (:11 - :13) (SEPT07)                                                                          150                                
PROFAMCHA080301203451203531000040xxLittlest Pet Shop Favourite VIP Contest - DOG (F                                                                          150                                
PRCFAMCHA080301203531203543000012NSW Bumper - Fashion (:12-:14) JUNE06                                                                                       150                                
ID FAMCHA080301203543203551000008Magic of Disney - NS/NSW/PB - Shape (:06-:09)                                                                               150                                
PRCFAMCHA080301203551203600000009CC Disclaimer - FAST - Family.ca (:08-:10)                                                                                  150                                
PGRFAMCHA080301203600205838002238Hannah Montana                                    EP: 08                                                               6068807BCC                              
PRCFAMCHA080301205838205844000006Astral ID (DEC 2007)                                                                                                        150                                
PRCFAMCHA080301205844205857000013NSW - 25 - N PIX/MOVIE ENT/N PIX(:11 - :13) (SEPT0                                                                          150                                
PROFAMCHA080301205857205933000036xxSBO - High School Musical 2 Sing Along Version -                                                                          150                                
PRCFAMCHA080301205933205950000017NSW Bumper - Tennis (:15-:17) APR06                                                                                         150                                
ID FAMCHA080301205950210000000010Rating - PG - Nightly Pix Only  (DEC05) (:08 - :10                                                                          150                                
PGRFAMCHA080301210000224134014134Horse Whisperer, The                                                                                                  B6068807DCC                              
PGRFAMCHA080301224134234919010745Horse Whisperer, The                                                                                                  B6068807DCC                              
PROFAMCHA080301234919234932000013xxNightly Pix Movie Open (:10-:15)                                                                                          150                                
PRCFAMCHA080301234932000532001600Movie Entertainment (8)                                                                                               B     150                                
PROFAMCHA080301000532000542000010xxNightly Pix Movie Open (:10-:15)                                                                                          150                                
ID FAMCHA080301000542000551000009Rating - PG - Nightly Pix Only  (DEC05) (:08 - :10                                                                          150                                
PRCFAMCHA080301000551000600000009CC Disclaimer - SLOW - Generic (:08-:10)                                                                                    150                                
PGRFAMCHA080301000600014321013721Dancer, Texas                                                                                                         B2068807DCC                              
PRCFAMCHA080301014321014327000006Astral ID (DEC 2007)                                                                                                        150                                
PROFAMCHA080301014327014403000036xxSBO - High School Musical 2 Sing Along Version -                                                                          150                                
PROFAMCHA080301014403014434000031Phineas & Ferb (NSW) Perry Character Sell - New Ep                                                                          150                                
PROFAMCHA080301014434014518000044xxSBO - Event/Contest Spot - 3 X Day in MD, NS, NS                                                                          150                                
PROFAMCHA080301014518014536000018Nonstop Weekend Block Open (:16-:18) APR06                                                                                  150                                
ID FAMCHA080301014536014545000009Magic of Disney - NS/NSW/PB - Shape (:06-:09)                                                                               150                                
PRCFAMCHA080301014545014555000010CC Disclaimer - SLOW - Family.ca (:08-:10)                                                                                  150                                
PGRFAMCHA080301014555020823002228Smart Guy                                         EP: 1-001                                                            6068807BCC                              
PRCFAMCHA080301020823020835000012NSW - 31 - BOY MEETS WORLD/DEREK (:11 - :13) (SEPT                                                                          150                                
PRCFAMCHA080301020835020843000008NSW Bumper - Dodgeball (:07-:09) APR06                                                                                      150                                
ID FAMCHA080301020843020851000008Magic of Disney - NS/NSW/PB - Wipe (:06-:09)                                                                                150                                
PRCFAMCHA080301020851020900000009CC Disclaimer - SLOW - Generic (:08-:10)                                                                                    150                                
PGRFAMCHA080301020900023124002224Boy Meets World                                   EP: 1-035                                                           B6068807BCC                              
PRCFAMCHA080301023124023130000006Astral ID (DEC 2007)                                                                                                        150                                
PRCFAMCHA080301023130023143000013NSW - 32 - DEREK/CORY IN THE HOUSE (:11 - :13) (SE                                                                          150                                
PROFAMCHA080301023143023202000019Phineas & Ferb (NSW) Ferb Tease - New Episodes on                                                                           150                                
PRCFAMCHA080301023202023216000014NSW Bumper - Fashion (:12-:14) JUNE06                                                                                       150                                
PRCFAMCHA080301023216023226000010CC Disclaimer - SLOW - Family.ca (:08-:10)                                                                                  150                                
PGRFAMCHA080301023226025456002230Life with Derek                                   EP: 11                                                        C23968A1065607BCC                              
PRCFAMCHA080301025456025509000013NSW - 33 - CORY IN THE HOUSE/RAVEN (:11 - :13) (SE                                                                          150                                
PRCFAMCHA080301025509025526000017NSW Bumper - Tennis (:15-:17) APR06                                                                                         150                                
ID FAMCHA080301025526025534000008Magic of Disney - NS/NSW/PB - Wipe (:06-:09)                                                                                150                                
PRCFAMCHA080301025534025543000009CC Disclaimer - SLOW - Generic (:08-:10)                                                                                    150                                
PGRFAMCHA080301025543031822002239Cory in the House                                 EP: 05                                                               6068607BCC                              
PRCFAMCHA080301031822031828000006Astral ID (DEC 2007)                                                                                                        150                                
PRCFAMCHA080301031828031841000013NS - 21 - RAVEN/ SUITE LIFE (:11 - :13) (SEPT07)                                                                            150                                
PRCFAMCHA080301031841031850000009NSW Bumper - Dodgeball (:07-:09) APR06                                                                                      150                                
ID FAMCHA080301031850031859000009Magic of Disney - NS/NSW/PB - Shape (:06-:09)                                                                               150                                
PRCFAMCHA080301031859031909000010CC Disclaimer - SLOW - Family.ca (:08-:10)                                                                                  150                                
PGRFAMCHA080301031909034146002237That's So Raven                                   EPS # 1-051                                                          6068607BCC                              
PRCFAMCHA080301034146034159000013NSW - 35 - SUITE LIFE/DEREK (:11 - :13) (SEPT07)                                                                            150                                
PRCFAMCHA080301034159034213000014NSW Bumper - Fashion (:12-:14) JUNE06                                                                                       150                                
ID FAMCHA080301034213034222000009Magic of Disney - NS/NSW/PB - Wipe (:06-:09)                                                                                150                                
PRCFAMCHA080301034222034232000010CC Disclaimer - SLOW - Generic (:08-:10)                                                                                    150                                
PGRFAMCHA080301034232040512002240Suite Life of Zack & Cody, The                    EP: 56                                                               6068607BCC                              
PRCFAMCHA080301040512040518000006Astral ID (DEC 2007)                                                                                                        150                                
PRCFAMCHA080301040518040531000013NSW - 36 - LIFE WITH DEREK (:11 - :13) (SEPT07)                                                                             150                                
PRCFAMCHA080301040531040547000016NSW Bumper - Tennis (:15-:17) APR06                                                                                         150                                
PRCFAMCHA080301040547040557000010CC Disclaimer - SLOW - Family.ca (:08-:10)                                                                                  150                                
PGRFAMCHA080301040557042827002230Life with Derek                                   EP: 21                                                        C26679A1065607BCC                              
PRCFAMCHA080301042827042843000016PH - 20 - HENRY'S/BENJAMIN/FRANNY'S (:14 - :16) (S                                                                          150                                
PRCFAMCHA080301042843042913000030Benjamin Bear - (PH-Wknd) (OCT06) - This Morn @ 4:                                                                          150                                
PRCFAMCHA080301042913042943000030Franny's Feet - Concept (APR06)(PH-Wknd) - This Mo                                                                          150                                
ID FAMCHA080301042943042958000015PS Playhouse AM Block Open (:10-:15)                                                                                        150                                
OFFFAMCHA080301042958043000000002OFF AIR                                                                                                                                                        
SO FAMCHA080302043000043011000011Sign On (oct 1)                                                                                                                                                
PRCFAMCHA080302043011043020000009CC Disclaimer - FAST - Generic (:09-:10)                                                                                    150                                
PGRFAMCHA080302043020045420002400Henry's World                                     EP: 2-020                                                     B81051A1065607GCC                              
PRCFAMCHA080302045420045426000006Astral ID (DEC 2007)                                                                                                        150                                
PRCFAMCHA080302045426045442000016PH - 21 - BENJAMIN/FRANNY'S/KING(:14 - :16) (SEPT0                                                                          150                                
ID FAMCHA080302045442045455000013PS Playhouse AM Block Open (:10-:15)                                                                                        150                                
PRCFAMCHA080302045455045504000009CC Disclaimer - FAST - Family.ca (:08-:10)                                                                                  150                                
PGRFAMCHA080302045504051740002236The Secret World Of Benjamin Bear                 EPS # 1-006                                                   B75151 1065607ECC                              
PRCFAMCHA080302051740051755000015PH - 22 - FRANNY'S/KING (:14 - :16) (SEPT07)                                                                                150                                
ID FAMCHA080302051755051808000013PS Playhouse AM Block Open (:10-:15)                                                                                        150                                
PRCFAMCHA080302051808051817000009CC Disclaimer - FAST - Generic (:09-:10)                                                                                    150                                
PGRFAMCHA080302051817054047002230Franny's Feet                                     EPS # 19                                                      C23971 1065607ECC                              
PRCFAMCHA080302054047054053000006Astral ID (DEC 2007)                                                                                                        150                                
PRCFAMCHA080302054053054108000015PH - 23 - KING (:14 - :16) (SEPT07)                                                                                         150                                
ID FAMCHA080302054108054121000013PS Playhouse AM Block Open (:10-:15)                                                                                        150                                
PRCFAMCHA080302054121054130000009CC Disclaimer - FAST - Family.ca (:08-:10)                                                                                  150                                
PGRFAMCHA080302054130060400002230King                                              EP: 002                                                       B75757 1065607ECC                              
PROFAMCHA080302060400060418000018Jetix Block Open (:18-:21)                                                                                                  150                                
PRCFAMCHA080302060418060427000009CC Disclaimer - FAST - Generic (:09-:10)                                                                                    150                                
PGRFAMCHA080302060427062659002232Power Rangers:  Operation Overdrive               EP: 17                                                               2068607ECC                              
PRCFAMCHA080302062659062705000006Astral ID (DEC 2007)                                                                                                        150                                
PROFAMCHA080302062705062749000044xxSBO - Event/Contest Spot - 3 X Day in MD, NS, NS                                                                          150                                
PROFAMCHA080302062749062754000005Jetix Bumper (Sept 06)                                                                                                      150                                
PRCFAMCHA080302062754062834000040Magazine Spot (MD,NS,NSW) 2/3 day (not in PH) (til                                                                          150                                
PROFAMCHA080302062834062852000018Jetix Block Open (:18-:21)                                                                                                  150                                
PRCFAMCHA080302062852062900000008CC Disclaimer - FAST - Family.ca (:08-:10)                                                                                  150                                
PGRFAMCHA080302062900065132002232Power Rangers Jungle Fury                         EP: 02                                                               2068607ACC                              
PROFAMCHA080302065132065214000042SBO - Triple Play Promo - March 10-14 & 17-21 Star                                                                          150                                
PROFAMCHA080302065214065221000007xxFamily Bumpers - (Phase 2 F/W 04) - Snow Twirl (                                                                          150                                
PROFAMCHA080302065221065251000030Popcorn Pix - Slapstick - Today @ Noon                                                                                      150                                
PROFAMCHA080302065251065332000041xxWeb Games Promo - 3xDay MMM, MD, NS, NSW  (Jan 1                                                                          150                                
PROFAMCHA080302065332065351000019Jetix Block Open (:18-:21)                                                                                                  150                                
PRCFAMCHA080302065351065400000009CC Disclaimer - FAST - Generic (:09-:10)                                                                                    150                                
PGRFAMCHA080302065400071631002231Yin Yang Yo!                                      EP: 01                                                               2068607ECC                              
PRCFAMCHA080302071631071637000006Astral ID (DEC 2007)                                                                                                        150                                
PRCFAMCHA080302071637071725000048Family Video Player Promo - No Tag 3/day (not in P                                                                          150                                
PROFAMCHA080302071725071803000038xxBratz Kidz Fairy Tales DVD Contest - Available N                                                                          150                                
PROFAMCHA080302071803071841000038Radio Free Roscoe Online Promo REVISION (MD/NS/NSW                                                                          150                                
PRCFAMCHA080302071841071911000030xxCineplex Latest Buzz Popcorn Parties Pre-Launch                                                                           150                                
PROFAMCHA080302071911071932000021xxPHD Promo - PHD 24/7 TV Channel (Dec 10 - till?)                                                                          150                                
PROFAMCHA080302071932071951000019Jetix Block Open (:18-:21)                                                                                                  150                                
PRCFAMCHA080302071951072000000009CC Disclaimer - FAST - Family.ca (:08-:10)                                                                                  150                                
PGRFAMCHA080302072000074244002244Pucca                                             EP: 03                                                               2068607ECC                              
PRCFAMCHA080302074244074255000011NSW - 01 - HANNAH/SUITE LIFE (:11 - :13) (SEPT07)                                                                           150                                
PROFAMCHA080302074255074324000029Hannah Montana SCIENCE (NSW) - Coming Up Next (SEP                                                                          150                                
PROFAMCHA080302074324074401000037xx101 Dalmatians Blast - Available March 4 (Feb 21                                                                          150                                
PROFAMCHA080302074401074440000039Suite Life of Z & C - NSW - GIRLFRIEND 1 - This Mo                                                                          150                                
PROFAMCHA080302074440074450000010FAMJAM - Open/Close                                                                                                         150                                
PGRFAMCHA080302074450074550000100MV Disney - (MD/NS/NSW) - Jesse McCartney - Just S                                                                     60288120                                
PROFAMCHA080302074550074604000014xxFAMJAM - Close (FAMILY) xxDNUxx                                                                                           150                                
PROFAMCHA080302074604074621000017Zoey 101 (NSW)  ZOEY, ZOEY, ZOEY - This Morning @                                                                           150                                
PROFAMCHA080302074621074658000037xxBarbie Mariposa DVD Blast - Available Now REVISI                                                                          150                                
PROFAMCHA080302074658074728000030Popcorn Pix - Slapstick - Today @ Noon                                                                                      150                                
PROFAMCHA080302074728074744000016Nonstop Weekend Block Open (:16-:18) APR06                                                                                  150                                
ID FAMCHA080302074744074751000007Magic of Disney - NS/NSW/PB - Shape (:06-:09)                                                                               150                                
PRCFAMCHA080302074751074800000009CC Disclaimer - FAST - Generic (:09-:10)                                                                                    150                                
PGRFAMCHA080302074800081038002238Hannah Montana                                    EP: 17                                                               6068807BCC                              
PRCFAMCHA080302081038081044000006Astral ID (DEC 2007)                                                                                                        150                                
PRCFAMCHA080302081044081055000011NSW - 02 - SUITE LIFE/ZOEY 101 (:11 - :13) (SEPT07                                                                          150                                
PROFAMCHA080302081055081134000039Suite Life of Z & C - NSW - GIRLFRIEND 1 - Coming                                                                           150                                
PROFAMCHA080302081134081207000033xxHorton Hears A Who - Available March 14 (Feb 25-                                                                          150                                
PROFAMCHA080302081207081237000030Zoey 101 - QUINN (NSW) (MAR07) - This morning @ 8:                                                                          150                                
PROFAMCHA080302081237081309000032xxJonas Brothers CD Blast - Available Now $$$                                                                               150                                
PROFAMCHA080302081309081352000043Cory In The House (NSW) (MAR07) - This morning @ 9                                                                          150                                
PROFAMCHA080302081352081430000038Radio Free Roscoe Online Promo REVISION (MD/NS/NSW                                                                          150                                
PRCFAMCHA080302081430081445000015NSW Bumper - Tennis (:15-:17) APR06                                                                                         150                                
ID FAMCHA080302081445081451000006Magic of Disney - MAD DASH - Wipe (:06-:09)                                                                                 150                                
PRCFAMCHA080302081451081500000009CC Disclaimer - FAST - Family.ca (:08-:10)                                                                                  150                                
PGRFAMCHA080302081500083731002231Suite Life of Zack and Cody, The                  EP: 19                                                               6068607BCC                              
PRCFAMCHA080302083731083744000013NSW - 03 - ZOEY 101/CORY IN THE HOUSE (:11 - :13)                                                                           150                                
PROFAMCHA080302083744083828000044xxSBO - Event/Contest Spot - 3 X Day in MD, NS, NS                                                                          150                                
PROFAMCHA080302083828083845000017Zoey 101 (NSW)  ZOEY, ZOEY, ZOEY - Coming Up Next                                                                           150                                
PROFAMCHA080302083845083915000030xxHSM - The Ice Tour Revised Blast w/o Toronto REV                                                                          150                                
PROFAMCHA080302083915083958000043Cory In The House (NSW) (MAR07) - This morning @ 9                                                                          150                                
PGRFAMCHA080302083958084127000129xxReally Short Report - Hannah Montana: One in a M                                                                    A60688120                                
PROFAMCHA080302084127084149000022That's So Raven (BEAR) (NSW) This Morning @ 9:40 (                                                                          150                                
PROFAMCHA080302084149084223000034xxFamJam CD - Available March 4 (Feb 26 - March 3)                                                                          150                                
PROFAMCHA080302084223084239000016Phil of the Future IDs - Aly Mr. Potato head - fam                                                                          150                                
PRCFAMCHA080302084239084251000012NSW Bumper - Fashion (:12-:14) JUNE06                                                                                       150                                
PRCFAMCHA080302084251084300000009CC Disclaimer - FAST - Generic (:09-:10)                                                                                    150                                
PGRFAMCHA080302084300090533002233Zoey 101                                          EPS # 12                                                             2068807BCC                              
PRCFAMCHA080302090533090539000006Astral ID (DEC 2007)                                                                                                        150                                
PRCFAMCHA080302090539090550000011NSW - 04 - CORY IN THE HOUSE/RAVEN (:11 - :13) (SE                                                                          150                                
PROFAMCHA080302090550090632000042SBO - Triple Play Promo - March 10-14 & 17-21 Star                                                                          150                                
PROFAMCHA080302090632090715000043Cory In The House (NSW) (MAR07) - Coming Up Next                                                                            150                                
PROFAMCHA080302090715090753000038xxBratz Kidz Fairy Tales DVD Contest - Available N                                                                          150                                
PROFAMCHA080302090753090823000030That's So Raven (SCREAM) (NSW) This Mornings @ 9:4                                                                          150                                
PROFAMCHA080302090823090833000010FAMJAM - Open/Close                                                                                                         150                                
PGRFAMCHA080302090833090950000117MV Disney - (MD/NS/NSW) - Jesse McCartney - Just S                                                                     60688120                                
PROFAMCHA080302090950091004000014xxFAMJAM - Close (FAMILY) xxDNUxx                                                                                           150                                
PROFAMCHA080302091004091034000030Wizards of Waverrly Place JUSTIN (NSW) - This Morn                                                                          150                                
PROFAMCHA080302091034091111000037xxBarbie Mariposa DVD Blast - Available Now REVISI                                                                          150                                
PROFAMCHA080302091111091141000030Popcorn Pix - Slapstick - Today @ Noon                                                                                      150                                
PRCFAMCHA080302091141091148000007NSW Bumper - Dodgeball (:07-:09) APR06                                                                                      150                                
ID FAMCHA080302091148091154000006Magic of Disney - NS/NSW/PB - Shape (:06-:09)                                                                               150                                
PRCFAMCHA080302091154091204000010CC Disclaimer - FAST - Family.ca (:08-:10)                                                                                  150                                
PGRFAMCHA080302091204093436002232Cory in the House Season 2                        EP: 01                                                               6068607BCC                              
PRCFAMCHA080302093436093449000013NSW - 05 - RAVEN/PHIL (:11 - :13) (SEPT07)                                                                                  150                                
PROFAMCHA080302093449093529000040xxSBO - Cheetah Girls 1 & 2 Promo - March 21 @ 7:3                                                                          150                                
PROFAMCHA080302093529093551000022That's So Raven (BEAR) (NSW) Coming Up Next (APR07                                                                          150                                
PROFAMCHA080302093551093628000037xx101 Dalmatians Blast - Available March 4 (Feb 21                                                                          150                                
PRCFAMCHA080302093628093635000007xxFamily Bumpers - (Phase 2 F/W 04) - Hockey (MD-L                                                                          150                                
PROFAMCHA080302093635093645000010FAMJAM - Open/Close                                                                                                         150                                
PGRFAMCHA080302093645093815000130MV Disney - (MD/NS/NSW) - Jesse McCartney - Just S                                                                     60688120                                
PROFAMCHA080302093815093829000014xxFAMJAM - Close (FAMILY) xxDNUxx                                                                                           150                                
PROFAMCHA080302093829093859000030xxWizards of Waverrly Place SIBLING (NSW) - This M                                                                          150                                
PROFAMCHA080302093859093933000034xxFamJam CD - Available March 4 (Feb 26 - March 3)                                                                          150                                
PRCFAMCHA080302093933094021000048Family Video Player Promo - No Tag 3/day (not in P                                                                          150                                
PRCFAMCHA080302094021094038000017NSW Bumper - Tennis (:15-:17) APR06                                                                                         150                                
ID FAMCHA080302094038094047000009Magic of Disney - NS/NSW/PB - Wipe (:06-:09)                                                                                150                                
PRCFAMCHA080302094047094057000010CC Disclaimer - FAST - Generic (:09-:10)                                                                                    150                                
PGRFAMCHA080302094057100336002239That's So Raven                                   EP: 092                                                              6068607BCC                              
PRCFAMCHA080302100336100342000006Astral ID (DEC 2007)                                                                                                        150                                
PROFAMCHA080302100342100424000042xxSBO - Neds Marathon & Cheetah Girls - Starts Mar                                                                          150                                
PROFAMCHA080302100424100454000030Wizards of Waverrly Place JUSTIN (NSW) - This Morn                                                                          150                                
PROFAMCHA080302100454100524000030xxHSM - The Ice Tour Revised Blast w/o Toronto REV                                                                          150                                
PROFAMCHA080302100524100536000012xxFamily Bumpers - (Phase 1 Spring 04) - Pillow Fi                                                                          150                                
PROFAMCHA080302100536100546000010FAMJAM - Open/Close                                                                                                         150                                
PGRFAMCHA080302100546100813000227MV Disney - (MD/NS/NSW) - Jesse McCartney - Just S                                                                     60688120                                
PROFAMCHA080302100813100827000014xxFAMJAM - Close (FAMILY) xxDNUxx                                                                                           150                                
PROFAMCHA080302100827100858000031Ned's DSSG - Cookie Clip (APR06)(NSW) This Morning                                                                          150                                
PRCFAMCHA080302100858100928000030xxCineplex Latest Buzz Popcorn Parties Pre-Launch                                                                           150                                
PROFAMCHA080302100928100935000007Phil of the Future IDs - I'm Ricky Ullman, stay tu                                                                          150                                
PRCFAMCHA080302100935100949000014NSW Bumper - Fashion (:12-:14) JUNE06                                                                                       150                                
ID FAMCHA080302100949100957000008Magic of Disney - NS/NSW/PB - Shape (:06-:09)                                                                               150                                
PGRFAMCHA080302100957103233002236Phil of the Future Yr 2                           EP: 37                                                               6068607BCC                              
PROFAMCHA080302103233103317000044xxSBO - Event/Contest Spot - 3 X Day in MD, NS, NS                                                                          150                                
PROFAMCHA080302103317103347000030xxWizards of Waverrly Place SIBLING (NSW) - Coming                                                                          150                                
PROFAMCHA080302103347103425000038xxBratz Kidz Fairy Tales DVD Contest - Available N                                                                          150                                
PROFAMCHA080302103425103433000008xxFamily Bumpers - (Phase 2 F/W 04) - Snow Ball (M                                                                          150                                
PROFAMCHA080302103433103443000010FAMJAM - Open/Close                                                                                                         150                                
PGRFAMCHA080302103443103543000100MV Disney - (MD/NS/NSW) - Jesse McCartney - Just S                                                                     60688120                                
PROFAMCHA080302103543103557000014xxFAMJAM - Close (FAMILY) xxDNUxx                                                                                           150                                
PROFAMCHA080302103557103640000043Ned's DSSG (NSW) Too Cool for School  - This Morni                                                                          150                                
PRCFAMCHA080302103640103720000040Magazine Spot (MD,NS,NSW) 2/3 day (not in PH) (til                                                                          150                                
PROFAMCHA080302103720103753000033Suite Life of Z & C SCOUT (NSW) - This Morning @ 1                                                                          150                                
PRCFAMCHA080302103753103800000007NSW Bumper - Dodgeball (:07-:09) APR06                                                                                      150                                
PRCFAMCHA080302103800103809000009CC Disclaimer - FAST - Generic (:09-:10)                                                                                    150                                
PGRFAMCHA080302103809110040002231Disney Wizards of Waverly Place                   EP: 13                                                               6068607BCC                              
