SO FAMCHA090201043000043011000011Sign On (oct 1)                                                                                                                                                
PRCFAMCHA090201043011043020000009CC Disclaimer - FAST - Generic (:09-:10)                                                                                    150                                
PGRFAMCHA090201043020045423002403Henry's World                                     EP: 2-014                                                     B81045A1065607GCC                              
PRCFAMCHA090201045423045436000013FJR - 15 - BENJAMIN BEAR / FRANNY'S FEET (SEPT08)                                                                           150                                
PRCFAMCHA090201045436045450000014Family Jr. Bumper - Portal (:14- :17) (JUL08)                                                                               150                                
PRCFAMCHA090201045450045459000009CC Disclaimer - FAST - Family.ca (:09-:10)                                                                                  150                                
PGRFAMCHA090201045459051728002229Secret World of Benjamin Bear, The                EP: 16                                                        C26066 1065607ECC                              
PRCFAMCHA090201051728051734000006Astral ID (DEC 2007)                                                                                                        150                                
PRCFAMCHA090201051734051746000012FJR - 16 - FRANNY'S FEET / KING (SEPT08)                                                                                    150                                
PRCFAMCHA090201051746051758000012Family Jr. Bumper - Music (:11- :14) (JUL08)                                                                                150                                
PRCFAMCHA090201051758051807000009CC Disclaimer - FAST - Generic (:09-:10)                                                                                    150                                
PGRFAMCHA090201051807054037002230Franny's Feet                                     EPS # 1-002                                                   C23970A1065607ECC                              
PRCFAMCHA090201054037054048000011FJR - 17 - KING (SEPT08)                                                                                                    150                                
PRCFAMCHA090201054048054100000012Family Jr. Bumper - Collide (:11- :14) (JUL08)                                                                              150                                
PRCFAMCHA090201054100054109000009CC Disclaimer - FAST - Family.ca (:09-:10)                                                                                  150                                
PGRFAMCHA090201054109060339002230King                                              EPS # 2-022                                                   B75777 1065607ECC                              
PRCFAMCHA090201060339060345000006Astral ID (DEC 2007)                                                                                                        150                                
PROFAMCHA090201060345060403000018Jetix Block Open (:18-:21)                                                                                                  150                                
PRCFAMCHA090201060403060412000009CC Disclaimer - FAST - Generic (:09-:10)                                                                                    150                                
PGRFAMCHA090201060412062651002239Power Rangers:  Operation Overdrive               EP: 01                                                               2068607ECC                              
PRCFAMCHA090201062651062741000050Family Online Community Promo - 3/4 Day (not in PH                                                                          150                                
PRCFAMCHA090201062741062821000040Really Big Birthdays - April - 3-4 X Day (Feb 1 -                                                                           150                                
PROFAMCHA090201062821062840000019Jetix Block Open (:18-:21)                                                                                                  150                                
PRCFAMCHA090201062840062849000009CC Disclaimer - FAST - Family.ca (:09-:10)                                                                                  150                                
PGRFAMCHA090201062849065121002232Power Rangers Jungle Fury                         EP: 31                                                               2068607ACC                              
PRCFAMCHA090201065121065127000006Astral ID (DEC 2007)                                                                                                        150                                
PRCFAMCHA090201065127065215000048Family Video Player Promo - No Tag 3/day (not in P                                                                          150                                
PROFAMCHA090201065215065255000040HSM Ice Tour Flight 2 Family First ONSALE Version                                                                           150                                
PRCFAMCHA090201065255065338000043Family Day Spot # 1-- 4 X Day MMM, MD, NS, NSW (Ja                                                                          150                                
PROFAMCHA090201065338065357000019Jetix Block Open (:18-:21)                                                                                                  150                                
PRCFAMCHA090201065357065406000009CC Disclaimer - FAST - Generic (:09-:10)                                                                                    150                                
PGRFAMCHA090201065406071611002205Digimon Data Squad                                EP: 22                                                               2068607ECC                              
PRCFAMCHA090201071611071622000011NSW - 00 - NEDS/HANNAH (:11 - :13) (OCT08)                                                                                  150                                
PROFAMCHA090201071622071651000029Hannah Montana - SUPER AWESOME (NSW) This Morning                                                                           150                                
PROFAMCHA090201071651071731000040100 Years on Ice Blast Flight 1- No Hamilton (Jan                                                                           150                                
PROFAMCHA090201071731071811000040Zoey 101 (NSW) SAFETY CUPCAKE - This Morning @ 8:4                                                                          150                                
PROFAMCHA090201071811071901000050Pink Panther 2 Contest - In Theatres Feb 6 (Jan 26                                                                          150                                
PROFAMCHA090201071901071942000041Ned's DSSG (NSW) COOKIE - Coming Up Next (JAN09)                                                                            150                                
PROFAMCHA090201071942071959000017Nonstop Weekend Block Open (:16-:18) APR06                                                                                  150                                
PRCFAMCHA090201071959072008000009CC Disclaimer - FAST - Family.ca (:09-:10)                                                                                  150                                
PGRFAMCHA090201072008074449002441Ned's Declassified School Survival Guide          EP: 15                                                               2068807BCC                              
PRCFAMCHA090201074449074455000006Astral ID (DEC 2007)                                                                                                        150                                
PRCFAMCHA090201074455074506000011NSW - 01 - HANNAH/SUITE LIFE (:11 - :13) (SEPT07)                                                                           150                                
PROFAMCHA090201074506074536000030Wizards of Waverrly Place SIBLING (NSW) - This Mor                                                                          150                                
PROFAMCHA090201074536074616000040Space Buddies DVD Blast  - Available Feb 3 (Jan 19                                                                          150                                
PROFAMCHA090201074616074701000045Suite Life on Deck TWINS (NSW) NEW EPS Today @ 3:5                                                                          150                                
PROFAMCHA090201074701074741000040Oliver & Company 20th Anniversary Edition - Avail                                                                           150                                
PROFAMCHA090201074741074755000014Hannah Montana IDs - (NSW) Miley # 2 - Next                                                                                 150                                
PRCFAMCHA090201074755074811000016NSW Bumper - Tennis (:15-:17) APR06                                                                                         150                                
PRCFAMCHA090201074811074820000009CC Disclaimer - FAST - Family.ca (:09-:10)                                                                                  150                                
PGRFAMCHA090201074820081051002231Hannah Montana - Season 2                         EP: 21                                                               6068807BCC                              
PRCFAMCHA090201081051081103000012NSW - 02 - SUITE LIFE/ZOEY 101 (:11 - :13) (SEPT07                                                                          150                                
PROFAMCHA090201081103081121000018Cory In The House IDs - (NSW) Jason - This Morning                                                                          150                                
PROFAMCHA090201081121081156000035Froot Loops - Black Beak's Log Contest (Jan 19- Fe                                                                          150                                
PROFAMCHA090201081156081250000054That's So Raven FORTUNE TELLER (NSW) This Morning                                                                           150                                
PROFAMCHA090201081250081320000030Phil Of The Future (NSW) POP QUIZ - This Morning @                                                                          150                                
PROFAMCHA090201081320081336000016Suite Life on Deck (NSW) NEW EPS - This Afternoon                                                                           150                                
PROFAMCHA090201081336081416000040Smart Snax - Maple Leaf Scavenger Hunt Contest (Ja                                                                          150                                
PROFAMCHA090201081416081447000031Suite Life of Z & C (NSW) TONY HAWK - Coming Up Ne                                                                          150                                
PRCFAMCHA090201081447081500000013NSW Bumper - Fashion (:12-:14) JUNE06                                                                                       150                                
ID FAMCHA090201081500081508000008Magic of Disney - MAD DASH - Wipe (:06-:09)                                                                                 150                                
PRCFAMCHA090201081508081517000009CC Disclaimer - FAST - Generic (:09-:10)                                                                                    150                                
PGRFAMCHA090201081517083756002239Suite Life of Zack & Cody, The                    EP: 04                                                               6068607BCC                              
PRCFAMCHA090201083756083802000006Astral ID (DEC 2007)                                                                                                        150                                
PRCFAMCHA090201083802083814000012NSW - 03 - ZOEY 101/CORY IN THE HOUSE (:11 - :13)                                                                           150                                
PRCFAMCHA090201083814083831000017Family First Generic Throw - Promo SHORT VERSION -                                                                          150                                
PROFAMCHA090201083831083911000040Coraline Blast  - In Theaters Feb 6 (Jan 15 - Feb                                                                           150                                
PROFAMCHA090201083911083954000043Cory In The House (NSW) (MAR07) - This morning @ 9                                                                          150                                
PROFAMCHA090201083954084004000010FAMJAM - Open/Close                                                                                                         150                                
PGRFAMCHA090201084004084134000130MV Disney - (MD/NS/NSW) - Jesse McCartney - Just S                                                                     60288120                                
PROFAMCHA090201084134084148000014xxFAMJAM - Close (FAMILY) xxDNUxx                                                                                           150                                
PROFAMCHA090201084148084218000030Suite Life on Deck ROOMMATES (NSW) NEW EPS Today @                                                                          150                                
PROFAMCHA090201084218084248000030Zoey 101 - ANGELS (NSW) Coming Up Next (JAN09)                                                                              150                                
PRCFAMCHA090201084248084256000008NSW Bumper - Dodgeball (:07-:09) APR06                                                                                      150                                
PRCFAMCHA090201084256084305000009CC Disclaimer - FAST - Family.ca (:09-:10)                                                                                  150                                
PGRFAMCHA090201084305090635002330Zoey 101                                          EP: 47                                                               2068807BCC                              
PRCFAMCHA090201090635090647000012NSW - 04 - CORY IN THE HOUSE/RAVEN (:11 - :13) (SE                                                                          150                                
PROFAMCHA090201090647090717000030Phil Of The Future (NSW) POP QUIZ - This Morning @                                                                          150                                
PROFAMCHA090201090717090757000040Smart Snax - Maple Leaf Scavenger Hunt Contest (Ja                                                                          150                                
PROFAMCHA090201090757090827000030Wizards of Waverrly Place ALEX (NSW) - This Mornin                                                                          150                                
PROFAMCHA090201090827090910000043Ned's DSSG (NSW) Too Cool for School  - This Morni                                                                          150                                
PRCFAMCHA090201090910090954000044Latest Buzz - ALL WEEK (NS) Mon-Thurs @ 8:30pm & F                                                                          150                                
PROFAMCHA090201090954091044000050Pink Panther 2 Contest - In Theatres Feb 6 (Jan 26                                                                          150                                
PROFAMCHA090201091044091144000100Cory In The House - Cory vs. Sophie (NSW) Coming U                                                                          150                                
PRCFAMCHA090201091144091200000016NSW Bumper - Tennis (:15-:17) APR06                                                                                         150                                
ID FAMCHA090201091200091208000008Magic of Disney - NS/NSW/PB - Shape (:06-:09)                                                                               150                                
PRCFAMCHA090201091208091217000009CC Disclaimer - FAST - Generic (:09-:10)                                                                                    150                                
PGRFAMCHA090201091217093448002231Cory in the House Season 2                        EP: 06                                                               6068607BCC                              
PRCFAMCHA090201093448093454000006Astral ID (DEC 2007)                                                                                                        150                                
PRCFAMCHA090201093454093506000012NSW - 05 - RAVEN/PHIL (:11 - :13) (SEPT07)                                                                                  150                                
PRCFAMCHA090201093506093546000040Really Big Birthdays - April - 3-4 X Day (Feb 1 -                                                                           150                                
PROFAMCHA090201093546093621000035Barbie Pass DREAM BIG Birthday Contest (Jan 5 - Fe                                                                          150                                
PRCFAMCHA090201093621093628000007xxFamily Bumpers - (Phase 2 F/W 04) - Hockey (MD-L                                                                          150                                
PROFAMCHA090201093628093638000010FAMJAM - Open/Close                                                                                                         150                                
PGRFAMCHA090201093638093938000300MV Disney - (MD/NS/NSW) - Jesse McCartney - Just S                                                                     60688120                                
PROFAMCHA090201093938093952000014xxFAMJAM - Close (FAMILY) xxDNUxx                                                                                           150                                
PROFAMCHA090201093952094020000028Suite Life on Deck PREMISE (NSW) NEW EPS Today @ 3                                                                          150                                
PROFAMCHA090201094020094047000027That's So Raven CLIP (NSW) Coming Up Next (APR08)                                                                           150                                
PRCFAMCHA090201094047094100000013NSW Bumper - Fashion (:12-:14) JUNE06                                                                                       150                                
ID FAMCHA090201094100094108000008Magic of Disney - NS/NSW/PB - Wipe (:06-:09)                                                                                150                                
PRCFAMCHA090201094108094117000009CC Disclaimer - FAST - Family.ca (:09-:10)                                                                                  150                                
PGRFAMCHA090201094117100356002239That's So Raven                                   EP: 092                                                              6068607BCC                              
PRCFAMCHA090201100356100408000012NSW - 06 - PHIL/WIZARDS(:11 - :13) (OCT08)                                                                                  150                                
PRCFAMCHA090201100408100458000050Family Online Community Promo - 3/4 Day (not in PH                                                                          150                                
PROFAMCHA090201100458100533000035Froot Loops - Black Beak's Log Contest (Jan 19- Fe                                                                          150                                
PROFAMCHA090201100533100603000030Wizards of Waverrly Place JUSTIN (NSW) - This Morn                                                                          150                                
PRCFAMCHA090201100603100733000130Movie Entertainment (8)                                                                                                     150                                
PROFAMCHA090201100733100814000041Ned's DSSG (NSW) COOKIE - This Morning @ 11:05am (                                                                          150                                
PROFAMCHA090201100814100845000031Suite Life of Z & C (NSW) TONY HAWK - This Morning                                                                          150                                
PROFAMCHA090201100845100915000030Phil Of The Future (NSW) POP QUIZ - Coming Up Next                                                                          150                                
PRCFAMCHA090201100915100958000043Family Day Spot # 1-- 4 X Day MMM, MD, NS, NSW (Ja                                                                          150                                
PRCFAMCHA090201100958101006000008NSW Bumper - Dodgeball (:07-:09) APR06                                                                                      150                                
ID FAMCHA090201101006101014000008Magic of Disney - NS/NSW/PB - Shape (:06-:09)                                                                               150                                
PRCFAMCHA090201101014101023000009CC Disclaimer - FAST - Generic (:09-:10)                                                                                    150                                
PGRFAMCHA090201101023103302002239Phil of the Future                                EPS # 14                                                             6068607BCC                              
PRCFAMCHA090201103302103308000006Astral ID (DEC 2007)                                                                                                        150                                
PRCFAMCHA090201103308103320000012NSW - 07 - WIZARDS/NED'S (:11 - :13) (OCT08)                                                                                150                                
PROFAMCHA090201103320103403000043Ned's DSSG (NSW) Too Cool for School  - This Morni                                                                          150                                
PROFAMCHA090201103403103438000035Barbie Pass DREAM BIG Birthday Contest (Jan 5 - Fe                                                                          150                                
PROFAMCHA090201103438103523000045Suite Life on Deck TWINS (NSW) NEW EPS Today @ 3:5                                                                          150                                
PROFAMCHA090201103523103552000029Hannah Montana SCIENCE (NSW) - This Afternoon @ 5:                                                                          150                                
PRCFAMCHA090201103552103635000043Life W Derek (NSW) Trailer Generic - Tonight @ 7:5                                                                          150                                
PROFAMCHA090201103635103715000040100 Years on Ice Blast Flight 1- No Hamilton (Jan                                                                           150                                
PROFAMCHA090201103715103745000030Wizards of Waverrly Place SIBLING (NSW) - Coming U                                                                          150                                
PRCFAMCHA090201103745103801000016NSW Bumper - Tennis (:15-:17) APR06                                                                                         150                                
PRCFAMCHA090201103801103810000009CC Disclaimer - FAST - Family.ca (:09-:10)                                                                                  150                                
PGRFAMCHA090201103810110041002231Disney Wizards of Waverly Place                   EP: 04                                                               6068607BCC                              
PRCFAMCHA090201110041110053000012NSW - 08 - NED'S/SUITE LIFE (:11 - :13) (SEPT07)                                                                            150                                
PRCFAMCHA090201110053110110000017Family First Generic Throw - Promo SHORT VERSION -                                                                          150                                
PROFAMCHA090201110110110200000050Pink Panther 2 Contest - In Theatres Feb 6 (Jan 26                                                                          150                                
PROFAMCHA090201110200110230000030Suite Life on Deck ROOMMATES (NSW) NEW EPS Today @                                                                          150                                
PROFAMCHA090201110230110240000010FAMJAM - Open/Close                                                                                                         150                                
PGRFAMCHA090201110240110410000130MV Disney - (MD/NS/NSW) - Jesse McCartney - Just S                                                                     60288120                                
PROFAMCHA090201110410110424000014xxFAMJAM - Close (FAMILY) xxDNUxx                                                                                           150                                
PROFAMCHA090201110424110505000041Ned's DSSG (NSW) COOKIE - Coming Up Next (JAN09)                                                                            150                                
PRCFAMCHA090201110505110518000013NSW Bumper - Fashion (:12-:14) JUNE06                                                                                       150                                
PRCFAMCHA090201110518110527000009CC Disclaimer - FAST - Generic (:09-:10)                                                                                    150                                
PGRFAMCHA090201110527113008002441Ned's Declassified School Survival Guide          EP: 15                                                               2068807BCC                              
PRCFAMCHA090201113008113014000006Astral ID (DEC 2007)                                                                                                        150                                
PRCFAMCHA090201113014113027000013NSW - 09 - SUITE LIFE/POPCORN PIX (:11 - :13) (SEP                                                                          150                                
PROFAMCHA090201113027113058000031Suite Life on Deck LIFE AT SEA (NSW) NEW EPS Today                                                                          150                                
PROFAMCHA090201113058113138000040Smart Snax - Maple Leaf Scavenger Hunt Contest (Ja                                                                          150                                
PROFAMCHA090201113138113146000008xxFamily Bumpers - (Phase 2 F/W 04) - Snow Ball (M                                                                          150                                
PRCFAMCHA090201113146113230000044Latest Buzz - ALL WEEK (NS) Mon-Thurs @ 8:30pm & F                                                                          150                                
PROFAMCHA090201113230113310000040HSM Ice Tour Flight 2 Family First ONSALE Version                                                                           150                                
PROFAMCHA090201113310113341000031Suite Life of Z & C (NSW) TONY HAWK - Coming Up Ne                                                                          150                                
PRCFAMCHA090201113341113350000009NSW Bumper - Dodgeball (:07-:09) APR06                                                                                      150                                
ID FAMCHA090201113350113358000008Magic of Disney - NS/NSW/PB - Shape (:06-:09)                                                                               150                                
PRCFAMCHA090201113358113407000009CC Disclaimer - FAST - Family.ca (:09-:10)                                                                                  150                                
PGRFAMCHA090201113407115638002231Suite Life of Zack and Cody, The                  EP: 22                                                               6068607BCC                              
PRCFAMCHA090201115638115650000012NSW - 10 - POPCORN PIX/POPCORN PIX (:11 - :13) (SE                                                                          150                                
PRCFAMCHA090201115650115730000040Really Big Birthdays - April - 3-4 X Day (Feb 1 -                                                                           150                                
PROFAMCHA090201115730115810000040Space Buddies DVD Blast  - Available Feb 3 (Jan 19                                                                          150                                
PROFAMCHA090201115810115817000007xxFamily Bumpers - (Phase 2 F/W 04) - Snow Twirl (                                                                          150                                
PROFAMCHA090201115817115857000040Oliver & Company 20th Anniversary Edition - Avail                                                                           150                                
PRCFAMCHA090201115857115940000043Family Day Spot # 1-- 4 X Day MMM, MD, NS, NSW (Ja                                                                          150                                
ID FAMCHA090201115940120000000020Popcorn Pix Block Open (JUNE 06) (:18-:20)                                                                                  150                                
ID FAMCHA090201120000120010000010Ratings - G - Popcorn Pix Only (July 07)                                                                                    150                                
PRCFAMCHA090201120010120019000009CC Disclaimer - FAST - Generic (:09-:10)                                                                                    150                                
ID FAMCHA090201120019120027000008Magic of Disney - PIX - Wipe (:06-:09)                                                                                      150                                
PGRFAMCHA090201120027133146013119Johnny Tsunami                                                                                                        A6068807CCC                              
PRCFAMCHA090201133146133152000006Astral ID (DEC 2007)                                                                                                        150                                
PRCFAMCHA090201133152133204000012NSW - 11 - POPCORN PIX/CORY (:11 - :13) (OCT08)                                                                             150                                
ID FAMCHA090201133204133223000019Popcorn Pix Block Open (JUNE 06) (:18-:20)                                                                                  150                                
ID FAMCHA090201133223133233000010Ratings - PG - Popcorn Pix Only (July 07)                                                                                   150                                
PRCFAMCHA090201133233133242000009CC Disclaimer - FAST - Family.ca (:09-:10)                                                                                  150                                
PGRFAMCHA090201133242143155005913Miracle - 2004                                                                                                        B6068807DCC                              
PGRFAMCHA090201143155154832011637Miracle - 2004                                                                                                        B6068807DCC                              
PRCFAMCHA090201154832154844000012NSW - 12 - CORY IN THE HOUSE/SUITE Z&C (:11 - :13)                                                                          150                                
PRCFAMCHA090201154844154927000043Family Day Spot # 1-- 4 X Day MMM, MD, NS, NSW (Ja                                                                          150                                
PROFAMCHA090201154927155016000049Proud Family (APR06) STRIKE (NSW) - This Afternoon                                                                          150                                
PROFAMCHA090201155016155044000028Suite Life on Deck PREMISE (NSW) NEW EPS Coming Up                                                                          150                                
PROFAMCHA090201155044155101000017Nonstop Weekend Block Open (:16-:18) APR06                                                                                  150                                
PRCFAMCHA090201155101155110000009CC Disclaimer - FAST - Generic (:09-:10)                                                                                    150                                
PGRFAMCHA090201155110161341002231Suite Life on Deck, The                           EP: 15                                                               6068807BCC                              
PRCFAMCHA090201161341161347000006Astral ID (DEC 2007)                                                                                                        150                                
PRCFAMCHA090201161347161359000012NSW - 15 - PROUD FAMILY/PHINEAS (:11 - :13) (MARCH                                                                          150                                
PROFAMCHA090201161359161417000018Phineas & Ferb (NSW) Ferb Tease - This Afternoon @                                                                          150                                
PROFAMCHA090201161417161452000035Froot Loops - Black Beak's Log Contest (Jan 19- Fe                                                                          150                                
PROFAMCHA090201161452161504000012Kim Possible BAD GUYS (NSW) Today @ 5:10pm (OCT08)                                                                          150                                
PROFAMCHA090201161504161514000010FAMJAM - Open/Close                                                                                                         150                                
PGRFAMCHA090201161514161614000100MV Disney - (MD/NS/NSW) - Jesse McCartney - Just S                                                                     60288120                                
PROFAMCHA090201161614161628000014xxFAMJAM - Close (FAMILY) xxDNUxx                                                                                           150                                
PROFAMCHA090201161628161657000029Replacements (MD) LIBRARIAN - New Eps - Friday Aft                                                                          150                                
PROFAMCHA090201161657161746000049Proud Family (APR06) STRIKE (NSW) - Coming Up Next                                                                          150                                
PRCFAMCHA090201161746161802000016NSW Bumper - Tennis (:15-:17) APR06                                                                                         150                                
ID FAMCHA090201161802161810000008Magic of Disney - NS/NSW/PB - Shape (:06-:09)                                                                               150                                
PRCFAMCHA090201161810161819000009CC Disclaimer - FAST - Family.ca (:09-:10)                                                                                  150                                
PGRFAMCHA090201161819164049002230The Proud Family                                  EP: 2-030                                                           A6068607ECC                              
PRCFAMCHA090201164049164101000012NSW - 16 - PHINEAS/KIM POSSIBLE (:11 - :13) (MARCH                                                                          150                                
PRCFAMCHA090201164101164151000050Family Online Community Promo - 3/4 Day (not in PH                                                                          150                                
PROFAMCHA090201164151164231000040100 Years on Ice Blast Flight 1- No Hamilton (Jan                                                                           150                                
PROFAMCHA090201164231164318000047Kim Possible MISSION (NSW) This Afternoon @ 5:10pm                                                                          150                                
PROFAMCHA090201164318164359000041Hannah Montana - EVERYWHERE (NSW) This Afternoon @                                                                          150                                
PROFAMCHA090201164359164430000031Replacements - GENERIC (MD) New Eps - Friday After                                                                          150                                
PROFAMCHA090201164430164449000019Phineas & Ferb (NSW) Isabella Tease - Coming Up Ne                                                                          150                                
PRCFAMCHA090201164449164502000013NSW Bumper - Fashion (:12-:14) JUNE06                                                                                       150                                
PRCFAMCHA090201164502164511000009CC Disclaimer - FAST - Generic (:09-:10)                                                                                    150                                
PGRFAMCHA090201164511170741002230Phineas & Ferb                                    EP: 10                                                               6068607ECC                              
PRCFAMCHA090201170741170747000006Astral ID (DEC 2007)                                                                                                        150                                
PRCFAMCHA090201170747170759000012NSW - 17 - KIM/HANNAH (:11 - :13) (SEPT07)                                                                                  150                                
PROFAMCHA090201170759170901000102Hannah Montana (NSW) Mockumentry - This Afternoon                                                                           150                                
PROFAMCHA090201170901170941000040HSM Ice Tour Flight 2 Family First ONSALE Version                                                                           150                                
PROFAMCHA090201170941171013000032Suite Life of Z & C (NSW) Wonderful Hotel - Tonigh                                                                          150                                
PROFAMCHA090201171013171042000029Replacements (MD) BABYSITTER - New Eps - Friday Af                                                                          150                                
PROFAMCHA090201171042171132000050Pink Panther 2 Contest - In Theatres Feb 6 (Jan 26                                                                          150                                
PROFAMCHA090201171132171148000016Kim Possible RON POSSIBLE (NSW) Coming Up Next (OC                                                                          150                                
PRCFAMCHA090201171148171156000008NSW Bumper - Dodgeball (:07-:09) APR06                                                                                      150                                
PRCFAMCHA090201171156171205000009CC Disclaimer - FAST - Family.ca (:09-:10)                                                                                  150                                
PGRFAMCHA090201171205173459002254Disney's Kim Possible - Yr. 4                     EP: 15                                                               6068607ECC                              
PRCFAMCHA090201173459173510000011NSW - 18 - HANNAH/SADIE (:11 - :13) (SEPT07)                                                                                150                                
PROFAMCHA090201173510173546000036Flight 29 Down - (NSW) Tonight @ 6:30pm (JULY08)                                                                            150                                
PROFAMCHA090201173546173626000040Coraline Blast  - In Theaters Feb 6 (Jan 15 - Feb                                                                           150                                
PROFAMCHA090201173626173720000054That's So Raven FORTUNE TELLER (NSW) Tonight @ 6:5                                                                          150                                
PROFAMCHA090201173720173817000057Suite Life of Z & C FABULOUS LIFESTYLES (NSW) Toni                                                                          150                                
PROFAMCHA090201173817173846000029Hannah Montana - SUPER AWESOME (NSW) Coming Up Nex                                                                          150                                
PRCFAMCHA090201173846173902000016NSW Bumper - Tennis (:15-:17) APR06                                                                                         150                                
PRCFAMCHA090201173902173911000009CC Disclaimer - FAST - Generic (:09-:10)                                                                                    150                                
PGRFAMCHA090201173911180143002232Hannah Montana - Season 2                         EP: 24                                                               6068807BCC                              
PRCFAMCHA090201180143180149000006Astral ID (DEC 2007)                                                                                                        150                                
PRCFAMCHA090201180149180202000013NSW - 19 - SADIE/FLIGHT 29 DOWN (:11 - :13) (SEPT0                                                                          150                                
PRCFAMCHA090201180202180245000043Family Day Spot # 1-- 4 X Day MMM, MD, NS, NSW (Ja                                                                          150                                
PROFAMCHA090201180245180320000035Barbie Pass DREAM BIG Birthday Contest (Jan 5 - Fe                                                                          150                                
PROFAMCHA090201180320180356000036Flight 29 Down - (NSW) Tonight @ 6:30pm (JULY08)                                                                            150                                
PRCFAMCHA090201180356180426000030Life W D (NSW) A WHOLE NEW DEREK - Tonight @ 7:50p                                                                          150                                
PRCFAMCHA090201180426180510000044Latest Buzz - ALL WEEK (NS) Mon-Thurs @ 8:30pm & F                                                                          150                                
PRCFAMCHA090201180510180550000040Naturally Sadie - ROMANTIC (NSW) Coming Up Next (M                                                                          150                                
PRCFAMCHA090201180550180603000013NSW Bumper - Fashion (:12-:14) JUNE06                                                                                       150                                
PRCFAMCHA090201180603180612000009CC Disclaimer - FAST - Family.ca (:09-:10)                                                                                  150                                
PGRFAMCHA090201180612182842002230Naturally, Sadie                                  EP: 21                                                        C24010 1065607ACC                              
PRCFAMCHA090201182842182854000012NSW - 20 - FLIGHT 29 DOWN/RAVEN (:11 - :13) (SEPT0                                                                          150                                
PROFAMCHA090201182854182944000050Pink Panther 2 Contest - In Theatres Feb 6 (Jan 26                                                                          150                                
PROFAMCHA090201182944183020000036Flight 29 Down - (NSW) Coming Up Next (JULY08)                                                                              150                                
PROFAMCHA090201183020183100000040Oliver & Company 20th Anniversary Edition - Avail                                                                           150                                
PRCFAMCHA090201183100183108000008NSW Bumper - Dodgeball (:07-:09) APR06                                                                                      150                                
PGRFAMCHA090201183108185243002135Flight 29 Down                                    EP: 29                                                               2068807A                                
PRCFAMCHA090201185243185249000006Astral ID (DEC 2007)                                                                                                        150                                
PRCFAMCHA090201185249185301000012NSW - 21 - RAVEN/ZOEY 101 (:11 - :13) (SEPT07)                                                                              150                                
PRCFAMCHA090201185301185349000048Family Video Player Promo - No Tag 3/day (not in P                                                                          150                                
PROFAMCHA090201185349185439000050Pink Panther 2 Contest - In Theatres Feb 6 (Jan 26                                                                          150                                
PROFAMCHA090201185439185509000030Zoey 101 - ANGELS (NSW) Tonight @ 7:20pm (JAN09)                                                                            150                                
PRCFAMCHA090201185509185536000027Life W D (NSW) CLIP - Tonight @ 7:45pm (JULY08)                                                                             150                                
PROFAMCHA090201185536185630000054That's So Raven FORTUNE TELLER (NSW) Coming Up Nex                                                                          150                                
PRCFAMCHA090201185630185647000017Family First Generic Throw - Promo SHORT VERSION -                                                                          150                                
PRCFAMCHA090201185647185703000016NSW Bumper - Tennis (:15-:17) APR06                                                                                         150                                
ID FAMCHA090201185703185711000008Magic of Disney - NS/NSW/PB - Shape (:06-:09)                                                                               150                                
PRCFAMCHA090201185711185720000009CC Disclaimer - FAST - Generic (:09-:10)                                                                                    150                                
PGRFAMCHA090201185720191919002159That's So Raven                                   EP: 1-015                                                            6068607BCC                              
PRCFAMCHA090201191919191931000012NSW - 21 - ZOEY 101/LIFE WITH DEREK (:11 - :13) (S                                                                          150                                
PRCFAMCHA090201191931192011000040Really Big Birthdays - April - 3-4 X Day (Feb 1 -                                                                           150                                
PROFAMCHA090201192011192051000040Coraline Blast  - In Theaters Feb 6 (Jan 15 - Feb                                                                           150                                
PROFAMCHA090201192051192132000041Hannah Montana - EVERYWHERE (NSW) Tonight @ 8:35pm                                                                          150                                
PROFAMCHA090201192132192149000017Zoey 101 (NSW)  ZOEY, ZOEY, ZOEY - Coming Up Next                                                                           150                                
PRCFAMCHA090201192149192202000013NSW Bumper - Fashion (:12-:14) JUNE06                                                                                       150                                
PRCFAMCHA090201192202192211000009CC Disclaimer - FAST - Family.ca (:09-:10)                                                                                  150                                
PGRFAMCHA090201192211194541002330Zoey 101                                          EP: 47                                                               2068807BCC                              
PRCFAMCHA090201194541194547000006Astral ID (DEC 2007)                                                                                                        150                                
PRCFAMCHA090201194547194559000012NSW - 22 - LIFE WITH DEREK/SUITE LIFE (:11 - :13)                                                                           150                                
PROFAMCHA090201194559194634000035Barbie Pass DREAM BIG Birthday Contest (Jan 5 - Fe                                                                          150                                
PRCFAMCHA090201194634194712000038Life W D (NSW) Edwin Mystery Man - Coming Up Next                                                                           150                                
PROFAMCHA090201194712194752000040Space Buddies DVD Blast  - Available Feb 3 (Jan 19                                                                          150                                
PRCFAMCHA090201194752194800000008NSW Bumper - Dodgeball (:07-:09) APR06                                                                                      150                                
PRCFAMCHA090201194800194809000009CC Disclaimer - FAST - Generic (:09-:10)                                                                                    150                                
PGRFAMCHA090201194809201039002230Life With Derek IV (eps 53-70)                    EP: 03                                                        C24891 1055607BCC3                             
PRCFAMCHA090201201039201051000012NSW - 23 - SUITE LIFE/HANNAH (:11 - :13) (SEPT07)                                                                           150                                
PROFAMCHA090201201051201103000012Hannah Montana IDs - (NSW) Miley # 1 - Tonight @ 8                                                                          150                                
PROFAMCHA090201201103201138000035Froot Loops - Black Beak's Log Contest (Jan 19- Fe                                                                          150                                
PROFAMCHA090201201138201147000009Suite Life ID - You're watching Suite Life on Fami                                                                          150                                
PRCFAMCHA090201201147201203000016NSW Bumper - Tennis (:15-:17) APR06                                                                                         150                                
ID FAMCHA090201201203201211000008Magic of Disney - NS/NSW/PB - Wipe (:06-:09)                                                                                150                                
PRCFAMCHA090201201211201220000009CC Disclaimer - FAST - Family.ca (:09-:10)                                                                                  150                                
PGRFAMCHA090201201220203458002238Suite Life of Zack & Cody, The                    EP: 22                                                               6068607BCC                              
PRCFAMCHA090201203458203504000006Astral ID (DEC 2007)                                                                                                        150                                
PRCFAMCHA090201203504203516000012NSW - 24 - HANNAH/NIGHTLY PIX (:11 - :13) (SEPT07)                                                                          150                                
PROFAMCHA090201203516203550000034Hannah Montana (NSW) Wig Auditions - Coming Up Nex                                                                          150                                
PRCFAMCHA090201203550203603000013NSW Bumper - Fashion (:12-:14) JUNE06                                                                                       150                                
PRCFAMCHA090201203603203612000009CC Disclaimer - FAST - Generic (:09-:10)                                                                                    150                                
PGRFAMCHA090201203612205843002231Hannah Montana - Season 2                         EP: 26                                                               6068807BCC                              
PRCFAMCHA090201205843205855000012NSW - 25 - NIGHTLY PIX/NIGHTLY PIX (no time) :11 -                                                                          150                                
PRCFAMCHA090201205855205945000050Family Online Community Promo - 3/4 Day (not in PH                                                                          150                                
PROFAMCHA090201205945210000000015xxNightly Pix Movie Open (:10-:15)                                                                                          150                                
ID FAMCHA090201210000210009000009Rating - PG - Nightly Pix Only  (DEC05) (:08 - :10                                                                          150                                
PRCFAMCHA090201210009210018000009CC Disclaimer - SLOW - Generic (:09 -:10)                                                                                   150                                
PGRFAMCHA090201210018223251013233Around the World in 80 Days - 2004                                                                                    B6068807DCC                              
PRCFAMCHA090201223251223257000006Astral ID (DEC 2007)                                                                                                        150                                
PRCFAMCHA090201223257223309000012NSW - 25b - NIGHTLY PIX/SADIE (12:30)( :11 - :13)                                                                           150                                
PROFAMCHA090201223309223322000013xxNightly Pix Movie Open (:10-:15)                                                                                          150                                
ID FAMCHA090201223322223331000009Rating - PG - Nightly Pix Only  (DEC05) (:08 - :10                                                                          150                                
PRCFAMCHA090201223331223340000009CC Disclaimer - SLOW - Family.ca (:09-:10)                                                                                  150                                
PGRFAMCHA090201223340001859014519Michael                                                                                                               B2068807DCC                              
PRCFAMCHA090201001859001911000012NSW - 27 - SADIE/HANNAH (:11 - :13) (SEPT07)                                                                                150                                
PRCFAMCHA090201001911002001000050Family Online Community Promo - 3/4 Day (not in PH                                                                          150                                
PROFAMCHA090201002001002041000040Zoey 101 (NS) SAFETY CUPCAKE - Tomorrow Night @ 6p                                                                          150                                
PSAFAMCHA090201002041002111000030MS Society of Canada                                                                                                   1    130                                
PRCFAMCHA090201002111002138000027Life W D (NS) CLIP - Tomorrow Night @ 6:30pm (JULY                                                                          150                                
PROFAMCHA090201002138002208000030Wizards of Waverrly Place ALEX (NS) - Tomorrow Nig                                                                          150                                
PRCFAMCHA090201002208002338000130Movie Entertainment (8)                                                                                                     150                                
PROFAMCHA090201002338002421000043Cory In The House (NS) Tomorrow Night @ 10:30pm (S                                                                          150                                
PRCFAMCHA090201002421002505000044Latest Buzz - ALL WEEK (NS) Mon-Thurs @ 8:30pm & F                                                                          150                                
PROFAMCHA090201002505002515000010FAMJAM - Open/Close                                                                                                         150                                
PGRFAMCHA090201002515002845000330MV Disney - (MD/NS/NSW) - Jesse McCartney - Just S                                                                     60688120                                
PROFAMCHA090201002845002859000014xxFAMJAM - Close (FAMILY) xxDNUxx                                                                                           150                                
PRCFAMCHA090201002859002928000029Naturally Sadie - CLIP (NSW) Coming Up Next (MARCH                                                                          150                                
PRCFAMCHA090201002928002945000017Family First Generic Throw - Promo SHORT VERSION -                                                                          150                                
PROFAMCHA090201002945003002000017Nonstop Weekend Block Open (:16-:18) APR06                                                                                  150                                
PRCFAMCHA090201003002003011000009CC Disclaimer - SLOW - Generic (:09 -:10)                                                                                   150                                
PGRFAMCHA090201003011005241002230Naturally, Sadie                                  EP: 46                                                        C25428 1065607ACC                              
PRCFAMCHA090201005241005247000006Astral ID (DEC 2007)                                                                                                        150                                
PRCFAMCHA090201005247005259000012NSW - 28 - HANNAH/CORY (:11 - :13) (OCT08)                                                                                  150                                
PRCFAMCHA090201005259005339000040Really Big Birthdays - April - 3-4 X Day (Feb 1 -                                                                           150                                
PRCFAMCHA090201005339005417000038Life W D (NS) Edwin Mystery Man - Tomorrow Night @                                                                          150                                
PROFAMCHA090201005417005447000030Wizards of Waverrly Place JUSTIN (NS) - Tomorrow N                                                                          150                                
PROFAMCHA090201005447005541000054That's So Raven FORTUNE TELLER (NS) Tomorrow Night                                                                          150                                
PROFAMCHA090201005541005638000057Suite Life of Z & C FABULOUS LIFESTYLES (NS) Tomor                                                                          150                                
PSAFAMCHA090201005638005708000030MS Society of Canada                                                                                                   1    130                                
PROFAMCHA090201005708005751000043Ned's DSSG (NS) Too Cool for School  - Tomorrow Ni                                                                          150                                
PROFAMCHA090201005751005851000100Cory In The House - Cory vs. Sophie (NS) Tomorrow                                                                           150                                
PROFAMCHA090201005851005953000102Hannah Montana (NSW) Mockumentry - Coming Up Next                                                                           150                                
PRCFAMCHA090201005953010000000007NSW Bumper - Dodgeball (:07-:09) APR06                                                                                      150                                
PRCFAMCHA090201010000010009000009CC Disclaimer - SLOW - Family.ca (:09-:10)                                                                                  150                                
PGRFAMCHA090201010009012240002231Hannah Montana - Season 2                         EP: 08                                                               6068807BCC                              
PRCFAMCHA090201012240012252000012NSW - 29 - CORY/PHIL  (:11 - :13) (OCT08)                                                                                   150                                
PRCFAMCHA090201012252012308000016NSW Bumper - Tennis (:15-:17) APR06                                                                                         150                                
ID FAMCHA090201012308012316000008Magic of Disney - NS/NSW/PB - Wipe (:06-:09)                                                                                150                                
PRCFAMCHA090201012316012325000009CC Disclaimer - SLOW - Generic (:09 -:10)                                                                                   150                                
PGRFAMCHA090201012325014556002231Cory in the House Season 2                        EP: 14                                                               6068607BCC                              
PRCFAMCHA090201014556014602000006Astral ID (DEC 2007)                                                                                                        150                                
PRCFAMCHA090201014602014614000012NSW - 30 - PHIL/LIZZIE (:11 - :13) (OCT08)                                                                                  150                                
PRCFAMCHA090201014614014627000013NSW Bumper - Fashion (:12-:14) JUNE06                                                                                       150                                
ID FAMCHA090201014627014635000008Magic of Disney - NS/NSW/PB - Shape (:06-:09)                                                                               150                                
PRCFAMCHA090201014635014644000009CC Disclaimer - SLOW - Family.ca (:09-:10)                                                                                  150                                
PGRFAMCHA090201014644020923002239Phil of the Future                                EPS # 06                                                             6068607BCC                              
PRCFAMCHA090201020923020934000011NS - 18 - LIZZIE/LIFE WITH DEREK (:11 - :13) (OCT0                                                                          150                                
PRCFAMCHA090201020934020942000008NSW Bumper - Dodgeball (:07-:09) APR06                                                                                      150                                
ID FAMCHA090201020942020950000008Magic of Disney - NS/NSW/PB - Wipe (:06-:09)                                                                                150                                
PRCFAMCHA090201020950020959000009CC Disclaimer - SLOW - Generic (:09 -:10)                                                                                   150                                
PGRFAMCHA090201020959023233002234Lizzie McGuire                                    EP: 2-025                                                            6068607BCC                              
PRCFAMCHA090201023233023239000006Astral ID (DEC 2007)                                                                                                        150                                
PRCFAMCHA090201023239023252000013NSW - 32 - DEREK/CORY IN THE HOUSE (:11 - :13) (SE                                                                          150                                
PRCFAMCHA090201023252023308000016NSW Bumper - Tennis (:15-:17) APR06                                                                                         150                                
PRCFAMCHA090201023308023317000009CC Disclaimer - SLOW - Family.ca (:09-:10)                                                                                  150                                
PGRFAMCHA090201023317025547002230Life with Derek                                   EP: 24                                                        C26822 1065607BCC                              
PRCFAMCHA090201025547025558000011NSW - 33 - CORY IN THE HOUSE/RAVEN (:11 - :13) (SE                                                                          150                                
PRCFAMCHA090201025558025611000013NSW Bumper - Fashion (:12-:14) JUNE06                                                                                       150                                
PRCFAMCHA090201025611025620000009CC Disclaimer - SLOW - Generic (:09 -:10)                                                                                   150                                
PGRFAMCHA090201025620031851002231Cory in the House                                 EP: 21                                                               6068607BCC                              
PRCFAMCHA090201031851031857000006Astral ID (DEC 2007)                                                                                                        150                                
PRCFAMCHA090201031857031910000013NSW - 34 - RAVEN/SUITE LIFE (:11 - :13) (SEPT07)                                                                            150                                
PRCFAMCHA090201031910031918000008NSW Bumper - Dodgeball (:07-:09) APR06                                                                                      150                                
ID FAMCHA090201031918031926000008Magic of Disney - NS/NSW/PB - Shape (:06-:09)                                                                               150                                
PRCFAMCHA090201031926031935000009CC Disclaimer - SLOW - Family.ca (:09-:10)                                                                                  150                                
PGRFAMCHA090201031935034214002239That's So Raven                                   EPS # 1-027                                                          6068607BCC                              
PRCFAMCHA090201034214034227000013NSW - 35 - SUITE LIFE/DEREK (:11 - :13) (SEPT07)                                                                            150                                
PRCFAMCHA090201034227034243000016NSW Bumper - Tennis (:15-:17) APR06                                                                                         150                                
ID FAMCHA090201034243034251000008Magic of Disney - NS/NSW/PB - Wipe (:06-:09)                                                                                150                                
PRCFAMCHA090201034251034300000009CC Disclaimer - SLOW - Generic (:09 -:10)                                                                                   150                                
PGRFAMCHA090201034300040539002239Suite Life of Zack & Cody, The                    EP: 62                                                               6068607BCC                              
PRCFAMCHA090201040539040552000013NSW - 36 - LIFE WITH DEREK (:11 - :13) (SEPT07)                                                                             150                                
PRCFAMCHA090201040552040606000014NSW Bumper - Fashion (:12-:14) JUNE06                                                                                       150                                
PRCFAMCHA090201040606040616000010CC Disclaimer - SLOW - Family.ca (:09-:10)                                                                                  150                                
PGRFAMCHA090201040616042846002230Life with Derek                                   EP: 10                                                        C26822 1065607BCC                              
PRCFAMCHA090201042846042857000011FJR - 01 - KATIE& ORBIE / FRANNY'S FEET (SEPT08)                                                                            150                                
PROFAMCHA090201042857042942000045Tigger and Pooh (FJR) POOH SELL - This Morning @ 9                                                                          150                                
ID FAMCHA090201042942042959000017Family Jr. Block Open (:14-:17) (JUL08)                                                                                     150                                
OFFFAMCHA090201042959043000000001OFF AIR                                                                                                                                                        
SO FAMCHA090202043000043011000011Sign On (oct 1)                                                                                                                                                
PRCFAMCHA090202043011043020000009CC Disclaimer - FAST - Family.ca (:09-:10)                                                                                  150                                
PGRFAMCHA090202043020045658002638Katie And Orbie                                   EP: 5-060                                                     C19665A1065607ECC                              
PRCFAMCHA090202045658045704000006Astral ID (DEC 2007)                                                                                                        150                                
PRCFAMCHA090202045704045715000011FJR - 02 - FRANNY'S FEET / BENJAMIN BEAR (SEPT08)                                                                           150                                
PRCFAMCHA090202045715045727000012Family Jr. Bumper - Music (:11- :14) (JUL08)                                                                                150                                
PRCFAMCHA090202045727045736000009CC Disclaimer - FAST - Generic (:09-:10)                                                                                    150                                
PGRFAMCHA090202045736052006002230Franny's Feet                                     EPS # 31                                                      C23971 1065607ECC                              
PRCFAMCHA090202052006052019000013FJR - 03 - BENJAMIN BEAR / HOZE HOUNDZ (SEPT08)                                                                             150                                
PRCFAMCHA090202052019052034000015Family Jr. Bumper - Portal (:14- :17) (JUL08)                                                                               150                                
PRCFAMCHA090202052034052043000009CC Disclaimer - FAST - Family.ca (:09-:10)                                                                                  150                                
PGRFAMCHA090202052043054313002230Secret World of Benjamin Bear, The                EP: 23                                                        C26066 1065607ECC                              
PRCFAMCHA090202054313054319000006Astral ID (DEC 2007)                                                                                                        150                                
PRCFAMCHA090202054319054330000011FJR - 04 - HOZE HOUNDZ / HENRY'S WORLD (SEPT08)                                                                             150                                
PRCFAMCHA090202054330054341000011Family Jr. Bumper - Acrobat (:10- :13) (JUL08)                                                                              150                                
PRCFAMCHA090202054341054350000009CC Disclaimer - FAST - Generic (:09-:10)                                                                                    150                                
PGRFAMCHA090202054350060628002238Hoze Houndz                                       EP: 5-061                                                     B63397A1065607ECC                              
PRCFAMCHA090202060628060641000013FJR - 05 - HENRY'S WORLD / KING (SEPT08)                                                                                    150                                
PRCFAMCHA090202060641060653000012Family Jr. Bumper - Collide (:11- :14) (JUL08)                                                                              150                                
PRCFAMCHA090202060653060702000009CC Disclaimer - FAST - Family.ca (:09-:10)                                                                                  150                                
PGRFAMCHA090202060702063103002401Henry's World                                     EP: 2-019                                                     B81050A1065607GCC                              
PRCFAMCHA090202063103063109000006Astral ID (DEC 2007)                                                                                                        150                                
PRCFAMCHA090202063109063120000011FJR - 06 - KING (SEPT08)                                                                                                    150                                
PRCFAMCHA090202063120063132000012Family Jr. Bumper - Music (:11- :14) (JUL08)                                                                                150                                
PRCFAMCHA090202063132063141000009CC Disclaimer - FAST - Generic (:09-:10)                                                                                    150                                
PGRFAMCHA090202063141065411002230King                                              EP: 4-049                                                     C25350 1065607ECC                              
PRCFAMCHA090202065411065423000012MMM - 01 - RECESS/PHINEAS (:11 - :13) (OCT08)                                                                               150                                
PRCFAMCHA090202065423065440000017Family First Generic Throw - Promo SHORT VERSION -                                                                          150                                
PROFAMCHA090202065440065520000040Oliver & Company 20th Anniversary Edition - Avail                                                                           150                                
PROFAMCHA090202065520065545000025Recess - CAREER DAY (MMM) - (JULY06) - Coming Up N                                                                          150                                
PROFAMCHA090202065545065604000019MadMadMornings Block Open                                                                                                   150                                
PGRFAMCHA090202065604071854002250Disney's Recess                                   EP: 1-063                                                           A6068607E                                
PRCFAMCHA090202071854071900000006Astral ID (DEC 2007)                                                                                                        150                                
PRCFAMCHA090202071900071912000012MMM - 02 - PHINEAS/WEEKENDERS (:11 - :13) (OCT08)                                                                           150                                
PROFAMCHA090202071912071939000027Weekenders - CARVER (MMM) This Morning @ 7:50am (N                                                                          150                                
PROFAMCHA090202071939072019000040Space Buddies DVD Blast  - Available Feb 3 (Jan 19                                                                          150                                
PROFAMCHA090202072019072106000047Kim Possible MISSION (MMM) This Morning @ 8:20am (                                                                          150                                
PRCFAMCHA090202072106072236000130Movie Entertainment (8)                                                                                                     150                                
PROFAMCHA090202072236072254000018Phineas & Ferb (MMM) Phineas Tease - Coming Up Nex                                                                          150                                
PRCFAMCHA090202072254072337000043Family Day Spot # 1-- 4 X Day MMM, MD, NS, NSW (Ja                                                                          150                                
PROFAMCHA090202072337072356000019MadMadMornings Block Open                                                                                                   150                                
PRCFAMCHA090202072356072405000009CC Disclaimer - FAST - Family.ca (:09-:10)                                                                                  150                                
PGRFAMCHA090202072405074635002230Phineas & Ferb                                    EP: 11                                                               6068607ECC                              
PRCFAMCHA090202074635074647000012MMM - 03 - WEEKENDERS/KIM POSSIBLE (:11 - :13) (OC                                                                          150                                
PRCFAMCHA090202074647074727000040Really Big Birthdays - April - 3-4 X Day (Feb 1 -                                                                           150                                
PROFAMCHA090202074727074742000015Kim Possible RON POSSIBLE (MMM) This Morning @ 8:2                                                                          150                                
PROFAMCHA090202074742074822000040HSM Ice Tour Flight 2 Family First ONSALE Version                                                                           150                                
PRCFAMCHA090202074822074829000007xxFamily Bumpers - (Phase 2 F/W 04) - Hockey (MD-L                                                                          150                                
PROFAMCHA090202074829074909000040Coraline Blast  - In Theaters Feb 6 (Jan 15 - Feb                                                                           150                                
PROFAMCHA090202074909074942000033Weekenders - TINO (MMM) Coming Up Next (NOV08)                                                                              150                                
PRCFAMCHA090202074942075032000050Family Online Community Promo - 3/4 Day (not in PH                                                                          150                                
PROFAMCHA090202075032075051000019MadMadMornings Block Open                                                                                                   150                                
PRCFAMCHA090202075051075100000009CC Disclaimer - FAST - Family.ca (:09-:10)                                                                                  150                                
PGRFAMCHA090202075100081333002233Disney's The Weekenders                           EP: 1-028                                                           A6068607ECC                              
PRCFAMCHA090202081333081339000006Astral ID (DEC 2007)                                                                                                        150                                
PRCFAMCHA090202081339081351000012MMM - 04 - KIM POSSIBLE (:11 - :13) (OCT08)                                                                                 150                                
PRCFAMCHA090202081351081434000043Family Day Spot # 1-- 4 X Day MMM, MD, NS, NSW (Ja                                                                          150                                
PROFAMCHA090202081434081507000033Recess - COOTIE SHOTS (MD) - This Morning @ 11:50a                                                                          150                                
PROFAMCHA090202081507081547000040100 Years on Ice Blast Flight 1- No Hamilton (Jan                                                                           150                                
PROFAMCHA090202081547081617000030American Dragon Jake Long (MD) HERO - This Afterno                                                                          150                                
PROFAMCHA090202081617081635000018Emperor's New School (MD) BUTT IN URN - This After                                                                          150                                
PROFAMCHA090202081635081646000011Kim Possible BAD GUYS (MMM) Coming Up Next (OCT08)                                                                          150                                
PRCFAMCHA090202081646081734000048Family Video Player Promo - No Tag 3/day (not in P                                                                          150                                
PROFAMCHA090202081734081753000019MadMadMornings Block Open                                                                                                   150                                
PRCFAMCHA090202081753081802000009CC Disclaimer - FAST - Generic (:09-:10)                                                                                    150                                
PGRFAMCHA090202081802084052002250Disney's Kim Possible                             EPS # 1-025                                                         A6068607ECC                              
PRCFAMCHA090202084052084105000013FJR - 07 - IMAGINATION MOVERS/FRANNY'S FEET (JAN09                                                                          150                                
PROFAMCHA090202084105084211000106PH-D Promo - Getting Goofy With It Week - Tonight                                                                           150                                
PRCFAMCHA090202084211084246000035Franny's Feet (FJR) GENERIC - This Morning @ 9:10                                                                           150                                
PROFAMCHA090202084246084331000045Tigger and Pooh (FJR) POOH SELL - This Morning @ 9                                                                          150                                
PROFAMCHA090202084331084402000031Mickey Mouse Clubhouse (FJR) GENERIC - This Mornin                                                                          150                                
PROFAMCHA090202084402084432000030Imagination Movers (FJR) Coming Up Next (JAN09)                                                                             150                                
ID FAMCHA090202084432084448000016Family Jr. Block Open (:14-:17) (JUL08)                                                                                     150                                
PRCFAMCHA090202084448084458000010CC Disclaimer - FAST - Family.ca (:09-:10)                                                                                  150                                
PGRFAMCHA090202084458090858002400Disney Imagination Movers                         EP: 09                                                               6068607ACC                              
PRCFAMCHA090202090858090904000006Astral ID (DEC 2007)                                                                                                        150                                
PRCFAMCHA090202090904090914000010FJR - 08 - FRANNY'S FEET/TIGGER & POOH (:09 - :12)                                                                          150                                
PROFAMCHA090202090914090959000045Tigger and Pooh (FJR) POOH SELL - This Morning @ 9                                                                          150                                
PRCFAMCHA090202090959091034000035Franny's Feet (FJR) GENERIC - Coming Up Next (JUL0                                                                          150                                
PRCFAMCHA090202091034091051000017Family Jr. Bumper - Portal (:14- :17) (JUL08)                                                                               150                                
PRCFAMCHA090202091051091100000009CC Disclaimer - FAST - Generic (:09-:10)                                                                                    150                                
PGRFAMCHA090202091100093330002230Franny's Feet                                     EPS # 1-003                                                   C23970A1065607ECC                              
PRCFAMCHA090202093330093341000011FJR - 09 - TIGGER & POOH/MICKEY MOUSE CLUBHOUSE (:                                                                          150                                
PROFAMCHA090202093341093447000106PH-D Promo - Getting Goofy With It Week - Tonight                                                                           150                                
PROFAMCHA090202093447093518000031Mickey Mouse Clubhouse (FJR) GENERIC - This Mornin                                                                          150                                
PROFAMCHA090202093518093548000030Handy Manny (FJR) NEIGHBOURS - This Mornings @ 10:                                                                          150                                
PROFAMCHA090202093548093648000100Tigger and Pooh (FJR) SUPER SLEUTH - Coming Up Nex                                                                          150                                
PRCFAMCHA090202093648093659000011Family Jr. Bumper - Acrobat (:10- :13) (JUL08)                                                                              150                                
PRCFAMCHA090202093659093708000009CC Disclaimer - FAST - Family.ca (:09-:10)                                                                                  150                                
PGRFAMCHA090202093708100116002408Disney My Friends Tigger and Pooh                 EP: 07                                                               6068607ECC                              
PRCFAMCHA090202100116100122000006Astral ID (DEC 2007)                                                                                                        150                                
PRCFAMCHA090202100122100132000010FJR - 10 - MICKEY MOUSE CLUBHOUSE/HANDY MANNY (:10                                                                          150                                
PROFAMCHA090202100132100202000030Handy Manny (FJR) HOP UP/JUMP IN - This Morning @                                                                           150                                
PROFAMCHA090202100202100218000016Mickey Mouse Clubhouse (FJR) GENERIC - Coming Up N                                                                          150                                
PROFAMCHA090202100218100324000106PH-D Promo - Getting Goofy With It Week - Tonight                                                                           150                                
PRCFAMCHA090202100324100337000013Family Jr. Bumper - Collide (:11- :14) (JUL08)                                                                              150                                
ID FAMCHA090202100337100346000009Magic of Disney - PLAYHOUSE - Shape (:06-:09)                                                                               150                                
PRCFAMCHA090202100346100356000010CC Disclaimer - FAST - Generic (:09-:10)                                                                                    150                                
PGRFAMCHA090202100356102758002402Disney's Mickey Mouse Clubhouse                   EP: 01                                                               6068607ECC                              
PRCFAMCHA090202102758102811000013FJR - 11 - HANDY MANNY/BENJAMIN BEAR (:10 - :13) (                                                                          150                                
PROFAMCHA090202102811102917000106PH-D Promo - Getting Goofy With It Week - Tonight                                                                           150                                
PROFAMCHA090202102917102932000015Handy Manny (FJR) HOP UP/JUMP IN SHORT- Coming Up                                                                           150                                
PRCFAMCHA090202102932102946000014Family Jr. Bumper - Music (:11- :14) (JUL08)                                                                                150                                
ID FAMCHA090202102946102954000008Magic of Disney - PLAYHOUSE - Wipe (:06-:09)                                                                                150                                
PRCFAMCHA090202102954103003000009CC Disclaimer - FAST - Family.ca (:09-:10)                                                                                  150                                
PGRFAMCHA090202103003105401002358Handy Manny 2                                     EP: 15                                                               6068607ECC                              
PRCFAMCHA090202105401105407000006Astral ID (DEC 2007)                                                                                                        150                                
PRCFAMCHA090202105407105418000011FJR - 12 - BENJAMIN BEAR/KING (:10 - :13) (JULY08)                                                                          150                                
PROFAMCHA090202105418105524000106PH-D Promo - Getting Goofy With It Week - Tonight                                                                           150                                
PRCFAMCHA090202105524105554000030King (FJR) GENERIC - This Morning @ 11:25 (JUL08)                                                                           150                                
PRCFAMCHA090202105554105624000030Benjamin Bear (FJR) GENERIC - Coming Up Next (JUL0                                                                          150                                
PROFAMCHA090202105624105655000031PH-D Promo - Web Sell on Family -  24/7 Ooh & Aah                                                                           150                                
PRCFAMCHA090202105655105706000011Family Jr. Bumper - Acrobat (:10- :13) (JUL08)                                                                              150                                
PRCFAMCHA090202105706105715000009CC Disclaimer - FAST - Generic (:09-:10)                                                                                    150                                
PGRFAMCHA090202105715111945002230Secret World of Benjamin Bear, The                EP: 27                                                        C27272 1065607ECC                              
PRCFAMCHA090202111945111955000010FJR - 13 - KING/RECESS (:09 - :12) (JULY08)                                                                                 150                                
PROFAMCHA090202111955112101000106PH-D Promo - Getting Goofy With It Week - Tonight                                                                           150                                
PROFAMCHA090202112101112131000030Imagination Movers (FJR) Tomorrow Morning @ 8:45am                                                                          150                                
PRCFAMCHA090202112131112206000035Franny's Feet (FJR) GENERIC - Tomorrow Morning @ 9                                                                          150                                
PROFAMCHA090202112206112306000100Tigger and Pooh (FJR) SUPER SLEUTH - Tomorrow Morn                                                                          150                                
PROFAMCHA090202112306112337000031Mickey Mouse Clubhouse (FJR) GENERIC - Tomorrow Mo                                                                          150                                
PRCFAMCHA090202112337112407000030King (FJR) GENERIC - Coming Up Next (JUL08)                                                                                 150                                
PRCFAMCHA090202112407112437000030PH-D Promo - Kid Sell (JUNE 2008)                                                                                           150                                
PRCFAMCHA090202112437112451000014Family Jr. Bumper - Collide (:11- :14) (JUL08)                                                                              150                                
PRCFAMCHA090202112451112500000009CC Disclaimer - FAST - Family.ca (:09-:10)                                                                                  150                                
PGRFAMCHA090202112500114730002230King                                              EPS # 038                                                     C25350 1065607ECC                              
PRCFAMCHA090202114730114736000006Astral ID (DEC 2007)                                                                                                        150                                
PRCFAMCHA090202114736114748000012MD - 01 - RECESS/KIM (:11 - :13) (JULY08)                                                                                   150                                
PRCFAMCHA090202114748114805000017Family First Generic Throw - Promo SHORT VERSION -                                                                          150                                
PROFAMCHA090202114805114839000034Recess - HEROES (MD) - (APR06) - Coming Up Next                                                                             150                                
PROFAMCHA090202114839114856000017Mad Dash Block Open (:16-:18) APR06                                                                                         150                                
PRCFAMCHA090202114856114905000009CC Disclaimer - FAST - Generic (:09-:10)                                                                                    150                                
PGRFAMCHA090202114905121140002235Disney's Recess                                   EP: 1-052                                                            6068607ECC                              
PRCFAMCHA090202121140121153000013MD - 02 - KIM/WEEKENDERS (:11 - :13) (JULY08)                                                                               150                                
PRCFAMCHA090202121153121236000043Family Day Spot # 1-- 4 X Day MMM, MD, NS, NSW (Ja                                                                          150                                
PROFAMCHA090202121236121309000033Weekenders - TINO (MD) This Afternoon @ 12:40pm (N                                                                          150                                
PROFAMCHA090202121309121341000032Kim Possible RON FACTOR (MD) (July 06)  Coming Up                                                                           150                                
PRCFAMCHA090202121341121351000010MD Bumper - Race Cars (:08-:10) APR06                                                                                       150                                
PRCFAMCHA090202121351121400000009CC Disclaimer - FAST - Family.ca (:09-:10)                                                                                  150                                
PGRFAMCHA090202121400123646002246Disney's Kim Possible - Yr. 4                     EP: 18                                                               6068607ECC                              
PRCFAMCHA090202123646123652000006Astral ID (DEC 2007)                                                                                                        150                                
PRCFAMCHA090202123652123704000012MD - 03 - WEEKENDERS/AMERICAN DRAGON (:11 - :13) (                                                                          150                                
PRCFAMCHA090202123704123744000040Really Big Birthdays - April - 3-4 X Day (Feb 1 -                                                                           150                                
PROFAMCHA090202123744123814000030American Dragon Jake Long (MD) HERO - This Afterno                                                                          150                                
PROFAMCHA090202123814123845000031Weekenders - LOR (MD) Coming Up Next (JAN09)                                                                                150                                
PRCFAMCHA090202123845123900000015MD Bumper - Shopping Race (:15-:17) APR06                                                                                   150                                
PRCFAMCHA090202123900123909000009CC Disclaimer - FAST - Generic (:09-:10)                                                                                    150                                
PGRFAMCHA090202123909130202002253Disney's The Weekenders                           EP: 1-007                                                           A6068607ECC                              
PRCFAMCHA090202130202130215000013MD - 04 - AMERICAN DRAGON/EMPERORS'S (:11 - :13) (                                                                          150                                
PROFAMCHA090202130215130259000044Emperor's New School (MD) KUZCO - This Afternoon @                                                                          150                                
