SO FAMCHA120401043000043011000011Sign On (oct 1)                                                                                                                                                
PGRFAMCHA120401043011045416002405Henry's World                                     EPS # 2-022                                                   B81053 1065607ECC                              
ID FAMCHA120401045416045421000005Astral ID (HD) (Jan2011)                                                                                                    150                                
PROFAMCHA120401045421045451000030D-JR Icon Story - SWOBB - Seesaw Part 1 - Coming U                                                                          150                                
PROFAMCHA120401045451045500000009D-JR - Flex ID - Green (:6-:10) (Feb2012)                                                                                   150                                
PROFAMCHA120401045500045530000030D-JR Icon Story - SWOBB - Seesaw Part 2 - Now (May                                                                          150                                
PGRFAMCHA120401045530051801002231The Secret World of Benjamin Bear                 EP: 21                                                        C26066 1065607ECC                              
PROFAMCHA120401051801051832000031D-JR Icon Story - Franny's Feet - Silly Song Part                                                                           150                                
PROFAMCHA120401051832051902000030D-JR Promo - On demand online REVISED - D-JR.ca (M                                                                          150                                
PROFAMCHA120401051902051927000025D-JR Promo - JATNP - Get more on the channel REV (                                                                          150                                
PROFAMCHA120401051927051958000031D-JR Icon Story - Franny's Feet - Silly Song Part                                                                           150                                
PROFAMCHA120401051958052004000006D-JR - Bumper 3 (May2011)                                                                                                   150                                
PGRFAMCHA120401052004054235002231Franny's Feet                                     EP: 50                                                        C31292 1065607ECC                              
ID FAMCHA120401054235054240000005Astral ID (HD) (Jan2011)                                                                                                    150                                
PROFAMCHA120401054240054312000032D-JR Icon Story - Harry & His Bucket - Maze Part 1                                                                          150                                
PROFAMCHA120401054312054353000041D-JR Promo - Strawberry's Berry Big Week - Starts                                                                           150                                
PROFAMCHA120401054353054428000035D-JR Promo - Super Spring Sunday - Sunday Apr 8 @                                                                           150                                
PROFAMCHA120401054428054458000030D-JR Icon Story - Harry & His Bucket - Maze Part 2                                                                          150                                
PROFAMCHA120401054458054506000008D-JR - Flex ID - Purple (:6-:10) (Feb2012)                                                                                  150                                
PGRFAMCHA120401054506060642002136Harry and His Bucket Full of Dinosaurs            EP: 08                                                        B05027 1065607ECC                              
PROFAMCHA120401060642060714000032D-JR Icon Story - Jungle Junction NEW - Tag Part 1                                                                          150                                
PROFAMCHA120401060714060744000030D-JR Promo - On demand online REVISED - D-JR.ca (M                                                                          150                                
PROFAMCHA120401060744060829000045Walt Disney Studios Home Entertainment                                                                                      150                                
PROFAMCHA120401060829060904000035D-JR Promo - Super Spring Sunday - Sunday Apr 8 @                                                                           150                                
PROFAMCHA120401060904060936000032D-JR Icon Story - Jungle Junction NEW - Tag Part 3                                                                          150                                
PROFAMCHA120401060936060946000010D-JR - Station ID (:10) (May2011)                                                                                           150                                
PGRFAMCHA120401060946063348002402Jungle Junction                                   EP: 18                                                               6028605ACC                              
ID FAMCHA120401063348063354000006Astral ID (HD) (Jan2011)                                                                                                    150                                
PROFAMCHA120401063354063426000032D-JR Icon Story - Imagination Movers - Maze Part 1                                                                          150                                
PROFAMCHA120401063426063433000007D-JR - Flex ID - Yellow (:6-:10) (Feb2012)                                                                                  150                                
PROFAMCHA120401063433063503000030D-JR Icon Story - Imagination Movers - Maze Part 2                                                                          150                                
PGRFAMCHA120401063503065749002246Disney Imagination Movers                         EP: 19                                                               6068605ACC                              
PROFAMCHA120401065749065819000030D-JR Icon Story - Handy Manny NEW - Seesaw Part 1                                                                           150                                
PROFAMCHA120401065819065900000041D-JR Promo - Strawberry's Berry Big Week - Starts                                                                           150                                
PROFAMCHA120401065900065925000025D-JR Promo - JATNP - Get more on the channel REV (                                                                          150                                
PROFAMCHA120401065925065956000031D-JR Icon Story - Handy Manny NEW - Seesaw Part 2                                                                           150                                
PROFAMCHA120401065956070007000011D-JR - Station ID (:11) (May2011)                                                                                           150                                
PGRFAMCHA120401070007072405002358Handy Manny                                       EP: 34                                                               6028605ACC                              
ID FAMCHA120401072405072411000006Astral ID (HD) (Jan2011)                                                                                                    150                                
PROFAMCHA120401072411072442000031D-JR Icon Story - Mickey Mouse Clubhouse - Silly S                                                                          150                                
PROFAMCHA120401072442072512000030D-JR Promo - On demand online REVISED - D-JR.ca (M                                                                          150                                
PROFAMCHA120401072512072557000045Walt Disney Studios Home Entertainment                                                                                      150                                
PROFAMCHA120401072557072627000030Stella and Sam - Get more Stella & Sam on D-JR the                                                                          150                                
PROFAMCHA120401072627072637000010D-JR - Short Open (:10) (May2011)                                                                                           150                                
PROFAMCHA120401072637072835000158PH-D Short - Can You...Alligator Manners S1 - 03 -                                                                          150                                
PROFAMCHA120401072835072841000006D-JR - Short Close (:06) (May2011)                                                                                          150                                
PROFAMCHA120401072841072922000041D-JR Promo - Strawberry's Berry Big Week - Starts                                                                           150                                
PROFAMCHA120401072922072952000030D-JR Icon Story - Mickey Mouse Clubhouse - Silly S                                                                          150                                
PROFAMCHA120401072952073000000008D-JR - Flex ID - Blue (:6-:10) (Feb2012)                                                                                    150                                
PGRFAMCHA120401073000075403002403Disney's Mickey Mouse Clubhouse                   EP: 04                                                               6068605ACC                              
ID FAMCHA120401075403075408000005Astral ID (HD) (Jan2011)                                                                                                    150                                
PRCFAMCHA120401075408075435000027Radio Disney (HD) Launch Spot (Jan 13 - Jun 24)                                                                             150                                
PROFAMCHA120401075435075620000145ME: Mirror Mirror (HD) Now Playing (Mar 30 - Apr 1                                                                          150                                
PROFAMCHA120401075620075710000050xWOWP The Movie (HD) Popcorn Pix - Today @ Noon (O                                                                          150                                
PGRFAMCHA120401075710075914000204Mimoza Duot Interstitial  (HD) Profile (March 23 -                                                                     60688120                                
PROFAMCHA120401075914075949000035Phineas&Ferb (HD) Candace - Coming Up Next (June20                                                                          150                                
PRCFAMCHA120401075949075959000010Family Bumper (HD) - Amoeba ID (Jan 2011)                                                                                   150                                
PGRFAMCHA120401075959082234002235Disney Phineas and Ferb                           EP: 13                                                               6068607ECC                              
ID FAMCHA120401082234082240000006Astral ID (HD) (Jan2011)                                                                                                    150                                
PROFAMCHA120401082240082307000027Disney XD (HD) Pair of Kings is Moving - Saturdays                                                                          150                                
PROFAMCHA120401082307082352000045Universal Home Entertainment                                                                                                150                                
PROFAMCHA120401082352082422000030xWOWP (HD) Spellbook - This Morning @ 9:00 (Feb201                                                                          150                                
PRCFAMCHA120401082422082436000014One Direction (HD) Station ID (Mar 23 - May 23)                                                                             150                                
PGRFAMCHA120401082436082757000321MV Disney (HD) China Anne McClain - Unstoppable (M                                                                     60685120                                
PROFAMCHA120401082757082857000100Austin & Ally (HD) Deep Sell - Weekend Mornings @                                                                           150                                
PROFAMCHA120401082857082907000010Parmalat                                                                                                                    150                                
PROFAMCHA120401082907082954000047SLOD (HD) Refresh - Coming Up Next (Dec2011)                                                                                150                                
PRCFAMCHA120401082954083005000011Family Bumper (HD) - Bobbleheads ID (Jan 2011)                                                                              150                                
PGRFAMCHA120401083005085238002233The Suite Life on Deck                            EP: 18                                                               6068807BCC                              
PRCFAMCHA120401085238085310000032FOD (HD) Family.ca New Look (Oct2011) (2-3x per da                                                                          150                                
PROFAMCHA120401085310085350000040Kellogg's                                                                                                                   150                                
PRCFAMCHA120401085350085427000037WUW (HD) Refresh - This Morning @ 9:30 (Dec2011)                                                                            150                                
PGRFAMCHA120401085427085647000220One Direction Interview  (HD) Generic (Mar13-Apr1)                                                                     60688120                                
PROFAMCHA120401085647085707000020Good Luck Charlie (HD) DuncanBallet - Weekend Afte                                                                          150                                
PROFAMCHA120401085707085752000045Paramount Pictures                                                                                                          150                                
PROFAMCHA120401085752085837000045So Random (HD) Boy Sell - This Afternoon @ 3:30 (J                                                                          150                                
PROFAMCHA120401085837085927000050Fox Home & Entertainment                                                                                                    150                                
PROFAMCHA120401085927085950000023xWOWP (HD) Harper - Coming Up Next (Jan2011)                                                                                150                                
PRCFAMCHA120401085950090008000018Family Bumper (HD) - Dominoes ID (Jan 2011)                                                                                 150                                
PGRFAMCHA120401090008092211002203Disney Wizards of Waverly Place                   EP: 14                                                               6068607BCC                              
ID FAMCHA120401092211092217000006Astral ID (HD) (Jan2011)                                                                                                    150                                
PROFAMCHA120401092217092307000050xWOWP The Movie (HD) Popcorn Pix - Today @ Noon (O                                                                          150                                
PROFAMCHA120401092307092337000030Microsoft                                                                                                                   150                                
PROFAMCHA120401092337092356000019SLOD (HD) Whale Clip Promo - This Afternoon @ 2:30                                                                          150                                
PGRFAMCHA120401092356092729000333MV Non Disney (HD) Charlie - Good As Gone (Jan 11                                                                      10615120                                
PRCFAMCHA120401092729092806000037WUW (HD) Refresh - Coming Up Next (Dec2011)                                                                                 150                                
PROFAMCHA120401092806092856000050Activision                                                                                                                  150                                
PROFAMCHA120401092856092940000044Disney XD (HD) Takeover - Sat Apr 14 Starting @ 11                                                                          150                                
PRCFAMCHA120401092940092958000018Family Bumper Flex (HD) Flex ID Version #2 (Mar201                                                                          150                                
PGRFAMCHA120401092958095301002303What's Up, Warthogs!                              EP: 13                                                        C32738 1065607BCC                              
PROFAMCHA120401095301095340000039Jessie (HD) Clip Promo #1 - Weekend Mornings @ 10:                                                                          150                                
PROFAMCHA120401095340095430000050Microsoft                                                                                                                   150                                
PROFAMCHA120401095430095530000100Austin & Ally (HD) Deep Sell - Weekend Mornings @                                                                           150                                
PGRFAMCHA120401095530095910000340MV Non Disney (HD) JD - Sparks Are Gonna Fly (Jan                                                                      10615120                                
PROFAMCHA120401095910095954000044ANT Farm (HD) Sister Sell - Coming Up Next (July20                                                                          150                                
PRCFAMCHA120401095954100003000009Family Bumper (HD) - Dragonflies ID (Jan 2011)                                                                              150                                
PGRFAMCHA120401100003102308002305Disney A.N.T. Farm                                EP: 17                                                               6068607BCC                              
ID FAMCHA120401102308102314000006Astral ID (HD) (Jan2011)                                                                                                    150                                
PROFAMCHA120401102314102404000050xWOWP The Movie (HD) Popcorn Pix - Today @ Noon (O                                                                          150                                
PROFAMCHA120401102404102414000010Lego                                                                                                                        150                                
PROFAMCHA120401102414102446000032DEBRA! (HD) Refresh - Tonight @ 6:30 (Feb2012)                                                                              150                                
PGRFAMCHA120401102446102611000125Time I... S2  (HD) Got 322 Pairs of Shoes (Mar23-M                                                                     60688120                                
PROFAMCHA120401102611102641000030Wingin It (HD) Clip Retag - Monday-Wednesday After                                                                          150                                
PGRFAMCHA120401102641102811000130MV Disney (HD) Bella & Zendaya - TTYLXOX/Something                                                                     60685120                                
PROFAMCHA120401102811102839000028Really Me (HD) Generic Promo - Thursday Night @ 9:                                                                          150                                
PROFAMCHA120401102839102924000045Universal Music                                                                                                             150                                
PROFAMCHA120401102924102948000024Jessie (HD) Clip Promo #2 - Coming Up Next (Mar201                                                                          150                                
PRCFAMCHA120401102948103002000014Family Bumper (HD) - Drums ID (Jan 2011)                                                                                    150                                
PGRFAMCHA120401103002105237002235Disney Jessie                                     EP: 03                                                               6068807BCC                              
PROFAMCHA120401105237105307000030Shake It Up (HD) Repack - This Morning @ 11:30 (Ma                                                                          150                                
PROFAMCHA120401105307105357000050Fox Home & Entertainment                                                                                                    150                                
PROFAMCHA120401105357105416000019SLOD (HD) Whale Clip Promo - This Afternoon @ 2:30                                                                          150                                
PGRFAMCHA120401105416105802000346MV Non Disney (HD) Tyler Medeiros - Say I Love You                                                                     10615120                                
PROFAMCHA120401105802105822000020Good Luck Charlie (HD) DuncanBallet - Weekend Afte                                                                          150                                
PROFAMCHA120401105822105907000045Universal Home Entertainment                                                                                                150                                
PROFAMCHA120401105907105948000041xAustin & Ally (HD) Music Sell - Coming Up Next (M                                                                          150                                
PRCFAMCHA120401105948110005000017Family Bumper (HD) - Fashion ID (Jan 2011)                                                                                  150                                
PGRFAMCHA120401110005112336002331Disney Austin & Ally                              EP: 02                                                               6068807BCC                              
ID FAMCHA120401112336112342000006Astral ID (HD) (Jan2011)                                                                                                    150                                
PROFAMCHA120401112342112432000050xWOWP The Movie (HD) Popcorn Pix - Today @ Noon (O                                                                          150                                
PROFAMCHA120401112432112522000050Activision                                                                                                                  150                                
PROFAMCHA120401112522112605000043Phineas&Ferb (HD) Clip Based Promo - Weekend After                                                                          150                                
PGRFAMCHA120401112605112735000130MV Disney (HD) China Anne McClain - Unstoppable (M                                                                     60685120                                
PROFAMCHA120401112735112820000045So Random (HD) Boy Sell - This Afternoon @ 3:30 (J                                                                          150                                
PROFAMCHA120401112820112908000048Shake It Up (HD) Refresh - Coming Up Next (June201                                                                          150                                
PRCFAMCHA120401112908112935000027Radio Disney (HD) Launch Spot (Jan 13 - Jun 24)                                                                             150                                
PRCFAMCHA120401112935112954000019Family Bumper Flex (HD) Flex ID Version #3 (Mar201                                                                          150                                
PGRFAMCHA120401112954115230002236Disney Shake It Up                                EP: 02                                                               6068707BCC                              
PROFAMCHA120401115230115241000011LU(SS) - 09 - Popcorn Pix/P&F @ 1:30pm (HD) (:9 -                                                                           150                                
PROFAMCHA120401115241115308000027Disney XD (HD) Pair of Kings is Moving - Saturdays                                                                          150                                
PROFAMCHA120401115308115348000040Gogo's Crazy Bones                                                                                                          150                                
PRCFAMCHA120401115348115402000014One Direction (HD) Station ID (Mar 23 - May 23)                                                                             150                                
PGRFAMCHA120401115402115818000416MV Non Disney (HD) Cody Simpson - Not Just You (No                                                                     10615120                                
PROFAMCHA120401115818115853000035D-JR Promo - Handy Manny - Get more on the channel                                                                          150                                
PROFAMCHA120401115853115943000050xWOWP The Movie (HD) Popcorn Pix - Coming Up Next                                                                           150                                
ID FAMCHA120401115943115958000015Popcorn Pix Block Open (HD)  (Jan2011)                                                                                      150                                
ID FAMCHA120401115958120008000010Popcorn Pix Rating Slate (HD) - G (Jan 2011)                                                                                150                                
ID FAMCHA120401120008120013000005xMagic of Disney Bumper (HD)(:5-:6) (Jan 2011)                                                                              150                                
PGRFAMCHA120401120013133412013359Wizards of Waverly Place The Movie                                                                                    A6068807CCC                              
ID FAMCHA120401133412133418000006Astral ID (HD) (Jan2011)                                                                                                    150                                
PROFAMCHA120401133418133429000011LU(SS) - 10 - P&F/ANT Farm @ 2:00pm (HD) (:9 - :11                                                                          150                                
PROFAMCHA120401133429133454000025D-JR Promo - JATNP - Get more on the channel REV (                                                                          150                                
PROFAMCHA120401133454133529000035Phineas&Ferb (HD) Candace - Coming Up Next (June20                                                                          150                                
PRCFAMCHA120401133529133544000015Family Bumper (HD) - Horseshoe ID (Jan 2011)                                                                                150                                
PGRFAMCHA120401133544135816002232Disney Phineas and Ferb                           EP: 11                                                               6068607ECC                              
PROFAMCHA120401135816135827000011LU(SS) - 11 - ANT Farm/SLOD @ 2:30pm (HD) (:9 - :1                                                                          150                                
PRCFAMCHA120401135827135859000032FOD (HD) Family.ca New Look (Oct2011) (2-3x per da                                                                          150                                
PROFAMCHA120401135859135943000044ANT Farm (HD) Sister Sell - Coming Up Next (July20                                                                          150                                
PRCFAMCHA120401135943135959000016Family Bumper (HD) - Hot Potato ID (Jan 2011)                                                                               150                                
PGRFAMCHA120401135959142233002234Disney A.N.T. Farm                                EP: 03                                                               6068607BCC                              
ID FAMCHA120401142233142238000005Astral ID (HD) (Jan2011)                                                                                                    150                                
PROFAMCHA120401142238142249000011LU(SS) - 12 - SLOD/GLC @ 3:00pm (HD) (:9 - :11) Se                                                                          150                                
PROFAMCHA120401142249142333000044Disney XD (HD) Takeover - Sat Apr 14 Starting @ 11                                                                          150                                
PGRFAMCHA120401142333142537000204Mimoza Duot Interstitial  (HD) Profile (March 23 -                                                                     60688120                                
PROFAMCHA120401142537142617000040Good Luck Charlie (HD) Refresh - This Afternoon @                                                                           150                                
PGRFAMCHA120401142617142938000321MV Disney (HD) China Anne McClain - Unstoppable (M                                                                     60685120                                
PROFAMCHA120401142938142957000019SLOD (HD) Whale Clip Promo - Coming Up Next (Feb20                                                                          150                                
PRCFAMCHA120401142957143010000013Family Bumper (HD) - Karate ID (Jan 2011)                                                                                   150                                
PGRFAMCHA120401143010145141002131The Suite Life on Deck                            EP: 18                                                               6068607BCC                              
PROFAMCHA120401145141145152000011LU(SS) - 13 - GLC/So Random @ 3:30pm (HD) Sundays                                                                           150                                
PROFAMCHA120401145152145217000025xAgent Cody Banks 2 (HD) Popcorn Pix - Friday Nigh                                                                          150                                
PROFAMCHA120401145217145402000145ME: Mirror Mirror (HD) Now Playing (Mar 30 - Apr 1                                                                          150                                
PROFAMCHA120401145402145447000045So Random (HD) Boy Sell - This Afternoon @ 3:30 (J                                                                          150                                
PROFAMCHA120401145447145528000041xAustin & Ally (HD) Music Sell - Weekend Nights @                                                                           150                                
PGRFAMCHA120401145528145901000333MV Non Disney (HD) Charlie - Good As Gone (Jan 11                                                                      10615120                                
PROFAMCHA120401145901145945000044Good Luck Charlie (HD) Clip Based Promo - Coming U                                                                          150                                
PRCFAMCHA120401145945150003000018Family Bumper Flex (HD) Flex ID Version #4 (Mar201                                                                          150                                
PGRFAMCHA120401150003152237002234Good Luck Charlie                                 EP: 09                                                               6068707BCC                              
ID FAMCHA120401152237152243000006Astral ID (HD) (Jan2011)                                                                                                    150                                
PRCFAMCHA120401152243152310000027Radio Disney (HD) Launch Spot (Jan 13 - Jun 24)                                                                             150                                
PROFAMCHA120401152310152400000050Microsoft                                                                                                                   150                                
PROFAMCHA120401152400152424000024Jessie (HD) Clip Promo #2 - This Afternoon @ 4:00                                                                           150                                
PGRFAMCHA120401152424152644000220One Direction Interview  (HD) Generic (Mar13-Apr1)                                                                     60688120                                
PROFAMCHA120401152644152732000048Shake It Up (HD) Refresh - Weekend Afternoons @ 5:                                                                          150                                
PROFAMCHA120401152732152812000040Gogo's Crazy Bones                                                                                                          150                                
PROFAMCHA120401152812152833000021Wingin It (HD) Season 2 Promo - Monday to Thursday                                                                          150                                
PROFAMCHA120401152833152923000050Activision                                                                                                                  150                                
PROFAMCHA120401152923152953000030xSo Random (HD) Girl Sell - Coming Up Next (July20                                                                          150                                
PRCFAMCHA120401152953153001000008Family Bumper (HD) - Origami ID (Jan 2011)                                                                                  150                                
PGRFAMCHA120401153001155343002342So Random!                                        EP: 26                                                               6068807BCC                              
PROFAMCHA120401155343155410000027Disney XD (HD) Pair of Kings is Moving - Saturdays                                                                          150                                
PROFAMCHA120401155410155500000050Fox Home & Entertainment                                                                                                    150                                
PRCFAMCHA120401155500155514000014One Direction (HD) Station ID (Mar 23 - May 23)                                                                             150                                
PROFAMCHA120401155514155537000023WOWP (HD) Harper Retag - This Afternoon @ 4:30 (Ju                                                                          150                                
PGRFAMCHA120401155537155707000130MV Disney (HD) Blush - Up Up and Away (from SIU) (                                                                     60685120                                
PROFAMCHA120401155707155748000041xAustin & Ally (HD) Music Sell - Weekend Nights @                                                                           150                                
PGRFAMCHA120401155748155828000040Time I... S2  (HD) Dyslexia (Bella Thorne) (Mar9-M                                                                     60688120                                
PROFAMCHA120401155828155903000035DEBRA! (HD) Hypotenuse Promo - Tonight @ 6:30 (Dec                                                                          150                                
PROFAMCHA120401155903155913000010Parmalat                                                                                                                    150                                
PROFAMCHA120401155913155952000039Jessie (HD) Clip Promo #1 - Coming Up Next (Feb201                                                                          150                                
PRCFAMCHA120401155952160002000010Family Bumper (HD) - Satelite ID (Jan 2011)                                                                                 150                                
PGRFAMCHA120401160002162237002235Disney Jessie                                     EP: 10                                                               6068807BCC                              
ID FAMCHA120401162237162243000006Astral ID (HD) (Jan2011)                                                                                                    150                                
PROFAMCHA120401162243162254000011LU(SS) - 16 - WOWP/SIU @ 5:00pm (HD) (:9 - :11) Se                                                                          150                                
PROFAMCHA120401162254162326000032xSharpay's Fabulous Adventure (HD) Promo - Saturda                                                                          150                                
PROFAMCHA120401162326162406000040Kellogg's                                                                                                                   150                                
PROFAMCHA120401162406162436000030Shake It Up (HD) Repack - This Afternoon @ 5:00 (M                                                                          150                                
PGRFAMCHA120401162436162816000340MV Non Disney (HD) JD - Sparks Are Gonna Fly (Jan                                                                      10615120                                
PROFAMCHA120401162816162931000115xANT Farm (HD) Music Video - Monday Night @ 8:00 (                                                                          150                                
PROFAMCHA120401162931162945000014xWOWP (HD) Alex S3 GENERIC - Coming Up Next (Jan20                                                                          150                                
PRCFAMCHA120401162945163006000021Family Bumper (HD) - Wallpaper ID (Jan 2011)                                                                                150                                
PGRFAMCHA120401163006165238002232Disney Wizards of Waverly Place                   EP: 09                                                               6068607BCC                              
PROFAMCHA120401165238165322000044Disney XD (HD) Takeover - Sat Apr 14 Starting @ 11                                                                          150                                
PROFAMCHA120401165322165332000010Lego                                                                                                                        150                                
PROFAMCHA120401165332165413000041xAustin & Ally (HD) Music Sell - Weekend Nights @                                                                           150                                
PGRFAMCHA120401165413165713000300MV Disney (HD) Bella & Zendaya - TTYLXOX/Something                                                                     60685120                                
PROFAMCHA120401165713165758000045xSo Random (HD) Super Tease Promo - Tonight @ 8:30                                                                          150                                
PROFAMCHA120401165758165848000050Activision                                                                                                                  150                                
PROFAMCHA120401165848165936000048Shake It Up (HD) Refresh - Coming Up Next (June201                                                                          150                                
PRCFAMCHA120401165936165953000017Family Bumper Flex (HD) Flex ID Version #1 (Mar201                                                                          150                                
PGRFAMCHA120401165953172229002236Disney Shake It Up                                EP: 05                                                               6068707BCC                              
ID FAMCHA120401172229172234000005Astral ID (HD) (Jan2011)                                                                                                    150                                
PROFAMCHA120401172234172259000025xAgent Cody Banks 2 (HD) Popcorn Pix - Friday Nigh                                                                          150                                
PROFAMCHA120401172259172329000030Microsoft                                                                                                                   150                                
PROFAMCHA120401172329172349000020Good Luck Charlie (HD) DuncanBallet - Tonight @ 6:                                                                          150                                
PGRFAMCHA120401172349172710000321MV Disney (HD) China Anne McClain - Unstoppable (M                                                                     60685120                                
PROFAMCHA120401172710172753000043Phineas&Ferb (HD) Clip Based Promo - Weekday Morni                                                                          150                                
PROFAMCHA120401172753172843000050Fox Home & Entertainment                                                                                                    150                                
PROFAMCHA120401172843172943000100Austin & Ally (HD) Deep Sell - Coming Up Next (Jan                                                                          150                                
PRCFAMCHA120401172943172953000010Family Bumper (HD) - Amoeba ID (Jan 2011)                                                                                   150                                
PGRFAMCHA120401172953175556002603Disney Austin & Ally                              EP: 01                                                               6068807BCC                              
PRCFAMCHA120401175556175628000032FOD (HD) Family.ca New Look (Oct2011) (2-3x per da                                                                          150                                
PROFAMCHA120401175628175718000050Activision                                                                                                                  150                                
PROFAMCHA120401175718175759000041xAustin & Ally (HD) Music Sell - Wednesday Night @                                                                          150                                
PGRFAMCHA120401175759175901000102MV Non Disney (HD) Veronica - Incompatible (March                                                                      10615120                                
PROFAMCHA120401175901175945000044Good Luck Charlie (HD) Clip Based Promo - Coming U                                                                          150                                
PRCFAMCHA120401175945175956000011Family Bumper (HD) - Bobbleheads ID (Jan 2011)                                                                              150                                
PGRFAMCHA120401175956182231002235Good Luck Charlie                                 EP: 20                                                               6068707BCC                              
ID FAMCHA120401182231182236000005Astral ID (HD) (Jan2011)                                                                                                    150                                
PRCFAMCHA120401182236182303000027Radio Disney (HD) Launch Spot (Jan 13 - Jun 24)                                                                             150                                
PROFAMCHA120401182303182353000050Activision                                                                                                                  150                                
PROFAMCHA120401182353182423000030xWOWP (HD) Spellbook - Tonight @ 7:00 (Oct2011)                                                                             150                                
PGRFAMCHA120401182423182553000130MV Disney (HD) Blush - Up Up and Away (from SIU) (                                                                     60685120                                
PROFAMCHA120401182553182632000039Jessie (HD) Clip Promo #1 - Tuesday Night @ 8:00 (                                                                          150                                
PROFAMCHA120401182632182712000040Kellogg's                                                                                                                   150                                
PROFAMCHA120401182712182827000115xANT Farm (HD) Music Video - Monday Night @ 8:00 (                                                                          150                                
PROFAMCHA120401182827182917000050Microsoft                                                                                                                   150                                
PROFAMCHA120401182917182949000032DEBRA! (HD) Refresh - Coming Up Next (Feb2012)                                                                              150                                
PRCFAMCHA120401182949183007000018Family Bumper (HD) - Dominoes ID (Jan 2011)                                                                                 150                                
PGRFAMCHA120401183007185239002232DEBRA!                                            EP: 04                                                        C35763 1055607ACD3                             
PROFAMCHA120401185239185249000010LU(SS) - 21 - WOWP/SLOD @ 7:30pm (HD) (:9 - :11) S                                                                          150                                
PROFAMCHA120401185249185321000032xSharpay's Fabulous Adventure (HD) Promo - Saturda                                                                          150                                
PROFAMCHA120401185321185411000050Fox Home & Entertainment                                                                                                    150                                
PROFAMCHA120401185411185458000047SLOD (HD) Refresh - Tonight @ 7:30 (Dec2011)                                                                                150                                
PGRFAMCHA120401185458185831000333MV Non Disney (HD) Charlie - Good As Gone (Jan 11                                                                      10615120                                
PROFAMCHA120401185831185901000030Wingin It (HD) Bennet High Clip - Monday-Wednesday                                                                          150                                
PROFAMCHA120401185901185911000010Lego                                                                                                                        150                                
PROFAMCHA120401185911185934000023xWOWP (HD) Harper - Coming Up Next (Jan2011)                                                                                150                                
PRCFAMCHA120401185934185952000018Family Bumper Flex (HD) Flex ID Version #2 (Mar201                                                                          150                                
PGRFAMCHA120401185952192228002236Disney Wizards of Waverly Place                   EP: 09                                                               6068507BCC                              
ID FAMCHA120401192228192234000006Astral ID (HD) (Jan2011)                                                                                                    150                                
PROFAMCHA120401192234192245000011LU(SS) - 22 - SLOD/SWAC @ 8:00pm (HD) (:9 - :11) S                                                                          150                                
PROFAMCHA120401192245192312000027Disney XD (HD) Pair of Kings is Moving - Saturdays                                                                          150                                
PROFAMCHA120401192312192352000040Gogo's Crazy Bones                                                                                                          150                                
PROFAMCHA120401192352192504000112xSWAC (HD) Repack - Tonight @ 8:00 (Jun2011)                                                                                150                                
PRCFAMCHA120401192504192518000014One Direction (HD) Station ID (Mar 23 - May 23)                                                                             150                                
PGRFAMCHA120401192518192722000204Mimoza Duot Interstitial  (HD) Profile (March 23 -                                                                     60688120                                
PROFAMCHA120401192722192803000041xAustin & Ally (HD) Music Sell - Wednesday Night @                                                                          150                                
PROFAMCHA120401192803192853000050Activision                                                                                                                  150                                
PROFAMCHA120401192853192940000047SLOD (HD) Refresh - Coming Up Next (Dec2011)                                                                                150                                
PRCFAMCHA120401192940192949000009Family Bumper (HD) - Dragonflies ID (Jan 2011)                                                                              150                                
PGRFAMCHA120401192949195522002533The Suite Life on Deck                            EP: 27                                                               6068607BCC                              
PROFAMCHA120401195522195606000044Disney XD (HD) Takeover - Sat Apr 14 Starting @ 11                                                                          150                                
PROFAMCHA120401195606195651000045Universal Music                                                                                                             150                                
PROFAMCHA120401195651195730000039Jessie (HD) Clip Promo #1 - Tuesday Night @ 8:00 (                                                                          150                                
PROFAMCHA120401195730195820000050Fox Home & Entertainment                                                                                                    150                                
PROFAMCHA120401195820195848000028Really Me (HD) Generic Promo - Thursday Night @ 9:                                                                          150                                
PROFAMCHA120401195848195933000045Paramount Pictures                                                                                                          150                                
PROFAMCHA120401195933195948000015xSWAC (HD) S2 Generic - Coming Up Next (Jan2011)                                                                            150                                
PRCFAMCHA120401195948200002000014Family Bumper (HD) - Drums ID (Jan 2011)                                                                                    150                                
PGRFAMCHA120401200002202237002235Disney Sonny With A Chance                        EP: 15                                                               6068507BCC                              
ID FAMCHA120401202237202243000006Astral ID (HD) (Jan2011)                                                                                                    150                                
PROFAMCHA120401202243202308000025xAgent Cody Banks 2 (HD) Popcorn Pix - Friday Nigh                                                                          150                                
PROFAMCHA120401202308202353000045Universal Home Entertainment                                                                                                150                                
PROFAMCHA120401202353202440000047Shake It Up (HD) Dance Retag - Monday to Thursday                                                                           150                                
PROFAMCHA120401202440202625000145ME: Hunger Games (HD) Now Playing (Mar 23 - April                                                                           150                                
PROFAMCHA120401202625202645000020Good Luck Charlie (HD) DuncanBallet - Mon to Thurs                                                                          150                                
PGRFAMCHA120401202645202815000130MV Disney (HD) China Anne McClain - Unstoppable (M                                                                     60685120                                
PROFAMCHA120401202815202836000021Wingin It (HD) Season 2 Promo - Monday to Thursday                                                                          150                                
PROFAMCHA120401202836202916000040Parmalat                                                                                                                    150                                
PROFAMCHA120401202916202946000030xSo Random (HD) Girl Sell - Coming Up Next (July20                                                                          150                                
PRCFAMCHA120401202946203003000017Family Bumper (HD) - Fashion ID (Jan 2011)                                                                                  150                                
PGRFAMCHA120401203003205138002135So Random!                                        EP: 06                                                               6068807BCC                              
PROFAMCHA120401205138205222000044Disney XD (HD) Takeover - Sat Apr 14 Starting @ 11                                                                          150                                
PROFAMCHA120401205222205252000030Microsoft                                                                                                                   150                                
PROFAMCHA120401205252205311000019SLOD (HD) Whale Clip Promo - Weekday Mornings @ 11                                                                          150                                
PROFAMCHA120401205311205354000043Phineas&Ferb (HD) Clip Based Promo - Weekday After                                                                          150                                
PGRFAMCHA120401205354205734000340MV Non Disney (HD) JD - Sparks Are Gonna Fly (Jan                                                                      10615120                                
PROFAMCHA120401205734205815000041xAustin & Ally (HD) Music Sell - Wednesday Night @                                                                          150                                
PROFAMCHA120401205815205845000030D-JR Promo - MMCH - Get more MMCH on D-JR the chan                                                                          150                                
PROFAMCHA120401205845205919000034xMotocrossed (HD) Popcorn Pix - Coming Up Next (Ma                                                                          150                                
PRCFAMCHA120401205919205951000032FOD (HD) Family.ca New Look (Oct2011) (2-3x per da                                                                          150                                
ID FAMCHA120401205951210006000015Popcorn Pix Block Open (HD)  (Jan2011)                                                                                      150                                
ID FAMCHA120401210006210016000010Popcorn Pix Rating Slate (HD) - G (Jan 2011)                                                                                150                                
ID FAMCHA120401210016210021000005xMagic of Disney Bumper (HD)(:5-:6) (Jan 2011)                                                                              150                                
PGRFAMCHA120401210021223206013145Motocrossed                                                                                                           A6068807CCC                              
ID FAMCHA120401223206223211000005Astral ID (HD) (Jan2011)                                                                                                    150                                
PROFAMCHA120401223211223241000030Stella and Sam - Get more Stella & Sam on D-JR the                                                                          150                                
ID FAMCHA120401223241223256000015Popcorn Pix Block Open (HD)  (Jan2011)                                                                                      150                                
ID FAMCHA120401223256223306000010Popcorn Pix Rating Slate (HD) - PG (Jan 2011)                                                                               150                                
PGRFAMCHA120401223306001445014139It Could Happen To You                                                                                                 2068807DCC                              
PRCFAMCHA120401001445001454000009DV Bumper 1 - Teal FEB2010                                                                                                  150                                
PGRFAMCHA120401001454003725002231Baxter                                            EP: 12                                                        C31572 1065607BCD                              
ID FAMCHA120401003725003731000006Astral ID (HD) (Jan2011)                                                                                                    150                                
PRCFAMCHA120401003731003741000010Family Bumper (HD) - Satelite ID (Jan 2011)                                                                                 150                                
PGRFAMCHA120401003741005943002202Connor Undercover                                 EP: 10                                                        C29997 1065607BCC                              
ID FAMCHA120401005943005948000005Astral ID (HD) (Jan2011)                                                                                                    150                                
PROFAMCHA120401005948005958000010LU - 33 - HANNAH/CORY 1:25am (HD) (:9 - :11) Jan 2                                                                          150                                
PRCFAMCHA120401005958010006000008Family Bumper (HD) - Origami ID (Jan 2011)                                                                                  150                                
PGRFAMCHA120401010006012241002235Hannah Montana                                    EP: 09                                                               6068807BCC                              
PROFAMCHA120401012241012251000010LU - 34 - CORY/PHIL OF THE FUTURE 1:45am (HD) (:9                                                                           150                                
PRCFAMCHA120401012251012321000030Family Bumper Flex (HD) Flex ID Version #1 (Mar201                                                                          150                                
PGRFAMCHA120401012321014556002235Disney Cory in the House                          EP: 01                                                               6068607BCC                              
ID FAMCHA120401014556014602000006Astral ID (HD) (Jan2011)                                                                                                    150                                
PROFAMCHA120401014602014613000011LU - 35 - PHIL OF THE FUTURE/LIZZIE MCGUIRE 2:10am                                                                          150                                
PRCFAMCHA120401014613014623000010Family Bumper (HD) - Satelite ID (Jan 2011)                                                                                 150                                
ID FAMCHA120401014623014628000005xMagic of Disney Bumper (HD)(:5-:6) (Jan 2011)                                                                              150                                
PGRFAMCHA120401014628020840002212Phil of the Future                                EP: 23                                                               6068607BCD                              
PROFAMCHA120401020840020851000011LU - 36 - LIZZIE MCGUIRE/DEREK 2:30am (HD) (:9 - :                                                                          150                                
PRCFAMCHA120401020851020912000021Family Bumper (HD) - Wallpaper ID (Jan 2011)                                                                                150                                
ID FAMCHA120401020912020917000005xMagic of Disney Bumper (HD)(:5-:6) (Jan 2011)                                                                              150                                
PGRFAMCHA120401020917023150002233Lizzie McGuire                                    EP: 23                                                               6068607BCC                              
ID FAMCHA120401023150023156000006Astral ID (HD) (Jan2011)                                                                                                    150                                
PROFAMCHA120401023156023207000011LU - 37 - DEREK/CORY 2:55am (HD) (:9 - :11) Jan201                                                                          150                                
PRCFAMCHA120401023207023217000010Family Bumper (HD) - Amoeba ID (Jan 2011)                                                                                   150                                
PGRFAMCHA120401023217025447002230Life With Derek                                   EP: 10                                                        C24891 1065607BCC                              
PROFAMCHA120401025447025457000010LU - 38 - CORY/RAVEN 3:20am (HD) (:9 - :11) Jan201                                                                          150                                
PRCFAMCHA120401025457025527000030Family Bumper Flex (HD) Flex ID Version #2 (Mar201                                                                          150                                
PGRFAMCHA120401025527031805002238Disney Cory in the House                          EP: 02                                                               6068607BCC                              
ID FAMCHA120401031805031811000006Astral ID (HD) (Jan2011)                                                                                                    150                                
PROFAMCHA120401031811031822000011LU - 39 - RAVEN/SLZC 3:40am (HD) (:9 - :11) Jan201                                                                          150                                
PRCFAMCHA120401031822031833000011Family Bumper (HD) - Bobbleheads ID (Jan 2011)                                                                              150                                
ID FAMCHA120401031833031838000005xMagic of Disney Bumper (HD)(:5-:6) (Jan 2011)                                                                              150                                
PGRFAMCHA120401031838034115002237That's So Raven                                   EPS # 1-058                                                          6068607BCC                              
PROFAMCHA120401034115034126000011LU - 40 - SLZC/DEREK 4:05am (HD) (:9 - :11) Jan201                                                                          150                                
PRCFAMCHA120401034126034144000018Family Bumper (HD) - Dominoes ID (Jan 2011)                                                                                 150                                
ID FAMCHA120401034144034149000005xMagic of Disney Bumper (HD)(:5-:6) (Jan 2011)                                                                              150                                
PGRFAMCHA120401034149040400002211The Suite Life of Zack and Cody                   EP: 11                                                               6068607BCC                              
ID FAMCHA120401040400040406000006Astral ID (HD) (Jan2011)                                                                                                    150                                
PROFAMCHA120401040406040416000010LU - 41 - LIFE WITH DEREK (HD) (:9 - :11) Jan2011                                                                           150                                
PRCFAMCHA120401040416040430000014Family Bumper (HD) - Drums ID (Jan 2011)                                                                                    150                                
PGRFAMCHA120401040430042700002230Life with Derek                                   EP: 01                                                        C26822 1065607BCC                              
PROFAMCHA120401042700042741000041D-JR Promo - Strawberry's Berry Big Week - Starts                                                                           150                                
PROFAMCHA120401042741042811000030D-JR Promo - MMCH - Get more MMCH on D-JR the chan                                                                          150                                
PROFAMCHA120401042811042841000030Stella and Sam - Get more Stella & Sam on D-JR the                                                                          150                                
PROFAMCHA120401042841042916000035D-JR Promo - Handy Manny - Get more on the channel                                                                          150                                
PROFAMCHA120401042916042951000035D-JR Promo - Super Spring Sunday - Sunday Morning                                                                           150                                
PROFAMCHA120401042951042959000008D-JR - Station ID (:08) (May2011)                                                                                           150                                
OFFFAMCHA120401042959043000000001OFF AIR                                                                                                                                                        
SO FAMCHA120402043000043011000011Sign On (oct 1)                                                                                                                                                
PGRFAMCHA120402043011045649002638Katie And Orbie                                   EP: 54                                                        C19665A1065607ECC                              
ID FAMCHA120402045649045655000006Astral ID (HD) (Jan2011)                                                                                                    150                                
PROFAMCHA120402045655045701000006D-JR - Flex ID - Yellow (:6-:10) (Feb2012)                                                                                  150                                
PGRFAMCHA120402045701051933002232Franny's Feet                                     EP: 47                                                        C31292 1065607ECC                              
PROFAMCHA120402051933052005000032D-JR Icon Story - SWOBB - Maze Part 1 - Coming Up                                                                           150                                
PROFAMCHA120402052005052035000030D-JR Promo - Doc McStuffins Contest 1 - Prems Sun                                                                           150                                
PROFAMCHA120402052035052105000030D-JR Icon Story - SWOBB - Maze Part 2 - Now (May 2                                                                          150                                
PROFAMCHA120402052105052111000006D-JR - Bumper 8 (May2011)                                                                                                   150                                
PGRFAMCHA120402052111054341002230The Secret World of Benjamin Bear                 EP: 20                                                        C26066 1065607ECD                              
ID FAMCHA120402054341054346000005Astral ID (HD) (Jan2011)                                                                                                    150                                
PROFAMCHA120402054346054353000007D-JR - Flex ID - Purple (:6-:10) (Feb2012)                                                                                  150                                
PGRFAMCHA120402054353060530002137Harry and His Bucket Full of Dinosaurs            EP: 05                                                        B05024 1065607ECC                              
PROFAMCHA120402060530060536000006D-JR - Bumper 6 (May2011)                                                                                                   150                                
PGRFAMCHA120402060536062942002406Henry's World                                     EPS # 2-025                                                   B81056 1065607ECC                              
ID FAMCHA120402062942062948000006Astral ID (HD) (Jan2011)                                                                                                    150                                
PROFAMCHA120402062948063018000030D-JR Promo - Doc McStuffins Contest 1 - Prems Sun                                                                           150                                
PROFAMCHA120402063018063037000019SLOD (HD) Whale Clip Promo - This Morning @ 7:00 (                                                                          150                                
PGRFAMCHA120402063037063202000125Time I... S2  (HD) Got 322 Pairs of Shoes (Mar23-M                                                                     60688120                                
PROFAMCHA120402063202063317000115xANT Farm (HD) Music Video - Tonight @ 8:00 (Feb20                                                                          150                                
PROFAMCHA120402063317063400000043Phineas&Ferb (HD) Clip Based Promo - Coming Up Nex                                                                          150                                
PROFAMCHA120402063400063444000044Disney XD (HD) Takeover - Sat Apr 14 Starting @ 11                                                                          150                                
PRCFAMCHA120402063444063459000015Family Bumper (HD) - Horseshoe ID (Jan 2011)                                                                                150                                
PGRFAMCHA120402063459065731002232Disney Phineas & Ferb                             EP: 01                                                               6068607ECC                              
PROFAMCHA120402065731065745000014xWOWP (HD) Alex S3 GENERIC - Today @ Noon (Jan2011                                                                          150                                
PROFAMCHA120402065745065835000050Activision                                                                                                                  150                                
PROFAMCHA120402065835065905000030Shake It Up (HD) Repack - Weekend Mornings @ 11:30                                                                          150                                
PROFAMCHA120402065905065935000030Microsoft                                                                                                                   150                                
PROFAMCHA120402065935065954000019SLOD (HD) Whale Clip Promo - Coming Up Next (Feb20                                                                          150                                
PRCFAMCHA120402065954070002000008Family Bumper (HD) - Origami ID (Jan 2011)                                                                                  150                                
PGRFAMCHA120402070002072135002133The Suite Life on Deck                            EP: 18                                                               6068607BCC                              
ID FAMCHA120402072135072140000005Astral ID (HD) (Jan2011)                                                                                                    150                                
PROFAMCHA120402072140072210000030xGeek Charming (HD) Pop Sell - Sunday @ Noon (Nov2                                                                          150                                
PROFAMCHA120402072210072300000050Microsoft                                                                                                                   150                                
PROFAMCHA120402072300072341000041xAustin & Ally (HD) Music Sell - Wednesday Night @                                                                          150                                
PGRFAMCHA120402072341072441000100MV Disney (HD) Bella Thorne - TTYLXOX (Mar19-Jun30                                                                     60685120                                
PROFAMCHA120402072441072447000006Hannah (HD) ID - Jason Earles 2 - "Coming Up Next"                                                                          150                                
PRCFAMCHA120402072447072503000016Family Bumper (HD) - Hot Potato ID (Jan 2011)                                                                               150                                
PGRFAMCHA120402072503074740002237Hannah Montana                                    EP: 20                                                               6068807BCC                              
PRCFAMCHA120402074740074812000032FOD (HD) Family.ca New Look (Oct2011) (2-3x per da                                                                          150                                
PROFAMCHA120402074812074852000040Gogo's Crazy Bones                                                                                                          150                                
PROFAMCHA120402074852074924000032xSharpay's Fabulous Adventure (HD) Promo - Saturda                                                                          150                                
PROFAMCHA120402074924075009000045Universal Music                                                                                                             150                                
PROFAMCHA120402075009075053000044ANT Farm (HD) Sister Sell - Coming Up Next (July20                                                                          150                                
PRCFAMCHA120402075053075106000013Family Bumper (HD) - Karate ID (Jan 2011)                                                                                   150                                
PGRFAMCHA120402075106081340002234Disney A.N.T. Farm                                EP: 11                                                               6068607BCC                              
ID FAMCHA120402081340081346000006Astral ID (HD) (Jan2011)                                                                                                    150                                
PRCFAMCHA120402081346081413000027Radio Disney (HD) Launch Spot (Jan 13 - Jun 24)                                                                             150                                
PROFAMCHA120402081413081437000024Jessie (HD) Clip Promo #2 - Tuesday Night @ 8:00 (                                                                          150                                
PGRFAMCHA120402081437081641000204Mimoza Duot Interstitial  (HD) Profile (March 23 -                                                                     60688120                                
PRCFAMCHA120402081641081655000014One Direction (HD) Station ID (Mar 23 - May 23)                                                                             150                                
PROFAMCHA120402081655081730000035Phineas&Ferb (HD) Candace - Coming Up Next (June20                                                                          150                                
PROFAMCHA120402081730081800000030D-JR Promo - Doc McStuffins Contest 1 - Prems Sun                                                                           150                                
PRCFAMCHA120402081800081810000010Family Bumper (HD) - Satelite ID (Jan 2011)                                                                                 150                                
PGRFAMCHA120402081810084044002234Disney Phineas & Ferb                             EP: 05                                                               6068607ECC                              
PROFAMCHA120402084044084115000031D-JR Icon Story - Strawberry Shortcake - Silly Son                                                                          150                                
PROFAMCHA120402084115084150000035D-JR Promo - Super Spring Sunday - Sunday Morning                                                                           150                                
PROFAMCHA120402084150084230000040MGA Entertainment                                                                                                           150                                
PROFAMCHA120402084230084300000030Stella and Sam - Get more Stella & Sam on D-JR the                                                                          150                                
PROFAMCHA120402084300084325000025D-JR Promo - JATNP - Get more on the channel REV (                                                                          150                                
PROFAMCHA120402084325084415000050The Walt Disney Company                                                                                                     150                                
PROFAMCHA120402084415084456000041D-JR Promo - Strawberry's Berry Big Week - Coming                                                                           150                                
PROFAMCHA120402084456084527000031D-JR Icon Story - Strawberry Shortcake - Silly Son                                                                          150                                
PROFAMCHA120402084527084532000005D-JR - Station ID (:05) (May2011)                                                                                           150                                
PGRFAMCHA120402084532090736002204Strawberry Shortcake                              EP: 04                                                               2068605ACC                              
ID FAMCHA120402090736090742000006Astral ID (HD) (Jan2011)                                                                                                    150                                
PROFAMCHA120402090742090812000030D-JR Icon Story - Mickey Mouse Clubhouse - Seesaw                                                                           150                                
PROFAMCHA120402090812090853000041D-JR Promo - Strawberry's Berry Big Week - Continu                                                                          150                                
PROFAMCHA120402090853090938000045Walt Disney Studios Home Entertainment                                                                                      150                                
PROFAMCHA120402090938091003000025D-JR Promo - JATNP - Get more on the channel REV (                                                                          150                                
PROFAMCHA120402091003091033000030D-JR Promo - Doc McStuffins Contest 1 - Prems Sun                                                                           150                                
PROFAMCHA120402091033091103000030D-JR Icon Story - Mickey Mouse Clubhouse - Seesaw                                                                           150                                
PROFAMCHA120402091103091111000008D-JR - Flex ID - Blue (:6-:10) (Feb2012)                                                                                    150                                
PGRFAMCHA120402091111093512002401Disney's Mickey Mouse Clubhouse                   EP: 30                                                               6068605ACC                              
PROFAMCHA120402093512093544000032D-JR Icon Story - JATNLP - Maze Part 1 - Coming Up                                                                          150                                
PROFAMCHA120402093544093634000050The Walt Disney Company                                                                                                     150                                
PROFAMCHA120402093634093705000031D-JR Icon Story - JATNLP - Maze Part 2 - Now (May                                                                           150                                
PROFAMCHA120402093705093713000008D-JR - Station ID (:08) (May2011)                                                                                           150                                
PGRFAMCHA120402093713100121002408Disney Jake and the Never Land Pirates            EP: 05                                                               6068605ACC                              
ID FAMCHA120402100121100127000006Astral ID (HD) (Jan2011)                                                                                                    150                                
PROFAMCHA120402100127100158000031D-JR Icon Story - Mickey Mouse Clubhouse - Silly S                                                                          150                                
PROFAMCHA120402100158100239000041D-JR Promo - Strawberry's Berry Big Week - Continu                                                                          150                                
PROFAMCHA120402100239100324000045Walt Disney Studios Home Entertainment                                                                                      150                                
PROFAMCHA120402100324100354000030D-JR Icon Story - Mickey Mouse Clubhouse - Silly S                                                                          150                                
PROFAMCHA120402100354100359000005D-JR - Station ID (:05) (May2011)                                                                                           150                                
PGRFAMCHA120402100359102759002400Disney's Mickey Mouse Clubhouse                   EP: 07                                                               6068605ACC                              
PROFAMCHA120402102759102829000030D-JR Icon Story - Handy Manny - Seesaw Part 1 - Co                                                                          150                                
PROFAMCHA120402102829102859000030D-JR Promo - Doc McStuffins Contest 1 - Prems Sun                                                                           150                                
PROFAMCHA120402102859102944000045Walt Disney Studios Home Entertainment                                                                                      150                                
PROFAMCHA120402102944103014000030D-JR Icon Story - Handy Manny - Seesaw Part 2 - No                                                                          150                                
PROFAMCHA120402103014103020000006D-JR - Bumper 6 (May2011)                                                                                                   150                                
PGRFAMCHA120402103020105420002400Handy Manny                                       EP: 09                                                               6068605ACC                              
ID FAMCHA120402105420105425000005Astral ID (HD) (Jan2011)                                                                                                    150                                
PROFAMCHA120402105425105457000032xSharpay's Fabulous Adventure (HD) Promo - Saturda                                                                          150                                
PGRFAMCHA120402105457105837000340MV Non Disney (HD) JD - Sparks Are Gonna Fly (Jan                                                                      10615120                                
PROFAMCHA120402105837105922000045xSo Random (HD) Super Tease Promo - New Episode Fr                                                                          150                                
PROFAMCHA120402105922105957000035Phineas&Ferb (HD) Candace - Coming Up Next (June20                                                                          150                                
PRCFAMCHA120402105957110018000021Family Bumper (HD) - Wallpaper ID (Jan 2011)                                                                                150                                
PGRFAMCHA120402110018112312002254Disney Phineas & Ferb                             EP: 08                                                               6068607ECC                              
PRCFAMCHA120402112312112339000027Radio Disney (HD) Launch Spot (Jan 13 - Jun 24)                                                                             150                                
PROFAMCHA120402112339112429000050Activision                                                                                                                  150                                
PROFAMCHA120402112429112513000044xHannah (HD) Refresh - This Afternoon @ 12:30 (May                                                                          150                                
PGRFAMCHA120402112513112846000333MV Non Disney (HD) Charlie - Good As Gone (Jan 11                                                                      10615120                                
PROFAMCHA120402112846112906000020Good Luck Charlie (HD) DuncanBallet - This Afterno                                                                          150                                
PROFAMCHA120402112906112941000035D-JR Promo - Handy Manny - Get more on the channel                                                                          150                                
PROFAMCHA120402112941112951000010Parmalat                                                                                                                    150                                
PROFAMCHA120402112951113010000019SLOD (HD) Whale Clip Promo - Coming Up Next (Feb20                                                                          150                                
PRCFAMCHA120402113010113020000010Family Bumper (HD) - Amoeba ID (Jan 2011)                                                                                   150                                
PGRFAMCHA120402113020115235002215The Suite Life on Deck                            EP: 21                                                               6068807BCC                              
ID FAMCHA120402115235115240000005Astral ID (HD) (Jan2011)                                                                                                    150                                
PROFAMCHA120402115240115305000025xAgent Cody Banks 2 (HD) Popcorn Pix - Friday Nigh                                                                          150                                
PROFAMCHA120402115305115345000040Gogo's Crazy Bones                                                                                                          150                                
PGRFAMCHA120402115345115425000040Time I... S2  (HD) Dyslexia (Bella Thorne) (Mar9-M                                                                     60688120                                
PROFAMCHA120402115425115449000024Jessie (HD) Clip Promo #2 - Tuesday Night @ 8:00 (                                                                          150                                
PGRFAMCHA120402115449115810000321MV Disney (HD) China Anne McClain - Unstoppable (M                                                                     60685120                                
PROFAMCHA120402115810115838000028Really Me (HD) Generic Promo - Saturday Night @ 6:                                                                          150                                
PROFAMCHA120402115838115928000050Microsoft                                                                                                                   150                                
PROFAMCHA120402115928115951000023xWOWP (HD) Harper - Coming Up Next (Jan2011)                                                                                150                                
PRCFAMCHA120402115951120010000019Family Bumper Flex (HD) Flex ID Version #1 (Mar201                                                                          150                                
PGRFAMCHA120402120010122215002205Disney Wizards of Waverly Place                   EP: 09                                                               6068607BCC                              
PROFAMCHA120402122215122226000011LU - 08 - HANNAH/SWAC @ 1:00pm (HD) (:9 - :11) Sep                                                                          150                                
PROFAMCHA120402122226122310000044Disney XD (HD) Takeover - Sat Apr 14 Starting @ 11                                                                          150                                
PROFAMCHA120402122310122355000045Universal Music                                                                                                             150                                
PROFAMCHA120402122355122507000112xSWAC (HD) Repack - This Afternoon @ 1pm (Sept 201                                                                          150                                
PROFAMCHA120402122507122542000035Phineas&Ferb (HD) Candace - This Afternoon @ 4:00                                                                           150                                
PROFAMCHA120402122542122632000050Activision                                                                                                                  150                                
PROFAMCHA120402122632122702000030xGeek Charming (HD) Pop Sell - Sunday @ Noon (Nov2                                                                          150                                
PGRFAMCHA120402122702122831000129MV Non Disney (HD) Veronica - Incompatible (March                                                                      10615120                                
PRCFAMCHA120402122831122845000014One Direction (HD) Station ID (Mar 23 - May 23)                                                                             150                                
PROFAMCHA120402122845122915000030Stella and Sam - Get more Stella & Sam on D-JR the                                                                          150                                
PROFAMCHA120402122915122959000044xHannah (HD) Refresh - Coming Up Next (May2011)                                                                             150                                
PRCFAMCHA120402122959123017000018Family Bumper (HD) - Dominoes ID (Jan 2011)                                                                                 150                                
PGRFAMCHA120402123017125254002237Hannah Montana                                    EP: 25                                                               6068807BCC                              
ID FAMCHA120402125254125259000005Astral ID (HD) (Jan2011)                                                                                                    150                                
PROFAMCHA120402125259125329000030D-JR Promo - Doc McStuffins Contest 1 - Prems Sun                                                                           150                                
PROFAMCHA120402125329125409000040Gogo's Crazy Bones                                                                                                          150                                
PROFAMCHA120402125409125428000019SLOD (HD) Whale Clip Promo - This Afternoon @ 3:30                                                                          150                                
PROFAMCHA120402125428125511000043Phineas&Ferb (HD) Clip Based Promo - Weekday After                                                                          150                                
PROFAMCHA120402125511125541000030Wingin It (HD) Clip Retag - Monday-Wednesday After                                                                          150                                
PGRFAMCHA120402125541125745000204Mimoza Duot Interstitial  (HD) Profile (March 23 -                                                                     60688120                                
PROFAMCHA120402125745125820000035DEBRA! (HD) Hypotenuse Promo - Sunday Night @ 6:30                                                                          150                                
PROFAMCHA120402125820125905000045xSWAC (HD) Made Up Show - Coming Up Next (Jan2011)                                                                          150                                
PROFAMCHA120402125905125930000025D-JR Promo - JATNP - Get more on the channel REV (                                                                          150                                
PROFAMCHA120402125930130002000032xSharpay's Fabulous Adventure (HD) Promo - Saturda                                                                          150                                
PRCFAMCHA120402130002130015000013Family Bumper (HD) - Karate ID (Jan 2011)                                                                                   150                                
PGRFAMCHA120402130015132251002236Disney Sonny With A Chance                        EP: 03                                                               6068507BCC                              
PRCFAMCHA120402132251132323000032FOD (HD) Family.ca New Look (Oct2011) (2-3x per da                                                                          150                                
PROFAMCHA120402132323132413000050Activision                                                                                                                  150                                
PROFAMCHA120402132413132500000047Shake It Up (HD) Dance Retag - Monday to Thursday                                                                           150                                
PROFAMCHA120402132500132615000115xANT Farm (HD) Music Video - Tonight @ 8:00 (Feb20                                                                          150                                
PROFAMCHA120402132615132800000145ME: Mirror Mirror (HD) Now Playing (Mar 30 - Apr 1                                                                          150                                
PROFAMCHA120402132800132841000041xAustin & Ally (HD) Music Sell - Friday Night @ 6:                                                                          150                                
PROFAMCHA120402132841132920000039Jessie (HD) Clip Promo #1 - Friday Night @ 7:00 (F                                                                          150                                
PROFAMCHA120402132920132950000030xSo Random (HD) Girl Sell - Sunday Afternoon @ 3:3                                                                          150                                
PROFAMCHA120402132950133007000017xZoey 101 (HD) Retag - Coming Up Next (Sept2011)                                                                            150                                
PRCFAMCHA120402133007133024000017Family Bumper (HD) - Fashion ID (Jan 2011)                                                                                  150                                
PGRFAMCHA120402133024135355002331Zoey 101                                          EP: 53                                                               2068807BCC                              
ID FAMCHA120402135355135401000006Astral ID (HD) (Jan2011)                                                                                                    150                                
PROFAMCHA120402135401135426000025xAgent Cody Banks 2 (HD) Popcorn Pix - Friday Nigh                                                                          150                                
PROFAMCHA120402135426135502000036xNed's DSSG (HD) School Tour - This Afternoon @ 2:                                                                          150                                
PGRFAMCHA120402135502135627000125Time I... S2  (HD) Got 322 Pairs of Shoes (Mar23-M                                                                     60688120                                
PROFAMCHA120402135627135707000040Good Luck Charlie (HD) Refresh - This Afternoon @                                                                           150                                
PGRFAMCHA120402135707135807000100MV Disney (HD) Bella Thorne - TTYLXOX (Mar19-Jun30                                                                     60685120                                
PROFAMCHA120402135807135852000045xSo Random (HD) Super Tease Promo - New Episode Fr                                                                          150                                
PROFAMCHA120402135852135922000030D-JR Promo - Doc McStuffins Contest 1 - Prems Sun                                                                           150                                
PROFAMCHA120402135922140000000038xThat's So Raven (HD) Dance Retag - Coming Up Next                                                                          150                                
