SO FAMCHA030201043000043011000011Sign On (oct 1)                                                                                                                                                
PROFAMCHA030201043011043020000009CC Disclaimer - FAST - Generic (:08-:10)                                                                                    150                                
PGRFAMCHA030201043020045352002332Little Lulu Show; The                             The Fright Racket, The Lucky Gold Piece, Very Litt            B20184A1065607ECC                              
PROFAMCHA030201045352045406000014Nonstop Wknd LU - 01(PH)- ART/KATIE/FRANKLIN (:13-                                                                          150                                
OFFFAMCHA030201045406045419000013PS Playhouse Block Open (:10-:15)                                                                                                                              
PGRFAMCHA030201045419051121001702Art Attack                                        Times Square/Solar System                                           A60686110                                
PROFAMCHA030201051121051135000014Nonstop Wknd LU - 02(PH)- KATIE/FRANKLIN/HOZE (:13                                                                          150                                
PRCFAMCHA030201051135051157000022Hoze Houndz (FIREFIGHTER - NEW EPS) - Tonight @ 7:                                                                          150                                
INTFAMCHA030201051157051251000054Disney Moments-Donald In Mathmagic-Donald Plays                                                                        60688120                                
PRCFAMCHA030201051251051309000018Franklin (CAST) - Tonight @ 6:15pm                                                                                          150                                
PRCFAMCHA030201051309051347000038Henry's World (PARTY) - Tonight @ 6:40pm                                                                                    150                                
OFFFAMCHA030201051347051400000013PS Playhouse Block Open (:10-:15)                                                                                                                              
PROFAMCHA030201051400051409000009CC Disclaimer - FAST - Family (:08-:10)                                                                                     150                                
PGRFAMCHA030201051409054047002638Katie And Orbie                                   Tom's Pool Party/Dancing Fairies/Peehew                       C19664A1065607ECC                              
PROFAMCHA030201054047054100000013Nonstop Wknd LU - 03(PH)- FRANKLIN/HOZE (:10-:13)                                                                           150                                
PRCFAMCHA030201054100054132000032Henry's World (WISH) - Weekends @ 6:40pm                                                                                    150                                
ID FAMCHA030201054132054145000013Schoolhouse Promo - Weekday Mornings                                                                                        150                                
OFFFAMCHA030201054145054200000015PS Playhouse Block Open (:10-:15)                                                                                                                              
PROFAMCHA030201054200054209000009CC Disclaimer - FAST - Family.ca (:08-:10)                                                                                  150                                
PGRFAMCHA030201054209060502002253Franklin                                          Robot/The Detective                                           B38156A1065607ECC                              
PROFAMCHA030201060502060512000010Nonstop Wknd LU - 04(PG)- HOZE (:08-:11)                                                                                    150                                
PRCFAMCHA030201060512060550000038Henry's World (PARTY) - Tonight @ 6:40pm                                                                                    150                                
OFFFAMCHA030201060550060600000010PS Playground Block Open (:10-:15) *DNU POST AUG 1                                                                                                             
PROFAMCHA030201060600060609000009CC Disclaimer - FAST - Generic (:08-:10)                                                                                    150                                
PGRFAMCHA030201060609062847002238Hoze Houndz                                       Disappearing Act/Business As Usual                            A63383A1065607ECC                              
PROFAMCHA030201062847062900000013Power Box Line-Up - 01 - POWER1/POWER2/SMART (:13-                                                                          150                                
PROFAMCHA030201062900062920000020xxAll That - Today @ 9am *DNU*                                                                                              150                                
PRCFAMCHA030201062920062950000030Snow Days Contest - Spot #1 - JAN 29 TO FEB 02                                                                              150                                
OFFFAMCHA030201062950063000000010Power Box Block Open (:10-:15)                                                                                                                                 
PGRFAMCHA030201063000065057002057Power Rangers Wild Force                          Soul Searching                                                      A6068607E                                
PROFAMCHA030201065057065111000014NSW - 06(PB-SAT)- PRWF2/SMART/LIZZIE (:13-:16)                                                                              150                                
PROFAMCHA030201065111065141000030Weekend Double Pix Promo - Today @ 12pm                                                                                     150                                
PRCFAMCHA030201065141065211000030Power Rangers Contest                                                                                                       150                                
INTFAMCHA030201065211065552000341MV Disney - Mambo #5 (LOU BEGA)                                                                                        60688120                                
PROFAMCHA030201065552065622000030Kim Possible (BOSSY) - Weekends @ 4:35pm                                                                                    150                                
INTFAMCHA030201065622065929000307Art Attack - Shuttle                                                                                                   60686120                                
PROFAMCHA030201065929065949000020xxAll That - Today @ 9am *DNU*                                                                                              150                                
OFFFAMCHA030201065949070000000011Power Box Block Open (:10-:15)                                                                                                                                 
PGRFAMCHA030201070000072129002129Power Rangers Wild Force                          Soul Bird Salvation                                                 A6068607E                                
PROFAMCHA030201072129072143000014Nonstop Wknd LU - 05(SAT)- SMRT/LIZ/AMND (:13-:16)                                                                          150                                
PROFAMCHA030201072143072213000030Weekend Double Pix Promo - Today @ 12pm                                                                                     150                                
PRCFAMCHA030201072213072243000030Snow Days Contest - Spot #1 - JAN 29 TO FEB 02                                                                              150                                
INTFAMCHA030201072243072654000411MV Disney - I'm Still Here **DNU***                                                                                    60688120                                
PROFAMCHA030201072654072718000024Boy Meets World (GYROSCOPE) - Today @ 10:15am                                                                               150                                
INTFAMCHA030201072718072901000143MV Disney - Siamese Cat Song                                                                                           60688120                                
PROFAMCHA030201072901072948000047Amanda Show (VOICE) - Today @ 8:30am                                                                                        150                                
OFFFAMCHA030201072948073000000012Nonstop Weekend Block Open (:10-:15)                                                                                                                           
PROFAMCHA030201073000073009000009CC Disclaimer - FAST - Family.ca (:08-:10)                                                                                  150                                
PGRFAMCHA030201073009075240002231Smart Guy                                         A Date With Destiny                                                 A6068807BCC                              
PROFAMCHA030201075240075254000014Nonstop Wknd LU - 06 - LIZZIE/AMANDA/ALL (:13-:16)                                                                          150                                
PROFAMCHA030201075254075324000030Weekend Double Pix Promo - Today @ 12pm                                                                                     150                                
PROFAMCHA030201075324075339000015Weekenders (REALITY) - Weekdays @ 4:40pm                                                                                    150                                
PROFAMCHA030201075339075417000038Even Stevens (BUTLER) - Today @ 9:25am                                                                                      150                                
INTFAMCHA030201075417075846000429Art Attack - Cowboy                                                                                                    60686120                                
PROFAMCHA030201075846075909000023Proud Family (HERO) - Today @ 4:10pm                                                                                        150                                
PROFAMCHA030201075909075939000030Smart Guy (BRAINY) - Today @ 10:40am **DNU**                                                                                150                                
OFFFAMCHA030201075939075952000013Nonstop Weekend Block Open (:10-:15)                                                                                                                           
ID FAMCHA030201075952080000000008Magic of Disney - NS/NSW/PB - Wipe (:06-:09)                                                                                150                                
PROFAMCHA030201080000080009000009CC Disclaimer - FAST - Generic (:08-:10)                                                                                    150                                
PGRFAMCHA030201080009082244002235Lizzie McGuire                                    I've Got Rhythmic                                                   A6068607BCC                              
PROFAMCHA030201082244082258000014Nonstop Wknd LU - 07 - AMANDA/ALL/EVEN (:13-:16)                                                                            150                                
PROFAMCHA030201082258082328000030Weekend Double Pix Promo - Today @ 12pm                                                                                     150                                
PRCFAMCHA030201082328082358000030Snow Days Contest - Spot #1 - JAN 29 TO FEB 02                                                                              150                                
INTFAMCHA030201082358082755000357Art Attack - Artist At Easel                                                                                           60686120                                
PROFAMCHA030201082755082817000022xxTeamo Supremo (PIE) - Today @ 5pm                                                                                         150                                
PROFAMCHA030201082817082847000030Kim Possible (BOSSY) - Today @ 4:35pm                                                                                       150                                
PROFAMCHA030201082847082917000030Smart Guy (BRAINY) - Today @ 10:40am **DNU**                                                                                150                                
PROFAMCHA030201082917082947000030Weekend Double Pix Promo - Today @ 12pm                                                                                     150                                
OFFFAMCHA030201082947083000000013Nonstop Weekend Block Open (:10-:15)                                                                                                                           
PGRFAMCHA030201083000085420002420Amanda Show; The                                  1-013                                                               A20686090                                
PROFAMCHA030201085420085434000014Nonstop Wknd LU - 08 - ALL/EVEN/JERSEY (:13-:16)                                                                            150                                
PROFAMCHA030201085434085512000038Even Stevens (BUTLER) - Today @ 9:25am                                                                                      150                                
PROFAMCHA030201085512085531000019Nonstop Weekend - HOUSE OF MOUSE - Dwarves Locked                                                                           150                                
INTFAMCHA030201085531085825000254Art Attack - Dig Dinosaur                                                                                              60686120                                
PROFAMCHA030201085825085851000026PR Wild Force (WAKEUP) - Tomorrow @ 6:30am                                                                                  150                                
PROFAMCHA030201085851085947000056Boy Meets World (MOM) - Today @ 10:15am                                                                                     150                                
OFFFAMCHA030201085947090000000013Nonstop Weekend Block Open (:10-:15)                                                                                                                           
PGRFAMCHA030201090000092419002419All That                                          720                                                                 A20686090                                
PROFAMCHA030201092419092433000014Nonstop Wknd LU - 09 - EVEN/JERSEY/BMW (:13-:16)                                                                            150                                
PROFAMCHA030201092433092503000030Weekend Double Pix Promo - Today @ 12pm                                                                                     150                                
PROFAMCHA030201092503092529000026PR Wild Force (WAKEUP) - Tomorrow @ 6:30am                                                                                  150                                
PROFAMCHA030201092529092623000054Nonstop Weekend - LIZZIE MCGUIRE - Blooper #3 *DNU                                                                          150                                
PROFAMCHA030201092623092646000023Proud Family (HERO) - Today @ 4:10pm                                                                                        150                                
PROFAMCHA030201092646092657000011Nonstop Weekend - LIZZIE MCGUIRE - Junk Food                                                                                150                                
PROFAMCHA030201092657092737000040xxTeen Angel (UNDERWEAR) - Today @ 11:05am                                                                                  150                                
OFFFAMCHA030201092737092752000015Nonstop Weekend Block Open (:10-:15)                                                                                                                           
ID FAMCHA030201092752092800000008Magic of Disney - NS/NSW/PB - Wipe (:06-:09)                                                                                150                                
PROFAMCHA030201092800092809000009CC Disclaimer - FAST - Family.ca (:08-:10)                                                                                  150                                
PGRFAMCHA030201092809095048002239Even Stevens                                      The Thomas Gribalski Affair                                         A6068807BCC                              
PROFAMCHA030201095048095102000014Nonstop Wknd LU - 10 - JERSEY/BMW/SMART (:13-:16)                                                                           150                                
PROFAMCHA030201095102095132000030Weekend Double Pix Promo - Today @ 12pm                                                                                     150                                
PROFAMCHA030201095132095158000026Nonstop Weekend - KIM POSSIBLE - Ron                                                                                        150                                
PROFAMCHA030201095158095238000040xxTeen Angel (UNDERWEAR) - Today @ 11:05am                                                                                  150                                
OFFFAMCHA030201095238095252000014Nonstop Weekend Block Open (:10-:15)                                                                                                                           
ID FAMCHA030201095252095300000008Magic of Disney - NS/NSW/PB - Shape (:06-:09)                                                                               150                                
PGRFAMCHA030201095300101536002236Jersey; The                                       It's My Party                                                       A6068807A                                
PROFAMCHA030201101536101550000014Nonstop Wknd LU - 11 - BMW/SMART/TEEN (:13-:16)                                                                             150                                
PROFAMCHA030201101550101620000030Weekend Double Pix Promo - Today @ 12pm                                                                                     150                                
PROFAMCHA030201101620101639000019Nonstop Weekend - LIZZIE MCGUIRE - Lenny                                                                                    150                                
PRCFAMCHA030201101639101709000030Power Rangers Contest                                                                                                       150                                
PROFAMCHA030201101709101749000040xxTeen Angel (UNDERWEAR) - Today @ 11:05am                                                                                  150                                
OFFFAMCHA030201101749101800000011Nonstop Weekend Block Open (:10-:15)                                                                                                                           
PROFAMCHA030201101800101809000009CC Disclaimer - FAST - Family (:08-:10)                                                                                     150                                
PGRFAMCHA030201101809104029002220Boy Meets World                                   What I Meant To Say                                                 B6068807BCC                              
PROFAMCHA030201104029104043000014Nonstop Wknd LU - 12 - SMART/TEEN/YOU (:13-:16)                                                                             150                                
PROFAMCHA030201104043104113000030Weekend Double Pix Promo - Today @ 12pm                                                                                     150                                
PRCFAMCHA030201104113104143000030Snow Days Contest - Spot #1 - JAN 29 TO FEB 02                                                                              150                                
PROFAMCHA030201104143104207000024Nonstop Weekend - KIM POSSIBLE - Gadgets                                                                                    150                                
PROFAMCHA030201104207104247000040xxTeen Angel (UNDERWEAR) - Today @ 11:05am                                                                                  150                                
OFFFAMCHA030201104247104300000013Nonstop Weekend Block Open (:10-:15)                                                                                                                           
PGRFAMCHA030201104300110526002226Smart Guy                                         Diary of A Mad Schoolgirl                                           A6068807B                                
PROFAMCHA030201110526110540000014Nonstop Wknd LU - 13 - TEEN/YOU/D-PIX (:13-:16)                                                                             150                                
PRCFAMCHA030201110540110610000030Power Rangers Contest                                                                                                       150                                
PROFAMCHA030201110610110647000037Amanda Show (CLEAN) - Tomorrow @ 8:30am                                                                                     150                                
OFFFAMCHA030201110647110700000013Nonstop Weekend Block Open (:10-:15)                                                                                                                           
PROFAMCHA030201110700110709000009CC Disclaimer - FAST - Family.ca (:08-:10)                                                                                  150                                
PGRFAMCHA030201110709112754002045Teen Angel                                        Steve & Marty & Jordan & Uncle Lou                                  A6068807BCC                              
PROFAMCHA030201112754112806000012Nonstop Wknd LU - 14 - YOU/D-PIX (:10-:13)                                                                                  150                                
PROFAMCHA030201112806112836000030Weekend Double Pix Promo - Today @ 12pm                                                                                     150                                
PRCFAMCHA030201112836112906000030Snow Days Contest - Spot #1 - JAN 29 TO FEB 02                                                                              150                                
INTFAMCHA030201112906113036000130Family X-Pedition - Ep.42                                                                                             A10656120                                
INTFAMCHA030201113036113339000303Art Attack - Pegasus                                                                                                   60686120                                
PROFAMCHA030201113339113359000020xxAll That - Tomorrow @ 9am *DNU*                                                                                           150                                
PROFAMCHA030201113359113425000026PR Wild Force (WAKEUP) - Tomorrow @ 6:30am                                                                                  150                                
PROFAMCHA030201113425113447000022xxTeamo Supremo (PIE) - Today @ 5pm                                                                                         150                                
OFFFAMCHA030201113447113500000013Nonstop Weekend Block Open (:10-:15)                                                                                                                           
PROFAMCHA030201113500113509000009CC Disclaimer - FAST - Generic (:08-:10)                                                                                    150                                
PGRFAMCHA030201113509115653002144You Wish                                          Pilot                                                               A6068807BCC                              
PROFAMCHA030201115653115703000010Nonstop Wknd LU - 15 - DOUBLE PIX 1 (:08-:11)                                                                               150                                
PRCFAMCHA030201115703115733000030Snow Days Contest - Spot #1 - JAN 29 TO FEB 02                                                                              150                                
PROFAMCHA030201115733115759000026PR Wild Force (EXPO) - Tomorrow @ 6:30am                                                                                    150                                
PROFAMCHA030201115759115855000056Boy Meets World (MOM) - Tomorrow @ 10:15am                                                                                  150                                
PROFAMCHA030201115855115918000023Proud Family (HERO) - Today @ 4:10pm                                                                                        150                                
PROFAMCHA030201115918115948000030Nightly Pix Block Promo - Tonight @ 9pm                                                                                     150                                
OFFFAMCHA030201115948120000000012Weekend Double Pix Movie Open (:10-:15)                                                                                                                        
PRCFAMCHA030201120000120009000009Rating - G - Ian (:08-:10)                                                                                                  150                                
PROFAMCHA030201120009120018000009CC Disclaimer - FAST - Click Club (:08-:10) **DNU*                                                                          150                                
ID FAMCHA030201120018120026000008Magic of Disney - PIX - Wipe (:06-:09)                                                                                      150                                
PGRFAMCHA030201120026132510012444Gotta Kick It Up!                                                                                                     A6068807CCC                              
PROFAMCHA030201132510132520000010Nonstop Wknd LU - 16 - DOUBLE PIX 2 (:08-:11)                                                                               150                                
OFFFAMCHA030201132520132533000013Weekend Double Pix Movie Open (:10-:15)                                                                                                                        
PRCFAMCHA030201132533132542000009Rating - PG - Ian (:08-:10)                                                                                                 150                                
PROFAMCHA030201132542132551000009CC Disclaimer - FAST - Family (:08-:10)                                                                                     150                                
ID FAMCHA030201132551132559000008Magic of Disney - PIX - Wipe (:06-:09)                                                                                      150                                
PGRFAMCHA030201132559145902013303Mark Twain And Me                                                                                                     B6068807CCC                              
PROFAMCHA030201145902145916000014Nonstop Wknd LU - 17 - ART/NIGHTMARE/HOM (:13-:16)                                                                          150                                
PRCFAMCHA030201145916145946000030Power Rangers Contest                                                                                                       150                                
OFFFAMCHA030201145946150000000014Nonstop Weekend Block Open (:10-:15)                                                                                                                           
PGRFAMCHA030201150000151941001941Art Attack                                        1-185                                                               A60686110                                
PROFAMCHA030201151941151955000014Nonstop Wknd LU - 18 - NGHTMR/HOM/PROUD (:13-:16)                                                                           150                                
PROFAMCHA030201151955152018000023Proud Family (HERO) - Today @ 4:10pm                                                                                        150                                
PROFAMCHA030201152018152048000030Amanda Show (CONCEPT) - Tomorrow @ 8:30am                                                                                   150                                
OFFFAMCHA030201152048152100000012Nonstop Weekend Block Open (:10-:15)                                                                                                                           
PROFAMCHA030201152100152109000009CC Disclaimer - FAST - Generic (:08-:10)                                                                                    150                                
PGRFAMCHA030201152109154343002234Nightmare Ned                                     Testing, Testing/Accordion Lesson                                   A6068607ECC                              
PROFAMCHA030201154343154357000014Nonstop Wknd LU - 19 - HOM/PROUD/KIM (:13-:16)                                                                              150                                
PROFAMCHA030201154357154427000030Kim Possible (BOSSY) - Today @ 4:35pm                                                                                       150                                
PROFAMCHA030201154427154453000026PR Wild Force (WAKEUP) - Tomorrow @ 6:30am                                                                                  150                                
PROFAMCHA030201154453154526000033xxTeen Angel/You Wish - Tomorrow @ 11:05am                                                                                  150                                
PROFAMCHA030201154526154548000022xxTeamo Supremo (PIE) - Today @ 5pm                                                                                         150                                
OFFFAMCHA030201154548154600000012Nonstop Weekend Block Open (:10-:15)                                                                                                                           
PGRFAMCHA030201154600160836002236Disney's House Of Mouse                           Snow Day                                                            A6068607E                                
PROFAMCHA030201160836160850000014Nonstop Wknd LU - 20 - PROUD/KIM/TEAMO (:13-:16)                                                                            150                                
PROFAMCHA030201160850160912000022xxTeamo Supremo (PIE) - Today @ 5pm                                                                                         150                                
PROFAMCHA030201160912161001000049Nonstop Weekend - LIZZIE MCGUIRE - Chimp                                                                                    150                                
PROFAMCHA030201161001161031000030Kim Possible (BOSSY) - Today @ 4:35pm                                                                                       150                                
PRCFAMCHA030201161031161046000015Kim Possible Contest                                                                                                        150                                
OFFFAMCHA030201161046161100000014Nonstop Weekend Block Open (:10-:15)                                                                                                                           
PROFAMCHA030201161100161109000009CC Disclaimer - FAST - Family (:08-:10)                                                                                     150                                
PGRFAMCHA030201161109163252002143Proud Family; The                                 Strike                                                              A6068807ECC                              
PROFAMCHA030201163252163306000014Nonstop Wknd LU - 21 - KIM/TEAMO/PB&J (:13-:16)                                                                             150                                
PROFAMCHA030201163306163326000020xxAll That - Tomorrow @ 9am *DNU*                                                                                           150                                
PRCFAMCHA030201163326163341000015Kim Possible Contest                                                                                                        150                                
INTFAMCHA030201163341163511000130Family X-Pedition - Ep.42                                                                                             A10656120                                
PROFAMCHA030201163511163548000037Amanda Show (CLEAN) - Tomorrow @ 8:30am                                                                                     150                                
OFFFAMCHA030201163548163600000012Nonstop Weekend Block Open (:10-:15)                                                                                                                           
PGRFAMCHA030201163600165851002251Disney's Kim Possible                             Bueno Nacho                                                         A6068607E                                
PROFAMCHA030201165851165905000014Nonstop Wknd LU - 22 - TEAMO/PB&J/WTP (:13-:16)                                                                             150                                
PROFAMCHA030201165905165935000030PR Lightspeed Rescue - Weekdays @ 7:30am                                                                                    150                                
PRCFAMCHA030201165935165950000015Kim Possible Contest                                                                                                        150                                
PROFAMCHA030201165950170025000035Nonstop Weekend - AMANDA SHOW - Basketballs                                                                                 150                                
PRCFAMCHA030201170025170047000022Hoze Houndz (FIREFIGHTER - NEW EPS) - Tonight @ 7:                                                                          150                                
OFFFAMCHA030201170047170100000013Nonstop Weekend Block Open (:10-:15)                                                                                                                           
PROFAMCHA030201170100170109000009CC Disclaimer - FAST - Family.ca (:08-:10)                                                                                  150                                
PGRFAMCHA030201170109172402002253Disney's Teamo Supremo                            Thog The Caveman Returns/Mr.Large's Slippery Schem                  A6068607ECC                              
PROFAMCHA030201172402172416000014Nonstop Wknd LU - 23(PH)- PB&J/WTP/FRANKLIN (:13-:                                                                          150                                
PRCFAMCHA030201172416172438000022Hoze Houndz (FIREFIGHTER - NEW EPS) - Tonight @ 7:                                                                          150                                
PROFAMCHA030201172438172508000030Art Attack (HORSE) - Tomorrow @ 3pm                                                                                         150                                
PRCFAMCHA030201172508172546000038Henry's World (PARTY) - Tonight @ 6:40pm                                                                                    150                                
OFFFAMCHA030201172546172600000014PS Playhouse Block Open (:10-:15)                                                                                                                              
PROFAMCHA030201172600172609000009CC Disclaimer - FAST - Generic (:08-:10)                                                                                    150                                
PGRFAMCHA030201172609174939002330PB&J Otter                                        A Tree Grows in Hoohaw/Flick's Big Fakeout                          A6068607ECC                              
PROFAMCHA030201174939174953000014Nonstop Wknd LU - 24(PH)- WTP/FRANKLIN/HENRY (:13-                                                                          150                                
PRCFAMCHA030201174953175031000038Henry's World (PARTY) - Tonight @ 6:40pm                                                                                    150                                
PROFAMCHA030201175031175127000056Playhouse - STANLEY - Fish Song                                                                                             150                                
PRCFAMCHA030201175127175149000022Hoze Houndz (FIREFIGHTER - NEW EPS) - Tonight @ 7:                                                                          150                                
OFFFAMCHA030201175149175200000011PS Playhouse Block Open (:10-:15)                                                                                                                              
PROFAMCHA030201175200175209000009CC Disclaimer - FAST - Family (:08-:10)                                                                                     150                                
PGRFAMCHA030201175209181520002311New Adventures of Winnie the Pooh; The            Pooh Moon/Caws and Effect                                            6068607ECC                              
PROFAMCHA030201181520181535000015Nonstop Wknd LU - 25(PG)- FRANKLIN/HENRY/LULU (:13                                                                          150                                
PRCFAMCHA030201181535181607000032Henry's World (WISH) - Tonight @ 6:40pm                                                                                     150                                
PRCFAMCHA030201181607181629000022Hoze Houndz (FIREFIGHTER - NEW EPS) - Tonight @ 7:                                                                          150                                
PROFAMCHA030201181629181655000026Playground - DUCKTALES - Spies                                                                                              150                                
PROFAMCHA030201181655181745000050Art Attack (BASEBALL) - Tomorrow @ 3pm                                                                                      150                                
OFFFAMCHA030201181745181800000015PS Playground Block Open (:10-:15) *DNU POST AUG 1                                                                                                             
PROFAMCHA030201181800181809000009CC Disclaimer - FAST - Family.ca (:08-:10)                                                                                  150                                
PGRFAMCHA030201181809184102002253Franklin                                          Franklin's Gift/Franklin Growing Up Fast                      B13641A1065607ECC                              
PROFAMCHA030201184102184116000014Nonstop Wknd LU - 26(PG)- HENRY/LULU/HOZE (:13-:16                                                                          150                                
PRCFAMCHA030201184116184138000022Hoze Houndz (FIREFIGHTER - NEW EPS) - Tonight @ 7:                                                                          150                                
PROFAMCHA030201184138184158000020Playground - BUZZ LIGHTYEAR - Battle                                                                                        150                                
PROFAMCHA030201184158184248000050Art Attack (BASEBALL) - Tomorrow @ 3pm                                                                                      150                                
OFFFAMCHA030201184248184300000012PS Playground Block Open (:10-:15) *DNU POST AUG 1                                                                                                             
PROFAMCHA030201184300184309000009CC Disclaimer - FAST - Generic (:08-:10)                                                                                    150                                
PGRFAMCHA030201184309190702002353Henry's World                                     Pet Dinosaur/Pirate Out Of Water                              B66543A1065607GCC                              
PROFAMCHA030201190702190714000012Nonstop Wknd LU - 27(PG)- LULU/HOZE (:10-:13)                                                                               150                                
PRCFAMCHA030201190714190736000022Hoze Houndz (FIREFIGHTER - NEW EPS) - Tonight @ 7:                                                                          150                                
PROFAMCHA030201190736190809000033Playground - HOUSE OF MOUSE - Someone's Watching                                                                            150                                
PRCFAMCHA030201190809190847000038Henry's World (PARTY) - Tomorrow @ 6:40pm                                                                                   150                                
OFFFAMCHA030201190847190900000013PS Playground Block Open (:10-:15) *DNU POST AUG 1                                                                                                             
PROFAMCHA030201190900190909000009CC Disclaimer - FAST - Family (:08-:10)                                                                                     150                                
PGRFAMCHA030201190909193242002333Little Lulu Show; The                             Tubbie on Ice, Iggie's New Leaf, Dr. X's Xtremely             B20208A1065607ECC                              
PROFAMCHA030201193242193256000014Nonstop Wknd LU - 28(SAT)- HOZE/HONEY/DARK (:13-:1                                                                          150                                
PROFAMCHA030201193256193326000030Nightly Pix Block Promo - Tonight @ 9pm                                                                                     150                                
PROFAMCHA030201193326193352000026PR Wild Force (EXPO) - Tomorrow @ 6:30am                                                                                    150                                
PROFAMCHA030201193352193407000015Recess (SPRINKLER) - Weekdays @ 5:05pm                                                                                      150                                
PROFAMCHA030201193407193447000040xxTeen Angel (UNDERWEAR) - Tomorrow @ 11:05am                                                                               150                                
OFFFAMCHA030201193447193500000013Nonstop Weekend Block Open (:10-:15)                                                                                                                           
PROFAMCHA030201193500193509000009CC Disclaimer - FAST - Family.ca (:08-:10)                                                                                  150                                
PGRFAMCHA030201193509195747002238Hoze Houndz                                       The Knight Stuff/Gopher Golfer                                A63395A1065607ECC                              
PROFAMCHA030201195747195801000014Nonstop Wknd LU - 29(SAT)- HONEY/DARK/N-PIX (:13-:                                                                          150                                
PROFAMCHA030201195801195831000030Nightly Pix Block Promo - Tonight @ 9pm                                                                                     150                                
PROFAMCHA030201195831195909000038Even Stevens (BUTLER) - Tomorrow @ 9:25am                                                                                   150                                
PROFAMCHA030201195909195924000015Nonstop - ALL THAT - Mouth                                                                                                  150                                
PROFAMCHA030201195924195940000016Lizzie McGuire (MONEY TREE) - Tomorrow @ 8am                                                                                150                                
OFFFAMCHA030201195940195952000012Nonstop Weekend Block Open (:10-:15)                                                                                                                           
ID FAMCHA030201195952200000000008Magic of Disney - NS/NSW/PB - Wipe (:06-:09)                                                                                150                                
PGRFAMCHA030201200000204253004253Disney's Honey, I Shrunk The Kids: The TV Show    Honey, We've Been Swallowed by Grandpa                               6068807B                                
ID FAMCHA030201204253204256000003Astral "A Network Of" Logo - English Animation                                                                              150                                
PROFAMCHA030201204256204308000012Nonstop Wknd LU - 30(SAT)- DARK/N-PIX (:10-:13)                                                                             150                                
PROFAMCHA030201204308204338000030Nightly Pix Block Promo - Tonight @ 9pm                                                                                     150                                
PROFAMCHA030201204338204410000032PR Wild Force (CHAIR) - Tomorrow @ 6:30am                                                                                   150                                
PROFAMCHA030201204410204450000040xxTeen Angel (UNDERWEAR) - Tomorrow @ 11:05am                                                                               150                                
OFFFAMCHA030201204450204500000010Nonstop Weekend Block Open (:10-:15)                                                                                                                           
PGRFAMCHA030201204500205857001357Are You Afraid of the Dark?                       Manaha Pt.1                                                   SR0306A1066807A                                
ID FAMCHA030201205857205902000005Astral "A Network Of" Logo - English Animation                                                                              150                                
PROFAMCHA030201205902205912000010Nightly Pix Line-up - 01 - GENERIC1 (:08-:11)                                                                               150                                
PROFAMCHA030201205912205949000037Amanda Show (CLEAN) - Tomorrow @ 8:30am                                                                                     150                                
ID FAMCHA030201205949210000000011Nightly Pix Movie Open (:10-:15)                                                                                            150                                
PRCFAMCHA030201210000210009000009Rating - G - Ian (:08-:10)                                                                                                  150                                
PROFAMCHA030201210009210018000009CC Disclaimer - FAST - Generic (:08-:10)                                                                                    150                                
PGRFAMCHA030201210018234402024344Passage To India; A                                                                                                   A3028807DCC                              
ID FAMCHA030201234402234405000003Astral "A Network Of" Logo - English Animation                                                                              150                                
PROFAMCHA030201234405234419000014Nonstop Wknd LU - 31(SAT)- DARK/N-PIX/AMAZING (:13                                                                          150                                
OFFFAMCHA030201234419234429000010Nonstop Weekend Block Open (:10-:15)                                                                                                                           
PGRFAMCHA030201234429235731001302Are You Afraid of the Dark?                       Manaha Pt.2                                                   SR0306A1066807A                                
ID FAMCHA030201235731235736000005Astral "A Network Of" Logo - English Animation                                                                              150                                
PROFAMCHA030201235736235748000012Nonstop Wknd LU - 32 - AMAZING/DARK (:10-:13)                                                                               150                                
PROFAMCHA030201235748235831000043Nowhere Man (NONSTOP) - Monday to Thursday @ 11pm                                                                           150                                
PROFAMCHA030201235831235915000044Nonstop Weekend - LIZZIE MCGUIRE - Fountain                                                                                 150                                
PROFAMCHA030201235915235945000030Smart Guy (BRAINY) - Tomorrow @ 10:40am **DNU**                                                                             150                                
OFFFAMCHA030201235945000000000015Nonstop Weekend Block Open (:10-:15)                                                                                                                           
PGRFAMCHA030201000000002318002318Amazing Stories                                   Lane Change                                                         A2068807A                                
ID FAMCHA030201002318002321000003Astral "A Network Of" Logo - English Animation                                                                              150                                
PROFAMCHA030201002321002331000010Nonstop Wknd LU - 33 - DARK (:08-:11)                                                                                       150                                
PROFAMCHA030201002331002414000043Nowhere Man (NONSTOP) - Monday to Thursday @ 11pm                                                                           150                                
PROFAMCHA030201002414002438000024Your Big Break (TINA TURNER) - Tomorrow @ 8pm                                                                               150                                
INTFAMCHA030201002438002915000437MV Disney - Go The Distance (MICHAEL BOLTON)                                                                           60688120                                
PRCFAMCHA030201002915002945000030@ The Movies - Tomorrow @ 8:45pm                                                                                            150                                
OFFFAMCHA030201002945003000000015Nonstop Weekend Block Open (:10-:15)                                                                                                                           
PGRFAMCHA030201003000005423002423Are You Afraid Of The Dark?                       The Tale of the Shiny Red Bicycle                             SR0303 1066807A                                
ID FAMCHA030201005423005428000005Astral "A Network Of" Logo - English Animation                                                                              150                                
PRCFAMCHA030201005428005458000030@ The Movies - Tomorrow @ 8:45pm                                                                                            150                                
PROFAMCHA030201005458005524000026PR Wild Force (WAKEUP) - Tomorrow @ 6:30am                                                                                  150                                
PROFAMCHA030201005524005554000030Weekend Double Pix Promo - Tomorrow @ 12pm                                                                                  150                                
PROFAMCHA030201005554005619000025Your Big Break (LITTLE RICHARD) - Tomorrow @ 8pm                                                                            150                                
PROFAMCHA030201005619005631000012Buzz Lightyear (SPACE RANGER) - Weekdays @ 3:25pm                                                                           150                                
PROFAMCHA030201005631005727000056Boy Meets World (MOM) - Tomorrow @ 10:15am                                                                                  150                                
INTFAMCHA030201005727010201000434MV Disney - A Dream Is A Wish Your Heart Makes (LI                                                                     60688120                                
SO FAMCHA030201010201010213000012Sign Off (oct 1)                                                                                                                                               
OFFFAMCHA030201010213043000032747                                                                                                                                                               
SO FAMCHA030202043000043011000011Sign On (oct 1)                                                                                                                                                
PROFAMCHA030202043011043020000009CC Disclaimer - FAST - Generic (:08-:10)                                                                                    150                                
PGRFAMCHA030202043020045350002330Little Lulu Show; The                             The Big Egg, The Little Girl Who Never Heard of Gh            B20185A1065607ECC                              
PROFAMCHA030202045350045403000013Nonstop Wknd LU - 01(PH)- ART/KATIE/FRANKLIN (:13-                                                                          150                                
OFFFAMCHA030202045403045413000010PS Playhouse Block Open (:10-:15)                                                                                                                              
PGRFAMCHA030202045413051114001701Art Attack                                        Solar System/Birthday Cards                                         A60686110                                
PROFAMCHA030202051114051128000014Nonstop Wknd LU - 02(PH)- KATIE/FRANKLIN/HOZE (:13                                                                          150                                
PRCFAMCHA030202051128051152000024Franklin (LADDER) - Tonight @ 6:15pm                                                                                        150                                
PROFAMCHA030202051152051307000115Playhouse - BOOK OF POOH - The Plan *DNU*                                                                                   150                                
PRCFAMCHA030202051307051345000038Henry's World (PARTY) - Tonight @ 6:40pm                                                                                    150                                
OFFFAMCHA030202051345051400000015PS Playhouse Block Open (:10-:15)                                                                                                                              
PROFAMCHA030202051400051409000009CC Disclaimer - FAST - Family (:08-:10)                                                                                     150                                
PGRFAMCHA030202051409054047002638Katie And Orbie                                   Belkis/Pretty Like Polly/The Wallet                           C19664A1065607ECC                              
PROFAMCHA030202054047054059000012Nonstop Wknd LU - 03(PH)- FRANKLIN/HOZE (:10-:13)                                                                           150                                
PROFAMCHA030202054059054149000050Art Attack (BASEBALL) - Today @ 3:05pm                                                                                      150                                
OFFFAMCHA030202054149054200000011PS Playhouse Block Open (:10-:15)                                                                                                                              
PROFAMCHA030202054200054209000009CC Disclaimer - FAST - Family.ca (:08-:10)                                                                                  150                                
PGRFAMCHA030202054209060502002253Franklin                                          Fearless/Lucky Charm                                          B38157A1065607ECC                              
PROFAMCHA030202060502060513000011Nonstop Wknd LU - 04(PG)- HOZE (:08-:11)                                                                                    150                                
PRCFAMCHA030202060513060545000032Henry's World (WISH) - Tonight @ 6:40pm                                                                                     150                                
OFFFAMCHA030202060545060600000015PS Playground Block Open (:10-:15) *DNU POST AUG 1                                                                                                             
PROFAMCHA030202060600060609000009CC Disclaimer - FAST - Click Club (:08-:10) **DNU*                                                                          150                                
PGRFAMCHA030202060609062847002238Hoze Houndz                                       Milton The Oppressive/Double Down                             A63384A1065607ECC                              
PROFAMCHA030202062847062901000014Power Box Line-Up - 01 - POWER1/POWER2/SMART (:13-                                                                          150                                
PROFAMCHA030202062901062923000022xxTeamo Supremo (PIE) - Today @ 5pm                                                                                         150                                
PROFAMCHA030202062923062947000024Boy Meets World (GYROSCOPE) - Today @ 10:15am                                                                               150                                
OFFFAMCHA030202062947063000000013Power Box Block Open (:10-:15)                                                                                                                                 
PGRFAMCHA030202063000065126002126Power Rangers Wild Force                          Lionheart                                                           A6068607E                                
PROFAMCHA030202065126065140000014NSW - 06(PB-SAT)- PRWF2/SMART/LIZZIE (:13-:16)                                                                              150                                
PROFAMCHA030202065140065210000030Smart Guy (BRAINY) - Today @ 7:30am                                                                                         150                                
PROFAMCHA030202065210065240000030PR Lightspeed Rescue - Tomorrow @ 7:30am                                                                                    150                                
INTFAMCHA030202065240065410000130Klootz - Variety Show #35                                                                                             A10658120                                
PROFAMCHA030202065410065440000030Lizzie McGuire (GORDO) - Today @ 8am                                                                                        150                                
INTFAMCHA030202065440065831000351Art Attack - Roller Coaster                                                                                            60686120                                
PRCFAMCHA030202065831065901000030Power Rangers Contest                                                                                                       150                                
PROFAMCHA030202065901065948000047Amanda Show (HAM) - Today @ 8:30am                                                                                          150                                
OFFFAMCHA030202065948070000000012Power Box Block Open (:10-:15)                                                                                                                                 
PGRFAMCHA030202070000072127002127Power Rangers Wild Force                          Darkness Awakening                                                  A6068607E                                
PROFAMCHA030202072127072143000016Nonstop Wknd LU - 05(SUN)- SMRT/LIZ/AMND (:13-:16)                                                                          150                                
PROFAMCHA030202072143072213000030Lizzie McGuire (GORDO) - Today @ 8am                                                                                        150                                
INTFAMCHA030202072213072624000411MV Disney - I'm Still Here **DNU***                                                                                    60688120                                
PRCFAMCHA030202072624072654000030Snow Days Contest - Spot #1 - JAN 29 TO FEB 02                                                                              150                                
PROFAMCHA030202072654072744000050Nonstop Weekend - EVEN STEVENS - Fiesta                                                                                     150                                
INTFAMCHA030202072744072914000130Family X-Pedition - Ep.42                                                                                             A10656120                                
PROFAMCHA030202072914072944000030Amanda Show (CONCEPT) - Today @ 8:30am                                                                                      150                                
OFFFAMCHA030202072944072959000015Nonstop Weekend Block Open (:10-:15)                                                                                                                           
PROFAMCHA030202072959073009000010CC Disclaimer - FAST - Generic (:08-:10)                                                                                    150                                
PGRFAMCHA030202073009075235002226Smart Guy                                         From A To Double D                                                  A6068807BCC                              
PROFAMCHA030202075235075249000014Nonstop Wknd LU - 06 - LIZZIE/AMANDA/ALL (:13-:16)                                                                          150                                
PROFAMCHA030202075249075337000048Amanda Show (JACUZZI) - Today @ 8:30am                                                                                      150                                
PRCFAMCHA030202075337075407000030Snow Days Contest - Spot #1 - JAN 29 TO FEB 02                                                                              150                                
PROFAMCHA030202075407075427000020xxAll That - Today @ 9am *DNU*                                                                                              150                                
INTFAMCHA030202075427075901000434Art Attack - Viking                                                                                                    60686120                                
PROFAMCHA030202075901075939000038Even Stevens (BUTLER) - Today @ 9:25am                                                                                      150                                
OFFFAMCHA030202075939075952000013Nonstop Weekend Block Open (:10-:15)                                                                                                                           
ID FAMCHA030202075952080000000008Magic of Disney - NS/NSW/PB - Shape (:06-:09)                                                                               150                                
PGRFAMCHA030202080000082234002234Lizzie McGuire                                    When Moms Attack                                                    A6068607B                                
PROFAMCHA030202082234082248000014Nonstop Wknd LU - 07 - AMANDA/ALL/EVEN (:13-:16)                                                                            150                                
PROFAMCHA030202082248082326000038Even Stevens (BUTLER) - Today @ 9:25am                                                                                      150                                
PRCFAMCHA030202082326082356000030Snow Days Contest - Spot #1 - JAN 29 TO FEB 02                                                                              150                                
INTFAMCHA030202082356082827000431Art Attack - Rooster                                                                                                   60686120                                
PROFAMCHA030202082827082854000027Nonstop Weekend - KIM POSSIBLE - Villains                                                                                   150                                
PROFAMCHA030202082854082950000056Boy Meets World (MOM) - Today @ 10:15am                                                                                     150                                
OFFFAMCHA030202082950083000000010Nonstop Weekend Block Open (:10-:15)                                                                                                                           
PGRFAMCHA030202083000085206002206Amanda Show; The                                  2-014                                                               A20686090                                
PROFAMCHA030202085206085220000014Nonstop Wknd LU - 08 - ALL/EVEN/JERSEY (:13-:16)                                                                            150                                
PROFAMCHA030202085220085244000024Boy Meets World (GYROSCOPE) - Today @ 10:15am                                                                               150                                
INTFAMCHA030202085244085414000130Family X-Pedition - Ep.43                                                                                             A10656120                                
PRCFAMCHA030202085414085444000030Snow Days Contest - Spot #1 - JAN 29 TO FEB 02                                                                              150                                
INTFAMCHA030202085444085917000433Art Attack - Gorilla                                                                                                   60686120                                
PROFAMCHA030202085917085947000030Smart Guy (BRAINY) - Today @ 10:40am **DNU**                                                                                150                                
OFFFAMCHA030202085947090000000013Nonstop Weekend Block Open (:10-:15)                                                                                                                           
PGRFAMCHA030202090000092420002420All That                                          722                                                                 A20686090                                
PROFAMCHA030202092420092433000013Nonstop Wknd LU - 09 - EVEN/JERSEY/BMW (:13-:16)                                                                            150                                
PROFAMCHA030202092433092529000056Boy Meets World (MOM) - Today @ 10:15am                                                                                     150                                
PRCFAMCHA030202092529092559000030Power Rangers Contest                                                                                                       150                                
INTFAMCHA030202092559092703000104Jack and Marcel: Ep.095 "Football"                                                                                    A40688120                                
PROFAMCHA030202092703092743000040xxTeen Angel (UNDERWEAR) - Today @ 11:05am                                                                                  150                                
OFFFAMCHA030202092743092753000010Nonstop Weekend Block Open (:10-:15)                                                                                                                           
ID FAMCHA030202092753092800000007Magic of Disney - NS/NSW/PB - Wipe (:06-:09)                                                                                150                                
PROFAMCHA030202092800092809000009CC Disclaimer - FAST - Family (:08-:10)                                                                                     150                                
PGRFAMCHA030202092809095048002239Even Stevens                                      Influenza: The Musical                                              A6028807BCC                              
PROFAMCHA030202095048095102000014Nonstop Wknd LU - 10 - JERSEY/BMW/SMART (:13-:16)                                                                           150                                
PROFAMCHA030202095102095126000024Boy Meets World (GYROSCOPE) - Today @ 10:15am                                                                               150                                
PROFAMCHA030202095126095208000042Nonstop Weekend - LIZZIE MCGUIRE - Blooper #4 *DNU                                                                          150                                
PROFAMCHA030202095208095241000033xxTeen Angel/You Wish - Today @ 11:05am                                                                                     150                                
OFFFAMCHA030202095241095252000011Nonstop Weekend Block Open (:10-:15)                                                                                                                           
ID FAMCHA030202095252095300000008Magic of Disney - NS/NSW/PB - Shape (:06-:09)                                                                               150                                
PROFAMCHA030202095300095309000009CC Disclaimer - FAST - Family.ca (:08-:10)                                                                                  150                                
PGRFAMCHA030202095309101545002236Jersey; The                                       Basketball Diaries                                                  A6068807ACC                              
PROFAMCHA030202101545101559000014Nonstop Wknd LU - 11 - BMW/SMART/TEEN (:13-:16)                                                                             150                                
PROFAMCHA030202101559101629000030Smart Guy (BRAINY) - Today @ 10:40am **DNU**                                                                                150                                
PROFAMCHA030202101629101719000050Nonstop Weekend - EVEN STEVENS - Fiesta                                                                                     150                                
PROFAMCHA030202101719101749000030Kim Possible (BOSSY) - Today @ 4:35pm                                                                                       150                                
OFFFAMCHA030202101749101800000011Nonstop Weekend Block Open (:10-:15)                                                                                                                           
PROFAMCHA030202101800101809000009CC Disclaimer - FAST - Click Club (:08-:10) **DNU*                                                                          150                                
PGRFAMCHA030202101809104022002213Boy Meets World                                   The Double Life                                                     B6068807BCC                              
PROFAMCHA030202104022104036000014Nonstop Wknd LU - 12 - SMART/TEEN/YOU (:13-:16)                                                                             150                                
PROFAMCHA030202104036104109000033xxTeen Angel/You Wish - Today @ 11:05am                                                                                     150                                
PRCFAMCHA030202104109104139000030Power Rangers Contest                                                                                                       150                                
PROFAMCHA030202104139104223000044Nonstop Weekend - LIZZIE MCGUIRE - Fountain                                                                                 150                                
PROFAMCHA030202104223104245000022xxTeamo Supremo (PIE) - Today @ 5pm                                                                                         150                                
OFFFAMCHA030202104245104300000015Nonstop Weekend Block Open (:10-:15)                                                                                                                           
PROFAMCHA030202104300104309000009CC Disclaimer - FAST - Generic (:08-:10)                                                                                    150                                
PGRFAMCHA030202104309110535002226Smart Guy                                         Perchance To Dream                                                  A6068807BCC                              
PROFAMCHA030202110535110549000014Nonstop Wknd LU - 13 - TEEN/YOU/D-PIX (:13-:16)                                                                             150                                
PROFAMCHA030202110549110612000023Proud Family (HERO) - Today @ 4:10pm                                                                                        150                                
PROFAMCHA030202110612110649000037Amanda Show (CLEAN) - Weeknights @ 6pm                                                                                      150                                
OFFFAMCHA030202110649110700000011Nonstop Weekend Block Open (:10-:15)                                                                                                                           
PROFAMCHA030202110700110709000009CC Disclaimer - FAST - Family (:08-:10)                                                                                     150                                
PGRFAMCHA030202110709112901002152Teen Angel                                        Grumpy Young Men                                                    A6068807BCC                              
PROFAMCHA030202112901112913000012Nonstop Wknd LU - 14 - YOU/D-PIX (:10-:13)                                                                                  150                                
PROFAMCHA030202112913112943000030Kim Possible (BOSSY) - Today @ 4:35pm                                                                                       150                                
PRCFAMCHA030202112943113013000030Power Rangers Contest                                                                                                       150                                
INTFAMCHA030202113013113422000409Art Attack - Race Car                                                                                                  60686120                                
PROFAMCHA030202113422113447000025Your Big Break (LITTLE RICHARD) - Tonight @ 8pm                                                                             150                                
OFFFAMCHA030202113447113500000013Nonstop Weekend Block Open (:10-:15)                                                                                                                           
PROFAMCHA030202113500113509000009CC Disclaimer - FAST - Family.ca (:08-:10)                                                                                  150                                
PGRFAMCHA030202113509115614002105You Wish                                          A Real Don Juan                                                     A6068807BCC                              
PROFAMCHA030202115614115624000010Nonstop Wknd LU - 15 - DOUBLE PIX 1 (:08-:11)                                                                               150                                
PROFAMCHA030202115624115646000022xxTeamo Supremo (PIE) - Today @ 5pm                                                                                         150                                
PRCFAMCHA030202115646115716000030Snow Days Contest - Spot #1 - JAN 29 TO FEB 02                                                                              150                                
INTFAMCHA030202115716115846000130Family X-Pedition - Ep.44                                                                                             A10656120                                
PROFAMCHA030202115846115916000030PR Lightspeed Rescue - Tomorrow @ 7:30am                                                                                    150                                
PROFAMCHA030202115916115946000030Weekend Double Pix Promo - Coming Up                                                                                        150                                
OFFFAMCHA030202115946120000000014Weekend Double Pix Movie Open (:10-:15)                                                                                                                        
PRCFAMCHA030202120000120009000009Rating - G - Ian (:08-:10)                                                                                                  150                                
PROFAMCHA030202120009120018000009CC Disclaimer - FAST - Click Club (:08-:10) **DNU*                                                                          150                                
ID FAMCHA030202120018120026000008Magic of Disney - PIX - Wipe (:06-:09)                                                                                      150                                
PGRFAMCHA030202120026132354012328Old Yeller                                                                                                            A6068807DCC                              
PROFAMCHA030202132354132402000008Nonstop Wknd LU - 16 - DOUBLE PIX 2 (:08-:11)                                                                               150                                
OFFFAMCHA030202132402132412000010Weekend Double Pix Movie Open (:10-:15)                                                                                                                        
PRCFAMCHA030202132412132421000009Rating - PG - Ian (:08-:10)                                                                                                 150                                
PROFAMCHA030202132421132430000009CC Disclaimer - SLOW - Family (:08-:10)                                                                                     150                                
PGRFAMCHA030202132430150530014100Groundhog Day                                                                                                         B2068807DCC                              
PROFAMCHA030202150530150543000013Nonstop Wknd LU - 17 - ART/NIGHTMARE/HOM (:13-:16)                                                                          150                                
OFFFAMCHA030202150543150553000010Nonstop Weekend Block Open (:10-:15)                                                                                                                           
PGRFAMCHA030202150553152051001458Art Attack                                        1-014                                                                60686110                                
PROFAMCHA030202152051152104000013Nonstop Wknd LU - 18 - NGHTMR/HOM/PROUD (:13-:16)                                                                           150                                
OFFFAMCHA030202152104152114000010Nonstop Weekend Block Open (:10-:15)                                                                                                                           
PROFAMCHA030202152114152123000009CC Disclaimer - FAST - Click Club (:08-:10) **DNU*                                                                          150                                
PGRFAMCHA030202152123154353002230Nightmare Ned                                     Steamed Vegetable/Along For The Ride                                A6068607ECC                              
PROFAMCHA030202154353154407000014Nonstop Wknd LU - 19 - HOM/PROUD/KIM (:13-:16)                                                                              150                                
PROFAMCHA030202154407154430000023Proud Family (HERO) - Today @ 4:10pm                                                                                        150                                
PRCFAMCHA030202154430154500000030Snow Days Contest - Spot #1 - JAN 29 TO FEB 02                                                                              150                                
PROFAMCHA030202154500154516000016Nonstop Weekend - HOUSE OF MOUSE - Me, Myself & I                                                                           150                                
PROFAMCHA030202154516154546000030Kim Possible (BOSSY) - Today @ 4:35pm                                                                                       150                                
OFFFAMCHA030202154546154600000014Nonstop Weekend Block Open (:10-:15)                                                                                                                           
PGRFAMCHA030202154600160838002238Disney's House Of Mouse                           House Of Turkey                                                     A6068607E                                
PROFAMCHA030202160838160852000014Nonstop Wknd LU - 20 - PROUD/KIM/TEAMO (:13-:16)                                                                            150                                
PROFAMCHA030202160852160922000030Kim Possible (BOSSY) - Today @ 4:35pm                                                                                       150                                
PRCFAMCHA030202160922160937000015Kim Possible Contest                                                                                                        150                                
PROFAMCHA030202160937161026000049Nonstop Weekend - LIZZIE MCGUIRE - Chimp                                                                                    150                                
PROFAMCHA030202161026161048000022xxTeamo Supremo (PIE) - Today @ 5pm                                                                                         150                                
OFFFAMCHA030202161048161100000012Nonstop Weekend Block Open (:10-:15)                                                                                                                           
PGRFAMCHA030202161100163333002233Proud Family; The                                 Teacher's Pet                                                       A6068807E                                
PROFAMCHA030202163333163347000014Nonstop Wknd LU - 21 - KIM/TEAMO/PB&J (:13-:16)                                                                             150                                
PROFAMCHA030202163347163409000022xxTeamo Supremo (PIE) - Today @ 5pm                                                                                         150                                
PRCFAMCHA030202163409163424000015Kim Possible Contest                                                                                                        150                                
PROFAMCHA030202163424163518000054Nonstop Weekend - LIZZIE MCGUIRE - Blooper #3 *DNU                                                                          150                                
PROFAMCHA030202163518163548000030Mad Dash Block Promo - Tomorrow from 3pm to 6pm                                                                             150                                
OFFFAMCHA030202163548163600000012Nonstop Weekend Block Open (:10-:15)                                                                                                                           
PGRFAMCHA030202163600165852002252Disney's Kim Possible                             Tick, Tick, Tick                                                    A6068607E                                
PROFAMCHA030202165852165906000014Nonstop Wknd LU - 22 - TEAMO/PB&J/WTP (:13-:16)                                                                             150                                
PROFAMCHA030202165906165921000015Weekenders (REALITY) - Weekdays @ 4:40pm                                                                                    150                                
PRCFAMCHA030202165921165936000015Kim Possible Contest                                                                                                        150                                
PROFAMCHA030202165936170025000049Nonstop Weekend - LIZZIE MCGUIRE - Chimp                                                                                    150                                
PROFAMCHA030202170025170048000023Your Big Break (B-52) - Tonight @ 8pm                                                                                       150                                
OFFFAMCHA030202170048170100000012Nonstop Weekend Block Open (:10-:15)                                                                                                                           
PROFAMCHA030202170100170109000009CC Disclaimer - FAST - Generic (:08-:10)                                                                                    150                                
PGRFAMCHA030202170109172405002256Disney's Teamo Supremo                            Sounds of the Songstress/Calling Captain Excellent                  A6068607ECC                              
PROFAMCHA030202172405172419000014Nonstop Wknd LU - 23(PH)- PB&J/WTP/FRANKLIN (:13-:                                                                          150                                
PRCFAMCHA030202172419172443000024Franklin (LADDER) - Tonight @ 6:15pm                                                                                        150                                
PROFAMCHA030202172443172510000027Playhouse - FRANKLIN - Laundry                                                                                              150                                
PRCFAMCHA030202172510172548000038Henry's World (PARTY) - Tonight @ 6:40pm                                                                                    150                                
OFFFAMCHA030202172548172600000012PS Playhouse Block Open (:10-:15)                                                                                                                              
PROFAMCHA030202172600172609000009CC Disclaimer - FAST - Family (:08-:10)                                                                                     150                                
PGRFAMCHA030202172609174939002330PB&J Otter                                        Chez Otter/Hooray for Peanut                                        A6068607ECC                              
PROFAMCHA030202174939174953000014Nonstop Wknd LU - 24(PH)- WTP/FRANKLIN/HENRY (:13-                                                                          150                                
PRCFAMCHA030202174953175025000032Henry's World (WISH) - Tonight @ 6:40pm                                                                                     150                                
PROFAMCHA030202175025175121000056Playhouse - STANLEY - Fish Song                                                                                             150                                
PRCFAMCHA030202175121175143000022Hoze Houndz (FIREFIGHTER - NEW EPS) - Tonight @ 7:                                                                          150                                
OFFFAMCHA030202175143175153000010PS Playhouse Block Open (:10-:15)                                                                                                                              
ID FAMCHA030202175153175200000007Magic of Disney - PLAYHOUSE - Shape (:06-:09)                                                                               150                                
PROFAMCHA030202175200175209000009CC Disclaimer - FAST - Family.ca (:08-:10)                                                                                  150                                
PGRFAMCHA030202175209181521002312New Adventures of Winnie the Pooh; The            Bubble Trouble/Ground Piglet Day                                    A6068607ECC                              
PROFAMCHA030202181521181535000014Nonstop Wknd LU - 25(PG)- FRANKLIN/HENRY/LULU (:13                                                                          150                                
PROFAMCHA030202181535181547000012Buzz Lightyear (SPACE RANGER) - Weekdays @ 3:25pm                                                                           150                                
PROFAMCHA030202181547181731000144Playground - HOUSE OF MOUSE - Seating Song                                                                                  150                                
PROFAMCHA030202181731181746000015Recess (SPRINKLER) - Weekdays @ 5:05pm                                                                                      150                                
OFFFAMCHA030202181746181800000014PS Playground Block Open (:10-:15) *DNU POST AUG 1                                                                                                             
PROFAMCHA030202181800181809000009CC Disclaimer - FAST - Click Club (:08-:10) **DNU*                                                                          150                                
PGRFAMCHA030202181809184102002253Franklin                                          Franklin The Spy/Franklin & The Library Book                  B13642A1065607ECC                              
PROFAMCHA030202184102184118000016Nonstop Wknd LU - 26(PG)- HENRY/LULU/HOZE (:13-:16                                                                          150                                
PRCFAMCHA030202184118184140000022Hoze Houndz (FIREFIGHTER - NEW EPS) - Tonight @ 7:                                                                          150                                
PROFAMCHA030202184140184215000035Playground - LITTLE LULU - Football                                                                                         150                                
PROFAMCHA030202184215184245000030Mad Dash Block Promo - Tomorrow from 3pm to 6pm                                                                             150                                
OFFFAMCHA030202184245184300000015PS Playground Block Open (:10-:15) *DNU POST AUG 1                                                                                                             
PROFAMCHA030202184300184309000009CC Disclaimer - FAST - Generic (:08-:10)                                                                                    150                                
PGRFAMCHA030202184309190700002351Henry's World                                     Middle Child Blues/Silver Tongue                              B66552A1065607GCC                              
PROFAMCHA030202190700190712000012Nonstop Wknd LU - 27(PG)- LULU/HOZE (:10-:13)                                                                               150                                
PRCFAMCHA030202190712190734000022Hoze Houndz (FIREFIGHTER - NEW EPS) - Tonight @ 7:                                                                          150                                
PROFAMCHA030202190734190758000024Legend of Tarzan (S.O.S) - Weekdays @ 4:15pm                                                                                150                                
PROFAMCHA030202190758190821000023Playground - HOUSE OF MOUSE - Calculator                                                                                    150                                
PROFAMCHA030202190821190848000027Pepper Ann (WHO IS SHE?) - Weekdays @ 3:50pm                                                                                150                                
OFFFAMCHA030202190848190900000012PS Playground Block Open (:10-:15) *DNU POST AUG 1                                                                                                             
PROFAMCHA030202190900190909000009CC Disclaimer - FAST - Family (:08-:10)                                                                                     150                                
PGRFAMCHA030202190909193241002332Little Lulu Show; The                             You Do the Math, Great Escape, The Little Lola Sho            B20209A1065607ECC                              
PROFAMCHA030202193241193255000014Nonstop Wknd LU - 28(SUN)- HOZE/YBB/@MOVIES (:13-:                                                                          150                                
PROFAMCHA030202193255193319000024Your Big Break (BRIAN SETZER) - Tonight @ 8pm                                                                               150                                
PROFAMCHA030202193319193418000059Boy Meets World (DANCE) - Tomorrow @ 8pm                                                                                    150                                
PRCFAMCHA030202193418193448000030@ The Movies - Tonight @ 8:45pm                                                                                             150                                
OFFFAMCHA030202193448193500000012Nonstop Weekend Block Open (:10-:15)                                                                                                                           
PROFAMCHA030202193500193509000009CC Disclaimer - FAST - Family.ca (:08-:10)                                                                                  150                                
PGRFAMCHA030202193509195747002238Hoze Houndz                                       Super On The Side/Bachelor and the Beast                      A63396A1025607ECC                              
PROFAMCHA030202195747195801000014Nonstop Wknd LU - 29(SUN)- YBB/@MOVIES/N-PIX (:13-                                                                          150                                
PRCFAMCHA030202195801195831000030@ The Movies - Tonight @ 8:45pm                                                                                             150                                
PROFAMCHA030202195831195850000019Nonstop Weekend - LIZZIE MCGUIRE - Lenny                                                                                    150                                
PROFAMCHA030202195850195949000059Boy Meets World (DANCE) - Tomorrow @ 8pm                                                                                    150                                
OFFFAMCHA030202195949200000000011Nonstop Weekend Block Open (:10-:15)                                                                                                                           
PGRFAMCHA030202200000204315004315Your Big Break                                    2-010                                                               A60688090                                
ID FAMCHA030202204315204320000005Astral "A Network Of" Logo - English Animation                                                                              150                                
PROFAMCHA030202204320204332000012Nonstop Wknd LU - 30(SUN)- @MOVIES/N-PIX (:10-:13)                                                                          150                                
PROFAMCHA030202204332204358000026Boy Meets World (SHAWN) - Tomorrow @ 8pm                                                                                    150                                
PROFAMCHA030202204358204446000048Amanda Show (JACUZZI) - Weeknights @ 6pm                                                                                    150                                
OFFFAMCHA030202204446204500000014Nonstop Weekend Block Open (:10-:15)                                                                                                                           
PGRFAMCHA030202204500210100001600@ The Movies (1)                                                                                                      A10628150                                
ID FAMCHA030202210100210103000003Astral "A Network Of" Logo - English Animation                                                                              150                                
PROFAMCHA030202210103210111000008Nightly Pix Line-up - 03 - COMEDY (:08-:11)                                                                                 150                                
ID FAMCHA030202210111210121000010Nightly Pix Movie Open (:10-:15)                                                                                            150                                
PRCFAMCHA030202210121210129000008Rating - PG - Ian (:08-:10)                                                                                                 150                                
PROFAMCHA030202210129210137000008CC Disclaimer - SLOW - Click Club (:08-:10) **DNU*                                                                          150                                
PGRFAMCHA030202210137224237014100Groundhog Day                                                                                                         B2068807DCC                              
ID FAMCHA030202224237224240000003Astral "A Network Of" Logo - English Animation                                                                              150                                
PROFAMCHA030202224240224253000013Nonstop Wknd LU - 31(SUN)- @MOVIES/N-PIX/AMAZING (                                                                          150                                
