SO FAMCHA071201043000043011000011Sign On (oct 1)                                                                                                                                                
PRCFAMCHA071201043011043020000009CC Disclaimer - FAST - Family.ca (:09-:10)                                                                                  150                                
PGRFAMCHA071201043020045420002400Henry's World                                     EP: 2-018                                                     B81049A1065607GCC                              
PRCFAMCHA071201045420045425000005xxAstral ID (FEB05)                                                                                                         150                                
PRCFAMCHA071201045425045441000016PH - 21 - BENJAMIN/FRANNY'S/KING(:14 - :16) (SEPT0                                                                          150                                
ID FAMCHA071201045441045454000013PS Playhouse AM Block Open (:10-:15)                                                                                        150                                
PRCFAMCHA071201045454045503000009CC Disclaimer - FAST - Generic (:09-:10)                                                                                    150                                
PGRFAMCHA071201045503051738002235The Secret World Of Benjamin Bear                 EPS # 1-004                                                   B75149 1065607ECC                              
PRCFAMCHA071201051738051754000016PH - 22 - FRANNY'S/KING (:14 - :16) (SEPT07)                                                                                150                                
ID FAMCHA071201051754051807000013PS Playhouse AM Block Open (:10-:15)                                                                                        150                                
PRCFAMCHA071201051807051816000009CC Disclaimer - FAST - Family.ca (:09-:10)                                                                                  150                                
PGRFAMCHA071201051816054046002230Franny's Feet                                     EPS # 28                                                      C23971 1065607ECC                              
PRCFAMCHA071201054046054051000005xxAstral ID (FEB05)                                                                                                         150                                
PRCFAMCHA071201054051054107000016PH - 23 - KING (:14 - :16) (SEPT07)                                                                                         150                                
ID FAMCHA071201054107054120000013PS Playhouse AM Block Open (:10-:15)                                                                                        150                                
PRCFAMCHA071201054120054129000009CC Disclaimer - FAST - Generic (:09-:10)                                                                                    150                                
PGRFAMCHA071201054129060359002230King                                              EPS # 027                                                     C25350 1065607ECC                              
PROFAMCHA071201060359060418000019Jetix Block Open (:18-:21)                                                                                                  150                                
PRCFAMCHA071201060418060427000009CC Disclaimer - FAST - Family.ca (:09-:10)                                                                                  150                                
PGRFAMCHA071201060427062706002239Power Rangers:  Operation Overdrive               EP: 03                                                               2068607ECC                              
PRCFAMCHA071201062706062711000005xxAstral ID (FEB05)                                                                                                         150                                
PROFAMCHA071201062711062741000030xxHSM - The Ice Tour Promo #2 (Aug 20 - Dec 13) $$                                                                          150                                
PROFAMCHA071201062741062754000013Family Bumpers - (Phase 2 F/W 04) - Leaves (PB/MD-                                                                          150                                
PROFAMCHA071201062754062828000034xxFamily Holiday CD - Available Now (Nov 13 - Jan                                                                           150                                
PRCFAMCHA071201062828062839000011Naturally Sadie ID's - I'm Charlotte, you're watch                                                                          150                                
PROFAMCHA071201062839062900000021Jetix Block Open (:18-:21)                                                                                                  150                                
PRCFAMCHA071201062900062909000009CC Disclaimer - FAST - Generic (:09-:10)                                                                                    150                                
PGRFAMCHA071201062909065146002237Power Rangers:  Operation Overdrive               EP: 14                                                               2068607ECC                              
PROFAMCHA071201065146065231000045xxAshley Tisdale HSM 2 Holiday Memories Spot 3 X D                                                                          150                                
PROFAMCHA071201065231065256000025xxDisney Game of the Week 3 HSM (Nov 28 - Dec 6) $                                                                          150                                
PROFAMCHA071201065256065304000008Family Bumpers - (Phase 2 F/W 04) - Snow Ball (MD-                                                                          150                                
PROFAMCHA071201065304065335000031xxHannah Montana DVD Game Contest (Nov 12-Dec 24)                                                                           150                                
PROFAMCHA071201065335065341000006Phil of the Future IDs - Your Watching Family...NA                                                                          150                                
PROFAMCHA071201065341065400000019Jetix Block Open (:18-:21)                                                                                                  150                                
PRCFAMCHA071201065400065410000010CC Disclaimer - FAST - Family.ca (:09-:10)                                                                                  150                                
PGRFAMCHA071201065410071649002239Yin Yang Yo!                                      EP: 24                                                               2068607ECC                              
PRCFAMCHA071201071649071654000005xxAstral ID (FEB05)                                                                                                         150                                
PROFAMCHA071201071654071743000049xxTwismas Stunt Promo (Nov 30 - Dec 26) $$$                                                                                 150                                
PROFAMCHA071201071743071814000031xxHSM 2 DVD - Available Dec 11 (Nov 29 - Dec 10) $                                                                          150                                
PROFAMCHA071201071814071826000012Family Bumpers - (Phase 3 Spring 05) - Bake (MD/NS                                                                          150                                
PROFAMCHA071201071826071856000030Popcorn Pix - Slapstick - Today @ Noon                                                                                      150                                
PROFAMCHA071201071856071930000034xxFamily Holiday CD - Available Now (Nov 13 - Jan                                                                           150                                
PROFAMCHA071201071930071937000007Aly & A.J. IDs - (A.J.) You're watching Family, NA                                                                          150                                
PROFAMCHA071201071937071958000021Jetix Block Open (:18-:21)                                                                                                  150                                
PRCFAMCHA071201071958072008000010CC Disclaimer - FAST - Generic (:09-:10)                                                                                    150                                
PGRFAMCHA071201072008074303002255Pucca                                             EP: 13                                                               2068607ECC                              
PRCFAMCHA071201074303074316000013NSW - 01 - HANNAH/SUITE LIFE (:11 - :13) (SEPT07)                                                                           150                                
PROFAMCHA071201074316074345000029Hannah Montana SCIENCE (NSW) - Coming Up Next (SEP                                                                          150                                
PROFAMCHA071201074345074424000039xxWish Gone Amiss DVD Blast  (Nov 19-Dec 2) $$$                                                                             150                                
PROFAMCHA071201074424074443000019xxSuite Life of Z & C - NSW (JULY 06) MEDITATE - T                                                                          150                                
PROFAMCHA071201074443074558000115xxBullying PSA Family/Shaftsbury 2007 (Nov 19-Dec                                                                           150                                
PROFAMCHA071201074558074618000020Zoey 101 - He Loves Her 1 - (NSW) This Morning @ 8                                                                          150                                
PROFAMCHA071201074618074658000040xxBratz The Movie DVD Contest REVISED - Available                                                                           150                                
PROFAMCHA071201074658074743000045xxMexx/Disney Parks Promo REV(2 x PH & 3 x Day/ NS                                                                          150                                
PROFAMCHA071201074743074800000017Nonstop Weekend Block Open (:16-:18) APR06                                                                                  150                                
ID FAMCHA071201074800074808000008Magic of Disney - NS/NSW/PB - Shape (:06-:09)                                                                               150                                
PRCFAMCHA071201074808074817000009CC Disclaimer - FAST - Family.ca (:09-:10)                                                                                  150                                
PGRFAMCHA071201074817081055002238Hannah Montana                                    EP: 24                                                               6068807BCC                              
PRCFAMCHA071201081055081100000005xxAstral ID (FEB05)                                                                                                         150                                
PRCFAMCHA071201081100081113000013NSW - 02 - SUITE LIFE/ZOEY 101 (:11 - :13) (SEPT07                                                                          150                                
PROFAMCHA071201081113081202000049xxTwismas Stunt Promo (Nov 30 - Dec 26) $$$                                                                                 150                                
PROFAMCHA071201081202081235000033Suite Life of Z & C SCOUT (NSW) - Coming Up Next (                                                                          150                                
PROFAMCHA071201081235081307000032xxPirates 3 DVD Contest REVISION - Available Dec 4                                                                          150                                
PROFAMCHA071201081307081324000017xxZoey 101 (NSW)  ZOEY, ZOEY, ZOEY - This Mornings                                                                          150                                
PROFAMCHA071201081324081354000030That's So Raven (SCREAM) (NSW) This Mornings @ 9:4                                                                          150                                
PROFAMCHA071201081354081436000042xxHasbro Sleep Over Party Contest REVISED (Nov-12-                                                                          150                                
PROFAMCHA071201081436081445000009Raven ID's II - You're Watching Family, NADM                                                                                150                                
PROFAMCHA071201081445081500000015Pre-Twismas Bumper - Cheese (Dec 1-25) $$$                                                                                  150                                
ID FAMCHA071201081500081508000008Magic of Disney - MAD DASH - Wipe (:06-:09)                                                                                 150                                
PRCFAMCHA071201081508081517000009CC Disclaimer - FAST - Generic (:09-:10)                                                                                    150                                
PGRFAMCHA071201081517083718002201Suite Life of Zack and Cody, The                  EP: 14                                                               6068607BCC                              
PRCFAMCHA071201083718083731000013NSW - 03 - ZOEY 101/CORY IN THE HOUSE (:11 - :13)                                                                           150                                
PROFAMCHA071201083731083751000020Zoey 101 - He Loves Her 1 - (NSW) Coming Up Next (                                                                          150                                
PROFAMCHA071201083751083825000034xxMattel Toy Express - Version 2 GIRL Contest Spot                                                                          150                                
PROFAMCHA071201083825083847000022That's So Raven (BEAR) (NSW) This Morning @ 9:40 (                                                                          150                                
PROFAMCHA071201083847083947000100xxAstral Corporate Promo (NS, NSW) 3 X Day (Nov.22                                                                          150                                
PROFAMCHA071201083947083959000012Family Bumpers - (Phase 1 Spring 04) - Pillow Figh                                                                          150                                
PRCFAMCHA071201083959084059000100xxMS - Enchanted  Interview w/AA & PD Now Playing                                                                           150                                
PROFAMCHA071201084059084129000030Wizards of Waverrly Place SIBLING (NSW) - This Mor                                                                          150                                
PROFAMCHA071201084129084201000032Suite Life of Z & C (NSW) Wonderful Hotel - New Ep                                                                          150                                
PROFAMCHA071201084201084239000038xxBarbie Girls - Best Friends Contest (Nov 12 - De                                                                          150                                
PROFAMCHA071201084239084253000014Phil of the Future IDs - Ricky Tomato - watching f                                                                          150                                
PRCFAMCHA071201084253084300000007NSW Bumper - Dodgeball (:07-:09) APR06                                                                                      150                                
PRCFAMCHA071201084300084309000009CC Disclaimer - FAST - Family.ca (:09-:10)                                                                                  150                                
PGRFAMCHA071201084309090540002231Zoey 101                                          EPS # 10                                                             2068807BCC                              
PRCFAMCHA071201090540090545000005xxAstral ID (FEB05)                                                                                                         150                                
PRCFAMCHA071201090545090558000013NSW - 04 - CORY IN THE HOUSE/RAVEN (:11 - :13) (SE                                                                          150                                
PROFAMCHA071201090558090643000045xxAshley Tisdale HSM 2 Holiday Memories Spot 3 X D                                                                          150                                
PROFAMCHA071201090643090726000043Cory In The House (NSW) (MAR07) - Coming Up Next                                                                            150                                
PROFAMCHA071201090726090800000034xxMattel Toy Express - Version 1 BOY Contest Spot                                                                           150                                
PROFAMCHA071201090800090822000022That's So Raven (BEAR) (NSW) This Morning @ 9:40 (                                                                          150                                
PROFAMCHA071201090822090832000010FAMJAM - Open/Close                                                                                                         150                                
PGRFAMCHA071201090832090932000100xxMV Disney - (MD/NS/NSW) - Corbin Bleu - Deal Wit                                                                     60688120                                
PROFAMCHA071201090932090946000014xxFAMJAM - Close (FAMILY) xxDNUxx                                                                                           150                                
PROFAMCHA071201090946091016000030Wizards of Waverrly Place SIBLING (NSW) - This Mor                                                                          150                                
PROFAMCHA071201091016091050000034xxNeds DSSG - Granny Kiss NSW (MAY06) This morn @                                                                           150                                
PROFAMCHA071201091050091132000042xxHasbro Sleep Over Party Contest REVISED (Nov-12-                                                                          150                                
PROFAMCHA071201091132091147000015Phil of the Future IDs - Aly Flute Spit - I'm Aly                                                                           150                                
PRCFAMCHA071201091147091200000013NSW Bumper - Fashion (:12-:14) JUNE06                                                                                       150                                
ID FAMCHA071201091200091208000008Magic of Disney - NS/NSW/PB - Shape (:06-:09)                                                                               150                                
PRCFAMCHA071201091208091217000009CC Disclaimer - FAST - Generic (:09-:10)                                                                                    150                                
PGRFAMCHA071201091217093455002238Cory in the House                                 EP: 05                                                               6068607BCC                              
PRCFAMCHA071201093455093508000013NSW - 05 - RAVEN/PHIL (:11 - :13) (SEPT07)                                                                                  150                                
PROFAMCHA071201093508093537000029xxThat's So Raven (APR06) HELLO LADIES (NSW) - Com                                                                          150                                
PROFAMCHA071201093537093616000039xxWish Gone Amiss DVD Blast  (Nov 19-Dec 2) $$$                                                                             150                                
PROFAMCHA071201093616093646000030Wizards of Waverrly Place SIBLING (NSW) - This Mor                                                                          150                                
PRCFAMCHA071201093646093846000200xxMS - Enchanted  Interview w/J.Marsden Now Playin                                                                          150                                
PROFAMCHA071201093846093921000035xxNeds DSSG - Superheroes - NSW (JULY 06) This mor                                                                          150                                
PROFAMCHA071201093921093959000038xxBarbie Girls - Best Friends Contest (Nov 12 - De                                                                          150                                
PROFAMCHA071201093959094044000045xxMexx/Disney Parks Promo REV(2 x PH & 3 x Day/ NS                                                                          150                                
PRCFAMCHA071201094044094100000016NSW Bumper - Tennis (:15-:17) APR06                                                                                         150                                
ID FAMCHA071201094100094108000008Magic of Disney - NS/NSW/PB - Wipe (:06-:09)                                                                                150                                
PRCFAMCHA071201094108094117000009CC Disclaimer - FAST - Family.ca (:09-:10)                                                                                  150                                
PGRFAMCHA071201094117100353002236That's So Raven                                   EP: 066                                                              6068607BCC                              
PRCFAMCHA071201100353100358000005xxAstral ID (FEB05)                                                                                                         150                                
PROFAMCHA071201100358100443000045xxAshley Tisdale HSM 2 Holiday Memories Spot 3 X D                                                                          150                                
PROFAMCHA071201100443100526000043xxLittlest Pet Shop Contest Spot (Nov 5-Dec 2) $$$                                                                          150                                
PROFAMCHA071201100526100547000021xxNeds DSSG Rock Idol NSW (MAY06) This morning @ 1                                                                          150                                
PROFAMCHA071201100547100557000010FAMJAM - Open/Close                                                                                                         150                                
PGRFAMCHA071201100557100742000145MV Disney - Superstition (Raven)                                                                                       60688120                                
PROFAMCHA071201100742100756000014xxFAMJAM - Close (FAMILY) xxDNUxx                                                                                           150                                
PROFAMCHA071201100756100832000036Suite Life of Z & C GOLF (NSW) - This Morning @ 11                                                                          150                                
PROFAMCHA071201100832100902000030Zoey 101 - QUINN (NSW) (MAR07) - Tomorrow morning                                                                           150                                
PROFAMCHA071201100902100942000040xxBratz The Movie DVD Contest REVISED - Available                                                                           150                                
PRCFAMCHA071201100942100952000010Naturally Sadie ID's - I'm Charlotte from Naturall                                                                          150                                
PRCFAMCHA071201100952101001000009NSW Bumper - Dodgeball (:07-:09) APR06                                                                                      150                                
ID FAMCHA071201101001101010000009Magic of Disney - NS/NSW/PB - Shape (:06-:09)                                                                               150                                
PGRFAMCHA071201101010103250002240Phil of the Future                                EPS # 10                                                             6068607B                                
PROFAMCHA071201103250103320000030Wizards of Waverrly Place SIBLING (NSW) - Coming U                                                                          150                                
PROFAMCHA071201103320103352000032xxPirates 3 DVD Contest REVISION - Available Dec 4                                                                          150                                
PROFAMCHA071201103352103427000035xxNeds DSSG - Superheroes - NSW (JULY 06) This mor                                                                          150                                
PROFAMCHA071201103427103527000100xxAstral Corporate Promo (NS, NSW) 3 X Day (Nov.22                                                                          150                                
PROFAMCHA071201103527103603000036Suite Life of Z & C GOLF (NSW) - This Morning @ 11                                                                          150                                
PROFAMCHA071201103603103625000022That's So Raven (BEAR) (NSW) Tomorrow Morning @ 9:                                                                          150                                
PROFAMCHA071201103625103656000031xxHSM 2 DVD - Available Dec 11 (Nov 29 - Dec 10) $                                                                          150                                
PROFAMCHA071201103656103745000049xxTwismas Stunt Promo (Nov 30 - Dec 26) $$$                                                                                 150                                
PRCFAMCHA071201103745103759000014NSW Bumper - Fashion (:12-:14) JUNE06                                                                                       150                                
PRCFAMCHA071201103759103809000010CC Disclaimer - FAST - Generic (:09-:10)                                                                                    150                                
PGRFAMCHA071201103809110040002231Disney Wizards of Waverly Place                   EP: 03                                                               6068607BCC                              
PRCFAMCHA071201110040110045000005xxAstral ID (FEB05)                                                                                                         150                                
PRCFAMCHA071201110045110058000013NSW - 08 - NED'S/SUITE LIFE (:11 - :13) (SEPT07)                                                                            150                                
PROFAMCHA071201110058110119000021xxNeds DSSG Rock Idol NSW (MAY06) Coming Up Next                                                                            150                                
PROFAMCHA071201110119110144000025xxDisney Game of the Week 3 HSM (Nov 28 - Dec 6) $                                                                          150                                
PROFAMCHA071201110144110220000036Suite Life of Z & C GOLF (NSW) - This Morning @ 11                                                                          150                                
PROFAMCHA071201110220110335000115xxBullying PSA Family/Shaftsbury 2007 (Nov 19-Dec                                                                           150                                
PROFAMCHA071201110335110404000029Hannah Montana SCIENCE (NSW) - This Afternoon @ 5:                                                                          150                                
PROFAMCHA071201110404110434000030xxBratz Interstitial Blast - Available Now (Nov.27                                                                          150                                
PRCFAMCHA071201110434110445000011Naturally Sadie ID's - I'm Charlotte, you're watch                                                                          150                                
PROFAMCHA071201110445110500000015Pre-Twismas Bumper - Plant (Dec 1-25) $$$                                                                                   150                                
PRCFAMCHA071201110500110509000009CC Disclaimer - FAST - Family.ca (:09-:10)                                                                                  150                                
PGRFAMCHA071201110509112925002416Ned's Declassified School Survival Guide          EP: 41                                                               2068807BCC                              
PRCFAMCHA071201112925112938000013NSW - 09 - SUITE LIFE/POPCORN PIX (:11 - :13) (SEP                                                                          150                                
PROFAMCHA071201112938112957000019xxSuite Life of Z & C - NSW (JULY 06) MEDITATE - C                                                                          150                                
PROFAMCHA071201112957113031000034xxMattel Toy Express - Version 3 GENERAL Contest S                                                                          150                                
PROFAMCHA071201113031113114000043Cory In The House (NSW) This Afternoon @ 3:25pm (S                                                                          150                                
PROFAMCHA071201113114113203000049Proud Family (APR06) STRIKE (NSW) - This Afternoon                                                                          150                                
PROFAMCHA071201113203113237000034Hannah Montana (NSW) Wig Auditions - Tomorrow Morn                                                                          150                                
PRCFAMCHA071201113237113307000030xxFamous Players Popcorn Parties 2 (May 2-Jan 31/0                                                                          150                                
PROFAMCHA071201113307113352000045xxMexx/Disney Parks Promo REV(2 x PH & 3 x Day/ NS                                                                          150                                
PRCFAMCHA071201113352113401000009NSW Bumper - Dodgeball (:07-:09) APR06                                                                                      150                                
ID FAMCHA071201113401113410000009Magic of Disney - NS/NSW/PB - Shape (:06-:09)                                                                               150                                
PRCFAMCHA071201113410113420000010CC Disclaimer - FAST - Generic (:09-:10)                                                                                    150                                
PGRFAMCHA071201113420115659002239Suite Life of Zack & Cody, The                    EP: 02                                                               6068607BCC                              
PRCFAMCHA071201115659115704000005xxAstral ID (FEB05)                                                                                                         150                                
PRCFAMCHA071201115704115715000011NSW - 10 - POPCORN PIX/POPCORN PIX (:11 - :13) (SE                                                                          150                                
PROFAMCHA071201115715115804000049xxTwismas Stunt Promo -Coming Up Next (before movi                                                                          150                                
PROFAMCHA071201115804115836000032xxPirates 3 DVD Contest REVISION - Available Dec 4                                                                          150                                
PROFAMCHA071201115836115906000030xxSuite Life of Z & C - NSW (JULY 06) GIRLFRIEND 2                                                                          150                                
PROFAMCHA071201115906115937000031xxHSM 2 DVD - Available Dec 11 (Nov 29 - Dec 10) $                                                                          150                                
PRCFAMCHA071201115937115948000011NSW - 11 - POPCORN PIX/LIZZIE (:11 - :13) (SEPT07)                                                                          150                                
PRCFAMCHA071201115948120000000012NSW Bumper - Fashion (:12-:14) JUNE06                                                                                       150                                
ID FAMCHA071201120000120010000010Ratings - PG - Popcorn Pix Only (July 07)                                                                                   150                                
PRCFAMCHA071201120010120020000010CC Disclaimer - FAST - Family.ca (:09-:10)                                                                                  150                                
PGRFAMCHA071201120020132908012848One Magic Christmas                                                                                             SR0232B1066807DCC                              
PRCFAMCHA071201132908132919000011NSW - 11 - POPCORN PIX/LIZZIE (:11 - :13) (SEPT07)                                                                          150                                
PROFAMCHA071201132919132935000016xxKim Possible FINGER TAUNT (NSW) (July 06) This a                                                                          150                                
PRCFAMCHA071201132935132943000008CC Disclaimer - FAST - Generic (:09-:10)                                                                                    150                                
ID FAMCHA071201132943133001000018Popcorn Pix Block Open (JUNE 06) (:18-:20)                                                                                  150                                
ID FAMCHA071201133001133011000010Ratings - PG - Popcorn Pix Only (July 07)                                                                                   150                                
PRCFAMCHA071201133011133020000009CC Disclaimer - FAST - Generic (:09-:10)                                                                                    150                                
ID FAMCHA071201133020133027000007Magic of Disney - PIX - Shape (:06-:09)                                                                                     150                                
PGRFAMCHA071201133027150406013339The Christmas Star                                                                                                    B6068807CCC                              
PRCFAMCHA071201150406150411000005xxAstral ID (FEB05)                                                                                                         150                                
PRCFAMCHA071201150411150424000013NSW - 12 - LIZZIE/CORY IN THE HOUSE (:11 - :13) (S                                                                          150                                
PROFAMCHA071201150424150441000017Nonstop Weekend Block Open (:16-:18) APR06                                                                                  150                                
ID FAMCHA071201150441150449000008Magic of Disney - NS/NSW/PB - Wipe (:06-:09)                                                                                150                                
PRCFAMCHA071201150449150458000009CC Disclaimer - FAST - Family.ca (:09-:10)                                                                                  150                                
PGRFAMCHA071201150458152729002231Lizzie McGuire                                    EP: 2-014                                                            6068607BCC                              
PRCFAMCHA071201152729152742000013NSW - 13 - CORY IN THE HOUSE/SUITE LIFE (:11 - :13                                                                          150                                
PRCFAMCHA071201152742152758000016NSW Bumper - Tennis (:15-:17) APR06                                                                                         150                                
ID FAMCHA071201152758152806000008Magic of Disney - NS/NSW/PB - Shape (:06-:09)                                                                               150                                
PRCFAMCHA071201152806152815000009CC Disclaimer - FAST - Generic (:09-:10)                                                                                    150                                
PGRFAMCHA071201152815155053002238Cory in the House                                 EP: 09                                                               6068607BCC                              
PRCFAMCHA071201155053155058000005xxAstral ID (FEB05)                                                                                                         150                                
PRCFAMCHA071201155058155111000013NSW - 14 - SUITE LIFE/PROUD FAMILY (:11 - :13) (SE                                                                          150                                
PRCFAMCHA071201155111155119000008NSW Bumper - Dodgeball (:07-:09) APR06                                                                                      150                                
ID FAMCHA071201155119155127000008Magic of Disney - NS/NSW/PB - Wipe (:06-:09)                                                                                150                                
PRCFAMCHA071201155127155136000009CC Disclaimer - FAST - Family.ca (:09-:10)                                                                                  150                                
PGRFAMCHA071201155136161414002238Suite Life of Zack & Cody, The                    EP: 25                                                               6068607BCC                              
PRCFAMCHA071201161414161427000013NSW - 15 - PROUD FAMILY/REPLACEMENTS (:11 - :13) (                                                                          150                                
PROFAMCHA071201161427161516000049Proud Family (APR06) STRIKE (NSW) - Coming Up Next                                                                          150                                
PRCFAMCHA071201161516161546000030xxFamous Players Popcorn Parties 2 (May 2-Jan 31/0                                                                          150                                
PROFAMCHA071201161546161618000032Suite Life of Z & C (NSW) Wonderful Hotel - New Ep                                                                          150                                
PRCFAMCHA071201161618161658000040Magazine Spot (MD,NS,NSW) 2/3 day (not in PH) (til                                                                          150                                
PROFAMCHA071201161658161747000049xxTwismas Stunt Promo (Nov 30 - Dec 26) $$$                                                                                 150                                
PRCFAMCHA071201161747161800000013NSW Bumper - Fashion (:12-:14) JUNE06                                                                                       150                                
ID FAMCHA071201161800161808000008Magic of Disney - NS/NSW/PB - Shape (:06-:09)                                                                               150                                
PRCFAMCHA071201161808161817000009CC Disclaimer - FAST - Generic (:09-:10)                                                                                    150                                
PGRFAMCHA071201161817164104002247The Proud Family                                  EP: 1-004                                                           A6068607ECC                              
PRCFAMCHA071201164104164109000005xxAstral ID (FEB05)                                                                                                         150                                
PRCFAMCHA071201164109164122000013NSW - 16 - REPLACEMENTS/KIM (:11 - :13) (SEPT07)                                                                            150                                
PROFAMCHA071201164122164207000045xxAshley Tisdale HSM 2 Holiday Memories Spot 3 X D                                                                          150                                
PROFAMCHA071201164207164232000025xxReplacements (FEB07) WEDGIE (NSW) - Coming Up Ne                                                                          150                                
PROFAMCHA071201164232164306000034xxMattel Toy Express - Version 1 BOY Contest Spot                                                                           150                                
PROFAMCHA071201164306164318000012Family Bumpers - (Phase 1 Spring 04) - Pillow Figh                                                                          150                                
PROFAMCHA071201164318164400000042xxHasbro Sleep Over Party Contest REVISED (Nov-12-                                                                          150                                
PROFAMCHA071201164400164445000045xxMexx/Disney Parks Promo REV(2 x PH & 3 x Day/ NS                                                                          150                                
PROFAMCHA071201164445164500000015Pre-Twismas Bumper - Underwear (Dec 1-25) $$$                                                                               150                                
PRCFAMCHA071201164500164510000010CC Disclaimer - FAST - Family.ca (:09-:10)                                                                                  150                                
PGRFAMCHA071201164510170749002239Disney's The Replacements                         EP: 14                                                               2068607ECC                              
PRCFAMCHA071201170749170802000013NSW - 17 - KIM/HANNAH (:11 - :13) (SEPT07)                                                                                  150                                
PROFAMCHA071201170802170819000017Kim Possible WHEELS NSW (MAY 07) Coming Up Next                                                                             150                                
PROFAMCHA071201170819170857000038xxBarbie Girls - Best Friends Contest (Nov 12 - De                                                                          150                                
PROFAMCHA071201170857170926000029Hannah Montana SCIENCE (NSW) - This Afternoon @ 5:                                                                          150                                
PRCFAMCHA071201170926171026000100xxMS - Enchanted  Visual Effects Now Playing (Nov                                                                           150                                
PROFAMCHA071201171026171103000037Naturally Sadie - TEENAGE (NSW) Saturday Night @ 6                                                                          150                                
PROFAMCHA071201171103171134000031xxHSM 2 DVD - Available Dec 11 (Nov 29 - Dec 10) $                                                                          150                                
PROFAMCHA071201171134171149000015Phil of the Future IDs - Aly Flute Spit - I'm Aly                                                                           150                                
PRCFAMCHA071201171149171158000009NSW Bumper - Dodgeball (:07-:09) APR06                                                                                      150                                
PRCFAMCHA071201171158171208000010CC Disclaimer - FAST - Generic (:09-:10)                                                                                    150                                
PGRFAMCHA071201171208173458002250Disney's Kim Possible                             EP: 1-018                                                           A6068607ECC                              
PRCFAMCHA071201173458173503000005xxAstral ID (FEB05)                                                                                                         150                                
PRCFAMCHA071201173503173516000013NSW - 18 - HANNAH/SADIE (:11 - :13) (SEPT07)                                                                                150                                
PROFAMCHA071201173516173545000029Hannah Montana SCIENCE (NSW) - Coming Up Next (SEP                                                                          150                                
PROFAMCHA071201173545173610000025xxDisney Game of the Week 3 HSM (Nov 28 - Dec 6) $                                                                          150                                
PROFAMCHA071201173610173617000007Family Bumpers - (Phase 2 F/W 04) - Snow Twirl (MD                                                                          150                                
PROFAMCHA071201173617173717000100xxAstral Corporate Promo (NS, NSW) 3 X Day (Nov.22                                                                          150                                
PROFAMCHA071201173717173746000029xxThat's So Raven (APR06) HELLO LADIES (NSW) - Ton                                                                          150                                
PRCFAMCHA071201173746173826000040Magazine Spot (MD,NS,NSW) 2/3 day (not in PH) (til                                                                          150                                
PROFAMCHA071201173826173846000020Zoey 101 - He Loves Her 1 - (NSW) Tonight @ 7:25pm                                                                          150                                
PRCFAMCHA071201173846173900000014NSW Bumper - Fashion (:12-:14) JUNE06                                                                                       150                                
ID FAMCHA071201173900173908000008Magic of Disney - NS/NSW/PB - Wipe (:06-:09)                                                                                150                                
PRCFAMCHA071201173908173917000009CC Disclaimer - FAST - Family.ca (:09-:10)                                                                                  150                                
PGRFAMCHA071201173917180155002238Hannah Montana                                    EP: 22                                                               6068807BCC                              
PRCFAMCHA071201180155180206000011NSW - 19 - SADIE/FLIGHT 29 DOWN (:11 - :13) (SEPT0                                                                          150                                
PROFAMCHA071201180206180255000049xxTwismas Stunt Promo (Nov 30 - Dec 26) $$$                                                                                 150                                
PROFAMCHA071201180255180332000037Naturally Sadie - TEENAGE (NSW) NEXT (MAY07)                                                                                150                                
PROFAMCHA071201180332180414000042xxHasbro Sleep Over Party Contest REVISED (Nov-12-                                                                          150                                
PROFAMCHA071201180414180450000036xxFlight 29 Down - (NSW) Tonight @ 6:30pm (JUNE07)                                                                          150                                
PROFAMCHA071201180450180507000017xxZoey 101 (NSW)  ZOEY, ZOEY, ZOEY - Tonight @ 7:2                                                                          150                                
PROFAMCHA071201180507180537000030xxBratz Interstitial Blast - Available Now (Nov.27                                                                          150                                
PROFAMCHA071201180537180545000008Raven ID's II - Log onto family.ca                                                                                          150                                
PROFAMCHA071201180545180600000015Pre-Twismas Bumper - Fish (Dec 1-25) $$$                                                                                    150                                
PRCFAMCHA071201180600180609000009CC Disclaimer - FAST - Generic (:09-:10)                                                                                    150                                
PGRFAMCHA071201180609182839002230Naturally, Sadie                                  EP: 65                                                        C29639 1055607ACC3                             
PRCFAMCHA071201182839182844000005xxAstral ID (FEB05)                                                                                                         150                                
PRCFAMCHA071201182844182857000013NSW - 20 - FLIGHT 29 DOWN/RAVEN (:11 - :13) (SEPT0                                                                          150                                
PRCFAMCHA071201182857182915000018xxLife with Derek NSW OJ (SEPT06) Tonight @ 7:50                                                                            150                                
PROFAMCHA071201182915182958000043xxLittlest Pet Shop Contest Spot (Nov 5-Dec 2) $$$                                                                          150                                
PRCFAMCHA071201182958183005000007Family Bumpers - (Phase 2 F/W 04) - Hockey (MD-L/M                                                                          150                                
PROFAMCHA071201183005183039000034xxFamily Holiday CD - Available Now (Nov 13 - Jan                                                                           150                                
PROFAMCHA071201183039183053000014Phil of the Future IDs - Ricky Tomato - watching f                                                                          150                                
PRCFAMCHA071201183053183100000007NSW Bumper - Dodgeball (:07-:09) APR06                                                                                      150                                
PGRFAMCHA071201183100185235002135Flight 29 Down                                    EP: 27                                                               2068807A                                
PRCFAMCHA071201185235185248000013NSW - 21 - RAVEN/ZOEY 101 (:11 - :13) (SEPT07)                                                                              150                                
PROFAMCHA071201185248185317000029xxThat's So Raven (AUG06) BEAUTY MARK (NSW) - Comi                                                                          150                                
PROFAMCHA071201185317185356000039xxWish Gone Amiss DVD Blast  (Nov 19-Dec 2) $$$                                                                             150                                
PROFAMCHA071201185356185416000020Zoey 101 - He Loves Her 1 - (NSW) Tonight @ 7:25pm                                                                          150                                
PROFAMCHA071201185416185531000115xxBullying PSA Family/Shaftsbury 2007 (Nov 19-Dec                                                                           150                                
PRCFAMCHA071201185531185601000030xxLife WD - Dinnertime Tonight @ 7:50 NSW                                                                                   150                                
PROFAMCHA071201185601185632000031xxHSM 2 DVD - Available Dec 11 (Nov 29 - Dec 10) $                                                                          150                                
PRCFAMCHA071201185632185643000011Naturally Sadie ID's - I'm Charlotte, you're watch                                                                          150                                
PRCFAMCHA071201185643185657000014NSW Bumper - Fashion (:12-:14) JUNE06                                                                                       150                                
ID FAMCHA071201185657185706000009Magic of Disney - NS/NSW/PB - Shape (:06-:09)                                                                               150                                
PRCFAMCHA071201185706185716000010CC Disclaimer - FAST - Family.ca (:09-:10)                                                                                  150                                
PGRFAMCHA071201185716191940002224That's So Raven                                   EP: 078                                                              6068607BCC                              
PRCFAMCHA071201191940191945000005xxAstral ID (FEB05)                                                                                                         150                                
PRCFAMCHA071201191945191958000013NSW - 21 - ZOEY 101/LIFE WITH DEREK (:11 - :13) (S                                                                          150                                
PROFAMCHA071201191958192029000031xxHannah Montana DVD Game Contest (Nov 12-Dec 24)                                                                           150                                
PROFAMCHA071201192029192102000033Suite Life of Z & C SCOUT (NSW) - Tonight @ 8:15pm                                                                          150                                
PRCFAMCHA071201192102192132000030xxFamous Players Popcorn Parties 2 (May 2-Jan 31/0                                                                          150                                
PRCFAMCHA071201192132192142000010Naturally Sadie ID's - Log on to family.ca                                                                                  150                                
PRCFAMCHA071201192142192159000017NSW Bumper - Tennis (:15-:17) APR06                                                                                         150                                
PRCFAMCHA071201192159192209000010CC Disclaimer - FAST - Generic (:09-:10)                                                                                    150                                
PGRFAMCHA071201192209194440002231Zoey 101                                          EPS # 10                                                             2068807BCC                              
PRCFAMCHA071201194440194453000013NSW - 22 - LIFE WITH DEREK/SUITE LIFE (:11 - :13)                                                                           150                                
PRCFAMCHA071201194453194531000038Life W D (NS) Edwin Mystery Man - Coming Up Next (                                                                          150                                
PROFAMCHA071201194531194603000032xxPirates 3 DVD Contest REVISION - Available Dec 4                                                                          150                                
PROFAMCHA071201194603194632000029Hannah Montana SCIENCE (NSW) - Tonight @ 8:35pm (S                                                                          150                                
PROFAMCHA071201194632194703000031xxHSM 2 DVD - Available Dec 11 (Nov 29 - Dec 10) $                                                                          150                                
PROFAMCHA071201194703194748000045xxMexx/Disney Parks Promo REV(2 x PH & 3 x Day/ NS                                                                          150                                
PRCFAMCHA071201194748194757000009NSW Bumper - Dodgeball (:07-:09) APR06                                                                                      150                                
PRCFAMCHA071201194757194807000010CC Disclaimer - FAST - Family.ca (:09-:10)                                                                                  150                                
PGRFAMCHA071201194807201037002230Life with Derek                                   EP: 22                                                        C26679A1055607BCC3                             
PRCFAMCHA071201201037201042000005xxAstral ID (FEB05)                                                                                                         150                                
PRCFAMCHA071201201042201055000013NSW - 23 - SUITE LIFE/HANNAH (:11 - :13) (SEPT07)                                                                           150                                
PROFAMCHA071201201055201135000040xxBratz The Movie DVD Contest REVISED - Available                                                                           150                                
PROFAMCHA071201201135201144000009Suite Life ID - You're watching Suite Life on Fami                                                                          150                                
PROFAMCHA071201201144201159000015Pre-Twismas Bumper - Cheese (Dec 1-25) $$$                                                                                  150                                
ID FAMCHA071201201159201207000008Magic of Disney - NS/NSW/PB - Wipe (:06-:09)                                                                                150                                
PRCFAMCHA071201201207201216000009CC Disclaimer - FAST - Generic (:09-:10)                                                                                    150                                
PGRFAMCHA071201201216203454002238Suite Life of Zack & Cody, The                    EP: 54                                                               6068607BCC                              
PRCFAMCHA071201203454203507000013NSW - 24 - HANNAH/NIGHTLY PIX (:11 - :13) (SEPT07)                                                                          150                                
PROFAMCHA071201203507203546000039xxWish Gone Amiss DVD Blast  (Nov 19-Dec 2) $$$                                                                             150                                
PRCFAMCHA071201203546203603000017NSW Bumper - Tennis (:15-:17) APR06                                                                                         150                                
ID FAMCHA071201203603203611000008Magic of Disney - NS/NSW/PB - Shape (:06-:09)                                                                               150                                
PRCFAMCHA071201203611203620000009CC Disclaimer - FAST - Family.ca (:09-:10)                                                                                  150                                
PGRFAMCHA071201203620205858002238Hannah Montana                                    EP: 02                                                               6068807BCC                              
PRCFAMCHA071201205858205903000005xxAstral ID (FEB05)                                                                                                         150                                
PRCFAMCHA071201205903205916000013NSW - 25 - N PIX/MOVIE ENT/N PIX(:11 - :13) (SEPT0                                                                          150                                
PROFAMCHA071201205916205952000036Suite Life of Z & C GOLF (NSW) - Tomorrow Night @                                                                           150                                
PRCFAMCHA071201205952210000000008NSW Bumper - Dodgeball (:07-:09) APR06                                                                                      150                                
ID FAMCHA071201210000210009000009Rating - G - Nightly Pix Only  (DEC05) (:08 - :10)                                                                          150                                
PRCFAMCHA071201210009210018000009CC Disclaimer - SLOW - Generic (:09 -:10)                                                                                   150                                
PGRFAMCHA071201210018221855011837Slappy And The Stinkers                                                                                               A2068807DCC                              
PROFAMCHA071201221855221940000045xxAshley Tisdale HSM 2 Holiday Memories Spot 3 X D                                                                          150                                
PROFAMCHA071201221940222012000032Suite Life of Z & C (NSW) Wonderful Hotel - New Ep                                                                          150                                
PRCFAMCHA071201222012222142000130xxMS - Enchanted  Visual Effects Now Playing (Nov                                                                           150                                
PROFAMCHA071201222142222225000043Cory In The House (NSW) (MAR07) - Tomorrow @ 9:10a                                                                          150                                
PROFAMCHA071201222225222235000010FAMJAM - Open/Close                                                                                                         150                                
PGRFAMCHA071201222235222405000130MV Disney - (MD/NS/NSW) - Jesse McCartney - Just S                                                                     60688120                                
PROFAMCHA071201222405222419000014xxFAMJAM - Close (FAMILY) xxDNUxx                                                                                           150                                
PROFAMCHA071201222419222432000013Family Bumpers - (Phase 2 F/W 04) - Leaves (PB/MD-                                                                          150                                
PROFAMCHA071201222432222442000010FAMJAM - Open/Close                                                                                                         150                                
PGRFAMCHA071201222442222802000320MV Disney - Superstition (Raven)                                                                                       60688120                                
PROFAMCHA071201222802222816000014xxFAMJAM - Close (FAMILY) xxDNUxx                                                                                           150                                
PROFAMCHA071201222816222846000030Wizards of Waverrly Place SIBLING (NSW) - Tomorrow                                                                          150                                
PROFAMCHA071201222846222935000049xxTwismas Stunt Promo (Nov 30 - Dec 26) $$$                                                                                 150                                
PROFAMCHA071201222935222947000012xxNightly Pix Movie Open (:10-:15)                                                                                          150                                
PRCFAMCHA071201222947224547001600Movie Entertainment (8)                                                                                               B     150                                
PROFAMCHA071201224547224600000013xxNightly Pix Movie Open (:10-:15)                                                                                          150                                
ID FAMCHA071201224600224609000009Rating - PG - Nightly Pix Only  (DEC05) (:08 - :10                                                                          150                                
PRCFAMCHA071201224609224618000009CC Disclaimer - SLOW - Family.ca (:09-:10)                                                                                  150                                
PGRFAMCHA071201224618003023014405Jumanji                                                                                                               B2068807DCC                              
PRCFAMCHA071201003023003028000005xxAstral ID (FEB05)                                                                                                         150                                
PROFAMCHA071201003028003045000017Nonstop Weekend Block Open (:16-:18) APR06                                                                                  150                                
PRCFAMCHA071201003045003054000009CC Disclaimer - SLOW - Generic (:09 -:10)                                                                                   150                                
PGRFAMCHA071201003054005324002230Naturally, Sadie                                  EP: 06                                                        C24010 1065607ACC                              
PRCFAMCHA071201005324005337000013NSW - 28 - HANNAH/LIZZIE (:11 - :13) (SEPT07)                                                                               150                                
PROFAMCHA071201005337005406000029Hannah Montana SCIENCE (NSW) - Coming Up Next (SEP                                                                          150                                
PRCFAMCHA071201005406005446000040Magazine Spot (MD,NS,NSW) 2/3 day (not in PH) (til                                                                          150                                
PROFAMCHA071201005446005518000032Suite Life of Z & C (NSW) Wonderful Hotel - New Ep                                                                          150                                
PROFAMCHA071201005518005633000115xxBullying PSA Family/Shaftsbury 2007 (Nov 19-Dec                                                                           150                                
PROFAMCHA071201005633005653000020Zoey 101 - He Loves Her 1 - (NSW) Tomorrow Morning                                                                          150                                
PROFAMCHA071201005653005703000010FAMJAM - Open/Close                                                                                                         150                                
PGRFAMCHA071201005703005820000117MV Disney - (MD/NS/NSW) - Jesse McCartney - Just S                                                                     60688120                                
PROFAMCHA071201005820005834000014xxFAMJAM - Close (FAMILY) xxDNUxx                                                                                           150                                
PROFAMCHA071201005834005856000022That's So Raven (BEAR) (NSW) Tomorrow Morning @ 9:                                                                          150                                
PROFAMCHA071201005856005941000045xxAshley Tisdale HSM 2 Holiday Memories Spot 3 X D                                                                          150                                
PRCFAMCHA071201005941005955000014NSW Bumper - Fashion (:12-:14) JUNE06                                                                                       150                                
ID FAMCHA071201005955010003000008Magic of Disney - NS/NSW/PB - Shape (:06-:09)                                                                               150                                
PRCFAMCHA071201010003010012000009CC Disclaimer - SLOW - Family.ca (:09-:10)                                                                                  150                                
PGRFAMCHA071201010012012250002238Hannah Montana                                    EP: 20                                                               6068807BCC                              
PRCFAMCHA071201012250012255000005xxAstral ID (FEB05)                                                                                                         150                                
PRCFAMCHA071201012255012308000013NSW - 29 - LIZZIE/ PHIL (:11 - :13) (SEPT07)                                                                                150                                
PRCFAMCHA071201012308012324000016NSW Bumper - Tennis (:15-:17) APR06                                                                                         150                                
ID FAMCHA071201012324012332000008Magic of Disney - NS/NSW/PB - Wipe (:06-:09)                                                                                150                                
PRCFAMCHA071201012332012341000009CC Disclaimer - SLOW - Generic (:09 -:10)                                                                                   150                                
PGRFAMCHA071201012341014611002230Lizzie McGuire                                    EP: 2-002                                                            6068607BCC                              
PRCFAMCHA071201014611014624000013NSW - 30 - PHIL/BOY MEETS WORLD (:11 - :13) (SEPT0                                                                          150                                
PRCFAMCHA071201014624014632000008NSW Bumper - Dodgeball (:07-:09) APR06                                                                                      150                                
ID FAMCHA071201014632014640000008Magic of Disney - NS/NSW/PB - Shape (:06-:09)                                                                               150                                
PGRFAMCHA071201014640020920002240Phil of the Future                                EPS # 10                                                             6068607B                                
PRCFAMCHA071201020920020925000005xxAstral ID (FEB05)                                                                                                         150                                
PRCFAMCHA071201020925020938000013NSW - 31 - BOY MEETS WORLD/DEREK (:11 - :13) (SEPT                                                                          150                                
PRCFAMCHA071201020938020950000012NSW Bumper - Fashion (:12-:14) JUNE06                                                                                       150                                
ID FAMCHA071201020950020958000008Magic of Disney - NS/NSW/PB - Wipe (:06-:09)                                                                                150                                
PRCFAMCHA071201020958021007000009CC Disclaimer - SLOW - Generic (:09 -:10)                                                                                   150                                
PGRFAMCHA071201021007023101002054Boy Meets World                                   EP: 1-095                                                           B6068807BCC                              
PRCFAMCHA071201023101023114000013NSW - 32 - DEREK/CORY IN THE HOUSE (:11 - :13) (SE                                                                          150                                
PROFAMCHA071201023114023129000015Pre-Twismas Bumper - Fish (Dec 1-25) $$$                                                                                    150                                
PRCFAMCHA071201023129023138000009CC Disclaimer - SLOW - Family.ca (:09-:10)                                                                                  150                                
PGRFAMCHA071201023138025408002230Life with Derek                                   EP: 24                                                        C26679A1065607BCC                              
PRCFAMCHA071201025408025413000005xxAstral ID (FEB05)                                                                                                         150                                
PRCFAMCHA071201025413025426000013NSW - 33 - CORY IN THE HOUSE/RAVEN (:11 - :13) (SE                                                                          150                                
PRCFAMCHA071201025426025434000008NSW Bumper - Dodgeball (:07-:09) APR06                                                                                      150                                
ID FAMCHA071201025434025442000008Magic of Disney - NS/NSW/PB - Wipe (:06-:09)                                                                                150                                
PRCFAMCHA071201025442025451000009CC Disclaimer - SLOW - Generic (:09 -:10)                                                                                   150                                
PGRFAMCHA071201025451031727002236Cory in the House                                 EP: 16                                                               6068607BCC                              
PRCFAMCHA071201031727031740000013NS - 21 - RAVEN/ SUITE LIFE (:11 - :13) (SEPT07)                                                                            150                                
PRCFAMCHA071201031740031753000013NSW Bumper - Fashion (:12-:14) JUNE06                                                                                       150                                
ID FAMCHA071201031753031801000008Magic of Disney - NS/NSW/PB - Shape (:06-:09)                                                                               150                                
PRCFAMCHA071201031801031810000009CC Disclaimer - SLOW - Family.ca (:09-:10)                                                                                  150                                
PGRFAMCHA071201031810034048002238That's So Raven                                   EPS # 1-057                                                          6068607BCC                              
PRCFAMCHA071201034048034053000005xxAstral ID (FEB05)                                                                                                         150                                
PRCFAMCHA071201034053034106000013NSW - 35 - SUITE LIFE/DEREK (:11 - :13) (SEPT07)                                                                            150                                
PRCFAMCHA071201034106034122000016NSW Bumper - Tennis (:15-:17) APR06                                                                                         150                                
ID FAMCHA071201034122034130000008Magic of Disney - NS/NSW/PB - Wipe (:06-:09)                                                                                150                                
PRCFAMCHA071201034130034139000009CC Disclaimer - SLOW - Generic (:09 -:10)                                                                                   150                                
PGRFAMCHA071201034139040419002240Suite Life of Zack & Cody, The                    EP: 01                                                               6068607BCC                              
PRCFAMCHA071201040419040432000013NSW - 36 - LIFE WITH DEREK (:11 - :13) (SEPT07)                                                                             150                                
PRCFAMCHA071201040432040441000009NSW Bumper - Dodgeball (:07-:09) APR06                                                                                      150                                
PRCFAMCHA071201040441040451000010CC Disclaimer - SLOW - Family.ca (:09-:10)                                                                                  150                                
PGRFAMCHA071201040451042721002230Life with Derek                                   EP: 08                                                        C23968A1065607BCC                              
PRCFAMCHA071201042721042726000005xxAstral ID (FEB05)                                                                                                         150                                
PRCFAMCHA071201042726042742000016PH - 20 - HENRY'S/BENJAMIN/FRANNY'S (:14 - :16) (S                                                                          150                                
PRCFAMCHA071201042742042812000030Benjamin Bear - (PH-Wknd) (OCT06) - This Morn @ 4:                                                                          150                                
PGRFAMCHA071201042812042912000100MV Disney - (MD/NS/NSW) - Jesse McCartney - Just S                                                                     60288120                                
PRCFAMCHA071201042912042943000031King (PH) (APR06) - This Morning @ 5:40am                                                                                   150                                
ID FAMCHA071201042943042958000015PS Playhouse AM Block Open (:10-:15)                                                                                        150                                
OFFFAMCHA071201042958043000000002OFF AIR                                                                                                                                                        
SO FAMCHA071202043000043011000011Sign On (oct 1)                                                                                                                                                
PRCFAMCHA071202043011043020000009CC Disclaimer - FAST - Generic (:09-:10)                                                                                    150                                
PGRFAMCHA071202043020045421002401Henry's World                                     EP: 2-019                                                     B81050A1065607GCC                              
PRCFAMCHA071202045421045426000005xxAstral ID (FEB05)                                                                                                         150                                
PRCFAMCHA071202045426045442000016PH - 21 - BENJAMIN/FRANNY'S/KING(:14 - :16) (SEPT0                                                                          150                                
ID FAMCHA071202045442045455000013PS Playhouse AM Block Open (:10-:15)                                                                                        150                                
PRCFAMCHA071202045455045504000009CC Disclaimer - FAST - Family.ca (:09-:10)                                                                                  150                                
PGRFAMCHA071202045504051737002233The Secret World Of Benjamin Bear                 EPS # 1-005                                                   B75150 1065607ECC                              
PRCFAMCHA071202051737051753000016PH - 22 - FRANNY'S/KING (:14 - :16) (SEPT07)                                                                                150                                
ID FAMCHA071202051753051806000013PS Playhouse AM Block Open (:10-:15)                                                                                        150                                
PRCFAMCHA071202051806051815000009CC Disclaimer - FAST - Generic (:09-:10)                                                                                    150                                
PGRFAMCHA071202051815054046002231Franny's Feet                                     EPS # 29                                                      C23971 1065607ECC                              
PRCFAMCHA071202054046054051000005xxAstral ID (FEB05)                                                                                                         150                                
PRCFAMCHA071202054051054107000016PH - 23 - KING (:14 - :16) (SEPT07)                                                                                         150                                
ID FAMCHA071202054107054120000013PS Playhouse AM Block Open (:10-:15)                                                                                        150                                
PRCFAMCHA071202054120054129000009CC Disclaimer - FAST - Family.ca (:09-:10)                                                                                  150                                
PGRFAMCHA071202054129060359002230King                                              EPS # 028                                                     C25350 1065607ECC                              
PROFAMCHA071202060359060418000019Jetix Block Open (:18-:21)                                                                                                  150                                
PRCFAMCHA071202060418060427000009CC Disclaimer - FAST - Generic (:09-:10)                                                                                    150                                
PGRFAMCHA071202060427062706002239Power Rangers:  Operation Overdrive               EP: 04                                                               2068607ECC                              
PRCFAMCHA071202062706062711000005xxAstral ID (FEB05)                                                                                                         150                                
PROFAMCHA071202062711062741000030xxHSM - The Ice Tour Promo #2 (Aug 20 - Dec 13) $$                                                                          150                                
PROFAMCHA071202062741062754000013Family Bumpers - (Phase 2 F/W 04) - Leaves (PB/MD-                                                                          150                                
PROFAMCHA071202062754062828000034xxFamily Holiday CD - Available Now (Nov 13 - Jan                                                                           150                                
PROFAMCHA071202062828062842000014Phil of the Future IDs - Ricky Tomato - watching f                                                                          150                                
PROFAMCHA071202062842062901000019Jetix Block Open (:18-:21)                                                                                                  150                                
PRCFAMCHA071202062901062911000010CC Disclaimer - FAST - Family.ca (:09-:10)                                                                                  150                                
PGRFAMCHA071202062911065148002237Power Rangers:  Operation Overdrive               EP: 14                                                               2068607ECC                              
PROFAMCHA071202065148065219000031xxHannah Montana DVD Game Contest (Nov 12-Dec 24)                                                                           150                                
PROFAMCHA071202065219065227000008Family Bumpers - (Phase 2 F/W 04) - Snow Ball (MD-                                                                          150                                
PROFAMCHA071202065227065252000025xxDisney Game of the Week 3 HSM (Nov 28 - Dec 6) $                                                                          150                                
PROFAMCHA071202065252065341000049xxTwismas Stunt Promo (Nov 30 - Dec 26) $$$                                                                                 150                                
PROFAMCHA071202065341065402000021Jetix Block Open (:18-:21)                                                                                                  150                                
PRCFAMCHA071202065402065412000010CC Disclaimer - FAST - Generic (:09-:10)                                                                                    150                                
PGRFAMCHA071202065412071651002239Yin Yang Yo!                                      EP: 17                                                               2068607ECC                              
PRCFAMCHA071202071651071656000005xxAstral ID (FEB05)                                                                                                         150                                
PROFAMCHA071202071656071741000045xxAshley Tisdale HSM 2 Holiday Memories Spot 3 X D                                                                          150                                
PROFAMCHA071202071741071812000031xxHSM 2 DVD - Available Dec 11 (Nov 29 - Dec 10) $                                                                          150                                
PROFAMCHA071202071812071824000012Family Bumpers - (Phase 1 Spring 04) - Pillow Figh                                                                          150                                
PROFAMCHA071202071824071854000030Popcorn Pix - Slapstick - Today @ Noon                                                                                      150                                
PROFAMCHA071202071854071928000034xxFamily Holiday CD - Available Now (Nov 13 - Jan                                                                           150                                
PRCFAMCHA071202071928071939000011Naturally Sadie ID's - I'm Charlotte, you're watch                                                                          150                                
PROFAMCHA071202071939072000000021Jetix Block Open (:18-:21)                                                                                                  150                                
PRCFAMCHA071202072000072009000009CC Disclaimer - FAST - Family.ca (:09-:10)                                                                                  150                                
PGRFAMCHA071202072009074225002216Pucca                                             EP: 14                                                               2068607ECC                              
PRCFAMCHA071202074225074238000013NSW - 01 - HANNAH/SUITE LIFE (:11 - :13) (SEPT07)                                                                           150                                
PROFAMCHA071202074238074327000049xxTwismas Stunt Promo (Nov 30 - Dec 26) $$$                                                                                 150                                
PROFAMCHA071202074327074401000034Hannah Montana (NSW) Wig Auditions - Coming Up Nex                                                                          150                                
PROFAMCHA071202074401074440000039xxWish Gone Amiss DVD Blast  (Nov 19-Dec 2) $$$                                                                             150                                
PROFAMCHA071202074440074512000032Suite Life of Z & C (NSW) Wonderful Hotel - New Ep                                                                          150                                
PROFAMCHA071202074512074627000115xxBullying PSA Family/Shaftsbury 2007 (Nov 19-Dec                                                                           150                                
PROFAMCHA071202074627074647000020Zoey 101 - He Loves Her 1 - (NSW) This Morning @ 8                                                                          150                                
PROFAMCHA071202074647074729000042xxHasbro Sleep Over Party Contest REVISED (Nov-12-                                                                          150                                
PROFAMCHA071202074729074744000015Phil of the Future IDs - Aly Flute Spit - I'm Aly                                                                           150                                
PROFAMCHA071202074744074800000016Nonstop Weekend Block Open (:16-:18) APR06                                                                                  150                                
ID FAMCHA071202074800074808000008Magic of Disney - NS/NSW/PB - Shape (:06-:09)                                                                               150                                
PRCFAMCHA071202074808074817000009CC Disclaimer - FAST - Generic (:09-:10)                                                                                    150                                
PGRFAMCHA071202074817081055002238Hannah Montana                                    EP: 22                                                               6068807BCC                              
PRCFAMCHA071202081055081100000005xxAstral ID (FEB05)                                                                                                         150                                
PRCFAMCHA071202081100081113000013NSW - 02 - SUITE LIFE/ZOEY 101 (:11 - :13) (SEPT07                                                                          150                                
PROFAMCHA071202081113081158000045xxMexx/Disney Parks Promo REV(2 x PH & 3 x Day/ NS                                                                          150                                
PROFAMCHA071202081158081217000019xxSuite Life of Z & C - NSW (JULY 06) MEDITATE - C                                                                          150                                
PROFAMCHA071202081217081249000032xxPirates 3 DVD Contest REVISION - Available Dec 4                                                                          150                                
PROFAMCHA071202081249081332000043Cory In The House (NSW) (MAR07) - This morning @ 9                                                                          150                                
PROFAMCHA071202081332081402000030That's So Raven (SCREAM) (NSW) This Mornings @ 9:4                                                                          150                                
PROFAMCHA071202081402081445000043xxLittlest Pet Shop Contest Spot (Nov 5-Dec 2) $$$                                                                          150                                
PROFAMCHA071202081445081452000007Aly & A.J. IDs - (ALY) You're Watching Family, NAD                                                                          150                                
PRCFAMCHA071202081452081500000008NSW Bumper - Dodgeball (:07-:09) APR06                                                                                      150                                
ID FAMCHA071202081500081508000008Magic of Disney - MAD DASH - Wipe (:06-:09)                                                                                 150                                
PRCFAMCHA071202081508081517000009CC Disclaimer - FAST - Family.ca (:09-:10)                                                                                  150                                
PGRFAMCHA071202081517083748002231Suite Life of Zack and Cody, The                  EP: 05                                                               6068607BCC                              
PRCFAMCHA071202083748083801000013NSW - 03 - ZOEY 101/CORY IN THE HOUSE (:11 - :13)                                                                           150                                
PROFAMCHA071202083801083831000030Zoey 101 - QUINN (NSW) (MAR07) - Coming Up Next                                                                             150                                
PROFAMCHA071202083831083901000030xxHSM - The Ice Tour Promo #2 (Aug 20 - Dec 13) $$                                                                          150                                
PROFAMCHA071202083901083923000022That's So Raven (BEAR) (NSW) This Morning @ 9:40 (                                                                          150                                
PRCFAMCHA071202083923084053000130xxMS - Enchanted  Set Tour - Now Playing (Nov21-De                                                                          150                                
PROFAMCHA071202084053084123000030Wizards of Waverrly Place SIBLING (NSW) - This Mor                                                                          150                                
PROFAMCHA071202084123084203000040xxBratz The Movie DVD Contest REVISED - Available                                                                           150                                
PROFAMCHA071202084203084248000045xxAshley Tisdale HSM 2 Holiday Memories Spot 3 X D                                                                          150                                
PRCFAMCHA071202084248084302000014NSW Bumper - Fashion (:12-:14) JUNE06                                                                                       150                                
PRCFAMCHA071202084302084312000010CC Disclaimer - FAST - Generic (:09-:10)                                                                                    150                                
PGRFAMCHA071202084312090544002232Zoey 101                                          EPS # 11                                                             2068807BCC                              
PRCFAMCHA071202090544090549000005xxAstral ID (FEB05)                                                                                                         150                                
PRCFAMCHA071202090549090602000013NSW - 04 - CORY IN THE HOUSE/RAVEN (:11 - :13) (SE                                                                          150                                
PROFAMCHA071202090602090645000043Cory In The House (NSW) (MAR07) - Coming Up Next                                                                            150                                
PROFAMCHA071202090645090723000038xxBarbie Girls - Best Friends Contest (Nov 12 - De                                                                          150                                
PROFAMCHA071202090723090745000022That's So Raven (BEAR) (NSW) This Morning @ 9:40 (                                                                          150                                
PROFAMCHA071202090745090845000100xxAstral Corporate Promo (NS, NSW) 3 X Day (Nov.22                                                                          150                                
PROFAMCHA071202090845090915000030Wizards of Waverrly Place SIBLING (NSW) - This Mor                                                                          150                                
PROFAMCHA071202090915090949000034xxNeds DSSG - Granny Kiss NSW (MAY06) This morn @                                                                           150                                
PROFAMCHA071202090949091025000036Suite Life of Z & C GOLF (NSW) - This Morning @ 11                                                                          150                                
PROFAMCHA071202091025091056000031xxHSM 2 DVD - Available Dec 11 (Nov 29 - Dec 10) $                                                                          150                                
PROFAMCHA071202091056091145000049xxTwismas Stunt Promo (Nov 30 - Dec 26) $$$                                                                                 150                                
PROFAMCHA071202091145091200000015Pre-Twismas Bumper - Fish (Dec 1-25) $$$                                                                                    150                                
ID FAMCHA071202091200091208000008Magic of Disney - NS/NSW/PB - Shape (:06-:09)                                                                               150                                
PRCFAMCHA071202091208091217000009CC Disclaimer - FAST - Family.ca (:09-:10)                                                                                  150                                
PGRFAMCHA071202091217093455002238Cory in the House                                 EP: 09                                                               6068607BCC                              
PRCFAMCHA071202093455093508000013NSW - 05 - RAVEN/PHIL (:11 - :13) (SEPT07)                                                                                  150                                
PROFAMCHA071202093508093553000045xxAshley Tisdale HSM 2 Holiday Memories Spot 3 X D                                                                          150                                
PROFAMCHA071202093553093622000029xxThat's So Raven (APR06) HELLO LADIES (NSW) - Com                                                                          150                                
PROFAMCHA071202093622093701000039xxWish Gone Amiss DVD Blast  (Nov 19-Dec 2) $$$                                                                             150                                
PROFAMCHA071202093701093731000030Wizards of Waverrly Place SIBLING (NSW) - This Mor                                                                          150                                
PROFAMCHA071202093731093741000010FAMJAM - Open/Close                                                                                                         150                                
PGRFAMCHA071202093741093911000130MV Disney - (MD/NS/NSW) - Jesse McCartney - Just S                                                                     60688120                                
PROFAMCHA071202093911093925000014xxFAMJAM - Close (FAMILY) xxDNUxx                                                                                           150                                
PROFAMCHA071202093925093959000034xxNeds DSSG - Granny Kiss NSW (MAY06) This morn @                                                                           150                                
PROFAMCHA071202093959094041000042xxHasbro Sleep Over Party Contest REVISED (Nov-12-                                                                          150                                
PRCFAMCHA071202094041094052000011Naturally Sadie ID's - I'm Charlotte, you're watch                                                                          150                                
PRCFAMCHA071202094052094100000008NSW Bumper - Dodgeball (:07-:09) APR06                                                                                      150                                
ID FAMCHA071202094100094108000008Magic of Disney - NS/NSW/PB - Wipe (:06-:09)                                                                                150                                
PRCFAMCHA071202094108094117000009CC Disclaimer - FAST - Generic (:09-:10)                                                                                    150                                
PGRFAMCHA071202094117100353002236That's So Raven                                   EP: 067                                                              6068607BCC                              
PRCFAMCHA071202100353100358000005xxAstral ID (FEB05)                                                                                                         150                                
PROFAMCHA071202100358100432000034xxMattel Toy Express - Version 1 BOY Contest Spot                                                                           150                                
