SO FAMCHA060901043000043011000011Sign On (oct 1)                                                                                                                                                
PRCFAMCHA060901043011043020000009CC Disclaimer - FAST - Generic (:08-:10) $$$                                                                                150                                
PGRFAMCHA060901043020045658002638Katie And Orbie                                   EP: 6-075                                                     B62278A1065607ECC                              
PRCFAMCHA060901045658045713000015PH - 04 - FRANNY/SOMETHING/HOZE  (:14 - :16) (APR0                                                                          150                                
ID FAMCHA060901045713045726000013PS Playhouse AM Block Open (:10-:15) $$$                                                                                    150                                
PRCFAMCHA060901045726045735000009CC Disclaimer - FAST - Family.ca (:08-:10) $$$                                                                              150                                
PGRFAMCHA060901045735052005002230Franny's Feet                                     EPS # 1-012                                                   C23970A1065607ECC                              
PRCFAMCHA060901052005052010000005Astral ID (FEB05) $$$                                                                                                       150                                
PRCFAMCHA060901052010052025000015PH - 05 - SOMETHING/HOZE/KING (:14 - :16) (APR06)                                                                           150                                
ID FAMCHA060901052025052038000013PS Playhouse AM Block Open (:10-:15) $$$                                                                                    150                                
PRCFAMCHA060901052038052047000009CC Disclaimer - FAST - Generic (:08-:10) $$$                                                                                150                                
PGRFAMCHA060901052047054320002233Something Else                                    EP: 1-007                                                     B69261A1065607ECC                              
PRCFAMCHA060901054320054335000015PH - 06 - HOZE/KING/SPIDERMAN (:14 - :16) (APR06)                                                                           150                                
PRCFAMCHA060901054335054344000009CC Disclaimer - FAST - Family.ca (:08-:10) $$$                                                                              150                                
PGRFAMCHA060901054344060624002240Hoze Houndz                                       EP: 3-039                                                     B45780A1065607ECC                              
PRCFAMCHA060901060624060629000005Astral ID (FEB05) $$$                                                                                                       150                                
PRCFAMCHA060901060629060644000015PH - 07 - KING/SPIDERMAN/KIM  (:14 - :16) (APR06)                                                                           150                                
ID FAMCHA060901060644060657000013PS Playhouse AM Block Open (:10-:15) $$$                                                                                    150                                
PRCFAMCHA060901060657060706000009CC Disclaimer - FAST - Generic (:08-:10) $$$                                                                                150                                
PGRFAMCHA060901060706062936002230King                                              EPS # 029                                                     C25350A1065607ECC                              
PRCFAMCHA060901062936062951000015PH - 08- SPIDERMAN/KIM ( (:14 - :16) (APR06) $$$                                                                            150                                
PROFAMCHA060901062951063015000024xxJetix Teaser - (V.O.) Starting Sept 10 (early MM                                                                          150                                
PROFAMCHA060901063015063034000019MadMadMornings Block Open $$$                                                                                               150                                
PGRFAMCHA060901063034065217002143Spiderman                                         EP: 02                                                        C02618 1065607E                                
PRCFAMCHA060901065217065222000005Astral ID (FEB05) $$$                                                                                                       150                                
PRCFAMCHA060901065222065238000016MMM - 01 (AM) - KIM/RECESS/WEEKENDERS (OCT05) (:14                                                                          150                                
PROFAMCHA060901065238065302000024xxJetix Teaser - (V.O.) Starting Sept 10 (early MM                                                                          150                                
PROFAMCHA060901065302065314000012xxKim Possible READY (MMM) (AUG 06) Coming Up Next                                                                          150                                
PRCFAMCHA060901065314065414000100xxPsychedelic Summer CONTEST (1xMMM 1xMD 2NS - 4NS                                                                          150                                
PROFAMCHA060901065414065439000025Recess - CAREER DAY (MMM) - (JULY06) - This mornin                                                                          150                                
PRCFAMCHA060901065439065458000019xxLife WD Derek Bloopers #5 (NS/NSW)                                                                                        150                                
PROFAMCHA060901065458065534000036Weekenders - PIZZA (MMM) - (APR06) - This Morning                                                                           150                                
PROFAMCHA060901065534065541000007Chef Boyardee BB - MMM $$$                                                                                            A     150                                
PROFAMCHA060901065541065600000019MadMadMornings Block Open $$$                                                                                               150                                
PRCFAMCHA060901065600065609000009CC Disclaimer - FAST - Generic (:08-:10) $$$                                                                                150                                
PGRFAMCHA060901065609071902002253Disney's Kim Possible                             EPS # 1-049                                                         A6068607ECC                              
PRCFAMCHA060901071902071916000014MMM - 02 (AM) - RECESS/WEEKENDERS/LILO (OCT05) (:1                                                                          150                                
PROFAMCHA060901071916071933000017xxCheetah Girls 2 Tease - Premiering tonight @ 7:3                                                                          150                                
PROFAMCHA060901071933071958000025Recess - CAREER DAY (MMM) - (JULY06) - Coming Up N                                                                          150                                
PRCFAMCHA060901071958072043000045xxGet Schooled CONTEST starting Sept 8 (4 day MMM,                                                                          150                                
PROFAMCHA060901072043072119000036Weekenders - PIZZA (MMM) - (APR06) - This Morning                                                                           150                                
PROFAMCHA060901072119072126000007MadMadMornings Bumper                                                                                                       150                                
PROFAMCHA060901072126072159000033Lilo & Stitch (MMM) DANCE (JUNE06) - This morn @ 8                                                                          150                                
PGRFAMCHA060901072159072320000121xxPlanet Rock Profiles - Michelle Branch - First GEP: 46                                                              A70687120                                
PROFAMCHA060901072320072342000022Fillmore! - POLLY (MD) (APR06) - This Afternoon @                                                                           150                                
PROFAMCHA060901072342072401000019MadMadMornings Block Open $$$                                                                                               150                                
PGRFAMCHA060901072401074636002235Disney's Recess                                   EP: 1-018                                                            6068607E                                
PRCFAMCHA060901074636074641000005Astral ID (FEB05) $$$                                                                                                       150                                
PRCFAMCHA060901074641074655000014PH - 09 - WEEKENDERS/LILO/EINSTEINS (:14 - :16) (A                                                                          150                                
PROFAMCHA060901074655074731000036Weekenders - PIZZA (MMM) - (APR06) - Coming Up Nex                                                                          150                                
PRCFAMCHA060901074731074801000030xxLife WD Derek Walk on CONTEST (Aug 18-Sept1 3 x                                                                           150                                
PROFAMCHA060901074801074834000033Lilo & Stitch (MMM) DANCE (JUNE06) - This morn @ 8                                                                          150                                
PROFAMCHA060901074834074904000030Brother Bear 2 DVD - Avail Now (Aug 29-Sept 3)                                                                        A     150                                
PRCFAMCHA060901074904074917000013xxLife WD Derek Bloopers #7 (NS/NSW)                                                                                        150                                
PROFAMCHA060901074917074958000041Brandy & Mr. Whiskers (Earsick] This afternoon @ 1                                                                          150                                
PROFAMCHA060901074958075006000008xxPsych Summmer Bumper - PS Canon                                                                                           150                                
PROFAMCHA060901075006075034000028Dave the Barbarian - WIGGIN (MD) -  This afternoon                                                                          150                                
PROFAMCHA060901075034075041000007Chef Boyardee BB - MMM $$$                                                                                            A     150                                
PROFAMCHA060901075041075100000019MadMadMornings Block Open $$$                                                                                               150                                
PRCFAMCHA060901075100075109000009CC Disclaimer - FAST - Family.ca (:08-:10) $$$                                                                              150                                
PGRFAMCHA060901075109081341002232Disney's The Weekenders                           EP: 1-019                                                           A6068607ECC                              
PRCFAMCHA060901081341081357000016PH - 10 - LILO/EINSTEINS/WINNIE (:14 - :16) (APR06                                                                          150                                
PROFAMCHA060901081357081414000017xxCheetah Girls 2 Tease - Premiering tonight @ 7:3                                                                          150                                
PROFAMCHA060901081414081447000033Lilo & Stitch (MMM) DANCE (JUNE06) - coming Up Nex                                                                          150                                
PROFAMCHA060901081447081524000037xxNick Lachey HOB Contest (Aug 17-Sept 8) 4/Day in                                                                          150                                
PGRFAMCHA060901081524081611000047Planet Rock Profiles - Green Day (Van) xxDNUxx    EP: 46                                                              A70687120                                
PROFAMCHA060901081611081623000012xxKim Possible READY - MD (AUG 06) This afternoon                                                                           150                                
PRCFAMCHA060901081623081706000043xxFamous Players Popcorn Parties (Jan06)(6/day - a                                                                          150                                
PROFAMCHA060901081706081740000034Proud Family (JULY06) MOM YELLS (MD) -  This After                                                                          150                                
PROFAMCHA060901081740081759000019MadMadMornings Block Open $$$                                                                                               150                                
PGRFAMCHA060901081759084038002239Disney's Lilo & Stitch: The Series                EP: 62                                                               6068607E                                
PRCFAMCHA060901084038084043000005Astral ID (FEB05) $$$                                                                                                       150                                
PRCFAMCHA060901084043084057000014xxPH - 09 -EINSTEINS/WINNIE/PB&J  (:14 - :16) (APR                                                                          150                                
PROFAMCHA060901084057084127000030Little Einstein (PH) (PRESCHOOL) - Coming Up Next                                                                           150                                
PROFAMCHA060901084127084152000025Princess Block - Be A Princess (Royal Treatment) P                                                                          150                                
PROFAMCHA060901084152084222000030Winnie the Pooh (PH/AM) (APR06) - This Morning @ 9                                                                          150                                
PGRFAMCHA060901084222084352000130They Might Be Giants (ABC's) - Clap Your Hands                                                                         60688120                                
PROFAMCHA060901084352084452000100Mickey Mouse Clubhouse (Video 1) This morn @ 10:30                                                                          150                                
ID FAMCHA060901084452084502000010PS Playhouse AM Block Open (:10-:15) $$$                                                                                    150                                
PGRFAMCHA060901084502090907002405Disney's Little Einsteins                         EP: 14                                                               6068607E                                
PRCFAMCHA060901090907090921000014xxPH - 10 -WINNIE/PB&J/JOJO  (:14 - :16) (APR06)                                                                            150                                
PROFAMCHA060901090921090951000030Winnie the Pooh (PH/AM) (APR06) - Coming Up Next                                                                            150                                
PROFAMCHA060901090951091020000029Playhouse - WINNIE THE POOH - Tigger Bounce                                                                                 150                                
PRCFAMCHA060901091020091051000031King (PH) (APR06) - This Morning @ 11:25am                                                                                  150                                
ID FAMCHA060901091051091101000010PS Playhouse AM Block Open (:10-:15) $$$                                                                                    150                                
PRCFAMCHA060901091101091110000009CC Disclaimer - FAST - Generic (:08-:10) $$$                                                                                150                                
PGRFAMCHA060901091110093427002317The New Adventures of Winnie the Pooh             EP: 1-020                                                            6068607ECC                              
PRCFAMCHA060901093427093432000005Astral ID (FEB05) $$$                                                                                                       150                                
PRCFAMCHA060901093432093448000016xxPH - 15 -PBJ/JoJo/MICKEY (FRI) (JUNE06) (:14 - :                                                                          150                                
PRCFAMCHA060901093448093519000031King (PH) (APR06) - This Morning @ 11:25am                                                                                  150                                
PROFAMCHA060901093519093625000106Playhouse - WINNIE THE POOH - Christopher Robin                                                                             150                                
PRCFAMCHA060901093625093645000020Benjamin Bear - Snack (PHwknd) (APR06) - Tomorrow                                                                           150                                
ID FAMCHA060901093645093700000015PS Playhouse AM Block Open (:10-:15) $$$                                                                                    150                                
PRCFAMCHA060901093700093709000009CC Disclaimer - FAST - Family.ca (:08-:10) $$$                                                                              150                                
PGRFAMCHA060901093709095930002221PB&J Otter                                        EP: 1-008                                                           A6068607ECC                              
PRCFAMCHA060901095930095944000014PH - 14 -JoJo/MICKEY/STANLEY (FRI) (JUNE06) (:14 -                                                                          150                                
PROFAMCHA060901095944100018000034xxJojo's Circus - GIGGLECORN - Coming Up Next                                                                               150                                
PRCFAMCHA060901100018100045000027Playhouse Web Promo - Family.ca                                                                                             150                                
PROFAMCHA060901100045100145000100Mickey Mouse Clubhouse (Video 2) This morn @ 10:30                                                                          150                                
PGRFAMCHA060901100145100320000135They Might Be Giants (ABC's) - Letter Shapes                                                                           60688120                                
PRCFAMCHA060901100320100351000031King (PH) (APR06) - This Morning @ 11:25am                                                                                  150                                
ID FAMCHA060901100351100401000010PS Playhouse AM Block Open (:10-:15) $$$                                                                                    150                                
PGRFAMCHA060901100401102806002405JoJo's Circus                                     EP: 46                                                               6068607E                                
PRCFAMCHA060901102806102811000005Astral ID (FEB05) $$$                                                                                                       150                                
PRCFAMCHA060901102811102825000014PH - 15 -MICKEY/STANLEY/KING (FRI) (JUNE06) (:14 -                                                                          150                                
PROFAMCHA060901102825102925000100Mickey Mouse Clubhouse (Video 1) Coming Up Next (J                                                                          150                                
PROFAMCHA060901102925103021000056Playhouse - STANLEY - Fish Song                                                                                             150                                
PRCFAMCHA060901103021103052000031King (PH) (APR06) - This Morning @ 11:25am                                                                                  150                                
ID FAMCHA060901103052103102000010PS Playhouse AM Block Open (:10-:15) $$$                                                                                    150                                
PGRFAMCHA060901103102105504002402Disney's Mickey Mouse Clubhouse                   EP: 10                                                               6028607E                                
PRCFAMCHA060901105504105518000014PH - 16 -STANLEY/KING/RECESS (:14- :16) (APR06) $$                                                                          150                                
PRCFAMCHA060901105518105548000030Stanley - Get Into It (MAR05) - (PH-M/W/F) - Comin                                                                          150                                
PRCFAMCHA060901105548105623000035Playhouse - KATIE & ORBIE - Did You Know?                                                                                   150                                
PRCFAMCHA060901105623105654000031King (PH) (APR06) - This Morning @ 11:25am                                                                                  150                                
ID FAMCHA060901105654105704000010PS Playhouse AM Block Open (:10-:15) $$$                                                                                    150                                
PRCFAMCHA060901105704105713000009CC Disclaimer - FAST - Family.ca (:08-:10) $$$                                                                              150                                
PGRFAMCHA060901105713112108002355Stanley                                           EP: 1-018                                                           A6068607ECC                              
PRCFAMCHA060901112108112113000005Astral ID (FEB05) $$$                                                                                                       150                                
PRCFAMCHA060901112113112128000015PH - 17 -KING/RECESS/KIM (:14 - :16) (APR06) $$$                                                                            150                                
PRCFAMCHA060901112128112159000031King (PH) (APR06) - Coming Up Next                                                                                          150                                
PRCFAMCHA060901112159112219000020Benjamin Bear - Snack (PHwknd) (APR06) - Tomorrow                                                                           150                                
PGRFAMCHA060901112219112404000145They Might Be Giants (ABC's) - D and W                                                                                 60688120                                
PRCFAMCHA060901112404112434000030Franny's Feet - Concept (APR06)(PH-Wknd) - Tomorro                                                                          150                                
PRCFAMCHA060901112434112448000014Playhouse - HOZE HOUNDZ - Skater                                                                                            150                                
ID FAMCHA060901112448112500000012PS Playhouse AM Block Open (:10-:15) $$$                                                                                    150                                
PRCFAMCHA060901112500112509000009CC Disclaimer - FAST - Generic (:08-:10) $$$                                                                                150                                
PGRFAMCHA060901112509114739002230King                                              EP: 012                                                       B75769A1065607ECC                              
PRCFAMCHA060901114739114752000013MD - 01 - RECESS/KIM (APR06) (:11 - :13) $$$                                                                                150                                
PROFAMCHA060901114752114817000025Recess - CAREER DAY (MD) - (JULY06) - Coming Up Ne                                                                          150                                
PROFAMCHA060901114817114834000017xxCheetah Girls 2 Tease - Premiering tonight @ 7:3                                                                          150                                
PROFAMCHA060901114834114841000007Chef Boyardee BB - MD $$$                                                                                             A     150                                
PROFAMCHA060901114841114859000018Mad Dash Block Open (:16-:18) APR06 $$$                                                                                     150                                
PGRFAMCHA060901114859121134002235Disney's Recess                                   EP: 1-048                                                            6068607E                                
PRCFAMCHA060901121134121139000005Astral ID (FEB05) $$$                                                                                                       150                                
PRCFAMCHA060901121139121152000013MD - 02 - KIM/WEEKENDERS (APR06) (:11 - :13) $$$                                                                            150                                
PROFAMCHA060901121152121241000049Zoey Chic Boutique Contest (July10-Oct1)                                                                                    150                                
PROFAMCHA060901121241121250000009xxFamily Bumpers - (Phase 1 Spring 04) - Baseball                                                                           150                                
PRCFAMCHA060901121250121259000009MD Bumper - $$$ Ski Race (:07-:09) APR06                                                                                    150                                
PRCFAMCHA060901121259121308000009CC Disclaimer - FAST - Family.ca (:08-:10) $$$                                                                              150                                
PGRFAMCHA060901121308123558002250Disney's Kim Possible                             EPS # 1-022                                                         A6068607ECC                              
PRCFAMCHA060901123558123610000012MD - 03 - WEEKENDERS/LLOYD (APR06) (:11 - :13) $$$                                                                          150                                
PRCFAMCHA060901123610123640000030xxLife WD Derek Walk on CONTEST (Aug 18-Sept1 3 x                                                                           150                                
PROFAMCHA060901123640123647000007Chef Boyardee BB - MD $$$                                                                                             A     150                                
PRCFAMCHA060901123647123702000015MD Bumper - $$$ Shopping Race (:15-:17) APR06                                                                               150                                
PRCFAMCHA060901123702123711000009CC Disclaimer - FAST - Generic (:08-:10) $$$                                                                                150                                
PGRFAMCHA060901123711130001002250Disney's The Weekenders                           EP: 1-004                                                           A6068607ECC                              
PRCFAMCHA060901130001130006000005Astral ID (FEB05) $$$                                                                                                       150                                
PRCFAMCHA060901130006130017000011MD - 04 - LLOYD/BRANDY (APR06) (:11 - :13) $$$                                                                              150                                
PRCFAMCHA060901130017130025000008MD Bumper $$$ - Race Cars (:08-:10) APR06                                                                                   150                                
ID FAMCHA060901130025130033000008Magic of Disney - MAD DASH - Shape (:06-:09) $$$                                                                            150                                
PGRFAMCHA060901130033132326002253Disney's Lloyd In Space                           EP: 31                                                               6068607E                                
PRCFAMCHA060901132326132338000012MD - 05 - BRANDY/LILO (APR06) (:11 - :13) $$$                                                                               150                                
PROFAMCHA060901132338132352000014Emperor's New School STRAW - NSW - Tomorrow aftern                                                                          150                                
PRCFAMCHA060901132352132400000008MD Bumper - $$$ Ski Race (:07-:09) APR06                                                                                    150                                
ID FAMCHA060901132400132408000008Magic of Disney - MAD DASH - Shape (:06-:09) $$$                                                                            150                                
PGRFAMCHA060901132408134649002241Disney's Brandy & Mr. Whiskers                    EP: 31                                                               6068607E                                
PRCFAMCHA060901134649134654000005Astral ID (FEB05) $$$                                                                                                       150                                
PRCFAMCHA060901134654134706000012MD - 06 - LILO/FILLMORE! (APR06) (:11 - :13) $$$                                                                            150                                
PROFAMCHA060901134706134743000037High School Musical CD Blast $$$ 2x DAY in MD/NS/N                                                                          150                                
PRCFAMCHA060901134743134800000017MD Bumper - $$$ Shopping Race (:15-:17) APR06                                                                               150                                
PGRFAMCHA060901134800141039002239Disney's Lilo & Stitch: The Series                EP: 55                                                               6068607E                                
PRCFAMCHA060901141039141050000011MD - 07 - FILLMORE!/PROUD (APR06) (:11 - :13) $$$                                                                           150                                
PROFAMCHA060901141050141112000022Fillmore! - POLLY (MD) (APR06) - coming up next                                                                             150                                
PROFAMCHA060901141112141121000009xxFamily Bumpers - (Phase 1 Spring 04) - DJ Spinni                                                                          150                                
PROFAMCHA060901141121141138000017xxCheetah Girls 2 Tease - Premiering tonight @ 7:3                                                                          150                                
PROFAMCHA060901141138141144000006Phil of the Future IDs - You're Watching Family...                                                                          150                                
PROFAMCHA060901141144141151000007Chef Boyardee BB - MD $$$                                                                                             A     150                                
PRCFAMCHA060901141151141200000009MD Bumper $$$ - Race Cars (:08-:10) APR06                                                                                   150                                
PGRFAMCHA060901141200143438002238Disney's Fillmore!                                EPS # 1-005                                                         A6068607E                                
PRCFAMCHA060901143438143443000005Astral ID (FEB05) $$$                                                                                                       150                                
PRCFAMCHA060901143443143455000012MD - 08 - PROUD/WEEKENDERS (APR06) (:11 - :13) $$$                                                                          150                                
PROFAMCHA060901143455143509000014Emperor's New School STRAW - NSW - Tomorrow aftern                                                                          150                                
PRCFAMCHA060901143509143552000043xxFamous Players Popcorn Parties (Jan06)(6/day - a                                                                          150                                
PRCFAMCHA060901143552143600000008MD Bumper - $$$ Ski Race (:07-:09) APR06                                                                                    150                                
PRCFAMCHA060901143600143609000009CC Disclaimer - FAST - Family.ca (:08-:10) $$$                                                                              150                                
PGRFAMCHA060901143609145842002233The Proud Family                                  EP: 1-009                                                           A6068607ECC                              
PRCFAMCHA060901145842145854000012MD - 03 - WEEKENDERS/LLOYD (APR06) (:11 - :13) $$$                                                                          150                                
PROFAMCHA060901145854145900000006Phil of the Future IDs - You're Watching Family...                                                                          150                                
PROFAMCHA060901145900145937000037xxNick Lachey HOB Contest (Aug 17-Sept 8) 4/Day in                                                                          150                                
PROFAMCHA060901145937145944000007Chef Boyardee BB - MD $$$                                                                                             A     150                                
PROFAMCHA060901145944150000000016Mad Dash Block Open (:16-:18) APR06 $$$                                                                                     150                                
PRCFAMCHA060901150000150009000009CC Disclaimer - FAST - Generic (:08-:10) $$$                                                                                150                                
PGRFAMCHA060901150009152303002254Disney's The Weekenders                           EP: 1-002                                                           A6068607ECC                              
PRCFAMCHA060901152303152308000005Astral ID (FEB05) $$$                                                                                                       150                                
PRCFAMCHA060901152308152319000011MD - 10 - LLOYD/DAVE (APR06) (:11 - :13) $$$                                                                                150                                
PROFAMCHA060901152319152337000018Lloyd In Space (LARRY) (JUNE06) MD- Coming Up Next                                                                          150                                
PROFAMCHA060901152337152426000049Zoey Chic Boutique Contest (July10-Oct1)                                                                                    150                                
PROFAMCHA060901152426152438000012xxFamily Bumpers - (Phase 1 Spring 04) - Picnic (M                                                                          150                                
PROFAMCHA060901152438152445000007Aly & A.J. IDs - Fam Club at family.ca for Phil in                                                                          150                                
PRCFAMCHA060901152445152500000015MD Bumper - $$$ Shopping Race (:15-:17) APR06                                                                               150                                
ID FAMCHA060901152500152508000008Magic of Disney - MAD DASH - Shape (:06-:09) $$$                                                                            150                                
PGRFAMCHA060901152508154801002253Disney's Lloyd In Space                           EP: 25                                                               6068607E                                
PRCFAMCHA060901154801154812000011MD - 11 - DAVE/PROUD (APR06) (:11 - :13) $$$                                                                                150                                
PROFAMCHA060901154812154829000017xxCheetah Girls 2 Tease - Premiering tonight @ 7:3                                                                          150                                
PROFAMCHA060901154829154847000018Dave the Barbarian - LEARNING (MD) -  Coming Up Ne                                                                          150                                
PRCFAMCHA060901154847154932000045xxGet Schooled CONTEST starting Sept 8 (4 day MMM,                                                                          150                                
PROFAMCHA060901154932155006000034Proud Family (APR06) GET BURNED (MD) - This Aftern                                                                          150                                
PROFAMCHA060901155006155036000030Brother Bear 2 DVD - Avail Now (Aug 29-Sept 3)                                                                        A     150                                
PRCFAMCHA060901155036155119000043xxFamous Players Popcorn Parties (Jan06)(6/day - a                                                                          150                                
PROFAMCHA060901155119155144000025Recess - CAREER DAY (MD) - (JULY06) - This afterno                                                                          150                                
PROFAMCHA060901155144155151000007Chef Boyardee BB - MD $$$                                                                                             A     150                                
PRCFAMCHA060901155151155200000009MD Bumper $$$ - Race Cars (:08-:10) APR06                                                                                   150                                
PRCFAMCHA060901155200155209000009CC Disclaimer - FAST - Family.ca (:08-:10) $$$                                                                              150                                
PGRFAMCHA060901155209161448002239Disney's Dave the Barbarian                       EPS # 04                                                             6068607ECC                              
PRCFAMCHA060901161448161453000005Astral ID (FEB05) $$$                                                                                                       150                                
PRCFAMCHA060901161453161504000011MD - 12 - PROUD/RECESS (APR06) (:11 - :13) $$$                                                                              150                                
PROFAMCHA060901161504161538000034Proud Family (JULY06) MOM YELLS (MD) -  Coming Up                                                                           150                                
PROFAMCHA060901161538161627000049Zoey Chic Boutique Contest (July10-Oct1)                                                                                    150                                
PROFAMCHA060901161627161652000025Recess - CAREER DAY (MD) - (JULY06) - This afterno                                                                          150                                
PRCFAMCHA060901161652161700000008MD Bumper - $$$ Ski Race (:07-:09) APR06                                                                                    150                                
PGRFAMCHA060901161700163933002233The Proud Family                                  EPS # 2-026                                                         A6068607E                                
PRCFAMCHA060901163933163944000011MD - 13 - RECESS/KIM (APR06) (:11 - :13) $$$                                                                                150                                
PROFAMCHA060901163944164001000017xxCheetah Girls 2 Tease - Premiering tonight @ 7:3                                                                          150                                
PROFAMCHA060901164001164026000025Recess - CAREER DAY (MD) - (JULY06) - Coming Up Ne                                                                          150                                
PROFAMCHA060901164026164111000045Raven Fun with Fashion Contest (Sept 1-14) (4 day/                                                                          150                                
PROFAMCHA060901164111164123000012xxKim Possible READY - MD (AUG 06) This afternoon                                                                           150                                
PROFAMCHA060901164123164156000033xxBratz - Bratz Babyz $$$ (Aug21 - Oct 29)                                                                            A     150                                
PROFAMCHA060901164156164210000014Emperor's New School STRAW - NSW - Tomorrow aftern                                                                          150                                
PRCFAMCHA060901164210164219000009xxFamily Bumpers - (Phase 1 Spring 04) - Soccer (M                                                                          150                                
PROFAMCHA060901164219164237000018Lloyd In Space (LARRY) (JUNE06) MD- Weekday aftern                                                                          150                                
PROFAMCHA060901164237164244000007Chef Boyardee BB - MD $$$                                                                                             A     150                                
PRCFAMCHA060901164244164300000016MD Bumper - $$$ Shopping Race (:15-:17) APR06                                                                               150                                
PGRFAMCHA060901164300170536002236Disney's Recess                                   EP: 1-014                                                            6068607E                                
PRCFAMCHA060901170536170541000005Astral ID (FEB05) $$$                                                                                                       150                                
PRCFAMCHA060901170541170552000011MD - 22 (FRI) - KIM/HANNAH (July06) (:11-:13) $$$                                                                           150                                
PROFAMCHA060901170552170604000012xxKim Possible READY - MD (AUG 06) Coming Up Next                                                                           150                                
PROFAMCHA060901170604170637000033xxBratz - Bratz Babyz $$$ (Aug21 - Oct 29)                                                                            A     150                                
PROFAMCHA060901170637170656000019Suite Life of Z & C - NSW (JULY 06) MEDITATE - Tom                                                                          150                                
PRCFAMCHA060901170656170739000043xxFamous Players Popcorn Parties (Jan06)(6/day - a                                                                          150                                
PROFAMCHA060901170739170753000014Emperor's New School STRAW - NSW - Tomorrow aftern                                                                          150                                
PRCFAMCHA060901170753170801000008MD Bumper $$$ - Race Cars (:08-:10) APR06                                                                                   150                                
PRCFAMCHA060901170801170810000009CC Disclaimer - FAST - Generic (:08-:10) $$$                                                                                150                                
PGRFAMCHA060901170810173103002253Disney's Kim Possible                             EP: 1-059                                                            6068607ECC                              
PRCFAMCHA060901173103173114000011NS - 14 - HANNAH/ZOEY (July06) (:11 - :13) $$$                                                                              150                                
PROFAMCHA060901173114173151000037xxHannah Montana - (psy sum)Achy Breaky NS (JULY 0                                                                          150                                
PROFAMCHA060901173151173236000045Raven Fun with Fashion Contest (Sept 1-14) (4 day/                                                                          150                                
PROFAMCHA060901173236173257000021xxNed's DSSG - RECORDER (AUG06) NSW Tomorrow Morn                                                                           150                                
PROFAMCHA060901173257173327000030Brother Bear 2 DVD - Avail Now (Aug 29-Sept 3)                                                                        A     150                                
PROFAMCHA060901173327173344000017xxCheetah Girls 2 Tease - Premiering tonight @ 7:3                                                                          150                                
PROFAMCHA060901173344173400000016Nonstop Block Open (:16-:18) APR06 $$$                                                                                      150                                
PGRFAMCHA060901173400175636002236Hannah Montana                                    EP: 05                                                               6028807E                                
PRCFAMCHA060901175636175641000005Astral ID (FEB05) $$$                                                                                                       150                                
PRCFAMCHA060901175641175653000012NS - 15 - ZOEY/DEREK (APR06) (:11 - :13) $$$                                                                                150                                
PROFAMCHA060901175653175737000044Zoey 101 - PHONE DIARY (NS) (JUNE06) - Coming Up N                                                                          150                                
PROFAMCHA060901175737175816000039xxLaurentien's Q & A with Zoey 101 Contest $$$                                                                              150                                
PRCFAMCHA060901175816175847000031xxLife WD - Generic BATHROOM (JULY06) Tonight @ 6:                                                                          150                                
PROFAMCHA060901175847175856000009xxFamily Bumpers - (Phase 2 F/W 04) - Skateboard (                                                                          150                                
PRCFAMCHA060901175856175925000029Life With Derek Web Promo                                                                                                   150                                
PROFAMCHA060901175925175947000022xxNed's DSSG - CRAZY DOG (AUG06) NS Tonight @ 7                                                                             150                                
PRCFAMCHA060901175947180000000013NS Bumper $$$ - Fashion (:12-:14) APR06                                                                                     150                                
PRCFAMCHA060901180000180009000009CC Disclaimer - FAST - Family.ca (:08-:10) $$$                                                                              150                                
PGRFAMCHA060901180009182326002317Zoey 101                                          EPS # 01                                                             2068707BCC                              
PRCFAMCHA060901182326182339000013NS - 16 - DEREK/NEDS (APR06) (:11 - :13) $$$                                                                                150                                
PRCFAMCHA060901182339182410000031xxLife WD - Generic BATHROOM (JULY06) Coming Up Ne                                                                          150                                
PROFAMCHA060901182410182459000049Zoey Chic Boutique Contest (July10-Oct1)                                                                                    150                                
PROFAMCHA060901182459182520000021xxNeds DSSG - RECORDER - NS (AUG06) Tonight @ 7                                                                             150                                
PROFAMCHA060901182520182530000010xxPsych Summmer Bumper - PS Watermelons                                                                                     150                                
PROFAMCHA060901182530182614000044Zoey 101 - PHONE DIARY (NSW) (JUNE06) - Tomorrow @                                                                          150                                
PRCFAMCHA060901182614182657000043xxFamous Players Popcorn Parties (Jan06)(6/day - a                                                                          150                                
PROFAMCHA060901182657182726000029That's So Raven (AUG06) BEAUTY MARK (NSW) - Tomorr                                                                          150                                
PGRFAMCHA060901182726182839000113xxPlanet Rock Profiles - Beyonce (Lifelong Music) EP: 46                                                              A70687120                                
PRCFAMCHA060901182839182924000045xxGet Schooled CONTEST starting Sept 8 (4 day MMM,                                                                          150                                
PROFAMCHA060901182924182941000017xxCheetah Girls 2 Tease - Premiering tonight @ 7:3                                                                          150                                
PRCFAMCHA060901182941182958000017NS Bumper $$$- Tennis (:15-:17) APR06                                                                                       150                                
PRCFAMCHA060901182958183007000009CC Disclaimer - FAST - Generic (:08-:10) $$$                                                                                150                                
PGRFAMCHA060901183007185237002230Life With Derek                                   EP: 10                                                        C23968A1055607BCC3                             
PRCFAMCHA060901185237185242000005Astral ID (FEB05) $$$                                                                                                       150                                
PRCFAMCHA060901185242185254000012xxNS - 17 - NEDS/PPIX (APR06) (:11 - :13) $$$                                                                               150                                
PROFAMCHA060901185254185311000017xxCheetah Girls 2 Tease - Premiering tonight @ 7:3                                                                          150                                
PROFAMCHA060901185311185356000045Raven Fun with Fashion Contest (Sept 1-14) (4 day/                                                                          150                                
PROFAMCHA060901185356185417000021xxNeds DSSG - RECORDER - NS (AUG06) Tonight @ 7                                                                             150                                
PROFAMCHA060901185417185454000037High School Musical CD Blast $$$ 2x DAY in MD/NS/N                                                                          150                                
PROFAMCHA060901185454185524000030Phil of the Future THINGS TO COME (NSW) (APR06) -                                                                           150                                
PRCFAMCHA060901185524185553000029Life With Derek Web Promo                                                                                                   150                                
PROFAMCHA060901185553185627000034Even Stevens - Bad Boys (APR06) - (NSW) - Tomorrow                                                                          150                                
PRCFAMCHA060901185627185710000043xxFamous Players Popcorn Parties (Jan06)(6/day - a                                                                          150                                
PROFAMCHA060901185710185740000030Double Teamed (SEPT12) - Next Friday @ 7:30pm                                                                               150                                
PROFAMCHA060901185740185749000009xxFamily Bumpers - (Phase 3 Spring 05) - Giant Foo                                                                          150                                
PROFAMCHA060901185749185812000023xxBrotherly Love (MAY06) CLEAN TABLE (NSW) -Tomorr                                                                          150                                
PRCFAMCHA060901185812185836000024xxLife WD Derek Bloopers #12 (NS/NSW)                                                                                       150                                
PROFAMCHA060901185836185913000037xxNick Lachey HOB Contest (Aug 17-Sept 8) 4/Day in                                                                          150                                
PROFAMCHA060901185913185951000038xxNed's DSSG - (NS) Survivor - GET SCHOOLED - Star                                                                          150                                
PRCFAMCHA060901185951190000000009NS Bumper $$$ - Dodgeball (:07-:09) APR06                                                                                   150                                
PGRFAMCHA060901190000192416002416Ned's Declassified School Survival Guide          EP: 31                                                               2068807B                                
PRCFAMCHA060901192416192428000012xxPsychedelic Summer Coming Up LineUps - Amanda#1(                                                                          150                                
PRCFAMCHA060901192428192512000044xxPsychedelic Summer Stunt #2 (MMM, MD, NS, NSW) C                                                                          150                                
PROFAMCHA060901192512192557000045Raven Fun with Fashion Contest (Sept 1-14) (4 day/                                                                          150                                
PROFAMCHA060901192557192641000044Zoey 101 - PHONE DIARY (NSW) (JUNE06) - Tomorrow @                                                                          150                                
PRCFAMCHA060901192641192711000030xxLife WD Derek Walk on CONTEST (Aug 18-Sept1 3 x                                                                           150                                
PROFAMCHA060901192711192740000029That's So Raven (AUG06) BEAUTY MARK (NSW) - Tomorr                                                                          150                                
PRCFAMCHA060901192740192748000008Darcy's IDs - Sara - family.ca                                                                                              150                                
PROFAMCHA060901192748192825000037xxHannah Montana - GS Achy Breaky NS (AUG06) New E                                                                          150                                
PROFAMCHA060901192825192855000030Brother Bear 2 DVD - Avail Now (Aug 29-Sept 3)                                                                        A     150                                
PRCFAMCHA060901192855192941000046xxPsychedelic Summer Hosted Intro  - Cheetah Girls                                                                          150                                
ID FAMCHA060901192941193000000019Popcorn Pix Block Open $$$ (JUNE 06) (:18-:20)                                                                              150                                
ID FAMCHA060901193000193009000009Rating - G - (DEC05) (:08 - :10) $$$                                                                                        150                                
ID FAMCHA060901193009193017000008Magic of Disney - PIX - Wipe (:06-:09) $$$                                                                                  150                                
PGRFAMCHA060901193017210702013645The Cheetah Girls II                                                                                                  A6028807C                                
PRCFAMCHA060901210702210707000005Astral ID (FEB05) $$$                                                                                                       150                                
PROFAMCHA060901210707210722000015Nightly Pix Line-up (SEPT) - GENERIC (:14-:16) $$$                                                                          150                                
PROFAMCHA060901210722210735000013xxNightly Pix Movie Open (:10-:15)                                                                                          150                                
ID FAMCHA060901210735210744000009Rating - G - (DEC05) (:08 - :10) $$$                                                                                        150                                
ID FAMCHA060901210744210752000008Magic of Disney - PIX - Shape (:06-:09) $$$                                                                                 150                                
PGRFAMCHA060901210752223726012934Cow Belles                                                                                                            A6068807D                                
PROFAMCHA060901223726223741000015Nightly Pix Line-up (SEPT) - GENERIC (:14-:16) $$$                                                                          150                                
PRCFAMCHA060901223741223811000030xxLife WD - GET SCHOOLED - More Fun - New Eps Star                                                                          150                                
PRCFAMCHA060901223811223856000045xxGet Schooled CONTEST starting Sept 8 (4 day MMM,                                                                          150                                
PROFAMCHA060901223856223926000030Phil of the Future THINGS TO COME (NSW) (APR06) -                                                                           150                                
PROFAMCHA060901223926223935000009xxFamily Bumpers - (Phase 3 Spring 05) - Hip Hop (                                                                          150                                
PROFAMCHA060901223935223949000014Emperor's New School STRAW - NSW - Tomorrow aftern                                                                          150                                
PROFAMCHA060901223949224000000011xxNightly Pix Movie Open (:10-:15)                                                                                          150                                
ID FAMCHA060901224000224009000009Rating - PG - (DEC05) (:08 - :10) $$$                                                                                       150                                
PGRFAMCHA060901224009000839012830The 6th Man                                                                                                           B6068807D                                
PRCFAMCHA060901000839000844000005Astral ID (FEB05) $$$                                                                                                       150                                
PRCFAMCHA060901000844000856000012xxNS - 12 - MENTORS/SPIDER (APR06) (:11 - :13) $$$                                                                          150                                
PRCFAMCHA060901000856000905000009CC Disclaimer - SLOW - Family.ca (:08-:10) $$$                                                                              150                                
PGRFAMCHA060901000905003216002311Mentors                                           EP: 4-051                                                     C20779A1065607ACC                              
PRCFAMCHA060901003216003228000012NS - 13 - SPIDER (APR06) (:11 - :13) $$$                                                                                    150                                
PROFAMCHA060901003228003252000024xxJetix Teaser - (V.O.) Starting Sept 10 (early MM                                                                          150                                
PRCFAMCHA060901003252003305000013NS Bumper $$$ - Fashion (:12-:14) APR06                                                                                     150                                
PGRFAMCHA060901003305005446002141Spiderman                                         EP: 15                                                        C02618 1065607E                                
PRCFAMCHA060901005446005502000016NS Bumper $$$- Tennis (:15-:17) APR06                                                                                       150                                
PROFAMCHA060901005502005526000024xxJetix Teaser - (V.O.) Starting Sept 10 (early MM                                                                          150                                
PROFAMCHA060901005526005603000037xxNick Lachey HOB Contest (Aug 17-Sept 8) 4/Day in                                                                          150                                
PROFAMCHA060901005603005610000007Aly & A.J. IDs - Fam Club at family.ca for Phil in                                                                          150                                
PROFAMCHA060901005610005654000044Zoey 101 - PHONE DIARY (NSW) (JUNE06) - Tomorrow @                                                                          150                                
PROFAMCHA060901005654005702000008xxPsych Summmer Bumper - PS Hair                                                                                            150                                
PROFAMCHA060901005702005731000029That's So Raven (AUG06) BEAUTY MARK (NSW) - Tomorr                                                                          150                                
PROFAMCHA060901005731005741000010FAMJAM - Open/Close                                                                                                         150                                
PGRFAMCHA060901005741005926000145MV Disney - Superstition (Raven)                                                                                       60688120                                
PROFAMCHA060901005926005940000014xxFAMJAM - Close (FAMILY) xxDNUxx                                                                                           150                                
PROFAMCHA060901005940010010000030Phil of the Future THINGS TO COME (NSW) (APR06) -                                                                           150                                
PRCFAMCHA060901010010010110000100xxPsychedelic Summer CONTEST (1xMMM 1xMD 2NS - 4NS                                                                          150                                
PROFAMCHA060901010110010148000038xxNed's DSSG - (NS) Survivor - GET SCHOOLED - Star                                                                          150                                
PRCFAMCHA060901010148010203000015Astral - LOVE $$$                                                                                                           150                                
SO FAMCHA060901010203010215000012Sign Off                                                                                                                                                       
OFFFAMCHA060901010215043000032745OFF AIR                                                                                                                                                        
SO FAMCHA060902043000043011000011Sign On (oct 1)                                                                                                                                                
PRCFAMCHA060902043011043020000009CC Disclaimer - FAST - Family.ca (:08-:10) $$$                                                                              150                                
PGRFAMCHA060902043020045427002407Henry's World                                     EP: 2-017                                                     B81048A1065607GCC                              
PRCFAMCHA060902045427045442000015PH - 01 - BEN/FRANNY/KING (SAT/SUN) (JUNE06) (:14                                                                           150                                
ID FAMCHA060902045442045455000013PS Playhouse AM Block Open (:10-:15) $$$                                                                                    150                                
PRCFAMCHA060902045455045504000009CC Disclaimer - FAST - Generic (:08-:10) $$$                                                                                150                                
PGRFAMCHA060902045504051734002230The Secret World Of Benjamin Bear                 EPS # 1-001                                                   B75146A1065607ECC                              
PRCFAMCHA060902051734051739000005Astral ID (FEB05) $$$                                                                                                       150                                
PRCFAMCHA060902051739051754000015PH - 02 - FRANNY/KING (SAT/SUN) (JUNE06) (:14 - :1                                                                          150                                
ID FAMCHA060902051754051807000013PS Playhouse AM Block Open (:10-:15) $$$                                                                                    150                                
PRCFAMCHA060902051807051816000009CC Disclaimer - FAST - Family.ca (:08-:10) $$$                                                                              150                                
PGRFAMCHA060902051816054046002230Franny's Feet                                     EPS # 1-013                                                   C23970A1065607ECC                              
PRCFAMCHA060902054046054101000015PH - 03 - KING (SAT/SUN) (JUNE06) (:14 - :16) $$$                                                                           150                                
ID FAMCHA060902054101054114000013PS Playhouse AM Block Open (:10-:15) $$$                                                                                    150                                
PRCFAMCHA060902054114054123000009CC Disclaimer - FAST - Generic (:08-:10) $$$                                                                                150                                
PGRFAMCHA060902054123060353002230King                                              EPS # 027                                                     C25350A1065607ECC                              
PRCFAMCHA060902060353060358000005Astral ID (FEB05) $$$                                                                                                       150                                
PRCFAMCHA060902060358060410000012xxPB - 06 -  SPIDER/PR MYSTIC FORCE (JUNE06) (:11-                                                                          150                                
PROFAMCHA060902060410060424000014xxPower Box Block Open (:10-:15)                                                                                            150                                
PGRFAMCHA060902060424062607002143Spiderman                                         EP: 01                                                        C02618 1065607E                                
PRCFAMCHA060902062607062619000012xxPB - 05 -  PR MYSTIC FORCE/SUPER ROBOT MONKEY (J                                                                          150                                
PROFAMCHA060902062619062643000024xxJetix Teaser - (V.O.) Starting Sept 10 (early MM                                                                          150                                
PROFAMCHA060902062643062704000021xxPower Rangers - Mystic Force - ICED Coming Up Ne                                                                          150                                
PRCFAMCHA060902062704062747000043xxFamous Players Popcorn Parties (Jan06)(6/day - a                                                                          150                                
PROFAMCHA060902062747062817000030xxSuper Robot MTHG - Today @ 6:55am                                                                                         150                                
PROFAMCHA060902062817062847000030xxWITCH (PB) (APR06) - Today @ 7:20am                                                                                       150                                
PROFAMCHA060902062847062900000013xxPower Box Block Open (:10-:15)                                                                                            150                                
PGRFAMCHA060902062900065139002239Power Rangers:  Mystic Force                      EP: 13                                                               2068607E                                
PRCFAMCHA060902065139065144000005Astral ID (FEB05) $$$                                                                                                       150                                
PRCFAMCHA060902065144065158000014xxPB - 03 - ROBOT/W.I.T.C.H./LIZZIE (NOV05) (:14 -                                                                          150                                
PROFAMCHA060902065158065222000024xxJetix Teaser - (V.O.) Starting Sept 10 (early MM                                                                          150                                
PROFAMCHA060902065222065252000030xxSuper Robot MTHG - Coming Up Next                                                                                         150                                
PGRFAMCHA060902065252065327000035xxPlanet Rock Profiles - Nelly Furtado (Famous PeoEP: 46                                                              A70687120                                
PROFAMCHA060902065327065348000021xxPower Rangers - Mystic Force - NICE Tomorrow mor                                                                          150                                
PROFAMCHA060902065348065400000012xxPower Box Block Open (:10-:15)                                                                                            150                                
PGRFAMCHA060902065400071529002129Super Robot Monkey Team Hyperforce Go!            EP: 01                                                               2068607E                                
PRCFAMCHA060902071529071543000014xxPB - 04 - W.I.T.C.H./LIZZIE/SUITE (NOV05) (:14 -                                                                          150                                
PROFAMCHA060902071543071613000030xxWITCH (PB) (APR06) - Coming Up Next                                                                                       150                                
PGRFAMCHA060902071613071743000130xxMovie Surfers - Invincible - Interstitial #1 Now                                                                    A60688120                                
PROFAMCHA060902071743071804000021xxPower Rangers - Mystic Force - ICED Tomorrow mor                                                                          150                                
PROFAMCHA060902071804071814000010FAMJAM - Open/Close                                                                                                         150                                
PGRFAMCHA060902071814071914000100MV Disney - Huckaroo (Pixel Perfect)                                                                                   60688120                                
PROFAMCHA060902071914071928000014xxFAMJAM - Close (FAMILY) xxDNUxx                                                                                           150                                
PROFAMCHA060902071928071952000024xxJetix Teaser - (V.O.) Starting Sept 10 (early MM                                                                          150                                
PROFAMCHA060902071952072004000012xxPower Box Block Open (:10-:15)                                                                                            150                                
PGRFAMCHA060902072004074146002142W.I.T.C.H.                                        EP: 23                                                               2068607E                                
PRCFAMCHA060902074146074151000005Astral ID (FEB05) $$$                                                                                                       150                                
PRCFAMCHA060902074151074204000013NSW - 02 - LIZZIE/SUITE (APR06) (:11 - 13) $$$                                                                              150                                
PROFAMCHA060902074204074232000028xxLizzie McGuire - (Sick) (APR06) (NSW/AMorPM) -                                                                            150                                
PRCFAMCHA060902074232074315000043xxFamous Players Popcorn Parties (Jan06)(6/day - a                                                                          150                                
PROFAMCHA060902074315074345000030Suite Life of Z & C - NSW Disclaimer This Morning                                                                           150                                
PROFAMCHA060902074345074355000010FAMJAM - Open/Close                                                                                                         150                                
PGRFAMCHA060902074355074659000304MV Disney - (MD/NS/NSW) - Why Not (HILARY DUFF)                                                                        60688120                                
PROFAMCHA060902074659074713000014xxFAMJAM - Close (FAMILY) xxDNUxx                                                                                           150                                
PROFAMCHA060902074713074742000029High School Musical Dance Along Fri @ 7:30 (AUG06)                                                                          150                                
PROFAMCHA060902074742074800000018Nonstop Weekend Block Open (:16-:18) APR06 $$$                                                                              150                                
ID FAMCHA060902074800074808000008Magic of Disney - NS/NSW/PB - Shape (:06-:09) $$$                                                                           150                                
PGRFAMCHA060902074808081042002234Lizzie McGuire                                    EP: 2-034                                                           A6068607B                                
PRCFAMCHA060902081042081054000012NSW - 03 - SUITE/ZOEY (APR06) (:11 - 13) $$$                                                                                150                                
PROFAMCHA060902081054081113000019Suite Life of Z & C - NSW (JULY 06) MEDITATE - Com                                                                          150                                
PROFAMCHA060902081113081158000045Raven Fun with Fashion Contest (Sept 1-14) (4 day/                                                                          150                                
PROFAMCHA060902081158081225000027Zoey 101 - LOGAN - NSW (MAY06) (may13-aug30) This                                                                           150                                
PROFAMCHA060902081225081258000033xxBratz - Bratz Babyz $$$ (Aug21 - Oct 29)                                                                            A     150                                
PROFAMCHA060902081258081327000029That's So Raven (AUG06) BEAUTY MARK (NSW) - This m                                                                          150                                
PROFAMCHA060902081327081357000030Brother Bear 2 DVD - Avail Now (Aug 29-Sept 3)                                                                        A     150                                
PRCFAMCHA060902081357081437000040Naturally Sadie (APR06) - Tonight @ 6:05pm                                                                                  150                                
PROFAMCHA060902081437081444000007Aly & A.J. IDs - Fam Club at family.ca for Phil in                                                                          150                                
PRCFAMCHA060902081444081500000016NSW Bumper $$$ - Tennis (:15-:17) APR06                                                                                     150                                
PGRFAMCHA060902081500083739002239Suite Life of Zack & Cody                         EP: 02                                                               6068607B                                
PRCFAMCHA060902083739083744000005Astral ID (FEB05) $$$                                                                                                       150                                
PRCFAMCHA060902083744083755000011NSW - 04 - ZOEY/RAVEN (APR06) (:11 - 13) $$$                                                                                150                                
PROFAMCHA060902083755083839000044Zoey 101 - PHONE DIARY (NSW) (JUNE06) - Coming Up                                                                           150                                
PRCFAMCHA060902083839083924000045xxGet Schooled CONTEST starting Sept 8 (4 day MMM,                                                                          150                                
PROFAMCHA060902083924083954000030xxThat's So Raven (APR06) LUNCH (NSW) - This Morni                                                                          150                                
PROFAMCHA060902083954084004000010FAMJAM - Open/Close                                                                                                         150                                
PGRFAMCHA060902084004084134000130MV Disney - (MD/NS/NSW) - Get'cha Head In The Game                                                                     60688120                                
PROFAMCHA060902084134084148000014xxFAMJAM - Close (FAMILY) xxDNUxx                                                                                           150                                
PROFAMCHA060902084148084157000009xxFamily Bumpers - (Phase 3 Spring 05) - Giant Foo                                                                          150                                
PROFAMCHA060902084157084227000030Brother Bear 2 DVD - Avail Now (Aug 29-Sept 3)                                                                        A     150                                
PROFAMCHA060902084227084256000029High School Musical Dance Along Fri @ 7:30 (AUG06)                                                                          150                                
PRCFAMCHA060902084256084308000012NSW Bumper $$$ - Fashion (:12-:14) APR06                                                                                    150                                
PRCFAMCHA060902084308084317000009CC Disclaimer - FAST - Family.ca (:08-:10) $$$                                                                              150                                
PGRFAMCHA060902084317090634002317Zoey 101                                          EPS # 01                                                             2068707BCC                              
PRCFAMCHA060902090634090645000011NSW - 05 - RAVEN/PHIL (APR06) (:11 - 13) $$$                                                                                150                                
PROFAMCHA060902090645090715000030xxThat's So Raven (APR06) LUNCH (NSW) - Coming Up                                                                           150                                
PROFAMCHA060902090715090752000037High School Musical CD Blast $$$ 2x DAY in MD/NS/N                                                                          150                                
PROFAMCHA060902090752090822000030Phil of the Future THINGS TO COME (NSW) (APR06) -                                                                           150                                
PRCFAMCHA060902090822090851000029Life With Derek Web Promo                                                                                                   150                                
PROFAMCHA060902090851090922000031Even Stevens - Swing (APR06) - (NSW) - This Morn @                                                                          150                                
PRCFAMCHA060902090922091005000043xxFamous Players Popcorn Parties (Jan06)(6/day - a                                                                          150                                
PROFAMCHA060902091005091027000022xxNed's DSSG - CRAZY DOG (AUG06) NSW This Morn @ 1                                                                          150                                
PROFAMCHA060902091027091056000029xxBrotherly Love (MAY06) TEDDY (NSW) -This morn @                                                                           150                                
PROFAMCHA060902091056091145000049Zoey Chic Boutique Contest (July10-Oct1)                                                                                    150                                
PRCFAMCHA060902091145091153000008Darcy's Wild Life (NADM) NS or NSW (AUG06) - Tonig                                                                          150                                
PRCFAMCHA060902091153091200000007NSW Bumper $$$ - Dodgeball (:07-:09) APR06                                                                                  150                                
PGRFAMCHA060902091200093426002226That's So Raven                                   EP: 1-012                                                            6068607BCC                              
PRCFAMCHA060902093426093431000005Astral ID (FEB05) $$$                                                                                                       150                                
PRCFAMCHA060902093431093444000013NSW - 06 - PHIL/EVEN (APR06) (:11 - 13) $$$                                                                                 150                                
PROFAMCHA060902093444093514000030Phil of the Future THINGS TO COME (NSW) (APR06) -                                                                           150                                
PROFAMCHA060902093514093559000045Raven Fun with Fashion Contest (Sept 1-14) (4 day/                                                                          150                                
PROFAMCHA060902093559093620000021xxNed's DSSG - RECORDER (AUG06) NSW This Morn @ 11                                                                          150                                
PROFAMCHA060902093620093630000010FAMJAM - Open/Close                                                                                                         150                                
PROFAMCHA060902093922093936000014xxFAMJAM - Close (FAMILY) xxDNUxx                                                                                           150                                
PROFAMCHA060902093936093945000009xxFamily Bumpers - (Phase 2 F/W 04) - Skateboard (                                                                          150                                
PROFAMCHA060902093945094018000033xxBratz - Bratz Babyz $$$ (Aug21 - Oct 29)                                                                            A     150                                
PROFAMCHA060902094018094047000029High School Musical Dance Along Fri @ 7:30 (AUG06)                                                                          150                                
PRCFAMCHA060902094047094104000017NSW Bumper $$$ - Tennis (:15-:17) APR06                                                                                     150                                
PGRFAMCHA060902094104100340002236Phil of the Future Yr 2                           EP: 27                                                               6068607B                                
PRCFAMCHA060902100340100351000011NSW - 07 - EVEN/BMW (APR06) (:11 - 13) $$$                                                                                  150                                
PROFAMCHA060902100351100425000034Even Stevens - Bad Boys (APR06) - (NSW) -coming Up                                                                          150                                
PRCFAMCHA060902100425100510000045xxGet Schooled CONTEST starting Sept 8 (4 day MMM,                                                                          150                                
PROFAMCHA060902100510100540000030xxBrotherly Love (MAY06) TALENTED concept (NSW) -T                                                                          150                                
PROFAMCHA060902100540100629000049Zoey Chic Boutique Contest (July10-Oct1)                                                                                    150                                
PROFAMCHA060902100629100700000031xxSmart Guy FIGHT (JUNE06) NSW - This afternnoon @                                                                          150                                
PGRFAMCHA060902100700100755000055Planet Rock Profiles - Green Day (Burgers) xxDNUxxEP: 46                                                              A70687120                                
PRCFAMCHA060902100755100835000040Naturally Sadie (APR06) - Tonight @ 6:05pm                                                                                  150                                
PROFAMCHA060902100835100917000042Aly & A.J. Faves and Funnies - Funny Set Moment (M                                                                          150                                
PROFAMCHA060902100917100954000037xxHannah Montana - GS Achy Breaky NS (AUG06) New E                                                                          150                                
PRCFAMCHA060902100954101006000012NSW Bumper $$$ - Fashion (:12-:14) APR06                                                                                    150                                
ID FAMCHA060902101006101014000008Magic of Disney - NS/NSW/PB - Wipe (:06-:09) $$$                                                                            150                                
PRCFAMCHA060902101014101023000009CC Disclaimer - FAST - Generic (:08-:10) $$$                                                                                150                                
PGRFAMCHA060902101023103304002241Even Stevens                                      EP: 1-006                                                           A6068807BCC                              
PRCFAMCHA060902103304103309000005Astral ID (FEB05) $$$                                                                                                       150                                
PRCFAMCHA060902103309103321000012NSW - 08 - BMW/NEDS (APR06) (:11 - 13) $$$                                                                                  150                                
PROFAMCHA060902103321103351000030Double Teamed (SEPT12) - Next Friday @ 7:30pm                                                                               150                                
PRCFAMCHA060902103351103434000043xxFamous Players Popcorn Parties (Jan06)(6/day - a                                                                          150                                
PROFAMCHA060902103434103456000022xxNed's DSSG - CRAZY DOG (AUG06) NSW This Morn @ 1                                                                          150                                
PGRFAMCHA060902103456103534000038Planet Rock Profiles - Ashanti (Writing)          EP: 46                                                              A70687120                                
PROFAMCHA060902103534103557000023xxBrotherly Love (MAY06) CLEAN TABLE (NSW) -This m                                                                          150                                
PGRFAMCHA060902103557103727000130xxMovie Surfers - Invincible - Interstitial #1 Now                                                                    A60688120                                
PROFAMCHA060902103727103756000029High School Musical Dance Along Fri @ 7:30 (AUG06)                                                                          150                                
PRCFAMCHA060902103756103803000007NSW Bumper $$$ - Dodgeball (:07-:09) APR06                                                                                  150                                
PRCFAMCHA060902103803103812000009CC Disclaimer - FAST - Family.ca (:08-:10) $$$                                                                              150                                
PGRFAMCHA060902103812110039002227Boy Meets World                                   EP: 1-042                                                           B6068807BCC                              
PRCFAMCHA060902110039110050000011xxNSW - 09 - NEDS/BROTHERLY (APR06) (:11 - 13) $$$                                                                          150                                
PROFAMCHA060902110050110112000022xxNed's DSSG - CRAZY DOG (AUG06) NSW Coming Up Nex                                                                          150                                
PROFAMCHA060902110112110149000037xxNick Lachey HOB Contest (Aug 17-Sept 8) 4/Day in                                                                          150                                
PROFAMCHA060902110149110218000029xxBrotherly Love (MAY06) TEDDY (NSW) -This morn @                                                                           150                                
PRCFAMCHA060902110218110227000009xxFamily Bumpers - (Phase 1 Spring 04) - Soccer (M                                                                          150                                
PGRFAMCHA060902110227110322000055xxPlanet Rock Profiles - Michelle Branch          EP: 46                                                              A70687120                                
PROFAMCHA060902110322110352000030Lizzie McGuire - (Romeo) (APR06) (NSW/PM) - This A                                                                          150                                
PROFAMCHA060902110352110441000049Zoey Chic Boutique Contest (July10-Oct1)                                                                                    150                                
PRCFAMCHA060902110441110449000008Darcy's Wild Life (NADM) NS or NSW (AUG06) - Tonig                                                                          150                                
PRCFAMCHA060902110449110505000016NSW Bumper $$$ - Tennis (:15-:17) APR06                                                                                     150                                
PGRFAMCHA060902110505112921002416Ned's Declassified School Survival Guide          EP: 32                                                               2068807B                                
PRCFAMCHA060902112921112926000005Astral ID (FEB05) $$$                                                                                                       150                                
PRCFAMCHA060902112926112937000011xxNSW - 10 - BROTHERLY/PP (July06) (:11 - :13) $$$                                                                          150                                
PROFAMCHA060902112937113000000023xxBrotherly Love (MAY06) CLEAN TABLE (NSW) -Coming                                                                          150                                
PRCFAMCHA060902113000113043000043xxFamous Players Popcorn Parties (Jan06)(6/day - a                                                                          150                                
PROFAMCHA060902113043113114000031xxSmart Guy FIGHT (JUNE06) NSW - This afternnoon @                                                                          150                                
PROFAMCHA060902113114113124000010FAMJAM - Open/Close                                                                                                         150                                
PGRFAMCHA060902113124113309000145MV Disney - (MD/NS/NSW) - What I've Been Looking F                                                                     60688120                                
PROFAMCHA060902113309113323000014xxFAMJAM - Close (FAMILY) xxDNUxx                                                                                           150                                
PROFAMCHA060902113323113352000029High School Musical Dance Along Fri @ 7:30 (AUG06)                                                                          150                                
PRCFAMCHA060902113352113404000012NSW Bumper $$$ - Fashion (:12-:14) APR06                                                                                    150                                
PGRFAMCHA060902113404115636002232Brotherly Love                                    EPS # 39                                                             6068807B                                
PRCFAMCHA060902115636115647000011NSW - 11 - PP/SMART GUY (July06) (:11 - :13) $$$                                                                            150                                
PROFAMCHA060902115647115722000035Smart Guy GOOD FRIEND (JULY06) NSW - This afternoo                                                                          150                                
PROFAMCHA060902115722115759000037xxNick Lachey HOB Contest (Aug 17-Sept 8) 4/Day in                                                                          150                                
PROFAMCHA060902115759115827000028xxLizzie McGuire - (Sick) (APR06) (NSW/PM) -   Thi                                                                          150                                
PRCFAMCHA060902115827115844000017xxLife WD Derek Bloopers #9 (NS/NSW)                                                                                        150                                
PRCFAMCHA060902115844115914000030Life WD - Housecleaning Tonight @ 7:50 NSW                                                                                  150                                
PROFAMCHA060902115914115943000029High School Musical Dance Along Fri @ 7:30 (AUG06)                                                                          150                                
ID FAMCHA060902115943120001000018Popcorn Pix Block Open $$$ (JUNE 06) (:18-:20)                                                                              150                                
ID FAMCHA060902120001120009000008Rating - G - (DEC05) (:08 - :10) $$$                                                                                        150                                
ID FAMCHA060902120009120017000008Magic of Disney - PIX - Shape (:06-:09) $$$                                                                                 150                                
PGRFAMCHA060902120017133415013358The Even Stevens Movie                                                                                                A6068807C                                
PRCFAMCHA060902133415133420000005Astral ID (FEB05) $$$                                                                                                       150                                
ID FAMCHA060902133420133439000019Popcorn Pix Block Open $$$ (JUNE 06) (:18-:20)                                                                              150                                
ID FAMCHA060902133439133448000009Rating - G - (DEC05) (:08 - :10) $$$                                                                                        150                                
PRCFAMCHA060902133448133457000009CC Disclaimer - FAST - Generic (:08-:10) $$$                                                                                150                                
ID FAMCHA060902133457133505000008Magic of Disney - PIX - Wipe (:06-:09) $$$                                                                                  150                                
PGRFAMCHA060902133505150808013303Double Teamed                                                                                                         A6068807CCC                              
PRCFAMCHA060902150808150820000012NSW - 12 -SMART/LIZZIE (APR06) (:11 - :13) $$$                                                                              150                                
PROFAMCHA060902150820150837000017Nonstop Weekend Block Open (:16-:18) APR06 $$$                                                                              150                                
PRCFAMCHA060902150837150846000009CC Disclaimer - FAST - Family.ca (:08-:10) $$$                                                                              150                                
PGRFAMCHA060902150846153114002228Smart Guy                                         EP: 1-019                                                           A6068807BCC                              
PRCFAMCHA060902153114153119000005Astral ID (FEB05) $$$                                                                                                       150                                
