SO FAMCHA110701043000043011000011Sign On (oct 1)                                                                                                                                                
PGRFAMCHA110701043011045649002638Katie And Orbie                                   EP: 58                                                        C19665A1065607ECC                              
ID FAMCHA110701045649045654000005Astral ID (HD) (Jan2011)                                                                                                    150                                
PROFAMCHA110701045654045700000006D-JR - Bumper 2 (May2011)                                                                                                   150                                
PGRFAMCHA110701045700051932002232Franny's Feet                                     EPS # 1-011                                                   C23970A1065607ECC                              
PROFAMCHA110701051932052002000030D-JR Icon Story - SWOBB - Seesaw Part 1 - Coming U                                                                          150                                
PROFAMCHA110701052002052032000030D-JR Promo - On demand online REVISED - D-JR.ca (M                                                                          150                                
PROFAMCHA110701052032052107000035D-JR Promo - IM Dance Party - Starting Tomorrow Mo                                                                          150                                
PROFAMCHA110701052107052137000030D-JR Icon Story - SWOBB - Seesaw Part 2 - Now (May                                                                          150                                
PROFAMCHA110701052137052144000007D-JR - Station ID (:07) (May2011)                                                                                           150                                
PGRFAMCHA110701052144054414002230The Secret World of Benjamin Bear                 EP: 25                                                        C26066 1065607ECC                              
ID FAMCHA110701054414054420000006Astral ID (HD) (Jan2011)                                                                                                    150                                
PROFAMCHA110701054420054426000006D-JR - Bumper 3 (May2011)                                                                                                   150                                
PGRFAMCHA110701054426060558002132Harry and His Bucket Full of Dinosaurs            EP: 01                                                        B05020 1065607ECC                              
PROFAMCHA110701060558060606000008D-JR - Station ID (:08) (May2011)                                                                                           150                                
PGRFAMCHA110701060606062956002350Henry's World                                     EP: 02                                                        B66544 1065607ECC                              
ID FAMCHA110701062956063001000005Astral ID (HD) (Jan2011)                                                                                                    150                                
PROFAMCHA110701063001063007000006D-JR - Bumper 4 (May2011)                                                                                                   150                                
PGRFAMCHA110701063007065241002234Franny's Feet                                     EPS # 1-002                                                   C23970A1065607ECC                              
PROFAMCHA110701065241065312000031D-JR Icon Story - Stella & Sam New - Meet in the M                                                                          150                                
PROFAMCHA110701065312065342000030D-JR Promo - IM In Concert - Starting Tomorrow Mor                                                                          150                                
PROFAMCHA110701065342065432000050Feld Entertainment                                                                                                          150                                
PROFAMCHA110701065432065507000035D-JR Promo - Handy Manny - Get more on the channel                                                                          150                                
PROFAMCHA110701065507065532000025JATNP - Get more Jake on D-JR the channel (May2011                                                                          150                                
PROFAMCHA110701065532065542000010D-JR - Short Open (:10) (May2011)                                                                                           150                                
PROFAMCHA110701065542065842000300PH-D Short - Mickey Mousekersize Shorts - 08 - Min                                                                          150                                
PROFAMCHA110701065842065848000006D-JR - Short Close (:06) (May2011)                                                                                          150                                
PROFAMCHA110701065848065918000030D-JR Promo - On demand online REVISED - D-JR.ca (M                                                                          150                                
PROFAMCHA110701065918065949000031D-JR Icon Story - Stella & Sam New - Meet in the M                                                                          150                                
PROFAMCHA110701065949065958000009D-JR - Station ID (:09) (May2011)                                                                                           150                                
PGRFAMCHA110701065958072315002317Stella and Sam                                    EP: 08                                                        C32553 1025607ECD                              
ID FAMCHA110701072315072320000005Astral ID (HD) (Jan2011)                                                                                                    150                                
PROFAMCHA110701072320072352000032D-JR Icon Story - JATNLP - Maze Part 1 - Coming Up                                                                          150                                
PROFAMCHA110701072352072427000035D-JR Promo - IM Dance Party - Starting Tomorrow Mo                                                                          150                                
PROFAMCHA110701072427072517000050Feld Entertainment                                                                                                          150                                
PROFAMCHA110701072517072547000030D-JR - Standalone ID - Magic Book (May2011)                                                                                 150                                
PROFAMCHA110701072547072617000030D-JR Promo - MMCH - Get more MMCH on D-JR the chan                                                                          150                                
PROFAMCHA110701072617072623000006D-JR - Short Open (:06) (May2011)                                                                                           150                                
PROFAMCHA110701072623072821000158PH-D Short - Can You...Alligator Manners S1 - 01 -                                                                          150                                
PROFAMCHA110701072821072827000006D-JR - Short Close (:06) (May2011)                                                                                          150                                
PROFAMCHA110701072827072902000035D-JR Promo - Handy Manny - Get more on the channel                                                                          150                                
PROFAMCHA110701072902072932000030D-JR Promo - On demand online REVISED - D-JR.ca (M                                                                          150                                
PROFAMCHA110701072932073003000031D-JR Icon Story - JATNLP - Maze Part 2 - Now (May                                                                           150                                
PROFAMCHA110701073003073009000006D-JR - Bumper 5 (May2011)                                                                                                   150                                
PGRFAMCHA110701073009075417002408Disney Jake and the Never Land Pirates            EP: 01                                                               6068605ACC                              
PROFAMCHA110701075417075503000046Cars 2 Contest (HD) (June 7 - July 4)                                                                                       150                                
PROFAMCHA110701075503075553000050Feld Entertainment                                                                                                          150                                
PROFAMCHA110701075553075607000014xWOWP (HD) Alex S3 GENERIC - Today @ Noon (Jan2011                                                                          150                                
PROFAMCHA110701075607075752000145ME: Zookeeper (HD) In Theatres July 8 (July1-7)                                                                             150                                
PROFAMCHA110701075752075827000035Phineas&Ferb (HD) Candace - Coming Up Next (June20                                                                          150                                
PROFAMCHA110701075827075917000050Walt Disney Pictures                                                                                                        150                                
PROFAMCHA110701075917080002000045So Random Fridays/July 1 & 15 NOP (HD) This Aftern                                                                          150                                
PRCFAMCHA110701080002080018000016Family Summer Bumper (HD) - Bee (June29-Sept3)                                                                              150                                
PGRFAMCHA110701080018082159002141Disney Phineas & Ferb                             EP: 16                                                               6068607ECC                              
ID FAMCHA110701082159082205000006Astral ID (HD) (Jan2011)                                                                                                    150                                
PROFAMCHA110701082205082250000045Disney XD (HD) King for a Day Stunt - Saturday Jul                                                                          150                                
PROFAMCHA110701082250082335000045MGA Entertainment                                                                                                           150                                
PROFAMCHA110701082335082355000020Hannah (HD) Wig Off - This Afternoon @ 12:30 (Jan2                                                                          150                                
PGRFAMCHA110701082355082525000130MV Disney (HD) Bridgit Mendler - We Can Change the                                                                     60285120                                
PROFAMCHA110701082525082613000048Shake It Up (HD) Refresh - New Episode Tonight @ 6                                                                          150                                
PROFAMCHA110701082613082703000050Disney Interactive                                                                                                          150                                
PROFAMCHA110701082703082744000041xVacation With Derek (What's Up) (HD) Popcorn Pix                                                                           150                                
PRCFAMCHA110701082744082829000045WUW (HD) Series Promo - Sunday Morning @ 9:30 (Mar                                                                          150                                
PROFAMCHA110701082829082901000032Phineas&Ferb (HD) Stop Watch - Coming Up Next (Jan                                                                          150                                
PROFAMCHA110701082901082931000030Kellogg's                                                                                                                   150                                
PRCFAMCHA110701082931083001000030FOD (HD) On Demand Online family.ca (Mar2011) (2-3                                                                          150                                
PRCFAMCHA110701083001083015000014Family Summer Bumper (HD) - Mole (June 29-Sept3)                                                                            150                                
PGRFAMCHA110701083015091522004507Disney Phineas & Ferb                             EP: 41                                                               6068607ECC                              
PROFAMCHA110701091522091607000045Invasion of the Body Swappers Stunt (HD) Wed Start                                                                          150                                
PROFAMCHA110701091607091652000045Walt Disney Pictures                                                                                                        150                                
PROFAMCHA110701091652091715000023xWOWP (HD) Harper - Today @ Noon (Jan2011)                                                                                  150                                
PROFAMCHA110701091715091802000047Fish Hooks (HD) High School Sell - This Afternoon                                                                           150                                
PGRFAMCHA110701091802092210000408MV Non Disney (HD) Cody Simpson ft Flo Rida - IYIY                                                                     10615120                                
PGRFAMCHA110701092210092309000059Shake It Up Shorts (HD) BTS "Gunther & Tinka" ( Ju                                                                     60685120                                
PROFAMCHA110701092309092354000045Good Luck Charlie (HD) DuncanDance - New Episode F                                                                          150                                
PGRFAMCHA110701092354092750000356MV Non Disney (HD) Saveria - Do Whatcha Gotta Do (                                                                     10615120                                
PROFAMCHA110701092750092830000040DEBRA! (HD) Refresh - New Episode Sunday Afternoon                                                                          150                                
PROFAMCHA110701092830092915000045So Random (HD) Boy Sell - Coming Up Next (Sunday A                                                                          150                                
PROFAMCHA110701092915092932000017Phineas & Ferb DCOM (HD) Movie Graphic Tease  - Au                                                                          150                                
PRCFAMCHA110701092932092948000016Family Summer Bumper (HD) - Popsicle (June 29-Sept                                                                          150                                
PGRFAMCHA110701092948095159002211So Random!                                        EP: 01                                                               6068807BCC                              
ID FAMCHA110701095159095204000005Astral ID (HD) (Jan2011)                                                                                                    150                                
PROFAMCHA110701095204095249000045So Random Fridays/July 1 & 15 NOP (HD) This Aftern                                                                          150                                
PGRFAMCHA110701095249095622000333MV Disney (HD) Selena Gomez - Love You Like a Love                                                                     60685120                                
PROFAMCHA110701095622095654000032Wingin It (HD) Angel - Tomorrow Morning @ 9:30 (Ap                                                                          150                                
PROFAMCHA110701095654095824000130ME: Cars 2 (HD) Now Playing In Theatres (June 24-J                                                                          150                                
PROFAMCHA110701095824095904000040DEBRA! (HD) Refresh - Coming Up Next (May2011)                                                                              150                                
PROFAMCHA110701095904095934000030Disney XD (HD) Zeke & Luther - Catch it on DXD (wi                                                                          150                                
PRCFAMCHA110701095934095950000016Family Summer Bumper (HD) - Strawberry/Lady Bug (J                                                                          150                                
PGRFAMCHA110701095950102224002234DEBRA!                                            EP: 04                                                        C35763 1065607ACD                              
PROFAMCHA110701102224102239000015Family's Summer Marathons (HD) Monday to Thursday                                                                           150                                
PROFAMCHA110701102239102314000035Phineas&Ferb (HD) Candace - Weekday Afternoons @ 4                                                                          150                                
PGRFAMCHA110701102314102701000347MV Non Disney (HD) Cody Simpson - All Day (May 17                                                                      10615120                                
PRCFAMCHA110701102701102746000045WUW (HD) Series Promo - Sunday Morning @ 9:30 (Mar                                                                          150                                
PGRFAMCHA110701102746102911000125ANT Farm (HD) Meet China Int - Coming Up Next (Jun                                                                     60288120                                
PROFAMCHA110701102911102933000022Family.ca (HD) "Hot Ticket" Game Promo (March 15 -                                                                          150                                
PRCFAMCHA110701102933102945000012Family Summer Bumper (HD) - Worm (June 29-Sept3)                                                                            150                                
PGRFAMCHA110701102945105219002234Disney A.N.T. Farm                                EP: 02                                                               6068607BCC                              
ID FAMCHA110701105219105225000006Astral ID (HD) (Jan2011)                                                                                                    150                                
PROFAMCHA110701105225105301000036Disney XD (HD) DXD Image Spot - DXD Is...(with Cha                                                                          150                                
PROFAMCHA110701105301105341000040Best Western                                                                                                                150                                
PROFAMCHA110701105341105429000048Shake It Up (HD) Refresh - New Episode Tonight @ 6                                                                          150                                
PGRFAMCHA110701105429105738000309MV Non Disney (HD) Tyler Medeiros - Girlfriend (Ja                                                                     10615120                                
PROFAMCHA110701105738105812000034SLOZ+C (HD) Refresh May10 - Coming Up Next (Jan201                                                                          150                                
PROFAMCHA11070110581210585700004520th Century Fox                                                                                                            150                                
PROFAMCHA110701105857105942000045Invasion of the Body Swappers Stunt (HD) Wed Start                                                                          150                                
PRCFAMCHA110701105942105958000016Family Summer Bumper (HD) - Bee (June29-Sept3)                                                                              150                                
ID FAMCHA110701105958110003000005xMagic of Disney Bumper (HD)(:5-:6) (Jan 2011)                                                                              150                                
PGRFAMCHA110701110003112244002241The Suite Life of Zack and Cody                   EP: 09                                                               6068607BCC                              
PROFAMCHA110701112244112255000011LU - 06 - SLZC/WIZARDS 12pm (HD) (:9 - :11) Jan 20                                                                          150                                
PROFAMCHA110701112255112340000045So Random Fridays/July 1 & 15 NOP (HD) This Aftern                                                                          150                                
PROFAMCHA110701112340112410000030Kellogg's                                                                                                                   150                                
PROFAMCHA110701112410112455000045Good Luck Charlie (HD) SIBLINGS - New episode Frid                                                                          150                                
PGRFAMCHA110701112455112813000318MV Disney (HD) Bridgit Mendler - We Can Change the                                                                     60285120                                
PROFAMCHA110701112813112828000015SWAC (HD) S2 Generic - Weekend Mornings @ 10:30 (J                                                                          150                                
PROFAMCHA110701112828112853000025JATNP - Get more Jake on D-JR the channel (May2011                                                                          150                                
PROFAMCHA110701112853112927000034SLOZ+C (HD) Refresh May10 - Coming Up Next (Jan201                                                                          150                                
PROFAMCHA110701112927112944000017Phineas & Ferb DCOM (HD) Movie Graphic Tease  - Au                                                                          150                                
PRCFAMCHA110701112944112958000014Family Summer Bumper (HD) - Mole (June 29-Sept3)                                                                            150                                
ID FAMCHA110701112958113003000005xMagic of Disney Bumper (HD)(:5-:6) (Jan 2011)                                                                              150                                
PGRFAMCHA110701113003113732000729The Suite Life of Zack and Cody                   EP: 10                                                               6068607BCC                              
PGRFAMCHA110701113732114237000505The Suite Life of Zack and Cody                   EP: 10                                                               6068607BCC                              
PGRFAMCHA110701114237114706000429The Suite Life of Zack and Cody                   EP: 10                                                               6068607BCC                              
PGRFAMCHA110701114706115240000534The Suite Life of Zack and Cody                   EP: 10                                                               6068607BCC                              
ID FAMCHA110701115240115246000006Astral ID (HD) (Jan2011)                                                                                                    150                                
PROFAMCHA110701115246115257000011LU - 07 - WIZARDS/HANNAH 12:30pm (HD) (:9 - :11) J                                                                          150                                
PROFAMCHA110701115257115327000030Disney XD (HD) I'm In the Band - Catch it on DXD (                                                                          150                                
PROFAMCHA11070111532711541200004520th Century Fox                                                                                                            150                                
PROFAMCHA110701115412115459000047Fish Hooks (HD) High School Sell - This Afternoon                                                                           150                                
PROFAMCHA110701115459115547000048Shake It Up (HD) Refresh - New Episode Tonight @ 6                                                                          150                                
PROFAMCHA110701115547115628000041xVacation With Derek (What's Up) (HD) Popcorn Pix                                                                           150                                
PRCFAMCHA110701115628115713000045WUW (HD) Series Promo - Sunday Morning @ 9:30 (Mar                                                                          150                                
PROFAMCHA110701115713115758000045Elephant Princess (HD) Refresh - Monday to Thursda                                                                          150                                
PROFAMCHA110701115758115828000030WOWP (HD) Metric System - Coming Up Next (Jan2011)                                                                          150                                
PROFAMCHA110701115828115858000030Kellogg's                                                                                                                   150                                
PROFAMCHA110701115858115944000046Cars 2 Contest (HD) (June 7 - July 4)                                                                                       150                                
PRCFAMCHA110701115944120000000016Family Summer Bumper (HD) - Popsicle (June 29-Sept                                                                          150                                
PGRFAMCHA110701120000120226000226Disney Wizards of Waverly Place                   EP: 03                                                               6068607BCC                              
PGRFAMCHA110701120226121048000822Disney Wizards of Waverly Place                   EP: 03                                                               6068607BCC                              
PGRFAMCHA110701121048122142001054Disney Wizards of Waverly Place                   EP: 03                                                               6068607BCC                              
PGRFAMCHA110701122142122233000051Disney Wizards of Waverly Place                   EP: 03                                                               6068607BCC                              
PROFAMCHA110701122233122318000045So Random Fridays/July 1 & 15 NOP (HD) This Aftern                                                                          150                                
PROFAMCHA110701122318122403000045MGA Entertainment                                                                                                           150                                
PROFAMCHA110701122403122418000015SWAC (HD) S2 Generic - Tomorrow Morning @ 10:30 (J                                                                          150                                
PGRFAMCHA110701122418122814000356MV Non Disney (HD) Saveria - Do Whatcha Gotta Do (                                                                     10615120                                
PROFAMCHA110701122814122844000030Really Me (HD) Generic - New Episode Sunday Night                                                                           150                                
PROFAMCHA110701122844122914000030D-JR Promo - MMCH - Get more MMCH on D-JR the chan                                                                          150                                
PROFAMCHA110701122914122934000020Hannah (HD) Wig Off - Coming Up Next (Jan2011)                                                                              150                                
PROFAMCHA110701122934122949000015Family's Summer Marathons (HD) Monday to Thursday                                                                           150                                
PRCFAMCHA110701122949123005000016Family Summer Bumper (HD) - Strawberry/Lady Bug (J                                                                          150                                
PGRFAMCHA110701123005123202000157Hannah Montana                                    EP: 10                                                               6068807BCC                              
PGRFAMCHA110701123202124029000827Hannah Montana                                    EP: 10                                                               6068807BCC                              
PGRFAMCHA110701124029125126001057Hannah Montana                                    EP: 10                                                               6068807BCC                              
PGRFAMCHA110701125126125238000112Hannah Montana                                    EP: 10                                                               6068807BCC                              
ID FAMCHA110701125238125244000006Astral ID (HD) (Jan2011)                                                                                                    150                                
PROFAMCHA110701125244125314000030Disney XD (HD) Kick Buttowski - Catch it on DXD (w                                                                          150                                
PROFAMCHA110701125314125404000050Disney Interactive                                                                                                          150                                
PROFAMCHA110701125404125452000048Shake It Up (HD) Refresh - New Episode Tonight @ 6                                                                          150                                
PROFAMCHA110701125452125537000045Good Luck Charlie (HD) DuncanDance - New Episode F                                                                          150                                
PROFAMCHA110701125537125722000145ME: Zookeeper (HD) In Theatres July 8 (July1-7)                                                                             150                                
PROFAMCHA110701125722125754000032Wingin It (HD) Angel - Tomorrow Morning @ 9:30 (Ap                                                                          150                                
PROFAMCHA110701125754125834000040DEBRA! (HD) Refresh - New Episode Sunday Afternoon                                                                          150                                
PROFAMCHA110701125834125909000035Phineas&Ferb (HD) Candace - Coming Up Next (June20                                                                          150                                
PROFAMCHA110701125909125954000045Invasion of the Body Swappers Stunt (HD) Wed Start                                                                          150                                
PRCFAMCHA110701125954130006000012Family Summer Bumper (HD) - Worm (June 29-Sept3)                                                                            150                                
PGRFAMCHA110701130006132240002234Disney Phineas and Ferb                           EP: 04                                                               6068607ECC                              
PROFAMCHA110701132240132310000030Disney XD (HD) Kickin' It Series Launch - Premiere                                                                          150                                
PROFAMCHA110701132310132357000047Fish Hooks (HD) High School Sell - This Afternoon                                                                           150                                
PROFAMCHA110701132357132527000130ME: Cars 2 (HD) Now Playing In Theatres (June 24-J                                                                          150                                
PRCFAMCHA110701132527132612000045WUW (HD) Series Promo - Sunday Morning @ 9:30 (Mar                                                                          150                                
PGRFAMCHA110701132612132749000137ANT Farm (HD) About The Show - New Episode Tonight                                                                     60288120                                
PROFAMCHA110701132749132834000045Elephant Princess (HD) Refresh - Monday to Thursda                                                                          150                                
PROFAMCHA110701132834132909000035D-JR Promo - Handy Manny - Get more on the channel                                                                          150                                
PROFAMCHA110701132909132954000045Good Luck Charlie (HD) SIBLINGS - Coming up Next (                                                                          150                                
PRCFAMCHA110701132954133010000016Family Summer Bumper (HD) - Bee (June29-Sept3)                                                                              150                                
PGRFAMCHA110701133010135243002233Disney Good Luck Charlie                          EP: 04                                                               6068807BCC                              
ID FAMCHA110701135243135249000006Astral ID (HD) (Jan2011)                                                                                                    150                                
PROFAMCHA110701135249135334000045So Random Fridays/July 1 & 15 NOP (HD) This Aftern                                                                          150                                
PROFAMCHA110701135334135424000050Disney Interactive                                                                                                          150                                
PROFAMCHA110701135424135456000032Wingin It (HD) Angel - Tomorrow Morning @ 9:30 (Ap                                                                          150                                
PROFAMCHA110701135456135537000041xVacation With Derek (What's Up) (HD) Popcorn Pix                                                                           150                                
PGRFAMCHA110701135537135910000333MV Disney (HD) Selena Gomez - Love You Like a Love                                                                     60685120                                
PROFAMCHA110701135910135940000030Really Me (HD) Generic - Coming Up Next (Apr2011)                                                                           150                                
PROFAMCHA110701135940135957000017Phineas & Ferb DCOM (HD) Movie Graphic Tease  - Au                                                                          150                                
PRCFAMCHA110701135957140011000014Family Summer Bumper (HD) - Mole (June 29-Sept3)                                                                            150                                
PGRFAMCHA110701140011142244002233Really Me                                         EP: 05                                                        C35342 1065607ACD                              
PROFAMCHA110701142244142329000045Invasion of the Body Swappers Stunt (HD) Wed Start                                                                          150                                
PROFAMCHA110701142329142419000050Disney Interactive                                                                                                          150                                
PROFAMCHA110701142419142507000048Shake It Up (HD) Refresh - New Episode Tonight @ 6                                                                          150                                
PGRFAMCHA110701142507142825000318MV Disney (HD) Bridgit Mendler - We Can Change the                                                                     60685120                                
PROFAMCHA110701142825142840000015SWAC (HD) S2 Generic - Tomorrow Morning @ 10:30 (J                                                                          150                                
PROFAMCHA110701142840142905000025JATNP - Get more Jake on D-JR the channel (May2011                                                                          150                                
PROFAMCHA110701142905142928000023xWOWP (HD) Harper - Coming Up Next (Jan2011)                                                                                150                                
PRCFAMCHA110701142928142958000030FOD (HD) On Demand Online family.ca (Mar2011) (2-3                                                                          150                                
PRCFAMCHA110701142958143014000016Family Summer Bumper (HD) - Popsicle (June 29-Sept                                                                          150                                
PGRFAMCHA110701143014145249002235Disney Wizards of Waverly Place                   EP: 13                                                               6068607BCC                              
ID FAMCHA110701145249145255000006Astral ID (HD) (Jan2011)                                                                                                    150                                
PROFAMCHA110701145255145341000046Cars 2 Contest (HD) (June 7 - July 4)                                                                                       150                                
PROFAMCHA110701145341145416000035Phineas&Ferb (HD) Candace - This Afternoon @ 4:00                                                                           150                                
PROFAMCHA110701145416145446000030Pair Of Kings (HD) Kings Speak - Tonight @ 5:30 (J                                                                          150                                
PGRFAMCHA110701145446145833000347MV Non Disney (HD) Cody Simpson - All Day (May 17                                                                      10615120                                
PROFAMCHA110701145833145903000030Really Me (HD) Generic - New Episode Sunday Night                                                                           150                                
PROFAMCHA110701145903145948000045Good Luck Charlie (HD) Duncan Dance - Coming Up Ne                                                                          150                                
PROFAMCHA110701145948150003000015Family's Summer Marathons (HD) Monday to Thursday                                                                           150                                
PRCFAMCHA110701150003150019000016Family Summer Bumper (HD) - Strawberry/Lady Bug (J                                                                          150                                
PGRFAMCHA110701150019152224002205Disney Good Luck Charlie                          EP: 02                                                               6068807BCC                              
PROFAMCHA110701152224152309000045Disney XD (HD) King for a Day Stunt - Saturday Jul                                                                          150                                
PROFAMCHA110701152309152359000050Disney Interactive                                                                                                          150                                
PROFAMCHA110701152359152446000047Fish Hooks (HD) High School Sell - This Afternoon                                                                           150                                
PROFAMCHA110701152446152509000023WOWP (HD) Harper Retag - New Episode Tonight @ 5:0                                                                          150                                
PGRFAMCHA110701152509152715000206MV Non Disney (HD) Saveria - Do Whatcha Gotta Do (                                                                     10615120                                
PROFAMCHA110701152715152755000040DEBRA! (HD) Refresh - New Episode Sunday Afternoon                                                                          150                                
PRCFAMCHA110701152755152840000045WUW (HD) Series Promo - New Episode Coming Up Next                                                                          150                                
PROFAMCHA11070115284015292500004520th Century Fox                                                                                                            150                                
PROFAMCHA110701152925153010000045So Random Fridays/July 1 & 15 NOP (HD) Starting Ne                                                                          150                                
PRCFAMCHA110701153010153022000012Family Summer Bumper (HD) - Worm (June 29-Sept3)                                                                            150                                
PGRFAMCHA110701153022155326002304What's Up, Warthogs!                              EP: 13                                                        C32738 1025607BCC                              
ID FAMCHA110701155326155331000005Astral ID (HD) (Jan2011)                                                                                                    150                                
PROFAMCHA110701155331155416000045So Random Fridays/July 1 & 15 NOP (HD) Continues N                                                                          150                                
PROFAMCHA11070115541615550100004520th Century Fox                                                                                                            150                                
PROFAMCHA110701155501155531000030Pair Of Kings (HD) Repack - Tonight @ 5:30 (May201                                                                          150                                
PROFAMCHA110701155531155616000045Good Luck Charlie (HD) SIBLINGS - New episode Frid                                                                          150                                
PROFAMCHA110701155616155648000032Wingin It (HD) Angel - Tomorrow Morning @ 9:30 (Ap                                                                          150                                
PROFAMCHA110701155648155733000045MGA Entertainment                                                                                                           150                                
PRCFAMCHA110701155733155818000045WUW (HD) Series Promo - Sunday Morning @ 9:30 (Mar                                                                          150                                
PROFAMCHA110701155818155903000045Walt Disney Pictures                                                                                                        150                                
PROFAMCHA110701155903155933000030Disney XD (HD) Zeke & Luther - Catch it on DXD (wi                                                                          150                                
PRCFAMCHA110701155933155949000016Family Summer Bumper (HD) - Bee (June29-Sept3)                                                                              150                                
PGRFAMCHA110701155949162224002235Disney Phineas and Ferb                           EP: 05                                                               6028607ECC                              
ID FAMCHA110701162224162229000005Astral ID (HD) (Jan2011)                                                                                                    150                                
PROFAMCHA110701162229162314000045Invasion of the Body Swappers Stunt (HD) Wed Start                                                                          150                                
PROFAMCHA110701162314162414000100Sony Pictures                                                                                                               150                                
PROFAMCHA110701162414162437000023WOWP (HD) Harper Retag - New Episode Tonight @ 5:0                                                                          150                                
PROFAMCHA110701162437162525000048Shake It Up (HD) Refresh - New Episode Tonight @ 6                                                                          150                                
PROFAMCHA110701162525162557000032Wingin It (HD) Angel - Tomorrow Morning @ 9:30 (Ap                                                                          150                                
PROFAMCHA110701162557162647000050Walt Disney Pictures                                                                                                        150                                
PROFAMCHA110701162647162702000015SWAC (HD) S2 Generic - Weekend Mornings @ 10:30 (J                                                                          150                                
PROFAMCHA110701162702162743000041xVacation With Derek (What's Up) (HD) Popcorn Pix                                                                           150                                
PROFAMCHA110701162743162830000047Fish Hooks (HD) High School Sell - New Episode Com                                                                          150                                
PROFAMCHA11070116283016291500004520th Century Fox                                                                                                            150                                
PROFAMCHA110701162915162937000022Family.ca (HD) "Hot Ticket" Game Promo (March 15 -                                                                          150                                
PRCFAMCHA110701162937162951000014Family Summer Bumper (HD) - Mole (June 29-Sept3)                                                                            150                                
PGRFAMCHA110701162951164147001156Disney Fish Hooks                                 EP: 18B                                                              6028607ECC                              
PGRFAMCHA110701164147165337001150Disney Fish Hooks                                 EP: 06A                                                              6068607ECC                              
ID FAMCHA110701165337165343000006Astral ID (HD) (Jan2011)                                                                                                    150                                
PROFAMCHA110701165343165353000010So Random Fridays ID (HD) Allisyn - Continues Next                                                                          150                                
PROFAMCHA110701165353165443000050Disney Interactive                                                                                                          150                                
PROFAMCHA110701165443165528000045Good Luck Charlie (HD) DuncanDance - New Episode F                                                                          150                                
PROFAMCHA110701165528165600000032Wingin It (HD) Angel - Tomorrow Morning @ 9:30 (Ap                                                                          150                                
PROFAMCHA110701165600165745000145ME: Zookeeper (HD) In Theatres July 8 (July1-7)                                                                             150                                
PROFAMCHA11070116574516583000004520th Century Fox                                                                                                            150                                
PROFAMCHA110701165830165900000030WOWP (HD) Metric System - New Episode Coming Up Ne                                                                          150                                
PROFAMCHA110701165900165936000036Disney XD (HD) DXD Image Spot - DXD Is...(with Cha                                                                          150                                
PRCFAMCHA110701165936165952000016Family Summer Bumper (HD) - Popsicle (June 29-Sept                                                                          150                                
PGRFAMCHA110701165952172227002235Disney Wizards of Waverly Place                   EP: 15                                                               6028607BCC                              
PROFAMCHA110701172227172244000017Phineas & Ferb DCOM (HD) Movie Graphic Tease  - Au                                                                          150                                
PROFAMCHA110701172244172314000030Kellogg's                                                                                                                   150                                
PROFAMCHA110701172314172407000053Shake It Up (HD) BTS Rehearsal - New Episode Tonig                                                                          150                                
PROFAMCHA110701172407172448000041xVacation With Derek (What's Up) (HD) Popcorn Pix                                                                           150                                
PROFAMCHA11070117244817253300004520th Century Fox                                                                                                            150                                
PRCFAMCHA110701172533172618000045WUW (HD) Series Promo - Sunday Morning @ 9:30 (Mar                                                                          150                                
PGRFAMCHA110701172618172748000130MV Disney (HD) Bridgit Mendler - We Can Change the                                                                     60685120                                
PROFAMCHA110701172748172818000030Pair Of Kings (HD) Kings Speak - New Episode Comin                                                                          150                                
PROFAMCHA110701172818172918000100Sony Pictures                                                                                                               150                                
PROFAMCHA110701172918172933000015Family's Summer Marathons (HD) Monday to Thursday                                                                           150                                
PRCFAMCHA110701172933172949000016Family Summer Bumper (HD) - Strawberry/Lady Bug (J                                                                          150                                
PGRFAMCHA110701172949175153002204Disney Pair of Kings                              EP: 21                                                               6028707BCC                              
ID FAMCHA110701175153175158000005Astral ID (HD) (Jan2011)                                                                                                    150                                
PROFAMCHA110701175158175243000045So Random Fridays/July 1 & 15 NOP (HD) Continues N                                                                          150                                
PROFAMCHA110701175243175333000050Disney Interactive                                                                                                          150                                
PROFAMCHA110701175333175418000045Good Luck Charlie (HD) SIBLINGS - New episode Frid                                                                          150                                
PROFAMCHA110701175418175432000014WOWP (HD) Alex S3 GENERIC - Weekend Mornings @ 10:                                                                          150                                
PGRFAMCHA110701175432175805000333MV Disney (HD) Selena Gomez - Love You Like a Love                                                                     60685120                                
PROFAMCHA110701175805175835000030Really Me (HD) Generic - New Episode Sunday Night                                                                           150                                
PROFAMCHA110701175835175920000045So Random (HD) Boy Sell - New Episode Coming Up Ne                                                                          150                                
PROFAMCHA110701175920175950000030Disney XD (HD) I'm In the Band - Catch it on DXD (                                                                          150                                
PRCFAMCHA110701175950180002000012Family Summer Bumper (HD) - Worm (June 29-Sept3)                                                                            150                                
PGRFAMCHA110701180002182205002203So Random!                                        EP: 03                                                               6028807BCC                              
PROFAMCHA110701182205182251000046Cars 2 Contest (HD) (June 7 - July 4)                                                                                       150                                
PROFAMCHA11070118225118233600004520th Century Fox                                                                                                            150                                
PRCFAMCHA110701182336182421000045WUW (HD) Series Promo - Sunday Morning @ 9:30 (Mar                                                                          150                                
PROFAMCHA110701182421182501000040DEBRA! (HD) Refresh - New Episode Sunday Afternoon                                                                          150                                
PGRFAMCHA110701182501182810000309MV Non Disney (HD) Tyler Medeiros - Girlfriend (Ja                                                                     10615120                                
PROFAMCHA110701182810182840000030Shake It Up (HD) Repack - New Episode Coming Up Ne                                                                          150                                
PROFAMCHA110701182840182925000045MGA Entertainment                                                                                                           150                                
PROFAMCHA110701182925182940000015Family's Summer Marathons (HD) Monday to Thursday                                                                           150                                
PROFAMCHA110701182940182950000010Best Western                                                                                                                150                                
PRCFAMCHA110701182950183006000016Family Summer Bumper (HD) - Bee (June29-Sept3)                                                                              150                                
PGRFAMCHA110701183006185142002136Disney Shake It Up                                EP: 15                                                               6028707BCC                              
ID FAMCHA110701185142185148000006Astral ID (HD) (Jan2011)                                                                                                    150                                
PROFAMCHA110701185148185158000010Best Western                                                                                                                150                                
PROFAMCHA110701185158185206000008So Random Fridays ID (HD) Doug - Continues Next (J                                                                          150                                
PROFAMCHA11070118520618525100004520th Century Fox                                                                                                            150                                
PROFAMCHA110701185251185323000032Wingin It (HD) Angel - Tomorrow Morning @ 9:30 (Ap                                                                          150                                
PRCFAMCHA110701185323185353000030FOD (HD) On Demand Online family.ca (Mar2011) (2-3                                                                          150                                
PGRFAMCHA110701185353185740000347MV Non Disney (HD) Cody Simpson - All Day (May 17                                                                      10615120                                
PROFAMCHA110701185740185825000045Good Luck Charlie (HD) DuncanDance - New Episode C                                                                          150                                
PROFAMCHA110701185825185925000100Sony Pictures                                                                                                               150                                
PROFAMCHA110701185925185955000030Disney XD (HD) Kick Buttowski - Catch it on DXD (w                                                                          150                                
PRCFAMCHA110701185955190009000014Family Summer Bumper (HD) - Mole (June 29-Sept3)                                                                            150                                
PGRFAMCHA110701190009192243002234Disney Good Luck Charlie                          EP: 09                                                               6028807BCC                              
PROFAMCHA110701192243192300000017Phineas & Ferb DCOM (HD) Movie Graphic Tease  - Au                                                                          150                                
PROFAMCHA110701192300192345000045Walt Disney Pictures                                                                                                        150                                
PROFAMCHA110701192345192359000014WOWP (HD) Alex S3 GENERIC - Weekend Mornings @ 10:                                                                          150                                
PGRFAMCHA110701192359192755000356MV Non Disney (HD) Saveria - Do Whatcha Gotta Do (                                                                     10615120                                
PROFAMCHA110701192755192853000058ANT Farm (HD) Comedy Sell - New Episode Coming Up                                                                           150                                
PROFAMCHA110701192853192923000030Kellogg's                                                                                                                   150                                
PROFAMCHA110701192923192947000024So Random Fridays (HD) What Are SRF "Doug" - Conti                                                                          150                                
PRCFAMCHA110701192947193003000016Family Summer Bumper (HD) - Popsicle (June 29-Sept                                                                          150                                
PGRFAMCHA110701193003195239002236Disney A.N.T. Farm                                EP: 03                                                               6028607BCC                              
ID FAMCHA110701195239195244000005Astral ID (HD) (Jan2011)                                                                                                    150                                
PROFAMCHA110701195244195314000030Disney XD (HD) Kickin' It Series Launch - Premiere                                                                          150                                
PROFAMCHA110701195314195354000040Best Western                                                                                                                150                                
PROFAMCHA110701195354195426000032Wingin It (HD) Angel - Tomorrow Morning @ 9:30 (Ap                                                                          150                                
PGRFAMCHA110701195426195605000139Saveria (HD) Do Whatcha Gotta Do - Ep 2 (July 1-7)                                                                     10215120                                
PROFAMCHA110701195605195627000022Family.ca (HD) "Hot Ticket" Game Promo (March 15 -                                                                          150                                
PROFAMCHA110701195627195657000030Shake It Up (HD) Repack - Weekend Mornings @ 11:30                                                                          150                                
PRCFAMCHA110701195657195742000045WUW (HD) Series Promo - Sunday Morning @ 9:30 (Mar                                                                          150                                
PROFAMCHA110701195742195827000045So Random (HD) Boy Sell - Sunday Afternoon @ 3:30                                                                           150                                
PROFAMCHA11070119582719591200004520th Century Fox                                                                                                            150                                
PROFAMCHA110701195912195957000045Invasion of the Body Swappers Stunt (HD) Wed Start                                                                          150                                
ID FAMCHA110701195957200012000015Popcorn Pix Block Open (HD)  (Jan2011)                                                                                      150                                
ID FAMCHA110701200012200022000010Popcorn Pix Rating Slate (HD) - G (Jan 2011)                                                                                150                                
ID FAMCHA110701200022200027000005xMagic of Disney Bumper (HD)(:5-:6) (Jan 2011)                                                                              150                                
PGRFAMCHA110701200027205730005703Camp Rock 2: The Final Jam (Rock Along)                                                                               A6068807CCC                              
PGRFAMCHA110701205730213828004058Camp Rock 2: The Final Jam (Rock Along)                                                                               A6068807CCC                              
PROFAMCHA110701213828213839000011LU - 24 - CONNOR/NIGHTLY PIX 10pm (HD) (:9 - :11)                                                                           150                                
PRCFAMCHA110701213839213855000016Family Summer Bumper (HD) - Strawberry/Lady Bug (J                                                                          150                                
PGRFAMCHA110701213855220125002230Connor Undercover                                 EP: 11                                                        C29997 1065607BCC                              
ID FAMCHA110701220125220130000005Astral ID (HD) (Jan2011)                                                                                                    150                                
PROFAMCHA110701220130220141000011LU - 25 - NIGHTLY PIX/DEREK 11:40pm (HD) (:9 - :11                                                                          150                                
PROFAMCHA110701220141220158000017Phineas & Ferb DCOM (HD) Movie Graphic Tease  - Au                                                                          150                                
PROFAMCHA110701220158220243000045MGA Entertainment                                                                                                           150                                
ID FAMCHA110701220243220258000015Popcorn Pix Block Open (HD)  (Jan2011)                                                                                      150                                
ID FAMCHA110701220258220308000010Popcorn Pix Rating Slate (HD) - G (Jan 2011)                                                                                150                                
PGRFAMCHA110701220308234133013825The Derby Stallion                                                                                                     2068807DCC                              
PROFAMCHA110701234133234144000011LU - 30 - DEREK/MAJORITY RULES 12am (HD) (:9 - :11                                                                          150                                
PRCFAMCHA110701234144234156000012Family Summer Bumper (HD) - Worm (June 29-Sept3)                                                                            150                                
PGRFAMCHA110701234156000427002231Life with Derek                                   EP: 15                                                        C26822 1065607BCC                              
ID FAMCHA110701000427000432000005Astral ID (HD) (Jan2011)                                                                                                    150                                
PROFAMCHA110701000432000443000011LU - 31 - MAJORITY RULES/SADIE 12:30am (HD) (:9 -                                                                           150                                
PRCFAMCHA110701000443000459000016Family Summer Bumper (HD) - Bee (June29-Sept3)                                                                              150                                
PRCFAMCHA110701000459000513000014xDescriptive Video Slate (HD) (Jan 2011)                                                                                    150                                
PGRFAMCHA110701000513002642002129Majority Rules                                    EP: 21                                                        C30283 1065607BCD                              
PROFAMCHA110701002642002653000011LU - 32 - SADIE/HANNAH @ 1:00am (HD) (:9 - :11) Ja                                                                          150                                
PROFAMCHA110701002653002739000046Cars 2 Contest (HD) (June 7 - July 4)                                                                                       150                                
PROFAMCHA110701002739002838000059Fish Hooks (HD) Repack - Tomorrow Morning @ 8:30                                                                            150                                
PROFAMCHA110701002838002903000025JATNP - Get more Jake on D-JR the channel (May2011                                                                          150                                
PROFAMCHA110701002903002943000040xNaturally Sadie (HD) Romantic - Coming Up Next (J                                                                          150                                
PRCFAMCHA110701002943002957000014Family Summer Bumper (HD) - Mole (June 29-Sept3)                                                                            150                                
PGRFAMCHA110701002957005228002231Naturally, Sadie                                  EP: 53                                                        C29639 1065607ACC                              
ID FAMCHA110701005228005234000006Astral ID (HD) (Jan2011)                                                                                                    150                                
PROFAMCHA110701005234005245000011LU - 33 - HANNAH/CORY 1:25am (HD) (:9 - :11) Jan 2                                                                          150                                
PROFAMCHA110701005245005331000046Cars 2 Contest (HD) (June 7 - July 4)                                                                                       150                                
PROFAMCHA110701005331005411000040DEBRA! (HD) Refresh - New Episode Sunday Afternoon                                                                          150                                
PGRFAMCHA110701005411005807000356MV Non Disney (HD) Saveria - Do Whatcha Gotta Do (                                                                     10615120                                
PROFAMCHA110701005807005851000044xHannah (HD) Refresh - Coming Up Next (May2011)                                                                             150                                
PROFAMCHA110701005851005936000045Disney XD (HD) King for a Day Stunt - Saturday Jul                                                                          150                                
PRCFAMCHA110701005936005952000016Family Summer Bumper (HD) - Popsicle (June 29-Sept                                                                          150                                
PGRFAMCHA110701005952010703000711Hannah Montana                                    EP: 23                                                               6068807BCC                              
PGRFAMCHA110701010703011235000532Hannah Montana                                    EP: 23                                                               6068807BCC                              
PGRFAMCHA110701011235012123000848Hannah Montana                                    EP: 23                                                               6068807BCC                              
PGRFAMCHA110701012123012225000102Hannah Montana                                    EP: 23                                                               6068807BCC                              
PROFAMCHA110701012225012236000011LU - 34 - CORY/PHIL OF THE FUTURE 1:45am (HD) (:9                                                                           150                                
PRCFAMCHA110701012236012252000016Family Summer Bumper (HD) - Strawberry/Lady Bug (J                                                                          150                                
PGRFAMCHA110701012252012605000313Disney Cory in the House                          EP: 17                                                               6068607BCC                              
PGRFAMCHA110701012605013210000605Disney Cory in the House                          EP: 17                                                               6068607BCC                              
PGRFAMCHA110701013210014426001216Disney Cory in the House                          EP: 17                                                               6068607BCC                              
PGRFAMCHA110701014426014529000103Disney Cory in the House                          EP: 17                                                               6068607BCC                              
ID FAMCHA110701014529014534000005Astral ID (HD) (Jan2011)                                                                                                    150                                
PROFAMCHA110701014534014545000011LU - 35 - PHIL OF THE FUTURE/LIZZIE MCGUIRE 2:10am                                                                          150                                
PRCFAMCHA110701014545014557000012Family Summer Bumper (HD) - Worm (June 29-Sept3)                                                                            150                                
ID FAMCHA110701014557014602000005xMagic of Disney Bumper (HD)(:5-:6) (Jan 2011)                                                                              150                                
PGRFAMCHA110701014602014902000300Phil of the Future                                EP: 35                                                               6068607BCC                              
PGRFAMCHA110701014902020027001125Phil of the Future                                EP: 35                                                               6068607BCC                              
PGRFAMCHA110701020027020648000621Phil of the Future                                EP: 35                                                               6068607BCC                              
PGRFAMCHA110701020648020835000147Phil of the Future                                EP: 35                                                               6068607BCC                              
PROFAMCHA110701020835020846000011LU - 36 - LIZZIE MCGUIRE/DEREK 2:30am (HD) (:9 - :                                                                          150                                
PRCFAMCHA110701020846020902000016Family Summer Bumper (HD) - Bee (June29-Sept3)                                                                              150                                
ID FAMCHA110701020902020907000005xMagic of Disney Bumper (HD)(:5-:6) (Jan 2011)                                                                              150                                
PGRFAMCHA110701020907023138002231Lizzie McGuire                                    EP: 07                                                               6068607BCC                              
ID FAMCHA110701023138023144000006Astral ID (HD) (Jan2011)                                                                                                    150                                
PROFAMCHA110701023144023155000011LU - 37 - DEREK/CORY 2:55am (HD) (:9 - :11) Jan201                                                                          150                                
PRCFAMCHA110701023155023209000014Family Summer Bumper (HD) - Mole (June 29-Sept3)                                                                            150                                
PGRFAMCHA110701023209025439002230Life with Derek                                   EP: 12                                                        C23968A1065607BCC                              
PROFAMCHA110701025439025450000011LU - 38 - CORY/RAVEN 3:20am (HD) (:9 - :11) Jan201                                                                          150                                
PRCFAMCHA110701025450025506000016Family Summer Bumper (HD) - Popsicle (June 29-Sept                                                                          150                                
PGRFAMCHA110701025506025749000243Disney Cory in the House                          EP: 21                                                               6068607BCC                              
PGRFAMCHA110701025749030511000722Disney Cory in the House                          EP: 21                                                               6068607BCC                              
PGRFAMCHA110701030511031556001045Disney Cory in the House                          EP: 21                                                               6068607BCC                              
PGRFAMCHA110701031556031737000141Disney Cory in the House                          EP: 21                                                               6068607BCC                              
ID FAMCHA110701031737031742000005Astral ID (HD) (Jan2011)                                                                                                    150                                
PROFAMCHA110701031742031753000011LU - 39 - RAVEN/SLZC 3:40am (HD) (:9 - :11) Jan201                                                                          150                                
PRCFAMCHA110701031753031809000016Family Summer Bumper (HD) - Strawberry/Lady Bug (J                                                                          150                                
ID FAMCHA110701031809031814000005xMagic of Disney Bumper (HD)(:5-:6) (Jan 2011)                                                                              150                                
PGRFAMCHA110701031814032459000645That's So Raven                                   EP: 077                                                              6068607BCC                              
PGRFAMCHA110701032459033023000524That's So Raven                                   EP: 077                                                              6068607BCC                              
PGRFAMCHA110701033023033855000832That's So Raven                                   EP: 077                                                              6068607BCC                              
PGRFAMCHA110701033855034049000154That's So Raven                                   EP: 077                                                              6068607BCC                              
PROFAMCHA110701034049034100000011LU - 40 - SLZC/DEREK 4:05am (HD) (:9 - :11) Jan201                                                                          150                                
PRCFAMCHA110701034100034112000012Family Summer Bumper (HD) - Worm (June 29-Sept3)                                                                            150                                
ID FAMCHA110701034112034117000005xMagic of Disney Bumper (HD)(:5-:6) (Jan 2011)                                                                              150                                
PGRFAMCHA110701034117034248000131The Suite Life of Zack and Cody                   EP: 11                                                               6068607B                                
PGRFAMCHA110701034248035126000838The Suite Life of Zack and Cody                   EP: 11                                                               6068607B                                
PGRFAMCHA110701035126040255001129The Suite Life of Zack and Cody                   EP: 11                                                               6068607B                                
PGRFAMCHA110701040255040353000058The Suite Life of Zack and Cody                   EP: 11                                                               6068607B                                
ID FAMCHA110701040353040359000006Astral ID (HD) (Jan2011)                                                                                                    150                                
PROFAMCHA110701040359040408000009LU - 41 - LIFE WITH DEREK (HD) (:9 - :11) Jan2011                                                                           150                                
PRCFAMCHA110701040408040424000016Family Summer Bumper (HD) - Bee (June29-Sept3)                                                                              150                                
PGRFAMCHA110701040424042654002230Life with Derek                                   EP: 22                                                        C26679A1065607BCC                              
PROFAMCHA110701042654042724000030D-JR Promo - IM In Concert - Starting This Morning                                                                          150                                
PROFAMCHA110701042724042754000030D-JR Promo - MMCH - Get more MMCH on D-JR the chan                                                                          150                                
PROFAMCHA110701042754042819000025JATNP - Get more Jake on D-JR the channel (May2011                                                                          150                                
PROFAMCHA110701042819042849000030D-JR - Standalone ID - Magic Frog (May2011)                                                                                 150                                
PROFAMCHA110701042849042924000035D-JR Promo - Handy Manny - Get more on the channel                                                                          150                                
PROFAMCHA110701042924042954000030D-JR Promo - On demand online REVISED - D-JR.ca (M                                                                          150                                
PROFAMCHA110701042954042959000005D-JR - Station ID (:05) (May2011)                                                                                           150                                
OFFFAMCHA110701042959043000000001OFF AIR                                                                                                                                                        
SO FAMCHA110702043000043011000011Sign On (oct 1)                                                                                                                                                
PGRFAMCHA110702043011045406002355Henry's World                                     EP: 09                                                        B66551 1065607ECC                              
ID FAMCHA110702045406045412000006Astral ID (HD) (Jan2011)                                                                                                    150                                
PROFAMCHA110702045412045444000032D-JR Icon Story - SWOBB - Clean Up Part 1 - Coming                                                                          150                                
PROFAMCHA110702045444045450000006D-JR - Bumper 1 (May2011)                                                                                                   150                                
PROFAMCHA110702045450045521000031D-JR Icon Story - SWOBB - Clean Up Part 2 - Now (M                                                                          150                                
PGRFAMCHA110702045521051752002231The Secret World of Benjamin Bear                 EP: 42                                                        C31763 1065607ECC                              
PROFAMCHA110702051752051824000032D-JR Icon Story - Franny's Feet - Maze Part 1 - Co                                                                          150                                
PROFAMCHA110702051824051854000030D-JR Promo - On demand online REVISED - D-JR.ca (M                                                                          150                                
PROFAMCHA110702051854051929000035D-JR Promo - IM Dance Party - Starting This Mornin                                                                          150                                
PROFAMCHA110702051929051959000030D-JR Icon Story - Franny's Feet - Maze Part 2 - No                                                                          150                                
PROFAMCHA110702051959052004000005D-JR - Station ID (:05) (May2011)                                                                                           150                                
PGRFAMCHA110702052004054237002233Franny's Feet                                     EP: 47                                                        C31292 1065607ECC                              
ID FAMCHA110702054237054242000005Astral ID (HD) (Jan2011)                                                                                                    150                                
PROFAMCHA110702054242054314000032D-JR Icon Story - Harry & His Bucket - Silly Song                                                                           150                                
PROFAMCHA110702054314054344000030D-JR Promo - IM In Concert - Starting This Morning                                                                          150                                
PROFAMCHA110702054344054419000035D-JR Promo - Handy Manny - Get more on the channel                                                                          150                                
PROFAMCHA110702054419054450000031D-JR Icon Story - Harry & His Bucket - Silly Song                                                                           150                                
PROFAMCHA110702054450054456000006D-JR - Bumper 2 (May2011)                                                                                                   150                                
PGRFAMCHA110702054456060634002138Harry and His Bucket Full of Dinosaurs            EP: 06                                                        B05025 1065607ECC                              
ID FAMCHA110702060634060640000006Astral ID (HD) (Jan2011)                                                                                                    150                                
PROFAMCHA110702060640060710000030D-JR Promo - On demand online REVISED - D-JR.ca (M                                                                          150                                
PROFAMCHA110702060710060720000010D-JR - Short Open (:10) (May2011)                                                                                           150                                
PROFAMCHA110702060720060918000158PH-D Short - Can You...Alligator Manners S1 - 07 -                                                                          150                                
PROFAMCHA110702060918060924000006D-JR - Short Close (:06) (May2011)                                                                                          150                                
PROFAMCHA110702060924060959000035D-JR Promo - IM Dance Party - Starting Next (July2                                                                          150                                
PROFAMCHA110702060959061005000006D-JR - Station ID (:06) (May2011)                                                                                           150                                
PGRFAMCHA110702061005063308002303Disney Imagination Movers                         EP: 05                                                               6028605ACC                              
ID FAMCHA110702063308063314000006Astral ID (HD) (Jan2011)                                                                                                    150                                
PROFAMCHA110702063314063344000030D-JR Promo - On demand online REVISED - D-JR.ca (M                                                                          150                                
PROFAMCHA110702063344063409000025JATNP - Get more Jake on D-JR the channel (May2011                                                                          150                                
PROFAMCHA110702063409063439000030D-JR Promo - MMCH - Get more MMCH on D-JR the chan                                                                          150                                
PROFAMCHA110702063439063509000030D-JR Promo - IM In Concert - Coming Up Next (July                                                                           150                                
PROFAMCHA110702063509063515000006D-JR - Bumper 3 (May2011)                                                                                                   150                                
PGRFAMCHA110702063515071631004116Disney Imagination Movers                         EP: 50                                                               6028605ACC                              
ID FAMCHA110702071631071636000005Astral ID (HD) (Jan2011)                                                                                                    150                                
PROFAMCHA110702071636071708000032D-JR Icon Story - JATNLP NEW - Maze Part 1 - Comin                                                                          150                                
PROFAMCHA110702071708071714000006D-JR - Short Open (:06) (May2011)                                                                                           150                                
PGRFAMCHA110702071714071945000231Cars Toons # 1 (Rescue Squad Mater)                                                                                   A60688120                                
PGRFAMCHA110702071945072300000315Cars Toons # 3 ( El Mater Dor)                                                                                        A60688120                                
PGRFAMCHA110702072300072933000633Cars Toons # 4 (Tokyo Mater)                                                                                          A60688150                                
PROFAMCHA110702072933072939000006D-JR - Short Close (:06) (May2011)                                                                                          150                                
PROFAMCHA110702072939073010000031D-JR Icon Story - JATNLP NEW - Maze Part 2 - Now (                                                                          150                                
PROFAMCHA110702073010073017000007D-JR - Station ID (:07) (May2011)                                                                                           150                                
PGRFAMCHA110702073017075423002406Disney Jake and the Never Land Pirates            EP: 17                                                               6028605ACC                              
PRCFAMCHA110702075423075453000030FOD (HD) On Demand Online family.ca (Mar2011) (2-3                                                                          150                                
PROFAMCHA11070207545307553800004520th Century Fox                                                                                                            150                                
PROFAMCHA110702075538075727000149DEBRA! (HD) Debra Profile - Weekends @ 4pm (June 2                                                                          150                                
PROFAMCHA110702075727075811000044Hannah (HD) Refresh - This Afteroon @ 5:30 (May201                                                                          150                                
PROFAMCHA110702075811075846000035Phineas&Ferb (HD) Candace - Coming Up Next (June20                                                                          150                                
PROFAMCHA110702075846075931000045Walt Disney Pictures                                                                                                        150                                
PROFAMCHA110702075931075955000024So Random Fridays (HD) What Are SRF "Brandon" - Ev                                                                          150                                
PRCFAMCHA110702075955080011000016Family Summer Bumper (HD) - Bee (June29-Sept3)                                                                              150                                
PGRFAMCHA110702080011082244002233Disney Phineas & Ferb                             EP: 21                                                               6068607ECC                              
ID FAMCHA110702082244082249000005Astral ID (HD) (Jan2011)                                                                                                    150                                
PROFAMCHA110702082249082306000017Phineas & Ferb DCOM (HD) Movie Graphic Tease  - Au                                                                          150                                
PROFAMCHA110702082306082356000050Walt Disney Pictures                                                                                                        150                                
PROFAMCHA110702082356082437000041xVacation With Derek (What's Up) (HD) Popcorn Pix                                                                           150                                
PROFAMCHA110702082437082522000045So Random (HD) Boy Sell - Tomorrow Afternoon @ 3:3                                                                          150                                
PROFAMCHA110702082522082707000145ME: Zookeeper (HD) In Theatres July 8 (July1-7)                                                                             150                                
PROFAMCHA110702082707082805000058ANT Farm (HD) Comedy Sell - Friday Night @ 7:30 (J                                                                          150                                
PROFAMCHA110702082805082852000047Fish Hooks (HD) High School Sell - Coming up Next                                                                           150                                
PROFAMCHA11070208285208293700004520th Century Fox                                                                                                            150                                
PROFAMCHA110702082937083007000030Disney XD (HD) Kickin' It Series Launch - Premiere                                                                          150                                
PRCFAMCHA110702083007083021000014Family Summer Bumper (HD) - Mole (June 29-Sept3)                                                                            150                                
PGRFAMCHA110702083021084218001157Disney Fish Hooks                                 EP: 16B                                                              6068607ECC                              
PGRFAMCHA110702084218085411001153Disney Fish Hooks                                 EP: 07B                                                              6068607ECC                              
ID FAMCHA110702085411085417000006Astral ID (HD) (Jan2011)                                                                                                    150                                
PROFAMCHA110702085417085503000046Cars 2 Contest (HD) (June 7 - July 4)                                                                                       150                                
PROFAMCHA11070208550308554800004520th Century Fox                                                                                                            150                                
PGRFAMCHA110702085548085647000059Shake It Up Shorts (HD) BTS "Gunther & Tinka" ( Ju                                                                     60685120                                
PROFAMCHA110702085647085717000030Shake It Up (HD) Boys Sell - Weekend Mornings @ 11                                                                          150                                
PROFAMCHA110702085717085737000020Hannah (HD) Wig Off - This Afternoon @ 5:30 (Jan20                                                                          150                                
PROFAMCHA110702085737085812000035Phineas&Ferb (HD) Candace - Tomorrow Morning @ 8:0                                                                          150                                
PROFAMCHA110702085812085848000036SLOD (HD) Breakin Up - Coming Up Next (May2011)                                                                             150                                
PROFAMCHA110702085848085933000045Invasion of the Body Swappers Stunt (HD) Wed Start                                                                          150                                
PRCFAMCHA110702085933085949000016Family Summer Bumper (HD) - Popsicle (June 29-Sept                                                                          150                                
PGRFAMCHA110702085949092224002235The Suite Life on Deck                            EP: 01                                                               6068607BCC                              
PROFAMCHA110702092224092246000022Family.ca (HD) "Hot Ticket" Game Promo (March 15 -                                                                          150                                
PROFAMCHA110702092246092322000036Disney XD (HD) DXD Image Spot - DXD Is...(with Cha                                                                          150                                
PROFAMCHA110702092322092412000050Walt Disney Pictures                                                                                                        150                                
PROFAMCHA110702092412092435000023xWOWP (HD) Harper - This Morning @ 10:00 (Apr2011)                                                                          150                                
PROFAMCHA110702092435092505000030Pair Of Kings (HD) Kings Speak - Weekend Mornings                                                                           150                                
PROFAMCHA110702092505092546000041xVacation With Derek (What's Up) (HD) Popcorn Pix                                                                           150                                
PROFAMCHA110702092546092636000050Disney Interactive                                                                                                          150                                
PRCFAMCHA110702092636092721000045WUW (HD) Series Promo - Tomorrow Morning @ 9:30 (M                                                                          150                                
PROFAMCHA110702092721092751000030Really Me (HD) Generic - New Episode Tomorrow Nigh                                                                          150                                
PROFAMCHA110702092751092836000045Elephant Princess (HD) Refresh - Monday to Thursda                                                                          150                                
PROFAMCHA110702092836092906000030Kellogg's                                                                                                                   150                                
PROFAMCHA110702092906092938000032Wingin It (HD) Angel - Coming Up Next (Jan2011)                                                                             150                                
PRCFAMCHA110702092938092954000016Family Summer Bumper (HD) - Strawberry/Lady Bug (J                                                                          150                                
PRCFAMCHA110702092954093008000014xDescriptive Video Slate (HD) (Jan 2011)                                                                                    150                                
PGRFAMCHA110702093008095241002233Wingin' It                                        EP: 01                                                        C32356 1065607ACD                              
ID FAMCHA110702095241095246000005Astral ID (HD) (Jan2011)                                                                                                    150                                
PROFAMCHA110702095246095308000022Family.ca (HD) "Hot Ticket" Game Promo (March 15 -                                                                          150                                
PROFAMCHA110702095308095358000050Disney Interactive                                                                                                          150                                
PROFAMCHA110702095358095416000018SLOD (HD) Mommy Clip - Weeknights @ 6 (May 2011)                                                                            150                                
