SO FAMCHA101101043000043011000011Sign On (oct 1)                                                                                                                                                
PGRFAMCHA101101043011045649002638Katie And Orbie                                   EP: 59                                                        C19665A1065607ECC                              
ID FAMCHA101101045649045655000006Astral ID REVISED (Oct 2010)                                                                                                150                                
PROFAMCHA101101045655045715000020PH-D - Show Throw - CAN Franny's Feet #2- Ooh & Aa                                                                          150                                
PROFAMCHA101101045715045725000010PH-D EOB ID - Beach (Sept09)                                                                                                150                                
PGRFAMCHA101101045725051956002231Franny's Feet                                     EPS # 33                                                      C23971 1065607ECC                              
PROFAMCHA101101051956052016000020PH-D - Show Throw - CAN Benjamin Bear #2-  Ooh & A                                                                          150                                
PROFAMCHA101101052016052026000010PH-D EOB ID - Bouncy Flex (Sept09)                                                                                          150                                
PGRFAMCHA101101052026054257002231The Secret World of Benjamin Bear                 EP: 35                                                        C27272 1065607ECC                              
ID FAMCHA101101054257054303000006Astral ID REVISED (Oct 2010)                                                                                                150                                
PROFAMCHA101101054303054333000030PH-D - Show Throw - Harry And His Bucket - Coming                                                                           150                                
PROFAMCHA101101054333054343000010PH-D EOB ID - Yard (Sept09)                                                                                                 150                                
PGRFAMCHA101101054343060517002134Harry and His Bucket Full of Dinosaurs            EP: 24                                                        B05043 1065607ECC                              
PROFAMCHA101101060517060526000009PH-D Promo - Ooh & Aah Web Throw - PH-D.CA                                                                                  150                                
PROFAMCHA101101060526060541000015Handy Manny - PH-D - Hop Jump 15 - Weekday Morning                                                                          150                                
PROFAMCHA101101060541060556000015PH-D - Show Throw - CAN Henry's World #1- Ooh & Aa                                                                          150                                
PROFAMCHA101101060556060606000010PH-D EOB ID - Kaleidoscope # 01 (Sept09)                                                                                    150                                
PGRFAMCHA101101060606062954002348Henry's World                                     EP: 04                                                        B66546A1065607ECC                              
ID FAMCHA101101062954063000000006Astral ID REVISED (Oct 2010)                                                                                                150                                
PROFAMCHA101101063000063015000015PH-D - Show Throw - CAN Franny's Feet #1- Ooh & Aa                                                                          150                                
PROFAMCHA101101063015063025000010PH-D EOB ID - City - Girl Version (Sept09)                                                                                  150                                
PGRFAMCHA101101063025065258002233Franny's Feet                                     EPS # 24                                                      C23971 1065607ECC                              
PROFAMCHA101101065258065333000035PH-D Promo - PH-D Mall Tour - Traveling Birthday B                                                                          150                                
PROFAMCHA101101065333065358000025Handy Manny - PH-D - Ola - This Morning @ 7:50 (Ju                                                                          150                                
PROFAMCHA101101065358065458000100Special Agent OSO Theme Song Music Vid - Weekday M                                                                          150                                
PROFAMCHA101101065458065513000015PH-D Short Throw -Generic #1 (Something Special Co                                                                          150                                
PGRFAMCHA101101065513065813000300PH-D Short - Dance A Lot Robot - 02 - The Race Car                                                                     60688120                                
PRCFAMCHA101101065813065843000030Benjamin Bear - PH-D - Teddy Hoe Down - New Ep. Fr                                                                          150                                
PROFAMCHA101101065843065913000030PH-D - Show Throw - Mickey Mouse Clubhouse #8 - Oo                                                                          150                                
PROFAMCHA101101065913065958000045PH-D Promo - Hola! Handy Manny Overall - Fri Morn                                                                           150                                
PROFAMCHA101101065958070008000010PH-D EOB ID - Undersea (Sept09)                                                                                             150                                
PGRFAMCHA101101070008072411002403Disney's Mickey Mouse Clubhouse                   EP: 16                                                               6068605ACC                              
ID FAMCHA101101072411072417000006Astral ID REVISED (Oct 2010)                                                                                                150                                
PROFAMCHA101101072417072452000035PH-D Promo - Disney On Ice Contest (Nov 1 - Jan 30                                                                          150                                
PROFAMCHA101101072452072507000015PH-D - Show Throw - Mickey Mouse Clubhouse #2- Ooh                                                                          150                                
PROFAMCHA101101072507072517000010PH-D EOB ID - Bubbles - Laughter (Sept09)                                                                                   150                                
PGRFAMCHA101101072517074923002406Disney's Mickey Mouse Clubhouse                   EP: 24                                                               6068605ACC                              
PROFAMCHA101101074923074958000035PH-D Promo - PH-D's 3rd Birthday - Saturday Nov 13                                                                          150                                
PROFAMCHA101101074958075028000030Imagination Movers - PH-D - Generic - This Morning                                                                          150                                
PROFAMCHA101101075028075058000030PH-D - Show Throw - Handy Manny #8 - Ooh & Aah (Se                                                                          150                                
PROFAMCHA101101075058075108000010PH-D EOB ID - Stage (Sept09)                                                                                                150                                
PGRFAMCHA101101075108081508002400Handy Manny                                       EP: 16                                                               6068605ACC                              
ID FAMCHA101101081508081514000006Astral ID REVISED (Oct 2010)                                                                                                150                                
PROFAMCHA101101081514081549000035PH-D Promo - PH-D's 3rd Birthday - Saturday Nov 13                                                                          150                                
PROFAMCHA101101081549081639000050Feld Entertainment                                                                                                          150                                
PROFAMCHA101101081639081709000030Imagination MoversS2 Promo#2 Warehouse Fav - Weekd                                                                          150                                
PROFAMCHA101101081709081744000035Franny's Feet - PH-D - Sweetie - This Morning at 9                                                                          150                                
PROFAMCHA101101081744081759000015PH-D - Show Throw - Handy Manny #2 - Ooh & Aah (Se                                                                          150                                
PROFAMCHA101101081759081809000010PH-D EOB ID - Field (Sept09)                                                                                                150                                
PGRFAMCHA101101081809084209002400Handy Manny                                       EP: 29                                                               6068605ACC                              
PROFAMCHA101101084209084222000013PH-D Promo - PH-D Let's Dance CD Bumper (Nov 1 - 8                                                                          150                                
PROFAMCHA101101084222084257000035PH-D Promo - PH-D Mall Tour - Traveling Birthday B                                                                          150                                
PROFAMCHA101101084257084325000028Special Agent OSO - PH-D - Friendship Sell - This                                                                           150                                
PRCFAMCHA101101084325084355000030Benjamin Bear - PH-D - Teddy Hoe Down - New Ep. Fr                                                                          150                                
PROFAMCHA101101084355084425000030PH-D - Show Throw - Imagination Movers #2- Ooh & A                                                                          150                                
PROFAMCHA101101084425084455000030PH-D Promo - PH-D On Demand OTT REV Oct2010 - PH-D                                                                          150                                
PROFAMCHA101101084455084505000010PH-D EOB ID - Marina (Sept09)                                                                                               150                                
PGRFAMCHA101101084505090838002333Disney Imagination Movers                         EP: 11                                                               6068605ACC                              
ID FAMCHA101101090838090844000006Astral ID REVISED (Oct 2010)                                                                                                150                                
PROFAMCHA101101090844090857000013PH-D Promo - PH-D Let's Dance CD Bumper (Nov 1 - 8                                                                          150                                
PROFAMCHA101101090857090927000030PH-D Promo - PH-D HM BCJ MMCH Numbers DVD Contest                                                                           150                                
PROFAMCHA101101090927091042000115Special Agent OSO Theme Song Sellpost - Weekday Mo                                                                          150                                
PROFAMCHA101101091042091102000020PH-D - Show Throw - CAN Franny's Feet #2- Ooh & Aa                                                                          150                                
PROFAMCHA101101091102091112000010PH-D EOB ID - Kaleidoscope # 05 (Sept09)                                                                                    150                                
PGRFAMCHA101101091112093343002231Franny's Feet                                     EPS # 36                                                      C23971 1065607ECC                              
PROFAMCHA101101093343093413000030PH-D Promo - PH-D On Demand OTT REV Oct2010 - PH-D                                                                          150                                
PROFAMCHA101101093413093458000045Mickey Mouse Clubhouse - PH-D - Refresh - This Mor                                                                          150                                
PROFAMCHA101101093458093523000025Handy Manny - PH-D - Ola - Weekday Mornings @ 10:3                                                                          150                                
PROFAMCHA101101093523093608000045Franny's Feet - PH-D - Perfet 10 - Tomorrow Mornin                                                                          150                                
PROFAMCHA101101093608093623000015PH-D - Show Throw - Special Agent Oso # 7 - Ooh &                                                                           150                                
PROFAMCHA101101093623093708000045PH-D Promo - Hola! Handy Manny Overall - Fri Morn                                                                           150                                
PROFAMCHA101101093708093718000010PH-D EOB ID - Jungle (Sept09)                                                                                               150                                
PGRFAMCHA101101093718100123002405Special Agent Oso                                 EP: 23                                                               6068605ACC                              
ID FAMCHA101101100123100129000006Astral ID REVISED (Oct 2010)                                                                                                150                                
PROFAMCHA101101100129100142000013PH-D Promo - PH-D Let's Dance CD Bumper (Nov 1 - 8                                                                          150                                
PROFAMCHA101101100142100212000030PH-D Promo - PH-D HM BCJ MMCH Numbers DVD Contest                                                                           150                                
PROFAMCHA101101100212100242000030Handy Manny - PH-D - Helping Friends Generic - Thi                                                                          150                                
PRCFAMCHA101101100242100312000030Benjamin Bear - PH-D - Teddy Hoe Down - New Ep. Fr                                                                          150                                
PROFAMCHA101101100312100342000030PH-D - Show Throw - Mickey Mouse Clubhouse #01- Oo                                                                          150                                
PROFAMCHA101101100342100417000035PH-D Promo - Disney On Ice Contest (Nov 1 - Jan 30                                                                          150                                
PROFAMCHA101101100417100427000010PH-D EOB ID - City - Boy Version (Sept09)                                                                                   150                                
PGRFAMCHA101101100427102833002406Disney's Mickey Mouse Clubhouse                   EP: 23                                                               6068605ACC                              
PROFAMCHA101101102833102846000013PH-D Promo - PH-D Let's Dance CD Bumper (Nov 1 - 8                                                                          150                                
PROFAMCHA101101102846102946000100Special Agent OSO Theme Song Music Vid - Weekday M                                                                          150                                
PROFAMCHA101101102946103016000030PH-D - Show Throw - Handy Manny #10 - Ooh & Aah (S                                                                          150                                
PROFAMCHA101101103016103026000010PH-D EOB ID - Sky (Sept09)                                                                                                  150                                
PGRFAMCHA101101103026105430002404Handy Manny                                       EP: 04                                                               6068605ACC                              
ID FAMCHA101101105430105436000006Astral ID REVISED (Oct 2010)                                                                                                150                                
PRCFAMCHA101101105436105508000032Wingin' It Extra Content @ Family.ca (Sept 17 - No                                                                          150                                
PROFAMCHA101101105508105518000010Kellogg's                                                                                                                   150                                
PROFAMCHA101101105518105541000023Wizards of Waverly Place HARPER (NS) This Afternoo                                                                          150                                
PROFAMCHA101101105541105600000019Hannah Montana (NS) Hoedown Adults - New Episode W                                                                          150                                
PRCFAMCHA101101105600105730000130Movie Entertainment (8)                                                                                                     150                                
PROFAMCHA101101105730105815000045Sonny With A Chance MADE UP SHOW Retag (NSW) - New                                                                          150                                
PROFAMCHA101101105815105851000036Dadnapped Promo - Sunday Afternoon @ 1:30pm (FEB09                                                                          150                                
PROFAMCHA101101105851105923000032Suite Life of Z & C (NS) Coming Up Next (JULY09)                                                                            150                                
PROFAMCHA101101105923110003000040EPIC Friday Night Stunt - Friday Nov 12th Starting                                                                          150                                
PROFAMCHA101101110003110019000016Nonstop Block Open (:16-:18) APR06                                                                                          150                                
PGRFAMCHA101101110019112257002238The Suite Life of Zack and Cody                   EP: 21                                                               6068607BCC                              
PROFAMCHA101101112257112309000012NS - 02 - SUITE LIFE OF Z&C/WOWP @ 12:00 (:11-:13)                                                                          150                                
PROFAMCHA101101112309112327000018Really Big Birth-days Cutdown - Go To Family.ca (A                                                                          150                                
PROFAMCHA101101112327112422000055Paramount Pictures                                                                                                          150                                
PROFAMCHA101101112422112447000025Wizards of Waverly Place HOODIE (NS) This Afternoo                                                                          150                                
PGRFAMCHA101101112447112702000215Time I - Part 1 - Biked in a Multiple Sclerosis Ri                                                                     60288120                                
PRCFAMCHA101101112702112708000006Family Bumpers - (Phase 2 F/W 04) - Gymnastics (MD                                                                          150                                
PROFAMCHA101101112708112808000100Pair of Kings - Premise (NSW) - New Episode Saturd                                                                          150                                
PROFAMCHA101101112808112853000045PH-D Out Of Block - MMCH Refresh - Weekday Morning                                                                          150                                
PROFAMCHA101101112853112938000045Walt Disney Studios Home Entertainment                                                                                      150                                
PROFAMCHA101101112938113012000034Suite Life of Z & C (NS) RHYMING - Coming Up Next                                                                           150                                
PRCFAMCHA101101113012113020000008NS Bumper - Dodgeball (:07-:09) APR06                                                                                       150                                
ID FAMCHA101101113020113026000006Magic of Disney - NS/NSW/PB - Wipe (:06-:09)                                                                                150                                
PGRFAMCHA101101113026115305002239The Suite Life of Zack and Cody                   EP: 03                                                               6068607BCC                              
ID FAMCHA101101115305115311000006Astral ID REVISED (Oct 2010)                                                                                                150                                
PROFAMCHA101101115311115323000012NS - 03 - WOWP/HANNAH MONTANA @ 12:30 (:11-:13) (O                                                                          150                                
PROFAMCHA101101115323115355000032Shake It Up - Tease - Premiering Friday Nov 12 @ 6                                                                          150                                
PROFAMCHA101101115355115410000015EZ-2 Make                                                                                                                   150                                
PROFAMCHA101101115410115444000034Hannah Montana (NS) Robbie - Weekday Afternoons @                                                                           150                                
PROFAMCHA101101115444115518000034Recess - BELL (NS) - Weekday Afternoons @ 1:30pm (                                                                          150                                
PGRFAMCHA101101115518115648000130MV Disney - (MD/NS/NSW) - Jesse McCartney - Just S                                                                     60688120                                
PROFAMCHA101101115648115720000032Suite Life on Deck CODY & BAILEY Retags (NS) - New                                                                          150                                
PROFAMCHA101101115720115750000030Wizards of Waverly Place METRIC SYSTEM (NS) Coming                                                                          150                                
PROFAMCHA101101115750115835000045Walt Disney Studios Home Entertainment                                                                                      150                                
PROFAMCHA101101115835120002000127Avalon High Trailer - PP - Premieres Friday Nov 12                                                                          150                                
PRCFAMCHA101101120002120015000013NS Bumper - Fashion (:12-:14) JUNE06                                                                                        150                                
PGRFAMCHA101101120015120744000729Disney Wizards of Waverly Place                   EP: 21                                                               6068607BCC                              
PGRFAMCHA101101120744121247000503Disney Wizards of Waverly Place                   EP: 21                                                               6068607BCC                              
PGRFAMCHA101101121247121722000435Disney Wizards of Waverly Place                   EP: 21                                                               6068607BCC                              
PGRFAMCHA101101121722122245000523Disney Wizards of Waverly Place                   EP: 21                                                               6068607BCC                              
PROFAMCHA101101122245122257000012NS - 04 - HANNAH MONTANA/CORY @ 1:00 (:11-:13) (Oc                                                                          150                                
PROFAMCHA101101122257122357000100Camp Rock 2 What's What - Premieres Friday Night @                                                                          150                                
PROFAMCHA101101122357122430000033Replacements (NS) IMAGINE - Weekday Afternoons @ 2                                                                          150                                
PRCFAMCHA101101122430122503000033Life W D (NS) Undercover - Weekday Afternoons @ 3                                                                           150                                
PGRFAMCHA101101122503122833000330MV Disney - (MD/NS/NSW) - Jesse McCartney - Just S                                                                     20688120                                
PROFAMCHA101101122833122903000030Fish Hooks - Tease (NSW) - New Episode Sunday Morn                                                                          150                                
PROFAMCHA101101122903122937000034PH-D Out Of Block - Handy Manny "Kelly" - Saturday                                                                          150                                
PROFAMCHA101101122937122957000020Hannah Montana (NS) Wig Off - Coming Up Next (Jan1                                                                          150                                
PRCFAMCHA101101122957123013000016NS Bumper - Tennis (:15-:17) APR06                                                                                          150                                
PGRFAMCHA101101123013123344000331Hannah Montana                                    EP: 15                                                               6068807BCC                              
PGRFAMCHA101101123344124041000657Hannah Montana                                    EP: 15                                                               6068807BCC                              
PGRFAMCHA101101124041125206001125Hannah Montana                                    EP: 15                                                               6068807BCC                              
PGRFAMCHA101101125206125243000037Hannah Montana                                    EP: 15                                                               6068807BCC                              
ID FAMCHA101101125243125249000006Astral ID REVISED (Oct 2010)                                                                                                150                                
PROFAMCHA101101125249125301000012NS - 05 - CORY/ RECESS @ 1:30 (:11-:13) (Oct09)                                                                             150                                
PRCFAMCHA101101125301125337000036FOD - Family Online On Demand - Go to Family.ca/On                                                                          150                                
PROFAMCHA101101125337125411000034Recess - BELL (NS) - This Afternoon @ 1:30pm (June                                                                          150                                
PROFAMCHA101101125411125444000033Replacements (NS) IMAGINE - Weekday Afternoons @ 2                                                                          150                                
PROFAMCHA101101125444125514000030I'm In The Band - BTS Tripp Retag (NS) - Tonight @                                                                          150                                
PGRFAMCHA101101125514125844000330MV Disney - (MD/NS/NSW) - Jesse McCartney - Just S                                                                     60688120                                
PROFAMCHA101101125844125903000019Hannah Montana (NS) Hoedown Adults - New Episode W                                                                          150                                
PROFAMCHA101101125903125920000017JONAS L.A. "Pool" (NS) - Friday Nights @ 6:30 (Jul                                                                          150                                
PROFAMCHA101101125920125950000030Sonny With A Chance TAWNITOWN Retag (NSW) - New Ep                                                                          150                                
PROFAMCHA101101125950130004000014Cory In The House (NS) CORY - Coming Up Next (JUNE                                                                          150                                
PRCFAMCHA101101130004130013000009NS Bumper - Dodgeball (:07-:09) APR06                                                                                       150                                
PGRFAMCHA101101130013130254000241Disney Cory in the House                          EP: 06                                                               6068607BCC                              
PGRFAMCHA101101130254131003000709Disney Cory in the House                          EP: 06                                                               6068607BCC                              
PGRFAMCHA101101131003132107001104Disney Cory in the House                          EP: 06                                                               6068607BCC                              
PGRFAMCHA101101132107132243000136Disney Cory in the House                          EP: 06                                                               6068607BCC                              
PROFAMCHA101101132243132255000012NS - 06 - RECESS/ THE REPLACEMENTS @ 2:00 (:11-:13                                                                          150                                
PROFAMCHA101101132255132328000033Replacements (NS) IMAGINE - This Afternoon @ 2:00p                                                                          150                                
PROFAMCHA101101132328132403000035Kellogg's                                                                                                                   150                                
PROFAMCHA101101132403132439000036Ned's DSSG (NS) School Tour - Weekday Afternoons @                                                                          150                                
PGRFAMCHA101101132439132709000230MV Disney - (MD/NS/NSW) - Jesse McCartney - Just S                                                                     20688120                                
PROFAMCHA101101132709132749000040Phineas & Ferb - PERRY - (NS) Weekday Afternoons @                                                                          150                                
PROFAMCHA101101132749132849000100Pair of Kings - Premise (NSW) - New Episode Saturd                                                                          150                                
PROFAMCHA101101132849132934000045PH-D Out of Block - Hola! Handy Manny Overall - Fr                                                                          150                                
PROFAMCHA101101132934133008000034Recess - BELL (NS) - Coming Up Next (June2010)                                                                              150                                
PRCFAMCHA101101133008133021000013NS Bumper - Fashion (:12-:14) JUNE06                                                                                        150                                
PGRFAMCHA101101133021135257002236Disney's Recess                                   EP: 05                                                               6068607ECC                              
ID FAMCHA101101135257135303000006Astral ID REVISED (Oct 2010)                                                                                                150                                
PROFAMCHA101101135303135314000011NS - 07 - THE REPLACEMENTS/ NED'S @ 2:30 (:11-:13)                                                                          150                                
PROFAMCHA101101135314135414000100Camp Rock 2 What's What - Premieres Friday Night @                                                                          150                                
PROFAMCHA101101135414135459000045Walt Disney Studios Home Entertainment                                                                                      150                                
PROFAMCHA101101135459135535000036Ned's DSSG (NS) School Tour - This Afternoon @ 2:3                                                                          150                                
PRCFAMCHA101101135535135608000033Life W D (NS) Undercover - Weekday Afternoons @ 3                                                                           150                                
PRCFAMCHA101101135608135738000130Movie Entertainment (8)                                                                                                     150                                
PROFAMCHA101101135738135812000034Suite Life of Z & C (NS) Refresh - This Afternoon                                                                           150                                
PROFAMCHA101101135812135848000036Dadnapped Promo - Sunday Afternoon @ 1:30pm (FEB09                                                                          150                                
PROFAMCHA101101135848135933000045Disney Interative                                                                                                           150                                
PROFAMCHA101101135933140006000033Replacements (NS) IMAGINE - Coming Up Next (June20                                                                          150                                
PRCFAMCHA101101140006140021000015NS Bumper - Tennis (:15-:17) APR06                                                                                          150                                
PGRFAMCHA101101140021142300002239The Replacements                                  EP: 09                                                               2068607ECC                              
PROFAMCHA101101142300142312000012NS - 08 - NED'S/ LIFE WITH DEREK @ 3:00 (:11-:13)                                                                           150                                
PRCFAMCHA101101142312142344000032Wingin' It Extra Content @ Family.ca (Sept 17 - No                                                                          150                                
PROFAMCHA101101142344142434000050Walt Disney Studios Home Entertainment                                                                                      150                                
PROFAMCHA101101142434142506000032Suite Life of Z & C (NS) RHYMING - This Afternoon                                                                           150                                
PGRFAMCHA101101142506142706000200MV Disney - (MD/NS/NSW) - Jesse McCartney - Just S                                                                     60688120                                
PROFAMCHA101101142706142803000057Phineas & Ferb - ADVENTURES - (NS) Weekday Afterno                                                                          150                                
PROFAMCHA101101142803142848000045PH-D Out Of Block - MMCH Refresh - Every Morning @                                                                          150                                
PROFAMCHA101101142848142931000043Ned's DSSG (NS) Too Cool for School  - Coming Up N                                                                          150                                
PROFAMCHA101101142931143011000040EPIC Friday Night Stunt - Friday Nov 12th Starting                                                                          150                                
PRCFAMCHA101101143011143018000007NS Bumper - Dodgeball (:07-:09) APR06                                                                                       150                                
PGRFAMCHA101101143018143058000040Ned's Declassified School Survival Guide          EP: 51                                                               2068807BCC                              
PGRFAMCHA101101143058144223001125Ned's Declassified School Survival Guide          EP: 51                                                               2068807BCC                              
PGRFAMCHA101101144223145354001131Ned's Declassified School Survival Guide          EP: 51                                                               2068807BCC                              
PGRFAMCHA101101145354145434000040Ned's Declassified School Survival Guide          EP: 51                                                               2068807BCC                              
ID FAMCHA101101145434145440000006Astral ID REVISED (Oct 2010)                                                                                                150                                
PROFAMCHA101101145440145452000012NS - 09 - LIFE WITH DEREK/ SUITE LIFE OF Z&C @ 3:3                                                                          150                                
PROFAMCHA101101145452145524000032Shake It Up - Tease - Premiering Friday Nov 12 @ 6                                                                          150                                
PROFAMCHA101101145524145544000020Crayola                                                                                                                     150                                
PROFAMCHA101101145544145618000034Suite Life of Z & C (NS) Refresh - This Afternoon                                                                           150                                
PROFAMCHA101101145618145650000032Phineas & Ferb (NS) STOP WATCH Retags - Weekday Af                                                                          150                                
PROFAMCHA101101145650145703000013Family Bumpers - (Phase 2 F/W 04) - Leaves (NS/NSW                                                                          150                                
PRCFAMCHA101101145703145833000130Movie Entertainment (8)                                                                                                     150                                
PROFAMCHA101101145833145856000023Wizards of Waverly Place HARPER (NS) This afternoo                                                                          150                                
PROFAMCHA101101145856145933000037Elephant Princess (NSW)  - New Episode Sunday Nigh                                                                          150                                
PRCFAMCHA101101145933150006000033Life W D (NS) Undercover - Coming Up Next (May2010                                                                          150                                
PRCFAMCHA101101150006150018000012NS Bumper - Fashion (:12-:14) JUNE06                                                                                        150                                
PGRFAMCHA101101150018152248002230Life With Derek                                   EP: 15                                                        C24891 1065607BCC                              
PROFAMCHA101101152248152300000012NS - 10 - SUITE LIFE OF Z&C/ PHINEAS @ 4:00 (:11-:                                                                          150                                
PROFAMCHA101101152300152427000127Avalon High Trailer - PP - Premieres Friday Nov 12                                                                          150                                
PROFAMCHA101101152427152512000045Walt Disney Studios Home Entertainment                                                                                      150                                
PROFAMCHA101101152512152539000027Phineas & Ferb - TRAPS - (NS) Weekday Afternoons @                                                                          150                                
PROFAMCHA101101152539152559000020Hannah Montana (NS) Wig Off Retag - Tonight @ 5:30                                                                          150                                
PROFAMCHA101101152559152649000050Nintendo                                                                                                                    150                                
PROFAMCHA101101152649152717000028I'm In The Band - BTS Weasels Retag (NS) - Mon to                                                                           150                                
PROFAMCHA101101152717152802000045Good Luck Charlie DUNCAN DANCE (NS) - Friday Night                                                                          150                                
PROFAMCHA101101152802152849000047Fish Hooks - High School (NSW) - New Episode Sunda                                                                          150                                
PROFAMCHA101101152849152934000045Walt Disney Studios Home Entertainment                                                                                      150                                
PROFAMCHA101101152934153004000030Suite Life of Z & C (NS) Season 3 Generic - Coming                                                                          150                                
PRCFAMCHA101101153004153020000016NS Bumper - Tennis (:15-:17) APR06                                                                                          150                                
ID FAMCHA101101153020153028000008Magic of Disney - NS/NSW/PB - Shape (:06-:09)                                                                               150                                
PGRFAMCHA101101153028155240002212The Suite Life of Zack and Cody                   EP: 12                                                               6068607BCC                              
ID FAMCHA101101155240155246000006Astral ID REVISED (Oct 2010)                                                                                                150                                
PROFAMCHA101101155246155304000018Really Big Birth-days Cutdown - Go To Family.ca (A                                                                          150                                
PROFAMCHA101101155304155349000045Nintendo                                                                                                                    150                                
PROFAMCHA101101155349155408000019Hannah Montana (NS) Hoedown Adults - Monday to Thu                                                                          150                                
PGRFAMCHA101101155408155508000100MV Disney - (MD/NS/NSW) - Jesse McCartney - Just S                                                                     60688120                                
PROFAMCHA101101155508155553000045Sonny With A Chance MADE UP SHOW (NS) - Tonight @                                                                           150                                
PROFAMCHA101101155553155633000040Spin Master                                                                                                                 150                                
PROFAMCHA101101155633155718000045Suite Life on Deck KETTLECORN Retags (NS) - New Ep                                                                          150                                
PROFAMCHA101101155718155754000036Dadnapped Promo - Sunday Afternoon @ 1:30pm (FEB09                                                                          150                                
PROFAMCHA101101155754155823000029Phineas & Ferb (NS) FREAK OUT Coming Up Next (OCT0                                                                          150                                
PROFAMCHA101101155823155913000050Nintendo                                                                                                                    150                                
PROFAMCHA101101155913160013000100Camp Rock 2 What's What - Premieres Friday Night @                                                                          150                                
PRCFAMCHA101101160013160020000007NS Bumper - Dodgeball (:07-:09) APR06                                                                                       150                                
PGRFAMCHA101101160020162252002232Disney Phineas & Ferb                             EP: 28                                                               6068607ECC                              
PROFAMCHA101101162252162337000045Walt Disney Studios Home Entertainment                                                                                      150                                
PROFAMCHA101101162337162400000023Wizards of Waverly Place HARPER (NS) This afternoo                                                                          150                                
PROFAMCHA101101162400162408000008Family Bumpers - (NSW) Logan Miller -Im in the Ban                                                                          150                                
PROFAMCHA101101162408162440000032Suite Life on Deck CODY & BAILEY Retags (NS) - Ton                                                                          150                                
PROFAMCHA101101162440162535000055Paramount Pictures                                                                                                          150                                
PROFAMCHA101101162535162552000017Sonny With A Chance WEATHER Retag (NS) - Mon -Thur                                                                          150                                
PGRFAMCHA101101162552162822000230MV Disney - (MD/NS/NSW) - Jesse McCartney - Just S                                                                     20688120                                
PROFAMCHA101101162822162841000019Hannah Montana (NS) Hoedown Adults - New Episode W                                                                          150                                
PROFAMCHA101101162841162931000050Walt Disney Studios Home Entertainment                                                                                      150                                
PROFAMCHA101101162931163003000032Phineas & Ferb (NS) STOP WATCH - Coming Up Next (A                                                                          150                                
PRCFAMCHA101101163003163017000014NS Bumper - Fashion (:12-:14) JUNE06                                                                                        150                                
PGRFAMCHA101101163017163113000056Disney Phineas & Ferb                             EP: 03                                                               6068607ECC                              
PGRFAMCHA101101163113164210001057Disney Phineas & Ferb                             EP: 03                                                               6068607ECC                              
PGRFAMCHA101101164210165217001007Disney Phineas & Ferb                             EP: 03                                                               6068607ECC                              
PGRFAMCHA101101165217165247000030Disney Phineas & Ferb                             EP: 03                                                               6068607ECC                              
ID FAMCHA101101165247165253000006Astral ID REVISED (Oct 2010)                                                                                                150                                
PROFAMCHA101101165253165333000040EPIC Friday Night Stunt - Friday Nov 12th Starting                                                                          150                                
PROFAMCHA101101165333165418000045MGA Entertainment                                                                                                           150                                
PROFAMCHA101101165418165437000019Hannah Montana (NS) Hoedown Adults - Monday to Thu                                                                          150                                
PROFAMCHA101101165437165523000046Phineas & Ferb (NS) INSIDE - Tomorrow Afternoon @                                                                           150                                
PROFAMCHA101101165523165555000032Wingin' It Series - Angel Promo (NSW) - Weekend mo                                                                          150                                
PROFAMCHA101101165555165604000009Family Bumpers - Brenda Song - Suite Life on Deck                                                                           150                                
PGRFAMCHA101101165604165734000130MV Disney - (MD/NS/NSW) - Jesse McCartney - Just S                                                                     60688120                                
PROFAMCHA101101165734165804000030Fish Hooks - Tease (NSW) - New Episode Sunday Morn                                                                          150                                
PROFAMCHA101101165804165849000045Sonny With A Chance MADE UP SHOW Retag (NSW) - New                                                                          150                                
PROFAMCHA101101165849165934000045Walt Disney Studios Home Entertainment                                                                                      150                                
PROFAMCHA101101165934165957000023Wizards of Waverly Place HARPER (NS) Coming Up Nex                                                                          150                                
PRCFAMCHA101101165957170014000017NS Bumper - Tennis (:15-:17) APR06                                                                                          150                                
PGRFAMCHA101101170014170412000358Disney Wizards of Waverly Place                   EP: 26                                                               6068607BCC                              
PGRFAMCHA101101170412171336000924Disney Wizards of Waverly Place                   EP: 26                                                               6068607BCC                              
PGRFAMCHA101101171336172118000742Disney Wizards of Waverly Place                   EP: 26                                                               6068607BCC                              
PGRFAMCHA101101172118172246000128Disney Wizards of Waverly Place                   EP: 26                                                               6068607BCC                              
PROFAMCHA101101172246172331000045Suite Life on Deck KETTLECORN Retags (NS) - Tonigh                                                                          150                                
PROFAMCHA101101172331172416000045Disney Interative                                                                                                           150                                
PROFAMCHA101101172416172446000030I'm In The Band - BTS Tripp Retag (NS) - Mon to Th                                                                          150                                
PGRFAMCHA101101172446172616000130MV Disney - (MD/NS/NSW) - Jesse McCartney - Just S                                                                     60688120                                
PRCFAMCHA101101172616172642000026Latest Buzz - SEASON 3 REFRESH (NS) - Tonight @ 9:                                                                          150                                
PROFAMCHA101101172642172737000055Paramount Pictures                                                                                                          150                                
PROFAMCHA101101172737172837000100Pair of Kings - Premise (NSW) - New Episode Saturd                                                                          150                                
PROFAMCHA101101172837172914000037Elephant Princess (NSW)  - New Episode Sunday Nigh                                                                          150                                
PROFAMCHA101101172914173004000050Walt Disney Studios Home Entertainment                                                                                      150                                
PROFAMCHA101101173004173018000014Hannah Montana (NS) IDs - Miley # 2 - Next                                                                                  150                                
PRCFAMCHA101101173018173027000009NS Bumper - Dodgeball (:07-:09) APR06                                                                                       150                                
PGRFAMCHA101101173027173654000627Hannah Montana                                    EP: 13                                                               6068607BCC                              
PGRFAMCHA101101173654174239000545Hannah Montana                                    EP: 13                                                               6068607BCC                              
PGRFAMCHA101101174239174646000407Hannah Montana                                    EP: 13                                                               6068607BCC                              
PGRFAMCHA101101174646175256000610Hannah Montana                                    EP: 13                                                               6068607BCC                              
ID FAMCHA101101175256175302000006Astral ID REVISED (Oct 2010)                                                                                                150                                
PROFAMCHA101101175302175347000045Walt Disney Studios Home Entertainment                                                                                      150                                
PROFAMCHA101101175347175408000021Wizards of Waverly Place LAMP (NS) Tonight @ 6:30p                                                                          150                                
PRCFAMCHA101101175408175538000130Movie Entertainment (8)                                                                                                     150                                
PROFAMCHA101101175538175557000019Hannah Montana (NS) Hoedown Adults - New Episode W                                                                          150                                
PROFAMCHA101101175557175642000045Disney Interative                                                                                                           150                                
PROFAMCHA101101175642175727000045JONAS L.A. "House" (NS) - Friday Nights @ 6:30 (Ju                                                                          150                                
PGRFAMCHA101101175727175827000100MV Disney - (MD/NS/NSW) - Jesse McCartney - Just S                                                                     60688120                                
PROFAMCHA101101175827175844000017Suite Life on Deck SENIORS (NS) - Coming Up Next (                                                                          150                                
PROFAMCHA101101175844175919000035Kellogg's                                                                                                                   150                                
PROFAMCHA101101175919175951000032Shake It Up - Tease - Premiering Friday Nov 12 @ 6                                                                          150                                
PRCFAMCHA101101175951180005000014NS Bumper - Fashion (:12-:14) JUNE06                                                                                        150                                
PGRFAMCHA101101180005180230000225The Suite Life on Deck                            EP: 26                                                               6068607BCC                              
PGRFAMCHA101101180230181421001151The Suite Life on Deck                            EP: 26                                                               6068607BCC                              
PGRFAMCHA101101181421182023000602The Suite Life on Deck                            EP: 26                                                               6068607BCC                              
PGRFAMCHA101101182023182206000143The Suite Life on Deck                            EP: 26                                                               6068607BCC                              
PROFAMCHA101101182206182218000012NS - 16 - WOWP/ SONNY WITH A CHANCE @ 7:00 (:11-:1                                                                          150                                
PROFAMCHA101101182218182318000100Camp Rock 2 What's What - Premieres Friday Night @                                                                          150                                
PROFAMCHA101101182318182338000020Crayola                                                                                                                     150                                
PROFAMCHA101101182338182408000030Sonny With A Chance TAWNITOWN (NS) - Tonight @ 7 (                                                                          150                                
PGRFAMCHA101101182408182638000230MV Disney - (MD/NS/NSW) - Jesse McCartney - Just S                                                                     20688120                                
PROFAMCHA101101182638182710000032Suite Life on Deck CODY & BAILEY Retags (NS) - New                                                                          150                                
PROFAMCHA101101182710182750000040Spin Master                                                                                                                 150                                
PROFAMCHA101101182750182835000045Good Luck Charlie Sibling Sell (NS) - Friday Night                                                                          150                                
PROFAMCHA101101182835182850000015Hannah Montana (NSW) Sweet Nibs - Weekend Mornings                                                                          150                                
PROFAMCHA101101182850182935000045Walt Disney Studios Home Entertainment                                                                                      150                                
PROFAMCHA101101182935182947000012Wizards of Waverrly Place ID - David Henrie #2 - N                                                                          150                                
PRCFAMCHA101101182947183003000016NS Bumper - Tennis (:15-:17) APR06                                                                                          150                                
PGRFAMCHA101101183003185236002233Disney Wizards of Waverly Place                   EP: 12                                                               6068507BCC                              
ID FAMCHA101101185236185242000006Astral ID REVISED (Oct 2010)                                                                                                150                                
PROFAMCHA101101185242185409000127Avalon High Trailer - PP - Premieres Friday Nov 12                                                                          150                                
PROFAMCHA101101185409185454000045Walt Disney Studios Home Entertainment                                                                                      150                                
PROFAMCHA101101185454185514000020Hannah Montana (NS) Wig Off Retag - Monday to Thur                                                                          150                                
PROFAMCHA101101185514185559000045Good Luck Charlie Sibling Sell (NS) - Friday Night                                                                          150                                
PGRFAMCHA101101185559185729000130MV Disney - (MD/NS/NSW) - Jesse McCartney - Just S                                                                     60688120                                
PRCFAMCHA101101185729185742000013Connor Undercover - Lola ID (NS) - New Episode Fri                                                                          150                                
PROFAMCHA101101185742185802000020Zeke & Luther - S2 GENERIC PROMO (NSW) - Weekend A                                                                          150                                
PROFAMCHA101101185802185832000030Fish Hooks - Tease (NSW) - New Episode Sunday Morn                                                                          150                                
PROFAMCHA101101185832185917000045Nintendo                                                                                                                    150                                
PROFAMCHA101101185917185947000030Sonny With A Chance TAWNITOWN (NS) - Coming Up Nex                                                                          150                                
PRCFAMCHA101101185947185956000009NS Bumper - Dodgeball (:07-:09) APR06                                                                                       150                                
PGRFAMCHA101101185956192259002303Sonny With A Chance                               EP: 16                                                               6068607BCC                              
PROFAMCHA101101192259192317000018Really Big Birth-days Cutdown - Go To Family.ca (A                                                                          150                                
PROFAMCHA101101192317192407000050Nintendo                                                                                                                    150                                
PROFAMCHA101101192407192439000032Suite Life on Deck CODY & BAILEY Retags (NS) - Ton                                                                          150                                
PROFAMCHA101101192439192507000028I'm In The Band - BTS Weasels Retag (NS) - Mon to                                                                           150                                
PROFAMCHA101101192507192548000041Majority Rules  (NS) Launch Promo - New Episode Th                                                                          150                                
PROFAMCHA101101192548192643000055Paramount Pictures                                                                                                          150                                
PROFAMCHA101101192643192713000030Wingin' It Series POWER (NSW) - Weekends @ 10am (S                                                                          150                                
PROFAMCHA101101192713192743000030Sonny With A Chance TAWNITOWN Retag (NSW) - New Ep                                                                          150                                
PROFAMCHA101101192743192817000034Hannah Montana (NS) Robbie - Coming Up Next (Jan10                                                                          150                                
PROFAMCHA101101192817192907000050Walt Disney Studios Home Entertainment                                                                                      150                                
PROFAMCHA101101192907192947000040EPIC Friday Night Stunt - Friday Nov 12th Starting                                                                          150                                
PRCFAMCHA101101192947193001000014NS Bumper - Fashion (:12-:14) JUNE06                                                                                        150                                
PGRFAMCHA101101193001193159000158Hannah Montana                                    EP: 10                                                               6068807BCC                              
PGRFAMCHA101101193159194025000826Hannah Montana                                    EP: 10                                                               6068807BCC                              
PGRFAMCHA101101194025195122001057Hannah Montana                                    EP: 10                                                               6068807BCC                              
PGRFAMCHA101101195122195232000110Hannah Montana                                    EP: 10                                                               6068807BCC                              
ID FAMCHA101101195232195238000006Astral ID REVISED (Oct 2010)                                                                                                150                                
PRCFAMCHA101101195238195314000036FOD - Family Online On Demand - Go to Family.ca/On                                                                          150                                
PROFAMCHA101101195314195409000055Paramount Pictures                                                                                                          150                                
PROFAMCHA101101195409195437000028I'm In The Band - BTS Weasels Retag (NS) - Tonight                                                                          150                                
PROFAMCHA101101195437195518000041Majority Rules  (NS) Launch Promo - Tonight @ 9 (S                                                                          150                                
PRCFAMCHA101101195518195648000130Movie Entertainment (8)                                                                                                     150                                
PROFAMCHA101101195648195715000027Phineas & Ferb - TRAPS - (NS) Weekday Afternoons @                                                                          150                                
PROFAMCHA101101195715195734000019Hannah Montana (NS) Hoedown Adults - New Episode W                                                                          150                                
PROFAMCHA101101195734195810000036Dadnapped Promo - Sunday Afternoon @ 1:30pm (FEB09                                                                          150                                
PROFAMCHA101101195810195847000037Elephant Princess (NSW)  - New Episode Sunday Nigh                                                                          150                                
PROFAMCHA101101195847195932000045MGA Entertainment                                                                                                           150                                
PROFAMCHA101101195932195949000017Suite Life on Deck SENIORS (NS) - Coming Up Next (                                                                          150                                
PRCFAMCHA101101195949200004000015NS Bumper - Tennis (:15-:17) APR06                                                                                          150                                
PGRFAMCHA101101200004200125000121The Suite Life on Deck                            EP: 12                                                               6068607BCC                              
PGRFAMCHA101101200125201019000854The Suite Life on Deck                            EP: 12                                                               6068607BCC                              
PGRFAMCHA101101201019202050001031The Suite Life on Deck                            EP: 12                                                               6068607BCC                              
PGRFAMCHA101101202050202149000059The Suite Life on Deck                            EP: 12                                                               6068607BCC                              
PROFAMCHA101101202149202221000032Shake It Up - Tease - Premiering Friday Nov 12 @ 6                                                                          150                                
PROFAMCHA101101202221202236000015EZ-2 Make                                                                                                                   150                                
PROFAMCHA101101202236202317000041Majority Rules  (NS) Launch Promo - Tonight @ 9 (S                                                                          150                                
PROFAMCHA101101202317202402000045Suite Life on Deck KETTLECORN Retags (NS) - New Ep                                                                          150                                
PROFAMCHA101101202402202437000035Kellogg's                                                                                                                   150                                
PRCFAMCHA101101202437202507000030Latest Buzz - LOCO (NS) Monday - Thursday Nights @                                                                          150                                
PGRFAMCHA101101202507202822000315MV Disney - (MD/NS/NSW) - Jesse McCartney - Just S                                                                     20688120                                
PROFAMCHA101101202822202842000020Zeke & Luther - S2 GENERIC PROMO (NSW) - Weekend A                                                                          150                                
PROFAMCHA101101202842202927000045Disney Interative                                                                                                           150                                
PROFAMCHA101101202927202957000030I'm In The Band - BTS Tripp Retag (NS) - Coming Up                                                                          150                                
PRCFAMCHA101101202957203006000009NS Bumper - Dodgeball (:07-:09) APR06                                                                                       150                                
PGRFAMCHA101101203006205209002203I'm In The Band                                   EP: 19                                                               6068607BCC                              
ID FAMCHA101101205209205215000006Astral ID REVISED (Oct 2010)                                                                                                150                                
PROFAMCHA101101205215205305000050Nintendo                                                                                                                    150                                
PROFAMCHA101101205305205335000030Suite Life of Z & C (NS) Season 3 Generic - Tomorr                                                                          150                                
PRCFAMCHA101101205335205348000013Connor Undercover - Max ID (NS) - New Episode Frid                                                                          150                                
PGRFAMCHA101101205348205718000330MV Disney - (MD/NS/NSW) - Jesse McCartney - Just S                                                                     20688120                                
PROFAMCHA101101205718205755000037Elephant Princess (NSW)  - Weekend Nights @ 7:45 (                                                                          150                                
PROFAMCHA101101205755205836000041Majority Rules  (NS) Launch Promo - Coming Up Next                                                                          150                                
PROFAMCHA101101205836205921000045Walt Disney Studios Home Entertainment                                                                                      150                                
PRCFAMCHA101101205921205953000032Wingin' It Extra Content @ Family.ca (Sept 17 - No                                                                          150                                
PRCFAMCHA101101205953210007000014NS Bumper - Fashion (:12-:14) JUNE06                                                                                        150                                
PRCFAMCHA101101210007210016000009DV Bumper 2 - Orange FEB2010                                                                                                150                                
PGRFAMCHA101101210016212146002130Majority Rules                                    EP: 08                                                        C30283 1065607BCD                              
PROFAMCHA101101212146212158000012NS - 22 - LATEST BUZZ/ NED'S DSSG @ 10:00 (:11-:13                                                                          150                                
PROFAMCHA101101212158212258000100Camp Rock 2 What's What - Premieres Friday Night @                                                                          150                                
PROFAMCHA101101212258212353000055Paramount Pictures                                                                                                          150                                
PROFAMCHA101101212353212429000036Ned's DSSG (NS) School Tour - Tonight @ 10 (May201                                                                          150                                
PROFAMCHA101101212429212459000030Aaron Stone (NS) Comedy Sell Retag - Mon - Thurs N                                                                          150                                
PGRFAMCHA101101212459212659000200MV Disney - (MD/NS/NSW) - Jesse McCartney - Just S                                                                     60688120                                
PROFAMCHA101101212659212740000041Majority Rules  (NS) Launch Promo - New Episode Th                                                                          150                                
PROFAMCHA101101212740212840000100Pair of Kings - Premise (NSW) - Weekend Mornings @                                                                          150                                
PRCFAMCHA101101212840212916000036Baxter Generics School Promo (NSW) - Weekend Night                                                                          150                                
PRCFAMCHA101101212916212948000032Latest Buzz - HEADLINES (NS) Coming Up Next (SEPT0                                                                          150                                
PRCFAMCHA101101212948213004000016NS Bumper - Tennis (:15-:17) APR06                                                                                          150                                
PGRFAMCHA101101213004215239002235The Latest Buzz                                   EP: 09                                                        C29140 1065607BCC                              
ID FAMCHA101101215239215245000006Astral ID REVISED (Oct 2010)                                                                                                150                                
PROFAMCHA101101215245215257000012NS - 23 - NED'S DSSG/ Aaron Stone @ 10:30 (:11-:13                                                                          150                                
PROFAMCHA101101215257215424000127Avalon High Trailer - PP - Premieres Friday Nov 12                                                                          150                                
PROFAMCHA101101215424215509000045Good Luck Charlie DUNCAN DANCE (NS) - Friday Night                                                                          150                                
PGRFAMCHA101101215509215754000245MV Disney - (MD/NS/NSW) - Jesse McCartney - Just S                                                                     20688120                                
PROFAMCHA101101215754215841000047Fish Hooks - High School (NSW) - New Episode Sunda                                                                          150                                
PROFAMCHA101101215841215917000036Ned's DSSG (NS) School Tour - Coming Up Next (May2                                                                          150                                
PROFAMCHA101101215917215957000040EPIC Friday Night Stunt - Friday Nov 12th Starting                                                                          150                                
PRCFAMCHA101101215957220005000008NS Bumper - Dodgeball (:07-:09) APR06                                                                                       150                                
PGRFAMCHA101101220005220821000816Ned's Declassified School Survival Guide          EP: 47                                                               2068807BCC                              
PGRFAMCHA101101220821221221000400Ned's Declassified School Survival Guide          EP: 47                                                               2068807BCC                              
PGRFAMCHA101101221221221935000714Ned's Declassified School Survival Guide          EP: 47                                                               2068807BCC                              
PGRFAMCHA101101221935222418000443Ned's Declassified School Survival Guide          EP: 47                                                               2068807BCC                              
PROFAMCHA101101222418222429000011NS - 24 - Aaron Stone/ THAT'S SO RAVEN @ 11:00 (:1                                                                          150                                
PROFAMCHA101101222429222529000100Pair of Kings - Premise (NSW) - New Episode Saturd                                                                          150                                
PROFAMCHA101101222529222552000023Wizards of Waverly Place HARPER (NS) Monday to Thu                                                                          150                                
PROFAMCHA101101222552222628000036Dadnapped Promo - Sunday Afternoon @ 1:30pm (FEB09                                                                          150                                
PRCFAMCHA101101222628222758000130Movie Entertainment (8)                                                                                                     150                                
PROFAMCHA101101222758222835000037Elephant Princess (NSW)  - New Episode Sunday Nigh                                                                          150                                
PROFAMCHA101101222835222920000045PH-D Out of Block - Hola! Handy Manny Overall - Fr                                                                          150                                
PROFAMCHA101101222920222950000030Aaron Stone (NS) JetPack Retag - Coming Up Next (M                                                                          150                                
PRCFAMCHA101101222950223002000012NS Bumper - Fashion (:12-:14) JUNE06                                                                                        150                                
PGRFAMCHA101101223002225233002231Aaron Stone                                       EP: 17                                                               6068707ACC                              
ID FAMCHA101101225233225239000006Astral ID REVISED (Oct 2010)                                                                                                150                                
PROFAMCHA101101225239225251000012NS - 25 - THAT'S SO RAVEN/LIFE WITH DEREK (:11-:13                                                                          150                                
PRCFAMCHA101101225251225327000036FOD - Family Online On Demand - Go to Family.ca/On                                                                          150                                
PRCFAMCHA101101225327225407000040Naturally Sadie - ROMANTIC (NSW) Tonight @ 12:00am                                                                          150                                
PGRFAMCHA101101225407225712000305MV Disney - (MD/NS/NSW) - Jesse McCartney - Just S                                                                     60688120                                
PROFAMCHA101101225712225753000041Majority Rules  (NS) Launch Promo - New Episode Th                                                                          150                                
PROFAMCHA101101225753225847000054That's So Raven FORTUNE TELLER (NS) Coming Up Next                                                                          150                                
PROFAMCHA101101225847225947000100Camp Rock 2 What's What - Premieres Friday Night @                                                                          150                                
PRCFAMCHA101101225947230003000016NS Bumper - Tennis (:15-:17) APR06                                                                                          150                                
ID FAMCHA101101230003230009000006Magic of Disney - NS/NSW/PB - Shape (:06-:09)                                                                               150                                
PGRFAMCHA101101230009230846000837That's So Raven                                   EPS # 1-046                                                          6068607BCC                              
PGRFAMCHA101101230846231347000501That's So Raven                                   EPS # 1-046                                                          6068607BCC                              
PGRFAMCHA101101231347232121000734That's So Raven                                   EPS # 1-046                                                          6068607BCC                              
PGRFAMCHA101101232121232245000124That's So Raven                                   EPS # 1-046                                                          6068607BCC                              
PRCFAMCHA101101232245232257000012NS - 26 - LIFE WITH DEREK/SADIE (:11 - :13) (SEPT0                                                                          150                                
PROFAMCHA101101232257232329000032Shake It Up - Tease - Premiering Friday Nov 12 @ 6                                                                          150                                
PROFAMCHA101101232329232348000019Hannah Montana (NS) Hoedown Adults - New Episode W                                                                          150                                
PGRFAMCHA101101232348232705000317MV Disney - (MD/NS/NSW) - Jesse McCartney - Just S                                                                     20685120                                
PROFAMCHA101101232705232750000045Suite Life on Deck KETTLECORN (NSW) - Weekend Morn                                                                          150                                
PRCFAMCHA101101232750232826000036Baxter Generics School Promo (NSW) - Weekend Night                                                                          150                                
PROFAMCHA101101232826232900000034PH-D Out Of Block - Handy Manny "Kelly" - Weekday                                                                           150                                
PRCFAMCHA101101232900232952000052Life W D (NS) Casey & Derek - Coming Up Next (MAR0                                                                          150                                
PRCFAMCHA101101232952233000000008NS Bumper - Dodgeball (:07-:09) APR06                                                                                       150                                
PGRFAMCHA101101233000235230002230Life with Derek                                   EP: 22                                                        C26822 1065607BCC                              
ID FAMCHA101101235230235236000006Astral ID REVISED (Oct 2010)                                                                                                150                                
PRCFAMCHA101101235236235248000012NS - 27 - SADIE/SADIE (:11 - :13) (SEPT07)                                                                                  150                                
PRCFAMCHA101101235248235320000032Wingin' It Extra Content @ Family.ca (Sept 17 - No                                                                          150                                
PROFAMCHA101101235320235405000045JONAS L.A. "House" (NS) - Friday Nights @ 6:30 (Ju                                                                          150                                
PROFAMCHA101101235405235442000037Elephant Princess (NSW)  - Weekend Nights @ 7:45 (                                                                          150                                
PGRFAMCHA101101235442235812000330MV Disney - (MD/NS/NSW) - Jesse McCartney - Just S                                                                     60688120                                
PROFAMCHA101101235812235844000032Suite Life on Deck CODY & BAILEY Retags (NS) - New                                                                          150                                
PROFAMCHA101101235844235916000032Wingin' It Series - Angel Promo (NSW) - Weekend mo                                                                          150                                
PRCFAMCHA101101235916235956000040Naturally Sadie - ROMANTIC (NS) Coming Up Next (MA                                                                          150                                
PRCFAMCHA101101235956000008000012NS Bumper - Fashion (:12-:14) JUNE06                                                                                        150                                
PGRFAMCHA101101000008002238002230Naturally, Sadie                                  EP: 63                                                        C29639 1065607ACC                              
PRCFAMCHA101101002238002249000011NS - 28 - SADIE/HANNAH (:11 - :13) (SEPT07)                                                                                 150                                
PRCFAMCHA101101002249002302000013Connor Undercover - Lola ID (NS) - New Episode Fri                                                                          150                                
PROFAMCHA101101002302002359000057Phineas & Ferb - ADVENTURES - (NS) Weekday Afterno                                                                          150                                
PROFAMCHA101101002359002419000020Hannah Montana (NS) Wig Off Retag - New Episode We                                                                          150                                
PGRFAMCHA101101002419002747000328MV Disney - (MD/NS/NSW) - Jesse McCartney - Just S                                                                     60688120                                
PROFAMCHA101101002747002832000045Sonny With A Chance MADE UP SHOW Retag (NSW) - New                                                                          150                                
PROFAMCHA101101002832002917000045PH-D Out Of Block - MMCH Refresh - Sunday Morning                                                                           150                                
PRCFAMCHA101101002917002946000029Naturally Sadie - CLIP (NS) Coming Up Next (MARCH0                                                                          150                                
PRCFAMCHA101101002946003001000015NS Bumper - Tennis (:15-:17) APR06                                                                                          150                                
PGRFAMCHA101101003001005231002230Naturally, Sadie                                  EP: 34                                                        C25428 1065607ACC                              
ID FAMCHA101101005231005237000006Astral ID REVISED (Oct 2010)                                                                                                150                                
PRCFAMCHA101101005237005249000012NS - 29 - HANNAH/CORY (:11 - :13) (OCT08)                                                                                   150                                
PROFAMCHA101101005249005312000023Wizards of Waverly Place HARPER (NS) Tomorrow Afte                                                                          150                                
PROFAMCHA101101005312005353000041Majority Rules  (NS) Launch Promo - Monday to Thur                                                                          150                                
PROFAMCHA101101005353005453000100Pair of Kings - Premise (NSW) - New Episode Saturd                                                                          150                                
PGRFAMCHA101101005453005831000338MV Disney - (MD/NS/NSW) - Jesse McCartney - Just S                                                                     20688120                                
PROFAMCHA101101005831005918000047Fish Hooks - High School (NSW) - New Episode Sunda                                                                          150                                
PROFAMCHA101101005918005952000034Hannah Montana (NS) Robbie - Coming Up Next (Jan10                                                                          150                                
PRCFAMCHA101101005952010000000008NS Bumper - Dodgeball (:07-:09) APR06                                                                                       150                                
PGRFAMCHA101101010000010555000555Hannah Montana                                    EP: 10                                                               6068607BCC                              
PGRFAMCHA101101010555011221000626Hannah Montana                                    EP: 10                                                               6068607BCC                              
PGRFAMCHA101101011221011711000450Hannah Montana                                    EP: 10                                                               6068607BCC                              
PGRFAMCHA101101011711012214000503Hannah Montana                                    EP: 10                                                               6068607BCC                              
PRCFAMCHA101101012214012226000012NS - 30 - CORY/PHIL (:11 - :13) (OCT08)                                                                                     150                                
PRCFAMCHA101101012226012238000012NS Bumper - Fashion (:12-:14) JUNE06                                                                                        150                                
PGRFAMCHA101101012238012819000541Disney Cory in the House                          EP: 01                                                               6068607BCC                              
PGRFAMCHA101101012819013340000521Disney Cory in the House                          EP: 01                                                               6068607BCC                              
PGRFAMCHA101101013340014320000940Disney Cory in the House                          EP: 01                                                               6068607BCC                              
PGRFAMCHA101101014320014508000148Disney Cory in the House                          EP: 01                                                               6068607BCC                              
ID FAMCHA101101014508014514000006Astral ID REVISED (Oct 2010)                                                                                                150                                
PRCFAMCHA101101014514014526000012NS - 31 - PHIL/LIZZIE (:11 - :13) (OCT08)                                                                                   150                                
PRCFAMCHA101101014526014541000015NS Bumper - Tennis (:15-:17) APR06                                                                                          150                                
ID FAMCHA101101014541014547000006Magic of Disney - NS/NSW/PB - Shape (:06-:09)                                                                               150                                
PGRFAMCHA101101014547014817000230Phil of the Future                                EP: 37                                                               6068607BCC                              
PGRFAMCHA101101014817015442000625Phil of the Future                                EP: 37                                                               6068607BCC                              
PGRFAMCHA101101015442020748001306Phil of the Future                                EP: 37                                                               6068607BCC                              
PGRFAMCHA101101020748020820000032Phil of the Future                                EP: 37                                                               6068607BCC                              
PRCFAMCHA101101020820020831000011NS - 32 - LIZZIE/LIFE WITH DEREK (:11 - :13) (OCT0                                                                          150                                
PRCFAMCHA101101020831020838000007NS Bumper - Dodgeball (:07-:09) APR06                                                                                       150                                
ID FAMCHA101101020838020844000006Magic of Disney - NS/NSW/PB - Wipe (:06-:09)                                                                                150                                
PGRFAMCHA101101020844023118002234Lizzie McGuire                                    EPS # 2-027                                                          6068607BCC                              
ID FAMCHA101101023118023124000006Astral ID REVISED (Oct 2010)                                                                                                150                                
PRCFAMCHA101101023124023136000012NS - 33 - LIFE WITH DEREK/CORY IN THE HOUSE (:11 -                                                                          150                                
PRCFAMCHA101101023136023149000013NS Bumper - Fashion (:12-:14) JUNE06                                                                                        150                                
PGRFAMCHA101101023149025419002230Life with Derek                                   EP: 16                                                        C26679A1065607BCC                              
PRCFAMCHA101101025419025431000012NS - 34 - CORY IN THE HOUSE/RAVEN (:11 - :13) (SEP                                                                          150                                
PRCFAMCHA101101025431025447000016NS Bumper - Tennis (:15-:17) APR06                                                                                          150                                
PGRFAMCHA101101025447025708000221Disney Cory in the House                          EP: 15                                                               6068607BCC                              
PGRFAMCHA101101025708030552000844Disney Cory in the House                          EP: 15                                                               6068607BCC                              
PGRFAMCHA101101030552031556001004Disney Cory in the House                          EP: 15                                                               6068607BCC                              
PGRFAMCHA101101031556031723000127Disney Cory in the House                          EP: 15                                                               6068607BCC                              
ID FAMCHA101101031723031729000006Astral ID REVISED (Oct 2010)                                                                                                150                                
PRCFAMCHA101101031729031741000012NS - 35 - RAVEN/ SUITE LIFE (:11 - :13) (SEPT07)                                                                            150                                
PRCFAMCHA101101031741031749000008NS Bumper - Dodgeball (:07-:09) APR06                                                                                       150                                
ID FAMCHA101101031749031755000006Magic of Disney - NS/NSW/PB - Shape (:06-:09)                                                                               150                                
PGRFAMCHA101101031755032043000248That's So Raven                                   EPS # 1-032                                                          6068607BCC                              
PGRFAMCHA101101032043032620000537That's So Raven                                   EPS # 1-032                                                          6068607BCC                              
PGRFAMCHA101101032620033911001251That's So Raven                                   EPS # 1-032                                                          6068607BCC                              
PGRFAMCHA101101033911034018000107That's So Raven                                   EPS # 1-032                                                          6068607BCC                              
PRCFAMCHA101101034018034030000012NS - 36 - SUITE LIFE/LIFE WITH DEREK (:11 - :13) (                                                                          150                                
PRCFAMCHA101101034030034043000013NS Bumper - Fashion (:12-:14) JUNE06                                                                                        150                                
ID FAMCHA101101034043034050000007Magic of Disney - NS/NSW/PB - Wipe (:06-:09)                                                                                150                                
PGRFAMCHA101101034050034306000216The Suite Life of Zack and Cody                   EP: 04                                                               6068607BCC                              
