SO FAMCHA030601043000043011000011Sign On (oct 1)                                                                                                                                                
PROFAMCHA030601043011043020000009CC Disclaimer - FAST - Generic (:08-:10)                                                                                    150                                
PGRFAMCHA030601043020045313002253Franklin                                          Franklin Goes To School/Franklin Is Lost                      B10182A1065607ECC                              
PROFAMCHA030601045313045327000014NSW - 01(PH) - ART/KATIE/FRANKLIN (:13-:16)                                                                                 150                                
OFFFAMCHA030601045327045340000013PS Playhouse Block Open (:10-:15)                                                                                                                              
PGRFAMCHA030601045340050830001450Art Attack                                        1-113                                                                60686110                                
PROFAMCHA030601050830050844000014NSW - 02(PH) - KATIE/FRANKLIN/RIPLEY (:13-:16)                                                                              150                                
PRCFAMCHA030601050844050922000038Katie & Orbie (HIBERNATE) - Coming Up                                                                                       150                                
INTFAMCHA030601050922051200000238MV Disney - We Are One (LION KING 2) Animated air                                                                      60688120                                
PRCFAMCHA030601051200051248000048New Adv WTP (FOREST) - Tomorrow @ 10:10am                                                                                   150                                
OFFFAMCHA030601051248051300000012PS Playhouse Block Open (:10-:15)                                                                                                                              
PROFAMCHA030601051300051309000009CC Disclaimer - FAST - Family (:08-:10)                                                                                     150                                
PGRFAMCHA030601051309053949002640Katie And Orbie                                   New Bike/Sorry/Tooth Fairy                                    C19664A1065607ECC                              
PROFAMCHA030601053949054003000014NSW - 03(PG) - FRANKLIN/RIPLEY/PRWF (:13-:16)                                                                               150                                
OFFFAMCHA030601054003054016000013PS Playground Block Open (:10-:15) *DNU POST AUG 1                                                                                                             
PROFAMCHA030601054016054025000009CC Disclaimer - FAST - Family.ca (:08-:10)                                                                                  150                                
PGRFAMCHA030601054025060318002253Franklin                                          Franklin Has A Sleepover/Franklin's Halloween                 B10183A1065607ECC                              
PROFAMCHA030601060318060330000012NSW - 04(PG) - RIPLEY/PRWF (:10-:13)                                                                                        150                                
PRCFAMCHA030601060330060347000017Hoze Houndz (RUNNING) - Tomorrow @ 6:30am                                                                                   150                                
OFFFAMCHA030601060347060400000013PS Playground Block Open (:10-:15) *DNU POST AUG 1                                                                                                             
PROFAMCHA030601060400060409000009CC Disclaimer - FAST - Generic (:08-:10)                                                                                    150                                
PGRFAMCHA030601060409062839002430Ripley's Believe It Or Not!                       A Dragon's Lullaby                                            B71298 1065607ECC                              
PROFAMCHA030601062839062853000014NSW - 05(PB-SUN)- PRWF/PRNS/SMART (:13-:16)                                                                                 150                                
PROFAMCHA030601062853062923000030PR Ninja Storm - Today @ 7am                                                                                                150                                
PROFAMCHA030601062923062947000024Boy Meets World (GYROSCOPE) - Today @ 10:15am                                                                               150                                
OFFFAMCHA030601062947063000000013Power Box Block Open (:10-:15)                                                                                                                                 
PGRFAMCHA030601063000065128002128Power Rangers Wild Force                          Reinforcements From The Future, Part 1                              A6068607E                                
PROFAMCHA030601065128065142000014NSW - 06(PB-SUN)- PRNS/SMART/LIZZIE (:13-:16)                                                                               150                                
PROFAMCHA030601065142065212000030Weekend Double Pix Promo - Today @ 12pm                                                                                     150                                
PRCFAMCHA030601065212065222000010Certo Family Jammin' Bumper                                                                                                 150                                
INTFAMCHA030601065222065600000338Art Attack - Family At Beach                                                                                           60686120                                
PROFAMCHA030601065600065630000030PR Ninja Storm - Coming Up                                                                                                  150                                
INTFAMCHA030601065630065800000130Klootz - Bad For The Ego #47                                                                                          A10658120                                
PROFAMCHA030601065800065837000037Kim Possible (RON THE MAN) - Today @ 4:35pm                                                                                 150                                
PROFAMCHA030601065837065937000100Amanda Show (UNDERPANTS) - Today @ 8:30am                                                                                   150                                
OFFFAMCHA030601065937065950000013Power Box Block Open (:10-:15)                                                                                                                                 
PROFAMCHA030601065950070000000010PR Ninja Storm Web Throw                                                                                                    150                                
PGRFAMCHA030601070000072125002125Power Rangers Ninja Storm                         Return of Thunder, Part 2                                           A6068607E                                
PROFAMCHA030601072125072135000010PR Ninja Storm Web Throw                                                                                                    150                                
PROFAMCHA030601072135072149000014NSW - 07 - SMART/LIZZIE/AMANDA (:13-:16)                                                                                    150                                
PROFAMCHA030601072149072219000030Weekend Double Pix Promo - Today @ 12pm                                                                                     150                                
PRCFAMCHA030601072219072229000010Certo Family Jammin' Bumper                                                                                                 150                                
PROFAMCHA030601072229072259000030Smart Guy (BRAINY) - Coming Up                                                                                              150                                
PROFAMCHA030601072259072355000056Boy Meets World (MOM) - Today @ 10:15am                                                                                     150                                
INTFAMCHA030601072355072837000442Art Attack - Bi-Plane II                                                                                               60686120                                
PROFAMCHA030601072837072900000023Proud Family (HERO) - Today @ 4:10pm                                                                                        150                                
PROFAMCHA030601072900072930000030Even Stevens (NEW) - Today @ 9:30am                                                                                         150                                
OFFFAMCHA030601072930072945000015Nonstop Weekend Block Open (:10-:15)                                                                                                                           
PRCFAMCHA030601072945073000000015ARGOS' Bullying Bumper                                                                                                      150                                
PROFAMCHA030601073000073009000009CC Disclaimer - FAST - Family.ca (:08-:10)                                                                                  150                                
PGRFAMCHA030601073009075237002228Smart Guy                                         Below The Rim                                                       A6068807BCC                              
PROFAMCHA030601075237075251000014NSW - 08 - LIZZIE/AMANDA/ALL (:13-:16)                                                                                      150                                
PROFAMCHA030601075251075321000030Weekend Double Pix Promo - Today @ 12pm                                                                                     150                                
PRCFAMCHA030601075321075331000010Certo Family Jammin' Bumper                                                                                                 150                                
PROFAMCHA030601075331075347000016Lizzie McGuire (MONEY TREE) - Coming Up (NSW)                                                                               150                                
PROFAMCHA030601075347075417000030All That (NEW) - Today @ 9am                                                                                                150                                
INTFAMCHA030601075417075818000401Art Attack - Scary Dragon                                                                                              60686120                                
PROFAMCHA030601075818075855000037Kim Possible (RON THE MAN) - Today @ 4:35pm                                                                                 150                                
PROFAMCHA030601075855075925000030xxSunday Sideshow (RULES) - Today, Starting @ 5pm                                                                           150                                
OFFFAMCHA030601075925075937000012Nonstop Weekend Block Open (:10-:15)                                                                                                                           
PRCFAMCHA030601075937075952000015ARGOS' Bullying Bumper                                                                                                      150                                
ID FAMCHA030601075952080000000008Magic of Disney - NS/NSW/PB - Wipe (:06-:09)                                                                                150                                
PGRFAMCHA030601080000082234002234Lizzie McGuire                                    Between A Rock & A Bra Place                                        A6068607B                                
PROFAMCHA030601082234082248000014NSW - 09 - AMANDA/ALL/EVEN (:13-:16)                                                                                        150                                
PROFAMCHA030601082248082318000030Weekend Double Pix Promo - Today @ 12pm                                                                                     150                                
PRCFAMCHA030601082318082328000010Certo Family Jammin' Bumper                                                                                                 150                                
INTFAMCHA030601082328082728000400Movie Surfers Lizzie McGuire Movie *DNU*                                                                               60688120                                
PROFAMCHA030601082728082809000041Amanda Show (KYLE) - Coming Up                                                                                              150                                
PROFAMCHA030601082809082839000030Even Stevens (NEW) - Today @ 9:30am                                                                                         150                                
PROFAMCHA030601082839082902000023Proud Family (HERO) - Today @ 4:10pm                                                                                        150                                
PRCFAMCHA030601082902082932000030Family Kicks Contest/Event Promo - UNTIL JUNE 5TH                                                                           150                                
OFFFAMCHA030601082932082945000013Nonstop Weekend Block Open (:10-:15)                                                                                                                           
PRCFAMCHA030601082945083000000015ARGOS' Bullying Bumper                                                                                                      150                                
PGRFAMCHA030601083000085154002154Amanda Show; The                                  2-032                                                               A20686090                                
PROFAMCHA030601085154085209000015NSW - 10 - ALL/EVEN/JERSEY (:13-:16)                                                                                        150                                
PROFAMCHA030601085209085239000030Weekend Double Pix Promo - Today @ 12pm                                                                                     150                                
PRCFAMCHA030601085239085249000010Certo Family Jammin' Bumper                                                                                                 150                                
PROFAMCHA030601085249085319000030Even Stevens (NEW) - Today @ 9:30am                                                                                         150                                
PROFAMCHA030601085319085329000010FAMJAM - Open                                                                                                               150                                
INTFAMCHA030601085329085720000351MV Disney - Miracles Happen (MYRA)                                                                                     60688120                                
PROFAMCHA030601085720085734000014FAMJAM - Close (FAMILY)                                                                                                     150                                
PROFAMCHA030601085734085830000056Boy Meets World (MOM) - Today @ 10:15am                                                                                     150                                
PROFAMCHA030601085830085900000030All That (NEW) - Coming Up (9:00AM-NSW)                                                                                     150                                
PROFAMCHA030601085900085930000030You Wish - Today @ 11:35am                                                                                                  150                                
OFFFAMCHA030601085930085945000015Nonstop Weekend Block Open (:10-:15)                                                                                                                           
PRCFAMCHA030601085945090000000015ARGOS' Bullying Bumper                                                                                                      150                                
PGRFAMCHA030601090000092000002000All That                                          837                                                                 A20686090                                
PROFAMCHA030601092000092014000014NSW - 11 - EVEN/JERSEY/BMW (:13-:16)                                                                                        150                                
PROFAMCHA030601092014092044000030Weekend Double Pix Promo - Today @ 12pm                                                                                     150                                
PROFAMCHA030601092044092107000023Proud Family (HERO) - Today @ 4:10pm                                                                                        150                                
PRCFAMCHA030601092107092117000010Certo Family Jammin' Bumper                                                                                                 150                                
PROFAMCHA030601092117092127000010FAMJAM - Open                                                                                                               150                                
INTFAMCHA030601092127092504000337MV Disney - Supergirl (KRYSTAL MARIE HARRIS)                                                                           60688120                                
PROFAMCHA030601092504092518000014FAMJAM - Close (FAMILY)                                                                                                     150                                
PROFAMCHA030601092518092555000037Kim Possible (RON THE MAN) - Today @ 4:35pm                                                                                 150                                
INTFAMCHA030601092555092725000130Klootz - Leapfrog Island #44                                                                                          A10658120                                
PROFAMCHA030601092725092755000030Kim Possible (BOSSY) - Today @ 4:35pm                                                                                       150                                
PROFAMCHA030601092755092825000030xxSunday Sideshow (RULES) - Today, Starting @ 5pm                                                                           150                                
OFFFAMCHA030601092825092838000013Nonstop Weekend Block Open (:10-:15)                                                                                                                           
PRCFAMCHA030601092838092853000015ARGOS' Bullying Bumper                                                                                                      150                                
ID FAMCHA030601092853092900000007Magic of Disney - NS/NSW/PB - Wipe (:06-:09)                                                                                150                                
PROFAMCHA030601092900092909000009CC Disclaimer - FAST - Family.ca (:08-:10)                                                                                  150                                
PGRFAMCHA030601092909095141002232Even Stevens                                      The King Sloppy                                                     A6068807BCC                              
PROFAMCHA030601095141095155000014NSW - 12 - JERSEY/BMW/SMART (:13-:16)                                                                                       150                                
PRCFAMCHA030601095155095225000030Family Kicks Contest/Event Promo - UNTIL JUNE 5TH                                                                           150                                
PROFAMCHA030601095225095255000030Weekend Double Pix Promo - Today @ 12pm                                                                                     150                                
PRCFAMCHA030601095255095305000010Certo Family Jammin' Bumper                                                                                                 150                                
PROFAMCHA030601095305095335000030Recess (NEW) - Tomorrow @ 12:15pm                                                                                           150                                
PROFAMCHA030601095335095354000019Nonstop Weekend - LIZZIE MCGUIRE - Lenny                                                                                    150                                
PROFAMCHA030601095354095424000030That's So Raven - Today @ 5:25pm                                                                                            150                                
OFFFAMCHA030601095424095437000013Nonstop Weekend Block Open (:10-:15)                                                                                                                           
PRCFAMCHA030601095437095452000015ARGOS' Bullying Bumper                                                                                                      150                                
ID FAMCHA030601095452095500000008Magic of Disney - NS/NSW/PB - Shape (:06-:09)                                                                               150                                
PROFAMCHA030601095500095509000009CC Disclaimer - FAST - Family.ca (:08-:10)                                                                                  150                                
PGRFAMCHA030601095509101739002230Jersey; The                                       Sophmore Year                                                        6068607ACC                              
PROFAMCHA030601101739101753000014NSW - 13 - BMW/SMART/TEEN (:13-:16)                                                                                         150                                
PROFAMCHA030601101753101823000030Weekend Double Pix Promo - Today @ 12pm                                                                                     150                                
PRCFAMCHA030601101823101833000010Certo Family Jammin' Bumper                                                                                                 150                                
PROFAMCHA030601101833101903000030Kim Possible (BOSSY) - Today @ 4:35pm                                                                                       150                                
PROFAMCHA030601101903101933000030xxSunday Sideshow (RULES) - Today, Starting @ 5pm                                                                           150                                
OFFFAMCHA030601101933101945000012Nonstop Weekend Block Open (:10-:15)                                                                                                                           
PRCFAMCHA030601101945102000000015ARGOS' Bullying Bumper                                                                                                      150                                
PROFAMCHA030601102000102009000009CC Disclaimer - FAST - Generic (:08-:10)                                                                                    150                                
PGRFAMCHA030601102009104202002153Boy Meets World                                   A Long Walk To Pittsburgh, Part 2                                   B6068807BCC                              
PROFAMCHA030601104202104216000014NSW - 14 - SMART/TEEN/YOU (:13-:16)                                                                                         150                                
PROFAMCHA030601104216104246000030Weekend Double Pix Promo - Today @ 12pm                                                                                     150                                
PRCFAMCHA030601104246104256000010Certo Family Jammin' Bumper                                                                                                 150                                
PRCFAMCHA030601104256104326000030Family Popcorn Parties                                                                                                      150                                
PROFAMCHA030601104326104342000016Nonstop Weekend - HOUSE OF MOUSE - Me, Myself & I                                                                           150                                
PROFAMCHA030601104342104412000030That's So Raven - Today @ 5:25pm                                                                                            150                                
PROFAMCHA030601104412104435000023Proud Family (HERO) - Today @ 4:10pm                                                                                        150                                
OFFFAMCHA030601104435104445000010Nonstop Weekend Block Open (:10-:15)                                                                                                                           
PRCFAMCHA030601104445104500000015ARGOS' Bullying Bumper                                                                                                      150                                
PROFAMCHA030601104500104509000009CC Disclaimer - FAST - Family (:08-:10)                                                                                     150                                
PGRFAMCHA030601104509110737002228Smart Guy                                         Primary Brothers                                                    A6068807BCC                              
PROFAMCHA030601110737110751000014NSW - 15 - TEEN/YOU/D-PIX (:13-:16)                                                                                         150                                
PRCFAMCHA030601110751110821000030Family Kicks Contest/Event Promo - UNTIL JUNE 5TH                                                                           150                                
PROFAMCHA030601110821110851000030Weekend Double Pix Promo - Today @ 12pm                                                                                     150                                
PRCFAMCHA030601110851110901000010Certo Family Jammin' Bumper                                                                                                 150                                
PROFAMCHA030601110901110931000030That's So Raven - Today @ 5:25pm                                                                                            150                                
OFFFAMCHA030601110931110945000014Nonstop Weekend Block Open (:10-:15)                                                                                                                           
PRCFAMCHA030601110945111000000015ARGOS' Bullying Bumper                                                                                                      150                                
PROFAMCHA030601111000111009000009CC Disclaimer - FAST - Generic (:08-:10)                                                                                    150                                
PGRFAMCHA030601111009113201002152Teen Angel                                        Grumpy Young Men                                                    A6068807BCC                              
PROFAMCHA030601113201113213000012NSW - 16 - YOU/D-PIX (:10-:13)                                                                                              150                                
PROFAMCHA030601113213113243000030Weekend Double Pix Promo - Today @ 12pm                                                                                     150                                
PRCFAMCHA030601113243113253000010Certo Family Jammin' Bumper                                                                                                 150                                
PROFAMCHA030601113253113323000030You Wish - Coming Up                                                                                                        150                                
PRCFAMCHA030601113323113353000030Family Popcorn Parties                                                                                                      150                                
PROFAMCHA030601113353113432000039Power Box (WEEKDAYS) - Tomorrow, Starting @ 7am                                                                             150                                
OFFFAMCHA030601113432113445000013Nonstop Weekend Block Open (:10-:15)                                                                                                                           
PRCFAMCHA030601113445113500000015ARGOS' Bullying Bumper                                                                                                      150                                
PROFAMCHA030601113500113509000009CC Disclaimer - FAST - Family (:08-:10)                                                                                     150                                
PGRFAMCHA030601113509115620002111You Wish                                          The Big Ride                                                        A6068807BCC                              
PROFAMCHA030601115620115630000010NSW - 17 - DOUBLE PIX 1 (:08-:11)                                                                                           150                                
PROFAMCHA030601115630115700000030xxSunday Sideshow (RULES) - Today, Starting @ 5pm                                                                           150                                
PROFAMCHA030601115700115730000030Out To Lunch Block Promo - Today @ 11:50am                                                                                  150                                
PRCFAMCHA030601115730115800000030@ The Movies - Tonight @ 8:45pm                                                                                             150                                
PROFAMCHA030601115800115833000033Nonstop Weekend - ART ATTACK - Beach                                                                                        150                                
PROFAMCHA030601115833115903000030xxSunday Sideshow (RULES) - Lizzie @ 5pm                                                                                    150                                
PROFAMCHA030601115903115933000030Weekend Double Pix Promo - Coming Up                                                                                        150                                
OFFFAMCHA030601115933115945000012Weekend Double Pix Movie Open (:10-:15)                                                                                                                        
PRCFAMCHA030601115945120000000015ARGOS' Bullying Bumper                                                                                                      150                                
PRCFAMCHA030601120000120009000009Rating - PG - Ian (:08-:10)                                                                                                 150                                
PROFAMCHA030601120009120018000009CC Disclaimer - FAST - Family (:08-:10)                                                                                     150                                
ID FAMCHA030601120018120026000008Magic of Disney - PIX - Wipe (:06-:09)                                                                                      150                                
PGRFAMCHA030601120026133329013303Mark Twain And Me                                                                                                     B6068807CCC                              
PROFAMCHA030601133329133339000010NSW - 18 - DOUBLE PIX 2 (:08-:11)                                                                                           150                                
OFFFAMCHA030601133339133352000013Weekend Double Pix Movie Open (:10-:15)                                                                                                                        
PRCFAMCHA030601133352133407000015ARGOS' Bullying Bumper                                                                                                      150                                
PRCFAMCHA030601133407133416000009Rating - PG - Ian (:08-:10)                                                                                                 150                                
PGRFAMCHA030601133416150809013353Caddyshack II                                                                                                         B2068807D                                
PROFAMCHA030601150809150823000014NSW - 19 - ART/TEAMO/HOM (:13-:16)                                                                                          150                                
OFFFAMCHA030601150823150836000013Nonstop Weekend Block Open (:10-:15)                                                                                                                           
PRCFAMCHA030601150836150851000015ARGOS' Bullying Bumper                                                                                                      150                                
PGRFAMCHA030601150851152402001511Art Attack                                        1-023                                                                60686110                                
PROFAMCHA030601152402152416000014NSW - 20 - TEAMO/HOM/PROUD (:13-:16)                                                                                        150                                
OFFFAMCHA030601152416152429000013Nonstop Weekend Block Open (:10-:15)                                                                                                                           
PRCFAMCHA030601152429152444000015ARGOS' Bullying Bumper                                                                                                      150                                
PROFAMCHA030601152444152453000009CC Disclaimer - FAST - Family.ca (:08-:10)                                                                                  150                                
PGRFAMCHA030601152453154751002258Disney's Teamo Supremo                            Appetite for...Dessert/It's Crandall's Birthday Ba                  A6068607ECC                              
PROFAMCHA030601154751154805000014NSW - 21 - HOM/PROUD/KIM (:13-:16)                                                                                          150                                
PRCFAMCHA030601154805154835000030Family Popcorn Parties                                                                                                      150                                
OFFFAMCHA030601154835154848000013Nonstop Weekend Block Open (:10-:15)                                                                                                                           
PRCFAMCHA030601154848154903000015ARGOS' Bullying Bumper                                                                                                      150                                
PGRFAMCHA030601154903161140002237Disney's House Of Mouse                           House of Magic                                                      A6068607E                                
PROFAMCHA030601161140161154000014NSW - 22 - PROUD/KIM/LIZZIE (:13-:16)                                                                                       150                                
PRCFAMCHA030601161154161232000038Henry's World (RACE) - Tonight @ 7:05pm                                                                                     150                                
OFFFAMCHA030601161232161245000013Nonstop Weekend Block Open (:10-:15)                                                                                                                           
PRCFAMCHA030601161245161300000015ARGOS' Bullying Bumper                                                                                                      150                                
PROFAMCHA030601161300161309000009CC Disclaimer - FAST - Family (:08-:10)                                                                                     150                                
PGRFAMCHA030601161309163546002237Proud Family; The                                 Pulp Boot Camp                                                      A6028807ECC                              
PROFAMCHA030601163546163600000014NSW - 23 - KIM/LIZZIE/RAVEN (:13-:16)                                                                                       150                                
PROFAMCHA030601163600163630000030xxSunday Sideshow (RULES) - Lizzie @ 5pm                                                                                    150                                
PRCFAMCHA030601163630163700000030Family Popcorn Parties                                                                                                      150                                
PROFAMCHA030601163700163730000030Kim Possible (BOSSY) - Coming Up                                                                                            150                                
OFFFAMCHA030601163730163745000015Nonstop Weekend Block Open (:10-:15)                                                                                                                           
PRCFAMCHA030601163745163800000015ARGOS' Bullying Bumper                                                                                                      150                                
PGRFAMCHA030601163800170051002251Disney's Kim Possible                             Coach Possible                                                      A6068607E                                
PROFAMCHA030601170051170105000014NSW - 24(SUN) - LIZZIE/RAVEN/YOU (:13-:16)                                                                                  150                                
PROFAMCHA030601170105170135000030xxSunday Sideshow (RULES) - Coming Up (LIZZIE)                                                                              150                                
PROFAMCHA030601170135170154000019Nonstop Weekend - LIZZIE MCGUIRE - Pyramid                                                                                  150                                
PROFAMCHA030601170154170224000030All That (NEW) - Weeknights @ 6:30pm                                                                                        150                                
OFFFAMCHA030601170224170237000013Nonstop Weekend Block Open (:10-:15)                                                                                                                           
PRCFAMCHA030601170237170252000015ARGOS' Bullying Bumper                                                                                                      150                                
ID FAMCHA030601170252170300000008Magic of Disney - NS/NSW/PB - Shape (:06-:09)                                                                               150                                
PGRFAMCHA030601170300172535002235Lizzie McGuire                                    Random Acts of Miranda                                              A6068607B                                
PROFAMCHA030601172535172549000014NSW - 25(SUN) - RAVEN/YOU/HOZE (:13-:16)                                                                                    150                                
PRCFAMCHA030601172549172619000030Family Kicks Contest/Event Promo - UNTIL JUNE 5TH                                                                           150                                
PROFAMCHA030601172619172649000030Nightly Pix Block Promo - Tonight @ 9pm                                                                                     150                                
PROFAMCHA030601172649172733000044Nonstop Weekend - LIZZIE MCGUIRE - Fountain                                                                                 150                                
OFFFAMCHA030601172733172745000012Nonstop Weekend Block Open (:10-:15)                                                                                                                           
PRCFAMCHA030601172745172800000015ARGOS' Bullying Bumper                                                                                                      150                                
PROFAMCHA030601172800172809000009CC Disclaimer - FAST - Family.ca (:08-:10)                                                                                  150                                
PGRFAMCHA030601172809175009002200That's So Raven                                   Separation Anxiety                                                  A6028807BCC                              
PROFAMCHA030601175009175023000014NSW - 26(SUN) - YOU/HOZE/FRANKLIN (:13-:16)                                                                                 150                                
PROFAMCHA030601175023175053000030Even Stevens (NEW) - Weeknights @ 7pm                                                                                       150                                
PROFAMCHA030601175053175132000039Power Box (WEEKDAYS) - Weekdays, Starting @ 7am                                                                             150                                
PRCFAMCHA030601175132175202000030Family Popcorn Parties                                                                                                      150                                
PROFAMCHA030601175202175232000030Nightly Pix Block Promo - Tonight @ 9pm                                                                                     150                                
OFFFAMCHA030601175232175245000013Nonstop Weekend Block Open (:10-:15)                                                                                                                           
PRCFAMCHA030601175245175300000015ARGOS' Bullying Bumper                                                                                                      150                                
PROFAMCHA030601175300175309000009CC Disclaimer - FAST - Generic (:08-:10)                                                                                    150                                
PGRFAMCHA030601175309181420002111You Wish                                          The Big Ride                                                        A6068807BCC                              
PROFAMCHA030601181420181433000013NSW - 27 - HOZE/FRANKLIN/HENRY (:13-:16)                                                                                    150                                
PRCFAMCHA030601181433181513000040Hoze Houndz (PIRATES) - Coming Up (NSW)                                                                                     150                                
PROFAMCHA030601181513181612000059Nonstop Weekend - EVEN STEVENS - Faking                                                                                     150                                
PRCFAMCHA030601181612181650000038Henry's World (RACE) - Tonight @ 7:05pm                                                                                     150                                
OFFFAMCHA030601181650181700000010Nonstop Weekend Block Open (:10-:15)                                                                                                                           
PROFAMCHA030601181700181709000009CC Disclaimer - FAST - Family (:08-:10)                                                                                     150                                
PGRFAMCHA030601181709183944002235Hoze Houndz                                       Ghost in the Machine/Savage Steamer                           B17121A1065607ECC                              
PROFAMCHA030601183944183958000014NSW - 28 - FRANKLIN/HENRY/JETT (:13-:16)                                                                                    150                                
PRCFAMCHA030601183958184033000035Franklin (CANOE) - Coming Up                                                                                                150                                
PROFAMCHA030601184033184108000035Nonstop Weekend - AMANDA SHOW - Basketballs                                                                                 150                                
PRCFAMCHA030601184108184146000038Henry's World (RACE) - Tonight @ 7:05pm                                                                                     150                                
OFFFAMCHA030601184146184200000014Nonstop Weekend Block Open (:10-:15)                                                                                                                           
PROFAMCHA030601184200184209000009CC Disclaimer - FAST - Family.ca (:08-:10)                                                                                  150                                
PGRFAMCHA030601184209190502002253Franklin                                          Franklin and the Bus Patrol/Franklin and Wolvie               A53203A1065607ECC                              
PROFAMCHA030601190502190516000014NSW - 29(SUN) - HENRY/JETT/YBB (:13-:16)                                                                                    150                                
PRCFAMCHA030601190516190558000042Henry's World (GERMS) - Coming Up                                                                                           150                                
PROFAMCHA030601190558190617000019Nonstop Weekend - HOUSE OF MOUSE - Dwarves Locked                                                                           150                                
PROFAMCHA030601190617190647000030Out To Lunch Block Promo - Tomorrow @ 11:50am                                                                               150                                
OFFFAMCHA030601190647190700000013Nonstop Weekend Block Open (:10-:15)                                                                                                                           
PROFAMCHA030601190700190709000009CC Disclaimer - FAST - Generic (:08-:10)                                                                                    150                                
PGRFAMCHA030601190709193058002349Henry's World                                     My Gorilla Is Bigger Than Yours/Whither Weather               B66547A1065607GCC                              
PROFAMCHA030601193058193112000014NSW - 30(SUN) - JETT/YBB/@MOVIES (:13-:16)                                                                                  150                                
PROFAMCHA030601193112193142000030Nightly Pix Block Promo - Tonight @ 9pm                                                                                     150                                
PROFAMCHA030601193142193201000019Nonstop Weekend - EVEN STEVENS - Locker                                                                                     150                                
PROFAMCHA030601193201193231000030Even Stevens (NEW) - Weeknights @ 7pm                                                                                       150                                
OFFFAMCHA030601193231193245000014Nonstop Weekend Block Open (:10-:15)                                                                                                                           
PRCFAMCHA030601193245193300000015ARGOS' Bullying Bumper                                                                                                      150                                
PROFAMCHA030601193300193309000009CC Disclaimer - FAST - Family (:08-:10)                                                                                     150                                
PGRFAMCHA030601193309195742002433Famous Jett Jackson; The                          Behind The Scenes                                             B57130 1065607ACC                              
PROFAMCHA030601195742195756000014NSW - 31(SUN)- YBB/@MOVIES/N-PIX1 (:13-:16)                                                                                 150                                
PROFAMCHA030601195756195826000030Nightly Pix Block Promo - Tonight @ 9pm                                                                                     150                                
PRCFAMCHA030601195826195856000030@ The Movies - Tonight @ 8:45pm                                                                                             150                                
PROFAMCHA030601195856195933000037Amanda Show (CLEAN) - Tonight @ 6pm                                                                                         150                                
OFFFAMCHA030601195933195945000012Nonstop Weekend Block Open (:10-:15)                                                                                                                           
PRCFAMCHA030601195945200000000015ARGOS' Bullying Bumper                                                                                                      150                                
PGRFAMCHA030601200000204316004316Your Big Break                                    2-005                                                               A60688090                                
ID FAMCHA030601204316204321000005Astral "A Network Of" Logo - English Animation                                                                              150                                
PROFAMCHA030601204321204333000012NSW - 32(SUN)- @MOVIES/N-PIX1 (:10-:13)                                                                                     150                                
PROFAMCHA030601204333204432000059Boy Meets World (DANCE) - Monday to Thursday @ 8pm                                                                          150                                
OFFFAMCHA030601204432204445000013Nonstop Weekend Block Open (:10-:15)                                                                                                                           
PRCFAMCHA030601204445204500000015ARGOS' Bullying Bumper                                                                                                      150                                
PGRFAMCHA030601204500210100001600@ The Movies (2)                                                                                                      A10628150                                
ID FAMCHA030601210100210105000005Astral "A Network Of" Logo - English Animation                                                                              150                                
PROFAMCHA030601210105210115000010Nightly Pix Line-up - 04 - DRAMA (:08-:11)                                                                                  150                                
ID FAMCHA030601210115210128000013Nightly Pix Movie Open (:10-:15)                                                                                            150                                
PRCFAMCHA030601210128210143000015ARGOS' Bullying Bumper                                                                                                      150                                
PRCFAMCHA030601210143210152000009Rating - PG - Ian (:08-:10)                                                                                                 150                                
PROFAMCHA030601210152210201000009CC Disclaimer - FAST - Family (:08-:10)                                                                                     150                                
PGRFAMCHA030601210201224039013838Marvin's Room                                                                                                         B2028807ECC                              
ID FAMCHA030601224039224042000003Astral "A Network Of" Logo - English Animation                                                                              150                                
PROFAMCHA030601224042224056000014NSW - 33(SUN)- @MOVIES/N-PIX2/AMAZING (:13-:16)                                                                             150                                
OFFFAMCHA030601224056224109000013Nonstop Weekend Block Open (:10-:15)                                                                                                                           
PGRFAMCHA030601224109225709001600@ The Movies (2)                                                                                                      A10628150                                
ID FAMCHA030601225709225712000003Astral "A Network Of" Logo - English Animation                                                                              150                                
PROFAMCHA030601225712225722000010Nightly Pix Line-up - 01 - GENERIC1 (:08-:11)                                                                               150                                
ID FAMCHA030601225722225735000013Nightly Pix Movie Open (:10-:15)                                                                                            150                                
PRCFAMCHA030601225735225744000009Rating - AA - Ian (:08-:10)                                                                                                 150                                
PROFAMCHA030601225744225753000009CC Disclaimer - FAST - Family.ca (:08-:10)                                                                                  150                                
PGRFAMCHA030601225753005223015430Year of Living Dangerously; The                                                                                       C2068807DCC                              
ID FAMCHA030601005223005226000003Astral "A Network Of" Logo - English Animation                                                                              150                                
PROFAMCHA030601005226005238000012NSW - 34 - AMAZING/DARK (:10-:13)                                                                                           150                                
OFFFAMCHA030601005238005251000013Nonstop Weekend Block Open (:10-:15)                                                                                                                           
PGRFAMCHA030601005251011721002430Amazing Stories                                   Grandpa's Ghost                                                     A2068807A                                
ID FAMCHA030601011721011724000003Astral "A Network Of" Logo - English Animation                                                                              150                                
PROFAMCHA030601011724011734000010NSW - 35 - DARK (:08-:11)                                                                                                   150                                
OFFFAMCHA030601011734011747000013Nonstop Weekend Block Open (:10-:15)                                                                                                                           
PGRFAMCHA030601011747014221002434Are You Afraid Of The Dark?                       The Tale of the Long Ago Locket                               SR0305 1066807A                                
SO FAMCHA030601014221014233000012Sign Off (oct 1)                                                                                                                                               
OFFFAMCHA030601014233043000024727                                                                                                                                                               
SO FAMCHA030602043000043011000011Sign On (oct 1)                                                                                                                                                
PROFAMCHA030602043011043020000009CC Disclaimer - FAST - Generic (:08-:10)                                                                                    150                                
PGRFAMCHA030602043020045313002253Franklin                                          Franklin Rides A Bike/Franklin Is Messy                       B10184A1065607ECC                              
PROFAMCHA030602045313045326000013Preschool - 01(PH) - ART/KATIE/FRANKLIN (:13-:16)                                                                           150                                
OFFFAMCHA030602045326045336000010PS Playhouse Block Open (:10-:15)                                                                                                                              
PGRFAMCHA030602045336050837001501Art Attack                                        1-114                                                                60686110                                
PROFAMCHA030602050837050850000013Preschool - 02(PH) - KATIE/FRANKLIN/RIPLEY (:13-:1                                                                          150                                
PRCFAMCHA030602050850050928000038Katie & Orbie (CLAY) - Coming Up                                                                                            150                                
INTFAMCHA030602050928051200000232MV Disney - With A Few Good Friends (CARLY SIMON)                                                                      60688120                                
PROFAMCHA030602051200051219000019Playhouse - FRANKLIN - Party                                                                                                150                                
PRCFAMCHA030602051219051251000032Elmo's World (LEAP FROG) - Today @ 8:55am                                                                                   150                                
OFFFAMCHA030602051251051301000010PS Playhouse Block Open (:10-:15)                                                                                                                              
PROFAMCHA030602051301051309000008CC Disclaimer - FAST - Family (:08-:10)                                                                                     150                                
PGRFAMCHA030602051309053950002641Katie And Orbie                                   In Kyra's Pocket/Sandbox/Yee Ping's Appendix                  C19664A1065607ECC                              
PROFAMCHA030602053950054003000013Preschool - 03(PH) - FRANKLIN/RIPLEY/HOZE (:13-:16                                                                          150                                
OFFFAMCHA030602054003054013000010PS Playhouse Block Open (:10-:15)                                                                                                                              
PROFAMCHA030602054013054022000009CC Disclaimer - FAST - Family.ca (:08-:10)                                                                                  150                                
PGRFAMCHA030602054022060315002253Franklin                                          Franklin Fibs/Franklin's Blanket                              B10185A1065607ECC                              
PROFAMCHA030602060315060329000014Preschool - 04(PG) - RIPLEY/HOZE/BUZZ (:13-:16)                                                                             150                                
PROFAMCHA030602060329060347000018Playground - BUZZ LIGHTYEAR - Martians                                                                                      150                                
OFFFAMCHA030602060347060400000013PS Playground Block Open (:10-:15) *DNU POST AUG 1                                                                                                             
PROFAMCHA030602060400060409000009CC Disclaimer - FAST - Generic (:08-:10)                                                                                    150                                
PGRFAMCHA030602060409062839002430Ripley's Believe It Or Not!                       Head's I Win, Tails You Lose                                  B71299 1065607ECC                              
PROFAMCHA030602062839062851000012Preschool - 05(PG) - HOZE/BUZZ (:10-:13)                                                                                    150                                
PRCFAMCHA030602062851062936000045Hoze Houndz (PAMPER) - Coming Up (PG)                                                                                       150                                
PROFAMCHA030602062936062950000014Playground - HOZE HOUNDZ - Skater                                                                                           150                                
OFFFAMCHA030602062950063000000010PS Playground Block Open (:10-:15) *DNU POST AUG 1                                                                                                             
PROFAMCHA030602063000063009000009CC Disclaimer - FAST - Family (:08-:10)                                                                                     150                                
PGRFAMCHA030602063009065245002236Hoze Houndz                                       Blasterpiece/When The Flu Hits The Fan                        B45775A1065607ECC                              
PROFAMCHA030602065245065259000014Preschool - 06(PB) - BUZZ/PRLR/PRWF (:13-:16)                                                                               150                                
PROFAMCHA030602065259065329000030Mad Dash ('M'WORDS) - Today, Starting @ 3pm                                                                                 150                                
PROFAMCHA030602065329065414000045Lizzie McGuire (MAGIC TRICK) - Today @ 5:35pm                                                                               150                                
INTFAMCHA030602065414065838000424Art Attack - Bowler                                                                                                    60686120                                
PROFAMCHA030602065838065917000039Power Box (WEEKDAYS) - Weekdays, Starting @ 7am                                                                             150                                
PROFAMCHA030602065917065947000030Out To Lunch Block Promo - Today @ 11:50am                                                                                  150                                
OFFFAMCHA030602065947070000000013PS Power Box Block Open (:10-:15)                                                                                                                              
PROFAMCHA030602070000070009000009CC Disclaimer - FAST - Family.ca (:08-:10)                                                                                  150                                
PGRFAMCHA030602070009072201002152Disney/Pixar's Buzz Lightyear of Star Command     Stranger Invasion                                                    6068607ECC                              
PROFAMCHA030602072201072215000014Preschool - 07(PB) - PRLR/PRWF/HOM (:13-:16)                                                                                150                                
PROFAMCHA030602072215072245000030Out To Lunch Block Promo - Today @ 11:50am                                                                                  150                                
INTFAMCHA030602072245072415000130Klootz - Espace 04                                                                                                    A10658120                                
PROFAMCHA030602072415072454000039Power Box (WEEKDAYS) - Weekdays, Starting @ 7am                                                                             150                                
INTFAMCHA030602072454072847000353Art Attack - Girl On A Bike                                                                                            60686120                                
PROFAMCHA030602072847072917000030Even Stevens (NEW) - Tonight @ 7pm                                                                                          150                                
PROFAMCHA030602072917072947000030Mad Dash (TIME) - Today, Starting @ 3pm                                                                                     150                                
OFFFAMCHA030602072947073000000013PS Power Box Block Open (:10-:15)                                                                                                                              
PGRFAMCHA030602073000075128002128Power Rangers Lightspeed Rescue                   Ocean Blue                                                          A6068607E                                
PROFAMCHA030602075128075140000012Preschool - 08(PB) - PRWF/HOM (:10-:13)                                                                                     150                                
PROFAMCHA030602075140075210000030Mad Dash ('M'WORDS) - Today, Starting @ 3pm                                                                                 150                                
PRCFAMCHA030602075210075240000030Mentors (EVERYONE) - Tonight @ 8:30pm                                                                                       150                                
INTFAMCHA030602075240075709000429Art Attack - Cowboy                                                                                                    60686120                                
PROFAMCHA030602075709075748000039Power Box (WEEKDAYS) - Weekdays, Starting @ 7am                                                                             150                                
INTFAMCHA030602075748075918000130Klootz - Oasis 01                                                                                                     A10658120                                
PROFAMCHA030602075918075948000030Out To Lunch Block Promo - Today @ 11:50am                                                                                  150                                
OFFFAMCHA030602075948080000000012PS Power Box Block Open (:10-:15)                                                                                                                              
PGRFAMCHA030602080000082128002128Power Rangers Wild Force                          Predazord, Awaken                                                   A6068607E                                
PROFAMCHA030602082128082138000010Preschool - 09(PB) - HOM (:08-:11)                                                                                          150                                
PROFAMCHA030602082138082208000030Out To Lunch Block Promo - Today @ 11:50am                                                                                  150                                
INTFAMCHA030602082208082338000130Klootz - Ferme 01                                                                                                     A10658120                                
PROFAMCHA030602082338082417000039Power Box (WEEKDAYS) - Weekdays, Starting @ 7am                                                                             150                                
INTFAMCHA030602082417082831000414Art Attack - Fish                                                                                                      60686120                                
PROFAMCHA030602082831082918000047Amanda Show (HAM) - Tonight @ 6pm                                                                                           150                                
PROFAMCHA030602082918082948000030Mad Dash (TIME) - Today, Starting @ 3pm                                                                                     150                                
OFFFAMCHA030602082948083000000012PS Power Box Block Open (:10-:15)                                                                                                                              
PGRFAMCHA030602083000085237002237Disney's House Of Mouse                           House Ghost                                                         A6068607E                                
PROFAMCHA030602085237085251000014Preschool - 10(PH) - ELMO/KATIE/STANLEY (:13-:16)                                                                           150                                
PRCFAMCHA030602085251085319000028Elmo's World (BUGGED) - Coming Up                                                                                           150                                
INTFAMCHA030602085319085449000130Disney Circle Time - Growing Smiles (anywhere but                                                                      60688120                                
OFFFAMCHA030602085449085500000011PS Playhouse Block Open (:10-:15)                                                                                                                              
PGRFAMCHA030602085500091113001613Elmo's World                                      Music                                                               A2068607G                                
PROFAMCHA030602091113091127000014**Preschool - 11(PH-MWF) - KATIE/STANLEY/WTP                                                                                150                                
PRCFAMCHA030602091127091205000038Katie & Orbie (ICEBERG) - Coming Up                                                                                         150                                
PROFAMCHA030602091205091301000056Playhouse - STANLEY - Fish Song                                                                                             150                                
PRCFAMCHA030602091301091349000048New Adv WTP (FOREST) - Today @ 10:10am                                                                                      150                                
OFFFAMCHA030602091349091402000013**PS Playhouse Block Open                                                                                                                                      
PROFAMCHA030602091402091411000009**CC Disclaimer - FAST - GeneriC                                                                                            150                                
PGRFAMCHA030602091411094049002638Katie And Orbie                                   Raccoon Rescue/Cheer Up Pals/Maple Sugar                      C19665A1055607ECC3                             
PROFAMCHA030602094049094103000014**Preschool - 12(PH-MWF) - STANLEY/WTP/OOTB                                                                                 150                                
PRCFAMCHA030602094103094128000025New Adv WTP (TALK BACK) - Today @ 10:10am                                                                                   150                                
PROFAMCHA030602094128094214000046Playhouse - STANLEY - Squirrel Song                                                                                         150                                
PRCFAMCHA030602094214094249000035Franklin (CANOE) - Today @ 11am                                                                                             150                                
OFFFAMCHA030602094249094302000013**PS Playhouse Block Open                                                                                                                                      
PROFAMCHA030602094302094311000009**CC Disclaimer - FAST - GeneriC                                                                                            150                                
PGRFAMCHA030602094311100709002358Stanley                                           Woodpecker Woes/P.U. Pup                                            A6068607ECC                              
PROFAMCHA030602100709100723000014**Preschool - 13(PH-MWF) - WTP/OOTB/FRANKLIN                                                                                150                                
PRCFAMCHA030602100723100741000018New Adv WTP (PIGLET) - Coming Up                                                                                            150                                
PROFAMCHA030602100741100811000030Playhouse Block Promo (AM) - Weekdays                                                                                       150                                
PRCFAMCHA030602100811100839000028Book of Pooh (DANCE) - Tomorrow @ 10:10am                                                                                   150                                
OFFFAMCHA030602100839100854000015**PS Playhouse Block Open                                                                                                                                      
ID FAMCHA030602100854100904000010**Magic of Disney - PLAYHOUSE - Shape                                                                                       150                                
PROFAMCHA030602100904100913000009**CC Disclaimer - FAST - GeneriC                                                                                            150                                
PGRFAMCHA030602100913103150002237New Adventures of Winnie the Pooh; The            How Much Is The Rabbit In The Window                                 6068607ECC                              
PROFAMCHA030602103150103204000014**Preschool - 14(PH) - OOTB/FRANKLIN/DUCKTALES                                                                              150                                
PRCFAMCHA030602103204103230000026Franklin (PUPPY) - Today @ 11am                                                                                             150                                
PROFAMCHA030602103230103257000027Playhouse - OUT OF THE BOX - Word Song *DNU*                                                                                150                                
PRCFAMCHA030602103257103349000052Elmo's World (MISS MUFFET) - Today @ 12:35pm                                                                                150                                
OFFFAMCHA030602103349103404000015**PS Playhouse Block Open                                                                                                                                      
PGRFAMCHA030602103404105718002314Out of the Box                                    Circle Circus                                                        60686110                                
PRCFAMCHA030602105718105753000035Franklin (CANOE) - Coming Up                                                                                                150                                
PROFAMCHA030602105753105908000115Playhouse - BOOK OF POOH - The Plan *DNU*                                                                                   150                                
PRCFAMCHA030602105908105936000028Elmo's World (BUGGED) - Today @ 12:35pm                                                                                     150                                
OFFFAMCHA030602105936105951000015**PS Playhouse Block Open                                                                                                                                      
PROFAMCHA030602105951110000000009**CC Disclaimer - FAST - GeneriC                                                                                            150                                
PGRFAMCHA030602110000112253002253Franklin                                          Franklin Is Bossy/Franklin's Fort                             B10186A1065607ECC                              
PROFAMCHA030602112253112305000012**Preschool - 16(PH) - DUCKTALES/AMANDA                                                                                     150                                
PRCFAMCHA030602112305112321000016Book of Pooh (SUGGESTION BOX) - Tomorrow @ 10:10am                                                                          150                                
PROFAMCHA030602112321112407000046Playhouse - STANLEY - Squirrel Song                                                                                         150                                
PRCFAMCHA030602112407112445000038Katie & Orbie (CLAY) - Today @ 12:55pm                                                                                      150                                
OFFFAMCHA030602112445112500000015**PS Playhouse Block Open                                                                                                                                      
PROFAMCHA030602112500112509000009**CC Disclaimer - FAST - GeneriC                                                                                            150                                
PGRFAMCHA030602112509114750002241Disney's DuckTales                                Sweet Duck Of Youth                                                 A6068607ECC                              
PROFAMCHA030602114750114804000014**Preschool - 17(OTL) - AMANDA/RECESS/ELMO                                                                                  150                                
PROFAMCHA030602114804114834000030Out To Lunch Block Promo - Coming Up (AMANDA)                                                                               150                                
PROFAMCHA030602114834114911000037Kim Possible (RON THE MAN) - Weekends @ 4:35pm                                                                              150                                
PROFAMCHA030602114911114941000030Mad Dash ('M'WORDS) - Today, Starting @ 3pm                                                                                 150                                
OFFFAMCHA030602114941114956000015**PS Out To Lunch Block Open                                                                                                                                   
PGRFAMCHA030602114956121158002202Amanda Show; The                                  2-033                                                               A20686090                                
PROFAMCHA030602121158121212000014**Preschool - 18(OTL) - RECESS/ELMO/KATIE                                                                                   150                                
PROFAMCHA030602121212121242000030Out To Lunch Block Promo - Coming Up (RECESS)                                                                               150                                
PRCFAMCHA030602121242121312000030Rugrats Go Wild! Contest - In Theatres June 13th                                                                            150                                
PROFAMCHA030602121312121411000059Boy Meets World (DANCE) - Tonight @ 8pm                                                                                     150                                
PROFAMCHA030602121411121441000030Mad Dash ('M'WORDS) - Today, Starting @ 3pm                                                                                 150                                
OFFFAMCHA030602121441121456000015**PS Out To Lunch Block Open                                                                                                                                   
PGRFAMCHA030602121456123731002235Disney's Recess                                   First Name Ashley/To Finster With Love                               6068607E                                
PROFAMCHA030602123731123745000014**Preschool - 19(PH) - ELMO/KATIE/OOTB                                                                                      150                                
OFFFAMCHA030602123745123758000013**PS Playhouse Block Open                                                                                                                                      
PGRFAMCHA030602123758125159001401Elmo's World                                      Water                                                               A2068607G                                
PROFAMCHA030602125159125213000014**Preschool - 20(PH) - KATIE/OOTB/HOZE                                                                                      150                                
PRCFAMCHA030602125213125245000032Hoze Houndz (GROCERIES) - Today @ 1:45pm                                                                                    150                                
INTFAMCHA030602125245125517000232MV Disney - With A Few Good Friends (CARLY SIMON)                                                                      60688120                                
PRCFAMCHA030602125517125548000031Franklin (HANKY) - Tomorrow @ 11am                                                                                          150                                
OFFFAMCHA030602125548125603000015**PS Playhouse Block Open                                                                                                                                      
PGRFAMCHA030602125603132239002636Katie And Orbie                                   The Thunderstorm/The Rabbit and How To Make It Sta            P16140A1065607E                                
PROFAMCHA030602132239132255000016Preschool - 21(PH) - OOTB/HOZE/GOOF (:13-:16)                                                                               150                                
PROFAMCHA030602132255132304000009CC Disclaimer - FAST - Family.ca (:08-:10)                                                                                  150                                
PGRFAMCHA030602132304134510002206Out of the Box                                    Seeds of Imagination                                                 60686110CC                              
PROFAMCHA030602134510134526000016Preschool - 22(PG) - HOZE/GOOF/DUCKTALES (:13-:16)                                                                          150                                
PRCFAMCHA030602134526134543000017Hoze Houndz (RUNNING) - Coming Up (PG)                                                                                      150                                
PROFAMCHA030602134543134727000144Playground - HOUSE OF MOUSE - Seating Song                                                                                  150                                
PROFAMCHA030602134727134744000017Weekenders (REALITY) - Today @ 4:40pm                                                                                       150                                
OFFFAMCHA030602134744134759000015PS Playground Block Open (:10-:15) *DNU POST AUG 1                                                                                                             
PROFAMCHA030602134759134808000009CC Disclaimer - FAST - Generic (:08-:10)                                                                                    150                                
PGRFAMCHA030602134808141046002238Hoze Houndz                                       Half Pipe Dream/Eye of Squirt                                 A63379A1065607ECC                              
PROFAMCHA030602141046141058000012Preschool - 23(PG) - GOOF/DUCKTALES (:10-:13)                                                                               150                                
PROFAMCHA030602141058141110000012Buzz Lightyear (SPACE RANGER) - Today @ 3:25pm                                                                              150                                
PROFAMCHA030602141110141137000027Pepper Ann (WHO IS SHE?) - Today @ 3:50pm                                                                                   150                                
OFFFAMCHA030602141137141152000015PS Playground Block Open (:10-:15) *DNU POST AUG 1                                                                                                             
ID FAMCHA030602141152141200000008Magic of Disney - PLAYGROUND - Wipe (:06-:09) *DNU                                                                          150                                
PROFAMCHA030602141200141209000009CC Disclaimer - FAST - Family (:08-:10)                                                                                     150                                
PGRFAMCHA030602141209143451002242Goof Troop                                        Great Egg-Spectations                                                6068607ECC                              
PROFAMCHA030602143451143501000010Preschool - 24(PG) - DUCKTALES (:08-:11)                                                                                    150                                
PRCFAMCHA030602143501143546000045Hoze Houndz (PAMPER) - Tomorrow @ 1:45pm                                                                                    150                                
OFFFAMCHA030602143546143600000014PS Playground Block Open (:10-:15) *DNU POST AUG 1                                                                                                             
PROFAMCHA030602143600143609000009CC Disclaimer - FAST - Family.ca (:08-:10)                                                                                  150                                
PGRFAMCHA030602143609145855002246Disney's DuckTales                                Earth Quack                                                         A6068607ECC                              
PROFAMCHA030602145855145909000014MD - 01 - HOUSE/BUZZ/PEPPER (:13-:16)                                                                                       150                                
PROFAMCHA030602145909145947000038Mad Dash - LIZZIE MCGUIRE - Breakfast                                                                                       150                                
OFFFAMCHA030602145947150000000013Mad Dash Block Open (:10-:15)                                                                                                                                  
PGRFAMCHA030602150000152232002232Disney's House Of Mouse                           Max's New Car                                                       A6068607E                                
PROFAMCHA030602152232152246000014MD - 02 - BUZZ/PEPPER/TARZAN (:13-:16)                                                                                      150                                
PRCFAMCHA030602152246152316000030Rugrats Go Wild! Contest - In Theatres June 13th                                                                            150                                
PROFAMCHA030602152316152401000045Lizzie McGuire (MAGIC TRICK) - Today @ 5:35pm                                                                               150                                
PRCFAMCHA030602152401152431000030Family Popcorn Parties                                                                                                      150                                
OFFFAMCHA030602152431152445000014Mad Dash Block Open (:10-:15)                                                                                                                                  
PRCFAMCHA030602152445152500000015ARGOS' Bullying Bumper                                                                                                      150                                
PROFAMCHA030602152500152509000009CC Disclaimer - FAST - Generic (:08-:10)                                                                                    150                                
PGRFAMCHA030602152509154701002152Disney/Pixar's Buzz Lightyear of Star Command     Millenial Bugs                                                       6068607ECC                              
PROFAMCHA030602154701154715000014MD - 03 - PEPPER/TARZAN/WKNDRS (:13-:16)                                                                                    150                                
PROFAMCHA030602154715154742000027Even Stevens (GOLF) - Tonight @ 7pm                                                                                         150                                
PRCFAMCHA030602154742154812000030Rugrats Go Wild! Contest - In Theatres June 13th                                                                            150                                
PROFAMCHA030602154812154850000038Mad Dash - LIZZIE MCGUIRE - Breakfast                                                                                       150                                
PRCFAMCHA030602154850154920000030Mentors (EVERYONE) - Tonight @ 8:30pm                                                                                       150                                
PROFAMCHA030602154920154932000012Buzz Lightyear (SPACE RANGER) - Weekdays @ 3:25pm                                                                           150                                
OFFFAMCHA030602154932154945000013Mad Dash Block Open (:10-:15)                                                                                                                                  
PRCFAMCHA030602154945155000000015ARGOS' Bullying Bumper                                                                                                      150                                
PROFAMCHA030602155000155009000009CC Disclaimer - FAST - Family (:08-:10)                                                                                     150                                
PGRFAMCHA030602155009161257002248Disney's Pepper Ann                               Baggy Bean Buddies/Beans of Wrath                                    6068607ECC                              
PROFAMCHA030602161257161313000016MD - 04 - TARZAN/WKNDRS/RECESS (:13-:16)                                                                                    150                                
PROFAMCHA030602161313161343000030Lizzie McGuire (MATT) - Today @ 5:35pm                                                                                      150                                
PRCFAMCHA030602161343161413000030Family Popcorn Parties                                                                                                      150                                
PROFAMCHA030602161413161500000047Amanda Show (HAM) - Tonight @ 6pm                                                                                           150                                
PRCFAMCHA030602161500161530000030Rugrats Go Wild! Contest - In Theatres June 13th                                                                            150                                
OFFFAMCHA030602161530161545000015Mad Dash Block Open (:10-:15)                                                                                                                                  
PRCFAMCHA030602161545161600000015ARGOS' Bullying Bumper                                                                                                      150                                
PGRFAMCHA030602161600163846002246Disney's The Legend of Tarzan                     One Punch Mullargan                                                 A6068607E                                
PROFAMCHA030602163846163901000015MD - 05 - WKNDRS/RECESS/LIZZIE (:13-:16)                                                                                    150                                
PROFAMCHA030602163901163931000030Recess (NEW) - Today @ 5:05pm                                                                                               150                                
PROFAMCHA030602163931164001000030All That (NEW) - Tonight @ 6:30pm                                                                                           150                                
PROFAMCHA030602164001164100000059Boy Meets World (DANCE) - Tonight @ 8pm                                                                                     150                                
PRCFAMCHA030602164100164130000030Family Kicks Contest/Event Promo - UNTIL JUNE 5TH                                                                           150                                
OFFFAMCHA030602164130164145000015Mad Dash Block Open (:10-:15)                                                                                                                                  
PRCFAMCHA030602164145164200000015ARGOS' Bullying Bumper                                                                                                      150                                
PGRFAMCHA030602164200170454002254Disney's The Weekenders                           Best/Broken                                                         A6068607E                                
PROFAMCHA030602170454170509000015MD - 06 - RECESS/LIZZIE/AMANDA (:13-:16)                                                                                    150                                
PROFAMCHA030602170509170546000037Amanda Show (CLEAN) - Tonight @ 6pm                                                                                         150                                
PRCFAMCHA030602170546170616000030Rugrats Go Wild! Contest - In Theatres June 13th                                                                            150                                
PROFAMCHA030602170616170700000044Mad Dash - LEGEND OF TARZAN - Coconut                                                                                       150                                
PRCFAMCHA030602170700170730000030Mentors (EVERYONE) - Tonight @ 8:30pm                                                                                       150                                
OFFFAMCHA030602170730170745000015Mad Dash Block Open (:10-:15)                                                                                                                                  
PRCFAMCHA030602170745170800000015ARGOS' Bullying Bumper                                                                                                      150                                
PGRFAMCHA030602170800173035002235Disney's Recess                                   Recess is Cancelled/Tattletale Heart                                 6068607E                                
PROFAMCHA030602173035173049000014MD - 07 - LIZZIE/AMANDA/ALLTHAT (:13-:16)                                                                                   150                                
PRCFAMCHA030602173049173119000030Family Popcorn Parties                                                                                                      150                                
PROFAMCHA030602173119173129000010FAMJAM - Open                                                                                                               150                                
INTFAMCHA030602173129173229000100MV Disney - I Can't Wait (HILARY DUFF)                                                                                 60688120                                
PROFAMCHA030602173229173243000014FAMJAM - Close (EMAIL)                                                                                                      150                                
PRCFAMCHA030602173243173313000030Rugrats Go Wild! Contest - In Theatres June 13th                                                                            150                                
PROFAMCHA030602173313173325000012Buzz Lightyear (SPACE RANGER) - Weekdays @ 3:25pm                                                                           150                                
OFFFAMCHA030602173325173337000012Mad Dash Block Open (:10-:15)                                                                                                                                  
PRCFAMCHA030602173337173352000015ARGOS' Bullying Bumper                                                                                                      150                                
ID FAMCHA030602173352173400000008Magic of Disney - MAD DASH - Shape (:06-:09)                                                                                150                                
PGRFAMCHA030602173400175633002233Lizzie McGuire                                    The Greatest Crush of All                                           A6068607B                                
PROFAMCHA030602175633175647000014NS - MON-THURS - 01 - AMNDA/ALL/EVEN (:13-:16)                                                                              150                                
PROFAMCHA030602175647175717000030All That (NEW) - Tonight @ 6:30pm                                                                                           150                                
PROFAMCHA030602175717175805000048Nonstop - AMANDA SHOW - Camera                                                                                              150                                
PROFAMCHA030602175805175904000059Boy Meets World (DANCE) - Tonight @ 8pm                                                                                     150                                
PRCFAMCHA030602175904175934000030Family Kicks Contest/Event Promo - UNTIL JUNE 5TH                                                                           150                                
OFFFAMCHA030602175934175945000011Nonstop Block Open (:10-:15)                                                                                                                                   
PRCFAMCHA030602175945180000000015ARGOS' Bullying Bumper                                                                                                      150                                
PGRFAMCHA030602180000182205002205Amanda Show; The                                  2-034                                                               A20686090                                
ID FAMCHA030602182205182210000005Astral "A Network Of" Logo - English Animation                                                                              150                                
PROFAMCHA030602182210182224000014NS - MON-THURS - 02 - ALL/EVEN/JETT (:13-:16)                                                                               150                                
