OFFFAMCHA990901043000060000013000                                                                                                                                                               
SO FAMCHA990901060000060011000011Sign On                                                                                                                                                        
PRCFAMCHA990901060011060021000010Profile/Chyron - Pre-school Coming Up                                                                                                                          
PROFAMCHA990901060021060026000005CC Disclaimer                                                                                                                                                  
PGRFAMCHA990901060026062832002806Quack Attack                                      Blame It On The Samba/Chicken In The Rough/Busy                      6068607ECC                              
ID FAMCHA990901062832062844000012Id - Pre-school                                                                                                                                                
PROFAMCHA990901062844062905000021Recess - teaser 1                                                                                                                                              
PRCFAMCHA990901062905062935000030Seven Day Glance - September 6-12                                                                                                                              
PRCFAMCHA990901062935062950000015Babar - today @ 9:00am                                                                                                                                         
PRCFAMCHA990901062950063000000010Profile/Chyron - Pre-school Coming Up                                                                                                                          
PROFAMCHA990901063000063005000005CC Disclaimer                                                                                                                                                  
PGRFAMCHA990901063005065640002635Katie And Orbie                                   Shop And Seek/Surprise!/Katie's Music Box                     C12449 1065607ECC                              
ID FAMCHA990901065640065652000012Id - Pre-school                                                                                                                                                
PROFAMCHA990901065652065722000030Adventures of Huck Finn - tonight @ 8:00p.m.                                                                                                                   
PROFAMCHA990901065722065744000022Disney's One Too teaser #1                                                                                                                                     
PGRFAMCHA990901065744065929000145Art Attack - Bi Plane                                                                                                  60686130                                
PROFAMCHA990901065929065944000015Lion King's Timon & Pumbaa - tonight @ 7:00pm                                                                                                                  
ID FAMCHA990901065944065950000006Bumper - Pre-school                                                                                                                                            
PRCFAMCHA990901065950070000000010Profile/Chyron - Pre-school Coming Up                                                                                                                          
PROFAMCHA990901070000070005000005CC Disclaimer                                                                                                                                                  
PGRFAMCHA990901070005072415002410Busy World Of Richard Scarry; The                 Who's Afraid Of/Hold Your Breath/Pumpkin Heads                P24323 1065607ECC                              
ID FAMCHA990901072415072427000012Id - Pre-school                                                                                                                                                
PROFAMCHA990901072427072448000021Recess - teaser 1                                                                                                                                              
PROFAMCHA990901072448072503000015Goof Troop - Weekday mornings @ 8:00am                                                                                                                         
PROFAMCHA990901072503072533000030Adventures of Huck Finn - tonight @ 8:00p.m.                                                                                                                   
PROFAMCHA990901072533072548000015Mad Libs - Monday to Friday @ 4:00pm                                                                                                                           
PGRFAMCHA990901072548072737000149Music Break - Rock 'n Toontown: What A Day                                                                             60687130                                
PROFAMCHA990901072737072807000030Johnny Tsunami - Sunday @ 8:00pm (do not use)                                                                                                                  
PROFAMCHA990901072807072835000028Going Wild With Jeff Corwin - Saturday @ 12:30 p.m                                                                                                             
PROFAMCHA990901072835072850000015TaleSpin - Today @ 3:00 p.m.                                                                                                                                   
PRCFAMCHA990901072850072920000030Seven Day Glance - September 6-12                                                                                                                              
PROFAMCHA990901072920072947000027Recess - teaser 2                                                                                                                                              
ID FAMCHA990901072947072953000006Bumper - Pre-school                                                                                                                                            
PRCFAMCHA990901072953073000000007Profile/Chyron - Pre-school Coming Up                                                                                                                          
PROFAMCHA990901073000073005000005CC Disclaimer                                                                                                                                                  
PGRFAMCHA990901073005075258002253Franklin                                          Franklin Says Sorry/Franklin & The Fire                       B13649 1065607ECC                              
PRCFAMCHA990901075258075309000011Profile/Chyron - Pre-school Coming Up                                                                                                                          
ID FAMCHA990901075309075321000012Id - Pre-school                                                                                                                                                
PROFAMCHA990901075321075343000022Hercules - Teaser 1                                                                                                                                            
PROFAMCHA990901075343075408000025Aladdin - tonight @ 6:30pm                                                                                                                                     
PGRFAMCHA990901075408075932000524Name Game                                                                                                              60686130                                
PROFAMCHA990901075932075949000017Hercules - Teaser 2                                                                                                                                            
ID FAMCHA990901075949080000000011Magic of Disney - comet version                                                                                                                                
PROFAMCHA990901080000080005000005CC Disclaimer                                                                                                                                                  
PGRFAMCHA990901080005082255002250Goof Troop                                        Bringin On The Rain                                                  6068607ECC                              
PRCFAMCHA990901082255082303000008Profile/Chyron - Pre-school Coming Up                                                                                                                          
ID FAMCHA990901082303082315000012Id - Pre-school                                                                                                                                                
PROFAMCHA990901082315082336000021Recess - teaser 1                                                                                                                                              
PRCFAMCHA990901082336082351000015Babar - today @ 9:00am                                                                                                                                         
PROFAMCHA990901082351082409000018Clarissa - today @ 5:00pm                                                                                                                                      
PROFAMCHA990901082409082424000015Doug - Teaser 1                                                                                                                                                
PGRFAMCHA990901082424082838000414Art Attack - Fish                                                                                                      60686130                                
PROFAMCHA990901082838082853000015PB&J Otter - Saturday @ 5:30pm                                                                                                                                 
PROFAMCHA990901082853082923000030Adventures of Huck Finn - tonight @ 8:00p.m.                                                                                                                   
PROFAMCHA990901082923082950000027Recess - teaser 2                                                                                                                                              
ID FAMCHA990901082950083000000010Magic of Disney - scribble version                                                                                                                             
PGRFAMCHA990901083000085249002249Chip 'n Dale Rescue Rangers                       The Case Of The Cola Cult                                            6068607E                                
ID FAMCHA990901085249085301000012Id - Pre-school                                                                                                                                                
PROFAMCHA990901085301085316000015Doug - Teaser 1                                                                                                                                                
PROFAMCHA990901085316085346000030Adventures of Huck Finn - tonight @ 8:00p.m.                                                                                                                   
PROFAMCHA990901085346085404000018Clarissa - today @ 5:00pm                                                                                                                                      
PGRFAMCHA990901085404085845000441Art Attack - Horse                                                                                                     60686130                                
PROFAMCHA990901085845085900000015PB&J Otter - Saturday @ 5:30pm                                                                                                                                 
PROFAMCHA990901085900085930000030Johnny Tsunami - Sunday @ 8:00pm (do not use)                                                                                                                  
PROFAMCHA990901085930085945000015Doug - Teaser 2                                                                                                                                                
ID FAMCHA990901085945085951000006Bumper - Pre-school                                                                                                                                            
PRCFAMCHA990901085951090000000009Profile/Chyron - Pre-school Coming Up                                                                                                                          
PROFAMCHA990901090000090005000005CC Disclaimer                                                                                                                                                  
PGRFAMCHA990901090005092320002315Babar                                             Time Flies                                                    C07575 1065607ECC                              
ID FAMCHA990901092320092332000012Id - Pre-school                                                                                                                                                
PROFAMCHA990901092332092353000021Recess - teaser 1                                                                                                                                              
PROFAMCHA990901092353092408000015Lion King's Timon & Pumbaa - Weeknights @ 7:00pm                                                                                                               
PROFAMCHA990901092408092423000015Doug - Teaser 2                                                                                                                                                
PROFAMCHA990901092423092453000030Johnny Tsunami - Sunday @ 8:00pm (do not use)                                                                                                                  
PRCFAMCHA990901092453092500000007Profile/Chyron - Pre-school Coming Up                                                                                                                          
PROFAMCHA990901092500092505000005CC Disclaimer                                                                                                                                                  
PGRFAMCHA990901092505094855002350Kleo The Misfit Unicorn                           Jester & The King                                             A03938 1065607ECC                              
ID FAMCHA990901094855094907000012Id - Pre-school                                                                                                                                                
PROFAMCHA990901094907094922000015Doug - Teaser 1                                                                                                                                                
PROFAMCHA990901094922094952000030Adventures of Huck Finn - tonight @ 8:00p.m.                                                                                                                   
PROFAMCHA990901094952095010000018Clarissa - today @ 5:00pm                                                                                                                                      
PROFAMCHA990901095010095026000016Bonkers - Weekdays @ 2:30pm                                                                                                                                    
PROFAMCHA990901095026095043000017Hercules - Teaser 2                                                                                                                                            
ID FAMCHA990901095043095048000005Website                                                                                                                                                        
PRCFAMCHA990901095048095100000012Profile/Chyron - Pre-school Coming Up                                                                                                                          
PROFAMCHA990901095100095105000005CC Disclaimer                                                                                                                                                  
PGRFAMCHA990901095105101515002410Busy World Of Richard Scarry; The                 The Mole Machine/Royal Game Of Dennis/Now That's              B24399 1155607ECC3                             
ID FAMCHA990901101515101527000012Id - Pre-school                                                                                                                                                
PROFAMCHA990901101527101549000022Hercules - Teaser 1                                                                                                                                            
PROFAMCHA990901101549101619000030Johnny Tsunami - Sunday @ 8:00pm (do not use)                                                                                                                  
PROFAMCHA990901101619101646000027Recess - teaser 2                                                                                                                                              
PRCFAMCHA990901101646101700000014Profile/Chyron - Pre-school Coming Up                                                                                                                          
PROFAMCHA990901101700101705000005CC Disclaimer                                                                                                                                                  
PGRFAMCHA990901101705104105002400Hello Mrs. Cherrywinkle                           Make Your Own Music                                           C14683A1065607ACC                              
ID FAMCHA990901104105104111000006Bumper - Pre-school                                                                                                                                            
PROFAMCHA990901104111104133000022Disney's One Too teaser #1                                                                                                                                     
PROFAMCHA990901104133104203000030Adventures of Huck Finn - tonight @ 8:00p.m.                                                                                                                   
PROFAMCHA990901104203104218000015PB&J Otter - Saturday @ 5:30pm                                                                                                                                 
PRCFAMCHA990901104218104248000030Seven Day Glance - September 6-12                                                                                                                              
PRCFAMCHA990901104248104300000012Profile/Chyron - Pre-school Coming Up                                                                                                                          
PROFAMCHA990901104300104305000005CC Disclaimer                                                                                                                                                  
PGRFAMCHA990901104305110558002253Franklin                                          Franklin's Garden/Franklin Runs Away                          B13650 1065607ECC                              
ID FAMCHA990901110558110610000012Id - Pre-school                                                                                                                                                
PROFAMCHA990901110610110637000027Recess - teaser 2                                                                                                                                              
PROFAMCHA990901110637110707000030Adventures of Huck Finn - tonight @ 8:00p.m.                                                                                                                   
PROFAMCHA990901110707110722000015Mad Libs - Monday to Friday @ 4:00pm                                                                                                                           
PROFAMCHA990901110722110752000030Johnny Tsunami - Sunday @ 8:00pm (do not use)                                                                                                                  
PRCFAMCHA990901110752110800000008Profile/Chyron - Pre-school Coming Up                                                                                                                          
PROFAMCHA990901110800110805000005CC Disclaimer                                                                                                                                                  
PGRFAMCHA990901110805113317002512Amazing Animals                                   Scaly Animals                                                        60686110CC                              
ID FAMCHA990901113317113323000006Bumper - Pre-school                                                                                                                                            
PROFAMCHA990901113323113345000022Hercules - Teaser 1                                                                                                                                            
PRCFAMCHA990901113345113400000015Little Lulu Show; The - tonight @ 6:00pm                                                                                                                       
PROFAMCHA990901113400113418000018Clarissa - today @ 5:00pm                                                                                                                                      
PROFAMCHA990901113418113448000030Johnny Tsunami - Sunday @ 8:00pm (do not use)                                                                                                                  
PRCFAMCHA990901113448113500000012Profile/Chyron - Pre-school Coming Up                                                                                                                          
PROFAMCHA990901113500113505000005CC Disclaimer                                                                                                                                                  
PGRFAMCHA990901113505115838002333Little Lulu Show; The                             First Aid Brigade, Matinee Madness, It's a Dogs Li            A20194A1055607ECC3                             
PRCFAMCHA990901115838115847000009Profile/Chyron - Kids Coming Up                                                                                                                                
ID FAMCHA990901115847115859000012Id - Kids                                                                                                                                                      
PROFAMCHA990901115859115929000030Adventures of Huck Finn - tonight @ 8:00p.m.                                                                                                                   
PROFAMCHA990901115929115950000021Recess - teaser 1                                                                                                                                              
ID FAMCHA990901115950120000000010Magic of Disney - watercolour version                                                                                                                          
PROFAMCHA990901120000120005000005CC Disclaimer                                                                                                                                                  
PGRFAMCHA990901120005122228002223Dinosaurs                                         The Greatest Story Ever Sold                                         6068807BCC                              
PRCFAMCHA990901122228122237000009Profile/Chyron - Kids Coming Up                                                                                                                                
ID FAMCHA990901122237122249000012Id - Kids                                                                                                                                                      
PROFAMCHA990901122249122319000030Adventures of Huck Finn - tonight @ 8:00p.m.                                                                                                                   
PROFAMCHA990901122319122341000022Hercules - Teaser 1                                                                                                                                            
PROFAMCHA990901122341122356000015PB&J Otter - Saturday @ 5:30pm                                                                                                                                 
PROFAMCHA990901122356122414000018Clarissa - today @ 5:00pm                                                                                                                                      
PGRFAMCHA990901122414122612000158Muppet Time - Frog Scouts - Hide N Seek                                                                                30686130                                
PRCFAMCHA990901122612122642000030Seven Day Glance - September 6-12                                                                                                                              
PROFAMCHA990901122642122712000030Darkwing Duck - today @ 2:00pm                                                                                                                                 
PRCFAMCHA990901122712122737000025Ripley's BION - Saturday @ 5:00pm                                                                                                                              
PROFAMCHA990901122737122759000022Disney's One Too teaser #1                                                                                                                                     
PROFAMCHA990901122759122824000025Aladdin - tonight @ 6:30pm                                                                                                                                     
PRCFAMCHA990901122824122846000022Are You Afraid of the Dark - Coming October                                                                                                                    
PRCFAMCHA990901122846122950000104Contest - Disney's One Too                                                                                                                                     
ID FAMCHA990901122950123000000010Magic of Disney - watercolour version                                                                                                                          
PROFAMCHA990901123000123005000005CC Disclaimer                                                                                                                                                  
PGRFAMCHA990901123005125753002748Quack Attack                                      A World Is Born/The Clock Store                                      6068607ECC                              
ID FAMCHA990901125753125805000012Id - Kids                                                                                                                                                      
PROFAMCHA990901125805125826000021Recess - teaser 1                                                                                                                                              
PROFAMCHA990901125826125856000030Adventures of Huck Finn - tonight @ 8:00p.m.                                                                                                                   
PROFAMCHA990901125856125911000015Lion King's Timon & Pumbaa - Weeknights @ 7:00pm                                                                                                               
PROFAMCHA990901125911125941000030Johnny Tsunami - Sunday @ 8:00pm (do not use)                                                                                                                  
ID FAMCHA990901125941125947000006Bumper - Kids                                                                                                                                                  
PRCFAMCHA990901125947130000000013Profile/Chyron - Kids Coming Up                                                                                                                                
PGRFAMCHA990901130000133046003046Art Attack                                        025/027                                                              60686110                                
ID FAMCHA990901133046133052000006Bumper - Kids                                                                                                                                                  
PROFAMCHA990901133052133057000005CC Disclaimer                                                                                                                                                  
PGRFAMCHA990901133057135518002421Billy The Cat                                     Curse Of Catopatra                                            B27660A1065607ECC                              
PRCFAMCHA990901135518135526000008Profile/Chyron - Kids Coming Up                                                                                                                                
ID FAMCHA990901135526135538000012Id - Kids                                                                                                                                                      
PROFAMCHA990901135538135559000021Recess - teaser 1                                                                                                                                              
PROFAMCHA990901135559135629000030Adventures of Huck Finn - tonight @ 8:00p.m.                                                                                                                   
PROFAMCHA990901135629135644000015Mad Libs - Monday to Friday @ 4:00pm                                                                                                                           
PROFAMCHA990901135644135714000030Johnny Tsunami - Sunday @ 8:00pm (do not use)                                                                                                                  
PGRFAMCHA990901135714135827000113Disney Moments-In Beaver Valley-Otters Play In Sno                                                                     60688130                                
PRCFAMCHA990901135827135842000015Little Lulu Show; The - tonight @ 6:00pm                                                                                                                       
PRCFAMCHA990901135842135904000022Are You Afraid of the Dark - Coming October                                                                                                                    
PROFAMCHA990901135904135919000015Lion King's Timon & Pumbaa - tonight @ 7:00pm                                                                                                                  
PRCFAMCHA990901135919135949000030Seven Day Glance - September 6-12                                                                                                                              
ID FAMCHA990901135949140000000011Magic of Disney - comet version                                                                                                                                
PROFAMCHA990901140000140005000005CC Disclaimer                                                                                                                                                  
PGRFAMCHA990901140005142238002233Darkwing Duck                                     Twin Beaks (halloween)                                               6068607ECC                              
PRCFAMCHA990901142238142245000007Profile/Chyron - Kids Coming Up                                                                                                                                
ID FAMCHA990901142245142257000012Id - Kids                                                                                                                                                      
PRCFAMCHA990901142257142401000104Contest - Disney's One Too                                                                                                                                     
PROFAMCHA990901142401142431000030Johnny Tsunami - Sunday @ 8:00pm (do not use)                                                                                                                  
PROFAMCHA990901142431142446000015Goof Troop - today @ 3:30pm                                                                                                                                    
PROFAMCHA990901142446142501000015Lion King's Timon & Pumbaa - Weeknights @ 7:00pm                                                                                                               
PGRFAMCHA990901142501142749000248Art Attack - Magic Carpet                                                                                              60688130                                
PRCFAMCHA990901142749142819000030Seven Day Glance - September 6-12                                                                                                                              
PROFAMCHA990901142819142840000021Recess - teaser 1                                                                                                                                              
PROFAMCHA990901142840142855000015Dinosaurs - tonight @ 7:30pm                                                                                                                                   
PROFAMCHA990901142855142920000025Stick With Me, Kid - Sunday @ 4:30pm                                                                                                                           
PROFAMCHA990901142920142950000030Adventures of Huck Finn - tonight @ 8:00p.m.                                                                                                                   
ID FAMCHA990901142950143000000010Magic of Disney - scribble version                                                                                                                             
PGRFAMCHA990901143000145245002245Bonkers                                           Polertoon                                                            6068607E                                
PRCFAMCHA990901145245145255000010Profile/Chyron - Kids Coming Up                                                                                                                                
ID FAMCHA990901145255145307000012Id - Kids                                                                                                                                                      
PRCFAMCHA990901145307145411000104Contest - Disney's One Too                                                                                                                                     
PROFAMCHA990901145411145441000030Adventures of Huck Finn - tonight @ 8:00p.m.                                                                                                                   
PROFAMCHA990901145441145506000025Aladdin - tonight @ 6:30pm                                                                                                                                     
PRCFAMCHA990901145506145531000025Ripley's BION - Saturday @ 5:00pm                                                                                                                              
PGRFAMCHA990901145531145756000225Art Attack - Snooker                                                                                                   60686130                                
PROFAMCHA990901145756145813000017Hercules - Teaser 2                                                                                                                                            
PROFAMCHA990901145813145843000030Johnny Tsunami - Sunday @ 8:00pm (do not use)                                                                                                                  
PRCFAMCHA990901145843145905000022Are You Afraid of the Dark - Coming October                                                                                                                    
PRCFAMCHA990901145905145935000030Seven Day Glance - September 6-12                                                                                                                              
PROFAMCHA990901145935145950000015Doug - Teaser 2                                                                                                                                                
ID FAMCHA990901145950150000000010Magic of Disney - watercolour version                                                                                                                          
PROFAMCHA990901150000150005000005CC Disclaimer                                                                                                                                                  
PGRFAMCHA990901150005152254002249TaleSpin                                          Paradise Lost                                                        6068607ECC                              
PRCFAMCHA990901152254152301000007Profile/Chyron - Kids Coming Up                                                                                                                                
ID FAMCHA990901152301152313000012Id - Kids                                                                                                                                                      
PROFAMCHA990901152313152334000021Recess - teaser 1                                                                                                                                              
PROFAMCHA990901152334152404000030Johnny Tsunami - Sunday @ 8:00pm (do not use)                                                                                                                  
PROFAMCHA990901152404152424000020Blossom - Today @ 5:30 p.m.                                                                                                                                    
PROFAMCHA990901152424152441000017Hercules - Teaser 2                                                                                                                                            
PGRFAMCHA990901152441152812000331Music Video - Baby Mine                                                                                                60688130                                
PROFAMCHA990901152812152827000015Dinosaurs - tonight @ 7:30pm                                                                                                                                   
PROFAMCHA990901152827152842000015Lion King's Timon & Pumbaa - Weeknights @ 7:00pm                                                                                                               
PROFAMCHA990901152842152857000015Disney's One Too teaser #2                                                                                                                                     
PROFAMCHA990901152857152927000030Adventures of Huck Finn - tonight @ 8:00p.m.                                                                                                                   
PRCFAMCHA990901152927152949000022Are You Afraid of the Dark - Coming October                                                                                                                    
ID FAMCHA990901152949153000000011Magic of Disney - comet version                                                                                                                                
PROFAMCHA990901153000153005000005CC Disclaimer                                                                                                                                                  
PGRFAMCHA990901153005155255002250Goof Troop                                        Talent To The Max                                                    6068607ECC                              
PRCFAMCHA990901155255155306000011Profile/Chyron - Kids Coming Up                                                                                                                                
ID FAMCHA990901155306155318000012Id - Kids                                                                                                                                                      
PROFAMCHA990901155318155339000021Recess - teaser 1                                                                                                                                              
PROFAMCHA990901155339155409000030Adventures of Huck Finn - tonight @ 8:00p.m.                                                                                                                   
PRCFAMCHA990901155409155434000025Ripley's BION - Saturday @ 5:00pm                                                                                                                              
PROFAMCHA990901155434155459000025Aladdin - tonight @ 6:30pm                                                                                                                                     
PGRFAMCHA990901155459155758000259Music Break - Sebastian's Party Gras: Sing Along                                                                       60686130                                
PROFAMCHA990901155758155815000017Hercules - Teaser 2                                                                                                                                            
PROFAMCHA990901155815155830000015Dinosaurs - weeknights @ 7:30pm                                                                                                                                
PROFAMCHA990901155830155900000030Johnny Tsunami - Sunday @ 8:00pm (do not use)                                                                                                                  
PRCFAMCHA990901155900155922000022Are You Afraid of the Dark - Coming October                                                                                                                    
PROFAMCHA990901155922155949000027Recess - teaser 2                                                                                                                                              
ID FAMCHA990901155949160000000011Magic of Disney - comet version                                                                                                                                
PROFAMCHA990901160000160005000005CC Disclaimer                                                                                                                                                  
PGRFAMCHA990901160005162310002305Mad Libs                                          1-053                                                               A60686100CC                              
PRCFAMCHA990901162310162324000014Profile/Chyron - Kids Coming Up                                                                                                                                
ID FAMCHA990901162324162336000012Id - Kids                                                                                                                                                      
ID FAMCHA990901162336162341000005Website                                                                                                                                                        
PROFAMCHA990901162341162356000015Doug - Teaser 1                                                                                                                                                
PROFAMCHA990901162356162426000030Adventures of Huck Finn - tonight @ 8:00p.m.                                                                                                                   
PGRFAMCHA990901162426162935000509Plasmo #9                                                                                                              70688130                                
PROFAMCHA990901162935162950000015Doug - Teaser 2                                                                                                                                                
ID FAMCHA990901162950163000000010Magic of Disney - scribble version                                                                                                                             
PROFAMCHA990901163000163005000005CC Disclaimer                                                                                                                                                  
PGRFAMCHA990901163005165406002401Off the Wall                                      1-002                                                                60686100CC                              
ID FAMCHA990901165406165418000012Id - Kids                                                                                                                                                      
PROFAMCHA990901165418165439000021Recess - teaser 1                                                                                                                                              
PROFAMCHA990901165439165509000030Johnny Tsunami - Sunday @ 8:00pm (do not use)                                                                                                                  
PRCFAMCHA990901165509165524000015Little Lulu Show; The - tonight @ 6:00pm                                                                                                                       
PROFAMCHA990901165524165549000025Aladdin - Monday to Thursday @ 6:30pm                                                                                                                          
PROFAMCHA990901165549165619000030Adventures of Huck Finn - tonight @ 8:00p.m.                                                                                                                   
PROFAMCHA990901165619165634000015Disney's One Too teaser #2                                                                                                                                     
PGRFAMCHA990901165634165808000134Music Video - He's A Tramp                                                                                             60688130                                
PROFAMCHA990901165808165828000020Blossom - Today @ 5:30 p.m.                                                                                                                                    
PROFAMCHA990901165828165843000015PB&J Otter - Saturday @ 5:30pm                                                                                                                                 
PRCFAMCHA990901165843165913000030Seven Day Glance - September 6-12                                                                                                                              
PRCFAMCHA990901165913165943000030Contest - Disney's One Too                                                                                                                                     
ID FAMCHA990901165943165949000006Bumper - Kids                                                                                                                                                  
PRCFAMCHA990901165949170000000011Profile/Chyron - Kids Coming Up                                                                                                                                
PGRFAMCHA990901170000172403002403Clarissa                                          Tale of Two Moms                                                     2028607B                                
ID FAMCHA990901172403172415000012Id - Kids                                                                                                                                                      
PRCFAMCHA990901172415172445000030Contest - Disney's One Too                                                                                                                                     
PRCFAMCHA990901172445172507000022Are You Afraid of the Dark - Coming October                                                                                                                    
PROFAMCHA990901172507172528000021Recess - teaser 1                                                                                                                                              
PRCFAMCHA990901172528172543000015Little Lulu Show; The - tonight @ 6:00pm                                                                                                                       
PGRFAMCHA990901172543172822000239Music Video - Lion King 2                                                                                              60688130                                
PROFAMCHA990901172822172844000022Hercules - Teaser 1                                                                                                                                            
PROFAMCHA990901172844172859000015Dinosaurs - tonight @ 7:30pm                                                                                                                                   
PROFAMCHA990901172859172914000015Doug - Teaser 1                                                                                                                                                
PROFAMCHA990901172914172944000030Adventures of Huck Finn - tonight @ 8:00p.m.                                                                                                                   
ID FAMCHA990901172944172950000006Bumper - Kids                                                                                                                                                  
PRCFAMCHA990901172950173000000010Profile/Chyron - Kids Coming Up                                                                                                                                
PROFAMCHA990901173000173005000005CC Disclaimer                                                                                                                                                  
PGRFAMCHA990901173005175234002229Blossom                                           Writing The Wrongs                                                   6068807ACC                              
ID FAMCHA990901175234175246000012Id - Kids                                                                                                                                                      
PROFAMCHA990901175246175301000015Doug - Teaser 1                                                                                                                                                
PROFAMCHA990901175301175331000030Adventures of Huck Finn - tonight @ 8:00p.m.                                                                                                                   
PROFAMCHA990901175331175356000025Aladdin - Monday to Thursday @ 6:30pm                                                                                                                          
PROFAMCHA990901175356175416000020Blossom - Monday - Friday @ 10:00pm                                                                                                                            
PRCFAMCHA990901175416175441000025Ripley's BION - Saturday @ 5:00pm                                                                                                                              
PROFAMCHA990901175441175502000021Recess - teaser 1                                                                                                                                              
PGRFAMCHA990901175502175738000236Art Attack - Frog                                                                                                      60686130                                
PROFAMCHA990901175738175753000015Lion King's Timon & Pumbaa - tonight @ 7:00pm                                                                                                                  
PROFAMCHA990901175753175810000017Hercules - Teaser 2                                                                                                                                            
PROFAMCHA990901175810175840000030Johnny Tsunami - Sunday @ 8:00pm (do not use)                                                                                                                  
PROFAMCHA990901175840175855000015Goof Troop - Weekday afternoons @ 3:30pm                                                                                                                       
PRCFAMCHA990901175855175925000030Seven Day Glance - September 6-12                                                                                                                              
PROFAMCHA990901175925175940000015Doug - Teaser 2                                                                                                                                                
ID FAMCHA990901175940175946000006Bumper - Kids                                                                                                                                                  
PRCFAMCHA990901175946180000000014Profile/Chyron - Kids Coming Up                                                                                                                                
PROFAMCHA990901180000180005000005CC Disclaimer                                                                                                                                                  
PGRFAMCHA990901180005182357002352Little Lulu Show; The                             The Dance/Locked Out/The Kissing Game                         B25043A1065607ECC                              
PRCFAMCHA990901182357182407000010Profile/Chyron - Kids Coming Up                                                                                                                                
ID FAMCHA990901182407182419000012Id - Kids                                                                                                                                                      
PROFAMCHA990901182419182434000015Doug - Teaser 1                                                                                                                                                
PROFAMCHA990901182434182449000015Lion King's Timon & Pumbaa - tonight @ 7:00pm                                                                                                                  
PROFAMCHA990901182449182519000030Adventures of Huck Finn - tonight @ 8:00p.m.                                                                                                                   
PRCFAMCHA990901182519182541000022Are You Afraid of the Dark - Coming October                                                                                                                    
PROFAMCHA990901182541182556000015Dinosaurs - weeknights @ 7:30pm                                                                                                                                
PGRFAMCHA990901182556182748000152Bill Nye - Two Eyes ( sat at noon)                                                                                     60688130                                
PROFAMCHA990901182748182818000030Johnny Tsunami - Sunday @ 8:00pm (do not use)                                                                                                                  
PROFAMCHA990901182818182833000015TaleSpin - Saturday @ 3:30 p.m.                                                                                                                                
PROFAMCHA990901182833182858000025Stick With Me, Kid - Sunday @ 4:30pm                                                                                                                           
PRCFAMCHA990901182858182928000030Seven Day Glance - September 6-12                                                                                                                              
PROFAMCHA990901182928182950000022Disney's One Too teaser #1                                                                                                                                     
ID FAMCHA990901182950183000000010Magic of Disney - scribble version                                                                                                                             
PROFAMCHA990901183000183005000005CC Disclaimer                                                                                                                                                  
PGRFAMCHA990901183005185244002239Disney's Aladdin                                  Mudder's Day                                                         6068607ECC                              
PRCFAMCHA990901185244185254000010Profile/Chyron - Family Coming Up                                                                                                                              
ID FAMCHA990901185254185306000012Id - Family                                                                                                                                                    
PRCFAMCHA990901185306185410000104Contest - Disney's One Too                                                                                                                                     
PRCFAMCHA990901185410185432000022Are You Afraid of the Dark - Coming October                                                                                                                    
PROFAMCHA990901185432185502000030Adventures of Huck Finn - tonight @ 8:00p.m.                                                                                                                   
PRCFAMCHA990901185502185527000025Ripley's BION - Saturday @ 5:00pm                                                                                                                              
PROFAMCHA990901185527185542000015Dinosaurs - weeknights @ 7:30pm                                                                                                                                
PGRFAMCHA990901185542185741000159Disney Moments - African Lion-Lion Kills Impala                                                                        60688130                                
PROFAMCHA990901185741185802000021Recess - teaser 1                                                                                                                                              
PROFAMCHA990901185802185822000020Blossom - Monday - Friday @ 10:00pm                                                                                                                            
PROFAMCHA990901185822185839000017Hercules - Teaser 2                                                                                                                                            
PROFAMCHA990901185839185904000025Stick With Me, Kid - Sunday @ 4:30pm                                                                                                                           
PROFAMCHA990901185904185934000030Johnny Tsunami - Sunday @ 8:00pm (do not use)                                                                                                                  
PROFAMCHA990901185934185949000015Doug - Teaser 2                                                                                                                                                
ID FAMCHA990901185949190000000011Magic of Disney - comet version                                                                                                                                
PROFAMCHA990901190000190005000005CC Disclaimer                                                                                                                                                  
PGRFAMCHA990901190005192243002238Lion King's Timon & Pumbaa; The                   Timon on the Range/The Man From the Jungle                           6068607ECC                              
PRCFAMCHA990901192243192258000015Profile/Chyron - Family Coming Up                                                                                                                              
ID FAMCHA990901192258192310000012Id - Family                                                                                                                                                    
PROFAMCHA990901192310192332000022Hercules - Teaser 1                                                                                                                                            
PROFAMCHA990901192332192402000030Adventures of Huck Finn - tonight @ 8:00p.m.                                                                                                                   
PRCFAMCHA990901192402192427000025Ripley's BION - Saturday @ 5:00pm                                                                                                                              
PROFAMCHA990901192427192442000015Goof Troop - Weekday afternoons @ 3:30pm                                                                                                                       
PROFAMCHA990901192442192500000018Clarissa - Monday to Thursday @ 5:00pm                                                                                                                         
PGRFAMCHA990901192500192807000307Part Of Your World - Jodi Benson                                                                                       60688130                                
PRCFAMCHA990901192807192829000022Are You Afraid of the Dark - Coming October                                                                                                                    
PROFAMCHA990901192829192844000015Doug - Teaser 1                                                                                                                                                
PROFAMCHA990901192844192914000030Johnny Tsunami - Sunday @ 8:00pm (do not use)                                                                                                                  
PROFAMCHA990901192914192929000015Mad Libs - Monday to Friday @ 4:00pm                                                                                                                           
PROFAMCHA990901192929192950000021Recess - teaser 1                                                                                                                                              
ID FAMCHA990901192950193000000010Magic of Disney - watercolour version                                                                                                                          
PROFAMCHA990901193000193005000005CC Disclaimer                                                                                                                                                  
PGRFAMCHA990901193005195232002227Dinosaurs                                         Changing Nature                                                      6068807BCC                              
PRCFAMCHA990901195232195241000009Profile/Chyron - Family Coming Up                                                                                                                              
ID FAMCHA990901195241195253000012Id - Family                                                                                                                                                    
PRCFAMCHA990901195253195323000030Contest - Disney's One Too                                                                                                                                     
PROFAMCHA990901195323195353000030Johnny Tsunami - Sunday @ 8:00pm (do not use)                                                                                                                  
PROFAMCHA990901195353195414000021Recess - teaser 1                                                                                                                                              
PRCFAMCHA990901195414195439000025Ripley's BION - Saturday @ 5:00pm                                                                                                                              
PROFAMCHA990901195439195507000028Going Wild With Jeff Corwin - Saturday @ 12:30 p.m                                                                                                             
PGRFAMCHA990901195507195746000239Music Video - Lion King 2                                                                                              60688130                                
PROFAMCHA990901195746195801000015Mad Libs - Monday to Friday @ 4:00pm                                                                                                                           
PRCFAMCHA990901195801195831000030Seven Day Glance - September 6-12                                                                                                                              
PROFAMCHA990901195831195853000022Hercules - Teaser 1                                                                                                                                            
PROFAMCHA990901195853195913000020Blossom - Tonight @ 10:00pm                                                                                                                                    
PROFAMCHA990901195913195928000015Doug - Teaser 1                                                                                                                                                
PRCFAMCHA990901195928195950000022Are You Afraid of the Dark - Coming October                                                                                                                    
ID FAMCHA990901195950200000000010Magic of Disney - watercolour version                                                                                                                          
PROFAMCHA990901200000200007000007Rating - PG                                                                                                                                                    
PROFAMCHA990901200007200017000010Block Special Opening; The                                                                                                                                     
PGRFAMCHA990901200017214444014427Adventures Of Huck Finn; The                                                                                          B6068807DCC                              
ID FAMCHA990901214444214456000012Id - Family                                                                                                                                                    
PRCFAMCHA990901214456214526000030Contest - Disney's One Too                                                                                                                                     
PRCFAMCHA990901214526214556000030Seven Day Glance - September 6-12                                                                                                                              
PROFAMCHA990901214556214617000021Recess - teaser 1                                                                                                                                              
PROFAMCHA990901214617214645000028Going Wild With Jeff Corwin - Saturday @ 12:30 p.m                                                                                                             
PROFAMCHA990901214645214702000017Hercules - Teaser 2                                                                                                                                            
PRCFAMCHA990901214702214724000022Are You Afraid of the Dark - Coming October                                                                                                                    
PGRFAMCHA990901214724215719000955Mpt-Donalds Dog Laundry                                                                                                60688130                                
PROFAMCHA990901215719215737000018Clarissa - Monday to Thursday @ 5:00pm                                                                                                                         
PROFAMCHA990901215737215752000015Doug - Teaser 2                                                                                                                                                
PROFAMCHA990901215752215807000015Mad Libs - Monday to Friday @ 4:00pm                                                                                                                           
PROFAMCHA990901215807215829000022Disney's One Too teaser #1                                                                                                                                     
PROFAMCHA990901215829215854000025Stick With Me, Kid - Sunday @ 4:30pm                                                                                                                           
PROFAMCHA990901215854215924000030Johnny Tsunami - Sunday @ 8:00pm (do not use)                                                                                                                  
PRCFAMCHA990901215924215946000022Are You Afraid of the Dark - Coming October                                                                                                                    
ID FAMCHA990901215946215952000006Bumper - Family                                                                                                                                                
PRCFAMCHA990901215952220000000008Profile/Chyron - Family Coming Up                                                                                                                              
PROFAMCHA990901220000220005000005CC Disclaimer                                                                                                                                                  
PGRFAMCHA990901220005222225002220Blossom                                           Who's In Charge Here?                                                6068807ACC                              
ID FAMCHA990901222225222237000012Id - Family                                                                                                                                                    
PROFAMCHA990901222237222252000015Doug - Teaser 1                                                                                                                                                
PROFAMCHA990901222252222322000030Johnny Tsunami - Sunday @ 8:00pm (do not use)                                                                                                                  
PRCFAMCHA990901222322222337000015Flash Forward - Weeknights @ 9:30pm                                                                                                                            
PRCFAMCHA990901222337222402000025Ripley's BION - Sunday @ 7:30pm                                                                                                                                
PGRFAMCHA990901222402222836000434Music Video - A Dream is a Wish Your Heart Makes                                                                       60688130                                
PRCFAMCHA990901222836222851000015Little Lulu Show; The - Monday to Thursday @ 6:00p                                                                                                             
PRCFAMCHA990901222851222921000030Seven Day Glance - September 6-12                                                                                                                              
PRCFAMCHA990901222921222943000022Are You Afraid of the Dark - Coming October                                                                                                                    
ID FAMCHA990901222943222949000006Bumper - Family                                                                                                                                                
PRCFAMCHA990901222949223000000011Profile/Chyron - Family Coming Up                                                                                                                              
PGRFAMCHA990901223000225512002512Muppets Tonight                                   Martin Short                                                        A3068807B                                
PRCFAMCHA990901225512225521000009Profile/Chyron - Family Coming Up                                                                                                                              
ID FAMCHA990901225521225533000012Id - Family                                                                                                                                                    
PRCFAMCHA990901225533225555000022Are You Afraid of the Dark - Coming October                                                                                                                    
PROFAMCHA990901225555225615000020Blossom - Monday to Thursday @ 5:30 p.m.                                                                                                                       
PGRFAMCHA990901225615225812000157Disney Moments - Seal Island:Two Males Fight                                                                           60688130                                
PROFAMCHA990901225812225842000030Johnny Tsunami - Sunday @ 8:00pm (do not use)                                                                                                                  
PROFAMCHA990901225842225900000018Clarissa - Monday to Thursday @ 5:00pm                                                                                                                         
PROFAMCHA990901225900225928000028Going Wild With Jeff Corwin - Saturday @ 12:30 p.m                                                                                                             
PROFAMCHA990901225928225949000021Recess - teaser 1                                                                                                                                              
ID FAMCHA990901225949230000000011Magic of Disney - comet version                                                                                                                                
PROFAMCHA990901230000230007000007Rating - PG                                                                                                                                                    
PROFAMCHA990901230007230017000010Family Opening                                                                                                                                                 
PGRFAMCHA990901230017003941013924Friendship In Vienna; A                                                                                               B6068807CCC                              
PRCFAMCHA990901003941003954000013Profile/Chyron - Family Next                                                                                                                                   
ID FAMCHA990901003954004000000006Bumper - Family                                                                                                                                                
PROFAMCHA990901004000004005000005CC Disclaimer                                                                                                                                                  
PGRFAMCHA990901004005010429002424Mouse Tracks                                      Beach Party/Jiminy Cricket-I'M No Fool In Water                      6068807ECC                              
SO FAMCHA990901010429010441000012Sign Off                                                                                                                                                       
OFFFAMCHA990901010441043000032519                                                                                                                                                               
OFFFAMCHA990902043000060000013000                                                                                                                                                               
SO FAMCHA990902060000060011000011Sign On                                                                                                                                                        
PRCFAMCHA990902060011060021000010Profile/Chyron - Pre-school Coming Up                                                                                                                          
PROFAMCHA990902060021060026000005CC Disclaimer                                                                                                                                                  
PGRFAMCHA990902060026062231002205Quack Attack                                      Cured Duck/Cold Turkey/Wise Little Hen                               6068607ECC                              
ID FAMCHA990902062231062243000012Id - Pre-school                                                                                                                                                
PROFAMCHA990902062243062304000021Recess - teaser 1                                                                                                                                              
PGRFAMCHA990902062304062932000628Richard Scarry - Couscous, North African Detective                                                              P17878 10656130                                
PROFAMCHA990902062932062947000015Doug - Teaser 2                                                                                                                                                
ID FAMCHA990902062947062953000006Bumper - Pre-school                                                                                                                                            
PRCFAMCHA990902062953063000000007Profile/Chyron - Pre-school Coming Up                                                                                                                          
PROFAMCHA990902063000063005000005CC Disclaimer                                                                                                                                                  
PGRFAMCHA990902063005065641002636Katie And Orbie                                   The Library/Roller Skates/The Scary Movie                     C12449 1065607ECC                              
ID FAMCHA990902065641065653000012Id - Pre-school                                                                                                                                                
PROFAMCHA990902065653065708000015Disney's One Too teaser #2                                                                                                                                     
PROFAMCHA990902065708065736000028Going Wild With Jeff Corwin - Saturday @ 12:30 p.m                                                                                                             
PGRFAMCHA990902065736065852000116Bill Nye - How Can We Communicate? (sat @ noon)                                                                        60688130                                
PROFAMCHA990902065852065922000030Johnny Tsunami - Sunday @ 8:00pm (do not use)                                                                                                                  
PROFAMCHA990902065922065944000022Hercules - Teaser 1                                                                                                                                            
ID FAMCHA990902065944065950000006Bumper - Pre-school                                                                                                                                            
PRCFAMCHA990902065950070000000010Profile/Chyron - Pre-school Coming Up                                                                                                                          
PROFAMCHA990902070000070005000005CC Disclaimer                                                                                                                                                  
PGRFAMCHA990902070005072415002410Busy World Of Richard Scarry; The                 Superstitious Bananas/Pepe The Goodstaire/Drive-Th            B24400 1155607ECC3                             
ID FAMCHA990902072415072427000012Id - Pre-school                                                                                                                                                
PROFAMCHA990902072427072448000021Recess - teaser 1                                                                                                                                              
PRCFAMCHA990902072448072518000030Seven Day Glance - September 6-12                                                                                                                              
PGRFAMCHA990902072518072909000351Art Attack - Puppy Dog                                                                                                 60686130                                
PROFAMCHA990902072909072927000018Omba Mokomba - Saturday @ 1:00pm                                                                                                                               
PROFAMCHA990902072927072942000015Doug - Teaser 1                                                                                                                                                
ID FAMCHA990902072942072948000006Bumper - Pre-school                                                                                                                                            
PRCFAMCHA990902072948073000000012Profile/Chyron - Pre-school Coming Up                                                                                                                          
PROFAMCHA990902073000073005000005CC Disclaimer                                                                                                                                                  
PGRFAMCHA990902073005075258002253Franklin                                          Franklin & The Gloomy Day/Franklin Tells Time                 B13651 1065607ECC                              
PRCFAMCHA990902075258075308000010Profile/Chyron - Pre-school Coming Up                                                                                                                          
ID FAMCHA990902075308075320000012Id - Pre-school                                                                                                                                                
PGRFAMCHA990902075320075949000629Richard Scarry - Schtoompah, The Funny Austrian                                                                 P17885 10656130                                
ID FAMCHA990902075949080000000011Magic of Disney - comet version                                                                                                                                
PROFAMCHA990902080000080005000005CC Disclaimer                                                                                                                                                  
PGRFAMCHA990902080005082248002243Goof Troop                                        From Air To Eternity                                                 6068607ECC                              
PRCFAMCHA990902082248082259000011Profile/Chyron - Pre-school Coming Up                                                                                                                          
ID FAMCHA990902082259082311000012Id - Pre-school                                                                                                                                                
PROFAMCHA990902082311082326000015Doug - Teaser 1                                                                                                                                                
PRCFAMCHA990902082326082356000030Seven Day Glance - September 6-12                                                                                                                              
PGRFAMCHA990902082356082700000304Muppet Time - The Three Little Silly Bears - A Lit                                                                     30686130                                
PGRFAMCHA990902082700082927000227Disney Moments - Dumbo-Song Of The Roustabouts                                                                         60688130                                
PROFAMCHA990902082927082942000015Lion King's Timon & Pumbaa - tonight @ 7:00pm                                                                                                                  
PROFAMCHA990902082942082950000008Disney's One/Too (Almost Here) Teaser #1                                                                                                                       
ID FAMCHA990902082950083000000010Magic of Disney - scribble version                                                                                                                             
PGRFAMCHA990902083000085246002246Chip 'n Dale Rescue Rangers                       Throw Mummy From The Train                                           6068607E                                
ID FAMCHA990902085246085258000012Id - Pre-school                                                                                                                                                
PROFAMCHA990902085258085320000022Hercules - Teaser 1                                                                                                                                            
PROFAMCHA990902085320085345000025Aladdin - tonight @ 6:30pm                                                                                                                                     
PROFAMCHA990902085345085413000028Going Wild With Jeff Corwin - Saturday @ 12:30 p.m                                                                                                             
PGRFAMCHA990902085413085850000437Music Video - Go the Distance                                                                                          60688130                                
PROFAMCHA990902085850085905000015Dinosaurs - today @ 12 noon                                                                                                                                    
PROFAMCHA990902085905085920000015Mad Libs - Monday to Friday @ 4:00pm                                                                                                                           
PROFAMCHA990902085920085935000015Doug - Teaser 2                                                                                                                                                
ID FAMCHA990902085935085940000005Website                                                                                                                                                        
ID FAMCHA990902085940085946000006Bumper - Pre-school                                                                                                                                            
PRCFAMCHA990902085946090000000014Profile/Chyron - Pre-school Coming Up                                                                                                                          
PROFAMCHA990902090000090005000005CC Disclaimer                                                                                                                                                  
PGRFAMCHA990902090005092320002315Babar                                             Insecurity System                                             C07575 1065607ECC                              
ID FAMCHA990902092320092332000012Id - Pre-school                                                                                                                                                
PROFAMCHA990902092332092353000021Recess - teaser 1                                                                                                                                              
PROFAMCHA990902092353092421000028Going Wild With Jeff Corwin - Saturday @ 12:30 p.m                                                                                                             
PROFAMCHA990902092421092447000026Muppets Tonight - Sunday @ 5:30pm                                                                                                                              
PRCFAMCHA990902092447092500000013Profile/Chyron - Pre-school Coming Up                                                                                                                          
PROFAMCHA990902092500092505000005CC Disclaimer                                                                                                                                                  
PGRFAMCHA990902092505094855002350Kleo The Misfit Unicorn                           Thomas & Kleo                                                 A03939 1065607ECC                              
ID FAMCHA990902094855094901000006Bumper - Pre-school                                                                                                                                            
PROFAMCHA990902094901094916000015Doug - Teaser 1                                                                                                                                                
PRCFAMCHA990902094916094946000030Seven Day Glance - September 6-12                                                                                                                              
PROFAMCHA990902094946095004000018Clarissa - today @ 5:00pm                                                                                                                                      
PROFAMCHA990902095004095030000026Muppets Tonight - Sunday @ 5:30pm                                                                                                                              
PROFAMCHA990902095030095045000015PB&J Otter - Weekends @ 7:30 a.m.                                                                                                                              
PROFAMCHA990902095045095050000005Disney's One/Too (Almost Here) Teaser #2                                                                                                                       
PRCFAMCHA990902095050095100000010Profile/Chyron - Pre-school Coming Up                                                                                                                          
PROFAMCHA990902095100095105000005CC Disclaimer                                                                                                                                                  
PGRFAMCHA990902095105101515002410Busy World Of Richard Scarry; The                 King & Queen For A Day/Piggy Express/Practice Make            B24401 1155607ECC3                             
ID FAMCHA990902101515101521000006Bumper - Pre-school                                                                                                                                            
PROFAMCHA990902101521101551000030Johnny Tsunami - Sunday @ 8:00pm (do not use)                                                                                                                  
PROFAMCHA990902101551101619000028Going Wild With Jeff Corwin - Saturday @ 12:30 p.m                                                                                                             
PRCFAMCHA990902101619101644000025Ripley's BION - Saturday @ 5:00pm                                                                                                                              
PROFAMCHA990902101644101652000008Disney's One/Too (Almost Here) Teaser #1                                                                                                                       
PRCFAMCHA990902101652101700000008Profile/Chyron - Pre-school Coming Up                                                                                                                          
PROFAMCHA990902101700101705000005CC Disclaimer                                                                                                                                                  
PGRFAMCHA990902101705104105002400Hello Mrs. Cherrywinkle                           Why, Oh Why, Oh Why                                           C14683A1065607ACC                              
ID FAMCHA990902104105104117000012Id - Pre-school                                                                                                                                                
PROFAMCHA990902104117104138000021Recess - teaser 1                                                                                                                                              
PRCFAMCHA990902104138104208000030Seven Day Glance - September 6-12                                                                                                                              
PROFAMCHA990902104208104226000018Omba Mokomba - Sunday @ 3:00pm                                                                                                                                 
PROFAMCHA990902104226104251000025Stick With Me, Kid - Sunday @ 4:30pm                                                                                                                           
PRCFAMCHA990902104251104300000009Profile/Chyron - Pre-school Coming Up                                                                                                                          
PROFAMCHA990902104300104305000005CC Disclaimer                                                                                                                                                  
PGRFAMCHA990902104305110558002253Franklin                                          Franklin's Test/Franklin & the Duckling                       B13652 1065607ECC                              
ID FAMCHA990902110558110610000012Id - Pre-school                                                                                                                                                
PROFAMCHA990902110610110625000015Doug - Teaser 1                                                                                                                                                
PGRFAMCHA990902110625110719000054Bill Nye - Power to the Plankton (sat @ noon)                                                                          60688130                                
PROFAMCHA990902110719110746000027Recess - teaser 2                                                                                                                                              
PRCFAMCHA990902110746110800000014Profile/Chyron - Pre-school Coming Up                                                                                                                          
PROFAMCHA990902110800110805000005CC Disclaimer                                                                                                                                                  
PGRFAMCHA990902110805113313002508Amazing Animals                                   Polar Animals                                                        60286110CC                              
ID FAMCHA990902113313113319000006Bumper - Pre-school                                                                                                                                            
PROFAMCHA990902113319113341000022Disney's One Too teaser #1                                                                                                                                     
PROFAMCHA990902113341113411000030Darkwing Duck - weekdays @ 2:00pm                                                                                                                              
PROFAMCHA990902113411113426000015Dinosaurs - today @ 12 noon                                                                                                                                    
PROFAMCHA990902113426113448000022Hercules - Teaser 1                                                                                                                                            
PRCFAMCHA990902113448113500000012Profile/Chyron - Pre-school Coming Up                                                                                                                          
PROFAMCHA990902113500113505000005CC Disclaimer                                                                                                                                                  
PGRFAMCHA990902113505115837002332Little Lulu Show; The                             Lulu Stays Put, Shoeless Lulu, Star Search                    A20195A1055607ECC3                             
PRCFAMCHA990902115837115845000008Profile/Chyron - Kids Coming Up                                                                                                                                
ID FAMCHA990902115845115857000012Id - Kids                                                                                                                                                      
PGRFAMCHA990902115857115950000053Bill Nye - Friction Happens (sat @ noon)                                                                               60688130                                
ID FAMCHA990902115950120000000010Magic of Disney - watercolour version                                                                                                                          
PROFAMCHA990902120000120005000005CC Disclaimer                                                                                                                                                  
