PGRFAMCHA130901043000045231002231Franny's Feet                                     EP: 40                                                        C31292 1065607ECC                              
PROFAMCHA130901045231045238000007D-JR Live Action ID - SWOBB - Coming Up (May2012)                                                                           150                                
PROFAMCHA130901045238045303000025D-JR Live Action ID - #12 Feed Goldfish (May2012)                                                                           150                                
PROFAMCHA130901045303045400000057D-JR Promo - Image Campaign (Aug 12-Sept 21)                                                                                150                                
PROFAMCHA130901045400045410000010D-JR - Short Open (:10) (May2011)                                                                                           150                                
PROFAMCHA130901045410045710000300PH-D Short - Mickey Mousekersize Shorts - 09 - Fol                                                                          150CC                              
PROFAMCHA130901045710045716000006D-JR - Short Close (:06) (May2011)                                                                                          150                                
PROFAMCHA130901045716045816000100D-JR Promo - Tickety Toc - Racing The Clock - Get                                                                           150                                
PROFAMCHA130901045816045849000033D-JR Promo - Bananas in Pajamas - Clip 2 - Get mor                                                                          150                                
PROFAMCHA130901045849045919000030D-JR Promo - Little Einsteins - Get more on D-JR t                                                                          150                                
PROFAMCHA130901045919045944000025D-JR Live Action ID - #13 Make Bed (May2012)                                                                                150                                
PROFAMCHA130901045944045951000007D-JR Live Action ID - SWOBB - Now (May2012)                                                                                 150                                
PROFAMCHA130901045951045959000008D-JR - Flex ID - Blue (:6-:10) (Feb2012)                                                                                    150                                
PGRFAMCHA130901045959052229002230The Secret World of Benjamin Bear                 EP: 21                                                        C26066 1065607ECC                              
PROFAMCHA130901052229052236000007D-JR Live Action ID - Harry & His Dinosaurs - Comi                                                                          150                                
PROFAMCHA130901052236052301000025D-JR Live Action ID - #71 Making Cards (Sept2012)                                                                           150                                
PROFAMCHA130901052301052351000050D-JR Promo - Henry Hugglemonster - Get more HH on                                                                           150                                
PROFAMCHA130901052351052401000010D-JR - Short Open (:10) (May2011)                                                                                           150                                
PROFAMCHA130901052401052558000157PH-D Short - Can You...Alligator Manners S1 - 10 -                                                                          150                                
PROFAMCHA130901052558052604000006D-JR - Short Close (:06) (May2011)                                                                                          150                                
PROFAMCHA130901052604052704000100D-JR Promo - Tickety Toc - Racing The Clock - Get                                                                           150                                
PROFAMCHA130901052704052746000042D-JR Promo - Bananas in Pajamas - Get more on the                                                                           150                                
PROFAMCHA130901052746052828000042D-JR Promo - Sofia The First: A Princess Thing - G                                                                          150                                
PROFAMCHA130901052828052920000052D-JR Promo - Doc McStuffins - Get more on the chan                                                                          150                                
PROFAMCHA130901052920052945000025D-JR Live Action ID - #72 Family Tree Craft (Sept2                                                                          150                                
PROFAMCHA130901052945052952000007D-JR Live Action ID - Harry & His Dinosaurs - Now                                                                           150                                
PROFAMCHA130901052952053000000008D-JR - Flex ID - Green (:6-:10) (Feb2012)                                                                                   150                                
PGRFAMCHA130901053000055134002134Harry and His Bucket Full of Dinosaurs            EP: 13                                                        B05032 1065607ECC                              
PROFAMCHA130901055134055144000010LU - (HD) Wingin' It/Suite Life on Deck Weekends @                                                                          150                                
PRCFAMCHA130901055144055226000042STUNT - Labour Day Ferbathon (HD) Tomorrow Morning                                                                          150                                
PGRFAMCHA130901055226055626000400MV Non Disney (HD) Young Avz-That Song On The Radi                                                                     10615120CC                              
PROFAMCHA130901055626055656000030Episodic Jessie (HD) 222 New Ep Friday Night @ 730                                                                          150                                
PGRFAMCHA130901055656055811000115MV Disney (HD) TBM - Cruisin' For a Bruisin' (Gene                                                                     60685120CC                              
PROFAMCHA130901055811055825000014Big Ticket Summer ID (HD) EPO - Friday Night @ 8 (                                                                          150                                
PRCFAMCHA130901055825055832000007Selena Gomez Station ID (HD) You're Watching Famil                                                                          150                                
PROFAMCHA130901055832055910000038Wingin It (HD) Refresh Promo - Coming Up Next (Apr                                                                          150                                
PROFAMCHA130901055910055950000040DXD Adv of Sharkboy&Lavagirl (HD) Prems Sunday Sep                                                                          150                                
PROFAMCHA130901055950055959000009D-JR - Flex ID - Purple (:6-:10) (Feb2012)                                                                                  150                                
PRCFAMCHA130901055959060013000014Descriptive Video Slate (HD) (Apr2013)                                                                                      150                                
PGRFAMCHA130901060013062242002229Wingin' It                                        EP: 05                                                        C32356 1065607ACD                              
PRCFAMCHA130901062242062325000043Liv & Maddie (HD) Premise Sell Cutdown - Prems Fri                                                                          150                                
PGRFAMCHA130901062325062455000130Int Who I Am (HD) Dove Cameron (Aug 12-March30)                                                                        60685120                                
PROFAMCHA130901062455062525000030Episodic GLC (HD) 410 Tomorrow Night @ 830 (Sep 1)                                                                          150                                
PGRFAMCHA130901062525062802000237Selena Gomez (HD) Viewer Questions (Aug 31-Nov30)                                                                      10218120                                
PROFAMCHA130901062802062815000013Big Ticket Summer ID (HD) R5 - 3 Boys - Friday Nig                                                                          150                                
PROFAMCHA130901062815062849000034SLOD (HD) SS Tipton - Coming Up Next (Apr2013)                                                                              150                                
PROFAMCHA130901062849062924000035TBM Sing & Dance Along (HD) Prems Tomorrow Aft @ 4                                                                          150                                
PRCFAMCHA130901062924062953000029Family Bumper Flex (HD) Flex ID - Austin & Ally (F                                                                          150                                
PGRFAMCHA130901062953065225002232The Suite Life on Deck                            EP: 19                                                               6068607BCC                              
PROFAMCHA130901065225065240000015Big Ticket Summer ID (HD) R5 - Rydel & Ratliff - F                                                                          150                                
PGRFAMCHA130901065240065616000336MV Disney (HD) R5 - Loud (Feb22-Sept6)                                                                                 60685120CC                              
PROFAMCHA130901065616065659000043EPISODIC PAF (HD) 404 Tomorrow Aft @ 4 part of Fer                                                                          150                                
PGRFAMCHA130901065659065829000130MV Disney (HD) Bridgit Mendler - Top of the World                                                                      60685120CC                              
PROFAMCHA130901065829065912000043Mickey Mouse Shorts Promo (HD) Every Friday Night                                                                           150                                
PROFAMCHA130901065912065918000006SWAC (HD) ID - Brandon Mychal Smith 1 "Coming Up N                                                                          150                                
PROFAMCHA130901065918065947000029Episodic SIU (HD) 319 Friday Night @ 6 (Aug 31-Sep                                                                          150                                
PRCFAMCHA130901065947065956000009Family Bumper (HD) Summer Flex ID - BBQ (:07-:09)                                                                           150                                
PGRFAMCHA130901065956072227002231Sonny With A Chance                               EP: 04                                                               6068607BCC                              
PRCFAMCHA130901072227072309000042STUNT - Labour Day Ferbathon (HD) Tomorrow Morning                                                                          150                                
PROFAMCHA130901072309072354000045Mattel                                                                                                                      150                                
PROFAMCHA130901072354072434000040DXD Adv of Sharkboy&Lavagirl (HD) Prems Sunday Sep                                                                          150                                
PGRFAMCHA130901072434072824000350MV Disney (HD) Zendaya - Replay (Aug 25-Nov30)                                                                         60685120CC                              
PROFAMCHA130901072824072843000019WOWP (HD) Clip Bad Time - Coming Up Next (April 20                                                                          150                                
PROFAMCHA130901072843072933000050Sony Pictures                                                                                                               150                                
PROFAMCHA130901072933072949000016Big Ticket Summer ID (HD) TNS - Girls - Friday Nig                                                                          150                                
PRCFAMCHA130901072949073000000011Family Bumper (HD) Summer Flex ID - Park (:10-:14)                                                                          150                                
PGRFAMCHA130901073000075232002232Disney Wizards of Waverly Place                   EP: 17                                                               6068507BCC                              
PROFAMCHA130901075232075302000030Episodic GLC (HD) 410 Tomorrow Night @ 830 (Sep 1)                                                                          150                                
PROFAMCHA130901075302075402000100Disney Interactive                                                                                                          150                                
PROFAMCHA130901075402075415000013Big Ticket Summer ID (HD) Victoria Duffield - Frid                                                                          150                                
PGRFAMCHA130901075415075806000351MV Non Disney (HD) Eleven Past One - The World Is                                                                      10615120CC                              
PROFAMCHA130901075806075835000029Episodic SIU (HD) 319 Friday Night @ 6 (Aug 31-Sep                                                                          150                                
PROFAMCHA130901075835075907000032PAF (HD) Delicious Refresh - Coming Up Next (Jun20                                                                          150                                
PROFAMCHA130901075907075937000030Episodic Jessie (HD) 222 New Ep Friday Night @ 730                                                                          150                                
PRCFAMCHA130901075937075955000018Family Bumper Flex (HD) Flex ID - ANT Farm (:16-:2                                                                          150                                
PGRFAMCHA130901075955082226002231Disney Phineas and Ferb                           EP: 21                                                               6068607ECC                              
PROFAMCHA130901082226082236000010LU - (HD) Dog with a Blog/Good Luck Charlie Weeken                                                                          150                                
PRCFAMCHA130901082236082309000033BAW Campaign (HD) Contest - Check out family.ca (S                                                                          150                                
PGRFAMCHA130901082309082631000322MV Non Disney (HD) BAW 2013 - Stand up and Shout (                                                                     10615120CC                              
PRCFAMCHA130901082631082651000020BTS Concert Liner (HD) The Next Step Hosts - Calga                                                                          150                                
PRCFAMCHA130901082651082728000037Selena Gomez Get To Know (HD) (July5-Sept5)                                                                                 150                                
PROFAMCHA130901082728082811000043EPISODIC PAF (HD) 404 Tomorrow Aft @ 4 part of Fer                                                                          150                                
PROFAMCHA130901082811082851000040DWAB (HD) Family Sell RV - Coming Up Next (April 2                                                                          150                                
PROFAMCHA130901082851082926000035TBM Sing & Dance Along (HD) Prems Tomorrow Aft @ 4                                                                          150                                
PRCFAMCHA130901082926082955000029Family Bumper Flex (HD) Flex ID - Austin & Ally (F                                                                          150                                
PGRFAMCHA130901082955085230002235Disney Dog With A Blog                            EP: 19                                                               6068807BCC                              
PROFAMCHA130901085230085240000010LU - (HD) Good Luck Charlie/Wingin' It Weekends @                                                                           150                                
PRCFAMCHA130901085240085322000042STUNT - Labour Day Ferbathon (HD) Tomorrow Morning                                                                          150                                
PROFAMCHA130901085322085412000050Sony Pictures                                                                                                               150                                
PROFAMCHA130901085412085441000029Episodic SIU (HD) 319 Friday Night @ 6 (Aug 31-Sep                                                                          150                                
PGRFAMCHA130901085441085808000327MV Non Disney (HD) Hayley Kiyoko - A Belle To Reme                                                                     10615120CC                              
PROFAMCHA130901085808085822000014Big Ticket Summer ID (HD) EPO - Friday Night @ 8 (                                                                          150                                
PROFAMCHA130901085822085838000016Shake It Up (HD) Refresh CD - Check Out Family.ca                                                                           150                                
PROFAMCHA130901085838085906000028GLC (HD) Promo 4 - Coming Up Next (April 2013)                                                                              150                                
PRCFAMCHA130901085906085949000043Liv & Maddie (HD) Premise Sell Cutdown - Prems Fri                                                                          150                                
PRCFAMCHA130901085949085958000009Family Bumper (HD) BTS Waterslide (Jul2013)                                                                                 150                                
PGRFAMCHA130901085958092159002201Good Luck Charlie                                 EP: 15                                                               6068707BCC                              
PROFAMCHA130901092159092209000010LU - (HD) Wingin' It/ANT Farm Weekends @ 10:00am (                                                                          150                                
PROFAMCHA130901092209092239000030Episodic GLC (HD) 410 Tomorrow Night @ 830 (Sep 1)                                                                          150                                
PGRFAMCHA130901092239092639000400MV Non Disney (HD) Young Avz-That Song On The Radi                                                                     10615120CC                              
PROFAMCHA130901092639092655000016BTS Liner (HD) Tyler Shaw -- Calgary (Aug 20-Sep6)                                                                          150                                
PROFAMCHA130901092655092738000043Mickey Mouse Shorts Promo (HD) Every Friday Night                                                                           150                                
PROFAMCHA130901092738092818000040DXD Adv of Sharkboy&Lavagirl (HD) Prems Sunday Sep                                                                          150                                
PROFAMCHA130901092818092856000038Wingin It (HD) Refresh Promo - Coming Up Next (Apr                                                                          150                                
PRCFAMCHA130901092856092941000045Next Step Rewind (HD) Friday Sept 13 @ 7 (Sep 1-5)                                                                          150                                
PRCFAMCHA130901092941092958000017Family Bumper Flex (HD) Flex ID - Jessie ID (:15-:                                                                          150                                
PRCFAMCHA130901092958093012000014Descriptive Video Slate (HD) (Apr2013)                                                                                      150                                
PGRFAMCHA130901093012095245002233Wingin' It                                        EP: 07                                                        C32356 1065607ACD                              
PROFAMCHA130901095245095255000010LU - (HD) ANT Farm/Jessie Weekends @ 10:30am (Apri                                                                          150                                
PROFAMCHA130901095255095308000013Big Ticket Summer ID (HD) R5 - 3 Boys - Friday Nig                                                                          150                                
PROFAMCHA130901095308095403000055Disney Interactive                                                                                                          150                                
PRCFAMCHA130901095403095410000007Selena Gomez Station ID (HD) You're Watching Famil                                                                          150                                
PGRFAMCHA130901095410095733000323MV Non Disney (HD) Mandia Nantsios - Smile (Aug 17                                                                     10615120CC                              
PRCFAMCHA130901095733095803000030Web FOD 2012 Refresh (HD) Family.ca New Look (Apr2                                                                          150                                
PGRFAMCHA130901095803095903000100MV Disney (HD) Taylor Swift & PAF - Trouble (Aug 2                                                                     60688120                                
PROFAMCHA130901095903095918000015ANT Farm (HD) Refresh CT - Coming Up Next (April 2                                                                          150                                
PROFAMCHA130901095918095948000030Episodic Jessie (HD) 222 New Ep Friday Night @ 730                                                                          150                                
PRCFAMCHA130901095948100002000014Family Bumper (HD) Summer Flex ID - Park (:10-:14)                                                                          150                                
PGRFAMCHA130901100002102218002216Disney A.N.T. Farm                                EP: 04                                                               6068607BCC                              
PROFAMCHA130901102218102228000010LU - (HD) Jessie/Austin & Ally Weekends @ 11:00am                                                                           150                                
PRCFAMCHA130901102228102310000042STUNT - Labour Day Ferbathon (HD) Tomorrow Morning                                                                          150                                
PROFAMCHA130901102310102355000045Mattel                                                                                                                      150                                
PROFAMCHA130901102355102410000015Big Ticket Summer ID (HD) R5 - Rydel & Ratliff - F                                                                          150                                
PGRFAMCHA130901102410102746000336MV Disney (HD) R5 - Loud (Feb22-Sept6)                                                                                 60685120CC                              
PROFAMCHA130901102746102759000013Olly Murs ID (HD) You'r Watching Family (July14-Se                                                                          150                                
PGRFAMCHA130901102759102859000100SYN (HD) Planes - Do's and Dont's (Aug25-Sep14)                                                                        70685120CC                              
PROFAMCHA130901102859102914000015Jessie (HD) Refresh CD - Coming Up Next (Apr2013)                                                                           150                                
PROFAMCHA130901102914102949000035TBM Sing & Dance Along (HD) Prems Tomorrow Aft @ 4                                                                          150                                
PRCFAMCHA130901102949103007000018Family Bumper Flex (HD) Flex ID - Music ID (:14-:1                                                                          150                                
PGRFAMCHA130901103007105256002249Disney Jessie                                     EP: 21                                                               6068807BCC                              
PROFAMCHA130901105256105306000010LU - (HD) Austin & Ally/Shake it Up Weekends @ 11:                                                                          150                                
PROFAMCHA130901105306105336000030Episodic Jessie (HD) 222 New Ep Friday Night @ 730                                                                          150                                
PROFAMCHA130901105336105426000050Disney Interactive                                                                                                          150                                
PROFAMCHA130901105426105456000030Geek Charming (HD) Pop Sell - Today @ Noon (Apr201                                                                          150                                
PGRFAMCHA130901105456105818000322MV Non Disney (HD) Ish - Rollin' (Jul12-Jan12)                                                                         10615120CC                              
PRCFAMCHA130901105818105851000033BAW Campaign (HD) Contest - Check out family.ca (S                                                                          150                                
PROFAMCHA130901105851105907000016Big Ticket Summer ID (HD) TNS - Boys - Friday Nigh                                                                          150                                
PROFAMCHA130901105907105950000043EPISODIC PAF (HD) 404 Tomorrow Aft @ 4 part of Fer                                                                          150                                
PRCFAMCHA130901105950110005000015Family Flex Next (HD) A&A Ross NEW EP (Aug 2013) (                                                                          150                                
PGRFAMCHA130901110005112308002303Disney Austin & Ally                              EP: 21                                                               6068807BCC                              
PRCFAMCHA130901112308112351000043Liv & Maddie (HD) Premise Sell Cutdown - Prems Fri                                                                          150                                
PROFAMCHA130901112351112451000100Disney Interactive                                                                                                          150                                
PROFAMCHA130901112451112507000016Big Ticket Summer ID (HD) TNS - Girls - Friday Nig                                                                          150                                
PGRFAMCHA130901112507112744000237Selena Gomez (HD) Viewer Questions (Aug 31-Nov30)                                                                      10618120                                
PROFAMCHA130901112744112810000026Web DWAB @ family.ca (HD) Play Games at family.ca                                                                           150                                
PROFAMCHA130901112810112825000015PSA CMF (HD) Canada on Screen (Nov2012) (3x per da                                                                          150                                
PROFAMCHA130901112825112855000030Episodic GLC (HD) 410 Tomorrow Night @ 830 (Sep 1)                                                                          150                                
PRCFAMCHA130901112855112910000015Family Flex Next (HD) SIU Zendaya (Aug 2013) (:13-                                                                          150                                
PGRFAMCHA130901112910115146002236Disney Shake It Up                                EP: 18                                                               6068707BCC                              
PROFAMCHA130901115146115215000029Episodic SIU (HD) 319 Friday Night @ 6 (Aug 31-Sep                                                                          150                                
PGRFAMCHA130901115215115606000351MV Non Disney (HD) Eleven Past One - The World Is                                                                      10615120CC                              
PRCFAMCHA130901115606115648000042STUNT - Labour Day Ferbathon (HD) Tomorrow Morning                                                                          150                                
PGRFAMCHA130901115648115748000100SYN (HD) Super Buddies - Meet the Super Buddies (A                                                                     60685120CC                              
PROFAMCHA130901115748115813000025D-JR Promo - JATNP - Get more on the channel REV (                                                                          150                                
PROFAMCHA130901115813115843000030Geek Charming (HD) Pop Sell - Coming Up Next (Apr2                                                                          150                                
PROFAMCHA130901115843115856000013Big Ticket Summer ID (HD) Victoria Duffield - Frid                                                                          150                                
PRCFAMCHA130901115856115910000014Family Bumper (HD) Summer Flex ID - Park (:10-:14)                                                                          150                                
ID FAMCHA130901115910115919000009Popcorn Pix Rating Slate (HD) - G (Jan 2011)                                                                                150                                
ID FAMCHA130901115919115924000005Popcorn Pix Magic of Disney Bumper (HD) (Apr2013)                                                                           150                                
PGRFAMCHA130901115924133703013739Geek Charming                                                                                                         A6068807CCC                              
PROFAMCHA130901133703133713000010LU - (HD) Phineas and Ferb/Gravity Falls Weekends                                                                           150                                
PROFAMCHA130901133713133746000033D-JR Promo - Bananas in Pajamas - Clip 2 - Get mor                                                                          150                                
PROFAMCHA130901133746133803000017PAF (HD) Disney Refresh CD - Coming Up Next (April                                                                          150                                
PRCFAMCHA130901133803133819000016Family Bumper Flex (HD) Flex ID - Music ID (:14-:1                                                                          150                                
PGRFAMCHA130901133819140052002233Disney Phineas & Ferb                             EP: 10                                                               6068607ECC                              
PROFAMCHA130901140052140102000010LU - (HD) Gravity Falls/ANT Farm Weekends @ 2:30pm                                                                          150                                
PRCFAMCHA130901140102140144000042STUNT - Labour Day Ferbathon (HD) Tomorrow Morning                                                                          150                                
PROFAMCHA130901140144140214000030Episodic Jessie (HD) 222 New Ep Friday Night @ 730                                                                          150                                
PRCFAMCHA130901140214140259000045Next Step Rewind (HD) Friday Sept 13 @ 7 (Sep 1-5)                                                                          150                                
PRCFAMCHA130901140259140322000023Gravity Falls (HD) Comedy Sell - Coming Up Next (A                                                                          150                                
PROFAMCHA130901140322140333000011Big Ticket Summer ID (HD) Zendaya - Friday Night @                                                                          150                                
PRCFAMCHA130901140333140342000009Family Bumper (HD) BTS Waterslide (Jul2013)                                                                                 150                                
PGRFAMCHA130901140342142617002235Disney Gravity Falls                              EP: 07                                                               6068607ECC                              
PROFAMCHA130901142617142627000010LU - (HD) ANT Farm/Good Luck Charlie Weekends @ 3:                                                                          150                                
PROFAMCHA130901142627142657000030Episodic GLC (HD) 410 Tomorrow Night @ 830 (Sep 1)                                                                          150                                
PRCFAMCHA130901142657142717000020BTS Concert Liner (HD) The Next Step Hosts - Calga                                                                          150                                
PROFAMCHA130901142717142800000043EPISODIC PAF (HD) 404 Tomorrow Aft @ 4 part of Fer                                                                          150                                
PROFAMCHA130901142800142833000033ANT Farm (HD) Refresh - Coming Up Next (Jun2013)                                                                            150                                
PROFAMCHA130901142833142902000029Episodic SIU (HD) 319 Friday Night @ 6 (Aug 31-Sep                                                                          150                                
PRCFAMCHA130901142902142916000014Family Bumper Flex (HD) Flex ID - Wingin It (Apr20                                                                          150                                
PGRFAMCHA130901142916145148002232Disney A.N.T. Farm                                EP: 03                                                               6068607BCC                              
PROFAMCHA130901145148145223000035TBM Sing & Dance Along (HD) Prems Tomorrow Aft @ 4                                                                          150                                
PGRFAMCHA130901145223145613000350MV Disney (HD) Zendaya - Replay (Aug 25-Nov30)                                                                         60685120CC                              
PRCFAMCHA130901145613145658000045Big Ticket Summer Special (HD) Prems Friday Night                                                                           150                                
PGRFAMCHA130901145658145828000130MV Disney (HD) Bridgit Mendler - Top of the World                                                                      60685120CC                              
PROFAMCHA130901145828145834000006GLC (HD) ID - Bridget Mendler 2 "Coming Up Next" (                                                                          150                                
PROFAMCHA130901145834145914000040DXD Adv of Sharkboy&Lavagirl (HD) Prems Sunday Sep                                                                          150                                
PRCFAMCHA130901145914145923000009Family Bumper (HD) Summer Flex ID - BBQ (:07-:09)                                                                           150                                
PGRFAMCHA130901145923152127002204Disney Good Luck Charlie                          EP: 02                                                               6068807BCC                              
PROFAMCHA130901152127152157000030Episodic GLC (HD) 410 Tomorrow Night @ 830 (Sep 1)                                                                          150                                
PGRFAMCHA130901152157152346000149Selena Gomez Interview (HD) #2 (Aug 23-Oct 31)                                                                         10618120                                
PROFAMCHA130901152346152400000014Big Ticket Summer ID (HD) EPO - Friday Night @ 8 (                                                                          150                                
PGRFAMCHA130901152400152751000351MV Non Disney (HD) Eleven Past One - The World Is                                                                      10615120CC                              
PRCFAMCHA130901152751152824000033BAW Campaign (HD) Contest - Check out family.ca (S                                                                          150                                
PROFAMCHA130901152824152830000006WOWP (HD) ID - Jennifer Stone 2 "Coming Up Next" (                                                                          150                                
PRCFAMCHA130901152830152913000043Liv & Maddie (HD) Premise Sell Cutdown - Prems Fri                                                                          150                                
PRCFAMCHA130901152913152927000014Family Bumper Flex (HD) Flex ID - Wingin It (Apr20                                                                          150                                
PGRFAMCHA130901152927155201002234Disney Wizards of Waverly Place                   EP: 01                                                               6068607BCC                              
PROFAMCHA130901155201155211000010LU - (HD) Jessie/Dog with a Blog Weekends @ 4:30pm                                                                          150                                
PROFAMCHA130901155211155224000013Big Ticket Summer ID (HD) R5 - 3 Boys - Friday Nig                                                                          150                                
PGRFAMCHA130901155224155600000336MV Disney (HD) R5 - Loud (Feb22-Sept6)                                                                                 60685120CC                              
PRCFAMCHA130901155600155642000042STUNT - Labour Day Ferbathon (HD) Tomorrow Morning                                                                          150                                
PROFAMCHA130901155642155716000034SLOD (HD) SS Tipton - Check Out Family.ca for Show                                                                          150                                
PGRFAMCHA130901155716155846000130Int Who I Am (HD) Dove Cameron (Aug 12-March30)                                                                        60685120                                
PROFAMCHA130901155846155915000029Episodic SIU (HD) 319 Friday Night @ 6 (Aug 31-Sep                                                                          150                                
PRCFAMCHA130901155915155929000014Family Flex Next (HD) Jessie - Jessie  (:12-:14) (                                                                          150                                
PGRFAMCHA130901155929162204002235Disney Jessie                                     EP: 22                                                               6068807BCC                              
PROFAMCHA130901162204162214000010LU - (HD) Dog with a Blog/Shake it Up Weekends @ 5                                                                          150                                
PROFAMCHA130901162214162244000030Episodic Jessie (HD) 222 New Ep Friday Night @ 730                                                                          150                                
PGRFAMCHA130901162244162644000400MV Non Disney (HD) Young Avz-That Song On The Radi                                                                     10615120CC                              
PROFAMCHA130901162644162700000016Shake It Up (HD) Refresh CD - Check Out Family.ca                                                                           150                                
PROFAMCHA130901162700162743000043EPISODIC PAF (HD) 404 Tomorrow Aft @ 4 part of Fer                                                                          150                                
PGRFAMCHA130901162743162843000100MV Disney (HD) Taylor Swift & PAF - Trouble (Aug 2                                                                     60688120                                
PRCFAMCHA130901162843162850000007Selena Gomez Station ID (HD) You're Watching Famil                                                                          150                                
PROFAMCHA130901162850162905000015PSA CMF (HD) Canada on Screen (Nov2012) (3x per da                                                                          150                                
PROFAMCHA130901162905162920000015Big Ticket Summer ID (HD) R5 - Rydel & Ratliff - F                                                                          150                                
PRCFAMCHA130901162920162935000015Family Flex Next (HD) DWAB Blake NEW EP (Aug 2013)                                                                          150                                
PGRFAMCHA130901162935165153002218Disney Dog With A Blog                            EP: 16                                                               6068807BCC                              
PROFAMCHA130901165153165203000010LU - (HD) Shake it Up/Austin & Ally Weekends @ 5:3                                                                          150                                
PRCFAMCHA130901165203165245000042STUNT - Labour Day Ferbathon (HD) Tomorrow Morning                                                                          150                                
PRCFAMCHA130901165245165300000015Mattel                                                                                                                      150                                
PRCFAMCHA130901165300165330000030Web FOD 2012 Refresh (HD) Family.ca New Look (Apr2                                                                          150                                
PGRFAMCHA130901165330165657000327MV Non Disney (HD) Hayley Kiyoko - A Belle To Reme                                                                     10615120CC                              
PRCFAMCHA130901165657165742000045Next Step Rewind (HD) Friday Sept 13 @ 7 (Sep 1-5)                                                                          150                                
PROFAMCHA130901165742165837000055Disney Interactive                                                                                                          150                                
PRCFAMCHA130901165837165922000045Big Ticket Summer Special (HD) Prems Friday Night                                                                           150                                
PRCFAMCHA130901165922165936000014Family Flex Next (HD) SIU Zendaya (Aug 2013) (:13-                                                                          150                                
PGRFAMCHA130901165936172211002235Disney Shake It Up                                EP: 16                                                               6068707BCC                              
PROFAMCHA130901172211172221000010LU - (HD) Austin & Ally/Good Luck Charlie Weekends                                                                          150                                
PROFAMCHA130901172221172256000035TBM Sing & Dance Along (HD) Prems Tomorrow Aft @ 4                                                                          150                                
PRCFAMCHA130901172256172311000015Mattel                                                                                                                      150                                
PROFAMCHA130901172311172337000026Web DWAB @ family.ca (HD) Play Games at family.ca                                                                           150                                
PGRFAMCHA130901172337172624000247MV Non Disney (HD) Cody Simpson - Pretty Brown Eye                                                                     10615120CC                              
PROFAMCHA130901172624172654000030DXD TRYathlon (HD) Overall Promo - Prems Sunday @                                                                           150                                
PROFAMCHA130901172654172744000050Sony Pictures                                                                                                               150                                
PROFAMCHA130901172744172800000016Big Ticket Summer ID (HD) TNS - Boys - Friday Nigh                                                                          150                                
PROFAMCHA130901172800172845000045Mattel                                                                                                                      150                                
PRCFAMCHA130901172845172928000043Liv & Maddie (HD) Premise Sell Cutdown - Prems Fri                                                                          150                                
PRCFAMCHA130901172928172943000015Family Flex Next (HD) A&A Raini (Aug 2013) (:13-:1                                                                          150                                
PGRFAMCHA130901172943175547002604Disney Austin & Ally                              EP: 01                                                               6068807BCC                              
PRCFAMCHA130901175547175620000033BAW Campaign (HD) Contest - Check out family.ca (S                                                                          150                                
PROFAMCHA130901175620175705000045Parmalat                                                                                                                    150                                
PROFAMCHA130901175705175718000013Big Ticket Summer ID (HD) Victoria Duffield - Frid                                                                          150                                
PGRFAMCHA130901175718175818000100SYN (HD) Planes - Dusty's Dream (Aug25-Sep06)                                                                          70685120CC                              
PROFAMCHA130901175818175823000005GLC (HD) ID - Bradley Perry 1 "Coming Up Next" (bo                                                                          150                                
PROFAMCHA130901175823175913000050Disney Interactive                                                                                                          150                                
PROFAMCHA130901175913175943000030Episodic Jessie (HD) 222 New Ep Friday Night @ 730                                                                          150                                
PRCFAMCHA130901175943175952000009Family Bumper (HD) BTS Waterslide (Jul2013)                                                                                 150                                
PGRFAMCHA130901175952182325002333Good Luck Charlie                                 EP: 13                                                               6068807BCC                              
PROFAMCHA130901182325182355000030Episodic GLC (HD) 410 Tomorrow Night @ 830 (Sep 1)                                                                          150                                
PROFAMCHA130901182355182425000030Target                                                                                                                      150                                
PRCFAMCHA130901182425182507000042STUNT - Labour Day Ferbathon (HD) Tomorrow Morning                                                                          150                                
PGRFAMCHA130901182507182744000237Selena Gomez (HD) Viewer Questions (Aug 31-Nov30)                                                                      10618120                                
PROFAMCHA130901182744182813000029Episodic SIU (HD) 319 Friday Night @ 6 (Aug 31-Sep                                                                          150                                
PROFAMCHA130901182813182830000017PAF (HD) Disney Refresh CD - Coming Up Next (April                                                                          150                                
PROFAMCHA130901182830182915000045Mattel                                                                                                                      150                                
PROFAMCHA130901182915182929000014Big Ticket Summer ID (HD) EPO - Friday Night @ 8 (                                                                          150                                
PRCFAMCHA130901182929182945000016Family Bumper Flex (HD) Flex ID - Jessie ID (:15-:                                                                          150                                
PGRFAMCHA130901182945185215002230Disney Phineas & Ferb                             EP: 15                                                               6068607ECC                              
PROFAMCHA130901185215185226000011Big Ticket Summer ID (HD) Zendaya - Friday Night @                                                                          150                                
PGRFAMCHA130901185226185616000350MV Disney (HD) Zendaya - Replay (Aug 25-Nov30)                                                                         60685120CC                              
PROFAMCHA130901185616185659000043EPISODIC PAF (HD) 404 Tomorrow Aft @ 4 part of Fer                                                                          150                                
PGRFAMCHA130901185659185829000130Int Who I Am (HD) Dove Cameron (Aug 12-March30)                                                                        60685120                                
PRCFAMCHA130901185829185836000007Selena Gomez Station ID (HD) You're Watching Famil                                                                          150                                
PROFAMCHA130901185836185855000019WOWP (HD) Clip Bad Time - Coming Up Next (April 20                                                                          150                                
PROFAMCHA130901185855185935000040DXD Adv of Sharkboy&Lavagirl (HD) Prems Sunday Sep                                                                          150                                
PRCFAMCHA130901185935185944000009Family Bumper (HD) Summer Flex ID - BBQ (:07-:09)                                                                           150                                
PGRFAMCHA130901185944192216002232Disney Wizards of Waverly Place                   EP: 01                                                               6068607BCC                              
PROFAMCHA130901192216192251000035TBM Sing & Dance Along (HD) Prems Tomorrow Aft @ 4                                                                          150                                
PROFAMCHA130901192251192341000050Sony Pictures                                                                                                               150                                
PRCFAMCHA130901192341192426000045Big Ticket Summer Special (HD) Prems Friday Night                                                                           150                                
PGRFAMCHA130901192426192817000351MV Non Disney (HD) Eleven Past One - The World Is                                                                      10615120CC                              
PROFAMCHA130901192817192851000034SLOD (HD) SS Tipton - Coming Up Next (Apr2013)                                                                              150                                
PRCFAMCHA130901192851192936000045Next Step Rewind (HD) Friday Sept 13 @ 7 (Sep 1-5)                                                                          150                                
PRCFAMCHA130901192936192953000017Family Bumper Flex (HD) Flex ID - Music ID (:14-:1                                                                          150                                
PGRFAMCHA130901192953195224002231The Suite Life on Deck                            EP: 04                                                               6068807BCC                              
PRCFAMCHA130901195224195257000033BAW Campaign (HD) Contest - Check out family.ca (S                                                                          150                                
PGRFAMCHA130901195257195619000322MV Non Disney (HD) BAW 2013 - Stand up and Shout (                                                                     10615120CC                              
PRCFAMCHA130901195619195701000042STUNT - Labour Day Ferbathon (HD) Tomorrow Morning                                                                          150                                
PGRFAMCHA130901195701195831000130MV Disney (HD) Bridgit Mendler - Top of the World                                                                      60685120CC                              
PROFAMCHA130901195831195901000030Episodic GLC (HD) 410 Tomorrow Night @ 830 (Sep 1)                                                                          150                                
PROFAMCHA130901195901195908000007SWAC (HD) ID - Tiffany Thorton 5 "Coming Up Next"                                                                           150                                
PROFAMCHA130901195908195938000030Episodic Jessie (HD) 222 New Ep Friday Night @ 730                                                                          150                                
PRCFAMCHA130901195938195950000012Family Bumper (HD) Summer Flex ID - BTS Beach (:10                                                                          150                                
PGRFAMCHA130901195950202221002231Disney Sonny With A Chance                        EP: 15                                                               6068507BCC                              
PROFAMCHA130901202221202237000016Big Ticket Summer ID (HD) TNS - Boys - Friday Nigh                                                                          150                                
PROFAMCHA130901202237202322000045Mattel                                                                                                                      150                                
PROFAMCHA130901202322202405000043EPISODIC PAF (HD) 404 Tomorrow Aft @ 4 part of Fer                                                                          150                                
PGRFAMCHA130901202405202505000100MV Disney (HD) Taylor Swift & PAF - Trouble (Aug 2                                                                     60688120                                
PRCFAMCHA130901202505202548000043Liv & Maddie (HD) Premise Sell Cutdown - Prems Fri                                                                          150                                
PGRFAMCHA130901202548202911000323MV Non Disney (HD) Mandia Nantsios - Smile (Aug 17                                                                     10615120CC                              
PROFAMCHA130901202911202941000030So Random (HD) Musical Guest Refresh - Coming Up N                                                                          150                                
PRCFAMCHA130901202941202953000012Family Bumper Flex (HD) Flex ID - Really Me (Apr20                                                                          150                                
PGRFAMCHA130901202953205239002246So Random!                                        EP: 24                                                               6068807BCC                              
PRCFAMCHA130901205239205321000042STUNT - Labour Day Ferbathon (HD) Tomorrow Morning                                                                          150                                
PGRFAMCHA130901205321205721000400MV Non Disney (HD) Young Avz-That Song On The Radi                                                                     10615120CC                              
PROFAMCHA130901205721205737000016Big Ticket Summer ID (HD) TNS - Girls - Friday Nig                                                                          150                                
PGRFAMCHA130901205737205837000100SYN (HD) Super Buddies - Doggie Down Time (Aug25-O                                                                     60685120CC                              
PROFAMCHA130901205837205902000025D-JR Promo - JATNP - Get more on the channel REV (                                                                          150                                
PROFAMCHA130901205902205931000029Episodic SIU (HD) 319 Friday Night @ 6 (Aug 31-Sep                                                                          150                                
PRCFAMCHA130901205931205950000019Family Bumper Flex (HD) Flex ID - ANT Farm (:16-:2                                                                          150                                
ID FAMCHA130901205950210005000015Popcorn Pix Block Open (HD)  (Jan2011)                                                                                      150                                
ID FAMCHA130901210005210015000010Popcorn Pix Rating Slate (HD) - PG (Jan 2011)                                                                               150                                
PGRFAMCHA130901210015225424015409Lost In Yonkers                                                                                                        2068807DCC                              
PROFAMCHA130901225424225459000035TBM Sing & Dance Along (HD) Prems Tomorrow Aft @ 4                                                                          150                                
PGRFAMCHA130901225459225826000327MV Non Disney (HD) Hayley Kiyoko - A Belle To Reme                                                                     10615120CC                              
PROFAMCHA130901225826225909000043Mickey Mouse Shorts Promo (HD) Every Friday Night                                                                           150                                
PROFAMCHA130901225909225939000030D-JR Promo - MMCH - Get more MMCH on D-JR the chan                                                                          150                                
PROFAMCHA130901225939225952000013Big Ticket Summer ID (HD) R5 - 3 Boys - Friday Nig                                                                          150                                
ID FAMCHA130901225952230001000009Popcorn Pix Rating Slate (HD) - G (Jan 2011)                                                                                150                                
ID FAMCHA130901230001230006000005Popcorn Pix Magic of Disney Bumper (HD) (Apr2013)                                                                           150                                
PGRFAMCHA130901230006002313012307Get A Clue                                                                                                            A6068807CCC                              
PROFAMCHA130901002313002343000030Episodic GLC (HD) 410 Tomorrow Night @ 830 (Sep 1)                                                                          150                                
PGRFAMCHA130901002343002743000400MV Non Disney (HD) Young Avz-That Song On The Radi                                                                     10615120CC                              
PROFAMCHA130901002743002758000015PSA CMF (HD) Canada on Screen (Nov2012) (3x per da                                                                          150                                
PROFAMCHA130901002758002828000030Episodic Jessie (HD) 222 New Ep Friday Night @ 730                                                                          150                                
PRCFAMCHA130901002828002835000007Selena Gomez Station ID (HD) You're Watching Famil                                                                          150                                
PROFAMCHA130901002835002905000030D-JR Promo - Little Einsteins - Get more on D-JR t                                                                          150                                
PRCFAMCHA130901002905002950000045Next Step Rewind (HD) Friday Sept 13 @ 7 (Sep 1-5)                                                                          150                                
PRCFAMCHA130901002950002959000009Family Bumper (HD) BTS Waterslide (Jul2013)                                                                                 150                                
PGRFAMCHA130901002959005230002231Overruled!                                        EP: 08                                                        C28762 1065607ACC                              
PROFAMCHA130901005230005245000015Big Ticket Summer ID (HD) R5 - Rydel & Ratliff - F                                                                          150                                
PGRFAMCHA130901005245005621000336MV Non Disney (HD) Tenille - Dear Heart (June9-Dec                                                                     10615120CC                              
PRCFAMCHA130901005621005703000042STUNT - Labour Day Ferbathon (HD) Tomorrow Morning                                                                          150                                
PGRFAMCHA130901005703005833000130Int Who I Am (HD) Dove Cameron (Aug 12-March30)                                                                        60685120                                
PRCFAMCHA130901005833005903000030Web FOD 2012 Refresh (HD) Family.ca New Look (Apr2                                                                          150                                
PRCFAMCHA130901005903005936000033BAW Campaign (HD) Contest - Check out family.ca (S                                                                          150                                
PRCFAMCHA130901005936005956000020Family Bumper Flex (HD) Flex ID - ANT Farm (:16-:2                                                                          150                                
PRCFAMCHA130901005956010010000014Descriptive Video Slate (HD) (Apr2013)                                                                                      150                                
PGRFAMCHA130901010010012241002231DEBRA!                                            EP: 01                                                        C35763 1065607ACD                              
PRCFAMCHA130901012241012250000009Family Bumper (HD) Summer Flex ID - BBQ (:07-:09)                                                                           150                                
PGRFAMCHA130901012250014523002233What's Up, Warthogs!                              EP: 01                                                        C32738 1065607BCC                              
PRCFAMCHA130901014523014537000014Family Bumper Flex (HD) Flex ID - Wingin It (Apr20                                                                          150                                
ID FAMCHA130901014537014542000005Popcorn Pix Magic of Disney Bumper (HD) (Apr2013)                                                                           150                                
PGRFAMCHA130901014542020821002239Phil of the Future                                EPS # 08                                                             6068607BCD                              
PRCFAMCHA130901020821020836000015Family Bumper (HD) Summer Flex ID - BTS Beach (:10                                                                          150                                
PGRFAMCHA130901020836023240002404The Elephant Princess                             EP: 01                                                               7068507ACC                              
PRCFAMCHA130901023240023256000016Family Bumper Flex (HD) Flex ID - WUW (May2012) (:                                                                          150                                
PGRFAMCHA130901023256025526002230Life with Derek                                   EP: 13                                                        C26822 1065607BCC                              
PRCFAMCHA130901025526025540000014Family Bumper (HD) Summer Flex ID - Park (:10-:14)                                                                          150                                
PGRFAMCHA130901025540031743002203Slugterra                                         EP: 19                                                        A33763 1065607ACC                              
PRCFAMCHA130901031743031803000020Family Bumper Flex (HD) Flex ID - ANT Farm (:16-:2                                                                          150                                
PGRFAMCHA130901031803034033002230Overruled!                                        EP: 03                                                        C30129 1065607BCC                              
PRCFAMCHA130901034033034042000009Family Bumper (HD) BTS Waterslide (Jul2013)                                                                                 150                                
PGRFAMCHA130901034042040318002236The Latest Buzz                                   EP: 02                                                        C30362 1065607BCC                              
PRCFAMCHA130901040318040327000009Family Bumper (HD) Summer Flex ID - BBQ (:07-:09)                                                                           150                                
PGRFAMCHA130901040327042559002232Life with Derek                                   EP: 03                                                        C23968A1065607BCC                              
PROFAMCHA130901042559042651000052D-JR Promo - Doc McStuffins - Get more on the chan                                                                          150                                
PROFAMCHA130901042651042748000057D-JR Promo - Image Campaign (Aug 12-Sept 21)                                                                                150                                
PROFAMCHA130901042748042803000015D-JR Promo - Sofia The First: Clip 3 - Get More We                                                                          150                                
PROFAMCHA130901042803042853000050D-JR Promo - Henry Hugglemonster - Get more HH on                                                                           150                                
PROFAMCHA130901042853042953000100D-JR Promo - Tickety Toc - Racing The Clock - Get                                                                           150                                
PROFAMCHA130901042953042959000006D-JR - Bumper 5 (May2011)                                                                                                   150                                
OFFFAMCHA130901042959043000000001OFF AIR                                                                                                                                                        
PGRFAMCHA130902043000045231002231The Secret World of Benjamin Bear                 EP: 15                                                        C26066 1065607ECC                              
PROFAMCHA130902045231045238000007D-JR Live Action ID - Franny's Feet - Coming Up (M                                                                          150                                
PROFAMCHA130902045238045303000025D-JR Live Action ID - #12 Feed Goldfish (May2012)                                                                           150                                
PROFAMCHA130902045303045400000057D-JR Promo - Image Campaign (Aug 12-Sept 21)                                                                                150                                
PROFAMCHA130902045400045433000033D-JR Promo - Bananas in Pajamas - Clip 2 - Get mor                                                                          150                                
PROFAMCHA130902045433045523000050D-JR Promo - Henry Hugglemonster - Get more HH on                                                                           150                                
PROFAMCHA130902045523045548000025D-JR Live Action ID - #29 Put Shoes On (Sept2012)                                                                           150                                
PROFAMCHA130902045548045555000007D-JR Live Action ID - Franny's Feet - Now (May2012                                                                          150                                
PROFAMCHA130902045555045601000006D-JR - Bumper 1 (May2011)                                                                                                   150                                
PGRFAMCHA130902045601051834002233Franny's Feet                                     EP: 41                                                        C31292 1065607ECC                              
PROFAMCHA130902051834051841000007D-JR Live Action ID - SWOBB - Coming Up (May2012)                                                                           150                                
PROFAMCHA130902051841051906000025D-JR Live Action ID - #20 Calendar (May2012)                                                                                150                                
PROFAMCHA130902051906051936000030D-JR Promo - On demand online REVISED - D-JR.ca (M                                                                          150                                
PROFAMCHA130902051936052006000030D-JR Promo - Tickety Toc - Time to Chime - Get mor                                                                          150                                
PROFAMCHA130902052006052038000032D-JR Promo - Stella and Sam - Get more on the chan                                                                          150                                
PROFAMCHA130902052038052103000025D-JR Live Action ID - #45 Sorting Socks (May2012)                                                                           150                                
PROFAMCHA130902052103052110000007D-JR Live Action ID - SWOBB - Now (May2012)                                                                                 150                                
PROFAMCHA130902052110052120000010D-JR - Flex ID - Blue (:6-:10) (Feb2012)                                                                                    150                                
PGRFAMCHA130902052120054351002231The Secret World of Benjamin Bear                 EP: 39                                                        C27272 1065607ECC                              
PROFAMCHA130902054351054358000007D-JR Live Action ID - Harry & His Dinosaurs - Comi                                                                          150                                
PROFAMCHA130902054358054423000025D-JR Live Action ID - #46 Donating Clothes (Sept20                                                                          150                                
PROFAMCHA130902054423054431000008D-JR - Station ID (:08) (May2011)                                                                                           150                                
PROFAMCHA130902054431054456000025D-JR Live Action ID - #48 Help Feed Sibling (Sept2                                                                          150                                
PROFAMCHA130902054456054503000007D-JR Live Action ID - Harry & His Dinosaurs - Now                                                                           150                                
PGRFAMCHA130902054503060641002138Harry and His Bucket Full of Dinosaurs            EP: 07                                                        B05026 1065607ECC                              
PROFAMCHA130902060641060649000008D-JR Live Action ID - Stella & Sam - Coming Up (Ma                                                                          150                                
PROFAMCHA130902060649060714000025D-JR Live Action ID - #71 Making Cards (Sept2012)                                                                           150                                
PROFAMCHA130902060714060811000057D-JR Promo - Image Campaign (Aug 12-Sept 21)                                                                                150                                
PROFAMCHA130902060811060903000052D-JR Promo - Doc McStuffins - Get more on the chan                                                                          150                                
PROFAMCHA130902060903060923000020D-JR Promo - Sofia The First: Clip 1 - Get More We                                                                          150                                
PROFAMCHA130902060923060948000025D-JR Live Action ID - #92 Getting Ready to Go Outs                                                                          150                                
PROFAMCHA130902060948060956000008D-JR Live Action ID - Stella & Sam - Now (Mar2013)                                                                          150                                
PROFAMCHA130902060956061006000010D-JR - Flex ID - Green (:6-:10) (Feb2012)                                                                                   150                                
PGRFAMCHA130902061006063321002315Stella and Sam                                    EP: 06                                                        C33973 1065607ECC                              
PROFAMCHA130902063321063356000035TBM Sing & Dance Along (HD) Prems This Aft @ 430 (                                                                          150                                
PRCFAMCHA130902063356063416000020BTS Concert Liner (HD) The Next Step Hosts - Calga                                                                          150                                
PRCFAMCHA130902063416063432000016Family Bumper Flex (HD) Flex ID - Jessie ID (:15-:                                                                          150                                
PRCFAMCHA130902063432063514000042STUNT - Labour Day Ferbathon (HD) Starts Next (Sep                                                                          150                                
PGRFAMCHA130902063514065747002233Disney Phineas and Ferb                           EP: 27                                                               6068607ECC                              
PROFAMCHA130902065747065830000043EPISODIC PAF (HD) 404 This Afternoon @ 4 part of F                                                                          150                                
PROFAMCHA130902065830065925000055Disney Interactive                                                                                                          150                                
PRCFAMCHA130902065925065934000009Family Bumper (HD) BTS Waterslide (Jul2013)                                                                                 150                                
PROFAMCHA130902065934065951000017PAF (HD) Disney Refresh CD - Coming Up Next (April                                                                          150                                
PROFAMCHA130902065951070007000016Big Ticket Summer ID (HD) TNS - Boys - Friday Nigh                                                                          150                                
PGRFAMCHA130902070007072239002232Disney Phineas & Ferb                             EP: 39                                                               6068607ECC                              
PROFAMCHA130902072239072309000030Episodic GLC (HD) 410 Tonight @ 830 (Sep 2)                                                                                 150                                
PROFAMCHA130902072309072409000100Disney Interactive                                                                                                          150                                
PRCFAMCHA130902072409072418000009Family Bumper (HD) Summer Flex ID - BBQ (:07-:09)                                                                           150                                
PRCFAMCHA130902072418072500000042STUNT - Labour Day Ferbathon (HD) Continues Next w                                                                          150                                
PROFAMCHA130902072500072513000013Big Ticket Summer ID (HD) R5 - 3 Boys - Friday Nig                                                                          150                                
PGRFAMCHA130902072513074746002233Disney Phineas and Ferb                           EP: 04                                                               6068607ECC                              
PROFAMCHA130902074746074829000043EPISODIC PAF (HD) 404 This Afternoon @ 4 part of F                                                                          150                                
PROFAMCHA130902074829074914000045Parmalat                                                                                                                    150                                
PROFAMCHA130902074914074949000035TBM Sing & Dance Along (HD) Prems This Aft @ 430 (                                                                          150                                
PROFAMCHA130902074949075016000027DWAB (HD) Kid Sell - Check out Family.ca for showt                                                                          150                                
PROFAMCHA130902075016075033000017PAF (HD) Disney Refresh CD - Coming Up Next (April                                                                          150                                
PROFAMCHA130902075033075049000016Big Ticket Summer ID (HD) TNS - Girls - Friday Nig                                                                          150                                
PGRFAMCHA130902075049081320002231Disney Phineas & Ferb                             EP: 27                                                               6068607ECC                              
PGRFAMCHA130902081320081420000100MV Disney (HD) Taylor Swift & PAF - Trouble (Aug 2                                                                     60688120                                
PRCFAMCHA130902081420081434000014Family Bumper (HD) Summer Flex ID - BTS Beach (:10                                                                          150                                
PROFAMCHA130902081434081504000030Episodic GLC (HD) 410 Tonight @ 830 (Sep 2)                                                                                 150                                
PRCFAMCHA130902081504081537000033BAW Campaign (HD) Contest - Check out family.ca (S                                                                          150                                
PROFAMCHA130902081537081552000015PSA CMF (HD) Canada on Screen (Nov2012) (3x per da                                                                          150                                
PROFAMCHA130902081552081621000029Episodic SIU (HD) 319 Friday Night @ 6 (Aug 31-Sep                                                                          150                                
PRCFAMCHA130902081621081706000045Big Ticket Summer Special (HD) Prems Friday Night                                                                           150                                
PRCFAMCHA130902081706081748000042STUNT - Labour Day Ferbathon (HD) Continues Next w                                                                          150                                
PGRFAMCHA130902081748084019002231Disney Phineas and Ferb                           EP: 13                                                               6068607ECC                              
PROFAMCHA130902084019084102000043EPISODIC PAF (HD) 404 This Afternoon @ 4 part of F                                                                          150                                
PRCFAMCHA130902084102084118000016Family Bumper Flex (HD) Flex ID - Music ID (:14-:1                                                                          150                                
PGRFAMCHA130902084118084233000115MV Disney (HD) TBM -  Surf's Up (Generic) (Aug 25-                                                                     60285120CC                              
PROFAMCHA130902084233084246000013Big Ticket Summer ID (HD) Victoria Duffield - Frid                                                                          150                                
PROFAMCHA130902084246084326000040DXD Adv of Sharkboy&Lavagirl (HD) Prems Sunday Nig                                                                          150                                
PROFAMCHA130902084326084358000032PAF (HD) Delicious Refresh - Coming Up Next (Jun20                                                                          150                                
PRCFAMCHA130902084358084443000045Next Step Rewind (HD) Friday Sept 13 @ 7 (Sep 1-5)                                                                          150                                
PGRFAMCHA130902084443090714002231Disney Phineas and Ferb                           EP: 03                                                               6068607ECC                              
PRCFAMCHA130902090714090751000037Selena Gomez Get To Know (HD) (July5-Sept5)                                                                                 150                                
PROFAMCHA130902090751090826000035TBM Sing & Dance Along (HD) Prems This Aft @ 430 (                                                                          150                                
PROFAMCHA130902090826090856000030Episodic GLC (HD) 410 Tonight @ 830 (Sep 2)                                                                                 150                                
PROFAMCHA130902090856090907000011Big Ticket Summer ID (HD) Zendaya - Friday Night @                                                                          150                                
PRCFAMCHA130902090907090949000042STUNT - Labour Day Ferbathon (HD) Continues Next w                                                                          150                                
PRCFAMCHA130902090949091032000043Liv & Maddie (HD) Premise Sell Cutdown - Prems Fri                                                                          150                                
PRCFAMCHA130902091032091043000011Family Bumper (HD) Summer Flex ID - Park (:10-:14)                                                                          150                                
PGRFAMCHA130902091043093313002230Disney Phineas & Ferb                             EP: 16                                                               6068607ECC                              
PROFAMCHA130902093313093356000043EPISODIC PAF (HD) 404 This Afternoon @ 4 part of F                                                                          150                                
PROFAMCHA130902093356093425000029Episodic SIU (HD) 319 Friday Night @ 6 (Aug 31-Sep                                                                          150                                
PRCFAMCHA130902093425093510000045Big Ticket Summer Special (HD) Prems Friday Night                                                                           150                                
PROFAMCHA130902093510093540000030Really Me (HD) S2 Promo - Check out family.ca for                                                                           150                                
PROFAMCHA130902093540093557000017PAF (HD) Disney Refresh CD - Coming Up Next (April                                                                          150                                
PROFAMCHA130902093557093627000030Grizzly Cup On Family (HD) Sat Sep 14 @ Noon (Sep                                                                           150                                
PRCFAMCHA130902093627093645000018Family Bumper Flex (HD) Flex ID - ANT Farm (:16-:2                                                                          150                                
PGRFAMCHA130902093645095918002233Disney Phineas and Ferb                           EP: 01                                                               6068607ECC                              
PGRFAMCHA130902095918100018000100SYN (HD) Planes - Dusty's Dream (Aug25-Sep06)                                                                          70685120CC                              
PRCFAMCHA130902100018100027000009Family Bumper (HD) BTS Waterslide (Jul2013)                                                                                 150                                
PROFAMCHA130902100027100057000030Episodic GLC (HD) 410 Tonight @ 830 (Sep 2)                                                                                 150                                
PROFAMCHA130902100057100127000030Episodic Jessie (HD) 222 New Ep Friday Night @ 730                                                                          150                                
PRCFAMCHA130902100127100147000020BTS Concert Liner (HD) The Next Step Hosts - Calga                                                                          150                                
PRCFAMCHA130902100147100232000045Next Step Rewind (HD) Friday Sept 13 @ 7 (Sep 1-5)                                                                          150                                
PRCFAMCHA130902100232100314000042STUNT - Labour Day Ferbathon (HD) Continues Next w                                                                          150                                
PRCFAMCHA130902100314100347000033BAW Campaign (HD) Contest - Check out family.ca (S                                                                          150                                
PGRFAMCHA130902100347102618002231Disney Phineas and Ferb                           EP: 20                                                               6068607ECC                              
PROFAMCHA130902102618102701000043EPISODIC PAF (HD) 404 This Afternoon @ 4 part of F                                                                          150                                
PGRFAMCHA130902102701102800000059MV Disney (HD) Zendaya - Replay (Cutdown) (Aug 25-                                                                     60685120CC                              
PROFAMCHA130902102800102816000016Shake It Up (HD) Refresh CD - Check Out Family.ca                                                                           150                                
PROFAMCHA130902102816102851000035TBM Sing & Dance Along (HD) Prems This Aft @ 430 (                                                                          150                                
PROFAMCHA130902102851102923000032PAF (HD) Delicious Refresh - Coming Up Next (Jun20                                                                          150                                
PROFAMCHA130902102923102937000014Big Ticket Summer ID (HD) EPO - Friday Night @ 8 (                                                                          150                                
PRCFAMCHA130902102937102949000012Family Bumper Flex (HD) Flex ID - Wingin It (Apr20                                                                          150                                
PGRFAMCHA130902102949105220002231Disney Phineas and Ferb                           EP: 12                                                               6068607ECC                              
PGRFAMCHA130902105220105507000247MV Non Disney (HD) Cody Simpson - Pretty Brown Eye                                                                     10615120CC                              
PRCFAMCHA130902105507105549000042STUNT - Labour Day Ferbathon (HD) Continues Next w                                                                          150                                
PROFAMCHA130902105549105634000045Mattel                                                                                                                      150                                
PRCFAMCHA130902105634105646000012Family Bumper Flex (HD) Flex ID - Really Me (Apr20                                                                          150                                
PROFAMCHA130902105646105716000030Episodic GLC (HD) 410 Tonight @ 830 (Sep 2)                                                                                 150                                
PRCFAMCHA130902105716105801000045Big Ticket Summer Special (HD) Prems Friday Night                                                                           150                                
PRCFAMCHA130902105801105846000045Next Step Rewind (HD) Friday Sept 13 @ 7 (Sep 1-5)                                                                          150                                
PROFAMCHA130902105846105903000017PAF (HD) Disney Refresh CD - Coming Up Next (April                                                                          150                                
PROFAMCHA130902105903105943000040DXD Adv of Sharkboy&Lavagirl (HD) Prems Sunday Nig                                                                          150                                
PGRFAMCHA130902105943112215002232Disney Phineas and Ferb                           EP: 05                                                               6068607ECC                              
PGRFAMCHA130902112215112315000100MV Disney (HD) Taylor Swift & PAF - Trouble (Aug 2                                                                     60688120                                
PROFAMCHA130902112315112358000043EPISODIC PAF (HD) 404 This Afternoon @ 4 part of F                                                                          150                                
PRCFAMCHA130902112358112407000009Family Bumper (HD) Summer Flex ID - BBQ (:07-:09)                                                                           150                                
PROFAMCHA130902112407112452000045Mattel                                                                                                                      150                                
PROFAMCHA130902112452112527000035TBM Sing & Dance Along (HD) Prems This Aft @ 430 (                                                                          150                                
PROFAMCHA130902112527112540000013Big Ticket Summer ID (HD) R5 - 3 Boys - Friday Nig                                                                          150                                
PROFAMCHA130902112540112605000025D-JR Promo - JATNP - Get more on the channel REV (                                                                          150                                
PROFAMCHA130902112605112648000043Mickey Mouse Shorts Promo (HD) Continues Friday Ni                                                                          150                                
PGRFAMCHA130902112648112837000149Selena Gomez Interview (HD) #2 (Aug 23-Oct 31)                                                                         10618120                                
PROFAMCHA130902112837112909000032PAF (HD) Delicious Refresh - Coming Up Next (Jun20                                                                          150                                
PRCFAMCHA130902112909112952000043Liv & Maddie (HD) Premise Sell Cutdown - Prems Fri                                                                          150                                
PGRFAMCHA130902112952115132002140Disney Phineas & Ferb                             EP: 11                                                               6068607ECC                              
PRCFAMCHA130902115132115214000042STUNT - Labour Day Ferbathon (HD) Continues Next w                                                                          150                                
PGRFAMCHA130902115214115541000327MV Non Disney (HD) Hayley Kiyoko - A Belle To Reme                                                                     10615120CC                              
PROFAMCHA130902115541115626000045Parmalat                                                                                                                    150                                
PROFAMCHA130902115626115656000030Episodic GLC (HD) 410 Tonight @ 830 (Sep 2)                                                                                 150                                
PGRFAMCHA130902115656115826000130Int Who I Am (HD) Dove Cameron (Aug 12-March30)                                                                        60685120                                
PRCFAMCHA130902115826115841000015Mattel                                                                                                                      150                                
PRCFAMCHA130902115841115856000015Family Bumper (HD) Summer Flex ID - BTS Beach (:10                                                                          150                                
PRCFAMCHA130902115856115929000033BAW Campaign (HD) Contest - Check out family.ca (S                                                                          150                                
PROFAMCHA130902115929115946000017PAF (HD) Disney Refresh CD - Coming Up Next (April                                                                          150                                
PROFAMCHA130902115946120001000015Big Ticket Summer ID (HD) R5 - Rydel & Ratliff - F                                                                          150                                
PGRFAMCHA130902120001122233002232Disney Phineas and Ferb                           EP: 08                                                               6068607ECC                              
PROFAMCHA130902122233122316000043EPISODIC PAF (HD) 404 This Afternoon @ 4 part of F                                                                          150                                
PGRFAMCHA130902122316122632000316MV Non Disney (HD) Anastasia A - My Love (May29-No                                                                     10615120CC                              
PRCFAMCHA130902122632122717000045Big Ticket Summer Special (HD) Prems Friday Night                                                                           150                                
PROFAMCHA130902122717122747000030D-JR Promo - MMCH - Get more MMCH on D-JR the chan                                                                          150                                
PRCFAMCHA130902122747122818000031Family Bumper Flex (HD) Flex ID - Austin & Ally (F                                                                          150                                
PRCFAMCHA130902122818122903000045Next Step Rewind (HD) Friday Sept 13 @ 7 (Sep 1-5)                                                                          150                                
PROFAMCHA130902122903122935000032PAF (HD) Delicious Refresh - Coming Up Next (Jun20                                                                          150                                
PROFAMCHA130902122935123005000030Grizzly Cup On Family (HD) Sat Sep 14 @ Noon (Sep                                                                           150                                
PGRFAMCHA130902123005125239002234Disney Phineas and Ferb                           EP: 06                                                               6068607ECC                              
PGRFAMCHA130902125239125601000322MV Non Disney (HD) BAW 2013 - Stand up and Shout (                                                                     10615120CC                              
PRCFAMCHA130902125601125643000042STUNT - Labour Day Ferbathon (HD) Continues Next w                                                                          150                                
PRCFAMCHA130902125643125657000014Family Bumper (HD) Summer Flex ID - Park (:10-:14)                                                                          150                                
PROFAMCHA130902125657125732000035TBM Sing & Dance Along (HD) Prems This Aft @ 430 (                                                                          150                                
PROFAMCHA130902125732125823000051Gravity Falls (HD) Refresh - Check Out Family.ca f                                                                          150                                
PROFAMCHA130902125823125853000030Episodic GLC (HD) 410 Tonight @ 830 (Sep 2)                                                                                 150                                
PROFAMCHA130902125853125909000016Big Ticket Summer ID (HD) TNS - Girls - Friday Nig                                                                          150                                
PROFAMCHA130902125909125926000017PAF (HD) Disney Refresh CD - Coming Up Next (April                                                                          150                                
PROFAMCHA130902125926130006000040DXD Adv of Sharkboy&Lavagirl (HD) Prems Sunday Nig                                                                          150                                
PGRFAMCHA130902130006132241002235Disney Phineas and Ferb                           EP: 32                                                               6068607ECC                              
PROFAMCHA130902132241132324000043EPISODIC PAF (HD) 404 This Afternoon @ 4 part of F                                                                          150                                
