SO FAMCHA051101043000043011000011Sign On (oct 1)                                                                                                                                                
PROFAMCHA051101043011043020000009CC Disclaimer - FAST - Family.ca (:08-:10)                                                                                  150                                
PGRFAMCHA051101043020045655002635Katie And Orbie                                   EP: 2-015                                                     C11896A1065607ECC                              
PROFAMCHA051101045655045710000015PH - 01 - FRANNY/SOMETHING/HOZE (SEP05) (:14 - 16)                                                                          150                                
ID FAMCHA051101045710045723000013PS Playhouse AM Block Open (:10-:15)                                                                                        150                                
PROFAMCHA051101045723045732000009CC Disclaimer - FAST - Family.ca (:08-:10)                                                                                  150                                
PGRFAMCHA051101045732052002002230Franny's Feet                                     EPS # 28                                                      C23971 1065607ECC                              
PRCFAMCHA051101052002052007000005Astral ID (FEB05)                                                                                                           150                                
PROFAMCHA051101052007052022000015PH - 02 - SOMETHING/HOZE/KING (SEP05) (:14 - 16)                                                                            150                                
ID FAMCHA051101052022052035000013PS Playhouse AM Block Open (:10-:15)                                                                                        150                                
PROFAMCHA051101052035052044000009CC Disclaimer - FAST - Family.ca (:08-:10)                                                                                  150                                
PGRFAMCHA051101052044054315002231Something Else                                    EP: 1-010                                                     B69264A1065607ECC                              
PROFAMCHA051101054315054330000015PH - 03 - HOZE/KING/SPIDERMAN (SEP05) (:14 - 16)                                                                            150                                
ID FAMCHA051101054330054343000013PS Playhouse AM Block Open (:10-:15)                                                                                        150                                
PROFAMCHA051101054343054352000009CC Disclaimer - FAST - Family.ca (:08-:10)                                                                                  150                                
PGRFAMCHA051101054352060627002235Hoze Houndz                                       EP: 2-018                                                     B34007 1065607ECC                              
PRCFAMCHA051101060627060632000005Astral ID (FEB05)                                                                                                           150                                
PROFAMCHA051101060632060647000015PH - 04 - KING/SPIDERMAN/KIM (SEP05) (:14 - 16)                                                                             150                                
ID FAMCHA051101060647060700000013PS Playhouse AM Block Open (:10-:15)                                                                                        150                                
PROFAMCHA051101060700060709000009CC Disclaimer - FAST - Family.ca (:08-:10)                                                                                  150                                
PGRFAMCHA051101060709062939002230King                                              EPS # 2-018                                                   B75773A1065607ECC                              
PROFAMCHA051101062939062954000015PH - 05 - SPIDERMAN/KIM/RECESS (SEP05) (:14 - 16)                                                                           150                                
ID FAMCHA051101062954063013000019MadMadMornings Block Open                                                                                                   150                                
PGRFAMCHA051101063013065155002142Spiderman                                         EP: 18                                                        C02618 1065607E                                
PRCFAMCHA051101065155065200000005Astral ID (FEB05)                                                                                                           150                                
PROFAMCHA051101065200065215000015MMM - 01 (AM) - KIM/RECESS/WEEKENDERS (OCT05) (:14                                                                          150                                
PROFAMCHA051101065215065250000035Mrs. Ashboro's Cat (WDP) - Saturday @ 12pm                                                                                  150                                
PROFAMCHA051101065250065320000030xxKim Possible 007 (OCT05) (MD) - Coming Up Next                                                                            150                                
INTFAMCHA051101065320065420000100Chicken Little - Riddles #2 (upto Nov 14)                                                                             A60685120                                
PROFAMCHA051101065420065458000038Recess - Keepin Clean (MD/AM) - (SEP05) - Today @                                                                           150                                
PRCFAMCHA051101065458065508000010Bullying (2005) - Teaser (Nov 1 - Nov13)                                                                                    150                                
PROFAMCHA051101065508065532000024Dave the Barbarian - GYM (MD) (SEP05) - Today @ 3:                                                                          150                                
PRCFAMCHA051101065532065541000009xxFamily Bumpers - (Phase 1 Spring 04) - Baseball                                                                           150                                
ID FAMCHA051101065541065600000019MadMadMornings Block Open                                                                                                   150                                
PGRFAMCHA051101065600071850002250Disney's Kim Possible                             EP: 1-016                                                           A6068607E                                
PROFAMCHA051101071850071904000014MMM - 02 (AM) - RECESS/WEEKENDERS/LILO (OCT05) (:1                                                                          150                                
PROFAMCHA051101071904071942000038Recess - Keepin Clean (MD/AM) - (SEP05) - Coming U                                                                          150                                
PRCFAMCHA051101071942072132000150Family Lab - Hypnotizer                                                                                                     150                                
PROFAMCHA051101072132072226000054Weekenders - B-Ball (MD/AM) - (SEP05) - Today @ 7:                                                                          150                                
PRCFAMCHA051101072226072248000022Mad Dash - LIZZIE MCGUIRE - Chase                                                                                           150                                
PROFAMCHA051101072248072316000028Lilo & Stitch (MD) (SEP05) - Today @ 11:50am                                                                                150                                
PROFAMCHA051101072316072346000030Darcy's Marathon - Family's Wild About Darcy - Sun                                                                          150                                
ID FAMCHA051101072346072405000019MadMadMornings Block Open                                                                                                   150                                
PGRFAMCHA051101072405074641002236Disney's Recess                                   EP: 1-054                                                           A6068607E                                
PRCFAMCHA051101074641074646000005Astral ID (FEB05)                                                                                                           150                                
PROFAMCHA051101074646074700000014MMM - 03 (AM) - WEEKENDERS/LILO/WINNIE (OCT05) (:1                                                                          150                                
PROFAMCHA051101074700074754000054Weekenders - B-Ball (MD/AM) - (SEP05) - Coming Up                                                                           150                                
INTFAMCHA051101074754074854000100Chicken Little - Riddles #1 (upto Nov 14)                                                                             A60685120                                
PRCFAMCHA051101074854074934000040Family Hits Take 2 CD (Oct 24 - Dec 9) (3x, daily                                                                           150                                
PROFAMCHA051101074934075010000036Perfect Man DVD Blast - Now  (Nov 1 - Nov 13)                                                                         A     150                                
PROFAMCHA051101075010075045000035Mrs. Ashboro's Cat (WDP) - Saturday @ 12pm                                                                                  150                                
ID FAMCHA051101075045075104000019MadMadMornings Block Open                                                                                                   150                                
PROFAMCHA051101075104075113000009CC Disclaimer - FAST - Family.ca (:08-:10)                                                                                  150                                
PGRFAMCHA051101075113081404002251Disney's The Weekenders                           EP: 1-010                                                           A6068607E                                
PROFAMCHA051101081404081418000014MMM - 04 (AM-T/T) - LILO/WINNIE/BEN (OCT05) (:14 -                                                                          150                                
PROFAMCHA051101081418081448000030Darcy's Marathon - Family's Wild About Darcy - Sun                                                                          150                                
PROFAMCHA051101081448081515000027Lilo & Stitch (MD) (SEP05) - Coming Up Next                                                                                 150                                
PRCFAMCHA051101081515081600000045Famous Players Popcorn Parties (1x)                                                                                         150                                
PRCFAMCHA051101081600081630000030Brandy & Mr. Whiskers - Today @ 12:10pm                                                                                     150                                
PROFAMCHA051101081630081700000030Aladdin (Genie) - Today @ 12:35pm                                                                                           150                                
PRCFAMCHA051101081700081730000030Buzz On Maggie (MD) - Fridays @ 12:10pm                                                                                     150                                
PRCFAMCHA051101081730081742000012xxFamily Bumpers - (Phase 1 Spring 04) - Picnic (M                                                                          150                                
ID FAMCHA051101081742081801000019MadMadMornings Block Open                                                                                                   150                                
PGRFAMCHA051101081801084040002239Disney's Lilo & Stitch                            EPS # 39                                                            A6068607E                                
PRCFAMCHA051101084040084045000005Astral ID (FEB05)                                                                                                           150                                
PROFAMCHA051101084045084059000014PH - 06 (T/T) - WINNIE/BENJAMIN/MACDONALD (SEP05)                                                                           150                                
PROFAMCHA051101084059084129000030Winnie the Pooh (PH/AM) (SEP05) - Coming Up Next                                                                            150                                
PRCFAMCHA051101084129084149000020Benjamin Bear - Snack (PH-T/T) (SEP05) - Today @ 9                                                                          150                                
INTFAMCHA051101084149084334000145They Might Be Giants (ABC's) - D and W                                                                                 60688120                                
PROFAMCHA051101084334084404000030New MacDonald's Farm (PH) (SEP05) - Today @ 9:35am                                                                          150                                
PROFAMCHA051101084404084449000045Princess Block - Be A Princess (Frog Prince) - Tod                                                                          150                                
ID FAMCHA051101084449084500000011PS Playhouse AM Block Open (:10-:15)                                                                                        150                                
PROFAMCHA051101084500084509000009CC Disclaimer - FAST - Family.ca (:08-:10)                                                                                  150                                
PGRFAMCHA051101084509090746002237The New Adventures of Winnie the Pooh             EP: 1-048                                                            6068607ECC                              
PROFAMCHA051101090746090800000014PH - 07 (T/T) - BENJAMIN/MACDONALD/MERMAID (SEP05)                                                                          150                                
PRCFAMCHA051101090800090812000012Benjamin Bear - Slide (PH) (SEP05) - Coming Up Nex                                                                          150                                
ID FAMCHA051101090812090827000015Franny's Feet Web BBD - Part of Playhouse @ family                                                                          150                                
PROFAMCHA051101090827090857000030New MacDonald's Farm (PH) (SEP05) - Today @ 9:35am                                                                          150                                
PROFAMCHA051101090857090930000033Princess Block - Be A Princess (Royal Treatment) -                                                                          150                                
PRCFAMCHA051101090930091036000106Playhouse - WINNIE THE POOH - Christopher Robin                                                                             150                                
PRCFAMCHA051101091036091051000015xxFranny's Feet - Bowleriffic (PH-M/W/F) - (SEP05)                                                                          150                                
ID FAMCHA051101091051091101000010PS Playhouse AM Block Open (:10-:15)                                                                                        150                                
PROFAMCHA051101091101091110000009CC Disclaimer - FAST - Family.ca (:08-:10)                                                                                  150                                
PGRFAMCHA051101091110093345002235The Secret World Of Benjamin Bear                 EPS # 1-003                                                   B75148A1065607ECC                              
PRCFAMCHA051101093345093350000005Astral ID (FEB05)                                                                                                           150                                
PROFAMCHA051101093350093406000016PH - 08 (T/T) - MACDONALD/MERMAID/PB&J (SEP05) (:1                                                                          150                                
PROFAMCHA051101093406093436000030New MacDonald's Farm (PH) (SEP05) - Coming Up Next                                                                          150                                
PROFAMCHA051101093436093521000045Princess Block - Be A Princess (Frog Prince) - Tod                                                                          150                                
PROFAMCHA051101093521093540000019Henry's World (SEP05) - Today @ 11am                                                                                        150                                
ID FAMCHA051101093540093555000015PS Playhouse AM Block Open (:10-:15)                                                                                        150                                
PGRFAMCHA051101093555100518002923New MacDonald's Farm                              EP: 44                                                               7028607E                                
PROFAMCHA051101100518100532000014PH - 09 (M/W/F) - BELLE/PB&J/HENRY (SEP05) (:14 -                                                                           150                                
PROFAMCHA051101100532100605000033Princess Block - Be A Princess (Royal Treatment) -                                                                          150                                
PROFAMCHA051101100605100624000019Henry's World (SEP05) - Today @ 11am                                                                                        150                                
PRCFAMCHA051101100624100720000056Playhouse - STANLEY - Fish Song                                                                                             150                                
PRCFAMCHA051101100720100751000031King (PH) (SEP05) - Today @ 11:25am                                                                                         150                                
ID FAMCHA051101100751100801000010PS Playhouse AM Block Open (:10-:15)                                                                                        150                                
PROFAMCHA051101100801100810000009CC Disclaimer - FAST - Family.ca (:08-:10)                                                                                  150                                
PGRFAMCHA051101100810103113002303The Little Mermaid                                EP: 1-030                                                            6068607ECC                              
PRCFAMCHA051101103113103118000005Astral ID (FEB05)                                                                                                           150                                
PROFAMCHA051101103118103132000014PH - 10 - PB&J/HENRY/KING (SEP05) (:14 - 16)                                                                                150                                
PROFAMCHA051101103132103151000019Henry's World (SEP05) - Today @ 11am                                                                                        150                                
ID FAMCHA051101103151103206000015Franny's Feet Web BBD - Part of Playhouse @ family                                                                          150                                
PRCFAMCHA051101103206103237000031King (PH) (SEP05) - Today @ 11:25am                                                                                         150                                
PRCFAMCHA051101103237103323000046Playhouse - STANLEY - Squirrel Song                                                                                         150                                
PRCFAMCHA051101103323103338000015xxFranny's Feet - Bowleriffic (PH-M/W/F) - (SEP05)                                                                          150                                
PRCFAMCHA051101103338103350000012Family Bumpers - (Phase 1 Spring 04) - Funhouse (P                                                                          150                                
ID FAMCHA051101103350103400000010PS Playhouse AM Block Open (:10-:15)                                                                                        150                                
PROFAMCHA051101103400103409000009CC Disclaimer - FAST - Family.ca (:08-:10)                                                                                  150                                
PGRFAMCHA051101103409105740002331PB&J Otter                                        EP: 3-004                                                           A6068607ECC                              
PROFAMCHA051101105740105755000015PH - 11 - HENRY/KING/LILO (SEP05) (:14 - 16)                                                                                150                                
PROFAMCHA051101105755105814000019Henry's World (SEP05) - Coming Up Next                                                                                      150                                
PRCFAMCHA051101105814105845000031King (PH) (SEP05) - Today @ 11:25am                                                                                         150                                
ID FAMCHA051101105845105900000015PS Playhouse AM Block Open (:10-:15)                                                                                        150                                
PROFAMCHA051101105900105909000009CC Disclaimer - FAST - Family.ca (:08-:10)                                                                                  150                                
PGRFAMCHA051101105909112312002403Henry's World                                     EPS # 2-023                                                   B81054A1065607GCC                              
PRCFAMCHA051101112312112317000005Astral ID (FEB05)                                                                                                           150                                
PROFAMCHA051101112317112332000015PH - 12 (M-T) - KING/LILO/BRANDY (SEP05) (:14 - 16                                                                          150                                
PRCFAMCHA051101112332112403000031King (PH) (SEP05) - Coming Up Next                                                                                          150                                
PRCFAMCHA051101112403112417000014Playhouse - HOZE HOUNDZ - Skater                                                                                            150                                
PRCFAMCHA051101112417112447000030xxFranny's Feet - Feet Talkin' (PH-M/W/F) - (NEW E                                                                          150                                
ID FAMCHA051101112447112500000013PS Playhouse AM Block Open (:10-:15)                                                                                        150                                
PROFAMCHA051101112500112509000009CC Disclaimer - FAST - Family.ca (:08-:10)                                                                                  150                                
PGRFAMCHA051101112509114739002230King                                              EPS # 2-018                                                   B75773A1065607ECC                              
PROFAMCHA051101114739114755000016MD - 05 (LU-M-T) - LILO/BRANDY/ALADDIN (SEP05) (:1                                                                          150                                
PROFAMCHA051101114755114822000027Lilo & Stitch (MD) (SEP05) - Coming Up Next                                                                                 150                                
PRCFAMCHA051101114822114845000023Mad Dash - WEEKENDERS - Pizza                                                                                               150                                
ID FAMCHA051101114845114900000015Mad Dash Block Open (:13-:15)                                                                                               150                                
PGRFAMCHA051101114900121139002239Disney's Lilo & Stitch                            EPS # 11                                                            A6068607E                                
PRCFAMCHA051101121139121144000005Astral ID (FEB05)                                                                                                           150                                
PROFAMCHA051101121144121159000015MD - 06 (LU-M-T) - BRANDY/ALADDIN/HOZE (SEP05) (:1                                                                          150                                
PRCFAMCHA051101121159121229000030Brandy & Mr. Whiskers - Coming Up Next                                                                                      150                                
PRCFAMCHA051101121229121239000010Mad Dash - LIZZIE MCGUIRE - Going In                                                                                        150                                
PROFAMCHA051101121239121246000007xxZoey 101 ID - You're watching family..NADM                                                                                150                                
ID FAMCHA051101121246121300000014Mad Dash Block Open (:13-:15)                                                                                               150                                
PGRFAMCHA051101121300123537002237Disney's Brandy & Mr. Whiskers                    EP: 13                                                               6068607E                                
PROFAMCHA051101123537123551000014MD - 07 (LU) - ALADDIN/HOZE/HOUSE (SEP05) (:14 - 1                                                                          150                                
PROFAMCHA051101123551123618000027Aladdin (Love Clip) - Coming Up Next                                                                                        150                                
PRCFAMCHA051101123618123647000029Lloyd In Space (Oops) - Today @ 3:25pm                                                                                      150                                
ID FAMCHA051101123647123701000014Mad Dash Block Open (:13-:15)                                                                                               150                                
PROFAMCHA051101123701123710000009CC Disclaimer - FAST - Family.ca (:08-:10)                                                                                  150                                
PGRFAMCHA051101123710125952002242Disney's Aladdin                                  EP: 1-050                                                            6068607ECC                              
PRCFAMCHA051101125952125957000005Astral ID (FEB05)                                                                                                           150                                
PROFAMCHA051101125957130012000015MD - 08 (LU) - HOZE/HOUSE/DALMATIAN (SEP05) (:14 -                                                                          150                                
ID FAMCHA051101130012130025000013Mad Dash Block Open (:13-:15)                                                                                               150                                
PROFAMCHA051101130025130034000009CC Disclaimer - FAST - Family.ca (:08-:10)                                                                                  150                                
PGRFAMCHA051101130034132312002238Hoze Houndz                                       EP: 5-053                                                     B63389A1065607ECC                              
PROFAMCHA051101132312132327000015MD - 09 (LU) - HOUSE/DALMATIAN/HERCULES (SEP05) (:                                                                          150                                
PROFAMCHA051101132327132347000020Recess - Kindergarten (MD/PM) - (SEP05) - Today @                                                                           150                                
ID FAMCHA051101132347132400000013Mad Dash Block Open (:13-:15)                                                                                               150                                
PGRFAMCHA051101132400134634002234Disney's House Of Mouse                           EP: 1-024                                                           A6068607E                                
PRCFAMCHA051101134634134639000005Astral ID (FEB05)                                                                                                           150                                
PROFAMCHA051101134639134653000014MD - 10 (LU) - DALMATIAN/HERCULES/FILLMORE (SEP05)                                                                          150                                
PROFAMCHA051101134653134739000046Fillmore! - Chase (MD) (SEP05) - Today @ 2:35pm                                                                             150                                
PROFAMCHA051101134739134746000007xxZoey 101 ID - You're watching family..NADM                                                                                150                                
ID FAMCHA051101134746134800000014Mad Dash Block Open (:13-:15)                                                                                               150                                
PGRFAMCHA051101134800141045002245Disney's 101 Dalmatians: The Series               EP: 1-001                                                           A6068607E                                
PROFAMCHA051101141045141100000015MD - 11 (LU) - HERCULES/FILLMORE/WEEKENDERS (SEP05                                                                          150                                
PROFAMCHA051101141100141124000024Hercules (Count) - Coming Up Next                                                                                           150                                
PROFAMCHA051101141124141147000023Dave the Barbarian - DANCE (MD) (SEP05) - Today @                                                                           150                                
ID FAMCHA051101141147141200000013Mad Dash Block Open (:13-:15)                                                                                               150                                
PGRFAMCHA051101141200143501002301Disney's Hercules                                 EP: 1-003                                                            6068607E                                
PRCFAMCHA051101143501143506000005Astral ID (FEB05)                                                                                                           150                                
PROFAMCHA051101143506143521000015MD - 12 (LU) - FILLMORE/WEEKENDERS/LLOYD (SEP05) (                                                                          150                                
PROFAMCHA051101143521143545000024Dave the Barbarian - GYM (MD) (SEP05) - Today @ 3:                                                                          150                                
ID FAMCHA051101143545143600000015Mad Dash Block Open (:13-:15)                                                                                               150                                
PGRFAMCHA051101143600145840002240Disney's Fillmore!                                EPS # 1-012                                                         A6068607E                                
PROFAMCHA051101145840145854000014MD - 13 (PM) - WEEKENDERS/LLOYD/DAVE (SEP05) (:14                                                                           150                                
PROFAMCHA051101145854145948000054Weekenders - B-Ball (MD/AM) - (SEP05) - Coming Up                                                                           150                                
ID FAMCHA051101145948150001000013Mad Dash Block Open (:13-:15)                                                                                               150                                
PROFAMCHA051101150001150010000009CC Disclaimer - FAST - Family.ca (:08-:10)                                                                                  150                                
PGRFAMCHA051101150010152248002238Disney's The Weekenders                           EP: 1-038                                                           A6068607ECC                              
PRCFAMCHA051101152248152253000005Astral ID (FEB05)                                                                                                           150                                
PROFAMCHA051101152253152307000014MD - 14 (PM) - LLOYD/DAVE/PROUD (SEP05) (:14 - 16)                                                                          150                                
PRCFAMCHA051101152307152336000029Lloyd In Space (Oops) - Coming Up Next                                                                                      150                                
PRCFAMCHA051101152336152346000010Bullying (2005) - Teaser (Nov 1 - Nov13)                                                                                    150                                
PROFAMCHA051101152346152418000032Dave the Barbarian - LAY WASTE (MD) (SEP05) - Toda                                                                          150                                
PROFAMCHA051101152418152438000020Recess - Kindergarten (MD/PM) - (SEP05) - Today @                                                                           150                                
PRCFAMCHA051101152438152447000009Family Bumpers - (Phase 1 Spring 04) - Soccer (MD-                                                                          150                                
ID FAMCHA051101152447152500000013Mad Dash Block Open (:13-:15)                                                                                               150                                
PGRFAMCHA051101152500154753002253Disney's Lloyd In Space                           EP: 04                                                               6068607E                                
PROFAMCHA051101154753154807000014MD - 15 (PM) - DAVE/PROUD/RECESS (SEP05) (:14 - 16                                                                          150                                
PROFAMCHA051101154807154830000023Dave the Barbarian - DANCE (MD) (SEP05) - Coming U                                                                          150                                
PRCFAMCHA051101154830155020000150Family Lab - Hypnotizer                                                                                                     150                                
PROFAMCHA051101155020155058000038Recess - Keepin Clean (MD/PM) - (SEP05) - Today @                                                                           150                                
PROFAMCHA051101155058155114000016Darcy's - Ask Sara Billboard (NS/NSW)                                                                                       150                                
PROFAMCHA051101155114155149000035Mrs. Ashboro's Cat (WDP) - Saturday @ 12pm                                                                                  150                                
ID FAMCHA051101155149155202000013Mad Dash Block Open (:13-:15)                                                                                               150                                
PGRFAMCHA051101155202161441002239Disney's Dave the Barbarian                       EPS # 18                                                             6068607E                                
PRCFAMCHA051101161441161446000005Astral ID (FEB05)                                                                                                           150                                
PROFAMCHA051101161446161500000014MD - 16 (PM) - PROUD/RECESS/KIM (SEP05) (:14 - 16)                                                                          150                                
PROFAMCHA051101161500161528000028Proud Family (NOV04) (MD) - Coming Up Next                                                                                  150                                
PROFAMCHA051101161528161548000020Recess - Kindergarten (MD/PM) - (SEP05) - Today @                                                                           150                                
PRCFAMCHA051101161548161611000023Mad Dash - WEEKENDERS - Pizza                                                                                               150                                
PROFAMCHA051101161611161641000030Darcy's Marathon - Family's Wild About Darcy - Sun                                                                          150                                
PRCFAMCHA051101161641161648000007Family Bumpers - (Phase 2 F/W 04) - Hockey (MD-L/M                                                                          150                                
ID FAMCHA051101161648161701000013Mad Dash Block Open (:13-:15)                                                                                               150                                
PROFAMCHA051101161701161710000009CC Disclaimer - FAST - Family.ca (:08-:10)                                                                                  150                                
PGRFAMCHA051101161710163946002236The Proud Family                                  EP: 2-010                                                           A6068607ECC                              
PROFAMCHA051101163946164001000015MD - 17 (PM-M-T) - RECESS/KIM/LIZZIE (SEP05) (:14                                                                           150                                
PROFAMCHA051101164001164039000038Recess - Keepin Clean (MD/PM) - (SEP05) - Coming U                                                                          150                                
PROFAMCHA051101164039164115000036Destiny's Child CD Blast! - Available Now (Oct 25                                                                     A     150                                
PRCFAMCHA051101164115164130000015Naturally Sadie - MONTAGE (Clip) (NSW) - Weekends                                                                           150                                
PRCFAMCHA051101164130164210000040Family Hits Take 2 CD (Oct 24 - Dec 9) (3x, daily                                                                           150                                
PROFAMCHA051101164210164245000035Mrs. Ashboro's Cat (WDP) - Saturday @ 12pm                                                                                  150                                
ID FAMCHA051101164245164300000015Mad Dash Block Open (:13-:15)                                                                                               150                                
PGRFAMCHA051101164300170536002236Disney's Recess                                   EP: 1-054                                                           A6068607E                                
PRCFAMCHA051101170536170541000005Astral ID (FEB05)                                                                                                           150                                
PROFAMCHA051101170541170557000016MD - 18 (PM-M-T) - KIM/LIZZIE/EVEN (SEP05) (:14 -                                                                           150                                
PROFAMCHA051101170557170627000030Darcy's Marathon - Family's Wild About Darcy - Sun                                                                          150                                
INTFAMCHA051101170627170727000100Chicken Little - Riddles #3 (upto Nov 14)                                                                             A60685120                                
PRCFAMCHA051101170727170742000015Suite Life of Zack and Cody (Teaser) (NSW/AM) - We                                                                          150                                
ID FAMCHA051101170742170757000015Mad Dash Block Open (:13-:15)                                                                                               150                                
PGRFAMCHA051101170757173047002250Disney's Kim Possible                             EPS # 1-029                                                         A6068607E                                
PROFAMCHA051101173047173102000015MD - 19 (PM-M-T) - LIZZIE/EVEN/DARCY (SEP05) (:14                                                                           150                                
PROFAMCHA051101173102173129000027xxLizzie McGuire - (Bad Breath) (OCT05) (MD) - Com                                                                          150                                
PROFAMCHA051101173129173221000052Laurentien - Fashion 101 - (Aug 15 - Jan 1)                                                                                 150                                
PROFAMCHA051101173221173229000008Raven ID's II - Log onto family.ca                                                                                          150                                
PROFAMCHA051101173229173305000036Perfect Man DVD Blast - Now  (Nov 1 - Nov 13)                                                                         A     150                                
PROFAMCHA051101173305173340000035Mrs. Ashboro's Cat (WDP) - Saturday @ 12pm                                                                                  150                                
PRCFAMCHA051101173340173346000006Family Bumpers - (Phase 2 F/W 04) - Gymnastics (MD                                                                          150                                
ID FAMCHA051101173346173400000014Mad Dash Block Open (:13-:15)                                                                                               150                                
ID FAMCHA051101173400173408000008Magic of Disney - MAD DASH - Shape (:06-:09)                                                                                150                                
PROFAMCHA051101173408173417000009CC Disclaimer - FAST - Family.ca (:08-:10)                                                                                  150                                
PGRFAMCHA051101173417175649002232Lizzie McGuire                                    EP: 1-031                                                           A6068607BCC                              
PRCFAMCHA051101175649175654000005Astral ID (FEB05)                                                                                                           150                                
PROFAMCHA051101175654175709000015NS - 01 (M-T) EVEN/DARCY/RAVEN (SEP05) (:14 - 16)                                                                           150                                
PROFAMCHA051101175709175728000019xxEven Stevens - What's Up (SEPT05) - (NS/M-TH) -                                                                           150                                
PROFAMCHA051101175728175804000036Destiny's Child CD Blast! - Available Now (Oct 25                                                                     A     150                                
PRCFAMCHA051101175804175829000025Darcy's Wild Life - (FREAK OUT) (NS) (SEP05) - Ton                                                                          150                                
PROFAMCHA051101175829175845000016Darcy's - Ask Sara Billboard (NS/NSW)                                                                                       150                                
PRCFAMCHA051101175845175857000012Mad Dash - WEEKENDERS - Reality                                                                                             150                                
PRCFAMCHA051101175857175907000010Bullying (2005) - Teaser (Nov 1 - Nov13)                                                                                    150                                
PROFAMCHA051101175907175937000030Darcy's Marathon - Family's Wild About Darcy - Sun                                                                          150                                
PRCFAMCHA051101175937175943000006Family Bumpers - Reptile Pet - Cow (MD/NS/NSW)                                                                              150                                
ID FAMCHA051101175943180000000017Nonstop Block Open (:14-:17)                                                                                                150                                
PROFAMCHA051101180000180009000009CC Disclaimer - FAST - Family.ca (:08-:10)                                                                                  150                                
PGRFAMCHA051101180009182248002239Even Stevens                                      EP: 2-001                                                           A6068807BCC                              
PROFAMCHA051101182248182302000014NS - 03 (M-T) DARCY/RAVEN/SMART (SEP05) (:14 - 16)                                                                          150                                
PRCFAMCHA051101182302182327000025Darcy's Wild Life - (FREAK OUT) (NS) (SEP05) - Com                                                                          150                                
PROFAMCHA051101182327182403000036Perfect Man DVD Blast - Now  (Nov 1 - Nov 13)                                                                         A     150                                
PROFAMCHA051101182403182433000030That's So Raven (OCT05) (NS/M-T) - Tonight 7pm                                                                              150                                
PRCFAMCHA051101182433182613000140Family Lab - Amazing Pet Talker                                                                                             150                                
PROFAMCHA051101182613182647000034Smart Guy (APR06) (HAPPY DANCE) - (NS) - Tonight @                                                                          150                                
INTFAMCHA051101182647182817000130Movie Surfers - Chicken Little - Int. #1 - Coming                                                                     A60685120                                
PRCFAMCHA051101182817182902000045Famous Players Popcorn Parties (1x)                                                                                         150                                
PROFAMCHA051101182902182937000035Mrs. Ashboro's Cat (WDP) - Saturday @ 12pm                                                                                  150                                
PRCFAMCHA051101182937182946000009xxFamily Bumpers - (Phase 2 F/W 04) - Skateboard (                                                                          150                                
ID FAMCHA051101182946183000000014Nonstop Block Open (:14-:17)                                                                                                150                                
PROFAMCHA051101183000183009000009CC Disclaimer - FAST - Family.ca (:08-:10)                                                                                  150                                
PGRFAMCHA051101183009185139002130Darcy's Wild Life                                 EP: 02                                                        A03949 1065607BCC                              
PRCFAMCHA051101185139185144000005Astral ID (FEB05)                                                                                                           150                                
PROFAMCHA051101185144185200000016NS - 05 (M-T) RAVEN/SMART/RADIO (SEP05) (:14 - 16)                                                                          150                                
PROFAMCHA051101185200185230000030That's So Raven (OCT05) (NS/M-T) - Coming Up Next                                                                           150                                
PROFAMCHA051101185230185306000036Destiny's Child CD Blast! - Available Now (Oct 25                                                                     A     150                                
PROFAMCHA051101185306185340000034Smart Guy (APR06) (HAPPY DANCE) - (NS) - Tonight @                                                                          150                                
PROFAMCHA051101185340185356000016Darcy's - Ask Sara Billboard (NS/NSW)                                                                                       150                                
PRCFAMCHA051101185356185423000027xxRadio Free Roscoe - (NS/M-T) (SEP05) - Tonight @                                                                          150                                
PROFAMCHA051101185423185433000010FAMJAM - Open/Close                                                                                                         150                                
INTFAMCHA051101185433185603000130Chicken Little - MV Disney - One Little Slip (BNL)                                                                    A60685120                                
PROFAMCHA051101185603185617000014xxFAMJAM - Close (FAMILY) xxDNUxx                                                                                           150                                
PROFAMCHA051101185617185656000039Brotherly Love (NSW) - Tomorrow @ 11:30am                                                                                   150                                
PROFAMCHA051101185656185740000044Zoey 101 - PHONE (NS/FRI) (NOV05) - Fridays @ 6pm                                                                           150                                
PRCFAMCHA051101185740185810000030Phil of the Future (NS) (OCT05) - Fridays @ 6:30pm                                                                          150                                
INTFAMCHA051101185810185903000053Planet Rock Profiles - Nickelback (Studio Anthem) EP: 46                                                              A70687120                                
PROFAMCHA051101185903185933000030Darcy's Marathon - Family's Wild About Darcy - Sun                                                                          150                                
PRCFAMCHA051101185933185942000009xxFamily Bumpers - (Phase 3 Spring 05) - Hip Hop (                                                                          150                                
ID FAMCHA051101185942185959000017Nonstop Block Open (:14-:17)                                                                                                150                                
PGRFAMCHA051101185959192235002236That's So Raven                                   EP: 68                                                               6068607B                                
PROFAMCHA051101192235192250000015NS - 07 (M-T) SMART/RADIO/BMW (SEP05) (:14 - 16)                                                                            150                                
PROFAMCHA051101192250192325000035Mrs. Ashboro's Cat (WDP) - Saturday @ 12pm                                                                                  150                                
PROFAMCHA051101192325192359000034Smart Guy (APR06) (HAPPY DANCE) - (NS/NSW) - Comin                                                                          150                                
INTFAMCHA051101192359192759000400Movie Surfers - Chicken Little - Featurette #1 (BN                                                                    A60685120                                
PRCFAMCHA051101192759192826000027xxRadio Free Roscoe - (NS/M-T) (SEP05) - Tonight @                                                                          150                                
PRCFAMCHA051101192826192855000029Nonstop - BOY MEETS WORLD - Shampoo                                                                                         150                                
PROFAMCHA051101192855192934000039Brotherly Love (NSW) - Tomorrow @ 11:30am                                                                                   150                                
PRCFAMCHA051101192934192946000012xxFamily Bumpers - (Phase 3 Spring 05) - Bake (MD/                                                                          150                                
ID FAMCHA051101192946193000000014Nonstop Block Open (:14-:17)                                                                                                150                                
PROFAMCHA051101193000193009000009CC Disclaimer - FAST - Family.ca (:08-:10)                                                                                  150                                
PGRFAMCHA051101193009195237002228Smart Guy                                         EP: 1-029                                                           A6068807BCC                              
PRCFAMCHA051101195237195242000005Astral ID (FEB05)                                                                                                           150                                
PROFAMCHA051101195242195257000015NS - 08 (M-T) RADIO/BMW/N-PIX (SEP05) (:14 - 16)                                                                            150                                
PROFAMCHA051101195257195327000030Darcy's Marathon - Family's Wild About Darcy - Sun                                                                          150                                
PRCFAMCHA051101195327195354000027xxRadio Free Roscoe - (NS/M-T) (SEP05) - Coming Up                                                                          150                                
PRCFAMCHA051101195354195434000040Family Hits Take 2 CD (Oct 24 - Dec 9) (3x, daily                                                                           150                                
PROFAMCHA051101195434195513000039Brotherly Love (NSW) - Tomorrow @ 11:30am                                                                                   150                                
INTFAMCHA051101195513195613000100Movie Surfers - Chicken Little - Int. #1 - Coming                                                                     A60685120                                
PRCFAMCHA051101195613195624000011Naturally Sadie ID's - I'm Charlotte, you're watch                                                                          150                                
PROFAMCHA051101195624195708000044Zoey 101 - PHONE (NS/FRI) (NOV05) - Fridays @ 6pm                                                                           150                                
INTFAMCHA051101195708195842000134Planet Rock Profiles - Green Day (Influence) xxDNUEP: 46                                                              A70687120                                
PROFAMCHA051101195842195858000016Darcy's - Ask Sara Billboard (NS/NSW)                                                                                       150                                
PROFAMCHA051101195858195936000038Ned's DSSG - KUNG FU (NS/FRI) (NOV05) - Friday @ 7                                                                          150                                
PRCFAMCHA051101195936195945000009xxFamily Bumpers - (Phase 3 Spring 05) - Giant Foo                                                                          150                                
ID FAMCHA051101195945200000000015Nonstop Block Open (:14-:17)                                                                                                150                                
PROFAMCHA051101200000200009000009CC Disclaimer - FAST - Family.ca (:08-:10)                                                                                  150                                
PGRFAMCHA051101200009202239002230Radio Free Roscoe                                 EPS # 20                                                      B88733A1065607ACC                              
PROFAMCHA051101202239202254000015NS - 09 (M-T) BMW/N-PIX (SEP05) (:14 - 16)                                                                                  150                                
PROFAMCHA051101202254202329000035Mrs. Ashboro's Cat (WDP) - Saturday @ 12pm                                                                                  150                                
PROFAMCHA051101202329202405000036Destiny's Child CD Blast! - Available Now (Oct 25                                                                     A     150                                
PROFAMCHA051101202405202444000039Brotherly Love (NSW) - Tomorrow @ 11:30am                                                                                   150                                
PRCFAMCHA051101202444202624000140Family Lab - Amazing Pet Talker                                                                                             150                                
PROFAMCHA051101202624202709000045Hoze Houndz (GROCERIES - FALL 2003) - Weekdays @ 6                                                                          150                                
PROFAMCHA051101202709202753000044Zoey 101 - PHONE (NS/FRI) (NOV05) - Fridays @ 6pm                                                                           150                                
INTFAMCHA051101202753202839000046Planet Rock Profiles - Nickelback (Great Band) xxDEP: 46                                                              A70687120                                
PRCFAMCHA051101202839202909000030Phil of the Future (NS) (OCT05) - Fridays @ 6:30pm                                                                          150                                
PRCFAMCHA051101202909202939000030Suite Life of Zack and Cody (NSW/AM) - Weekends @                                                                           150                                
PRCFAMCHA051101202939202945000006Family Bumpers - (Phase 3 Spring 05) - Bubble Gum                                                                           150                                
ID FAMCHA051101202945203000000015Nonstop Block Open (:14-:17)                                                                                                150                                
PROFAMCHA051101203000203009000009CC Disclaimer - FAST - Family.ca (:08-:10)                                                                                  150                                
PGRFAMCHA051101203009211257004248Boy Meets World                                   EP: 1-150                                                           B6068807BCC                              
PRCFAMCHA051101211257211302000005Astral ID (FEB05)                                                                                                           150                                
PROFAMCHA051101211302211318000016Nightly Pix Line-up (SEPT) - GENERIC (:14-:16)                                                                              150                                
ID FAMCHA051101211318211333000015Nonstop Block Open (:14-:17)                                                                                                150                                
ID FAMCHA051101211333211342000009xxRating - PG - Ian (:08-:10)                                                                                               150                                
PROFAMCHA051101211342211351000009CC Disclaimer - SLOW - Family.ca (:08-:10)                                                                                  150                                
PGRFAMCHA051101211351225229013838Marvin's Room                                                                                                         B2068807ECC                              
PROFAMCHA051101225229225244000015NS - 10 (M-T) BROTHERLY/LIFE/RADIO (SEP05) (:14 -                                                                           150                                
ID FAMCHA051101225244225259000015Nonstop Block Open (:14-:17)                                                                                                150                                
PGRFAMCHA051101225259231531002232Brotherly Love                                    EPS # 40                                                             6068807B                                
PRCFAMCHA051101231531231536000005Astral ID (FEB05)                                                                                                           150                                
PROFAMCHA051101231536231551000015NS - 11 (M-T) LIFE/RADIO/MENTORS (SEP05) (:14 - 16                                                                          150                                
ID FAMCHA051101231551231606000015Nonstop Block Open (:14-:17)                                                                                                150                                
PGRFAMCHA051101231606000242004636My So-Called Life                                 EPS # 18                                                             6068807A                                
PROFAMCHA051101000242000257000015NS - 12 (M-T) RADIO/MENTORS/SPIDER (SEP05) (:14 -                                                                           150                                
ID FAMCHA051101000257000312000015Nonstop Block Open (:14-:17)                                                                                                150                                
PROFAMCHA051101000312000321000009CC Disclaimer - SLOW - Family.ca (:08-:10)                                                                                  150                                
PGRFAMCHA051101000321002551002230Radio Free Roscoe                                 EPS # 36                                                      A05969A1065607ACC                              
PRCFAMCHA051101002551002556000005Astral ID (FEB05)                                                                                                           150                                
PROFAMCHA051101002556002611000015NS - 13 (M-F) MENTORS/SPIDER (SEP05) (:14 - 16)                                                                             150                                
ID FAMCHA051101002611002626000015Nonstop Block Open (:14-:17)                                                                                                150                                
PROFAMCHA051101002626002635000009CC Disclaimer - SLOW - Family.ca (:08-:10)                                                                                  150                                
PGRFAMCHA051101002635004946002311Mentors                                           EP: 2-014                                                     C17437 1065607ACC                              
PROFAMCHA051101004946005001000015NSW - 25 - SPIDER (SEP05) (:14 - 16)                                                                                        150                                
ID FAMCHA051101005001005016000015Nonstop Weekend Block Open (:14-:17)                                                                                        150                                
PGRFAMCHA051101005016011157002141Spiderman                                         EP: 09                                                        C02618 1065607E                                
PRCFAMCHA051101011157011202000005Astral ID (FEB05)                                                                                                           150                                
SO FAMCHA051101011202012402001200Sign Off                                                                                                                                                       
OFFFAMCHA051101012402043000030558OFF AIR                                                                                                                                                        
SO FAMCHA051102043000043011000011Sign On (oct 1)                                                                                                                                                
PROFAMCHA051102043011043020000009CC Disclaimer - FAST - Family.ca (:08-:10)                                                                                  150                                
PGRFAMCHA051102043020045655002635Katie And Orbie                                   EP: 2-016                                                     C11896A1065607ECC                              
PRCFAMCHA051102045655045700000005Astral ID (FEB05)                                                                                                           150                                
PROFAMCHA051102045700045715000015PH - 01 - FRANNY/SOMETHING/HOZE (SEP05) (:14 - 16)                                                                          150                                
ID FAMCHA051102045715045728000013PS Playhouse AM Block Open (:10-:15)                                                                                        150                                
PROFAMCHA051102045728045737000009CC Disclaimer - FAST - Family.ca (:08-:10)                                                                                  150                                
PGRFAMCHA051102045737052008002231Franny's Feet                                     EPS # 29                                                      C23971 1065607ECC                              
PROFAMCHA051102052008052023000015PH - 02 - SOMETHING/HOZE/KING (SEP05) (:14 - 16)                                                                            150                                
ID FAMCHA051102052023052036000013PS Playhouse AM Block Open (:10-:15)                                                                                        150                                
PROFAMCHA051102052036052045000009CC Disclaimer - FAST - Family.ca (:08-:10)                                                                                  150                                
PGRFAMCHA051102052045054316002231Something Else                                    EP: 1-011                                                     B69265A1065607ECC                              
PRCFAMCHA051102054316054321000005Astral ID (FEB05)                                                                                                           150                                
PROFAMCHA051102054321054336000015PH - 03 - HOZE/KING/SPIDERMAN (SEP05) (:14 - 16)                                                                            150                                
ID FAMCHA051102054336054349000013PS Playhouse AM Block Open (:10-:15)                                                                                        150                                
PROFAMCHA051102054349054358000009CC Disclaimer - FAST - Family.ca (:08-:10)                                                                                  150                                
PGRFAMCHA051102054358060633002235Hoze Houndz                                       EP: 2-019                                                     B34008 1065607ECC                              
PROFAMCHA051102060633060648000015PH - 04 - KING/SPIDERMAN/KIM (SEP05) (:14 - 16)                                                                             150                                
ID FAMCHA051102060648060701000013PS Playhouse AM Block Open (:10-:15)                                                                                        150                                
PROFAMCHA051102060701060710000009CC Disclaimer - FAST - Family.ca (:08-:10)                                                                                  150                                
PGRFAMCHA051102060710062940002230King                                              EPS # 2-019                                                   B75774A1065607ECC                              
PRCFAMCHA051102062940062945000005Astral ID (FEB05)                                                                                                           150                                
PROFAMCHA051102062945063000000015PH - 05 - SPIDERMAN/KIM/RECESS (SEP05) (:14 - 16)                                                                           150                                
ID FAMCHA051102063000063019000019MadMadMornings Block Open                                                                                                   150                                
PGRFAMCHA051102063019065202002143Spiderman                                         EP: 19                                                        C02618 1065607E                                
PROFAMCHA051102065202065216000014MMM - 01 (AM) - KIM/RECESS/WEEKENDERS (OCT05) (:14                                                                          150                                
PROFAMCHA051102065216065246000030xxKim Possible 007 (OCT05) (MD) - Coming Up Next                                                                            150                                
PRCFAMCHA051102065246065426000140Family Lab - Amazing Pet Talker                                                                                             150                                
PROFAMCHA051102065426065504000038Recess - Keepin Clean (MD/AM) - (SEP05) - Today @                                                                           150                                
PROFAMCHA051102065504065534000030Darcy's Marathon - Family's Wild About Darcy - Sun                                                                          150                                
PROFAMCHA051102065534065544000010Chicken Little IDs  #2 Oct26/05                                                                                             150                                
ID FAMCHA051102065544065603000019MadMadMornings Block Open                                                                                                   150                                
PGRFAMCHA051102065603071854002251Disney's Kim Possible                             EP: 1-017                                                           A6068607E                                
PRCFAMCHA051102071854071859000005Astral ID (FEB05)                                                                                                           150                                
PROFAMCHA051102071859071913000014MMM - 02 (AM) - RECESS/WEEKENDERS/LILO (OCT05) (:1                                                                          150                                
PROFAMCHA051102071913071951000038Recess - Keepin Clean (MD/AM) - (SEP05) - Coming U                                                                          150                                
PRCFAMCHA051102071951072001000010Bullying (2005) - Teaser (Nov 1 - Nov13)                                                                                    150                                
PROFAMCHA051102072001072055000054Weekenders - B-Ball (MD/AM) - (SEP05) - Today @ 7:                                                                          150                                
PRCFAMCHA051102072055072135000040Family Hits Take 2 CD (Oct 24 - Dec 9) (3x, daily                                                                           150                                
PRCFAMCHA051102072135072214000039Mad Dash - WEEKENDERS - Arrival                                                                                             150                                
INTFAMCHA051102072214072314000100Chicken Little - Riddles #1 (upto Nov 14)                                                                             A60685120                                
PROFAMCHA051102072314072342000028Lilo & Stitch (MD) (SEP05) - Today @ 8:15am                                                                                 150                                
ID FAMCHA051102072342072401000019MadMadMornings Block Open                                                                                                   150                                
PGRFAMCHA051102072401074636002235Disney's Recess                                   EP: 1-055                                                           A6068607E                                
PROFAMCHA051102074636074652000016MMM - 03 (AM) - WEEKENDERS/LILO/WINNIE (OCT05) (:1                                                                          150                                
PROFAMCHA051102074652074746000054Weekenders - B-Ball (MD/AM) - (SEP05) - Coming Up                                                                           150                                
PRCFAMCHA051102074746074936000150Family Lab - Hypnotizer                                                                                                     150                                
PROFAMCHA051102074936075011000035Mrs. Ashboro's Cat (WDP) - Saturday @ 12pm                                                                                  150                                
PROFAMCHA051102075011075041000030Darcy's Marathon - Family's Wild About Darcy - Sun                                                                          150                                
ID FAMCHA051102075041075100000019MadMadMornings Block Open                                                                                                   150                                
PGRFAMCHA051102075100081355002255Disney's The Weekenders                           EP: 1-011                                                           A6068607E                                
PRCFAMCHA051102081355081400000005Astral ID (FEB05)                                                                                                           150                                
PROFAMCHA051102081400081415000015MMM - 04 (AM-M/W/F) - LILO/WINNIE/FRANNY (OCT05) (                                                                          150                                
PROFAMCHA051102081415081442000027Lilo & Stitch (MD) (SEP05) - Coming Up Next                                                                                 150                                
INTFAMCHA051102081442081542000100Chicken Little - Riddles #2 (upto Nov 14)                                                                             A60685120                                
PRCFAMCHA051102081542081611000029Lloyd In Space (Oops) - Today @ 3:25pm                                                                                      150                                
PRCFAMCHA051102081611081656000045Famous Players Popcorn Parties (1x)                                                                                         150                                
PROFAMCHA051102081656081734000038Recess - Keepin Clean (MD/PM) - (SEP05) - Today @                                                                           150                                
PROFAMCHA051102081734081741000007MadMadMornings Bumper                                                                                                       150                                
ID FAMCHA051102081741081800000019MadMadMornings Block Open                                                                                                   150                                
PGRFAMCHA051102081800084039002239Disney's Lilo & Stitch: The Series                EPS # 40                                                             6068607E                                
PROFAMCHA051102084039084054000015PH - 06 (T/T) - WINNIE/BENJAMIN/MACDONALD (SEP05)                                                                           150                                
PROFAMCHA051102084054084124000030Winnie the Pooh (PH/AM) (SEP05) - Coming Up Next                                                                            150                                
PRCFAMCHA051102084124084139000015xxFranny's Feet - Bowleriffic (PH-M/W/F) - (SEP05)                                                                          150                                
PROFAMCHA051102084139084209000030New MacDonald's Farm (PH) (SEP05) - Today @ 9:35am                                                                          150                                
PRCFAMCHA051102084209084315000106Playhouse - WINNIE THE POOH - Christopher Robin                                                                             150                                
PROFAMCHA051102084315084400000045Princess Block - Be A Princess (Frog Prince) - Tod                                                                          150                                
PROFAMCHA051102084400084419000019Henry's World (SEP05) - Today @ 11am                                                                                        150                                
PRCFAMCHA051102084419084450000031King (PH) (SEP05) - Today @ 11:25am                                                                                         150                                
ID FAMCHA051102084450084500000010PS Playhouse AM Block Open (:10-:15)                                                                                        150                                
PROFAMCHA051102084500084509000009CC Disclaimer - FAST - Family.ca (:08-:10)                                                                                  150                                
PGRFAMCHA051102084509090747002238The New Adventures of Winnie the Pooh             EP: 1-049                                                            6068607ECC                              
PRCFAMCHA051102090747090752000005Astral ID (FEB05)                                                                                                           150                                
PROFAMCHA051102090752090807000015PH - 07 (M/W/F) - FRANNY/MACDONALD/BELLE (SEP05) (                                                                          150                                
PRCFAMCHA051102090807090837000030Franny's Feet - Feet Talkin' (PH-M/W/F) - Coming U                                                                          150                                
PROFAMCHA051102090837090907000030New MacDonald's Farm (PH) (SEP05) - Today @ 9:35am                                                                          150                                
PRCFAMCHA051102090907090953000046Playhouse - STANLEY - Squirrel Song                                                                                         150                                
PROFAMCHA051102090953091026000033Princess Block - Be A Princess (Royal Treatment) -                                                                          150                                
PROFAMCHA051102091026091045000019Henry's World (SEP05) - Today @ 11am                                                                                        150                                
ID FAMCHA051102091045091100000015PS Playhouse AM Block Open (:10-:15)                                                                                        150                                
PROFAMCHA051102091100091109000009CC Disclaimer - FAST - Family.ca (:08-:10)                                                                                  150                                
PGRFAMCHA051102091109093339002230Franny's Feet                                     EPS # 39                                                      C23971 1025607ECC                              
PROFAMCHA051102093339093354000015PH - 08 (M/W/F) - MACDONALD/BELLE/PB&J (SEP05) (:1                                                                          150                                
PROFAMCHA051102093354093424000030New MacDonald's Farm (PH) (SEP05) - Coming Up Next                                                                          150                                
PROFAMCHA051102093424093509000045Princess Block - Be A Princess (Frog Prince) - Tod                                                                          150                                
PRCFAMCHA051102093509093528000019xxPlayhouse - FRANKLIN - Party                                                                                              150                                
PROFAMCHA051102093528093547000019Henry's World (SEP05) - Today @ 11am                                                                                        150                                
ID FAMCHA051102093547093600000013PS Playhouse AM Block Open (:10-:15)                                                                                        150                                
PGRFAMCHA051102093600100544002944New MacDonald's Farm                              EP: 45                                                               7028607E                                
PRCFAMCHA051102100544100549000005Astral ID (FEB05)                                                                                                           150                                
PROFAMCHA051102100549100604000015PH - 09 (M/W/F) - BELLE/PB&J/HENRY (SEP05) (:14 -                                                                           150                                
PROFAMCHA051102100604100637000033Princess Block - Be A Princess (Royal Treatment) -                                                                          150                                
PRCFAMCHA051102100637100712000035Playhouse - KATIE & ORBIE - Discoveries                                                                                     150                                
PROFAMCHA051102100712100731000019Henry's World (SEP05) - Today @ 11am                                                                                        150                                
ID FAMCHA051102100731100746000015Franny's Feet Web BBD - Part of Playhouse @ family                                                                          150                                
ID FAMCHA051102100746100800000014PS Playhouse AM Block Open (:10-:15)                                                                                        150                                
PGRFAMCHA051102100800103042002242Disney's Sing Me A Story With Belle               EP: 01                                                               6068607G                                
PROFAMCHA051102103042103057000015PH - 10 - PB&J/HENRY/KING (SEP05) (:14 - 16)                                                                                150                                
PROFAMCHA051102103057103116000019Henry's World (SEP05) - Today @ 11am                                                                                        150                                
PRCFAMCHA051102103116103147000031King (PH) (SEP05) - Today @ 11:25am                                                                                         150                                
PRCFAMCHA051102103147103243000056Playhouse - STANLEY - Fish Song                                                                                             150                                
PRCFAMCHA051102103243103303000020Benjamin Bear - Snack (PH-T/T) (SEP05) - Tomorrow                                                                           150                                
PROFAMCHA051102103303103348000045Princess Block - Be A Princess (Frog Prince) - Tom                                                                          150                                
ID FAMCHA051102103348103400000012PS Playhouse AM Block Open (:10-:15)                                                                                        150                                
PROFAMCHA051102103400103409000009CC Disclaimer - FAST - Family.ca (:08-:10)                                                                                  150                                
PGRFAMCHA051102103409105739002330PB&J Otter                                        EP: 3-005                                                            6068607ECC                              
PRCFAMCHA051102105739105744000005Astral ID (FEB05)                                                                                                           150                                
PROFAMCHA051102105744105759000015PH - 11 - HENRY/KING/LILO (SEP05) (:14 - 16)                                                                                150                                
PROFAMCHA051102105759105832000033Princess Block - Be A Princess (Royal Treatment) -                                                                          150                                
ID FAMCHA051102105832105847000015Franny's Feet Web BBD - Part of Playhouse @ family                                                                          150                                
ID FAMCHA051102105847105900000013PS Playhouse AM Block Open (:10-:15)                                                                                        150                                
PROFAMCHA051102105900105909000009CC Disclaimer - FAST - Family.ca (:08-:10)                                                                                  150                                
PGRFAMCHA051102105909112314002405Henry's World                                     EPS # 2-024                                                   B81055A1065607GCC                              
PROFAMCHA051102112314112329000015PH - 12 (FRI) - KING/LILO/BUZZ (SEP05) (:14 - 16)                                                                           150                                
PROFAMCHA051102112329112414000045Princess Block - Be A Princess (Frog Prince) - Tom                                                                          150                                
PRCFAMCHA051102112414112437000023Playhouse - HOUSE OF MOUSE - Calculator                                                                                     150                                
PRCFAMCHA051102112437112449000012Family Bumpers - (Phase 1 Spring 04) - Funhouse (P                                                                          150                                
ID FAMCHA051102112449112500000011PS Playhouse AM Block Open (:10-:15)                                                                                        150                                
PROFAMCHA051102112500112509000009CC Disclaimer - FAST - Family.ca (:08-:10)                                                                                  150                                
PGRFAMCHA051102112509114739002230King                                              EPS # 027                                                     C25350A1065607ECC                              
PRCFAMCHA051102114739114744000005Astral ID (FEB05)                                                                                                           150                                
PROFAMCHA051102114744114759000015MD - 05 (LU-FRI) - LILO/BUZZ/ALADDIN (SEP05) (:14                                                                           150                                
PROFAMCHA051102114759114826000027Lilo & Stitch (MD) (SEP05) - Coming Up Next                                                                                 150                                
PROFAMCHA051102114826114846000020Recess - Kindergarten (MD/PM) - (SEP05) - Today @                                                                           150                                
ID FAMCHA051102114846114900000014Mad Dash Block Open (:13-:15)                                                                                               150                                
PGRFAMCHA051102114900121139002239Disney's Lilo & Stitch                            EPS # 12                                                            A6068607E                                
PROFAMCHA051102121139121154000015MD - 06 (LU-M-T) - BRANDY/ALADDIN/HOZE (SEP05) (:1                                                                          150                                
PRCFAMCHA051102121154121224000030Brandy & Mr. Whiskers - Coming Up Next                                                                                      150                                
PROFAMCHA051102121224121234000010Chicken Little IDs  #2 Oct26/05                                                                                             150                                
PRCFAMCHA051102121234121246000012xxFamily Bumpers - (Phase 1 Spring 04) - Picnic (M                                                                          150                                
ID FAMCHA051102121246121301000015Mad Dash Block Open (:13-:15)                                                                                               150                                
PGRFAMCHA051102121301123539002238Disney's Brandy & Mr. Whiskers                    EP: 14                                                               6068607E                                
PRCFAMCHA051102123539123544000005Astral ID (FEB05)                                                                                                           150                                
PROFAMCHA051102123544123600000016MD - 07 (LU) - ALADDIN/HOZE/HOUSE (SEP05) (:14 - 1                                                                          150                                
PRCFAMCHA051102123600123645000045Famous Players Popcorn Parties (1x)                                                                                         150                                
ID FAMCHA051102123645123700000015Mad Dash Block Open (:13-:15)                                                                                               150                                
PROFAMCHA051102123700123709000009CC Disclaimer - FAST - Family.ca (:08-:10)                                                                                  150                                
PGRFAMCHA051102123709125948002239Disney's Aladdin                                  EP: 1-051                                                            6068607ECC                              
PROFAMCHA051102125948130003000015MD - 08 (LU) - HOZE/HOUSE/DALMATIAN (SEP05) (:14 -                                                                          150                                
ID FAMCHA051102130003130017000014Mad Dash Block Open (:13-:15)                                                                                               150                                
PROFAMCHA051102130017130026000009CC Disclaimer - FAST - Family.ca (:08-:10)                                                                                  150                                
PGRFAMCHA051102130026132304002238Hoze Houndz                                       EP: 5-054                                                     B63390A1065607ECC                              
PRCFAMCHA051102132304132309000005Astral ID (FEB05)                                                                                                           150                                
PROFAMCHA051102132309132324000015MD - 09 (LU) - HOUSE/DALMATIAN/HERCULES (SEP05) (:                                                                          150                                
PRCFAMCHA051102132324132346000022Mad Dash - LIZZIE MCGUIRE - Chase                                                                                           150                                
ID FAMCHA051102132346132400000014Mad Dash Block Open (:13-:15)                                                                                               150                                
PROFAMCHA051102132400132409000009CC Disclaimer - FAST - Family.ca (:08-:10)                                                                                  150                                
PGRFAMCHA051102132409134648002239Disney's House Of Mouse                           EP: 1-025                                                           A6068607ECC                              
PROFAMCHA051102134648134702000014MD - 10 (LU) - DALMATIAN/HERCULES/FILLMORE (SEP05)                                                                          150                                
PRCFAMCHA051102134702134738000036Mad Dash - WEEKENDERS - Bored                                                                                               150                                
PRCFAMCHA051102134738134747000009Family Bumpers - (Phase 1 Spring 04) - Soccer (MD-                                                                          150                                
ID FAMCHA051102134747134800000013Mad Dash Block Open (:13-:15)                                                                                               150                                
PGRFAMCHA051102134800141048002248Disney's 101 Dalmatians: The Series               EP: 1-002                                                           A6068607E                                
PRCFAMCHA051102141048141053000005Astral ID (FEB05)                                                                                                           150                                
PROFAMCHA051102141053141108000015MD - 11 (LU) - HERCULES/FILLMORE/WEEKENDERS (SEP05                                                                          150                                
PRCFAMCHA051102141108141137000029Lloyd In Space (Oops) - Today @ 3:25pm                                                                                      150                                
PROFAMCHA051102141137141147000010Chicken Little IDs  #1 Oct26/05                                                                                             150                                
ID FAMCHA051102141147141200000013Mad Dash Block Open (:13-:15)                                                                                               150                                
PGRFAMCHA051102141200143452002252Disney's Hercules                                 EP: 1-004                                                            6068607E                                
PROFAMCHA051102143452143507000015MD - 12 (LU) - FILLMORE/WEEKENDERS/LLOYD (SEP05) (                                                                          150                                
PROFAMCHA051102143507143534000027Dave the Barbarian - SCREAM (SEP05) - Today @ 3:50                                                                          150                                
PRCFAMCHA051102143534143546000012xxFamily Bumpers - (Phase 3 Spring 05) - Bake (MD/                                                                          150                                
ID FAMCHA051102143546143600000014Mad Dash Block Open (:13-:15)                                                                                               150                                
PGRFAMCHA051102143600145838002238Disney's Fillmore!                                EPS # 1-013                                                         A6068607E                                
PRCFAMCHA051102145838145843000005Astral ID (FEB05)                                                                                                           150                                
PROFAMCHA051102145843145857000014MD - 13 (PM) - WEEKENDERS/LLOYD/DAVE (SEP05) (:14                                                                           150                                
PROFAMCHA051102145857145920000023Dave the Barbarian - DANCE (MD) (SEP05) - Today @                                                                           150                                
PROFAMCHA051102145920145947000027Aladdin (Love Clip) - Tomorrow @ 12:35pm                                                                                    150                                
ID FAMCHA051102145947150000000013Mad Dash Block Open (:13-:15)                                                                                               150                                
PROFAMCHA051102150000150009000009CC Disclaimer - FAST - Family.ca (:08-:10)                                                                                  150                                
PGRFAMCHA051102150009152301002252Disney's The Weekenders                           EP: 1-039                                                           A6068607ECC                              
PROFAMCHA051102152301152315000014MD - 14 (PM) - LLOYD/DAVE/PROUD (SEP05) (:14 - 16)                                                                          150                                
PRCFAMCHA051102152315152344000029Lloyd In Space (Oops) - Coming Up Next                                                                                      150                                
PROFAMCHA051102152344152354000010Chicken Little IDs  #1 Oct26/05                                                                                             150                                
PROFAMCHA051102152354152417000023Dave the Barbarian - DANCE (MD) (SEP05) - Today @                                                                           150                                
PRCFAMCHA051102152417152447000030Buzz On Maggie (MD) - Fridays @ 12:10pm                                                                                     150                                
ID FAMCHA051102152447152500000013Mad Dash Block Open (:13-:15)                                                                                               150                                
