PGRFAMCHA091101043000043849000849That's So Raven                                   EPS # 1-025                                                          6068607BCC                              
PGRFAMCHA091101043849043958000109That's So Raven                                   EPS # 1-025                                                          6068607BCC                              
PROFAMCHA091101043958044049000051Overruled! - Series Promo (NSW) Weekend Nights @ 6                                                                          150                                
PROFAMCHA091101044049044121000032Suite Life of Z & C (NSW) IMPRESS - Coming Up Next                                                                          150                                
PRCFAMCHA091101044121044130000009NSW Bumper - Dodgeball (:07-:09) APR06                                                                                      150                                
ID FAMCHA091101044130044138000008Magic of Disney - NS/NSW/PB - Wipe (:06-:09)                                                                                150                                
PRCFAMCHA091101044138044148000010CC Disclaimer - SLOW - Generic (:09 -:10)                                                                                   150                                
PGRFAMCHA091101044148050419002231Suite Life of Zack and Cody, The                  EP: 13                                                               6068607BCC                              
PRCFAMCHA091101050419050425000006Astral ID (FEB 2009)                                                                                                        150                                
PRCFAMCHA091101050425050442000017NSW Bumper - Tennis (:15-:17) APR06                                                                                         150                                
PRCFAMCHA091101050442050452000010CC Disclaimer - SLOW - Family.ca (:09-:10)                                                                                  150                                
PGRFAMCHA091101050452052722002230Life with Derek                                   EP: 21                                                        C26822 1065607BCC                              
PROFAMCHA091101052722052731000009PH-D Promo - Ooh & Aah Web Throw - PH-D.CA                                                                                  150                                
PROFAMCHA091101052731052802000031Mickey Mouse Clubhouse - PH-D -  Generic 31 - This                                                                          150                                
PGRFAMCHA091101052802052902000100MV Disney - (MD/NS/NSW) - Jesse McCartney - Just S                                                                     60688120                                
PROFAMCHA091101052902052932000030Imagination Movers - PH-D - Generic - Weekday Morn                                                                          150                                
PROFAMCHA091101052932052947000015PH-D - Show Throw - CAN Henry's World #1- Ooh & Aa                                                                          150                                
PROFAMCHA091101052947052957000010PH-D EOB ID - Kaleidoscope # 07 (Sept09)                                                                                    150                                
PGRFAMCHA091101052957054245001248Franny's Feet                                     EPS # 19                                                      C23971 1065607ECC                              
PRCFAMCHA091101054245054310000025PH-D Promo - Ooh & Ahh PH-D Throw 2009 - Call Your                                                                          150                                
PROFAMCHA091101054310054355000045Feld Entertainment                                                                                                          150                                
PROFAMCHA091101054355054410000015Mickey Mouse Clubhouse - PH-D - Goofy Sell - New E                                                                          150                                
PROFAMCHA091101054410054440000030Tigger and Pooh - PH-D - Darby Sell # 2 - New Ep T                                                                          150                                
PROFAMCHA091101054440054500000020PH-D - Show Throw - CAN King #1- Ooh & Aah (Sept09                                                                          150                                
PROFAMCHA091101054500054510000010PH-D EOB ID - Kaleidoscope # 03 (Sept09)                                                                                    150                                
PRCFAMCHA091101054510054519000009CC Disclaimer - FAST - Generic (:09-:10)                                                                                    150                                
PGRFAMCHA091101054519060749002230King                                              EP: 4-048                                                     C25350 1065607ECC                              
PRCFAMCHA091101060749060755000006Astral ID - Family Jr. Version (MAR 2009)                                                                                   150                                
PROFAMCHA091101060755060827000032Family Kicks NBA Contest 2 - enter @ Family.ca (Oc                                                                          150                                
PROFAMCHA091101060827060902000035BAW - Stand Up With Nico - Post (Sept 26-Nov 19 20                                                                          150                                
PROFAMCHA091101060902060915000013Overruled Family.ca Court Case Throw - Coming Soon                                                                          150                                
PRCFAMCHA091101060915060954000039Really Big Birthdays - January - 3-4 X Day (Novemb                                                                          150                                
PROFAMCHA091101060954061011000017Nonstop Weekend Block Open (:16-:18) APR06                                                                                  150                                
PRCFAMCHA091101061011061020000009CC Disclaimer - FAST - Family.ca (:09-:10)                                                                                  150                                
PGRFAMCHA091101061020063253002233Power Rangers Jungle Fury                         EP: 02                                                               2068607ACC                              
PROFAMCHA091101063253063323000030PH-D Promo - Ooh & Aah.Ca Throw 08 - PH-D.CA (Sept                                                                          150                                
PROFAMCHA091101063323063354000031Mickey Mouse Clubhouse - PH-D -  Generic 31 - New                                                                           150                                
PROFAMCHA091101063354063424000030Tigger and Pooh - PH-D - Darby Sell # 2 - New Ep T                                                                          150                                
PROFAMCHA091101063424063454000030PH-D - Show Throw - Generic New Show #2 - Ooh & Aa                                                                          150                                
PROFAMCHA091101063454063503000009PH-D Promo - Ooh & Aah Web Throw - PH-D.CA                                                                                  150                                
PROFAMCHA091101063503063513000010PH-D EOB ID - Yard (Sept09)                                                                                                 150                                
PRCFAMCHA091101063513063523000010CC Disclaimer - FAST - Generic (:09-:10)                                                                                    150                                
PGRFAMCHA091101063523065933002410Wow Wow Wubbzy                                    EP: 40                                                               2068607ECC                              
PRCFAMCHA091101065933065939000006Astral ID - Family Jr. Version (MAR 2009)                                                                                   150                                
PROFAMCHA091101065939070009000030PH-D - Show Throw - Mickey Mouse Clubhouse #7 - Oo                                                                          150                                
PROFAMCHA091101070009070019000010PH-D EOB ID - Kaleidoscope # 06 (Sept09)                                                                                    150                                
PRCFAMCHA091101070019070029000010CC Disclaimer - FAST - Generic (:09-:10)                                                                                    150                                
PGRFAMCHA091101070029072429002400Disney's Mickey Mouse Clubhouse                   EP: 08                                                               6068607ECC                              
PROFAMCHA091101072429072514000045PH-D Promo More MMCH/Handy Manny on PH-D - Every M                                                                          150                                
PROFAMCHA091101072514072559000045Feld Entertainment                                                                                                          150                                
PROFAMCHA091101072559072614000015Mickey Mouse Clubhouse - PH-D - Goofy Sell - Tomor                                                                          150                                
PROFAMCHA091101072614072644000030Imagination Movers - PH-D - Generic - Tomorrow Mor                                                                          150                                
PROFAMCHA091101072644072659000015PH-D Short Throw - Happy Monster #2 - Ooh & Aah (S                                                                          150                                
PROFAMCHA091101072659072859000200PH-D Short - Happy Monster Band - 10 - Get Up And                                                                           150                                
PROFAMCHA091101072859072929000030Tigger and Pooh - PH-D - Darby Sell # 2 - New Ep T                                                                          150                                
PROFAMCHA091101072929072959000030PH-D - Show Throw - Mickey Mouse Clubhouse NEW EPS                                                                          150                                
PROFAMCHA091101072959073009000010PH-D EOB ID - Kaleidoscope - EMEA # 01 (Sept09)                                                                             150                                
PRCFAMCHA091101073009073019000010CC Disclaimer - FAST - Generic (:09-:10)                                                                                    150                                
PGRFAMCHA091101073019075419002400Disney's Mickey Mouse Clubhouse                   EP: 38                                                               6068607ECC                              
PRCFAMCHA091101075419075425000006Astral ID - Family Jr. Version (MAR 2009)                                                                                   150                                
PRCFAMCHA091101075425075436000011NSW - 01 - PHINEAS/ NED'S DSSG @ 8:30am (:11 - :13                                                                          150                                
PROFAMCHA091101075436075510000034Family.ca - Check Out New Games at Family.ca (Oct                                                                           150                                
PROFAMCHA091101075510075551000041High School Musical (original) Today @ 12 (SEPT06)                                                                          150                                
PROFAMCHA091101075551075634000043Ned's DSSG (NSW) Too Cool for School  - This Morni                                                                          150                                
PROFAMCHA091101075634075704000030Zeke & Luther - BTS SKATEBOARD (NSW) New Eps Tonig                                                                          150                                
PROFAMCHA091101075704075819000115ME - Astro Boy - Now Playing In Theatres (Oct23-No                                                                          150                                
PROFAMCHA091101075819075904000045Phineas & Ferb (NSW) INSIDE - Coming Up Next (Aug0                                                                          150                                
PROFAMCHA091101075904075944000040BAW - Stand Up! Programming Event Spot (Oct 31-Nov                                                                          150                                
PROFAMCHA091101075944080001000017Nonstop Weekend Block Open (:16-:18) APR06                                                                                  150                                
PRCFAMCHA091101080001080011000010CC Disclaimer - FAST - Family.ca (:09-:10)                                                                                  150                                
PGRFAMCHA091101080011080107000056Disney Phineas & Ferb                             EP: 01                                                               6068607ECC                              
PGRFAMCHA091101080107081123001016Disney Phineas & Ferb                             EP: 01                                                               6068607ECC                              
PROFAMCHA091101081123081211000048Suite Life On Deck Contest (Enter Now (Oct 28-Nov1                                                                          150                                
PROFAMCHA091101081211081251000040Walt Disney Studios Home Entertainment                                                                                      150                                
PROFAMCHA091101081251081334000043Ned's DSSG (NSW) Too Cool for School  - This Morni                                                                          150                                
PROFAMCHA091101081334081404000030Zeke & Luther - BTS 1 (NSW) New Episode This After                                                                          150                                
PROFAMCHA091101081404081425000021Wendy Wu: HW Sat @ 12 (Sept06)                                                                                              150                                
PGRFAMCHA091101081425082513001048Disney Phineas & Ferb                             EP: 01                                                               6068607ECC                              
PGRFAMCHA091101082513082543000030Disney Phineas & Ferb                             EP: 01                                                               6068607ECC                              
PRCFAMCHA091101082543082554000011NSW - 02 - NED'S DSSG/ ZOEY 101 @ 9:00am (:11 - :1                                                                          150                                
PROFAMCHA091101082554082627000033Agent Cody Banks - Popcorn Pix - Premiering Friday                                                                          150                                
PROFAMCHA091101082627082642000015Crayola                                                                                                                     150                                
PROFAMCHA091101082642082713000031Zoey 101 (NSW) ANGELS This Morning @ 9am (JULY09)                                                                           150                                
PROFAMCHA091101082713082743000030Aaron Stone (NSW) Charlie - New Episode This After                                                                          150                                
PROFAMCHA091101082743082826000043Ned's DSSG (NSW) Too Cool for School  - Coming Up                                                                           150                                
PROFAMCHA091101082826082906000040Walt Disney Studios Home Entertainment                                                                                      150                                
PROFAMCHA091101082906082947000041High School Musical (original) Today @ 12 (SEPT06)                                                                          150                                
PRCFAMCHA091101082947083003000016NSW Bumper - Tennis (:15-:17) APR06                                                                                         150                                
PRCFAMCHA091101083003083012000009CC Disclaimer - FAST - Generic (:09-:10)                                                                                    150                                
PGRFAMCHA091101083012083052000040Ned's Declassified School Survival Guide          EP: 37                                                               2068807BCC                              
PGRFAMCHA091101083052083923000831Ned's Declassified School Survival Guide          EP: 37                                                               2068807BCC                              
PRCFAMCHA091101083923084001000038FOD - Family On Demand - Generic - Check you local                                                                          150                                
PROFAMCHA091101084001084041000040Walt Disney Pictures                                                                                                        150                                
PROFAMCHA091101084041084132000051Overruled! - Series Promo (NSW) New Episode Tonigh                                                                          150                                
PGRFAMCHA091101084132084938000806Ned's Declassified School Survival Guide          EP: 37                                                               2068807BCC                              
PGRFAMCHA091101084938085637000659Ned's Declassified School Survival Guide          EP: 37                                                               2068807BCC                              
PRCFAMCHA091101085637085643000006Astral ID (FEB 2009)                                                                                                        150                                
PRCFAMCHA091101085643085654000011NSW - 03 - ZOEY 101/ THAT'S SO RAVEN @ 9:30am (:11                                                                          150                                
PROFAMCHA091101085654085727000033Agent Cody Banks - Popcorn Pix - Premiering Friday                                                                          150                                
PROFAMCHA091101085727085807000040Walt Disney Studios Home Entertainment                                                                                      150                                
PROFAMCHA091101085807085838000031Zoey 101 (NSW) HAIKU Coming Up Next (AUG09)                                                                                 150                                
PROFAMCHA091101085838085918000040Fox Home & Entertainment                                                                                                    150                                
PROFAMCHA091101085918085959000041High School Musical (original) Today @ 12 (SEPT06)                                                                          150                                
PRCFAMCHA091101085959090006000007NSW Bumper - Dodgeball (:07-:09) APR06                                                                                      150                                
PRCFAMCHA091101090006090015000009CC Disclaimer - FAST - Generic (:09-:10)                                                                                    150                                
PGRFAMCHA091101090015090116000101Zoey 101                                          EP: 65                                                               2068807BCC                              
PGRFAMCHA091101090116090956000840Zoey 101                                          EP: 65                                                               2068807BCC                              
PROFAMCHA091101090956091031000035BAW - Stand Up With Nico - Post (Sept 26-Nov 19 20                                                                          150                                
PROFAMCHA091101091031091111000040Wax Records                                                                                                                 150                                
PROFAMCHA091101091111091141000030Aaron Stone (NSW) Charlie - New Episode This After                                                                          150                                
PROFAMCHA091101091141091222000041High School Musical (original) Today @ 12 (SEPT06)                                                                          150                                
PGRFAMCHA091101091222092530001308Zoey 101                                          EP: 65                                                               2068807BCC                              
PGRFAMCHA091101092530092557000027Zoey 101                                          EP: 65                                                               2068807BCC                              
PRCFAMCHA091101092557092608000011NSW - 04 - THAT'S SO RAVEN/ HANNAH MONTANA @ 10:00                                                                          150                                
PROFAMCHA091101092608092629000021Wendy Wu: HW Sat @ 12 (Sept06)                                                                                              150                                
PROFAMCHA091101092629092709000040Hannah Montana (NSW) Everywhere - This Morning @ 1                                                                          150                                
PROFAMCHA091101092709092730000021Wizards of Waverly Place LAMP (NSW) This Morning @                                                                          150                                
PROFAMCHA091101092730092743000013Overruled Family.ca Court Case Throw - Coming Soon                                                                          150                                
PROFAMCHA091101092743092820000037That's So Raven DANCE (NSW) Coming Up Next (FEB09)                                                                          150                                
PROFAMCHA091101092820092900000040Alliance Films                                                                                                              150                                
PROFAMCHA091101092900092941000041High School Musical (original) Today @ 12 (SEPT06)                                                                          150                                
PRCFAMCHA091101092941092954000013NSW Bumper - Fashion (:12-:14) APR06                                                                                        150                                
ID FAMCHA091101092954093002000008Magic of Disney - NS/NSW/PB - Wipe (:06-:09)                                                                                150                                
PRCFAMCHA091101093002093011000009CC Disclaimer - FAST - Generic (:09-:10)                                                                                    150                                
PGRFAMCHA091101093011093231000220That's So Raven                                   EP: 085                                                              6068607BCC                              
PGRFAMCHA091101093231093848000617That's So Raven                                   EP: 085                                                              6068607BCC                              
PROFAMCHA091101093848093920000032Family Kicks NBA Contest 2 - enter @ Family.ca (Oc                                                                          150                                
PROFAMCHA091101093920094000000040Wax Records                                                                                                                 150                                
PROFAMCHA091101094000094040000040Hannah Montana (NSW) Everywhere - This Morning @ 1                                                                          150                                
PROFAMCHA091101094040094120000040BAW - Stand Up! Programming Event Spot (Oct 31-Nov                                                                          150                                
PGRFAMCHA091101094120095409001249That's So Raven                                   EP: 085                                                              6068607BCC                              
PGRFAMCHA091101095409095520000111That's So Raven                                   EP: 085                                                              6068607BCC                              
PRCFAMCHA091101095520095526000006Astral ID (FEB 2009)                                                                                                        150                                
PRCFAMCHA091101095526095538000012NSW - 05 - HANNAH MONTANA/ WOWP @ 10:30am (:11 - :                                                                          150                                
PRCFAMCHA091101095538095617000039Really Big Birthdays - January - 3-4 X Day (Novemb                                                                          150                                
PROFAMCHA091101095617095632000015Crayola                                                                                                                     150                                
PROFAMCHA091101095632095719000047Wizards of Waverly Place BOXING (NSW) This Morning                                                                          150                                
PROFAMCHA091101095719095804000045Sonny With A Chance BOYS (NSW) - This Morning @ 11                                                                          150                                
PROFAMCHA091101095804095834000030Zeke & Luther - BTS GINGER (NSW) New Eps Tonight @                                                                          150                                
PROFAMCHA091101095834095936000102Hannah Montana (NSW) Mockumentry - Coming Up Next                                                                           150                                
PRCFAMCHA091101095936095952000016NSW Bumper - Tennis (:15-:17) APR06                                                                                         150                                
PRCFAMCHA091101095952100001000009CC Disclaimer - FAST - Family.ca (:09-:10)                                                                                  150                                
PGRFAMCHA091101100001100242000241Hannah Montana                                    EP: 02                                                               6068807BCC                              
PGRFAMCHA091101100242101219000937Hannah Montana                                    EP: 02                                                               6068807BCC                              
PROFAMCHA091101101219101253000034Family.ca - Check Out New Games at Family.ca (Oct                                                                           150                                
PROFAMCHA091101101253101333000040Walt Disney Studios Home Entertainment                                                                                      150                                
PROFAMCHA091101101333101414000041High School Musical (original) Today @ 12 (SEPT06)                                                                          150                                
PROFAMCHA091101101414101502000048Suite Life On Deck Contest (Enter Now (Oct 28-Nov1                                                                          150                                
PGRFAMCHA091101101502102445000943Hannah Montana                                    EP: 02                                                               6068807BCC                              
PGRFAMCHA091101102445102513000028Hannah Montana                                    EP: 02                                                               6068807BCC                              
PRCFAMCHA091101102513102524000011NSW - 06 - WOWP/ SONNY WITH A CHANCE @ 11:00am (:1                                                                          150                                
PROFAMCHA091101102524102557000033Agent Cody Banks - Popcorn Pix - Premiering Friday                                                                          150                                
PROFAMCHA091101102557102637000040Alliance Films                                                                                                              150                                
PROFAMCHA091101102637102707000030Aaron Stone (NSW) Charlie - New Episode This After                                                                          150                                
PROFAMCHA091101102707102758000051Overruled! - Series Promo (NSW) New Episode Tonigh                                                                          150                                
PROFAMCHA091101102758102828000030Wizards of Waverly Place ALEX (NSW) Coming Up Next                                                                          150                                
PROFAMCHA091101102828102908000040Maple Leaf Foods                                                                                                            150                                
PROFAMCHA091101102908102949000041High School Musical (original) Today @ 12 (SEPT06)                                                                          150                                
PRCFAMCHA091101102949102956000007NSW Bumper - Dodgeball (:07-:09) APR06                                                                                      150                                
PRCFAMCHA091101102956103005000009CC Disclaimer - FAST - Generic (:09-:10)                                                                                    150                                
PGRFAMCHA091101103005103750000745Disney Wizards of Waverly Place                   EP: 10                                                               6068607BCC                              
PGRFAMCHA091101103750104118000328Disney Wizards of Waverly Place                   EP: 10                                                               6068607BCC                              
PROFAMCHA091101104118104139000021Wendy Wu: HW Sat @ 12 (Sept06)                                                                                              150                                
PROFAMCHA091101104139104219000040Walt Disney Studios Home Entertainment                                                                                      150                                
PROFAMCHA091101104219104304000045Sonny With A Chance BOYS (NSW) - This Morning @ 11                                                                          150                                
PROFAMCHA091101104304104323000019Suite Life on Deck MR. MONSTER (NSW) This Morning                                                                           150                                
PROFAMCHA091101104323104336000013Overruled Family.ca Court Case Throw - Coming Soon                                                                          150                                
PGRFAMCHA091101104336105009000633Disney Wizards of Waverly Place                   EP: 10                                                               6068607BCC                              
PGRFAMCHA091101105009105455000446Disney Wizards of Waverly Place                   EP: 10                                                               6068607BCC                              
PRCFAMCHA091101105455105501000006Astral ID (FEB 2009)                                                                                                        150                                
PRCFAMCHA091101105501105514000013NSW - 07 - SONNY WITH A CHANCE/ SUITE LIFE ON DECK                                                                          150                                
PROFAMCHA091101105514105555000041High School Musical (original) Today @ 12 (SEPT06)                                                                          150                                
PROFAMCHA091101105555105614000019Suite Life on Deck MR. MONSTER (NSW) This Morning                                                                           150                                
PROFAMCHA091101105614105623000009Family Bumpers - (Phase 2 F/W 04) - Skateboard (NS                                                                          150                                
PROFAMCHA091101105623105753000130Synergy - Selena Gomez - Scene & Heard #1 (Oct 13-                                                                          150                                
PROFAMCHA091101105753105823000030Aaron Stone (NSW) Charlie - New Episode This After                                                                          150                                
PROFAMCHA091101105823105853000030Zeke & Luther - BTS SKATEBOARD (NSW) New Eps Tonig                                                                          150                                
PROFAMCHA091101105853105908000015Sonny With A Chance SO RANDOM (NSW) - Coming Up Ne                                                                          150                                
PROFAMCHA091101105908105929000021Wendy Wu: HW Sat @ 12 (Sept06)                                                                                              150                                
PRCFAMCHA091101105929105942000013NSW Bumper - Fashion (:12-:14) APR06                                                                                        150                                
PRCFAMCHA091101105942105951000009CC Disclaimer - FAST - Family.ca (:09-:10)                                                                                  150                                
PGRFAMCHA091101105951110143000152Disney Sonny With A Chance                        EP: 05                                                               6068507BCC                              
PGRFAMCHA091101110143111255001112Disney Sonny With A Chance                        EP: 05                                                               6068507BCC                              
PROFAMCHA091101111255111328000033Agent Cody Banks - Popcorn Pix - Premiering Friday                                                                          150                                
PROFAMCHA091101111328111408000040Walt Disney Studios Home Entertainment                                                                                      150                                
PROFAMCHA091101111408111427000019Suite Life on Deck MR. MONSTER (NSW) This Morning                                                                           150                                
PROFAMCHA091101111427111457000030Aaron Stone (NSW) Charlie - New Episode This After                                                                          150                                
PGRFAMCHA091101111457112307000810Disney Sonny With A Chance                        EP: 05                                                               6068507BCC                              
PGRFAMCHA091101112307112415000108Disney Sonny With A Chance                        EP: 05                                                               6068507BCC                              
PRCFAMCHA091101112415112426000011NSW - 08 - SUITE LIFE ON DECK/ POPCORN PIX @ 12:00                                                                          150                                
PROFAMCHA091101112426112507000041High School Musical (original) Today @ 12 (SEPT06)                                                                          150                                
PROFAMCHA091101112507112547000040Walt Disney Studios Home Entertainment                                                                                      150                                
PROFAMCHA091101112547112617000030Aaron Stone (NSW) Charlie - New Episode This After                                                                          150                                
PROFAMCHA091101112617112627000010FAMJAM - Open/Close                                                                                                         150                                
PGRFAMCHA091101112627112757000130MV Disney - (MD/NS/NSW) - Jesse McCartney - Just S                                                                     60688120                                
PROFAMCHA091101112757112811000014xxFAMJAM - Close (FAMILY) xxDNUxx                                                                                           150                                
PROFAMCHA091101112811112902000051Overruled! - Series Promo (NSW) New Episode Tonigh                                                                          150                                
PROFAMCHA091101112902112930000028Suite Life on Deck ID 2 - Coming Up Next (FEB09)                                                                            150                                
PRCFAMCHA091101112930112945000015NSW Bumper - Tennis (:15-:17) APR06                                                                                         150                                
PRCFAMCHA091101112945112954000009CC Disclaimer - FAST - Generic (:09-:10)                                                                                    150                                
PGRFAMCHA091101112954113138000144Suite Life on Deck, The                           EP: 17                                                               6068807BCC                              
PGRFAMCHA091101113138114132000954Suite Life on Deck, The                           EP: 17                                                               6068807BCC                              
PROFAMCHA091101114132114204000032Family Kicks NBA Contest 2 - enter @ Family.ca (Oc                                                                          150                                
PROFAMCHA091101114204114219000015Crayola                                                                                                                     150                                
PROFAMCHA091101114219114238000019Suite Life on Deck MR. MONSTER (NSW) This Afternoo                                                                          150                                
PROFAMCHA091101114238114308000030Aaron Stone (NSW) Charlie - New Episode This After                                                                          150                                
PROFAMCHA091101114308114348000040BAW - Stand Up! Programming Event Spot (Oct 31-Nov                                                                          150                                
PGRFAMCHA091101114348115249000901Suite Life on Deck, The                           EP: 17                                                               6068807BCC                              
PGRFAMCHA091101115249115420000131Suite Life on Deck, The                           EP: 17                                                               6068807BCC                              
PRCFAMCHA091101115420115426000006Astral ID (FEB 2009)                                                                                                        150                                
PRCFAMCHA091101115426115437000011NSW - 09 - POPCORN PIX/POPCORN PIX (:11 - :13) (SE                                                                          150                                
PROFAMCHA091101115437115510000033Agent Cody Banks - Popcorn Pix - Premiering Friday                                                                          150                                
PROFAMCHA091101115510115550000040Walt Disney Studios Home Entertainment                                                                                      150                                
PROFAMCHA091101115550115609000019Suite Life on Deck MR. MONSTER (NSW) This Afternoo                                                                          150                                
PROFAMCHA091101115609115639000030Aaron Stone (NSW) Charlie - New Episode This After                                                                          150                                
PROFAMCHA091101115639115709000030Zeke & Luther - SELL (NSW) New Episode This Aftern                                                                          150                                
PROFAMCHA091101115709115754000045PH-D Promo More MMCH/Handy Manny on PH-D - Every M                                                                          150                                
PROFAMCHA091101115754115834000040Hannah Montana (NSW) Everywhere - This Afternoon @                                                                          150                                
PROFAMCHA091101115834115915000041High School Musical (original) Coming Up Next (SEP                                                                          150                                
ID FAMCHA091101115915115933000018Popcorn Pix Block Open (JUNE 06) (:18-:20)                                                                                  150                                
ID FAMCHA091101115933115943000010Ratings - G - Popcorn Pix Only (July 07)                                                                                    150                                
PRCFAMCHA091101115943115953000010CC Disclaimer - FAST - Family.ca (:09-:10)                                                                                  150                                
ID FAMCHA091101115953120001000008Magic of Disney - PIX - Wipe (:06-:09)                                                                                      150                                
PGRFAMCHA091101120001133753013752High School Musical                                                                                                   A6068807CCC                              
PRCFAMCHA091101133753133806000013NSW - 10b - POPCORN PIX/ SUITE LIFE ON DECK @ 3:25                                                                          150                                
PROFAMCHA091101133806133836000030PH-D Out Of Block - MMCH Generic 31 - Every Mornin                                                                          150                                
ID FAMCHA091101133836133856000020Popcorn Pix Block Open (JUNE 06) (:18-:20)                                                                                  150                                
ID FAMCHA091101133856133906000010Ratings - PG - Popcorn Pix Only (July 07)                                                                                   150                                
PRCFAMCHA091101133906133915000009CC Disclaimer - FAST - Generic (:09-:10)                                                                                    150                                
PGRFAMCHA091101133915151113013158Blank Check                                                                                                           B6068807DCC                              
PRCFAMCHA091101151113151119000006Astral ID (FEB 2009)                                                                                                        150                                
PRCFAMCHA091101151119151130000011NSW - 12 - SUITE LIFE ON DECK/ AARON STONE @ 3:50p                                                                          150                                
PRCFAMCHA091101151130151208000038FOD - Family On Demand - Generic - Check you local                                                                          150                                
PROFAMCHA091101151208151238000030Aaron Stone (NSW) Charlie - New Episode This After                                                                          150                                
PROFAMCHA091101151238151248000010FAMJAM - Open/Close                                                                                                         150                                
PGRFAMCHA091101151248151558000310MV Disney - (MD/NS/NSW) - Jesse McCartney - Just S                                                                     60688120                                
PROFAMCHA091101151558151612000014xxFAMJAM - Close (FAMILY) xxDNUxx                                                                                           150                                
PROFAMCHA091101151612151642000030Zeke & Luther - BTS 1 (NSW) New Episode This After                                                                          150                                
PROFAMCHA091101151642151812000130Synergy - Selena Gomez - Scene and Heard #2 - (Oct                                                                          150                                
PROFAMCHA091101151812151903000051Overruled! - Series Promo (NSW) New Episode Tonigh                                                                          150                                
PROFAMCHA091101151903151913000010FAMJAM - Open/Close                                                                                                         150                                
PGRFAMCHA091101151913152243000330MV Disney - (MD/NS/NSW) - Jesse McCartney - Just S                                                                     60688120                                
PROFAMCHA091101152243152257000014xxFAMJAM - Close (FAMILY) xxDNUxx                                                                                           150                                
PROFAMCHA091101152257152327000030PH-D Out Of Block - Handy Manny Help Friends-Wkday                                                                          150                                
PROFAMCHA091101152327152355000028Suite Life on Deck ID 2 - Coming Up Next (FEB09)                                                                            150                                
PROFAMCHA091101152355152416000021Wendy Wu: HW Sat @ 12 (Sept06)                                                                                              150                                
PROFAMCHA091101152416152432000016Nonstop Weekend Block Open (:16-:18) APR06                                                                                  150                                
PRCFAMCHA091101152432152441000009CC Disclaimer - FAST - Generic (:09-:10)                                                                                    150                                
PGRFAMCHA091101152441152656000215Suite Life on Deck, The                           EP: 20                                                               6068807BCC                              
PGRFAMCHA091101152656153617000921Suite Life on Deck, The                           EP: 20                                                               6068807BCC                              
PGRFAMCHA091101153617154557000940Suite Life on Deck, The                           EP: 20                                                               6068807BCC                              
PGRFAMCHA091101154557154653000056Suite Life on Deck, The                           EP: 20                                                               6068807BCC                              
PRCFAMCHA091101154653154704000011NSW - 13 - AARON STONE/ WOWP @ 4:15pm (:11-:13) (O                                                                          150                                
PROFAMCHA091101154704154737000033Agent Cody Banks - Popcorn Pix - Premiering Friday                                                                          150                                
PROFAMCHA091101154737154807000030Wizards of Waverly Place ALEX (NSW) This Afternoon                                                                          150                                
PROFAMCHA091101154807154837000030Aaron Stone (NSW) Charlie - New Episode This After                                                                          150                                
PROFAMCHA091101154837154925000048Suite Life On Deck Contest (Enter Now (Oct 28-Nov1                                                                          150                                
PRCFAMCHA091101154925154932000007NSW Bumper - Dodgeball (:07-:09) APR06                                                                                      150                                
PRCFAMCHA091101154932154941000009CC Disclaimer - FAST - Generic (:09-:10)                                                                                    150                                
PGRFAMCHA091101154941161214002233Aaron Stone                                       EP: 03                                                               6068707ACC                              
PRCFAMCHA091101161214161220000006Astral ID (FEB 2009)                                                                                                        150                                
PRCFAMCHA091101161220161233000013NSW - 14 - WOWP/ ZEKE & LUTHER @ 4:45pm (:11-:13)                                                                           150                                
PROFAMCHA091101161233161321000048Suite Life On Deck Contest (Enter Now (Oct 28-Nov1                                                                          150                                
PROFAMCHA091101161321161351000030Zeke & Luther - BTS GINGER (NSW) New Eps Tonight @                                                                          150                                
PROFAMCHA091101161351161404000013Family Bumpers - (Phase 2 F/W 04) - Leaves (NS/NSW                                                                          150                                
PROFAMCHA091101161404161503000059Synergy - Pixie Preview "Ominous Warning" - Now Av                                                                          150                                
PROFAMCHA091101161503161554000051Overruled! - Series Promo (NSW) New Episode Tonigh                                                                          150                                
PROFAMCHA091101161554161624000030Wizards of Waverly Place JUSTIN (NSW) Coming Up Ne                                                                          150                                
PRCFAMCHA091101161624161638000014NSW Bumper - Fashion (:12-:14) APR06                                                                                        150                                
PRCFAMCHA091101161638161648000010CC Disclaimer - FAST - Family.ca (:09-:10)                                                                                  150                                
PGRFAMCHA091101161648162421000733Disney Wizards of Waverly Place                   EP: 13                                                               6068607BCC                              
PGRFAMCHA091101162421162801000340Disney Wizards of Waverly Place                   EP: 13                                                               6068607BCC                              
PGRFAMCHA091101162801163359000558Disney Wizards of Waverly Place                   EP: 13                                                               6068607BCC                              
PGRFAMCHA091101163359163920000521Disney Wizards of Waverly Place                   EP: 13                                                               6068607BCC                              
PRCFAMCHA091101163920163933000013NSW - 15 - ZEKE & LUTHER/ SONNY WITH A CHANCE @ 5:                                                                          150                                
PROFAMCHA091101163933164018000045Sonny With A Chance BOYS (NSW) - This Afternoon @                                                                           150                                
PROFAMCHA091101164018164058000040Fox Home & Entertainment                                                                                                    150                                
PROFAMCHA091101164058164138000040Hannah Montana (NSW) Everywhere - This Afternoon @                                                                          150                                
PROFAMCHA091101164138164208000030Zeke & Luther - BTS SKATEBOARD (NSW) New Episode C                                                                          150                                
PROFAMCHA091101164208164221000013Overruled Family.ca Court Case Throw - Coming Soon                                                                          150                                
PRCFAMCHA091101164221164238000017NSW Bumper - Tennis (:15-:17) APR06                                                                                         150                                
PRCFAMCHA091101164238164248000010CC Disclaimer - FAST - Generic (:09-:10)                                                                                    150                                
PGRFAMCHA091101164248170454002206Zeke and Luther                                   EP: 12                                                               6068707ACC                              
PRCFAMCHA091101170454170500000006Astral ID (FEB 2009)                                                                                                        150                                
PRCFAMCHA091101170500170513000013NSW - 16 - SONNY WITH A CHANCE/ HANNAH MONTANA @ 5                                                                          150                                
PROFAMCHA091101170513170546000033Agent Cody Banks - Popcorn Pix - Premiering Friday                                                                          150                                
PROFAMCHA091101170546170626000040Hannah Montana (NSW) Everywhere - This Afternoon @                                                                          150                                
PROFAMCHA091101170626170636000010FAMJAM - Open/Close                                                                                                         150                                
PGRFAMCHA091101170636170736000100MV Disney - (MD/NS/NSW) - Jesse McCartney - Just S                                                                     60688120                                
PROFAMCHA091101170736170750000014xxFAMJAM - Close (FAMILY) xxDNUxx                                                                                           150                                
PROFAMCHA091101170750170825000035BAW - Stand Up With Nico - Post (Sept 26-Nov 19 20                                                                          150                                
PROFAMCHA091101170825170840000015Sonny With A Chance SO RANDOM (NSW) - Coming Up Ne                                                                          150                                
PRCFAMCHA091101170840170849000009NSW Bumper - Dodgeball (:07-:09) APR06                                                                                      150                                
PRCFAMCHA091101170849170859000010CC Disclaimer - FAST - Family.ca (:09-:10)                                                                                  150                                
PGRFAMCHA091101170859171121000222Disney Sonny With A Chance                        EP: 10                                                               6068507BCC                              
PGRFAMCHA091101171121172129001008Disney Sonny With A Chance                        EP: 10                                                               6068507BCC                              
PGRFAMCHA091101172129173042000913Disney Sonny With A Chance                        EP: 10                                                               6068507BCC                              
PGRFAMCHA091101173042173131000049Disney Sonny With A Chance                        EP: 10                                                               6068507BCC                              
PRCFAMCHA091101173131173144000013NSW - 17 - HANNAH MONTANA/ JONAS @ 6:00pm (:11-:13                                                                          150                                
PROFAMCHA091101173144173224000040BAW - Stand Up! Programming Event Spot (Oct 31-Nov                                                                          150                                
PROFAMCHA091101173224173304000040Entertainment 1                                                                                                             150                                
PROFAMCHA091101173304173336000032JONAS "Joe and Stella" (NSW) - Tonight @ 6:00pm (J                                                                          150                                
PROFAMCHA091101173336173427000051Overruled! - Series Promo (NSW) New Episode Tonigh                                                                          150                                
PROFAMCHA091101173427173439000012Hannah Montana (NSW) IDs - Miley # 1 - Next                                                                                 150                                
PRCFAMCHA091101173439173453000014NSW Bumper - Fashion (:12-:14) APR06                                                                                        150                                
PRCFAMCHA091101173453173503000010CC Disclaimer - FAST - Generic (:09-:10)                                                                                    150                                
PGRFAMCHA091101173503173911000408Hannah Montana Season 3                           EP: 05                                                               6068607BCC                              
PGRFAMCHA091101173911174727000816Hannah Montana Season 3                           EP: 05                                                               6068607BCC                              
PGRFAMCHA091101174727175703000936Hannah Montana Season 3                           EP: 05                                                               6068607BCC                              
PGRFAMCHA091101175703175735000032Hannah Montana Season 3                           EP: 05                                                               6068607BCC                              
PRCFAMCHA091101175735175741000006Astral ID (FEB 2009)                                                                                                        150                                
PRCFAMCHA091101175741175754000013NSW - 18 - JONAS/ OVERRULED @ 6:25pm (:11-:13) (OC                                                                          150                                
PROFAMCHA091101175754175842000048Suite Life On Deck Contest (Enter Now (Oct 28-Nov1                                                                          150                                
PROFAMCHA091101175842175933000051Overruled! - Series Promo (NSW) New Episode Tonigh                                                                          150                                
PROFAMCHA091101175933180012000039JONAS July Retag (NSW) - Coming Up Next (MAY09)                                                                             150                                
PROFAMCHA091101180012180033000021Wendy Wu: HW Sat @ 12 (Sept06)                                                                                              150                                
PRCFAMCHA091101180033180050000017NSW Bumper - Tennis (:15-:17) APR06                                                                                         150                                
PRCFAMCHA091101180050180059000009CC Disclaimer - FAST - Generic (:09-:10)                                                                                    150                                
PGRFAMCHA091101180059182332002233Disney JONAS                                      EP: 14                                                               6068507BCC                              
PRCFAMCHA091101182332182344000012NSW - 19 - OVERRULED!/ SUITE LIFE ON DECK @ 6:55 (                                                                          150                                
PROFAMCHA091101182344182417000033Agent Cody Banks - Popcorn Pix - Premiering Friday                                                                          150                                
PROFAMCHA091101182417182436000019Suite Life on Deck MR. MONSTER (NSW) Tonight @ 6:5                                                                          150                                
PROFAMCHA091101182436182501000025Zoey 101 (NSW) BOOTH Tonight @ 7:20pm (SEPT08)                                                                              150                                
PROFAMCHA091101182501182533000032Suite Life of Z & C (NSW) RHYMING - Tonight @ 8:10                                                                          150                                
PROFAMCHA091101182533182602000029Hannah Montana (NSW) Science - Tonight @ 8:35pm (S                                                                          150                                
PROFAMCHA091101182602182653000051Overruled! - Series Promo (NSW) New Episode Coming                                                                          150                                
PRCFAMCHA091101182653182701000008NSW Bumper - Dodgeball (:07-:09) APR06                                                                                      150                                
PRCFAMCHA091101182701182710000009CC Disclaimer - FAST - Family.ca (:09-:10)                                                                                  150                                
PGRFAMCHA091101182710184940002230Overruled!                                        EP: 09                                                        C30129 1055607BCC3                             
PRCFAMCHA091101184940184946000006Astral ID (FEB 2009)                                                                                                        150                                
PRCFAMCHA091101184946184959000013NSW - 20 - SUITE LIFE ON DECK/ ZOEY 101 @ 7:20pm (                                                                          150                                
PROFAMCHA091101184959185031000032Family Kicks NBA Contest 2 - enter @ Family.ca (Oc                                                                          150                                
PROFAMCHA091101185031185053000022Zoey 101 (NSW) ROOMATES Tonight @ 7:20 (AUG09)                                                                              150                                
PROFAMCHA091101185053185103000010FAMJAM - Open/Close                                                                                                         150                                
PGRFAMCHA091101185103185203000100MV Disney - (MD/NS/NSW) - Jesse McCartney - Just S                                                                     60688120                                
PROFAMCHA091101185203185217000014xxFAMJAM - Close (FAMILY) xxDNUxx                                                                                           150                                
PROFAMCHA091101185217185236000019Suite Life on Deck MR. MONSTER (NSW) Coming Up Nex                                                                          150                                
PRCFAMCHA091101185236185250000014NSW Bumper - Fashion (:12-:14) APR06                                                                                        150                                
PRCFAMCHA091101185250185259000009CC Disclaimer - FAST - Generic (:09-:10)                                                                                    150                                
PGRFAMCHA091101185259185516000217Suite Life on Deck, The                           EP: 09                                                               6068807BCC                              
PGRFAMCHA091101185516190412000856Suite Life on Deck, The                           EP: 09                                                               6068807BCC                              
PGRFAMCHA091101190412191446001034Suite Life on Deck, The                           EP: 09                                                               6068807BCC                              
PGRFAMCHA091101191446191528000042Suite Life on Deck, The                           EP: 09                                                               6068807BCC                              
PRCFAMCHA091101191528191540000012NSW - 21 - ZOEY 101/LIFE WITH DEREK (:11 - :13) (S                                                                          150                                
PROFAMCHA091101191540191614000034Family.ca - Check Out New Games at Family.ca (Oct                                                                           150                                
PROFAMCHA091101191614191654000040Maple Leaf Foods                                                                                                            150                                
PRCFAMCHA091101191654191746000052Life W D (NSW) Casey & Derek - Tonight @ 7:45 (MAR                                                                          150                                
PROFAMCHA091101191746191818000032Suite Life of Z & C (NSW) RHYMING - Tonight @ 8:10                                                                          150                                
PROFAMCHA091101191818191848000030Zoey 101 (NSW) ANOTHER DAY AT PCA - Coming Up Next                                                                          150                                
PROFAMCHA091101191848191936000048Suite Life On Deck Contest (Enter Now (Oct 28-Nov1                                                                          150                                
PRCFAMCHA091101191936191952000016NSW Bumper - Tennis (:15-:17) APR06                                                                                         150                                
PRCFAMCHA091101191952192001000009CC Disclaimer - FAST - Generic (:09-:10)                                                                                    150                                
PGRFAMCHA091101192001192101000100Zoey 101                                          EP: 65                                                               2068807BCC                              
PGRFAMCHA091101192101192956000855Zoey 101                                          EP: 65                                                               2068807BCC                              
PGRFAMCHA091101192956194304001308Zoey 101                                          EP: 65                                                               2068807BCC                              
PGRFAMCHA091101194304194331000027Zoey 101                                          EP: 65                                                               2068807BCC                              
PRCFAMCHA091101194331194337000006Astral ID (FEB 2009)                                                                                                        150                                
PRCFAMCHA091101194337194349000012NSW - 22 - LIFE WITH DEREK/SUITE LIFE (:11 - :13)                                                                           150                                
PROFAMCHA091101194349194410000021Wendy Wu: HW Sat @ 12 (Sept06)                                                                                              150                                
PROFAMCHA091101194410194425000015Crayola                                                                                                                     150                                
PRCFAMCHA091101194425194452000027Life W D (NSW) CLIP - Coming Up Next (JULY08)                                                                               150                                
PRCFAMCHA091101194452194459000007NSW Bumper - Dodgeball (:07-:09) APR06                                                                                      150                                
PRCFAMCHA091101194459194508000009CC Disclaimer - FAST - Family.ca (:09-:10)                                                                                  150                                
PGRFAMCHA091101194508200738002230Life With Derek IV (eps 53-70)                    EP: 01                                                        C24891 1055607BCC3                             
PRCFAMCHA091101200738200749000011NSW - 23 - SUITE LIFE/HANNAH (:11 - :13) (SEPT07)                                                                           150                                
PRCFAMCHA091101200749200826000037FOD - Family On Demand - Generic - Check you local                                                                          150                                
PROFAMCHA091101200826200906000040Walt Disney Studios Home Entertainment                                                                                      150                                
PROFAMCHA091101200906200938000032Suite Life of Z & C (NSW) RHYMING - Coming Up Next                                                                          150                                
PRCFAMCHA091101200938200950000012NSW Bumper - Fashion (:12-:14) APR06                                                                                        150                                
ID FAMCHA091101200950200958000008Magic of Disney - NS/NSW/PB - Wipe (:06-:09)                                                                                150                                
PRCFAMCHA091101200958201007000009CC Disclaimer - FAST - Generic (:09-:10)                                                                                    150                                
PGRFAMCHA091101201007201236000229Suite Life of Zack & Cody, The                    EP: 11                                                               6068607BCC                              
PGRFAMCHA091101201236202147000911Suite Life of Zack & Cody, The                    EP: 11                                                               6068607BCC                              
PGRFAMCHA091101202147203159001012Suite Life of Zack & Cody, The                    EP: 11                                                               6068607BCC                              
PGRFAMCHA091101203159203242000043Suite Life of Zack & Cody, The                    EP: 11                                                               6068607BCC                              
PRCFAMCHA091101203242203248000006Astral ID (FEB 2009)                                                                                                        150                                
PRCFAMCHA091101203248203259000011NSW - 24 - HANNAH/NIGHTLY PIX (:11 - :13) (SEPT07)                                                                          150                                
PRCFAMCHA091101203259203338000039Really Big Birthdays - January - 3-4 X Day (Novemb                                                                          150                                
PROFAMCHA091101203338203351000013Family Bumpers - (Phase 2 F/W 04) - Leaves (NS/NSW                                                                          150                                
PROFAMCHA091101203351203453000102Hannah Montana (NSW) Mockumentry - Coming Up Next                                                                           150                                
PROFAMCHA091101203453203541000048Suite Life On Deck Contest (Enter Now (Oct 28-Nov1                                                                          150                                
PRCFAMCHA091101203541203557000016NSW Bumper - Tennis (:15-:17) APR06                                                                                         150                                
PRCFAMCHA091101203557203606000009CC Disclaimer - FAST - Family.ca (:09-:10)                                                                                  150                                
PGRFAMCHA091101203606203955000349Hannah Montana Season 3                           EP: 16                                                               6068607BCC                              
PGRFAMCHA091101203955204848000853Hannah Montana Season 3                           EP: 16                                                               6068607BCC                              
PGRFAMCHA091101204848205737000849Hannah Montana Season 3                           EP: 16                                                               6068607BCC                              
PGRFAMCHA091101205737205837000100Hannah Montana Season 3                           EP: 16                                                               6068607BCC                              
PRCFAMCHA091101205837205849000012NSW - 25 - NIGHTLY PIX/NIGHTLY PIX (no time) :11 -                                                                          150                                
PROFAMCHA091101205849205919000030PH-D Out Of Block - Handy Manny Help Friends-Wkday                                                                          150                                
PROFAMCHA091101205919205940000021Wendy Wu: HW Sat @ 12 (Sept06)                                                                                              150                                
PROFAMCHA091101205940205951000011xxNightly Pix Movie Open (:10-:15)                                                                                          150                                
ID FAMCHA091101205951210000000009Rating - PG - Nightly Pix Only  (DEC05) (:08 - :10                                                                          150                                
PRCFAMCHA091101210000210009000009CC Disclaimer - SLOW - Generic (:09 -:10)                                                                                   150                                
PGRFAMCHA091101210009221100011051Contact                                                                                                               B2068807DCC                              
PGRFAMCHA091101221100232947011847Contact                                                                                                               B2068807DCC                              
PRCFAMCHA091101232947232953000006Astral ID (FEB 2009)                                                                                                        150                                
PROFAMCHA091101232953233023000030PH-D Out Of Block - MMCH Generic 31 - Every Mornin                                                                          150                                
PROFAMCHA091101233023233036000013xxNightly Pix Movie Open (:10-:15)                                                                                          150                                
ID FAMCHA091101233036233045000009Rating - PG - Nightly Pix Only  (DEC05) (:08 - :10                                                                          150                                
PRCFAMCHA091101233045233054000009CC Disclaimer - SLOW - Family.ca (:09-:10)                                                                                  150                                
PGRFAMCHA091101233054011141014047The Mighty                                                                                                            B2068807DCC                              
PRCFAMCHA091101011141011154000013NSW - 30 - CORY/PHIL  (:11 - :13) (OCT08)                                                                                   150                                
PROFAMCHA091101011154011228000034Family.ca - Check Out New Games at Family.ca (Oct                                                                           150                                
PROFAMCHA091101011228011428000200MS - Christmas Carol - In Theatres Nov. 6 (Oct 19-                                                                          150                                
PROFAMCHA091101011428011501000033Agent Cody Banks - Popcorn Pix - Premiering Friday                                                                          150                                
PROFAMCHA091101011501011511000010FAMJAM - Open/Close                                                                                                         150                                
PGRFAMCHA091101011511011914000403MV Disney - (MD/NS/NSW) - Jesse McCartney - Just S                                                                     20688120                                
PROFAMCHA091101011914011928000014xxFAMJAM - Close (FAMILY) xxDNUxx                                                                                           150                                
PROFAMCHA091101011928012003000035BAW - Stand Up With Nico - Post (Sept 26-Nov 19 20                                                                          150                                
PROFAMCHA091101012003012024000021Wendy Wu: HW Sat @ 12 (Sept06)                                                                                              150                                
PROFAMCHA091101012024012037000013Overruled Family.ca Court Case Throw - Coming Soon                                                                          150                                
PROFAMCHA091101012037012047000010FAMJAM - Open/Close                                                                                                         150                                
PGRFAMCHA091101012047012147000100MV Disney - (MD/NS/NSW) - Jesse McCartney - Just S                                                                     60688120                                
PROFAMCHA091101012147012201000014xxFAMJAM - Close (FAMILY) xxDNUxx                                                                                           150                                
PROFAMCHA091101012201012249000048Suite Life On Deck Contest (Enter Now (Oct 28-Nov1                                                                          150                                
PROFAMCHA091101012249012307000018Nonstop Weekend Block Open (:16-:18) APR06                                                                                  150                                
ID FAMCHA091101012307012313000006Magic of Disney - NS/NSW/PB - Wipe (:06-:09)                                                                                150                                
PRCFAMCHA091101012313012322000009CC Disclaimer - SLOW - Generic (:09 -:10)                                                                                   150                                
PGRFAMCHA091101012322012524000202Disney Cory in the House                          EP: 14                                                               6068607BCC                              
PGRFAMCHA091101012524013325000801Disney Cory in the House                          EP: 14                                                               6068607BCC                              
PGRFAMCHA091101013325014439001114Disney Cory in the House                          EP: 14                                                               6068607BCC                              
PGRFAMCHA091101014439014554000115Disney Cory in the House                          EP: 14                                                               6068607BCC                              
PRCFAMCHA091101014554014600000006Astral ID (FEB 2009)                                                                                                        150                                
PRCFAMCHA091101014600014611000011NSW - 31 - PHIL/LIZZIE (:11 - :13) (OCT08)                                                                                  150                                
PRCFAMCHA091101014611014618000007NSW Bumper - Dodgeball (:07-:09) APR06                                                                                      150                                
ID FAMCHA091101014618014625000007Magic of Disney - NS/NSW/PB - Shape (:06-:09)                                                                               150                                
PRCFAMCHA091101014625014634000009CC Disclaimer - SLOW - Family.ca (:09-:10)                                                                                  150                                
PGRFAMCHA091101014634015402000728Phil of the Future Yr 2                           EP: 32                                                               6068607BCC                              
PGRFAMCHA091101015402015927000525Phil of the Future Yr 2                           EP: 32                                                               6068607BCC                              
PGRFAMCHA091101015927020754000827Phil of the Future Yr 2                           EP: 32                                                               6068607BCC                              
PGRFAMCHA091101020754020907000113Phil of the Future Yr 2                           EP: 32                                                               6068607BCC                              
PRCFAMCHA091101020907020918000011NSW - 32 - LIZZIE/LIFE WITH DEREK (:11 - :13) (OCT                                                                          150                                
PRCFAMCHA091101020918020930000012NSW Bumper - Fashion (:12-:14) APR06                                                                                        150                                
ID FAMCHA091101020930020938000008Magic of Disney - NS/NSW/PB - Wipe (:06-:09)                                                                                150                                
PRCFAMCHA091101020938020947000009CC Disclaimer - SLOW - Generic (:09 -:10)                                                                                   150                                
PGRFAMCHA091101020947023221002234Lizzie McGuire                                    EP: 2-032                                                            6068607BCC                              
PRCFAMCHA091101023221023227000006Astral ID (FEB 2009)                                                                                                        150                                
PRCFAMCHA091101023227023238000011NSW - 33 - DEREK/CORY IN THE HOUSE (:11 - :13) (SE                                                                          150                                
PRCFAMCHA091101023238023254000016NSW Bumper - Tennis (:15-:17) APR06                                                                                         150                                
PRCFAMCHA091101023254023303000009CC Disclaimer - SLOW - Family.ca (:09-:10)                                                                                  150                                
PGRFAMCHA091101023303025533002230Life With Derek IV (eps 53-70)                    EP: 09                                                        C24891 1065607BCC                              
PRCFAMCHA091101025533025544000011NSW - 34 - CORY IN THE HOUSE/RAVEN (:11 - :13) (SE                                                                          150                                
PRCFAMCHA091101025544025551000007NSW Bumper - Dodgeball (:07-:09) APR06                                                                                      150                                
PRCFAMCHA091101025551025600000009CC Disclaimer - SLOW - Generic (:09 -:10)                                                                                   150                                
PGRFAMCHA091101025600025827000227Disney Cory in the House                          EP: 02                                                               6068607BCC                              
PGRFAMCHA091101025827030748000921Disney Cory in the House                          EP: 02                                                               6068607BCC                              
PGRFAMCHA091101030748031635000847Disney Cory in the House                          EP: 02                                                               6068607BCC                              
PGRFAMCHA091101031635031831000156Disney Cory in the House                          EP: 02                                                               6068607BCC                              
PRCFAMCHA091101031831031837000006Astral ID (FEB 2009)                                                                                                        150                                
PRCFAMCHA091101031837031848000011NSW - 35 - RAVEN/SUITE LIFE (:11 - :13) (SEPT07)                                                                            150                                
PRCFAMCHA091101031848031900000012NSW Bumper - Fashion (:12-:14) APR06                                                                                        150                                
ID FAMCHA091101031900031908000008Magic of Disney - NS/NSW/PB - Shape (:06-:09)                                                                               150                                
PRCFAMCHA091101031908031918000010CC Disclaimer - SLOW - Family.ca (:09-:10)                                                                                  150                                
PGRFAMCHA091101031918032155000237That's So Raven                                   EPS # 1-030                                                          6068607BCC                              
PGRFAMCHA091101032155033000000805That's So Raven                                   EPS # 1-030                                                          6068607BCC                              
PGRFAMCHA091101033000034049001049That's So Raven                                   EPS # 1-030                                                          6068607BCC                              
PGRFAMCHA091101034049034156000107That's So Raven                                   EPS # 1-030                                                          6068607BCC                              
PRCFAMCHA091101034156034209000013NSW - 36 - SUITE LIFE/DEREK (:11 - :13) (SEPT07)                                                                            150                                
PRCFAMCHA091101034209034226000017NSW Bumper - Tennis (:15-:17) APR06                                                                                         150                                
ID FAMCHA091101034226034235000009Magic of Disney - NS/NSW/PB - Wipe (:06-:09)                                                                                150                                
PRCFAMCHA091101034235034245000010CC Disclaimer - SLOW - Generic (:09 -:10)                                                                                   150                                
PGRFAMCHA091101034245040516002231Suite Life of Zack and Cody, The                  EP: 17                                                               6068607BCC                              
PRCFAMCHA091101040516040522000006Astral ID (FEB 2009)                                                                                                        150                                
PRCFAMCHA091101040522040535000013NSW - 37 - LIFE WITH DEREK (:11 - :13) (SEPT07)                                                                             150                                
PRCFAMCHA091101040535040544000009NSW Bumper - Dodgeball (:07-:09) APR06                                                                                      150                                
PRCFAMCHA091101040544040554000010CC Disclaimer - SLOW - Family.ca (:09-:10)                                                                                  150                                
PGRFAMCHA091101040554042824002230Life with Derek                                   EP: 22                                                        C26822 1065607BCC                              
PROFAMCHA091101042824042909000045PH-D Promo More MMCH/Handy Manny on PH-D - Every M                                                                          150                                
PROFAMCHA091101042909042924000015PH-D - Show Throw - CAN Katie & Orbie #1- Ooh & Aa                                                                          150                                
PRCFAMCHA091101042924042949000025PH-D Promo - Ooh & Ahh PH-D Throw 2009 - Call Your                                                                          150                                
PROFAMCHA091101042949042959000010PH-D EOB ID - Kaleidoscope # 04 (Sept09)                                                                                    150                                
OFFFAMCHA091101042959043000000001OFF AIR                                                                                                                                                        
SO FAMCHA091102043000043011000011Sign On (oct 1)                                                                                                                                                
PRCFAMCHA091102043011043020000009CC Disclaimer - FAST - Family.ca (:09-:10)                                                                                  150                                
PGRFAMCHA091102043020045658002638Katie And Orbie                                   EP: 6-074                                                     B62277A1065607ECC                              
PROFAMCHA091102045658045713000015PH-D - Show Throw - CAN Franny's Feet #1- Ooh & Aa                                                                          150                                
PROFAMCHA091102045713045723000010PH-D EOB ID - Marina (Sept09)                                                                                               150                                
PRCFAMCHA091102045723045732000009CC Disclaimer - FAST - Generic (:09-:10)                                                                                    150                                
PGRFAMCHA091102045732052003002231Franny's Feet                                     EPS # 30                                                      C23971 1065607ECC                              
PRCFAMCHA091102052003052009000006Astral ID - Family Jr. Version (MAR 2009)                                                                                   150                                
PROFAMCHA091102052009052029000020PH-D - Show Throw - CAN Benjamin Bear #1- Safari -                                                                          150                                
PROFAMCHA091102052029052039000010PH-D EOB ID - Kaleidoscope # 06 (Sept09)                                                                                    150                                
PRCFAMCHA091102052039052049000010CC Disclaimer - FAST - Family.ca (:09-:10)                                                                                  150                                
PGRFAMCHA091102052049054319002230Secret World of Benjamin Bear, The                EP: 22                                                        C26066 1065607ECC                              
PROFAMCHA091102054319054334000015PH-D - Show Throw - Generic #1 (Something Special                                                                           150                                
PROFAMCHA091102054334054344000010PH-D EOB ID - Stage (Sept09)                                                                                                150                                
PRCFAMCHA091102054344054354000010CC Disclaimer - FAST - Generic (:09-:10)                                                                                    150                                
PGRFAMCHA091102054354060632002238Hoze Houndz                                       EPS # 6-074                                                   C22818A1065607ECC                              
PRCFAMCHA091102060632060638000006Astral ID - Family Jr. Version (MAR 2009)                                                                                   150                                
PROFAMCHA091102060638060653000015PH-D - Show Throw - CAN Henry's World #1- Ooh & Aa                                                                          150                                
PROFAMCHA091102060653060703000010PH-D EOB ID - Jungle (Sept09)                                                                                               150                                
PRCFAMCHA091102060703060713000010CC Disclaimer - FAST - Family.ca (:09-:10)                                                                                  150                                
PGRFAMCHA091102060713063107002354Henry's World                                     EP: 1-009                                                     B66551A1065607GCC                              
PROFAMCHA091102063107063127000020PH-D - Show Throw - CAN Franny's Feet #2- Ooh & Aa                                                                          150                                
PROFAMCHA091102063127063137000010PH-D EOB ID - Kaleidoscope # 08 (Sept09)                                                                                    150                                
PRCFAMCHA091102063137063147000010CC Disclaimer - FAST - Generic (:09-:10)                                                                                    150                                
PGRFAMCHA091102063147065418002231Franny's Feet                                     EPS # 25                                                      C23971 1065607ECC                              
PRCFAMCHA091102065418065424000006Astral ID - Family Jr. Version (MAR 2009)                                                                                   150                                
PRCFAMCHA091102065424065449000025PH-D Promo - Ooh & Ahh PH-D Throw 2009 - Call Your                                                                          150                                
PGRFAMCHA091102065449065600000111PH-D Short - Wow! Wow! Wubbzy! (Ep. 205 I Special                                                                     A60688120                                
PROFAMCHA091102065600065630000030Handy Manny - PH-D - Helping Friends Generic - Thi                                                                          150                                
PROFAMCHA091102065630065645000015PH-D Short Throw - Happy Monster #1- Ooh & Aah (Se                                                                          150                                
PROFAMCHA091102065645065845000200PH-D Short - Happy Monster Band - 01 - I'm The Bes                                                                          150                                
PROFAMCHA091102065845065915000030Imagination Movers - PH-D - Generic - This Morning                                                                          150                                
PROFAMCHA091102065915065945000030Tigger and Pooh - PH-D - Darby Sell # 2 - New Eps                                                                           150                                
PROFAMCHA091102065945070000000015PH-D - Show Throw - Mickey Mouse Clubhouse #3 - Oo                                                                          150                                
PROFAMCHA091102070000070010000010PH-D EOB ID - Sky (Sept09)                                                                                                  150                                
PRCFAMCHA091102070010070020000010CC Disclaimer - FAST - Family.ca (:09-:10)                                                                                  150                                
PGRFAMCHA091102070020072421002401Disney's Mickey Mouse Clubhouse                   EP: 14                                                               6068607ECC                              
PROFAMCHA091102072421072430000009PH-D Promo - Ooh & Aah Web Throw - PH-D.CA                                                                                  150                                
PROFAMCHA091102072430072510000040Walt Disney Studios Home Entertainment                                                                                      150                                
PROFAMCHA091102072510072525000015PH-D - Show Throw - Mickey Mouse Clubhouse #2- Ooh                                                                          150                                
PROFAMCHA091102072525072535000010PH-D EOB ID - Field (Sept09)                                                                                                150                                
PRCFAMCHA091102072535072545000010CC Disclaimer - FAST - Generic (:09-:10)                                                                                    150                                
PGRFAMCHA091102072545075000002415Disney's Mickey Mouse Clubhouse                   EP: 34                                                               6068607ECC                              
