SO FAMCHA110901043000043011000011Sign On (oct 1)                                                                                                                                                
PGRFAMCHA110901043011045649002638Katie And Orbie                                   EP: 77                                                        B62280A1065607ECC                              
ID FAMCHA110901045649045655000006Astral ID (HD) 50th Anniversary ID (Aug31-Dec31)                                                                            150                                
PROFAMCHA110901045655045701000006D-JR - Bumper 9 (May2011)                                                                                                   150                                
PGRFAMCHA110901045701051934002233Franny's Feet                                     EP: 40                                                        C31292 1065607ECC                              
PROFAMCHA110901051934052006000032D-JR Icon Story - SWOBB - Maze Part 1 - Coming Up                                                                           150                                
PROFAMCHA110901052006052036000030D-JR Promo - On demand online REVISED - D-JR.ca (M                                                                          150                                
PROFAMCHA110901052036052114000038D-JR Promo - HM Great Outdoor Marathon - Sunday Se                                                                          150                                
PROFAMCHA110901052114052144000030D-JR Icon Story - SWOBB - Maze Part 2 - Now (May 2                                                                          150                                
PROFAMCHA110901052144052150000006D-JR - Station ID (:06) (May2011)                                                                                           150                                
PGRFAMCHA110901052150054420002230The Secret World of Benjamin Bear                 EP: 19                                                        C26066 1065607ECC                              
ID FAMCHA110901054420054426000006Astral ID (HD) 50th Anniversary ID (Aug31-Dec31)                                                                            150                                
PROFAMCHA110901054426054432000006D-JR - Bumper 6 (May2011)                                                                                                   150                                
PGRFAMCHA110901054432060609002137Harry and His Bucket Full of Dinosaurs            EP: 23                                                        B05042 1065607ECC                              
PROFAMCHA110901060609060620000011D-JR - Station ID (:11) (May2011)                                                                                           150                                
PGRFAMCHA110901060620063010002350Henry's World                                     EP: 02                                                        B66544 1065607ECC                              
ID FAMCHA110901063010063016000006Astral ID (HD) 50th Anniversary ID (Aug31-Dec31)                                                                            150                                
PROFAMCHA110901063016063022000006D-JR - Bumper 2 (May2011)                                                                                                   150                                
PGRFAMCHA110901063022065256002234Franny's Feet                                     EP: 48                                                        C31292 1065607ECC                              
PROFAMCHA110901065256065327000031D-JR Icon Story - Mickey Mouse Clubhouse - Silly S                                                                          150                                
PROFAMCHA110901065327065357000030D-JR Promo - On demand online REVISED - D-JR.ca (M                                                                          150                                
PROFAMCHA110901065357065427000030Stella and Sam - Get more Stella & Sam on D-JR the                                                                          150                                
PROFAMCHA110901065427065437000010D-JR - Short Open (:10) (May2011)                                                                                           150                                
PROFAMCHA110901065437065737000300PH-D Short - Mickey Mousekersize Shorts - 08 - Min                                                                          150                                
PROFAMCHA110901065737065743000006D-JR - Short Close (:06) (May2011)                                                                                          150                                
PROFAMCHA110901065743065813000030D-JR - Standalone ID - Light Parade (May2011)                                                                               150                                
PROFAMCHA110901065813065838000025JATNP - Get more Jake on D-JR the channel (May2011                                                                          150                                
PROFAMCHA110901065838065916000038D-JR Promo - HM Great Outdoor Marathon - Sunday Se                                                                          150                                
PROFAMCHA110901065916065946000030D-JR Icon Story - Mickey Mouse Clubhouse - Silly S                                                                          150                                
PROFAMCHA110901065946065956000010D-JR - Station ID (:10) (May2011)                                                                                           150                                
PGRFAMCHA110901065956072358002402Disney's Mickey Mouse Clubhouse                   EP: 37                                                               6068605ACC                              
ID FAMCHA110901072358072404000006Astral ID (HD) 50th Anniversary ID (Aug31-Dec31)                                                                            150                                
PROFAMCHA110901072404072434000030D-JR Icon Story - Handy Manny - Seesaw Part 1 - Co                                                                          150                                
PROFAMCHA110901072434072504000030D-JR Promo - On demand online REVISED - D-JR.ca (M                                                                          150                                
PROFAMCHA110901072504072534000030D-JR Promo - MMCH - Get more MMCH on D-JR the chan                                                                          150                                
PROFAMCHA110901072534072540000006D-JR - Short Open (:06) (May2011)                                                                                           150                                
PROFAMCHA110901072540072810000230PH-D Short - Whiffle & Fuzz - 07 - Fish (Jan10)                                                                             150                                
PROFAMCHA110901072810072816000006D-JR - Short Close (:06) (May2011)                                                                                          150                                
PROFAMCHA110901072816072846000030D-JR - Standalone ID - Magic Frog (May2011)                                                                                 150                                
PROFAMCHA110901072846072911000025JATNP - Get more Jake on D-JR the channel (May2011                                                                          150                                
PROFAMCHA110901072911072941000030Stella and Sam - Get more Stella & Sam on D-JR the                                                                          150                                
PROFAMCHA110901072941073011000030D-JR Icon Story - Handy Manny - Seesaw Part 2 - No                                                                          150                                
PROFAMCHA110901073011073017000006D-JR - Bumper 4 (May2011)                                                                                                   150                                
PGRFAMCHA110901073017075418002401Handy Manny                                       EP: 18                                                               6068605ACC                              
PROFAMCHA110901075418075433000015Family's Summer Marathons (HD) Continues Today @ 8                                                                          150                                
PROFAMCHA110901075433075518000045Parmalat                                                                                                                    150                                
PROFAMCHA110901075518075558000040Good Luck Charlie (HD) Refresh - This Afternoon @                                                                           150                                
PGRFAMCHA110901075558075728000130MV Disney (HD) Shake It Up - Watch Me (Jul 13- Sep                                                                     60685120                                
PROFAMCHA110901075728075758000030Really Me (HD) Generic Retag - Tonight @ 9:00 (Jul                                                                          150                                
PROFAMCHA110901075758075843000045xSuite Life Movie (HD) Trailer CD - Saturday @ Noo                                                                          150                                
PROFAMCHA110901075843075918000035Phineas&Ferb (HD) Candace - Coming Up Next (June20                                                                          150                                
PROFAMCHA110901075918080002000044So Random Fridays/Sept 2 NOP (HD) Tomorrow Afterno                                                                          150                                
PRCFAMCHA110901080002080018000016Family Summer Bumper (HD) - Popsicle (June 29-Sept                                                                          150                                
PGRFAMCHA110901080018082252002234Disney Phineas & Ferb                             EP: 31                                                               6068607ECC                              
ID FAMCHA110901082252082258000006Astral ID (HD) 50th Anniversary ID (Aug31-Dec31)                                                                            150                                
PROFAMCHA110901082258082309000011LU - Summer (HD) - 02 - SLOD/SLOD @ 9:00 (:9 - :11                                                                          150                                
PROFAMCHA110901082309082339000030Phineas & Ferb DCOM (HD) Popcorn Pix  - Sunday @ N                                                                          150                                
PROFAMCHA110901082339082424000045Parmalat                                                                                                                    150                                
PROFAMCHA110901082424082511000047Shake It Up (HD) Dance Retag - Monday to Thursday                                                                           150                                
PROFAMCHA110901082511082543000032Wingin It (HD) Angel Retag - Tonight @ 9:30 (Jul20                                                                          150                                
PROFAMCHA110901082543082623000040MGA Entertainment                                                                                                           150                                
PROFAMCHA110901082623082707000044ANT Farm (HD) Sister Sell - New Episode Tomorrow N                                                                          150                                
PROFAMCHA110901082707082755000048Shake It Up (HD) Refresh - Weekend Mornings @ 11:3                                                                          150                                
PROFAMCHA110901082755082831000036SLOD (HD) Breakin Up - Coming Up Next (May2011)                                                                             150                                
PROFAMCHA110901082831082906000035Kellogg's                                                                                                                   150                                
PROFAMCHA110901082906082921000015Family's Summer Marathons (HD) Continues Next (Jul                                                                          150                                
PRCFAMCHA110901082921082937000016Family Summer Bumper (HD) - Strawberry/Lady Bug (J                                                                          150                                
PGRFAMCHA110901082937085209002232The Suite Life on Deck                            EP: 21                                                               6068607BCC                              
PROFAMCHA110901085209085220000011LU - Summer (HD) - 03 - SLOD/SLOD @ 9:30 (:9 - :11                                                                          150                                
PROFAMCHA110901085220085243000023So Random Fridays (HD) What Are SRF "Tiffany" - Ev                                                                          150                                
PROFAMCHA110901085243085328000045Kellogg's                                                                                                                   150                                
PROFAMCHA110901085328085348000020Hannah (HD) Wig Off - This Afternoon @ 12:30 (Jan2                                                                          150                                
PGRFAMCHA110901085348085645000257MV Disney (HD) China Anne McClain - Dynamite (July                                                                     60685120                                
PROFAMCHA110901085645085730000045Elephant Princess (HD) Refresh - New Episode Tonig                                                                          150                                
PROFAMCHA110901085730085753000023WOWP (HD) Harper Retag - New Episode Tomorrow Nigh                                                                          150                                
PRCFAMCHA110901085753085838000045WUW (HD) Series Promo - Sunday Morning @ 9:30 (Mar                                                                          150                                
PROFAMCHA110901085838085856000018SLOD (HD) Mommy Clip - Coming Up Next (May 2011)                                                                            150                                
PROFAMCHA110901085856085932000036Labour Day Stunt Promo (HD) Monday Afternoon Start                                                                          150                                
PRCFAMCHA110901085932085950000018Family Summer Bumper (HD) - Tennis Ball (June 29-S                                                                          150                                
PGRFAMCHA110901085950092223002233The Suite Life on Deck                            EP: 28                                                               6068607BCC                              
ID FAMCHA110901092223092229000006Astral ID (HD) 50th Anniversary ID (Aug31-Dec31)                                                                            150                                
PROFAMCHA110901092229092240000011LU - Summer (HD) - 04 - SLOD/SLOD @ 10:00 (:9 - :1                                                                          150                                
PROFAMCHA110901092240092310000030Disney XD (HD) Kickin' It Character Sell - Saturda                                                                          150                                
PROFAMCHA110901092310092340000030WOWP (HD) Metric System - Today @ Noon (Jan2011)                                                                            150                                
PGRFAMCHA110901092340092727000347MV Non Disney (HD) Cody Simpson - All Day (May 17                                                                      10615120                                
PROFAMCHA110901092727092757000030Pair Of Kings (HD) Repack - Tomorrow Night @ 5:30                                                                           150                                
PROFAMCHA110901092757092827000030xLemonade Mouth BTS (HD) Popcorn Pix - Tomorrow Ni                                                                          150                                
PROFAMCHA110901092827092907000040DEBRA! (HD) Refresh - Weekend Afternoons @ 4:00 (M                                                                          150                                
PROFAMCHA110901092907092921000014SLOD (HD) S2 GENERIC - Coming Up Next (Jan2011)                                                                             150                                
PROFAMCHA110901092921092938000017Jessie (HD) Tease - Coming This Fall (Aug 26 - Sep                                                                          150                                
PRCFAMCHA110901092938092950000012Family Summer Bumper (HD) - Worm (June 29-Sept3)                                                                            150                                
PGRFAMCHA110901092950095153002203The Suite Life on Deck                            EP: 22                                                               6068607BCC                              
PROFAMCHA110901095153095204000011LU - Summer (HD) - 05 - SLOD/SLOD @ 10:30 (:9 - :1                                                                          150                                
PROFAMCHA110901095204095242000038Rock to the Top Wingin' It (HD) New Episodes Start                                                                          150                                
PROFAMCHA110901095242095256000014xWOWP (HD) Alex S3 GENERIC - Today @ Noon (Jan2011                                                                          150                                
PGRFAMCHA110901095256095642000346MV Non Disney (HD) Tyler Medeiros - Say I Love You                                                                     10615120                                
PROFAMCHA110901095642095704000022Family.ca (HD) "Hot Ticket" Game Promo (March 15 -                                                                          150                                
PROFAMCHA110901095704095749000045Really Me (HD) Julia - New Episode Tomorrow Night                                                                           150                                
PROFAMCHA110901095749095847000058ANT Farm (HD) Comedy Sell - New Episode Tomorrow N                                                                          150                                
PROFAMCHA110901095847095923000036SLOD (HD) Breakin Up - Coming Up Next (May2011)                                                                             150                                
PROFAMCHA110901095923095938000015Family's Summer Marathons (HD) Continues Next (Jul                                                                          150                                
PRCFAMCHA110901095938095956000018Family Summer Bumper (HD) - Beach Ball (June 29-Se                                                                          150                                
PGRFAMCHA110901095956102229002233The Suite Life on Deck                            EP: 24                                                               6068607BCC                              
ID FAMCHA110901102229102235000006Astral ID (HD) 50th Anniversary ID (Aug31-Dec31)                                                                            150                                
PROFAMCHA110901102235102246000011LU - Summer (HD) - 06 -SLOD/SLZC @ 11:00 (:9 - :11                                                                          150                                
PROFAMCHA110901102246102316000030Disney XD (HD) DXD NBA Jam Session (2x/day, 1 in p                                                                          150                                
PROFAMCHA110901102316102403000047xShake It Up (HD) Dance Retag -Tonight @ 7:00 (Jul                                                                          150                                
PGRFAMCHA110901102403102736000333MV Disney (HD) Selena Gomez - Love You Like a Love                                                                     60685120                                
PROFAMCHA110901102736102806000030Phineas & Ferb DCOM (HD) Popcorn Pix  - Sunday @ N                                                                          150                                
PROFAMCHA110901102806102836000030xSo Random (HD) Girl Sell - Sunday Afternoon @ 3:3                                                                          150                                
PROFAMCHA110901102836102854000018SLOD (HD) Mommy Clip - Coming Up Next (May 2011)                                                                            150                                
PROFAMCHA110901102854102938000044So Random Fridays/Sept 2 NOP (HD) Tomorrow Afterno                                                                          150                                
PRCFAMCHA110901102938102954000016Family Summer Bumper (HD) - Bee (June29-Sept3)                                                                              150                                
PGRFAMCHA110901102954105528002534The Suite Life on Deck                            EP: 27                                                               6068607BCC                              
PROFAMCHA110901105528105539000011LU - Summer (HD) - 07 - SLZC/SLZC @ 11:30  (:9 - :                                                                          150                                
PROFAMCHA110901105539105554000015Family's Summer Marathons (HD) Continues This Afte                                                                          150                                
PROFAMCHA110901105554105634000040MGA Entertainment                                                                                                           150                                
PROFAMCHA110901105634105648000014xWOWP (HD) Alex S3 GENERIC - Today @ Noon (Jan2011                                                                          150                                
PROFAMCHA110901105648105720000032Wingin It (HD) Angel Retag - Tonight @ 9:30 (Jul20                                                                          150                                
PROFAMCHA110901105720105805000045So Random (HD) Boy Sell - New Episode Tomorrow Nig                                                                          150                                
PROFAMCHA110901105805105845000040DEBRA! (HD) Refresh - New Episode Sunday Afternoon                                                                          150                                
PROFAMCHA110901105845105919000034SLOZ+C (HD) Refresh May10 - Coming Up Next (Jan201                                                                          150                                
PRCFAMCHA110901105919105949000030FOD (HD) On Demand Online family.ca (Mar2011) (2-3                                                                          150                                
PRCFAMCHA110901105949110003000014Family Summer Bumper (HD) - Mole (June 29-Sept3)                                                                            150                                
ID FAMCHA110901110003110008000005xMagic of Disney Bumper (HD)(:5-:6) (Jan 2011)                                                                              150                                
PGRFAMCHA110901110008112249002241The Suite Life of Zack and Cody                   EP: 32                                                               6068607BCC                              
ID FAMCHA110901112249112255000006Astral ID (HD) 50th Anniversary ID (Aug31-Dec31)                                                                            150                                
PROFAMCHA110901112255112306000011LU - Summer (HD) - 08 - SLZC/WOWP @ 12:00  (:9 - :                                                                          150                                
PROFAMCHA110901112306112336000030Disney XD (HD) KB Untamed Stunt - Monday Morning S                                                                          150                                
PROFAMCHA110901112336112421000045Live Nation                                                                                                                 150                                
PROFAMCHA110901112421112441000020Hannah (HD) Wig Off - This Afternoon @ 12:30 (Jan2                                                                          150                                
PROFAMCHA110901112441112525000044ANT Farm (HD) Sister Sell - New Episode Tomorrow N                                                                          150                                
PGRFAMCHA110901112525112635000110MV Disney (HD) Phineas & Ferb DCOM - Brand New Rea                                                                     60685120                                
PROFAMCHA110901112635112705000030Pair Of Kings (HD) Kings Speak - Weekend Mornings                                                                           150                                
PRCFAMCHA110901112705112750000045WUW (HD) Series Promo - Sunday Morning @ 9:30 (Mar                                                                          150                                
PROFAMCHA110901112750112812000022So Random Fridays (HD) What Are SRF "Sterling" - E                                                                          150                                
PROFAMCHA110901112812112842000030xLemonade Mouth BTS (HD) Popcorn Pix - Tomorrow Ni                                                                          150                                
PROFAMCHA110901112842112907000025JATNP - Get more Jake on D-JR the channel (May2011                                                                          150                                
PROFAMCHA110901112907112941000034SLOZ+C (HD) Refresh May10 - Coming Up Next (Jan201                                                                          150                                
PROFAMCHA110901112941112958000017Jessie (HD) Tease - Coming This Fall (Aug 26 - Sep                                                                          150                                
PRCFAMCHA110901112958113010000012Family Summer Bumper (HD) - Worm (June 29-Sept3)                                                                            150                                
ID FAMCHA110901113010113015000005xMagic of Disney Bumper (HD)(:5-:6) (Jan 2011)                                                                              150                                
PGRFAMCHA110901113015115254002239The Suite Life of Zack and Cody                   EP: 26                                                               6068607BCC                              
PROFAMCHA110901115254115305000011LU - Summer (HD) - 09 - WOWP/Hannah @ 12:30  (:9 -                                                                          150                                
PROFAMCHA110901115305115341000036Labour Day Stunt Promo (HD) Monday Afternoon Start                                                                          150                                
PROFAMCHA110901115341115411000030So Random (HD) Girl Sell - New Episode Tomorrow Ni                                                                          150                                
PGRFAMCHA110901115411115729000318MV Disney (HD) Bridgit Mendler - We Can Change the                                                                     60685120                                
PROFAMCHA110901115729115759000030Disney XD (HD) Zeke & Luther - Catch it on DXD (wi                                                                          150                                
PROFAMCHA110901115759115831000032Wingin It (HD) Angel - Saturday Morning @ 9:30 (Ap                                                                          150                                
PROFAMCHA110901115831115916000045xSuite Life Movie (HD) Trailer CD - Saturday @ Noo                                                                          150                                
PROFAMCHA110901115916115930000014xWOWP (HD) Alex S3 GENERIC - Coming Up Next (Jan20                                                                          150                                
PROFAMCHA110901115930115945000015Family's Summer Marathons (HD) Continues This Afte                                                                          150                                
PRCFAMCHA110901115945120001000016Family Summer Bumper (HD) - Strawberry/Lady Bug (J                                                                          150                                
PGRFAMCHA110901120001122250002249Disney Wizards of Waverly Place                   EP: 11                                                               6068607BCC                              
ID FAMCHA110901122250122256000006Astral ID (HD) 50th Anniversary ID (Aug31-Dec31)                                                                            150                                
PROFAMCHA110901122256122334000038Rock to the Top Wingin' It (HD) New Episodes Start                                                                          150                                
PROFAMCHA110901122334122409000035Phineas&Ferb (HD) Candace - This Afternoon @ 4:00                                                                           150                                
PGRFAMCHA110901122409122706000257MV Disney (HD) China Anne McClain - Dynamite (July                                                                     60685120                                
PROFAMCHA110901122706122726000020Good Luck Charlie (HD) DuncanBallet - Monday to Th                                                                          150                                
PROFAMCHA110901122726122756000030Really Me (HD) Generic - New Episode Tomorrow Nigh                                                                          150                                
PROFAMCHA110901122756122826000030Stella and Sam - Get more Stella & Sam on D-JR the                                                                          150                                
PROFAMCHA110901122826122910000044xHannah (HD) Refresh - Coming Up Next (May2011)                                                                             150                                
PROFAMCHA110901122910122954000044So Random Fridays/Sept 2 NOP (HD) Tomorrow Afterno                                                                          150                                
PRCFAMCHA110901122954123012000018Family Summer Bumper (HD) - Tennis Ball (June 29-S                                                                          150                                
PGRFAMCHA110901123012123254000242Hannah Montana                                    EP: 02                                                               6068807BCC                              
PGRFAMCHA110901123254124230000936Hannah Montana                                    EP: 02                                                               6068807BCC                              
PGRFAMCHA110901124230125212000942Hannah Montana                                    EP: 02                                                               6068807BCC                              
PGRFAMCHA110901125212125250000038Hannah Montana                                    EP: 02                                                               6068807BCC                              
PROFAMCHA110901125250125301000011LU - Summer (HD) - 11 - Hannah Montana/Hannah Mont                                                                          150                                
PROFAMCHA110901125301125316000015Family's Summer Marathons (HD) Continues Next (Jul                                                                          150                                
PROFAMCHA110901125316125330000014SLOD (HD) S2 GENERIC - Tonight @ 6 (Jan2011)                                                                                150                                
PROFAMCHA110901125330125402000032Wingin It (HD) Angel Retag - Monday to Thursday Ni                                                                          150                                
PGRFAMCHA110901125402125502000100Disney XD (HD) Interstitial - My Life "Olivia Holt                                                                     60688120                                
PROFAMCHA110901125502125525000023WOWP (HD) Harper Retag - New Episode Tomorrow Nigh                                                                          150                                
PROFAMCHA110901125525125610000045xSuite Life Movie (HD) Trailer CD - Saturday @ Noo                                                                          150                                
PGRFAMCHA110901125610125946000336MV Non Disney (HD) Cody Simpson - On My Mind (Jul                                                                      10615120                                
PROFAMCHA110901125946130006000020Hannah (HD) Wig Off - Coming Up Next (Jan2011)                                                                              150                                
PRCFAMCHA110901130006130018000012Family Summer Bumper (HD) - Worm (June 29-Sept3)                                                                            150                                
PGRFAMCHA110901130018132305002247Hannah Montana                                    EP: 15                                                               6068707BCC                              
ID FAMCHA110901132305132311000006Astral ID (HD) 50th Anniversary ID (Aug31-Dec31)                                                                            150                                
PROFAMCHA110901132311132322000011LU - Summer (HD) - 12 - Hannah Montana/Hannah Mont                                                                          150                                
PROFAMCHA110901132322132339000017Jessie (HD) Tease - Coming This Fall (Aug 26 - Sep                                                                          150                                
PROFAMCHA110901132339132409000030Pair Of Kings (HD) Repack - Tomorrow Night @ 5:30                                                                           150                                
PGRFAMCHA110901132409132742000333MV Disney (HD) Selena Gomez - Love You Like a Love                                                                     60685120                                
PROFAMCHA110901132742132812000030xLemonade Mouth BTS (HD) Popcorn Pix - Tomorrow Ni                                                                          150                                
PROFAMCHA110901132812132847000035D-JR Promo - Handy Manny - Get more on the channel                                                                          150                                
PROFAMCHA110901132847132931000044xHannah (HD) Refresh - Coming Up Next (May2011)                                                                             150                                
PROFAMCHA110901132931132953000022Family.ca (HD) "Hot Ticket" Game Promo (March 15 -                                                                          150                                
PRCFAMCHA110901132953133011000018Family Summer Bumper (HD) - Beach Ball (June 29-Se                                                                          150                                
PGRFAMCHA110901133011135244002233Hannah Montana                                    EP: 11                                                               6068707BCC                              
PROFAMCHA110901135244135255000011LU - Summer (HD) - 13 - Hannah Montana/Hannah Mont                                                                          150                                
PROFAMCHA110901135255135325000030Disney XD (HD) I'm In the Band - Catch it on DXD (                                                                          150                                
PROFAMCHA110901135325135355000030Really Me (HD) Generic - New Episode Tomorrow Nigh                                                                          150                                
PGRFAMCHA110901135355135741000346MV Non Disney (HD) Tyler Medeiros - Say I Love You                                                                     10615120                                
PROFAMCHA110901135741135839000058ANT Farm (HD) Comedy Sell - New Episode Tomorrow N                                                                          150                                
PROFAMCHA110901135839135859000020Hannah (HD) Wig Off - Coming Up Next (Jan2011)                                                                              150                                
PROFAMCHA110901135859135935000036Labour Day Stunt Promo (HD) Monday Afternoon Start                                                                          150                                
PRCFAMCHA110901135935135951000016Family Summer Bumper (HD) - Bee (June29-Sept3)                                                                              150                                
PGRFAMCHA110901135951142225002234Hannah Montana                                    EP: 12                                                               6068707BCC                              
ID FAMCHA110901142225142231000006Astral ID (HD) 50th Anniversary ID (Aug31-Dec31)                                                                            150                                
PROFAMCHA110901142231142242000011LU - Summer (HD) - 14 - Hannah Montana/Hannah Mont                                                                          150                                
PROFAMCHA110901142242142257000015Family's Summer Marathons (HD) Continues Next (Jul                                                                          150                                
PROFAMCHA110901142257142331000034SLOZ+C (HD) Refresh May10 - This Afternoon @ 3:30                                                                           150                                
PGRFAMCHA110901142331142501000130MV Disney (HD) Shake It Up - Watch Me (Jul 13- Sep                                                                     60685120                                
PROFAMCHA110901142501142548000047xShake It Up (HD) Dance Retag -Tonight @ 7:00 (Jul                                                                          150                                
PROFAMCHA110901142548142633000045Elephant Princess (HD) Refresh - New Episode Tonig                                                                          150                                
PROFAMCHA110901142633142713000040DEBRA! (HD) Refresh - Weekend Afternoons @ 4:00 (M                                                                          150                                
PRCFAMCHA110901142713142758000045WUW (HD) Series Promo - Sunday Morning @ 9:30 (Mar                                                                          150                                
PROFAMCHA110901142758142828000030D-JR Promo - MMCH - Get more MMCH on D-JR the chan                                                                          150                                
PROFAMCHA110901142828142912000044xHannah (HD) Refresh - Coming Up Next (May2011)                                                                             150                                
PROFAMCHA110901142912142936000024So Random Fridays (HD) What Are SRF "Doug" - Every                                                                          150                                
PRCFAMCHA110901142936142950000014Family Summer Bumper (HD) - Mole (June 29-Sept3)                                                                            150                                
PGRFAMCHA110901142950145245002255Hannah Montana                                    EP: 13                                                               6068707BCC                              
PROFAMCHA110901145245145256000011LU - Summer (HD) - 15 - Hannah Montana/SLOZC @ 3:3                                                                          150                                
PROFAMCHA110901145256145340000044So Random Fridays/Sept 2 NOP (HD) Tomorrow Afterno                                                                          150                                
PROFAMCHA110901145340145425000045Parmalat                                                                                                                    150                                
PROFAMCHA110901145425145457000032Phineas&Ferb (HD) Stop Watch - Weekday Afternoons                                                                           150                                
PROFAMCHA110901145457145537000040Good Luck Charlie (HD) Refresh - This Afternoon @                                                                           150                                
PROFAMCHA110901145537145636000059Fish Hooks (HD) Repack - Weekend Mornings @ 8:30                                                                            150                                
PROFAMCHA110901145636145708000032Wingin It (HD) Angel - Saturday Morning @ 9:30 (Ap                                                                          150                                
PROFAMCHA110901145708145753000045xSuite Life Movie (HD) Trailer CD - Saturday @ Noo                                                                          150                                
PROFAMCHA110901145753145816000023WOWP (HD) Harper Retag - Weekend Afternoons @ 4:30                                                                          150                                
PROFAMCHA110901145816145901000045So Random (HD) Boy Sell - Sunday Afternoon @ 3:30                                                                           150                                
PROFAMCHA110901145901145921000020Hannah (HD) Wig Off - Coming Up Next (Jan2011)                                                                              150                                
PROFAMCHA110901145921145951000030Disney XD (HD) KB Untamed Stunt - Monday Morning S                                                                          150                                
PRCFAMCHA110901145951150003000012Family Summer Bumper (HD) - Worm (June 29-Sept3)                                                                            150                                
PGRFAMCHA110901150003152338002335Hannah Montana                                    EP: 14                                                               6068707BCC                              
ID FAMCHA110901152338152344000006Astral ID (HD) 50th Anniversary ID (Aug31-Dec31)                                                                            150                                
PROFAMCHA110901152344152359000015Family's Summer Marathons (HD) Continues Tom Morni                                                                          150                                
PROFAMCHA110901152359152419000020Good Luck Charlie (HD) DuncanBallet - This Afterno                                                                          150                                
PRCFAMCHA110901152419152449000030FOD (HD) On Demand Online family.ca (Mar2011) (2-3                                                                          150                                
PROFAMCHA110901152449152512000023WOWP (HD) Harper Retag - New Episode Tomorrow Nigh                                                                          150                                
PROFAMCHA110901152512152542000030Pair Of Kings (HD) Kings Speak - Tomorrow Night @                                                                           150                                
PROFAMCHA110901152542152825000243So Random Shorts (HD) S1-01 "Zombie" - Friday  @ 6                                                                          150                                
PROFAMCHA110901152825152859000034SLOZ+C (HD) Refresh May10 - Coming Up Next (Jan201                                                                          150                                
PROFAMCHA110901152859152937000038Rock to the Top Wingin' It (HD) New Episodes Start                                                                          150                                
PRCFAMCHA110901152937152955000018Family Summer Bumper (HD) - Beach Ball (June 29-Se                                                                          150                                
ID FAMCHA110901152955153000000005xMagic of Disney Bumper (HD)(:5-:6) (Jan 2011)                                                                              150                                
PGRFAMCHA110901153000153117000117The Suite Life of Zack and Cody                   EP: 05                                                               6068607BCC                              
PGRFAMCHA110901153117154031000914The Suite Life of Zack and Cody                   EP: 05                                                               6068607BCC                              
PGRFAMCHA110901154031155031001000The Suite Life of Zack and Cody                   EP: 05                                                               6068607BCC                              
PGRFAMCHA110901155031155238000207The Suite Life of Zack and Cody                   EP: 05                                                               6068607BCC                              
PROFAMCHA110901155238155314000036Labour Day Stunt Promo (HD) Monday Afternoon Start                                                                          150                                
PROFAMCHA110901155314155349000035Kellogg's                                                                                                                   150                                
PROFAMCHA110901155349155403000014xWOWP (HD) Alex S3 GENERIC - This Afternoon @ 5 (J                                                                          150                                
PROFAMCHA110901155403155433000030So Random (HD) Girl Sell - New Episode Tomorrow Ni                                                                          150                                
PGRFAMCHA110901155433155730000257MV Disney (HD) China Anne McClain - Dynamite (July                                                                     60685120                                
PROFAMCHA110901155730155814000044ANT Farm (HD) Sister Sell - New Episode Tomorrow N                                                                          150                                
PROFAMCHA110901155814155844000030xLemonade Mouth BTS (HD) Popcorn Pix - Tomorrow Ni                                                                          150                                
PROFAMCHA110901155844155916000032Phineas&Ferb (HD) Stop Watch - Coming Up Next (Jan                                                                          150                                
PROFAMCHA110901155916155946000030Disney XD (HD) DXD NBA Jam Session (2x/day, 1 in p                                                                          150                                
PRCFAMCHA110901155946160004000018Family Summer Bumper (HD) - Tennis Ball (June 29-S                                                                          150                                
PGRFAMCHA110901160004162239002235Disney Phineas & Ferb                             EP: 33                                                               6068607ECC                              
ID FAMCHA110901162239162245000006Astral ID (HD) 50th Anniversary ID (Aug31-Dec31)                                                                            150                                
PROFAMCHA110901162245162302000017Jessie (HD) Tease - Coming This Fall (Aug 26 - Sep                                                                          150                                
PROFAMCHA110901162302162347000045Parmalat                                                                                                                    150                                
PROFAMCHA110901162347162434000047xShake It Up (HD) Dance Retag -Tonight @ 7:00 (Jul                                                                          150                                
PROFAMCHA110901162434162504000030Really Me (HD) Generic Retag - Tonight @ 9:00 (Jul                                                                          150                                
PROFAMCHA110901162504162519000015SWAC (HD) S2 Generic - Weekend Mornings @ 10:30 (J                                                                          150                                
PROFAMCHA110901162519162604000045xSuite Life Movie (HD) Trailer CD - Saturday @ Noo                                                                          150                                
PROFAMCHA110901162604162644000040DEBRA! (HD) Refresh - New Episode Sunday Afternoon                                                                          150                                
PGRFAMCHA110901162644162839000155MV Disney (HD) Phineas & Ferb DCOM - Summer (Aug20                                                                     60685120                                
PROFAMCHA110901162839162914000035Phineas&Ferb (HD) Candace - Coming Up Next (June20                                                                          150                                
PROFAMCHA110901162914162958000044So Random Fridays/Sept 2 NOP (HD) Tomorrow Afterno                                                                          150                                
PRCFAMCHA110901162958163010000012Family Summer Bumper (HD) - Worm (June 29-Sept3)                                                                            150                                
PGRFAMCHA110901163010165242002232Disney Phineas & Ferb                             EP: 14                                                               6068607ECC                              
PROFAMCHA110901165242165304000022Family.ca (HD) "Hot Ticket" Game Promo (March 15 -                                                                          150                                
PROFAMCHA110901165304165344000040MGA Entertainment                                                                                                           150                                
PROFAMCHA110901165344165414000030Disney XD (HD) Kickin' It Character Sell - Saturda                                                                          150                                
PGRFAMCHA110901165414165750000336MV Non Disney (HD) Cody Simpson - On My Mind (Jul                                                                      10615120                                
PROFAMCHA110901165750165849000059Fish Hooks (HD) Repack - Weekend Mornings @ 8:30                                                                            150                                
PROFAMCHA110901165849165919000030Phineas & Ferb DCOM (HD) Popcorn Pix  - Sunday @ N                                                                          150                                
PROFAMCHA110901165919165942000023xWOWP (HD) Harper - Coming Up Next (Jan2011)                                                                                150                                
PROFAMCHA110901165942165957000015Family's Summer Marathons (HD) Continues Tom Morni                                                                          150                                
PRCFAMCHA110901165957170015000018Family Summer Bumper (HD) - Beach Ball (June 29-Se                                                                          150                                
PGRFAMCHA110901170015172251002236Disney Wizards of Waverly Place                   EP: 12                                                               6068607BCC                              
ID FAMCHA110901172251172257000006Astral ID (HD) 50th Anniversary ID (Aug31-Dec31)                                                                            150                                
PROFAMCHA110901172257172327000030Disney XD (HD) KB Untamed Stunt - Monday Morning S                                                                          150                                
PROFAMCHA110901172327172403000036SLOD (HD) Breakin Up - Tonight @ 6:00 (May2011)                                                                             150                                
PGRFAMCHA110901172403172749000346MV Non Disney (HD) Tyler Medeiros - Say I Love You                                                                     10615120                                
PROFAMCHA110901172749172812000023WOWP (HD) Harper Retag - New Episode Tomorrow Nigh                                                                          150                                
PRCFAMCHA110901172812172857000045WUW (HD) Series Promo - Sunday Morning @ 9:30 (Mar                                                                          150                                
PROFAMCHA110901172857172917000020Good Luck Charlie (HD) DuncanBallet - Coming Up Ne                                                                          150                                
PROFAMCHA110901172917172955000038Rock to the Top Wingin' It (HD) New Episodes Start                                                                          150                                
PRCFAMCHA110901172955173011000016Family Summer Bumper (HD) - Bee (June29-Sept3)                                                                              150                                
PGRFAMCHA110901173011175245002234Good Luck Charlie                                 EP: 18                                                               6068707BCC                              
PROFAMCHA110901175245175321000036Disney XD (HD) DXD Image Spot - DXD Is...(with Cha                                                                          150                                
PROFAMCHA110901175321175406000045Warner Bros. Pictures                                                                                                       150                                
PROFAMCHA110901175406175436000030WOWP (HD) Metric System - Tonight @ 6:30 (Jan2011)                                                                          150                                
PROFAMCHA110901175436175521000045Elephant Princess (HD) Refresh - New Episode Tonig                                                                          150                                
PROFAMCHA110901175521175545000024So Random Fridays (HD) What Are SRF "Brandon" - Ev                                                                          150                                
PROFAMCHA110901175545175630000045Really Me (HD) Julia - New Episode Tomorrow Night                                                                           150                                
PROFAMCHA110901175630175728000058ANT Farm (HD) Comedy Sell - New Episode Tomorrow N                                                                          150                                
PROFAMCHA110901175728175800000032Wingin It (HD) Angel - Saturday Morning @ 9:30 (Ap                                                                          150                                
PROFAMCHA110901175800175818000018SLOD (HD) Mommy Clip - Coming Up Next (May 2011)                                                                            150                                
PROFAMCHA110901175818175858000040MGA Entertainment                                                                                                           150                                
PROFAMCHA110901175858175934000036Labour Day Stunt Promo (HD) Monday Afternoon Start                                                                          150                                
PRCFAMCHA110901175934175948000014Family Summer Bumper (HD) - Mole (June 29-Sept3)                                                                            150                                
PGRFAMCHA110901175948182309002321The Suite Life on Deck                            EP: 14                                                               6068607BCC                              
ID FAMCHA110901182309182315000006Astral ID (HD) 50th Anniversary ID (Aug31-Dec31)                                                                            150                                
PROFAMCHA110901182315182330000015Family's Summer Marathons (HD) Continues Tom Morni                                                                          150                                
PROFAMCHA110901182330182415000045Warner Bros. Pictures                                                                                                       150                                
PROFAMCHA110901182415182502000047xShake It Up (HD) Dance Retag -Tonight @ 7:00 (Jul                                                                          150                                
PROFAMCHA110901182502182522000020Good Luck Charlie (HD) DuncanBallet - Mon to Thurs                                                                          150                                
PROFAMCHA110901182522182552000030Really Me (HD) Generic Retag - Tonight @ 9:00 (Jul                                                                          150                                
PROFAMCHA110901182552182748000156So Random Shorts (HD) S1-06 "Sally Jensen: Kid Law                                                                          150                                
PROFAMCHA110901182748182818000030xLemonade Mouth BTS (HD) Popcorn Pix - Tomorrow Ni                                                                          150                                
PROFAMCHA110901182818182858000040DEBRA! (HD) Refresh - Weekend Afternoons @ 4:00 (M                                                                          150                                
PROFAMCHA110901182858182912000014xWOWP (HD) Alex S3 GENERIC - Coming Up Next (Jan20                                                                          150                                
PROFAMCHA110901182912182929000017Jessie (HD) Tease - Coming This Fall (Aug 26 - Sep                                                                          150                                
PRCFAMCHA110901182929182945000016Family Summer Bumper (HD) - Popsicle (June 29-Sept                                                                          150                                
PGRFAMCHA110901182945183737000752Disney Wizards of Waverly Place                   EP: 17                                                               6068607BCC                              
PGRFAMCHA110901183737184345000608Disney Wizards of Waverly Place                   EP: 17                                                               6068607BCC                              
PGRFAMCHA110901184345184919000534Disney Wizards of Waverly Place                   EP: 17                                                               6068607BCC                              
PGRFAMCHA110901184919185217000258Disney Wizards of Waverly Place                   EP: 17                                                               6068607BCC                              
PROFAMCHA110901185217185247000030Disney XD (HD) I'm In the Band - Catch it on DXD (                                                                          150                                
PROFAMCHA110901185247185327000040Good Luck Charlie (HD) Refresh - Tonight @ 7:30 (J                                                                          150                                
PGRFAMCHA110901185327185700000333MV Disney (HD) Selena Gomez - Love You Like a Love                                                                     60685120                                
PROFAMCHA110901185700185732000032Wingin It (HD) Angel Retag - Monday to Thursday Ni                                                                          150                                
PROFAMCHA110901185732185802000030Phineas & Ferb DCOM (HD) Popcorn Pix  - Sunday @ N                                                                          150                                
PROFAMCHA110901185802185850000048Shake It Up (HD) Refresh - Coming Up Next (June201                                                                          150                                
PROFAMCHA110901185850185934000044So Random Fridays/Sept 2 NOP (HD) Tomorrow Afterno                                                                          150                                
PRCFAMCHA110901185934185950000016Family Summer Bumper (HD) - Strawberry/Lady Bug (J                                                                          150                                
PGRFAMCHA110901185950192324002334Disney Shake It Up                                EP: 11                                                               6068707BCC                              
ID FAMCHA110901192324192330000006Astral ID (HD) 50th Anniversary ID (Aug31-Dec31)                                                                            150                                
PROFAMCHA110901192330192352000022Family.ca (HD) "Hot Ticket" Game Promo (March 15 -                                                                          150                                
PROFAMCHA110901192352192422000030Pair Of Kings (HD) Kings Speak - Tomorrow Night @                                                                           150                                
PGRFAMCHA110901192422192719000257MV Disney (HD) China Anne McClain - Dynamite (July                                                                     60685120                                
PROFAMCHA110901192719192804000045So Random (HD) Boy Sell - New Episode Tomorrow Nig                                                                          150                                
PROFAMCHA110901192804192849000045xSuite Life Movie (HD) Trailer CD - Saturday @ Noo                                                                          150                                
PROFAMCHA110901192849192909000020Good Luck Charlie (HD) DuncanBallet - Coming Up Ne                                                                          150                                
PROFAMCHA110901192909192945000036Labour Day Stunt Promo (HD) Monday Afternoon Start                                                                          150                                
PRCFAMCHA110901192945193003000018Family Summer Bumper (HD) - Tennis Ball (June 29-S                                                                          150                                
PGRFAMCHA110901193003195238002235Disney Good Luck Charlie                          EP: 05                                                               6068807BCC                              
PROFAMCHA110901195238195308000030Disney XD (HD) DXD NBA Jam Session (2x/day, 1 in p                                                                          150                                
PROFAMCHA110901195308195353000045Live Nation                                                                                                                 150                                
PROFAMCHA110901195353195413000020Good Luck Charlie (HD) DuncanBallet - Tonight @ 8:                                                                          150                                
PROFAMCHA110901195413195443000030Really Me (HD) Generic Retag - Tonight @ 9:00 (Jul                                                                          150                                
PGRFAMCHA110901195443195613000130MV Disney (HD) Shake It Up - Watch Me (Jul 13- Sep                                                                     60685120                                
PROFAMCHA110901195613195648000035Phineas&Ferb (HD) Candace - Tomorrow Afternoon @ 4                                                                          150                                
PROFAMCHA110901195648195711000023WOWP (HD) Harper Retag - New Episode Tomorrow Nigh                                                                          150                                
PROFAMCHA110901195711195755000044ANT Farm (HD) Sister Sell - New Episode Tomorrow N                                                                          150                                
PROFAMCHA110901195755195835000040DEBRA! (HD) Refresh - New Episode Sunday Afternoon                                                                          150                                
PROFAMCHA110901195835195911000036SLOD (HD) Breakin Up - Coming Up Next (May2011)                                                                             150                                
PROFAMCHA110901195911195949000038Rock to the Top Wingin' It (HD) New Episodes Start                                                                          150                                
PRCFAMCHA110901195949200001000012Family Summer Bumper (HD) - Worm (June 29-Sept3)                                                                            150                                
PGRFAMCHA110901200001202221002220The Suite Life on Deck                            EP: 20                                                               6068607BCC                              
ID FAMCHA110901202221202227000006Astral ID (HD) 50th Anniversary ID (Aug31-Dec31)                                                                            150                                
PROFAMCHA110901202227202248000021So Random Fridays (HD) What Are SRF "Allisyn" - Ev                                                                          150                                
PROFAMCHA110901202248202318000030Really Me (HD) Generic Retag - Tonight @ 9:00 (Jul                                                                          150                                
PGRFAMCHA110901202318202636000318MV Disney (HD) Bridgit Mendler - We Can Change the                                                                     60685120                                
PROFAMCHA110901202636202659000023WOWP (HD) Harper Retag - New Episode Tomorrow Nigh                                                                          150                                
PROFAMCHA110901202659202729000030xLemonade Mouth BTS (HD) Popcorn Pix - Tomorrow Ni                                                                          150                                
PROFAMCHA110901202729202828000059Fish Hooks (HD) Repack - Weekend Mornings @ 8:30                                                                            150                                
PRCFAMCHA110901202828202913000045WUW (HD) Series Promo - Sunday Morning @ 9:30 (Mar                                                                          150                                
PROFAMCHA110901202913202933000020Good Luck Charlie (HD) DuncanBallet - Coming Up Ne                                                                          150                                
PROFAMCHA110901202933202950000017Jessie (HD) Tease - Coming This Fall (Aug 26 - Sep                                                                          150                                
PRCFAMCHA110901202950203008000018Family Summer Bumper (HD) - Beach Ball (June 29-Se                                                                          150                                
PGRFAMCHA110901203008205243002235Disney Good Luck Charlie                          EP: 22                                                               6068807BCC                              
PRCFAMCHA110901205243205313000030FOD (HD) On Demand Online family.ca (Mar2011) (2-3                                                                          150                                
PROFAMCHA110901205313205345000032Wingin It (HD) Angel Retag - Tonight @ 9:30 (Jul20                                                                          150                                
PGRFAMCHA110901205345205732000347MV Non Disney (HD) Cody Simpson - All Day (May 17                                                                      10615120                                
PROFAMCHA110901205732205802000030Disney XD (HD) KB Untamed Stunt - Monday Morning S                                                                          150                                
PROFAMCHA110901205802205832000030Phineas & Ferb DCOM (HD) Popcorn Pix  - Sunday @ N                                                                          150                                
PROFAMCHA110901205832205902000030Really Me (HD) Generic - Coming Up Next (Apr2011)                                                                           150                                
PROFAMCHA110901205902205946000044So Random Fridays/Sept 2 NOP (HD) Tomorrow Afterno                                                                          150                                
PRCFAMCHA110901205946210002000016Family Summer Bumper (HD) - Bee (June29-Sept3)                                                                              150                                
PGRFAMCHA110901210002212236002234Really Me                                         EP: 08                                                        C35342 1055607ACD3                             
ID FAMCHA110901212236212242000006Astral ID (HD) 50th Anniversary ID (Aug31-Dec31)                                                                            150                                
PROFAMCHA110901212242212257000015Family's Summer Marathons (HD) Continues Tom Morni                                                                          150                                
PROFAMCHA110901212257212342000045Parmalat                                                                                                                    150                                
PROFAMCHA110901212342212412000030So Random (HD) Girl Sell - New Episode Tomorrow Ni                                                                          150                                
PGRFAMCHA110901212412212758000346MV Non Disney (HD) Tyler Medeiros - Say I Love You                                                                     10615120                                
PROFAMCHA110901212758212843000045Really Me (HD) Julia - New Episode Tomorrow Night                                                                           150                                
PROFAMCHA110901212843212913000030Wingin It (HD) Season 2 Promo - Coming Up Next (Ja                                                                          150                                
PROFAMCHA110901212913212949000036Labour Day Stunt Promo (HD) Monday Afternoon Start                                                                          150                                
PRCFAMCHA110901212949213003000014Family Summer Bumper (HD) - Mole (June 29-Sept3)                                                                            150                                
PGRFAMCHA110901213003215237002234Wingin' It                                        EP: 03                                                        C32356 1055607ACD3                             
PROFAMCHA110901215237215315000038Rock to the Top Wingin' It (HD) New Episodes Start                                                                          150                                
PROFAMCHA110901215315215400000045Live Nation                                                                                                                 150                                
PROFAMCHA110901215400215438000038xThat's So Raven (HD) Dance Retag - Tonight @ 10:3                                                                          150                                
PROFAMCHA110901215438215501000023WOWP (HD) Harper Retag - New Episode Tomorrow Nigh                                                                          150                                
PGRFAMCHA110901215501215546000045MV Disney (HD) Phineas & Ferb DCOM - Everything is                                                                     60685120                                
PROFAMCHA110901215546215644000058ANT Farm (HD) Comedy Sell - New Episode Tomorrow N                                                                          150                                
PROFAMCHA110901215644215729000045xSuite Life Movie (HD) Trailer CD - Saturday @ Noo                                                                          150                                
PROFAMCHA110901215729215809000040DEBRA! (HD) Refresh - Weekend Afternoons @ 4:00 (M                                                                          150                                
PROFAMCHA110901215809215854000045Elephant Princess (HD) Refresh - New Episode Comin                                                                          150                                
PROFAMCHA110901215854215924000030Disney XD (HD) Kick Buttowski - Catch it on DXD (w                                                                          150                                
PRCFAMCHA110901215924215940000016Family Summer Bumper (HD) - Popsicle (June 29-Sept                                                                          150                                
PGRFAMCHA110901215940222414002434The Elephant Princess                             EP: 21                                                               7028507ACC                              
ID FAMCHA110901222414222420000006Astral ID (HD) 50th Anniversary ID (Aug31-Dec31)                                                                            150                                
PROFAMCHA110901222420222443000023So Random Fridays (HD) What Are SRF "Tiffany" - Ev                                                                          150                                
PROFAMCHA110901222443222528000045Parmalat                                                                                                                    150                                
PROFAMCHA110901222528222604000036xNed's DSSG (HD) School Tour Retag - Tonight @ 11:                                                                          150                                
PROFAMCHA110901222604222644000040Good Luck Charlie (HD) Refresh - New Episode Tomor                                                                          150                                
PROFAMCHA110901222644222743000059Fish Hooks (HD) Repack - Weekend Mornings @ 8:30                                                                            150                                
PROFAMCHA110901222743222758000015SWAC (HD) S2 Generic - Weekend Mornings @ 10:30 (J                                                                          150                                
PROFAMCHA110901222758222833000035D-JR Promo - Handy Manny - Get more on the channel                                                                          150                                
PROFAMCHA110901222833222911000038xThat's So Raven (HD) Dance Retag - Coming Up Next                                                                          150                                
PROFAMCHA110901222911222928000017Jessie (HD) Tease - Coming This Fall (Aug 26 - Sep                                                                          150                                
PRCFAMCHA110901222928222944000016Family Summer Bumper (HD) - Strawberry/Lady Bug (J                                                                          150                                
ID FAMCHA110901222944222949000005xMagic of Disney Bumper (HD)(:5-:6) (Jan 2011)                                                                              150                                
PGRFAMCHA110901222949223244000255That's So Raven                                   EPS # 1-037                                                          6068607BCC                              
PGRFAMCHA110901223244223848000604That's So Raven                                   EPS # 1-037                                                          6068607BCC                              
PGRFAMCHA110901223848225013001125That's So Raven                                   EPS # 1-037                                                          6068607BCC                              
PGRFAMCHA110901225013225227000214That's So Raven                                   EPS # 1-037                                                          6068607BCC                              
PROFAMCHA110901225227225249000022Family.ca (HD) "Hot Ticket" Game Promo (March 15 -                                                                          150                                
PROFAMCHA110901225249225334000045Really Me (HD) Julia - New Episode Tomorrow Night                                                                           150                                
PGRFAMCHA110901225334225710000336MV Non Disney (HD) Cody Simpson - On My Mind (Jul                                                                      10615120                                
PROFAMCHA110901225710225754000044ANT Farm (HD) Sister Sell - New Episode Tomorrow N                                                                          150                                
PROFAMCHA110901225754225824000030xLemonade Mouth BTS (HD) Popcorn Pix - Tomorrow Ni                                                                          150                                
PROFAMCHA110901225824225900000036xNed's DSSG (HD) School Tour - Coming Up Next (Jan                                                                          150                                
PROFAMCHA110901225900225930000030Disney XD (HD) Zeke & Luther - Catch it on DXD (wi                                                                          150                                
PRCFAMCHA110901225930225948000018Family Summer Bumper (HD) - Tennis Ball (June 29-S                                                                          150                                
PGRFAMCHA110901225948230848000900Ned's Declassified School Survival Guide          EP: 42                                                               2068807B                                
PGRFAMCHA110901230848231220000332Ned's Declassified School Survival Guide          EP: 42                                                               2068807B                                
PGRFAMCHA110901231220231916000656Ned's Declassified School Survival Guide          EP: 42                                                               2068807B                                
PGRFAMCHA110901231916232404000448Ned's Declassified School Survival Guide          EP: 42                                                               2068807B                                
ID FAMCHA110901232404232410000006Astral ID (HD) 50th Anniversary ID (Aug31-Dec31)                                                                            150                                
PROFAMCHA110901232410232421000011LU - 30 - DEREK/MAJORITY RULES 12am (HD) (:9 - :11                                                                          150                                
PROFAMCHA110901232421232459000038Rock to the Top Wingin' It (HD) New Episodes Start                                                                          150                                
PROFAMCHA110901232459232534000035Phineas&Ferb (HD) Candace - Tomorrow Morning @ 8:0                                                                          150                                
PROFAMCHA110901232534232554000020Hannah (HD) Wig Off - Tomorrow Afternoon @ 12:30 (                                                                          150                                
PROFAMCHA110901232554232642000048Shake It Up (HD) Refresh - Weekend Afternoons @ 5:                                                                          150                                
PRCFAMCHA110901232642232727000045WUW (HD) Series Promo - Sunday Morning @ 9:30 (Mar                                                                          150                                
PROFAMCHA110901232727232757000030xSo Random (HD) Girl Sell - Sunday Afternoon @ 3:3                                                                          150                                
PROFAMCHA110901232757232827000030Stella and Sam - Get more Stella & Sam on D-JR the                                                                          150                                
PROFAMCHA110901232827232900000033xLife W D (HD) Undercover REV - Coming Up Next (Ja                                                                          150                                
PROFAMCHA110901232900232944000044So Random Fridays/Sept 2 NOP (HD) Tomorrow Afterno                                                                          150                                
PRCFAMCHA110901232944232956000012Family Summer Bumper (HD) - Worm (June 29-Sept3)                                                                            150                                
PGRFAMCHA110901232956235227002231Life with Derek                                   EP: 16                                                        C26679A1065607BCC                              
PROFAMCHA110901235227235238000011LU - 31 - MAJORITY RULES/SADIE 12:30am (HD) (:9 -                                                                           150                                
PROFAMCHA110901235238235314000036Disney XD (HD) DXD Image Spot - DXD Is...(with Cha                                                                          150                                
PROFAMCHA110901235314235359000045Parmalat                                                                                                                    150                                
PROFAMCHA110901235359235444000045So Random (HD) Boy Sell - New Episode Tomorrow Nig                                                                          150                                
PGRFAMCHA110901235444235802000318MV Disney (HD) Bridgit Mendler - We Can Change the                                                                     60685120                                
PROFAMCHA110901235802235832000030Phineas & Ferb DCOM (HD) Popcorn Pix  - Sunday @ N                                                                          150                                
PROFAMCHA110901235832235913000041Majority Rules (HD) Wade Launch - Coming Up Next (                                                                          150                                
PROFAMCHA110901235913235949000036Labour Day Stunt Promo (HD) Monday Afternoon Start                                                                          150                                
PRCFAMCHA110901235949000003000014Family Summer Bumper (HD) - Mole (June 29-Sept3)                                                                            150                                
PRCFAMCHA110901000003000017000014xDescriptive Video Slate (HD) (Jan 2011)                                                                                    150                                
PGRFAMCHA110901000017002151002134Majority Rules                                    EP: 09                                                        C30283 1065607BCC                              
ID FAMCHA110901002151002157000006Astral ID (HD) 50th Anniversary ID (Aug31-Dec31)                                                                            150                                
PROFAMCHA110901002157002208000011LU - 32 - SADIE/HANNAH @ 1:00am (HD) (:9 - :11) Ja                                                                          150                                
PRCFAMCHA110901002208002238000030FOD (HD) On Demand Online family.ca (Mar2011) (2-3                                                                          150                                
PROFAMCHA110901002238002301000023WOWP (HD) Harper Retag - New Episode Tomorrow Nigh                                                                          150                                
PROFAMCHA110901002301002331000030Pair Of Kings (HD) Kings Speak - Tomorrow Night @                                                                           150                                
PGRFAMCHA110901002331002628000257MV Disney (HD) China Anne McClain - Dynamite (July                                                                     60685120                                
PROFAMCHA110901002628002700000032Wingin It (HD) Angel - Saturday Morning @ 9:30 (Ap                                                                          150                                
PROFAMCHA110901002700002745000045xSuite Life Movie (HD) Trailer CD - Saturday @ Noo                                                                          150                                
PROFAMCHA110901002745002825000040DEBRA! (HD) Refresh - New Episode Sunday Afternoon                                                                          150                                
PROFAMCHA110901002825002850000025JATNP - Get more Jake on D-JR the channel (May2011                                                                          150                                
PROFAMCHA110901002850002919000029xNaturally Sadie (HD) Clip May08 - Coming Up Next                                                                           150                                
PROFAMCHA110901002919002941000022So Random Fridays (HD) What Are SRF "Sterling" - E                                                                          150                                
PRCFAMCHA110901002941002959000018Family Summer Bumper (HD) - Beach Ball (June 29-Se                                                                          150                                
PGRFAMCHA110901002959005230002231Naturally, Sadie                                  EP: 38                                                        C25428 1065607ACC                              
PROFAMCHA110901005230005241000011LU - 33 - HANNAH/CORY 1:25am (HD) (:9 - :11) Jan 2                                                                          150                                
PROFAMCHA110901005241005301000020Disney XD (HD) Kickin' It - Saturday Night @ 7:30                                                                           150                                
PROFAMCHA110901005301005331000030Really Me (HD) Generic - New Episode Tomorrow Nigh                                                                          150                                
PGRFAMCHA110901005331005717000346MV Non Disney (HD) Tyler Medeiros - Say I Love You                                                                     10615120                                
PROFAMCHA110901005717005815000058ANT Farm (HD) Comedy Sell - New Episode Tomorrow N                                                                          150                                
PROFAMCHA110901005815005845000030xLemonade Mouth BTS (HD) Popcorn Pix - Tomorrow Ni                                                                          150                                
PROFAMCHA110901005845005929000044xHannah (HD) Refresh - Coming Up Next (May2011)                                                                             150                                
PROFAMCHA110901005929005946000017Jessie (HD) Tease - Coming This Fall (Aug 26 - Sep                                                                          150                                
PRCFAMCHA110901005946010002000016Family Summer Bumper (HD) - Bee (June29-Sept3)                                                                              150                                
PGRFAMCHA110901010002012234002232Hannah Montana                                    EP: 04                                                               6068707BCC                              
ID FAMCHA110901012234012240000006Astral ID (HD) 50th Anniversary ID (Aug31-Dec31)                                                                            150                                
PROFAMCHA110901012240012251000011LU - 34 - CORY/PHIL OF THE FUTURE 1:45am (HD) (:9                                                                           150                                
PRCFAMCHA110901012251012307000016Family Summer Bumper (HD) - Popsicle (June 29-Sept                                                                          150                                
PGRFAMCHA110901012307012528000221Disney Cory in the House                          EP: 15                                                               6068607BCC                              
PGRFAMCHA110901012528013412000844Disney Cory in the House                          EP: 15                                                               6068607BCC                              
PGRFAMCHA110901013412014416001004Disney Cory in the House                          EP: 15                                                               6068607BCC                              
PGRFAMCHA110901014416014543000127Disney Cory in the House                          EP: 15                                                               6068607BCC                              
PROFAMCHA110901014543014554000011LU - 35 - PHIL OF THE FUTURE/LIZZIE MCGUIRE 2:10am                                                                          150                                
PRCFAMCHA110901014554014610000016Family Summer Bumper (HD) - Strawberry/Lady Bug (J                                                                          150                                
ID FAMCHA110901014610014615000005xMagic of Disney Bumper (HD)(:5-:6) (Jan 2011)                                                                              150                                
PGRFAMCHA110901014615020849002234Phil of the Future                                EPS # 13                                                             6068607BCC                              
ID FAMCHA110901020849020855000006Astral ID (HD) 50th Anniversary ID (Aug31-Dec31)                                                                            150                                
PROFAMCHA110901020855020906000011LU - 36 - LIZZIE MCGUIRE/DEREK 2:30am (HD) (:9 - :                                                                          150                                
PRCFAMCHA110901020906020924000018Family Summer Bumper (HD) - Tennis Ball (June 29-S                                                                          150                                
ID FAMCHA110901020924020929000005xMagic of Disney Bumper (HD)(:5-:6) (Jan 2011)                                                                              150                                
PGRFAMCHA110901020929023200002231Lizzie McGuire                                    EP: 17                                                               6068607BCC                              
PROFAMCHA110901023200023210000010LU - 37 - DEREK/CORY 2:55am (HD) (:9 - :11) Jan201                                                                          150                                
PRCFAMCHA110901023210023222000012Family Summer Bumper (HD) - Worm (June 29-Sept3)                                                                            150                                
PGRFAMCHA110901023222025452002230Life with Derek                                   EP: 07                                                        C23968A1065607BCC                              
ID FAMCHA110901025452025458000006Astral ID (HD) 50th Anniversary ID (Aug31-Dec31)                                                                            150                                
PROFAMCHA110901025458025509000011LU - 38 - CORY/RAVEN 3:20am (HD) (:9 - :11) Jan201                                                                          150                                
PRCFAMCHA110901025509025527000018Family Summer Bumper (HD) - Beach Ball (June 29-Se                                                                          150                                
PGRFAMCHA110901025527030155000628Disney Cory in the House                          EP: 16                                                               6068607BCC                              
PGRFAMCHA110901030155030538000343Disney Cory in the House                          EP: 16                                                               6068607BCC                              
PGRFAMCHA110901030538031027000449Disney Cory in the House                          EP: 16                                                               6068607BCC                              
PGRFAMCHA110901031027031802000735Disney Cory in the House                          EP: 16                                                               6068607BCC                              
PROFAMCHA110901031802031813000011LU - 39 - RAVEN/SLZC 3:40am (HD) (:9 - :11) Jan201                                                                          150                                
PRCFAMCHA110901031813031829000016Family Summer Bumper (HD) - Bee (June29-Sept3)                                                                              150                                
ID FAMCHA110901031829031834000005xMagic of Disney Bumper (HD)(:5-:6) (Jan 2011)                                                                              150                                
PGRFAMCHA110901031834032210000336That's So Raven                                   EPS # 1-042                                                          6068607BCC                              
PGRFAMCHA110901032210032809000559That's So Raven                                   EPS # 1-042                                                          6068607BCC                              
PGRFAMCHA110901032809033844001035That's So Raven                                   EPS # 1-042                                                          6068607BCC                              
PGRFAMCHA110901033844034111000227That's So Raven                                   EPS # 1-042                                                          6068607BCC                              
ID FAMCHA110901034111034117000006Astral ID (HD) 50th Anniversary ID (Aug31-Dec31)                                                                            150                                
PROFAMCHA110901034117034128000011LU - 40 - SLZC/DEREK 4:05am (HD) (:9 - :11) Jan201                                                                          150                                
PRCFAMCHA110901034128034142000014Family Summer Bumper (HD) - Mole (June 29-Sept3)                                                                            150                                
ID FAMCHA110901034142034147000005xMagic of Disney Bumper (HD)(:5-:6) (Jan 2011)                                                                              150                                
PGRFAMCHA110901034147040425002238The Suite Life of Zack and Cody                   EP: 37                                                               6068607BCC                              
PROFAMCHA110901040425040436000011LU - 41 - LIFE WITH DEREK (HD) (:9 - :11) Jan2011                                                                           150                                
PRCFAMCHA110901040436040452000016Family Summer Bumper (HD) - Popsicle (June 29-Sept                                                                          150                                
PGRFAMCHA110901040452042723002231Life with Derek                                   EP: 17                                                        C26679A1065607BCC                              
ID FAMCHA110901042723042729000006Astral ID (HD) 50th Anniversary ID (Aug31-Dec31)                                                                            150                                
PROFAMCHA110901042729042759000030D-JR Promo - On demand online REVISED - D-JR.ca (M                                                                          150                                
PROFAMCHA110901042759042829000030Stella and Sam - Get more Stella & Sam on D-JR the                                                                          150                                
PROFAMCHA110901042829042859000030D-JR - Standalone ID - Regal (May2011)                                                                                      150                                
PROFAMCHA110901042859042929000030D-JR Promo - MMCH - Get more MMCH on D-JR the chan                                                                          150                                
PROFAMCHA110901042929042954000025JATNP - Get more Jake on D-JR the channel (May2011                                                                          150                                
PROFAMCHA110901042954042959000005D-JR - Station ID (:05) (May2011)                                                                                           150                                
OFFFAMCHA110901042959043000000001OFF AIR                                                                                                                                                        
