SO FAMCHA030701043000043011000011Sign On (oct 1)                                                                                                                                                
PROFAMCHA030701043011043020000009CC Disclaimer - FAST - Family (:08-:10)                                                                                     150                                
PGRFAMCHA030701043020045313002253Franklin                                          Franklin's Family Treasure/Franklin's Music Lesson            B13645A1065607ECC                              
PROFAMCHA030701045313045327000014Preschool - 01(PH) - ART/KATIE/FRANKLIN (:13-:16)                                                                           150                                
OFFFAMCHA030701045327045340000013PS Playhouse Block Open (:10-:15)                                                                                                                              
PGRFAMCHA030701045340051026001646Art Attack                                        1-143                                                               A60686110                                
PROFAMCHA030701051026051040000014Preschool - 02(PH) - KATIE/FRANKLIN/RIPLEY (:13-:1                                                                          150                                
PRCFAMCHA030701051040051118000038Katie & Orbie (ICEBERG) - Coming Up                                                                                         150                                
INTFAMCHA030701051118051248000130Disney Circle Time - Growing Smiles (anywhere but                                                                      60688120                                
OFFFAMCHA030701051248051300000012PS Playhouse Block Open (:10-:15)                                                                                                                              
PGRFAMCHA030701051300053932002632Katie And Orbie                                   Sore Throat/The Lemonade Stand/Where Have All The             P16144A1065607E                                
PROFAMCHA030701053932053946000014Preschool - 03(PH) - FRANKLIN/RIPLEY/HOZE (:13-:16                                                                          150                                
OFFFAMCHA030701053946054000000014PS Playhouse Block Open (:10-:15)                                                                                                                              
PROFAMCHA030701054000054009000009CC Disclaimer - FAST - Family.ca (:08-:10)                                                                                  150                                
PGRFAMCHA030701054009060302002253Franklin                                          Franklin Takes A Trip/Franklin's Bicycle Helmet               B13646A1065607ECC                              
PROFAMCHA030701060302060316000014Preschool - 04(PG) - RIPLEY/HOZE/BUZZ (:13-:16)                                                                             150                                
PRCFAMCHA030701060316060348000032Hoze Houndz (GROCERIES) - Today @ 6:30am                                                                                    150                                
OFFFAMCHA030701060348060400000012PS Playground Block Open (:10-:15) *DNU POST AUG 1                                                                                                             
PROFAMCHA030701060400060409000009CC Disclaimer - FAST - Generic (:08-:10)                                                                                    150                                
PGRFAMCHA030701060409062839002430Ripley's Believe It Or Not!                       A Helping Hand                                                B71302 1065607ECC                              
PROFAMCHA030701062839062851000012Preschool - 05(PG) - HOZE/BUZZ (:10-:13)                                                                                    150                                
PROFAMCHA030701062851062915000024Legend of Tarzan (S.O.S) - Today @ 4:15pm                                                                                   150                                
PRCFAMCHA030701062915062947000032Hoze Houndz (GROCERIES) - Coming Up (PG)                                                                                    150                                
OFFFAMCHA030701062947063000000013PS Playground Block Open (:10-:15) *DNU POST AUG 1                                                                                                             
PROFAMCHA030701063000063009000009CC Disclaimer - FAST - Family (:08-:10)                                                                                     150                                
PGRFAMCHA030701063009065247002238Hoze Houndz                                       Hello My Baby/Eraserback                                      A63392A1065607ECC                              
PROFAMCHA030701065247065301000014Preschool - 06(PB) - BUZZ/PRLR/PRWF (:13-:16)                                                                               150                                
PROFAMCHA030701065301065313000012Buzz Lightyear (SPACE RANGER) - Coming Up                                                                                   150                                
PROFAMCHA030701065313065358000045Lizzie McGuire (MAGIC TRICK) - Today @ 5:35pm                                                                               150                                
INTFAMCHA030701065358065818000420Art Attack - Genie                                                                                                     60686120                                
PROFAMCHA030701065818065917000059Boy Meets World (DANCE) - Tonight @ 8pm                                                                                     150                                
PROFAMCHA030701065917065947000030Popcorn Pix Movie Promo - Fridays @ 7:30pm                                                                                  150                                
OFFFAMCHA030701065947070000000013PS Power Box Block Open (:10-:15)                                                                                                                              
PGRFAMCHA030701070000072243002243Disney/Pixar's Buzz Lightyear of Star Command     Return to Karn                                                      A6068607E                                
PROFAMCHA030701072243072257000014Preschool - 07(PB) - PRLR/PRWF/HOM (:13-:16)                                                                                150                                
PROFAMCHA030701072257072327000030PR Lightspeed Rescue - Coming Up                                                                                            150                                
PRCFAMCHA030701072327072357000030Mentors (EVERYONE) - Tonight @ 8:30pm                                                                                       150                                
INTFAMCHA030701072357072838000441Art Attack - Horse                                                                                                     60686120                                
PROFAMCHA030701072838072917000039Power Box (WEEKDAYS) - Weekdays, Starting @ 7am                                                                             150                                
PROFAMCHA030701072917072947000030Nightly Pix Block Promo - Tonight @ 9pm                                                                                     150                                
OFFFAMCHA030701072947073000000013PS Power Box Block Open (:10-:15)                                                                                                                              
PGRFAMCHA030701073000075129002129Power Rangers Lightspeed Rescue                   Go Volcanic                                                         A6068607E                                
PROFAMCHA030701075129075141000012Preschool - 08(PB) - PRWF/HOM (:10-:13)                                                                                     150                                
PROFAMCHA030701075141075211000030Popcorn Pix Movie Promo - Fridays @ 7:30pm                                                                                  150                                
PROFAMCHA030701075211075241000030Lizzie McGuire (MATT) - Today @ 5:35pm                                                                                      150                                
PGRFAMCHA030701075241075741000500Movie Surfers Finding Nemo #1                                                                                          60688150                                
PROFAMCHA030701075741075811000030Even Stevens (NEW) - Tonight @ 7pm                                                                                          150                                
PROFAMCHA030701075811075841000030All That (NEW) - Tonight @ 6:30pm                                                                                           150                                
PROFAMCHA030701075841075918000037Kim Possible (RON THE MAN) - Weekends @ 4:35pm                                                                              150                                
PROFAMCHA030701075918075948000030Out To Lunch Block Promo - Today @ 11:50am                                                                                  150                                
OFFFAMCHA030701075948080000000012PS Power Box Block Open (:10-:15)                                                                                                                              
PGRFAMCHA030701080000082129002129Power Rangers Wild Force                          The Flute                                                           A6068607E                                
PROFAMCHA030701082129082139000010Preschool - 09(PB) - HOM (:08-:11)                                                                                          150                                
PROFAMCHA030701082139082209000030Popcorn Pix Movie Promo - Fridays @ 7:30pm                                                                                  150                                
PROFAMCHA030701082209082219000010FAMJAM - Open                                                                                                               150                                
INTFAMCHA030701082219082600000341MV Disney - Mambo #5 (LOU BEGA)                                                                                        60688120                                
PROFAMCHA030701082600082614000014FAMJAM - Close (FAMILY)                                                                                                     150                                
PROFAMCHA030701082614082644000030Out To Lunch Block Promo - Today @ 11:50am                                                                                  150                                
INTFAMCHA030701082644082918000234Art Attack - Shopping Cart                                                                                             60686120                                
PROFAMCHA030701082918082948000030Even Stevens (NEW) - Tonight @ 7pm                                                                                          150                                
OFFFAMCHA030701082948083000000012PS Power Box Block Open (:10-:15)                                                                                                                              
PROFAMCHA030701083000083009000009CC Disclaimer - FAST - Family.ca (:08-:10)                                                                                  150                                
PGRFAMCHA030701083009085244002235Disney's House Of Mouse                           The Stolen Cartoons                                                  6068607ECC                              
PROFAMCHA030701085244085258000014Preschool - 10(PH) - ELMO/KATIE/STANLEY (:13-:16)                                                                           150                                
PRCFAMCHA030701085258085350000052Elmo's World (MISS MUFFET) - Coming Up                                                                                      150                                
INTFAMCHA030701085350085447000057Frankenguy and the Professor - dog                                                                                     60688120                                
OFFFAMCHA030701085447085500000013PS Playhouse Block Open (:10-:15)                                                                                                                              
PGRFAMCHA030701085500091028001528Elmo's World                                      Families                                                            A2068607G                                
PROFAMCHA030701091028091042000014Preschool - 11(PH-TT) - KATIE/STANLEY/BOP (:13-:16                                                                          150                                
PRCFAMCHA030701091042091120000038Katie & Orbie (ICEBERG) - Coming Up                                                                                         150                                
INTFAMCHA030701091120091331000211MV Disney - Right Back Where We Started From (CLEO                                                                     60688120                                
PRCFAMCHA030701091331091349000018New Adv WTP (PIGLET) - Today @ 10:10am                                                                                      150                                
OFFFAMCHA030701091349091400000011PS Playhouse Block Open (:10-:15)                                                                                                                              
PROFAMCHA030701091400091409000009CC Disclaimer - FAST - Generic (:08-:10)                                                                                    150                                
PGRFAMCHA030701091409094047002638Katie And Orbie                                   Mrs Parette's Necklace/Orbie and the Pumpkin Seed/            C19664A1055607ECC3                             
PROFAMCHA030701094047094101000014Preschool - 12(PH-TT) - STANLEY/BOP/OOTB (:13-:16)                                                                          150                                
PRCFAMCHA030701094101094126000025New Adv WTP (TALK BACK) - Today @ 10:10am                                                                                   150                                
PROFAMCHA030701094126094216000050Art Attack (BASEBALL) - Weekends @ 3pm                                                                                      150                                
PRCFAMCHA030701094216094247000031Franklin (HANKY) - Today @ 11am                                                                                             150                                
OFFFAMCHA030701094247094300000013PS Playhouse Block Open (:10-:15)                                                                                                                              
PROFAMCHA030701094300094309000009CC Disclaimer - FAST - Family (:08-:10)                                                                                     150                                
PGRFAMCHA030701094309100707002358Stanley                                           Camel Commotion/There's Snow Place Like Home                        A6068607ECC                              
PROFAMCHA030701100707100721000014Preschool - 13(PH-TT) - BOP/OOTB/FRANKLIN (:13-:16                                                                          150                                
PRCFAMCHA030701100721100737000016Book of Pooh (SUGGESTION BOX) - Coming Up                                                                                   150                                
PRCFAMCHA030701100737100805000028Elmo's World (BUGGED) - Today @ 12:35pm                                                                                     150                                
PROFAMCHA030701100805100840000035Playhouse - KATIE & ORBIE - Did You Know?                                                                                   150                                
OFFFAMCHA030701100840100852000012PS Playhouse Block Open (:10-:15)                                                                                                                              
ID FAMCHA030701100852100900000008Magic of Disney - PLAYHOUSE - Shape (:06-:09)                                                                               150                                
PGRFAMCHA030701100900103305002405Book Of Pooh; The                                 Chez Piglet/Pandora's Suggestion Box                                A6068607G                                
PROFAMCHA030701103305103319000014Preschool - 14(PH) - OOTB/FRANKLIN/DUCKTALES (:13-                                                                          150                                
PRCFAMCHA030701103319103347000028Elmo's World (BUGGED) - Today @ 12:35pm                                                                                     150                                
OFFFAMCHA030701103347103400000013PS Playhouse Block Open (:10-:15)                                                                                                                              
PGRFAMCHA030701103400105804002404Out of the Box                                    Horsing Around                                                      A6068607A                                
PROFAMCHA030701105804105818000014Preschool - 15(PH) - FRANKLIN/DUCKTALES/AMANDA (:1                                                                          150                                
PRCFAMCHA030701105818105849000031Franklin (HANKY) - Coming Up                                                                                                150                                
PROFAMCHA030701105849105916000027Playhouse - OUT OF THE BOX - Word Song *DNU*                                                                                150                                
PRCFAMCHA030701105916105946000030Katie & Orbie (ORBIE) - Today @ 12:55pm                                                                                     150                                
OFFFAMCHA030701105946110000000014PS Playhouse Block Open (:10-:15)                                                                                                                              
PROFAMCHA030701110000110009000009CC Disclaimer - FAST - Family.ca (:08-:10)                                                                                  150                                
PGRFAMCHA030701110009112302002253Franklin                                          Franklin's Birthday Party/Franklin's Nickname                 B13647A1065607ECC                              
PROFAMCHA030701112302112314000012Preschool - 16(PH) - DUCKTALES/AMANDA (:10-:13)                                                                             150                                
PRCFAMCHA030701112314112352000038Katie & Orbie (SUN) - Today @ 12:55pm                                                                                       150                                
PROFAMCHA030701112352112422000030Playhouse - FRANKLIN - Skunk                                                                                                150                                
PRCFAMCHA030701112422112449000027New Adv WTP (TOOTH) - Tomorrow @ 10:10am                                                                                    150                                
OFFFAMCHA030701112449112500000011PS Playhouse Block Open (:10-:15)                                                                                                                              
PROFAMCHA030701112500112509000009CC Disclaimer - FAST - Generic (:08-:10)                                                                                    150                                
PGRFAMCHA030701112509114755002246Disney's DuckTales                                My Mother The Psychic                                               A6068607ECC                              
PROFAMCHA030701114755114809000014Preschool - 17(OTL) - AMANDA/RECESS/ELMO (:13-:16)                                                                          150                                
PROFAMCHA030701114809114839000030Out To Lunch Block Promo - Coming Up (AMANDA)                                                                               150                                
PROFAMCHA030701114839114918000039Power Box (WEEKDAYS) - Weekdays, Starting @ 7am                                                                             150                                
PROFAMCHA030701114918114948000030xxPopcorn Pix Double Scoop - JUL04 - Friday                                                                                 150                                
OFFFAMCHA030701114948115000000012PS Out To Lunch Block Open (:10-:15) *DNU POST AUG                                                                                                             
PGRFAMCHA030701115000121205002205Amanda Show; The                                  2-024                                                               A20686090                                
PROFAMCHA030701121205121219000014Preschool - 18(OTL) - RECESS/ELMO/KATIE (:13-:16)                                                                           150                                
PROFAMCHA030701121219121234000015Weekenders (REALITY) - Today @ 4:40pm                                                                                       150                                
PRCFAMCHA030701121234121304000030Rugrats Go Wild! Contest - In Theatres Now                                                                                  150                                
PROFAMCHA030701121304121314000010FAMJAM - Open                                                                                                               150                                
INTFAMCHA030701121314121414000100MV Disney - I Can't Wait (HILARY DUFF)                                                                                 60688120                                
PROFAMCHA030701121414121428000014FAMJAM - Close (WEB)                                                                                                        150                                
PROFAMCHA030701121428121448000020Amanda Show (LOBSTERS) - Tonight @ 6pm                                                                                      150                                
OFFFAMCHA030701121448121500000012PS Out To Lunch Block Open (:10-:15) *DNU POST AUG                                                                                                             
PGRFAMCHA030701121500123735002235Disney's Recess                                   The Big Prank/Hustler's Apprentice                                   6068607E                                
PROFAMCHA030701123735123749000014Preschool - 19(PH) - ELMO/KATIE/OOTB (:13-:16)                                                                              150                                
OFFFAMCHA030701123749123800000011PS Playhouse Block Open (:10-:15)                                                                                                                              
PGRFAMCHA030701123800125332001532Elmo's World                                      Bicycles                                                            A2068607G                                
PROFAMCHA030701125332125346000014Preschool - 20(PH) - KATIE/OOTB/HOZE (:13-:16)                                                                              150                                
PRCFAMCHA030701125346125424000038Katie & Orbie (SUN) - Coming Up                                                                                             150                                
PROFAMCHA030701125424125459000035Playhouse - KATIE & ORBIE - Discoveries                                                                                     150                                
PRCFAMCHA030701125459125547000048New Adv WTP (FOREST) - Tomorrow @ 10:10am                                                                                   150                                
OFFFAMCHA030701125547125600000013PS Playhouse Block Open (:10-:15)                                                                                                                              
PROFAMCHA030701125600125609000009CC Disclaimer - FAST - Family (:08-:10)                                                                                     150                                
PGRFAMCHA030701125609132247002638Katie And Orbie                                   Chill/Christian/Seventh Wave                                  C19664A1055607ECC3                             
PROFAMCHA030701132247132301000014Preschool - 21(PH) - OOTB/HOZE/GOOF (:13-:16)                                                                               150                                
OFFFAMCHA030701132301132311000010PS Playhouse Block Open (:10-:15)                                                                                                                              
PGRFAMCHA030701132311134712002401Out of the Box                                    Making Mistakes                                                     A6068607A                                
PROFAMCHA030701134712134726000014Preschool - 22(PG) - HOZE/GOOF/DUCKTALES (:13-:16)                                                                          150                                
PRCFAMCHA030701134726134748000022Hoze Houndz (TELEPHONE) - Coming Up (PG)                                                                                    150                                
OFFFAMCHA030701134748134800000012PS Playground Block Open (:10-:15) *DNU POST AUG 1                                                                                                             
PROFAMCHA030701134800134809000009CC Disclaimer - FAST - Family.ca (:08-:10)                                                                                  150                                
PGRFAMCHA030701134809141047002238Hoze Houndz                                       Employee Of The Month/Hozerdysseus                            A63400A1065607ECC                              
PROFAMCHA030701141047141059000012Preschool - 23(PG) - GOOF/DUCKTALES (:10-:13)                                                                               150                                
PROFAMCHA030701141059141123000024Legend of Tarzan (S.O.S) - Today @ 4:15pm                                                                                   150                                
PRCFAMCHA030701141123141140000017Hoze Houndz (RUNNING) - Tomorrow @ 1:45pm                                                                                   150                                
OFFFAMCHA030701141140141152000012PS Playground Block Open (:10-:15) *DNU POST AUG 1                                                                                                             
ID FAMCHA030701141152141200000008Magic of Disney - PLAYGROUND - Shape (:06-:09) *DN                                                                          150                                
PROFAMCHA030701141200141209000009CC Disclaimer - FAST - Family (:08-:10)                                                                                     150                                
PGRFAMCHA030701141209143451002242Goof Troop                                        Cabana Fever                                                         6068607ECC                              
PROFAMCHA030701143451143501000010Preschool - 24(PG) - DUCKTALES (:08-:11)                                                                                    150                                
PROFAMCHA030701143501143528000027Pepper Ann (WHO IS SHE?) - Today @ 3:50pm                                                                                   150                                
PROFAMCHA030701143528143547000019Playground - HOZE HOUNDZ - Code Blue                                                                                        150                                
OFFFAMCHA030701143547143600000013PS Playground Block Open (:10-:15) *DNU POST AUG 1                                                                                                             
PROFAMCHA030701143600143609000009CC Disclaimer - FAST - Family.ca (:08-:10)                                                                                  150                                
PGRFAMCHA030701143609145822002213Disney's DuckTales                                Liquid Assets (part 1 - Of Super Ducktales)                         A6068607ECC                              
PROFAMCHA030701145822145836000014MD - 01 - HOUSE/BUZZ/PEPPER (:13-:16)                                                                                       150                                
PRCFAMCHA030701145836145906000030Summer Chill Tour Spot                                                                                                      150                                
PROFAMCHA030701145906145918000012Buzz Lightyear (SPACE RANGER) - Today @ 3:25pm                                                                              150                                
PRCFAMCHA030701145918145948000030Family Birthday Club #1 - ONGOING                                                                                           150                                
OFFFAMCHA030701145948150000000012Mad Dash Block Open (:10-:15)                                                                                                                                  
PGRFAMCHA030701150000152238002238Disney's House Of Mouse                           Dining Goofy                                                        A6068607E                                
PROFAMCHA030701152238152252000014MD - 02 - BUZZ/PEPPER/TARZAN (:13-:16)                                                                                      150                                
PRCFAMCHA030701152252152322000030xxFamily Kicks Contest -3- JUNE 27 TO JULY 03                                                                               150                                
PROFAMCHA030701152322152334000012Buzz Lightyear (SPACE RANGER) - Coming Up                                                                                   150                                
PRCFAMCHA030701152334152404000030Rugrats Go Wild! Contest - In Theatres Now                                                                                  150                                
PROFAMCHA030701152404152416000012Mad Dash - RECESS - Sprinkler                                                                                               150                                
PRCFAMCHA030701152416152446000030Family Popcorn Parties                                                                                                      150                                
OFFFAMCHA030701152446152500000014Mad Dash Block Open (:10-:15)                                                                                                                                  
PROFAMCHA030701152500152509000009CC Disclaimer - FAST - Generic (:08-:10)                                                                                    150                                
PGRFAMCHA030701152509154749002240Disney/Pixar's Buzz Lightyear of Star Command     Inside Job                                                           6068607ECC                              
PROFAMCHA030701154749154803000014MD - 03 - PEPPER/TARZAN/WKNDRS (:13-:16)                                                                                    150                                
PRCFAMCHA030701154803154823000020Lizzie Bullying Bumper #1                                                                                                   150                                
PRCFAMCHA030701154823154853000030Summer Chill Event Promo                                                                                                    150                                
PROFAMCHA030701154853154908000015Weekenders (REALITY) - Today @ 4:40pm                                                                                       150                                
PRCFAMCHA030701154908154938000030NBA Jam #1                                                                                                                  150                                
PROFAMCHA030701154938154950000012Mad Dash - PEPPER ANN - Helmut Hair                                                                                         150                                
OFFFAMCHA030701154950155000000010Mad Dash Block Open (:10-:15)                                                                                                                                  
PROFAMCHA030701155000155009000009CC Disclaimer - FAST - Family (:08-:10)                                                                                     150                                
PGRFAMCHA030701155009161258002249Disney's Pepper Ann                               Crush & Burn/Soccer Season                                           6068607ECC                              
PROFAMCHA030701161258161311000013MD - 04 - TARZAN/WKNDRS/RECESS (:13-:16)                                                                                    150                                
PRCFAMCHA030701161311161341000030xxFamily Kicks Contest -3- JUNE 27 TO JULY 03                                                                               150                                
PRCFAMCHA030701161341161411000030Family Popcorn Parties                                                                                                      150                                
PRCFAMCHA030701161411161441000030Summer Chill Tour Spot                                                                                                      150                                
PRCFAMCHA030701161441161451000010Popcorn Pix Double Scoop Web Throw                                                                                          150                                
PRCFAMCHA030701161451161521000030NBA Jam #2                                                                                                                  150                                
PRCFAMCHA030701161521161551000030Rugrats Go Wild! Contest - In Theatres Now                                                                                  150                                
OFFFAMCHA030701161551161601000010Mad Dash Block Open (:10-:15)                                                                                                                                  
PGRFAMCHA030701161601163848002247Disney's The Legend of Tarzan                     Jungle Madness                                                      A6068607E                                
PROFAMCHA030701163848163902000014MD - 05 - WKNDRS/RECESS/LIZZIE (:13-:16)                                                                                    150                                
PRCFAMCHA030701163902163922000020Lizzie Bullying Bumper #2                                                                                                   150                                
PRCFAMCHA030701163922163952000030Family Popcorn Parties                                                                                                      150                                
PRCFAMCHA030701163952164022000030Summer Chill Contest                                                                                                        150                                
PRCFAMCHA030701164022164052000030Family Birthday Club #2 - JUNE 16 TO AUGUST 31                                                                              150                                
PROFAMCHA030701164052164118000026Boy Meets World (SHAWN) - Tonight @ 8pm                                                                                     150                                
PRCFAMCHA030701164118164148000030Rugrats Go Wild! Contest - In Theatres Now                                                                                  150                                
OFFFAMCHA030701164148164200000012Mad Dash Block Open (:10-:15)                                                                                                                                  
PROFAMCHA030701164200164209000009CC Disclaimer - FAST - Family.ca (:08-:10)                                                                                  150                                
PGRFAMCHA030701164209170442002233Disney's The Weekenders                           Tickets/Vengence                                                    A6068607ECC                              
PROFAMCHA030701170442170456000014MD - 06 - RECESS/LIZZIE/AMANDA (:13-:16)                                                                                    150                                
PROFAMCHA030701170456170526000030Nightly Pix Block Promo - Tonight @ 9pm                                                                                     150                                
PRCFAMCHA030701170526170556000030Summer Chill Event Promo                                                                                                    150                                
PROFAMCHA030701170556170626000030Even Stevens (NEW) - Tonight @ 7pm                                                                                          150                                
PRCFAMCHA030701170626170656000030NBA Jam #2                                                                                                                  150                                
PROFAMCHA030701170656170719000023Mad Dash - WEEKENDERS - Pizza                                                                                               150                                
PRCFAMCHA030701170719170749000030Rugrats Go Wild! Contest - In Theatres Now                                                                                  150                                
OFFFAMCHA030701170749170800000011Mad Dash Block Open (:10-:15)                                                                                                                                  
PGRFAMCHA030701170800173036002236Disney's Recess                                   More Like Gretchen/Prince Randall                                   A6068607E                                
PROFAMCHA030701173036173050000014MD - 07 - LIZZIE/AMANDA/ALLTHAT (:13-:16)                                                                                   150                                
PROFAMCHA030701173050173120000030Popcorn Pix Movie Promo - Fridays @ 7:30pm                                                                                  150                                
PRCFAMCHA030701173120173140000020Lizzie Bullying Bumper #1                                                                                                   150                                
PROFAMCHA030701173140173152000012Mad Dash - PEPPER ANN - Helmut Hair                                                                                         150                                
PRCFAMCHA030701173152173222000030Summer Chill Event Promo                                                                                                    150                                
PROFAMCHA030701173222173249000027Even Stevens (GOLF) - Tonight @ 7pm                                                                                         150                                
PRCFAMCHA030701173249173309000020Sun-Rype Fruit To Go Event - JUN9 TO AUG3                                                                                   150                                
PRCFAMCHA030701173309173339000030Rugrats Go Wild! Contest - In Theatres Now                                                                                  150                                
OFFFAMCHA030701173339173352000013Mad Dash Block Open (:10-:15)                                                                                                                                  
ID FAMCHA030701173352173400000008Magic of Disney - MAD DASH - Wipe (:06-:09)                                                                                 150                                
PGRFAMCHA030701173400175635002235Lizzie McGuire                                    Lizzie Strikes Out                                                  A6068607B                                
PROFAMCHA030701175635175649000014NS - MON-THURS - 01 - AMNDA/ALL/EVEN (:13-:16)                                                                              150                                
PROFAMCHA030701175649175719000030Nightly Pix Block Promo - Tonight @ 9pm                                                                                     150                                
PRCFAMCHA030701175719175749000030Summer Chill Contest                                                                                                        150                                
PROFAMCHA030701175749175819000030All That (NEW) - Tonight @ 6:30pm                                                                                           150                                
PRCFAMCHA030701175819175849000030NBA Jam #1                                                                                                                  150                                
PROFAMCHA030701175849175948000059Boy Meets World (DANCE) - Tonight @ 8pm                                                                                     150                                
OFFFAMCHA030701175948180000000012Nonstop Block Open (:10-:15)                                                                                                                                   
PGRFAMCHA030701180000182206002206Amanda Show; The                                  2-025                                                               A20686090                                
ID FAMCHA030701182206182209000003Astral "A Network Of" Logo - English Animation                                                                              150                                
PROFAMCHA030701182209182225000016NS - MON-THURS - 02 - ALL/EVEN/JETT (:13-:16)                                                                               150                                
PROFAMCHA030701182225182255000030Nightly Pix Block Promo - Tonight @ 9pm                                                                                     150                                
PRCFAMCHA030701182255182315000020Lizzie Bullying Bumper #2                                                                                                   150                                
PGRFAMCHA030701182315182815000500Movie Surfers Finding Nemo #2                                                                                          60688150                                
PROFAMCHA030701182815182845000030Even Stevens (NEW) - Tonight @ 7pm                                                                                          150                                
PRCFAMCHA030701182845182915000030Summer Chill Event Promo                                                                                                    150                                
PRCFAMCHA030701182915182945000030Mentors (EVERYONE) - Tonight @ 8:30pm                                                                                       150                                
OFFFAMCHA030701182945183000000015Nonstop Block Open (:10-:15)                                                                                                                                   
PGRFAMCHA030701183000185000002000All That                                          826                                                                 A20686090                                
PROFAMCHA030701185000185014000014NS - MON-THURS - 03 - EVEN/JETT/BMW (:13-:16)                                                                               150                                
PROFAMCHA030701185014185044000030Nightly Pix Block Promo - Tonight @ 9pm                                                                                     150                                
PRCFAMCHA030701185044185114000030xxFamily Kicks Contest -3- JUNE 27 TO JULY 03                                                                               150                                
PROFAMCHA030701185114185125000011Nonstop - ALL THAT - Boring                                                                                                 150                                
PROFAMCHA030701185125185155000030PR Lightspeed Rescue - Tomorrow @ 7:30am                                                                                    150                                
PROFAMCHA030701185155185225000030Even Stevens (NEW) - Coming Up (NS)                                                                                         150                                
PROFAMCHA030701185225185235000010FAMJAM - Open                                                                                                               150                                
INTFAMCHA030701185235185626000351MV Disney - Miracles Happen (MYRA)                                                                                     60688120                                
PROFAMCHA030701185626185640000014FAMJAM - Close (WEB)                                                                                                        150                                
PRCFAMCHA030701185640185710000030Summer Chill Tour Spot                                                                                                      150                                
PRCFAMCHA030701185710185740000030Family Birthday Club #1 - ONGOING                                                                                           150                                
PROFAMCHA030701185740185810000030Out To Lunch Block Promo - Weekdays @ 11:50am                                                                               150                                
PRCFAMCHA030701185810185840000030Family Popcorn Parties                                                                                                      150                                
PROFAMCHA030701185840185939000059Boy Meets World (DANCE) - Tonight @ 8pm                                                                                     150                                
OFFFAMCHA030701185939185952000013Nonstop Block Open (:10-:15)                                                                                                                                   
ID FAMCHA030701185952190000000008Magic of Disney - NS/NSW/PB - Wipe (:06-:09)                                                                                150                                
PROFAMCHA030701190000190009000009CC Disclaimer - FAST - Family (:08-:10)                                                                                     150                                
PGRFAMCHA030701190009192246002237Even Stevens                                      Model Principal                                                     A6068807BCC                              
ID FAMCHA030701192246192249000003Astral "A Network Of" Logo - English Animation                                                                              150                                
PROFAMCHA030701192249192303000014NS - MON-THURS - 04 - JETT/BMW/MENTORS (:13-:16)                                                                            150                                
PROFAMCHA030701192303192333000030Nightly Pix Block Promo - Tonight @ 9pm                                                                                     150                                
PRCFAMCHA030701192333192353000020Lizzie Bullying Bumper #1                                                                                                   150                                
PRCFAMCHA030701192353192423000030Summer Chill Event Promo                                                                                                    150                                
PRCFAMCHA030701192423192453000030Mentors (EVERYONE) - Tonight @ 8:30pm                                                                                       150                                
INTFAMCHA030701192453192817000324Art Attack - Astronaut                                                                                                 60686120                                
PROFAMCHA030701192817192847000030PR Ninja Storm - Friday @ 8am                                                                                               150                                
PRCFAMCHA030701192847192917000030Summer Chill Tour Spot                                                                                                      150                                
PROFAMCHA030701192917192947000030Out To Lunch Block Promo - Weekdays @ 11:50am                                                                               150                                
OFFFAMCHA030701192947193000000013Nonstop Block Open (:10-:15)                                                                                                                                   
PROFAMCHA030701193000193009000009CC Disclaimer - FAST - Family.ca (:08-:10)                                                                                  150                                
PGRFAMCHA030701193009195442002433Famous Jett Jackson; The                          Date                                                          B57128 1065607ACC                              
ID FAMCHA030701195442195445000003Astral "A Network Of" Logo - English Animation                                                                              150                                
PROFAMCHA030701195445195459000014NS - MON-THURS - 05 - BMW/MENTORS/N-PIX (:13-:16)                                                                           150                                
PROFAMCHA030701195459195529000030Even Stevens (NEW) - Weeknights @ 7pm                                                                                       150                                
PRCFAMCHA030701195529195559000030Summer Chill Contest                                                                                                        150                                
PROFAMCHA030701195559195625000026Boy Meets World (SHAWN) - Coming Up                                                                                         150                                
PRCFAMCHA030701195625195655000030Family Birthday Club #2 - JUNE 16 TO AUGUST 31                                                                              150                                
PROFAMCHA030701195655195705000010FAMJAM - Open                                                                                                               150                                
INTFAMCHA030701195705195805000100MV Disney - Dig It (D-TENT BOYS)                                                                                       60688120                                
PROFAMCHA030701195805195819000014FAMJAM - Close (FAMILY)                                                                                                     150                                
PRCFAMCHA030701195819195849000030NBA Jam #2                                                                                                                  150                                
PROFAMCHA030701195849195917000028All That (PHONE) - Weeknights @ 6:30pm                                                                                      150                                
PROFAMCHA030701195917195947000030Nightly Pix Block Promo - Tonight @ 9pm                                                                                     150                                
OFFFAMCHA030701195947200000000013Nonstop Block Open (:10-:15)                                                                                                                                   
PROFAMCHA030701200000200009000009CC Disclaimer - FAST - Generic (:08-:10)                                                                                    150                                
PGRFAMCHA030701200009202235002226Boy Meets World                                   Fear Strikes Out                                                    B6068807BCC                              
ID FAMCHA030701202235202238000003Astral "A Network Of" Logo - English Animation                                                                              150                                
PROFAMCHA030701202238202250000012NS - MON-THURS - 06 - MENTORS/N-PIX (:10-:13)                                                                               150                                
PROFAMCHA030701202250202320000030Nightly Pix Block Promo - Tonight @ 9pm                                                                                     150                                
PRCFAMCHA030701202320202340000020Lizzie Bullying Bumper #2                                                                                                   150                                
PROFAMCHA030701202340202408000028All That (PHONE) - Weeknights @ 6:30pm                                                                                      150                                
PRCFAMCHA030701202408202438000030xxFamily Kicks Contest -3- JUNE 27 TO JULY 03                                                                               150                                
PROFAMCHA030701202438202448000010FAMJAM - Open                                                                                                               150                                
INTFAMCHA030701202448202843000355MV - Losing Grip (Avril)                                                                                              A20688120                                
PROFAMCHA030701202843202857000014FAMJAM - Close (EMAIL)                                                                                                      150                                
PROFAMCHA030701202857202917000020Amanda Show (LOBSTERS) - Weeknights @ 6pm                                                                                   150                                
PRCFAMCHA030701202917202947000030Summer Chill Event Promo                                                                                                    150                                
OFFFAMCHA030701202947203000000013Nonstop Block Open (:10-:15)                                                                                                                                   
PROFAMCHA030701203000203009000009CC Disclaimer - FAST - Family (:08-:10)                                                                                     150                                
PGRFAMCHA030701203009205320002311Mentors                                           Experience                                                    C18998A1055607ACC3                             
ID FAMCHA030701205320205325000005Astral "A Network Of" Logo - English Animation                                                                              150                                
PROFAMCHA030701205325205335000010Nightly Pix Line-up - 01 - GENERIC1 (:08-:11)                                                                               150                                
PROFAMCHA030701205335205405000030xxPopcorn Pix Double Scoop - JUL04 - Friday                                                                                 150                                
PRCFAMCHA030701205405205435000030Summer Chill Contest                                                                                                        150                                
PROFAMCHA030701205435205445000010FAMJAM - Open                                                                                                               150                                
INTFAMCHA030701205445205734000249MV Disney - My Funny Friend & Me (STING)                                                                               60688120                                
PROFAMCHA030701205734205748000014FAMJAM - Close (EMAIL)                                                                                                      150                                
PRCFAMCHA030701205748205818000030NBA Jam #1                                                                                                                  150                                
PROFAMCHA030701205818205847000029Nonstop - EVEN STEVENS - Meathoops                                                                                          150                                
PRCFAMCHA030701205847205917000030Family Popcorn Parties                                                                                                      150                                
PROFAMCHA030701205917205947000030Nightly Pix Block Promo - Coming Up                                                                                         150                                
ID FAMCHA030701205947210000000013Nightly Pix Movie Open (:10-:15)                                                                                            150                                
PRCFAMCHA030701210000210009000009Rating - PG - Ian (:08-:10)                                                                                                 150                                
PROFAMCHA030701210009210018000009CC Disclaimer - FAST - Generic (:08-:10)                                                                                    150                                
PGRFAMCHA030701210018222919012901Ladybugs                                                                                                              B2068807DCC                              
ID FAMCHA030701222919222922000003Astral "A Network Of" Logo - English Animation                                                                              150                                
PROFAMCHA030701222922222936000014NS - MON-THURS - 07 - DARK/YBB/AMAZING (:13-:16)                                                                            150                                
PROFAMCHA030701222936222948000012Buzz Lightyear (SPACE RANGER) - Weekdays @ 3:25pm                                                                           150                                
OFFFAMCHA030701222948223000000012Nonstop Block Open (:10-:15)                                                                                                                                   
PGRFAMCHA030701223000225349002349Are You Afraid Of The Dark?                       The Tale of the Phantom Cab                                   SR0302 1066807A                                
PROFAMCHA030701225349225403000014NS - MON-THURS - 08 - YBB/AMAZING/DARK (:13-:16)                                                                            150                                
PROFAMCHA030701225403225418000015Weekenders (REALITY) - Tomorrow @ 4:40pm                                                                                    150                                
PGRFAMCHA030701225418225918000500Movie Surfers Finding Nemo #1                                                                                          60688150                                
PROFAMCHA030701225918225948000030xxPopcorn Pix Double Scoop - JUL04 - Friday                                                                                 150                                
OFFFAMCHA030701225948230000000012Nonstop Block Open (:10-:15)                                                                                                                                   
PROFAMCHA030701230000230009000009CC Disclaimer - SLOW - Family.ca (:08-:10)                                                                                  150                                
PGRFAMCHA030701230009234309004300Your Big Break                                    1-024                                                                60688090CC                              
ID FAMCHA030701234309234314000005Astral "A Network Of" Logo - English Animation                                                                              150                                
PROFAMCHA030701234314234326000012NS - MON-THURS - 09 - AMAZING/DARK (:10-:13)                                                                                150                                
PROFAMCHA030701234326234356000030Nightly Pix Block Promo - Every Night @ 9pm                                                                                 150                                
PROFAMCHA030701234356234425000029Nonstop - JETT JACKSON - Fight                                                                                              150                                
PGRFAMCHA030701234425235900001435Truth About Mother Goose                                                                                               60686150                                
PROFAMCHA030701235900235945000045Lizzie McGuire (MAGIC TRICK) - Tomorrow @ 5:35pm                                                                            150                                
OFFFAMCHA030701235945000000000015Nonstop Block Open (:10-:15)                                                                                                                                   
PGRFAMCHA030701000000002418002418Amazing Stories                                   No Day At The Beach                                                 A2068807A                                
ID FAMCHA030701002418002423000005Astral "A Network Of" Logo - English Animation                                                                              150                                
PROFAMCHA030701002423002433000010NS - MON-THURS - 10 - DARK (:08-:11)                                                                                        150                                
PROFAMCHA030701002433002503000030xxPopcorn Pix Double Scoop - JUL04 - Friday                                                                                 150                                
INTFAMCHA030701002503002832000329Art Attack - 2 Swans                                                                                                   60686120                                
PROFAMCHA030701002832002917000045Lizzie McGuire (MAGIC TRICK) - Tomorrow @ 5:35pm                                                                            150                                
PROFAMCHA030701002917002947000030Even Stevens (NEW) - Weeknights @ 7pm                                                                                       150                                
OFFFAMCHA030701002947003000000013Nonstop Block Open (:10-:15)                                                                                                                                   
PGRFAMCHA030701003000005419002419Are You Afraid Of The Dark?                       The Tale of the Lonely Ghost                                  SR0302 1066807A                                
ID FAMCHA030701005419005424000005Astral "A Network Of" Logo - English Animation                                                                              150                                
PROFAMCHA030701005424005454000030Even Stevens (NEW) - Weeknights @ 7pm                                                                                       150                                
PROFAMCHA030701005454005553000059Boy Meets World (DANCE) - Monday to Thursday @ 8pm                                                                          150                                
PROFAMCHA030701005553005640000047Amanda Show (HAM) - Weeknights @ 6pm                                                                                        150                                
PROFAMCHA030701005640005650000010FAMJAM - Open                                                                                                               150                                
INTFAMCHA030701005650010100000410MV Disney - Colours Of The Wind (POCAHONTAS)                                                                           60688120                                
PROFAMCHA030701010100010114000014FAMJAM - Close (FAMILY)                                                                                                     150                                
PROFAMCHA030701010114010130000016Nonstop - DARK - Dodge Ball                                                                                                 150                                
PROFAMCHA030701010130010200000030Out To Lunch Block Promo - Tomorrow @ 11:50am                                                                               150                                
SO FAMCHA030701010200010212000012Sign Off (oct 1)                                                                                                                                               
OFFFAMCHA030701010212043000032748                                                                                                                                                               
SO FAMCHA030702043000043011000011Sign On (oct 1)                                                                                                                                                
PROFAMCHA030702043011043020000009CC Disclaimer - FAST - Generic (:08-:10)                                                                                    150                                
PGRFAMCHA030702043020045313002253Franklin                                          Franklin & Otter's Visit/Franklin's Collection                B13648A1065607ECC                              
PROFAMCHA030702045313045326000013Preschool - 01(PH) - ART/KATIE/FRANKLIN (:13-:16)                                                                           150                                
OFFFAMCHA030702045326045336000010PS Playhouse Block Open (:10-:15)                                                                                                                              
PGRFAMCHA030702045336051040001704Art Attack                                        1-144                                                               A60686110                                
PROFAMCHA030702051040051054000014Preschool - 02(PH) - KATIE/FRANKLIN/RIPLEY (:13-:1                                                                          150                                
PRCFAMCHA030702051054051132000038Katie & Orbie (HIBERNATE) - Coming Up                                                                                       150                                
PROFAMCHA030702051132051156000024Playhouse - BOOK OF POOH - Big Bee *DNU*                                                                                    150                                
PRCFAMCHA030702051156051248000052Elmo's World (MISS MUFFET) - Today @ 8:55am                                                                                 150                                
OFFFAMCHA030702051248051300000012PS Playhouse Block Open (:10-:15)                                                                                                                              
PGRFAMCHA030702051300053935002635Katie And Orbie                                   Park Swings/The Tree/The Day Chance Found A New Ho            P16145A1065607E                                
PROFAMCHA030702053935053949000014Preschool - 03(PH) - FRANKLIN/RIPLEY/HOZE (:13-:16                                                                          150                                
OFFFAMCHA030702053949054000000011PS Playhouse Block Open (:10-:15)                                                                                                                              
PROFAMCHA030702054000054009000009CC Disclaimer - FAST - Family (:08-:10)                                                                                     150                                
PGRFAMCHA030702054009060302002253Franklin                                          Franklin Says Sorry/Franklin & The Fire                       B13649A1065607ECC                              
PROFAMCHA030702060302060316000014Preschool - 04(PG) - RIPLEY/HOZE/BUZZ (:13-:16)                                                                             150                                
PROFAMCHA030702060316060348000032Playground - GOOF TROOP - TV                                                                                                150                                
OFFFAMCHA030702060348060400000012PS Playground Block Open (:10-:15) *DNU POST AUG 1                                                                                                             
PROFAMCHA030702060400060409000009CC Disclaimer - FAST - Family.ca (:08-:10)                                                                                  150                                
PGRFAMCHA030702060409062839002430Ripley's Believe It Or Not!                       In His Uncle's Footsteps                                      B71303 1065607ECC                              
PROFAMCHA030702062839062851000012Preschool - 05(PG) - HOZE/BUZZ (:10-:13)                                                                                    150                                
PRCFAMCHA030702062851062923000032Hoze Houndz (GROCERIES) - Coming Up (PG)                                                                                    150                                
PROFAMCHA030702062923062949000026Playground - DUCKTALES - Super Suit                                                                                         150                                
OFFFAMCHA030702062949063000000011PS Playground Block Open (:10-:15) *DNU POST AUG 1                                                                                                             
PROFAMCHA030702063000063009000009CC Disclaimer - FAST - Generic (:08-:10)                                                                                    150                                
PGRFAMCHA030702063009065247002238Hoze Houndz                                       Deadline/Schnitzel Snafu                                      A63393A1065607ECC                              
PROFAMCHA030702065247065301000014Preschool - 06(PB) - BUZZ/PRLR/PRWF (:13-:16)                                                                               150                                
PROFAMCHA030702065301065331000030xxPopcorn Pix Double Scoop - JUL04 - Friday                                                                                 150                                
INTFAMCHA030702065331065501000130Klootz - Bad For The Ego #47                                                                                          A10658120                                
PROFAMCHA030702065501065540000039Power Box (WEEKDAYS) - Weekdays, Starting @ 7am                                                                             150                                
INTFAMCHA030702065540065917000337Art Attack - Burger & Fries                                                                                            60686120                                
PROFAMCHA030702065917065947000030Out To Lunch Block Promo - Today @ 11:50am                                                                                  150                                
OFFFAMCHA030702065947070000000013PS Power Box Block Open (:10-:15)                                                                                                                              
PGRFAMCHA030702070000072244002244Disney/Pixar's Buzz Lightyear of Star Command     Opposites Attract                                                   A6068607E                                
PROFAMCHA030702072244072258000014Preschool - 07(PB) - PRLR/PRWF/HOM (:13-:16)                                                                                150                                
PROFAMCHA030702072258072328000030xxPopcorn Pix Double Scoop - JUL04 - Friday                                                                                 150                                
INTFAMCHA030702072328072717000349Art Attack - Pyramid                                                                                                   60686120                                
PROFAMCHA030702072717072756000039Power Box (WEEKDAYS) - Weekdays, Starting @ 7am                                                                             150                                
INTFAMCHA030702072756072926000130Klootz - Leapfrog Island #44                                                                                          A10658120                                
PROFAMCHA030702072926072947000021That's So Raven (FRIDGE LIGHT) - Weekends @ 5:25pm                                                                          150                                
OFFFAMCHA030702072947073000000013PS Power Box Block Open (:10-:15)                                                                                                                              
PGRFAMCHA030702073000075129002129Power Rangers Lightspeed Rescue                   Rising From Ashes                                                   A6068607E                                
PROFAMCHA030702075129075141000012Preschool - 08(PB) - PRWF/HOM (:10-:13)                                                                                     150                                
PROFAMCHA030702075141075211000030xxPopcorn Pix Double Scoop - JUL04 - Friday                                                                                 150                                
INTFAMCHA030702075211075341000130Klootz - Olympics 06                                                                                                  A10658120                                
PROFAMCHA030702075341075420000039Power Box (WEEKDAYS) - Weekdays, Starting @ 7am                                                                             150                                
INTFAMCHA030702075420075853000433Art Attack - Gorilla                                                                                                   60686120                                
PROFAMCHA030702075853075947000054That's So Raven (HARD TO GET) - Weekends @ 5:25pm                                                                           150                                
OFFFAMCHA030702075947080000000013PS Power Box Block Open (:10-:15)                                                                                                                              
PROFAMCHA030702080000080009000009CC Disclaimer - FAST - Family (:08-:10)                                                                                     150                                
PGRFAMCHA030702080009082139002130Power Rangers Wild Force                          Team Carnival                                                       A6068607ECC                              
PROFAMCHA030702082139082149000010Preschool - 09(PB) - HOM (:08-:11)                                                                                          150                                
PROFAMCHA030702082149082219000030xxPopcorn Pix Double Scoop - JUL04 - Friday                                                                                 150                                
PGRFAMCHA030702082219082719000500Movie Surfers Finding Nemo #1                                                                                          60688150                                
PROFAMCHA030702082719082758000039Power Box (WEEKDAYS) - Weekdays, Starting @ 7am                                                                             150                                
PROFAMCHA030702082758082852000054That's So Raven (HARD TO GET) - Weekends @ 5:25pm                                                                           150                                
PROFAMCHA030702082852082918000026Boy Meets World (SHAWN) - Tonight @ 8pm                                                                                     150                                
PROFAMCHA030702082918082948000030Out To Lunch Block Promo - Today @ 11:50am                                                                                  150                                
OFFFAMCHA030702082948083000000012PS Power Box Block Open (:10-:15)                                                                                                                              
PROFAMCHA030702083000083009000009CC Disclaimer - FAST - Family.ca (:08-:10)                                                                                  150                                
PGRFAMCHA030702083009085243002234Disney's House Of Mouse                           Big Bad Wolf Daddy                                                   6068607ECC                              
PROFAMCHA030702085243085257000014Preschool - 10(PH) - ELMO/KATIE/STANLEY (:13-:16)                                                                           150                                
PRCFAMCHA030702085257085325000028Elmo's World (BUGGED) - Coming Up                                                                                           150                                
PROFAMCHA030702085325085411000046Playhouse - STANLEY - Squirrel Song                                                                                         150                                
PRCFAMCHA030702085411085449000038Katie & Orbie (CLAY) - Today @ 9:15am                                                                                       150                                
OFFFAMCHA030702085449085500000011PS Playhouse Block Open (:10-:15)                                                                                                                              
PGRFAMCHA030702085500091032001532Elmo's World                                      Bicycles                                                            A2068607G                                
PROFAMCHA030702091032091046000014Preschool - 11(PH-MWF) - KATIE/STANLEY/WTP (:13-:1                                                                          150                                
PRCFAMCHA030702091046091134000048New Adv WTP (FOREST) - Today @ 10:10am                                                                                      150                                
INTFAMCHA030702091134091319000145Disney Circle Time - My Shadow (anywhere but D12)                                                                      60688120                                
PROFAMCHA030702091319091349000030Playhouse - FRANKLIN - Skunk                                                                                                150                                
OFFFAMCHA030702091349091400000011PS Playhouse Block Open (:10-:15)                                                                                                                              
PROFAMCHA030702091400091409000009CC Disclaimer - FAST - Generic (:08-:10)                                                                                    150                                
PGRFAMCHA030702091409094047002638Katie And Orbie                                   Pizza/The Argument/Sidewalk Storyboard                        C19664A1055607ECC3                             
PROFAMCHA030702094047094101000014Preschool - 12(PH-MWF) - STANLEY/WTP/OOTB (:13-:16                                                                          150                                
PRCFAMCHA030702094101094126000025New Adv WTP (TALK BACK) - Today @ 10:10am                                                                                   150                                
PROFAMCHA030702094126094222000056Playhouse - STANLEY - Fish Song                                                                                             150                                
PRCFAMCHA030702094222094248000026Franklin (PUPPY) - Today @ 11am                                                                                             150                                
OFFFAMCHA030702094248094300000012PS Playhouse Block Open (:10-:15)                                                                                                                              
PROFAMCHA030702094300094309000009CC Disclaimer - FAST - Family (:08-:10)                                                                                     150                                
PGRFAMCHA030702094309100707002358Stanley                                           A Whale of a Song/Sloth for a Day                                   A6068607ECC                              
PROFAMCHA030702100707100721000014Preschool - 13(PH-MWF) - WTP/OOTB/FRANKLIN (:13-:1                                                                          150                                
PRCFAMCHA030702100721100739000018New Adv WTP (PIGLET) - Coming Up                                                                                            150                                
PROFAMCHA030702100739100806000027Playhouse - OUT OF THE BOX - Word Song *DNU*                                                                                150                                
PRCFAMCHA030702100806100841000035Franklin (CANOE) - Today @ 11am                                                                                             150                                
OFFFAMCHA030702100841100852000011PS Playhouse Block Open (:10-:15)                                                                                                                              
ID FAMCHA030702100852100900000008Magic of Disney - PLAYHOUSE - Shape (:06-:09)                                                                               150                                
PROFAMCHA030702100900100909000009CC Disclaimer - FAST - Family.ca (:08-:10)                                                                                  150                                
PGRFAMCHA030702100909103228002319New Adventures of Winnie the Pooh; The            Me and My Shadow/To Catch a Hiccup                                   6068607ECC                              
PROFAMCHA030702103228103242000014Preschool - 14(PH) - OOTB/FRANKLIN/DUCKTALES (:13-                                                                          150                                
PRCFAMCHA030702103242103308000026Franklin (PUPPY) - Today @ 11am                                                                                             150                                
PRCFAMCHA030702103308103348000040Hoze Houndz (PIRATES) - Today @ 1:45pm                                                                                      150                                
OFFFAMCHA030702103348103400000012PS Playhouse Block Open (:10-:15)                                                                                                                              
PGRFAMCHA030702103400105801002401Out of the Box                                    Tickets Please                                                      A6068607A                                
PROFAMCHA030702105801105814000013Preschool - 15(PH) - FRANKLIN/DUCKTALES/AMANDA (:1                                                                          150                                
PRCFAMCHA030702105814105845000031Franklin (HANKY) - Coming Up                                                                                                150                                
PROFAMCHA030702105845105951000106Playhouse - WINNIE THE POOH - Christopher Robin                                                                             150                                
OFFFAMCHA030702105951110001000010PS Playhouse Block Open (:10-:15)                                                                                                                              
PROFAMCHA030702110001110009000008CC Disclaimer - FAST - Generic (:08-:10)                                                                                    150                                
PGRFAMCHA030702110009112302002253Franklin                                          Franklin's Garden/Franklin Runs Away                          B13650A1065607ECC                              
PROFAMCHA030702112302112315000013Preschool - 16(PH) - DUCKTALES/AMANDA (:10-:13)                                                                             150                                
PRCFAMCHA030702112315112407000052Elmo's World (MISS MUFFET) - Today @ 12:35pm                                                                                150                                
PRCFAMCHA030702112407112445000038Katie & Orbie (ICEBERG) - Today @ 12:55pm                                                                                   150                                
OFFFAMCHA030702112445112500000015PS Playhouse Block Open (:10-:15)                                                                                                                              
PGRFAMCHA030702112500114744002244Disney's DuckTales                                Frozen Assets (part 2 - Of Super Ducktales)                         A6068607E                                
PROFAMCHA030702114744114758000014Preschool - 17(OTL) - AMANDA/RECESS/ELMO (:13-:16)                                                                          150                                
PROFAMCHA030702114758114828000030Out To Lunch Block Promo - Coming Up (AMANDA)                                                                               150                                
PROFAMCHA030702114828114858000030xxPopcorn Pix Double Scoop - JUL04 - Friday                                                                                 150                                
PROFAMCHA030702114858114931000033That's So Raven (HAIRY TOMBSTONE) - Weekends @ 5:2                                                                          150                                
PROFAMCHA030702114931114946000015Weekenders (REALITY) - Today @ 4:40pm                                                                                       150                                
OFFFAMCHA030702114946115000000014PS Out To Lunch Block Open (:10-:15) *DNU POST AUG                                                                                                             
PGRFAMCHA030702115000121206002206Amanda Show; The                                  2-025                                                               A20686090                                
PROFAMCHA030702121206121221000015Preschool - 18(OTL) - RECESS/ELMO/KATIE (:13-:16)                                                                           150                                
PROFAMCHA030702121221121251000030Out To Lunch Block Promo - Coming Up (RECESS)                                                                               150                                
PROFAMCHA030702121251121321000030xxPopcorn Pix Double Scoop - JUL04 - Friday                                                                                 150                                
PRCFAMCHA030702121321121351000030Rugrats Go Wild! Contest - In Theatres Now                                                                                  150                                
PROFAMCHA030702121351121445000054That's So Raven (HARD TO GET) - Weekends @ 5:25pm                                                                           150                                
OFFFAMCHA030702121445121500000015PS Out To Lunch Block Open (:10-:15) *DNU POST AUG                                                                                                             
PGRFAMCHA030702121500123736002236Disney's Recess                                   Kindergarten Derby/A Career to Remember                              6068607E                                
PROFAMCHA030702123736123750000014Preschool - 19(PH) - ELMO/KATIE/OOTB (:13-:16)                                                                              150                                
OFFFAMCHA030702123750123800000010PS Playhouse Block Open (:10-:15)                                                                                                                              
PGRFAMCHA030702123800125244001444Elmo's World                                      Bugs                                                                A2068607G                                
PROFAMCHA030702125244125257000013Preschool - 20(PH) - KATIE/OOTB/HOZE (:13-:16)                                                                              150                                
PRCFAMCHA030702125257125335000038Katie & Orbie (HIBERNATE) - Coming Up                                                                                       150                                
INTFAMCHA030702125335125505000130Disney Circle Time - Growing Smiles (anywhere but                                                                      60688120                                
PRCFAMCHA030702125505125550000045Hoze Houndz (PAMPER) - Today @ 1:45pm                                                                                       150                                
OFFFAMCHA030702125550125600000010PS Playhouse Block Open (:10-:15)                                                                                                                              
PROFAMCHA030702125600125609000009CC Disclaimer - FAST - Family (:08-:10)                                                                                     150                                
PGRFAMCHA030702125609132247002638Katie And Orbie                                   Snake In The Grass/Sprite/Homegrown Supper                    C19664A1055607ECC3                             
PROFAMCHA030702132247132300000013Preschool - 21(PH) - OOTB/HOZE/GOOF (:13-:16)                                                                               150                                
OFFFAMCHA030702132300132310000010PS Playhouse Block Open (:10-:15)                                                                                                                              
PGRFAMCHA030702132310134715002405Out of the Box                                    Pop To It!                                                          A6068607A                                
PROFAMCHA030702134715134729000014Preschool - 22(PG) - HOZE/GOOF/DUCKTALES (:13-:16)                                                                          150                                
PROFAMCHA030702134729134749000020Playground - BUZZ LIGHTYEAR - Battle                                                                                        150                                
OFFFAMCHA030702134749134800000011PS Playground Block Open (:10-:15) *DNU POST AUG 1                                                                                                             
PROFAMCHA030702134800134809000009CC Disclaimer - FAST - Family.ca (:08-:10)                                                                                  150                                
PGRFAMCHA030702134809141047002238Hoze Houndz                                       Metamorphosis/Snowed                                          A63401A1065607ECC                              
PROFAMCHA030702141047141059000012Preschool - 23(PG) - GOOF/DUCKTALES (:10-:13)                                                                               150                                
PRCFAMCHA030702141059141141000042Henry's World (GERMS) - Weekends @ 7:05pm                                                                                   150                                
OFFFAMCHA030702141141141152000011PS Playground Block Open (:10-:15) *DNU POST AUG 1                                                                                                             
ID FAMCHA030702141152141200000008Magic of Disney - PLAYGROUND - Wipe (:06-:09) *DNU                                                                          150                                
PROFAMCHA030702141200141209000009CC Disclaimer - FAST - Generic (:08-:10)                                                                                    150                                
PGRFAMCHA030702141209143500002251Goof Troop                                        Where There's Smoke, There's Goof                                    6068607ECC                              
PROFAMCHA030702143500143510000010Preschool - 24(PG) - DUCKTALES (:08-:11)                                                                                    150                                
PROFAMCHA030702143510143547000037Kim Possible (RON THE MAN) - Weekends @ 4:35pm                                                                              150                                
OFFFAMCHA030702143547143600000013PS Playground Block Open (:10-:15) *DNU POST AUG 1                                                                                                             
PROFAMCHA030702143600143609000009CC Disclaimer - FAST - Family (:08-:10)                                                                                     150                                
PGRFAMCHA030702143609145847002238Disney's DuckTales                                Billionaire Beagle Boys Club(part 4-Of Super Duckt                  A6068607ECC                              
PROFAMCHA030702145847145901000014MD - 01 - HOUSE/BUZZ/PEPPER (:13-:16)                                                                                       150                                
PRCFAMCHA030702145901145931000030Summer Chill Tour Spot                                                                                                      150                                
PROFAMCHA030702145931145949000018Mad Dash - PEPPER ANN - New Books                                                                                           150                                
OFFFAMCHA030702145949150000000011Mad Dash Block Open (:10-:15)                                                                                                                                  
PGRFAMCHA030702150000152237002237Disney's House Of Mouse                           Pete's House Of Villians                                            A6068607E                                
PROFAMCHA030702152237152250000013MD - 02 - BUZZ/PEPPER/TARZAN (:13-:16)                                                                                      150                                
PRCFAMCHA030702152250152310000020Lizzie Bullying Bumper #1                                                                                                   150                                
PRCFAMCHA030702152310152340000030Rugrats Go Wild! Contest - In Theatres Now                                                                                  150                                
PROFAMCHA030702152340152350000010Mad Dash - LIZZIE MCGUIRE - Going In                                                                                        150                                
PRCFAMCHA030702152350152420000030NBA Jam #1                                                                                                                  150                                
PRCFAMCHA030702152420152450000030Summer Chill Event Promo                                                                                                    150                                
OFFFAMCHA030702152450152500000010Mad Dash Block Open (:10-:15)                                                                                                                                  
PROFAMCHA030702152500152509000009CC Disclaimer - FAST - Family.ca (:08-:10)                                                                                  150                                
PGRFAMCHA030702152509154750002241Disney/Pixar's Buzz Lightyear of Star Command     NOS-4-A2                                                            A6068607ECC                              
PROFAMCHA030702154750154804000014MD - 03 - PEPPER/TARZAN/WKNDRS (:13-:16)                                                                                    150                                
PRCFAMCHA030702154804154834000030Family Popcorn Parties                                                                                                      150                                
PRCFAMCHA030702154834154904000030Summer Chill Contest                                                                                                        150                                
PROFAMCHA030702154904154916000012Mad Dash - RECESS - Sprinkler                                                                                               150                                
