SO FAMCHA080801043000043011000011Sign On (oct 1)                                                                                                                                                
PRCFAMCHA080801043011043020000009CC Disclaimer - FAST - Family.ca (:09-:10)                                                                                  150                                
PGRFAMCHA080801043020045659002639Katie And Orbie                                   EP: 6-068                                                     B62271A1065607ECC                              
PRCFAMCHA080801045659045711000012Family Jr. Bumper - Music (:11- :14) (JUL08)                                                                                150                                
PRCFAMCHA080801045711045720000009CC Disclaimer - FAST - Generic (:09-:10)                                                                                    150                                
PGRFAMCHA080801045720051950002230Franny's Feet                                     EPS # 14                                                      C23971 1065607ECC                              
PRCFAMCHA080801051950051956000006Astral ID (DEC 2007)                                                                                                        150                                
PRCFAMCHA080801051956052011000015Family Jr. Bumper - Portal (:14- :17) (JUL08)                                                                               150                                
PRCFAMCHA080801052011052020000009CC Disclaimer - FAST - Family.ca (:09-:10)                                                                                  150                                
PGRFAMCHA080801052020054251002231Something Else                                    EP: 1-013                                                     B69267A1065607ECC                              
PRCFAMCHA080801054251054302000011Family Jr. Bumper - Acrobat (:10- :13) (JUL08)                                                                              150                                
PRCFAMCHA080801054302054311000009CC Disclaimer - FAST - Generic (:09-:10)                                                                                    150                                
PGRFAMCHA080801054311060549002238Hoze Houndz                                       EP: 4-044                                                     B63380A1065607ECC                              
PRCFAMCHA080801060549060555000006Astral ID (DEC 2007)                                                                                                        150                                
PRCFAMCHA080801060555060607000012Family Jr. Bumper - Collide (:11- :14) (JUL08)                                                                              150                                
PRCFAMCHA080801060607060616000009CC Disclaimer - FAST - Family.ca (:09-:10)                                                                                  150                                
PGRFAMCHA080801060616063020002404Henry's World                                     EPS # 2-025                                                   B81056A1065607GCC                              
PRCFAMCHA080801063020063032000012Family Jr. Bumper - Music (:11- :14) (JUL08)                                                                                150                                
PRCFAMCHA080801063032063041000009CC Disclaimer - FAST - Generic (:09-:10)                                                                                    150                                
PGRFAMCHA080801063041065311002230King                                              EP: 4-045                                                     C25350 1065607ECC                              
PRCFAMCHA080801065311065317000006Astral ID (DEC 2007)                                                                                                        150                                
PROFAMCHA080801065317065347000030Kim Possible EVIL (MMM) (MAY07) Coming Up Next                                                                              150                                
PROFAMCHA080801065347065429000042Tennis Canada - Everyday Champions REVISION (July                                                                           150                                
PROFAMCHA080801065429065503000034Recess - HEROES (MMM) - (APR06) - This  Morn @ 7:2                                                                          150                                
PROFAMCHA080801065503065527000024Emperor's New School (MD) ZIT - This Afternoon @ 1                                                                          150                                
PROFAMCHA080801065527065541000014DC Games ID - Selena Gomez 1 - Starts Tonight @ 7:                                                                          150                                
PROFAMCHA080801065541065600000019MadMadMornings Block Open                                                                                                   150                                
PRCFAMCHA080801065600065609000009CC Disclaimer - FAST - Family.ca (:09-:10)                                                                                  150                                
PGRFAMCHA080801065609071902002253Disney's Kim Possible                             EPS # 1-038                                                         A6068607ECC                              
PROFAMCHA080801071902071936000034Jonas Brothers Living The Dream Promo - Today Foll                                                                          150                                
PROFAMCHA080801071936072010000034Recess - HEROES (MMM) - (APR06) - Coming Up Next                                                                            150                                
PROFAMCHA080801072010072050000040Phineas & Ferb DVD Blast - Available Now (July 29                                                                           150                                
PROFAMCHA080801072050072126000036Weekenders - PIZZA (MMM) - (APR06) - This Morning                                                                           150                                
PROFAMCHA080801072126072157000031Replacements - GENERIC (MD) This Afternoon @ 3:10p                                                                          150                                
PROFAMCHA080801072157072230000033Wizards Of Waverly Blast DVD - Available Now (July                                                                          150                                
PROFAMCHA080801072230072333000103DC Games 2008 Overall Promo - Starts Today @ 7:30p                                                                          150                                
PROFAMCHA080801072333072351000018Bret Ryan Mall Tour Bumper - Aug 1 Edmonton, AB (J                                                                          150                                
PRCFAMCHA080801072351072400000009CC Disclaimer - FAST - Generic (:09-:10)                                                                                    150                                
PGRFAMCHA080801072400074635002235Disney's Recess                                   EP: 1-028                                                            6068607ECC                              
PRCFAMCHA080801074635074641000006Astral ID (DEC 2007)                                                                                                        150                                
PROFAMCHA080801074641074717000036Fam Jam Mall Tour w/Brett Ryan - All Summer Long (                                                                          150                                
PROFAMCHA080801074717074753000036Weekenders - PIZZA (MMM) - (APR06) - Coming Up Nex                                                                          150                                
PROFAMCHA080801074753074827000034Vanessa Hudgens CD Blast REVISION (July 19- Aug 31                                                                          150                                
PROFAMCHA080801074827074857000030American Dragon Jake Long (MD) HERO - This Afterno                                                                          150                                
PROFAMCHA080801074857074913000016DC Games ID - Jasmine Richards 1 - Starts Tonight                                                                           150                                
PROFAMCHA080801074913074953000040Phineas & Ferb DVD Blast - Available Now (July 29                                                                           150                                
PRCFAMCHA080801074953075032000039Summer Sneaks Album Previews - Jonas Brothers - We                                                                          150                                
PROFAMCHA080801075032075051000019MadMadMornings Block Open                                                                                                   150                                
PRCFAMCHA080801075051075100000009CC Disclaimer - FAST - Family.ca (:09-:10)                                                                                  150                                
PGRFAMCHA080801075100081354002254Disney's The Weekenders                           EP: 1-011                                                           A6068607ECC                              
PROFAMCHA080801081354081432000038Cheetah Girls One World Interstitial Promo - Tonig                                                                          150                                
PROFAMCHA080801081432081514000042Tennis Canada - Everyday Champions REVISION (July                                                                           150                                
PROFAMCHA080801081514081544000030Kim Possible EVIL (MD) (MAY07) Today @ 12:10                                                                                150                                
PROFAMCHA080801081544081618000034Proud Family - GET BURNED (MD) This Afternoon @ 4:                                                                          150                                
PROFAMCHA080801081618081658000040Miley Cyrus CD Blast (July 22 - Oct 14) $$$                                                                                 150                                
PROFAMCHA080801081658081733000035DC Games Joe Jonas VIP Promo- Starts Tonight @ 7:3                                                                          150                                
PROFAMCHA080801081733081751000018Bret Ryan Mall Tour Bumper - Aug 1 Edmonton, AB (J                                                                          150                                
PRCFAMCHA080801081751081801000010CC Disclaimer - FAST - Generic (:09-:10)                                                                                    150                                
PGRFAMCHA080801081801084056002255Disney's Lloyd In Space                           EP: 12                                                               6068607ECC                              
PRCFAMCHA080801084056084102000006Astral ID (DEC 2007)                                                                                                        150                                
PRCFAMCHA080801084102084112000010FJR - 07 - LITTLE EINSTEINS/FRANNY'S FEET (:09 - :                                                                          150                                
PROFAMCHA080801084112084127000015Little Einsteins (FJR) GENERIC - Coming Up Next (J                                                                          150                                
PRCFAMCHA080801084127084200000033Disney Block Party REVISED (July 31 - Aug 5) $$$                                                                            150                                
PROFAMCHA080801084200084230000030Tigger and Pooh (FJR) DARBY SELL - This Morning @                                                                           150                                
PGRFAMCHA080801084230084355000125Pixie Previews - (MMM, PH) Iredessa                                                                                   A60688120                                
PROFAMCHA080801084355084446000051xxPH-D Promo - Little Einstein's Fairytale Week -                                                                           150                                
ID FAMCHA080801084446084501000015Family Jr. Block Open (:14-:17) (JUL08)                                                                                     150                                
PRCFAMCHA080801084501084510000009CC Disclaimer - FAST - Family.ca (:09-:10)                                                                                  150                                
PGRFAMCHA080801084510090915002405Disney's Little Einsteins                         EP: 15                                                               6068607ECC                              
PRCFAMCHA080801090915090925000010FJR - 08 - FRANNY'S FEET/TIGGER & POOH (:09 - :12)                                                                          150                                
PRCFAMCHA080801090925090955000030Ontario Place Summer Saturdays - Sat July 28, Aug                                                                           150                                
PROFAMCHA080801090955091046000051PH-D Promo - Super Duper Summer Saturdays - Every                                                                           150                                
PRCFAMCHA080801091046091100000014Family Jr. Bumper - Portal (:14- :17) (JUL08)                                                                               150                                
PRCFAMCHA080801091100091109000009CC Disclaimer - FAST - Generic (:09-:10)                                                                                    150                                
PGRFAMCHA080801091109093339002230Franny's Feet                                     EPS # 24                                                      C23971 1065607ECC                              
PRCFAMCHA080801093339093345000006Astral ID (DEC 2007)                                                                                                        150                                
PRCFAMCHA080801093345093356000011FJR - 09 - TIGGER & POOH/MICKEY MOUSE CLUBHOUSE (:                                                                          150                                
PROFAMCHA080801093356093441000045Tigger and Pooh (FJR) TIGGER SELL - Coming Up Next                                                                          150                                
PROFAMCHA080801093441093512000031Mickey Mouse Clubhouse (FJR) GENERIC - This Mornin                                                                          150                                
PROFAMCHA080801093512093542000030xxBunnytown (FJR) BART BUNNYTOES - New Eps - This                                                                           150                                
PRCFAMCHA080801093542093617000035Franny's Feet (FJR) GENERIC - Weekday Mornings @ 9                                                                          150                                
PRCFAMCHA080801093617093647000030PH-D Promo - Kid Sell (JUNE 2008)                                                                                           150                                
PRCFAMCHA080801093647093700000013Family Jr. Bumper - Acrobat (:10- :13) (JUL08)                                                                              150                                
PRCFAMCHA080801093700093708000008CC Disclaimer - FAST - Family.ca (:09-:10)                                                                                  150                                
PGRFAMCHA080801093708100108002400Disney My Friends Tigger and Pooh                 EP: 21                                                               6068607ECC                              
PRCFAMCHA080801100108100117000009FJR - 10 - MICKEY MOUSE CLUBHOUSE/BUNNYTOWN (:09 -                                                                          150                                
PROFAMCHA080801100117100148000031Mickey Mouse Clubhouse (FJR) GENERIC - Coming Up N                                                                          150                                
PGRFAMCHA080801100148100248000100MV Disney - (MD/NS/NSW) - Jesse McCartney - Just S                                                                     60688120                                
PROFAMCHA080801100248100318000030xxBunnytown (FJR) PROF DOODLEBUNNY - New Eps - Thi                                                                          150                                
PRCFAMCHA080801100318100348000030PH-D Promo - Kid Sell (JUNE 2008)                                                                                           150                                
PRCFAMCHA080801100348100400000012Family Jr. Bumper - Collide (:11- :14) (JUL08)                                                                              150                                
ID FAMCHA080801100400100408000008Magic of Disney - PLAYHOUSE - Shape (:06-:09)                                                                               150                                
PRCFAMCHA080801100408100417000009CC Disclaimer - FAST - Generic (:09-:10)                                                                                    150                                
PGRFAMCHA080801100417102817002400Disney's Mickey Mouse Clubhouse                   EP: 05                                                               6068607ECC                              
PRCFAMCHA080801102817102823000006Astral ID (DEC 2007)                                                                                                        150                                
PRCFAMCHA080801102823102836000013FJR - 11 - BUNNYTOWN/BENJAMIN BEAR (:10 - :13) (JU                                                                          150                                
PROFAMCHA080801102836102906000030xxBunnytown (FJR) CAPTAIN DAN - New Eps - Coming U                                                                          150                                
PRCFAMCHA080801102906102936000030Benjamin Bear (FJR) GENERIC - This Morning @ 10:55                                                                          150                                
PROFAMCHA080801102936102955000019Johnny and the Sprites (FJR) GINGER #1 - Tues & Th                                                                          150                                
PROFAMCHA080801102955103046000051xxPH-D Promo - Little Einstein's Fairytale Week -                                                                           150                                
PRCFAMCHA080801103046103100000014Family Jr. Bumper - Music (:11- :14) (JUL08)                                                                                150                                
PRCFAMCHA080801103100103109000009CC Disclaimer - FAST - Family.ca (:09-:10)                                                                                  150                                
PGRFAMCHA080801103109105510002401Disney Bunnytown                                  EP: 17                                                               6068607ECC                              
PRCFAMCHA080801105510105522000012FJR - 12 - BENJAMIN BEAR/KING (:10 - :13) (JULY08)                                                                          150                                
PRCFAMCHA080801105522105552000030Benjamin Bear (FJR) GENERIC - Coming Up Next (JUL0                                                                          150                                
PRCFAMCHA080801105552105625000033Disney Block Party REVISED (July 31 - Aug 5) $$$                                                                            150                                
PROFAMCHA080801105625105644000019Johnny and the Sprites (FJR) BASIL #1 - Tues & Thu                                                                          150                                
PRCFAMCHA080801105644105700000016Family Jr. Bumper - Portal (:14- :17) (JUL08)                                                                               150                                
PRCFAMCHA080801105700105709000009CC Disclaimer - FAST - Generic (:09-:10)                                                                                    150                                
PGRFAMCHA080801105709111944002235The Secret World Of Benjamin Bear                 EPS # 1-007                                                   B75152 1065607ECC                              
PRCFAMCHA080801111944111950000006Astral ID (DEC 2007)                                                                                                        150                                
PRCFAMCHA080801111950111959000009FJR - 13 - KING/RECESS (:09 - :12) (JULY08)                                                                                 150                                
PRCFAMCHA080801111959112029000030PH-D Promo - Kid Sell (JUNE 2008)                                                                                           150                                
PRCFAMCHA080801112029112059000030King (FJR) GENERIC - Coming Up Next (JUL08)                                                                                 150                                
PRCFAMCHA080801112059112134000035Franny's Feet (FJR) GENERIC - Weekday Mornings @ 9                                                                          150                                
PGRFAMCHA080801112134112304000130MV Disney - (MD/NS/NSW) - Jesse McCartney - Just S                                                                     60688120                                
PROFAMCHA080801112304112349000045Tigger and Pooh (FJR) POOH SELL - Weekday Mornings                                                                          150                                
PROFAMCHA080801112349112440000051xxPH-D Promo - Little Einstein's Fairytale Week -                                                                           150                                
PRCFAMCHA080801112440112451000011Family Jr. Bumper - Acrobat (:10- :13) (JUL08)                                                                              150                                
PRCFAMCHA080801112451112500000009CC Disclaimer - FAST - Family.ca (:09-:10)                                                                                  150                                
PGRFAMCHA080801112500114730002230King                                              EPS # 2-021                                                   B75776 1065607ECC                              
PRCFAMCHA080801114730114743000013MD - 01 - RECESS/KIM (:11 - :13) (SEPT07)                                                                                   150                                
PROFAMCHA080801114743114819000036Fam Jam Mall Tour w/Brett Ryan - All Summer Long (                                                                          150                                
PROFAMCHA080801114819114834000015DC Games ID - Jennifer & David - Starts Tonight @                                                                           150                                
PROFAMCHA080801114834114851000017Mad Dash Block Open (:16-:18) APR06                                                                                         150                                
PRCFAMCHA080801114851114900000009CC Disclaimer - FAST - Generic (:09-:10)                                                                                    150                                
PGRFAMCHA080801114900121136002236Disney's Recess                                   EP: 1-026                                                            6068607ECC                              
PRCFAMCHA080801121136121142000006Astral ID (DEC 2007)                                                                                                        150                                
PRCFAMCHA080801121142121155000013MD - 02 - KIM/WEEKENDERS (:11 - :13) (JULY08)                                                                               150                                
PRCFAMCHA080801121155121234000039Summer Sneaks Album Previews - Jonas Brothers - We                                                                          150                                
PROFAMCHA080801121234121249000015Kim Possible BOYFRIEND (MD) Coming Up Next (JULY08                                                                          150                                
PROFAMCHA080801121249121333000044DC Games Promo - Jonas Interview Tease -  Starts T                                                                          150                                
PROFAMCHA080801121333121351000018Bret Ryan Mall Tour Bumper - Aug 2 Calgary, AB (Ju                                                                          150                                
PRCFAMCHA080801121351121400000009CC Disclaimer - FAST - Family.ca (:09-:10)                                                                                  150                                
PGRFAMCHA080801121400123654002254Disney's Kim Possible                             EPS # 1-040                                                         A6068607ECC                              
PRCFAMCHA080801123654123707000013MD - 03 - WEEKENDERS/AMERICAN DRAGON (:11 - :13) (                                                                          150                                
PROFAMCHA080801123707123741000034Jonas Brothers Living The Dream Promo - Today Foll                                                                          150                                
PRCFAMCHA080801123741123811000030Cineplex Latest Buzz Popcorn Parties Post-Launch 3                                                                          150                                
PROFAMCHA080801123811123835000024DC Games Promo - Sprouse Twins Attack - Starts Tod                                                                          150                                
PRCFAMCHA080801123835123851000016MD Bumper - Shopping Race (:15-:17) APR06                                                                                   150                                
PRCFAMCHA080801123851123900000009CC Disclaimer - FAST - Generic (:09-:10)                                                                                    150                                
PGRFAMCHA080801123900130146002246Disney's The Weekenders                           EP: 1-027                                                           A6068607ECC                              
PRCFAMCHA080801130146130152000006Astral ID (DEC 2007)                                                                                                        150                                
PRCFAMCHA080801130152130204000012MD - 04 - AMERICAN DRAGON/EMPERORS'S (:11 - :13) (                                                                          150                                
PROFAMCHA080801130204130242000038Cheetah Girls One World Interstitial Promo - Tonig                                                                          150                                
PROFAMCHA080801130242130316000034Proud Family - GET BURNED (MD) This Afternoon @ 4:                                                                          150                                
PROFAMCHA080801130316130333000017DC Games 2008 Promo Short - Starts Tonight @ 7:30p                                                                          150                                
PROFAMCHA080801130333130351000018Bret Ryan Mall Tour Bumper - Aug 2 Calgary, AB (Ju                                                                          150                                
PRCFAMCHA080801130351130400000009CC Disclaimer - FAST - Family.ca (:09-:10)                                                                                  150                                
PGRFAMCHA080801130400132639002239Disney's American Dragon: Jake Long               EP: 44                                                               6068607ECC                              
PRCFAMCHA080801132639132651000012MD - 05 - EMPEROR'S/FILLMORE (:11 - :13) (JULY08)                                                                           150                                
PRCFAMCHA080801132651132731000040Blue Jays Contest Spot (MD/ NS/ NSW) 3/4 Per Day                                                                            150                                
PROFAMCHA080801132731132749000018Emperor's New School (MD) BUTT IN URN - Coming Up                                                                           150                                
PROFAMCHA080801132749132811000022Fillmore (MD) POLLY - This Afternoon @ 1:55 (JULY0                                                                          150                                
PROFAMCHA080801132811132846000035DC Games Joe Jonas VIP Promo- Starts Tonight @ 7:3                                                                          150                                
PRCFAMCHA080801132846132854000008MD Bumper - Ski Race (:07-:09) APR06                                                                                        150                                
PRCFAMCHA080801132854132903000009CC Disclaimer - FAST - Generic (:09-:10)                                                                                    150                                
PGRFAMCHA080801132903135139002236Disney's The Emperor's New School                 EP: 10                                                               6068807ECC                              
PRCFAMCHA080801135139135145000006Astral ID (DEC 2007)                                                                                                        150                                
PRCFAMCHA080801135145135157000012MD - 06 - FILLMORE/WEEKENDERS (:11 - :13) (JULY08)                                                                          150                                
PROFAMCHA080801135157135231000034Jonas Brothers Living The Dream Promo - Today Foll                                                                          150                                
PROFAMCHA080801135231135253000022Fillmore (MD) POLLY - Coming Up Next (JULY08)                                                                               150                                
PROFAMCHA080801135253135337000044DC Games Promo - Jonas Interview Tease -  Starts T                                                                          150                                
PROFAMCHA080801135337135355000018Bret Ryan Mall Tour Bumper - Aug 2 Calgary, AB (Ju                                                                          150                                
PRCFAMCHA080801135355135404000009CC Disclaimer - FAST - Family.ca (:09-:10)                                                                                  150                                
PGRFAMCHA080801135404141641002237Disney's Fillmore!                                EPS # 1-025                                                          6068607ECC                              
PRCFAMCHA080801141641141654000013MD - 07 - WEEKENDERS/KIM (:11 - :13) (JULY08)                                                                               150                                
PROFAMCHA080801141654141730000036Weekenders - PIZZA (MD) - (APR06) - Coming Up Next                                                                          150                                
PRCFAMCHA080801141730141800000030Cineplex Latest Buzz Popcorn Parties Post-Launch 3                                                                          150                                
PROFAMCHA080801141800141826000026Recess (MD) CAREER DAY - This Afternoon @ 4:35 (JU                                                                          150                                
PROFAMCHA080801141826141850000024DC Games Promo - Sprouse Twins Attack - Starts Tod                                                                          150                                
PRCFAMCHA080801141850141900000010MD Bumper - Race Cars (:08-:10) APR06                                                                                       150                                
PRCFAMCHA080801141900141909000009CC Disclaimer - FAST - Family.ca (:09-:10)                                                                                  150                                
PGRFAMCHA080801141909144147002238Disney's The Weekenders                           EP: 1-038                                                           A6068607ECC                              
PRCFAMCHA080801144147144153000006Astral ID (DEC 2007)                                                                                                        150                                
PRCFAMCHA080801144153144205000012MD - 08 - KIM/REPLACEMENTS (:11 - :13) (JULY08)                                                                             150                                
PROFAMCHA080801144205144243000038Cheetah Girls One World Interstitial Promo - Tonig                                                                          150                                
PROFAMCHA080801144243144325000042Tennis Canada - Everyday Champions REVISION (July                                                                           150                                
PROFAMCHA080801144325144342000017DC Games 2008 Promo Short - Starts Tonight @ 7:30p                                                                          150                                
PROFAMCHA080801144342144400000018Bret Ryan Mall Tour Bumper - Aug 2 Calgary, AB (Ju                                                                          150                                
PRCFAMCHA080801144400144409000009CC Disclaimer - FAST - Generic (:09-:10)                                                                                    150                                
PGRFAMCHA080801144409150703002254Disney's Kim Possible - Yr. 4                     EP: 03                                                               6068607ECC                              
PRCFAMCHA080801150703150715000012MD - 09 - REPLACEMENTS/EMPEROR (:11 - :13) (JULY08                                                                          150                                
PROFAMCHA080801150715150750000035DC Games Joe Jonas VIP Promo- Starts Tonight @ 7:3                                                                          150                                
PROFAMCHA080801150750150821000031Replacements - GENERIC (MD) Coming Up Next (JULY08                                                                          150                                
PROFAMCHA080801150821150901000040Phineas & Ferb DVD Blast - Available Now (July 29                                                                           150                                
PROFAMCHA080801150901150925000024Emperor's New School (MD) ZIT - This Afternoon @ 3                                                                          150                                
PROFAMCHA080801150925151020000055Disney Behind The Curtain (MD, NS, NSW) 2 x Day  (                                                                          150                                
PRCFAMCHA080801151020151032000012Family Jams Bumper - Boombox (:10 -:13) (JULY08)                                                                            150                                
PROFAMCHA080801151032151105000033Wizards Of Waverly Blast DVD - Available Now (July                                                                          150                                
PRCFAMCHA080801151105151144000039Summer Sneaks Album Previews - Jonas Brothers - We                                                                          150                                
PRCFAMCHA080801151144151200000016MD Bumper - Shopping Race (:15-:17) APR06                                                                                   150                                
PRCFAMCHA080801151200151209000009CC Disclaimer - FAST - Family.ca (:09-:10)                                                                                  150                                
PGRFAMCHA080801151209153439002230The Replacements                                  EP: 13                                                               6068607ECC                              
PRCFAMCHA080801153439153445000006Astral ID (DEC 2007)                                                                                                        150                                
PRCFAMCHA080801153445153458000013MD - 10 - EMPEROR/PROUD FAMILY (:11 - :13) (JULY08                                                                          150                                
PROFAMCHA080801153458153532000034Jonas Brothers Living The Dream Promo - Today Foll                                                                          150                                
PROFAMCHA080801153532153550000018Emperor's New School (MD) BUTT IN URN - Coming Up                                                                           150                                
PROFAMCHA080801153550153640000050Kid Fit - Phase 2 - Camp Rock Contest - VOTE (July                                                                          150                                
PRCFAMCHA080801153640153651000011Family Jams Bumper - Amp (:09 -:12) (JULY08)                                                                                150                                
PROFAMCHA080801153651153754000103DC Games These Are The Teams BLUE - Tonight @ 7:30                                                                          150                                
PROFAMCHA080801153754153820000026Recess (MD) CAREER DAY - This Afternoon @ 4:35 (JU                                                                          150                                
PROFAMCHA080801153820153902000042Tennis Canada - Everyday Champions REVISION (July                                                                           150                                
PRCFAMCHA080801153902153942000040Blue Jays Contest Spot (MD/ NS/ NSW) 3/4 Per Day                                                                            150                                
PROFAMCHA080801153942154000000018Bret Ryan Mall Tour Bumper - Aug 2 Calgary, AB (Ju                                                                          150                                
PRCFAMCHA080801154000154010000010CC Disclaimer - FAST - Generic (:09-:10)                                                                                    150                                
PGRFAMCHA080801154010160239002229Disney's The Emperor's New School Season 2        EP: 17                                                               6068807ECC                              
PRCFAMCHA080801160239160251000012MD - 11 - PROUD FAMILY/RECESS (:11 - :13) (JULY08)                                                                          150                                
PROFAMCHA080801160251160329000038Cheetah Girls One World Interstitial Promo - Tonig                                                                          150                                
PROFAMCHA080801160329160404000035Proud Family - IDOL (MD) Coming Up Next (JULY08)                                                                            150                                
PROFAMCHA080801160404160438000034Vanessa Hudgens CD Blast REVISION (July 19- Aug 31                                                                          150                                
PROFAMCHA080801160438160507000029Hannah Montana - SUPER AWESOME (MD) This Afternoon                                                                          150                                
PROFAMCHA080801160507160517000010FAMJAM - Open/Close                                                                                                         150                                
PGRFAMCHA080801160517160621000104MV - Brett Ryan - If It Feels Right (JUN08)                                                                            20688120                                
PROFAMCHA080801160621160635000014xxFAMJAM - Close (FAMILY) xxDNUxx                                                                                           150                                
PROFAMCHA080801160635160650000015Kim Possible BOYFRIEND NSW (MAY 07) Tomorrow after                                                                          150                                
PROFAMCHA080801160650160753000103DC Games These Are The Teams GREEN - Tonight @ 7:3                                                                          150                                
PRCFAMCHA080801160753160800000007MD Bumper - Ski Race (:07-:09) APR06                                                                                        150                                
ID FAMCHA080801160800160808000008Magic of Disney - MAD DASH - Wipe (:06-:09)                                                                                 150                                
PRCFAMCHA080801160808160817000009CC Disclaimer - FAST - Family.ca (:09-:10)                                                                                  150                                
PGRFAMCHA080801160817163046002229The Proud Family                                  EP: 1-014                                                           A6068607ECC                              
PRCFAMCHA080801163046163052000006Astral ID (DEC 2007)                                                                                                        150                                
PRCFAMCHA080801163052163105000013MD - 12 - RECESS/SUITE LIFE (:11 - :13) (JULY08)                                                                            150                                
PRCFAMCHA080801163105163153000048Family Video Player Promo - No Tag 3/day (not in P                                                                          150                                
PROFAMCHA080801163153163219000026Recess (MD) CAREER DAY - Coming Up Next (JULY08)                                                                            150                                
PROFAMCHA080801163219163259000040Nim's Island DVD - Available August 5 (July 28 - A                                                                          150                                
PROFAMCHA080801163259163331000032Suite Life of Z & C (MD) IMPRESS - This Afternoon                                                                           150                                
PROFAMCHA080801163331163434000103DC Games These Are The Teams RED - Tonight @ 7:30p                                                                          150                                
PROFAMCHA080801163434163452000018Emperor's New School (MD) BUTT IN UR - Weekday Aft                                                                          150                                
PRCFAMCHA080801163452163522000030Cineplex Latest Buzz Popcorn Parties Post-Launch 3                                                                          150                                
PRCFAMCHA080801163522163542000020Latest Buzz - SIZZLE (NS) New Eps Starting July 25                                                                          150                                
PROFAMCHA080801163542163600000018Bret Ryan Mall Tour Bumper - Aug 2 Calgary, AB (Ju                                                                          150                                
PRCFAMCHA080801163600163609000009CC Disclaimer - FAST - Generic (:09-:10)                                                                                    150                                
PGRFAMCHA080801163609165845002236Disney's Recess                                   EP: 1-046                                                            6068607ECC                              
PRCFAMCHA080801165845165857000012MD - 13 - SUITE LIFE/HANNAH (:11 - :13) (JULY08)                                                                            150                                
PROFAMCHA080801165857165925000028Zoey 101/LWD Streaming Online - All Summer Long (J                                                                          150                                
PROFAMCHA080801165925165957000032Suite Life of Z & C (MD) Wonderful Hotel - Coming                                                                           150                                
PROFAMCHA080801165957170037000040Phineas & Ferb DVD Blast - Available Now (July 29                                                                           150                                
PROFAMCHA080801170037170111000034Hannah Montana (NS) Wig Auditions - This Afternoon                                                                          150                                
PROFAMCHA080801170111170214000103DC Games These Are The Teams YELLOW - Tonight @ 7:                                                                          150                                
PRCFAMCHA080801170214170234000020Latest Buzz - SIZZLE (NS) New Eps Starting July 25                                                                          150                                
PROFAMCHA080801170234170314000040Nim's Island DVD - Available August 5 (July 28 - A                                                                          150                                
PROFAMCHA080801170314170350000036Fam Jam Mall Tour w/Brett Ryan - All Summer Long (                                                                          150                                
PRCFAMCHA080801170350170400000010MD Bumper - Race Cars (:08-:10) APR06                                                                                       150                                
ID FAMCHA080801170400170408000008Magic of Disney - MAD DASH - Shape (:06-:09)                                                                                150                                
PRCFAMCHA080801170408170417000009CC Disclaimer - FAST - Family.ca (:09-:10)                                                                                  150                                
PGRFAMCHA080801170417172657002240Suite Life of Zack & Cody, The                    EP: 01                                                               6068607BCC                              
PRCFAMCHA080801172657172703000006Astral ID (DEC 2007)                                                                                                        150                                
PRCFAMCHA080801172703172714000011MD - 14 - HANNAH/ZOEY (:11 - :13) (JULY08)                                                                                  150                                
PROFAMCHA080801172714172738000024DC Games Promo - Sprouse Twins Attack - Starts Tod                                                                          150                                
PROFAMCHA080801172738172812000034Hannah Montana (NS) Wig Auditions - Coming Up Next                                                                          150                                
PROFAMCHA080801172812172845000033Wizards Of Waverly Blast DVD - Available Now (July                                                                          150                                
PROFAMCHA080801172845172925000040Zoey 101 (NS) SAFETY CUPCAKE - Tonight @ 6pm (MAR0                                                                          150                                
PROFAMCHA080801172925172934000009Family Bumpers - (Phase 1 Spring 04) - Baseball (M                                                                          150                                
PROFAMCHA080801172934173008000034Vanessa Hudgens CD Blast REVISION (July 19- Aug 31                                                                          150                                
PRCFAMCHA080801173008173028000020Latest Buzz - SIZZLE (NS) New Eps Starting July 25                                                                          150                                
PRCFAMCHA080801173028173102000034Cats - Family First - On Sale July 30th (July 28 -                                                                          150                                
PRCFAMCHA080801173102173142000040Blue Jays Contest Spot (MD/ NS/ NSW) 3/4 Per Day                                                                            150                                
PROFAMCHA080801173142173200000018Bret Ryan Mall Tour Bumper - Aug 2 Calgary, AB (Ju                                                                          150                                
ID FAMCHA080801173200173208000008Magic of Disney - NS/NSW/PB - Wipe (:06-:09)                                                                                150                                
PRCFAMCHA080801173208173217000009CC Disclaimer - FAST - Generic (:09-:10)                                                                                    150                                
PGRFAMCHA080801173217175448002231Hannah Montana - Season 2                         EP: 10                                                               6068807BCC                              
PROFAMCHA080801175448175505000017Zoey 101 (NS)  ZOEY, ZOEY, ZOEY - Coming Up Next (                                                                          150                                
PROFAMCHA080801175505175547000042Tennis Canada - Everyday Champions REVISION (July                                                                           150                                
PRCFAMCHA080801175547175601000014Family Jams Bumper - Instruments (:13 -:15) (JULY0                                                                          150                                
PROFAMCHA080801175601175748000147Cheetah Girls One World Trailer - Friday Aug 22 @                                                                           150                                
PRCFAMCHA080801175748175808000020Latest Buzz - SIZZLE (NS) New Eps Starting July 25                                                                          150                                
PROFAMCHA080801175808175848000040Miley Cyrus CD Blast (July 22 - Oct 14) $$$                                                                                 150                                
PROFAMCHA080801175848175857000009Family Bumpers - (Phase 3 Spring 05) - Hip Hop (MD                                                                          150                                
PRCFAMCHA080801175857175931000034Cats - Family First - On Sale July 30th (July 28 -                                                                          150                                
PROFAMCHA080801175931175947000016DC Games ID - Selena Gomez 2 - Starts Tonight @ 7:                                                                          150                                
PRCFAMCHA080801175947180000000013NS Bumper - Fashion (:12-:14) APR06                                                                                         150                                
PRCFAMCHA080801180000180010000010CC Disclaimer - FAST - Family.ca (:09-:10)                                                                                  150                                
PGRFAMCHA080801180010182342002332Zoey 101                                          EP: 30                                                               2068807BCC                              
PRCFAMCHA080801182342182348000006Astral ID (DEC 2007)                                                                                                        150                                
PROFAMCHA080801182348182416000028Zoey 101/LWD Streaming Online - All Summer Long (J                                                                          150                                
PRCFAMCHA080801182416182436000020Latest Buzz - SIZZLE (NS) New Eps Starting July 25                                                                          150                                
PROFAMCHA080801182436182526000050Kid Fit - Phase 2 - Camp Rock Contest - VOTE (July                                                                          150                                
PROFAMCHA080801182526182556000030Wizards of Waverrly Place JUSTIN (NS) - Tonight @                                                                           150                                
PROFAMCHA080801182556182606000010FAMJAM - Open/Close                                                                                                         150                                
PGRFAMCHA080801182606182710000104MV - Brett Ryan - If It Feels Right (JUN08)                                                                            20688120                                
PROFAMCHA080801182710182724000014xxFAMJAM - Close (FAMILY) xxDNUxx                                                                                           150                                
PRCFAMCHA080801182724182734000010Family Jams Bumper - Disco Ball  (JULY08)                                                                                   150                                
PROFAMCHA080801182734182814000040Miley Cyrus CD Blast (July 22 - Oct 14) $$$                                                                                 150                                
PROFAMCHA080801182814182830000016DC Games ID - Joe Jonas - Starts Tonight @ 7:30pm                                                                           150                                
PRCFAMCHA080801182830182904000034Cats - Family First - On Sale July 30th (July 28 -                                                                          150                                
PROFAMCHA080801182904182942000038Cheetah Girls One World Interstitial Promo - Comin                                                                          150                                
PROFAMCHA080801182942183000000018Bret Ryan Mall Tour Bumper - Aug 2 Calgary, AB (Ju                                                                          150                                
PRCFAMCHA080801183000183010000010CC Disclaimer - FAST - Generic (:09-:10)                                                                                    150                                
PGRFAMCHA080801183010185245002235Latest Buzz, The                                  EP: 11                                                        C29140 1055607BCC3                             
PRCFAMCHA080801185245185324000039Summer Sneaks Album Previews - Jonas Brothers - We                                                                          150                                
PROFAMCHA080801185324185354000030Wizards of Waverrly Place ALEX (NS) - Coming up Ne                                                                          150                                
PROFAMCHA080801185354185434000040Nim's Island DVD - Available August 5 (July 28 - A                                                                          150                                
PROFAMCHA080801185434185451000017Zoey 101 (NSW)  ZOEY, ZOEY, ZOEY - Tomorrow Night                                                                           150                                
PROFAMCHA080801185451185722000231Cheetah Girls One World Interstitial #5 - Sabrina                                                                           150                                
PRCFAMCHA080801185722185800000038Life W D (NSW) Edwin Mystery Man - Tomorrow Night                                                                           150                                
PROFAMCHA080801185800185855000055Disney Behind The Curtain (MD, NS, NSW) 2 x Day  (                                                                          150                                
PROFAMCHA080801185855185911000016DC Games ID - Jasmine Richards 2 - Starts Tonight                                                                           150                                
PROFAMCHA080801185911185945000034Jonas Brothers Living The Dream Promo - Coming Up                                                                           150                                
PRCFAMCHA080801185945190001000016NS Bumper - Tennis (:15-:17) APR06                                                                                          150                                
PRCFAMCHA080801190001190010000009CC Disclaimer - FAST - Family.ca (:09-:10)                                                                                  150                                
PGRFAMCHA080801190010192242002232Disney Wizards of Waverly Place                   EP: 10                                                               6068607BCC                              
PRCFAMCHA080801192242192248000006Astral ID (DEC 2007)                                                                                                        150                                
PROFAMCHA080801192248192257000009DC Games Countdown - DC Games Next                                                                                          150                                
PROFAMCHA080801192257192347000050Kid Fit - Phase 2 - Camp Rock Contest - VOTE (July                                                                          150                                
PRCFAMCHA080801192347192402000015Family Jams Bumper - Graffiti (:12 -:15) (JULY08)                                                                           150                                
PROFAMCHA080801192402192906000504Jonas Brothers: Living The Dream Interstitial #14                                                                           150                                
PROFAMCHA080801192906192936000030Wizards of Waverrly Place ALEX (NSW) - Tomorrow Mo                                                                          150                                
PROFAMCHA080801192936192954000018Bret Ryan Mall Tour Bumper - Aug 2 Calgary, AB (Ju                                                                          150                                
PROFAMCHA080801192954193006000012DCG EP #1 - Segment #1 Airs Immediately Prior Epis                                                                          150                                
PGRFAMCHA080801193006193452000446DC Games 2008                                     EP: 1                                                               A6068607CCC                              
PROFAMCHA080801193452193619000127DCG EP #1 - Segment #2 - Airs Between Seg 1 & 2                                                                             150                                
PGRFAMCHA080801193619194205000546DC Games 2008                                     EP: 1                                                               A6068607CCC                              
PROFAMCHA080801194205194308000103DCG EP #1 - Segment #3 - Airs Between Seg 2 & 3                                                                             150                                
PGRFAMCHA080801194308194814000506DC Games 2008                                     EP: 1                                                               A6068607CCC                              
PROFAMCHA080801194814194856000042DCG EP #1 - Segment #4 - Airs Between Seg 3 & 4                                                                             150                                
PGRFAMCHA080801194856195546000650DC Games 2008                                     EP: 1                                                               A6068607CCC                              
PROFAMCHA080801195546195806000220DCG EP #1 - Segment #5 - Airs Immediately Followin                                                                          150                                
PROFAMCHA080801195806195846000040Phineas & Ferb DVD Blast - Available Now (July 29                                                                           150                                
PROFAMCHA080801195846195855000009Family Bumpers - (Phase 1 Spring 04) - DJ Spinning                                                                          150                                
PROFAMCHA080801195855195928000033Wizards Of Waverly Blast DVD - Available Now (July                                                                          150                                
PROFAMCHA080801195928195936000008Raven ID's II - Log onto family.ca                                                                                          150                                
ID FAMCHA080801195936195954000018Popcorn Pix Block Open (JUNE 06) (:18-:20)                                                                                  150                                
ID FAMCHA080801195954200004000010Ratings - G - Popcorn Pix Only (July 07)                                                                                    150                                
PRCFAMCHA080801200004200013000009CC Disclaimer - FAST - Family.ca (:09-:10)                                                                                  150                                
ID FAMCHA080801200013200019000006Magic of Disney - PIX - Wipe (:06-:09)                                                                                      150                                
PGRFAMCHA080801200019213704013645Cheetah Girls II; The - What's What Version                                                                           A6068807CCC                              
PRCFAMCHA080801213704213710000006Astral ID (DEC 2007)                                                                                                        150                                
PROFAMCHA080801213710213728000018Bret Ryan Mall Tour Bumper - Aug 2 Calgary, AB (Ju                                                                          150                                
ID FAMCHA080801213728213737000009Rating - G - Nightly Pix Only  (DEC05) (:08 - :10)                                                                          150                                
PRCFAMCHA080801213737213745000008CC Disclaimer - SLOW - Generic (:09 -:10)                                                                                   150                                
PGRFAMCHA080801213745232716014931Rookie, The                                                                                                           A6068807DCC                              
PGRFAMCHA080801232716234556001840Rookie, The                                                                                                           A6068807DCC                              
PROFAMCHA080801234556234609000013xxNightly Pix Movie Open (:10-:15)                                                                                          150                                
ID FAMCHA080801234609234618000009Rating - PG - Nightly Pix Only  (DEC05) (:08 - :10                                                                          150                                
PRCFAMCHA080801234618234627000009CC Disclaimer - SLOW - Family.ca (:09-:10)                                                                                  150                                
PGRFAMCHA0808012346270119530133263 Ninjas Kick Back                                                                                                    B2068807DCC                              
PRCFAMCHA080801011953011959000006Astral ID (DEC 2007)                                                                                                        150                                
PROFAMCHA080801011959012032000033Cory In The House (NS) WHAT THEY'RE SAYING - Comin                                                                          150                                
PROFAMCHA080801012032012102000030Phil Of The Future (NSW) POP QUIZ - Tomorrow Morni                                                                          150                                
PSAFAMCHA080801012102012132000030MS Society of Canada                                                                                                   1    130                                
PROFAMCHA080801012132012154000022Ned's DSSG - CRAZY DOG (AUG06) NSW Tomorrow Morn @                                                                          150                                
PRCFAMCHA080801012154012242000048Family Video Player Promo - No Tag 3/day (not in P                                                                          150                                
PROFAMCHA080801012242012300000018Bret Ryan Mall Tour Bumper - Aug 2 Calgary, AB (Ju                                                                          150                                
ID FAMCHA080801012300012308000008Magic of Disney - NS/NSW/PB - Wipe (:06-:09)                                                                                150                                
PRCFAMCHA080801012308012317000009CC Disclaimer - SLOW - Generic (:09 -:10)                                                                                   150                                
PGRFAMCHA080801012317014555002238Cory in the House                                 EP: 12                                                               6068607BCC                              
PRCFAMCHA080801014555014603000008NS Bumper - Dodgeball (:07-:09) APR06                                                                                       150                                
ID FAMCHA080801014603014611000008Magic of Disney - NS/NSW/PB - Shape (:06-:09)                                                                               150                                
PRCFAMCHA080801014611014620000009CC Disclaimer - SLOW - Family.ca (:09-:10)                                                                                  150                                
PGRFAMCHA080801014620020845002225Smart Guy                                         EP: 1-002                                                            6068807BCC                              
PRCFAMCHA080801020845020851000006Astral ID (DEC 2007)                                                                                                        150                                
PRCFAMCHA080801020851020904000013NS - 18 - BOY MEETS WORLD/LIFE WITH DEREK (:11 - :                                                                          150                                
PROFAMCHA080801020904020922000018Bret Ryan Mall Tour Bumper - Aug 2 Calgary, AB (Ju                                                                          150                                
ID FAMCHA080801020922020930000008Magic of Disney - NS/NSW/PB - Wipe (:06-:09)                                                                                150                                
PRCFAMCHA080801020930020939000009CC Disclaimer - SLOW - Generic (:09 -:10)                                                                                   150                                
PGRFAMCHA080801020939023149002210Boy Meets World                                   EP: 1-040                                                           B6068807BCC                              
PRCFAMCHA080801023149023202000013NS - 19 - LIFE WITH DEREK/CORY IN THE HOUSE (:11 -                                                                          150                                
PRCFAMCHA080801023202023215000013NS Bumper - Fashion (:12-:14) APR06                                                                                         150                                
PRCFAMCHA080801023215023224000009CC Disclaimer - SLOW - Family.ca (:09-:10)                                                                                  150                                
PGRFAMCHA080801023224025454002230Life with Derek                                   EP: 14                                                        C26679A1065607BCC                              
PRCFAMCHA080801025454025500000006Astral ID (DEC 2007)                                                                                                        150                                
PRCFAMCHA080801025500025513000013NS - 20 -CORY IN THE HOUSE/RAVEN (:11 - :13) (SEPT                                                                          150                                
PROFAMCHA080801025513025531000018Bret Ryan Mall Tour Bumper - Aug 2 Calgary, AB (Ju                                                                          150                                
ID FAMCHA080801025531025539000008Magic of Disney - NS/NSW/PB - Wipe (:06-:09)                                                                                150                                
PRCFAMCHA080801025539025548000009CC Disclaimer - SLOW - Generic (:09 -:10)                                                                                   150                                
PGRFAMCHA080801025548031824002236Cory in the House                                 EP: 19                                                               6068607BCC                              
PRCFAMCHA080801031824031837000013NS - 21 - RAVEN/ SUITE LIFE (:11 - :13) (SEPT07)                                                                            150                                
PRCFAMCHA080801031837031853000016NS Bumper - Tennis (:15-:17) APR06                                                                                          150                                
ID FAMCHA080801031853031902000009Magic of Disney - NS/NSW/PB - Shape (:06-:09)                                                                               150                                
PRCFAMCHA080801031902031912000010CC Disclaimer - SLOW - Family.ca (:09-:10)                                                                                  150                                
PGRFAMCHA080801031912034151002239That's So Raven                                   EPS # 1-022                                                          6068607BCC                              
PRCFAMCHA080801034151034157000006Astral ID (DEC 2007)                                                                                                        150                                
PRCFAMCHA080801034157034210000013NS - 22 - SUITE LIFE/LIFE WITH DEREK (:11 - :13) (                                                                          150                                
PROFAMCHA080801034210034228000018Bret Ryan Mall Tour Bumper - Aug 2 Calgary, AB (Ju                                                                          150                                
ID FAMCHA080801034228034237000009Magic of Disney - NS/NSW/PB - Wipe (:06-:09)                                                                                150                                
PRCFAMCHA080801034237034247000010CC Disclaimer - SLOW - Generic (:09 -:10)                                                                                   150                                
PGRFAMCHA080801034247040528002241Suite Life of Zack & Cody, The                    EP: 18                                                               6068607BCC                              
PRCFAMCHA080801040528040541000013NS - 23 - LIFE WITH DEREK (:11 - :13) (SEPT07)                                                                              150                                
PRCFAMCHA080801040541040550000009NS Bumper - Dodgeball (:07-:09) APR06                                                                                       150                                
PRCFAMCHA080801040550040600000010CC Disclaimer - SLOW - Family.ca (:09-:10)                                                                                  150                                
PGRFAMCHA080801040600042831002231Life with Derek                                   EP: 23                                                        C26822 1065607BCC                              
PRCFAMCHA080801042831042837000006Astral ID (DEC 2007)                                                                                                        150                                
PRCFAMCHA080801042837042912000035Franny's Feet (FJR) GENERIC - Weekday Mornings @ 9                                                                          150                                
PRCFAMCHA080801042912042942000030PH-D Promo - Parent Sell (JUNE 2008)                                                                                        150                                
ID FAMCHA080801042942042959000017Family Jr. Block Open (:14-:17) (JUL08)                                                                                     150                                
OFFFAMCHA080801042959043000000001OFF AIR                                                                                                                                                        
SO FAMCHA080802043000043011000011Sign On (oct 1)                                                                                                                                                
PRCFAMCHA080802043011043020000009CC Disclaimer - FAST - Generic (:09-:10)                                                                                    150                                
PGRFAMCHA080802043020045421002401Henry's World                                     EP: 2-019                                                     B81050A1065607GCC                              
PRCFAMCHA080802045421045427000006Astral ID (DEC 2007)                                                                                                        150                                
PRCFAMCHA080802045427045439000012Family Jr. Bumper - Collide (:11- :14) (JUL08)                                                                              150                                
PRCFAMCHA080802045439045448000009CC Disclaimer - FAST - Family.ca (:09-:10)                                                                                  150                                
PGRFAMCHA080802045448051718002230The Secret World Of Benjamin Bear                 EPS # 1-001                                                   B75146 1065607ECC                              
PRCFAMCHA080802051718051730000012Family Jr. Bumper - Music (:11- :14) (JUL08)                                                                                150                                
PRCFAMCHA080802051730051739000009CC Disclaimer - FAST - Generic (:09-:10)                                                                                    150                                
PGRFAMCHA080802051739054009002230Franny's Feet                                     EPS # 25                                                      C23971 1065607ECC                              
PRCFAMCHA080802054009054015000006Astral ID (DEC 2007)                                                                                                        150                                
PRCFAMCHA080802054015054030000015Family Jr. Bumper - Portal (:14- :17) (JUL08)                                                                               150                                
PRCFAMCHA080802054030054038000008CC Disclaimer - FAST - Family.ca (:09-:10)                                                                                  150                                
PGRFAMCHA080802054038060308002230King                                              EP: 4-045                                                     C25350 1065607ECC                              
PROFAMCHA080802060308060328000020Jetix Block Open (:18-:21)                                                                                                  150                                
PRCFAMCHA080802060328060337000009CC Disclaimer - FAST - Generic (:09-:10)                                                                                    150                                
PGRFAMCHA080802060337062614002237Power Rangers:  Operation Overdrive               EP: 12                                                               2068607ECC                              
PRCFAMCHA080802062614062620000006Astral ID (DEC 2007)                                                                                                        150                                
PRCFAMCHA080802062620062708000048Family Video Player Promo - No Tag 3/day (not in P                                                                          150                                
PRCFAMCHA080802062708062741000033Disney Block Party REVISED (July 31 - Aug 5) $$$                                                                            150                                
PROFAMCHA080802062741062809000028Zoey 101/LWD Streaming Online - All Summer Long (J                                                                          150                                
PROFAMCHA080802062809062839000030Cheetah Girls One World FOD Promo - Prems FOD Aug                                                                           150                                
PROFAMCHA080802062839062900000021Jetix Block Open (:18-:21)                                                                                                  150                                
PRCFAMCHA080802062900062908000008CC Disclaimer - FAST - Family.ca (:09-:10)                                                                                  150                                
PGRFAMCHA080802062908065140002232Power Rangers Jungle Fury                         EP: 20                                                               2068607ACC                              
PRCFAMCHA080802065140065240000100Family Jams Overall Summer Promo REVISED 2 (June 2                                                                          150                                
PRCFAMCHA080802065240065251000011Family Jams Bumper - Amp (:09 -:12) (JULY08)                                                                                150                                
PRCFAMCHA080802065251065324000033Disney Block Party REVISED (July 31 - Aug 5) $$$                                                                            150                                
PROFAMCHA080802065324065340000016DC Games ID - Anna Maria Perez 1 - This Friday @ 7                                                                          150                                
PROFAMCHA080802065340065400000020Jetix Block Open (:18-:21)                                                                                                  150                                
PRCFAMCHA080802065400065409000009CC Disclaimer - FAST - Generic (:09-:10)                                                                                    150                                
PGRFAMCHA080802065409071640002231Yin Yang Yo!                                      EP: 17                                                               2068607ECC                              
PRCFAMCHA080802071640071646000006Astral ID (DEC 2007)                                                                                                        150                                
PROFAMCHA080802071646071724000038Cheetah Girls One World Interstitial Promo - Catch                                                                          150                                
PROFAMCHA080802071724071806000042Tennis Canada - Everyday Champions REVISION (July                                                                           150                                
PRCFAMCHA080802071806071821000015Family Jams Bumper - Instruments (:13 -:15) (JULY0                                                                          150                                
PROFAMCHA080802071821071916000055Disney Behind The Curtain (MD, NS, NSW) 2 x Day  (                                                                          150                                
PROFAMCHA080802071916071940000024DC Games Promo - Sprouse Twins Attack - Friday @ 7                                                                          150                                
PROFAMCHA080802071940072000000020Jetix Block Open (:18-:21)                                                                                                  150                                
PRCFAMCHA080802072000072008000008CC Disclaimer - FAST - Family.ca (:09-:10)                                                                                  150                                
PGRFAMCHA080802072008074258002250Pucca                                             EP: 24                                                               2068607ECC                              
PRCFAMCHA080802074258074310000012NSW - 01 - HANNAH/SUITE LIFE (:11 - :13) (SEPT07)                                                                           150                                
PROFAMCHA080802074310074327000017DC Games 2008 Promo Short - Friday @ 7:30pm                                                                                 150                                
PROFAMCHA080802074327074356000029Hannah Montana - SUPER AWESOME (NSW) Coming Up Nex                                                                          150                                
PROFAMCHA080802074356074436000040Miley Cyrus CD Blast (July 22 - Oct 14) $$$                                                                                 150                                
PRCFAMCHA080802074436074445000009Family Jams Bumper - Amp (:09 -:12) (JULY08)                                                                                150                                
PROFAMCHA080802074445074632000147Cheetah Girls One World Trailer - Friday Aug 22 @                                                                           150                                
PROFAMCHA080802074632074702000030Zoey 101 (NSW) ANOTHER DAY AT PCA - This Mornings                                                                           150                                
PRCFAMCHA080802074702074742000040Blue Jays Contest Spot (MD/ NS/ NSW) 3/4 Per Day                                                                            150                                
PROFAMCHA080802074742074800000018Nonstop Weekend Block Open (:16-:18) APR06                                                                                  150                                
ID FAMCHA080802074800074808000008Magic of Disney - NS/NSW/PB - Shape (:06-:09)                                                                               150                                
PRCFAMCHA080802074808074817000009CC Disclaimer - FAST - Generic (:09-:10)                                                                                    150                                
PGRFAMCHA080802074817081055002238Hannah Montana                                    EP: 16                                                               6068807BCC                              
PRCFAMCHA080802081055081101000006Astral ID (DEC 2007)                                                                                                        150                                
PRCFAMCHA080802081101081114000013NSW - 02 - SUITE LIFE/ZOEY 101 (:11 - :13) (SEPT07                                                                          150                                
PROFAMCHA080802081114081146000032Suite Life of Z & C (NSW) IMPRESS - Coming Up Next                                                                          150                                
PROFAMCHA080802081146081226000040Phineas & Ferb DVD Blast - Available Now (July 29                                                                           150                                
PROFAMCHA080802081226081309000043Cory In The House (NSW) (MAR07) - This morning @ 9                                                                          150                                
PRCFAMCHA080802081309081323000014Family Jams Bumper - Graffiti (:12 -:15) (JULY08)                                                                           150                                
PROFAMCHA080802081323081403000040Nim's Island DVD - Available August 5 (July 28 - A                                                                          150                                
PRCFAMCHA080802081403081442000039Summer Sneaks Album Previews - Jonas Brothers - We                                                                          150                                
PROFAMCHA080802081442081500000018Bret Ryan Mall Tour Bumper - Aug 2 Calgary, AB (Ju                                                                          150                                
ID FAMCHA080802081500081508000008Magic of Disney - MAD DASH - Wipe (:06-:09)                                                                                 150                                
PRCFAMCHA080802081508081516000008CC Disclaimer - FAST - Family.ca (:09-:10)                                                                                  150                                
PGRFAMCHA080802081516083747002231Suite Life of Zack and Cody, The                  EP: 19                                                               6068607BCC                              
PRCFAMCHA080802083747083759000012NSW - 03 - ZOEY 101/CORY IN THE HOUSE (:11 - :13)                                                                           150                                
PROFAMCHA080802083759083835000036Fam Jam Mall Tour w/Brett Ryan - All Summer Long (                                                                          150                                
PROFAMCHA080802083835083852000017Zoey 101 (NSW)  ZOEY, ZOEY, ZOEY - Coming Up Next                                                                           150                                
PROFAMCHA080802083852083925000033Wizards Of Waverly Blast DVD - Available Now (July                                                                          150                                
PROFAMCHA080802083925084019000054That's So Raven FORTUNE TELLER (NSW) This Morning                                                                           150                                
PRCFAMCHA080802084019084033000014Family Jams Bumper - Keyboard (:13 -:15) (JULY08)                                                                           150                                
PROFAMCHA080802084033084043000010FAMJAM - Open/Close                                                                                                         150                                
PGRFAMCHA080802084043084147000104MV - Brett Ryan - If It Feels Right (JUN08)                                                                            20688120                                
PROFAMCHA080802084147084201000014xxFAMJAM - Close (FAMILY) xxDNUxx                                                                                           150                                
PRCFAMCHA080802084201084221000020Latest Buzz - SIZZLE (NS) New Eps Starting July 25                                                                          150                                
PROFAMCHA080802084221084251000030Cheetah Girls One World FOD Promo - Prems FOD Aug                                                                           150                                
PRCFAMCHA080802084251084258000007NSW Bumper - Dodgeball (:07-:09) APR06                                                                                      150                                
PRCFAMCHA080802084258084307000009CC Disclaimer - FAST - Generic (:09-:10)                                                                                    150                                
PGRFAMCHA080802084307090639002332Zoey 101                                          EP: 18                                                              A2068807BCC                              
PRCFAMCHA080802090639090645000006Astral ID (DEC 2007)                                                                                                        150                                
PRCFAMCHA080802090645090658000013NSW - 04 - CORY IN THE HOUSE/RAVEN (:11 - :13) (SE                                                                          150                                
PROFAMCHA080802090658090731000033Cory In The House (NSW) WHAT THEY'RE SAYING - Comi                                                                          150                                
PRCFAMCHA080802090731090805000034Cats - Family First - On Sale July 30th (July 28 -                                                                          150                                
PRCFAMCHA080802090805090819000014Family Jams Bumper - Instruments (:13 -:15) (JULY0                                                                          150                                
PGRFAMCHA080802090819090949000130Camp Rock - How To Be A Rockstar #2                                                                                   A60688120                                
PROFAMCHA080802090949091011000022Ned's DSSG - CRAZY DOG (AUG06) NSW This Morn @ 11:                                                                          150                                
PROFAMCHA080802091011091053000042Tennis Canada - Everyday Champions REVISION (July                                                                           150                                
PRCFAMCHA080802091053091141000048Family Video Player Promo - No Tag 3/day (not in P                                                                          150                                
PROFAMCHA080802091141091159000018Bret Ryan Mall Tour Bumper - Aug 2 Calgary, AB (Ju                                                                          150                                
ID FAMCHA080802091159091207000008Magic of Disney - NS/NSW/PB - Shape (:06-:09)                                                                               150                                
PRCFAMCHA080802091207091217000010CC Disclaimer - FAST - Family.ca (:09-:10)                                                                                  150                                
PGRFAMCHA080802091217093448002231Cory in the House Season 2                        EP: 08                                                               6068607BCC                              
PRCFAMCHA080802093448093501000013NSW - 05 - RAVEN/PHIL (:11 - :13) (SEPT07)                                                                                  150                                
PRCFAMCHA080802093501093601000100Family Jams Overall Summer Promo REVISED 2 (June 2                                                                          150                                
PROFAMCHA080802093601093655000054That's So Raven FORTUNE TELLER (NSW) Coming Up Nex                                                                          150                                
PROFAMCHA080802093655093729000034Vanessa Hudgens CD Blast REVISION (July 19- Aug 31                                                                          150                                
PROFAMCHA080802093729093759000030Wizards of Waverrly Place JUSTIN (NSW) - This Morn                                                                          150                                
PROFAMCHA080802093759094030000231Cheetah Girls One World Interstitial #5 - Sabrina                                                                           150                                
PROFAMCHA080802094030094047000017DC Games 2008 Promo Short - Friday @ 7:30pm                                                                                 150                                
PRCFAMCHA080802094047094100000013NSW Bumper - Fashion (:12-:14) JUNE06                                                                                       150                                
ID FAMCHA080802094100094107000007Magic of Disney - NS/NSW/PB - Wipe (:06-:09)                                                                                150                                
PRCFAMCHA080802094107094116000009CC Disclaimer - FAST - Generic (:09-:10)                                                                                    150                                
PGRFAMCHA080802094116100355002239That's So Raven                                   EPS # 1-041                                                          6068607BCC                              
PRCFAMCHA080802100355100401000006Astral ID (DEC 2007)                                                                                                        150                                
PROFAMCHA080802100401100435000034Jonas Brothers Living The Dream Promo - Catch it o                                                                          150                                
PROFAMCHA080802100435100505000030Phil Of The Future (NSW) POP QUIZ - Coming Up Next                                                                          150                                
PROFAMCHA080802100505100555000050Kid Fit - Phase 2 - Camp Rock Contest - VOTE (July                                                                          150                                
PROFAMCHA080802100555100625000030Wizards of Waverrly Place ALEX (NSW) - This Mornin                                                                          150                                
PROFAMCHA080802100625100728000103DC Games These Are The Teams BLUE - Friday @ 7:30p                                                                          150                                
PROFAMCHA080802100728100759000031Ned's DSSG - Cookie Clip (APR06)(NSW) This Morning                                                                          150                                
PRCFAMCHA080802100759100829000030Latest Buzz - LOCO LOCO (NS) New Episodes Friday N                                                                          150                                
PROFAMCHA080802100829100911000042Tennis Canada - Everyday Champions REVISION (July                                                                           150                                
PROFAMCHA080802100911100941000030Cheetah Girls One World FOD Promo - Prems FOD Aug                                                                           150                                
PROFAMCHA080802100941100959000018Bret Ryan Mall Tour Bumper - Aug 2 Calgary, AB (Ju                                                                          150                                
ID FAMCHA080802100959101007000008Magic of Disney - NS/NSW/PB - Shape (:06-:09)                                                                               150                                
PRCFAMCHA080802101007101016000009CC Disclaimer - FAST - Family.ca (:09-:10)                                                                                  150                                
PGRFAMCHA080802101016103252002236Phil of the Future Yr 2                           EP: 37                                                               6068607BCC                              
PROFAMCHA080802103252103322000030Wizards of Waverrly Place JUSTIN (NSW) - Coming Up                                                                          150                                
PROFAMCHA080802103322103402000040Phineas & Ferb DVD Blast - Available Now (July 29                                                                           150                                
PROFAMCHA080802103402103422000020Ned's DSSG - Drum Roll (JUNE06) NSW This Morn @ 11                                                                          150                                
PGRFAMCHA080802103422103552000130Camp Rock - How To Be A Rockstar #1                                                                                   A60688120                                
PROFAMCHA080802103552103624000032Suite Life of Z & C (NSW) Wonderful Hotel - This M                                                                          150                                
PROFAMCHA080802103624103704000040Nim's Island DVD - Available August 5 (July 28 - A                                                                          150                                
PRCFAMCHA080802103704103743000039Summer Sneaks Album Previews - Jonas Brothers - We                                                                          150                                
PRCFAMCHA080802103743103800000017NSW Bumper - Tennis (:15-:17) APR06                                                                                         150                                
PRCFAMCHA080802103800103809000009CC Disclaimer - FAST - Generic (:09-:10)                                                                                    150                                
PGRFAMCHA080802103809110040002231Disney Wizards of Waverly Place                   EP: 18                                                               6068607BCC                              
PRCFAMCHA080802110040110046000006Astral ID (DEC 2007)                                                                                                        150                                
