SO FAMCHA020301043000043011000011Sign On (oct 1)                                                                                                                                                
PROFAMCHA020301043011043019000008CC Is Brought To You By - Ian **DNU AFTER 09/22**                                                                           150                                
PGRFAMCHA020301043019045325002306Out of the Box                                    We're Cooking                                                        60686110CC                              
ID FAMCHA020301045325045336000011Generic ID - soccer                                                                                                         150                                
PROFAMCHA020301045336045350000014Art Attack (ART) - Coming Up                                                                                                150                                
PROFAMCHA020301045350045400000010Preschool Line-Up - 01 - ART/KATIE/DUCKTALES                                                                                150                                
PGRFAMCHA020301045400050855001455Art Attack                                        1-124                                                               A60686110                                
ID FAMCHA020301050855050900000005Generic ID - Couch 1*                                                                                                       150                                
PROFAMCHA020301050900050917000017Katie and Orbie (OCT2001) - Coming Up                                                                                       150                                
PRCFAMCHA020301050917050940000023Franklin (HICCUP) - Today @ 6:30am                                                                                          150                                
ID FAMCHA020301050940050953000013Schoolhouse Promo - Coming Up                                                                                               150                                
PROFAMCHA020301050953051011000018Elmo's World (FAM3) - Today @ 8:45am                                                                                        150                                
INTFAMCHA020301051011051334000323Schoolhouse Rock - Figure Eight                                                                                       A60686120                                
PROFAMCHA020301051334051403000029House of Mouse (HATS) - Tomorrow @ 3:50pm                                                                                   150                                
PROFAMCHA020301051403051450000047DuckTales (AUG2001) - Today @ 5:40am                                                                                        150                                
PROFAMCHA020301051450051500000010Preschool Line-Up - 02 - KATIE/DUCKTALES/LULU                                                                               150                                
PROFAMCHA020301051500051508000008CC Is Brought To You By - Ian **DNU AFTER 09/22**                                                                           150                                
PGRFAMCHA020301051508054146002638Katie And Orbie                                   Sticky Fingers/Train Museum/Babysitting Megan                 C19664A1065607ECC                              
ID FAMCHA020301054146054156000010Generic ID - Family w/dog                                                                                                   150                                
PROFAMCHA020301054156054243000047DuckTales (AUG2001) - Coming Up                                                                                             150                                
PROFAMCHA020301054243054250000007PB&J Otter (AUG2001) - Kite - Today @ 9:30am                                                                                150                                
PROFAMCHA020301054250054300000010Preschool Line-Up - 03 - DUCKTALES/LULU/FRANKLIN                                                                            150                                
PROFAMCHA020301054300054308000008CC Is Brought To You By - Lark **DNU AFTER 09/22**                                                                          150                                
PGRFAMCHA020301054308060553002245Disney's DuckTales                                Magica's Shadow War                                                 A6068607ECC                              
ID FAMCHA020301060553060603000010Generic ID - Hula Hoop                                                                                                      150                                
PROFAMCHA020301060603060609000006Little Lulu (AUG2001) - Lulu - Coming Up                                                                                    150                                
PRCFAMCHA020301060609060636000027Franklin (SUB) - Today @ 6:30am                                                                                             150                                
PROFAMCHA020301060636060650000014Art Attack (ART) - Today @ 8am                                                                                              150                                
PROFAMCHA020301060650060700000010Preschool Line-Up - 04 - LULU/FRANKLIN/GOOF                                                                                 150                                
PROFAMCHA020301060700060708000008CC Is Brought To You By - Ian **DNU AFTER 09/22**                                                                           150                                
PGRFAMCHA020301060708063041002333Little Lulu Show; The                             Tubbie on Ice, Iggie's New Leaf, Dr. X's Xtremely             B20208A1065607ECC                              
ID FAMCHA020301063041063046000005Generic ID - Couch 1*                                                                                                       150                                
PROFAMCHA020301063046063056000010Preschool Line-Up - 05 - FRANKLIN/GOOF/BUZZ                                                                                 150                                
PROFAMCHA020301063056063104000008CC Is Brought To You By - Lark **DNU AFTER 09/22**                                                                          150                                
PGRFAMCHA020301063104065357002253Franklin                                          Crystal/Advice                                                A53213A1065607ECC                              
ID FAMCHA020301065357065407000010Generic ID - Pink inner tube                                                                                                150                                
PRCFAMCHA020301065407065421000014Goof Troop (SOUP) - Coming Up                                                                                               150                                
PROFAMCHA020301065421065445000024Family Goes Green                                                                                                           150                                
INTFAMCHA020301065445065819000334MV Disney - Forever And Ever (KATHIE LEE GIFFORD)                                                                      60688120                                
PROFAMCHA020301065819065940000121Elmo's World (FAM2) - Today @ 8:45am                                                                                        150                                
PROFAMCHA020301065940065950000010Preschool Line-Up - 06 - GOOF/BUZZ/ART                                                                                      150                                
ID FAMCHA020301065950070000000010xxMagic of Disney - V2(sky) - KID MALE                                                                                      150                                
PROFAMCHA020301070000070008000008CC Is Brought To You By - Ian **DNU AFTER 09/22**                                                                           150                                
PGRFAMCHA020301070008072258002250Goof Troop                                        Axed By Addition                                                     6068607ECC                              
ID FAMCHA020301072258072304000006Generic ID - soccer                                                                                                         150                                
PROFAMCHA020301072304072328000024Family Goes Green                                                                                                           150                                
PROFAMCHA020301072328072408000040Buzz Lightyear (TRANDIBULATOR) - Coming Up                                                                                  150                                
PROFAMCHA020301072408072422000014Art Attack (ART) - Today @ 8am                                                                                              150                                
PROFAMCHA020301072422072447000025New Adv of WTP (TREE) - Today @ 10:20am                                                                                     150                                
ID FAMCHA020301072447072502000015Schoolhouse Promo - Coming Up                                                                                               150                                
PROFAMCHA020301072502072528000026Stanley (BABY PICS) - Today @ 9:05am                                                                                        150                                
INTFAMCHA020301072528072851000323Schoolhouse Rock - Naughty Number Nine                                                                                A60686120                                
PROFAMCHA020301072851072911000020Hoze Houndz (AUG2001) - Today @ 11:35am                                                                                     150                                
PROFAMCHA020301072911072950000039House of Mouse (DOOR) - Tomorrow @ 3:50pm                                                                                   150                                
PROFAMCHA020301072950073000000010Preschool Line-Up - 07 - BUZZ/ART/LULU                                                                                      150                                
PROFAMCHA020301073000073008000008CC Is Brought To You By - Ian **DNU AFTER 09/22**                                                                           150                                
PGRFAMCHA020301073008075249002241Disney/Pixar's Buzz Lightyear of Star Command     The Tourque Armada                                                   6068607ECC                              
ID FAMCHA020301075249075254000005Generic ID - Bubbles*                                                                                                       150                                
PROFAMCHA020301075254075322000028Art Attack (SCOTSMAN) - Coming Up                                                                                           150                                
PROFAMCHA020301075322075341000019House of Mouse (PINOCCHIO) - Tomorrow @ 3:50pm                                                                              150                                
ID FAMCHA020301075341075356000015Schoolhouse Promo - Coming Up                                                                                               150                                
PROFAMCHA020301075356075409000013Little Lulu (SWEEP) - Today @ 8:20am                                                                                        150                                
INTFAMCHA020301075409075732000323Schoolhouse Rock - Ready or Not, Here I Come                                                                          A60686120                                
INTFAMCHA020301075732075829000057Frankenguy and the Professor - pilot                                                                                   60688120                                
PROFAMCHA020301075829075950000121Elmo's World (FAM2) - Today @ 8:45am                                                                                        150                                
PROFAMCHA020301075950080000000010Preschool Line-Up - 08 - ART/LULU/ELMO                                                                                      150                                
PGRFAMCHA020301080000081516001516Art Attack                                        1-021                                                                60686110                                
ID FAMCHA020301081516081526000010Generic ID - Ring around the rosie                                                                                          150                                
PROFAMCHA020301081526081539000013Little Lulu (SWEEP) - Coming Up                                                                                             150                                
PROFAMCHA020301081539081557000018Elmo's World (FAM3) - Today @ 8:45am                                                                                        150                                
PROFAMCHA020301081557081636000039House of Mouse (DOOR) - Tomorrow @ 3:50pm                                                                                   150                                
INTFAMCHA020301081636082024000348Art Attack - Pirate Treasure Chest                                                                                     60686120                                
PROFAMCHA020301082024082050000026Stanley (BABY PICS) - Today @ 9:05am                                                                                        150                                
PROFAMCHA020301082050082100000010Preschool Line-Up - 09 - LULU/ELMO/STANLEY                                                                                  150                                
PROFAMCHA020301082100082108000008CC Is Brought To You By - Lark **DNU AFTER 09/22**                                                                          150                                
PGRFAMCHA020301082108084500002352Little Lulu Show; The                             Tiny Tot's Syrup/The Night Before Christmas/The Pi            C19509A1065607ECC                              
ID FAMCHA020301084500084507000007Generic ID - Whisper*                                                                                                       150                                
PROFAMCHA020301084507084533000026Elmo's World (FAM1) - Coming Up                                                                                             150                                
PROFAMCHA020301084533084550000017Katie and Orbie (OCT2001) - Today @ 9:55am                                                                                  150                                
PROFAMCHA020301084550084600000010Preschool Line-Up - 10 - ELMO/STANLEY/PB&J                                                                                  150                                
PGRFAMCHA020301084600090118001518Elmo's World                                      Hats                                                                A2068607G                                
ID FAMCHA020301090118090128000010Generic ID - Pink inner tube                                                                                                150                                
PROFAMCHA020301090128090146000018Stanley (MAR) - Coming Up                                                                                                   150                                
PROFAMCHA020301090146090155000009PB&J Otter (AUG2001) - Open - Today @ 9:30am                                                                                150                                
INTFAMCHA020301090155090436000241MV Disney - Baby Mine (MICHAEL CRAWFORD)                                                                               60688120                                
PROFAMCHA020301090436090450000014New Adv of WTP (REMOTE) - Today @ 10:20am                                                                                   150                                
PROFAMCHA020301090450090500000010Preschool Line-Up - 11 - STANLEY/PB&J/KATIE                                                                                 150                                
PROFAMCHA020301090500090508000008CC Is Brought To You By - Ian **DNU AFTER 09/22**                                                                           150                                
PGRFAMCHA020301090508092906002358Stanley                                           Up The Apple/Kangaroo Clean Up                                      A6068607ECC                              
ID FAMCHA020301092906092911000005Generic ID - Marbles                                                                                                        150                                
PROFAMCHA020301092911092938000027PB&J Otter (PIE) - Coming Up                                                                                                150                                
PROFAMCHA020301092938092951000013Little Lulu (SWEEP) - Today @ 12pm                                                                                          150                                
PROFAMCHA020301092951093001000010Preschool Line-Up - 12 - PB&J/KATIE/WTP                                                                                     150                                
PROFAMCHA020301093001093008000007CC Is Brought To You By - Ian                                                                                               150                                
PGRFAMCHA020301093008095338002330PB&J Otter                                        Butter's First Check-Up/Legend of Pond De L'Otter                   A6068607ECC                              
ID FAMCHA020301095338095349000011Generic ID - soccer                                                                                                         150                                
PROFAMCHA020301095349095406000017Katie and Orbie (OCT2001) - Coming Up                                                                                       150                                
PROFAMCHA020301095406095432000026Elmo's World (FAM1) - Today @ 12:45pm                                                                                       150                                
PROFAMCHA020301095432095450000018Stanley (MAR) - Today @ 1:05pm                                                                                              150                                
PROFAMCHA020301095450095500000010Preschool Line-Up - 13 - KATIE/WTP/OOTB                                                                                     150                                
PROFAMCHA020301095500095508000008CC Is Brought To You By - Ian **DNU AFTER 09/22**                                                                           150                                
PGRFAMCHA020301095508102146002638Katie And Orbie                                   Shannon/Grandma/Birds                                         C19665A1055607ECC3                             
ID FAMCHA020301102146102152000006Generic ID - soccer                                                                                                         150                                
PROFAMCHA020301102152102217000025New Adv of WTP (TREE) - Coming Up                                                                                           150                                
PRCFAMCHA020301102217102240000023Franklin (HICCUP) - Today @ 12:25pm                                                                                         150                                
PROFAMCHA020301102240102250000010Preschool Line-Up - 14 - WTP/OOTB/DUCKTALES                                                                                 150                                
ID FAMCHA020301102250102300000010xxMagic of Disney - V2(sky) - KID MALE                                                                                      150                                
PROFAMCHA020301102300102308000008CC Is Brought To You By - Lark **DNU AFTER 09/22**                                                                          150                                
PGRFAMCHA020301102308104551002243New Adventures of Winnie the Pooh; The            To Bee Or Not To Bee/April Pooh                                      6068607ECC                              
ID FAMCHA020301104551104556000005Generic ID - Marbles                                                                                                        150                                
PROFAMCHA020301104556104611000015Out of the Box - Coming Up                                                                                                  150                                
PROFAMCHA020301104611104650000039House of Mouse (DOOR) - Tomorrow @ 3:50pm                                                                                   150                                
PROFAMCHA020301104650104700000010Preschool Line-Up - 15 - OOTB/DUCKTALES/HOZE                                                                                150                                
PROFAMCHA020301104700104708000008CC Is Brought To You By - Ian **DNU AFTER 09/22**                                                                           150                                
PGRFAMCHA020301104708110929002221Out of the Box                                    Scrub a Dub                                                          60686110CC                              
ID FAMCHA020301110929110944000015Generic ID - confetti                                                                                                       150                                
PROFAMCHA020301110944111010000026DuckTales (CLIP) - Coming Up                                                                                                150                                
PROFAMCHA020301111010111030000020Disney's One, Too (AUG2001) - Today @ 4pm                                                                                   150                                
PROFAMCHA020301111030111050000020Hoze Houndz (AUG2001) - Today @ 11:35am                                                                                     150                                
PROFAMCHA020301111050111100000010Preschool Line-Up - 16 - DUCKTALES/HOZE/LULU                                                                                150                                
PROFAMCHA020301111100111108000008CC Is Brought To You By - Lark **DNU AFTER 09/22**                                                                          150                                
PGRFAMCHA020301111108113343002235Disney's DuckTales                                The Bride Wore Stripes                                              A6068607ECC                              
ID FAMCHA020301113343113353000010Generic ID - Family w/dog                                                                                                   150                                
PROFAMCHA020301113353113413000020Hoze Houndz (AUG2001) - Coming Up                                                                                           150                                
PROFAMCHA020301113413113426000013Little Lulu (SWEEP) - Today @ 12pm                                                                                          150                                
PROFAMCHA020301113426113451000025New Adv of WTP (TREE) - Today @ 2:25pm                                                                                      150                                
PROFAMCHA020301113451113501000010Preschool Line-Up - 17 - HOZE/LULU/FRANKLIN                                                                                 150                                
PROFAMCHA020301113501113509000008CC Is Brought To You By - Ian **DNU AFTER 09/22**                                                                           150                                
PGRFAMCHA020301113509115745002236Hoze Houndz                                       Scrak to the Future/Hozercat                                  B17123A1065607ECC                              
ID FAMCHA020301115745115752000007Generic ID - Whisper*                                                                                                       150                                
PROFAMCHA020301115752115805000013Little Lulu (SWEEP) - Coming Up                                                                                             150                                
PRCFAMCHA020301115805115832000027Franklin (FIXIT) - Today @ 12:25pm                                                                                          150                                
PROFAMCHA020301115832115850000018Stanley (MAR) - Today @ 1:05pm                                                                                              150                                
PROFAMCHA020301115850115900000010Preschool Line-Up - 18 - LULU/FRANKLIN/ELMO                                                                                 150                                
PROFAMCHA020301115900115908000008CC Is Brought To You By - Lark **DNU AFTER 09/22**                                                                          150                                
PGRFAMCHA020301115908122300002352Little Lulu Show; The                             Space Kids/Case of Disappearing Drum/From Hero to             C19509A1065607ECC                              
ID FAMCHA020301122300122307000007Generic ID - Whisper*                                                                                                       150                                
PROFAMCHA020301122307122331000024Family Goes Green                                                                                                           150                                
PROFAMCHA020301122331122350000019House of Mouse (PINOCCHIO) - Tomorrow @ 3:50pm                                                                              150                                
PROFAMCHA020301122350122400000010Preschool Line-Up - 19 - FRANKLIN/ELMO/STANLEY                                                                              150                                
PROFAMCHA020301122400122408000008CC Is Brought To You By - Ian **DNU AFTER 09/22**                                                                           150                                
PGRFAMCHA020301122408124701002253Franklin                                          Franklin's Cookie Question/Franklin's Picnic                  A53214A1065607ECC                              
ID FAMCHA020301124701124708000007Generic ID - Whisper*                                                                                                       150                                
PROFAMCHA020301124708124726000018Elmo's World (FAM3) - Coming Up                                                                                             150                                
PROFAMCHA020301124726124750000024Family Goes Green                                                                                                           150                                
PROFAMCHA020301124750124800000010Preschool Line-Up - 20 - ELMO/STANLEY/PB&J                                                                                  150                                
PGRFAMCHA020301124800130254001454Elmo's World                                      Dance                                                               A2068607G                                
ID FAMCHA020301130254130304000010Generic ID - Family w/dog                                                                                                   150                                
PROFAMCHA020301130304130322000018Stanley (MAR) - Coming Up                                                                                                   150                                
INTFAMCHA020301130322130633000311Art Attack - Boys Playing Basketball                                                                                   60686120                                
PROFAMCHA020301130633130650000017Katie and Orbie (OCT2001) - Today @ 1:55pm                                                                                  150                                
PROFAMCHA020301130650130700000010Preschool Line-Up - 21 - STANLEY/PB&J/KATIE                                                                                 150                                
PROFAMCHA020301130700130709000009CC Is Brought To You By - Ian                                                                                               150                                
PGRFAMCHA020301130709133108002359Stanley                                           Daddy Pride/Show And Tell Shark                                     A6068607ECC                              
ID FAMCHA020301133108133123000015Generic ID - confetti                                                                                                       150                                
PROFAMCHA020301133123133150000027PB&J Otter (PIE) - Coming Up                                                                                                150                                
PROFAMCHA020301133150133200000010Preschool Line-Up - 22 - PB&J/KATIE/WTP                                                                                     150                                
PROFAMCHA020301133200133208000008CC Is Brought To You By - Lark **DNU AFTER 09/22**                                                                          150                                
PGRFAMCHA020301133208135538002330PB&J Otter                                        A Tree Grows in Hoohaw/Flick's Big Fakeout                          A6068607ECC                              
ID FAMCHA020301135538135544000006Generic ID - soccer                                                                                                         150                                
PROFAMCHA020301135544135601000017Katie and Orbie (OCT2001) - Coming Up                                                                                       150                                
PROFAMCHA020301135601135630000029House of Mouse (HATS) - Tomorrow @ 3:50pm                                                                                   150                                
PROFAMCHA020301135630135650000020Hoze Houndz (AUG2001) - Today @ 3:35pm                                                                                      150                                
PROFAMCHA020301135650135700000010Preschool Line-Up - 23 - KATIE/WTP/OOTB                                                                                     150                                
PROFAMCHA020301135700135708000008CC Is Brought To You By - Ian **DNU AFTER 09/22**                                                                           150                                
PGRFAMCHA020301135708142346002638Katie And Orbie                                   Orbie and The Bullfrog/Two Brothers/Loon                      C19665A1055607ECC3                             
ID FAMCHA020301142346142356000010Generic ID - Hula Hoop                                                                                                      150                                
PROFAMCHA020301142356142410000014New Adv of WTP (REMOTE) - Coming Up                                                                                         150                                
PROFAMCHA020301142410142440000030House of Mouse (MAR2002) - Tomorrow @ 3:50pm                                                                                150                                
PROFAMCHA020301142440142450000010Preschool Line-Up - 24 - WTP/OOTB/DUCKTALES                                                                                 150                                
ID FAMCHA020301142450142500000010xxMagic of Disney - V2(sky) - TEEN FEMALE                                                                                   150                                
PROFAMCHA020301142500142508000008CC Is Brought To You By - Lark **DNU AFTER 09/22**                                                                          150                                
PGRFAMCHA020301142508144745002237New Adventures of Winnie the Pooh; The            A Knight To Remember                                                 6068607ECC                              
ID FAMCHA020301144745144750000005Generic ID - Marbles                                                                                                        150                                
PROFAMCHA020301144750144805000015Out of the Box - Coming Up                                                                                                  150                                
PROFAMCHA020301144805144827000022Stanley (ANTELOPE) - Weekdays @ 9:05am                                                                                      150                                
PROFAMCHA020301144827144850000023Buzz Lightyear (POSTERITY) - Today @ 4pm                                                                                    150                                
PROFAMCHA020301144850144900000010Preschool Line-Up - 25 - OOTB/DUCKTALES/HOZE                                                                                150                                
PROFAMCHA020301144900144908000008CC Is Brought To You By - Ian **DNU AFTER 09/22**                                                                           150                                
PGRFAMCHA020301144908151144002236Out of the Box                                    Blowin'in the Wind                                                   60686110CC                              
ID FAMCHA020301151144151154000010Generic ID - Family w/dog                                                                                                   150                                
PROFAMCHA020301151154151220000026DuckTales (CLIP) - Coming Up                                                                                                150                                
PROFAMCHA020301151220151250000030House of Mouse (MAR2002) - Tomorrow @ 3:50pm                                                                                150                                
PROFAMCHA020301151250151300000010Preschool Line-Up - 26 - DUCKTALES/HOZE/BUZZ                                                                                150                                
PROFAMCHA020301151300151308000008CC Is Brought To You By - Ian **DNU AFTER 09/22**                                                                           150                                
PGRFAMCHA020301151308153551002243Disney's DuckTales                                The Unbreakable Bin                                                 A6068607ECC                              
ID FAMCHA020301153551153601000010Generic ID - Bubbles                                                                                                        150                                
PROFAMCHA020301153601153632000031Hoze Houndz (TEETH) - Coming Up                                                                                             150                                
PROFAMCHA020301153632153650000018Buzz Lightyear (DO YOUR BEST) - Today @ 4pm                                                                                 150                                
PROFAMCHA020301153650153700000010Preschool Line-Up - 27 - HOZE/BUZZ                                                                                          150                                
PROFAMCHA020301153700153708000008CC Is Brought To You By - Lark **DNU AFTER 09/22**                                                                          150                                
PGRFAMCHA020301153708155944002236Hoze Houndz                                       Squirt Files/High Speed Houndz                                B17124A1065607ECC                              
ID FAMCHA020301155944155950000006Generic ID - soccer                                                                                                         150                                
ID FAMCHA020301155950160000000010xxMagic of Disney - V2(sky) - TEEN FEMALE                                                                                   150                                
PROFAMCHA020301160000160030000030Disney's One Too - Opening                                                                                                  150                                
PROFAMCHA020301160030160038000008CC Is Brought To You By - Click Club                                                                                        150                                
PGRFAMCHA020301160038162319002241Disney/Pixar's Buzz Lightyear of Star Command     Strange Invasion                                                     6068607ECC                              
ID FAMCHA020301162319162330000011Generic ID - soccer                                                                                                         150                                
PROFAMCHA020301162330162400000030Amanda Show - Premieres March 11th                                                                                          150                                
PROFAMCHA020301162400162416000016Legend of Tarzan (THUNDER-D12/WKNDS) - Today @ 5pm                                                                          150                                
INTFAMCHA020301162416162546000130Family X-Periment - Ep.57: Nite-Time                                                                                  A10656120                                
PROFAMCHA020301162546162616000030Mighty Ducks (MAR2002) - Tomorrow @ 5:05pm                                                                                  150                                
PROFAMCHA020301162616162641000025xxSmart Guy (DATE) - Tomorrow @ 7:30am **DNU**                                                                              150                                
PRCFAMCHA020301162641162705000024Jersey (FOOTBALL) - Tonight @ 7pm                                                                                           150                                
INTFAMCHA020301162705162835000130Family X-Periment - Ep.59: Ponderin                                                                                   A10656120                                
PROFAMCHA020301162835162905000030Lizzie McGuire (KATE-B2B) - Tomorrow @ 8am                                                                                  150                                
PRCFAMCHA020301162905162932000027Spring Break Event Promo - March 11th to 15th                                                                               150                                
PRCFAMCHA020301162932162942000010Morning Block menu background (flex time)                                                                                   150                                
ID FAMCHA020301162942163000000018Afternoon block pinball open                                                                                                150                                
PROFAMCHA020301163000163030000030Disney's One Too - Opening                                                                                                  150                                
PROFAMCHA020301163030163038000008CC Is Brought To You By - Games                                                                                             150                                
PGRFAMCHA020301163038165324002246Disney's Pepper Ann                               Beyond Good and Evil                                                 6068607ECC                              
ID FAMCHA020301165324165329000005Generic ID - Couch 1*                                                                                                       150                                
PROFAMCHA020301165329165359000030Amanda Show - Premieres March 11th                                                                                          150                                
PROFAMCHA020301165359165421000022Legend of Tarzan (MY JEWEL-D12/WKNDS) - Coming Up                                                                           150                                
PROFAMCHA020301165421165449000028Recess (LOGIC-D12/WKNDS) - Today @ 5:30pm                                                                                   150                                
INTFAMCHA020301165449165502000013Toy Story Treats - Hat Dance                                                                                           60686120                                
PROFAMCHA020301165502165541000039Weekenders (CLOSET) - Tomorrow @ 4:40pm                                                                                     150                                
INTFAMCHA020301165541165711000130Family X-Periment - Ep.58: Re-Cappin In Front Of T                                                                    A10656120                                
PROFAMCHA020301165711165741000030Famous Jett Jackson - Tonight @ 6:30pm                                                                                      150                                
PROFAMCHA020301165741165811000030Lizzie McGuire (KATE-B2B) - Tomorrow @ 8am                                                                                  150                                
INTFAMCHA020301165811165824000013Toy Story Treats - Buzz Box #1                                                                                         60686120                                
PROFAMCHA020301165824165845000021xxSmart Guy (KEYBOARD) - Tomorrow @ 7:30am **DNU*                                                                           150                                
PROFAMCHA020301165845165905000020Disney's One, Too (AUG2001) - You're Watching                                                                               150                                
PRCFAMCHA020301165905165932000027Spring Break Event Promo - March 11th to 15th                                                                               150                                
PRCFAMCHA020301165932165942000010Morning Block menu background (flex time)                                                                                   150                                
ID FAMCHA020301165942170000000018Afternoon block pinball open                                                                                                150                                
PROFAMCHA020301170000170030000030Disney's One Too - Opening                                                                                                  150                                
PGRFAMCHA020301170030172317002247Disney's The Legend of Tarzan                     Fountain                                                            A6068607E                                
ID FAMCHA020301172317172322000005Generic ID - Couch 2*                                                                                                       150                                
PROFAMCHA020301172322172352000030Amanda Show - Premieres March 11th                                                                                          150                                
PROFAMCHA020301172352172409000017Recess (TATTLETALE-D12/WKNDS) - Coming Up                                                                                   150                                
INTFAMCHA020301172409172442000033Toy Story Treats - New Improved Buzz                                                                                   60686120                                
PROFAMCHA020301172442172508000026Weekenders (FUNVILLE) - Tomorrow @ 4:40pm                                                                                   150                                
INTFAMCHA020301172508172638000130Family X-Periment - Ep.59: Ponderin                                                                                   A10656120                                
PRCFAMCHA020301172638172701000023Jersey (RACING) - Tonight @ 7pm                                                                                             150                                
PROFAMCHA020301172701172716000015Disney Promo (D12 only) - TARZAN - Learning The Wa                                                                          150                                
ID FAMCHA020301172716172733000017Web Fun Stuff - Female                                                                                                      150                                
PROFAMCHA020301172733172803000030Famous Jett Jackson - Tonight @ 6:30pm                                                                                      150                                
PROFAMCHA020301172803172836000033Totally Circus (MAR) - Tomorrow @ 11:10am                                                                                   150                                
PROFAMCHA020301172836172906000030Mighty Ducks (MAR2002) - Tomorrow @ 5:05pm                                                                                  150                                
PRCFAMCHA020301172906172933000027Spring Break Event Promo - March 11th to 15th                                                                               150                                
PRCFAMCHA020301172933172942000009Morning Block menu background (flex time)                                                                                   150                                
ID FAMCHA020301172942173000000018Afternoon block pinball open                                                                                                150                                
PROFAMCHA020301173000173030000030Disney's One Too - Opening                                                                                                  150                                
PGRFAMCHA020301173030175305002235Disney's Recess                                   The Trial/The Box                                                    6068607E                                
ID FAMCHA020301175305175315000010Generic ID - Family w/dog                                                                                                   150                                
PROFAMCHA020301175315175345000030Amanda Show - Premieres March 11th                                                                                          150                                
PROFAMCHA020301175345175412000027Even Stevens (DREAM) - Coming Up                                                                                            150                                
PROFAMCHA020301175412175438000026xxSmart Guy (PENGUIN) - Tomorrow @ 7:30am **DNU**                                                                           150                                
PRCFAMCHA020301175438175501000023Jersey (RACING) - Tonight @ 7pm                                                                                             150                                
PROFAMCHA020301175501175531000030Lizzie McGuire (KATE-B2B) - Tomorrow @ 8am                                                                                  150                                
INTFAMCHA020301175531175701000130Family X-Periment - Ep.60: Finale                                                                                     A10656120                                
PROFAMCHA020301175701175731000030Famous Jett Jackson - Tonight @ 6:30pm                                                                                      150                                
PROFAMCHA020301175731175755000024Honey, I Shrunk the Kids (AUG2001) - Tonight @ 8pm                                                                          150                                
INTFAMCHA020301175755175841000046Monkey Minutes - Raiders Of The Lost Ark                                                                              A20688120                                
PROFAMCHA020301175841175911000030Proud Family (MAR) - Tomorrow @ 4:15pm                                                                                      150                                
PRCFAMCHA020301175911175938000027Spring Break Event Promo - March 11th to 15th                                                                               150                                
PRCFAMCHA020301175938175950000012Morning Block menu background (flex time)                                                                                   150                                
ID FAMCHA020301175950180000000010xxMagic of Disney - V2(sky) - ADULT MALE                                                                                    150                                
PROFAMCHA020301180000180008000008CC Is Brought To You By - Games                                                                                             150                                
PGRFAMCHA020301180008182250002242Even Stevens                                      Luscious Lou                                                        A6068807BCC                              
ID FAMCHA020301182250182300000010Generic ID - Hula Hoop                                                                                                      150                                
PROFAMCHA020301182300182330000030Amanda Show - Premieres March 11th                                                                                          150                                
PROFAMCHA020301182330182400000030Famous Jett Jackson - Coming Up                                                                                             150                                
PROFAMCHA020301182400182427000027Even Stevens (DREAM) - Tomorrow @ 9:25am                                                                                    150                                
INTFAMCHA020301182427182804000337MV Disney - Supergirl (KRYSTAL MARIE HARRIS)                                                                           60688120                                
PROFAMCHA020301182804182830000026Weekenders (FUNVILLE) - Tomorrow @ 4:40pm                                                                                   150                                
PROFAMCHA020301182830182903000033Totally Circus (MAR) - Tomorrow @ 11:10am                                                                                   150                                
PRCFAMCHA020301182903182930000027Spring Break Event Promo - March 11th to 15th                                                                               150                                
PRCFAMCHA020301182930182939000009Morning Block menu background (flex time)                                                                                   150                                
ID FAMCHA020301182939183000000021Prime time open count down                                                                                                  150                                
PROFAMCHA020301183000183008000008CC Is Brought To You By - Click Club                                                                                        150                                
PGRFAMCHA020301183008185441002433Famous Jett Jackson; The                          Voices                                                        B57140 1065607ACC                              
ID FAMCHA020301185441185451000010Generic ID - confetti                                                                                                       150                                
PROFAMCHA020301185451185521000030Amanda Show - Premieres March 11th                                                                                          150                                
PRCFAMCHA020301185521185541000020Jersey (SINGING) - Coming Up                                                                                                150                                
PROFAMCHA020301185541185620000039House of Mouse (DOOR) - Tomorrow @ 3:50pm                                                                                   150                                
INTFAMCHA020301185620185750000130Family X-Periment - Ep.60: Finale                                                                                     A10656120                                
PROFAMCHA020301185750185820000030Nightmare Ned (DRJECKLE) - Tomorrow @ 3:25pm                                                                                150                                
PRCFAMCHA020301185820185843000023Jersey (RACING) - Tomorrow @ 9:50am                                                                                         150                                
PROFAMCHA020301185843185913000030Proud Family (MAR) - Tomorrow @ 4:15pm                                                                                      150                                
PRCFAMCHA020301185913185940000027Spring Break Event Promo - March 11th to 15th                                                                               150                                
PRCFAMCHA020301185940185950000010Morning Block menu background (flex time)                                                                                   150                                
ID FAMCHA020301185950190000000010xxMagic of Disney - V4 - ADULT FEMALE                                                                                       150                                
PROFAMCHA020301190000190008000008CC Is Brought To You By - Games                                                                                             150                                
PGRFAMCHA020301190008192239002231Jersey; The                                       Heroes                                                               6068607ACC                              
ID FAMCHA020301192239192249000010Generic ID - Ring around the rosie                                                                                          150                                
PROFAMCHA020301192249192319000030Amanda Show - Premieres March 11th                                                                                          150                                
PROFAMCHA020301192319192349000030Mighty Ducks (MAR2002) - Tomorrow @ 5:05pm                                                                                  150                                
PROFAMCHA020301192349192422000033Totally Circus (MAR) - Tomorrow @ 11:10am                                                                                   150                                
INTFAMCHA020301192422192813000351MV Disney - Miracles Happen (MYRA)                                                                                     60688120                                
PROFAMCHA020301192813192838000025xxSmart Guy (DATE) - Tomorrow @ 7:30am **DNU**                                                                              150                                
PROFAMCHA020301192838192902000024Honey, I Shrunk the Kids (AUG2001) - Tonight @ 8pm                                                                          150                                
PRCFAMCHA020301192902192929000027Spring Break Event Promo - March 11th to 15th                                                                               150                                
PRCFAMCHA020301192929192939000010Morning Block menu background (flex time)                                                                                   150                                
ID FAMCHA020301192939193000000021Prime time open count down                                                                                                  150                                
PROFAMCHA020301193000193007000007CC Is Brought To You By - Games                                                                                             150                                
PGRFAMCHA020301193007195135002128ALF                                               Lookin' Through The Window                                          A2068807B                                
ID FAMCHA020301195135195140000005Generic ID - Couch 2*                                                                                                       150                                
PROFAMCHA020301195140195210000030Amanda Show - Premieres March 11th                                                                                          150                                
PROFAMCHA020301195210195234000024Honey, I Shrunk the Kids (AUG2001) - Coming Up                                                                              150                                
PROFAMCHA020301195234195244000010MV FAMJAM - Teaser (Generic)                                                                                                150                                
ID FAMCHA020301195244195258000014Web Blast - Female                                                                                                          150                                
INTFAMCHA020301195258195707000409xMV - Thank You                                                                                                       A20688120                                
PROFAMCHA020301195707195713000006MV Web Throw - music@family.ca                                                                                              150                                
PROFAMCHA020301195713195743000030Proud Family (MAR) - Tomorrow @ 4:15pm                                                                                      150                                
INTFAMCHA020301195743195913000130Family X-Periment - Ep.60: Finale                                                                                     A10656120                                
PRCFAMCHA020301195913195940000027Spring Break Event Promo - March 11th to 15th                                                                               150                                
PRCFAMCHA020301195940195950000010Morning Block menu background (flex time)                                                                                   150                                
ID FAMCHA020301195950200000000010xxMagic of Disney - V2(sky) - ADULT FEMALE                                                                                  150                                
PGRFAMCHA020301200000204314004314Disney's Honey, I Shrunk The Kids: The TV Show    There's A Pox On Our House                                           6068807B                                
ID FAMCHA020301204314204329000015Generic ID - confetti                                                                                                       150                                
PROFAMCHA020301204329204359000030Amanda Show - Premieres March 11th                                                                                          150                                
PROFAMCHA020301204359204429000030Lizzie McGuire (KATE-B2B) - Tomorrow @ 8am                                                                                  150                                
PRCFAMCHA020301204429204439000010Morning Block menu background (flex time)                                                                                   150                                
ID FAMCHA020301204439204500000021Prime time open count down                                                                                                  150                                
PGRFAMCHA020301204500205810001310Are You Afraid of the Dark?                       Station 109.1 Pt.2                                            SR0306A1066807A                                
ID FAMCHA020301205810205815000005Generic ID - Couch 2*                                                                                                       150                                
PROFAMCHA020301205815205845000030Amanda Show - Premieres March 11th                                                                                          150                                
PROFAMCHA020301205845205914000029House of Mouse (HATS) - Tomorrow @ 3:50pm                                                                                   150                                
PRCFAMCHA020301205914205941000027Spring Break Event Promo - March 11th to 15th                                                                               150                                
ID FAMCHA020301205941210001000020Move open family size movie                                                                                                 150                                
PROFAMCHA020301210001210008000007Rating - PG - Ian                                                                                                           150                                
PGRFAMCHA020301210008223107013059For Love Or Money                                                                                                     B2068807D                                
ID FAMCHA020301223107223122000015Generic ID - confetti                                                                                                       150                                
PROFAMCHA020301223122223152000030Amanda Show - Premieres March 11th                                                                                          150                                
PROFAMCHA020301223152223213000021xxSmart Guy (KEYBOARD) - Tomorrow @ 7:30am **DNU*                                                                           150                                
INTFAMCHA020301223213223343000130Klootz - Olympics 01                                                                                                  A10658120                                
PROFAMCHA020301223343223413000030Nightmare Ned (DRJECKLE) - Tomorrow @ 3:25pm                                                                                150                                
PRCFAMCHA020301223413223440000027Spring Break Event Promo - March 11th to 15th                                                                               150                                
ID FAMCHA020301223440223500000020Move open family size movie                                                                                                 150                                
PROFAMCHA020301223500223507000007Rating - AA - Ian                                                                                                           150                                
PGRFAMCHA020301223507004951021444Lorenzo's Oil                                                                                                         C2068807D                                
ID FAMCHA020301004951005001000010Generic ID - Family w/dog                                                                                                   150                                
PGRFAMCHA020301005001011424002423Are You Afraid Of The Dark?                       The Tale of the Crimson Clown                                 SR0304 1066807A                                
SO FAMCHA020301011424011436000012Sign Off (oct 1)                                                                                                                                               
OFFFAMCHA020301011436043000031524                                                                                                                                                               
SO FAMCHA020302043000043011000011Sign On (oct 1)                                                                                                                                                
PROFAMCHA020302043011043019000008CC Is Brought To You By - Ian **DNU AFTER 09/22**                                                                           150                                
PGRFAMCHA020302043019045325002306Out of the Box                                    Feathered Friends                                                    60686110CC                              
ID FAMCHA020302045325045336000011Generic ID - soccer                                                                                                         150                                
PROFAMCHA020302045336045350000014Art Attack (ART) - Coming Up                                                                                                150                                
PROFAMCHA020302045350045400000010Weekend AM Line-Up - 01 - ART/KATIE/DUCKTALES                                                                               150                                
PGRFAMCHA020302045400050848001448Art Attack                                        1-125                                                               A60686110                                
ID FAMCHA020302050848050853000005Generic ID - Bubbles*                                                                                                       150                                
PROFAMCHA020302050853050910000017Katie and Orbie (OCT2001) - Coming Up                                                                                       150                                
PROFAMCHA020302050910050932000022Stanley (ANTELOPE) - Weekdays @ 9:05am                                                                                      150                                
ID FAMCHA020302050932050952000020Schoolhouse Promo - Coming Up                                                                                               150                                
PROFAMCHA020302050952051113000121Elmo's World (FAM2) - Weekdays @ 8:45am                                                                                     150                                
INTFAMCHA020302051113051436000323Schoolhouse Rock - A Noun Is A Person, Place or Th                                                                    A60686120                                
PROFAMCHA020302051436051450000014Art Attack (ART) - Weekdays @ 8am                                                                                           150                                
PROFAMCHA020302051450051500000010Weekend AM Line-Up - 02 - KATIE/DUCKTALES/LULU                                                                              150                                
PROFAMCHA020302051500051508000008CC Is Brought To You By - Lark **DNU AFTER 09/22**                                                                          150                                
PGRFAMCHA020302051508054146002638Katie And Orbie                                   Paper Flowers/Car Wash/Just Doing My Job                      C19665A1065607ECC                              
ID FAMCHA020302054146054201000015Generic ID - confetti                                                                                                       150                                
PROFAMCHA020302054201054227000026DuckTales (CLIP) - Coming Up                                                                                                150                                
PRCFAMCHA020302054227054250000023Franklin (HICCUP) - Tonight @ 6:15pm                                                                                        150                                
PROFAMCHA020302054250054300000010Weekend AM Line-Up - 03 - DUCKTALES/LULU/BOP                                                                                150                                
PROFAMCHA020302054300054308000008CC Is Brought To You By - Ian **DNU AFTER 09/22**                                                                           150                                
PGRFAMCHA020302054308060555002247Disney's DuckTales                                Master Of The Djinni                                                A6068607ECC                              
ID FAMCHA020302060555060606000011Generic ID - soccer                                                                                                         150                                
PROFAMCHA020302060606060619000013Little Lulu (SWEEP) - Coming Up                                                                                             150                                
PROFAMCHA020302060619060650000031Hoze Houndz (TEETH) - Tonight @ 7:05pm                                                                                      150                                
PROFAMCHA020302060650060700000010Weekend AM Line-Up - 04 - LULU/BOP/KATIE                                                                                    150                                
PROFAMCHA020302060700060708000008CC Is Brought To You By - Lark **DNU AFTER 09/22**                                                                          150                                
PGRFAMCHA020302060708063040002332Little Lulu Show; The                             You Do the Math, Great Escape, The Little Lola Sho            B20209A1065607ECC                              
ID FAMCHA020302063040063045000005Generic ID - Couch 1*                                                                                                       150                                
PROFAMCHA020302063045063052000007Weekend AM Line-Up - 05 - BOP/KATIE                                                                                         150                                
ID FAMCHA020302063052063102000010xxMagic of Disney - V2(sky) - TEEN FEMALE                                                                                   150                                
PGRFAMCHA020302063102065504002402Book Of Pooh; The                                 Best Wishes, Winnie the Pooh/Double Time                             6068607G                                
ID FAMCHA020302065504065509000005Generic ID - Couch 2*                                                                                                       150                                
PROFAMCHA020302065509065526000017Katie and Orbie (OCT2001) - Coming Up                                                                                       150                                
ID FAMCHA020302065526065541000015Schoolhouse Promo - Coming Up                                                                                               150                                
PROFAMCHA020302065541065606000025New Adv of WTP (TREE) - Today @ 5:50pm                                                                                      150                                
INTFAMCHA020302065606065929000323Schoolhouse Rock - Do The Circulation                                                                                 A60686120                                
PROFAMCHA020302065929065955000026Elmo's World (FAM1) - Weekdays @ 8:45am                                                                                     150                                
PROFAMCHA020302065955070001000006Weekend AM Line-Up - 06 - KATIE                                                                                             150                                
PROFAMCHA020302070001070008000007CC Is Brought To You By - Ian                                                                                               150                                
PGRFAMCHA020302070008072646002638Katie And Orbie                                   Science/911/Bedspread Painting Party                          C19665A1055607ECC3                             
ID FAMCHA020302072646072651000005Generic ID - Bubbles*                                                                                                       150                                
PRCFAMCHA020302072651072705000014Goof Troop (SOUP) - Weekdays @ 7am                                                                                          150                                
PROFAMCHA020302072705072730000025xxSmart Guy (DATE) - Coming Up **DNU**                                                                                      150                                
INTFAMCHA020302072730072900000130Family X-Periment - Ep.01: The Gathering                                                                              A10656120                                
PROFAMCHA020302072900072939000039House of Mouse (DOOR) - Today @ 3:50pm                                                                                      150                                
ID FAMCHA020302072939073000000021Prime time open count down                                                                                                  150                                
PROFAMCHA020302073000073008000008CC Is Brought To You By - Games                                                                                             150                                
PGRFAMCHA020302073008075236002228Smart Guy                                         Pilotation                                                          A6028807BCC                              
ID FAMCHA020302075236075246000010Generic ID - Family w/dog                                                                                                   150                                
PROFAMCHA020302075246075316000030Amanda Show - Premieres March 11th                                                                                          150                                
PROFAMCHA020302075316075346000030Lizzie McGuire (KATE-B2B) - Coming Up                                                                                       150                                
ID FAMCHA020302075346075359000013Schoolhouse Promo (PT) - Coming Up                                                                                          150                                
PROFAMCHA020302075359075421000022Even Stevens (KARAOKE) - Today @ 9:25am                                                                                     150                                
INTFAMCHA020302075421075744000323Schoolhouse Rock - Conjunction Junction                                                                               A60686120                                
INTFAMCHA020302075744075914000130Family X-Periment - Ep.02: Duck a l'orange                                                                            A10656120                                
PRCFAMCHA020302075914075941000027Spring Break Event Promo - March 11th to 15th                                                                               150                                
PRCFAMCHA020302075941075950000009Morning Block menu background (flex time)                                                                                   150                                
ID FAMCHA020302075950080000000010xxMagic of Disney - V2(sky) - TEEN MALE                                                                                     150                                
PGRFAMCHA020302080000082234002234Lizzie McGuire                                    Jack of all Trades                                                  A6068607B                                
ID FAMCHA020302082234082239000005Generic ID - Fingerpaint                                                                                                    150                                
PRCFAMCHA020302082239082306000027Spring Break Event Promo - March 11th to 15th                                                                               150                                
PROFAMCHA020302082306082336000030Lizzie McGuire (KATE-B2B) - Coming Up                                                                                       150                                
INTFAMCHA020302082336082506000130Family X-Periment - Ep.03: Nic's Alma Mater                                                                           A10656120                                
ID FAMCHA020302082506082526000020Schoolhouse Promo (PT) - Coming Up                                                                                          150                                
PROFAMCHA020302082526082548000022Even Stevens (KARAOKE) - Today @ 9:25am                                                                                     150                                
INTFAMCHA020302082548082911000323Schoolhouse Rock - Lolly, Lolly, Lolly Get Your Ad                                                                    A60686120                                
PROFAMCHA020302082911082941000030Amanda Show - Premieres March 11th                                                                                          150                                
PRCFAMCHA020302082941082950000009Morning Block menu background (flex time)                                                                                   150                                
ID FAMCHA020302082950083000000010xxMagic of Disney - V3(water) - TEEN FEMALE                                                                                 150                                
PGRFAMCHA020302083000085245002245Lizzie McGuire                                    Pool Party                                                          A6068607B                                
ID FAMCHA020302085245085255000010Generic ID - Hula Hoop                                                                                                      150                                
PROFAMCHA020302085255085325000030Amanda Show - Premieres March 11th                                                                                          150                                
ID FAMCHA020302085325085341000016Schoolhouse Promo (PT) - Coming Up                                                                                          150                                
PROFAMCHA020302085341085409000028Recess (LOGIC-D12/WKNDS) - Weekdays @ 5:30pm                                                                                150                                
INTFAMCHA020302085409085732000323Schoolhouse Rock - I Got Six                                                                                          A60686120                                
INTFAMCHA020302085732085902000130Family X-Periment - Ep.04: The Fisherman's Friend                                                                     A10656120                                
PRCFAMCHA020302085902085929000027Spring Break Event Promo - March 11th to 15th                                                                               150                                
PRCFAMCHA020302085929085939000010Morning Block menu background (flex time)                                                                                   150                                
ID FAMCHA020302085939090000000021Prime time open count down                                                                                                  150                                
PROFAMCHA020302090000090008000008CC Is Brought To You By - Click Club                                                                                        150                                
PGRFAMCHA020302090008092136002128ALF                                               Love On The Rocks                                                   A2068807BCC                              
ID FAMCHA020302092136092143000007Generic ID - Whisper*                                                                                                       150                                
PRCFAMCHA020302092143092210000027Spring Break Event Promo - March 11th to 15th                                                                               150                                
PROFAMCHA020302092210092240000030Even Stevens (GUITAR) - Coming Up                                                                                           150                                
INTFAMCHA020302092240092410000130Family X-Periment - Ep.01: The Gathering                                                                              A10656120                                
PROFAMCHA020302092410092440000030Amanda Show - Premieres March 11th                                                                                          150                                
PRCFAMCHA020302092440092450000010Morning Block menu background (flex time)                                                                                   150                                
ID FAMCHA020302092450092500000010xxMagic of Disney - V3(water) - TEEN MALE                                                                                   150                                
PGRFAMCHA020302092500094742002242Even Stevens                                      Deep Chocolate                                                      A6068807B                                
ID FAMCHA020302094742094752000010Generic ID - Pink inner tube                                                                                                150                                
PROFAMCHA020302094752094822000030Amanda Show - Premieres March 11th                                                                                          150                                
PRCFAMCHA020302094822094846000024Jersey (FOOTBALL) - Coming Up                                                                                               150                                
PROFAMCHA020302094846094913000027Recess (FRIENDSHIP-D12/WKNDS) - Weekdays @ 5:30pm                                                                           150                                
PRCFAMCHA020302094913094940000027Spring Break Event Promo - March 11th to 15th                                                                               150                                
PRCFAMCHA020302094940094950000010Morning Block menu background (flex time)                                                                                   150                                
ID FAMCHA020302094950095000000010xxMagic of Disney - V4 - TEEN FEMALE                                                                                        150                                
PGRFAMCHA020302095000101236002236Jersey; The                                       Dueling Coaches                                                     A6028807A                                
ID FAMCHA020302101236101246000010Generic ID - Ring around the rosie                                                                                          150                                
PRCFAMCHA020302101246101313000027Spring Break Event Promo - March 11th to 15th                                                                               150                                
PROFAMCHA020302101313101343000030Famous Jett Jackson - Coming Up                                                                                             150                                
PROFAMCHA020302101343101409000026xxSmart Guy (PENGUIN) - Tomorrow @ 7:30am **DNU**                                                                           150                                
PROFAMCHA020302101409101439000030Amanda Show - Premieres March 11th                                                                                          150                                
ID FAMCHA020302101439101500000021Prime time open count down                                                                                                  150                                
PROFAMCHA020302101500101508000008CC Is Brought To You By - Games                                                                                             150                                
PGRFAMCHA020302101508103941002433Famous Jett Jackson; The                          Date                                                          B57128 1065607ACC                              
ID FAMCHA020302103941103952000011Generic ID - soccer                                                                                                         150                                
PROFAMCHA020302103952104022000030Amanda Show - Premieres March 11th                                                                                          150                                
INTFAMCHA020302104022104152000130Family X-Periment - Ep.02: Duck a l'orange                                                                            A10656120                                
PRCFAMCHA020302104152104212000020Jersey (SINGING) - Tomorrow @ 9:50am                                                                                        150                                
PRCFAMCHA020302104212104239000027Spring Break Event Promo - March 11th to 15th                                                                               150                                
ID FAMCHA020302104239104300000021Prime time open count down                                                                                                  150                                
PROFAMCHA020302104300104308000008CC Is Brought To You By - Click Club                                                                                        150                                
PGRFAMCHA020302104308110915002607Bug Juice                                         Your Adventure Starts Here                                           6068607ACC                              
ID FAMCHA020302110915110920000005Generic ID - Bubbles*                                                                                                       150                                
PROFAMCHA020302110920110928000008CC Is Brought To You By - Games                                                                                             150                                
PGRFAMCHA020302110928113328002400Totally Circus                                    1-006                                                               A6068607ACC                              
ID FAMCHA020302113328113333000005Generic ID - Couch 1*                                                                                                       150                                
PROFAMCHA020302113333113403000030Amanda Show - Premieres March 11th                                                                                          150                                
PRCFAMCHA020302113403113430000027Spring Break Event Promo - March 11th to 15th                                                                               150                                
PRCFAMCHA020302113430113440000010Morning Block menu background (flex time)                                                                                   150                                
ID FAMCHA020302113440113501000021Prime time open count down                                                                                                  150                                
PGRFAMCHA020302113501115735002234Totally Hoops                                     1-008                                                               A6068607A                                
ID FAMCHA020302115735115745000010Generic ID - Bubbles                                                                                                        150                                
PRCFAMCHA020302115745115812000027Spring Break Event Promo - March 11th to 15th                                                                               150                                
PROFAMCHA020302115812115842000030Proud Family (MAR) - Today @ 4:15pm                                                                                         150                                
PROFAMCHA020302115842115900000018Buzz Lightyear (DO YOUR BEST) - Weekdays @ 7:30am                                                                           150                                
PROFAMCHA020302115900115930000030Amanda Show - Premieres March 11th                                                                                          150                                
PRCFAMCHA020302115930115940000010Morning Block menu background (flex time)                                                                                   150                                
ID FAMCHA020302115940120000000020Move open family size movie                                                                                                 150                                
PROFAMCHA020302120000120008000008Rating - G - Ian                                                                                                            150                                
PROFAMCHA020302120008120016000008CC Is Brought To You By - Click Club                                                                                        150                                
PGRFAMCHA020302120016142157022141Hook                                                                                                                  A2068807DCC                              
ID FAMCHA020302142157142202000005Generic ID - Bubbles*                                                                                                       150                                
ID FAMCHA020302142202142212000010xxMagic of Disney - V4 - TEEN MALE                                                                                          150                                
PGRFAMCHA020302142212150420004208Donald Takes A Holiday                                                                                                A6068607E                                
ID FAMCHA020302150420150425000005Generic ID - Bubbles*                                                                                                       150                                
PROFAMCHA020302150425150433000008CC Is Brought To You By - Click Club                                                                                        150                                
PGRFAMCHA020302150433152601002128ALF                                               Love On The Rocks                                                   A2068807BCC                              
ID FAMCHA020302152601152606000005Generic ID - Fingerpaint                                                                                                    150                                
PROFAMCHA020302152606152614000008CC Is Brought To You By - Games                                                                                             150                                
PGRFAMCHA020302152614154847002233Nightmare Ned                                     Robot Ned/Dapper Dan                                                A6068607ECC                              
ID FAMCHA020302154847154853000006Generic ID - soccer                                                                                                         150                                
PROFAMCHA020302154853154923000030Amanda Show - Premieres March 11th                                                                                          150                                
PRCFAMCHA020302154923154950000027Spring Break Event Promo - March 11th to 15th                                                                               150                                
ID FAMCHA020302154950155000000010Prime time open top of hour                                                                                                 150                                
PROFAMCHA020302155000155008000008CC Is Brought To You By - Click Club                                                                                        150                                
PGRFAMCHA020302155008161242002234Disney's House Of Mouse                           Max's Embarassing Date                                              A6068607ECC                              
ID FAMCHA020302161242161247000005Generic ID - Couch 2*                                                                                                       150                                
PRCFAMCHA020302161247161314000027Spring Break Event Promo - March 11th to 15th                                                                               150                                
PROFAMCHA020302161314161344000030Proud Family (MAR) - Coming Up                                                                                              150                                
PROFAMCHA020302161344161409000025xxSmart Guy (DATE) - Tomorrow @ 7:30am **DNU**                                                                              150                                
PROFAMCHA020302161409161439000030Amanda Show - Premieres March 11th                                                                                          150                                
ID FAMCHA020302161439161500000021Prime time open count down                                                                                                  150                                
PROFAMCHA020302161500161508000008CC Is Brought To You By - Games                                                                                             150                                
PGRFAMCHA020302161508163742002234Proud Family; The                                 She's Got Game                                                      A6068807ECC                              
ID FAMCHA020302163742163752000010Generic ID - Family w/dog                                                                                                   150                                
PROFAMCHA020302163752163822000030Amanda Show - Premieres March 11th                                                                                          150                                
PROFAMCHA020302163822163901000039Weekenders (CLOSET) - Coming Up                                                                                             150                                
PRCFAMCHA020302163901163928000027Spring Break Event Promo - March 11th to 15th                                                                               150                                
PRCFAMCHA020302163928163939000011Morning Block menu background (flex time)                                                                                   150                                
ID FAMCHA020302163939164000000021Prime time open count down                                                                                                  150                                
PGRFAMCHA020302164000170254002254Disney's The Weekenders                           Best/Broken                                                         A6068607E                                
ID FAMCHA020302170254170259000005Generic ID - Fingerpaint                                                                                                    150                                
PRCFAMCHA020302170259170326000027Spring Break Event Promo - March 11th to 15th                                                                               150                                
PROFAMCHA020302170326170356000030Mighty Ducks (MAR2002) - Coming Up                                                                                          150                                
PROFAMCHA020302170356170420000024Honey, I Shrunk the Kids (AUG2001) - Tonight @ 8pm                                                                          150                                
PROFAMCHA020302170420170450000030Amanda Show - Premieres March 11th                                                                                          150                                
ID FAMCHA020302170450170500000010xxMagic of Disney - V2(sky) - TEEN FEMALE                                                                                   150                                
PGRFAMCHA020302170500172741002241Mighty Ducks: The Animated Series                 A Traitor Among Us                                                  A6068607E                                
ID FAMCHA020302172741172751000010Generic ID - Hula Hoop                                                                                                      150                                
PROFAMCHA020302172751172801000010Weekend PM Line-Up - 01 - PB&J/WTP/FRANKLIN                                                                                 150                                
PROFAMCHA020302172801172808000007CC Is Brought To You By - Ian                                                                                               150                                
PGRFAMCHA020302172808175138002330PB&J Otter                                        Giggle Melon                                                        A6068607ECC                              
ID FAMCHA020302175138175143000005Generic ID - Bubbles*                                                                                                       150                                
PROFAMCHA020302175143175207000024Family Goes Green                                                                                                           150                                
