PGRFAMCHA141201043000045233002233DEBRA!                                            EP: 12                                                        C35763 1065607ACD                              
PRCFAMCHA141201045233045303000030Episodic Star Wars Rebels (HD) 1-05 - New Episode                                                                           150                                
PRCFAMCHA141201045303045333000030Web FOD 2014 Refresh (HD) Family.ca (Mar2014) (2-3                                                                          150                                
PRCFAMCHA141201045333045359000026Episodic Next Step (HD) 229 - New Episode Friday N                                                                          150                                
PGRFAMCHA141201045359045524000125MV Lift (HD) A&A - Stuck On You (ep 3-08) (Aug2014                                                                     60685120CC                              
PRCFAMCHA141201045524045539000015Twistmas 2011 Bumpers (HD) Blackhole (Dec9-Jan6)                                                                            150                                
PRCFAMCHA141201045539045609000030Episodic Gaming Show (HD) 1-03 - New Episode Tonig                                                                          150                                
PGRFAMCHA141201045609051842002233Really Me                                         EP: 01                                                        B33828 1065607BCD                              
PROFAMCHA141201051842051850000008D-JR Live Action ID - Stella & Sam - Coming Up (Ma                                                                          150                                
PROFAMCHA141201051850051915000025D-JR Live Action ID - #10 Build A Block Tower (Sep                                                                          150                                
PROFAMCHA141201051915051941000026D-JR OOB - Magical Holidays - Weeknights @ 6:30 (N                                                                          150                                
PROFAMCHA141201051941052023000042D-JR Promo - Bananas in Pajamas - Get more on the                                                                           150                                
PROFAMCHA141201052023052048000025D-JR Live Action ID - #13 Make Bed (May2012)                                                                                150                                
PROFAMCHA141201052048052056000008D-JR Live Action ID - Stella & Sam - Now (Mar2013)                                                                          150                                
PROFAMCHA141201052056052111000015D-JR - Daily ID - Monday (Feb2014)                                                                                          150                                
PGRFAMCHA141201052111054426002315Stella and Sam                                    EP: 13                                                        C32553 1065607ECD                              
PROFAMCHA141201054426054456000030D-JR Promo - Henry Hugglemonster - Get more HH  on                                                                          150                                
PROFAMCHA141201054456054506000010D-JR - Hero Flex ID - Blue (:06-:10) (Feb2014)                                                                              150                                
PGRFAMCHA141201054506060738002232Justin Time                                       EP: 01                                                        C33667 1065607ECD                              
PROFAMCHA141201060738060746000008D-JR Live Action ID - Justin Time - Coming Up (Sep                                                                          150                                
PROFAMCHA141201060746060811000025D-JR Live Action ID - #28 Clapping Game (Sep2013)                                                                           150                                
PROFAMCHA141201060811060837000026D-JR OOB - Magical Holidays - Weeknights @ 6:30 (N                                                                          150                                
PROFAMCHA141201060837060917000040D-JR Promo - Lalaloopsy - Family - New Episode Thi                                                                          150                                
PROFAMCHA141201060917060942000025D-JR Live Action ID - #42 Brush Teeth (May2012)                                                                             150                                
PROFAMCHA141201060942060950000008D-JR Live Action ID - Justin Time - Now (Sept2014)                                                                          150                                
PROFAMCHA141201060950061005000015D-JR - Monthly ID - December (Dec2014)                                                                                      150                                
PGRFAMCHA141201061005063235002230Justin Time                                       EP: 02                                                        C33667 1065607ECD                              
PRCFAMCHA141201063235063301000026Episodic Next Step (HD) 229 - New Episode Friday N                                                                          150                                
PRCFAMCHA141201063301063331000030Jessie Aloha-Holidays (HD) Announce - Special Ep F                                                                          150                                
PRCFAMCHA141201063331063401000030Episodic Gaming Show (HD) 1-03 - New Episode Tonig                                                                          150                                
PRCFAMCHA141201063401063416000015Family Bumper Flex (HD) Flex ID - Music ID (:14-:1                                                                          150                                
PRCFAMCHA141201063416063446000030Episodic Star Wars Rebels (HD) 1-05 - New Episode                                                                           150                                
PROFAMCHA141201063446063501000015ANT Farm (HD) Refresh CT - Coming Up Next (April 2                                                                          150                                
PGRFAMCHA141201063501065732002231Disney A.N.T. Farm                                EP: 02                                                               6068607BCC                              
PRCFAMCHA141201065732065802000030Episodic Star Wars Rebels (HD) 1-05 - New Episode                                                                           150                                
PROFAMCHA141201065802065842000040Kellogg's                                                                                                                   150                                
PRCFAMCHA141201065842065908000026Episodic Next Step (HD) 229 - New Episode Friday N                                                                          150                                
PRCFAMCHA141201065908065923000015Twistmas 2011 Bumpers (HD) Jet Sled (Dec9-Jan6)                                                                             150                                
PRCFAMCHA141201065923065953000030Episodic Gaming Show (HD) 1-03 - New Episode Tonig                                                                          150                                
PRCFAMCHA141201065953070007000014Family Flex Next (HD) Jessie - Luke (:12-:14) (Apr                                                                          150                                
PGRFAMCHA141201070007072354002347Disney Jessie                                     EP: 19                                                               6068807BCC                              
PROFAMCHA14120107235407244400005020th Century Fox                                                                                                            150                                
PRCFAMCHA141201072444072457000013Jessie Aloha-Holidays (HD) Urgency - Special Ep Fr                                                                          150                                
PRCFAMCHA141201072457072510000013Family Flex Next (HD) A&A - Laura (:12-:14) (Apr20                                                                          150                                
PGRFAMCHA141201072510074741002231Disney Austin & Ally                              EP: 16                                                               6068807BCC                              
PRCFAMCHA141201074741074811000030Episodic Gaming Show (HD) 1-03 - New Episode Tonig                                                                          150                                
PROFAMCHA141201074811074901000050Crayola                                                                                                                     150                                
PRCFAMCHA141201074901074916000015Twistmas 2011 Bumpers (HD) Sky Diving (Dec9-Jan6)                                                                           150                                
PROFAMCHA141201074916075016000100Lego                                                                                                                        150                                
PRCFAMCHA141201075016075046000030Episodic Star Wars Rebels (HD) 1-05 - New Episode                                                                           150                                
PRCFAMCHA141201075046075100000014Family Flex Next (HD) DWAB Ghannelius (Aug 2013) (                                                                          150                                
PGRFAMCHA141201075100081304002204Disney Dog With A Blog                            EP: 14                                                               6068807BCC                              
PRCFAMCHA141201081304081334000030Episodic Star Wars Rebels (HD) 1-05 - New Episode                                                                           150                                
PROFAMCHA141201081334081434000100Lego                                                                                                                        150                                
PRCFAMCHA141201081434081500000026Episodic Next Step (HD) 229 - New Episode Friday N                                                                          150                                
PROFAMCHA141201081500081600000100Sony Pictures                                                                                                               150                                
PRCFAMCHA141201081600081613000013Jessie Aloha-Holidays (HD) Urgency - Special Ep Fr                                                                          150                                
PRCFAMCHA141201081613081628000015Twistmas 2011 Bumpers (HD) Blackhole (Dec9-Jan6)                                                                            150                                
PROFAMCHA141201081628081718000050Mattel                                                                                                                      150                                
PRCFAMCHA141201081718081748000030Episodic Gaming Show (HD) 1-03 - New Episode Tonig                                                                          150                                
PROFAMCHA141201081748081754000006WOWP (HD) ID - Jennifer Stone 1 "Coming Up Next" (                                                                          150                                
PGRFAMCHA141201081754084029002235Disney Wizards of Waverly Place                   EP: 12                                                               6068607BCC                              
PROFAMCHA141201084029084037000008D-JR Live Action ID - SCWW - Coming Up (Mar2014)                                                                            150                                
PROFAMCHA141201084037084102000025D-JR Live Action ID - #33 Feeding Birds (Sep2013)                                                                           150                                
PROFAMCHA141201084102084128000026D-JR OOB - Magical Holidays - Weeknights @ 6:30 (N                                                                          150                                
PROFAMCHA141201084128084208000040The Walt Disney Company                                                                                                     150                                
PROFAMCHA141201084208084248000040D-JR Promo - Lalaloopsy - Family - New Episode Thi                                                                          150                                
PROFAMCHA141201084248084333000045LeapFrog Enterprises                                                                                                        150                                
PROFAMCHA141201084333084415000042D-JR Promo - Sofia The First - Get More Wknds @ 11                                                                          150                                
PROFAMCHA141201084415084440000025D-JR Live Action ID - #45 Sorting Socks (May2012)                                                                           150                                
PROFAMCHA141201084440084448000008D-JR Live Action ID - SCWW - Now (Mar2014)                                                                                  150                                
PROFAMCHA141201084448084503000015D-JR - Seasonal ID - Winter (Dec 1-Feb 28)                                                                                  150                                
PGRFAMCHA141201084503090905002402Disney Sheriff Callie's Wild West                 EP: 10                                                               6028605ACC                              
PROFAMCHA141201090905090913000008D-JR Live Action ID - DocMcStuffins - Coming Up (O                                                                          150                                
PROFAMCHA141201090913090938000025D-JR Live Action ID - #37 Rock Paper Scissors (Sep                                                                          150                                
PROFAMCHA141201090938091018000040D-JR Promo - Lalaloopsy - Family - New Episode Thi                                                                          150                                
PROFAMCHA141201091018091043000025D-JR Live Action ID - #50 Feed Dog (Sep2013)                                                                                150                                
PROFAMCHA141201091043091051000008D-JR Live Action ID - DocMcStuffins - Now (Oct2013                                                                          150                                
PROFAMCHA141201091051091101000010D-JR - Hero Flex ID - Green (:06-:10) (Feb2014)                                                                             150                                
PGRFAMCHA141201091101093504002403Disney Doc McStuffins                             EP: 26                                                               6068605ACC                              
PROFAMCHA141201093504093512000008D-JR Live Action ID - Henry Hugglemonster - Coming                                                                          150                                
PROFAMCHA141201093512093537000025D-JR Live Action ID - #39 Treasure Hunt (Sep2013)                                                                           150                                
PROFAMCHA141201093537093619000042D-JR Promo - Sofia The First - Get More Wknds @ 11                                                                          150                                
PROFAMCHA141201093619093644000025D-JR Live Action ID - #51 Chores Board (Sep2013)                                                                            150                                
PROFAMCHA141201093644093652000008D-JR Live Action ID - Henry Hugglemonster - Now (S                                                                          150                                
PROFAMCHA141201093652093707000015D-JR - Monthly ID - December (Dec2014)                                                                                      150                                
PGRFAMCHA141201093707100110002403Henry Hugglemonster                               EP: 15                                                               6068605ACC                              
PROFAMCHA141201100110100118000008D-JR Live Action ID - Jake & the Never Land Pirate                                                                          150                                
PROFAMCHA141201100118100143000025D-JR Live Action ID - #5 Pick A Reading Spot (Sep2                                                                          150                                
PROFAMCHA141201100143100209000026D-JR OOB - Magical Holidays - Weeknights @ 6:30 (N                                                                          150                                
PROFAMCHA141201100209100249000040Incredible Novelties Inc.                                                                                                   150                                
PROFAMCHA141201100249100329000040D-JR Promo - Lalaloopsy - Family - New Episode Thi                                                                          150                                
PROFAMCHA141201100329100354000025D-JR Live Action ID - #94 Jump Rope (Sep2013)                                                                               150                                
PROFAMCHA141201100354100401000007D-JR Live Action ID - Jake & the Never Land Pirate                                                                          150                                
PROFAMCHA141201100401100411000010D-JR - Hero Flex ID - Purple (:06-:10) (Feb2014)                                                                            150                                
PGRFAMCHA141201100411102816002405Disney Jake and the Never Land Pirates            EP: 18                                                               6068605ACC                              
PROFAMCHA141201102816102824000008D-JR Live Action ID - Sofia the First - Coming Up                                                                           150                                
PROFAMCHA141201102824102849000025D-JR Live Action ID - #65 Putting Toys Away (Sept2                                                                          150                                
PROFAMCHA141201102849102919000030D-JR Promo - Henry Hugglemonster - Get more HH  on                                                                          150                                
PROFAMCHA141201102919102944000025D-JR Live Action ID - #63 Wash Face (Sep2013)                                                                               150                                
PROFAMCHA141201102944102952000008D-JR Live Action ID - Sofia the First - Now (Jan20                                                                          150                                
PROFAMCHA141201102952103007000015D-JR - Daily ID - Monday (Feb2014)                                                                                          150                                
PGRFAMCHA141201103007105310002303Disney Sofia the First                            EP: 15                                                               6028605ACC                              
PROFAMCHA141201105310105318000008D-JR Live Action ID - Lalaloopsy - NEW Coming Up (                                                                          150                                
PROFAMCHA141201105318105343000025D-JR Live Action ID - #96 Piano (Sep2013)                                                                                   150                                
PROFAMCHA141201105343105409000026D-JR OOB - Magical Holidays - Weeknights @ 6:30 (N                                                                          150                                
PROFAMCHA141201105409105459000050Feld Entertainment                                                                                                          150                                
PGRFAMCHA141201105459105729000230D-JR Short - Choo Choo Soul - 1-10 (Jul2013)                                                                           60688120CC                              
PROFAMCHA141201105729105809000040Incredible Novelties Inc.                                                                                                   150                                
PROFAMCHA141201105809105851000042D-JR Promo - Bananas in Pajamas - Get more on the                                                                           150                                
PROFAMCHA141201105851105931000040The Walt Disney Company                                                                                                     150                                
PROFAMCHA141201105931105956000025D-JR Live Action ID - #67 Play Dressup (Sep2013)                                                                            150                                
PROFAMCHA141201105956110004000008D-JR Live Action ID - Lalaloopsy - NEW Now (Oct201                                                                          150                                
PROFAMCHA141201110004110014000010D-JR - Hero Flex ID - Yellow (:06-:10) (Feb2014)                                                                            150                                
PGRFAMCHA141201110014112214002200Lalaloopsy                                        EP: 05                                                        D04228 2028607ECC2                             
PRCFAMCHA141201112214112244000030Episodic Gaming Show (HD) 1-03 - New Episode Tonig                                                                          150                                
PROFAMCHA141201112244112326000042ANT Farm Refresh 2014 (HD) Coming Up Next (Mar2014                                                                          150                                
PROFAMCHA141201112326112411000045Jessie Aloha-Holidays (HD) Jingle Bells - Special                                                                           150                                
PROFAMCHA14120111241111250100005020th Century Fox                                                                                                            150                                
PRCFAMCHA141201112501112546000045Austin & Ally (HD) Pitch Perfect - Check out famil                                                                          150                                
PROFAMCHA141201112546112626000040Incredible Novelties Inc.                                                                                                   150                                
PRCFAMCHA141201112626112641000015Twistmas 2011 Bumpers (HD) Jet Sled (Dec9-Jan6)                                                                             150                                
PROFAMCHA141201112641112731000050Crayola                                                                                                                     150                                
PRCFAMCHA141201112731112757000026Episodic Next Step (HD) 229 - New Episode Friday N                                                                          150                                
PROFAMCHA141201112757112847000050Mattel                                                                                                                      150                                
PRCFAMCHA141201112847112917000030Episodic Star Wars Rebels (HD) 1-05 - New Episode                                                                           150                                
PROFAMCHA141201112917112950000033ANT Farm (HD) Refresh - Coming Up Next (Jun2013)                                                                            150                                
PGRFAMCHA141201112950115239002249Disney A.N.T. Farm                                EP: 10                                                               6068607BCC                              
PRCFAMCHA141201115239115309000030Episodic Gaming Show (HD) 1-03 - New Episode Tonig                                                                          150                                
PROFAMCHA141201115309115339000030Win Lose or Draw (HD) Gen 1 - Coming Up Next (Apri                                                                          150                                
PRCFAMCHA141201115339115409000030Jessie Aloha-Holidays (HD) Parker&Joey Sell - Spec                                                                          150                                
PROFAMCHA141201115409115459000050Mattel                                                                                                                      150                                
PROFAMCHA141201115459115544000045Girl Meets World (HD) Farkle/Comedy Sell - Only On                                                                          150                                
PROFAMCHA141201115544115610000026D-JR OOB - Magical Holidays - Weeknights @ 6:30 (N                                                                          150                                
PROFAMCHA141201115610115640000030Good Luck Charlie, Its Christmas (HD) Friday at 8:                                                                          150                                
PROFAMCHA141201115640115720000040Kellogg's                                                                                                                   150                                
PROFAMCHA141201115720115803000043Austin & Ally (HD) Bud Sell Refresh - Check Family                                                                          150                                
PRCFAMCHA141201115803115818000015Twistmas 2011 Bumpers (HD) Pudding (Dec9-Jan6)                                                                              150                                
PROFAMCHA141201115818115850000032Next Step Make A Scene Contest V2 (HD) No Contest                                                                           150                                
PRCFAMCHA141201115850115920000030Episodic Star Wars Rebels (HD) 1-05 - New Episode                                                                           150                                
PROFAMCHA141201115920115950000030Win Lose or Draw (HD) Gen 2 - Coming Up Next (Apri                                                                          150                                
PGRFAMCHA141201115950120630000640Disney Win, Lose or Draw                          EP: 02                                                               6068807BCC                              
PRCFAMCHA141201120630120700000030Episodic Gaming Show (HD) 1-03 - New Episode Tonig                                                                          150                                
PGRFAMCHA141201120700121412000712Disney Win, Lose or Draw                          EP: 02                                                               6068807BCC                              
PROFAMCHA141201121412121527000115Jessie Aloha-Holidays (HD) Trailer - Special Ep Fr                                                                          150                                
PGRFAMCHA141201121527122122000555Disney Win, Lose or Draw                          EP: 02                                                               6068807BCC                              
PRCFAMCHA141201122122122148000026Episodic Next Step (HD) 229 - New Episode Friday N                                                                          150                                
PGRFAMCHA141201122148122433000245Disney Win, Lose or Draw                          EP: 02                                                               6068807BCC                              
PROFAMCHA141201122433122503000030Good Luck Charlie, Its Christmas (HD) Friday at 8:                                                                          150                                
PROFAMCHA141201122503122526000023WOWP (HD) Harper - Coming Up Next (April 2013)                                                                              150                                
PROFAMCHA141201122526122606000040Incredible Novelties Inc.                                                                                                   150                                
PROFAMCHA141201122606122638000032Next Step Make A Scene Contest V2 (HD) No Contest                                                                           150                                
PROFAMCHA14120112263812272800005020th Century Fox                                                                                                            150                                
PROFAMCHA141201122728122813000045Girl Meets World (HD) Farkle/Comedy Sell - Check f                                                                          150                                
PRCFAMCHA141201122813122828000015Twistmas 2011 Bumpers (HD) Sky Diving (Dec9-Jan6)                                                                           150                                
PROFAMCHA141201122828122918000050Crayola                                                                                                                     150                                
PRCFAMCHA141201122918122948000030Episodic Star Wars Rebels (HD) 1-05 - New Episode                                                                           150                                
PROFAMCHA141201122948122954000006WOWP (HD) ID - Jennifer Stone 1 "Coming Up Next" (                                                                          150                                
PGRFAMCHA141201122954125213002219Disney Wizards of Waverly Place                   EP: 19                                                               6068507BCC                              
PRCFAMCHA141201125213125239000026Episodic Next Step (HD) 229 - New Episode Friday N                                                                          150                                
PROFAMCHA141201125239125258000019WOWP (HD) Clip Bad Time - Coming Up Next (April 20                                                                          150                                
PRCFAMCHA141201125258125328000030Episodic Star Wars Rebels (HD) 1-05 - New Episode                                                                           150                                
PROFAMCHA141201125328125408000040Kellogg's                                                                                                                   150                                
PROFAMCHA141201125408125434000026D-JR OOB - Magical Holidays - Weeknights @ 6:30 (N                                                                          150                                
PROFAMCHA141201125434125459000025DWAB (HD) Clip Promo - Check Out Family.ca For Sho                                                                          150                                
PGRFAMCHA141201125459125713000214Short GF Mabel's Guide (HD) 09 To Fashion (Apr18)                                                                      60688120CC                              
PRCFAMCHA141201125713125733000020Family Bumper Flex (HD) Flex ID - ANT Farm (:16-:2                                                                          150                                
PRCFAMCHA141201125733125746000013Jessie Aloha-Holidays (HD) Urgency - Special Ep Fr                                                                          150                                
PROFAMCHA141201125746125846000100Lego                                                                                                                        150                                
PROFAMCHA141201125846125919000033Next Step 2 B Online Promo (HD) Check It Out Today                                                                          150                                
PRCFAMCHA141201125919125949000030Episodic Gaming Show (HD) 1-03 - New Episode Tonig                                                                          150                                
PROFAMCHA141201125949125955000006WOWP (HD) ID - Jennifer Stone 2 "Coming Up Next" (                                                                          150                                
PGRFAMCHA141201125955132229002234Disney Wizards of Waverly Place                   EP: 17                                                               6068607BCC                              
PRCFAMCHA141201132229132255000026Episodic Next Step (HD) 229 - New Episode Friday N                                                                          150                                
PROFAMCHA141201132255132320000025GLC Promo 1 (HD) Coming Up Next (Sep2013)                                                                                   150                                
PRCFAMCHA141201132320132350000030Episodic Gaming Show (HD) 1-03 - New Episode Tonig                                                                          150                                
PROFAMCHA141201132350132440000050Crayola                                                                                                                     150                                
PRCFAMCHA141201132440132510000030Jessie Aloha-Holidays (HD) Announce - Special Ep F                                                                          150                                
PGRFAMCHA141201132510132818000308MV Non Disney (HD) Taylor Matthews - Do What You W                                                                     10615120CC                              
PRCFAMCHA141201132818132833000015Twistmas 2011 Bumpers (HD) Blackhole (Dec9-Jan6)                                                                            150                                
PROFAMCHA141201132833132923000050Disney Interactive                                                                                                          150                                
PRCFAMCHA141201132923132953000030Episodic Star Wars Rebels (HD) 1-05 - New Episode                                                                           150                                
PROFAMCHA141201132953132958000005GLC (HD) ID - Bradley Perry 3 "Coming Up Next" (gi                                                                          150                                
PGRFAMCHA141201132958135233002235Good Luck Charlie                                 EP: 17                                                               6068807BCC                              
PROFAMCHA141201135233135303000030Good Luck Charlie, Its Christmas (HD) Friday at 8:                                                                          150                                
PROFAMCHA141201135303135335000032PAF (HD) Delicious Refresh - Coming Up Next (Jun20                                                                          150                                
PRCFAMCHA141201135335135405000030Episodic Star Wars Rebels (HD) 1-05 - New Episode                                                                           150                                
PROFAMCHA141201135405135448000043LAM (HD) Tips Refresh - Check out family.ca for sh                                                                          150                                
PROFAMCHA141201135448135538000050Crayola                                                                                                                     150                                
PROFAMCHA141201135538135604000026D-JR OOB - Magical Holidays - Weeknights @ 6:30 (N                                                                          150                                
PRCFAMCHA141201135604135619000015Twistmas 2011 Bumpers (HD) Jet Sled (Dec9-Jan6)                                                                             150                                
PROFAMCHA141201135619135704000045Jessie Aloha-Holidays (HD) Jingle Bells - Special                                                                           150                                
PROFAMCHA141201135704135754000050Activision                                                                                                                  150                                
PRCFAMCHA141201135754135820000026Episodic Next Step (HD) 229 - New Episode Friday N                                                                          150                                
PRCFAMCHA141201135820135850000030Web Gravity Falls Online Game (HD) Play games on f                                                                          150                                
PROFAMCHA141201135850135910000020LeapFrog Enterprises                                                                                                        150                                
PRCFAMCHA141201135910135940000030Episodic Gaming Show (HD) 1-03 - New Episode Tonig                                                                          150                                
PROFAMCHA141201135940135957000017PAF (HD) Disney Refresh CD - Coming Up Next (April                                                                          150                                
PGRFAMCHA141201135957142228002231Disney Phineas & Ferb                             EP: 32                                                               6068607ECC                              
PRCFAMCHA141201142228142258000030Episodic Star Wars Rebels (HD) 1-05 - New Episode                                                                           150                                
PROFAMCHA141201142258142331000033ANT Farm (HD) Refresh - Coming Up Next (Jun2013)                                                                            150                                
PRCFAMCHA141201142331142401000030Jessie Aloha-Holidays (HD) Parker&Joey Sell - Spec                                                                          150                                
PROFAMCHA141201142401142451000050Feld Entertainment                                                                                                          150                                
PRCFAMCHA141201142451142517000026Episodic Next Step (HD) 229 - New Episode Friday N                                                                          150                                
PROFAMCHA141201142517142617000100Lego                                                                                                                        150                                
PGRFAMCHA141201142617142817000200Short GF Dipper's Guide (HD) 106 Lefty (Nov16)                                                                         60688120CC                              
PROFAMCHA141201142817142837000020IDDI (HD) Refresh - Check Out Family.ca for showti                                                                          150                                
PROFAMCHA141201142837142857000020LeapFrog Enterprises                                                                                                        150                                
PRCFAMCHA141201142857142915000018Family Bumper Flex (HD) Flex ID - Music ID (:14-:1                                                                          150                                
PRCFAMCHA141201142915142945000030Episodic Gaming Show (HD) 1-03 - New Episode Tonig                                                                          150                                
PRCFAMCHA141201142945142959000014Family Flex Next (HD) ANT Farm - Jake (:12-:14) (A                                                                          150                                
PGRFAMCHA141201142959145233002234Disney A.N.T. Farm                                EP: 02                                                               6068607BCC                              
PRCFAMCHA141201145233145303000030Episodic Gaming Show (HD) 1-03 - New Episode Tonig                                                                          150                                
PROFAMCHA141201145303145345000042ANT Farm Refresh 2014 (HD) Coming Up Next (Mar2014                                                                          150                                
PROFAMCHA141201145345145415000030Good Luck Charlie, Its Christmas (HD) Friday at 8:                                                                          150                                
PROFAMCHA141201145415145448000033Next Step 2 B Online Promo (HD) Check It Out Today                                                                          150                                
PROFAMCHA141201145448145538000050Crayola                                                                                                                     150                                
PROFAMCHA141201145538145653000115Jessie Aloha-Holidays (HD) Trailer - Special Ep Fr                                                                          150                                
PGRFAMCHA141201145653145840000147MV Lift (HD) LAM - Count Me In (ep 1-20) (Aug2014)                                                                     60685120CC                              
PRCFAMCHA141201145840145855000015Twistmas 2011 Bumpers (HD) Pudding (Dec9-Jan6)                                                                              150                                
PROFAMCHA141201145855145921000026D-JR OOB - Magical Holidays - Weeknights @ 6:30 (N                                                                          150                                
PRCFAMCHA141201145921145951000030Episodic Star Wars Rebels (HD) 1-05 - New Episode                                                                           150                                
PROFAMCHA141201145951150006000015ANT Farm (HD) Refresh CT - Coming Up Next (April 2                                                                          150                                
PGRFAMCHA141201150006152254002248Disney A.N.T. Farm                                EP: 10                                                               6068607BCC                              
PRCFAMCHA141201152254152320000026Episodic Next Step (HD) 229 - New Episode Friday N                                                                          150                                
PROFAMCHA141201152320152339000019GLC Promo 2 (HD) Coming Up Next (Sep2013)                                                                                   150                                
PRCFAMCHA141201152339152409000030Episodic Star Wars Rebels (HD) 1-05 - New Episode                                                                           150                                
PROFAMCHA141201152409152459000050Crayola                                                                                                                     150                                
PROFAMCHA141201152459152540000041Santa Buddies (HD) Saturday at Noon (Dec2014)                                                                               150                                
PROFAMCHA141201152540152603000023Twistmas 2013 (HD) Isaac & Jennie - Wacky Gift (De                                                                          150                                
PROFAMCHA141201152603152653000050Disney Interactive                                                                                                          150                                
PROFAMCHA141201152653152723000030DXD Pen Zero (HD) Premieres Sunday December 14th a                                                                          150                                
PRCFAMCHA141201152723152738000015Twistmas 2011 Bumpers (HD) Sky Diving (Dec9-Jan6)                                                                           150                                
PROFAMCHA141201152738152818000040Kellogg's                                                                                                                   150                                
PRCFAMCHA141201152818152831000013Jessie Aloha-Holidays (HD) Urgency - Special Ep Fr                                                                          150                                
PROFAMCHA141201152831152921000050Sony Pictures                                                                                                               150                                
PRCFAMCHA141201152921152951000030Episodic Gaming Show (HD) 1-03 - New Episode Tonig                                                                          150                                
PROFAMCHA141201152951152957000006GLC (HD) ID - Bridget Mendler 4 "Coming Up Next" (                                                                          150                                
PGRFAMCHA141201152957155258002301Disney Good Luck Charlie                          EP: 08                                                               6068807BCC                              
PROFAMCHA141201155258155328000030Good Luck Charlie, Its Christmas (HD) Friday at 8:                                                                          150                                
PROFAMCHA141201155328155400000032PAF (HD) Delicious Refresh - Coming Up Next (Jun20                                                                          150                                
PRCFAMCHA141201155400155430000030Jessie Aloha-Holidays (HD) Announce - Special Ep F                                                                          150                                
PROFAMCHA141201155430155520000050Activision                                                                                                                  150                                
PRCFAMCHA141201155520155546000026Episodic Next Step (HD) 229 - New Episode Friday N                                                                          150                                
PROFAMCHA141201155546155646000100Sony Pictures                                                                                                               150                                
PROFAMCHA141201155646155700000014Twistmas 2013 (HD) Cody Simpson - Best Gift (Dec 5                                                                          150                                
PRCFAMCHA141201155700155730000030Family Bumper Flex (HD) Flex ID - Austin & Ally (F                                                                          150                                
PROFAMCHA141201155730155820000050Feld Entertainment                                                                                                          150                                
PRCFAMCHA141201155820155850000030Episodic Star Wars Rebels (HD) 1-05 - New Episode                                                                           150                                
PROFAMCHA141201155850155910000020LeapFrog Enterprises                                                                                                        150                                
PRCFAMCHA141201155910155940000030Episodic Gaming Show (HD) 1-03 - New Episode Tonig                                                                          150                                
PROFAMCHA141201155940155957000017PAF (HD) Disney Refresh CD - Coming Up Next (April                                                                          150                                
PGRFAMCHA141201155957162229002232Disney Phineas & Ferb                             EP: 06                                                               6068607ECC                              
PRCFAMCHA141201162229162259000030Episodic Star Wars Rebels (HD) 1-05 - New Episode                                                                           150                                
PROFAMCHA141201162259162324000025DWAB (HD) Clip Promo - Coming Up Next (Oct2013)                                                                             150                                
PRCFAMCHA141201162324162350000026Episodic Next Step (HD) 229 - New Episode Friday N                                                                          150                                
PROFAMCHA141201162350162430000040Kellogg's                                                                                                                   150                                
PROFAMCHA141201162430162500000030DXD Pen Zero (HD) Premieres Sunday December 14th a                                                                          150                                
PROFAMCHA141201162500162521000021Twistmas 2013 (HD) Veronica - Wacky Gift (Dec 17-3                                                                          150                                
PROFAMCHA141201162521162621000100Sony Pictures                                                                                                               150                                
PRCFAMCHA141201162621162636000015Twistmas 2011 Bumpers (HD) Blackhole (Dec9-Jan6)                                                                            150                                
PROFAMCHA141201162636162736000100Lego                                                                                                                        150                                
PROFAMCHA141201162736162821000045Jessie Aloha-Holidays (HD) Jingle Bells - Special                                                                           150                                
PROFAMCHA141201162821162906000045Mattel                                                                                                                      150                                
PRCFAMCHA141201162906162936000030Episodic Gaming Show (HD) 1-03 - New Episode Tonig                                                                          150                                
PRCFAMCHA141201162936162957000021DWAB Tango Refresh (HD) Coming Up Next (Mar2014)                                                                            150                                
PGRFAMCHA141201162957165215002218Disney Dog With A Blog                            EP: 13                                                               6068807BCC                              
PRCFAMCHA141201165215165245000030Episodic Star Wars Rebels (HD) 1-05 - New Episode                                                                           150                                
PROFAMCHA141201165245165315000030Austin & Ally (HD) Generic - Coming up Next (May20                                                                          150                                
PROFAMCHA141201165315165356000041Santa Buddies (HD) Saturday at Noon (Dec2014)                                                                               150                                
PROFAMCHA141201165356165429000033Next Step 2 B Online Promo (HD) Check It Out Today                                                                          150                                
PROFAMCHA14120116542916551900005020th Century Fox                                                                                                            150                                
PROFAMCHA141201165519165555000036Twistmas 2013 (HD) Rydel & Ratliff - Best Gift (De                                                                          150                                
PROFAMCHA141201165555165645000050Mattel                                                                                                                      150                                
PROFAMCHA141201165645165800000115Jessie Aloha-Holidays (HD) Trailer - Special Ep Fr                                                                          150                                
PRCFAMCHA141201165800165814000014Family Bumper Flex (HD) Flex ID - Music ID (:14-:1                                                                          150                                
PROFAMCHA141201165814165904000050Activision                                                                                                                  150                                
PRCFAMCHA141201165904165934000030Episodic Gaming Show (HD) 1-03 - New Episode Tonig                                                                          150                                
PRCFAMCHA141201165934165949000015Family Flex Next (HD) A&A Raini (Aug 2013) (:13-:1                                                                          150                                
PGRFAMCHA141201165949172320002331Disney Austin & Ally                              EP: 13                                                               6068807BCC                              
PRCFAMCHA141201172320172350000030Episodic Gaming Show (HD) 1-03 - New Episode Tonig                                                                          150                                
PROFAMCHA141201172350172433000043Austin & Ally (HD) Bud Sell Refresh - Coming Up Ne                                                                          150                                
PRCFAMCHA141201172433172459000026Episodic Next Step (HD) 229 - New Episode Friday N                                                                          150                                
PROFAMCHA141201172459172519000020LeapFrog Enterprises                                                                                                        150                                
PROFAMCHA141201172519172549000030DXD Pen Zero (HD) Premieres Sunday December 14th a                                                                          150                                
PROFAMCHA141201172549172639000050Sony Pictures                                                                                                               150                                
PRCFAMCHA141201172639172709000030Web FOD 2014 Refresh (HD) Family.ca (Mar2014) (2-3                                                                          150                                
PRCFAMCHA141201172709172726000017Family Bumper Flex (HD) Flex ID - ANT Farm (:16-:2                                                                          150                                
PROFAMCHA141201172726172816000050Crayola                                                                                                                     150                                
PRCFAMCHA141201172816172829000013Jessie Aloha-Holidays (HD) Urgency - Special Ep Fr                                                                          150                                
PROFAMCHA141201172829172859000030Nintendo                                                                                                                    150                                
PRCFAMCHA141201172859172929000030Episodic Star Wars Rebels (HD) 1-05 - New Episode                                                                           150                                
PRCFAMCHA141201172929172943000014Family Flex Next (HD) A&A - Laura (:12-:14) (Apr20                                                                          150                                
PGRFAMCHA141201172943175216002233Disney Austin & Ally                              EP: 10                                                               6068807BCC                              
PRCFAMCHA141201175216175246000030Episodic Gaming Show (HD) 1-03 - New Episode Tonig                                                                          150                                
PROFAMCHA141201175246175329000043LAM (HD) Tips Refresh - Coming Up Next (May2014)                                                                            150                                
PRCFAMCHA141201175329175359000030Jessie Aloha-Holidays (HD) Announce - Special Ep F                                                                          150                                
PROFAMCHA141201175359175459000100Lego                                                                                                                        150                                
PROFAMCHA141201175459175535000036Twistmas 2013 (HD) Selena Gomez - Best Gift (Dec 1                                                                          150                                
PROFAMCHA141201175535175607000032Next Step Make A Scene Contest V2 (HD) No Contest                                                                           150                                
PROFAMCHA14120117560717565700005020th Century Fox                                                                                                            150                                
PRCFAMCHA141201175657175712000015Twistmas 2011 Bumpers (HD) Pudding (Dec9-Jan6)                                                                              150                                
PROFAMCHA141201175712175752000040Incredible Novelties Inc.                                                                                                   150                                
PROFAMCHA141201175752175820000028IDDI (HD) Check Family.ca for showtimes (March2014                                                                          150                                
PROFAMCHA141201175820175905000045Mattel                                                                                                                      150                                
PRCFAMCHA141201175905175935000030Episodic Star Wars Rebels (HD) 1-05 - New Episode                                                                           150                                
PRCFAMCHA141201175935175954000019Family Flex Next (HD) LAM - Dove (:10-:19) (Jul201                                                                          150                                
PGRFAMCHA141201175954182212002218Disney Liv and Maddie                             EP: 06                                                               6068807BCC                              
PRCFAMCHA141201182212182238000026Episodic Next Step (HD) 229 - New Episode Friday N                                                                          150                                
PRCFAMCHA141201182238182304000026Jessie (HD) Clip Promo - Coming Up Next (Oct2013)                                                                           150                                
PRCFAMCHA141201182304182334000030Episodic Gaming Show (HD) 1-03 - New Episode Tonig                                                                          150                                
PROFAMCHA141201182334182424000050Sony Pictures                                                                                                               150                                
PROFAMCHA141201182424182454000030DXD Pen Zero (HD) Premieres Sunday December 14th a                                                                          150                                
PRCFAMCHA141201182454182548000054Twistmas 2013 (HD) Mixed Talent Best Gift (Dec 19-                                                                          150                                
PROFAMCHA141201182548182618000030Good Luck Charlie, Its Christmas (HD) Friday at 8:                                                                          150                                
PROFAMCHA141201182618182708000050Disney Interactive                                                                                                          150                                
PROFAMCHA141201182708182753000045Girl Meets World (HD) Farkle/Comedy Sell - Check f                                                                          150                                
PRCFAMCHA141201182753182808000015Twistmas 2011 Bumpers (HD) Sky Diving (Dec9-Jan6)                                                                           150                                
PROFAMCHA141201182808182908000100Lego                                                                                                                        150                                
PRCFAMCHA141201182908182938000030Episodic Star Wars Rebels (HD) 1-05 - New Episode                                                                           150                                
PRCFAMCHA141201182938182952000014Family Flex Next (HD) Jessie - Emma (:12-:14) (Mar                                                                          150                                
PGRFAMCHA141201182952185309002317Disney Jessie                                     EP: 12                                                               6068807BCC                              
PRCFAMCHA141201185309185339000030Episodic Gaming Show (HD) 1-03 - New Episode Tonig                                                                          150                                
PROFAMCHA141201185339185409000030Jessie (HD) Generic - Coming up Next (May2014)                                                                              150                                
PRCFAMCHA141201185409185435000026Episodic Next Step (HD) 229 - New Episode Friday N                                                                          150                                
PROFAMCHA141201185435185525000050Crayola                                                                                                                     150                                
PROFAMCHA141201185525185606000041Santa Buddies (HD) Saturday at Noon (Dec2014)                                                                               150                                
PRCFAMCHA141201185606185624000018Family Bumper Flex (HD) Flex ID - ANT Farm (:16-:2                                                                          150                                
PRCFAMCHA141201185624185709000045Austin & Ally (HD) Pitch Perfect - Check out famil                                                                          150                                
PROFAMCHA141201185709185809000100Sony Pictures                                                                                                               150                                
PRCFAMCHA141201185809185839000030Jessie Aloha-Holidays (HD) Parker&Joey Sell - Spec                                                                          150                                
PROFAMCHA141201185839185908000029Twistmas 2013 (HD) R5 Boys - Wacky Gift (Dec 5-31)                                                                          150                                
PRCFAMCHA141201185908185938000030Episodic Star Wars Rebels (HD) 1-05 - New Episode                                                                           150                                
PRCFAMCHA141201185938190004000026Jessie (HD) Clip Promo - Coming Up Next (Oct2013)                                                                           150                                
PGRFAMCHA141201190004192224002220Disney Jessie                                     EP: 13                                                               6068807BCC                              
PROFAMCHA141201192224192339000115Jessie Aloha-Holidays (HD) Trailer - Special Ep Fr                                                                          150                                
PROFAMCHA141201192339192430000051Gravity Falls (HD) Refresh - Coming Up Next (Jun20                                                                          150                                
PRCFAMCHA141201192430192500000030Episodic Star Wars Rebels (HD) 1-05 - New Episode                                                                           150                                
PROFAMCHA141201192500192550000050Activision                                                                                                                  150                                
PROFAMCHA141201192550192631000041Santa Buddies (HD) Saturday at Noon (Dec2014)                                                                               150                                
PROFAMCHA141201192631192645000014Twistmas 2013 (HD) China Anne McClain Best Gift (D                                                                          150                                
PROFAMCHA14120119264519273500005020th Century Fox                                                                                                            150                                
PROFAMCHA141201192735192805000030DXD Pen Zero (HD) Premieres Sunday December 14th a                                                                          150                                
PROFAMCHA141201192805192838000033Next Step 2 B Online Promo (HD) Check It Out Today                                                                          150                                
PROFAMCHA141201192838192858000020LeapFrog Enterprises                                                                                                        150                                
PRCFAMCHA141201192858192913000015Twistmas 2011 Bumpers (HD) Blackhole (Dec9-Jan6)                                                                            150                                
PRCFAMCHA141201192913192943000030Episodic Gaming Show (HD) 1-03 - New Episode Tonig                                                                          150                                
PRCFAMCHA141201192943193006000023Gravity Falls (HD) Comedy Sell - Coming Up Next (A                                                                          150                                
PGRFAMCHA141201193006195211002205Disney Gravity Falls                              EP: 07                                                              A6028707ECC                              
PRCFAMCHA141201195211195241000030Episodic Gaming Show (HD) 1-03 - New Episode Tonig                                                                          150                                
PRCFAMCHA141201195241195311000030Episodic Star Wars Rebels (HD) 1-05 - New Episode                                                                           150                                
PROFAMCHA141201195311195426000115Jessie Aloha-Holidays (HD) Trailer - Special Ep Fr                                                                          150                                
PROFAMCHA141201195426195511000045Mattel                                                                                                                      150                                
PRCFAMCHA141201195511195537000026Episodic Next Step (HD) 229 - New Episode Friday N                                                                          150                                
PROFAMCHA141201195537195637000100Lego                                                                                                                        150                                
PGRFAMCHA141201195637195824000147MV Lift (HD) LAM - Count Me In (ep 1-20) (Aug2014)                                                                     60685120CC                              
PRCFAMCHA141201195824195839000015Twistmas 2011 Bumpers (HD) Jet Sled (Dec9-Jan6)                                                                             150                                
PROFAMCHA141201195839195909000030Nintendo                                                                                                                    150                                
PROFAMCHA141201195909195939000030Good Luck Charlie, Its Christmas (HD) Friday at 8:                                                                          150                                
PRCFAMCHA141201195939200009000030Episodic Star Wars Rebels (HD) 1-05 - New Episode                                                                           150                                
PGRFAMCHA141201200009202214002205Star Wars Rebels                                  EP: 05                                                              A6028707ECC                              
PRCFAMCHA141201202214202244000030Episodic Star Wars Rebels (HD) 1-06 - New Episode                                                                           150                                
PRCFAMCHA141201202244202314000030Episodic Gaming Show (HD) 1-03 - New Episode Next                                                                           150                                
PRCFAMCHA141201202314202340000026Episodic Next Step (HD) 229 - New Episode Friday N                                                                          150                                
PROFAMCHA14120120234020243000005020th Century Fox                                                                                                            150                                
PROFAMCHA141201202430202500000030DXD Pen Zero (HD) Premieres Sunday December 14th a                                                                          150                                
PROFAMCHA141201202500202543000043LAM (HD) Tips Refresh - Only on Family (May2014)                                                                            150                                
PROFAMCHA141201202543202633000050Crayola                                                                                                                     150                                
PROFAMCHA141201202633202714000041Santa Buddies (HD) Saturday at Noon (Dec2014)                                                                               150                                
PROFAMCHA141201202714202808000054ANT Farm Refresh 2014 (HD) On Family (Mar2014)                                                                              150CC                              
PROFAMCHA141201202808202848000040Kellogg's                                                                                                                   150                                
PRCFAMCHA141201202848202857000009Family Bumper (HD) - Dragonflies ID (Jan 2011)                                                                              150                                
PRCFAMCHA141201202857202927000030Jessie Aloha-Holidays (HD) Announce - Special Ep F                                                                          150                                
PRCFAMCHA141201202927202957000030Episodic Gaming Show (HD) 1-03 - New Episode Next                                                                           150                                
PROFAMCHA141201202957203007000010Nintendo                                                                                                                    150                                
PGRFAMCHA141201203007205239002232Gaming Show (In My Parents' Garage)               EP: 03                                                              A1025611ACD                              
PRCFAMCHA141201205239205309000030Episodic Gaming Show (HD) 1-04 - New Episode Monda                                                                          150                                
PROFAMCHA141201205309205359000050Nintendo                                                                                                                    150                                
PROFAMCHA141201205359205422000023Next Step Season 2 B (HD) Eldon - Coming Up Next (                                                                          150                                
PROFAMCHA141201205422205452000030Good Luck Charlie, Its Christmas (HD) Friday at 8:                                                                          150                                
PROFAMCHA141201205452205538000046Twistmas 2013 (HD) Olly Murs - Wacky Gift (Dec 17-                                                                          150                                
PROFAMCHA141201205538205628000050Mattel                                                                                                                      150                                
PROFAMCHA141201205628205700000032Next Step Make A Scene Contest V2 (HD) No Contest                                                                           150                                
PROFAMCHA141201205700205743000043Austin & Ally (HD) Bud Sell Refresh - Check Family                                                                          150                                
PRCFAMCHA141201205743205813000030Episodic Star Wars Rebels (HD) 1-06 - New Episode                                                                           150                                
PRCFAMCHA141201205813205828000015Twistmas 2011 Bumpers (HD) Pudding (Dec9-Jan6)                                                                              150                                
PRCFAMCHA141201205828205858000030Web Gravity Falls Online Game (HD) Play games on f                                                                          150                                
PROFAMCHA141201205858210013000115Jessie Aloha-Holidays (HD) Trailer - Special Ep Fr                                                                          150                                
PRCFAMCHA141201210013210033000020Next Step Season 2 B (HD) Riley - Coming Up Next (                                                                          150                                
PGRFAMCHA141201210033212319002246The Next Step                                     EP: 30                                                        C36838 1055607ACD3                             
PRCFAMCHA141201212319212345000026Episodic Next Step (HD) 229 - New Episode Friday N                                                                          150                                
PROFAMCHA14120121234521243500005020th Century Fox                                                                                                            150                                
PRCFAMCHA141201212435212505000030Jessie Aloha-Holidays (HD) Parker&Joey Sell - Spec                                                                          150                                
MVCFAMCHA141201212505212835000330MV Non Disney (HD) Victoria Duffield - Paper Plane                                                                     10615150CC                              
PROFAMCHA141201212835212901000026D-JR OOB - Magical Holidays - Weeknights @ 6:30 (N                                                                          150                                
PROFAMCHA141201212901212951000050Nintendo                                                                                                                    150                                
PRCFAMCHA141201212951213006000015Twistmas 2011 Bumpers (HD) Sky Diving (Dec9-Jan6)                                                                           150                                
PRCFAMCHA141201213006213036000030Episodic Star Wars Rebels (HD) 1-06 - New Episode                                                                           150                                
PGRFAMCHA141201213036215305002229Wingin' It                                        EP: 08                                                        C32356 1065607ACD                              
PRCFAMCHA141201215305215335000030Episodic Star Wars Rebels (HD) 1-06 - New Episode                                                                           150                                
PRCFAMCHA141201215335215409000034GLC Marching Band (HD) Coming Up Next (Nov2013)                                                                             150                                
PROFAMCHA141201215409215524000115Jessie Aloha-Holidays (HD) Trailer - Special Ep Fr                                                                          150                                
PROFAMCHA141201215524215609000045Mattel                                                                                                                      150                                
PRCFAMCHA141201215609215639000030Episodic Gaming Show (HD) 1-04 - New Episode Monda                                                                          150                                
PROFAMCHA141201215639215709000030DXD Pen Zero (HD) Premieres Sunday December 14th a                                                                          150                                
PROFAMCHA141201215709215759000050Crayola                                                                                                                     150                                
PROFAMCHA141201215759215840000041Santa Buddies (HD) Saturday at Noon (Dec2014)                                                                               150                                
PRCFAMCHA141201215840215859000019Family Bumper Flex (HD) Flex ID - ANT Farm (:16-:2                                                                          150                                
PROFAMCHA141201215859215944000045Girl Meets World (HD) Farkle/Comedy Sell - Check f                                                                          150                                
PRCFAMCHA141201215944220010000026Episodic Next Step (HD) 229 - New Episode Friday N                                                                          150                                
PROFAMCHA141201220010220035000025GLC Promo 1 (HD) Coming Up Next (Sep2013)                                                                                   150                                
PGRFAMCHA141201220035222338002303Disney Good Luck Charlie                          EP: 08                                                               6068807BCC                              
PROFAMCHA141201222338222408000030Good Luck Charlie, Its Christmas (HD) Friday at 8:                                                                          150                                
PROFAMCHA141201222408222438000030Win Lose or Draw (HD) Gen 1 - Coming Up Next (Apri                                                                          150                                
PRCFAMCHA141201222438222508000030Episodic Gaming Show (HD) 1-04 - New Episode Monda                                                                          150                                
PROFAMCHA14120122250822255800005020th Century Fox                                                                                                            150                                
PRCFAMCHA141201222558222611000013Jessie Aloha-Holidays (HD) Urgency - Special Ep Fr                                                                          150                                
PGRFAMCHA141201222611222801000150MV Lift (HD) A&A - Me & You (ep 3-11) (Aug2014)                                                                        60685120CC                              
PRCFAMCHA141201222801222816000015Twistmas 2011 Bumpers (HD) Blackhole (Dec9-Jan6)                                                                            150                                
PROFAMCHA141201222816222842000026D-JR OOB - Magical Holidays - Weeknights @ 6:30 (N                                                                          150                                
PROFAMCHA141201222842222932000050Crayola                                                                                                                     150                                
PRCFAMCHA141201222932223002000030Episodic Star Wars Rebels (HD) 1-06 - New Episode                                                                           150                                
PROFAMCHA141201223002223032000030Win Lose or Draw (HD) Gen 2 - Coming Up Next (Apri                                                                          150                                
PGRFAMCHA141201223032223712000640Disney Win, Lose or Draw                          EP: 02                                                               6068807BCC                              
PROFAMCHA141201223712223744000032Next Step Make A Scene Contest V2 (HD) No Contest                                                                           150                                
PGRFAMCHA141201223744224456000712Disney Win, Lose or Draw                          EP: 02                                                               6068807BCC                              
PRCFAMCHA141201224456224526000030Episodic Star Wars Rebels (HD) 1-06 - New Episode                                                                           150                                
PGRFAMCHA141201224526225121000555Disney Win, Lose or Draw                          EP: 02                                                               6068807BCC                              
PROFAMCHA141201225121225202000041Santa Buddies (HD) Saturday at Noon (Dec2014)                                                                               150                                
PGRFAMCHA141201225202225447000245Disney Win, Lose or Draw                          EP: 02                                                               6068807BCC                              
PRCFAMCHA141201225447225517000030Jessie Aloha-Holidays (HD) Announce - Special Ep F                                                                          150                                
PROFAMCHA141201225517225540000023WOWP (HD) Harper - Coming Up Next (April 2013)                                                                              150                                
PRCFAMCHA141201225540225610000030Episodic Gaming Show (HD) 1-04 - New Episode Monda                                                                          150                                
PRCFAMCHA141201225610225625000015Twistmas 2011 Bumpers (HD) Jet Sled (Dec9-Jan6)                                                                             150                                
PROFAMCHA141201225625225715000050Mattel                                                                                                                      150                                
PGRFAMCHA141201225715225915000200Short GF Dipper's Guide (HD) 106 Lefty (Nov16)                                                                         60688120CC                              
PROFAMCHA141201225915230005000050Crayola                                                                                                                     150                                
PRCFAMCHA141201230005230031000026Episodic Next Step (HD) 229 - New Episode Friday N                                                                          150                                
PROFAMCHA141201230031230037000006WOWP (HD) ID - Jennifer Stone 1 "Coming Up Next" (                                                                          150                                
PGRFAMCHA141201230037232255002218Disney Wizards of Waverly Place                   EP: 19                                                               6068507BCC                              
PRCFAMCHA141201232255232325000030Episodic Star Wars Rebels (HD) 1-06 - New Episode                                                                           150                                
PROFAMCHA141201232325232425000100Lego                                                                                                                        150                                
PROFAMCHA141201232425232510000045Jessie Aloha-Holidays (HD) Jingle Bells - Special                                                                           150                                
PGRFAMCHA141201232510232818000308MV Non Disney (HD) Taylor Matthews - Do What You W                                                                     10615120CC                              
PRCFAMCHA141201232818232848000030Episodic Gaming Show (HD) 1-04 - New Episode Monda                                                                          150                                
PROFAMCHA141201232848232928000040Kellogg's                                                                                                                   150                                
PROFAMCHA141201232928232954000026D-JR OOB - Magical Holidays - Weeknights @ 6:30 (N                                                                          150                                
PRCFAMCHA141201232954233009000015Family Bumper Flex (HD) Flex ID - Music ID (:14-:1                                                                          150                                
PRCFAMCHA141201233009233035000026Episodic Next Step (HD) 229 - New Episode Friday N                                                                          150                                
PGRFAMCHA141201233035235307002232Life with Derek                                   EP: 26                                                        C26822 1065607BCC                              
PROFAMCHA141201235307235422000115Jessie Aloha-Holidays (HD) Trailer - Special Ep Fr                                                                          150                                
PROFAMCHA141201235422235522000100Lego                                                                                                                        150                                
PGRFAMCHA141201235522235833000311MV Non Disney (HD) Monster High - We Are Monsters                                                                      10615120CC                              
PRCFAMCHA141201235833235903000030Episodic Star Wars Rebels (HD) 1-06 - New Episode                                                                           150                                
PRCFAMCHA141201235903235918000015Twistmas 2011 Bumpers (HD) Pudding (Dec9-Jan6)                                                                              150                                
PROFAMCHA141201235918000008000050Crayola                                                                                                                     150                                
PRCFAMCHA141201000008000034000026Episodic Next Step (HD) 229 - New Episode Friday N                                                                          150                                
PGRFAMCHA141201000034002310002236The Latest Buzz                                   EP: 22                                                        C30362 1065607BCC                              
PROFAMCHA141201002310002351000041Santa Buddies (HD) Saturday at Noon (Dec2014)                                                                               150                                
PRCFAMCHA141201002351002445000054Twistmas 2013 (HD) Mixed Talent Best Gift (Dec 19-                                                                          150                                
MVCFAMCHA141201002445002815000330MV Non Disney (HD) Victoria Duffield - Paper Plane                                                                     10615150CC                              
PRCFAMCHA141201002815002830000015Twistmas 2011 Bumpers (HD) Sky Diving (Dec9-Jan6)                                                                           150                                
PROFAMCHA141201002830002856000026D-JR OOB - Magical Holidays - Weeknights @ 6:30 (N                                                                          150                                
PRCFAMCHA141201002856002926000030Episodic Star Wars Rebels (HD) 1-06 - New Episode                                                                           150                                
PROFAMCHA141201002926002958000032Next Step Make A Scene Contest V2 (HD) No Contest                                                                           150                                
PRCFAMCHA141201002958003028000030Jessie Aloha-Holidays (HD) Parker&Joey Sell - Spec                                                                          150                                
PGRFAMCHA141201003028005258002230Wingin' It                                        EP: 01                                                        C35822 1065607ACD                              
PRCFAMCHA141201005258005324000026Episodic Next Step (HD) 229 - New Episode Friday N                                                                          150                                
PGRFAMCHA141201005324005646000322MV Non Disney (HD) Eleven Past One - Im Ready (Alb                                                                     10215120CC                              
PRCFAMCHA141201005646005714000028Family Bumper Flex (HD) Flex ID - Austin & Ally (F                                                                          150                                
PRCFAMCHA141201005714005727000013Jessie Aloha-Holidays (HD) Urgency - Special Ep Fr                                                                          150                                
PGRFAMCHA141201005727005956000229Short GF Mabel's Guide (HD) 11 To Colors (Apr18)                                                                       60688120CC                              
PRCFAMCHA141201005956010026000030Episodic Star Wars Rebels (HD) 1-06 - New Episode                                                                           150                                
PGRFAMCHA141201010026012256002230DEBRA!                                            EP: 02                                                        C35763 1065607ACD                              
PRCFAMCHA141201012256012312000016Family Bumper Flex (HD) Flex ID - Jessie ID (:15-:                                                                          150                                
PGRFAMCHA141201012312014613002301What's Up, Warthogs!                              EP: 06                                                        C32738 1065607BCC                              
PRCFAMCHA141201014613014628000015Family Bumper Flex (HD) Flex ID - Music ID (:14-:1                                                                          150                                
PGRFAMCHA141201014628020900002232Disney Wizards of Waverly Place                   EP: 12                                                               6068607BCC                              
PRCFAMCHA141201020900020917000017Family Bumper Flex (HD) Flex ID - ANT Farm (:16-:2                                                                          150                                
PGRFAMCHA141201020917023148002231Really Me                                         EP: 01                                                        B33828 1065607BCD                              
PRCFAMCHA141201023148023215000027Family Bumper Flex (HD) Flex ID - Austin & Ally (F                                                                          150                                
PGRFAMCHA141201023215025445002230Life with Derek                                   EP: 15                                                        C26679A1065607BCC                              
PRCFAMCHA141201025445025501000016Family Bumper Flex (HD) Flex ID - Jessie ID (:15-:                                                                          150                                
PGRFAMCHA141201025501031703002202Slugterra                                         EP: 14                                                        A33763 1065607ACC                              
PRCFAMCHA141201031703031718000015Family Bumper Flex (HD) Flex ID - Music ID (:14-:1                                                                          150                                
PGRFAMCHA141201031718033927002209What's Up, Warthogs!                              EP: 09                                                        B33327 1065607BCC                              
PRCFAMCHA141201033927033947000020Family Bumper Flex (HD) Flex ID - ANT Farm (:16-:2                                                                          150                                
PGRFAMCHA141201033947040222002235The Latest Buzz                                   EP: 16                                                        C30362 1065607BCC                              
PRCFAMCHA141201040222040253000031Family Bumper Flex (HD) Flex ID - Austin & Ally (F                                                                          150                                
PGRFAMCHA141201040253042523002230Life with Derek                                   EP: 26                                                        C26822 1065607BCC                              
PROFAMCHA141201042523042551000028IDDI (HD) Check Family.ca for showtimes (March2014                                                                          150                                
PGRFAMCHA141201042551042913000322MV Non Disney (HD) Eleven Past One - Im Ready (Alb                                                                     10615120CC                              
PRCFAMCHA141201042913042943000030Jessie Aloha-Holidays (HD) Announce - Special Ep F                                                                          150                                
PRCFAMCHA141201042943042959000016Family Bumper Flex (HD) Flex ID - Music ID (:14-:1                                                                          150                                
OFFFAMCHA141201042959043000000001OFF AIR                                                                                                                                                        
PGRFAMCHA141202043000045233002233DEBRA!                                            EP: 09                                                        C35763 1065607ACD                              
PRCFAMCHA141202045233045303000030Episodic Star Wars Rebels (HD) 1-06 - New Episode                                                                           150                                
PROFAMCHA141202045303045335000032Next Step Make A Scene Contest V2 (HD) No Contest                                                                           150                                
PRCFAMCHA141202045335045405000030Episodic Gaming Show (HD) 1-04 - New Episode Monda                                                                          150                                
PRCFAMCHA141202045405045435000030Web FOD 2014 Refresh (HD) Family.ca (Mar2014) (2-3                                                                          150                                
PRCFAMCHA141202045435045450000015Twistmas 2011 Bumpers (HD) Blackhole (Dec9-Jan6)                                                                            150                                
PROFAMCHA141202045450045605000115Jessie Aloha-Holidays (HD) Trailer - Special Ep Fr                                                                          150                                
PGRFAMCHA141202045605051837002232Really Me                                         EP: 02                                                        B33828 1065607BCD                              
PROFAMCHA141202051837051845000008D-JR Live Action ID - Stella & Sam - Coming Up (Ma                                                                          150                                
PROFAMCHA141202051845051910000025D-JR Live Action ID - #96 Piano (Sep2013)                                                                                   150                                
PROFAMCHA141202051910051936000026D-JR OOB - Magical Holidays - Weeknights @ 6:30 (N                                                                          150                                
PROFAMCHA141202051936052018000042D-JR Promo - Sofia The First - Get More Wknds @ 11                                                                          150                                
PROFAMCHA141202052018052043000025D-JR Live Action ID - #8 Reading Book/Quiet Time (                                                                          150                                
PROFAMCHA141202052043052051000008D-JR Live Action ID - Stella & Sam - Now (Mar2013)                                                                          150                                
PROFAMCHA141202052051052106000015D-JR - Daily ID - Tuesday (Feb2014)                                                                                         150                                
PGRFAMCHA141202052106054422002316Stella and Sam                                    EP: 04                                                        C32553 1065607ECD                              
PROFAMCHA141202054422054502000040D-JR Promo - Lalaloopsy - Family - New Episode Thi                                                                          150                                
PROFAMCHA141202054502054512000010D-JR - Hero Flex ID - Blue (:06-:10) (Feb2014)                                                                              150                                
PGRFAMCHA141202054512060744002232Justin Time                                       EP: 03                                                        C33667 1065607ECD                              
PROFAMCHA141202060744060752000008D-JR Live Action ID - Justin Time - Coming Up (Sep                                                                          150                                
