SO FAMCHA000901043000043011000011Sign On (oct 1)                                                                                                         06                                     
PROFAMCHA000901043011043016000005CC Disclaimer (oct) **DO NOT USE**                                                                                      06  150                                
PGRFAMCHA000901043016045416002400Hello Mrs. Cherrywinkle                           Can't Stop Dancing                                            B18883A1065607ACC                              
ID FAMCHA000901045416045423000007Generic ID - Whisper*                                                                                                   06  150                                
ID FAMCHA000901045423045440000017URL(1) - KIDS' GALLERY (Preschool ONLY)                                                                                 06  150                                
ID FAMCHA000901045440045500000020Morning block open play pen                                                                                             06  150                                
PROFAMCHA000901045500045505000005CC Disclaimer (oct) **DO NOT USE**                                                                                      06  150                                
PGRFAMCHA000901045505051915002410Busy World Of Richard Scarry; The                 Hat Pie/Hans The Dutch Plumber/Hilda's Romantic               B10189 1065607ECC                              
ID FAMCHA000901051915051925000010Generic ID - Family w/dog                                                                                               06  150                                
PROFAMCHA000901051925051940000015Doug (MARCH2001) - Today @ 4pm                                                                                          06  150                                
ID FAMCHA000901051940052000000020Morning block open play pen                                                                                             06  150                                
PROFAMCHA000901052000052005000005CC Disclaimer (oct) **DO NOT USE**                                                                                      06  150                                
PGRFAMCHA000901052005054438002433Amazing Animals                                   Prehistoric Animals                                                  60686110CC                              
ID FAMCHA000901054438054443000005Generic ID - Marbles                                                                                                    06  150                                
PRCFAMCHA000901054443054513000030Out of the Box (AUG2000) - Today @ 10:18am                                                                             106  150                                
PROFAMCHA000901054513054540000027Recess (MARCH2001) - Today @ 5pm                                                                                        06  150                                
ID FAMCHA000901054540054600000020Morning block open play pen                                                                                             06  150                                
PROFAMCHA000901054600054605000005CC Disclaimer (oct) **DO NOT USE**                                                                                      06  150                                
PGRFAMCHA000901054605061027002422Billy The Cat                                     Hubert & The Siamese Siren                                    B27645A1065607ECC                              
ID FAMCHA000901061027061032000005Generic ID - Marbles                                                                                                    06  150                                
ID FAMCHA000901061032061040000008URL(1) - NEWSLETTER                                                                                                     06  150                                
ID FAMCHA000901061040061100000020Morning block open play pen                                                                                             06  150                                
PROFAMCHA000901061100061105000005CC Disclaimer (oct) **DO NOT USE**                                                                                      06  150                                
PGRFAMCHA000901061105063436002331Little Lulu Show; The                             The Curse of the Thingamajig, House of Guest Blues            A20188A1055607ECC3                             
ID FAMCHA000901063436063446000010Generic ID - Pink inner tube                                                                                            06  150                                
PROFAMCHA000901063446063516000030New Adventures of WTP (MARCH2001) - Today @ 7:30am                                                                      06  150                                
PROFAMCHA000901063516063540000024ALF - Today @ Noon                                                                                                      06  150                                
ID FAMCHA000901063540063600000020Morning block open play pen                                                                                             06  150                                
PROFAMCHA000901063600063605000005CC Disclaimer (oct) **DO NOT USE**                                                                                      06  150                                
PGRFAMCHA000901063605070005002400Big Garage; The                                   Stop And Listen                                               P21466 1065607ECC                              
ID FAMCHA000901070005070010000005Generic ID - Bubbles*                                                                                                   06  150                                
PROFAMCHA000901070010070015000005CC Disclaimer (oct) **DO NOT USE**                                                                                      06  150                                
PGRFAMCHA000901070015072308002253Franklin                                          Franklin Says Sorry/Franklin & The Fire                       B13649 1065607ECC                              
ID FAMCHA000901072308072318000010Generic ID - confetti                                                                                                   06  150                                
PROFAMCHA000901072318072348000030Disney's One, Too - Today @ 4pm                                                                                         06  150                                
PROFAMCHA000901072348072418000030New Adventures of WTP (MARCH2001) - Coming Up                                                                           06  150                                
PRCFAMCHA000901072418072452000034Hoze Houndz (MARCH2001) - Weekends @ 7:00pm                                                                             06  150                                
PRCFAMCHA000901072452072522000030Funshine Tour - Generic Event Promo                                                                                    106 5150                                
PRCFAMCHA000901072522072602000040Funshine Tour - Location Spot #2-7 (AUG28-SEP04)                                                                       106 5150                                
INTFAMCHA000901072602072802000200Disney Circle Time - The Greedy Dog (anywhere but                                                                      60688120                                
PRCFAMCHA000901072802072832000030Out of the Box (AUG2000) - Today @ 10:18am                                                                             106  150                                
PROFAMCHA000901072832072856000024ALF - Today @ Noon                                                                                                      06  150                                
PRCFAMCHA000901072856072931000035Little Lulu (AUG2000) - Tonight @ 6pm                                                                                  106  150                                
PRCFAMCHA000901072931072940000009Morning Block menu background (flex time)                                                                               06  150                                
ID FAMCHA000901072940073000000020Morning block open play pen                                                                                             06  150                                
PROFAMCHA000901073000073005000005CC Disclaimer (oct) **DO NOT USE**                                                                                      06  150                                
PGRFAMCHA000901073005075323002318New Adventures of Winnie the Pooh; The            A Very, Very Large Animal/Fish Out Of...                             6028607ECC                              
ID FAMCHA000901075323075333000010Generic ID - soccer **DO NOT USE**                                                                                      06  150                                
PRCFAMCHA000901075333075403000030Out of the Box (AUG2000) - Today @ 10:18am                                                                             106  150                                
PROFAMCHA000901075403075433000030Lion King (AUG2000) - Tonight @ 6:30pm                                                                                 206  150                                
INTFAMCHA000901075433075817000344Music Break - Mary-Kate And Ashley Olsen                                                                               60686120                                
ID FAMCHA000901075817075824000007URL(1) - WHAT'S ON                                                                                                      06  150                                
PRCFAMCHA000901075824075859000035Little Lulu (AUG2000) - Tonight @ 6pm                                                                                  106  150                                
PROFAMCHA000901075859075929000030Pepper Ann (MARCH2001) - Today @ 4:30pm                                                                                 06  150                                
PRCFAMCHA000901075929075940000011Morning Block menu background (flex time)                                                                               06  150                                
ID FAMCHA000901075940080000000020Morning block open play pen                                                                                             06  150                                
PGRFAMCHA000901080000083024003024Art Attack                                        009/010                                                              60686110                                
ID FAMCHA000901083024083029000005Generic ID - Couch 2*                                                                                                   06  150                                
PROFAMCHA000901083029083034000005CC Disclaimer (oct) **DO NOT USE**                                                                                      06  150                                
PGRFAMCHA000901083034085334002300Disney Presents Bill Nye the Science Guy          Biodiversity                                                         60686110CC                              
ID FAMCHA000901085334085344000010Generic ID - Hula Hoop                                                                                                  06  150                                
PROFAMCHA000901085344085414000030Lion King (AUG2000) - Tonight @ 6:30pm                                                                                 206  150                                
PROFAMCHA000901085414085459000045PB&J Otter (MARCH2001) - Coming Up                                                                                     206  150                                
INTFAMCHA000901085459085830000331MV Disney - Baby Mine (ALISON KRAUSS)                                                                                  60688120                                
PRCFAMCHA000901085830085900000030Out of the Box (AUG2000) - Today @ 10:18am                                                                             106  150                                
PRCFAMCHA000901085900085930000030Franklin (MARCH2001) - Today @ 12:30pm                                                                                 106  150                                
PRCFAMCHA000901085930085940000010Morning Block menu background (flex time)                                                                               06  150                                
ID FAMCHA000901085940090000000020Morning block open play pen                                                                                             06  150                                
PROFAMCHA000901090000090005000005CC Disclaimer (oct) **DO NOT USE**                                                                                      06  150                                
PGRFAMCHA000901090005092226002221PB&J Otter                                        Nothin' But The Tooth/Special Delivery                              A6068607ECC                              
ID FAMCHA000901092226092231000005Generic ID - Couch 1*                                                                                                   06  150                                
PROFAMCHA000901092231092301000030Pepper Ann (MARCH2001) - Today @ 4:30pm                                                                                 06  150                                
PRCFAMCHA000901092301092336000035Little Lulu (AUG2000) - Tonight @ 6pm                                                                                  106  150                                
PRCFAMCHA000901092336092406000030Out of the Box (AUG2000) - Today @ 10:18am                                                                             106  150                                
PROFAMCHA000901092406092430000024ALF - Today @ Noon                                                                                                      06  150                                
PRCFAMCHA000901092430092440000010Morning Block menu background (flex time)                                                                               06  150                                
ID FAMCHA000901092440092500000020Morning block open play pen                                                                                             06  150                                
PROFAMCHA000901092500092505000005CC Disclaimer (oct) **DO NOT USE**                                                                                      06  150                                
PGRFAMCHA000901092505094915002410Busy World Of Richard Scarry; The                 A Big Operation/Cucumber, The African Photographer            B10190 1065607ECC                              
ID FAMCHA000901094915094925000010Generic ID - Hula Hoop                                                                                                  06  150                                
PRCFAMCHA000901094925094955000030Franklin (MARCH2001) - Today @ 12:30pm                                                                                 106  150                                
PRCFAMCHA000901094955095025000030Madeline (AUG2000) - Coming Up                                                                                         106  150                                
INTFAMCHA000901095025095200000135Big Garage, "stop" - Lickety Split                                                                              P21477 10656120                                
PROFAMCHA000901095200095230000030Disney's One, Too - Today @ 4pm                                                                                         06  150                                
PRCFAMCHA000901095230095240000010Morning Block menu background (flex time)                                                                               06  150                                
ID FAMCHA000901095240095300000020Morning block open play pen                                                                                             06  150                                
PROFAMCHA000901095300095305000005CC Disclaimer (oct) **DO NOT USE**                                                                                      06  150                                
PGRFAMCHA000901095305101541002236Madeline                                          Madeline's at the Cooking School                                     6068607E                                
ID FAMCHA000901101541101551000010Generic ID - Pink inner tube                                                                                            06  150                                
PROFAMCHA000901101551101615000024ALF - Today @ Noon                                                                                                      06  150                                
PRCFAMCHA000901101615101645000030Out of the Box (AUG2000) - Coming Up                                                                                   106  150                                
ID FAMCHA000901101645101655000010URL(1) - FAMILIES                                                                                                       06  150                                
PRCFAMCHA000901101655101730000035Little Lulu (AUG2000) - Tonight @ 6pm                                                                                  106  150                                
PRCFAMCHA000901101730101740000010Morning Block menu background (flex time)                                                                               06  150                                
ID FAMCHA000901101740101800000020Morning block open play pen                                                                                             06  150                                
PROFAMCHA000901101800101805000005CC Disclaimer (oct) **DO NOT USE**                                                                                      06  150                                
PGRFAMCHA000901101805104008002203Out of the Box                                    Sticky Icky                                                          60686110CC                              
ID FAMCHA000901104008104018000010Generic ID - Bubbles                                                                                                    06  150                                
PRCFAMCHA000901104018104048000030Franklin (MARCH2001) - Today @ 12:30pm                                                                                 106  150                                
PROFAMCHA000901104048104103000015Doug (MARCH2001) - Today @ 4pm                                                                                          06  150                                
INTFAMCHA00090110410310420300010060 Seconds of Science - Time(13) (anywhere but D12                                                                     60688120                                
PROFAMCHA000901104203104230000027Recess (MARCH2001) - Today @ 5pm                                                                                        06  150                                
PRCFAMCHA000901104230104240000010Morning Block menu background (flex time)                                                                               06  150                                
ID FAMCHA000901104240104300000020Morning block open play pen                                                                                             06  150                                
PROFAMCHA000901104300104305000005CC Disclaimer (oct) **DO NOT USE**                                                                                      06  150                                
PGRFAMCHA000901104305110724002419Billy The Cat                                     A Star Is Born                                                B27646A1065607ECC                              
ID FAMCHA000901110724110729000005Generic ID - Couch 1*                                                                                                   06  150                                
PROFAMCHA000901110729110753000024ALF - Today @ Noon                                                                                                      06  150                                
PRCFAMCHA000901110753110829000036Goof Troop (MARCH2001) - Coming Up                                                                                      06  150                                
ID FAMCHA000901110829110841000012URL(1) - MINI SITES                                                                                                     06  150                                
PROFAMCHA000901110841110911000030Pepper Ann (MARCH2001) - Today @ 4:30pm                                                                                 06  150                                
PROFAMCHA000901110911110941000030Lion King (AUG2000) - Tonight @ 6:30pm                                                                                 206  150                                
PRCFAMCHA000901110941110950000009Morning Block menu background (flex time)                                                                               06  150                                
ID FAMCHA000901110950111000000010xxMagic of Disney - V2(sky) - KID FEMALE                                                                                06  150                                
PROFAMCHA000901111000111005000005CC Disclaimer (oct) **DO NOT USE**                                                                                      06  150                                
PGRFAMCHA000901111005113253002248Goof Troop                                        Good Neighbour Goof                                                  6068607ECC                              
ID FAMCHA000901113253113308000015Generic ID - confetti                                                                                                   06  150                                
PROFAMCHA000901113308113335000027Recess (MARCH2001) - Today @ 5pm                                                                                        06  150                                
PRCFAMCHA000901113335113410000035Little Lulu (AUG2000) - Tonight @ 6pm                                                                                  106  150                                
PROFAMCHA000901113410113440000030New Adventures of WTP (MARCH2001) - Weekdays @ 7:3                                                                      06  150                                
PRCFAMCHA000901113440113450000010Morning Block menu background (flex time)                                                                               06  150                                
ID FAMCHA000901113450113500000010xxMagic of Disney - V3(water) - KID MALE                                                                                06  150                                
PROFAMCHA000901113500113505000005CC Disclaimer (oct) **DO NOT USE**                                                                                      06  150                                
PGRFAMCHA000901113505115741002236Disney's Aladdin                                  Some Enchanted Genie                                                 6068607ECC                              
ID FAMCHA000901115741115751000010Generic ID - Family w/dog                                                                                               06  150                                
PROFAMCHA000901115751115836000045Adventures of Tom & Huck - Sunday @ 9pm                                                                                 06  150                                
PROFAMCHA000901115836115900000024ALF - Coming Up                                                                                                         06  150                                
PROFAMCHA000901115900115915000015Doug (MARCH2001) - Today @ 4pm                                                                                          06  150                                
PROFAMCHA000901115915115945000030Miracle In Lane 2 (SEP2) - Saturday @ 9pm                                                                               06  150                                
ID FAMCHA000901115945120000000015Afternoon block pinball open **DO NOT USE**                                                                             06  150                                
PROFAMCHA000901120000120005000005CC Disclaimer (oct) **DO NOT USE**                                                                                      06  150                                
PGRFAMCHA000901120005122133002128ALF                                               I've Got A New Attitude                                             A2028807BCC                              
ID FAMCHA000901122133122143000010Generic ID - soccer **DO NOT USE**                                                                                      06  150                                
PROFAMCHA000901122143122213000030Miracle In Lane 2 (SEP2) - Saturday @ 9pm                                                                               06  150                                
PRCFAMCHA000901122213122243000030Franklin (MARCH2001) - Coming Up                                                                                       106  150                                
PROFAMCHA000901122243122313000030SFSJ Lee Event Promo - Monday starting at 6:30pm (                                                                      06  150                                
ID FAMCHA000901122313122323000010URL(1) - FAMILIES                                                                                                       06  150                                
PROFAMCHA000901122323122353000030Lion King (AUG2000) - Tonight @ 6:30pm                                                                                 206  150                                
INTFAMCHA000901122353122830000437MV Disney - Go The Distance (MICHAEL BOLTON)                                                                           60688120                                
PROFAMCHA000901122830122850000020Fam Jam Promo (rpt) - Monday, starting @ 6:30pm                                                                         06  150                                
PROFAMCHA000901122850122935000045Adventures of Tom & Huck - Sunday @ 9pm                                                                                 06  150                                
PRCFAMCHA000901122935122945000010Morning Block menu background (flex time)                                                                               06  150                                
ID FAMCHA000901122945123000000015Afternoon block pinball open **DO NOT USE**                                                                             06  150                                
PROFAMCHA000901123000123005000005CC Disclaimer (oct) **DO NOT USE**                                                                                      06  150                                
PGRFAMCHA000901123005125258002253Franklin                                          Franklin and the Trooper/Franklin's Fossil                    P02772A1065607ECC                              
ID FAMCHA000901125258125308000010Generic ID - Bubbles                                                                                                    06  150                                
PROFAMCHA000901125308125338000030New Adventures of WTP (MARCH2001) - Weekdays @ 7:3                                                                      06  150                                
PROFAMCHA000901125338125423000045PB&J Otter (MARCH2001) - Coming Up                                                                                     206  150                                
PRCFAMCHA000901125423125453000030Out of the Box (AUG2000) - Today @ 2:18pm                                                                              106  150                                
INTFAMCHA000901125453125742000249MV Disney - Never Alone (TYLER COLLINS)                                                                                60688120                                
PRCFAMCHA000901125742125812000030Funshine Tour - Generic Event Promo                                                                                    106 5150                                
PRCFAMCHA000901125812125852000040Funshine Tour - Location Spot #2-7 (AUG28-SEP04)                                                                       106 5150                                
ID FAMCHA000901125852125905000013URL(2) - HAPPY BIRTHDAY (as of JUL 01)                                                                                  06  150                                
PROFAMCHA000901125905125935000030Disney's One, Too - Today @ 4pm                                                                                         06  150                                
PRCFAMCHA000901125935125945000010Morning Block menu background (flex time)                                                                               06  150                                
ID FAMCHA000901125945130000000015Afternoon block pinball open **DO NOT USE**                                                                             06  150                                
PROFAMCHA000901130000130005000005CC Disclaimer (oct) **DO NOT USE**                                                                                      06  150                                
PGRFAMCHA000901130005132226002221PB&J Otter                                        Soap Box Derby Day/Howdy Hoohaw Day                                 A6068607ECC                              
ID FAMCHA000901132226132236000010Generic ID - confetti                                                                                                   06  150                                
PROFAMCHA000901132236132300000024ALF - Tonight @ 7:30pm                                                                                                  06  150                                
PRCFAMCHA000901132300132330000030Out of the Box (AUG2000) - Today @ 2:18pm                                                                              106  150                                
PROFAMCHA000901132330132415000045Do The Tour Contest - Sunday @ 7:30pm                                                                                  106 5150                                
PROFAMCHA000901132415132445000030Disney's One, Too - Today @ 4pm                                                                                         06  150                                
ID FAMCHA000901132445132500000015Afternoon block pinball open **DO NOT USE**                                                                             06  150                                
PROFAMCHA000901132500132505000005CC Disclaimer (oct) **DO NOT USE**                                                                                      06  150                                
PGRFAMCHA000901132505134915002410Busy World Of Richard Scarry; The                 Sgt. Murphy's Day Off/Schmudge, The German Chimney            B10191 1065607ECC                              
ID FAMCHA000901134915134925000010Generic ID - Pink inner tube                                                                                            06  150                                
PRCFAMCHA000901134925134955000030Out of the Box (AUG2000) - Today @ 2:18pm                                                                              106  150                                
PRCFAMCHA000901134955135025000030Madeline (AUG2000) - Coming Up                                                                                         106  150                                
PRCFAMCHA000901135025135100000035Little Lulu (AUG2000) - Tonight @ 6pm                                                                                  106  150                                
PROFAMCHA000901135100135145000045Do The Tour Contest - Sunday @ 7:30pm                                                                                  106 5150                                
PROFAMCHA000901135145135215000030Lion King (AUG2000) - Tonight @ 6:30pm                                                                                 206  150                                
PROFAMCHA000901135215135245000030New Adventures of WTP (MARCH2001) - Weekdays @ 7:3                                                                      06  150                                
ID FAMCHA000901135245135300000015Afternoon block pinball open **DO NOT USE**                                                                             06  150                                
PROFAMCHA000901135300135305000005CC Disclaimer (oct) **DO NOT USE**                                                                                      06  150                                
PGRFAMCHA000901135305141541002236Madeline                                          Madeline and the Ballet                                              6068607E                                
ID FAMCHA000901141541141551000010Generic ID - Hula Hoop                                                                                                  06  150                                
PROFAMCHA000901141551141615000024ALF - Tonight @ 7:30pm                                                                                                  06  150                                
PRCFAMCHA000901141615141645000030Out of the Box (AUG2000) - Coming Up                                                                                   106  150                                
PRCFAMCHA000901141645141720000035Little Lulu (AUG2000) - Tonight @ 6pm                                                                                  106  150                                
PROFAMCHA000901141720141735000015Doug (MARCH2001) - Today @ 4pm                                                                                          06  150                                
PRCFAMCHA000901141735141745000010Morning Block menu background (flex time)                                                                               06  150                                
ID FAMCHA000901141745141800000015Afternoon block pinball open **DO NOT USE**                                                                             06  150                                
PGRFAMCHA000901141800144010002210Out of the Box                                    Really Wheely                                                        60686110                                
ID FAMCHA000901144010144015000005Generic ID - Couch 2*                                                                                                   06  150                                
PROFAMCHA000901144015144045000030Mickey Mouseworks - Weekends @ 4:30pm                                                                                   06  150                                
PROFAMCHA000901144045144115000030Lion King (AUG2000) - Tonight @ 6:30pm                                                                                 206  150                                
PRCFAMCHA000901144115144150000035Little Lulu (AUG2000) - Tonight @ 6pm                                                                                  106  150                                
PRCFAMCHA000901144150144224000034Hoze Houndz (MARCH2001) - Weekends @ 7:00pm                                                                             06  150                                
PROFAMCHA000901144224144245000021Recess (MARCH2001) - Today @ 5pm                                                                                        06  150                                
ID FAMCHA000901144245144300000015Afternoon block pinball open **DO NOT USE**                                                                             06  150                                
PROFAMCHA000901144300144305000005CC Disclaimer (oct) **DO NOT USE**                                                                                      06  150                                
PGRFAMCHA000901144305150732002427Billy The Cat                                     A Clockwork Bone                                              B27647A1065607ECC                              
ID FAMCHA000901150732150742000010Generic ID - Pink inner tube                                                                                            06  150                                
PROFAMCHA000901150742150812000030New Adventures of WTP (MARCH2001) - Weekdays @ 7:3                                                                      06  150                                
PRCFAMCHA000901150812150847000035Little Lulu (AUG2000) - Tonight @ 6pm                                                                                  106  150                                
PROFAMCHA000901150847150911000024ALF - Tonight @ 7:30pm                                                                                                  06  150                                
PROFAMCHA000901150911150941000030Mickey Mouseworks - Weekends @ 4:30pm                                                                                   06  150                                
PRCFAMCHA000901150941150950000009Morning Block menu background (flex time)                                                                               06  150                                
ID FAMCHA000901150950151000000010xxMagic of Disney - V3(water) - TEEN MALE                                                                               06  150                                
PROFAMCHA000901151000151005000005CC Disclaimer (oct) **DO NOT USE**                                                                                      06  150                                
PGRFAMCHA000901151005153253002248Goof Troop                                        Goodbye, Mr. Goofy                                                   6068607ECC                              
ID FAMCHA000901153253153300000007Generic ID - Whisper*                                                                                                   06  150                                
PROFAMCHA000901153300153330000030SFSJ Lee Event Promo - Monday starting at 6:30pm (                                                                      06  150                                
PROFAMCHA000901153330153400000030Z Games - Weekends @ 10am                                                                                               06  150                                
PROFAMCHA000901153400153420000020Fam Jam Promo (rpt) - Monday, starting @ 6:30pm                                                                         06  150                                
PROFAMCHA000901153420153450000030Miracle In Lane 2 (SEP2) - Saturday @ 9pm                                                                               06  150                                
ID FAMCHA000901153450153500000010xxMagic of Disney - V4 - TEEN FEMALE                                                                                    06  150                                
PROFAMCHA000901153500153505000005CC Disclaimer (oct) **DO NOT USE**                                                                                      06  150                                
PGRFAMCHA000901153505155741002236Disney's Aladdin                                  Shadow Of A Doubt                                                    6068607ECC                              
ID FAMCHA000901155741155751000010Generic ID - Family w/dog                                                                                               06  150                                
PROFAMCHA000901155751155821000030Miracle In Lane 2 (SEP2) - Saturday @ 9pm                                                                               06  150                                
PROFAMCHA000901155821155851000030Disney's One, Too - Coming Up                                                                                           06  150                                
PROFAMCHA000901155851155936000045Do The Tour Contest - Sunday @ 7:30pm                                                                                  106 5150                                
PRCFAMCHA000901155936155945000009Morning Block menu background (flex time)                                                                               06  150                                
ID FAMCHA000901155945160000000015Afternoon block pinball open **DO NOT USE**                                                                             06  150                                
PROFAMCHA000901160000160030000030Disney's One Too - Opening                                                                                              06  150                                
PGRFAMCHA000901160030162300002230Disney's Doug                                     Doug's Hoop Nightmare                                                6068607E                                
ID FAMCHA000901162300162310000010Generic ID - Hula Hoop                                                                                                  06  150                                
PROFAMCHA000901162310162355000045Adventures of Tom & Huck - Sunday @ 9pm                                                                                 06  150                                
PROFAMCHA000901162355162425000030Pepper Ann (MARCH2001) - Coming Up                                                                                      06  150                                
PROFAMCHA000901162425162501000036Honey (New Eps) - Tonight @ 8pm                                                                                         06  150                                
PRCFAMCHA000901162501162531000030Funshine Tour - Generic Event Promo                                                                                    106 5150                                
PRCFAMCHA000901162531162611000040Funshine Tour - Location Spot #2-7 (AUG28-SEP04)                                                                       106 5150                                
INTFAMCHA000901162611162811000200MV Disney - I'm Gonna Fly                                                                                              60688120                                
PROFAMCHA000901162811162841000030Jersey - Weekends @ 9am                                                                                                 06  150                                
PROFAMCHA000901162841162905000024ALF - Tonight @ 7:30pm                                                                                                  06  150                                
PROFAMCHA000901162905162935000030Miracle In Lane 2 (SEP2) - Saturday @ 9pm                                                                               06  150                                
PRCFAMCHA000901162935162945000010Morning Block menu background (flex time)                                                                               06  150                                
ID FAMCHA000901162945163000000015Afternoon block pinball open **DO NOT USE**                                                                             06  150                                
PROFAMCHA000901163000163030000030Disney's One Too - Opening                                                                                              06  150                                
PROFAMCHA000901163030163035000005CC Disclaimer (oct) **DO NOT USE**                                                                                      06  150                                
PGRFAMCHA000901163035165308002233Disney's Pepper Ann                               Amazing Becky Little                                                 6028607ECC                              
ID FAMCHA000901165308165313000005Generic ID - Couch 2*                                                                                                   06  150                                
PROFAMCHA000901165313165343000030Miracle In Lane 2 (SEP2) - Saturday @ 9pm                                                                               06  150                                
PROFAMCHA000901165343165404000021Recess (MARCH2001) - Coming Up                                                                                          06  150                                
PROFAMCHA000901165404165434000030SFSJ Lee Event Promo - Monday starting at 6:30pm (                                                                      06  150                                
PRCFAMCHA000901165434165514000040Famous Jett Jackson - Saturday @ 8:30pm                                                                                106  150                                
INTFAMCHA000901165514165535000021Recess Sketches - Mickey's World Record - Mouth St                                                                     60686120                                
PROFAMCHA000901165535165555000020Fam Jam Promo (rpt) - Monday, starting @ 6:30pm                                                                         06  150                                
INTFAMCHA000901165555165625000030Disney Magic Drawings(08)- Pluto (D12 only)                                                                            60686120                                
PROFAMCHA000901165625165655000030Z Games - Weekends @ 10am                                                                                               06  150                                
INTFAMCHA000901165655165716000021Recess Sketches - The Assignment - Moon Rocks                                                                          60686120                                
PRCFAMCHA000901165716165757000041Gargoyles (AUG2000) - Tonight @ 7pm                                                                                     06  150                                
INTFAMCHA000901165757165818000021Recess Sketches - Cajoling Gus - Salad Gus                                                                             60686120                                
PRCFAMCHA000901165818165848000030Are You Afraid of the Dark?(AUG)- Tonight @ 12:30a                                                                      06  150                                
PROFAMCHA000901165848165933000045Adventures of Tom & Huck - Sunday @ 9pm                                                                                 06  150                                
PRCFAMCHA000901165933165945000012Morning Block menu background (flex time)                                                                               06  150                                
ID FAMCHA000901165945170000000015Afternoon block pinball open **DO NOT USE**                                                                             06  150                                
PROFAMCHA000901170000170030000030Disney's One Too - Opening                                                                                              06  150                                
PGRFAMCHA000901170030172304002234Disney's Recess                                   My Fair Gretchen/Speedy, We Hardly Knew Ya                           6068607E                                
ID FAMCHA000901172304172311000007Generic ID - Whisper*                                                                                                   06  150                                
PROFAMCHA000901172311172356000045Adventures of Tom & Huck - Sunday @ 9pm                                                                                 06  150                                
PROFAMCHA000901172356172418000022Hercules - Next (oct 1)*                                                                                                06  150                                
PROFAMCHA000901172418172448000030SFSJ Lee Event Promo - Monday starting at 6:30pm (                                                                      06  150                                
PRCFAMCHA000901172448172529000041Gargoyles (AUG2000) - Tonight @ 7pm                                                                                     06  150                                
PROFAMCHA000901172529172559000030Jersey - Weekends @ 9am                                                                                                 06  150                                
PROFAMCHA000901172559172644000045Do The Tour Contest - Sunday @ 7:30pm                                                                                  106 5150                                
INTFAMCHA000901172644172814000130Disney Moments - Three Little Pigs:House Of Bricks                                                                     60688120                                
PROFAMCHA000901172814172844000030Z Games - Weekends @ 10am                                                                                               06  150                                
PROFAMCHA000901172844172904000020Fam Jam Promo (rpt) - Monday, starting @ 6:30pm                                                                         06  150                                
PROFAMCHA000901172904172934000030Miracle In Lane 2 (SEP2) - Saturday @ 9pm                                                                               06  150                                
PRCFAMCHA000901172934172945000011Morning Block menu background (flex time)                                                                               06  150                                
ID FAMCHA000901172945173000000015Afternoon block pinball open **DO NOT USE**                                                                             06  150                                
PROFAMCHA000901173000173030000030Disney's One Too - Opening                                                                                              06  150                                
PGRFAMCHA000901173030175326002256Disney's Hercules                                 Hercules And The Green Eyed Monster                                  6068607ECC                              
ID FAMCHA000901175326175336000010Generic ID - Family w/dog                                                                                               06  150                                
PROFAMCHA000901175336175406000030Miracle In Lane 2 (SEP2) - Saturday @ 9pm                                                                               06  150                                
PRCFAMCHA000901175406175441000035Little Lulu (AUG2000) - Coming Up                                                                                      106  150                                
PROFAMCHA000901175441175505000024ALF - Tonight @ 7:30pm                                                                                                  06  150                                
INTFAMCHA000901175505175624000119Monkey Minutes - Forrest Gump                                                                                         A20688120                                
PRCFAMCHA000901175624175654000030Funshine Tour - Generic Event Promo                                                                                    106 5150                                
PRCFAMCHA000901175654175734000040Funshine Tour - Location Spot #2-7 (AUG28-SEP04)                                                                       106 5150                                
PRCFAMCHA000901175734175808000034Hoze Houndz (MARCH2001) - Weekends @ 7:00pm                                                                             06  150                                
PROFAMCHA000901175808175844000036Honey (New Eps) - Tonight @ 8pm                                                                                         06  150                                
PROFAMCHA000901175844175929000045Adventures of Tom & Huck - Sunday @ 9pm                                                                                 06  150                                
PRCFAMCHA000901175929175939000010Morning Block menu background (flex time)                                                                               06  150                                
ID FAMCHA000901175939180000000021Prime time open count down                                                                                              06  150                                
PROFAMCHA000901180000180005000005CC Disclaimer (oct) **DO NOT USE**                                                                                      06  150                                
PGRFAMCHA000901180005182337002332Little Lulu Show; The                             Dancin' Fol, Hop Hazzard, Satge Fright                        A20202A1055607ECC3                             
ID FAMCHA000901182337182347000010Generic ID - Family w/dog                                                                                               06  150                                
PROFAMCHA000901182347182432000045Adventures of Tom & Huck - Sunday @ 9pm                                                                                 06  150                                
PROFAMCHA000901182432182502000030SFSJ Lee Event Promo - Monday starting at 6:30pm (                                                                      06  150                                
PROFAMCHA000901182502182532000030Jersey - Weekends @ 9am                                                                                                 06  150                                
INTFAMCHA000901182532182821000249MV Disney - Never Alone (TYLER COLLINS)                                                                                60688120                                
PROFAMCHA000901182821182851000030Your Big Break - Sunday @ 11am                                                                                          06  150                                
PROFAMCHA000901182851182911000020Fam Jam Promo (rpt) - Monday, starting @ 6:30pm                                                                         06  150                                
PROFAMCHA000901182911182941000030Miracle In Lane 2 (SEP2) - Saturday @ 9pm                                                                               06  150                                
PRCFAMCHA000901182941182950000009Morning Block menu background (flex time)                                                                               06  150                                
ID FAMCHA000901182950183000000010xxMagic of Disney - V4 - TEEN FEMALE                                                                                    06  150                                
PROFAMCHA000901183000183005000005CC Disclaimer (oct) **DO NOT USE**                                                                                      06  150                                
PGRFAMCHA000901183005185245002240Lion King's Timon & Pumbaa; The                   Timon's Time Togo/Law of the Jungle                                  6068607ECC                              
ID FAMCHA000901185245185255000010Generic ID - confetti                                                                                                   06  150                                
PROFAMCHA000901185255185340000045Adventures of Tom & Huck - Sunday @ 9pm                                                                                 06  150                                
PROFAMCHA000901185340185410000030Lion King (AUG2000) - Tonight @ 6:30pm                                                                                 206  150                                
ID FAMCHA000901185410185418000008URL(1) - NEWSLETTER                                                                                                     06  150                                
PRCFAMCHA000901185418185448000030Funshine Tour - Generic Event Promo                                                                                    106 5150                                
PRCFAMCHA000901185448185528000040Funshine Tour - Location Spot #2-7 (AUG28-SEP04)                                                                       106 5150                                
INTFAMCHA000901185528185835000307MV Disney - Part Of Your World (JODI BENSON)                                                                           60688120                                
PROFAMCHA000901185835185859000024ALF - Tonight @ 7:30pm                                                                                                  06  150                                
PROFAMCHA000901185859185929000030Miracle In Lane 2 (SEP2) - Saturday @ 9pm                                                                               06  150                                
PRCFAMCHA000901185929185939000010Morning Block menu background (flex time)                                                                               06  150                                
ID FAMCHA000901185939190000000021Prime time open count down                                                                                              06  150                                
PGRFAMCHA000901190000192250002250Gargoyles                                         I'll Meet By Moonlight                                               6068607E                                
ID FAMCHA000901192250192300000010Generic ID - Family w/dog                                                                                               06  150                                
PROFAMCHA000901192300192330000030Miracle In Lane 2 (SEP2) - Saturday @ 9pm                                                                               06  150                                
PROFAMCHA000901192330192354000024ALF - Coming Up                                                                                                         06  150                                
PROFAMCHA000901192354192424000030SFSJ Lee Event Promo - Monday starting at 6:30pm (                                                                      06  150                                
PROFAMCHA000901192424192504000040Fall Promos - 2 Hour Tour - This Fall                                                                                   06  150                                
INTFAMCHA000901192504192708000204MV Disney - You've Got A Friend In Me (RANDY NEWMA                                                                     60688120                                
PROFAMCHA000901192708192738000030Your Big Break - Sunday @ 11am                                                                                          06  150                                
PROFAMCHA000901192738192758000020Fam Jam Promo (rpt) - Monday, starting @ 6:30pm                                                                         06  150                                
PROFAMCHA000901192758192843000045Do The Tour Contest - Sunday @ 7:30pm                                                                                  106 5150                                
PROFAMCHA000901192843192928000045Adventures of Tom & Huck - Sunday @ 9pm                                                                                 06  150                                
PRCFAMCHA000901192928192939000011Morning Block menu background (flex time)                                                                               06  150                                
ID FAMCHA000901192939193000000021Prime time open count down                                                                                              06  150                                
PROFAMCHA000901193000193005000005CC Disclaimer (oct) **DO NOT USE**                                                                                      06  150                                
PGRFAMCHA000901193005195133002128ALF                                                                                                                   A2068807BCC                              
ID FAMCHA000901195133195138000005Generic ID - Couch 2*                                                                                                   06  150                                
PROFAMCHA000901195138195223000045Adventures of Tom & Huck - Sunday @ 9pm                                                                                 06  150                                
PROFAMCHA000901195223195253000030SFSJ Lee Event Promo - Monday starting at 6:30pm (                                                                      06  150                                
PROFAMCHA000901195253195329000036Honey (New Eps) - Tonight @ 8pm                                                                                         06  150                                
PRCFAMCHA000901195329195359000030Are You Afraid of the Dark?(AUG)- Tonight @ 12:30a                                                                      06  150                                
INTFAMCHA000901195359195655000256MV Disney - Strangers Like Me (PHIL COLLINS)                                                                           60688120                                
PROFAMCHA000901195655195740000045Do The Tour Contest - Sunday @ 7:30pm                                                                                  106 5150                                
PRCFAMCHA000901195740195820000040Famous Jett Jackson - Weekends @ 9:30am                                                                                106  150                                
PROFAMCHA000901195820195850000030Jersey - Weekends @ 9am                                                                                                 06  150                                
PROFAMCHA000901195850195910000020Fam Jam Promo (rpt) - Monday, starting @ 6:30pm                                                                         06  150                                
PROFAMCHA000901195910195940000030Miracle In Lane 2 (SEP2) - Saturday @ 9pm                                                                               06  150                                
PRCFAMCHA000901195940195950000010Morning Block menu background (flex time)                                                                               06  150                                
ID FAMCHA000901195950200000000010xxMagic of Disney - V4 - ADULT MALE                                                                                     06  150                                
PROFAMCHA000901200000200005000005CC Disclaimer (oct) **DO NOT USE**                                                                                      06  150                                
PGRFAMCHA000901200005204341004336Disney's Honey, I Shrunk The Kids: The TV Show    I'm On The Lam                                                       6028807BCC                              
ID FAMCHA000901204341204346000005Generic ID - Couch 2*                                                                                                   06  150                                
PROFAMCHA000901204346204416000030Miracle In Lane 2 (SEP2) - Saturday @ 9pm                                                                               06  150                                
PROFAMCHA000901204416204446000030Lion King (AUG2000) - Weekdays @ 6:30pm                                                                                206  150                                
PROFAMCHA000901204446204516000030SFSJ Lee Event Promo - Monday starting at 6:30pm (                                                                      06  150                                
INTFAMCHA000901204516204915000359MV Disney - Can You Feel The Love Tonight? (ELTON                                                                      60688120                                
PROFAMCHA000901204915204939000024ALF - Tonight @ Midnight                                                                                                06  150                                
PROFAMCHA000901204939205003000024So Weird (AUG2000) - Sunday @ 8pm**DO NOT USE**                                                                         06  150                                
PROFAMCHA000901205003205013000010MV FAMJAM - Teaser (Generic)                                                                                           606 5150                                
PRCFAMCHA000901205013205043000030Are You Afraid of the Dark?(AUG)- Tonight @ 12:30a                                                                      06  150                                
PRCFAMCHA000901205043205113000030Funshine Tour - Generic Event Promo                                                                                    106 5150                                
PRCFAMCHA000901205113205153000040Funshine Tour - Location Spot #2-7 (AUG28-SEP04)                                                                       106 5150                                
INTFAMCHA000901205153205605000412MV - Oops!...I Did It Again                                                                                           A20688120                                
PROFAMCHA000901205605205650000045Do The Tour Contest - Sunday @ 7:30pm                                                                                  106 5150                                
PROFAMCHA000901205650205730000040Fall Promos - 2 Hour Tour - This Fall                                                                                   06  150                                
PRCFAMCHA000901205730205810000040Famous Jett Jackson - Saturday @ 8:30pm                                                                                106  150                                
PROFAMCHA000901205810205830000020Fam Jam Promo (rpt) - Monday, starting @ 6:30pm                                                                         06  150                                
PROFAMCHA000901205830205845000015Doug (MARCH2001) - Today @ 4pm                                                                                          06  150                                
PROFAMCHA000901205845205930000045Adventures of Tom & Huck - Sunday @ 9pm                                                                                 06  150                                
PRCFAMCHA000901205930205939000009Morning Block menu background (flex time)                                                                               06  150                                
ID FAMCHA000901205939210000000021Move open family size movie                                                                                             06  150                                
PROFAMCHA000901210000210007000007Rating - G (oct )                                                                                                       06  150                                
PGRFAMCHA000901210007224204014157Adventures of Robin Hood; The                                                                                         A2028807D                                
ID FAMCHA000901224204224214000010Generic ID - Family w/dog                                                                                               06  150                                
PROFAMCHA000901224214224259000045Adventures of Tom & Huck - Sunday @ 9pm                                                                                 06  150                                
PROFAMCHA000901224259224323000024ALF - Tonight @ Midnight                                                                                                06  150                                
ID FAMCHA000901224323224330000007URL(1) - WHAT'S ON                                                                                                      06  150                                
PRCFAMCHA000901224330224400000030Are You Afraid of the Dark?(AUG)- Tonight @ 12:30a                                                                      06  150                                
PROFAMCHA000901224400224430000030Miracle In Lane 2 (SEP2) - Saturday @ 9pm                                                                               06  150                                
PRCFAMCHA000901224430224439000009Morning Block menu background (flex time)                                                                               06  150                                
ID FAMCHA000901224439224500000021Move open family size movie                                                                                             06  150                                
PROFAMCHA000901224500224507000007Rating - G (oct )                                                                                                       06  150                                
PROFAMCHA000901224507224512000005CC Disclaimer (oct) **DO NOT USE**                                                                                      06  150                                
ID FAMCHA000901224512224522000010xxMagic of Disney - V2(sky) - ADULT MALE                                                                                06  150                                
PGRFAMCHA000901224522001342012820Now You See Him, Now You Don't                                                                                        A6068807DCC                              
ID FAMCHA000901001342001347000005Generic ID - Bubbles*                                                                                                   06  150                                
PROFAMCHA000901001347001352000005CC Disclaimer (oct) **DO NOT USE**                                                                                      06  150                                
PGRFAMCHA000901001352003520002128ALF                                                                                                                   A2068807BCC                              
ID FAMCHA000901003520003525000005Generic ID - Couch 2*                                                                                                   06  150                                
PROFAMCHA000901003525003530000005CC Disclaimer (oct) **DO NOT USE**                                                                                      06  150                                
PGRFAMCHA000901003530005854002324Are You Afraid Of The Dark?                       The Tale of the Forever Game                                  SR0307 1066807ACC                              
ID FAMCHA000901005854005859000005Generic ID - Couch 2*                                                                                                   06  150                                
PROFAMCHA000901005859005929000030Miracle In Lane 2 (SEP2) - Saturday @ 9pm                                                                               06  150                                
PRCFAMCHA000901005929010010000041Gargoyles (AUG2000) - Weeknights @ 7pm                                                                                  06  150                                
ID FAMCHA000901010010010017000007URL(1) - FUNSTUFF                                                                                                       06  150                                
INTFAMCHA000901010017010200000143MV Disney - Siamese Cat Song                                                                                           60688120                                
SO FAMCHA000901010200010212000012Sign Off (oct 1)                                                                                                        06                                     
OFFFAMCHA000901010212043000032748                                                                                                                                                               
SO FAMCHA000902043000043011000011Sign On (oct 1)                                                                                                         06                                     
PROFAMCHA000902043011043016000005CC Disclaimer (oct) **DO NOT USE**                                                                                      06  150                                
PGRFAMCHA000902043016045416002400Hello Mrs. Cherrywinkle                           Murray In Love                                                B18884A1065607ACC                              
ID FAMCHA000902045416045426000010Generic ID - Bubbles                                                                                                    06  150                                
ID FAMCHA000902045426045439000013URL(2) - SILLY STORIES                                                                                                  06  150                                
ID FAMCHA000902045439045500000021Prime time open count down                                                                                              06  150                                
PROFAMCHA000902045500045505000005CC Disclaimer (oct) **DO NOT USE**                                                                                      06  150                                
PGRFAMCHA000902045505051915002410Busy World Of Richard Scarry; The                 Busytown Regatta/Schtoompah, The Funny Austrian               B10192 1065607ECC                              
ID FAMCHA000902051915051930000015Generic ID - confetti                                                                                                   06  150                                
ID FAMCHA000902051930051939000009URL(1) - CONTESTS                                                                                                       06  150                                
ID FAMCHA000902051939052000000021Prime time open count down                                                                                              06  150                                
PROFAMCHA000902052000052005000005CC Disclaimer (oct) **DO NOT USE**                                                                                      06  150                                
PGRFAMCHA000902052005054435002430Amazing Animals                                   Animal Flight                                                        60686110CC                              
ID FAMCHA000902054435054440000005Generic ID - Couch 2*                                                                                                   06  150                                
PRCFAMCHA000902054440054515000035Little Lulu (AUG2000) - Tonight @ 6:30pm                                                                               106  150                                
PROFAMCHA000902054515054539000024ALF - Weekdays @ Noon                                                                                                   06  150                                
ID FAMCHA000902054539054600000021Prime time open count down                                                                                              06  150                                
PROFAMCHA000902054600054605000005CC Disclaimer (oct) **DO NOT USE**                                                                                      06  150                                
PGRFAMCHA000902054605061052002447Billy The Cat                                     Catz 'n The Hood                                              B27648A1065607ECC                              
ID FAMCHA000902061052061102000010Generic ID - Hula Hoop                                                                                                  06  150                                
PROFAMCHA000902061102061107000005CC Disclaimer (oct) **DO NOT USE**                                                                                      06  150                                
PGRFAMCHA000902061107063438002331Little Lulu Show; The                             Black Out, Mind Your Manners, To Tell the Tooth               A20189A1055607ECC3                             
ID FAMCHA000902063438063443000005Generic ID - Couch 1*                                                                                                   06  150                                
PROFAMCHA000902063443063528000045PB&J Otter (MARCH2001) - Today @ 5pm                                                                                   206  150                                
PRCFAMCHA000902063528063539000011Morning Block menu background (flex time)                                                                               06  150                                
ID FAMCHA000902063539063600000021Prime time open count down                                                                                              06  150                                
PROFAMCHA000902063600063605000005CC Disclaimer (oct) **DO NOT USE**                                                                                      06  150                                
PGRFAMCHA000902063605065841002236Madeline                                          Madeline's Singing Dog                                               6068607E                                
ID FAMCHA000902065841065846000005Generic ID - Couch 2*                                                                                                   06  150                                
PROFAMCHA000902065846065916000030Pete & Pete (AUG2000) - Today @ 7:30am                                                                                 202  150                                
ID FAMCHA000902065916065929000013URL(2) - SNACK                                                                                                          06  150                                
PRCFAMCHA000902065929065939000010Morning Block menu background (flex time)                                                                               06  150                                
ID FAMCHA000902065939070000000021Prime time open count down                                                                                              06  150                                
PGRFAMCHA000902070000072358002358Microsoap                                         1-016                                                                6068607A                                
ID FAMCHA000902072358072408000010Generic ID - Family w/dog                                                                                               06  150                                
PROFAMCHA000902072408072438000030Jersey - Today @ 9am                                                                                                    06  150                                
PRCFAMCHA000902072438072508000030Funshine Tour - Generic Event Promo                                                                                    106 5150                                
PRCFAMCHA000902072508072548000040Funshine Tour - Location Spot #2-7 (AUG28-SEP04)                                                                       106 5150                                
INTFAMCHA000902072548072844000256MV Disney - Strangers Like Me (PHIL COLLINS)                                                                           60688120                                
PROFAMCHA000902072844072859000015Doug (MARCH2001) - Weekdays @ 4pm                                                                                       06  150                                
PRCFAMCHA000902072859072939000040Famous Jett Jackson - Today @ 9:30am                                                                                   106  150                                
ID FAMCHA000902072939073000000021Prime time open count down                                                                                              06  150                                
PGRFAMCHA000902073000075420002420Adventures of Pete & Pete; The                    Dance Fever                                                         A2028607B                                
ID FAMCHA000902075420075430000010Generic ID - confetti                                                                                                   06  150                                
PRCFAMCHA000902075430075510000040Famous Jett Jackson - Today @ 9:30am                                                                                   106  150                                
INTFAMCHA000902075510075909000359MV Disney - Beauty And The Beast (PEBO BRYSON/CELI                                                                     60688120                                
PROFAMCHA000902075909075939000030Z Games - Today @ 10am                                                                                                  06  150                                
ID FAMCHA000902075939080000000021Prime time open count down                                                                                              06  150                                
PGRFAMCHA000902080000082354002354Clarissa                                          Don't I Know You?                                                    2068607B                                
ID FAMCHA000902082354082404000010Generic ID - Hula Hoop                                                                                                  06  150                                
PROFAMCHA000902082404082434000030Z Games - Today @ 10am                                                                                                  06  150                                
PRCFAMCHA000902082434082504000030Funshine Tour - Generic Event Promo                                                                                    106 5150                                
PRCFAMCHA000902082504082544000040Funshine Tour - Location Spot #2-7 (AUG28-SEP04)                                                                       106 5150                                
INTFAMCHA000902082544082902000318MV Disney - If You Wanna Dance (NOBODY'S ANGEL)                                                                        60688120                                
ID FAMCHA000902082902082909000007URL(1) - FUNSTUFF                                                                                                       06  150                                
PROFAMCHA000902082909082939000030Lion King (MARCH2001) - Today @ 3:30pm                                                                                 206  150                                
ID FAMCHA000902082939083000000021Prime time open count down                                                                                              06  150                                
PROFAMCHA000902083000083005000005CC Disclaimer (oct) **DO NOT USE**                                                                                      06  150                                
PGRFAMCHA000902083005085316002311Mentors                                           Raising The Siege                                             C14730 1055607ACC3                             
ID FAMCHA000902085316085321000005Generic ID - Marbles                                                                                                    06  150                                
PROFAMCHA000902085321085351000030Lion King (MARCH2001) - Today @ 3:30pm                                                                                 206  150                                
INTFAMCHA000902085351085841000450MV Disney - Circle of Life (ELTON JOHN)                                                                                60688120                                
PROFAMCHA000902085841085853000012Mentors - Version 3 - On Family*                                                                                       606  150                                
PRCFAMCHA000902085853085929000036Goof Troop (MARCH2001) - Today @ 4pm                                                                                    06  150                                
PRCFAMCHA000902085929085939000010Morning Block menu background (flex time)                                                                               06  150                                
ID FAMCHA000902085939090000000021Prime time open count down                                                                                              06  150                                
PGRFAMCHA000902090000092233002233Jersey; The                                       Nick's A Chick                                                       6068607A                                
ID FAMCHA000902092233092238000005Generic ID - Couch 1*                                                                                                   06  150                                
PROFAMCHA000902092238092308000030Miracle In Lane 2 (SEP2) - Tonight @ 9pm                                                                                02  150                                
PRCFAMCHA000902092308092344000036Goof Troop (MARCH2001) - Today @ 4pm                                                                                    06  150                                
PRCFAMCHA000902092344092414000030Funshine Tour - Generic Event Promo                                                                                    106 5150                                
PRCFAMCHA000902092414092454000040Funshine Tour - Location Spot #2-7 (AUG28-SEP04)                                                                       106 5150                                
INTFAMCHA000902092454092814000320MV Disney - Remember The Magic (BRIAN MCKNIGHT)                                                                        60688120                                
PROFAMCHA000902092814092844000030Mickey Mouseworks - Today @ 4:30pm                                                                                      06  150                                
PROFAMCHA000902092844092929000045Adventures of Tom & Huck - Sunday @ 9pm                                                                                 06  150                                
PRCFAMCHA000902092929092939000010Morning Block menu background (flex time)                                                                               06  150                                
ID FAMCHA000902092939093000000021Prime time open count down                                                                                              06  150                                
PROFAMCHA000902093000093005000005CC Disclaimer (oct) **DO NOT USE**                                                                                      06  150                                
PGRFAMCHA000902093005095439002434Famous Jett Jackson; The                          Who's The Man                                                 SR0295A1066607ACC                              
ID FAMCHA000902095439095449000010Generic ID - Ring around the rosie                                                                                      06  150                                
PROFAMCHA000902095449095519000030Three Men and a Baby (SEP8) - Friday @ 9pm                                                                              02  150                                
PROFAMCHA000902095519095549000030Mickey Mouseworks - Today @ 4:30pm                                                                                      06  150                                
INTFAMCHA000902095549095827000238MV Disney - We Are One (LION KING 2)                                                                                   60688120                                
PROFAMCHA000902095827095857000030New Adventures of WTP (MARCH2001) - Today @ 5:30pm                                                                      06  150                                
PROFAMCHA000902095857095927000030Miracle In Lane 2 (SEP2) - Tonight @ 9pm                                                                                06  150                                
PRCFAMCHA000902095927095939000012Morning Block menu background (flex time)                                                                               06  150                                
ID FAMCHA000902095939100000000021Prime time open count down                                                                                              06  150                                
PROFAMCHA000902100000100005000005CC Disclaimer (oct) **DO NOT USE**                                                                                      06  150                                
PGRFAMCHA000902100005102405002400Z Games                                           1-005                                                                60286110CC                              
ID FAMCHA000902102405102415000010Generic ID - soccer **DO NOT USE**                                                                                      06  150                                
PROFAMCHA000902102415102445000030Miracle In Lane 2 (SEP2) - Tonight @ 9pm                                                                                06  150                                
PROFAMCHA000902102445102515000030New Adventures of WTP (MARCH2001) - Today @ 5:30pm                                                                      06  150                                
INTFAMCHA000902102515102658000143MV Disney - Siamese Cat Song                                                                                           60688120                                
PRCFAMCHA000902102658102728000030Funshine Tour - Generic Event Promo                                                                                    106 5150                                
PRCFAMCHA000902102728102808000040Funshine Tour - Location Spot #2-7 (AUG28-SEP04)                                                                       106 5150                                
PRCFAMCHA000902102808102842000034Hoze Houndz (MARCH2001) - Tonight @ 7:00pm                                                                              06  150                                
PROFAMCHA000902102842102927000045Adventures of Tom & Huck - Sunday @ 9pm                                                                                 06  150                                
PRCFAMCHA000902102927102939000012Morning Block menu background (flex time)                                                                               06  150                                
ID FAMCHA000902102939103000000021Prime time open count down                                                                                              06  150                                
PROFAMCHA000902103000103005000005CC Disclaimer (oct) **DO NOT USE**                                                                                      06  150                                
PGRFAMCHA000902103005105405002400Bug Juice                                         Countdown Begins                                                     6028607ACC                              
ID FAMCHA000902105405105410000005Generic ID - soccer **DO NOT USE**                                                                                      06  150                                
PROFAMCHA000902105410105440000030Three Men and a Baby (SEP8) - Friday @ 9pm                                                                              06  150                                
PRCFAMCHA000902105440105514000034Hoze Houndz (MARCH2001) - Tonight @ 7:00pm                                                                              06  150                                
INTFAMCHA000902105514105821000307MV Disney - Part Of Your World (JODI BENSON)                                                                           60688120                                
PROFAMCHA000902105821105839000018Mickey Mouseworks - Today @ 4:30pm                                                                                      06  150                                
PROFAMCHA000902105839105909000030Jersey - Tonight @ 8pm                                                                                                  06  150                                
PROFAMCHA000902105909105939000030Miracle In Lane 2 (SEP2) - Tonight @ 9pm                                                                                06  150                                
ID FAMCHA000902105939110000000021Prime time open count down                                                                                              06  150                                
PGRFAMCHA000902110000112939002939Art Attack                                        011/012                                                              60686110                                
ID FAMCHA000902112939112949000010Generic ID - confetti                                                                                                   06  150                                
ID FAMCHA000902112949112959000010xxMagic of Disney - V2(sky) - TEEN FEMALE                                                                               06  150                                
PROFAMCHA000902112959113004000005CC Disclaimer (oct) **DO NOT USE**                                                                                      06  150                                
PGRFAMCHA000902113004115303002259Disney Presents Bill Nye the Science Guy          The Moon                                                             60686110CC                              
ID FAMCHA000902115303115308000005Generic ID - soccer **DO NOT USE**                                                                                      06  150                                
PROFAMCHA000902115308115338000030Three Men and a Baby (SEP8) - Friday @ 9pm                                                                              06  150                                
PROFAMCHA000902115338115356000018Mickey Mouseworks - Today @ 4:30pm                                                                                      06  150                                
PRCFAMCHA000902115356115426000030Funshine Tour - Generic Event Promo                                                                                    106 5150                                
PRCFAMCHA000902115426115506000040Funshine Tour - Location Spot #2-7 (AUG28-SEP04)                                                                       106 5150                                
INTFAMCHA000902115506115839000333MV Disney - Reflection (CHRISTINA AGUILERA)                                                                            60688120                                
PROFAMCHA000902115839115909000030Jersey - Tonight @ 8pm                                                                                                  06  150                                
PROFAMCHA000902115909115939000030Miracle In Lane 2 (SEP2) - Tonight @ 9pm                                                                                06  150                                
ID FAMCHA000902115939120000000021Move open family size movie                                                                                             06  150                                
PROFAMCHA000902120000120007000007Rating - PG (oct)                                                                                                       06  150                                
PGRFAMCHA000902120007130833010826Secret of N.I.M.H 2: Timmy to the Rescue; The                                                                         B2068807C                                
ID FAMCHA000902130833130838000005Generic ID - Bubbles*                                                                                                   06  150                                
PROFAMCHA000902130838130908000030Miracle In Lane 2 (SEP2) - Tonight @ 9pm                                                                                06  150                                
PROFAMCHA000902130908130938000030SFSJ Lee Event Promo - Monday starting at 6:30pm (                                                                      06  150                                
PROFAMCHA000902130938131008000030Jersey - Tonight @ 8pm                                                                                                  06  150                                
INTFAMCHA000902131008131242000234MV Disney - Pocahontas 2                                                                                               60688120                                
PRCFAMCHA000902131242131322000040Famous Jett Jackson - Tonight @ 8:30pm                                                                                 106  150                                
PROFAMCHA000902131322131342000020Fam Jam Promo (rpt) - Monday, starting @ 6:30pm                                                                         06  150                                
PROFAMCHA000902131342131427000045Adventures of Tom & Huck - Sunday @ 9pm                                                                                 06  150                                
PRCFAMCHA000902131427131439000012Morning Block menu background (flex time)                                                                               06  150                                
ID FAMCHA000902131439131500000021Move open family size movie                                                                                             06  150                                
