PGRFAMCHA140601043000045233002233Franny's Feet                                     EP: 45                                                        C31292 1065607ECC                              
PROFAMCHA140601045233045240000007D-JR Live Action ID - SWOBB - Coming Up (May2012)                                                                           150                                
PROFAMCHA140601045240045305000025D-JR Live Action ID - #64 Pick Up Room/Turn off Li                                                                          150                                
PROFAMCHA140601045305045333000028D-JR OOB - Doc 221 - New Episode Sunday June 1 @ 1                                                                          150                                
PROFAMCHA140601045333045633000300PH-D Short - Mickey Mousekersize Shorts - 09 - Fol                                                                          150CC                              
PROFAMCHA140601045633045714000041D-JR OOB - Donald's Birthday Stunt - Sunday Jun 8                                                                           150                                
PROFAMCHA140601045714045739000025D-JR Promo - JATNP - Get more on the channel REV (                                                                          150                                
PRCFAMCHA140601045739045824000045D-JR Promo - Imagination Movers (HD) Ticket & Tour                                                                          150                                
PROFAMCHA140601045824045916000052D-JR OOB - Sheriff 112 - New Episode on Sunday Jun                                                                          150                                
PROFAMCHA140601045916045941000025D-JR Live Action ID - #63 Wash Face (Sep2013)                                                                               150                                
PROFAMCHA140601045941045948000007D-JR Live Action ID - SWOBB - Now (May2012)                                                                                 150                                
PROFAMCHA140601045948050003000015D-JR - Daily ID - Sunday (Feb2014)                                                                                          150                                
PGRFAMCHA140601050003052235002232The Secret World of Benjamin Bear                 EP: 52                                                        C31763 1065607ECC                              
PROFAMCHA140601052235052242000007D-JR Live Action ID - Harry & His Dinosaurs - Comi                                                                          150                                
PROFAMCHA140601052242052307000025D-JR Live Action ID - #51 Chores Board (Sep2013)                                                                            150                                
PROFAMCHA140601052307052335000028D-JR OOB - Doc 221 - New Episode Sunday June 1 @ 1                                                                          150                                
PROFAMCHA140601052335052605000230D-JR Short - Choo Choo Soul - 1-08 (Jul2013)                                                                                150CC                              
PRCFAMCHA140601052605052650000045D-JR Promo - Imagination Movers (HD) Ticket & Tour                                                                          150                                
PROFAMCHA140601052650052822000132D-JR OOB - Saturday Movies - Every Saturday in Jun                                                                          150                                
PROFAMCHA140601052822052847000025D-JR Promo - JATNP - Get more on the channel REV (                                                                          150                                
PROFAMCHA140601052847052928000041D-JR OOB - Donald's Birthday Stunt - Sunday Jun 8                                                                           150                                
PROFAMCHA140601052928052953000025D-JR Live Action ID - #50 Feed Dog (Sep2013)                                                                                150                                
PROFAMCHA140601052953053000000007D-JR Live Action ID - Harry & His Dinosaurs - Now                                                                           150                                
PROFAMCHA140601053000053010000010D-JR - Hero Flex ID - Yellow (:06-:10) (Feb2014)                                                                            150                                
PGRFAMCHA140601053010055146002136Harry and His Bucket Full of Dinosaurs            EP: 19                                                        B05038 1065607ECC                              
PROFAMCHA140601055146055216000030Episodic PAF (HD) 421 - New Ep Friday June 13 @ 73                                                                          150                                
PGRFAMCHA140601055216055535000319MV Universal (HD) American Authors - Best Day Of M                                                                     10615120CC                              
PROFAMCHA140601055535055550000015Web Jessie Online Game (HD) Play Games at family.c                                                                          150                                
PGRFAMCHA140601055550055836000246MV Disney (HD) Sabrina Carpenter - Can't Blame A G                                                                     10615120                                
PRCFAMCHA140601055836055918000042DXD Grizzly Cup 2014 (HD) Promo 2 - Go to DisneyXD                                                                          150                                
PRCFAMCHA140601055918055935000017BTS Concert 2014 (HD) Tease - This Summer (May19-J                                                                          150                                
PROFAMCHA140601055935055950000015Zapped (HD) Spencer Sell - Prems Friday June 27 @                                                                           150                                
PRCFAMCHA140601055950060003000013Family Bumper Flex (HD) Flex ID - WUW (May2012) (:                                                                          150                                
PGRFAMCHA140601060003062208002205Slugterra                                         EP: 40                                                               1025607ECC                              
PRCFAMCHA140601062208062246000038BTS Concert 2013 (HD) Rebroadcast Tuesday @ 730 (M                                                                          150                                
PROFAMCHA140601062246062324000038Wingin It (HD) Refresh Promo - Coming Up Next (Apr                                                                          150                                
PGRFAMCHA140601062324062447000123Int Hangin' With  (HD) Megan Nicole (May31-Jun6)                                                                       10218120                                
PRCFAMCHA140601062447062508000021Family Bumper Flex (HD) Garage Band (:17-:21) (Nov                                                                          150                                
PROFAMCHA140601062508062538000030Win Lose or Draw (HD) Gen 1 - New Ep Mon through T                                                                          150                                
PGRFAMCHA140601062538062903000325MV Universal (HD) Down With Webster - Chills (May1                                                                     10615120CC                              
PROFAMCHA140601062903062941000038Wingin It (HD) Refresh Promo - Coming Up Next (Apr                                                                          150                                
PROFAMCHA140601062941063011000030Episodic DWAB (HD) 218 - New Episode Friday June 1                                                                          150                                
PGRFAMCHA140601063011065242002231Wingin' It                                        EP: 07                                                        C32727 1065607ACD                              
PRCFAMCHA140601065242065327000045Rebound (HD) Today @ Noon (May2013)                                                                                         150                                
PROFAMCHA140601065327065418000051Gravity Falls (HD) Refresh - Coming Up Next (Jun20                                                                          150                                
PGRFAMCHA140601065418065825000407MV Non Disney (HD) Virginia To Vegas - We Are Star                                                                     10615120CC                              
PRCFAMCHA140601065825065843000018Family Bumper Flex (HD) Flip Book (:15-:18) (Nov 2                                                                          150                                
PROFAMCHA140601065843065928000045WOY (HD) Sylvia - This Afternoon @ 130 (Mar2014)                                                                            150                                
PRCFAMCHA140601065928065951000023Gravity Falls (HD) Comedy Sell - Coming Up Next (A                                                                          150                                
PRCFAMCHA140601065951070013000022Episodic Next Step (HD) 217 - Mid Season Finale -                                                                           150                                
PGRFAMCHA140601070013072148002135Disney Gravity Falls                              EP: 14                                                               6068607ECC                              
PRCFAMCHA140601072148072226000038BTS Concert 2013 (HD) Rebroadcast Tuesday @ 730 (M                                                                          150                                
PROFAMCHA140601072226072245000019WOWP (HD) Clip Bad Time - Coming Up Next (April 20                                                                          150                                
PGRFAMCHA140601072245072712000427MV Non Disney (HD) Megan Nicole - Summer Forever (                                                                     10615120CC                              
PROFAMCHA140601072712072742000030Episodic DWAB (HD) 218 - New Episode Friday June 1                                                                          150                                
PRCFAMCHA140601072742072752000010Glaxo Smith Kline (PHD)                                                                                                     150                                
PRCFAMCHA140601072752072830000038Web Next Step (HD) S2 Online Promo (Mar2014)                                                                                150                                
PRCFAMCHA140601072830072843000013Family Bumper (HD) - Drums ID (Jan 2011)                                                                                    150                                
PRCFAMCHA140601072843072853000010Glaxo Smith Kline (PHD)                                                                                                     150                                
PRCFAMCHA140601072853072923000030DXD Grizzly Cup 2014 (HD) Promo 2 CT - Go to Disne                                                                          150                                
PROFAMCHA140601072923072929000006WOWP (HD) ID - Jennifer Stone 1 "Coming Up Next" (                                                                          150                                
PROFAMCHA140601072929072959000030Zapped (HD) Comedy Sell - Premieres Friday June 27                                                                          150                                
PGRFAMCHA140601072959075232002233Disney Wizards of Waverly Place                   EP: 16                                                               6068607BCC                              
PRCFAMCHA140601075232075317000045Rebound (HD) Today @ Noon (May2013)                                                                                         150                                
PROFAMCHA140601075317075350000033ANT Farm (HD) Refresh - Coming Up Next (Jun2013)                                                                            150                                
PGRFAMCHA140601075350075704000314MV Non Disney (HD) Jordan McIntosh - That Girl (Ma                                                                     10615120                                
PROFAMCHA140601075704075749000045WOY (HD) Sylvia - This Afternoon @ 130 (Mar2014)                                                                            150                                
PROFAMCHA140601075749075848000059Nintendo                                                                                                                    150                                
PRCFAMCHA140601075848075856000008Family Bumper (HD) - Origami ID (Jan 2011)                                                                                  150                                
PROFAMCHA140601075856075926000030Episodic PAF (HD) 421 - New Ep Friday June 13 @ 73                                                                          150                                
PRCFAMCHA140601075926075940000014Family Flex Next (HD) ANT Farm - Jake (:12-:14) (A                                                                          150                                
PRCFAMCHA140601075940080002000022Episodic Next Step (HD) 217 - Mid Season Finale -                                                                           150                                
PGRFAMCHA140601080002082319002317Disney A.N.T. Farm                                EP: 02                                                               6068607BCC                              
PRCFAMCHA140601082319082357000038BTS Concert 2013 (HD) Rebroadcast Tuesday @ 730 (M                                                                          150                                
PROFAMCHA140601082357082427000030Shake It Up (HD) Flynn Sell - Coming Up Next (Jun2                                                                          150                                
PROFAMCHA140601082427082457000030Win Lose or Draw (HD) Gen 2 - New Ep Mon through T                                                                          150                                
PGRFAMCHA140601082457082822000325MV Non Disney (HD) iSH - Light Up (Apr23-Jul22)                                                                        10615120                                
PROFAMCHA14060108282208291200005020th Century Fox                                                                                                            150                                
PRCFAMCHA140601082912082925000013Family Flex Next (HD) SIU - Rashawn (:12-:13) (Apr                                                                          150                                
PRCFAMCHA140601082925083010000045Rebound (HD) Today @ Noon (May2013)                                                                                         150                                
PGRFAMCHA140601083010085242002232Disney Shake It Up                                EP: 20                                                               6068707BCC                              
PROFAMCHA140601085242085312000030Episodic DWAB (HD) 218 - New Episode Friday June 1                                                                          150                                
PROFAMCHA140601085312085337000025GLC Promo 1 (HD) Coming Up Next (Sep2013)                                                                                   150                                
PGRFAMCHA140601085337085656000319MV Universal (HD) American Authors - Best Day Of M                                                                     10615120CC                              
PRCFAMCHA140601085656085711000015Web Next Step (HD) Sad - TNS On Demand (May2014)                                                                            150                                
PGRFAMCHA140601085711085856000145ME (HD) Train Your Dragon 2 - In theaters June 13                                                                      10615120CC                              
PRCFAMCHA140601085856085925000029Family Bumper Flex (HD) Flex ID - Austin & Ally (F                                                                          150                                
PROFAMCHA140601085925085931000006GLC (HD) ID - Bridget Mendler 6 "Coming Up Next" (                                                                          150                                
PROFAMCHA140601085931090016000045Zapped (HD) App Sell - Prems Friday June 27 @ 8 (M                                                                          150                                
PGRFAMCHA140601090016092432002416Disney Good Luck Charlie                          EP: 15                                                               6068807BCC                              
PRCFAMCHA140601092432092510000038BTS Concert 2013 (HD) Rebroadcast Tuesday @ 730 (M                                                                          150                                
PRCFAMCHA140601092510092524000014Family Flex Next (HD) A&A - Laura (:12-:14) (Apr20                                                                          150                                
PGRFAMCHA140601092524092837000313MV Universal (HD) Ariana Grande ft Iggy Azalea - P                                                                     10615120CC                              
PROFAMCHA140601092837092907000030Win Lose or Draw (HD) Gen 1 - New Ep Mon through T                                                                          150                                
PRCFAMCHA140601092907092917000010Glaxo Smith Kline (PHD)                                                                                                     150                                
PRCFAMCHA140601092917092931000014Family Bumper Flex (HD) Flex ID - Music ID (:14-:1                                                                          150                                
PRCFAMCHA140601092931092944000013Family Flex Next (HD) A&A Raini (Aug 2013) (:13-:1                                                                          150                                
PRCFAMCHA140601092944093006000022Episodic Next Step (HD) 217 - Mid Season Finale -                                                                           150                                
PGRFAMCHA140601093006095222002216Disney Austin & Ally                              EP: 08                                                               6068807BCC                              
PROFAMCHA140601095222095252000030Episodic PAF (HD) 421 - New Ep Friday June 13 @ 73                                                                          150                                
PROFAMCHA140601095252095317000025DWAB (HD) Clip Promo - Coming Up Next (Oct2013)                                                                             150                                
PGRFAMCHA140601095317095445000128MV Disney (HD) Sabrina Carpenter - Can't Blame A G                                                                     10615120                                
PRCFAMCHA140601095445095457000012Family Bumper Flex (HD) Flex ID - Wingin It (Apr20                                                                          150                                
MVCFAMCHA140601095457095811000314MV Disney (HD) R5 - One Last Dance (Jun1-Aug13)                                                                        60288120                                
PROFAMCHA140601095811095856000045WOY (HD) Sylvia - This Afternoon @ 130 (Mar2014)                                                                            150                                
PRCFAMCHA140601095856095917000021DWAB Tango Refresh (HD) Coming Up Next (Mar2014)                                                                            150                                
PRCFAMCHA140601095917100002000045Rebound (HD) Today @ Noon (May2013)                                                                                         150                                
PGRFAMCHA140601100002102149002147Disney Dog with a Blog                            EP: 01                                                               6068807BCC                              
PROFAMCHA140601102149102219000030Episodic DWAB (HD) 218 - New Episode Friday June 1                                                                          150                                
PROFAMCHA140601102219102300000041Jessie (HD) Imposter Nanny - Coming up next (May20                                                                          150                                
PROFAMCHA140601102300102345000045WOY (HD) Sylvia - This Afternoon @ 130 (Mar2014)                                                                            150                                
PGRFAMCHA140601102345102710000325MV Universal (HD) Down With Webster - Chills (May1                                                                     10615120CC                              
PRCFAMCHA140601102710102724000014Family Bumper Flex (HD) Flex ID - WUW (May2012) (:                                                                          150                                
PGRFAMCHA140601102724102847000123Int Hangin' With  (HD) Megan Nicole (May31-Jun6)                                                                       10618120                                
PROFAMCHA140601102847102902000015Zapped (HD) Spencer Sell - Prems Friday June 27 @                                                                           150                                
PRCFAMCHA140601102902102928000026Jessie (HD) Clip Promo - Coming Up Next (Oct2013)                                                                           150                                
PRCFAMCHA140601102928103006000038BTS Concert 2013 (HD) Rebroadcast Tuesday @ 730 (M                                                                          150                                
PGRFAMCHA140601103006105342002336Disney Jessie                                     EP: 09                                                               6068807BCC                              
PRCFAMCHA140601105342105427000045Rebound (HD) Today @ Noon (May2013)                                                                                         150                                
PROFAMCHA140601105427105510000043LAM (HD) Tips Refresh - Coming Up Next (May2014)                                                                            150                                
PROFAMCHA140601105510105525000015Web Jessie Online Game (HD) Play Games at family.c                                                                          150                                
PGRFAMCHA140601105525105735000210Int Get To Know (HD) Brandon & Savannah (May16-Sep                                                                     10615120CC                              
PRCFAMCHA140601105735105757000022Episodic Next Step (HD) 217 - Mid Season Finale -                                                                           150                                
PROFAMCHA140601105757105856000059Nintendo                                                                                                                    150                                
PRCFAMCHA140601105856105906000010Family Bumper (HD) - Bobbleheads ID (Jan 2011)                                                                              150                                
PROFAMCHA140601105906105936000030LAM Generic (HD) - Coming Up Next (May2014)                                                                                 150                                
PRCFAMCHA140601105936110006000030DXD Grizzly Cup 2014 (HD) Promo 2 CT - Go to Disne                                                                          150                                
PGRFAMCHA140601110006112226002220Disney Liv and Maddie                             EP: 06                                                               6068807BCC                              
PRCFAMCHA140601112226112311000045Rebound (HD) Today @ Noon (May2013)                                                                                         150                                
PROFAMCHA140601112311112341000030IDDI Generic (HD) - coming up next (May2014)                                                                                150                                
PROFAMCHA140601112341112426000045WOY (HD) Sylvia - This Afternoon @ 130 (Mar2014)                                                                            150                                
PROFAMCHA14060111242611251600005020th Century Fox                                                                                                            150                                
PRCFAMCHA140601112516112537000021Family Bumper Flex (HD) Garage Band (:17-:21) (Nov                                                                          150                                
PGRFAMCHA140601112537112716000139Int Next Step (HD) All About Season 2 (Apr4-Jun13)                                                                     10618120                                
PRCFAMCHA140601112716112806000050Warner Music Canada                                                                                                         150                                
PGRFAMCHA140601112806112906000100DMS (HD) Maleficent Surfer (May7-Jun1)                                                                                 10615120CC                              
PROFAMCHA140601112906112926000020IDDI (HD) Refresh - Coming Up Next  (May2014)                                                                               150                                
PRCFAMCHA140601112926113004000038BTS Concert 2013 (HD) Rebroadcast Tuesday @ 730 (M                                                                          150                                
PGRFAMCHA140601113004115355002351Disney I Didn't Do It                             EP: 01                                                               6068607BCC                              
PRCFAMCHA140601115355115417000022Episodic Next Step (HD) 217 - Mid Season Finale -                                                                           150                                
PRCFAMCHA140601115417115502000045Rebound (HD) Coming Up Next (May2013)                                                                                       150                                
PROFAMCHA140601115502115532000030Episodic DWAB (HD) 218 - New Episode Friday June 1                                                                          150                                
PROFAMCHA140601115532115612000040Kellogg's                                                                                                                   150                                
PROFAMCHA140601115612115657000045D-JR OOB - Sherriff 113 - New Ep Sunday June 8 @ 1                                                                          150                                
PGRFAMCHA140601115657115842000145ME (HD) Train Your Dragon 2 - In theaters June 13                                                                      10615120CC                              
PRCFAMCHA140601115842115927000045Rebound (HD) Coming Up Next (May2013)                                                                                       150                                
PROFAMCHA140601115927115957000030Zapped (HD) Comedy Sell - Premieres Friday June 27                                                                          150                                
ID FAMCHA140601115957120012000015Popcorn Pix Block Open (HD)  (Jan2011)                                                                                      150                                
ID FAMCHA140601120012120021000009Popcorn Pix Rating Slate (HD) - G (Jan 2011)                                                                                150                                
PGRFAMCHA140601120021132656012635Rebound                                                                                                               A2068807DCC                              
PRCFAMCHA140601132656132734000038BTS Concert 2013 (HD) Rebroadcast Tuesday @ 730 (M                                                                          150                                
PROFAMCHA140601132734132804000030Win Lose or Draw (HD) Gen 2 - New Ep Mon through T                                                                          150                                
PROFAMCHA140601132804132845000041D-JR OOB - Donald's Birthday Stunt - Sunday Jun 8                                                                           150                                
PROFAMCHA140601132845132930000045WOY (HD) Sylvia - Coming Up Next (Feb2014)                                                                                  150                                
PROFAMCHA140601132930133000000030Episodic PAF (HD) 421 - New Ep Friday June 13 @ 73                                                                          150                                
PGRFAMCHA140601133000135303002303Disney Wander Over Yonder                         EP: 02                                                               6068807ECC                              
MVCFAMCHA140601135303135617000314MV Disney (HD) R5 - One Last Dance (Jun1-Aug13)                                                                        60688120                                
PROFAMCHA140601135617135649000032PAF (HD) Delicious Refresh - Coming Up Next (Jun20                                                                          150                                
PRCFAMCHA140601135649135731000042DXD Grizzly Cup 2014 (HD) Promo 2 - Go to DisneyXD                                                                          150                                
PGRFAMCHA140601135731135916000145ME (HD) Maleficent - Story 2 - Now Playing (May 30                                                                     10615120CC                              
PRCFAMCHA140601135916135927000011Family Bumper Flex (HD) Flex ID - Really Me (Apr20                                                                          150                                
PROFAMCHA140601135927135944000017PAF (HD) Disney Refresh CD - Coming Up Next (April                                                                          150                                
PRCFAMCHA140601135944140006000022Episodic Next Step (HD) 217 - Mid Season Finale -                                                                           150                                
PGRFAMCHA140601140006142240002234Disney Phineas & Ferb                             EP: 04                                                               6068607ECC                              
PROFAMCHA140601142240142310000030Episodic PAF (HD) 421 - New Ep Friday June 13 @ 73                                                                          150                                
PROFAMCHA140601142310142343000033ANT Farm (HD) Refresh - Coming Up Next (Jun2013)                                                                            150                                
PROFAMCHA140601142343142428000045Zapped (HD) App Sell - Prems Friday June 27 @ 8 (M                                                                          150                                
PROFAMCHA140601142428142443000015Web SIU Online Game (HD) Play games on family.ca (                                                                          150                                
PGRFAMCHA140601142443142756000313MV Universal (HD) Ariana Grande ft Iggy Azalea - P                                                                     10615120CC                              
PRCFAMCHA140601142756142818000022Family Bumper Flex (HD) Fifteen Logos (:21-:22) (N                                                                          150                                
PGRFAMCHA140601142818142918000100DMS (HD) Maleficent Surfer (May7-Jun1)                                                                                 10615120CC                              
PROFAMCHA140601142918142933000015ANT Farm (HD) Refresh CT - Coming Up Next (April 2                                                                          150                                
PRCFAMCHA140601142933143011000038BTS Concert 2013 (HD) Rebroadcast Tuesday @ 730 (M                                                                          150                                
PGRFAMCHA140601143011145315002304Disney A.N.T. Farm                                EP: 17                                                               6068607BCC                              
PROFAMCHA140601145315145345000030Episodic DWAB (HD) 218 - New Episode Friday June 1                                                                          150                                
PRCFAMCHA140601145345145419000034GLC Marching Band (HD) Coming Up Next (Nov2013)                                                                             150                                
PGRFAMCHA140601145419145733000314MV Non Disney (HD) Jordan McIntosh - That Girl (Ma                                                                     10615120                                
PRCFAMCHA140601145733145803000030DXD Grizzly Cup 2014 (HD) Promo 2 CT - Go to Disne                                                                          150                                
PGRFAMCHA140601145803145948000145ME (HD) Train Your Dragon 2 - In theaters June 13                                                                      10615120CC                              
PROFAMCHA140601145948150007000019GLC Promo 2 (HD) Coming Up Next (Sep2013)                                                                                   150                                
PGRFAMCHA140601150007152425002418Disney Good Luck Charlie                          EP: 15                                                               6068807BCC                              
PRCFAMCHA140601152425152503000038BTS Concert 2013 (HD) Rebroadcast Tuesday @ 730 (M                                                                          150                                
PRCFAMCHA140601152503152529000026Next Step Dancing Is (HD) West - Coming Up Next (M                                                                          150                                
PROFAMCHA14060115252915261900005020th Century Fox                                                                                                            150                                
PGRFAMCHA140601152619152829000210Int Get To Know (HD) Brandon & Savannah (May16-Sep                                                                     10615120CC                              
PROFAMCHA140601152829152844000015Web A&A Online Game (HD) Play games at family.ca/h                                                                          150                                
PROFAMCHA140601152844152924000040Kellogg's                                                                                                                   150                                
PRCFAMCHA140601152924152953000029Next Step Dancing Is (HD) Eldon - Coming Up Next (                                                                          150                                
PROFAMCHA140601152953153023000030Win Lose or Draw (HD) Gen 1 - New Ep Mon through T                                                                          150                                
PGRFAMCHA140601153023155308002245The Next Step                                     EP: 16                                                        A36426 1065607ACD                              
PRCFAMCHA140601155308155330000022Episodic Next Step (HD) 217 - Mid Season Finale -                                                                           150                                
PRCFAMCHA140601155330155343000013Family Flex Next (HD) Jessie - Jessie  (:12-:14) (                                                                          150                                
PGRFAMCHA140601155343155513000130MV Lift (HD) RDMA Austin Mahone - Mmm Yeah (May 9-                                                                     60685120CC                              
PRCFAMCHA140601155513155603000050Warner Music Canada                                                                                                         150                                
PRCFAMCHA140601155603155616000013Family Bumper (HD) - Drums ID (Jan 2011)                                                                                    150                                
PGRFAMCHA140601155616155941000325MV Non Disney (HD) VDuffield-More Than Friends (p-                                                                     10615120                                
PRCFAMCHA140601155941155953000012Family Flex Next (HD) Jessie - Ravi (:12-:14) (Apr                                                                          150                                
PROFAMCHA140601155953160008000015Zapped (HD) Spencer Sell - Prems Friday June 27 @                                                                           150                                
PGRFAMCHA140601160008162341002333Disney Jessie                                     EP: 09                                                               6068807BCC                              
PRCFAMCHA140601162341162419000038BTS Concert 2013 (HD) Rebroadcast Tuesday @ 730 (M                                                                          150                                
PRCFAMCHA140601162419162440000021DWAB Tango Refresh (HD) Coming Up Next (Mar2014)                                                                            150                                
PGRFAMCHA140601162440162819000339MV Universal (HD) Cassadee Pope - I Wish I Could B                                                                     10615120CC                              
PRCFAMCHA140601162819162841000022Family Bumper Flex (HD) Fifteen Logos (:21-:22) (N                                                                          150                                
PROFAMCHA140601162841162911000030Episodic PAF (HD) 421 - New Ep Friday June 13 @ 73                                                                          150                                
PROFAMCHA140601162911162926000015Web ANT Farm Online Game (HD) Play games on family                                                                          150                                
PRCFAMCHA140601162926162941000015Family Flex Next (HD) DWAB Ghannelius (Aug 2013) (                                                                          150                                
PROFAMCHA140601162941163011000030Win Lose or Draw (HD) Gen 2 - New Ep Mon through T                                                                          150                                
PGRFAMCHA140601163011165159002148Disney Dog with a Blog                            EP: 01                                                               6068807BCC                              
PROFAMCHA140601165159165229000030Episodic DWAB (HD) 218 - New Episode Friday June 1                                                                          150                                
PROFAMCHA140601165229165259000030Shake It Up (HD) Flynn Sell - Coming Up Next (Jun2                                                                          150                                
MVCFAMCHA140601165259165613000314MV Disney (HD) R5 - One Last Dance (Jun1-Aug13)                                                                        60688120                                
PRCFAMCHA140601165613165623000010Glaxo Smith Kline (PHD)                                                                                                     150                                
PGRFAMCHA140601165623165808000145ME (HD) Maleficent - Story 2 - Now Playing (May 30                                                                     10615120CC                              
PROFAMCHA140601165808165834000026Web IDDI @ family.ca (HD) Play Games at family.ca/                                                                          150                                
PGRFAMCHA140601165834165931000057MV Disney (HD) Sabrina Carpenter - Can't Blame A G                                                                     10615120                                
PRCFAMCHA140601165931165945000014Family Flex Next (HD) SIU - Zendaya (:12-:14) (Apr                                                                          150                                
PRCFAMCHA140601165945170007000022Episodic Next Step (HD) 217 - Mid Season Finale -                                                                           150                                
PGRFAMCHA140601170007172140002133Disney Shake It Up                                EP: 08                                                               6068707BCC                              
PRCFAMCHA140601172140172218000038BTS Concert 2013 (HD) Rebroadcast Tuesday @ 730 (M                                                                          150                                
PROFAMCHA140601172218172248000030Austin & Ally (HD) Generic - Coming up Next (May20                                                                          150                                
PROFAMCHA140601172248172318000030Episodic PAF (HD) 421 - New Ep Friday June 13 @ 73                                                                          150                                
PGRFAMCHA140601172318172643000325MV Non Disney (HD) iSH - Light Up (Apr23-Jul22)                                                                        10615120                                
PROFAMCHA140601172643172709000026Web IDDI @ family.ca (HD) Play Games at family.ca/                                                                          150                                
PRCFAMCHA140601172709172727000018Family Bumper Flex (HD) Flip Book (:15-:18) (Nov 2                                                                          150                                
PGRFAMCHA140601172727172827000100DMS (HD) Maleficent Surfer (May7-Jun1)                                                                                 10615120CC                              
PRCFAMCHA140601172827172909000042DXD Grizzly Cup 2014 (HD) Promo 2 - Go to DisneyXD                                                                          150                                
PRCFAMCHA140601172909172923000014Family Flex Next (HD) A&A - Laura (:12-:14) (Apr20                                                                          150                                
PROFAMCHA140601172923173008000045Zapped (HD) App Sell - Prems Friday June 27 @ 8 (M                                                                          150                                
PGRFAMCHA140601173008175610002602Disney Austin & Ally                              EP: 01                                                               6068807BCC                              
PROFAMCHA140601175610175640000030Episodic DWAB (HD) 218 - New Episode Friday June 1                                                                          150                                
PROFAMCHA140601175640175659000019GLC Promo 2 (HD) Coming Up Next (Sep2013)                                                                                   150                                
PROFAMCHA140601175659175758000059Nintendo                                                                                                                    150                                
PRCFAMCHA140601175758175819000021Family Bumper Flex (HD) Garage Band (:17-:21) (Nov                                                                          150                                
PROFAMCHA14060117581917590900005020th Century Fox                                                                                                            150                                
PROFAMCHA140601175909175939000030Win Lose or Draw (HD) Gen 2 - New Ep Mon through T                                                                          150                                
PRCFAMCHA140601175939175953000014Family Flex Next (HD) GLC - Jason (:12-:14) (Apr20                                                                          150                                
PRCFAMCHA140601175953180015000022Episodic Next Step (HD) 217 - Mid Season Finale -                                                                           150                                
PGRFAMCHA140601180015182219002204Good Luck Charlie                                 EP: 09                                                               6068807BCC                              
PROFAMCHA140601182219182249000030Episodic PAF (HD) 421 - New Ep Friday June 13 @ 73                                                                          150                                
PROFAMCHA140601182249182332000043LAM (HD) Tips Refresh - Coming Up Next (May2014)                                                                            150                                
PGRFAMCHA140601182332182517000145ME (HD) Maleficent Story 1 - Now Playing (May 30 -                                                                     10615120CC                              
PRCFAMCHA140601182517182538000021Family Bumper Flex (HD) Trampoline (:15-:21) (Mar2                                                                          150                                
PGRFAMCHA140601182538182824000246MV Disney (HD) Sabrina Carpenter - Can't Blame A G                                                                     10615120                                
PROFAMCHA14060118282418290900004520th Century Fox                                                                                                            150                                
PROFAMCHA140601182909182939000030LAM Generic (HD) - Coming Up Next (May2014)                                                                                 150                                
PRCFAMCHA140601182939183017000038BTS Concert 2013 (HD) Rebroadcast Tuesday @ 730 (M                                                                          150                                
PGRFAMCHA140601183017185337002320Disney Liv and Maddie                             EP: 12                                                               6068807BCC                              
PRCFAMCHA140601185337185359000022Episodic Next Step (HD) 217 - Mid Season Finale -                                                                           150                                
PROFAMCHA140601185359185419000020IDDI (HD) Refresh - Coming Up Next  (May2014)                                                                               150                                
PGRFAMCHA140601185419185738000319MV Universal (HD) American Authors - Best Day Of M                                                                     10615120CC                              
PROFAMCHA140601185738185808000030Zapped (HD) Comedy Sell - Premieres Friday June 27                                                                          150                                
PROFAMCHA140601185808185907000059Nintendo                                                                                                                    150                                
PRCFAMCHA140601185907185928000021Family Bumper Flex (HD) Trampoline (:15-:21) (Mar2                                                                          150                                
PROFAMCHA140601185928185958000030IDDI Generic (HD) - coming up next (May2014)                                                                                150                                
PRCFAMCHA140601185958190028000030DXD Grizzly Cup 2014 (HD) Promo 2 CT - Go to Disne                                                                          150                                
PGRFAMCHA140601190028192300002232Disney I Didn't Do It                             EP: 11                                                               6068607BCC                              
PRCFAMCHA140601192300192338000038BTS Concert 2013 (HD) Rebroadcast Tuesday @ 730 (M                                                                          150                                
PROFAMCHA140601192338192353000015ANT Farm (HD) Refresh CT - Coming Up Next (April 2                                                                          150                                
PGRFAMCHA140601192353192706000313MV Universal (HD) Ariana Grande ft Iggy Azalea - P                                                                     10615120CC                              
PROFAMCHA140601192706192736000030Episodic DWAB (HD) 218 - New Episode Friday June 1                                                                          150                                
PGRFAMCHA140601192736192921000145ME (HD) Blended - Now Playing (post-7) (May23-Jun6                                                                     10615120CC                              
PRCFAMCHA140601192921192935000014Family Flex Next (HD) ANT Farm - Jake (:12-:14) (A                                                                          150                                
PRCFAMCHA140601192935193013000038Web Next Step (HD) S2 Online Promo (Mar2014)                                                                                150                                
PGRFAMCHA140601193013195144002131Disney A.N.T. Farm                                EP: 11                                                               6068607BCC                              
MVCFAMCHA140601195144195458000314MV Disney (HD) R5 - One Last Dance (Jun1-Aug13)                                                                        60688120                                
PRCFAMCHA140601195458195512000014Family Flex Next (HD) SIU - Adam (:12-:14) (Apr201                                                                          150                                
PRCFAMCHA140601195512195534000022Episodic Next Step (HD) 217 - Mid Season Finale -                                                                           150                                
PROFAMCHA140601195534195614000040Kellogg's                                                                                                                   150                                
PRCFAMCHA140601195614195625000011Family Bumper Flex (HD) Flex ID - WUW (May2012) (:                                                                          150                                
PROFAMCHA14060119562519571500005020th Century Fox                                                                                                            150                                
PGRFAMCHA140601195715195925000210Int Get To Know (HD) Brandon & Savannah (May16-Sep                                                                     10615120CC                              
PRCFAMCHA140601195925195937000012Family Flex Next (HD) SIU - Rashawn (:12-:13) (Apr                                                                          150                                
PROFAMCHA140601195937200007000030Win Lose or Draw (HD) Gen 1 - New Ep Mon through T                                                                          150                                
PGRFAMCHA140601200007202239002232Disney Shake It Up                                EP: 20                                                               6068707BCC                              
PGRFAMCHA140601202239202604000325MV Non Disney (HD) VDuffield-More Than Friends (p-                                                                     10615120                                
PROFAMCHA140601202604202634000030Austin & Ally (HD) Generic - Coming up Next (May20                                                                          150                                
PROFAMCHA140601202634202704000030Episodic PAF (HD) 421 - New Ep Friday June 13 @ 73                                                                          150                                
PROFAMCHA14060120270420275400005020th Century Fox                                                                                                            150                                
PRCFAMCHA140601202754202824000030Web FOD 2014 Refresh (HD) Family.ca (Mar2014) (2-3                                                                          150                                
PROFAMCHA140601202824202909000045Zapped (HD) App Sell - Prems Friday June 27 @ 8 (M                                                                          150                                
PRCFAMCHA140601202909202923000014Family Flex Next (HD) A&A - Laura (:12-:14) (Apr20                                                                          150                                
PRCFAMCHA140601202923203001000038BTS Concert 2013 (HD) Rebroadcast Tuesday @ 730 (M                                                                          150                                
PGRFAMCHA140601203001205217002216Disney Austin & Ally                              EP: 08                                                               6068807BCC                              
PROFAMCHA140601205217205247000030Episodic DWAB (HD) 218 - New Episode Friday June 1                                                                          150                                
PRCFAMCHA140601205247205332000045Next Step Refresh (HD) Coming Up Next (Sep2013)                                                                             150                                
PGRFAMCHA140601205332205711000339MV Universal (HD) Cassadee Pope - I Wish I Could B                                                                     10615120CC                              
PROFAMCHA14060120571120575600004520th Century Fox                                                                                                            150                                
PRCFAMCHA140601205756205838000042DXD Grizzly Cup 2014 (HD) Promo 2 - Go to DisneyXD                                                                          150                                
PRCFAMCHA140601205838205848000010Glaxo Smith Kline (PHD)                                                                                                     150                                
PRCFAMCHA140601205848205905000017Family Bumper Flex (HD) Flex ID - Music ID (:14-:1                                                                          150                                
PRCFAMCHA140601205905205931000026Next Step Dancing Is (HD) James - Coming Up Next (                                                                          150                                
PROFAMCHA140601205931210001000030Win Lose or Draw (HD) Gen 1 - New Ep Mon through T                                                                          150                                
PGRFAMCHA140601210001212247002246The Next Step                                     EP: 24                                                        C36838 1055607ACD3                             
PRCFAMCHA140601212247212309000022Episodic Next Step (HD) 217 - Mid Season Finale -                                                                           150                                
PROFAMCHA140601212309212347000038Wingin It (HD) Refresh Promo - Coming Up Next (Apr                                                                          150                                
PGRFAMCHA140601212347212532000145ME (HD) Maleficent Story 1 - Now Playing (May 30 -                                                                     10615120CC                              
PROFAMCHA140601212532212612000040Kellogg's                                                                                                                   150                                
PRCFAMCHA140601212612212632000020Family Bumper Flex (HD) Flex ID - ANT Farm (:16-:2                                                                          150                                
PGRFAMCHA140601212632212847000215Int Get To Know (HD) Megan Nicole (May2-Jun6)                                                                          10618120                                
PROFAMCHA140601212847212925000038Wingin It (HD) Refresh Promo - Coming Up Next (Apr                                                                          150                                
PRCFAMCHA140601212925213003000038BTS Concert 2013 (HD) Rebroadcast Tuesday @ 730 (M                                                                          150                                
PGRFAMCHA140601213003215235002232Wingin' It                                        EP: 19                                                        C32727 1065607ACD                              
PGRFAMCHA140601215235215620000345MV Non Disney (HD) Crystalyne - Punks Don't Dance                                                                      10215120CC                              
PRCFAMCHA140601215620215702000042DXD Grizzly Cup 2014 (HD) Promo 2 - Go to DisneyXD                                                                          150                                
PROFAMCHA140601215702215817000115MV Disney (HD) Zendaya - Too Much from Zapped (May                                                                          150                                
PROFAMCHA140601215817215847000030Episodic PAF (HD) 421 - New Ep Friday June 13 @ 73                                                                          150                                
PROFAMCHA140601215847215928000041D-JR OOB - Donald's Birthday Stunt - Sunday Jun 8                                                                           150                                
PRCFAMCHA140601215928215943000015Web Next Step (HD) Sad - TNS On Demand (May2014)                                                                            150                                
ID FAMCHA140601215943215958000015Popcorn Pix Block Open (HD)  (Jan2011)                                                                                      150                                
ID FAMCHA140601215958220007000009Popcorn Pix Rating Slate (HD) - G (Jan 2011)                                                                                150                                
ID FAMCHA140601220007220013000006Popcorn Pix Magic of Disney Bumper (HD) (Apr2013)                                                                           150                                
PGRFAMCHA140601220013232442012429Life Is Ruff                                                                                                          B6068807CCC                              
MVCFAMCHA140601232442232756000314MV Disney (HD) R5 - One Last Dance (Jun1-Aug13)                                                                        60688120                                
PROFAMCHA140601232756232811000015Web Mickey Mouse Online Game (HD) Play games on fa                                                                          150                                
PRCFAMCHA140601232811232849000038BTS Concert 2013 (HD) Rebroadcast Tuesday @ 730 (M                                                                          150                                
PROFAMCHA140601232849232934000045D-JR OOB - Sherriff 113 - New Ep Sunday June 8 @ 1                                                                          150                                
PRCFAMCHA140601232934232956000022Episodic Next Step (HD) 217 - Mid Season Finale -                                                                           150                                
PRCFAMCHA140601232956233006000010Family Bumper Flex (HD) Flex ID - Wingin It (Apr20                                                                          150                                
PGRFAMCHA140601233006235238002232Life with Derek                                   EP: 26                                                        C26679A1065607BCC                              
PGRFAMCHA140601235238235423000145ME (HD) Blended - Now Playing (post-7) (May23-Jun6                                                                     10615120CC                              
PROFAMCHA140601235423235453000030Win Lose or Draw (HD) Gen 2 - New Ep Mon through T                                                                          150                                
PGRFAMCHA140601235453235832000339MV Universal (HD) Cassadee Pope - I Wish I Could B                                                                     10615120CC                              
PROFAMCHA140601235832235902000030Episodic PAF (HD) 421 - New Ep Friday June 13 @ 73                                                                          150                                
PROFAMCHA140601235902235932000030Zapped (HD) Comedy Sell - Premieres Friday June 27                                                                          150                                
PROFAMCHA140601235932235947000015Web Jessie Online Game (HD) Play Games at family.c                                                                          150                                
PRCFAMCHA140601235947000008000021Family Bumper Flex (HD) Trampoline (:15-:21) (Mar2                                                                          150                                
PGRFAMCHA140601000008002245002237The Latest Buzz                                   EP: 21                                                        C30362 1065607BCC                              
PRCFAMCHA140601002245002323000038BTS Concert 2013 (HD) Rebroadcast Tuesday @ 730 (M                                                                          150                                
PGRFAMCHA140601002323002508000145ME (HD) Maleficent Story 1 - Now Playing (May 30 -                                                                     10615120CC                              
PRCFAMCHA140601002508002550000042DXD Grizzly Cup 2014 (HD) Promo 2 - Go to DisneyXD                                                                          150                                
PGRFAMCHA140601002550002915000325MV Non Disney (HD) VDuffield-More Than Friends (p-                                                                     10615120                                
PRCFAMCHA140601002915002937000022Episodic Next Step (HD) 217 - Mid Season Finale -                                                                           150                                
PRCFAMCHA140601002937002958000021Web Next Step (HD) Air Quotes - TNS On Demand (Apr                                                                          150                                
PRCFAMCHA140601002958003013000015Family Bumper (HD) - Hot Potato ID (Jan 2011)                                                                               150                                
PGRFAMCHA140601003013005244002231Overruled!                                        EP: 05                                                        C30129 1065607BCC                              
PROFAMCHA140601005244005314000030Episodic DWAB (HD) 218 - New Episode Friday June 1                                                                          150                                
PGRFAMCHA140601005314005741000427MV Non Disney (HD) Megan Nicole - Summer Forever (                                                                     10615120CC                              
PROFAMCHA140601005741005811000030Win Lose or Draw (HD) Gen 2 - New Ep Mon through T                                                                          150                                
PROFAMCHA140601005811005926000115MV Disney (HD) Zendaya - Too Much from Zapped (May                                                                          150                                
PRCFAMCHA140601005926005956000030DXD Grizzly Cup 2014 (HD) Promo 2 CT - Go to Disne                                                                          150                                
PRCFAMCHA140601005956010005000009Family Bumper (HD) - Dragonflies ID (Jan 2011)                                                                              150                                
PGRFAMCHA140601010005012236002231DEBRA!                                            EP: 01                                                        C35763 1065607ACD                              
PRCFAMCHA140601012236012257000021Family Bumper Flex (HD) Garage Band (:17-:21) (Nov                                                                          150                                
PGRFAMCHA140601012257014505002208What's Up, Warthogs!                              EP: 09                                                        B33327 1065607BCC                              
PRCFAMCHA140601014505014526000021Family Bumper Flex (HD) Trampoline (:15-:21) (Mar2                                                                          150                                
PGRFAMCHA140601014526020758002232Disney Wizards of Waverly Place                   EP: 19                                                               6068607BCC                              
PRCFAMCHA140601020758020819000021Family Bumper Flex (HD) Longboard (:19-:21) (Mar20                                                                          150                                
PGRFAMCHA140601020819023050002231Really Me                                         EP: 08                                                        B33828 1065607BCD                              
PRCFAMCHA140601023050023117000027Family Bumper Flex (HD) Flex ID - Austin & Ally (F                                                                          150                                
PGRFAMCHA140601023117025348002231Life with Derek                                   EP: 09                                                        C26822 1065607BCC                              
PRCFAMCHA140601025348025412000024Family Bumper Flex (HD) Bike Trails (:20-:24) (Mar                                                                          150                                
PGRFAMCHA140601025412031614002202Slugterra                                         EP: 23                                                        A33763 1065607ACC                              
PRCFAMCHA140601031614031628000014Family Bumper Flex (HD) Flex ID - Really Me (Apr20                                                                          150                                
PGRFAMCHA140601031628033859002231Overruled!                                        EP: 08                                                        C30129 1065607BCC                              
PRCFAMCHA140601033859033908000009Family Bumper (HD) - Dragonflies ID (Jan 2011)                                                                              150                                
PGRFAMCHA140601033908040143002235The Latest Buzz                                   EP: 15                                                        C30362 1065607BCC                              
PRCFAMCHA140601040143040151000008Family Bumper (HD) - Origami ID (Jan 2011)                                                                                  150                                
PGRFAMCHA140601040151042422002231Life with Derek                                   EP: 08                                                        C23968A1065607BCC                              
PROFAMCHA140601042422042554000132D-JR OOB - Saturday Movies - Every Saturday in Jun                                                                          150                                
PROFAMCHA140601042554042635000041D-JR OOB - Donald's Birthday Stunt - Sunday Jun 8                                                                           150                                
PROFAMCHA140601042635042904000229D-JR Short - Choo Choo Soul - 1-07 (Jul2013)                                                                                150CC                              
PROFAMCHA140601042904042949000045D-JR OOB - Sherriff 113 - New Ep Sunday June 8 @ 1                                                                          150                                
PROFAMCHA140601042949042959000010D-JR - Hero Flex ID - Purple (:06-:10) (Feb2014)                                                                            150                                
OFFFAMCHA140601042959043000000001OFF AIR                                                                                                                                                        
PGRFAMCHA140602043000045231002231The Secret World of Benjamin Bear                 EP: 15                                                        C26066 1065607ECC                              
PROFAMCHA140602045231045238000007D-JR Live Action ID - Franny's Feet - Coming Up (M                                                                          150                                
PROFAMCHA140602045238045303000025D-JR Live Action ID - #28 Clapping Game (Sep2013)                                                                           150                                
PROFAMCHA140602045303045435000132D-JR OOB - Saturday Movies - Every Saturday in Jun                                                                          150                                
PRCFAMCHA140602045435045520000045D-JR Promo - Imagination Movers (HD) Ticket & Tour                                                                          150                                
PROFAMCHA140602045520045545000025D-JR Live Action ID - #13 Make Bed (May2012)                                                                                150                                
PROFAMCHA140602045545045552000007D-JR Live Action ID - Franny's Feet - Now (May2012                                                                          150                                
PROFAMCHA140602045552045607000015D-JR - Daily ID - Monday (Feb2014)                                                                                          150                                
PGRFAMCHA140602045607051839002232Franny's Feet                                     EP: 43                                                        C31292 1065607ECC                              
PROFAMCHA140602051839051846000007D-JR Live Action ID - SWOBB - Coming Up (May2012)                                                                           150                                
PROFAMCHA140602051846051911000025D-JR Live Action ID - #5 Pick A Reading Spot (Sep2                                                                          150                                
PROFAMCHA140602051911051952000041D-JR OOB - Donald's Birthday Stunt - Sunday Jun 8                                                                           150                                
PROFAMCHA140602051952052017000025D-JR Promo - JATNP - Get more on the channel REV (                                                                          150                                
PROFAMCHA140602052017052042000025D-JR Live Action ID - #20 Calendar (May2012)                                                                                150                                
PROFAMCHA140602052042052049000007D-JR Live Action ID - SWOBB - Now (May2012)                                                                                 150                                
PROFAMCHA140602052049052104000015D-JR - Seasonal ID - Summer (Jun 1-Aug 31)                                                                                  150                                
PGRFAMCHA140602052104054335002231The Secret World of Benjamin Bear                 EP: 38                                                        C27272 1065607ECC                              
PROFAMCHA140602054335054342000007D-JR Live Action ID - Harry & His Dinosaurs - Comi                                                                          150                                
PROFAMCHA140602054342054407000025D-JR Live Action ID - #34 Hide N Seek (Sep2013)                                                                             150                                
PROFAMCHA140602054407054422000015D-JR - Monthly ID - June (Jun2014)                                                                                          150                                
PROFAMCHA140602054422054447000025D-JR Live Action ID - #15 Sidewalk Chalk (Sep2013)                                                                          150                                
PROFAMCHA140602054447054454000007D-JR Live Action ID - Harry & His Dinosaurs - Now                                                                           150                                
PGRFAMCHA140602054454060632002138Harry and His Bucket Full of Dinosaurs            EP: 10                                                        B05029 1065607ECC                              
PROFAMCHA140602060632060640000008D-JR Live Action ID - Stella & Sam - Coming Up (Ma                                                                          150                                
PROFAMCHA140602060640060705000025D-JR Live Action ID - #44 Fold Towels (Sept2012)                                                                            150                                
PROFAMCHA140602060705060800000055D-JR OOB - Father's Day Stunt - Sunday June 15 @ 1                                                                          150                                
PROFAMCHA140602060800060830000030D-JR Promo - MMCH - Get more MMCH on D-JR the chan                                                                          150                                
PROFAMCHA140602060830060922000052D-JR Promo - Doc McStuffins - Get more on the chan                                                                          150                                
PROFAMCHA140602060922060947000025D-JR Live Action ID - #11 Counting Goldfish (Sep20                                                                          150                                
PROFAMCHA140602060947060955000008D-JR Live Action ID - Stella & Sam - Now (Mar2013)                                                                          150                                
PROFAMCHA140602060955061005000010D-JR - Hero Flex ID - Yellow (:06-:10) (Feb2014)                                                                            150                                
PGRFAMCHA140602061005063321002316Stella and Sam                                    EP: 08                                                        C32553 1065607ECD                              
PRCFAMCHA140602063321063359000038BTS Concert 2013 (HD) Rebroadcast Tomorrow @ 730 (                                                                          150                                
PRCFAMCHA140602063359063417000018Family Bumper Flex (HD) Flip Book (:15-:18) (Nov 2                                                                          150                                
PROFAMCHA140602063417063432000015ANT Farm (HD) Refresh CT - Coming Up Next (April 2                                                                          150                                
PROFAMCHA140602063432063502000030Episodic PAF (HD) 421 - New Ep Friday June 13 @ 73                                                                          150                                
PGRFAMCHA140602063502065804002302Disney A.N.T. Farm                                EP: 13                                                               6068607BCC                              
PRCFAMCHA140602065804065826000022Episodic Next Step (HD) 217 - Mid Season Finale -                                                                           150                                
PROFAMCHA140602065826065906000040Kellogg's                                                                                                                   150                                
PRCFAMCHA140602065906065914000008Family Bumper (HD) - Origami ID (Jan 2011)                                                                                  150                                
PROFAMCHA140602065914065944000030Shake It Up (HD) Flynn Sell - Coming Up Next (Jun2                                                                          150                                
PRCFAMCHA140602065944070001000017BTS Concert 2014 (HD) Tease - This Summer (May19-J                                                                          150                                
PGRFAMCHA140602070001072235002234Disney Shake It Up                                EP: 04                                                               6068707BCC                              
PRCFAMCHA140602072235072313000038BTS Concert 2013 (HD) Rebroadcast Tomorrow @ 730 (                                                                          150                                
PRCFAMCHA140602072313072343000030DXD Grizzly Cup 2014 (HD) Promo 2 CT - Go to Disne                                                                          150                                
PRCFAMCHA140602072343072352000009Family Bumper (HD) - Dragonflies ID (Jan 2011)                                                                              150                                
PROFAMCHA140602072352072422000030Austin & Ally (HD) Generic - Coming up Next (May20                                                                          150                                
PROFAMCHA140602072422072505000043Mickey Mouse Shorts Promo (HD) New This Friday Aft                                                                          150                                
PGRFAMCHA140602072505074736002231Disney Austin & Ally                              EP: 24                                                               6068807BCC                              
PGRFAMCHA140602074736074921000145ME (HD) Maleficent - Story 2 - Now Playing (May 30                                                                     10615120CC                              
PSAFAMCHA140602074921074951000030MOHL PSA (HD) The Chase (Jun2-8)                                                                                       6    130                                
PRCFAMCHA140602074951075009000018Family Bumper Flex (HD) Flex ID - ANT Farm (:16-:2                                                                          150                                
PRCFAMCHA140602075009075035000026Jessie (HD) Clip Promo - Coming Up Next (Oct2013)                                                                           150                                
PROFAMCHA140602075035075105000030Episodic DWAB (HD) 218 - New Episode Friday June 1                                                                          150                                
PGRFAMCHA140602075105081339002234Disney Jessie                                     EP: 24                                                               6068807BCC                              
PGRFAMCHA140602081339081502000123Int Hangin' With  (HD) Megan Nicole (May31-Jun6)                                                                       10618120                                
PROFAMCHA140602081502081521000019WOWP (HD) Clip Bad Time - Coming Up Next (April 20                                                                          150                                
PROFAMCHA140602081521081551000030Episodic PAF (HD) 421 - New Ep Friday June 13 @ 73                                                                          150                                
PROFAMCHA14060208155108164100005020th Century Fox                                                                                                            150                                
PRCFAMCHA140602081641081719000038BTS Concert 2013 (HD) Rebroadcast Tomorrow @ 730 (                                                                          150                                
PRCFAMCHA140602081719081741000022Family Bumper Flex (HD) Fifteen Logos (:21-:22) (N                                                                          150                                
PRCFAMCHA140602081741081803000022Episodic Next Step (HD) 217 - Mid Season Finale -                                                                           150                                
PGRFAMCHA140602081803084036002233Disney Wizards of Waverly Place                   EP: 18                                                               6068607BCC                              
PROFAMCHA140602084036084044000008D-JR Live Action ID - Tickity Toc - Coming Up (Mar                                                                          150                                
PROFAMCHA140602084044084109000025D-JR Live Action ID - #92 Getting Ready to Go Outs                                                                          150                                
PROFAMCHA140602084109084241000132D-JR OOB - Saturday Movies - Every Saturday in Jun                                                                          150                                
PROFAMCHA140602084241084330000049D-JR Promo - Strawberry Shortcake - Get More on th                                                                          150                                
PROFAMCHA140602084330084415000045D-JR Promo - Sheriff Callie - Weekends @ 1130 on D                                                                          150                                
PROFAMCHA140602084415084440000025D-JR Live Action ID - #65 Putting Toys Away (Sept2                                                                          150                                
PROFAMCHA140602084440084448000008D-JR Live Action ID - Tickity Toc - Now (Mar2013)                                                                           150                                
PROFAMCHA140602084448084458000010D-JR - Hero Flex ID - Blue (:06-:10) (Feb2014)                                                                              150                                
PGRFAMCHA140602084458085602001104Tickety Toc                                       EP: 35                                                               3068605ACC                              
PGRFAMCHA140602085602090707001105Tickety Toc                                       EP: 37                                                               3068605ACC                              
PROFAMCHA140602090707090715000008D-JR Live Action ID - Little Einsteins - Coming Up                                                                          150                                
PROFAMCHA140602090715090740000025D-JR Live Action ID - #9 Ride A Bike (Sep2013)                                                                              150                                
PROFAMCHA140602090740090835000055D-JR OOB - Father's Day Stunt - Sunday June 15 @ 1                                                                          150                                
PROFAMCHA140602090835090935000100D-JR Promo - Tickety Toc - Racing The Clock - Get                                                                           150                                
PRCFAMCHA140602090935091020000045D-JR Promo - Imagination Movers (HD) Ticket & Tour                                                                          150                                
PROFAMCHA140602091020091045000025D-JR Live Action ID - #47 Making Breakfast (May201                                                                          150                                
PROFAMCHA140602091045091053000008D-JR Live Action ID - Little Einsteins - Now (Nov2                                                                          150                                
PROFAMCHA140602091053091103000010D-JR - Hero Flex ID - Green (:06-:10) (Feb2014)                                                                             150                                
PGRFAMCHA140602091103093509002406Disney's Little Einsteins                         EP: 23                                                               6068605ACC                              
PROFAMCHA140602093509093516000007D-JR Live Action ID - Handy Manny - Coming Up (May                                                                          150                                
PROFAMCHA140602093516093541000025D-JR Live Action ID - #96 Piano (Sep2013)                                                                                   150                                
PROFAMCHA140602093541093622000041D-JR OOB - Donald's Birthday Stunt - Sunday Jun 8                                                                           150                                
PROFAMCHA140602093622093647000025D-JR Live Action ID - #71 Making Cards (Sept2012)                                                                           150                                
PROFAMCHA140602093647093654000007D-JR Live Action ID - Handy Manny - Now (May2012)                                                                           150                                
PROFAMCHA140602093654093709000015D-JR - Daily ID - Monday (Feb2014)                                                                                          150                                
PGRFAMCHA140602093709100109002400Handy Manny                                       EP: 34                                                               6068605ACC                              
PROFAMCHA140602100109100117000008D-JR Live Action ID - Jake & the Never Land Pirate                                                                          150                                
PROFAMCHA140602100117100142000025D-JR Live Action ID - #90 Freeze Dance (Sep2013)                                                                            150                                
PROFAMCHA140602100142100227000045D-JR OOB - Sherriff 113 - New Ep Sunday June 8 @ 1                                                                          150                                
PROFAMCHA140602100227100317000050D-JR Promo - Henry Hugglemonster - Get more HH on                                                                           150                                
PROFAMCHA140602100317100342000025D-JR Live Action ID - #64 Pick Up Room/Turn off Li                                                                          150                                
PROFAMCHA140602100342100349000007D-JR Live Action ID - Jake & the Never Land Pirate                                                                          150                                
PROFAMCHA140602100349100404000015D-JR - Seasonal ID - Summer (Jun 1-Aug 31)                                                                                  150                                
PGRFAMCHA140602100404102809002405Disney Jake and the Never Land Pirates            EP: 24                                                               6068605ACC                              
PROFAMCHA140602102809102817000008D-JR Live Action ID - Sofia the First - Coming Up                                                                           150                                
PROFAMCHA140602102817102842000025D-JR Live Action ID - #50 Feed Dog (Sep2013)                                                                                150                                
PROFAMCHA140602102842102912000030D-JR Promo - MMCH - Get more MMCH on D-JR the chan                                                                          150                                
PROFAMCHA140602102912102937000025D-JR Live Action ID - # Learning Hot and Cold (Oct                                                                          150                                
PROFAMCHA140602102937102945000008D-JR Live Action ID - Sofia the First - Now (Jan20                                                                          150                                
PROFAMCHA140602102945103000000015D-JR - Monthly ID - June (Jun2014)                                                                                          150                                
PGRFAMCHA140602103000105203002203Disney Sofia the First                            EP: 15                                                               6068605ACC                              
PGRFAMCHA140602105203105630000427MV Non Disney (HD) Megan Nicole - Summer Forever (                                                                     10615120CC                              
PROFAMCHA140602105630105645000015ANT Farm (HD) Refresh CT - Coming Up Next (April 2                                                                          150                                
PROFAMCHA140602105645105711000026Web IDDI @ family.ca (HD) Play Games at family.ca/                                                                          150                                
PROFAMCHA140602105711105741000030Episodic PAF (HD) 421 - New Ep Friday June 13 @ 73                                                                          150                                
PRCFAMCHA140602105741105805000024Family Bumper Flex (HD) Bike Trails (:20-:24) (Mar                                                                          150                                
PROFAMCHA140602105805105835000030Win Lose or Draw (HD) Gen 2 - New Ep Tonight @ 7pm                                                                          150                                
PRCFAMCHA140602105835105852000017BTS Concert 2014 (HD) Tease - This Summer (May19-J                                                                          150                                
PROFAMCHA140602105852105934000042ANT Farm Refresh 2014 (HD) Coming Up Next (Mar2014                                                                          150                                
PROFAMCHA140602105934110019000045Zapped (HD) App Sell - Prems Friday June 27 @ 8 (M                                                                          150                                
PGRFAMCHA140602110019112235002216Disney A.N.T. Farm                                EP: 12                                                               6068607BCC                              
PGRFAMCHA140602112235112620000345MV Non Disney (HD) Crystalyne - Punks Don't Dance                                                                      10615120CC                              
PROFAMCHA140602112620112701000041Jessie (HD) Imposter Nanny - Coming up next (May20                                                                          150                                
PROFAMCHA140602112701112741000040Kellogg's                                                                                                                   150                                
PROFAMCHA140602112741112811000030Episodic DWAB (HD) 218 - New Episode Friday June 1                                                                          150                                
PRCFAMCHA140602112811112840000029Family Bumper Flex (HD) Flex ID - Austin & Ally (F                                                                          150                                
PRCFAMCHA140602112840112918000038BTS Concert 2013 (HD) Rebroadcast Tomorrow @ 730 (                                                                          150                                
PROFAMCHA140602112918112948000030Jessie (HD) Generic - Coming up Next (May2014)                                                                              150                                
PRCFAMCHA140602112948113010000022Episodic Next Step (HD) 217 - Mid Season Finale -                                                                           150                                
PGRFAMCHA140602113010115245002235Disney Jessie                                     EP: 23                                                               6068807BCC                              
PGRFAMCHA140602115245115430000145ME (HD) Train Your Dragon 2 - In theaters June 13                                                                      10615120CC                              
PROFAMCHA140602115430115508000038Wingin It (HD) Refresh Promo - Coming Up Next (Apr                                                                          150                                
PGRFAMCHA140602115508115638000130MOHL (HD) Food Segment #2 - family.ca/healthy-me-w                                                                     60688120                                
PROFAMCHA140602115638115708000030LAM Generic (HD) - right here on family (May2014)                                                                           150                                
PRCFAMCHA140602115708115750000042DXD Grizzly Cup 2014 (HD) Promo 2 - Go to DisneyXD                                                                          150                                
PRCFAMCHA140602115750115758000008Family Bumper (HD) - Origami ID (Jan 2011)                                                                                  150                                
PROFAMCHA140602115758115830000032D-JR OOB - Sofia 205 -  New Ep Sunday June 15 @ 11                                                                          150                                
PROFAMCHA140602115830115913000043Mickey Mouse Shorts Promo (HD) New This Friday Aft                                                                          150                                
PROFAMCHA140602115913115951000038Wingin It (HD) Refresh Promo - Coming Up Next (Apr                                                                          150                                
PROFAMCHA140602115951120021000030Win Lose or Draw (HD) Gen 2 - New Ep Tonight @ 7pm                                                                          150                                
PGRFAMCHA140602120021122251002230Wingin' It                                        EP: 13                                                        C32356 1065607ACD                              
PGRFAMCHA140602122251122421000130MV Lift (HD) RDMA Austin Mahone - Mmm Yeah (May 9-                                                                     60685120CC                              
PROFAMCHA140602122421122440000019WOWP (HD) Clip Bad Time - Coming Up Next (April 20                                                                          150                                
PROFAMCHA140602122440122525000045Zapped (HD) App Sell - Prems Friday June 27 @ 8 (M                                                                          150                                
PROFAMCHA140602122525122624000059Nintendo                                                                                                                    150                                
PROFAMCHA140602122624122644000020IDDI (HD) Refresh - Only On Family (May2014)                                                                                150                                
PGRFAMCHA140602122644122829000145ME (HD) Maleficent Story 1 - Now Playing (May 30 -                                                                     10615120CC                              
PRCFAMCHA140602122829122847000018Family Bumper Flex (HD) Flex ID - ANT Farm (:16-:2                                                                          150                                
PRCFAMCHA140602122847122925000038BTS Concert 2013 (HD) Rebroadcast Tomorrow @ 730 (                                                                          150                                
PROFAMCHA140602122925122948000023WOWP (HD) Harper - Coming Up Next (April 2013)                                                                              150                                
PROFAMCHA140602122948123018000030Episodic PAF (HD) 421 - New Ep Friday June 13 @ 73                                                                          150                                
PGRFAMCHA140602123018125249002231Disney Wizards of Waverly Place                   EP: 16                                                               6068607BCC                              
PGRFAMCHA140602125249125415000126MOHL (HD) Food Segment #1 - family.ca/healthy-me-w                                                                     60688120                                
PROFAMCHA140602125415125434000019WOWP (HD) Clip Bad Time - Coming Up Next (April 20                                                                          150                                
PROFAMCHA140602125434125449000015Web Jessie Online Game (HD) Play Games at family.c                                                                          150                                
PROFAMCHA140602125449125519000030Episodic DWAB (HD) 218 - New Episode Friday June 1                                                                          150                                
PRCFAMCHA140602125519125536000017BTS Concert 2014 (HD) Tease - This Summer (May19-J                                                                          150                                
PROFAMCHA140602125536125621000045D-JR OOB - Sherriff 113 - New Ep Sunday June 8 @ 1                                                                          150                                
