OFFFAMCHA000301043000060000013000                                                                                                                                                               
SO FAMCHA000301060000060011000011Sign On (oct 1)                                                                                                                                                
PROFAMCHA000301060011060016000005CC Disclaimer (oct) **DO NOT USE**                                                                                                                             
PGRFAMCHA000301060016062416002400Hello Mrs. Cherrywinkle                           No Laughing Matter                                            B18873A1065607ACC                              
ID FAMCHA000301062416062426000010Generic ID - Bubbles                                                                                                                                           
PRCFAMCHA000301062426062436000010Morning Block menu background (flex time)                                                                                                                      
PROFAMCHA000301062436062521000045Robin Hood - Saturday @ 8pm                                                                                                                                    
PROFAMCHA000301062521062600000039Goof Troop - Today @ 3pm                                                                                                                                       
PGRFAMCHA000301062600062840000240Art Attack - Baggage Plane                                                                                             60688130                                
PRCFAMCHA000301062840062910000030Franklin-generic on family (oct 1)                                                                                                                             
PROFAMCHA000301062910062940000030Up, Up and Away (MAR) - Saturday @ 9:30pm                                                                                                                      
ID FAMCHA000301062940063000000020Morning block open play pen                                                                                                                                    
PROFAMCHA000301063000063005000005CC Disclaimer (oct) **DO NOT USE**                                                                                                                             
PGRFAMCHA000301063005065415002410Busy World Of Richard Scarry; The                 Fun Time Riddle Race                                          P24308A1165607ECC                              
ID FAMCHA000301065415065420000005Generic ID - Bubbles                                                                                                                                           
PRCFAMCHA000301065420065430000010Morning Block menu background (flex time)                                                                                                                      
PROFAMCHA000301065430065500000030Up, Up and Away (MAR) - Saturday @ 9:30pm                                                                                                                      
PROFAMCHA000301065500065530000030Out of The Box - Monday, Wednesday, and Friday @ 1                                                                                                             
PGRFAMCHA000301065530065725000155Disney Moments - Peter Pan-You Can Fly                                                                                 60688130                                
PRCFAMCHA000301065725065800000035Little Lulu Show; The - Saturday @ 6:30pm (oct1)                                                                                                               
PROFAMCHA000301065800065905000105Adventures of Gummi Bears-Next on Family (oct)                                                                                                                 
PROFAMCHA000301065905065950000045Robin Hood - Saturday @ 8pm                                                                                                                                    
ID FAMCHA000301065950070000000010Presentation bumper - Magic of Disney                                                                                                                          
PROFAMCHA000301070000070005000005CC Disclaimer (oct) **DO NOT USE**                                                                                                                             
PGRFAMCHA000301070005072245002240Adventures of the Gummi Bears; The                For Whom The Spell Holds                                             6068607ECC                              
ID FAMCHA000301072245072300000015Generic ID - confetti                                                                                                                                          
PRCFAMCHA000301072300072310000010Morning Block menu background (flex time)                                                                                                                      
PROFAMCHA000301072310072355000045Robin Hood - Saturday @ 8pm                                                                                                                                    
PRCFAMCHA000301072355072430000035Little Lulu Show; The - Generic on Family (oct1)                                                                                                               
PGRFAMCHA000301072430072810000340Art Attack - Tape Batman                                                                                               60686130                                
PROFAMCHA000301072810072840000030Madeline - 8:30am on Saturday (oct)                                                                                                                            
PRCFAMCHA000301072840072910000030Franklin-next (oct 1)                                                                                                                                          
PROFAMCHA000301072910072940000030Up, Up and Away (MAR) - Saturday @ 9:30pm                                                                                                                      
ID FAMCHA000301072940073000000020Morning block open play pen                                                                                                                                    
PROFAMCHA000301073000073005000005CC Disclaimer (oct) **DO NOT USE**                                                                                                                             
PGRFAMCHA000301073005075258002253Franklin                                          Franklin's Birthday Party/Franklin's Nickname                 B13647 1065607ECC                              
ID FAMCHA000301075258075308000010Generic ID - confetti                                                                                                                                          
PRCFAMCHA000301075308075315000007Morning Block menu background (flex time)                                                                                                                      
PROFAMCHA000301075315075345000030Up, Up and Away (MAR) - Saturday @ 9:30pm                                                                                                                      
PROFAMCHA000301075345075430000045PB&J Otter - Mon, Wed & Fri @ 8:30am (oct 1)                                                                                                                   
PGRFAMCHA000301075430075840000410MV Disney - Colours of the wind (oct 1)                                                                                60688130                                
PROFAMCHA000301075840075855000015Doug - Today @ 5:00pm (oct1)                                                                                                                                   
PROFAMCHA000301075855075940000045Robin Hood - Saturday @ 8pm                                                                                                                                    
ID FAMCHA000301075940080000000020Morning block open play pen                                                                                                                                    
PGRFAMCHA000301080000081959001959Art Attack                                        1-058                                                                60686110                                
ID FAMCHA000301081959082014000015Interactive bumper w/URL                                                                                                                                       
ID FAMCHA000301082014082019000005Generic ID - Couch 1                                                                                                                                           
PRCFAMCHA000301082019082030000011Morning Block menu background (flex time)                                                                                                                      
PROFAMCHA000301082030082115000045Robin Hood - Saturday @ 8pm                                                                                                                                    
PROFAMCHA000301082115082142000027Recess - Today @ 5:30 pm (oct1)                                                                                                                                
PROFAMCHA000301082142082247000105Adventures of Gummi Bears-On Family (oct)                                                                                                                      
PGRFAMCHA000301082247082756000509Plasmo #3                                                                                                              70688130                                
PROFAMCHA000301082756082835000039Goof Troop - Today @ 3pm                                                                                                                                       
PROFAMCHA000301082835082905000030Up, Up and Away (MAR) - Saturday @ 9:30pm                                                                                                                      
PROFAMCHA000301082905083000000055Generic Series Promo - Celebrate the Day w/Family                                                                                                              
PROFAMCHA000301083000083005000005CC Disclaimer (oct) **DO NOT USE**                                                                                                                             
PGRFAMCHA000301083005085335002330PB&J Otter                                        Gotta Dance/Otter Pox                                               A6068607ECC                              
ID FAMCHA000301085335085340000005Generic ID - Couch 2                                                                                                                                           
PRCFAMCHA000301085340085350000010Morning Block menu background (flex time)                                                                                                                      
PROFAMCHA000301085350085405000015Disney's One Too - today @ 4:30 (Oct 1)                                                                                                                        
PROFAMCHA000301085405085500000055Generic Series Promo - Celebrate the Day w/Family                                                                                                              
PROFAMCHA000301085500085505000005CC Disclaimer (oct) **DO NOT USE**                                                                                                                             
PGRFAMCHA000301085505091819002314Babar                                             Helping Hands                                                 C07575 1065607ECC                              
ID FAMCHA000301091819091829000010Generic ID - Family w/dog                                                                                                                                      
PRCFAMCHA000301091829091838000009Morning Block menu background (flex time)                                                                                                                      
PROFAMCHA000301091838091905000027Recess - Today @ 5:30 pm (oct1)                                                                                                                                
PROFAMCHA000301091905092000000055Generic Series Promo - Celebrate the Day w/Family                                                                                                              
PROFAMCHA000301092000092005000005CC Disclaimer (oct) **DO NOT USE**                                                                                                                             
PGRFAMCHA000301092005094640002635Katie And Orbie                                   Made To Order Pancakes/Chicken Pox Party/No Chance            C11896 1065607ECC                              
ID FAMCHA000301094640094655000015Generic ID - confetti                                                                                                                                          
PRCFAMCHA000301094655094705000010Morning Block menu background (flex time)                                                                                                                      
PROFAMCHA000301094705094800000055Generic Series Promo - Celebrate the Day w/Family                                                                                                              
PROFAMCHA000301094800094805000005CC Disclaimer (oct) **DO NOT USE**                                                                                                                             
PGRFAMCHA000301094805101222002417Billy The Cat                                     The Cat That Couldn't Meow                                    B27638A1065607ECC                              
ID FAMCHA000301101222101227000005Generic ID - Fingerpaint                                                                                                                                       
PRCFAMCHA000301101227101235000008Morning Block menu background (flex time)                                                                                                                      
PROFAMCHA000301101235101305000030Adventures of Pete & Pete - Premieres Tonight @ 6p                                                                                                             
PROFAMCHA000301101305101400000055Generic Series Promo - Celebrate the Day w/Family                                                                                                              
PROFAMCHA000301101400101405000005CC Disclaimer (oct) **DO NOT USE**                                                                                                                             
PGRFAMCHA000301101405103815002410Busy World Of Richard Scarry; The                 Don't Close The Amusement Park                                P24309A1165607ECC                              
ID FAMCHA000301103815103825000010Generic ID - Hula Hoop                                                                                                                                         
PRCFAMCHA000301103825103835000010Morning Block menu background (flex time)                                                                                                                      
PROFAMCHA000301103835103905000030Adventures of Pete & Pete - Premieres Tonight @ 6p                                                                                                             
PROFAMCHA000301103905104000000055Generic Series Promo - Celebrate the Day w/Family                                                                                                              
PGRFAMCHA000301104000110000002000Art Attack                                        1-061                                                                60686110                                
ID FAMCHA000301110000110005000005Generic ID - Marbles                                                                                                                                           
PRCFAMCHA000301110005110013000008Morning Block menu background (flex time)                                                                                                                      
PROFAMCHA000301110013110043000030Crash Zone - Saturday @10 am                                                                                                                                   
PROFAMCHA000301110043110105000022Disney's One Too - Today @ 4:30 (Oct 1)                                                                                                                        
PROFAMCHA000301110105110200000055Generic Series Promo - Celebrate the Day w/Family                                                                                                              
PGRFAMCHA000301110200112421002221Out of the Box                                    Scrub a Dub                                                          60686110CC                              
ID FAMCHA000301112421112436000015Interactive bumper w/URL                                                                                                                                       
ID FAMCHA000301112436112446000010Generic ID - Pink inner tube                                                                                                                                   
PRCFAMCHA000301112446112458000012Morning Block menu background (flex time)                                                                                                                      
PROFAMCHA000301112458112520000022Hercules - Today @ 4:30 pm (oct 1)                                                                                                                             
PROFAMCHA000301112520112605000045Robin Hood - Saturday @ 8pm                                                                                                                                    
PROFAMCHA000301112605112700000055Generic Series Promo - Celebrate the Day w/Family                                                                                                              
PROFAMCHA000301112700112705000005CC Disclaimer (oct) **DO NOT USE**                                                                                                                             
PGRFAMCHA000301112705115106002401Space Cases                                       We Gotta Get Out Of This Place                                B02573 1165607BCC                              
ID FAMCHA000301115106115116000010Generic ID - Ring around the rosie                                                                                                                             
PRCFAMCHA000301115116115125000009Morning Block menu background (flex time)                                                                                                                      
PROFAMCHA000301115125115210000045Robin Hood - Saturday @ 8pm                                                                                                                                    
PRCFAMCHA000301115210115240000030Gadget Boy - Saturday @ 9am                                                                                                                                    
PROFAMCHA000301115240115257000017Hercules - Today @ 4:30 pm (Oct 1)                                                                                                                             
PGRFAMCHA000301115257115806000509Plasmo #11                                                                                                             70688130                                
PROFAMCHA000301115806115845000039Goof Troop - Today @ 3pm                                                                                                                                       
PROFAMCHA000301115845115920000035Lion King's Timon & Pumbaa - next (OCT 1)                                                                                                                      
PROFAMCHA000301115920115950000030Up, Up and Away (MAR) - Saturday @ 9:30pm                                                                                                                      
ID FAMCHA000301115950120000000010Presentation bumper - Magic of Disney                                                                                                                          
PROFAMCHA000301120000120005000005CC Disclaimer (oct) **DO NOT USE**                                                                                                                             
PGRFAMCHA000301120005122250002245Lion King's Timon & Pumbaa; The                   So Sumo Me/Now Museum, Now You Don't                                 6068607E                                
ID FAMCHA000301122250122300000010Generic ID - soccer **DO NOT USE**                                                                                                                             
PRCFAMCHA000301122300122313000013Morning Block menu background (flex time)                                                                                                                      
PROFAMCHA000301122313122343000030Up, Up and Away (MAR) - Saturday @ 9:30pm                                                                                                                      
PROFAMCHA000301122343122400000017Mentors - Version 2 - Friday @ 6pm                                                                                                                             
PROFAMCHA000301122400122445000045Robin Hood - Saturday @ 8pm                                                                                                                                    
ID FAMCHA000301122445122500000015Afternoon block pinball open **DO NOT USE**                                                                                                                    
PROFAMCHA000301122500122505000005CC Disclaimer (oct) **DO NOT USE**                                                                                                                             
PGRFAMCHA000301122505124826002321Flash Forward                                     A Fresh Start All Over Again                                  P21273 1065607ACC                              
ID FAMCHA000301124826124831000005Generic ID - soccer **DO NOT USE**                                                                                                                             
PRCFAMCHA000301124831124842000011Morning Block menu background (flex time)                                                                                                                      
PRCFAMCHA000301124842124915000033Hoze Houndz - Saturday @ 7:00pm                                                                                                                                
PROFAMCHA000301124915124945000030Up, Up and Away (MAR) - Saturday @ 9:30pm                                                                                                                      
ID FAMCHA000301124945125000000015Afternoon block pinball open **DO NOT USE**                                                                                                                    
PGRFAMCHA000301125000131407002407Clarissa                                          Janet & Clarissa Inc.                                                2068607B                                
ID FAMCHA000301131407131417000010Generic ID - Hula Hoop                                                                                                                                         
PRCFAMCHA000301131417131430000013Morning Block menu background (flex time)                                                                                                                      
PROFAMCHA000301131430131500000030Up, Up and Away (MAR) - Saturday @ 9:30pm                                                                                                                      
PROFAMCHA000301131500131545000045Robin Hood - Saturday @ 8pm                                                                                                                                    
ID FAMCHA000301131545131600000015Afternoon block pinball open **DO NOT USE**                                                                                                                    
PROFAMCHA000301131600131605000005CC Disclaimer (oct) **DO NOT USE**                                                                                                                             
PGRFAMCHA000301131605133937002332Little Lulu Show; The                             Polly Patrol/Money Problems                                   A20192A1055607ECC3                             
ID FAMCHA000301133937133942000005Generic ID - soccer **DO NOT USE**                                                                                                                             
PRCFAMCHA000301133942133952000010Morning Block menu background (flex time)                                                                                                                      
PROFAMCHA000301133952134022000030Boy Who Could Fly - Friday @ 8pm                                                                                                                               
PRCFAMCHA000301134022134110000048Ripley's BION - Saturday @ 11am (MAR)                                                                                                                          
PROFAMCHA000301134110134145000035Don't Look Under The Bed - Friday @ 10pm                                                                                                                       
ID FAMCHA000301134145134200000015Afternoon block pinball open **DO NOT USE**                                                                                                                    
PROFAMCHA000301134200134205000005CC Disclaimer (oct) **DO NOT USE**                                                                                                                             
PGRFAMCHA000301134205140458002253Franklin                                          Franklin's Test/Franklin & the Duckling                       B13652 1065607ECC                              
ID FAMCHA000301140458140513000015Interactive bumper w/URL                                                                                                                                       
ID FAMCHA000301140513140518000005Generic ID - Bubbles                                                                                                                                           
PRCFAMCHA000301140518140528000010Morning Block menu background (flex time)                                                                                                                      
PROFAMCHA000301140528140540000012Mentors - Version 3 - Friday @ 6pm                                                                                                                             
PROFAMCHA000301140540140615000035Adventures of Pete & Pete - Premieres Tonight @ 6p                                                                                                             
PROFAMCHA000301140615140645000030Boy Who Could Fly - Friday @ 8pm                                                                                                                               
ID FAMCHA000301140645140700000015Afternoon block pinball open **DO NOT USE**                                                                                                                    
PGRFAMCHA000301140700142656001956Art Attack                                        1-062                                                                60686110                                
ID FAMCHA000301142656142711000015Generic ID - confetti                                                                                                                                          
PRCFAMCHA000301142711142721000010Morning Block menu background (flex time)                                                                                                                      
PROFAMCHA000301142721142745000024So Weird - Friday @ 7:00 pm (Oct 1)                                                                                                                            
PROFAMCHA000301142745142815000030Crash Zone - Saturday @10 am                                                                                                                                   
PROFAMCHA000301142815142850000035Don't Look Under The Bed - Friday @ 10pm                                                                                                                       
ID FAMCHA000301142850142900000010Presentation bumper - Magic of Disney                                                                                                                          
PROFAMCHA000301142900142905000005CC Disclaimer (oct) **DO NOT USE**                                                                                                                             
PGRFAMCHA000301142905145149002244Darkwing Duck                                     Battle Of The Brainteasers                                           6068607ECC                              
ID FAMCHA000301145149145159000010Generic ID - confetti                                                                                                                                          
PRCFAMCHA000301145159145208000009Morning Block menu background (flex time)                                                                                                                      
PROFAMCHA000301145208145243000035Don't Look Under The Bed - Friday @ 10pm                                                                                                                       
PROFAMCHA000301145243145318000035Adventures of Pete & Pete - Premieres Tonight @ 6p                                                                                                             
PROFAMCHA000301145318145410000052Great African Wildlife Rescue - Sunday at 2pm on F                                                                                                             
PGRFAMCHA000301145410145730000320MV Disney - Remember the magic (oct 1)                                                                                 60688130                                
PROFAMCHA000301145730145811000041Honey I Shrunk the Kids (series oct) Mon & Thurs @                                                                                                             
PROFAMCHA000301145811145841000030Adventures of Pete & Pete - Premieres Tonight @ 6p                                                                                                             
PROFAMCHA000301145841145920000039Goof Troop - Next                                                                                                                                              
PROFAMCHA000301145920145950000030Boy Who Could Fly - Friday @ 8pm                                                                                                                               
ID FAMCHA000301145950150000000010Presentation bumper - Magic of Disney                                                                                                                          
PROFAMCHA000301150000150005000005CC Disclaimer (oct) **DO NOT USE**                                                                                                                             
PGRFAMCHA000301150005152249002244Goof Troop                                        Queasy Rider                                                         6068607ECC                              
ID FAMCHA000301152249152304000015Interactive bumper w/URL                                                                                                                                       
ID FAMCHA000301152304152309000005Generic ID - Couch 1                                                                                                                                           
PRCFAMCHA000301152309152316000007Morning Block menu background (flex time)                                                                                                                      
PROFAMCHA000301152316152346000030Boy Who Could Fly - Friday @ 8pm                                                                                                                               
PROFAMCHA000301152346152408000022Hercules - Today @ 4:30 pm (oct 1)                                                                                                                             
PGRFAMCHA000301152408152842000434MV Disney - A Dream is a Wish Your Heart Makes (oc                                                                     60688130                                
PRCFAMCHA000301152842152915000033Hoze Houndz - Saturday @ 7:00pm                                                                                                                                
PROFAMCHA000301152915152950000035Don't Look Under The Bed - Friday @ 10pm                                                                                                                       
ID FAMCHA000301152950153000000010Presentation bumper - Magic of Disney                                                                                                                          
PROFAMCHA000301153000153005000005CC Disclaimer (oct) **DO NOT USE**                                                                                                                             
PGRFAMCHA000301153005155247002242Disney's Aladdin                                  Night Of The Living Mud                                              6068607ECC                              
ID FAMCHA000301155247155252000005Generic ID - Couch 2                                                                                                                                           
PRCFAMCHA000301155252155301000009Morning Block menu background (flex time)                                                                                                                      
PROFAMCHA000301155301155336000035Don't Look Under The Bed - Friday @ 10pm                                                                                                                       
PRCFAMCHA000301155336155358000022Mentors - Version 1 - Friday @ 6pm                                                                                                                             
PGRFAMCHA000301155358155800000402MV Disney - A Whole New World (oct)                                                                                    60688130                                
PROFAMCHA000301155800155845000045Adventures of Pete & Pete - Premieres Tonight @ 6p                                                                                                             
PROFAMCHA000301155845155920000035Lion King's Timon & Pumbaa - next (OCT 1)                                                                                                                      
PROFAMCHA000301155920155950000030Boy Who Could Fly - Friday @ 8pm                                                                                                                               
ID FAMCHA000301155950160000000010Presentation bumper - Magic of Disney                                                                                                                          
PGRFAMCHA000301160000162243002243Lion King's Timon & Pumbaa; The                   Visiting Pignitaries/The Truth About Kats and Hogs                   6068607E                                
ID FAMCHA000301162243162253000010Generic ID - Family w/dog                                                                                                                                      
PROFAMCHA000301162253162323000030Boy Who Could Fly - Friday @ 8pm                                                                                                                               
PROFAMCHA000301162323162345000022Disney's One Too - Next (Oct 1)                                                                                                                                
PROFAMCHA000301162345162415000030Adventures of Pete & Pete - Premieres Tonight @ 6p                                                                                                             
PRCFAMCHA000301162415162449000034Misguided Angels-Monday and Thursday @ 6:45pm (oct                                                                                                             
PGRFAMCHA000301162449162823000334MV Disney - Forever and ever (preschool)                                                                               60688130                                
PROFAMCHA000301162823162853000030Adventures of Pete & Pete - Premieres Tonight @ 6p                                                                                                             
PROFAMCHA000301162853162915000022Hercules - Next (oct 1)*                                                                                                                                       
PROFAMCHA000301162915162950000035Don't Look Under The Bed - Friday @ 10pm                                                                                                                       
ID FAMCHA000301162950163000000010Presentation bumper - Magic of Disney                                                                                                                          
PROFAMCHA000301163000163030000030Disney's One Too - Opening                                                                                                                                     
PGRFAMCHA000301163030165324002254Disney's Hercules                                 Hercules And The Kids                                                6068607ECC                              
ID FAMCHA000301165324165329000005Generic ID - Fingerpaint                                                                                                                                       
PRCFAMCHA000301165329165341000012Morning Block menu background (flex time)                                                                                                                      
PROFAMCHA000301165341165416000035Don't Look Under The Bed - Friday @ 10pm                                                                                                                       
PROFAMCHA000301165416165508000052Great African Wildlife Rescue - Sunday at 2pm on F                                                                                                             
PROFAMCHA000301165508165520000012Mentors - Version 3 - Friday @ 6pm                                                                                                                             
PGRFAMCHA000301165520165541000021Doug Sketches - Doug Opens the Door (includes blac                                                                     60686130                                
PGRFAMCHA000301165541165703000122Disney Dinner Time(03)- Tecumseh (D12 only)                                                                            60686130                                
PGRFAMCHA000301165703165724000021Doug Sketches - Skeeter's Fun Science Facts - Frog                                                                     60686130                                
PGRFAMCHA000301165724165754000030Disney Magic Drawings(05)- Goofy (D12 only)                                                                            60686130                                
PGRFAMCHA000301165754165815000021Doug Sketches - Roger Klatz top ten screams                                                                            60686130                                
PROFAMCHA000301165815165900000045Adventures of Pete & Pete - Premieres Tonight @ 6p                                                                                                             
PROFAMCHA000301165900165915000015Doug - Next (oct1)                                                                                                                                             
PROFAMCHA000301165915165945000030Boy Who Could Fly - Friday @ 8pm                                                                                                                               
ID FAMCHA000301165945170000000015Afternoon block pinball open **DO NOT USE**                                                                                                                    
PROFAMCHA000301170000170030000030Disney's One Too - Opening                                                                                                                                     
PGRFAMCHA000301170030172258002228Disney's Doug                                     Doug's Adventures On-Line                                            6068607E                                
ID FAMCHA000301172258172313000015Interactive bumper w/URL                                                                                                                                       
ID FAMCHA000301172313172323000010Generic ID - Hula Hoop                                                                                                                                         
PRCFAMCHA000301172323172335000012Morning Block menu background (flex time)                                                                                                                      
PROFAMCHA000301172335172405000030Boy Who Could Fly - Friday @ 8pm                                                                                                                               
PROFAMCHA000301172405172440000035Adventures of Pete & Pete - Premieres Tonight @ 6p                                                                                                             
PGRFAMCHA000301172440172501000021Recess Sketches - Gretchen's Inventions - Apple Tr                                                                     60686130                                
PGRFAMCHA000301172501172621000120Disney Magic Shop(03)- Nimble Thimble (D12 only)                                                                       60686130                                
PGRFAMCHA000301172621172642000021Recess Sketches - Telephone                                                                                            60686130                                
PGRFAMCHA000301172642172804000122Disney Dinner Time(05)- Amelia Earhart (D12 only)                                                                      60686130                                
PGRFAMCHA000301172804172825000021Recess Sketches - The Word - Self Defence                                                                              60686130                                
PROFAMCHA000301172825172849000024So Weird - Friday @ 7:00 pm (Oct 1)                                                                                                                            
PROFAMCHA000301172849172910000021Recess - Next (oct1)                                                                                                                                           
PROFAMCHA000301172910172945000035Don't Look Under The Bed - Friday @ 10pm                                                                                                                       
ID FAMCHA000301172945173000000015Afternoon block pinball open **DO NOT USE**                                                                                                                    
PROFAMCHA000301173000173030000030Disney's One Too - Opening                                                                                                                                     
PGRFAMCHA000301173030175306002236Disney's Recess                                   Yes, Mikey, Santa Does Shave                                         6068607E                                
ID FAMCHA000301175306175311000005Generic ID - Marbles                                                                                                                                           
PRCFAMCHA000301175311175322000011Morning Block menu background (flex time)                                                                                                                      
PROFAMCHA000301175322175357000035Don't Look Under The Bed - Friday @ 10pm                                                                                                                       
PROFAMCHA000301175357175442000045Adventures of Pete & Pete - Premieres Tonight @ 6p                                                                                                             
PROFAMCHA000301175442175523000041Honey I Shrunk the Kids (series oct) Mon & Thurs @                                                                                                             
PGRFAMCHA000301175523175757000234MV Disney - Pocahontas 2 (oct)                                                                                         60688130                                
PROFAMCHA000301175757175839000042Gargoyles-Tonight @ 7:00 pm (Oct 1)                                                                                                                            
PROFAMCHA000301175839175909000030Adventures of Pete & Pete - Next                                                                                                                               
PROFAMCHA000301175909175939000030Boy Who Could Fly - Friday @ 8pm                                                                                                                               
ID FAMCHA000301175939180000000021Prime time open count down                                                                                                                                     
PGRFAMCHA000301180000182420002420Adventures of Pete & Pete; The                    King of the Road                                                    A2028607B                                
ID FAMCHA000301182420182430000010Generic ID - Pink inner tube                                                                                                                                   
PRCFAMCHA000301182430182441000011Morning Block menu background (flex time)                                                                                                                      
PROFAMCHA000301182441182511000030Boy Who Could Fly - Friday @ 8pm                                                                                                                               
PRCFAMCHA000301182511182541000030Are You Afraid of the Dark(MAR)- Tonight @ 7:30pm                                                                                                              
PRCFAMCHA000301182541182603000022Mentors - Version 1 - Friday @ 6pm                                                                                                                             
PGRFAMCHA000301182603182803000200MV Disney - I'm Gonna Fly (oct)                                                                                        60688130                                
PROFAMCHA000301182803182845000042Gargoyles-Tonight @ 7:00 pm (Oct 1)                                                                                                                            
PROFAMCHA000301182845182915000030So Weird - Next (oct1 )                                                                                                                                        
PROFAMCHA000301182915182950000035Don't Look Under The Bed - Friday @ 10pm                                                                                                                       
ID FAMCHA000301182950183000000010Presentation bumper - Magic of Disney                                                                                                                          
PGRFAMCHA000301183000185408002408So Weird                                          Strange Geometry                                                     6028807A                                
ID FAMCHA000301185408185413000005Generic ID - Couch 1                                                                                                                                           
PRCFAMCHA000301185413185421000008Morning Block menu background (flex time)                                                                                                                      
PROFAMCHA000301185421185456000035Don't Look Under The Bed - Friday @ 10pm                                                                                                                       
PROFAMCHA000301185456185528000032Sherlock Holmes - Tonight @ midnight (oct)                                                                                                                     
PGRFAMCHA000301185528185753000225MV Disney - T&P - Yummy,Yummy,Yummy                                                                                    60688130                                
PRCFAMCHA000301185753185827000034Misguided Angels-Monday and Thursday @ 6:45pm (oct                                                                                                             
PROFAMCHA000301185827185909000042Gargoyles-Next (Oct 1)                                                                                                                                         
PROFAMCHA000301185909185939000030Boy Who Could Fly - Friday @ 8pm                                                                                                                               
ID FAMCHA000301185939190000000021Prime time open count down                                                                                                                                     
PGRFAMCHA000301190000192253002253Gargoyles                                         Possession                                                           6068607E                                
ID FAMCHA000301192253192303000010Generic ID - soccer **DO NOT USE**                                                                                                                             
PRCFAMCHA000301192303192312000009Morning Block menu background (flex time)                                                                                                                      
PROFAMCHA000301192312192342000030Boy Who Could Fly - Friday @ 8pm                                                                                                                               
PRCFAMCHA000301192342192430000048Ripley's BION - Saturday @ 11am (MAR)                                                                                                                          
PGRFAMCHA000301192430192803000333MV Disney - Reflection (oct 1)                                                                                         60688130                                
PROFAMCHA000301192803192845000042Gargoyles-On Family (Oct 1)                                                                                                                                    
PRCFAMCHA000301192845192915000030Are You Afraid of the Dark(MAR)- Next                                                                                                                          
PROFAMCHA000301192915192950000035Don't Look Under The Bed - Friday @ 10pm                                                                                                                       
ID FAMCHA000301192950193000000010Prime time open top of hour                                                                                                                                    
PGRFAMCHA000301193000195434002434Are You Afraid Of The Dark?                       The Tale of the Train Magic                                   SR0305 1066807A                                
ID FAMCHA000301195434195444000010Generic ID - Bubbles                                                                                                                                           
PRCFAMCHA000301195444195456000012Morning Block menu background (flex time)                                                                                                                      
PROFAMCHA000301195456195531000035Don't Look Under The Bed - Friday @ 10pm                                                                                                                       
PROFAMCHA000301195531195601000030Adventures of Pete & Pete - Saturday @ 10am                                                                                                                    
PGRFAMCHA000301195601195839000238MV Disney - Lion King 2: We are One (oct)                                                                              60688130                                
PROFAMCHA000301195839195909000030Crash Zone - Saturday @10 am                                                                                                                                   
PROFAMCHA000301195909195939000030Boy Who Could Fly - Friday @ 8pm                                                                                                                               
ID FAMCHA000301195939200000000021Move open family size movie                                                                                                                                    
PROFAMCHA000301200000200007000007Rating - PG (oct)                                                                                                                                              
PROFAMCHA000301200007200012000005CC Disclaimer (oct) **DO NOT USE**                                                                                                                             
ID FAMCHA000301200012200022000010Presentation bumper - Magic of Disney                                                                                                                          
PGRFAMCHA000301200022214649014627Far Off Place; A                                                                                                      B6068807DCC                              
ID FAMCHA000301214649214704000015Interactive bumper w/URL                                                                                                                                       
ID FAMCHA000301214704214714000010Generic ID - Family w/dog                                                                                                                                      
PROFAMCHA000301214714214744000030Boy Who Could Fly - Friday @ 8pm                                                                                                                               
PROFAMCHA000301214744214816000032Sherlock Holmes - Tonight @ midnight (oct)                                                                                                                     
PROFAMCHA000301214816214901000045Robin Hood - Saturday @ 8pm                                                                                                                                    
PROFAMCHA000301214901214943000042Gargoyles-On Family (Oct 1)                                                                                                                                    
PGRFAMCHA000301214943215716000733Get It Right Goofy                                                                                                     60687130                                
PROFAMCHA000301215716215746000030So Weird - Friday @ 7:00 pm (Oct 1)                                                                                                                            
PROFAMCHA000301215746215816000030Up, Up and Away (MAR) - Saturday @ 9:30pm                                                                                                                      
PRCFAMCHA000301215816215904000048Ripley's BION - Saturday @ 11am (MAR)                                                                                                                          
PROFAMCHA000301215904215939000035Don't Look Under The Bed - Friday @ 10pm                                                                                                                       
ID FAMCHA000301215939220000000021Prime time open count down                                                                                                                                     
PROFAMCHA000301220000220005000005CC Disclaimer (oct) **DO NOT USE**                                                                                                                             
PGRFAMCHA000301220005224818004813Leonardo: A Dream Of Flight - A                                                                                 A06860A1165807CCC                              
ID FAMCHA000301224818224828000010Generic ID - Bubbles                                                                                                                                           
PRCFAMCHA000301224828224838000010Morning Block menu background (flex time)                                                                                                                      
PROFAMCHA000301224838224913000035Don't Look Under The Bed - Friday @ 10pm                                                                                                                       
PROFAMCHA000301224913225005000052Great African Wildlife Rescue - Sunday at 2pm on F                                                                                                             
PGRFAMCHA000301225005225312000307MV Disney - Part of your world (oct 1)                                                                                 60688130                                
PRCFAMCHA000301225312225334000022Mentors - Version 1 - Friday @ 6pm                                                                                                                             
PGRFAMCHA000301225334225808000434MV Disney - A Dream is a Wish Your Heart Makes (oc                                                                     60688130                                
PROFAMCHA000301225808225838000030Adventures of Pete & Pete - Saturday @ 10am                                                                                                                    
PROFAMCHA000301225838225920000042Gargoyles-Next (Oct 1)                                                                                                                                         
PROFAMCHA000301225920225950000030Boy Who Could Fly - Friday @ 8pm                                                                                                                               
ID FAMCHA000301225950230000000010Prime time open top of hour                                                                                                                                    
PGRFAMCHA000301230000232255002255Gargoyles                                         Leader of the Pack                                                   6068607E                                
ID FAMCHA000301232255232300000005Generic ID - Bubbles                                                                                                                                           
PRCFAMCHA000301232300232310000010Morning Block menu background (flex time)                                                                                                                      
PROFAMCHA000301232310232340000030Boy Who Could Fly - Friday @ 8pm                                                                                                                               
PROFAMCHA000301232340232412000032Sherlock Holmes - Tonight @ midnight (oct)                                                                                                                     
PGRFAMCHA000301232412232812000400MV Disney - We Are One (oct)                                                                                           60688130                                
PROFAMCHA000301232812232834000022So Weird - Friday at 7:00 pm (oct1 )                                                                                                                           
PRCFAMCHA000301232834232904000030Are You Afraid of the Dark(MAR)- Next                                                                                                                          
PROFAMCHA000301232904232939000035Don't Look Under The Bed - Friday @ 10pm                                                                                                                       
ID FAMCHA000301232939233000000021Prime time open count down                                                                                                                                     
PGRFAMCHA000301233000235434002434Are You Afraid Of The Dark?                       The Tale of the Deadman's Float                               SR0306 1066807A                                
ID FAMCHA000301235434235449000015Generic ID - confetti                                                                                                                                          
PROFAMCHA000301235449235524000035Don't Look Under The Bed - Friday @ 10pm                                                                                                                       
PROFAMCHA000301235524235541000017Mentors - Version 2 - Friday @ 6pm                                                                                                                             
PGRFAMCHA000301235541235806000225MV Disney - T&P - Yummy,Yummy,Yummy                                                                                    60688130                                
PROFAMCHA000301235806235848000042Gargoyles-On Family (Oct 1)                                                                                                                                    
PROFAMCHA000301235848235920000032Sherlock Holmes - Next (oct)                                                                                                                                   
PROFAMCHA000301235920235950000030Boy Who Could Fly - Friday @ 8pm                                                                                                                               
ID FAMCHA000301235950000000000010Prime time open top of hour                                                                                                                                    
PROFAMCHA000301000000000005000005CC Disclaimer (oct) **DO NOT USE**                                                                                                                             
PGRFAMCHA000301000005002218002213Sherlock Holmes In The 22nd Century               Adventure of the Blue Carbuncle                                      6068607ECC                              
ID FAMCHA000301002218002228000010Generic ID - confetti                                                                                                                                          
PROFAMCHA000301002228002258000030Boy Who Could Fly - Friday @ 8pm                                                                                                                               
PRCFAMCHA000301002258002328000030Are You Afraid of the Dark(MAR)- Mon-Thurs @ 11:30                                                                                                             
PROFAMCHA000301002328002340000012Mentors - Version 3 - Friday @ 6pm                                                                                                                             
PGRFAMCHA000301002340002817000437MV Disney - Go the distance (oct 1)                                                                                    60688130                                
PROFAMCHA000301002817002836000019So Weird - Friday @ 7:00 pm (oct1 )                                                                                                                            
PROFAMCHA000301002836002915000039Goof Troop - Monday to Friday @ 3pm                                                                                                                            
PROFAMCHA000301002915002950000035Don't Look Under The Bed - Friday @ 10pm                                                                                                                       
ID FAMCHA000301002950003000000010Prime time open top of hour                                                                                                                                    
PGRFAMCHA000301003000005407002407Clarissa                                          Janet & Clarissa Inc.                                                2068607B                                
ID FAMCHA000301005407005412000005Generic ID - Couch 1                                                                                                                                           
PROFAMCHA000301005412005427000015Disney's One Too - Weekdays @4:30 (Oct 1)                                                                                                                      
PGRFAMCHA000301005427010200000733Get It Right Goofy                                                                                                     60687130                                
SO FAMCHA000301010200010212000012Sign Off (oct 1)                                                                                                                                               
OFFFAMCHA000301010212043000032748                                                                                                                                                               
OFFFAMCHA000302043000060000013000                                                                                                                                                               
SO FAMCHA000302060000060011000011Sign On (oct 1)                                                                                                                                                
PROFAMCHA000302060011060016000005CC Disclaimer (oct) **DO NOT USE**                                                                                                                             
PGRFAMCHA000302060016062416002400Hello Mrs. Cherrywinkle                           A Busy Day                                                    B18874A1065607ACC                              
ID FAMCHA000302062416062421000005Generic ID - Marbles                                                                                                                                           
PRCFAMCHA000302062421062433000012Morning Block menu background (flex time)                                                                                                                      
PROFAMCHA000302062433062508000035Lion King's Timon & Pumbaa - wkdays @ noon (OCT 1)                                                                                                             
PROFAMCHA000302062508062538000030Generic Series Promo - There's Always Something On                                                                                                             
PGRFAMCHA000302062538062816000238MV Disney - Lion King 2: We are One (oct)                                                                              60688130                                
PROFAMCHA000302062816062855000039Goof Troop - Today @ 3pm                                                                                                                                       
PROFAMCHA000302062855062940000045PB&J Otter - Mon, Wed & Fri @ 8:30am (oct 1)                                                                                                                   
ID FAMCHA000302062940063000000020Morning block open play pen                                                                                                                                    
PROFAMCHA000302063000063005000005CC Disclaimer (oct) **DO NOT USE**                                                                                                                             
PGRFAMCHA000302063005065415002410Busy World Of Richard Scarry; The                 Has Anyone Seen My Book?                                      P24310A1165607ECC                              
ID FAMCHA000302065415065425000010Generic ID - Family w/dog                                                                                                                                      
PRCFAMCHA000302065425065434000009Morning Block menu background (flex time)                                                                                                                      
PROFAMCHA000302065434065514000040Microsoap - Weekends @ 2:30pm (MAR)                                                                                                                            
PROFAMCHA000302065514065529000015Doug - Today @ 5:00pm (oct1)                                                                                                                                   
PROFAMCHA000302065529065608000039Goof Troop - Today @ 3pm                                                                                                                                       
PGRFAMCHA000302065608065734000126Mix Ups - Birthday Befuddle                                                                                            60688130                                
PROFAMCHA000302065734065815000041Honey I Shrunk the Kids (series oct) tonight @ 6pm                                                                                                             
PROFAMCHA000302065815065920000105Adventures of Gummi Bears - Next (MAR)                                                                                                                         
PROFAMCHA000302065920065950000030Out of The Box - Tuesday and Thursday @ 8:30am (oc                                                                                                             
ID FAMCHA000302065950070000000010Presentation bumper - Magic of Disney                                                                                                                          
PROFAMCHA000302070000070005000005CC Disclaimer (oct) **DO NOT USE**                                                                                                                             
PGRFAMCHA000302070005072243002238Adventures of the Gummi Bears; The                Zummi In Slumberland/Tummi's Last Stand                              6068607ECC                              
ID FAMCHA000302072243072250000007Generic ID - Whisper                                                                                                                                           
PRCFAMCHA000302072250072300000010Morning Block menu background (flex time)                                                                                                                      
PROFAMCHA000302072300072330000030Out of The Box - Tuesday and Thursday @ 8:30am (oc                                                                                                             
PRCFAMCHA000302072330072400000030Gadget Boy - Saturday @ 9am                                                                                                                                    
PGRFAMCHA000302072400072820000420Art Attack - Kit Flier                                                                                                 60686130                                
PROFAMCHA000302072820072835000015Doug - Today @ 5:00pm (oct1)                                                                                                                                   
PRCFAMCHA000302072835072905000030Franklin-next (oct 1)                                                                                                                                          
PROFAMCHA000302072905072940000035Lion King's Timon & Pumbaa - wkdays @ noon (OCT 1)                                                                                                             
ID FAMCHA000302072940073000000020Morning block open play pen                                                                                                                                    
PROFAMCHA000302073000073005000005CC Disclaimer (oct) **DO NOT USE**                                                                                                                             
PGRFAMCHA000302073005075258002253Franklin                                          Franklin & Otter's Visit/Franklin's Collection                B13648 1065607ECC                              
ID FAMCHA000302075258075308000010Generic ID - Hula Hoop                                                                                                                                         
PRCFAMCHA000302075308075317000009Morning Block menu background (flex time)                                                                                                                      
PROFAMCHA000302075317075347000030Out of The Box - Tuesday and Thursday @ 8:30am (oc                                                                                                             
PROFAMCHA000302075347075426000039Goof Troop - Today @ 3pm                                                                                                                                       
PGRFAMCHA000302075426075750000324Art Attack - Baby Chicks                                                                                               60686130                                
PROFAMCHA000302075750075835000045PB&J Otter - Mon, Wed & Fri @ 8:30am (oct 1)                                                                                                                   
PROFAMCHA000302075835075940000105Adventures of Gummi Bears - Monday to Friday @ 7am                                                                                                             
ID FAMCHA000302075940080000000020Morning block open play pen                                                                                                                                    
PGRFAMCHA000302080000081951001951Art Attack                                        1-059                                                                60686110                                
ID FAMCHA000302081951081956000005Generic ID - Marbles                                                                                                                                           
PRCFAMCHA000302081956082004000008Morning Block menu background (flex time)                                                                                                                      
PROFAMCHA000302082004082049000045Robin Hood - Saturday @ 8pm                                                                                                                                    
PROFAMCHA000302082049082130000041Honey I Shrunk the Kids (series oct) tonight @ 6pm                                                                                                             
PRCFAMCHA000302082130082200000030Gadget Boy - Saturday @ 9am                                                                                                                                    
PGRFAMCHA000302082200082830000630Richard Scarry - The Missing Bananas                                                                            P17883 10656130                                
PROFAMCHA000302082830082900000030Adventures of Pete & Pete - Saturday @ 10am                                                                                                                    
PROFAMCHA000302082900082930000030Out of The Box - Next (oct1)                                                                                                                                   
PROFAMCHA000302082930083000000030Generic Series Promo - There's Always Something On                                                                                                             
PGRFAMCHA000302083000085236002236Out of the Box                                    Blowin'in the Wind                                                   60286110CC                              
ID FAMCHA000302085236085246000010Generic ID - Family w/dog                                                                                                                                      
PRCFAMCHA000302085246085255000009Morning Block menu background (flex time)                                                                                                                      
PRCFAMCHA000302085255085330000035Little Lulu Show; The - Saturday @ 6:30pm (oct1)                                                                                                               
PROFAMCHA000302085330085405000035Lion King's Timon & Pumbaa - wkdays @ noon (OCT 1)                                                                                                             
PROFAMCHA000302085405085500000055Generic Series Promo - Celebrate the Day w/Family                                                                                                              
PROFAMCHA000302085500085505000005CC Disclaimer (oct) **DO NOT USE**                                                                                                                             
PGRFAMCHA000302085505091820002315Babar                                             The One That Got Away                                         C07575 1065607ECC                              
ID FAMCHA000302091820091825000005Generic ID - Marbles                                                                                                                                           
PRCFAMCHA000302091825091833000008Morning Block menu background (flex time)                                                                                                                      
PROFAMCHA000302091833091845000012Mentors - Version 3 - Friday @ 6pm                                                                                                                             
PROFAMCHA000302091845091930000045PB&J Otter - Mon, Wed & Fri @ 8:30am (oct 1)                                                                                                                   
PROFAMCHA000302091930092000000030Generic Series Promo - Where the Fun Is                                                                                                                        
PROFAMCHA000302092000092005000005CC Disclaimer (oct) **DO NOT USE**                                                                                                                             
PGRFAMCHA000302092005094640002635Katie And Orbie                                   How Orbie Helped/Stone Cold Soup/Orbie's Wish                 C11896 1065607ECC                              
ID FAMCHA000302094640094645000005Generic ID - Bubbles                                                                                                                                           
PROFAMCHA000302094645094700000015Doug - Today @ 5:00 pm (oct1)                                                                                                                                  
PROFAMCHA000302094700094730000030Madeline - 8:30am on Saturday (oct)                                                                                                                            
PROFAMCHA000302094730094800000030Generic Series Promo - There's Always Something On                                                                                                             
PROFAMCHA000302094800094805000005CC Disclaimer (oct) **DO NOT USE**                                                                                                                             
PGRFAMCHA000302094805101235002430Billy The Cat                                     Microchips With Everything                                    B27639A1065607ECC                              
ID FAMCHA000302101235101245000010Generic ID - Family w/dog                                                                                                                                      
PROFAMCHA000302101245101300000015Doug - Today @ 5:00 pm (oct1)                                                                                                                                  
PROFAMCHA000302101300101330000030Madeline - 8:30am on Saturday (oct)                                                                                                                            
PROFAMCHA000302101330101400000030Generic Series Promo - Where the Fun Is                                                                                                                        
PROFAMCHA000302101400101405000005CC Disclaimer (oct) **DO NOT USE**                                                                                                                             
PGRFAMCHA000302101405103814002409Busy World Of Richard Scarry; The                 Perfect Gentlemen/Best Painter/Best Day For Dennis            P24311A1065607ECC                              
ID FAMCHA000302103814103821000007Generic ID - Whisper                                                                                                                                           
PRCFAMCHA000302103821103831000010Morning Block menu background (flex time)                                                                                                                      
PROFAMCHA000302103831103843000012Mentors - Version 3 - Friday @ 6pm                                                                                                                             
PROFAMCHA000302103843103905000022Hercules - Today @ 4:30 pm (oct 1)                                                                                                                             
PROFAMCHA000302103905104000000055Generic Series Promo - Celebrate the Day w/Family                                                                                                              
PGRFAMCHA000302104000105933001933Art Attack                                        1-063                                                                60686110                                
ID FAMCHA000302105933105940000007Generic ID - Whisper                                                                                                                                           
PROFAMCHA000302105940110015000035Lion King's Timon & Pumbaa - wkdays @ noon (OCT 1)                                                                                                             
PROFAMCHA000302110015110030000015Disney's One Too - today @ 4:30 (Oct 1)                                                                                                                        
PROFAMCHA000302110030110100000030Adventures of Pete & Pete - Saturday @ 10am                                                                                                                    
PROFAMCHA000302110100110130000030Boy Who Could Fly - Friday @ 8pm                                                                                                                               
PROFAMCHA000302110130110200000030Generic Series Promo - There's Always Something On                                                                                                             
PROFAMCHA000302110200110205000005CC Disclaimer (oct) **DO NOT USE**                                                                                                                             
PGRFAMCHA000302110205112535002330PB&J Otter                                        Dollhouse/Tell-Tale Candy Wrapper                                   A6068607ECC                              
ID FAMCHA000302112535112545000010Generic ID - Pink inner tube                                                                                                                                   
PROFAMCHA000302112545112603000018Adventures of Pete & Pete - Saturday @ 10am                                                                                                                    
PROFAMCHA000302112603112630000027Recess - Today @ 5:30 pm (oct1)                                                                                                                                
PROFAMCHA000302112630112700000030Generic Series Promo - Where the Fun Is                                                                                                                        
PROFAMCHA000302112700112705000005CC Disclaimer (oct) **DO NOT USE**                                                                                                                             
PGRFAMCHA000302112705115105002400Space Cases                                       Who Goes Where                                                B02574 1165607BCC                              
ID FAMCHA000302115105115120000015Interactive bumper w/URL                                                                                                                                       
ID FAMCHA000302115120115125000005Generic ID - Couch 1                                                                                                                                           
PRCFAMCHA000302115125115132000007Morning Block menu background (flex time)                                                                                                                      
PROFAMCHA000302115132115202000030Up, Up and Away (MAR) - Saturday @ 9:30pm                                                                                                                      
PROFAMCHA000302115202115229000027Recess - Today @ 5:30 pm (oct1)                                                                                                                                
PROFAMCHA000302115229115314000045Robin Hood - Saturday @ 8pm                                                                                                                                    
PGRFAMCHA000302115314115734000420MV Disney - Someday (oct 1)                                                                                            60688130                                
PROFAMCHA000302115734115759000025Adventures of Pete & Pete - Saturday @ 10am                                                                                                                    
PROFAMCHA000302115759115840000041Honey I Shrunk the Kids (series oct) tonight @ 6pm                                                                                                             
PROFAMCHA000302115840115915000035Lion King's Timon & Pumbaa - next (OCT 1)                                                                                                                      
PROFAMCHA000302115915115945000030Boy Who Could Fly - Friday @ 8pm                                                                                                                               
ID FAMCHA000302115945120000000015Afternoon block pinball open **DO NOT USE**                                                                                                                    
PGRFAMCHA000302120000122245002245Lion King's Timon & Pumbaa; The                   Escape From Newark/Truth Be Told                                     6068607E                                
ID FAMCHA000302122245122250000005Generic ID - Fingerpaint                                                                                                                                       
PROFAMCHA000302122250122320000030Up, Up and Away (MAR) - Saturday @ 9:30pm                                                                                                                      
PRCFAMCHA000302122320122353000033Hoze Houndz - Saturday @ 7:00pm                                                                                                                                
PROFAMCHA000302122353122415000022So Weird - Friday at 7:00 pm (oct1 )                                                                                                                           
PROFAMCHA000302122415122445000030Adventures of Pete & Pete - Saturday @ 10am                                                                                                                    
ID FAMCHA000302122445122500000015Afternoon block pinball open **DO NOT USE**                                                                                                                    
PROFAMCHA000302122500122505000005CC Disclaimer (oct) **DO NOT USE**                                                                                                                             
PGRFAMCHA000302122505124814002309Flash Forward                                     I'M O.K., You're A Jerk                                       P21274 1065607ACC                              
ID FAMCHA000302124814124819000005Generic ID - Couch 1                                                                                                                                           
PRCFAMCHA000302124819124830000011Morning Block menu background (flex time)                                                                                                                      
PROFAMCHA000302124830124915000045Robin Hood - Saturday @ 8pm                                                                                                                                    
PROFAMCHA000302124915124933000018Adventures of Pete & Pete - Saturday @ 10am                                                                                                                    
PROFAMCHA000302124933124945000012Mentors - Version 3 - Friday @ 6pm                                                                                                                             
ID FAMCHA000302124945125000000015Afternoon block pinball open **DO NOT USE**                                                                                                                    
PGRFAMCHA000302125000131616002616Clarissa                                          Ferguson Explains it All                                             2068607B                                
ID FAMCHA000302131616131621000005Generic ID - Couch 1                                                                                                                                           
PROFAMCHA000302131621131626000005CC Disclaimer (oct) **DO NOT USE**                                                                                                                             
PGRFAMCHA000302131626133957002331Little Lulu Show; The                             No Pain, No Gain/Tragic Magic                                 A20193A1055607ECC3                             
ID FAMCHA000302133957134007000010Generic ID - Pink inner tube                                                                                                                                   
PRCFAMCHA000302134007134020000013Morning Block menu background (flex time)                                                                                                                      
PROFAMCHA000302134020134045000025Adventures of Pete & Pete - Saturday @ 10am                                                                                                                    
PRCFAMCHA000302134045134115000030Franklin-next (oct 1)                                                                                                                                          
PROFAMCHA000302134115134145000030Boy Who Could Fly - Friday @ 8pm                                                                                                                               
ID FAMCHA000302134145134200000015Afternoon block pinball open **DO NOT USE**                                                                                                                    
PROFAMCHA000302134200134205000005CC Disclaimer (oct) **DO NOT USE**                                                                                                                             
PGRFAMCHA000302134205140458002253Franklin                                          Franklin's Night Friend/Franklin's Two Henry's                P02772A1065607ECC                              
ID FAMCHA000302140458140508000010Generic ID - confetti                                                                                                                                          
PRCFAMCHA000302140508140517000009Morning Block menu background (flex time)                                                                                                                      
PROFAMCHA000302140517140547000030Up, Up and Away (MAR) - Saturday @ 9:30pm                                                                                                                      
PROFAMCHA000302140547140604000017Mentors - Version 2 - Friday @ 6pm                                                                                                                             
PROFAMCHA000302140604140645000041Honey I Shrunk the Kids (series oct) tonight @ 6pm                                                                                                             
ID FAMCHA000302140645140700000015Afternoon block pinball open **DO NOT USE**                                                                                                                    
PGRFAMCHA000302140700142705002005Art Attack                                        1-064                                                                60686110                                
ID FAMCHA000302142705142710000005Generic ID - soccer **DO NOT USE**                                                                                                                             
PRCFAMCHA000302142710142719000009Morning Block menu background (flex time)                                                                                                                      
PROFAMCHA000302142719142736000017Mentors - Version 2 - Friday @ 6pm                                                                                                                             
PROFAMCHA000302142736142815000039Goof Troop - Today @ 3pm                                                                                                                                       
PROFAMCHA000302142815142850000035Don't Look Under The Bed - Friday @ 10pm                                                                                                                       
ID FAMCHA000302142850142900000010Presentation bumper - Magic of Disney                                                                                                                          
PROFAMCHA000302142900142905000005CC Disclaimer (oct) **DO NOT USE**                                                                                                                             
PGRFAMCHA000302142905145144002239Darkwing Duck                                     Something Fishy                                                      6068607ECC                              
ID FAMCHA000302145144145159000015Interactive bumper w/URL                                                                                                                                       
ID FAMCHA000302145159145204000005Generic ID - Couch 2                                                                                                                                           
PRCFAMCHA000302145204145214000010Morning Block menu background (flex time)                                                                                                                      
PROFAMCHA000302145214145249000035Don't Look Under The Bed - Friday @ 10pm                                                                                                                       
PROFAMCHA000302145249145319000030Adventures of Pete & Pete - Saturday @ 7:30pm                                                                                                                  
PROFAMCHA000302145319145349000030Boy Who Could Fly - Friday @ 8pm                                                                                                                               
PGRFAMCHA000302145349145730000341MV Disney - Hakuna Matata (oct)                                                                                        60688130                                
PROFAMCHA000302145730145822000052Great African Wildlife Rescue - Sunday at 2pm on F                                                                                                             
PROFAMCHA000302145822145841000019So Weird - Friday @ 7:00 pm (oct1 )                                                                                                                            
PROFAMCHA000302145841145920000039Goof Troop - Next                                                                                                                                              
