PGRFAMCHA150501043000045235002235The Latest Buzz                                   EP: 15                                                        C30362 1065607BCC                              
PROFAMCHA150501045235045318000043Episodic GMW (HD) 2-07 - New Episode Tonight @ 6:3                                                                          150                                
PROFAMCHA150501045318045410000052Penelope (HD) Tonight @ 8 (Nov 2013)                                                                                        150                                
PRCFAMCHA150501045410045454000044Episodic Jessie (HD) 4-05 - New Episode Tuesday Ni                                                                          150                                
PRCFAMCHA150501045454045512000018Family Bumper Flex (HD) Break Dance (:18-:21) (Mar                                                                          150                                
PRCFAMCHA150501045512045557000045Stunt Teen Beach Bash Throwback (HD) Starting Frid                                                                          150                                
PRCFAMCHA150501045557045611000014Descriptive Video Slate (HD) (Apr2013)                                                                                      150                                
PGRFAMCHA150501045611051844002233Really Me                                         EP: 06                                                        B33828 1065607BCD                              
PROFAMCHA150501051844051852000008D-JR Live Action ID - Stella & Sam - Coming Up (Ma                                                                          150                                
PROFAMCHA150501051852051917000025D-JR Live Action ID - #67 Play Dressup (Sep2013)                                                                            150                                
PROFAMCHA150501051917051947000030D-JR OOB - Julius Jr Launch Promo - Prems Saturday                                                                          150                                
PROFAMCHA150501051947052017000030D-JR OOB - Doc 2-31 - Sunday May 3 @ Noon (Apr29-M                                                                          150                                
PROFAMCHA150501052017052042000025D-JR Live Action ID - #9 Ride A Bike (Sep2013)                                                                              150                                
PROFAMCHA150501052042052050000008D-JR Live Action ID - Stella & Sam - Now (Mar2013)                                                                          150                                
PROFAMCHA150501052050052105000015D-JR - Seasonal ID - Spring (Mar1-May 31)                                                                                   150                                
PRCFAMCHA150501052105052119000014Descriptive Video Slate (HD) (Apr2013)                                                                                      150                                
PGRFAMCHA150501052119054434002315Stella and Sam                                    EP: 05                                                        C33973 1065607ECC                              
PROFAMCHA150501054434054445000011D-JR OOB - Thomas & Friends Tease - Coming Soon to                                                                          150                                
PROFAMCHA150501054445054455000010D-JR - Hero Flex ID - Green (:06-:10) (Feb2014)                                                                             150                                
PRCFAMCHA150501054455054509000014Descriptive Video Slate (HD) (Apr2013)                                                                                      150                                
PGRFAMCHA150501054509060739002230Justin Time                                       EP: 09                                                        C33667 1065607ECD                              
PROFAMCHA150501060739060747000008D-JR Live Action ID - Justin Time - Coming Up (Sep                                                                          150                                
PROFAMCHA150501060747060812000025D-JR Live Action ID - #65 Putting Toys Away (Sept2                                                                          150                                
PROFAMCHA150501060812060842000030D-JR OOB - Julius Jr Launch Promo - Prems Saturday                                                                          150                                
PROFAMCHA150501060842060917000035D-JR Promo - Bananas in Pajamas - Clip 1 - Get mor                                                                          150                                
PROFAMCHA150501060917060942000025D-JR Live Action ID - #72 Family Tree Craft (Sept2                                                                          150                                
PROFAMCHA150501060942060950000008D-JR Live Action ID - Justin Time - Now (Sept2014)                                                                          150                                
PROFAMCHA150501060950060958000008D-JR - Hero Flex ID - Yellow (:06-:10) (Feb2014)                                                                            150                                
PRCFAMCHA150501060958061012000014Descriptive Video Slate (HD) (Apr2013)                                                                                      150                                
PGRFAMCHA150501061012063244002232Justin Time                                       EP: 10                                                        C33667 1065607ECD                              
PROFAMCHA150501063244063327000043Episodic GMW (HD) 2-07 - New Episode Tonight @ 6:3                                                                          150                                
PRCFAMCHA150501063327063341000014Family Flex Next (HD) ANT Farm - Jake (:12-:14) (A                                                                          150                                
PROFAMCHA150501063341063356000015Gaming Show Game (HD) Go to Family.ca (Mar2015)(2-                                                                          150                                
PRCFAMCHA150501063356063417000021Family Bumper Flex (HD) Longboard (:19-:21) (Mar20                                                                          150                                
PRCFAMCHA150501063417063502000045Stunt Teen Beach Bash Throwback (HD) Starting Frid                                                                          150                                
PGRFAMCHA150501063502065835002333Disney A.N.T. Farm                                EP: 13                                                               6068607BCC                              
PRCFAMCHA150501065835065905000030Stunt What the What?!? (HD) Overall CD - Continues                                                                          150                                
PRCFAMCHA150501065905065919000014Family Flex Next (HD) Jessie - Emma (:12-:14) (Mar                                                                          150                                
PRCFAMCHA150501065919065941000022Episodic Next Step (HD) Ep 3-05 (Generic) - Tonigh                                                                          150                                
PRCFAMCHA150501065941065953000012Next Step Season 3A (HD) Extended Dance - Tonight                                                                           150                                
PGRFAMCHA150501065953072326002333Disney Jessie                                     EP: 03                                                               6068807BCC                              
PROFAMCHA150501072326072409000043Episodic GMW (HD) 2-07 - New Episode Tonight @ 6:3                                                                          150                                
PRCFAMCHA150501072409072423000014Family Flex Next (HD) A&A - Laura (:12-:14) (Apr20                                                                          150                                
PRCFAMCHA150501072423072458000035Family's 630 (HD)  Weeknights @ 6:30 (Apr2015)                                                                              150                                
PGRFAMCHA150501072458074829002331Disney Austin & Ally                              EP: 22                                                               6068807BCC                              
PRCFAMCHA150501074829074851000022Episodic Next Step (HD) Ep 3-05 (Generic) - Tonigh                                                                          150                                
PRCFAMCHA150501074851074903000012Next Step Season 3A (HD) Extended Dance - Tonight                                                                           150                                
PRCFAMCHA150501074903074918000015Family Flex Next (HD) DWAB Ghannelius (Aug 2013) (                                                                          150                                
PROFAMCHA150501074918075001000043Mickey Mouse Shorts Promo (HD) New Tonight After P                                                                          150                                
PRCFAMCHA150501075001075022000021Family Bumper Flex (HD) Garage Band (:17-:21) (Nov                                                                          150                                
PRCFAMCHA150501075022075052000030Stunt What the What?!? (HD) Overall CD - Continues                                                                          150                                
PGRFAMCHA150501075052081311002219Disney Dog with a Blog                            EP: 21                                                               6068807BCC                              
PRCFAMCHA150501081311081356000045Stunt Teen Beach Bash Throwback (HD) Starting Frid                                                                          150                                
PROFAMCHA150501081356081402000006WOWP (HD) ID - Jennifer Stone 1 "Coming Up Next" (                                                                          150                                
PRCFAMCHA150501081402081446000044Episodic Jessie (HD) 4-05 - New Episode Tuesday Ni                                                                          150                                
PROFAMCHA150501081446081536000050Walt Disney Pictures                                                                                                        150                                
PRCFAMCHA150501081536081611000035Family's 630 (HD)  Weeknights @ 6:30 (Apr2015)                                                                              150                                
PROFAMCHA150501081611081703000052Penelope (HD) Tonight @ 8 (Nov 2013)                                                                                        150                                
PRCFAMCHA150501081703081727000024Family Bumper Flex (HD) Bike Trails (:20-:24) (Mar                                                                          150                                
PROFAMCHA150501081727081810000043Episodic GMW (HD) 2-07 - New Episode Tonight @ 6:3                                                                          150                                
PGRFAMCHA150501081810084042002232Disney Wizards of Waverly Place                   EP: 21                                                               6068507BCC                              
PROFAMCHA150501084042084050000008D-JR Live Action ID - SCWW - Coming Up (Mar2014)                                                                            150                                
PROFAMCHA150501084050084115000025D-JR Live Action ID - #28 Clapping Game (Sep2013)                                                                           150                                
PROFAMCHA150501084115084145000030D-JR OOB - Doc 2-31 - Sunday May 3 @ Noon (Apr29-M                                                                          150                                
PROFAMCHA150501084145084209000024D-JR Promo - Sarah & Duck - Get More on D-JR the C                                                                          150                                
PROFAMCHA150501084209084249000040D-JR Promo - Lalaloopsy - Family - This Morning @                                                                           150                                
PROFAMCHA150501084249084338000049D-JR Promo - Strawberry Shortcake - Get More on th                                                                          150                                
PROFAMCHA150501084338084423000045D-JR Promo - MTL Miles & Merc Sell - Catch More on                                                                          150                                
PROFAMCHA150501084423084448000025D-JR Live Action ID - #63 Wash Face (Sep2013)                                                                               150                                
PROFAMCHA150501084448084456000008D-JR Live Action ID - SCWW - Now (Mar2014)                                                                                  150                                
PROFAMCHA150501084456084504000008D-JR - Hero Flex ID - Blue (:06-:10) (Feb2014)                                                                              150                                
PGRFAMCHA150501084504090907002403Disney Sheriff Callie's Wild West                 EP: 13                                                               6068605ACC                              
PROFAMCHA150501090907090915000008D-JR Live Action ID - DocMcStuffins - Coming Up (O                                                                          150                                
PROFAMCHA150501090915090940000025D-JR Live Action ID - #20 Calendar (May2012)                                                                                150                                
PROFAMCHA150501090940090951000011D-JR OOB - Thomas & Friends Tease - Coming Soon to                                                                          150                                
PROFAMCHA150501090951091021000030D-JR OOB - Julius Jr Launch Promo - Prems Saturday                                                                          150                                
PROFAMCHA150501091021091046000025D-JR Live Action ID - #51 Chores Board (Sep2013)                                                                            150                                
PROFAMCHA150501091046091054000008D-JR Live Action ID - DocMcStuffins - Now (Oct2013                                                                          150                                
PROFAMCHA150501091054091104000010D-JR - Hero Flex ID - Purple (:06-:10) (Feb2014)                                                                            150                                
PGRFAMCHA150501091104093505002401Disney Doc McStuffins                             EP: 18                                                               6068605ACC                              
PROFAMCHA150501093505093513000008D-JR Live Action ID - Henry Hugglemonster - Coming                                                                          150                                
PROFAMCHA150501093513093538000025D-JR Live Action ID - #15 Sidewalk Chalk (Sep2013)                                                                          150                                
PROFAMCHA150501093538093608000030D-JR OOB - Doc 2-31 - Sunday May 3 @ Noon (Apr29-M                                                                          150                                
PROFAMCHA150501093608093619000011D-JR OOB - Thomas & Friends Tease - Coming Soon to                                                                          150                                
PROFAMCHA150501093619093644000025D-JR Live Action ID - #5 Pick A Reading Spot (Sep2                                                                          150                                
PROFAMCHA150501093644093652000008D-JR Live Action ID - Henry Hugglemonster - Now (S                                                                          150                                
PROFAMCHA150501093652093659000007D-JR - Hero Flex ID - Blue (:06-:10) (Feb2014)                                                                              150                                
PGRFAMCHA150501093659100102002403Henry Hugglemonster                               EP: 07                                                               6068605ACC                              
PROFAMCHA150501100102100110000008D-JR Live Action ID - Jake & the Never Land Pirate                                                                          150                                
PROFAMCHA150501100110100135000025D-JR Live Action ID - #13 Make Bed (May2012)                                                                                150                                
PROFAMCHA150501100135100205000030D-JR OOB - Julius Jr Launch Promo - Prems Saturday                                                                          150                                
PROFAMCHA150501100205100235000030D-JR Promo - Tickety Toc - Time to Chime - Get mor                                                                          150                                
PROFAMCHA150501100235100324000049D-JR Promo - Strawberry Shortcake - Get More on th                                                                          150                                
PROFAMCHA150501100324100349000025D-JR Live Action ID - #48 Help Feed Sibling (Sept2                                                                          150                                
PROFAMCHA150501100349100356000007D-JR Live Action ID - Jake & the Never Land Pirate                                                                          150                                
PROFAMCHA150501100356100406000010D-JR - Hero Flex ID - Green (:06-:10) (Feb2014)                                                                             150                                
PGRFAMCHA150501100406102807002401Jake and the Never Land Pirates                   EP: 21                                                               6028607ECC                              
PROFAMCHA150501102807102815000008D-JR Live Action ID - Sofia the First - Coming Up                                                                           150                                
PROFAMCHA150501102815102840000025D-JR Live Action ID - #10 Build A Block Tower (Sep                                                                          150                                
PROFAMCHA150501102840102925000045D-JR Promo - MTL Miles & Merc Sell - Catch More on                                                                          150                                
PROFAMCHA150501102925102950000025D-JR Live Action ID - #47 Making Breakfast (May201                                                                          150                                
PROFAMCHA150501102950102958000008D-JR Live Action ID - Sofia the First - Now (Jan20                                                                          150                                
PROFAMCHA150501102958103005000007D-JR - Hero Flex ID - Green (:06-:10) (Feb2014)                                                                             150                                
PGRFAMCHA150501103005105208002203Disney Sofia the First                            EP: 10                                                               6068605ACC                              
PROFAMCHA150501105208105216000008D-JR Live Action ID - Lalaloopsy - Coming Up (Oct2                                                                          150                                
PROFAMCHA150501105216105241000025D-JR Live Action ID - # Learning Hot and Cold (Oct                                                                          150                                
PROFAMCHA150501105241105252000011D-JR OOB - Thomas & Friends Tease - Coming Soon to                                                                          150                                
PROFAMCHA150501105252105316000024D-JR Promo - Sarah & Duck - Get More on D-JR the C                                                                          150                                
PROFAMCHA150501105316105358000042D-JR Promo - Bananas in Pajamas - Get more on the                                                                           150                                
PGRFAMCHA150501105358105658000300PH-D Short - Mickey Mousekersize Shorts - 09 - Fol                                                                     60688120CC                              
PROFAMCHA150501105658105747000049D-JR Promo - Strawberry Shortcake - Get More on th                                                                          150                                
PROFAMCHA150501105747105847000100D-JR Promo - Tickety Toc - Racing The Clock - Get                                                                           150                                
PROFAMCHA150501105847105917000030D-JR OOB - Julius Jr Launch Promo - Prems Saturday                                                                          150                                
PROFAMCHA150501105917105942000025D-JR Live Action ID - #90 Freeze Dance (Sep2013)                                                                            150                                
PROFAMCHA150501105942105950000008D-JR Live Action ID - Lalaloopsy - Now (Oct2014)                                                                            150                                
PROFAMCHA150501105950110005000015D-JR - Monthly ID - May (May2014)                                                                                           150                                
PGRFAMCHA150501110005112203002158Lalaloopsy                                        EP: 08                                                        D04228 2068607ECC2                             
PRCFAMCHA150501112203112225000022Episodic Next Step (HD) Ep 3-05 (Generic) - Tonigh                                                                          150                                
PRCFAMCHA150501112225112237000012Next Step Season 3A (HD) Extended Dance - Tonight                                                                           150                                
PROFAMCHA150501112237112310000033ANT Farm (HD) Refresh - Coming Up Next (Jun2013)                                                                            150                                
PRCFAMCHA150501112310112345000035Family's 630 (HD)  Weeknights @ 6:30 (Apr2015)                                                                              150                                
PROFAMCHA150501112345112435000050Walt Disney Pictures                                                                                                        150                                
PROFAMCHA150501112435112518000043Mickey Mouse Shorts Promo (HD) New Tonight After P                                                                          150                                
MVCFAMCHA150501112518112820000302MV Lift BTS 2014 (HD) Megan Nicole - Never Wanna L                                                                     10618120CC                              
PROFAMCHA150501112820112850000030Zapped (HD) Comedy - Sunday @ Noon (Jun2014)                                                                                150                                
PRCFAMCHA150501112850112911000021Family Bumper Flex (HD) Dog Park (:19-:21) (Mar201                                                                          150                                
PRCFAMCHA150501112911112941000030Stunt What the What?!? (HD) Overall CD - Continues                                                                          150                                
PRCFAMCHA150501112941112955000014Family Flex Next (HD) ANT Farm - Jake (:12-:14) (A                                                                          150                                
PGRFAMCHA150501112955115211002216Disney A.N.T. Farm                                EP: 20                                                               6068607BCC                              
PRCFAMCHA150501115211115256000045Stunt Teen Beach Bash Throwback (HD) Starting Frid                                                                          150                                
PROFAMCHA150501115256115326000030Win Lose or Draw (HD) Gen 1 - Coming Up Next (Apri                                                                          150                                
PRCFAMCHA150501115326115410000044Episodic Jessie (HD) 4-05 - New Episode Tuesday Ni                                                                          150                                
PROFAMCHA150501115410115635000225Int Next Step (HD) 3011 - Lost & Found MV (Aunt Ka                                                                          150CC                              
PRCFAMCHA150501115635115720000045Episodic LAM (HD) 2-21 - New Episode Friday May 8                                                                           150                                
PROFAMCHA150501115720115812000052Penelope (HD) Tonight @ 8 (Nov 2013)                                                                                        150                                
PRCFAMCHA150501115812115829000017Family.ca Video Player (HD) Generic Message - Vers                                                                          150                                
PRCFAMCHA150501115829115847000018Family Bumper Flex (HD) Flip Book (:15-:18) (Nov 2                                                                          150                                
PROFAMCHA150501115847115930000043Episodic GMW (HD) 2-07 - New Episode Tonight @ 6:3                                                                          150                                
PROFAMCHA150501115930120000000030Win Lose or Draw (HD) Gen 2 - Coming Up Next (Apri                                                                          150                                
PGRFAMCHA150501120000120652000652Disney Win, Lose or Draw                          EP: 12                                                               6068807BCC                              
PRCFAMCHA150501120652120727000035Family's 630 (HD)  Weeknights @ 6:30 (Apr2015)                                                                              150                                
PGRFAMCHA150501120727121352000625Disney Win, Lose or Draw                          EP: 12                                                               6068807BCC                              
PROFAMCHA150501121352121435000043Mickey Mouse Shorts Promo (HD) New Tonight After P                                                                          150                                
PGRFAMCHA150501121435122002000527Disney Win, Lose or Draw                          EP: 12                                                               6068807BCC                              
PROFAMCHA150501122002122032000030Zapped (HD) Comedy - Sunday @ Noon (Jun2014)                                                                                150                                
PGRFAMCHA150501122032122414000342Disney Win, Lose or Draw                          EP: 12                                                               6068807BCC                              
PRCFAMCHA150501122414122529000115Stunt What the What?!? (HD) Overall - Continues To                                                                          150                                
PROFAMCHA150501122529122548000019WOWP (HD) Clip Bad Time - Coming Up Next (April 20                                                                          150                                
PGRFAMCHA150501122548122904000316MV Disney (HD) Sabrina Carpenter - We'll Be The St                                                                     10615120CC                              
PRCFAMCHA150501122904122922000018Family Bumper Flex (HD) Trampoline (:15-:21) (Mar2                                                                          150                                
PRCFAMCHA150501122922122944000022Episodic Next Step (HD) Ep 3-05 (Generic) - Tonigh                                                                          150                                
PRCFAMCHA150501122944122956000012Next Step Season 3A (HD) Extended Dance - Tonight                                                                           150                                
PROFAMCHA150501122956123002000006WOWP (HD) ID - Jennifer Stone 1 "Coming Up Next" (                                                                          150                                
PGRFAMCHA150501123002125236002234Disney Wizards of Waverly Place                   EP: 24                                                               6068607BCC                              
PRCFAMCHA150501125236125320000044Episodic Jessie (HD) 4-05 - New Episode Tuesday Ni                                                                          150                                
PROFAMCHA150501125320125339000019WOWP (HD) Clip Bad Time - Coming Up Next (April 20                                                                          150                                
PRCFAMCHA150501125339125424000045Episodic LAM (HD) 2-21 - New Episode Friday May 8                                                                           150                                
PGRFAMCHA150501125424125554000130DMS (HD) Tomorrowland (Apr25-May25)(2-3x/day)                                                                          60688120CC                              
PROFAMCHA150501125554125637000043Episodic GMW (HD) 2-07 - New Episode Tonight @ 6:3                                                                          150                                
PGRFAMCHA150501125637125802000125MV Lift (HD) A&A - Stuck On You (ep 3-08) (Aug2014                                                                     60685120CC                              
PROFAMCHA150501125802125854000052Penelope (HD) Tonight @ 8 (Nov 2013)                                                                                        150                                
PRCFAMCHA150501125854125916000022Family Bumper Flex (HD) Fifteen Logos (:21-:22) (N                                                                          150                                
PRCFAMCHA150501125916130001000045Stunt Teen Beach Bash Throwback (HD) Starting Frid                                                                          150                                
PROFAMCHA150501130001130007000006WOWP (HD) ID - Jennifer Stone 2 "Coming Up Next" (                                                                          150                                
PGRFAMCHA150501130007132239002232Disney Wizards of Waverly Place                   EP: 25                                                               6068607BCC                              
PROFAMCHA150501132239132322000043Mickey Mouse Shorts Promo (HD) New Tonight After P                                                                          150                                
PRCFAMCHA150501132322132356000034GLC Marching Band (HD) Coming Up Next (Nov2013)                                                                             150                                
PRCFAMCHA150501132356132418000022Episodic Next Step (HD) Ep 3-05 (Generic) - Tonigh                                                                          150                                
PRCFAMCHA150501132418132430000012Next Step Season 3A (HD) Extended Dance - Tonight                                                                           150                                
PROFAMCHA150501132430132714000244Int Next Step (HD) 3013 - Riley's Song MV (Band Pe                                                                          150CC                              
PSAFAMCHA150501132714132744000030PSA CMF (HD) Canada on Screen 2015 (Jan2015) (3x/d                                                                     1    130CC                              
PRCFAMCHA150501132744132819000035Family's 630 (HD)  Weeknights @ 6:30 (Apr2015)                                                                              150                                
PROFAMCHA150501132819132849000030Zapped (HD) Comedy - Sunday @ Noon (Jun2014)                                                                                150                                
PROFAMCHA150501132849132904000015Gaming Show Game (HD) Go to Family.ca (Mar2015)(2-                                                                          150                                
PRCFAMCHA150501132904132924000020Family Bumper Flex (HD) Garage Band (:17-:21) (Nov                                                                          150                                
PRCFAMCHA150501132924132954000030Stunt What the What?!? (HD) Overall CD - Continues                                                                          150                                
PROFAMCHA150501132954132959000005GLC (HD) ID - Bradley Perry 3 "Coming Up Next" (gi                                                                          150                                
PGRFAMCHA150501132959135253002254Good Luck Charlie                                 EP: 01                                                               6068707BCC                              
PROFAMCHA150501135253135336000043Episodic GMW (HD) 2-07 - New Episode Tonight @ 6:3                                                                          150                                
PROFAMCHA150501135336135408000032PAF (HD) Delicious Refresh - Coming Up Next (Jun20                                                                          150                                
PRCFAMCHA150501135408135452000044Episodic Jessie (HD) 4-05 - New Episode Tuesday Ni                                                                          150                                
PGRFAMCHA150501135452135652000200Short GF Dipper's Guide (HD) 106 Lefty (Nov16)                                                                         60688120CC                              
PRCFAMCHA150501135652135737000045Episodic LAM (HD) 2-21 - New Episode Friday May 8                                                                           150                                
PRCFAMCHA150501135737135822000045Stunt Teen Beach Bash Throwback (HD) Starting Frid                                                                          150                                
PRCFAMCHA150501135822135846000024Family Bumper Flex (HD) Bike Trails (:20-:24) (Mar                                                                          150                                
PROFAMCHA150501135846135938000052Penelope (HD) Tonight @ 8 (Nov 2013)                                                                                        150                                
PROFAMCHA150501135938135955000017PAF (HD) Disney Refresh CD - Coming Up Next (April                                                                          150                                
PGRFAMCHA150501135955142135002140Disney Phineas & Ferb                             EP: 17                                                               6068607ECC                              
PRCFAMCHA150501142135142210000035Family's 630 (HD)  Weeknights @ 6:30 (Apr2015)                                                                              150                                
PROFAMCHA150501142210142252000042ANT Farm Refresh 2014 (HD) Coming Up Next (Mar2014                                                                          150                                
PRCFAMCHA150501142252142407000115Stunt What the What?!? (HD) Overall - Continues To                                                                          150                                
PROFAMCHA150501142407142450000043Mickey Mouse Shorts Promo (HD) New Tonight After P                                                                          150                                
MVCFAMCHA150501142450142816000326MV Lift BTS 2014 (HD) Cody Simpson - Pretty Brown                                                                      10618120CC                              
PRCFAMCHA150501142816142838000022Episodic Next Step (HD) Ep 3-05 (Generic) - Tonigh                                                                          150                                
PRCFAMCHA150501142838142850000012Next Step Season 3A (HD) Extended Dance - Tonight                                                                           150                                
PRCFAMCHA150501142850142912000022Family Bumper Flex (HD) Fifteen Logos (:21-:22) (N                                                                          150                                
PROFAMCHA150501142912142942000030Zapped (HD) Comedy - Sunday @ Noon (Jun2014)                                                                                150                                
PROFAMCHA150501142942142957000015ANT Farm (HD) Refresh CT - Coming Up Next (April 2                                                                          150                                
PGRFAMCHA150501142957145328002331Disney A.N.T. Farm                                EP: 13                                                               6068607BCC                              
PRCFAMCHA150501145328145413000045Stunt Teen Beach Bash Throwback (HD) Starting Frid                                                                          150                                
PROFAMCHA150501145413145446000033ANT Farm (HD) Refresh - Coming Up Next (Jun2013)                                                                            150                                
PRCFAMCHA150501145446145531000045Episodic LAM (HD) 2-21 - New Episode Friday May 8                                                                           150                                
PGRFAMCHA150501145531145701000130Synergy (HD) RD Next Big Thing - Olly Murs Journey                                                                     60688120CC                              
PRCFAMCHA150501145701145745000044Episodic Jessie (HD) 4-05 - New Episode Tuesday Ni                                                                          150                                
PRCFAMCHA150501145745145806000021Family Bumper Flex (HD) Longboard (:19-:21) (Mar20                                                                          150                                
PROFAMCHA150501145806145858000052Penelope (HD) Tonight @ 8 (Nov 2013)                                                                                        150                                
PROFAMCHA150501145858145941000043Episodic GMW (HD) 2-07 - New Episode Tonight @ 6:3                                                                          150                                
PRCFAMCHA150501145941145955000014Family Flex Next (HD) ANT Farm - Jake (:12-:14) (A                                                                          150                                
PGRFAMCHA150501145955152211002216Disney A.N.T. Farm                                EP: 20                                                               6068607BCC                              
PRCFAMCHA150501152211152233000022Episodic Next Step (HD) Ep 3-05 (Generic) - Tonigh                                                                          150                                
PRCFAMCHA150501152233152245000012Next Step Season 3A (HD) Extended Dance - Tonight                                                                           150                                
PROFAMCHA150501152245152310000025GLC Promo 1 (HD) Coming Up Next (Sep2013)                                                                                   150                                
PROFAMCHA150501152310152340000030Zapped (HD) Comedy - Sunday @ Noon (Jun2014)                                                                                150                                
MVCFAMCHA150501152340152642000302MV Lift BTS 2014 (HD) Megan Nicole - Never Wanna L                                                                     10618120CC                              
PROFAMCHA150501152642152725000043Mickey Mouse Shorts Promo (HD) New Tonight After P                                                                          150                                
PRCFAMCHA150501152725152800000035Family's 630 (HD)  Weeknights @ 6:30 (Apr2015)                                                                              150                                
PROFAMCHA150501152800152850000050Walt Disney Pictures                                                                                                        150                                
PRCFAMCHA150501152850152907000017Family.ca Video Player (HD) Generic Message - Vers                                                                          150                                
PRCFAMCHA150501152907152927000020Family Bumper Flex (HD) Break Dance (:18-:21) (Mar                                                                          150                                
PRCFAMCHA150501152927152957000030Stunt What the What?!? (HD) Overall CD - Continues                                                                          150                                
PROFAMCHA150501152957153003000006GLC (HD) ID - Bridget Mendler 4 "Coming Up Next" (                                                                          150                                
PGRFAMCHA150501153003155221002218Disney Good Luck Charlie                          EP: 20                                                               6068807BCC                              
PROFAMCHA150501155221155304000043Episodic GMW (HD) 2-07 - New Episode Tonight @ 6:3                                                                          150                                
PROFAMCHA150501155304155349000045PAF Secret Agent (HD) Coming Up Next (Jan2014)                                                                              150                                
PRCFAMCHA150501155349155434000045Stunt Teen Beach Bash Throwback (HD) Starting Frid                                                                          150                                
PGRFAMCHA150501155434155533000059MV Disney (HD) R5 - Let's Not Be Alone Lyric Video                                                                     10615120CC                              
PRCFAMCHA150501155533155618000045Episodic LAM (HD) 2-21 - New Episode Friday May 8                                                                           150                                
PGRFAMCHA150501155618155748000130DMS (HD) Tomorrowland (Apr25-May25)(2-3x/day)                                                                          60688120CC                              
PRCFAMCHA150501155748155807000019Family Bumper Flex (HD) Flex ID - ANT Farm (:16-:2                                                                          150                                
PROFAMCHA150501155807155859000052Penelope (HD) Tonight @ 8 (Nov 2013)                                                                                        150                                
PRCFAMCHA150501155859155943000044Episodic Jessie (HD) 4-05 - New Episode Tuesday Ni                                                                          150                                
PROFAMCHA150501155943160000000017PAF (HD) Disney Refresh CD - Coming Up Next (April                                                                          150                                
PGRFAMCHA150501160000162233002233Disney Phineas and Ferb                           EP: 04                                                               6068607ECC                              
PROFAMCHA150501162233162316000043Mickey Mouse Shorts Promo (HD) New Tonight After P                                                                          150                                
PROFAMCHA150501162316162402000046Jessie (HD) Best Nanny In The World - Coming Up Ne                                                                          150                                
PRCFAMCHA150501162402162432000030Stunt What the What?!? (HD) Overall CD - Continues                                                                          150                                
MVCFAMCHA150501162432162746000314MV Lift BTS 2014 (HD) Cody Simpson - Got Me Good (                                                                     10618120CC                              
PROFAMCHA150501162746162816000030Zapped (HD) Comedy - Sunday @ Noon (Jun2014)                                                                                150                                
PRCFAMCHA150501162816162851000035Family's 630 (HD)  Weeknights @ 6:30 (Apr2015)                                                                              150                                
PRCFAMCHA150501162851162912000021Family Bumper Flex (HD) Garage Band (:17-:21) (Nov                                                                          150                                
PRCFAMCHA150501162912162934000022Episodic Next Step (HD) Ep 3-05 (Generic) - Tonigh                                                                          150                                
PRCFAMCHA150501162934162946000012Next Step Season 3A (HD) Extended Dance - Tonight                                                                           150                                
PRCFAMCHA150501162946163000000014Family Flex Next (HD) Jessie - Jessie  (:12-:14) (                                                                          150                                
PGRFAMCHA150501163000165147002147Disney Jessie                                     EP: 18                                                               6068807BCC                              
PRCFAMCHA150501165147165232000045Episodic LAM (HD) 2-21 - New Episode Friday May 8                                                                           150                                
PROFAMCHA150501165232165302000030Jessie (HD) Generic - Coming up Next (May2014)                                                                              150                                
PGRFAMCHA150501165302165642000340MV Non Disney (HD) Kyle Reynolds - Miles on my Hea                                                                     10615120CC                              
PROFAMCHA150501165642165734000052Penelope (HD) Tonight @ 8 (Nov 2013)                                                                                        150                                
PROFAMCHA150501165734165749000015Gaming Show Game (HD) Go to Family.ca (Mar2015)(2-                                                                          150                                
PRCFAMCHA150501165749165812000023Family Bumper Flex (HD) Bike Trails (:20-:24) (Mar                                                                          150                                
PRCFAMCHA150501165812165857000045Stunt Teen Beach Bash Throwback (HD) Starting Frid                                                                          150                                
PROFAMCHA150501165857165940000043Episodic GMW (HD) 2-07 - New Episode Tonight @ 6:3                                                                          150                                
PRCFAMCHA150501165940165954000014Family Flex Next (HD) Jessie - Luke (:12-:14) (Apr                                                                          150                                
PGRFAMCHA150501165954172228002234Disney Jessie                                     EP: 24                                                               6068807BCC                              
PRCFAMCHA150501172228172250000022Episodic Next Step (HD) Ep 3-05 (Generic) - Tonigh                                                                          150                                
PRCFAMCHA150501172250172302000012Next Step Season 3A (HD) Extended Dance - Tonight                                                                           150                                
PROFAMCHA150501172302172345000043LAM (HD) Tips Refresh - Coming Up Next (May2014)                                                                            150                                
PROFAMCHA150501172345172415000030Zapped (HD) Comedy - Sunday @ Noon (Jun2014)                                                                                150                                
PRCFAMCHA150501172415172450000035Family's 630 (HD)  Weeknights @ 6:30 (Apr2015)                                                                              150                                
PROFAMCHA150501172450172720000230Int Gaming Show (HD) 107 - Playdium/Interactive (A                                                                          150CC                              
PROFAMCHA150501172720172803000043Mickey Mouse Shorts Promo (HD) New Tonight After P                                                                          150                                
PROFAMCHA150501172803172853000050Walt Disney Pictures                                                                                                        150                                
PRCFAMCHA150501172853172915000022Family Bumper Flex (HD) Fifteen Logos (:21-:22) (N                                                                          150                                
PRCFAMCHA150501172915172945000030Stunt What the What?!? (HD) Overall CD - Continues                                                                          150                                
PRCFAMCHA150501172945173004000019Family Flex Next (HD) LAM - Dove (:10-:19) (Jul201                                                                          150                                
PGRFAMCHA150501173004175339002335Disney Liv and Maddie                             EP: 02                                                              A6068707BCC                              
PRCFAMCHA150501175339175424000045Episodic LAM (HD) 2-21 - New Episode Friday May 8                                                                           150                                
PROFAMCHA150501175424175507000043Austin & Ally (HD) Bud Sell Refresh - Coming Up Ne                                                                          150                                
PROFAMCHA150501175507175550000043Episodic GMW (HD) 2-07 - New Episode Tonight @ 6:3                                                                          150                                
PGRFAMCHA150501175550175646000056Synergy (HD) DC Avengers 2 - Story (Apr14-May31)                                                                       60688120CC                              
PRCFAMCHA150501175646175730000044Episodic Jessie (HD) 4-05 - New Episode Tuesday Ni                                                                          150                                
PROFAMCHA150501175730175822000052Penelope (HD) Tonight @ 8 (Nov 2013)                                                                                        150                                
PROFAMCHA150501175822175842000020Procter & Gamble                                                                                                            150                                
PRCFAMCHA150501175842175900000018Family Bumper Flex (HD) Flip Book (:15-:18) (Nov 2                                                                          150                                
PRCFAMCHA150501175900175945000045Stunt Teen Beach Bash Throwback (HD) Starting Frid                                                                          150                                
PRCFAMCHA150501175945180000000015Family Flex Next (HD) A&A Raini (Aug 2013) (:13-:1                                                                          150                                
PGRFAMCHA150501180000182231002231Disney Austin & Ally                              EP: 01                                                               6068807BCC                              
PRCFAMCHA150501182231182306000035Family's 630 (HD)  Weeknights @ 6:30 (Apr2015)                                                                              150                                
PRCFAMCHA150501182306182336000030Stunt What the What?!? (HD) Overall CD - Coming up                                                                          150                                
PRCFAMCHA150501182336182358000022Episodic Next Step (HD) Ep 3-05 (Generic) - Tonigh                                                                          150                                
PRCFAMCHA150501182358182410000012Next Step Season 3A (HD) Extended Dance - Tonight                                                                           150                                
PROFAMCHA150501182410182654000244Int Next Step (HD) 3013 - Riley's Song MV (Band Pe                                                                          150CC                              
PROFAMCHA150501182654182737000043Mickey Mouse Shorts Promo (HD) New Tonight After P                                                                          150                                
PROFAMCHA150501182737182827000050Walt Disney Pictures                                                                                                        150                                
PRCFAMCHA150501182827182845000018Family Bumper Flex (HD) Trampoline (:15-:21) (Mar2                                                                          150                                
PROFAMCHA150501182845182915000030Zapped (HD) Comedy - Sunday @ Noon (Jun2014)                                                                                150                                
PROFAMCHA150501182915182958000043Episodic GMW (HD) 2-07 - New Episode Coming Up Nex                                                                          150                                
PGRFAMCHA150501182958185302002304Disney Girl Meets World                           EP: 07                                                              A6028707BCC                              
PRCFAMCHA150501185302185347000045Stunt Teen Beach Bash Throwback (HD) Starting Frid                                                                          150                                
PROFAMCHA150501185347185417000030LAM Generic (HD) - Coming Up Next (May2014)                                                                                 150                                
PRCFAMCHA150501185417185501000044Episodic Jessie (HD) 4-05 - New Episode Tuesday Ni                                                                          150                                
PGRFAMCHA150501185501185646000145This Is Who I Am (HD) Mick (Stan) the Dog (Mar2015                                                                     10615120CC                              
PRCFAMCHA150501185646185703000017Family.ca Video Player (HD) Generic Message - Vers                                                                          150                                
PGRFAMCHA150501185703185833000130DMS (HD) Tomorrowland (Apr25-May25)(2-3x/day)                                                                          60688120CC                              
PRCFAMCHA150501185833185854000021Family Bumper Flex (HD) Dog Park (:19-:21) (Mar201                                                                          150                                
PROFAMCHA150501185854185946000052Penelope (HD) Tonight @ 8 (Nov 2013)                                                                                        150                                
PRCFAMCHA150501185946190005000019Family Flex Next (HD) LAM - Joey (:10-:19) (Jul201                                                                          150                                
PGRFAMCHA150501190005192323002318Disney Liv and Maddie                             EP: 12                                                              A6068707BCC                              
PROFAMCHA150501192323192353000030Zapped (HD) Comedy - Sunday @ Noon (Jun2014)                                                                                150                                
PRCFAMCHA150501192353192415000022Episodic Next Step (HD) Ep 3-05 (Generic) - Coming                                                                          150                                
PGRFAMCHA150501192415192731000316MV Disney (HD) Sabrina Carpenter - We'll Be The St                                                                     10615120CC                              
PROFAMCHA150501192731192814000043Mickey Mouse Shorts Promo (HD) New Tonight After P                                                                          150                                
PROFAMCHA150501192814192829000015Gaming Show Game (HD) Go to Family.ca (Mar2015)(2-                                                                          150                                
PROFAMCHA150501192829192849000020Procter & Gamble                                                                                                            150                                
PRCFAMCHA150501192849192904000015Family Bumper Flex (HD) Flex ID - Music ID (:14-:1                                                                          150                                
PRCFAMCHA150501192904192939000035Family's 630 (HD)  Weeknights @ 6:30 (Apr2015)                                                                              150                                
PRCFAMCHA150501192939193001000022Episodic Next Step (HD) Ep 3-05 (Generic) - Coming                                                                          150                                
PRCFAMCHA150501193001193015000014Descriptive Video Slate (HD) (Apr2013)                                                                                      150                                
PGRFAMCHA150501193015195303002248The Next Step                                     EP: 05                                                               1055607ACD3                             
PRCFAMCHA150501195303195325000022Episodic Next Step (HD) Ep 3-06 (Generic) - Next T                                                                          150                                
PGRFAMCHA150501195325195451000126Next Step Season 3A (HD) Extended Dance - 3005 (Ma                                                                     10218120CC                              
PROFAMCHA150501195451195543000052Penelope (HD) Coming Up Next (Nov 2013)                                                                                     150                                
PRCFAMCHA150501195543195628000045Episodic LAM (HD) 2-21 - New Episode Friday May 8                                                                           150                                
PRCFAMCHA150501195628195713000045Stunt Teen Beach Bash Throwback (HD) Starting Frid                                                                          150                                
PGRFAMCHA150501195713195812000059MV Disney (HD) R5 - Let's Not Be Alone Lyric Video                                                                     10615120CC                              
PRCFAMCHA150501195812195856000044Episodic Jessie (HD) 4-05 - New Episode Tuesday Ni                                                                          150                                
PROFAMCHA150501195856195948000052Penelope (HD) Coming Up Next (Nov 2013)                                                                                     150                                
ID FAMCHA150501195948200003000015Popcorn Pix Block Open (HD)  (Jan2011)                                                                                      150                                
ID FAMCHA150501200003200013000010Popcorn Pix Rating Slate (HD) - PG (Jan 2011)                                                                               150                                
PGRFAMCHA150501200013212939012926Penelope                                                                                                               2068807DCC                              
PROFAMCHA150501212939213022000043Mickey Mouse Shorts Promo (HD) New Episode Coming                                                                           150                                
PGRFAMCHA150501213022213352000330Mickey Mouse Shorts (HD) 2-16 - Bottle Shocked (Ma                                                                     60288120CC                              
PRCFAMCHA150501213352213407000015Family Bumper Flex (HD) Flex ID - Music ID (:14-:1                                                                          150                                
PRCFAMCHA150501213407213452000045Stunt Teen Beach Bash Throwback (HD) Starting Frid                                                                          150                                
PRCFAMCHA150501213452213507000015Family Flex Next (HD) DWAB Ghannelius (Aug 2013) (                                                                          150                                
PGRFAMCHA150501213507215741002234Disney Dog With a Blog                            EP: 12                                                              A6068707BCC                              
PRCFAMCHA150501215741215825000044Episodic Jessie (HD) 4-05 - New Episode Tuesday Ni                                                                          150                                
PROFAMCHA150501215825215915000050Universal Pictures                                                                                                          150                                
PRCFAMCHA150501215915215950000035Family's 630 (HD)  Weeknights @ 6:30 (Apr2015)                                                                              150                                
ID FAMCHA150501215950220005000015Popcorn Pix Block Open (HD)  (Jan2011)                                                                                      150                                
ID FAMCHA150501220005220014000009Popcorn Pix Rating Slate (HD) - G (Jan 2011)                                                                                150                                
ID FAMCHA150501220014220020000006Popcorn Pix Magic of Disney Bumper (HD) (Apr2013)                                                                           150                                
PGRFAMCHA150501220020233324013304The Cheetah Girls                                                                                                     A6068807CCC                              
PRCFAMCHA150501233324233340000016Family Bumper Flex (HD) Flex ID - Jessie ID (:15-:                                                                          150                                
PGRFAMCHA150501233340235610002230Life with Derek                                   EP: 18                                                        C26679A1065607BCC                              
PRCFAMCHA150501235610235632000022Episodic Next Step (HD) Ep 3-06 (Generic) - Next T                                                                          150                                
PROFAMCHA150501235632235722000050Universal Pictures                                                                                                          150                                
PRCFAMCHA150501235722235757000035Family's 630 (HD)  Weeknights @ 6:30 (Apr2015)                                                                              150                                
PROFAMCHA150501235757235827000030Zapped (HD) Comedy - Sunday @ Noon (Jun2014)                                                                                150                                
PSAFAMCHA150501235827235857000030PSA CMF (HD) Canada on Screen 2015 (Jan2015) (3x/d                                                                     1    130CC                              
PRCFAMCHA150501235857235918000021Family Bumper Flex (HD) Garage Band (:17-:21) (Nov                                                                          150                                
PRCFAMCHA150501235918000003000045Stunt Teen Beach Bash Throwback (HD) Starting Frid                                                                          150                                
PRCFAMCHA150501000003000017000014Descriptive Video Slate (HD) (Apr2013)                                                                                      150                                
PGRFAMCHA150501000017002248002231Wingin' It                                        EP: 23                                                        C32727 1065607ACD                              
PRCFAMCHA150501002248002333000045Episodic LAM (HD) 2-21 - New Episode Friday May 8                                                                           150                                
MVCFAMCHA150501002333002735000402MV Non Disney (HD) Jordan McIntosh - Story of My L                                                                     20688120CC                              
PROFAMCHA150501002735002750000015Gaming Show Game (HD) Go to Family.ca (Mar2015)(2-                                                                          150                                
PRCFAMCHA150501002750002820000030KC Undercover (HD) Image Spot (Mar2015)                                                                                     150                                
PRCFAMCHA150501002820002904000044Episodic Jessie (HD) 4-05 - New Episode Tuesday Ni                                                                          150                                
PRCFAMCHA150501002904002928000024Family Bumper Flex (HD) Bike Trails (:20-:24) (Mar                                                                          150                                
PRCFAMCHA150501002928003013000045Stunt Teen Beach Bash Throwback (HD) Starting Frid                                                                          150                                
PRCFAMCHA150501003013003027000014Descriptive Video Slate (HD) (Apr2013)                                                                                      150                                
PGRFAMCHA150501003027005259002232Wingin' It                                        EP: 27                                                        C32727 1065607ACD                              
PRCFAMCHA150501005259005321000022Episodic Next Step (HD) Ep 3-06 (Generic) - Next T                                                                          150                                
MVCFAMCHA150501005321005716000355MV Lift BTS 2014 (HD) Crystalyne - Punks Dont Danc                                                                     10618120CC                              
PRCFAMCHA150501005716005733000017Family.ca Video Player (HD) Generic Message - Vers                                                                          150                                
PRCFAMCHA150501005733005817000044Episodic Jessie (HD) 4-05 - New Episode Tuesday Ni                                                                          150                                
PSAFAMCHA150501005817005847000030PSA CMF (HD) Canada on Screen 2015 (Jan2015) (3x/d                                                                     1    130CC                              
PROFAMCHA150501005847005917000030Zapped (HD) Comedy - Sunday @ Noon (Jun2014)                                                                                150                                
PRCFAMCHA150501005917005939000022Family Bumper Flex (HD) Fifteen Logos (:21-:22) (N                                                                          150                                
PRCFAMCHA150501005939010014000035Family's 630 (HD)  Weeknights @ 6:30 (Apr2015)                                                                              150                                
PGRFAMCHA150501010014012249002235The Latest Buzz                                   EP: 15                                                        C30362 1065607BCC                              
PRCFAMCHA150501012249012307000018Family Bumper Flex (HD) Flip Book (:15-:18) (Nov 2                                                                          150                                
PGRFAMCHA150501012307014536002229What's Up, Warthogs!                              EP: 05                                                        C32738 1065607BCC                              
PRCFAMCHA150501014536014557000021Family Bumper Flex (HD) Trampoline (:15-:21) (Mar2                                                                          150                                
PGRFAMCHA150501014557020830002233Disney Wizards of Waverly Place                   EP: 21                                                               6068507BCC                              
PRCFAMCHA150501020830020851000021Family Bumper Flex (HD) Flex ID - IDDI (:19-:21)(F                                                                          150                                
PRCFAMCHA150501020851020905000014Descriptive Video Slate (HD) (Apr2013)                                                                                      150                                
PGRFAMCHA150501020905023137002232Really Me                                         EP: 02                                                        C35342 1065607ACD                              
PRCFAMCHA150501023137023155000018Family Bumper Flex (HD) Flex ID - Jessie ID (:15-:                                                                          150                                
PGRFAMCHA150501023155025426002231Life With Derek                                   EP: 15                                                        C24891 1065607BCC                              
PRCFAMCHA150501025426025450000024Family Bumper Flex (HD) Bike Trails (:20-:24) (Mar                                                                          150                                
PGRFAMCHA150501025450031652002202Slugterra                                         EP: 17                                                        A33763 1065607ACC                              
PRCFAMCHA150501031652031713000021Family Bumper Flex (HD) Flex ID - IDDI (:19-:21)(F                                                                          150                                
PGRFAMCHA150501031713033915002202Slugterra                                         EP: 18                                                        A33763 1065607ACC                              
PRCFAMCHA150501033915033933000018Family Bumper Flex (HD) Flex ID - Jessie ID (:15-:                                                                          150                                
PGRFAMCHA150501033933040155002222What's Up, Warthogs!                              EP: 08                                                        B33327 1065607BCC                              
PRCFAMCHA150501040155040214000019Family Bumper Flex (HD) Flex ID - ANT Farm (:16-:2                                                                          150                                
PGRFAMCHA150501040214042445002231Life With Derek                                   EP: 08                                                        C24891 1065607BCC                              
PRCFAMCHA150501042445042507000022Episodic Next Step (HD) Ep 3-06 (Generic) - Next T                                                                          150                                
PROFAMCHA150501042507042732000225Int Next Step (HD) 3011 - Lost & Found MV (Aunt Ka                                                                          150CC                              
PRCFAMCHA150501042732042807000035Family's 630 (HD)  Weeknights @ 6:30 (Apr2015)                                                                              150                                
PRCFAMCHA150501042807042851000044Episodic Jessie (HD) 4-05 - New Episode Tuesday Ni                                                                          150                                
PRCFAMCHA150501042851042912000021Family Bumper Flex (HD) Longboard (:19-:21) (Mar20                                                                          150                                
PRCFAMCHA150501042912042929000017Family.ca Video Player (HD) Generic Message - Vers                                                                          150                                
PROFAMCHA150501042929042959000030Zapped (HD) Comedy - Sunday @ Noon (Jun2014)                                                                                150                                
OFFFAMCHA150501042959043000000001OFF AIR                                                                                                                                                        
PGRFAMCHA150502043000045235002235The Latest Buzz                                   EP: 16                                                        C30362 1065607BCC                              
PRCFAMCHA150502045235045257000022Episodic Next Step (HD) Ep 3-06 (Generic) - Friday                                                                          150                                
PRCFAMCHA150502045257045309000012Next Step Season 3A (HD) Extended Dance - Friday N                                                                          150                                
PROFAMCHA150502045309045534000225Int Next Step (HD) 3011 - Lost & Found MV (Aunt Ka                                                                          150CC                              
PROFAMCHA150502045534045604000030Zapped (HD) Comedy - Sunday @ Noon (Jun2014)                                                                                150                                
PRCFAMCHA150502045604045648000044Episodic Jessie (HD) 4-05 - New Episode Tuesday Ni                                                                          150                                
PGRFAMCHA150502045648045818000130Copper Top Flop Show (HD) 116 The Snack Artist (Au                                                                     60688120CC                              
PRCFAMCHA150502045818045853000035Family's 630 (HD)  Weeknights @ 6:30 (Apr2015)                                                                              150                                
PRCFAMCHA150502045853045913000020Family Bumper Flex (HD) Dog Park (:19-:21) (Mar201                                                                          150                                
PRCFAMCHA150502045913045958000045Episodic LAM (HD) 2-21 - New Episode Friday Night                                                                           150                                
PGRFAMCHA150502045958052232002234Really Me                                         EP: 07                                                        B33828 1065607BCD                              
PRCFAMCHA150502052232052317000045Stunt Teen Beach Bash Throwback (HD) Starting Frid                                                                          150                                
PRCFAMCHA150502052317052402000045Episodic LAM (HD) 2-21 - New Episode Friday Night                                                                           150                                
PGRFAMCHA150502052402052458000056Synergy (HD) DC Avengers 2 - Set Tour (Apr14-May31                                                                     60688120CC                              
PRCFAMCHA150502052458052520000022Episodic Next Step (HD) Ep 3-06 (Generic) - Friday                                                                          150                                
PRCFAMCHA150502052520052532000012Next Step Season 3A (HD) Extended Dance - Friday N                                                                          150                                
PRCFAMCHA150502052532052554000022Family Bumper Flex (HD) Fifteen Logos (:21-:22) (N                                                                          150                                
MVCFAMCHA150502052554052920000326MV Lift BTS 2014 (HD) Cody Simpson - Pretty Brown                                                                      10618120CC                              
PRCFAMCHA150502052920053004000044Episodic Jessie (HD) 4-05 - New Episode Tuesday Ni                                                                          150                                
PGRFAMCHA150502053004055209002205What's Up, Warthogs!                              EP: 10                                                        C32738 1065607BCC                              
PRCFAMCHA150502055209055254000045Episodic LAM (HD) 2-21 - New Episode Friday Night                                                                           150                                
PRCFAMCHA150502055254055311000017Family Bumper Flex (HD) Flex ID - ANT Farm (:16-:2                                                                          150                                
PRCFAMCHA150502055311055355000044Episodic Jessie (HD) 4-05 - New Episode Tuesday Ni                                                                          150                                
PGRFAMCHA150502055355055915000520MV Lift BTS 2014 (HD) Next Step Dancers (Oct2014)                                                                      10618150CC                              
PRCFAMCHA150502055915055937000022Episodic Next Step (HD) Ep 3-06 (Generic) - Friday                                                                          150                                
PRCFAMCHA150502055937055949000012Next Step Season 3A (HD) Extended Dance - Friday N                                                                          150                                
PRCFAMCHA150502055949060003000014Descriptive Video Slate (HD) (Apr2013)                                                                                      150                                
PGRFAMCHA150502060003062233002230Wingin' It                                        EP: 07                                                        C32727 1065607ACD                              
PRCFAMCHA150502062233062317000044Episodic Jessie (HD) 4-05 - New Episode Tuesday Ni                                                                          150                                
PROFAMCHA150502062317062547000230Int Gaming Show (HD) 107 - Playdium/Interactive (A                                                                          150CC                              
PRCFAMCHA150502062547062609000022Episodic Next Step (HD) Ep 3-06 (Generic) - Friday                                                                          150                                
PRCFAMCHA150502062609062621000012Next Step Season 3A (HD) Extended Dance - Friday N                                                                          150                                
PRCFAMCHA150502062621062637000016Family Bumper Flex (HD) Flex ID - Music ID (:14-:1                                                                          150                                
PRCFAMCHA150502062637062722000045Episodic LAM (HD) 2-21 - New Episode Friday Night                                                                           150                                
PGRFAMCHA150502062722062912000150MV Lift (HD) A&A - Me & You (ep 3-11) (Aug2014)                                                                        60685120CC                              
PRCFAMCHA150502062912062957000045Stunt Teen Beach Bash Throwback (HD) Starting Frid                                                                          150                                
PGRFAMCHA150502062957065202002205Slugterra                                         EP: 37                                                        A33763 1065607ACC                              
PRCFAMCHA150502065202065247000045Episodic LAM (HD) 2-21 - New Episode Friday Night                                                                           150                                
PROFAMCHA1505020652470653320000457D (HD) Series Promo - Coming Up Next (Oct2014)                                                                             150                                
PRCFAMCHA150502065332065407000035Family's 630 (HD)  Weeknights @ 6:30 (Apr2015)                                                                              150                                
PGRFAMCHA150502065407065606000159Dogs Rule! (HD) 110 Awesome Dog Athletes (Aug20)                                                                       60688120CC                              
PRCFAMCHA150502065606065650000044Episodic Jessie (HD) 4-05 - New Episode Tuesday Ni                                                                          150                                
PRCFAMCHA150502065650065708000018Family Bumper Flex (HD) Flip Book (:15-:18) (Nov 2                                                                          150                                
PGRFAMCHA150502065708065838000130Synergy (HD) RD Next Big Thing - Olly Murs Journey                                                                     60688120CC                              
PRCFAMCHA150502065838065900000022Episodic Next Step (HD) Ep 3-06 (Generic) - Friday                                                                          150                                
PRCFAMCHA150502065900065912000012Next Step Season 3A (HD) Extended Dance - Friday N                                                                          150                                
PROFAMCHA1505020659120659570000457D (HD) Series Promo - Coming Up Next (Oct2014)                                                                             150                                
PGRFAMCHA150502065957072358002401Disney The 7D                                     EP: 05                                                               6068607ECC                              
PRCFAMCHA150502072358072443000045Stunt Teen Beach Bash Throwback (HD) Starting Frid                                                                          150                                
PROFAMCHA150502072443072534000051Gravity Falls (HD) Refresh - Coming Up Next (Jun20                                                                          150                                
PRCFAMCHA150502072534072556000022Episodic Next Step (HD) Ep 3-06 (Generic) - Friday                                                                          150                                
PRCFAMCHA150502072556072608000012Next Step Season 3A (HD) Extended Dance - Friday N                                                                          150                                
PGRFAMCHA150502072608072708000100MV Disney (HD) Sabrina Carpenter - We'll Be The St                                                                     10615120CC                              
PRCFAMCHA150502072708072723000015Family Bumper Flex (HD) Flex ID - Music ID (:14-:1                                                                          150                                
PRCFAMCHA150502072723072807000044Episodic Jessie (HD) 4-05 - New Episode Tuesday Ni                                                                          150                                
PROFAMCHA150502072807072857000050Walt Disney Pictures                                                                                                        150                                
PRCFAMCHA150502072857072942000045Episodic LAM (HD) 2-21 - New Episode Friday Night                                                                           150                                
PRCFAMCHA150502072942073005000023Gravity Falls (HD) Comedy Sell - Coming Up Next (A                                                                          150                                
PGRFAMCHA150502073005075210002205Disney Gravity Falls                              EP: 11                                                              A6068707ECC                              
PRCFAMCHA150502075210075254000044Episodic Jessie (HD) 4-05 - New Episode Tuesday Ni                                                                          150                                
PROFAMCHA150502075254075336000042ANT Farm Refresh 2014 (HD) Coming Up Next (Mar2014                                                                          150                                
PRCFAMCHA150502075336075421000045Episodic LAM (HD) 2-21 - New Episode Friday Night                                                                           150                                
PRCFAMCHA150502075421075438000017Family.ca Video Player (HD) Generic Message - Vers                                                                          150                                
PRCFAMCHA150502075438075500000022Episodic Next Step (HD) Ep 3-06 (Generic) - Friday                                                                          150                                
PRCFAMCHA150502075500075512000012Next Step Season 3A (HD) Extended Dance - Friday N                                                                          150                                
PROFAMCHA150502075512075756000244Int Next Step (HD) 3013 - Riley's Song MV (Band Pe                                                                          150CC                              
PRCFAMCHA150502075756075831000035Family's 630 (HD)  Weeknights @ 6:30 (Apr2015)                                                                              150                                
PROFAMCHA150502075831075851000020Procter & Gamble                                                                                                            150                                
PRCFAMCHA150502075851075912000021Family Bumper Flex (HD) Dog Park (:19-:21) (Mar201                                                                          150                                
PROFAMCHA150502075912075942000030Zapped (HD) Comedy - Sunday @ Noon (Jun2014)                                                                                150                                
PROFAMCHA150502075942075957000015ANT Farm (HD) Refresh CT - Coming Up Next (April 2                                                                          150                                
PGRFAMCHA150502075957082343002346Disney A.N.T. Farm                                EP: 17                                                               6068607BCC                              
PRCFAMCHA150502082343082428000045Stunt Teen Beach Bash Throwback (HD) Starting Frid                                                                          150                                
PRCFAMCHA150502082428082449000021DWAB Tango Refresh (HD) Coming Up Next (Mar2014)                                                                            150                                
PRCFAMCHA150502082449082533000044Episodic Jessie (HD) 4-05 - New Episode Tuesday Ni                                                                          150                                
PGRFAMCHA150502082533082712000139Copper Top Flop Show (HD) 109 Calum's Splishy Spla                                                                     60688120CC                              
PRCFAMCHA150502082712082728000016Family Bumper Flex (HD) Trampoline (:15-:21) (Mar2                                                                          150                                
PRCFAMCHA150502082728082813000045Episodic LAM (HD) 2-21 - New Episode Friday Night                                                                           150                                
PGRFAMCHA150502082813082909000056Synergy (HD) DC Avengers 2 - Story (Apr14-May31)                                                                       60688120CC                              
PRCFAMCHA150502082909082931000022Episodic Next Step (HD) Ep 3-06 (Generic) - Friday                                                                          150                                
PRCFAMCHA150502082931082943000012Next Step Season 3A (HD) Extended Dance - Friday N                                                                          150                                
PRCFAMCHA150502082943082958000015Family Flex Next (HD) DWAB Ghannelius (Aug 2013) (                                                                          150                                
PGRFAMCHA150502082958085230002232Disney Dog With a Blog                            EP: 11                                                              A6068707BCC                              
PGRFAMCHA150502085230085415000145This Is Who I Am (HD) Mick (Stan) the Dog (Mar2015                                                                     10615120CC                              
PRCFAMCHA150502085415085500000045Austin & Ally (HD) Pitch Perfect - Coming Up Next                                                                           150                                
PRCFAMCHA150502085500085522000022Episodic Next Step (HD) Ep 3-06 (Generic) - Friday                                                                          150                                
PRCFAMCHA150502085522085534000012Next Step Season 3A (HD) Extended Dance - Friday N                                                                          150                                
PRCFAMCHA150502085534085619000045Episodic LAM (HD) 2-21 - New Episode Friday Night                                                                           150                                
PGRFAMCHA150502085619085806000147MV Lift (HD) LAM - Count Me In (ep 1-20) (Aug2014)                                                                     60685120CC                              
PRCFAMCHA150502085806085841000035Family's 630 (HD)  Weeknights @ 6:30 (Apr2015)                                                                              150                                
PRCFAMCHA150502085841085901000020Family Bumper Flex (HD) Longboard (:19-:21) (Mar20                                                                          150                                
PRCFAMCHA150502085901085945000044Episodic Jessie (HD) 4-05 - New Episode Tuesday Ni                                                                          150                                
PRCFAMCHA150502085945090000000015Family Flex Next (HD) A&A Raini (Aug 2013) (:13-:1                                                                          150                                
PGRFAMCHA150502090000092233002233Disney Austin & Ally                              EP: 05                                                               6068807BCC                              
PRCFAMCHA150502092233092317000044Episodic Jessie (HD) 4-05 - New Episode Tuesday Ni                                                                          150                                
PROFAMCHA150502092317092347000030IDDI Generic (HD) - coming up next (May2014)                                                                                150                                
PROFAMCHA150502092347092417000030Zapped (HD) Comedy - Sunday @ Noon (Jun2014)                                                                                150                                
PRCFAMCHA150502092417092502000045Episodic LAM (HD) 2-21 - New Episode Friday Night                                                                           150                                
PGRFAMCHA150502092502092632000130DMS (HD) Tomorrowland (Apr25-May25)(2-3x/day)                                                                          60688120CC                              
PRCFAMCHA150502092632092654000022Family Bumper Flex (HD) Fifteen Logos (:21-:22) (N                                                                          150                                
PRCFAMCHA150502092654092724000030Web FOD 2014 Refresh (HD) Family.ca (Mar2014) (2-3                                                                          150                                
PRCFAMCHA150502092724092746000022Episodic Next Step (HD) Ep 3-06 (Generic) - Friday                                                                          150                                
PRCFAMCHA150502092746092758000012Next Step Season 3A (HD) Extended Dance - Friday N                                                                          150                                
PROFAMCHA150502092758092848000050Walt Disney Pictures                                                                                                        150                                
PRCFAMCHA150502092848092933000045Stunt Teen Beach Bash Throwback (HD) Starting Frid                                                                          150                                
PRCFAMCHA150502092933092952000019Family Flex Next (HD) IDDI - Olivia (:10-:19) (Jul                                                                          150                                
PGRFAMCHA150502092952095327002335Disney I Didn't Do It                             EP: 06                                                               6068607ACC                              
PROFAMCHA150502095327095353000026Web IDDI @ family.ca (HD) Play Games at family.ca/                                                                          150                                
PRCFAMCHA150502095353095438000045Episodic LAM (HD) 2-21 - New Episode Friday Night                                                                           150                                
PROFAMCHA150502095438095523000045KC Undercover (HD) Spy Family Comedy Sell - Coming                                                                          150                                
PRCFAMCHA150502095523095545000022Episodic Next Step (HD) Ep 3-06 (Generic) - Friday                                                                          150                                
PRCFAMCHA150502095545095557000012Next Step Season 3A (HD) Extended Dance - Friday N                                                                          150                                
PROFAMCHA150502095557095822000225Int Next Step (HD) 3011 - Lost & Found MV (Aunt Ka                                                                          150CC                              
PRCFAMCHA150502095822095843000021Family Bumper Flex (HD) Garage Band (:17-:21) (Nov                                                                          150                                
PRCFAMCHA150502095843095927000044Episodic Jessie (HD) 4-05 - New Episode Tuesday Ni                                                                          150                                
PRCFAMCHA150502095927095957000030KC Undercover (HD) Comedy Action Sell - Coming Up                                                                           150                                
PGRFAMCHA150502095957102317002320Disney K.C. Undercover                            EP: 06                                                               6068807BCC                              
PRCFAMCHA150502102317102402000045Stunt Teen Beach Bash Throwback (HD) Starting Frid                                                                          150                                
PRCFAMCHA150502102402102432000030Jessie (HD) World Refresh - Coming Up Next (Feb201                                                                          150                                
PROFAMCHA150502102432102702000230Int Gaming Show (HD) 107 - Playdium/Interactive (A                                                                          150CC                              
PRCFAMCHA150502102702102726000024Family Bumper Flex (HD) Bike Trails (:20-:24) (Mar                                                                          150                                
PRCFAMCHA150502102726102811000045Episodic LAM (HD) 2-21 - New Episode Friday Night                                                                           150                                
PGRFAMCHA150502102811102911000100MV Disney (HD) Sabrina Carpenter - We'll Be The St                                                                     10615120CC                              
PRCFAMCHA150502102911102933000022Episodic Next Step (HD) Ep 3-06 (Generic) - Friday                                                                          150                                
PRCFAMCHA150502102933102945000012Next Step Season 3A (HD) Extended Dance - Friday N                                                                          150                                
PRCFAMCHA150502102945102959000014Family Flex Next (HD) Jessie - Zuri (:12-:14) (Apr                                                                          150                                
PGRFAMCHA150502102959105247002248Disney Jessie                                     EP: 19                                                               6068807BCC                              
PRCFAMCHA150502105247105331000044Episodic Jessie (HD) 4-05 - New Episode Tuesday Ni                                                                          150                                
