SO FAMCHA110101043000043011000011Sign On (oct 1)                                                                                                                                                
PGRFAMCHA110101043011045404002353Henry's World                                     EP: 01                                                        B66543A1065607ECC                              
ID FAMCHA110101045404045410000006Astral ID REVISED (Oct 2010)                                                                                                150                                
PROFAMCHA110101045410045440000030PH-D Promo - PH-D On Demand OTT REV Oct2010 - PH-D                                                                          150                                
PROFAMCHA110101045440045500000020PH-D - Show Throw - CAN Benjamin Bear #1- Safari -                                                                          150                                
PROFAMCHA110101045500045510000010PH-D EOB ID - Flex ID Sunny Red Background (:06-:1                                                                          150                                
PGRFAMCHA110101045510051742002232The Secret World of Benjamin Bear                 EP: 43                                                        C31763 1065607ECC                              
PROFAMCHA110101051742051817000035PH-D Promo - Disney On Ice Contest (Nov 1 - Jan 30                                                                          150                                
PROFAMCHA110101051817051847000030Harry And His Bucket - Weekend Mornings @ 5:45 (Ma                                                                          150                                
PROFAMCHA110101051847051932000045Jungle Junction - PH-D - Signs & Learning Sell - T                                                                          150                                
PROFAMCHA110101051932051952000020PH-D - Show Throw - CAN Franny's Feet #2- Ooh & Aa                                                                          150                                
PROFAMCHA110101051952052002000010PH-D EOB ID - Bubbles - Laughter (Sept09)                                                                                   150                                
PGRFAMCHA110101052002054234002232Franny's Feet                                     EP: 44                                                        C31292 1065607ECC                              
ID FAMCHA110101054234054240000006Astral ID REVISED (Oct 2010)                                                                                                150                                
PROFAMCHA110101054240054310000030PH-D Promo - PH-D On Demand OTT REV Oct2010 - PH-D                                                                          150                                
PROFAMCHA110101054310054340000030Wow Wow Wubsy - PH-D - This Morning @ 6:35 (Nov09)                                                                          150                                
PROFAMCHA110101054340054425000045Mickey Mouse Clubhouse - PH-D - Refresh - Every Mo                                                                          150                                
PROFAMCHA110101054425054455000030PH-D - Show Throw - Harry And His Bucket - Coming                                                                           150                                
PROFAMCHA110101054455054505000010PH-D EOB ID - Marina (Sept09)                                                                                               150                                
PGRFAMCHA110101054505060639002134Harry and His Bucket Full of Dinosaurs            EP: 02                                                        B05021 1065607ECC                              
PROFAMCHA110101060639060648000009PH-D Promo - Ooh & Aah Web Throw - PH-D.CA                                                                                  150                                
PROFAMCHA110101060648060733000045Feld Entertainment                                                                                                          150                                
PROFAMCHA110101060733060803000030Wow Wow Wubsy - PH-D - Weekend Mornings @ 6:35 (No                                                                          150                                
PROFAMCHA110101060803060833000030Handy Manny - PH-D - Hop Jump 30 - This Morning @                                                                           150                                
PROFAMCHA110101060833060848000015PH-D - Bumpers - Ooh & Aah - Generic Winter Snowma                                                                          150                                
PROFAMCHA110101060848060918000030Harry And His Bucket - Refresh- Tomorrow Morning @                                                                          150                                
PROFAMCHA110101060918060948000030PH-D - Show Throw - Jungle Junction #6- Ooh & Aah                                                                           150                                
PROFAMCHA110101060948060958000010PH-D EOB ID - Bouncy Flex (Sept09)                                                                                          150                                
PGRFAMCHA110101060958063401002403Jungle Junction                                   EP: 07                                                               6068605ACC                              
ID FAMCHA110101063401063407000006Astral ID REVISED (Oct 2010)                                                                                                150                                
PROFAMCHA110101063407063442000035PH-D Promo - Disney On Ice Contest (Nov 1 - Jan 30                                                                          150                                
PROFAMCHA110101063442063512000030PH-D - Show Throw - Wow Wow Wubsy - PH-D - Coming                                                                           150                                
PROFAMCHA110101063512063522000010PH-D EOB ID - Beach (Sept09)                                                                                                150                                
PGRFAMCHA110101063522065932002410Wow Wow Wubbzy                                    EP: 38                                                               2068605ACC                              
PROFAMCHA110101065932070002000030PH-D - Show Throw - Mickey Mouse Clubhouse #7 - Oo                                                                          150                                
PROFAMCHA110101070002070008000006PH-D EOB ID - Flex ID Sunny Red Background (:06-:1                                                                          150                                
PGRFAMCHA110101070008072410002402Disney's Mickey Mouse Clubhouse                   EP: 34                                                               6068605ACC                              
ID FAMCHA110101072410072416000006Astral ID REVISED (Oct 2010)                                                                                                150                                
PROFAMCHA110101072416072446000030PH-D Promo - PH-D On Demand OTT REV Oct2010 - PH-D                                                                          150                                
PROFAMCHA110101072446072536000050Feld Entertainment                                                                                                          150                                
PROFAMCHA110101072536072621000045Jungle Junction - PH-D - Signs & Learning Sell - T                                                                          150                                
PROFAMCHA110101072621072636000015PH-D Short Throw - Whiffle & Fuzz # 2 -  Next (Jan                                                                          150                                
PGRFAMCHA110101072636072906000230PH-D Short - Whiffle & Fuzz - 03 - Piglet (Jan10)                                                                      60688120                                
PROFAMCHA110101072906072921000015Mickey Mouse Clubhouse - PH-D-Move To The Groove-                                                                           150                                
PROFAMCHA110101072921072951000030PH-D - Show Throw - Handy Manny #7 - Ooh & Aah (Se                                                                          150                                
PROFAMCHA110101072951073001000010PH-D EOB ID - Kaleidoscope # 03 (Sept09)                                                                                    150                                
PGRFAMCHA110101073001075359002358Handy Manny                                       EP: 29                                                               6068605ACC                              
PROFAMCHA110101075359075417000018Really Big Birth-days Cutdown - Go To Family.ca (A                                                                          150                                
PROFAMCHA110101075417075518000101Twistmas 2010 SIZZLE - Phin and Ferb (Dec 31-Jan3)                                                                          150                                
PRCFAMCHA110101075518075524000006Family Bumpers - (Phase 2 F/W 04) - Gymnastics (MD                                                                          150                                
PGRFAMCHA110101075524075820000256MV Disney - (MD/NS/NSW) - Jesse McCartney - Just S                                                                     20685120                                
PROFAMCHA110101075820075907000047Fish Hooks - High School (NSW) - Coming Up Next (O                                                                          150                                
PROFAMCHA110101075907075952000045Twistmas 2010 - Twistmas Marathons - Continues Thi                                                                          150                                
PROFAMCHA110101075952080010000018Nonstop Weekend Block Open (:16-:18) APR06                                                                                  150                                
PGRFAMCHA110101080010081235001225Disney Fish Hooks                                 EP: 02A                                                              6068607ECC                              
PGRFAMCHA110101081235082413001138Disney Fish Hooks                                 EP: 02B                                                              6068607ECC                              
ID FAMCHA110101082413082419000006Astral ID REVISED (Oct 2010)                                                                                                150                                
PRCFAMCHA110101082419082452000033FOD - Family Online On Demand RECUT - Go to Family                                                                          150                                
PROFAMCHA110101082452082537000045Walt Disney Pictures                                                                                                        150                                
PROFAMCHA110101082537082611000034Twistmas 2010 - Twistmas Interstitials - Spend Hol                                                                          150                                
PGRFAMCHA110101082611082922000311MV Disney - (MD/NS/NSW) - Jesse McCartney - Just S                                                                     20685120                                
PROFAMCHA110101082922083007000045Suite Life on Deck KETTLECORN (NSW) - Coming Up Ne                                                                          150                                
PRCFAMCHA110101083007083015000008NSW Bumper - Dodgeball (:07-:09) APR06                                                                                      150                                
PGRFAMCHA110101083015083143000128The Suite Life on Deck                            EP: 09                                                               6068607BCC                              
PGRFAMCHA110101083143084300001117The Suite Life on Deck                            EP: 09                                                               6068607BCC                              
PGRFAMCHA110101084300085117000817The Suite Life on Deck                            EP: 09                                                               6068607BCC                              
PGRFAMCHA110101085117085231000114The Suite Life on Deck                            EP: 09                                                               6068607BCC                              
PROFAMCHA110101085231085241000010Twistmas Lineups - 01 - Phineas/Phineas @ 9:30 (:9                                                                          150                                
PROFAMCHA110101085241085311000030Twistmas 2010 - Family.ca Bumper (Dec 4 - Jan 2)                                                                            150                                
PROFAMCHA110101085311085356000045Walt Disney Pictures                                                                                                        150                                
PROFAMCHA110101085356085443000047Twistmas 2010 - Twistmas Interstitials - New Year                                                                           150                                
PRCFAMCHA110101085443085519000036Baxter Generics School Promo (NSW) - Tonight @ 8:3                                                                          150                                
PROFAMCHA110101085519085649000130Twistmas 2010 SIZZLE - SLOD Movie (Dec 31-Jan3)                                                                             150                                
PROFAMCHA110101085649085730000041Majority Rules  (NS) Launch Promo - Monday to Thur                                                                          150                                
PROFAMCHA110101085730085823000053Shake It Up - BTS Rehearsal - Friday Night @ 6:30                                                                           150                                
PRCFAMCHA110101085823085838000015Twistmas Bumper 2009 - Rudolph                                                                                              150                                
PROFAMCHA110101085838085910000032Phineas & Ferb (NS) STOP WATCH - Coming Up Next (A                                                                          150                                
PROFAMCHA110101085910085955000045Twistmas 2010 - Twistmas Marathons - Continues Nex                                                                          150                                
PRCFAMCHA110101085955090007000012NSW Bumper - Fashion (:12-:14) APR06                                                                                        150                                
PGRFAMCHA110101090007090104000057Disney Phineas & Ferb                             EP: 26                                                               6068607ECC                              
PGRFAMCHA110101090104091129001025Disney Phineas & Ferb                             EP: 26                                                               6068607ECC                              
PGRFAMCHA110101091129092208001039Disney Phineas & Ferb                             EP: 26                                                               6068607ECC                              
PGRFAMCHA110101092208092238000030Disney Phineas & Ferb                             EP: 26                                                               6068607ECC                              
PROFAMCHA110101092238092248000010Twistmas Lineups - 02 - Phineas/Fish Hooks @ 10:00                                                                          150                                
PRCFAMCHA110101092248092320000032Twistmas - Princess Protection Program - Monday Ni                                                                          150                                
PROFAMCHA110101092320092405000045Walt Disney Pictures                                                                                                        150                                
PROFAMCHA110101092405092448000043I'm In The Band - Legend (NS) - Mon to Thurs Night                                                                          150                                
PROFAMCHA110101092448092603000115Twistmas 2010 SIZZLE - Shake It Up (Dec 31-Jan3)                                                                            150                                
PROFAMCHA110101092603092648000045Good Luck Charlie DUNCAN DANCE (NS) - Friday Night                                                                          150                                
PROFAMCHA110101092648092656000008Family Bumpers - (Phase 2 F/W 04) - Snow Ball (MD-                                                                          150                                
PGRFAMCHA110101092656092921000225Phineas & Ferb Take Two Shorts - Andy Samberg (Dec                                                                     60688120                                
PROFAMCHA110101092921092950000029Phineas & Ferb (NS) FREAK OUT Coming Up Next (OCT0                                                                          150                                
PRCFAMCHA110101092950093005000015NSW Bumper - Tennis (:15-:17) APR06                                                                                         150                                
PGRFAMCHA110101093005095236002231Disney Phineas & Ferb                             EP: 32                                                               6068607ECC                              
PROFAMCHA110101095236095246000010Twistmas Lineups - 03 - Fish Hooks/Fish Hooks @ 10                                                                          150                                
PROFAMCHA110101095246095331000045Twistmas 2010 - Twistmas Marathons - Continues Nex                                                                          150                                
PRCFAMCHA110101095331095404000033Twistmas - HSM 2 - Tomorrow Night @ 6:30 (Jan 1)                                                                            150                                
PGRFAMCHA110101095404095834000430MV Disney - (MD/NS/NSW) - Jesse McCartney - Just S                                                                     20685120                                
PROFAMCHA110101095834095910000036Ned's DSSG (NS) School Tour - Monday - Thursday Ni                                                                          150                                
PROFAMCHA110101095910095933000023Wizards of Waverly Place HARPER (NS) Fridays @ 7:3                                                                          150                                
PROFAMCHA110101095933100003000030Fish Hooks - Tease (NSW) - Coming Up Next (Sep2010                                                                          150                                
PRCFAMCHA110101100003100010000007NSW Bumper - Dodgeball (:07-:09) APR06                                                                                      150                                
PGRFAMCHA110101100010101207001157Disney Fish Hooks                                 EP: 08A                                                              6068607ECC                              
PGRFAMCHA110101101207102413001206Disney Fish Hooks                                 EP: 08B                                                              6068607ECC                              
ID FAMCHA110101102413102419000006Astral ID REVISED (Oct 2010)                                                                                                150                                
PROFAMCHA110101102419102429000010Twistmas Lineups - 04 - Fish Hooks/SLOD @ 11:00 (:                                                                          150                                
PROFAMCHA110101102429102459000030Twistmas 2010 - Family.ca Bumper (Dec 4 - Jan 2)                                                                            150                                
PROFAMCHA110101102459102539000040Sony Centre for the Performing Arts                                                                                         150                                
PRCFAMCHA110101102539102602000023Twistmas - HSM - Tonight @ 6:30 (Jan 1)                                                                                     150                                
PROFAMCHA110101102602102643000041Majority Rules  (NS) Launch Promo - Monday to Thur                                                                          150                                
PGRFAMCHA110101102643102813000130MV Disney - (MD/NS/NSW) - Jesse McCartney - Just S                                                                     60688120                                
PROFAMCHA110101102813102906000053Shake It Up - BTS Rehearsal - Friday Night @ 6:30                                                                           150                                
PROFAMCHA110101102906102953000047Fish Hooks - High School (NSW) - Coming Up Next (O                                                                          150                                
PRCFAMCHA110101102953103007000014NSW Bumper - Fashion (:12-:14) APR06                                                                                        150                                
PGRFAMCHA110101103007104158001151Disney Fish Hooks                                 EP: 07B                                                              6068607ECC                              
PGRFAMCHA110101104158105355001157Disney Fish Hooks                                 EP: 05B                                                              6068607ECC                              
ID FAMCHA110101105355105401000006Astral ID REVISED (Oct 2010)                                                                                                150                                
PROFAMCHA110101105401105411000010Twistmas Lineups - 05 - SLOD/SLOD @ 11:30 (:9-:11)                                                                          150                                
PRCFAMCHA110101105411105444000033FOD - Family Online On Demand RECUT - Go to Family                                                                          150                                
PROFAMCHA110101105444105531000047Twistmas 2010 - Twistmas Interstitials - New Year                                                                           150                                
PGRFAMCHA110101105531105827000256MV Disney - (MD/NS/NSW) - Jesse McCartney - Just S                                                                     20685120                                
PROFAMCHA110101105827105859000032Suite Life on Deck CODY & BAILEY (NSW) - Coming Up                                                                          150                                
PROFAMCHA110101105859105944000045Twistmas 2010 - Twistmas Marathons - Continues Nex                                                                          150                                
PRCFAMCHA110101105944105959000015NSW Bumper - Tennis (:15-:17) APR06                                                                                         150                                
PGRFAMCHA110101105959112230002231The Suite Life on Deck                            EP: 12                                                               6068607BCC                              
PROFAMCHA110101112230112240000010Twistmas Lineups - 06 - SLOD/SLOD @ 12:00 (:9-:11)                                                                          150                                
PROFAMCHA110101112240112258000018Really Big Birth-days Cutdown - Go To Family.ca (A                                                                          150                                
PGRFAMCHA110101112258112523000225Phineas & Ferb Take Two Shorts - Jack Black (Dec 1                                                                     60688120                                
PRCFAMCHA110101112523112559000036Baxter Generics School Promo (NSW) - Tonight @ 8:3                                                                          150                                
PGRFAMCHA110101112559112910000311MV Disney - (MD/NS/NSW) - Jesse McCartney - Just S                                                                     20685120                                
PROFAMCHA110101112910112955000045Suite Life on Deck KETTLECORN (NSW) - Coming Up Ne                                                                          150                                
PRCFAMCHA110101112955113003000008NSW Bumper - Dodgeball (:07-:09) APR06                                                                                      150                                
PGRFAMCHA110101113003115234002231The Suite Life on Deck                            EP: 15                                                               6068607BCC                              
PROFAMCHA110101115234115244000010Twistmas Lineups - 07 - SLOD/Wingin' It @ 12:30 (:                                                                          150                                
PRCFAMCHA110101115244115316000032Twistmas - Princess Protection Program - Monday Ni                                                                          150                                
PROFAMCHA110101115316115359000043I'm In The Band - Legend (NS) - Mon to Thurs Night                                                                          150                                
PROFAMCHA110101115359115500000101Twistmas 2010 SIZZLE - Phin and Ferb (Dec 31-Jan3)                                                                          150                                
PROFAMCHA110101115500115541000041Majority Rules  (NS) Launch Promo - Monday to Thur                                                                          150                                
PROFAMCHA110101115541115624000043Ned's DSSG (NS) Too Cool for School  - Mon - Thurs                                                                          150                                
PROFAMCHA110101115624115717000053Shake It Up - BTS Rehearsal - Friday Night @ 6:30                                                                           150                                
PGRFAMCHA110101115717115817000100MV Disney - (MD/NS/NSW) - Jesse McCartney - Just S                                                                     60688120                                
PROFAMCHA110101115817115840000023Wizards of Waverly Place HARPER (NS) Fridays @ 7:3                                                                          150                                
PROFAMCHA110101115840115912000032Suite Life on Deck CODY & BAILEY (NSW) - Coming Up                                                                          150                                
PROFAMCHA110101115912115957000045Twistmas 2010 - Twistmas Marathons - Continues Nex                                                                          150                                
PRCFAMCHA110101115957120010000013NSW Bumper - Fashion (:12-:14) APR06                                                                                        150                                
PGRFAMCHA110101120010122226002216The Suite Life on Deck                            EP: 11                                                               6068607BCC                              
PROFAMCHA110101122226122236000010Twistmas Lineups - 08 - Wingin' It/Good Luck Charl                                                                          150                                
PROFAMCHA110101122236122306000030Twistmas 2010 - Family.ca Bumper (Dec 4 - Jan 2)                                                                            150                                
PROFAMCHA110101122306122421000115Twistmas 2010 SIZZLE - Shake It Up (Dec 31-Jan3)                                                                            150                                
PRCFAMCHA110101122421122444000023Twistmas - HSM - Tonight @ 6:30 (Jan 1)                                                                                     150                                
PGRFAMCHA110101122444122714000230MV Disney - (MD/NS/NSW) - Jesse McCartney - Just S                                                                     60688120                                
PROFAMCHA110101122714122748000034Twistmas 2010 - Twistmas Interstitials - Spend Hol                                                                          150                                
PROFAMCHA110101122748122756000008Family Bumpers - (Phase 2 F/W 04) - Snow Ball (MD-                                                                          150                                
PRCFAMCHA110101122756122829000033Twistmas - HSM 2 - Tomorrow Night @ 6:30 (Jan 1)                                                                            150                                
PROFAMCHA110101122829122914000045Good Luck Charlie DUNCAN DANCE (NS) - Friday Night                                                                          150                                
PROFAMCHA110101122914122946000032Wingin' It Series - Angel Promo (NSW) - Coming Up                                                                           150                                
PRCFAMCHA110101122946123002000016NSW Bumper - Tennis (:15-:17) APR06                                                                                         150                                
PRCFAMCHA110101123002123011000009DV Bumper 2 - Orange FEB2010                                                                                                150                                
PGRFAMCHA110101123011125241002230Wingin' It                                        EP: 10                                                        C32356 1065607BCD                              
PROFAMCHA110101125241125251000010Twistmas Lineups - 09 - Good Luck Charlie/GLC @ 1:                                                                          150                                
PROFAMCHA110101125251125336000045Twistmas 2010 - Twistmas Marathons - Continues Nex                                                                          150                                
PGRFAMCHA110101125336125806000430MV Disney - (MD/NS/NSW) - Jesse McCartney - Just S                                                                     20685120                                
PROFAMCHA110101125806125859000053Shake It Up - BTS Rehearsal - Friday Night @ 6:30                                                                           150                                
PRCFAMCHA110101125859125914000015Twistmas Bumper 2009 - Candy Cane                                                                                           150                                
PROFAMCHA110101125914125959000045Good Luck Charlie DUNCAN DANCE (NSW) - Coming Up N                                                                          150                                
PRCFAMCHA110101125959130006000007NSW Bumper - Dodgeball (:07-:09) APR06                                                                                      150                                
PGRFAMCHA110101130006132237002231Good Luck Charlie                                 EP: 17                                                               6068707BCC                              
PROFAMCHA110101132237132246000009Twistmas Lineups - 10 - Good Luck Charlie/Hannah @                                                                          150                                
PRCFAMCHA110101132246132318000032Twistmas - Princess Protection Program - Monday Ni                                                                          150                                
PGRFAMCHA110101132318132418000100MV Disney - (MD/NS/NSW) - Jesse McCartney - Just S                                                                     60688120                                
PRCFAMCHA110101132418132441000023Twistmas - HSM - Tonight @ 6:30 (Jan 1)                                                                                     150                                
PROFAMCHA110101132441132524000043I'm In The Band - Legend (NS) - Mon to Thurs Night                                                                          150                                
PGRFAMCHA110101132524132852000328MV Disney - (MD/NS/NSW) - Jesse McCartney - Just S                                                                     60688120                                
PROFAMCHA110101132852132915000023Wizards of Waverly Place HARPER (NS) Fridays @ 7:3                                                                          150                                
PROFAMCHA110101132915133000000045Good Luck Charlie Sibling Sell (NSW) - Coming Up N                                                                          150                                
PRCFAMCHA110101133000133012000012NSW Bumper - Fashion (:12-:14) APR06                                                                                        150                                
PGRFAMCHA110101133012135213002201Good Luck Charlie                                 EP: 24                                                               6068707BCC                              
PROFAMCHA110101135213135223000010Twistmas Lineups - 11 - Hannah/Hannah @ 2:30 (:9-:                                                                          150                                
PROFAMCHA110101135223135308000045Twistmas 2010 - Twistmas Marathons - Continues Nex                                                                          150                                
PGRFAMCHA110101135308135604000256MV Disney - (MD/NS/NSW) - Jesse McCartney - Just S                                                                     20685120                                
PRCFAMCHA110101135604135637000033Twistmas - HSM 2 - Tomorrow Night @ 6:30 (Jan 1)                                                                            150                                
PROFAMCHA110101135637135718000041Majority Rules  (NS) Launch Promo - Monday to Thur                                                                          150                                
PROFAMCHA110101135718135848000130Twistmas 2010 SIZZLE - SLOD Movie (Dec 31-Jan3)                                                                             150                                
PROFAMCHA110101135848135931000043Ned's DSSG (NS) Too Cool for School  - Mon - Thurs                                                                          150                                
PROFAMCHA110101135931135946000015Hannah Montana (NSW) Sweet Nibs - Coming Up Next (                                                                          150                                
PRCFAMCHA110101135946140002000016NSW Bumper - Tennis (:15-:17) APR06                                                                                         150                                
PGRFAMCHA110101140002142233002231Hannah Montana                                    EP: 08                                                               6068707BCC                              
PROFAMCHA110101142233142243000010Twistmas Lineups - 12 - Hannah/Shake It Up @ 3:00                                                                           150                                
PROFAMCHA110101142243142336000053Shake It Up - BTS Rehearsal - Friday Night @ 6:30                                                                           150                                
PGRFAMCHA110101142336142647000311MV Disney - (MD/NS/NSW) - Jesse McCartney - Just S                                                                     20685120                                
PROFAMCHA110101142647142710000023Wizards of Waverly Place HARPER (NS) Fridays @ 7:3                                                                          150                                
PROFAMCHA110101142710142757000047Twistmas 2010 - Twistmas Interstitials - New Year                                                                           150                                
PGRFAMCHA110101142757142927000130MV Disney - (MD/NS/NSW) - Jesse McCartney - Just S                                                                     60688120                                
PROFAMCHA110101142927143001000034Hannah Montana (NSW) Robbie - Coming Up Next (Jan1                                                                          150                                
PRCFAMCHA110101143001143008000007NSW Bumper - Dodgeball (:07-:09) APR06                                                                                      150                                
PGRFAMCHA110101143008145254002246Hannah Montana                                    EP: 15                                                               6068707BCC                              
PROFAMCHA110101145254145304000010Twistmas Lineups - 13 - Shake It Up/Sonny With A C                                                                          150                                
PROFAMCHA110101145304145349000045Twistmas 2010 - Twistmas Marathons - Continues Nex                                                                          150                                
PGRFAMCHA110101145349145614000225Phineas & Ferb Take Two Shorts - Andy Samberg (Dec                                                                     60688120                                
PRCFAMCHA110101145614145637000023Twistmas - HSM - Tonight @ 6:30 (Jan 1)                                                                                     150                                
PROFAMCHA110101145637145722000045Good Luck Charlie DUNCAN DANCE (NS) - Friday Night                                                                          150                                
PGRFAMCHA110101145722145822000100MV Disney - (MD/NS/NSW) - Jesse McCartney - Just S                                                                     60688120                                
PROFAMCHA110101145822145915000053Shake It Up - BTS Rehearsal - Coming Up Next (Nov                                                                           150                                
PROFAMCHA110101145915145945000030Twistmas 2010 - Family.ca Bumper (Dec 4 - Jan 2)                                                                            150                                
PRCFAMCHA110101145945145958000013NSW Bumper - Fashion (:12-:14) APR06                                                                                        150                                
PGRFAMCHA110101145958152332002334Disney Shake It Up                                EP: 01                                                               6068707BCC                              
PROFAMCHA110101152332152343000011Twistmas Lineups - 14 - Sonny With A Chance/SWAC @                                                                          150                                
PRCFAMCHA110101152343152416000033FOD - Family Online On Demand RECUT - Go to Family                                                                          150                                
PROFAMCHA110101152416152444000028I'm In The Band - BTS Weasels Retag (NS) - Mon to                                                                           150                                
PROFAMCHA110101152444152559000115Twistmas 2010 SIZZLE - Shake It Up (Dec 31-Jan3)                                                                            150                                
PROFAMCHA110101152559152642000043Ned's DSSG (NS) Too Cool for School  - Mon - Thurs                                                                          150                                
PRCFAMCHA110101152642152653000011Family Bumpers - (Phase 2 F/W 04) - Science (MD-AM                                                                          150                                
PROFAMCHA110101152653152716000023Wizards of Waverly Place HARPER (NS) Fridays @ 7:3                                                                          150                                
PGRFAMCHA110101152716152846000130MV Disney - (MD/NS/NSW) - Jesse McCartney - Just S                                                                     60688120                                
PROFAMCHA110101152846152916000030Sonny With A Chance TAWNITOWN (NSW) - Coming Up Ne                                                                          150                                
PRCFAMCHA110101152916152948000032Twistmas - Princess Protection Program - Monday Ni                                                                          150                                
PRCFAMCHA110101152948153005000017NSW Bumper - Tennis (:15-:17) APR06                                                                                         150                                
PGRFAMCHA110101153005155236002231Sonny With A Chance                               EP: 24                                                               6028607BCC                              
PROFAMCHA110101155236155246000010Twistmas Lineups - 15 - Sonny With A Chance/SWAC @                                                                          150                                
PROFAMCHA110101155246155304000018Really Big Birth-days Cutdown - Go To Family.ca (A                                                                          150                                
PROFAMCHA110101155304155354000050Twistmas 2010 SIZZLE - SWAC S2 (Dec 31-Jan3)                                                                                150                                
PROFAMCHA110101155354155435000041Majority Rules  (NS) Launch Promo - Monday to Thur                                                                          150                                
PGRFAMCHA110101155435155905000430MV Disney - (MD/NS/NSW) - Jesse McCartney - Just S                                                                     20685120                                
PROFAMCHA110101155905155913000008Family Bumpers - (Phase 2 F/W 04) - Snow Ball (MD-                                                                          150                                
PROFAMCHA110101155913155958000045Sonny With A Chance MADE UP SHOW (NSW) - Coming Up                                                                          150                                
PRCFAMCHA110101155958160005000007NSW Bumper - Dodgeball (:07-:09) APR06                                                                                      150                                
PGRFAMCHA110101160005162251002246Sonny With A Chance                               EP: 21                                                               6068607BCC                              
PROFAMCHA110101162251162300000009Twistmas Lineups - 16 - Sonny With A Chance/WOWP @                                                                          150                                
PROFAMCHA110101162300162345000045Twistmas 2010 - Twistmas Marathons - Continues Nex                                                                          150                                
PROFAMCHA110101162345162432000047Twistmas 2010 - Twistmas Interstitials - New Year                                                                           150                                
PRCFAMCHA110101162432162455000023Twistmas - HSM - Tonight @ 6:30 (Jan 1)                                                                                     150                                
PGRFAMCHA110101162455162823000328MV Disney - (MD/NS/NSW) - Jesse McCartney - Just S                                                                     60688120                                
PROFAMCHA110101162823162908000045Good Luck Charlie Sibling Sell (NS) - Friday Night                                                                          150                                
PRCFAMCHA110101162908162923000015Twistmas Bumper 2009 - Candy Cane                                                                                           150                                
PROFAMCHA110101162923162953000030Sonny With A Chance TAWNITOWN (NSW) - Coming Up Ne                                                                          150                                
PRCFAMCHA110101162953163005000012NSW Bumper - Fashion (:12-:14) APR06                                                                                        150                                
PGRFAMCHA110101163005165236002231Sonny With A Chance                               EP: 20                                                               6068607BCC                              
PROFAMCHA110101165236165246000010Twistmas Lineups - 17 - WOWP/WOWP @ 5:30 (:9-:11)(                                                                          150                                
PRCFAMCHA110101165246165318000032Twistmas - Princess Protection Program - Monday Ni                                                                          150                                
PROFAMCHA110101165318165348000030I'm In The Band - BTS Tripp Retag (NS) - Mon to Th                                                                          150                                
PGRFAMCHA110101165348165644000256MV Disney - (MD/NS/NSW) - Jesse McCartney - Just S                                                                     20685120                                
PROFAMCHA110101165644165727000043Ned's DSSG (NS) Too Cool for School  - Mon - Thurs                                                                          150                                
PROFAMCHA110101165727165842000115Twistmas 2010 SIZZLE - Shake It Up (Dec 31-Jan3)                                                                            150                                
PROFAMCHA110101165842165935000053Shake It Up - BTS Rehearsal - Friday Night @ 6:30                                                                           150                                
PROFAMCHA110101165935165948000013Wizards of Waverly Place S3 ALEX (NSW) Coming Up N                                                                          150                                
PRCFAMCHA110101165948170004000016NSW Bumper - Tennis (:15-:17) APR06                                                                                         150                                
PGRFAMCHA110101170004172236002232Disney Wizards of Waverly Place                   EP: 28                                                               6068607BCC                              
PROFAMCHA110101172236172246000010Twistmas Lineups - 18 - WOWP/WOWP @ 6:00 (:9-:11)(                                                                          150                                
PROFAMCHA110101172246172331000045Twistmas 2010 - Twistmas Marathons - Continues Nex                                                                          150                                
PGRFAMCHA110101172331172556000225Phineas & Ferb Take Two Shorts - Jack Black (Dec 1                                                                     60688120                                
PRCFAMCHA110101172556172619000023Twistmas - HSM - Tonight @ 6:30 (Jan 1)                                                                                     150                                
PGRFAMCHA110101172619172930000311MV Disney - (MD/NS/NSW) - Jesse McCartney - Just S                                                                     20685120                                
PROFAMCHA110101172930172955000025Wizards of Waverly Place HOODIE (NSW) Coming Up Ne                                                                          150                                
PRCFAMCHA110101172955173003000008NSW Bumper - Dodgeball (:07-:09) APR06                                                                                      150                                
PGRFAMCHA110101173003175236002233Disney Wizards of Waverly Place                   EP: 01                                                               6068607BCC                              
PROFAMCHA110101175236175306000030Twistmas 2010 - Family.ca Bumper (Dec 4 - Jan 2)                                                                            150                                
PROFAMCHA110101175306175407000101Twistmas 2010 SIZZLE - Phin and Ferb (Dec 31-Jan3)                                                                          150                                
PRCFAMCHA110101175407175440000033Twistmas - HSM 2 - Tomorrow Night @ 6:30 (Jan 1)                                                                            150                                
PRCFAMCHA110101175440175458000018Twistmas Bumper 2010 - Transmogsnow (Dec 15 - Jan                                                                           150                                
PGRFAMCHA110101175458175658000200MV Disney - (MD/NS/NSW) - Jesse McCartney - Just S                                                                     60688120                                
PROFAMCHA110101175658175751000053Shake It Up - BTS Rehearsal - Friday Night @ 6:30                                                                           150                                
PROFAMCHA110101175751175921000130Twistmas 2010 SIZZLE - SLOD Movie (Dec 31-Jan3)                                                                             150                                
PROFAMCHA110101175921175951000030Wizards of Waverly Place JUSTIN (NSW) Coming Up Ne                                                                          150                                
PRCFAMCHA110101175951180004000013NSW Bumper - Fashion (:12-:14) APR06                                                                                        150                                
PGRFAMCHA110101180004182237002233Disney Wizards of Waverly Place                   EP: 02                                                               6068607BCC                              
PROFAMCHA110101182237182247000010Twistmas Lineups - 19 - Next: High School Musical                                                                           150                                
PRCFAMCHA110101182247182319000032Twistmas - Princess Protection Program - Monday Ni                                                                          150                                
PROFAMCHA110101182319182402000043I'm In The Band - Legend (NS) - Mon to Thurs Night                                                                          150                                
PGRFAMCHA110101182402182632000230MV Disney - (MD/NS/NSW) - Jesse McCartney - Just S                                                                     60688120                                
PROFAMCHA110101182632182713000041Majority Rules  (NS) Launch Promo - Monday to Thur                                                                          150                                
PROFAMCHA110101182713182758000045Good Luck Charlie DUNCAN DANCE (NS) - Friday Night                                                                          150                                
PROFAMCHA110101182758182832000034Twistmas 2010 - Twistmas Interstitials - Spend Hol                                                                          150                                
PROFAMCHA110101182832182845000013Wizards of Waverly Place S3 ALEX (NS) Friday Night                                                                          150                                
PROFAMCHA110101182845182919000034PH-D Out Of Block - Handy Manny "Kelly" - Weekday                                                                           150                                
PRCFAMCHA110101182919182942000023Twistmas - HSM - Coming Up Next (Jan 1)                                                                                     150                                
ID FAMCHA110101182942183002000020Popcorn Pix Block Open (JUNE 06) (:18-:20)                                                                                  150                                
ID FAMCHA110101183002183012000010Ratings - G - Popcorn Pix Only (July 07)                                                                                    150                                
ID FAMCHA110101183012183018000006Magic of Disney - PIX - Shape (:06-:09)                                                                                     150                                
PGRFAMCHA110101183018200808013750High School Musical                                                                                                   A6068807CCC                              
PRCFAMCHA110101200808200844000036Baxter Generics School Promo (NSW) - Tonight @ 8:3                                                                          150                                
PROFAMCHA110101200844200929000045PH-D Out Of Block - MMCH Refresh - Every Morning @                                                                          150                                
PRCFAMCHA110101200929200949000020Latest Buzz - SIZZLE (NS) New Episodes - Coming Up                                                                          150                                
PROFAMCHA110101200949201006000017Nonstop Weekend Block Open (:16-:18) APR06                                                                                  150                                
PGRFAMCHA110101201006203241002235The Latest Buzz                                   EP: 26                                                        C30362 1015607BCC3                             
PRCFAMCHA110101203241203314000033FOD - Family Online On Demand RECUT - Go to Family                                                                          150                                
PROFAMCHA110101203314203401000047Fish Hooks - High School (NSW) - Tomorrow Morning                                                                           150                                
PROFAMCHA110101203401203451000050Twistmas 2010 SIZZLE - SWAC S2 (Dec 31-Jan3)                                                                                150                                
PROFAMCHA110101203451203523000032Suite Life on Deck CODY & BAILEY (NSW) - Weekend M                                                                          150                                
PROFAMCHA110101203523203608000045Twistmas 2010 - Twistmas Marathons - Continues Tom                                                                          150                                
PRCFAMCHA110101203608203624000016NSW Bumper - Tennis (:15-:17) APR06                                                                                         150                                
PRCFAMCHA110101203624203633000009DV Bumper 1 - Teal FEB2010                                                                                                  150                                
PGRFAMCHA110101203633205903002230Baxter                                            EP: 04                                                        C31572 1055607BCD3                             
PRCFAMCHA110101205903205915000012NSW - 25 - NIGHTLY PIX/NIGHTLY PIX (no time) :11 -                                                                          150                                
PROFAMCHA110101205915205949000034PH-D Out Of Block - Handy Manny "Kelly" - Weekday                                                                           150                                
PROFAMCHA110101205949210002000013xxNightly Pix Movie Open (:10-:15)                                                                                          150                                
ID FAMCHA110101210002210011000009Rating - PG - Nightly Pix Only  (DEC05) (:08 - :10                                                                          150                                
PGRFAMCHA11010121001122374601373513 Going on 30                                                                                                         2068807DCC                              
ID FAMCHA110101223746223752000006Astral ID REVISED (Oct 2010)                                                                                                150                                
PRCFAMCHA110101223752223804000012NSW - 26 - NIGHTLY PIX/SADIE (12:30)( :11 - :13) (                                                                          150                                
PROFAMCHA110101223804223817000013xxNightly Pix Movie Open (:10-:15)                                                                                          150                                
ID FAMCHA110101223817223826000009Rating - PG - Nightly Pix Only  (DEC05) (:08 - :10                                                                          150                                
ID FAMCHA110101223826223834000008Magic of Disney - PIX - Wipe (:06-:09)                                                                                      150                                
PGRFAMCHA110101223834002324014450Super Mario Bros.                                                                                                     B6068807D                                
PRCFAMCHA110101002324002336000012NSW - 28 - SADIE/HANNAH (:11 - :13) (SEPT07)                                                                                150                                
PRCFAMCHA110101002336002408000032Twistmas - Princess Protection Program - Monday Ni                                                                          150                                
PROFAMCHA110101002408002453000045Suite Life on Deck KETTLECORN (NSW) - Tomorrow Mor                                                                          150                                
PGRFAMCHA110101002453002804000311MV Disney - (MD/NS/NSW) - Jesse McCartney - Just S                                                                     20685120                                
PROFAMCHA110101002804002845000041Majority Rules  (NS) Launch Promo - Monday to Thur                                                                          150                                
PRCFAMCHA110101002845002905000020Twistmas Bumper 2010 - Robo Rex (Dec 15 - Jan 3)                                                                            150                                
PRCFAMCHA110101002905002945000040Naturally Sadie - ROMANTIC (NSW) Coming Up Next (M                                                                          150                                
PROFAMCHA110101002945003001000016Nonstop Weekend Block Open (:16-:18) APR06                                                                                  150                                
PGRFAMCHA110101003001005231002230Naturally, Sadie                                  EP: 57                                                        C29639 1065607ACC                              
ID FAMCHA110101005231005237000006Astral ID REVISED (Oct 2010)                                                                                                150                                
PRCFAMCHA110101005237005249000012NSW - 29 - HANNAH/CORY (:11 - :13) (OCT08)                                                                                  150                                
PRCFAMCHA110101005249005322000033Twistmas - HSM 2 - Tomorrow Night @ 6:30 (Jan 1)                                                                            150                                
PROFAMCHA110101005322005409000047Fish Hooks - High School (NSW) - Weekend Mornings                                                                           150                                
PGRFAMCHA110101005409005839000430MV Disney - (MD/NS/NSW) - Jesse McCartney - Just S                                                                     20685120                                
PRCFAMCHA110101005839005915000036Baxter Generics School Promo (NSW) - Tomorrow Nigh                                                                          150                                
PROFAMCHA110101005915005947000032Hannah Montana (NS) Sweet 16 - Coming Up Next (JUN                                                                          150                                
PRCFAMCHA110101005947010000000013NSW Bumper - Fashion (:12-:14) APR06                                                                                        150                                
PGRFAMCHA110101010000010253000253Hannah Montana                                    EP: 11                                                               6068807BCC                              
PGRFAMCHA110101010253011117000824Hannah Montana                                    EP: 11                                                               6068807BCC                              
PGRFAMCHA110101011117012156001039Hannah Montana                                    EP: 11                                                               6068807BCC                              
PGRFAMCHA110101012156012230000034Hannah Montana                                    EP: 11                                                               6068807BCC                              
PRCFAMCHA110101012230012242000012NSW - 30 - CORY/PHIL  (:11 - :13) (OCT08)                                                                                   150                                
PRCFAMCHA110101012242012258000016NSW Bumper - Tennis (:15-:17) APR06                                                                                         150                                
ID FAMCHA110101012258012304000006Magic of Disney - NS/NSW/PB - Wipe (:06-:09)                                                                                150                                
PGRFAMCHA110101012304012458000154Disney Cory in the House                          EP: 07                                                               6068607BCC                              
PGRFAMCHA110101012458013149000651Disney Cory in the House                          EP: 07                                                               6068607BCC                              
PGRFAMCHA110101013149014401001212Disney Cory in the House                          EP: 07                                                               6068607BCC                              
PGRFAMCHA110101014401014540000139Disney Cory in the House                          EP: 07                                                               6068607BCC                              
ID FAMCHA110101014540014546000006Astral ID REVISED (Oct 2010)                                                                                                150                                
PRCFAMCHA110101014546014558000012NSW - 31 - PHIL/LIZZIE (:11 - :13) (OCT08)                                                                                  150                                
PRCFAMCHA110101014558014606000008NSW Bumper - Dodgeball (:07-:09) APR06                                                                                      150                                
ID FAMCHA110101014606014612000006Magic of Disney - NS/NSW/PB - Shape (:06-:09)                                                                               150                                
PGRFAMCHA110101014612015239000627Phil of the Future                                EPS # 16                                                             6068607BCC                              
PGRFAMCHA110101015239015752000513Phil of the Future                                EPS # 16                                                             6068607BCC                              
PGRFAMCHA110101015752020322000530Phil of the Future                                EPS # 16                                                             6068607BCC                              
PGRFAMCHA110101020322020815000453Phil of the Future                                EPS # 16                                                             6068607BCC                              
PRCFAMCHA110101020815020827000012NSW - 32 - LIZZIE/LIFE WITH DEREK (:11 - :13) (OCT                                                                          150                                
PRCFAMCHA110101020827020840000013NSW Bumper - Fashion (:12-:14) APR06                                                                                        150                                
ID FAMCHA110101020840020846000006Magic of Disney - NS/NSW/PB - Wipe (:06-:09)                                                                                150                                
PGRFAMCHA110101020846023120002234Lizzie McGuire                                    EP: 05                                                               6068607BCC                              
ID FAMCHA110101023120023126000006Astral ID REVISED (Oct 2010)                                                                                                150                                
PRCFAMCHA110101023126023138000012NSW - 33 - DEREK/CORY IN THE HOUSE (:11 - :13) (SE                                                                          150                                
PRCFAMCHA110101023138023154000016NSW Bumper - Tennis (:15-:17) APR06                                                                                         150                                
PGRFAMCHA110101023154025424002230Life with Derek                                   EP: 06                                                        C23968A1065607BCC                              
PRCFAMCHA110101025424025436000012NSW - 34 - CORY IN THE HOUSE/RAVEN (:11 - :13) (SE                                                                          150                                
PRCFAMCHA110101025436025444000008NSW Bumper - Dodgeball (:07-:09) APR06                                                                                      150                                
PGRFAMCHA110101025444025627000143Disney Cory in the House                          EP: 05                                                               6068607BCC                              
PGRFAMCHA110101025627030515000848Disney Cory in the House                          EP: 05                                                               6068607BCC                              
PGRFAMCHA110101030515031620001105Disney Cory in the House                          EP: 05                                                               6068607BCC                              
PGRFAMCHA110101031620031721000101Disney Cory in the House                          EP: 05                                                               6068607BCC                              
ID FAMCHA110101031721031727000006Astral ID REVISED (Oct 2010)                                                                                                150                                
PRCFAMCHA110101031727031739000012NSW - 35 - RAVEN/SUITE LIFE (:11 - :13) (SEPT07)                                                                            150                                
PRCFAMCHA110101031739031753000014NSW Bumper - Fashion (:12-:14) APR06                                                                                        150                                
ID FAMCHA110101031753031802000009Magic of Disney - NS/NSW/PB - Shape (:06-:09)                                                                               150                                
PGRFAMCHA110101031802031947000145That's So Raven                                   EP: 090                                                              6068607BCC                              
PGRFAMCHA110101031947032804000817That's So Raven                                   EP: 090                                                              6068607BCC                              
PGRFAMCHA110101032804034005001201That's So Raven                                   EP: 090                                                              6068607BCC                              
PGRFAMCHA110101034005034041000036That's So Raven                                   EP: 090                                                              6068607BCC                              
PRCFAMCHA110101034041034054000013NSW - 36 - SUITE LIFE/DEREK (:11 - :13) (SEPT07)                                                                            150                                
PRCFAMCHA110101034054034111000017NSW Bumper - Tennis (:15-:17) APR06                                                                                         150                                
ID FAMCHA110101034111034120000009Magic of Disney - NS/NSW/PB - Wipe (:06-:09)                                                                                150                                
PGRFAMCHA110101034120040400002240The Suite Life of Zack and Cody                   EP: 01                                                               6068607BCC                              
ID FAMCHA110101040400040406000006Astral ID REVISED (Oct 2010)                                                                                                150                                
PRCFAMCHA110101040406040419000013NSW - 37 - LIFE WITH DEREK (:11 - :13) (SEPT07)                                                                             150                                
PRCFAMCHA110101040419040428000009NSW Bumper - Dodgeball (:07-:09) APR06                                                                                      150                                
PGRFAMCHA110101040428042659002231Life with Derek                                   EP: 03                                                        C23968A1065607BCC                              
PROFAMCHA110101042659042729000030PH-D Promo - PH-D On Demand OTT REV Oct2010 - PH-D                                                                          150                                
PROFAMCHA110101042729042814000045Jungle Junction - PH-D - Signs & Learning Sell -We                                                                          150                                
PROFAMCHA110101042814042859000045Mickey Mouse Clubhouse - PH-D - Refresh - This Mor                                                                          150                                
PROFAMCHA110101042859042934000035Franny's Feet - PH-D - Sweetie - Weekday Mornings                                                                           150                                
PROFAMCHA110101042934042949000015PH-D - Show Throw - CAN Henry's World #1- Ooh & Aa                                                                          150                                
PROFAMCHA110101042949042959000010PH-D EOB ID - Sky (Sept09)                                                                                                  150                                
OFFFAMCHA110101042959043000000001OFF AIR                                                                                                                                                        
SO FAMCHA110102043000043011000011Sign On (oct 1)                                                                                                                                                
PGRFAMCHA110102043011045401002350Henry's World                                     EP: 02                                                        B66544A1065607ECC                              
ID FAMCHA110102045401045407000006Astral ID REVISED (Oct 2010)                                                                                                150                                
PROFAMCHA110102045407045437000030PH-D Promo - PH-D On Demand OTT REV Oct2010 - PH-D                                                                          150                                
PROFAMCHA110102045437045457000020PH-D - Show Throw - CAN Benjamin Bear #1- Safari -                                                                          150                                
PROFAMCHA110102045457045507000010PH-D EOB ID - City - Girl Version (Sept09)                                                                                  150                                
PGRFAMCHA110102045507051738002231The Secret World of Benjamin Bear                 EP: 40                                                        C31763 1065607ECC                              
PROFAMCHA110102051738051813000035PH-D Promo - Disney On Ice Contest (Nov 1 - Jan 30                                                                          150                                
PROFAMCHA110102051813051843000030Harry And His Bucket - Refresh- This Morning @ 5:4                                                                          150                                
PROFAMCHA110102051843051903000020PH-D - Show Throw - CAN Franny's Feet #2- Ooh & Aa                                                                          150                                
PROFAMCHA110102051903051953000050PH-D Promo - IM Where is Warehouse Mouse - Fri Jan                                                                          150                                
PROFAMCHA110102051953052003000010PH-D EOB ID - Sky (Sept09)                                                                                                  150                                
PGRFAMCHA110102052003054236002233Franny's Feet                                     EP: 45                                                        C31292 1065607ECC                              
ID FAMCHA110102054236054242000006Astral ID REVISED (Oct 2010)                                                                                                150                                
PROFAMCHA110102054242054312000030PH-D Promo - PH-D On Demand OTT REV Oct2010 - PH-D                                                                          150                                
PROFAMCHA110102054312054357000045Mickey Mouse Clubhouse - PH-D - Refresh - This Mor                                                                          150                                
PROFAMCHA110102054357054427000030PH-D - Show Throw - Harry And His Bucket - Coming                                                                           150                                
PROFAMCHA110102054427054502000035PH-D Promo - Disney On Ice Contest (Nov 1 - Jan 30                                                                          150                                
PROFAMCHA110102054502054512000010PH-D EOB ID - Beach (Sept09)                                                                                                150                                
PGRFAMCHA110102054512060650002138Harry and His Bucket Full of Dinosaurs            EP: 03                                                        B05022 1065607ECC                              
PROFAMCHA110102060650060740000050PH-D Promo - IM Where is Warehouse Mouse - Fri Jan                                                                          150                                
PROFAMCHA110102060740060830000050Feld Entertainment                                                                                                          150                                
PROFAMCHA110102060830060900000030Wow Wow Wubsy - PH-D - This Morning @ 6:35 (Nov09)                                                                          150                                
PROFAMCHA110102060900060931000031Mickey Mouse Clubhouse - PH-D -  Generic 31 - This                                                                          150                                
PROFAMCHA110102060931061001000030PH-D - Show Throw - Jungle Junction #7- Ooh & Aah                                                                           150                                
PROFAMCHA110102061001061011000010PH-D EOB ID - Bouncy Flex (Sept09)                                                                                          150                                
PGRFAMCHA110102061011063414002403Jungle Junction                                   EP: 02                                                               6068605ACC                              
ID FAMCHA110102063414063420000006Astral ID REVISED (Oct 2010)                                                                                                150                                
PROFAMCHA110102063420063450000030PH-D - Show Throw - Wow Wow Wubsy - PH-D - Coming                                                                           150                                
PROFAMCHA110102063450063500000010PH-D EOB ID - Bubbles - Dream (Sept09)                                                                                      150                                
PGRFAMCHA110102063500065911002411Wow Wow Wubbzy                                    EP: 40                                                               2068605ACC                              
PROFAMCHA110102065911065946000035Franny's Feet - PH-D - Sweetie - Tomorrow Morning                                                                           150                                
PROFAMCHA110102065946070001000015PH-D - Show Throw - Mickey Mouse Clubhouse #4 - Oo                                                                          150                                
PROFAMCHA110102070001070011000010PH-D EOB ID - Kaleidoscope # 03 (Sept09)                                                                                    150                                
PGRFAMCHA110102070011072411002400Disney's Mickey Mouse Clubhouse                   EP: 35                                                               6068605ACC                              
ID FAMCHA110102072411072417000006Astral ID REVISED (Oct 2010)                                                                                                150                                
PROFAMCHA110102072417072447000030PH-D Promo - PH-D On Demand OTT REV Oct2010 - PH-D                                                                          150                                
PROFAMCHA110102072447072532000045Feld Entertainment                                                                                                          150                                
PROFAMCHA110102072532072617000045Franny's Feet - PH-D - Perfet 10 - Tomorrow Mornin                                                                          150                                
PROFAMCHA110102072617072632000015PH-D Short Throw - Whiffle & Fuzz # 3 -  Next (Jan                                                                          150                                
PGRFAMCHA110102072632072902000230PH-D Short - Whiffle & Fuzz - 07 - Fish (Jan10)                                                                        60688120                                
PROFAMCHA110102072902072932000030Imagination MoversS2 Promo#2 Warehouse Fav - Weekd                                                                          150                                
PROFAMCHA110102072932073002000030PH-D - Show Throw - Mickey Mouse Clubhouse #9 - Oo                                                                          150                                
PROFAMCHA110102073002073010000008PH-D EOB ID - Flex ID Sunny Red Background (:06-:1                                                                          150                                
PGRFAMCHA110102073010075410002400Disney's Mickey Mouse Clubhouse                   EP: 30                                                               6068605ACC                              
PROFAMCHA110102075410075455000045Twistmas 2010 - Twistmas Marathons - Continues Thi                                                                          150                                
PROFAMCHA110102075455075527000032Suite Life on Deck CODY & BAILEY (NSW) - This Morn                                                                          150                                
PGRFAMCHA110102075527075657000130MV Disney - (MD/NS/NSW) - Jesse McCartney - Just S                                                                     60688120                                
PROFAMCHA110102075657075740000043I'm In The Band - Legend (NS) - Mon to Thurs Night                                                                          150                                
PROFAMCHA110102075740075821000041Majority Rules  (NS) Launch Promo - Tomorrow Night                                                                          150                                
PROFAMCHA110102075821075908000047Fish Hooks - High School (NSW) - Coming Up Next (O                                                                          150                                
PRCFAMCHA110102075908075940000032Twistmas - Princess Protection Program - Tomorrow                                                                           150                                
PROFAMCHA110102075940075957000017Nonstop Weekend Block Open (:16-:18) APR06                                                                                  150                                
PGRFAMCHA110102075957081153001156Disney Fish Hooks                                 EP: 08A                                                              6068607ECC                              
PGRFAMCHA110102081153082400001207Disney Fish Hooks                                 EP: 08B                                                              6068607ECC                              
ID FAMCHA110102082400082406000006Astral ID REVISED (Oct 2010)                                                                                                150                                
PRCFAMCHA110102082406082439000033FOD - Family Online On Demand RECUT - Go to Family                                                                          150                                
PROFAMCHA110102082439082524000045Walt Disney Pictures                                                                                                        150                                
PRCFAMCHA110102082524082600000036Baxter Generics School Promo (NSW) - Weekend Night                                                                          150                                
PROFAMCHA110102082600082623000023Wizards of Waverly Place HARPER (NS) Weekdays @ 5p                                                                          150                                
PROFAMCHA110102082623082653000030I'm In The Band - BTS Tripp Retag (NS) - Tomorrow                                                                           150                                
PROFAMCHA110102082653082734000041Majority Rules  (NS) Launch Promo - Monday to Thur                                                                          150                                
PRCFAMCHA110102082734082747000013Connor Undercover - Lola ID (NS) - Friday Night @                                                                           150                                
PROFAMCHA110102082747082832000045Suite Life on Deck KETTLECORN (NSW) - Coming Up Ne                                                                          150                                
PROFAMCHA110102082832082912000040Sony Centre for the Performing Arts                                                                                         150                                
PRCFAMCHA110102082912082945000033Twistmas - HSM 2 - Tonight @ 6:30 (Jan 2)                                                                                   150                                
PRCFAMCHA110102082945083002000017NSW Bumper - Tennis (:15-:17) APR06                                                                                         150                                
PGRFAMCHA110102083002085233002231The Suite Life on Deck                            EP: 15                                                               6068607BCC                              
PROFAMCHA110102085233085243000010Twistmas Lineups - 01 - Phineas/Phineas @ 9:30 (:9                                                                          150                                
PROFAMCHA110102085243085328000045Twistmas 2010 - Twistmas Marathons - Continues Thi                                                                          150                                
PROFAMCHA110102085328085413000045Walt Disney Pictures                                                                                                        150                                
PROFAMCHA110102085413085445000032Suite Life on Deck CODY & BAILEY Retags (NS) - Tom                                                                          150                                
PGRFAMCHA110102085445085645000200MV Disney - (MD/NS/NSW) - Jesse McCartney - Just S                                                                     60688120                                
PRCFAMCHA110102085645085715000030Latest Buzz - LOCO (NS) Monday - Thursday Nights @                                                                          150                                
PROFAMCHA110102085715085802000047Twistmas 2010 - Twistmas Interstitials - New Year                                                                           150                                
PROFAMCHA110102085802085855000053Shake It Up - BTS Rehearsal - Friday Night @ 6:30                                                                           150                                
PROFAMCHA110102085855085927000032Phineas & Ferb (NS) STOP WATCH - Coming Up Next (A                                                                          150                                
PROFAMCHA110102085927085957000030Twistmas 2010 - Family.ca Bumper (Dec 4 - Jan 2)                                                                            150                                
PRCFAMCHA110102085957090011000014NSW Bumper - Fashion (:12-:14) APR06                                                                                        150                                
PGRFAMCHA110102090011092242002231Disney Phineas & Ferb                             EP: 30                                                               6068607ECC                              
ID FAMCHA110102092242092248000006Astral ID REVISED (Oct 2010)                                                                                                150                                
PROFAMCHA110102092248092258000010Twistmas Lineups - 02 - Phineas/Fish Hooks @ 10:00                                                                          150                                
PROFAMCHA110102092258092316000018Really Big Birth-days Cutdown - Go To Family.ca (A                                                                          150                                
PRCFAMCHA110102092316092352000036Baxter Generics School Promo (NSW) - Tonight @ 8:3                                                                          150                                
PGRFAMCHA110102092352092720000328MV Disney - (MD/NS/NSW) - Jesse McCartney - Just S                                                                     60688120                                
PROFAMCHA110102092720092743000023Wizards of Waverly Place HARPER (NS) Weekdays @ 5p                                                                          150                                
PROFAMCHA110102092743092828000045Good Luck Charlie DUNCAN DANCE (NS) - Friday Night                                                                          150                                
PRCFAMCHA110102092828092841000013Connor Undercover - Max ID (NS) - Friday Night @ 9                                                                          150                                
PROFAMCHA110102092841092928000047Twistmas 2010 - Twistmas Interstitials - New Year                                                                           150                                
PROFAMCHA110102092928092957000029Phineas & Ferb (NS) FREAK OUT Coming Up Next (OCT0                                                                          150                                
PRCFAMCHA110102092957093004000007NSW Bumper - Dodgeball (:07-:09) APR06                                                                                      150                                
PGRFAMCHA110102093004095235002231Disney Phineas & Ferb                             EP: 35                                                               6068607ECC                              
PROFAMCHA110102095235095245000010Twistmas Lineups - 03 - Fish Hooks/Fish Hooks @ 10                                                                          150                                
PRCFAMCHA110102095245095318000033Twistmas - HSM 2 - Tonight @ 6:30 (Jan 2)                                                                                   150                                
PROFAMCHA110102095318095346000028I'm In The Band - BTS Weasels Retag (NS) - Mon to                                                                           150                                
PGRFAMCHA110102095346095816000430MV Disney - (MD/NS/NSW) - Jesse McCartney - Just S                                                                     20685120                                
PROFAMCHA110102095816095901000045Good Luck Charlie DUNCAN DANCE (NS) - Friday Night                                                                          150                                
PROFAMCHA110102095901095948000047Fish Hooks - High School (NSW) - Coming Up Next (O                                                                          150                                
PRCFAMCHA110102095948100005000017NSW Bumper - Tennis (:15-:17) APR06                                                                                         150                                
PGRFAMCHA110102100005101222001217Disney Fish Hooks                                 EP: 06B                                                              6068607ECC                              
PGRFAMCHA110102101222102408001146Disney Fish Hooks                                 EP: 06A                                                              6068607ECC                              
ID FAMCHA110102102408102414000006Astral ID REVISED (Oct 2010)                                                                                                150                                
PROFAMCHA110102102414102424000010Twistmas Lineups - 04 - Fish Hooks/SLOD @ 11:00 (:                                                                          150                                
PRCFAMCHA110102102424102457000033Twistmas - HSM 2 - Tonight @ 6:30 (Jan 2)                                                                                   150                                
PGRFAMCHA110102102457102627000130MV Disney - (MD/NS/NSW) - Jesse McCartney - Just S                                                                     60688120                                
PROFAMCHA110102102627102708000041Majority Rules  (NS) Launch Promo - Monday to Thur                                                                          150                                
PRCFAMCHA110102102708102721000013Connor Undercover - Lola ID (NS) - Friday Night @                                                                           150                                
PROFAMCHA110102102721102851000130Twistmas 2010 SIZZLE - SLOD Movie (Dec 31-Jan3)                                                                             150                                
PROFAMCHA110102102851102921000030Fish Hooks - Tease (NSW) - Coming Up Next (Sep2010                                                                          150                                
PRCFAMCHA110102102921102953000032Twistmas - Princess Protection Program - Tomorrow                                                                           150                                
PRCFAMCHA110102102953103001000008NSW Bumper - Dodgeball (:07-:09) APR06                                                                                      150                                
PGRFAMCHA110102103001104158001157Disney Fish Hooks                                 EP: 08A                                                              6068607ECC                              
PGRFAMCHA110102104158105404001206Disney Fish Hooks                                 EP: 08B                                                              6068607ECC                              
PROFAMCHA110102105404105414000010Twistmas Lineups - 05 - SLOD/SLOD @ 11:30 (:9-:11)                                                                          150                                
PROFAMCHA110102105414105459000045Twistmas 2010 - Twistmas Marathons - Continues Nex                                                                          150                                
PROFAMCHA110102105459105544000045Walt Disney Pictures                                                                                                        150                                
PROFAMCHA110102105544105607000023Wizards of Waverly Place HARPER (NS) Tomorrow @ 5p                                                                          150                                
PROFAMCHA110102105607105648000041Majority Rules  (NS) Launch Promo - New Episode Th                                                                          150                                
PROFAMCHA110102105648105741000053Shake It Up - BTS Rehearsal - Friday Night @ 6:30                                                                           150                                
PROFAMCHA110102105741105815000034Twistmas 2010 - Twistmas Interstitials - Spend Hol                                                                          150                                
PRCFAMCHA110102105815105828000013Connor Undercover - Max ID (NS) - Friday Night @ 9                                                                          150                                
PROFAMCHA110102105828105913000045Suite Life on Deck KETTLECORN (NSW) - Coming Up Ne                                                                          150                                
PRCFAMCHA110102105913105946000033FOD - Family Online On Demand RECUT - Go to Family                                                                          150                                
PRCFAMCHA110102105946110002000016NSW Bumper - Tennis (:15-:17) APR06                                                                                         150                                
PGRFAMCHA110102110002112233002231The Suite Life on Deck                            EP: 10                                                               6068607BCC                              
ID FAMCHA110102112233112239000006Astral ID REVISED (Oct 2010)                                                                                                150                                
PROFAMCHA110102112239112249000010Twistmas Lineups - 06 - SLOD/SLOD @ 12:00 (:9-:11)                                                                          150                                
PRCFAMCHA110102112249112322000033Twistmas - HSM 2 - Tonight @ 6:30 (Jan 2)                                                                                   150                                
PRCFAMCHA110102112322112352000030Latest Buzz - LOCO (NS) Monday - Thursday Nights @                                                                          150                                
PGRFAMCHA110102112352112617000225Phineas & Ferb Take Two Shorts - Jack Black (Dec 1                                                                     60688120                                
PROFAMCHA110102112617112700000043Ned's DSSG (NS) Too Cool for School  - Tomorrow Ni                                                                          150                                
PROFAMCHA110102112700112745000045Good Luck Charlie DUNCAN DANCE (NS) - Friday Night                                                                          150                                
PROFAMCHA110102112745112900000115Twistmas 2010 SIZZLE - Shake It Up (Dec 31-Jan3)                                                                            150                                
PROFAMCHA110102112900112932000032Suite Life on Deck CODY & BAILEY (NSW) - Coming Up                                                                          150                                
PROFAMCHA110102112932113002000030Hatching Pete - Saturday Afternoon @ 1:30pm                                                                                 150                                
PRCFAMCHA110102113002113015000013NSW Bumper - Fashion (:12-:14) APR06                                                                                        150                                
PGRFAMCHA110102113015115246002231The Suite Life on Deck                            EP: 07                                                               6068607BCC                              
PROFAMCHA110102115246115256000010Twistmas Lineups - 07 - SLOD/Wingin' It @ 12:30 (:                                                                          150                                
PROFAMCHA110102115256115326000030Twistmas 2010 - Family.ca Bumper (Dec 4 - Jan 2)                                                                            150                                
