SO FAMCHA051001043000043011000011Sign On (oct 1)                                                                                                                                                
PROFAMCHA051001043011043020000009CC Disclaimer - FAST - Family.ca (:08-:10)                                                                                  150                                
PGRFAMCHA051001043020045423002403Henry's World                                     EPS # 2-023                                                   B81054A1065607GCC                              
PRCFAMCHA051001045423045428000005Astral ID (FEB05)                                                                                                           150                                
PROFAMCHA051001045428045443000015PH - 01 (S/S) - BEN/FRANNY/KING (SEP05) (:14 - 16)                                                                          150                                
ID FAMCHA051001045443045456000013PS Playhouse AM Block Open (:10-:15)                                                                                        150                                
PROFAMCHA051001045456045505000009CC Disclaimer - FAST - Family.ca (:08-:10)                                                                                  150                                
PGRFAMCHA051001045505051740002235The Secret World Of Benjamin Bear                 EPS # 1-009                                                   B75154A1065607ECC                              
PROFAMCHA051001051740051755000015PH - 01 (S/S) - FRANNY/KING/SPIDER (SEP05) (:14 -                                                                           150                                
ID FAMCHA051001051755051808000013PS Playhouse AM Block Open (:10-:15)                                                                                        150                                
PROFAMCHA051001051808051817000009CC Disclaimer - FAST - Family.ca (:08-:10)                                                                                  150                                
PGRFAMCHA051001051817054047002230Franny's Feet                                     EPS # 1-010                                                   C23970A1065607ECC                              
PRCFAMCHA051001054047054052000005Astral ID (FEB05)                                                                                                           150                                
PROFAMCHA051001054052054107000015PH - 01 (S/S) - KING/SPIDER/DINO (SEP05) (:14 - 16                                                                          150                                
ID FAMCHA051001054107054120000013PS Playhouse AM Block Open (:10-:15)                                                                                        150                                
PROFAMCHA051001054120054129000009CC Disclaimer - FAST - Family.ca (:08-:10)                                                                                  150                                
PGRFAMCHA051001054129060359002230King                                              EP: 009                                                       B75764A1065607ECC                              
PROFAMCHA051001060359060414000015PB - 01 - SPIDER/DINO/SPACE (SEP05) (:14 - 16)                                                                              150                                
ID FAMCHA051001060414060427000013PS Playhouse AM Block Open (:10-:15)                                                                                        150                                
PGRFAMCHA051001060427062608002141Spiderman                                         EP: 09                                                        C02618 1065607E                                
PRCFAMCHA051001062608062613000005Astral ID (FEB05)                                                                                                           150                                
PROFAMCHA051001062613062628000015PB - 02 - DINO/SPACE/ALL (SEP05) (:14 - 16)                                                                                 150                                
PROFAMCHA051001062628062658000030Power Rangers - Dino Thunder - Coming Up Next                                                                               150                                
PROFAMCHA051001062658062730000032Power Rangers - SPD - He's Tough - Today @ 6:55am                                                                           150                                
PRCFAMCHA051001062730062800000030Suite Life of Zack and Cody (NSW/AM) - Today @ 8:1                                                                          150                                
PROFAMCHA051001062800062837000037Ned's DSSG - Jungle (NSW) (SEP05) - Today @ 11:05a                                                                          150                                
PRCFAMCHA051001062837062846000009xxFamily Bumpers - (Phase 2 F/W 04) - Skateboard (                                                                          150                                
ID FAMCHA051001062846062901000015xxPower Box Block Open (:10-:15)                                                                                            150                                
PGRFAMCHA051001062901065025002124Power Rangers Dino Thunder                        EPS # 08                                                            A6068607E                                
PROFAMCHA051001065025065041000016PB - 03 - SPACE/ALL/LIZZIE (SEP05) (:14 - 16)                                                                               150                                
PROFAMCHA051001065041065113000032Power Rangers - SPD - He's Tough - Coming Up Next                                                                           150                                
PROFAMCHA051001065113065140000027xxAll That (JLS) (NSW) - Today @ 7:20am                                                                                     150                                
PRCFAMCHA051001065140065225000045Famous Players Popcorn Parties (1x)                                                                                         150                                
PROFAMCHA051001065225065249000024xxLizzie McGuire - SFX (NSW/AM) - Today @ 7:50am                                                                            150                                
PROFAMCHA051001065249065308000019Even Stevens - What's Up (SEPT05) - (NSW) - Today                                                                           150                                
PROFAMCHA051001065308065345000037Ned's DSSG - Jungle (NSW) (SEP05) - Today @ 11:05a                                                                          150                                
ID FAMCHA051001065345065400000015xxPower Box Block Open (:10-:15)                                                                                            150                                
PGRFAMCHA051001065400071639002239Power Rangers Space Patrol Delta                  EP: 25                                                               6068607E                                
PRCFAMCHA051001071639071644000005Astral ID (FEB05)                                                                                                           150                                
PROFAMCHA051001071644071659000015NSW - 01 - ALL/LIZZIE/SUITE (SEP05) (:14 - 16)                                                                              150                                
PROFAMCHA051001071659071726000027xxAll That (JLS) (NSW) - Coming Up Next                                                                                     150                                
PROFAMCHA051001071726071750000024xxLizzie McGuire - SFX (NSW/AM) - Today @ 7:50am                                                                            150                                
PRCFAMCHA051001071750071836000046xxFamily Hits Take 2 CD (Aug 19 - Oct 13) (5x, dai                                                                          150                                
PRCFAMCHA051001071836071906000030Suite Life of Zack and Cody (NSW/AM) - Today @ 8:1                                                                          150                                
PROFAMCHA051001071906071940000034Even Stevens - Corn Dog (SEPT05) - (NSW) - Today @                                                                          150                                
PRCFAMCHA051001071940071946000006Family Bumpers - (Phase 3 Spring 05) - Bubble Gum                                                                           150                                
ID FAMCHA051001071946072001000015Nonstop Weekend Block Open (:14-:17)                                                                                        150                                
PGRFAMCHA051001072001074002002001All That                                          EPS # 942                                                           A20686090                                
PROFAMCHA051001074002074016000014NSW - 02 - LIZZIE/SUITE/ZOEY (SEP05) (:14 - 16)                                                                             150                                
PROFAMCHA051001074016074040000024xxLizzie McGuire - SFX (NSW) - Coming Up Next                                                                               150                                
PRCFAMCHA051001074040074110000030Suite Life of Zack and Cody (NSW/AM) - Today @ 8:1                                                                          150                                
PROFAMCHA051001074110074141000031Cinderella DVD Blast - Available Oct 4 (Sep 26 - O                                                                    A     150                                
PRCFAMCHA051001074141074213000032xxThat's So Raven - Visions (NSW/AM) (MAR05) - Tod                                                                          150                                
PRCFAMCHA051001074213074237000024Nonstop Weekend - EVEN STEVENS - Banned                                                                                     150                                
PROFAMCHA051001074237074247000010FAMJAM - Open/Close                                                                                                         150                                
INTFAMCHA051001074247074347000100MV Disney - (MD/NSW) - I Can't Wait (HILARY DUFF)                                                                      60688120                                
PROFAMCHA051001074347074401000014xxFAMJAM - Close (FAMILY) xxDNUxx                                                                                           150                                
PROFAMCHA051001074401074435000034Even Stevens - Corn Dog (SEPT05) - (NSW) - Today @                                                                          150                                
PRCFAMCHA051001074435074512000037Wonder Fresh Fitness & Naturally, Sadie                                                                                     150                                
PROFAMCHA051001074512074551000039xxBrotherly Love (NSW) (SEP05) - Today @ 11:35am                                                                            150                                
PRCFAMCHA051001074551074622000031Naturally Sadie - TIE (Clip) (NSW) - Tonight @ 6:0                                                                          150                                
INTFAMCHA051001074622074722000100Chicken Little - Riddles #1 (upto Nov 14)                                                                             A60685120                                
PRCFAMCHA051001074722074749000027Darcy's Wild Life - (CHICKS) (NSW) (SEP05) - Tonig                                                                          150                                
ID FAMCHA051001074749074805000016Nonstop Weekend Block Open (:14-:17)                                                                                        150                                
ID FAMCHA051001074805074813000008Magic of Disney - NS/NSW/PB - Shape (:06-:09)                                                                               150                                
PROFAMCHA051001074813074822000009CC Disclaimer - FAST - Family.ca (:08-:10)                                                                                  150                                
PGRFAMCHA051001074822081053002231Lizzie McGuire                                    EP: 2-002                                                           A6068607BCC                              
PRCFAMCHA051001081053081058000005Astral ID (FEB05)                                                                                                           150                                
PROFAMCHA051001081058081113000015NSW - 03 - SUITE/ZOEY/RAVEN (SEP05) (:14 - 16)                                                                              150                                
PRCFAMCHA051001081113081143000030Suite Life of Zack and Cody (NSW) - Coming Up Next                                                                          150                                
PRCFAMCHA051001081143081213000030Firefly Phone Contest (Dec 5 - 25)                                                                                          150                                
PRCFAMCHA051001081213081246000033xxThat's So Raven - Dog Wash (NSW/AM) (MAR05) - To                                                                          150                                
PROFAMCHA051001081246081320000034Even Stevens - Corn Dog (SEPT05) - (NSW) - Today @                                                                          150                                
PROFAMCHA051001081320081350000030Fall Pop (Kelly Clarkson) Blast (Sep 12 - Oct 2)                                                                      A     150                                
PROFAMCHA051001081350081429000039xxBrotherly Love (NSW) (SEP05) - Today @ 11:35am                                                                            150                                
PROFAMCHA051001081429081437000008Phil of the Future IDs - I'm Ricky Ullman, You're                                                                           150                                
PRCFAMCHA051001081437081448000011Family Bumpers - (Phase 2 F/W 04) - Science (MD-AM                                                                          150                                
ID FAMCHA051001081448081504000016Nonstop Weekend Block Open (:14-:17)                                                                                        150                                
PGRFAMCHA051001081504083743002239Suite Life of Zack & Cody , The                   EP: 09                                                               6028607B                                
PROFAMCHA051001083743083758000015NSW - 04 - ZOEY/RAVEN/PHIL (SEP05) (:14 - 16)                                                                               150                                
PROFAMCHA051001083758083828000030xxZoey 101 - Perfect (OCT05) (NSW) - Coming Up Nex                                                                          150                                
PROFAMCHA051001083828083936000108Firefly Phone Dowload (Sep 12 - Oct 2)                                                                                A     150                                
PRCFAMCHA051001083936084009000033xxThat's So Raven - Dog Wash (NSW/AM) (MAR05) - To                                                                          150                                
PROFAMCHA051001084009084043000034Even Stevens - Corn Dog (SEPT05) - (NSW) - Today @                                                                          150                                
PROFAMCHA051001084043084128000045Robots DVD Blast - Available Now (Sept 27 - Oct 9)                                                                    A     150                                
PROFAMCHA051001084128084207000039xxBrotherly Love (NSW) (SEP05) - Today @ 11:35am                                                                            150                                
PRCFAMCHA051001084207084238000031Naturally Sadie - TIE (Clip) (NSW) - Tonight @ 6:0                                                                          150                                
PRCFAMCHA051001084238084247000009xxFamily Bumpers - (Phase 3 Spring 05) - Hip Hop (                                                                          150                                
ID FAMCHA051001084247084301000014Nonstop Weekend Block Open (:14-:17)                                                                                        150                                
PROFAMCHA051001084301084310000009CC Disclaimer - FAST - Family.ca (:08-:10)                                                                                  150                                
PGRFAMCHA051001084310090543002233Zoey 101                                          EPS # 13                                                             2068807BCC                              
PRCFAMCHA051001090543090548000005Astral ID (FEB05)                                                                                                           150                                
PROFAMCHA051001090548090604000016NSW - 05 - RAVEN/PHIL/EVEN (SEP05) (:14 - 16)                                                                               150                                
PRCFAMCHA051001090604090637000033xxThat's So Raven - Dog Wash (NSW) (MAR05) - Comin                                                                          150                                
PRCFAMCHA051001090637090707000030Firefly Phone Contest (Dec 5 - 25)                                                                                          150                                
PROFAMCHA051001090707090744000037Ned's DSSG - Jungle (NSW) (SEP05) - Today @ 11:05a                                                                          150                                
PROFAMCHA051001090744090823000039xxBrotherly Love (NSW) (SEP05) - Today @ 11:35am                                                                            150                                
PROFAMCHA051001090823090847000024xxLizzie McGuire - SFX (NSW/PM) - Today @ 3:25pm                                                                            150                                
INTFAMCHA051001090847090942000055Planet Rock Profiles - Michelle Branch            EP: 46                                                              A70687120                                
PRCFAMCHA051001090942091012000030Suite Life of Zack and Cody (NSW/PM) - Today @ 3:5                                                                          150                                
PROFAMCHA051001091012091042000030Polly Pocket Bead-iful Best Contest (Sep 19 - Oct                                                                     A     150                                
PRCFAMCHA051001091042091113000031Naturally Sadie - TIE (Clip) (NSW) - Tonight @ 6:0                                                                          150                                
PRCFAMCHA051001091113091138000025Darcy's Wild Life - (FREAK OUT) (NSW) (SEP05) - To                                                                          150                                
PRCFAMCHA051001091138091144000006Family Bumpers - (Phase 2 F/W 04) - Gymnastics (MD                                                                          150                                
ID FAMCHA051001091144091200000016Nonstop Weekend Block Open (:14-:17)                                                                                        150                                
PGRFAMCHA051001091200093438002238That's So Raven                                   EPS # 1-054                                                          6068607B                                
PROFAMCHA051001093438093454000016NSW - 06 - PHIL/EVEN/BMW (SEP05) (:14 - 16)                                                                                 150                                
PRCFAMCHA051001093454093524000030Phil of the Future (NSW) (PHIL) (DEC04) - Coming U                                                                          150                                
PRCFAMCHA051001093524093554000030Firefly Phone Contest (Dec 5 - 25)                                                                                          150                                
PROFAMCHA051001093554093628000034Even Stevens - Corn Dog (SEPT05) - (NSW) - Today @                                                                          150                                
PROFAMCHA051001093628093705000037Ned's DSSG - Jungle (NSW) (SEP05) - Today @ 11:05a                                                                          150                                
PROFAMCHA051001093705093744000039xxBrotherly Love (NSW) (SEP05) - Today @ 11:35am                                                                            150                                
PROFAMCHA051001093744093829000045Robots DVD Blast - Available Now (Sept 27 - Oct 9)                                                                    A     150                                
PRCFAMCHA051001093829093859000030Suite Life of Zack and Cody (NSW/PM) - Today @ 3:5                                                                          150                                
PRCFAMCHA051001093859093930000031Naturally Sadie - TIE (Clip) (NSW) - Tonight @ 6:0                                                                          150                                
PRCFAMCHA051001093930093957000027Darcy's Wild Life - (CHICKS) (NSW) (SEP05) - Tonig                                                                          150                                
PRCFAMCHA051001093957094043000046xxFamily Hits Take 2 CD (Aug 19 - Oct 13) (5x, dai                                                                          150                                
ID FAMCHA051001094043094100000017Nonstop Weekend Block Open (:14-:17)                                                                                        150                                
PGRFAMCHA051001094100100340002240Phil of the Future                                EPS # 10                                                             6068607B                                
PRCFAMCHA051001100340100345000005Astral ID (FEB05)                                                                                                           150                                
PROFAMCHA051001100345100400000015NSW - 07 - EVEN/BMW/NEDS (SEP05) (:14 - 16)                                                                                 150                                
PROFAMCHA051001100400100419000019Even Stevens - What's Up (SEPT05) - (NSW) - Coming                                                                          150                                
PROFAMCHA051001100419100449000030Fall Pop (Kelly Clarkson) Blast (Sep 12 - Oct 2)                                                                      A     150                                
PRCFAMCHA051001100449100500000011Naturally Sadie ID's - I'm Charlotte, you're watch                                                                          150                                
INTFAMCHA051001100500100945000445Movie Surfers - Greatest Game Ever Played - Feat #                                                                    A60685120                                
ID FAMCHA051001100945101000000015Nonstop Weekend Block Open (:14-:17)                                                                                        150                                
ID FAMCHA051001101000101008000008Magic of Disney - NS/NSW/PB - Wipe (:06-:09)                                                                                150                                
PROFAMCHA051001101008101017000009CC Disclaimer - FAST - Family.ca (:08-:10)                                                                                  150                                
PGRFAMCHA051001101017103256002239Even Stevens                                      EP: 2-015                                                           A6068807BCC                              
PROFAMCHA051001103256103311000015NSW - 08 - BMW/NEDS/BROTHERLY (SEP05) (:14 - 16)                                                                            150                                
PROFAMCHA051001103311103341000030Double Teamed (SEPT12) - Next Friday @ 7:30pm                                                                               150                                
PROFAMCHA051001103341103412000031Cinderella DVD Blast - Available Oct 4 (Sep 26 - O                                                                    A     150                                
PROFAMCHA051001103412103433000021Ned's DSSG - Cafeteria Food (NSW/AM) (SEP05) - Tod                                                                          150                                
PROFAMCHA051001103433103512000039xxBrotherly Love (NSW) (SEP05) - Today @ 11:35am                                                                            150                                
PROFAMCHA051001103512103536000024xxLizzie McGuire - SFX (NSW/PM) - Today @ 3:25pm                                                                            150                                
INTFAMCHA051001103536103636000100Chicken Little - Riddles #2 (upto Nov 14)                                                                             A60685120                                
PRCFAMCHA051001103636103706000030Suite Life of Zack and Cody (NSW/PM) - Today @ 3:5                                                                          150                                
PROFAMCHA051001103706103739000033Even Stevens - Stinky Feet (MAR05) - (NSW) - Tomor                                                                          150                                
PRCFAMCHA051001103739103746000007Family Bumpers - (Phase 2 F/W 04) - Hockey (MD-L/M                                                                          150                                
ID FAMCHA051001103746103802000016Nonstop Weekend Block Open (:14-:17)                                                                                        150                                
PROFAMCHA051001103802103811000009CC Disclaimer - FAST - Family.ca (:08-:10)                                                                                  150                                
PGRFAMCHA051001103811105906002055Boy Meets World                                   EP: 1-095                                                           B6068807BCC                              
PRCFAMCHA051001105906105911000005Astral ID (FEB05)                                                                                                           150                                
PROFAMCHA051001105911105926000015NSW - 09 - NEDS/BROTHERLY/WDP (SEP05) (:14 - 16)                                                                            150                                
PROFAMCHA051001105926105947000021Ned's DSSG - Cafeteria Food (SEP05) - Coming Up Ne                                                                          150                                
PRCFAMCHA051001105947110017000030Firefly Phone Contest (Dec 5 - 25)                                                                                          150                                
PROFAMCHA051001110017110056000039xxBrotherly Love (NSW) (SEP05) - Today @ 11:35am                                                                            150                                
PROFAMCHA051001110056110120000024xxLizzie McGuire - SFX (NSW/PM) - Today @ 3:25pm                                                                            150                                
INTFAMCHA051001110120110250000130Movie Surfers - Greatest Game Ever Played - Int #1                                                                    A60685120                                
PRCFAMCHA051001110250110320000030Suite Life of Zack and Cody (NSW/PM) - Today @ 3:5                                                                          150                                
PRCFAMCHA051001110320110335000015Naturally Sadie - MONTAGE (Clip) (NSW) - Tonight @                                                                          150                                
PRCFAMCHA051001110335110421000046xxFamily Hits Take 2 CD (Aug 19 - Oct 13) (5x, dai                                                                          150                                
PRCFAMCHA051001110421110445000024Darcy's Wild Life - (CHIMP) (NSW) - Tonight @ 6:30                                                                          150                                
ID FAMCHA051001110445110500000015Nonstop Weekend Block Open (:14-:17)                                                                                        150                                
PROFAMCHA051001110500110509000009CC Disclaimer - FAST - Family.ca (:08-:10)                                                                                  150                                
PGRFAMCHA051001110509112933002424Ned's Declassified School Survival Guide          EPS # 04                                                             2068807BCC                              
PROFAMCHA051001112933112948000015NSW - 10 - BROTHERLY/WDP (SEP05) (:14 - 16)                                                                                 150                                
PROFAMCHA051001112948113027000039xxBrotherly Love (NSW) (SEP05) - Coming Up Next                                                                             150                                
PROFAMCHA051001113027113051000024xxLizzie McGuire - SFX (NSW/PM) - Today @ 3:25pm                                                                            150                                
PROFAMCHA051001113051113121000030Fall Pop (Kelly Clarkson) Blast (Sep 12 - Oct 2)                                                                      A     150                                
PRCFAMCHA051001113121113151000030Suite Life of Zack and Cody (NSW/PM) - Today @ 3:5                                                                          150                                
PRCFAMCHA051001113151113222000031Naturally Sadie - TIE (Clip) (NSW) - Tonight @ 6:0                                                                          150                                
PRCFAMCHA051001113222113249000027Darcy's Wild Life - (CHICKS) (NSW) (SEP05) - Tonig                                                                          150                                
PRCFAMCHA051001113249113307000018Kicked Out (NSW) (Son) - Tonight @ 7:25pm                                                                                   150                                
PRCFAMCHA051001113307113334000027Radio Free Roscoe - (NSW/PM) (SEP05) - Tonight @ 7                                                                          150                                
PRCFAMCHA051001113334113343000009xxFamily Bumpers - (Phase 3 Spring 05) - Giant Foo                                                                          150                                
ID FAMCHA051001113343113400000017Nonstop Weekend Block Open (:14-:17)                                                                                        150                                
PGRFAMCHA051001113400115630002230Brotherly Love                                    EPS # 25                                                             6068807B                                
PRCFAMCHA051001115630115635000005Astral ID (FEB05)                                                                                                           150                                
PROFAMCHA051001115635115651000016Nonstop Weekend - 17(SEP) - WDP MOVIE (:14-:16)                                                                             150                                
PROFAMCHA051001115651115715000024xxLizzie McGuire - SFX (NSW/PM) - Today @ 3:25pm                                                                            150                                
PRCFAMCHA051001115715115745000030Firefly Phone Contest (Dec 5 - 25)                                                                                          150                                
PRCFAMCHA051001115745115800000015Suite Life of Zack and Cody (Teaser) (NSW/PM) - To                                                                          150                                
INTFAMCHA051001115800115930000130Movie Surfers - Greatest Game Ever Played - Int #1                                                                    A60685120                                
PRCFAMCHA051001115930115945000015Naturally Sadie - MONTAGE (Clip) (NSW) - Tonight @                                                                          150                                
ID FAMCHA051001115945120000000015Weekend Double Pix Movie Open (:13-:17)                                                                                     150                                
ID FAMCHA051001120000120009000009xxRating - PG - Ian (:08-:10)                                                                                               150                                
PROFAMCHA051001120009120018000009CC Disclaimer - FAST - Family.ca (:08-:10)                                                                                  150                                
ID FAMCHA051001120018120026000008Magic of Disney - PIX - Wipe (:06-:09)                                                                                      150                                
PGRFAMCHA051001120026132802012736Tiger Cruise                                                                                                          A6068807C                                
PRCFAMCHA051001132802132807000005Astral ID (FEB05)                                                                                                           150                                
PROFAMCHA051001132807132823000016Nonstop Weekend - 17(SEP) - WDP MOVIE (:14-:16)                                                                             150                                
PROFAMCHA051001132823132847000024xxLizzie McGuire - SFX (NSW/PM) - Today @ 3:25pm                                                                            150                                
PRCFAMCHA051001132847132918000031Naturally Sadie - TIE (Clip) (NSW) - Tonight @ 6:0                                                                          150                                
PRCFAMCHA051001132918132945000027Darcy's Wild Life - (CHICKS) (NSW) (SEP05) - Tonig                                                                          150                                
ID FAMCHA051001132945133000000015Weekend Double Pix Movie Open (:13-:17)                                                                                     150                                
ID FAMCHA051001133000133009000009xxRating - PG - Ian (:08-:10)                                                                                               150                                
PROFAMCHA051001133009133018000009CC Disclaimer - FAST - Family.ca (:08-:10)                                                                                  150                                
PGRFAMCHA051001133018145409012351Mr. Nanny                                                                                                             B2068807ECC                              
PRCFAMCHA051001145409145414000005Astral ID (FEB05)                                                                                                           150                                
PRCFAMCHA051001145414145444000030Suite Life of Zack and Cody (NSW/PM) - Today @ 3:5                                                                          150                                
INTFAMCHA051001145444145929000445Movie Surfers - Greatest Game Ever Played - Feat #                                                                    A60685120                                
PRCFAMCHA051001145929145944000015Naturally Sadie - MONTAGE (Clip) (NSW) - Tonight @                                                                          150                                
ID FAMCHA051001145944150000000016Nonstop Weekend Block Open (:14-:17)                                                                                        150                                
PGRFAMCHA051001150000152206002206PGA Tour Fore Kids                                                                                                    A60688110                                
PROFAMCHA051001152206152221000015NSW - 12 - LIZZIE/SUITE/PROUD (SEP05) (:14 - 16)                                                                            150                                
PROFAMCHA051001152221152244000023xxLizzie McGuire - SFX2 (NSW) - Coming Up Next                                                                              150                                
PROFAMCHA051001152244152314000030Polly Pocket Bead-iful Best Contest (Sep 19 - Oct                                                                     A     150                                
PRCFAMCHA051001152314152344000030Suite Life of Zack and Cody (NSW/PM) - Today @ 3:5                                                                          150                                
ID FAMCHA051001152344152400000016Nonstop Weekend Block Open (:14-:17)                                                                                        150                                
ID FAMCHA051001152400152408000008Magic of Disney - NS/NSW/PB - Shape (:06-:09)                                                                               150                                
PGRFAMCHA051001152408154642002234Lizzie McGuire                                    EP: 1-011                                                           A6068607B                                
PRCFAMCHA051001154642154647000005Astral ID (FEB05)                                                                                                           150                                
PROFAMCHA051001154647154702000015NSW - 13 - SUITE/PROUD/FILLMORE (SEP05) (:14 - 16)                                                                          150                                
PRCFAMCHA051001154702154732000030Suite Life of Zack and Cody (NSW) - Coming Up Next                                                                          150                                
PROFAMCHA051001154732154817000045Robots DVD Blast - Available Now (Sept 27 - Oct 9)                                                                    A     150                                
PRCFAMCHA051001154817154848000031Naturally Sadie - TIE (Clip) (NSW) - Tonight @ 6:0                                                                          150                                
PROFAMCHA051001154848154925000037Ned's DSSG - Jungle (NSW) (SEP05) - Tomorrow @ 11:                                                                          150                                
ID FAMCHA051001154925154950000025Darcy's Wild Life Web BBD - visit family.ca                                                                                 150                                
PROFAMCHA051001154950155029000039xxBrotherly Love (NSW) (SEP05) - Tomorrow @ 11:35a                                                                          150                                
PROFAMCHA051001155029155037000008Phil of the Future IDs - I'm Ricky Ullman, You're                                                                           150                                
PRCFAMCHA051001155037155046000009Family Bumpers - (Phase 1 Spring 04) - Soccer (MD-                                                                          150                                
ID FAMCHA051001155046155100000014Nonstop Weekend Block Open (:14-:17)                                                                                        150                                
PGRFAMCHA051001155100161339002239Suite Life of Zack & Cody, The                    EP: 08                                                               6068607B                                
PROFAMCHA051001161339161354000015NSW - 14 - PROUD/FILLMORE/BUZZ (SEP05) (:14 - 16)                                                                           150                                
PROFAMCHA051001161354161415000021Proud Family (BOND) - (MD) - Coming Up                                                                                      150                                
PROFAMCHA051001161415161445000030Fall Pop (Kelly Clarkson) Blast (Sep 12 - Oct 2)                                                                      A     150                                
PRCFAMCHA051001161445161515000030Buzz On Maggie (NSW) - Today @ 5:10pm                                                                                       150                                
PROFAMCHA051001161515161545000030xxKim Possible 007 (OCT05) (NSW) - Today @ 5:40pm                                                                           150                                
INTFAMCHA051001161545161645000100Chicken Little - Riddles #1 (upto Nov 14)                                                                             A60685120                                
PRCFAMCHA051001161645161715000030Brandy & Mr. Whiskers - Monday to Thursday @ 12:10                                                                          150                                
PRCFAMCHA051001161715161744000029Lloyd In Space (Oops) - Weekdays @ 3:25pm                                                                                   150                                
ID FAMCHA051001161744161800000016Nonstop Weekend Block Open (:14-:17)                                                                                        150                                
PGRFAMCHA051001161800164035002235The Proud Family                                  EPS # 2-023                                                         A6068607E                                
PRCFAMCHA051001164035164040000005Astral ID (FEB05)                                                                                                           150                                
PROFAMCHA051001164040164055000015NSW - 15 - FILLMORE/BUZZ/KIM (SEP05) (:14 - 16)                                                                             150                                
PRCFAMCHA051001164055164125000030Buzz On Maggie (NSW) - Today @ 5:10pm                                                                                       150                                
PROFAMCHA051001164125164233000108Firefly Phone Dowload (Sep 12 - Oct 2)                                                                                A     150                                
PRCFAMCHA051001164233164303000030Brandy & Mr. Whiskers - Monday to Thursday @ 12:10                                                                          150                                
PRCFAMCHA051001164303164322000019Nonstop Weekend - LIZZIE MCGUIRE - Lenny                                                                                    150                                
PRCFAMCHA051001164322164407000045Famous Players Popcorn Parties (1x)                                                                                         150                                
PRCFAMCHA051001164407164436000029Lloyd In Space (Oops) - Weekdays @ 3:25pm                                                                                   150                                
PRCFAMCHA051001164436164445000009xxFamily Bumpers - (Phase 1 Spring 04) - Baseball                                                                           150                                
ID FAMCHA051001164445164500000015Nonstop Weekend Block Open (:14-:17)                                                                                        150                                
PGRFAMCHA051001164500170738002238Disney's Fillmore!                                EP: 1-001                                                           A6068607E                                
PROFAMCHA051001170738170753000015NSW - 16 - BUZZ/KIM/NATURALLY (SEP05) (:14 - 16)                                                                            150                                
PRCFAMCHA051001170753170808000015Buzz On Maggie (BUG) (NSW) (NOV05) - Coming Up Nex                                                                          150                                
PROFAMCHA051001170808170839000031Cinderella DVD Blast - Available Oct 4 (Sep 26 - O                                                                    A     150                                
PROFAMCHA051001170839170909000030xxKim Possible 007 (OCT05) (NSW) - Today @ 5:40pm                                                                           150                                
PROFAMCHA051001170909170920000011Nonstop Weekend - LIZZIE MCGUIRE - Junk Food                                                                                150                                
INTFAMCHA051001170920171020000100Chicken Little - Riddles #2 (upto Nov 14)                                                                             A60685120                                
PROFAMCHA051001171020171114000054Weekenders - B-Ball (MD/PM) - (SEP05) - Weekdays @                                                                          150                                
PRCFAMCHA051001171114171143000029Lloyd In Space (Oops) - Weekdays @ 3:25pm                                                                                   150                                
ID FAMCHA051001171143171200000017Nonstop Weekend Block Open (:14-:17)                                                                                        150                                
PGRFAMCHA051001171200173438002238Disney's The Buzz On Maggie                       EP: 04                                                               6068607E                                
PRCFAMCHA051001173438173443000005Astral ID (FEB05)                                                                                                           150                                
PROFAMCHA051001173443173457000014NSW - 17 - KIM/NATURALLY/DARCY (SEP05) (:14 - 16)                                                                           150                                
PROFAMCHA051001173457173527000030xxKim Possible 007 (OCT05) (NSW) - Coming Up Next                                                                           150                                
PRCFAMCHA051001173527173557000030Firefly Phone Contest (Dec 5 - 25)                                                                                          150                                
PRCFAMCHA051001173557173627000030Brandy & Mr. Whiskers - Monday to Thursday @ 12:10                                                                          150                                
PROFAMCHA051001173627173721000054Weekenders - B-Ball (MD/PM) - (SEP05) - Weekdays @                                                                          150                                
PROFAMCHA051001173721173806000045Robots DVD Blast - Available Now (Sept 27 - Oct 9)                                                                    A     150                                
PRCFAMCHA051001173806173835000029Lloyd In Space (Oops) - Weekdays @ 3:25pm                                                                                   150                                
PRCFAMCHA051001173835173847000012xxFamily Bumpers - (Phase 1 Spring 04) - Picnic (M                                                                          150                                
ID FAMCHA051001173847173903000016Nonstop Weekend Block Open (:14-:17)                                                                                        150                                
PGRFAMCHA051001173903180157002254Disney's Kim Possible                             EPS # 1-031                                                         A6068607E                                
PROFAMCHA051001180157180212000015NSW - 18 - NATURALLY/DARCY/RAVEN (SEP05) (:14 - 16                                                                          150                                
PRCFAMCHA051001180212180227000015Naturally Sadie - MONTAGE (Clip) (NSW) - Coming Up                                                                          150                                
PRCFAMCHA051001180227180304000037Wonder Fresh Fitness & Naturally, Sadie                                                                                     150                                
PRCFAMCHA051001180304180331000027Darcy's Wild Life - (CHICKS) (NSW) (SEP05) - Tonig                                                                          150                                
INTFAMCHA051001180331180417000046Planet Rock Profiles - Nickelback (Great Band) xxDEP: 46                                                              A70687120                                
PRCFAMCHA051001180417180435000018Kicked Out (NSW) (Son) - Tonight @ 7:25pm                                                                                   150                                
PRCFAMCHA051001180435180502000027Radio Free Roscoe - (NSW/PM) (SEP05) - Tonight @ 7                                                                          150                                
PRCFAMCHA051001180502180548000046xxFamily Hits Take 2 CD (Aug 19 - Oct 13) (5x, dai                                                                          150                                
ID FAMCHA051001180548180603000015Nonstop Weekend Block Open (:14-:17)                                                                                        150                                
PGRFAMCHA051001180603182833002230Naturally, Sadie                                  EP: 02                                                        C24010 1055607ACC                              
PRCFAMCHA051001182833182838000005Astral ID (FEB05)                                                                                                           150                                
PROFAMCHA051001182838182853000015NSW - 19 - DARCY/RAVEN/OGRADY (NOV05) (:14 - 16)                                                                            150                                
PRCFAMCHA051001182853182920000027Darcy's Wild Life - (CHICKS) (NSW) (SEP05) - Comin                                                                          150                                
PRCFAMCHA051001182920182938000018Kicked Out (NSW) (Son) - Tonight @ 7:25pm                                                                                   150                                
PRCFAMCHA051001182938183005000027Radio Free Roscoe - (NSW/PM) (SEP05) - Tonight @ 7                                                                          150                                
PROFAMCHA051001183005183113000108Firefly Phone Dowload (Sep 12 - Oct 2)                                                                                A     150                                
PROFAMCHA051001183113183134000021Ned's DSSG - Cafeteria Food (NSW/AM) (SEP05) - Tom                                                                          150                                
PROFAMCHA051001183134183213000039xxBrotherly Love (NSW) (SEP05) - Tomorrow @ 11:35a                                                                          150                                
ID FAMCHA051001183213183238000025Darcy's Wild Life Web BBD - visit family.ca                                                                                 150                                
PRCFAMCHA051001183238183249000011Naturally Sadie ID's - I'm Charlotte, you're watch                                                                          150                                
ID FAMCHA051001183249183303000014Nonstop Weekend Block Open (:14-:17)                                                                                        150                                
PROFAMCHA051001183303183312000009CC Disclaimer - FAST - Family.ca (:08-:10)                                                                                  150                                
PGRFAMCHA051001183312185442002130Darcy's Wild Life                                 EP: 09                                                        A03956 1065607BCC                              
PROFAMCHA051001185442185458000016NSW - 20 - RAVEN/KICKED/RADIO (SEP05) (:14 - 16)                                                                            150                                
PRCFAMCHA051001185458185531000033xxThat's So Raven - Dog Wash (NSW) (MAR05) - Comin                                                                          150                                
PRCFAMCHA051001185531185601000030Firefly Phone Contest (Dec 5 - 25)                                                                                          150                                
PRCFAMCHA051001185601185619000018Kicked Out (NSW) (Son) - Tonight @ 7:25pm                                                                                   150                                
PRCFAMCHA051001185619185646000027Radio Free Roscoe - (NSW/PM) (SEP05) - Tonight @ 7                                                                          150                                
INTFAMCHA051001185646185739000053Planet Rock Profiles - Nickelback (Studio Anthem) EP: 46                                                              A70687120                                
PRCFAMCHA051001185739185809000030Suite Life of Zack and Cody (NSW/AM) - Tomorrow @                                                                           150                                
PROFAMCHA051001185809185830000021Ned's DSSG - Cafeteria Food (NSW/AM) (SEP05) - Tom                                                                          150                                
PROFAMCHA051001185830185901000031Cinderella DVD Blast - Available Oct 4 (Sep 26 - O                                                                    A     150                                
PROFAMCHA051001185901185940000039xxBrotherly Love (NSW) (SEP05) - Tomorrow @ 11:35a                                                                          150                                
PRCFAMCHA051001185940185946000006Family Bumpers - Reptile Pet - Siren (MD/NS/NSW)                                                                            150                                
ID FAMCHA051001185946190001000015Nonstop Weekend Block Open (:14-:17)                                                                                        150                                
PGRFAMCHA051001190001192224002223That's So Raven                                   EPS # 1-053                                                          6068607B                                
PRCFAMCHA051001192224192229000005Astral ID (FEB05)                                                                                                           150                                
PROFAMCHA051001192229192243000014NSW - 21 - KICKED/RADIO/BMW (SEP05) (:14 - 16)                                                                              150                                
PRCFAMCHA051001192243192301000018Kicked Out (NSW) (Son) - Coming Up Next                                                                                     150                                
PRCFAMCHA051001192301192347000046xxFamily Hits Take 2 CD (Aug 19 - Oct 13) (5x, dai                                                                          150                                
PRCFAMCHA051001192347192414000027xxRadio Free Roscoe - (NS/M-T) (SEP05) - Tonight @                                                                          150                                
PROFAMCHA051001192414192448000034Even Stevens - Corn Dog (SEPT05) - (NSW) - Tomorro                                                                          150                                
ID FAMCHA051001192448192504000016Nonstop Weekend Block Open (:14-:17)                                                                                        150                                
PGRFAMCHA051001192504194657002153Kicked Out                                        EP: 3                                                                6028607E                                
PROFAMCHA051001194657194711000014xxNSW - 22 - RADIO/BMW/MOVIE ENT (OCT05) (:14 - 16                                                                          150                                
PRCFAMCHA051001194711194738000027Radio Free Roscoe - (NSW/PM) (SEP05) - Coming Up N                                                                          150                                
PRCFAMCHA051001194738194808000030Suite Life of Zack and Cody (NSW/AM) - Tomorrow @                                                                           150                                
PROFAMCHA051001194808194847000039xxBrotherly Love (NSW) (SEP05) - Tomorrow @ 11:35a                                                                          150                                
ID FAMCHA051001194847194901000014Nonstop Weekend Block Open (:14-:17)                                                                                        150                                
PROFAMCHA051001194901194911000010CC Disclaimer - FAST - Family.ca (:08-:10)                                                                                  150                                
PGRFAMCHA051001194911201141002230Radio Free Roscoe                                 EPS # 004                                                     B88719A1065607ACC                              
PRCFAMCHA051001201141201146000005Astral ID (FEB05)                                                                                                           150                                
PROFAMCHA051001201146201200000014xxNSW - 23 - BMW/MOVIE ENT/N-PIX (OCT05) (:14 - 16                                                                          150                                
PROFAMCHA051001201200201230000030Double Teamed (SEPT12) - Next Friday @ 7:30pm                                                                               150                                
PRCFAMCHA051001201230201246000016@ The Movies - RUGRATS (NSW) (SEP05) - Tonight @ 8                                                                          150                                
PRCFAMCHA051001201246201316000030Suite Life of Zack and Cody (NSW/AM) - Tomorrow @                                                                           150                                
PRCFAMCHA051001201316201348000032xxThat's So Raven - Visions (NSW/AM) (MAR05) - Tom                                                                          150                                
PROFAMCHA051001201348201425000037Ned's DSSG - Jungle (NSW) (SEP05) - Tomorrow @ 11:                                                                          150                                
PRCFAMCHA051001201425201448000023Darcy's Wild Life - (GOAT PILLS) (NSW) - Tomorrow                                                                           150                                
ID FAMCHA051001201448201502000014Nonstop Weekend Block Open (:14-:17)                                                                                        150                                
PROFAMCHA051001201502201511000009CC Disclaimer - FAST - Family.ca (:08-:10)                                                                                  150                                
PGRFAMCHA051001201511203727002216Boy Meets World                                   EP: 1-009                                                           B6068807BCC                              
PROFAMCHA051001203727203741000014xxNSW - 24 - MOVIE ENT/N-PIX (SEP05) (:14 - 16)                                                                             150                                
PRCFAMCHA051001203741203757000016@ The Movies - A GUY THING (NSW) (SEP05) - Coming                                                                           150                                
PROFAMCHA051001203757203834000037Ned's DSSG - Jungle (NSW) (SEP05) - Tomorrow @ 11:                                                                          150                                
PROFAMCHA051001203834203844000010FAMJAM - Open/Close                                                                                                         150                                
INTFAMCHA051001203844204055000211MV Disney - (MD/NS/NSW) - Do You Believe In Magic                                                                      60688120                                
PROFAMCHA051001204055204109000014xxFAMJAM - Close (FAMILY) xxDNUxx                                                                                           150                                
PROFAMCHA051001204109204148000039xxBrotherly Love (NSW) (SEP05) - Tomorrow @ 11:35a                                                                          150                                
ID FAMCHA051001204148204202000014Nonstop Weekend Block Open (:14-:17)                                                                                        150                                
PGRFAMCHA051001204202205802001600Movie Entertainment (2)                                                                                               B10628150                                
PROFAMCHA051001205802205818000016Nightly Pix Line-up (SEPT) - GENERIC (:14-:16)                                                                              150                                
PROFAMCHA051001205818205841000023xxLizzie McGuire - SFX2 (NSW/AM) - Tomorrow @ 7:50                                                                          150                                
PRCFAMCHA051001205841205911000030Suite Life of Zack and Cody (NSW/AM) - Tomorrow @                                                                           150                                
PROFAMCHA051001205911205948000037Ned's DSSG - Jungle (NSW) (SEP05) - Tomorrow @ 11:                                                                          150                                
ID FAMCHA051001205948210000000012xxNightly Pix Movie Open (:10-:15)                                                                                          150                                
ID FAMCHA051001210000210010000010xxRating - PG - Ian (:08-:10)                                                                                               150                                
PGRFAMCHA051001210010222559012549Celtic Pride                                                                                                          B6028807D                                
PRCFAMCHA051001222559222604000005Astral ID (FEB05)                                                                                                           150                                
PROFAMCHA051001222604222620000016Nightly Pix Line-up (SEPT) - GENERIC (:14-:16)                                                                              150                                
PRCFAMCHA051001222620222653000033xxThat's So Raven - Dog Wash (NSW/AM) (MAR05) - To                                                                          150                                
PROFAMCHA051001222653222730000037Ned's DSSG - Jungle (NSW) (SEP05) - Tomorrow @ 11:                                                                          150                                
PROFAMCHA051001222730222740000010FAMJAM - Open/Close                                                                                                         150                                
INTFAMCHA051001222740222910000130MV Disney - Girl Power (Cheetah Girls)                                                                                 60688120                                
PROFAMCHA051001222910222924000014xxFAMJAM - Close (FAMILY) xxDNUxx                                                                                           150                                
PROFAMCHA051001222924223003000039xxBrotherly Love (NSW) (SEP05) - Tomorrow @ 11:35a                                                                          150                                
PRCFAMCHA051001223003223018000015Naturally Sadie - MONTAGE (Clip) (NSW) - Tomorrow                                                                           150                                
PRCFAMCHA051001223018223045000027Radio Free Roscoe - (NSW/PM) (SEP05) - Tomorrow @                                                                           150                                
ID FAMCHA051001223045223100000015xxNightly Pix Movie Open (:10-:15)                                                                                          150                                
ID FAMCHA051001223100223110000010xxRating - 14A - Ian (:10)                                                                                                  150                                
PGRFAMCHA051001223110235915012805F/X                                                                                                                   B2068807D                                
PRCFAMCHA051001235915235920000005Astral ID (FEB05)                                                                                                           150                                
PROFAMCHA051001235920235935000015NSW - 25 - MENTORS/SPIDER (SEP05) (:14 - 16)                                                                                150                                
PROFAMCHA051001235935000002000027xxAll That (JLS) (NSW) - Tomorrow @ 7:20am                                                                                  150                                
PRCFAMCHA051001000002000032000030Suite Life of Zack and Cody (NSW/AM) - Tomorrow @                                                                           150                                
PROFAMCHA051001000032000042000010FAMJAM - Open/Close                                                                                                         150                                
INTFAMCHA051001000042000358000316MV Disney - Girl Power (Cheetah Girls)                                                                                 60688120                                
PROFAMCHA051001000358000412000014xxFAMJAM - Close (FAMILY) xxDNUxx                                                                                           150                                
PROFAMCHA051001000412000446000034Even Stevens - Corn Dog (SEPT05) - (NSW) - Tomorro                                                                          150                                
PROFAMCHA051001000446000523000037Ned's DSSG - Jungle (NSW) (SEP05) - Tomorrow @ 11:                                                                          150                                
PROFAMCHA051001000523000533000010FAMJAM - Open/Close                                                                                                         150                                
MVCFAMCHA051001000533000703000130MV Disney - (MD//NSNSW) - Because You Live (Jesse                                                                      60688120                                
PROFAMCHA051001000703000717000014xxFAMJAM - Close (FAMILY) xxDNUxx                                                                                           150                                
PROFAMCHA051001000717000756000039xxBrotherly Love (NSW) (SEP05) - Tomorrow @ 11:35a                                                                          150                                
PROFAMCHA051001000756000826000030xxSmart Guy (OCT05) (RECIPE) - (NSW) - Tomorrow @                                                                           150                                
PRCFAMCHA051001000826000857000031Naturally Sadie - TIE (Clip) (NSW) - Tomorrow @ 6:                                                                          150                                
PROFAMCHA051001000857000907000010FAMJAM - Open/Close                                                                                                         150                                
INTFAMCHA051001000907001244000337MV Disney - Superstition (Raven)                                                                                       60688120                                
PROFAMCHA051001001244001258000014xxFAMJAM - Close (FAMILY) xxDNUxx                                                                                           150                                
PRCFAMCHA051001001258001322000024Darcy's Wild Life - (CHIMP) (NSW) - Tomorrow @ 6:3                                                                          150                                
PRCFAMCHA051001001322001349000027Radio Free Roscoe - (NSW/PM) (SEP05) - Tomorrow @                                                                           150                                
ID FAMCHA051001001349001406000017Nonstop Weekend Block Open (:14-:17)                                                                                        150                                
PROFAMCHA051001001406001415000009CC Disclaimer - SLOW - Family.ca (:08-:10)                                                                                  150                                
PGRFAMCHA051001001415003726002311Mentors                                           EP: 2-023                                                     C17437A1065607ACC                              
PROFAMCHA051001003726003741000015NSW - 25 - SPIDER (SEP05) (:14 - 16)                                                                                        150                                
PROFAMCHA051001003741003811000030Power Rangers - Dino Thunder - Tomorrow @ 6:30am                                                                            150                                
PROFAMCHA051001003811003843000032Power Rangers - SPD - He's Tough - Tomorrow @ 6:55                                                                          150                                
PROFAMCHA051001003843003851000008Phil of the Future IDs - I'm Ricky Ullman, You're                                                                           150                                
ID FAMCHA051001003851003906000015Nonstop Weekend Block Open (:14-:17)                                                                                        150                                
PGRFAMCHA051001003906010047002141Spiderman                                         EP: 05                                                        C02618 1065607E                                
PRCFAMCHA051001010047010052000005Astral ID (FEB05)                                                                                                           150                                
PROFAMCHA051001010052010122000030Power Rangers - Dino Thunder - Tomorrow @ 6:30am                                                                            150                                
PROFAMCHA051001010122010154000032Power Rangers - SPD - He's Tough - Tomorrow @ 6:55                                                                          150                                
PROFAMCHA051001010154010231000037Ned's DSSG - Jungle (NSW) (SEP05) - Tomorrow @ 11:                                                                          150                                
SO FAMCHA051001010231011431001200Sign Off                                                                                                                                                       
OFFFAMCHA051001011431043000031529OFF AIR                                                                                                                                                        
SO FAMCHA051002043000043011000011Sign On (oct 1)                                                                                                                                                
PROFAMCHA051002043011043020000009CC Disclaimer - FAST - Family.ca (:08-:10)                                                                                  150                                
PGRFAMCHA051002043020045413002353Henry's World                                     EP: 1-001                                                     B66543A1065607GCC                              
PRCFAMCHA051002045413045418000005Astral ID (FEB05)                                                                                                           150                                
PROFAMCHA051002045418045433000015PH - 01 (S/S) - BEN/FRANNY/KING (SEP05) (:14 - 16)                                                                          150                                
ID FAMCHA051002045433045446000013PS Playhouse AM Block Open (:10-:15)                                                                                        150                                
PROFAMCHA051002045446045455000009CC Disclaimer - FAST - Family.ca (:08-:10)                                                                                  150                                
PGRFAMCHA051002045455051726002231The Secret World Of Benjamin Bear                 EPS # 1-010                                                   B75155A1065607ECC                              
PROFAMCHA051002051726051741000015PH - 01 (S/S) - FRANNY/KING/SPIDER (SEP05) (:14 -                                                                           150                                
ID FAMCHA051002051741051754000013PS Playhouse AM Block Open (:10-:15)                                                                                        150                                
PROFAMCHA051002051754051803000009CC Disclaimer - FAST - Family.ca (:08-:10)                                                                                  150                                
PGRFAMCHA051002051803054033002230Franny's Feet                                     EPS # 1-011                                                   C23970A1065607ECC                              
PRCFAMCHA051002054033054038000005Astral ID (FEB05)                                                                                                           150                                
PROFAMCHA051002054038054053000015PH - 01 (S/S) - KING/SPIDER/DINO (SEP05) (:14 - 16                                                                          150                                
ID FAMCHA051002054053054106000013PS Playhouse AM Block Open (:10-:15)                                                                                        150                                
PROFAMCHA051002054106054115000009CC Disclaimer - FAST - Family.ca (:08-:10)                                                                                  150                                
PGRFAMCHA051002054115060345002230King                                              EP: 010                                                       B75765A1065607ECC                              
PROFAMCHA051002060345060400000015PB - 01 - SPIDER/DINO/SPACE (SEP05) (:14 - 16)                                                                              150                                
ID FAMCHA051002060400060413000013PS Playhouse AM Block Open (:10-:15)                                                                                        150                                
PROFAMCHA051002060413060422000009CC Disclaimer - FAST - Family.ca (:08-:10)                                                                                  150                                
PGRFAMCHA051002060422062603002141Spiderman                                         EP: 10                                                        C02618 1065607E                                
PRCFAMCHA051002062603062608000005Astral ID (FEB05)                                                                                                           150                                
PROFAMCHA051002062608062623000015PB - 02 - DINO/SPACE/ALL (SEP05) (:14 - 16)                                                                                 150                                
PROFAMCHA051002062623062653000030Power Rangers - Dino Thunder - Coming Up Next                                                                               150                                
PROFAMCHA051002062653062725000032Power Rangers - SPD - He's Tough - Today @ 6:55am                                                                           150                                
PROFAMCHA051002062725062746000021Ned's DSSG - Cafeteria Food (NSW/AM) (SEP05) - Tod                                                                          150                                
PROFAMCHA051002062746062825000039xxBrotherly Love (NSW) (SEP05) - Today @ 11:35am                                                                            150                                
PRCFAMCHA051002062825062836000011Naturally Sadie ID's - I'm Charlotte, you're watch                                                                          150                                
PRCFAMCHA051002062836062845000009xxFamily Bumpers - (Phase 1 Spring 04) - Baseball                                                                           150                                
ID FAMCHA051002062845062900000015xxPower Box Block Open (:10-:15)                                                                                            150                                
PGRFAMCHA051002062900065024002124Power Rangers Dino Thunder                        EPS # 09                                                            A6068607E                                
PROFAMCHA051002065024065039000015PB - 03 - SPACE/ALL/LIZZIE (SEP05) (:14 - 16)                                                                               150                                
PROFAMCHA051002065039065111000032Power Rangers - SPD - He's Tough - Coming Up Next                                                                           150                                
INTFAMCHA051002065111065211000100Movie Surfers - Chicken Little - Int. #1 - Coming                                                                     A60685120                                
PRCFAMCHA051002065211065241000030Phil of the Future (NSW) (OCT05) - Today @ 9:40am                                                                           150                                
PRCFAMCHA051002065241065326000045Famous Players Popcorn Parties (1x)                                                                                         150                                
PROFAMCHA051002065326065345000019Even Stevens - What's Up (SEPT05) - (NSW) - Today                                                                           150                                
ID FAMCHA051002065345065400000015xxPower Box Block Open (:10-:15)                                                                                            150                                
PGRFAMCHA051002065400071639002239Power Rangers Space Patrol Delta                  EP: 24                                                               6068607E                                
PRCFAMCHA051002071639071644000005Astral ID (FEB05)                                                                                                           150                                
PROFAMCHA051002071644071659000015NSW - 01 - ALL/LIZZIE/SUITE (SEP05) (:14 - 16)                                                                              150                                
PROFAMCHA051002071659071726000027xxAll That (JLS) (NSW) - Coming Up Next                                                                                     150                                
PROFAMCHA051002071726071750000024xxLizzie McGuire - SFX (NSW/AM) - Today @ 7:50am                                                                            150                                
PRCFAMCHA051002071750071836000046xxFamily Hits Take 2 CD (Aug 19 - Oct 13) (5x, dai                                                                          150                                
PRCFAMCHA051002071836071906000030Suite Life of Zack and Cody (NSW/AM) - Today @ 8:1                                                                          150                                
PROFAMCHA051002071906071945000039xxBrotherly Love (NSW) (SEP05) - Today @ 11:35am                                                                            150                                
ID FAMCHA051002071945072000000015Nonstop Weekend Block Open (:14-:17)                                                                                        150                                
PROFAMCHA051002072000072009000009CC Disclaimer - FAST - Family.ca (:08-:10)                                                                                  150                                
PGRFAMCHA051002072009074010002001All That                                          EPS # 943                                                           A20686090                                
PROFAMCHA051002074010074025000015NSW - 02 - LIZZIE/SUITE/ZOEY (SEP05) (:14 - 16)                                                                             150                                
PROFAMCHA051002074025074049000024xxLizzie McGuire - SFX (NSW) - Coming Up Next                                                                               150                                
PROFAMCHA051002074049074120000031Cinderella DVD Blast - Available Oct 4 (Sep 26 - O                                                                    A     150                                
PRCFAMCHA051002074120074150000030Suite Life of Zack and Cody (NSW/AM) - Today @ 8:1                                                                          150                                
PROFAMCHA051002074150074207000017xxZoey 101 - Jamie Lynn (OCT05) (NSW) - Today @ 8:                                                                          150                                
INTFAMCHA051002074207074652000445Movie Surfers - Greatest Game Ever Played - Feat #                                                                    A60685120                                
PRCFAMCHA051002074652074711000019Nonstop Weekend - LIZZIE MCGUIRE - Pyramid                                                                                  150                                
PRCFAMCHA051002074711074744000033xxThat's So Raven - Dog Wash (NSW/AM) (MAR05) - To                                                                          150                                
ID FAMCHA051002074744074800000016Nonstop Weekend Block Open (:14-:17)                                                                                        150                                
ID FAMCHA051002074800074808000008Magic of Disney - NS/NSW/PB - Shape (:06-:09)                                                                               150                                
PROFAMCHA051002074808074817000009CC Disclaimer - FAST - Family.ca (:08-:10)                                                                                  150                                
PGRFAMCHA051002074817081048002231Lizzie McGuire                                    EP: 2-003                                                           A6068607BCC                              
PRCFAMCHA051002081048081053000005Astral ID (FEB05)                                                                                                           150                                
PROFAMCHA051002081053081108000015NSW - 03 - SUITE/ZOEY/RAVEN (SEP05) (:14 - 16)                                                                              150                                
PRCFAMCHA051002081108081138000030Suite Life of Zack and Cody (NSW) - Coming Up Next                                                                          150                                
PRCFAMCHA051002081138081208000030Firefly Phone Contest (Dec 5 - 25)                                                                                          150                                
PROFAMCHA051002081208081225000017xxZoey 101 - Jamie Lynn (OCT05) (NSW) - Today @ 8:                                                                          150                                
PROFAMCHA051002081225081255000030Fall Pop (Kelly Clarkson) Blast (Sep 12 - Oct 2)                                                                      A     150                                
PRCFAMCHA051002081255081327000032xxThat's So Raven - Visions (NSW/AM) (MAR05) - Tod                                                                          150                                
PRCFAMCHA051002081327081413000046xxFamily Hits Take 2 CD (Aug 19 - Oct 13) (5x, dai                                                                          150                                
PRCFAMCHA051002081413081443000030Phil of the Future (NSW) (OCT05) - Today @ 9:40am                                                                           150                                
ID FAMCHA051002081443081500000017Nonstop Weekend Block Open (:14-:17)                                                                                        150                                
PROFAMCHA051002081500081509000009CC Disclaimer - FAST - Family.ca (:08-:10)                                                                                  150                                
PGRFAMCHA051002081509083748002239Suite Life of Zack & Cody, The                    EP: 10                                                               6028607B                                
PROFAMCHA051002083748083802000014NSW - 04 - ZOEY/RAVEN/PHIL (SEP05) (:14 - 16)                                                                               150                                
PROFAMCHA051002083802083832000030xxZoey 101 - Perfect (OCT05) (NSW) - Coming Up Nex                                                                          150                                
PRCFAMCHA051002083832083904000032xxThat's So Raven - Visions (NSW/AM) (MAR05) - Tod                                                                          150                                
PROFAMCHA051002083904083949000045Robots DVD Blast - Available Now (Sept 27 - Oct 9)                                                                    A     150                                
PRCFAMCHA051002083949084019000030Phil of the Future (NSW) (OCT05) - Today @ 9:40am                                                                           150                                
PROFAMCHA051002084019084053000034Even Stevens - Corn Dog (SEPT05) - (NSW) - Today @                                                                          150                                
PROFAMCHA051002084053084145000052Laurentien - Fashion 101 NEXT (Aug 26 - Jan 1)                                                                              150                                
PROFAMCHA051002084145084222000037Ned's DSSG - Jungle (NSW) (SEP05) - Today @ 11:05a                                                                          150                                
PRCFAMCHA051002084222084246000024Darcy's Wild Life - (CHIMP) (NSW) - Tonight @ 6:30                                                                          150                                
ID FAMCHA051002084246084301000015Nonstop Weekend Block Open (:14-:17)                                                                                        150                                
PROFAMCHA051002084301084310000009CC Disclaimer - FAST - Family.ca (:08-:10)                                                                                  150                                
PGRFAMCHA051002084310090627002317Zoey 101                                          EPS # 01                                                             2068707BCC                              
PRCFAMCHA051002090627090632000005Astral ID (FEB05)                                                                                                           150                                
PROFAMCHA051002090632090647000015NSW - 05 - RAVEN/PHIL/EVEN (SEP05) (:14 - 16)                                                                               150                                
PRCFAMCHA051002090647090719000032xxThat's So Raven - Visions (NSW) (MAR05) - Coming                                                                          150                                
PROFAMCHA051002090719090750000031Cinderella DVD Blast - Available Oct 4 (Sep 26 - O                                                                    A     150                                
PRCFAMCHA051002090750090820000030Phil of the Future (NSW) (OCT05) - Today @ 9:40am                                                                           150                                
PROFAMCHA051002090820090854000034Even Stevens - Corn Dog (SEPT05) - (NSW) - Today @                                                                          150                                
PROFAMCHA051002090854090931000037Ned's DSSG - Jungle (NSW) (SEP05) - Today @ 11:05a                                                                          150                                
PRCFAMCHA051002090931091001000030Firefly Phone Contest (Dec 5 - 25)                                                                                          150                                
PROFAMCHA051002091001091040000039xxBrotherly Love (NSW) (SEP05) - Today @ 11:35am                                                                            150                                
PRCFAMCHA051002091040091055000015Naturally Sadie - MONTAGE (Clip) (NSW) - Tonight @                                                                          150                                
PROFAMCHA051002091055091133000038xxZoey 101 - Urinal Princess (OCT05) (NS/FRI) - Fr                                                                          150                                
PRCFAMCHA051002091133091145000012xxFamily Bumpers - (Phase 1 Spring 04) - Picnic (M                                                                          150                                
ID FAMCHA051002091145091201000016Nonstop Weekend Block Open (:14-:17)                                                                                        150                                
PROFAMCHA051002091201091209000008CC Disclaimer - FAST - Family.ca (:08-:10)                                                                                  150                                
PGRFAMCHA051002091209093427002218That's So Raven                                   EPS # 1-055                                                          6068607B                                
PROFAMCHA051002093427093441000014NSW - 06 - PHIL/EVEN/BMW (SEP05) (:14 - 16)                                                                                 150                                
PRCFAMCHA051002093441093511000030Phil of the Future (NSW) (OCT05) - Coming Up Next                                                                           150                                
PROFAMCHA051002093511093556000045Robots DVD Blast - Available Now (Sept 27 - Oct 9)                                                                    A     150                                
PROFAMCHA051002093556093630000034Even Stevens - Corn Dog (SEPT05) - (NSW) - Today @                                                                          150                                
PROFAMCHA051002093630093651000021Ned's DSSG - Cafeteria Food (NSW/AM) (SEP05) - Tod                                                                          150                                
PROFAMCHA051002093651093721000030Polly Pocket Bead-iful Best Contest (Sep 19 - Oct                                                                     A     150                                
PROFAMCHA051002093721093800000039xxBrotherly Love (NSW) (SEP05) - Today @ 11:35am                                                                            150                                
INTFAMCHA051002093800093930000130Movie Surfers - Chicken Little - Int. #1 - Coming                                                                     A60685120                                
PRCFAMCHA051002093930094000000030Suite Life of Zack and Cody (NSW/PM) - Today @ 3:5                                                                          150                                
PROFAMCHA051002094000094038000038xxZoey 101 - Urinal Princess (OCT05) (NS/FRI) - Fr                                                                          150                                
PRCFAMCHA051002094038094047000009Family Bumpers - (Phase 1 Spring 04) - Soccer (MD-                                                                          150                                
ID FAMCHA051002094047094103000016Nonstop Weekend Block Open (:14-:17)                                                                                        150                                
PROFAMCHA051002094103094112000009CC Disclaimer - FAST - Family.ca (:08-:10)                                                                                  150                                
PGRFAMCHA051002094112100351002239Phil of the Future                                EPS # 11                                                             6068607B                                
PRCFAMCHA051002100351100356000005Astral ID (FEB05)                                                                                                           150                                
PROFAMCHA051002100356100410000014NSW - 07 - EVEN/BMW/NEDS (SEP05) (:14 - 16)                                                                                 150                                
PROFAMCHA051002100410100444000034Even Stevens - Corn Dog (SEPT05) - (NSW) - Coming                                                                           150                                
PROFAMCHA051002100444100514000030Fall Pop (Kelly Clarkson) Blast (Sep 12 - Oct 2)                                                                      A     150                                
PROFAMCHA051002100514100553000039xxBrotherly Love (NSW) (SEP05) - Today @ 11:35am                                                                            150                                
PRCFAMCHA051002100553100623000030Suite Life of Zack and Cody (NSW/PM) - Today @ 3:5                                                                          150                                
PROFAMCHA051002100623100633000010FAMJAM - Open/Close                                                                                                         150                                
INTFAMCHA051002100633100733000100MV Disney - (MD/NSW) - I Can't Wait (HILARY DUFF)                                                                      60688120                                
PROFAMCHA051002100733100747000014xxFAMJAM - Close (FAMILY) xxDNUxx                                                                                           150                                
PRCFAMCHA051002100747100802000015Naturally Sadie - MONTAGE (Clip) (NSW) - Tonight @                                                                          150                                
PRCFAMCHA051002100802100832000030Firefly Phone Contest (Dec 5 - 25)                                                                                          150                                
PRCFAMCHA051002100832100856000024Darcy's Wild Life - (CHIMP) (NSW) - Tonight @ 6:30                                                                          150                                
PRCFAMCHA051002100856100942000046xxFamily Hits Take 2 CD (Aug 19 - Oct 13) (5x, dai                                                                          150                                
PROFAMCHA051002100942100948000006Phil of the Future IDs - You're Watching Family...                                                                          150                                
ID FAMCHA051002100948101002000014Nonstop Weekend Block Open (:14-:17)                                                                                        150                                
ID FAMCHA051002101002101010000008Magic of Disney - NS/NSW/PB - Wipe (:06-:09)                                                                                150                                
PROFAMCHA051002101010101019000009CC Disclaimer - FAST - Family.ca (:08-:10)                                                                                  150                                
PGRFAMCHA051002101019103258002239Even Stevens                                      EP: 2-016                                                           A6068807BCC                              
PROFAMCHA051002103258103313000015NSW - 08 - BMW/NEDS/BROTHERLY (SEP05) (:14 - 16)                                                                            150                                
