SO FAMCHA060101043000043011000011Sign On (oct 1)                                                                                                                                                
PROFAMCHA060101043011043020000009CC Disclaimer - FAST - Family.ca (:08-:10)                                                                                  150                                
PGRFAMCHA060101043020045422002402Henry's World                                     EP: 2-026                                                     B81057A1065607GCC                              
PROFAMCHA060101045422045437000015PH - 01 (S/S) - BEN/FRANNY/KING (SEP05) (:14 - 16)                                                                          150                                
ID FAMCHA060101045437045450000013PS Playhouse AM Block Open (:10-:15)                                                                                        150                                
PROFAMCHA060101045450045459000009CC Disclaimer - FAST - Family.ca (:08-:10)                                                                                  150                                
PGRFAMCHA060101045459051730002231The Secret World Of Benjamin Bear                 EPS # 1-010                                                   B75155A1065607ECC                              
PRCFAMCHA060101051730051735000005Astral ID (FEB05)                                                                                                           150                                
PROFAMCHA060101051735051750000015PH - 01 (S/S) - FRANNY/KING/SPIDER (SEP05) (:14 -                                                                           150                                
ID FAMCHA060101051750051803000013PS Playhouse AM Block Open (:10-:15)                                                                                        150                                
PROFAMCHA060101051803051812000009CC Disclaimer - FAST - Family.ca (:08-:10)                                                                                  150                                
PGRFAMCHA060101051812054043002231Franny's Feet                                     EPS # 22                                                      C23971 1065607ECC                              
PROFAMCHA060101054043054058000015PH - 01 (S/S) - KING/SPIDER/DINO (SEP05) (:14 - 16                                                                          150                                
ID FAMCHA060101054058054111000013PS Playhouse AM Block Open (:10-:15)                                                                                        150                                
PROFAMCHA060101054111054120000009CC Disclaimer - FAST - Family.ca (:08-:10)                                                                                  150                                
PGRFAMCHA060101054120060350002230King                                              EPS # 036                                                     C25350A1065607ECC                              
PRCFAMCHA060101060350060355000005Astral ID (FEB05)                                                                                                           150                                
PROFAMCHA060101060355060410000015PB - 01 - SPIDER/SPACE/ROBOT (NOV05) (:14 - 16)                                                                             150                                
ID FAMCHA060101060410060423000013PS Playhouse AM Block Open (:10-:15)                                                                                        150                                
PGRFAMCHA060101060423062604002141Spiderman                                         EP: 10                                                        C02618 1065607E                                
PROFAMCHA060101062604062619000015PB - 02 - SPACE/ROBOT/W.I.T.C.H. (NOV05) (:14 - 16                                                                          150                                
PROFAMCHA060101062619062651000032Power Rangers - SPD - He's Tough - Coming Up Next                                                                           150                                
PRCFAMCHA060101062651062713000022New Year - (JAN06) - Happy New Year!                                                                                        150                                
PROFAMCHA060101062713062743000030Super Robot MTHG - Today @ 6:55am                                                                                           150                                
PROFAMCHA060101062743062813000030WITCH (NSW) (DEC05) - Today @ 7:20am                                                                                        150                                
PROFAMCHA060101062813062843000030Ferris Bueller's Day Off (PP) - Friday @ 7:30pm                                                                             150                                
ID FAMCHA060101062843062858000015xxPower Box Block Open (:10-:15)                                                                                            150                                
PGRFAMCHA060101062858065136002238Power Rangers Space Patrol Delta                  EP: 37                                                               6068607E                                
PRCFAMCHA060101065136065141000005Astral ID (FEB05)                                                                                                           150                                
PROFAMCHA060101065141065156000015PB - 03 - ROBOT/W.I.T.C.H./LIZZIE (NOV05) (:14 - :                                                                          150                                
PROFAMCHA060101065156065226000030Super Robot MTHG - Coming Up Next                                                                                           150                                
PROFAMCHA060101065226065256000030WITCH (NSW) (DEC05) - Today @ 7:20am                                                                                        150                                
PRCFAMCHA060101065256065318000022New Year - (JAN06) - Happy New Year!                                                                                        150                                
PROFAMCHA060101065318065345000027Lizzie McGuire - (Bad Breath) (DEC05) (MD) - Today                                                                          150                                
ID FAMCHA060101065345065400000015xxPower Box Block Open (:10-:15)                                                                                            150                                
PGRFAMCHA060101065400071530002130Super Robot Monkey Team Hyperforce Go!            EP: 10                                                               2028607E                                
PROFAMCHA060101071530071545000015PB - 04 - W.I.T.C.H./LIZZIE/SUITE (NOV05) (:14 - :                                                                          150                                
PROFAMCHA060101071545071615000030WITCH (NSW) (DEC05) - Coming Up Next                                                                                        150                                
PROFAMCHA060101071615071642000027Lizzie McGuire - (Bad Breath) (DEC05) (MD) - Today                                                                          150                                
PRCFAMCHA060101071642071712000030Suite Life of Zack and Cody (NSW/AM) - Today @ 8:1                                                                          150                                
PRCFAMCHA060101071712071734000022New Year - (JAN06) - Happy New Year!                                                                                        150                                
PROFAMCHA060101071734071818000044Zoey 101 - PHONE (NSW) (NOV05) - Today @ 8:40am                                                                             150                                
PROFAMCHA060101071818071848000030That's So Raven (OCT05) (NSW/AM) - Today @ 9:10am                                                                           150                                
PRCFAMCHA060101071848071915000027Nonstop Weekend - KIM POSSIBLE - Villains                                                                                   150                                
PROFAMCHA060101071915071945000030Ferris Bueller's Day Off (PP) - Friday @ 7:30pm                                                                             150                                
ID FAMCHA060101071945072000000015Nonstop Weekend Block Open (:14-:17)                                                                                        150                                
PGRFAMCHA060101072000074142002142W.I.T.C.H.                                        EP: 07                                                               2028607E                                
PRCFAMCHA060101074142074147000005Astral ID (FEB05)                                                                                                           150                                
PROFAMCHA060101074147074202000015NSW - 02 - LIZZIE/SUITE/ZOEY (SEP05) (:14 - 16)                                                                             150                                
PROFAMCHA060101074202074229000027Lizzie McGuire - (Bad Breath) (OCT05) (NSW) - Comi                                                                          150                                
PRCFAMCHA060101074229074251000022New Year - (JAN06) - Happy New Year!                                                                                        150                                
PRCFAMCHA060101074251074321000030Suite Life of Zack and Cody (NSW/AM) - Today @ 8:1                                                                          150                                
PROFAMCHA060101074321074405000044Zoey 101 - PHONE (NSW) (NOV05) - Today @ 8:40am                                                                             150                                
INTFAMCHA060101074405074546000141Family Lab (Phase 3) - Anti-Grav Rocket Pack (2x)                                                                      10625120                                
PROFAMCHA060101074546074616000030That's So Raven (OCT05) (NSW/AM) - Today @ 9:10am                                                                           150                                
INTFAMCHA060101074616074715000059Planet Rock Profiles - Beyonce (Solo) xxDNUxx     EP: 46                                                              A70687120                                
PROFAMCHA060101074715074745000030Just For Kicks (WDP) (SEP05) - Today @ 12pm                                                                                 150                                
ID FAMCHA060101074745074800000015Nonstop Weekend Block Open (:14-:17)                                                                                        150                                
ID FAMCHA060101074800074808000008Magic of Disney - NS/NSW/PB - Shape (:06-:09)                                                                               150                                
PGRFAMCHA060101074808080947002139Lizzie McGuire                                    EP: 2-026                                                           A6068607B                                
PROFAMCHA060101080947081001000014NSW - 03 - SUITE/ZOEY/RAVEN (SEP05) (:14 - 16)                                                                              150                                
PRCFAMCHA060101081001081031000030Darcy's Wild Life (NEW EPS) (JAN06) - New Eps star                                                                          150                                
PRCFAMCHA060101081031081101000030Suite Life of Zack and Cody (NSW) - Coming Up Next                                                                          150                                
PRCFAMCHA060101081101081123000022New Year - (JAN06) - Happy New Year!                                                                                        150                                
PROFAMCHA060101081123081207000044Zoey 101 - PHONE (NSW) (NOV05) - Today @ 8:40am                                                                             150                                
PROFAMCHA060101081207081237000030That's So Raven (OCT05) (NSW/AM) - Today @ 9:10am                                                                           150                                
PRCFAMCHA060101081237081307000030Phil of the Future (NSW) (OCT05) - Today @ 9:40am                                                                           150                                
INTFAMCHA060101081307081350000043Planet Rock Profiles - Nickelback (Name of the BanEP: 46                                                              A70687120                                
PROFAMCHA060101081350081409000019Even Stevens - What's Up (SEPT05) - (NSW) - Today                                                                           150                                
PROFAMCHA060101081409081439000030Just For Kicks (WDP) (SEP05) - Today @ 12pm                                                                                 150                                
PRCFAMCHA060101081439081445000006Family Bumpers - Reptile Pet - Horse  (MD/NS/NSW)                                                                           150                                
ID FAMCHA060101081445081500000015Nonstop Weekend Block Open (:14-:17)                                                                                        150                                
PGRFAMCHA060101081500083739002239Suite Life of Zack & Cody, The                    EP: 10                                                               6068607B                                
PRCFAMCHA060101083739083744000005Astral ID (FEB05)                                                                                                           150                                
PROFAMCHA060101083744083759000015NSW - 04 - ZOEY/RAVEN/PHIL (SEP05) (:14 - 16)                                                                               150                                
PROFAMCHA060101083759083843000044Zoey 101 - PHONE (NSW) (NOV05) - Coming Up Next                                                                             150                                
PRCFAMCHA060101083843083905000022New Year - (JAN06) - Happy New Year!                                                                                        150                                
PROFAMCHA060101083905083935000030That's So Raven (OCT05) (NSW/AM) - Today @ 9:10am                                                                           150                                
PRCFAMCHA060101083935084005000030Phil of the Future (NSW) (OCT05) - Today @ 9:40am                                                                           150                                
INTFAMCHA060101084005084051000046Planet Rock Profiles - Nickelback (Great Band) xxDEP: 46                                                              A70687120                                
PROFAMCHA060101084051084121000030Ferris Bueller's Day Off (PP) - Friday @ 7:30pm                                                                             150                                
PROFAMCHA060101084121084213000052Laurentien - Fashion 101 NEXT (Aug 26 - Jan 1)                                                                              150                                
PROFAMCHA060101084213084243000030Just For Kicks (WDP) (SEP05) - Today @ 12pm                                                                                 150                                
ID FAMCHA060101084243084258000015Nonstop Weekend Block Open (:14-:17)                                                                                        150                                
PROFAMCHA060101084258084307000009CC Disclaimer - FAST - Family.ca (:08-:10)                                                                                  150                                
PGRFAMCHA060101084307090624002317Zoey 101                                          EPS # 01                                                             2068707BCC                              
PROFAMCHA060101090624090638000014NSW - 05 - RAVEN/PHIL/EVEN (SEP05) (:14 - 16)                                                                               150                                
PRCFAMCHA060101090638090708000030Darcy's Wild Life (NEW EPS) (JAN06) - New Eps star                                                                          150                                
PROFAMCHA060101090708090738000030That's So Raven (OCT05) (NSW) - Coming Up Next                                                                              150                                
INTFAMCHA060101090738090813000035Family Lab (Phase 3) - Contest (3x)                                                                                    10625120                                
PRCFAMCHA060101090813090843000030Phil of the Future (NSW) (OCT05) - Today @ 9:40am                                                                           150                                
PRCFAMCHA060101090843090905000022New Year - (JAN06) - Happy New Year!                                                                                        150                                
PROFAMCHA060101090905090936000031Even Stevens - Swing (NOV05) - (NSW) - Today @ 10:                                                                          150                                
PROFAMCHA060101090936090946000010FAMJAM - Open/Close                                                                                                         150                                
INTFAMCHA060101090946091046000100MV Disney - Huckaroo (Pixel Perfect)                                                                                   60688120                                
PROFAMCHA060101091046091100000014xxFAMJAM - Close (FAMILY) xxDNUxx                                                                                           150                                
PRCFAMCHA060101091100091115000015Buzz On Maggie (BUG) (NSW) (NOV05) - Today @ 5:10p                                                                          150                                
PROFAMCHA060101091115091145000030Just For Kicks (WDP) (SEP05) - Today @ 12pm                                                                                 150                                
ID FAMCHA060101091145091200000015Nonstop Weekend Block Open (:14-:17)                                                                                        150                                
PGRFAMCHA060101091200093439002239That's So Raven                                   EPS # 1-052                                                          6068607B                                
PRCFAMCHA060101093439093444000005Astral ID (FEB05)                                                                                                           150                                
PROFAMCHA060101093444093459000015NSW - 06 - PHIL/EVEN/BMW (SEP05) (:14 - 16)                                                                                 150                                
PRCFAMCHA060101093459093529000030Phil of the Future (NSW) (OCT05) - Coming Up Next                                                                           150                                
PROFAMCHA060101093529093554000025Dullmark Moment - Network Contest (Dec 8 - Jan 5)                                                                           150                                
PROFAMCHA060101093554093628000034Even Stevens - Bad Boys (NOV05) - (NSW) - Today @                                                                           150                                
PRCFAMCHA060101093628093650000022New Year - (JAN06) - Happy New Year!                                                                                        150                                
PROFAMCHA060101093650093728000038Ned's DSSG - KUNG FU (NSW) (NOV05) - Today @ 11:05                                                                          150                                
ID FAMCHA060101093728093753000025Darcy's Wild Life Web BBD - visit family.ca                                                                                 150                                
PROFAMCHA060101093753093827000034Smart Guy (OCT05) (HAPPY DANCE) - (NSW) - Today @                                                                           150                                
PROFAMCHA060101093827093857000030Ferris Bueller's Day Off (PP) - Friday @ 7:30pm                                                                             150                                
INTFAMCHA060101093857094006000109Planet Rock Profiles - Craig David (Studio) xxDNUxEP: 46                                                              A70687120                                
PROFAMCHA060101094006094036000030Just For Kicks (WDP) (SEP05) - Today @ 12pm                                                                                 150                                
PRCFAMCHA060101094036094045000009xxFamily Bumpers - (Phase 3 Spring 05) - Giant Foo                                                                          150                                
ID FAMCHA060101094045094100000015Nonstop Weekend Block Open (:14-:17)                                                                                        150                                
PGRFAMCHA060101094100100305002205Phil of the Future                                EPS # 16                                                             6068607B                                
PROFAMCHA060101100305100320000015NSW - 07 - EVEN/BMW/NEDS (SEP05) (:14 - 16)                                                                                 150                                
PRCFAMCHA060101100320100350000030Darcy's Wild Life (NEW EPS) (JAN06) - New Eps star                                                                          150                                
PROFAMCHA060101100350100421000031Even Stevens - Swing (NOV05) - (NSW) - Coming Up N                                                                          150                                
PRCFAMCHA060101100421100443000022New Year - (JAN06) - Happy New Year!                                                                                        150                                
PROFAMCHA060101100443100521000038Ned's DSSG - KUNG FU (NSW) (NOV05) - Today @ 11:05                                                                          150                                
INTFAMCHA060101100521100710000149Family Lab (Phase 3) - Disguise-o-matic (2x)                                                                           10625120                                
PROFAMCHA060101100710100744000034Smart Guy (OCT05) (HAPPY DANCE) - (NSW) - Today @                                                                           150                                
PROFAMCHA060101100744100754000010FAMJAM - Open/Close                                                                                                         150                                
INTFAMCHA060101100754100854000100MV Disney - (MD/NSW) - I Can't Wait (HILARY DUFF)                                                                      60688120                                
PROFAMCHA060101100854100908000014xxFAMJAM - Close (FAMILY) xxDNUxx                                                                                           150                                
PROFAMCHA060101100908100938000030Just For Kicks (WDP) (SEP05) - Today @ 12pm                                                                                 150                                
PRCFAMCHA060101100938100945000007Aly & A.J. IDs - Fam Club at family.ca for Phil in                                                                          150                                
ID FAMCHA060101100945101000000015Nonstop Weekend Block Open (:14-:17)                                                                                        150                                
ID FAMCHA060101101000101008000008Magic of Disney - NS/NSW/PB - Wipe (:06-:09)                                                                                150                                
PROFAMCHA060101101008101017000009CC Disclaimer - FAST - Family.ca (:08-:10)                                                                                  150                                
PGRFAMCHA060101101017103246002229Even Stevens                                      EP: 3-020                                                           A6068807BCC                              
PRCFAMCHA060101103246103251000005Astral ID (FEB05)                                                                                                           150                                
PROFAMCHA060101103251103305000014NSW - 08 - BMW/NEDS/BROTHERLY (SEP05) (:14 - 16)                                                                            150                                
PROFAMCHA060101103305103335000030Double Teamed (SEPT12) - Next Friday @ 7:30pm                                                                               150                                
PROFAMCHA060101103335103413000038Ned's DSSG - KUNG FU (NSW) (NOV05) - Today @ 11:05                                                                          150                                
PRCFAMCHA060101103413103435000022New Year - (JAN06) - Happy New Year!                                                                                        150                                
PROFAMCHA060101103435103509000034Smart Guy (OCT05) (HAPPY DANCE) - (NSW) - Today @                                                                           150                                
PROFAMCHA060101103509103536000027Lizzie McGuire - (Bad Breath) (DEC05) (MD) - Today                                                                          150                                
INTFAMCHA060101103536103649000113Planet Rock Profiles - Beyonce (Lifelong Music) xxEP: 46                                                              A70687120                                
PROFAMCHA060101103649103719000030Ferris Bueller's Day Off (PP) - Friday @ 7:30pm                                                                             150                                
PROFAMCHA060101103719103749000030Just For Kicks (WDP) (SEP05) - Today @ 12pm                                                                                 150                                
ID FAMCHA060101103749103803000014Nonstop Weekend Block Open (:14-:17)                                                                                        150                                
PROFAMCHA060101103803103812000009CC Disclaimer - FAST - Family.ca (:08-:10)                                                                                  150                                
PGRFAMCHA060101103812105942002130Boy Meets World                                   EP: 1-119                                                           B6068807BCC                              
PROFAMCHA060101105942105956000014NSW - 09 - NEDS/BROTHERLY/WDP (SEP05) (:14 - 16)                                                                            150                                
PRCFAMCHA060101105956110026000030Darcy's Wild Life (NEW EPS) (JAN06) - New Eps star                                                                          150                                
PROFAMCHA060101110026110104000038Ned's DSSG - KUNG FU (NSW) (NOV05) - Coming Up Nex                                                                          150                                
PRCFAMCHA060101110104110126000022New Year - (JAN06) - Happy New Year!                                                                                        150                                
PROFAMCHA060101110126110200000034Smart Guy (OCT05) (HAPPY DANCE) - (NSW) - Today @                                                                           150                                
PROFAMCHA060101110200110210000010FAMJAM - Open/Close                                                                                                         150                                
INTFAMCHA060101110210110340000130MV Disney - Huckaroo (Pixel Perfect)                                                                                   60688120                                
PROFAMCHA060101110340110354000014xxFAMJAM - Close (FAMILY) xxDNUxx                                                                                           150                                
PRCFAMCHA060101110354110409000015Naturally Sadie - MONTAGE (Clip) (NSW) - Tonight @                                                                          150                                
PROFAMCHA060101110409110439000030Just For Kicks (WDP) (SEP05) - Today @ 12pm                                                                                 150                                
PROFAMCHA060101110439110445000006Phil of the Future IDs - You're Watching Family...                                                                          150                                
ID FAMCHA060101110445110500000015Nonstop Weekend Block Open (:14-:17)                                                                                        150                                
PROFAMCHA060101110500110509000009CC Disclaimer - FAST - Family.ca (:08-:10)                                                                                  150                                
PGRFAMCHA060101110509112934002425Ned's Declassified School Survival Guide          EPS # 05                                                             2068807BCC                              
PRCFAMCHA060101112934112939000005Astral ID (FEB05)                                                                                                           150                                
PROFAMCHA060101112939112954000015NSW - 10 - BROTHERLY/WDP (SEP05) (:14 - 16)                                                                                 150                                
PROFAMCHA060101112954113024000030Just For Kicks (WDP) (SEP05) - Today @ 12pm                                                                                 150                                
PRCFAMCHA060101113024113046000022New Year - (JAN06) - Happy New Year!                                                                                        150                                
PROFAMCHA060101113046113120000034Smart Guy (OCT05) (HAPPY DANCE) - (NSW) - Today @                                                                           150                                
PRCFAMCHA060101113120113150000030Suite Life of Zack and Cody (NSW/PM) - Today @ 3:5                                                                          150                                
PROFAMCHA060101113150113217000027Lizzie McGuire - (Bad Breath) (DEC05) (MD) - Today                                                                          150                                
INTFAMCHA060101113217113310000053Planet Rock Profiles - Nickelback (Studio Anthem) EP: 46                                                              A70687120                                
PROFAMCHA060101113310113340000030Ferris Bueller's Day Off (PP) - Friday @ 7:30pm                                                                             150                                
ID FAMCHA060101113340113355000015Nonstop Weekend Block Open (:14-:17)                                                                                        150                                
PGRFAMCHA060101113355115642002247Brotherly Love                                    EPS # 10                                                             6068807B                                
PROFAMCHA060101115642115658000016Nonstop Weekend - 17(SEP) - WDP MOVIE (:14-:16)                                                                             150                                
PROFAMCHA060101115658115728000030Just For Kicks (WDP) (SEP05) - Coming Up Next                                                                               150                                
PROFAMCHA060101115728115802000034Smart Guy (OCT05) (HAPPY DANCE) - (NSW) - Today @                                                                           150                                
PRCFAMCHA060101115802115824000022New Year - (JAN06) - Happy New Year!                                                                                        150                                
PROFAMCHA060101115824115851000027Lizzie McGuire - (Bad Breath) (DEC05) (MD) - Today                                                                          150                                
PRCFAMCHA060101115851115906000015Buzz On Maggie (BUG) (NSW) (NOV05) - Today @ 5:10p                                                                          150                                
PRCFAMCHA060101115906115936000030Darcy's Wild Life (NEW EPS) (JAN06) - New Eps star                                                                          150                                
PRCFAMCHA060101115936115943000007Aly & A.J. IDs - (ALY) You're Watching Family, NAD                                                                          150                                
ID FAMCHA060101115943120000000017Weekend Double Pix Movie Open (:13-:17)                                                                                     150                                
ID FAMCHA060101120000120009000009Rating - PG - (DEC05) (:08 - :10)                                                                                           150                                
ID FAMCHA060101120009120017000008Magic of Disney - PIX - Shape (:06-:09)                                                                                     150                                
PGRFAMCHA060101120017133211013154Just For Kicks                                                                                                        B2068807D                                
PRCFAMCHA060101133211133216000005Astral ID (FEB05)                                                                                                           150                                
PROFAMCHA060101133216133232000016Nonstop Weekend - 17(SEP) - WDP MOVIE (:14-:16)                                                                             150                                
ID FAMCHA060101133232133249000017Weekend Double Pix Movie Open (:13-:17)                                                                                     150                                
ID FAMCHA060101133249133258000009Rating - PG - (DEC05) (:08 - :10)                                                                                           150                                
ID FAMCHA060101133258133306000008Magic of Disney - PIX - Wipe (:06-:09)                                                                                      150                                
PGRFAMCHA060101133306145920012614Walk Like A Man                                                                                                       B2068807D                                
PROFAMCHA060101145920145934000014NSW - 11 - SMART/LIZZIE/SUITE(SEP05) (:14 - 16)                                                                             150                                
PROFAMCHA060101145934150008000034Smart Guy (APR06) (HAPPY DANCE) - (NS/NSW) - Comin                                                                          150                                
ID FAMCHA060101150008150022000014Nonstop Weekend Block Open (:14-:17)                                                                                        150                                
PROFAMCHA060101150022150031000009CC Disclaimer - FAST - Family.ca (:08-:10)                                                                                  150                                
PGRFAMCHA060101150031152259002228Smart Guy                                         EP: 1-008                                                           A6068807BCC                              
PRCFAMCHA060101152259152304000005Astral ID (FEB05)                                                                                                           150                                
PROFAMCHA060101152304152319000015NSW - 12 - LIZZIE/SUITE/PROUD (SEP05) (:14 - 16)                                                                            150                                
PRCFAMCHA060101152319152341000022New Year - (JAN06) - Happy New Year!                                                                                        150                                
ID FAMCHA060101152341152356000015Nonstop Weekend Block Open (:14-:17)                                                                                        150                                
ID FAMCHA060101152356152404000008Magic of Disney - NS/NSW/PB - Shape (:06-:09)                                                                               150                                
PGRFAMCHA060101152404154637002233Lizzie McGuire                                    EP: 2-006                                                           A6068607B                                
PROFAMCHA060101154637154651000014NSW - 13 - SUITE/PROUD/FILLMORE (SEP05) (:14 - 16)                                                                          150                                
PRCFAMCHA060101154651154721000030Darcy's Wild Life (NEW EPS) (JAN06) - New Eps star                                                                          150                                
PRCFAMCHA060101154721154751000030Suite Life of Zack and Cody (NSW) - Coming Up Next                                                                          150                                
PRCFAMCHA060101154751154806000015Buzz On Maggie (BUG) (NSW) (NOV05) - Today @ 5:10p                                                                          150                                
PRCFAMCHA060101154806154828000022New Year - (JAN06) - Happy New Year!                                                                                        150                                
PROFAMCHA060101154828154858000030xxKim Possible 007 (OCT05) (NSW) - Today @ 5:40pm                                                                           150                                
PRCFAMCHA060101154858154947000049Nonstop Weekend - LIZZIE MCGUIRE - Chimp                                                                                    150                                
PRCFAMCHA060101154947155018000031Naturally Sadie - TIE (Clip) (NSW) - Tonight @ 6:0                                                                          150                                
PRCFAMCHA060101155018155048000030Darcy's Wild Life (NSW) (NOV05) - Tonight @ 6:30pm                                                                          150                                
ID FAMCHA060101155048155103000015Nonstop Weekend Block Open (:14-:17)                                                                                        150                                
PGRFAMCHA060101155103161342002239Suite Life of Zack & Cody, The                    EP: 08                                                               6068607B                                
PRCFAMCHA060101161342161347000005Astral ID (FEB05)                                                                                                           150                                
PROFAMCHA060101161347161402000015NSW - 14 - PROUD/FILLMORE/BUZZ (SEP05) (:14 - 16)                                                                           150                                
PROFAMCHA060101161402161423000021Proud Family (BOND) - (MD) - Coming Up                                                                                      150                                
PRCFAMCHA060101161423161445000022New Year - (JAN06) - Happy New Year!                                                                                        150                                
PRCFAMCHA060101161445161453000008Buzz On Maggie (HEEL CLICK) (NSW) (NOV05) - Today                                                                           150                                
PROFAMCHA060101161453161523000030xxKim Possible 007 (OCT05) (NSW) - Today @ 5:40pm                                                                           150                                
PROFAMCHA060101161523161533000010FAMJAM - Open/Close                                                                                                         150                                
INTFAMCHA060101161533161633000100MV Disney - Huckaroo (Pixel Perfect)                                                                                   60688120                                
PROFAMCHA060101161633161647000014xxFAMJAM - Close (FAMILY) xxDNUxx                                                                                           150                                
PROFAMCHA060101161647161706000019Even Stevens - What's Up (SEPT05) - (NSW) - Weeken                                                                          150                                
PROFAMCHA060101161706161736000030Ferris Bueller's Day Off (PP) - Friday @ 7:30pm                                                                             150                                
PRCFAMCHA060101161736161745000009xxFamily Bumpers - (Phase 3 Spring 05) - Hip Hop (                                                                          150                                
ID FAMCHA060101161745161800000015Nonstop Weekend Block Open (:14-:17)                                                                                        150                                
PROFAMCHA060101161800161809000009CC Disclaimer - FAST - Family.ca (:08-:10)                                                                                  150                                
PGRFAMCHA060101161809164039002230The Proud Family                                  EP: 1-016                                                           A6068607ECC                              
PROFAMCHA060101164039164053000014NSW - 15 - FILLMORE/BUZZ/KIM (SEP05) (:14 - 16)                                                                             150                                
PRCFAMCHA060101164053164108000015Buzz On Maggie (BUG) (NSW) (NOV05) - Today @ 5:10p                                                                          150                                
PRCFAMCHA060101164108164130000022New Year - (JAN06) - Happy New Year!                                                                                        150                                
PROFAMCHA060101164130164200000030xxKim Possible 007 (OCT05) (NSW) - Today @ 5:40pm                                                                           150                                
INTFAMCHA060101164200164349000149Family Lab (Phase 3) - Disguise-o-matic (2x)                                                                           10625120                                
PRCFAMCHA060101164349164420000031Naturally Sadie - TIE (Clip) (NSW) - Tonight @ 6:0                                                                          150                                
PRCFAMCHA060101164420164450000030Darcy's Wild Life (NSW) (NOV05) - Tonight @ 6:30pm                                                                          150                                
ID FAMCHA060101164450164505000015Nonstop Weekend Block Open (:14-:17)                                                                                        150                                
PGRFAMCHA060101164505170743002238Disney's Fillmore!                                EP: 1-002                                                           A6068607E                                
PRCFAMCHA060101170743170748000005Astral ID (FEB05)                                                                                                           150                                
PROFAMCHA060101170748170803000015NSW - 16 - BUZZ/KIM/NATURALLY (SEP05) (:14 - 16)                                                                            150                                
PRCFAMCHA060101170803170833000030Darcy's Wild Life (NEW EPS) (JAN06) - New Eps star                                                                          150                                
PRCFAMCHA060101170833170848000015Buzz On Maggie (BUG) (MD-FRI) (NOV05) - Coming Up                                                                           150                                
PRCFAMCHA060101170848170910000022New Year - (JAN06) - Happy New Year!                                                                                        150                                
PROFAMCHA060101170910170940000030xxKim Possible 007 (OCT05) (NSW) - Today @ 5:40pm                                                                           150                                
PRCFAMCHA060101170940171011000031Naturally Sadie - TIE (Clip) (NSW) - Tonight @ 6:0                                                                          150                                
PRCFAMCHA060101171011171041000030Darcy's Wild Life (NSW) (NOV05) - Tonight @ 6:30pm                                                                          150                                
PRCFAMCHA060101171041171108000027Nonstop Weekend - KIM POSSIBLE - Villains                                                                                   150                                
PROFAMCHA060101171108171138000030Ferris Bueller's Day Off (PP) - Friday @ 7:30pm                                                                             150                                
PRCFAMCHA060101171138171145000007Aly & A.J. IDs - (A.J.) You're watching Family, NA                                                                          150                                
ID FAMCHA060101171145171200000015Nonstop Weekend Block Open (:14-:17)                                                                                        150                                
ID FAMCHA060101171200171208000008Magic of Disney - NS/NSW/PB - Shape (:06-:09)                                                                               150                                
PGRFAMCHA060101171208173447002239Disney's The Buzz On Maggie                       EP: 18                                                               6028607E                                
PROFAMCHA060101173447173502000015NSW - 17 - KIM/NATURALLY/DARCY (SEP05) (:14 - 16)                                                                           150                                
PROFAMCHA060101173502173532000030xxKim Possible 007 (OCT05) (NSW) - Coming Up Next                                                                           150                                
PROFAMCHA060101173532173557000025Dullmark Moment - Network Contest (Dec 8 - Jan 5)                                                                           150                                
PRCFAMCHA060101173557173628000031Naturally Sadie - TIE (Clip) (NSW) - Tonight @ 6:0                                                                          150                                
PRCFAMCHA060101173628173650000022New Year - (JAN06) - Happy New Year!                                                                                        150                                
PRCFAMCHA060101173650173720000030Darcy's Wild Life (NSW) (NOV05) - Tonight @ 6:30pm                                                                          150                                
INTFAMCHA060101173720173755000035Family Lab (Phase 3) - Contest (3x)                                                                                    10625120                                
PRCFAMCHA060101173755173844000049Nonstop Weekend - LIZZIE MCGUIRE - Chimp                                                                                    150                                
ID FAMCHA060101173844173859000015Nonstop Weekend Block Open (:14-:17)                                                                                        150                                
PGRFAMCHA060101173859180150002251Disney's Kim Possible                             EP: 1-006                                                           A6068607E                                
PRCFAMCHA060101180150180155000005Astral ID (FEB05)                                                                                                           150                                
PROFAMCHA060101180155180209000014NSW - 18 - NATURALLY/DARCY/RAVEN (SEP05) (:14 - 16                                                                          150                                
PRCFAMCHA060101180209180239000030Darcy's Wild Life (NEW EPS) (JAN06) - New Eps star                                                                          150                                
PRCFAMCHA060101180239180310000031Naturally Sadie - TIE (Clip) (NSW) - Coming Up Nex                                                                          150                                
PRCFAMCHA060101180310180332000022New Year - (JAN06) - Happy New Year!                                                                                        150                                
PROFAMCHA060101180332180402000030That's So Raven (OCT05) (NSW/PM) - Tonight @ 7pm                                                                            150                                
INTFAMCHA060101180402180515000113Planet Rock Profiles - Alicia Keys xxDNUxx        EP: 46                                                              A70687120                                
PROFAMCHA060101180515180545000030O'Grady - Weirdness Zone (NSW) NOV05) - Tonight @                                                                           150                                
ID FAMCHA060101180545180600000015Nonstop Weekend Block Open (:14-:17)                                                                                        150                                
PGRFAMCHA060101180600182830002230Naturally, Sadie                                  EP: 02                                                        C24010 1055607ACC                              
PROFAMCHA060101182830182844000014NSW - 19 - DARCY/RAVEN/KICKED (SEP05) (:14 - 16)                                                                            150                                
PRCFAMCHA060101182844182914000030Darcy's Wild Life (NSW) (NOV05) - Coming Up Next                                                                            150                                
PRCFAMCHA060101182914182959000045Famous Players Popcorn Parties (1x)                                                                                         150                                
PROFAMCHA060101182959183029000030That's So Raven (OCT05) (NSW/PM) - Tonight @ 7pm                                                                            150                                
PRCFAMCHA060101183029183051000022New Year - (JAN06) - Happy New Year!                                                                                        150                                
PROFAMCHA060101183051183121000030O'Grady - Weirdness Zone (NSW) NOV05) - Tonight @                                                                           150                                
INTFAMCHA060101183121183204000043Planet Rock Profiles - Nickelback (Name of the BanEP: 46                                                              A70687120                                
PROFAMCHA060101183204183234000030Ferris Bueller's Day Off (PP) - Friday @ 7:30pm                                                                             150                                
PRCFAMCHA060101183234183246000012xxFamily Bumpers - (Phase 3 Spring 05) - Bake (MD/                                                                          150                                
ID FAMCHA060101183246183300000014Nonstop Weekend Block Open (:14-:17)                                                                                        150                                
PROFAMCHA060101183300183309000009CC Disclaimer - FAST - Family.ca (:08-:10)                                                                                  150                                
PGRFAMCHA060101183309185439002130Darcy's Wild Life                                 EP: 21                                                        A23410A1065607BCC                              
PRCFAMCHA060101185439185444000005Astral ID (FEB05)                                                                                                           150                                
PROFAMCHA060101185444185458000014NSW - 20 - RAVEN/OGRADY/RADIO (SEP05) (:14 - 16)                                                                            150                                
PRCFAMCHA060101185458185528000030Darcy's Wild Life (NEW EPS) (JAN06) - New Eps star                                                                          150                                
PROFAMCHA060101185528185558000030That's So Raven (OCT05) (NSW) - Coming Up Next                                                                              150                                
PRCFAMCHA060101185558185620000022New Year - (JAN06) - Happy New Year!                                                                                        150                                
PROFAMCHA060101185620185650000030O'Grady - Weirdness Zone (NSW) NOV05) - Tonight @                                                                           150                                
ID FAMCHA060101185650185715000025Darcy's Wild Life Web BBD - visit family.ca                                                                                 150                                
PRCFAMCHA060101185715185742000027Radio Free Roscoe - (NSW/PM) (SEP05) - Tonight @ 7                                                                          150                                
INTFAMCHA060101185742185923000141Family Lab (Phase 3) - Anti-Grav Rocket Pack (2x)                                                                      10625120                                
PROFAMCHA0601011859231859530000308 Simple Rules (JAN06) (NSW) TICKET - Tonight @ 8:                                                                          150                                
ID FAMCHA060101185953190007000014Nonstop Weekend Block Open (:14-:17)                                                                                        150                                
PGRFAMCHA060101190007192243002236That's So Raven                                   EP: 69                                                               6068607B                                
PROFAMCHA060101192243192258000015NSW - 21 - KICKED/RADIO/BMW (SEP05) (:14 - 16)                                                                              150                                
PROFAMCHA060101192258192328000030O'Grady - Weirdness Zone (NSW) NOV05) - Coming Up                                                                           150                                
PRCFAMCHA060101192328192350000022New Year - (JAN06) - Happy New Year!                                                                                        150                                
PRCFAMCHA060101192350192417000027Radio Free Roscoe - (NSW/PM) (SEP05) - Tonight @ 7                                                                          150                                
PROFAMCHA060101192417192447000030Ferris Bueller's Day Off (PP) - Friday @ 7:30pm                                                                             150                                
ID FAMCHA060101192447192502000015Nonstop Weekend Block Open (:14-:17)                                                                                        150                                
PGRFAMCHA060101192502194704002202O'Grady                                           EP: 07                                                              B2068707E                                
PRCFAMCHA060101194704194709000005Astral ID (FEB05)                                                                                                           150                                
PROFAMCHA060101194709194723000014NSW - 22 - RADIO/BMW/MOVIE ENT (OCT05) (:14 - 16)                                                                           150                                
PRCFAMCHA060101194723194731000008Radio Free Roscoe ID (Jan5) - Coming Up Next                                                                                150                                
PRCFAMCHA060101194731194753000022New Year - (JAN06) - Happy New Year!                                                                                        150                                
PROFAMCHA0601011947531948230000308 Simple Rules (JAN06) (NSW) TICKET - Tonight @ 8:                                                                          150                                
PRCFAMCHA060101194823194900000037Movie Entertainment - Tonight @ 8:40pm                                                                                      150                                
ID FAMCHA060101194900194914000014Nonstop Weekend Block Open (:14-:17)                                                                                        150                                
PROFAMCHA060101194914194923000009CC Disclaimer - FAST - Family.ca (:08-:10)                                                                                  150                                
PGRFAMCHA060101194923201153002230Radio Free Roscoe                                 EPS # 31                                                      A05964A1065607ACC                              
PROFAMCHA060101201153201207000014NSW - 23 - 8 SIMPLE/MOVIE ENT/N-PIX (JAN06) (:14 -                                                                          150                                
PRCFAMCHA060101201207201237000030Darcy's Wild Life (NEW EPS) (JAN06) - New Eps star                                                                          150                                
PROFAMCHA0601012012372012520000158 Simple Rules (JUN06) (NS/NSW) PROFILES - Coming                                                                           150                                
PRCFAMCHA060101201252201314000022New Year - (JAN06) - Happy New Year!                                                                                        150                                
PRCFAMCHA060101201314201351000037Movie Entertainment - Tonight @ 8:40pm                                                                                      150                                
INTFAMCHA060101201351201426000035Family Lab (Phase 3) - Contest (3x)                                                                                    10625120                                
PROFAMCHA060101201426201445000019Even Stevens - What's Up (SEPT05) - (NSW) - Weeken                                                                          150                                
ID FAMCHA060101201445201500000015Nonstop Weekend Block Open (:14-:17)                                                                                        150                                
PROFAMCHA060101201500201509000009CC Disclaimer - FAST - Family.ca (:08-:10)                                                                                  150                                
PGRFAMCHA0601012015092036450021368 Simple Rules                                    EP: 09                                                              B6068807BCC                              
PRCFAMCHA060101203645203650000005Astral ID (FEB05)                                                                                                           150                                
PROFAMCHA060101203650203705000015xxNSW - 24 - MOVIE ENT/N-PIX (SEP05) (:14 - 16)                                                                             150                                
PRCFAMCHA060101203705203735000030Darcy's Wild Life (NEW EPS) (JAN06) - New Eps star                                                                          150                                
PRCFAMCHA060101203735203812000037Movie Entertainment - Coming Up Next                                                                                        150                                
PROFAMCHA060101203812203907000055So Little Time (NS) (JAN06) - Tomorrow @ 6pm                                                                                150                                
PRCFAMCHA060101203907203929000022New Year - (JAN06) - Happy New Year!                                                                                        150                                
PRCFAMCHA060101203929203959000030Darcy's Wild Life (NS) (NOV05) - Tomorrow @ 6:30pm                                                                          150                                
PRCFAMCHA060101203959204049000050Nonstop Weekend - EVEN STEVENS - Fiesta                                                                                     150                                
PROFAMCHA060101204049204114000025Dullmark Moment - Network Contest (Dec 8 - Jan 5)                                                                           150                                
PROFAMCHA060101204114204144000030Ferris Bueller's Day Off (PP) - Friday @ 7:30pm                                                                             150                                
ID FAMCHA060101204144204200000016Nonstop Weekend Block Open (:14-:17)                                                                                        150                                
PGRFAMCHA060101204200205800001600Movie Entertainment (7)                                                                                               B10628150                                
PROFAMCHA060101205800205816000016Nightly Pix Line-up (SEPT) - GENERIC (:14-:16)                                                                              150                                
PROFAMCHA060101205816205846000030That's So Raven (OCT05) (NS/M-T) - Tomorrow @ 7pm                                                                           150                                
PRCFAMCHA060101205846205910000024Nonstop Weekend - EVEN STEVENS - Banned                                                                                     150                                
PROFAMCHA060101205910205944000034Smart Guy (APR06) (HAPPY DANCE) - (NS) - Tomorrow                                                                           150                                
ID FAMCHA060101205944205959000015xxNightly Pix Movie Open (:10-:15)                                                                                          150                                
ID FAMCHA060101205959210008000009Rating - PG - (DEC05) (:08 - :10)                                                                                           150                                
PROFAMCHA060101210008210017000009CC Disclaimer - SLOW - Family.ca (:08-:10)                                                                                  150                                
ID FAMCHA060101210017210025000008Magic of Disney - PIX - Shape (:06-:09)                                                                                     150                                
PGRFAMCHA060101210025222908012843Houseguest                                                                                                            B6068807DCC                              
PRCFAMCHA060101222908222913000005Astral ID (FEB05)                                                                                                           150                                
PROFAMCHA060101222913222929000016Nightly Pix Line-up (SEPT) - GENERIC (:14-:16)                                                                              150                                
PRCFAMCHA060101222929222948000019Nonstop Weekend - EVEN STEVENS - Locker                                                                                     150                                
ID FAMCHA060101222948223003000015xxNightly Pix Movie Open (:10-:15)                                                                                          150                                
ID FAMCHA060101223003223012000009Rating - PG - (DEC05) (:08 - :10)                                                                                           150                                
ID FAMCHA060101223012223020000008Magic of Disney - PIX - Wipe (:06-:09)                                                                                      150                                
PGRFAMCHA060101223020235911012851Mr. Wrong                                                                                                             B6068807D                                
PROFAMCHA060101235911235926000015NSW - 25 - MENTORS/SPIDER (SEP05) (:14 - 16)                                                                                150                                
PRCFAMCHA060101235926235945000019Nonstop Weekend - LIZZIE MCGUIRE - Pyramid                                                                                  150                                
ID FAMCHA060101235945000000000015Nonstop Weekend Block Open (:14-:17)                                                                                        150                                
PROFAMCHA060101000000000009000009CC Disclaimer - SLOW - Family.ca (:08-:10)                                                                                  150                                
PGRFAMCHA060101000009002320002311Mentors                                           EP: 3-035                                                     C18998A1065607ACC                              
PRCFAMCHA060101002320002325000005Astral ID (FEB05)                                                                                                           150                                
PROFAMCHA060101002325002340000015NS - 14 (M-F) SPIDER (SEP05) (:14 - 16)                                                                                     150                                
PROFAMCHA060101002340002410000030Ferris Bueller's Day Off (PP) - Friday @ 7:30pm                                                                             150                                
PROFAMCHA060101002410002505000055So Little Time (NS) (JAN06) - Tomorrow @ 6pm                                                                                150                                
PRCFAMCHA060101002505002527000022New Year - (JAN06) - Happy New Year!                                                                                        150                                
PRCFAMCHA060101002527002557000030Darcy's Wild Life (NS) (NOV05) - Tomorrow @ 6:30pm                                                                          150                                
PROFAMCHA060101002557002607000010FAMJAM - Open/Close                                                                                                         150                                
INTFAMCHA060101002607002822000215MV Disney - (FAMILY HITS 2) - Cinderella - Cheetah                                                                     60688120                                
PROFAMCHA060101002822002836000014xxFAMJAM - Close (FAMILY) xxDNUxx                                                                                           150                                
PROFAMCHA060101002836002906000030That's So Raven (OCT05) (NS/M-T) - Tomorrow @ 7pm                                                                           150                                
PROFAMCHA0601010029060029360000308 Simple Rules (JAN06) (NS) TICKET - Tomorrow @ 8p                                                                          150                                
PRCFAMCHA060101002936002945000009Radio Free Roscoe ID (MAR) - You're Watching Famil                                                                          150                                
ID FAMCHA060101002945003000000015Nonstop Block Open (:14-:17)                                                                                                150                                
PGRFAMCHA060101003000005143002143Spiderman                                         EP: 19                                                        C02618 1065607E                                
PRCFAMCHA060101005143005213000030Darcy's Wild Life (NEW EPS) (JAN06) - New Eps star                                                                          150                                
PRCFAMCHA060101005213005235000022New Year - (JAN06) - Happy New Year!                                                                                        150                                
PROFAMCHA060101005235005305000030That's So Raven (OCT05) (NS/M-T) - Tomorrow @ 7pm                                                                           150                                
PROFAMCHA0601010053050053350000308 Simple Rules (JAN06) (NS) TICKET - Tomorrow @ 8p                                                                          150                                
PROFAMCHA060101005335005345000010FAMJAM - Open/Close                                                                                                         150                                
INTFAMCHA060101005345005759000414MV Disney - (NSpost7pm/NSW-PM) - Shine Your Light                                                                      60688120                                
PROFAMCHA060101005759005813000014xxFAMJAM - Close (FAMILY) xxDNUxx                                                                                           150                                
PRCFAMCHA060101005813005843000030Radio Free Roscoe (DATING GAME) - (NS/M-T) (DEC05)                                                                          150                                
PROFAMCHA060101005843005911000028xxPopular (NS) (DEC05) - Tomorrow @ 10pm                                                                                    150                                
PROFAMCHA060101005911005955000044Zoey 101 - PHONE (NS/FRI) (NOV05) - Fridays @ 6pm                                                                           150                                
INTFAMCHA060101005955010104000109Planet Rock Profiles - Craig David (Studio) xxDNUxEP: 46                                                              A70687120                                
PRCFAMCHA060101010104010134000030Phil of the Future (NS) (OCT05) - Fridays @ 6:30pm                                                                          150                                
PROFAMCHA060101010134010204000030Ferris Bueller's Day Off (PP) - Friday @ 7:30pm                                                                             150                                
PRCFAMCHA060101010204010219000015Astral - LOVE                                                                                                               150                                
SO FAMCHA060101010219011419001200Sign Off                                                                                                                                                       
OFFFAMCHA060101011419043000031541OFF AIR                                                                                                                                                        
SO FAMCHA060102043000043011000011Sign On (oct 1)                                                                                                                                                
PROFAMCHA060102043011043020000009CC Disclaimer - FAST - Family.ca (:08-:10)                                                                                  150                                
PGRFAMCHA060102043020045658002638Katie And Orbie                                   EP: 5-057                                                     C19665A1065607ECC                              
PRCFAMCHA060102045658045703000005Astral ID (FEB05)                                                                                                           150                                
PROFAMCHA060102045703045718000015PH - 01 - FRANNY/SOMETHING/HOZE (SEP05) (:14 - 16)                                                                          150                                
ID FAMCHA060102045718045731000013PS Playhouse AM Block Open (:10-:15)                                                                                        150                                
PROFAMCHA060102045731045740000009CC Disclaimer - FAST - Family.ca (:08-:10)                                                                                  150                                
PGRFAMCHA060102045740052010002230Franny's Feet                                     EPS # 33                                                      C23971 1065607ECC                              
PROFAMCHA060102052010052025000015PH - 02 - SOMETHING/HOZE/KING (SEP05) (:14 - 16)                                                                            150                                
ID FAMCHA060102052025052038000013PS Playhouse AM Block Open (:10-:15)                                                                                        150                                
PROFAMCHA060102052038052047000009CC Disclaimer - FAST - Family.ca (:08-:10)                                                                                  150                                
PGRFAMCHA060102052047054318002231Something Else                                    EP: 1-002                                                     B69256A1065607ECC                              
PRCFAMCHA060102054318054323000005Astral ID (FEB05)                                                                                                           150                                
PROFAMCHA060102054323054338000015PH - 03 - HOZE/KING/SPIDERMAN (SEP05) (:14 - 16)                                                                            150                                
ID FAMCHA060102054338054351000013PS Playhouse AM Block Open (:10-:15)                                                                                        150                                
PROFAMCHA060102054351054400000009CC Disclaimer - FAST - Family.ca (:08-:10)                                                                                  150                                
PGRFAMCHA060102054400060638002238Hoze Houndz                                       EP: 5-060                                                     B63396A1065607ECC                              
PROFAMCHA060102060638060653000015PH - 04 - KING/SPIDERMAN/KIM (SEP05) (:14 - 16)                                                                             150                                
ID FAMCHA060102060653060706000013PS Playhouse AM Block Open (:10-:15)                                                                                        150                                
PROFAMCHA060102060706060715000009CC Disclaimer - FAST - Family.ca (:08-:10)                                                                                  150                                
PGRFAMCHA060102060715062945002230King                                              EP: 010                                                       B75765A1065607ECC                              
PRCFAMCHA060102062945062950000005Astral ID (FEB05)                                                                                                           150                                
PROFAMCHA060102062950063005000015PH - 05 - SPIDERMAN/KIM/RECESS (SEP05) (:14 - 16)                                                                           150                                
ID FAMCHA060102063005063024000019MadMadMornings Block Open                                                                                                   150                                
PGRFAMCHA060102063024065205002141Spiderman                                         EP: 10                                                        C02618 1065607E                                
PROFAMCHA060102065205065220000015MMM - 01 (AM) - KIM/RECESS/WEEKENDERS (OCT05) (:14                                                                          150                                
PROFAMCHA060102065220065250000030xxKim Possible 007 (OCT05) (MD) - Coming Up Next                                                                            150                                
PROFAMCHA060102065250065310000020Recess - Kindergarten (MD/AM) - (SEP05) - Today @                                                                           150                                
PRCFAMCHA060102065310065348000038Mad Dash - LIZZIE MCGUIRE - Breakfast                                                                                       150                                
PROFAMCHA060102065348065442000054Weekenders - B-Ball (MD/AM) - (SEP05) - Today @ 7:                                                                          150                                
PRCFAMCHA060102065442065511000029Lloyd In Space (Oops) - Today @ 3:25pm                                                                                      150                                
PRCFAMCHA060102065511065541000030Darcy's Wild Life (NEW EPS) (JAN06) - New Eps star                                                                          150                                
ID FAMCHA060102065541065600000019MadMadMornings Block Open                                                                                                   150                                
PGRFAMCHA060102065600071853002253Disney's Kim Possible                             EP: 1-063                                                            6068607E                                
PRCFAMCHA060102071853071858000005Astral ID (FEB05)                                                                                                           150                                
PROFAMCHA060102071858071914000016MMM - 02 (AM) - RECESS/WEEKENDERS/LILO (OCT05) (:1                                                                          150                                
PROFAMCHA060102071914071934000020Recess - Kindergarten (MD/AM) - (SEP05) - Coming U                                                                          150                                
INTFAMCHA060102071934072123000149Family Lab (Phase 3) - Disguise-o-matic (2x)                                                                           10625120                                
PROFAMCHA060102072123072217000054Weekenders - B-Ball (MD/AM) - (SEP05) - Today @ 7:                                                                          150                                
INTFAMCHA060102072217072238000021Recess Sketches - Cajoling Gus - Duck Gus                                                                              60686120                                
PRCFAMCHA060102072238072308000030Brandy & Mr. Whiskers - Today @ 12:10pm                                                                                     150                                
PROFAMCHA060102072308072335000027Dave the Barbarian - SCREAM (SEP05) - Today @ 3:50                                                                          150                                
PRCFAMCHA060102072335072342000007xxFamily Bumpers - (Phase 2 F/W 04) - Snow Twirl (                                                                          150                                
ID FAMCHA060102072342072401000019MadMadMornings Block Open                                                                                                   150                                
PGRFAMCHA060102072401074637002236Disney's Recess                                   EP: 1-034                                                            6068607E                                
PROFAMCHA060102074637074653000016MMM - 03 (AM) - WEEKENDERS/LILO/WINNIE (OCT05) (:1                                                                          150                                
PROFAMCHA060102074653074747000054Weekenders - B-Ball (MD/AM) - (SEP05) - Coming Up                                                                           150                                
PROFAMCHA060102074747074812000025Dullmark Moment - Network Contest (Dec 8 - Jan 5)                                                                           150                                
PROFAMCHA060102074812074840000028Lilo & Stitch (MD) (SEP05) - Today @ 8:15am                                                                                 150                                
PRCFAMCHA060102074840074925000045Famous Players Popcorn Parties (1x)                                                                                         150                                
PROFAMCHA060102074925075011000046Fillmore! - Chase (MD) (SEP05) - Today @ 2:35pm                                                                             150                                
PRCFAMCHA060102075011075041000030Darcy's Wild Life (NEW EPS) (JAN06) - New Eps star                                                                          150                                
ID FAMCHA060102075041075100000019MadMadMornings Block Open                                                                                                   150                                
PROFAMCHA060102075100075109000009CC Disclaimer - FAST - Family.ca (:08-:10)                                                                                  150                                
PGRFAMCHA060102075109081342002233Disney's The Weekenders                           EP: 1-020                                                           A6068607ECC                              
PRCFAMCHA060102081342081347000005Astral ID (FEB05)                                                                                                           150                                
PROFAMCHA060102081347081403000016MMM - 04 (AM-M/W/F) - LILO/WINNIE/FRANNY (OCT05) (                                                                          150                                
PROFAMCHA060102081403081430000027Lilo & Stitch (MD) (SEP05) - Coming Up Next                                                                                 150                                
PRCFAMCHA060102081430081500000030Brandy & Mr. Whiskers - Today @ 12:10pm                                                                                     150                                
PROFAMCHA060102081500081546000046Fillmore! - Chase (MD) (SEP05) - Today @ 2:35pm                                                                             150                                
PRCFAMCHA060102081546081619000033Mad Dash - WEEKENDERS - Clown                                                                                               150                                
PROFAMCHA060102081619081713000054Weekenders - B-Ball (MD/PM) - (SEP05) - Today @ 3p                                                                          150                                
PRCFAMCHA060102081713081742000029Lloyd In Space (Oops) - Today @ 3:25pm                                                                                      150                                
ID FAMCHA060102081742081801000019MadMadMornings Block Open                                                                                                   150                                
PGRFAMCHA060102081801084040002239Disney's Lilo & Stitch                            EPS # 18                                                            A6068607E                                
PROFAMCHA060102084040084056000016PH - 06 (M/W/F) - WINNIE/FRANNY/MACDONALD (SEP05)                                                                           150                                
PROFAMCHA060102084056084126000030Winnie the Pooh (PH/AM) (SEP05) - Coming Up Next                                                                            150                                
PRCFAMCHA060102084126084156000030xxFranny's Feet - Feet Talkin' (PH-M/W/F) - Today                                                                           150                                
PROFAMCHA060102084156084226000030New MacDonald's Farm (PH) (SEP05) - Today @ 9:35am                                                                          150                                
INTFAMCHA060102084226084341000115They Might Be Giants (ABC's) - QU                                                                                      60688120                                
PROFAMCHA060102084341084428000047Princess Block - Be A Princess (Fashion) - Today @                                                                          150                                
PROFAMCHA060102084428084447000019Henry's World (SEP05) - Today @ 11am                                                                                        150                                
ID FAMCHA060102084447084500000013PS Playhouse AM Block Open (:10-:15)                                                                                        150                                
PROFAMCHA060102084500084509000009CC Disclaimer - FAST - Family.ca (:08-:10)                                                                                  150                                
PGRFAMCHA060102084509090750002241The New Adventures of Winnie the Pooh             EP: 1-041                                                            6068607ECC                              
PRCFAMCHA060102090750090755000005Astral ID (FEB05)                                                                                                           150                                
PROFAMCHA060102090755090810000015PH - 07 (M/W/F) - FRANNY/MACDONALD/BELLE (SEP05) (                                                                          150                                
PRCFAMCHA060102090810090840000030Franny's Feet - Feet Talkin' (PH-M/W/F) - Coming U                                                                          150                                
PROFAMCHA060102090840090910000030New MacDonald's Farm (PH) (SEP05) - Today @ 9:35am                                                                          150                                
PRCFAMCHA060102090910090945000035Playhouse - KATIE & ORBIE - Did You Know?                                                                                   150                                
PROFAMCHA060102090945091030000045Princess Block - Be A Princess (Frog Prince) - Tod                                                                          150                                
ID FAMCHA060102091030091045000015Franny's Feet Web BBD - Part of Playhouse @ family                                                                          150                                
ID FAMCHA060102091045091100000015PS Playhouse AM Block Open (:10-:15)                                                                                        150                                
PROFAMCHA060102091100091109000009CC Disclaimer - FAST - Family.ca (:08-:10)                                                                                  150                                
PGRFAMCHA060102091109093339002230Franny's Feet                                     EPS # 35                                                      C23971 1065607ECC                              
PROFAMCHA060102093339093354000015PH - 08 (M/W/F) - MACDONALD/BELLE/PB&J (SEP05) (:1                                                                          150                                
PROFAMCHA060102093354093424000030New MacDonald's Farm (PH) (SEP05) - Coming Up Next                                                                          150                                
PROFAMCHA060102093424093457000033Princess Block - Be A Princess (Royal Treatment) -                                                                          150                                
PROFAMCHA060102093457093516000019Henry's World (SEP05) - Today @ 11am                                                                                        150                                
PRCFAMCHA060102093516093547000031King (PH) (SEP05) - Today @ 11:25am                                                                                         150                                
ID FAMCHA060102093547093600000013PS Playhouse AM Block Open (:10-:15)                                                                                        150                                
PGRFAMCHA060102093600100520002920New MacDonald's Farm                              EP: 42                                                               7068607E                                
PRCFAMCHA060102100520100525000005Astral ID (FEB05)                                                                                                           150                                
PROFAMCHA060102100525100540000015PH - 09 (M/W/F) - BELLE/PB&J/HENRY (SEP05) (:14 -                                                                           150                                
PROFAMCHA060102100540100627000047Princess Block - Be A Princess (Fashion) - Coming                                                                           150                                
PROFAMCHA060102100627100646000019Henry's World (SEP05) - Today @ 11am                                                                                        150                                
ID FAMCHA060102100646100701000015Franny's Feet Web BBD - Part of Playhouse @ family                                                                          150                                
PRCFAMCHA060102100701100732000031King (PH) (SEP05) - Today @ 11:25am                                                                                         150                                
PRCFAMCHA060102100732100747000015xxFranny's Feet - Bowleriffic (PH-M/W/F) - (SEP05)                                                                          150                                
ID FAMCHA060102100747100800000013PS Playhouse AM Block Open (:10-:15)                                                                                        150                                
ID FAMCHA060102100800100808000008Magic of Disney - PLAYHOUSE - Shape (:06-:09)                                                                               150                                
PGRFAMCHA060102100808103050002242Disney's Sing Me A Story With Belle               EP: 01                                                               6068607G                                
PROFAMCHA060102103050103105000015PH - 10 - PB&J/HENRY/KING (SEP05) (:14 - 16)                                                                                150                                
PROFAMCHA060102103105103124000019Henry's World (SEP05) - Today @ 11am                                                                                        150                                
PRCFAMCHA060102103124103155000031King (PH) (SEP05) - Today @ 11:25am                                                                                         150                                
INTFAMCHA060102103155103325000130They Might Be Giants (ABC's) - Clap Your Hands                                                                         60688120                                
PRCFAMCHA060102103325103345000020Benjamin Bear - Snack (PH-T/T) (SEP05) - Tomorrow                                                                           150                                
ID FAMCHA060102103345103400000015PS Playhouse AM Block Open (:10-:15)                                                                                        150                                
PROFAMCHA060102103400103409000009CC Disclaimer - FAST - Family.ca (:08-:10)                                                                                  150                                
PGRFAMCHA060102103409105739002330PB&J Otter                                        EP: 2-011                                                           A6068607ECC                              
PRCFAMCHA060102105739105744000005Astral ID (FEB05)                                                                                                           150                                
PROFAMCHA060102105744105759000015PH - 11 - HENRY/KING/LILO (SEP05) (:14 - 16)                                                                                150                                
PROFAMCHA060102105759105818000019Henry's World (SEP05) - Coming Up Next                                                                                      150                                
PRCFAMCHA060102105818105849000031King (PH) (SEP05) - Today @ 11:25am                                                                                         150                                
ID FAMCHA060102105849105900000011PS Playhouse AM Block Open (:10-:15)                                                                                        150                                
PROFAMCHA060102105900105909000009CC Disclaimer - FAST - Family.ca (:08-:10)                                                                                  150                                
PGRFAMCHA060102105909112309002400Henry's World                                     EP: 1-012                                                     B66554A1065607GCC                              
PROFAMCHA060102112309112323000014PH - 12 (M-T) - KING/LILO/BRANDY (SEP05) (:14 - 16                                                                          150                                
PRCFAMCHA060102112323112354000031King (PH) (SEP05) - Coming Up Next                                                                                          150                                
PRCFAMCHA060102112354112414000020Benjamin Bear - Snack (PH-T/T) (SEP05) - Tomorrow                                                                           150                                
PROFAMCHA060102112414112447000033Princess Block - Be A Princess (Royal Treatment) -                                                                          150                                
ID FAMCHA060102112447112500000013PS Playhouse AM Block Open (:10-:15)                                                                                        150                                
PROFAMCHA060102112500112509000009CC Disclaimer - FAST - Family.ca (:08-:10)                                                                                  150                                
PGRFAMCHA060102112509114739002230King                                              EP: 010                                                       B75765A1065607ECC                              
PRCFAMCHA060102114739114744000005Astral ID (FEB05)                                                                                                           150                                
PROFAMCHA060102114744114759000015MD - 05 (LU-M-T) - LILO/BRANDY/ALADDIN (SEP05) (:1                                                                          150                                
PROFAMCHA060102114759114826000027Lilo & Stitch (MD) (SEP05) - Coming Up Next                                                                                 150                                
PROFAMCHA060102114826114845000019Henry's World (SEP05) - Today @ 11am                                                                                        150                                
ID FAMCHA060102114845114900000015Mad Dash Block Open (:13-:15)                                                                                               150                                
PGRFAMCHA060102114900121139002239Disney's Lilo & Stitch: The Series                EP: 54                                                               6068607E                                
PROFAMCHA060102121139121154000015MD - 06 (LU-M-T) - BRANDY/ALADDIN/HOZE (SEP05) (:1                                                                          150                                
PRCFAMCHA060102121154121224000030Brandy & Mr. Whiskers - Coming Up Next                                                                                      150                                
PRCFAMCHA060102121224121234000010Mad Dash - LIZZIE MCGUIRE - Going In                                                                                        150                                
PRCFAMCHA060102121234121246000012xxFamily Bumpers - (Phase 3 Spring 05) - Bake (MD/                                                                          150                                
ID FAMCHA060102121246121300000014Mad Dash Block Open (:13-:15)                                                                                               150                                
