SO FAMCHA001101043000043011000011Sign On (oct 1)                                                                                                         06                                     
PROFAMCHA001101043011043016000005CC Disclaimer (oct) **DO NOT USE**                                                                                      06  150                                
PGRFAMCHA001101043016045417002401Hello Mrs. Cherrywinkle                           Missing Cookies                                               C14683A1065607ACC                              
ID FAMCHA001101045417045422000005Generic ID - Bubbles*                                                                                                   06  150                                
PROFAMCHA001101045422045440000018Mickey Mouseworks - Weekends @ 4:30pm                                                                                   06  150                                
ID FAMCHA001101045440045500000020Morning block open play pen                                                                                             06  150                                
PROFAMCHA001101045500045505000005CC Disclaimer (oct) **DO NOT USE**                                                                                      06  150                                
PGRFAMCHA001101045505051915002410Busy World Of Richard Scarry; The                 Fun Time Riddle Race                                          P24308A1165607ECC                              
ID FAMCHA001101051915051925000010Generic ID - confetti                                                                                                   06  150                                
PROFAMCHA001101051925051940000015Doug (MARCH2001) - Today @ 4pm                                                                                          06  150                                
ID FAMCHA001101051940052000000020Morning block open play pen                                                                                             06  150                                
PROFAMCHA001101052000052005000005CC Disclaimer (oct) **DO NOT USE**                                                                                      06  150                                
PGRFAMCHA001101052005054504002459Amazing Animals                                   Talk                                                                 60686110CC                              
ID FAMCHA001101054504054509000005Generic ID - Marbles                                                                                                    06  150                                
PROFAMCHA001101054509054530000021Recess (MARCH2001) - Today @ 5pm                                                                                        06  150                                
PRCFAMCHA001101054530054540000010Morning Block menu background (flex time)                                                                               06  150                                
ID FAMCHA001101054540054600000020Morning block open play pen                                                                                             06  150                                
PROFAMCHA001101054600054605000005CC Disclaimer (oct) **DO NOT USE**                                                                                      06  150                                
PGRFAMCHA001101054605061022002417Billy The Cat                                     The Cat That Couldn't Meow                                    B27638A1065607ECC                              
ID FAMCHA001101061022061032000010Generic ID - Family w/dog                                                                                               06  150                                
ID FAMCHA001101061032061040000008URL(1) - NEWSLETTER                                                                                                     06  150                                
ID FAMCHA001101061040061100000020Morning block open play pen                                                                                             06  150                                
PROFAMCHA001101061100061105000005CC Disclaimer (oct) **DO NOT USE**                                                                                      06  150                                
PGRFAMCHA001101061105063440002335Little Lulu Show; The                             Breakout, The Great Golf Club Chase, Jumpin' Jelly            A20197A1055607ECC3                             
ID FAMCHA001101063440063445000005Generic ID - Couch 2*                                                                                                   06  150                                
PROFAMCHA001101063445063530000045PB&J Otter (MARCH2001) - Weekends @ 5pm                                                                                206  150                                
PRCFAMCHA001101063530063540000010Morning Block menu background (flex time)                                                                               06  150                                
ID FAMCHA001101063540063600000020Morning block open play pen                                                                                             06  150                                
PROFAMCHA001101063600063605000005CC Disclaimer (oct) **DO NOT USE**                                                                                      06  150                                
PGRFAMCHA001101063605070005002400Big Garage; The                                   What About Mimi?                                              P21457 1065607ECC                              
ID FAMCHA001101070005070010000005Generic ID - Marbles                                                                                                    06  150                                
PROFAMCHA001101070010070015000005CC Disclaimer (oct) **DO NOT USE**                                                                                      06  150                                
PGRFAMCHA001101070015072308002253Franklin                                          Robot/The Detective                                           A38156A1065607ECC                              
ID FAMCHA001101072308072323000015Generic ID - confetti                                                                                                   06  150                                
PRCFAMCHA001101072323072353000030Out of the Box (AUG2000) - Today @ 10:18am                                                                             106  150                                
PROFAMCHA001101072353072423000030New Adventures of WTP (MARCH2001) - Coming Up                                                                           06  150                                
INTFAMCHA001101072423072845000422Furrever Friends: You're A Sensation                                                                                   60688120                                
PROFAMCHA001101072845072915000030Pepper Ann (MARCH2001) - Today @ 4:30pm                                                                                 06  150                                
PROFAMCHA001101072915072939000024ALF - Today @ Noon                                                                                                      06  150                                
PRCFAMCHA001101072939072950000011Morning Block menu background (flex time)                                                                               06  150                                
ID FAMCHA001101072950073000000010xxMagic of Disney - V4 - KID FEMALE                                                                                     06  150                                
PROFAMCHA001101073000073005000005CC Disclaimer (oct) **DO NOT USE**                                                                                      06  150                                
PGRFAMCHA001101073005075241002236New Adventures of Winnie the Pooh; The            Sorry, Wrong Slusher                                                 6068607ECC                              
ID FAMCHA001101075241075251000010Generic ID - Pink inner tube                                                                                            06  150                                
PRCFAMCHA001101075251075321000030Franklin (MARCH2001) - Today @ 12:30pm                                                                                 106  150                                
INTFAMCHA001101075321075650000329Art Attack - 2 Swans                                                                                                   60686120                                
PRCFAMCHA001101075650075720000030Out of the Box (AUG2000) - Today @ 10:18am                                                                             106  150                                
INTFAMCHA001101075720075855000135Big Garage, "stop" - Sounds Funny To Me                                                                         P21470 10656120                                
PRCFAMCHA001101075855075930000035Little Lulu (AUG2000) - Tonight @ 6pm                                                                                  106  150                                
PRCFAMCHA001101075930075940000010Morning Block menu background (flex time)                                                                               06  150                                
ID FAMCHA001101075940080000000020Morning block open play pen                                                                                             06  150                                
PGRFAMCHA001101080000081950001950Art Attack                                        1-103                                                                60686110                                
ID FAMCHA001101081950082000000010Generic ID - Ring around the rosie                                                                                      06  150                                
PRCFAMCHA001101082000082030000030Out of the Box (AUG2000) - Today @ 10:18am                                                                             106  150                                
PGRFAMCHA001101082030082659000629Richard Scarry (ii) Plight Of Penelpe Parakeet                                                                  P19589 10656150                                
PRCFAMCHA001101082659082734000035Little Lulu (AUG2000) - Tonight @ 6pm                                                                                  106  150                                
INTFAMCHA001101082734082913000139Disney Moments-Lady And The Tramp-Siamese Cat Song                                                                     60688120                                
PROFAMCHA001101082913082940000027Recess (MARCH2001) - Today @ 5pm                                                                                        06  150                                
PRCFAMCHA001101082940082950000010Morning Block menu background (flex time)                                                                               06  150                                
ID FAMCHA001101082950083000000010xxMagic of Disney - V2(sky) - KID FEMALE                                                                                06  150                                
PROFAMCHA001101083000083005000005CC Disclaimer (oct) **DO NOT USE**                                                                                      06  150                                
PGRFAMCHA001101083005085312002307Disney Presents Bill Nye the Science Guy          Probability                                                          60686110CC                              
ID FAMCHA001101085312085322000010Generic ID - soccer **DO NOT USE**                                                                                      06  150                                
PRCFAMCHA001101085322085352000030Franklin (MARCH2001) - Today @ 12:30pm                                                                                 106  150                                
PROFAMCHA001101085352085437000045PB&J Otter (MARCH2001) - Coming Up                                                                                     206  150                                
INTFAMCHA001101085437085836000359MV Disney - Beauty And The Beast (PEBO BRYSON/CELI                                                                     60688120                                
PROFAMCHA001101085836085906000030Disney's One, Too - Today @ 4pm                                                                                         06  150                                
PROFAMCHA001101085906085930000024ALF - Today @ Noon                                                                                                      06  150                                
PRCFAMCHA001101085930085940000010Morning Block menu background (flex time)                                                                               06  150                                
ID FAMCHA001101085940090000000020Morning block open play pen                                                                                             06  150                                
PROFAMCHA001101090000090005000005CC Disclaimer (oct) **DO NOT USE**                                                                                      06  150                                
PGRFAMCHA001101090005092335002330PB&J Otter                                        Lost and Found/Sherlock Otter                                       A6068607ECC                              
ID FAMCHA001101092335092345000010Generic ID - Family w/dog                                                                                               06  150                                
PROFAMCHA001101092345092430000045PB&J Otter (MARCH2001) - Weekends @ 5pm                                                                                206  150                                
PRCFAMCHA001101092430092440000010Morning Block menu background (flex time)                                                                               06  150                                
ID FAMCHA001101092440092500000020Morning block open play pen                                                                                             06  150                                
PROFAMCHA001101092500092505000005CC Disclaimer (oct) **DO NOT USE**                                                                                      06  150                                
PGRFAMCHA001101092505094915002410Busy World Of Richard Scarry; The                 Don't Close The Amusement Park                                P24309A1165607ECC                              
ID FAMCHA001101094915094920000005Generic ID - Couch 2*                                                                                                   06  150                                
PROFAMCHA001101094920094950000030Pepper Ann (MARCH2001) - Today @ 4:30pm                                                                                 06  150                                
PRCFAMCHA001101094950095020000030Madeline (AUG2000) - Coming Up                                                                                         106  150                                
INTFAMCHA001101095020095136000116Bill Nye - How Can We Communicate?                                                                                     60688120                                
PRCFAMCHA001101095136095206000030Franklin (MARCH2001) - Today @ 12:30pm                                                                                 106  150                                
PROFAMCHA001101095206095230000024ALF - Today @ Noon                                                                                                      06  150                                
PRCFAMCHA001101095230095240000010Morning Block menu background (flex time)                                                                               06  150                                
ID FAMCHA001101095240095300000020Morning block open play pen                                                                                             06  150                                
PGRFAMCHA001101095300101540002240Madeline                                          Madeline in New York                                                 6068607E                                
ID FAMCHA001101101540101545000005Generic ID - Bubbles*                                                                                                   06  150                                
PROFAMCHA001101101545101615000030Pepper Ann (MARCH2001) - Today @ 4:30pm                                                                                 06  150                                
PRCFAMCHA001101101615101645000030Out of the Box (AUG2000) - Coming Up                                                                                   106  150                                
PROFAMCHA001101101645101706000021Recess (MARCH2001) - Today @ 5pm                                                                                        06  150                                
PROFAMCHA001101101706101730000024ALF - Today @ Noon                                                                                                      06  150                                
PRCFAMCHA001101101730101740000010Morning Block menu background (flex time)                                                                               06  150                                
ID FAMCHA001101101740101800000020Morning block open play pen                                                                                             06  150                                
PGRFAMCHA001101101800104005002205Out of the Box                                    Tall and Small                                                       60686110                                
ID FAMCHA001101104005104015000010Generic ID - Ring around the rosie                                                                                      06  150                                
PROFAMCHA001101104015104045000030Pepper Ann (MARCH2001) - Today @ 4:30pm                                                                                 06  150                                
PRCFAMCHA001101104045104120000035Little Lulu (AUG2000) - Tonight @ 6pm                                                                                  106  150                                
ID FAMCHA001101104120104130000010URL(1) - FAMILIES                                                                                                       06  150                                
PROFAMCHA001101104130104200000030New Adventures of WTP (MARCH2001) - Weekdays @ 7:3                                                                      06  150                                
PROFAMCHA001101104200104230000030Lion King (AUG2000) - Tonight @ 6:30pm                                                                                 206  150                                
PRCFAMCHA001101104230104240000010Morning Block menu background (flex time)                                                                               06  150                                
ID FAMCHA001101104240104300000020Morning block open play pen                                                                                             06  150                                
PROFAMCHA001101104300104305000005CC Disclaimer (oct) **DO NOT USE**                                                                                      06  150                                
PGRFAMCHA001101104305110735002430Billy The Cat                                     Microchips With Everything                                    B27639A1065607ECC                              
ID FAMCHA001101110735110745000010Generic ID - soccer **DO NOT USE**                                                                                      06  150                                
PROFAMCHA001101110745110809000024ALF - Today @ Noon                                                                                                      06  150                                
PRCFAMCHA001101110809110845000036Goof Troop (MARCH2001) - Coming Up                                                                                      06  150                                
PROFAMCHA001101110845110915000030Pepper Ann (MARCH2001) - Today @ 4:30pm                                                                                 06  150                                
PRCFAMCHA001101110915110950000035Little Lulu (AUG2000) - Tonight @ 6pm                                                                                  106  150                                
ID FAMCHA001101110950111000000010xxMagic of Disney - V3(water) - KID MALE                                                                                06  150                                
PROFAMCHA001101111000111005000005CC Disclaimer (oct) **DO NOT USE**                                                                                      06  150                                
PGRFAMCHA001101111005113258002253Goof Troop                                        Educating Goofy                                                      6068607ECC                              
ID FAMCHA001101113258113303000005Generic ID - Couch 1*                                                                                                   06  150                                
PROFAMCHA001101113303113327000024ALF - Today @ Noon                                                                                                      06  150                                
PRCFAMCHA001101113327113401000034Hoze Houndz (MARCH2001) - Weekends @ 7:00pm                                                                             06  150                                
ID FAMCHA001101113401113409000008URL(2) - TRIVIA                                                                                                         06  150                                
PROFAMCHA001101113409113439000030Buzz Lightyear - Today @ 5:30pm                                                                                         06  150                                
PRCFAMCHA001101113439113450000011Morning Block menu background (flex time)                                                                               06  150                                
ID FAMCHA001101113450113500000010xxMagic of Disney - V4 - KID FEMALE                                                                                     06  150                                
PROFAMCHA001101113500113505000005CC Disclaimer (oct) **DO NOT USE**                                                                                      06  150                                
PGRFAMCHA001101113505115741002236Disney's Aladdin                                  Dune Quixote                                                         6068607ECC                              
ID FAMCHA001101115741115751000010Generic ID - Bubbles                                                                                                    06  150                                
PROFAMCHA001101115751115842000051Smart House - Sunday @ 12pm                                                                                             02  150                                
PROFAMCHA001101115842115906000024ALF - Coming Up                                                                                                         06  150                                
PROFAMCHA001101115906115936000030Mickey Mouseworks - Weekends @ 4:30pm                                                                                   06  150                                
PRCFAMCHA001101115936115945000009Morning Block menu background (flex time)                                                                               06  150                                
ID FAMCHA001101115945120000000015Afternoon block pinball open **DO NOT USE**                                                                             06  150                                
PGRFAMCHA001101120000122130002130ALF                                               Help Me, Rhonda                                                     A2068807B                                
ID FAMCHA001101122130122135000005Generic ID - Couch 2*                                                                                                   06  150                                
PROFAMCHA001101122135122205000030Disney's One, Too - Today @ 4pm                                                                                         06  150                                
PRCFAMCHA001101122205122235000030Franklin (MARCH2001) - Coming Up                                                                                       106  150                                
PGRFAMCHA001101122235122904000629Richard Scarry (ii) Hilda The Director                                                                          P19591 10656150                                
PROFAMCHA001101122904122934000030Lion King (AUG2000) - Tonight @ 6:30pm                                                                                 206  150                                
PRCFAMCHA001101122934122945000011Morning Block menu background (flex time)                                                                               06  150                                
ID FAMCHA001101122945123000000015Afternoon block pinball open **DO NOT USE**                                                                             06  150                                
PROFAMCHA001101123000123005000005CC Disclaimer (oct) **DO NOT USE**                                                                                      06  150                                
PGRFAMCHA001101123005125258002253Franklin                                          Franklin's Masterpiece/Franklin and the Computer              P02772A1065607ECC                              
ID FAMCHA001101125258125303000005Generic ID - Marbles                                                                                                    06  150                                
PROFAMCHA001101125303125333000030Pepper Ann (MARCH2001) - Today @ 4:30pm                                                                                 06  150                                
PROFAMCHA001101125333125418000045PB&J Otter (MARCH2001) - Coming Up                                                                                     206  150                                
INTFAMCHA001101125418125832000414Art Attack - Fish                                                                                                      60686120                                
PRCFAMCHA001101125832125902000030Out of the Box (AUG2000) - Today @ 2:18pm                                                                              106  150                                
PRCFAMCHA001101125902125936000034Hoze Houndz (MARCH2001) - Weekends @ 7:00pm                                                                             06  150                                
PRCFAMCHA001101125936125945000009Morning Block menu background (flex time)                                                                               06  150                                
ID FAMCHA001101125945130000000015Afternoon block pinball open **DO NOT USE**                                                                             06  150                                
PROFAMCHA001101130000130005000005CC Disclaimer (oct) **DO NOT USE**                                                                                      06  150                                
PGRFAMCHA001101130005132335002330PB&J Otter                                        Baby Butter's Bankie/Three Super Otters                             A6068607ECC                              
ID FAMCHA001101132335132340000005Generic ID - Couch 2*                                                                                                   06  150                                
PROFAMCHA001101132340132410000030Buzz Lightyear - Today @ 5:30pm                                                                                         06  150                                
PRCFAMCHA001101132410132445000035Little Lulu (AUG2000) - Tonight @ 6pm                                                                                  106  150                                
ID FAMCHA001101132445132500000015Afternoon block pinball open **DO NOT USE**                                                                             06  150                                
PROFAMCHA001101132500132505000005CC Disclaimer (oct) **DO NOT USE**                                                                                      06  150                                
PGRFAMCHA001101132505134915002410Busy World Of Richard Scarry; The                 Has Anyone Seen My Book?                                      P24310A1165607ECC                              
ID FAMCHA001101134915134925000010Generic ID - Hula Hoop                                                                                                  06  150                                
PROFAMCHA001101134925134955000030Lion King (AUG2000) - Tonight @ 6:30pm                                                                                 206  150                                
PRCFAMCHA001101134955135025000030Madeline (AUG2000) - Coming Up                                                                                         106  150                                
INTFAMCHA001101135025135136000111Mix Ups - Spring cleaning                                                                                              60688120                                
PRCFAMCHA001101135136135206000030Out of the Box (AUG2000) - Today @ 2:18pm                                                                              106  150                                
PROFAMCHA001101135206135236000030Buzz Lightyear - Today @ 5:30pm                                                                                         06  150                                
PRCFAMCHA001101135236135245000009Morning Block menu background (flex time)                                                                               06  150                                
ID FAMCHA001101135245135300000015Afternoon block pinball open **DO NOT USE**                                                                             06  150                                
PROFAMCHA001101135300135305000005CC Disclaimer (oct) **DO NOT USE**                                                                                      06  150                                
PGRFAMCHA001101135305141550002245Madeline                                          Madeline and the Lost Crown                                          6068607ECC                              
ID FAMCHA001101141550141557000007Generic ID - Whisper*                                                                                                   06  150                                
PROFAMCHA001101141557141612000015Doug (MARCH2001) - Today @ 4pm                                                                                          06  150                                
PRCFAMCHA001101141612141642000030Out of the Box (AUG2000) - Coming Up                                                                                   106  150                                
PROFAMCHA001101141642141712000030Mickey Mouseworks - Weekends @ 4:30pm                                                                                   06  150                                
PROFAMCHA001101141712141733000021Recess (MARCH2001) - Today @ 5pm                                                                                        06  150                                
PRCFAMCHA001101141733141745000012Morning Block menu background (flex time)                                                                               06  150                                
ID FAMCHA001101141745141800000015Afternoon block pinball open **DO NOT USE**                                                                             06  150                                
PGRFAMCHA001101141800144050002250Out of the Box                                    Day at the Beach                                                     60686110                                
ID FAMCHA001101144050144100000010Generic ID - Hula Hoop                                                                                                  06  150                                
PRCFAMCHA001101144100144135000035Little Lulu (AUG2000) - Tonight @ 6pm                                                                                  106  150                                
PROFAMCHA001101144135144205000030Buzz Lightyear - Today @ 5:30pm                                                                                         06  150                                
PROFAMCHA001101144205144235000030New Adventures of WTP (MARCH2001) - Weekdays @ 7:3                                                                      06  150                                
PRCFAMCHA001101144235144245000010Morning Block menu background (flex time)                                                                               06  150                                
ID FAMCHA001101144245144300000015Afternoon block pinball open **DO NOT USE**                                                                             06  150                                
PROFAMCHA001101144300144305000005CC Disclaimer (oct) **DO NOT USE**                                                                                      06  150                                
PGRFAMCHA001101144305150723002418Billy The Cat                                     Pigeon Pie                                                    B27640A1065607ECC                              
ID FAMCHA001101150723150733000010Generic ID - confetti                                                                                                   06  150                                
PROFAMCHA001101150733150803000030Disney's One, Too - Today @ 4pm                                                                                         06  150                                
PRCFAMCHA001101150803150839000036Goof Troop (MARCH2001) - Coming Up                                                                                      06  150                                
PROFAMCHA001101150839150909000030Lion King (AUG2000) - Tonight @ 6:30pm                                                                                 206  150                                
PROFAMCHA001101150909150939000030Oh Heavenly Dog (NOV3) - Friday @ 9pm                                                                                   06  150                                
PRCFAMCHA001101150939150950000011Morning Block menu background (flex time)                                                                               06  150                                
ID FAMCHA001101150950151000000010xxMagic of Disney - V4 - TEEN MALE                                                                                      06  150                                
PROFAMCHA001101151000151005000005CC Disclaimer (oct) **DO NOT USE**                                                                                      06  150                                
PGRFAMCHA001101151005153259002254Goof Troop                                        Peg O' The Jungle                                                    6068607ECC                              
ID FAMCHA001101153259153309000010Generic ID - Family w/dog                                                                                               06  150                                
PROFAMCHA0011011533091533390000302 Hour Tour - Enrique (NOV05) - Sunday @ 7:30pm                                                                         02  150                                
PROFAMCHA001101153339153409000030Disney's One, Too - Today @ 4pm                                                                                         06  150                                
PROFAMCHA001101153409153439000030Lion King (AUG2000) - Tonight @ 6:30pm                                                                                 206  150                                
PRCFAMCHA001101153439153450000011Morning Block menu background (flex time)                                                                               06  150                                
ID FAMCHA001101153450153500000010xxMagic of Disney - V2(sky) - TEEN FEMALE                                                                               06  150                                
PROFAMCHA001101153500153505000005CC Disclaimer (oct) **DO NOT USE**                                                                                      06  150                                
PGRFAMCHA001101153505155742002237Disney's Aladdin                                  Scare Necessities                                                    6068607ECC                              
ID FAMCHA001101155742155749000007Generic ID - Whisper*                                                                                                   06  150                                
PROFAMCHA001101155749155816000027Lionheart - Saturday @ 9pm                                                                                              06  150                                
PROFAMCHA001101155816155846000030Disney's One, Too - Coming Up                                                                                           06  150                                
PROFAMCHA001101155846155910000024ALF - Tonight @ 7:30pm                                                                                                  06  150                                
PROFAMCHA0011011559101559400000302 Hour Tour - Enrique (NOV05) - Sunday @ 7:30pm                                                                         06  150                                
PRCFAMCHA001101155940155950000010Morning Block menu background (flex time)                                                                               06  150                                
ID FAMCHA001101155950160000000010xxMagic of Disney - V3(water) - TEEN MALE                                                                               06  150                                
PROFAMCHA001101160000160030000030Disney's One Too - Opening                                                                                              06  150                                
PGRFAMCHA001101160030162257002227Disney's Doug                                     Quailman VS the Quizzler                                             6068607E                                
ID FAMCHA001101162257162302000005Generic ID - Fingerpaint                                                                                                06  150                                
PROFAMCHA001101162302162353000051Smart House - Sunday @ 12pm                                                                                             06  150                                
PROFAMCHA001101162353162423000030Pepper Ann (MARCH2001) - Coming Up                                                                                      06  150                                
PROFAMCHA001101162423162508000045New Web Site Promo                                                                                                      06  150                                
INTFAMCHA001101162508162841000333MV Disney - Reflection (CHRISTINA AGUILERA)                                                                            60688120                                
PROFAMCHA001101162841162905000024ALF - Tonight @ 7:30pm                                                                                                  06  150                                
PROFAMCHA0011011629051629350000302 Hour Tour - Enrique (NOV05) - Sunday @ 7:30pm                                                                         06  150                                
PRCFAMCHA001101162935162945000010Morning Block menu background (flex time)                                                                               06  150                                
ID FAMCHA001101162945163000000015Afternoon block pinball open **DO NOT USE**                                                                             06  150                                
PROFAMCHA001101163000163030000030Disney's One Too - Opening                                                                                              06  150                                
PROFAMCHA001101163030163035000005CC Disclaimer (oct) **DO NOT USE**                                                                                      06  150                                
PGRFAMCHA001101163035165322002247Disney's Pepper Ann                               Radio Freak Hazelnut/Framed                                          6068607ECC                              
ID FAMCHA001101165322165332000010Generic ID - Hula Hoop                                                                                                  06  150                                
PROFAMCHA0011011653321654020000302 Hour Tour - Enrique (NOV05) - Sunday @ 7:30pm                                                                         06  150                                
PROFAMCHA001101165402165423000021Recess (MARCH2001) - Coming Up                                                                                          06  150                                
PROFAMCHA001101165423165508000045New Web Site Promo                                                                                                      06  150                                
PRCFAMCHA001101165508165542000034Hoze Houndz (MARCH2001) - Weekends @ 7:00pm                                                                             06  150                                
INTFAMCHA001101165542165603000021Recess Sketches - Bad Weather                                                                                          60686120                                
PROFAMCHA001101165603165627000024ALF - Tonight @ 7:30pm                                                                                                  06  150                                
INTFAMCHA001101165627165648000021Recess Sketches - Mickey's World Record - Midget L                                                                     60686120                                
INTFAMCHA001101165648165833000145Disney Circle Time - My Shadow (anywhere but D12)                                                                      60688120                                
INTFAMCHA001101165833165854000021Recess Sketches - The Word - Cheer Up                                                                                  60686120                                
PROFAMCHA001101165854165945000051Smart House - Sunday @ 12pm                                                                                             06  150                                
ID FAMCHA001101165945170000000015Afternoon block pinball open **DO NOT USE**                                                                             06  150                                
PROFAMCHA001101170000170030000030Disney's One Too - Opening                                                                                              06  150                                
PGRFAMCHA001101170030172303002233Disney's Recess                                   The Break In/ The New Kid                                            6068607E                                
ID FAMCHA001101172303172313000010Generic ID - confetti                                                                                                   06  150                                
PROFAMCHA001101172313172340000027Lionheart - Saturday @ 9pm                                                                                              06  150                                
PROFAMCHA001101172340172410000030Buzz Lightyear - Coming Up                                                                                              06  150                                
PROFAMCHA001101172410172455000045New Web Site Promo                                                                                                      06  150                                
INTFAMCHA001101172455172806000311Art Attack - Boys Playing Basketball                                                                                   60686120                                
PROFAMCHA001101172806172836000030Jersey - Saturday @ 8pm                                                                                                 06  150                                
PROFAMCHA001101172836172904000028Honey (MARCH2001) - Tonight @ 8pm                                                                                       06  150                                
PROFAMCHA0011011729041729340000302 Hour Tour - Enrique (NOV05) - Sunday @ 7:30pm                                                                         06  150                                
PRCFAMCHA001101172934172945000011Morning Block menu background (flex time)                                                                               06  150                                
ID FAMCHA001101172945173000000015Afternoon block pinball open **DO NOT USE**                                                                             06  150                                
PROFAMCHA001101173000173030000030Disney's One Too - Opening                                                                                              06  150                                
PROFAMCHA001101173030173035000005CC Disclaimer (oct) **DO NOT USE**                                                                                      06  150                                
PGRFAMCHA001101173035175318002243Disney/Pixar's Buzz Lightyear of Star Command     XL                                                                   6028607ECC                              
ID FAMCHA001101175318175323000005Generic ID - Marbles                                                                                                    06  150                                
PROFAMCHA001101175323175414000051Smart House - Sunday @ 12pm                                                                                             06  150                                
PRCFAMCHA001101175414175449000035Little Lulu (AUG2000) - Coming Up                                                                                      106  150                                
PROFAMCHA001101175449175534000045New Web Site Promo                                                                                                      06  150                                
INTFAMCHA001101175534175841000307MV Disney - Part Of Your World (JODI BENSON)                                                                           60688120                                
PROFAMCHA001101175841175905000024ALF - Tonight @ 7:30pm                                                                                                  06  150                                
PROFAMCHA0011011759051759350000302 Hour Tour - Enrique (NOV05) - Sunday @ 7:30pm                                                                         06  150                                
PRCFAMCHA001101175935175945000010Morning Block menu background (flex time)                                                                               06  150                                
ID FAMCHA001101175945180000000015Afternoon block pinball open **DO NOT USE**                                                                             06  150                                
PROFAMCHA001101180000180005000005CC Disclaimer (oct) **DO NOT USE**                                                                                      06  150                                
PGRFAMCHA001101180005182336002331Little Lulu Show; The                             No Pain, No Gain/Tragic Magic                                 A20193A1055607ECC3                             
ID FAMCHA001101182336182346000010Generic ID - soccer **DO NOT USE**                                                                                      06  150                                
PROFAMCHA001101182346182437000051Smart House - Sunday @ 12pm                                                                                             06  150                                
PROFAMCHA001101182437182507000030Lion King (MARCH2001) - Coming Up                                                                                      206  150                                
PROFAMCHA001101182507182552000045New Web Site Promo                                                                                                      06  150                                
INTFAMCHA001101182552182826000234MV Disney - The Lion Sleeps Tonight (TIMON & PUMBA                                                                     60688120                                
ID FAMCHA001101182826182833000007URL(1) - FUNSTUFF                                                                                                       06  150                                
PRCFAMCHA001101182833182913000040Famous Jett Jackson - Weekends @ 9:30am                                                                                106  150                                
PROFAMCHA001101182913182940000027Lionheart - Saturday @ 9pm                                                                                              06  150                                
PRCFAMCHA001101182940182950000010Morning Block menu background (flex time)                                                                               06  150                                
ID FAMCHA001101182950183000000010xxMagic of Disney - V2(sky) - TEEN FEMALE                                                                               06  150                                
PGRFAMCHA001101183000185245002245Lion King's Timon & Pumbaa; The                   Pig-Malion/Why No Rhino                                              6068607E                                
ID FAMCHA001101185245185255000010Generic ID - Bubbles                                                                                                    06  150                                
PROFAMCHA001101185255185325000030Oh Heavenly Dog (NOV3) - Friday @ 9pm                                                                                   06  150                                
PRCFAMCHA001101185325185406000041Gargoyles (AUG2000) - Coming Up                                                                                         06  150                                
PROFAMCHA001101185406185451000045New Web Site Promo                                                                                                      06  150                                
INTFAMCHA001101185451185839000348Art Attack - Pirate Treasure Chest                                                                                     60686120                                
PROFAMCHA001101185839185903000024ALF - Tonight @ 7:30pm                                                                                                  06  150                                
PROFAMCHA001101185903185930000027Lionheart - Saturday @ 9pm                                                                                              06  150                                
PRCFAMCHA001101185930185939000009Morning Block menu background (flex time)                                                                               06  150                                
ID FAMCHA001101185939190000000021Prime time open count down                                                                                              06  150                                
PGRFAMCHA001101190000192249002249Gargoyles                                         The Cage                                                             6068607E                                
ID FAMCHA001101192249192256000007Generic ID - Whisper*                                                                                                   06  150                                
PROFAMCHA0011011922561923260000302 Hour Tour - Enrique (NOV05) - Sunday @ 7:30pm                                                                         06  150                                
PROFAMCHA001101192326192350000024ALF - Coming Up                                                                                                         06  150                                
PROFAMCHA001101192350192435000045New Web Site Promo                                                                                                      06  150                                
INTFAMCHA001101192435192809000334MV Disney - Forever And Ever (KATHIE LEE GIFFORD)                                                                      60688120                                
PROFAMCHA001101192809192837000028Honey (MARCH2001) - Tonight @ 8pm                                                                                       06  150                                
PROFAMCHA001101192837192928000051Smart House - Sunday @ 12pm                                                                                             06  150                                
PRCFAMCHA001101192928192939000011Morning Block menu background (flex time)                                                                               06  150                                
ID FAMCHA001101192939193000000021Prime time open count down                                                                                              06  150                                
PGRFAMCHA001101193000195130002130ALF                                                                                                                   A2068807B                                
ID FAMCHA001101195130195140000010Generic ID - confetti                                                                                                   06  150                                
PROFAMCHA001101195140195210000030Oh Heavenly Dog (NOV3) - Friday @ 9pm                                                                                   06  150                                
PROFAMCHA001101195210195238000028Honey (MARCH2001) - Coming Up                                                                                           06  150                                
PROFAMCHA001101195238195308000030Z Games - Weekends @ 10am                                                                                               06  150                                
INTFAMCHA001101195308195758000450MV Disney - Circle of Life (ELTON JOHN)                                                                                60688120                                
PRCFAMCHA001101195758195838000040Famous Jett Jackson - Weekends @ 9:30am                                                                                106  150                                
PRCFAMCHA001101195838195908000030Are You Afraid of the Dark?(AUG)- Tonight @ 12:30a                                                                      06  150                                
PROFAMCHA0011011959081959380000302 Hour Tour - Enrique (NOV05) - Sunday @ 7:30pm                                                                         06  150                                
PRCFAMCHA001101195938195950000012Morning Block menu background (flex time)                                                                               06  150                                
ID FAMCHA001101195950200000000010xxMagic of Disney - V3(water) - ADULT FEMALE                                                                            06  150                                
PGRFAMCHA001101200000204243004243Disney's Honey, I Shrunk The Kids: The TV Show    I'm Wrestling with a Problem and the Chief                           6068807B                                
ID FAMCHA001101204243204258000015Generic ID - confetti                                                                                                   06  150                                
PROFAMCHA001101204258204328000030Oh Heavenly Dog (NOV3) - Friday @ 9pm                                                                                   06  150                                
PRCFAMCHA001101204328204358000030Are You Afraid of the Dark?(AUG)- Tonight @ 12:30a                                                                      06  150                                
PROFAMCHA001101204358204408000010MV FAMJAM - Teaser (Nobody's Angel)                                                                                    606 5150                                
PROFAMCHA001101204408204445000037So Weird (EARTH101) - Sunday @ 8pm                                                                                      06  150                                
INTFAMCHA001101204445204803000318MV Disney - If You Wanna Dance (NOBODY'S ANGEL)                                                                        60688120                                
PROFAMCHA001101204803204848000045New Web Site Promo                                                                                                      06  150                                
PRCFAMCHA001101204848204928000040Famous Jett Jackson - Weekends @ 9:30am                                                                                106  150                                
PROFAMCHA001101204928205019000051Smart House - Sunday @ 12pm                                                                                             06  150                                
INTFAMCHA00110120501920511900010060 Seconds of Science - Simple Machines (anywhere                                                                      60688120                                
PROFAMCHA001101205119205134000015Doug (MARCH2001) - Weekdays @ 4pm                                                                                       06  150                                
INTFAMCHA00110120513420523400010060 Seconds of Science - Adhesives (anywhere but D1                                                                     60688120                                
PROFAMCHA001101205234205304000030Z Games - Weekends @ 10am                                                                                               06  150                                
PROFAMCHA001101205304205314000010MV FAMJAM - Teaser (Generic)                                                                                           606 5150                                
PROFAMCHA001101205314205344000030Your Big Break - Sunday @ 11am                                                                                          06  150                                
INTFAMCHA001101205344205731000347MV - Rhythm Divine                                                                                                    A20688120                                
PROFAMCHA0011012057312058010000302 Hour Tour - Enrique (NOV05) - Sunday @ 7:30pm                                                                         06  150                                
PROFAMCHA001101205801205831000030So Weird (EDDIE'S DESK) - Sunday @ 8pm                                                                                  06  150                                
PROFAMCHA001101205831205901000030Jersey - Weekends @ 9am                                                                                                 06  150                                
PROFAMCHA001101205901205928000027Lionheart - Saturday @ 9pm                                                                                              06  150                                
PRCFAMCHA001101205928205939000011Morning Block menu background (flex time)                                                                               06  150                                
ID FAMCHA001101205939210000000021Move open family size movie                                                                                             06  150                                
PROFAMCHA001101210000210007000007Rating - PG (oct)                                                                                                       06  150                                
PGRFAMCHA001101210007224017014010Spaced Invaders                                                                                                       B6068807C                                
ID FAMCHA001101224017224022000005Generic ID - Couch 1*                                                                                                   06  150                                
ID FAMCHA001101224022224043000021Move open family size movie                                                                                             06  150                                
PROFAMCHA001101224043224050000007Rating - G (oct )                                                                                                       06  150                                
PROFAMCHA001101224050224055000005CC Disclaimer (oct) **DO NOT USE**                                                                                      06  150                                
ID FAMCHA001101224055224105000010xxMagic of Disney - V4 - ADULT MALE                                                                                     06  150                                
PGRFAMCHA001101224105000731012626Noah                                                                                                                  A6068807CCC                              
ID FAMCHA001101000731000736000005Generic ID - Fingerpaint                                                                                                06  150                                
PGRFAMCHA001101000736002906002130ALF                                                                                                                   A2068807B                                
ID FAMCHA001101002906002911000005Generic ID - Bubbles*                                                                                                   06  150                                
PRCFAMCHA001101002911002941000030Are You Afraid of the Dark?(AUG)- Coming Up                                                                             06  150                                
ID FAMCHA001101002941002950000009URL(1) - CONTESTS                                                                                                       06  150                                
ID FAMCHA001101002950003000000010Prime time open top of hour                                                                                             06  150                                
PGRFAMCHA001101003000005434002434Are You Afraid Of The Dark?                       The Tale of the Unfinished Painting                           SR0305 1066807A                                
ID FAMCHA001101005434005444000010Generic ID - Pink inner tube                                                                                            06  150                                
PROFAMCHA0011010054440055140000302 Hour Tour - Enrique (NOV05) - Sunday @ 7:30pm                                                                         06  150                                
PROFAMCHA001101005514005544000030Lion King (AUG2000) - Weekdays @ 6:30pm                                                                                206  150                                
PROFAMCHA001101005544005614000030Oh Heavenly Dog (NOV3) - Friday @ 9pm                                                                                   06  150                                
INTFAMCHA001101005614010051000437MV Disney - Go The Distance (MICHAEL BOLTON)                                                                           60688120                                
INTFAMCHA001101010051010200000109Monkey Minutes - Dinner And A Movie                                                                                   A20688120                                
SO FAMCHA001101010200010212000012Sign Off (oct 1)                                                                                                        06                                     
OFFFAMCHA001101010212043000032748                                                                                                                                                               
SO FAMCHA001102043000043011000011Sign On (oct 1)                                                                                                         06                                     
PROFAMCHA001102043011043016000005CC Disclaimer (oct) **DO NOT USE**                                                                                      06  150                                
PGRFAMCHA001102043016045416002400Hello Mrs. Cherrywinkle                           Wet Paint                                                     C14683A1065607ACC                              
ID FAMCHA001102045416045426000010Generic ID - Bubbles                                                                                                    06  150                                
PROFAMCHA001102045426045441000015Doug (MARCH2001) - Today @ 4pm                                                                                          06  150                                
ID FAMCHA001102045441045501000020Morning block open play pen                                                                                             06  150                                
PROFAMCHA001102045501045506000005CC Disclaimer (oct) **DO NOT USE**                                                                                      06  150                                
PGRFAMCHA001102045506051915002409Busy World Of Richard Scarry; The                 Perfect Gentlemen/Best Painter/Best Day For Dennis            P24311A1065607ECC                              
ID FAMCHA001102051915051920000005Generic ID - Bubbles*                                                                                                   06  150                                
PROFAMCHA001102051920051941000021Recess (MARCH2001) - Today @ 5pm                                                                                        06  150                                
ID FAMCHA001102051941052001000020Morning block open play pen                                                                                             06  150                                
PROFAMCHA001102052001052006000005CC Disclaimer (oct) **DO NOT USE**                                                                                      06  150                                
PGRFAMCHA001102052006054405002359Amazing Animals                                   Slimy Animals                                                        60686110CC                              
ID FAMCHA001102054405054415000010Generic ID - confetti                                                                                                   06  150                                
PRCFAMCHA001102054415054445000030Franklin (MARCH2001) - Today @ 7am                                                                                     106  150                                
PROFAMCHA001102054445054500000015Doug (MARCH2001) - Today @ 4pm                                                                                          06  150                                
PROFAMCHA001102054500054530000030New Adventures of WTP (MARCH2001) - Today @ 7:30am                                                                      06  150                                
PRCFAMCHA001102054530054540000010Morning Block menu background (flex time)                                                                               06  150                                
ID FAMCHA001102054540054600000020Morning block open play pen                                                                                             06  150                                
PROFAMCHA001102054600054605000005CC Disclaimer (oct) **DO NOT USE**                                                                                      06  150                                
PGRFAMCHA001102054605061023002418Billy The Cat                                     Sewer Cats                                                    B27641A1065607ECC                              
ID FAMCHA001102061023061033000010Generic ID - confetti                                                                                                   06  150                                
ID FAMCHA001102061033061040000007URL(1) - FUNSTUFF                                                                                                       06  150                                
ID FAMCHA001102061040061100000020Morning block open play pen                                                                                             06  150                                
PROFAMCHA001102061100061105000005CC Disclaimer (oct) **DO NOT USE**                                                                                      06  150                                
PGRFAMCHA001102061105063436002331Little Lulu Show; The                             Iggy and the Ice Cream Factory, Game Show Gaffe, A            A20198A1055607ECC3                             
ID FAMCHA001102063436063441000005Generic ID - Couch 1*                                                                                                   06  150                                
PROFAMCHA001102063441063511000030New Adventures of WTP (MARCH2001) - Today @ 7:30am                                                                      06  150                                
PRCFAMCHA001102063511063541000030Franklin (MARCH2001) - Today @ 7am                                                                                     106  150                                
ID FAMCHA001102063541063601000020Morning block open play pen                                                                                             06  150                                
PROFAMCHA001102063601063606000005CC Disclaimer (oct) **DO NOT USE**                                                                                      06  150                                
PGRFAMCHA001102063606070006002400Big Garage; The                                   Boo! Who?                                                     P21458 1065607ECC                              
ID FAMCHA001102070006070011000005Generic ID - Couch 2*                                                                                                   06  150                                
PROFAMCHA001102070011070016000005CC Disclaimer (oct) **DO NOT USE**                                                                                      06  150                                
PGRFAMCHA001102070016072309002253Franklin                                          Fearless/Lucky Charm                                          A38157A1065607ECC                              
ID FAMCHA001102072309072314000005Generic ID - soccer **DO NOT USE**                                                                                      06  150                                
PRCFAMCHA001102072314072349000035Little Lulu (AUG2000) - Tonight @ 6pm                                                                                  106  150                                
PROFAMCHA001102072349072419000030New Adventures of WTP (MARCH2001) - Coming Up                                                                           06  150                                
INTFAMCHA001102072419072909000450MV Disney - Circle of Life (ELTON JOHN)                                                                                60688120                                
PRCFAMCHA001102072909072939000030Madeline (AUG2000) - Weekends @ 6:36am                                                                                 106  150                                
PRCFAMCHA001102072939072950000011Morning Block menu background (flex time)                                                                               06  150                                
ID FAMCHA001102072950073000000010xxMagic of Disney - V2(sky) - KID FEMALE                                                                                06  150                                
PROFAMCHA001102073000073005000005CC Disclaimer (oct) **DO NOT USE**                                                                                      06  150                                
PGRFAMCHA001102073005075242002237New Adventures of Winnie the Pooh; The            Grown, But Not Forgotten                                             6068607ECC                              
ID FAMCHA001102075242075247000005Generic ID - Fingerpaint                                                                                                06  150                                
PROFAMCHA001102075247075332000045PB&J Otter (MARCH2001) - Weekends @ 5pm                                                                                206  150                                
PRCFAMCHA001102075332075407000035Little Lulu (AUG2000) - Tonight @ 6pm                                                                                  106  150                                
INTFAMCHA001102075407075830000423Art Attack - Swimmer                                                                                                   60686120                                
PRCFAMCHA001102075830075900000030Out of the Box (AUG2000) - Today @ 10:18am                                                                             106  150                                
PRCFAMCHA001102075900075930000030Madeline (AUG2000) - Weekends @ 6:36am                                                                                 106  150                                
PRCFAMCHA001102075930075940000010Morning Block menu background (flex time)                                                                               06  150                                
ID FAMCHA001102075940080000000020Morning block open play pen                                                                                             06  150                                
PGRFAMCHA001102080000082006002006Art Attack                                        1-104                                                                60686110                                
ID FAMCHA001102082006082016000010Generic ID - Hula Hoop                                                                                                  06  150                                
PRCFAMCHA001102082016082046000030Out of the Box (AUG2000) - Today @ 10:18am                                                                             106  150                                
PGRFAMCHA001102082046082905000819Mpt-Drip Dippy Donald                                                                                                  60688150                                
PRCFAMCHA001102082905082941000036Goof Troop (MARCH2001) - Weekends @ 4pm                                                                                 06  150                                
PRCFAMCHA001102082941082950000009Morning Block menu background (flex time)                                                                               06  150                                
ID FAMCHA001102082950083000000010xxMagic of Disney - V2(sky) - KID MALE                                                                                  06  150                                
PROFAMCHA001102083000083005000005CC Disclaimer (oct) **DO NOT USE**                                                                                      06  150                                
PGRFAMCHA001102083005085307002302Disney Presents Bill Nye the Science Guy          Pseudoscience                                                        60686110CC                              
ID FAMCHA001102085307085312000005Generic ID - Marbles                                                                                                    06  150                                
PRCFAMCHA001102085312085348000036Goof Troop (MARCH2001) - Weekends @ 4pm                                                                                 06  150                                
PROFAMCHA001102085348085433000045PB&J Otter (MARCH2001) - Coming Up                                                                                     206  150                                
INTFAMCHA001102085433085907000434MV Disney - A Dream Is A Wish Your Heart Makes (LI                                                                     60688120                                
PROFAMCHA001102085907085931000024ALF - Today @ Noon                                                                                                      06  150                                
PRCFAMCHA001102085931085940000009Morning Block menu background (flex time)                                                                               06  150                                
ID FAMCHA001102085940090000000020Morning block open play pen                                                                                             06  150                                
PROFAMCHA001102090000090005000005CC Disclaimer (oct) **DO NOT USE**                                                                                      06  150                                
PGRFAMCHA001102090005092335002330PB&J Otter                                        I'll be your Best Friend/Otterly Alone                              A6068607ECC                              
ID FAMCHA001102092335092345000010Generic ID - Pink inner tube                                                                                            06  150                                
PROFAMCHA001102092345092415000030Buzz Lightyear - Today @ 5:30pm                                                                                         06  150                                
PROFAMCHA001102092415092430000015Doug (MARCH2001) - Today @ 4pm                                                                                          06  150                                
PRCFAMCHA001102092430092440000010Morning Block menu background (flex time)                                                                               06  150                                
ID FAMCHA001102092440092500000020Morning block open play pen                                                                                             06  150                                
PROFAMCHA001102092500092505000005CC Disclaimer (oct) **DO NOT USE**                                                                                      06  150                                
PGRFAMCHA001102092505094915002410Busy World Of Richard Scarry; The                 Trip Back/Home Sweet Home/P.S. Pig's Special Frien            P24312A1065607ECC                              
ID FAMCHA001102094915094925000010Generic ID - Ring around the rosie                                                                                      06  150                                
PROFAMCHA001102094925094949000024ALF - Today @ Noon                                                                                                      06  150                                
PRCFAMCHA001102094949095019000030Madeline (AUG2000) - Coming Up                                                                                         106  150                                
INTFAMCHA001102095019095202000143MV Disney - Siamese Cat Song                                                                                           60688120                                
PRCFAMCHA001102095202095232000030Franklin (MARCH2001) - Today @ 12:30pm                                                                                 106  150                                
PRCFAMCHA001102095232095240000008Morning Block menu background (flex time)                                                                               06  150                                
ID FAMCHA001102095240095300000020Morning block open play pen                                                                                             06  150                                
PROFAMCHA001102095300095305000005CC Disclaimer (oct) **DO NOT USE**                                                                                      06  150                                
PGRFAMCHA001102095305101606002301Madeline                                          Madeline on the Orient Express                                       6068607ECC                              
ID FAMCHA001102101606101616000010Generic ID - soccer **DO NOT USE**                                                                                      06  150                                
PRCFAMCHA001102101616101646000030Franklin (MARCH2001) - Today @ 12:30pm                                                                                 106  150                                
PRCFAMCHA001102101646101716000030Out of the Box (AUG2000) - Coming Up                                                                                   106  150                                
PROFAMCHA001102101716101740000024ALF - Today @ Noon                                                                                                      06  150                                
ID FAMCHA001102101740101800000020Morning block open play pen                                                                                             06  150                                
PGRFAMCHA001102101800104005002205Out of the Box                                    A Place Called Space                                                 60686110                                
ID FAMCHA001102104005104010000005Generic ID - soccer **DO NOT USE**                                                                                      06  150                                
PRCFAMCHA001102104010104046000036Goof Troop (MARCH2001) - Weekends @ 4pm                                                                                 06  150                                
INTFAMCHA001102104046104216000130Big Garage, "stop" - Breaking All The Rules                                                                     P21457 10656120                                
PROFAMCHA001102104216104240000024ALF - Today @ Noon                                                                                                      06  150                                
ID FAMCHA001102104240104300000020Morning block open play pen                                                                                             06  150                                
PROFAMCHA001102104300104305000005CC Disclaimer (oct) **DO NOT USE**                                                                                      06  150                                
PGRFAMCHA001102104305110721002416Billy The Cat                                     The Rescue                                                    B27642A1065607ECC                              
ID FAMCHA001102110721110728000007Generic ID - Whisper*                                                                                                   06  150                                
PROFAMCHA001102110728110752000024ALF - Today @ Noon                                                                                                      06  150                                
PRCFAMCHA001102110752110828000036Goof Troop (MARCH2001) - Coming Up                                                                                      06  150                                
INTFAMCHA001102110828110921000053Bill Nye - Friction Happens                                                                                            60688120                                
PRCFAMCHA001102110921110951000030Franklin (MARCH2001) - Today @ 12:30pm                                                                                 106  150                                
ID FAMCHA001102110951111001000010xxMagic of Disney - V3(water) - KID FEMALE                                                                              06  150                                
PROFAMCHA001102111001111006000005CC Disclaimer (oct) **DO NOT USE**                                                                                      06  150                                
PGRFAMCHA001102111006113253002247Goof Troop                                        Partners In Grime                                                    6068607ECC                              
ID FAMCHA001102113253113303000010Generic ID - Bubbles                                                                                                    06  150                                
PRCFAMCHA001102113303113333000030Franklin (MARCH2001) - Today @ 12:30pm                                                                                 106  150                                
PROFAMCHA001102113333113354000021Recess (MARCH2001) - Today @ 5pm                                                                                        06  150                                
PROFAMCHA001102113354113439000045PB&J Otter (MARCH2001) - Weekends @ 5pm                                                                                206  150                                
PRCFAMCHA001102113439113450000011Morning Block menu background (flex time)                                                                               06  150                                
ID FAMCHA001102113450113500000010xxMagic of Disney - V3(water) - KID MALE                                                                                06  150                                
PROFAMCHA001102113500113505000005CC Disclaimer (oct) **DO NOT USE**                                                                                      06  150                                
PGRFAMCHA001102113505115744002239Disney's Aladdin                                  Black Sand                                                           6068607ECC                              
ID FAMCHA001102115744115754000010Generic ID - Hula Hoop                                                                                                  06  150                                
PROFAMCHA001102115754115839000045PB&J Otter (MARCH2001) - Weekends @ 5pm                                                                                206  150                                
PROFAMCHA001102115839115903000024ALF - Coming Up                                                                                                         06  150                                
ID FAMCHA001102115903115910000007URL(1) - WHAT'S ON                                                                                                      06  150                                
PRCFAMCHA001102115910115940000030Madeline (AUG2000) - Weekends @ 6:36am                                                                                 106  150                                
PRCFAMCHA001102115940115950000010Morning Block menu background (flex time)                                                                               06  150                                
ID FAMCHA001102115950120005000015Afternoon block pinball open **DO NOT USE**                                                                             06  150                                
PGRFAMCHA001102120005122133002128ALF                                               Don't It Make My Brown Eyes Blue                                    A2068807B                                
ID FAMCHA001102122133122148000015Generic ID - confetti                                                                                                   06  150                                
PRCFAMCHA001102122148122218000030Madeline (AUG2000) - Weekends @ 6:36am                                                                                 106  150                                
PRCFAMCHA001102122218122248000030Franklin (MARCH2001) - Coming Up                                                                                       106  150                                
INTFAMCHA001102122248122345000057Frankenguy and the Professor - pilot                                                                                   60688120                                
INTFAMCHA001102122345122819000434MV Disney - A Dream Is A Wish Your Heart Makes (LI                                                                     60688120                                
PROFAMCHA001102122819122904000045New Web Site Promo                                                                                                      06  150                                
PRCFAMCHA001102122904122934000030Out of the Box (AUG2000) - Today @ 2:18pm                                                                              106  150                                
PRCFAMCHA001102122934122945000011Morning Block menu background (flex time)                                                                               06  150                                
ID FAMCHA001102122945123000000015Afternoon block pinball open **DO NOT USE**                                                                             06  150                                
PROFAMCHA001102123000123005000005CC Disclaimer (oct) **DO NOT USE**                                                                                      06  150                                
PGRFAMCHA001102123005125258002253Franklin                                          Franklin and the Trooper/Franklin's Fossil                    P02772A1065607ECC                              
ID FAMCHA001102125258125308000010Generic ID - confetti                                                                                                   06  150                                
PRCFAMCHA001102125308125338000030Out of the Box (AUG2000) - Today @ 2:18pm                                                                              106  150                                
PROFAMCHA001102125338125423000045PB&J Otter (MARCH2001) - Coming Up                                                                                     206  150                                
INTFAMCHA001102125423125900000437MV Disney - Go The Distance (MICHAEL BOLTON)                                                                           60688120                                
PRCFAMCHA001102125900125936000036Goof Troop (MARCH2001) - Weekends @ 4pm                                                                                 06  150                                
PRCFAMCHA001102125936125945000009Morning Block menu background (flex time)                                                                               06  150                                
ID FAMCHA001102125945130000000015Afternoon block pinball open **DO NOT USE**                                                                             06  150                                
PROFAMCHA001102130000130005000005CC Disclaimer (oct) **DO NOT USE**                                                                                      06  150                                
PGRFAMCHA001102130005132335002330PB&J Otter                                        Lemon-Itis/Duckbird Alert                                           A6068607ECC                              
ID FAMCHA001102132335132340000005Generic ID - Couch 1*                                                                                                   06  150                                
PRCFAMCHA001102132340132415000035Little Lulu (AUG2000) - Tonight @ 6pm                                                                                  106  150                                
PROFAMCHA001102132415132445000030Mickey Mouseworks - Weekends @ 4:30pm                                                                                   06  150                                
ID FAMCHA001102132445132500000015Afternoon block pinball open **DO NOT USE**                                                                             06  150                                
PROFAMCHA001102132500132505000005CC Disclaimer (oct) **DO NOT USE**                                                                                      06  150                                
PGRFAMCHA001102132505134915002410Busy World Of Richard Scarry; The                 Mr. Fixit's Magnet/Sneef And Sniff/Mr. Gronkle                P24313 1065607ECC                              
ID FAMCHA001102134915134925000010Generic ID - Hula Hoop                                                                                                  06  150                                
PRCFAMCHA001102134925135001000036Goof Troop (MARCH2001) - Weekends @ 4pm                                                                                 06  150                                
PRCFAMCHA001102135001135031000030Madeline (AUG2000) - Coming Up                                                                                         106  150                                
INTFAMCHA001102135031135230000159Disney Moments-Fun And Fancy Free-Jack And The Bea                                                                     60688120                                
PROFAMCHA001102135230135245000015Doug (MARCH2001) - Today @ 4pm                                                                                          06  150                                
ID FAMCHA001102135245135300000015Afternoon block pinball open **DO NOT USE**                                                                             06  150                                
PROFAMCHA001102135300135305000005CC Disclaimer (oct) **DO NOT USE**                                                                                      06  150                                
PGRFAMCHA001102135305141600002255Madeline                                          Madeline and the Dinosaur Bone                                       6068607ECC                              
ID FAMCHA001102141600141610000010Generic ID - Family w/dog                                                                                               06  150                                
PROFAMCHA001102141610141625000015Doug (MARCH2001) - Today @ 4pm                                                                                          06  150                                
PRCFAMCHA001102141625141655000030Out of the Box (AUG2000) - Coming Up                                                                                   106  150                                
PROFAMCHA001102141655141716000021Recess (MARCH2001) - Today @ 5pm                                                                                        06  150                                
PROFAMCHA001102141716141746000030Pepper Ann (MARCH2001) - Today @ 4:30pm                                                                                 06  150                                
ID FAMCHA001102141746141801000015Afternoon block pinball open **DO NOT USE**                                                                             06  150                                
PGRFAMCHA001102141801144006002205Out of the Box                                    Box Full Of Boxes                                                    60686110                                
ID FAMCHA001102144006144011000005Generic ID - Fingerpaint                                                                                                06  150                                
PROFAMCHA001102144011144041000030Pepper Ann (MARCH2001) - Today @ 4:30pm                                                                                 06  150                                
INTFAMCHA001102144041144207000126Mix Ups - Birthday Befuddle                                                                                            60688120                                
PROFAMCHA001102144207144234000027Recess (MARCH2001) - Today @ 5pm                                                                                        06  150                                
PRCFAMCHA001102144234144245000011Morning Block menu background (flex time)                                                                               06  150                                
ID FAMCHA001102144245144300000015Afternoon block pinball open **DO NOT USE**                                                                             06  150                                
PROFAMCHA001102144300144305000005CC Disclaimer (oct) **DO NOT USE**                                                                                      06  150                                
PGRFAMCHA001102144305150724002419Billy The Cat                                     The Big Meow                                                  B27643A1065607ECC                              
