SO FAMCHA070801043000043011000011Sign On (oct 1)                                                                                                                                                
PRCFAMCHA070801043011043020000009CC Disclaimer - FAST - Family.ca (:08-:10) $$$                                                                              150                                
PGRFAMCHA070801043020045658002638Katie And Orbie                                   EP: 4-044                                                     C19664A1065607ECC                              
PRCFAMCHA070801045658045713000015xxPH - 04 - FRANNY/SOMETHING/HOZE  (:14 - :16) (AP                                                                          150                                
ID FAMCHA070801045713045726000013PS Playhouse AM Block Open (:10-:15) $$$                                                                                    150                                
PRCFAMCHA070801045726045735000009CC Disclaimer - FAST - Generic (:08-:10) $$$                                                                                150                                
PGRFAMCHA070801045735052005002230Franny's Feet                                     EPS # 16                                                      C23971 1065607ECC                              
PRCFAMCHA070801052005052010000005Astral ID (FEB05)                                                                                                           150                                
ID FAMCHA070801052010052023000013PS Playhouse AM Block Open (:10-:15) $$$                                                                                    150                                
PRCFAMCHA070801052023052032000009CC Disclaimer - FAST - Family.ca (:08-:10) $$$                                                                              150                                
PGRFAMCHA070801052032054303002231Something Else                                    EP: 1-011                                                     B69265A1065607ECC                              
ID FAMCHA070801054303054316000013PS Playhouse AM Block Open (:10-:15) $$$                                                                                    150                                
PRCFAMCHA070801054316054325000009CC Disclaimer - FAST - Generic (:08-:10) $$$                                                                                150                                
PGRFAMCHA070801054325060603002238Hoze Houndz                                       EPS # 6-067                                                   A64796A1065607ECC                              
PRCFAMCHA070801060603060608000005Astral ID (FEB05)                                                                                                           150                                
ID FAMCHA070801060608060621000013PS Playhouse AM Block Open (:10-:15) $$$                                                                                    150                                
PRCFAMCHA070801060621060630000009CC Disclaimer - FAST - Family.ca (:08-:10) $$$                                                                              150                                
PGRFAMCHA070801060630063030002400Henry's World                                     EP: 2-020                                                     B81051A1065607GCC                              
ID FAMCHA070801063030063043000013PS Playhouse AM Block Open (:10-:15) $$$                                                                                    150                                
PRCFAMCHA070801063043063052000009CC Disclaimer - FAST - Generic (:08-:10) $$$                                                                                150                                
PGRFAMCHA070801063052065322002230King                                              EP: 4-043                                                     C25350 1065607ECC                              
PRCFAMCHA070801065322065327000005Astral ID (FEB05)                                                                                                           150                                
PRCFAMCHA070801065327065343000016xxMMM - 01 (AM) - KIM/RECESS/WEEKENDERS (OCT05) (:                                                                          150                                
PROFAMCHA070801065343065359000016Kim Possible FINGER TAUNT (MMM) (July 06) Coming U                                                                          150                                
PROFAMCHA070801065359065436000037xxFamily Fest Phase 2 (July 30-Sept.2) $$$                                                                                  150                                
PROFAMCHA070801065436065445000009Family Bumpers - (Phase 3 Spring 05) - Hip Hop (MD                                                                          150                                
PRCFAMCHA070801065445065515000030Famous Players Popcorn Parties 2 (May 2-Jan 31/08)                                                                          150                                
PRCFAMCHA070801065515065532000017xxHSM 2 Movie Trailer - Premiers August 17 @ 8pm                                                                            150                                
PROFAMCHA070801065532065551000019MadMadMornings Block Open $$$                                                                                               150                                
PRCFAMCHA070801065551065600000009CC Disclaimer - FAST - Family.ca (:08-:10) $$$                                                                              150                                
PGRFAMCHA070801065600071851002251Disney's Kim Possible                             EPS # 1-023                                                         A6068607ECC                              
PRCFAMCHA070801071851071907000016xxMMM - 02 (AM) - RECESS/WEEKENDERS/LILO (OCT05) (                                                                          150                                
PGRFAMCHA070801071907071947000040xxSummer Chill Event Spot  REVISED (Till Aug 26)                                                                      A60688120                                
PROFAMCHA070801071947072032000045Recess - SNACKS FOR SNITCHES (MMM) - (MAY06) - Com                                                                          150                                
PROFAMCHA070801072032072102000030xxSuite Life Vol. 2 Blast - Available Aug 07 (July                                                                          150                                
PRCFAMCHA070801072102072247000145xxMS - Underdog - Tessa Interviews Cast - Coming S                                                                          150                                
PROFAMCHA070801072247072326000039Weekenders - (MMM) Alternate Universe - This Morni                                                                          150                                
PRCFAMCHA070801072326072341000015xxDC Games 2007 IDs - Sabrina Bryan - Saturday Aft                                                                          150                                
PROFAMCHA070801072341072400000019MadMadMornings Block Open $$$                                                                                               150                                
PGRFAMCHA070801072400074634002234Disney's Recess                                   EP: 1-002                                                            6068607E                                
PRCFAMCHA070801074634074639000005Astral ID (FEB05)                                                                                                           150                                
PRCFAMCHA070801074639074653000014xxPH - 09 - WEEKENDERS/LILO/EINSTEINS (:14 - :16)                                                                           150                                
PROFAMCHA070801074653074732000039Weekenders - (MMM) Alternate Universe - Coming Up                                                                           150                                
PROFAMCHA070801074732074802000030xxFirehouse Dog DVD - Available Now (July 31- Aug                                                                           150                                
PRCFAMCHA070801074802074832000030MMM You're Watching MMM (APR06)                                                                                             150                                
PRCFAMCHA070801074832074944000112xxGet'cha Head In The Game - Soccer Version 2                                                                               150                                
PROFAMCHA070801074944074953000009Family Bumpers - (Phase 1 Spring 04) - DJ Spinning                                                                          150                                
PROFAMCHA070801074953075030000037xxFamily Fest Phase 2 (July 30-Sept.2) $$$                                                                                  150                                
PRCFAMCHA070801075030075036000006xxDC Games 2007 IDs - Brenda Song                                                                                           150                                
PROFAMCHA070801075036075052000016xxSummer Chill Bumpers - HSM 2 Premieres Aug 17                                                                             150                                
PRCFAMCHA070801075052075101000009CC Disclaimer - FAST - Generic (:08-:10) $$$                                                                                150                                
PGRFAMCHA070801075101081355002254Disney's The Weekenders                           EP: 1-002                                                           A6068607ECC                              
PROFAMCHA070801081355081420000025xxLilo & Stitch (MMM) (APR06) CRAM - Coming up Nex                                                                          150                                
PGRFAMCHA070801081420081503000043xxSummer Chill Contest - Sing it All or Nothing (t                                                                    A60688120                                
PROFAMCHA070801081503081512000009Family Bumpers - (Phase 3 Spring 05) - Giant Food(                                                                          150                                
PRCFAMCHA070801081512081642000130xxMS - Underdog - Kyle Massey Music Video Coming S                                                                          150                                
PROFAMCHA070801081642081711000029Hannah Montana SCIENCE (MD) - This Afternoon @ 5:3                                                                          150                                
PROFAMCHA070801081711081741000030Popcorn Pix - Slapstick - Friday Night @ 7:30pm                                                                             150                                
PROFAMCHA070801081741081800000019MadMadMornings Block Open $$$                                                                                               150                                
PGRFAMCHA070801081800084038002238Disney's Lilo & Stitch                            EPS # 38                                                            A6068607E                                
PRCFAMCHA070801084038084043000005Astral ID (FEB05)                                                                                                           150                                
PROFAMCHA070801084043084122000039Little Einstein (PH) LOVE - Coming Up Next (MAY07)                                                                          150                                
PROFAMCHA070801084122084159000037xxFamily Fest Phase 2 (July 30-Sept.2) $$$                                                                                  150                                
PROFAMCHA070801084159084229000030Mickey Mouse Clubhouse GENERIC - This Morning @ 10                                                                          150                                
PRCFAMCHA070801084229084304000035Playhouse - KATIE & ORBIE - Did You Know?                                                                                   150                                
PROFAMCHA070801084304084400000056xxHandy Manny - TOOLS - (MAR07) - This morning @ 1                                                                          150                                
PROFAMCHA070801084400084442000042xxHigglytown HEROES - (MAR07) - This morning @ 10:                                                                          150                                
ID FAMCHA070801084442084457000015PS Playhouse AM Block Open (:10-:15) $$$                                                                                    150                                
PGRFAMCHA070801084457090902002405Disney's Little Einsteins                         EP: 01                                                               6068607E                                
PRCFAMCHA070801090902090917000015Franny's Feet - Bowleriffic (PH-) - (APR06) - Comi                                                                          150                                
PGRFAMCHA070801090917091037000120They Might Be Giants (ABC's) - Go for G                                                                                60688120                                
ID FAMCHA070801091037091051000014PS Playhouse AM Block Open (:10-:15) $$$                                                                                    150                                
PRCFAMCHA070801091051091100000009CC Disclaimer - FAST - Family.ca (:08-:10) $$$                                                                              150                                
PGRFAMCHA070801091100093330002230Franny's Feet                                     EPS # 33                                                      C23971 1065607ECC                              
PRCFAMCHA070801093330093335000005Astral ID (FEB05)                                                                                                           150                                
PRCFAMCHA070801093335093347000012Benjamin Bear - Slide (PH-) (APR06) -Coming Up Nex                                                                          150                                
PGRFAMCHA070801093347093643000256MV NON-DISNEY (MD, NS, NSW) - Holly Dolly - The Do                                                                     70688120                                
ID FAMCHA070801093643093653000010PS Playhouse AM Block Open (:10-:15) $$$                                                                                    150                                
PRCFAMCHA070801093653093702000009CC Disclaimer - FAST - Generic (:08-:10) $$$                                                                                150                                
PGRFAMCHA070801093702095937002235The Secret World Of Benjamin Bear                 EPS # 1-007                                                   B75152 1065607ECC                              
PROFAMCHA070801095937100007000030Mickey Mouse Clubhouse GENERIC - Coming Up Next                                                                             150                                
PGRFAMCHA070801100007100307000300They Might Be Giants (ABC's) - Can You Find It?                                                                        60688120                                
PROFAMCHA070801100307100349000042xxHigglytown HEROES - (MAR07) - This morning @ 10:                                                                          150                                
ID FAMCHA070801100349100400000011PS Playhouse AM Block Open (:10-:15) $$$                                                                                    150                                
PGRFAMCHA070801100400102802002402Disney's Mickey Mouse Clubhouse                   EP: 10                                                               6068607E                                
PRCFAMCHA070801102802102807000005Astral ID (FEB05)                                                                                                           150                                
PRCFAMCHA070801102807102822000015xxPH - 15 -HANDYMANNY/HIGGLY/KING  (:14 - :16) (FE                                                                          150                                
PROFAMCHA070801102822102918000056xxHandy Manny - TOOLS - (MAR07) - Coming Up Next                                                                            150                                
PRCFAMCHA070801102918102953000035Playhouse - KATIE & ORBIE - Discoveries                                                                                     150                                
PRCFAMCHA070801102953103024000031King (PH) (APR06) - This Morning @ 11:25am                                                                                  150                                
PRCFAMCHA070801103024103039000015Franny's Feet - Bowleriffic (PH-Mon) - (APR06) - T                                                                          150                                
ID FAMCHA070801103039103052000013PS Playhouse AM Block Open (:10-:15) $$$                                                                                    150                                
ID FAMCHA070801103052103100000008Magic of Disney - PLAYHOUSE - Shape (:06-:09) $$$                                                                           150                                
PGRFAMCHA070801103100105505002405Handy Manny                                       EP: 08                                                               6068607E                                
PRCFAMCHA070801105505105520000015xxPH - 16 -HIGGLY/KING/RECESS (:14- :16) (FEB07) $                                                                          150                                
PROFAMCHA070801105520105550000030xxHigglytown - Kids Love - PH Coming Up Next                                                                                150                                
PRCFAMCHA070801105550105609000019Playhouse - HOZE HOUNDZ - Code Blue                                                                                         150                                
PRCFAMCHA070801105609105640000031King (PH) (APR06) - This Morning @ 11:25am                                                                                  150                                
ID FAMCHA070801105640105652000012PS Playhouse AM Block Open (:10-:15) $$$                                                                                    150                                
ID FAMCHA070801105652105700000008Magic of Disney - PLAYHOUSE - Wipe (:06-:09) $$$                                                                            150                                
PGRFAMCHA070801105700112105002405Higglytown Heroes                                 EP: 48                                                               6068607E                                
PRCFAMCHA070801112105112110000005Astral ID (FEB05)                                                                                                           150                                
PRCFAMCHA070801112110112124000014xxPH - 17 -KING/RECESS/KIM (:14 - :16) (APR06) $$$                                                                          150                                
PRCFAMCHA070801112124112155000031King (PH) (APR06) - Coming Up Next                                                                                          150                                
PGRFAMCHA070801112155112445000250They Might Be Giants (ABC's) - E Eats Everything                                                                       60688120                                
ID FAMCHA070801112445112455000010PS Playhouse AM Block Open (:10-:15) $$$                                                                                    150                                
PRCFAMCHA070801112455112504000009CC Disclaimer - FAST - Family.ca (:08-:10) $$$                                                                              150                                
PGRFAMCHA070801112504114734002230King                                              EPS # 2-017                                                   B75772 1065607ECC                              
PRCFAMCHA070801114734114745000011xxMD - 01 - RECESS/KIM (APR06) (:11 - :13) $$$                                                                              150                                
PGRFAMCHA070801114745114825000040xxSummer Chill Event Spot  REVISED (Till Aug 26)                                                                      A60688120                                
PRCFAMCHA070801114825114842000017xxHSM 2 Movie Trailer - Premiers August 17 @ 8pm                                                                            150                                
PROFAMCHA070801114842114900000018Mad Dash Block Open (:16-:18) APR06 $$$                                                                                     150                                
PGRFAMCHA070801114900121135002235Disney's Recess                                   EP: 1-015                                                            6068607E                                
PRCFAMCHA070801121135121140000005Astral ID (FEB05)                                                                                                           150                                
PRCFAMCHA070801121140121152000012xxMD - 02 - KIM/WEEKENDERS (APR06) (:11 - :13) $$$                                                                          150                                
PGRFAMCHA070801121152121235000043xxSummer Chill Contest - Sing it All or Nothing (t                                                                    A60688120                                
PRCFAMCHA070801121235121251000016MD Bumper - $$$ Shopping Race (:15-:17) APR06                                                                               150                                
PRCFAMCHA070801121251121300000009CC Disclaimer - FAST - Generic (:08-:10) $$$                                                                                150                                
PGRFAMCHA070801121300123553002253Disney's Kim Possible                             EPS # 1-053                                                          6068607ECC                              
PRCFAMCHA070801123553123604000011xxMD - 03 - WEEKENDERS/AMERICAN DRAGON (JAN07) (:1                                                                          150                                
PROFAMCHA070801123604123637000033xxDave the Barbarian - RACE CAR (MD) - This Aftern                                                                          150                                
PROFAMCHA070801123637123651000014xxSummer Chill Bumpers - Hanna Montana Mon-Fri 5:3                                                                          150                                
PRCFAMCHA070801123651123700000009CC Disclaimer - FAST - Family.ca (:08-:10) $$$                                                                              150                                
PGRFAMCHA070801123700125954002254Disney's The Weekenders                           EP: 1-003                                                           A6068607ECC                              
PRCFAMCHA070801125954125959000005Astral ID (FEB05)                                                                                                           150                                
PRCFAMCHA070801125959130011000012xxMD - 04 - AMERICAN DRAGON/EMPEROR (JAN07) (:11 -                                                                          150                                
PRCFAMCHA070801130011130019000008MD Bumper - $$$ Ski Race (:07-:09) APR06                                                                                    150                                
PRCFAMCHA070801130019130028000009CC Disclaimer - FAST - Generic (:08-:10) $$$                                                                                150                                
PGRFAMCHA070801130028132307002239Disney's American Dragon:  Jake Long              EP: 46                                                               6028607ECC                              
PRCFAMCHA070801132307132320000013xxMD - 05 - EMPEROR/LILO (JAN07) (:11 - :13) $$$                                                                            150                                
PRCFAMCHA070801132320132350000030Famous Players Popcorn Parties 2 (May 2-Jan 31/08)                                                                          150                                
PRCFAMCHA070801132350132400000010MD Bumper $$$ - Race Cars (:08-:10) APR06 **DNU                                                                             150                                
PGRFAMCHA070801132400134636002236Disney's The Emperor's New School                 EP: 01                                                               6068807E                                
PRCFAMCHA070801134636134641000005Astral ID (FEB05)                                                                                                           150                                
PRCFAMCHA070801134641134652000011xxMD - 06 - LILO/FILLMORE! (APR06) (:11 - :13) $$$                                                                          150                                
PGRFAMCHA070801134652134735000043xxSummer Chill Contest - Sing it All or Nothing (t                                                                    A60688120                                
PRCFAMCHA070801134735134747000012xxDC Games 2007 IDs - Corbin Bleu - Saturday After                                                                          150                                
PROFAMCHA070801134747134800000013xxSummer Chill Bumpers - Family.ca (Aug Only)                                                                               150                                
PGRFAMCHA070801134800141039002239Disney's Lilo & Stitch: The Series                EP: 57                                                               6068607E                                
PRCFAMCHA070801141039141050000011xxMD - 07 - FILLMORE!/PROUD (APR06) (:11 - :13) $$                                                                          150                                
PROFAMCHA070801141050141112000022Fillmore! - POLLY (MD) (APR06) - Coming up next                                                                             150                                
PROFAMCHA070801141112141145000033xxDave the Barbarian - RACE CAR (MD) - This Aftern                                                                          150                                
PRCFAMCHA070801141145141200000015MD Bumper - $$$ Shopping Race (:15-:17) APR06                                                                               150                                
PGRFAMCHA070801141200143437002237Disney's Fillmore!                                EPS # 1-017                                                         A6068607E                                
PRCFAMCHA070801143437143442000005Astral ID (FEB05)                                                                                                           150                                
PRCFAMCHA070801143442143454000012xxMD - 08 - PROUD/WEEKENDERS (APR06) (:11 - :13) $                                                                          150                                
PGRFAMCHA070801143454143534000040xxSummer Chill Event Spot  REVISED (Till Aug 26)                                                                      A60688120                                
PRCFAMCHA070801143534143543000009MD Bumper - $$$ Ski Race (:07-:09) APR06                                                                                    150                                
ID FAMCHA070801143543143551000008Magic of Disney - MAD DASH - Shape (:06-:09) $$$                                                                            150                                
PRCFAMCHA070801143551143600000009CC Disclaimer - FAST - Generic (:08-:10) $$$                                                                                150                                
PGRFAMCHA070801143600145830002230The Proud Family                                  EP: 2-029                                                           A6068607ECC                              
PRCFAMCHA070801145830145843000013xxMD - 09 - WEEKENDERS/LLOYD (APR06) (:11 - :13) $                                                                          150                                
PROFAMCHA070801145843145925000042xxHSM - Disney/WAl-Mart - (Aug 1- 31) $$$                                                                                   150                                
PROFAMCHA070801145925145934000009Raven ID's II - You're Watching Family, NADM                                                                                150                                
PROFAMCHA070801145934145951000017Mad Dash Block Open (:16-:18) APR06 $$$                                                                                     150                                
PRCFAMCHA070801145951150000000009CC Disclaimer - FAST - Family.ca (:08-:10) $$$                                                                              150                                
PGRFAMCHA070801150000152254002254Disney's The Weekenders                           EP: 1-003                                                           A6068607ECC                              
PRCFAMCHA070801152254152259000005Astral ID (FEB05)                                                                                                           150                                
PRCFAMCHA070801152259152310000011xxMD - 10 - LLOYD/DAVE (APR06) (:11 - :13) $$$                                                                              150                                
PRCFAMCHA070801152310152327000017xxHSM 2 Movie Trailer - Premiers August 17 @ 8pm                                                                            150                                
PROFAMCHA070801152327152357000030xxSuite Life Vol. 2 Blast - Available Aug 07 (July                                                                          150                                
PROFAMCHA070801152357152409000012xxFamily Bumpers - (Phase 1 Spring 04) - Picnic (M                                                                          150                                
PGRFAMCHA070801152409152439000030xxHannah Montana CD Blast Available Now  $$$ (June                                                                    A60688120                                
PROFAMCHA070801152439152445000006Phil of the Future IDs - You're Watching Family...                                                                          150                                
PROFAMCHA070801152445152501000016xxSummer Chill Bumpers - HSM 2 Premieres Aug 17                                                                             150                                
PGRFAMCHA070801152501154754002253Disney's Lloyd In Space                           EP: 17                                                               6068607E                                
PRCFAMCHA070801154754154805000011xxMD - 11 - DAVE/PROUD (APR06) (:11 - :13) $$$                                                                              150                                
PROFAMCHA070801154805154823000018xxDave the Barbarian - COOL PANT (MD) - Coming Up                                                                           150                                
PROFAMCHA070801154823154859000036xxBratz Kidz Sleep-Over Contest Available Now (Jul                                                                          150                                
PROFAMCHA070801154859154908000009xxFamily Bumpers - (Phase 2 F/W 04) - Skateboard (                                                                          150                                
PRCFAMCHA070801154908155038000130xxMS - Underdog - Kyle Massey Music Video Coming S                                                                          150                                
PROFAMCHA070801155038155102000024Recess - MONTAGE (MD) - JULY06 - This afternoon @                                                                           150                                
PROFAMCHA070801155102155132000030xxAre We Done Yet DVD Blast- Available Aug 07 (Aug                                                                          150                                
PRCFAMCHA070801155132155143000011Naturally Sadie ID's - I'm Charlotte, you're watch                                                                          150                                
PRCFAMCHA070801155143155151000008MD Bumper $$$ - Race Cars (:08-:10) APR06 **DNU                                                                             150                                
PRCFAMCHA070801155151155200000009CC Disclaimer - FAST - Family.ca (:08-:10) $$$                                                                              150                                
PGRFAMCHA070801155200161437002237Disney's Dave the Barbarian                       EPS # 02                                                             6068607ECC                              
PRCFAMCHA070801161437161442000005Astral ID (FEB05)                                                                                                           150                                
PRCFAMCHA070801161442161453000011xxMD - 12 - PROUD/RECESS (APR06) (:11 - :13) $$$                                                                            150                                
PROFAMCHA070801161453161527000034Proud Family (APR06) GET BURNED (MD) - Coming Up N                                                                          150                                
PROFAMCHA070801161527161557000030xxFirehouse Dog DVD - Available Now (July 31- Aug                                                                           150                                
PROFAMCHA070801161557161627000030Popcorn Pix - Slapstick - Saturday @ Noon                                                                                   150                                
PRCFAMCHA070801161627161643000016MD Bumper - $$$ Shopping Race (:15-:17) APR06                                                                               150                                
ID FAMCHA070801161643161651000008Magic of Disney - MAD DASH - Wipe (:06-:09) $$$                                                                             150                                
PRCFAMCHA070801161651161700000009CC Disclaimer - FAST - Generic (:08-:10) $$$                                                                                150                                
PGRFAMCHA070801161700163935002235The Proud Family                                  EP: 2-024                                                           A6068607ECC                              
PROFAMCHA070801163935164020000045Recess - SNACKS FOR SNITCHES (MD) - (MAY06) - Comi                                                                          150                                
PROFAMCHA070801164020164056000036xxBratz Kidz Sleep-Over Contest Available Now (Jul                                                                          150                                
PROFAMCHA070801164056164132000036Suite Life of Z & C - MD - GOLF - This Afternoon @                                                                          150                                
PROFAMCHA070801164132164202000030xxFirehouse Dog DVD - Available Now (July 31- Aug                                                                           150                                
PRCFAMCHA070801164202164249000047xxHSM 2 Movie Trailer - Premiers August 17 @ 8pm                                                                            150                                
PROFAMCHA070801164249164300000011xxSummer Chill Bumpers - Generic Summer Chill (Aug                                                                          150                                
PGRFAMCHA070801164300170535002235Disney's Recess                                   EP: 1-055                                                           A6068607E                                
PRCFAMCHA070801170535170540000005Astral ID (FEB05)                                                                                                           150                                
PROFAMCHA070801170540170613000033Suite Life of Z & C - MD - SCOUT TROOP - Coming Up                                                                          150                                
PROFAMCHA070801170613170643000030xxDaddy Day Camp In Theatres Aug 8 (July 23-Aug 7)                                                                          150                                
PROFAMCHA070801170643170652000009Family Bumpers - (Phase 3 Spring 05) - Hip Hop (MD                                                                          150                                
PRCFAMCHA070801170652170722000030Famous Players Popcorn Parties 2 (May 2-Jan 31/08)                                                                          150                                
PROFAMCHA070801170722170751000029Hannah Montana SCIENCE (MD) - This Afternoon @ 5:3                                                                          150                                
PRCFAMCHA070801170751170758000007MD Bumper - $$$ Ski Race (:07-:09) APR06                                                                                    150                                
ID FAMCHA070801170758170806000008Magic of Disney - MAD DASH - Shape (:06-:09) $$$                                                                            150                                
PRCFAMCHA070801170806170815000009CC Disclaimer - FAST - Generic (:08-:10) $$$                                                                                150                                
PGRFAMCHA070801170815173055002240Suite Life of Zack & Cody, The                    EP: 16                                                               6068607BCC                              
PROFAMCHA070801173055173124000029Hannah Montana SCIENCE (MD) - Coming Up Next (JULY                                                                          150                                
PROFAMCHA070801173124173154000030xxSuite Life Vol. 2 Blast - Available Aug 07 (July                                                                          150                                
PROFAMCHA070801173154173210000016Kim Possible FINGER TAUNT (MD) (July 06) Tomorrow                                                                           150                                
PROFAMCHA070801173210173300000050xxKellogg's Vanilla Version 2  (July 30 - August 1                                                                          150                                
PRCFAMCHA070801173300173343000043xxRoad to HSM 2 Promo - Every Friday Night                                                                                  150                                
PRCFAMCHA070801173343173352000009MD Bumper $$$ - Race Cars (:08-:10) APR06 **DNU                                                                             150                                
ID FAMCHA070801173352173400000008Magic of Disney - MAD DASH - Shape (:06-:09) $$$                                                                            150                                
PGRFAMCHA070801173400175638002238Hannah Montana                                    EP: 12                                                               6068807B                                
PRCFAMCHA070801175638175643000005Astral ID (FEB05)                                                                                                           150                                
PROFAMCHA070801175643175727000044xxZoey 101 - PHONE DIARY (NS) (JUNE06) - Coming Up                                                                          150                                
PROFAMCHA070801175727175803000036xxBratz Kidz Sleep-Over Contest Available Now (Jul                                                                          150                                
PROFAMCHA070801175803175840000037Naturally Sadie - TEENAGE (NS) Tonight @ 6:30 (MAY                                                                          150                                
PROFAMCHA070801175840175910000030xxBratz Interstitial Spot - In Theatres Aug 3rd (J                                                                          150                                
PROFAMCHA070801175910175936000026xxDC Games 2007 Short - Sat afternoons after your                                                                           150                                
PROFAMCHA070801175936175952000016Nonstop Block Open (:16-:18) APR06 $$$                                                                                      150                                
PRCFAMCHA070801175952180001000009CC Disclaimer - FAST - Family.ca (:08-:10) $$$                                                                              150                                
PGRFAMCHA070801180001182333002332Zoey 101                                          EP: 19                                                              A2068807BCC                              
PROFAMCHA070801182333182410000037Naturally Sadie - TEENAGE (NS) NEXT (MAY07)                                                                                 150                                
PROFAMCHA070801182410182450000040xxBratz The Movie Contest - In Theatres Aug 3 (Jul                                                                          150                                
PROFAMCHA070801182450182519000029That's So Raven (APR06) HELLO LADIES (NS) - Tonigh                                                                          150                                
PRCFAMCHA070801182519182704000145xxMS - Underdog - Tessa Interviews Cast - Coming S                                                                          150                                
PROFAMCHA070801182704182734000030Smart Guy MOE MUSIC (JUNE06) NS Tonight @ 7:30                                                                              150                                
PROFAMCHA070801182734182810000036Suite Life of Z & C - NS - GOLF - Tonight @ 8:00 (                                                                          150                                
PROFAMCHA070801182810182852000042xxHSM - Disney/WAl-Mart - (Aug 1- 31) $$$                                                                                   150                                
PROFAMCHA070801182852182944000052xxDC Games 2007 Long - Sat afternoons after your f                                                                          150                                
PRCFAMCHA070801182944182951000007NS Bumper $$$ - Dodgeball (:07-:09) APR06                                                                                   150                                
PRCFAMCHA070801182951183000000009CC Disclaimer - FAST - Generic (:08-:10) $$$                                                                                150                                
PGRFAMCHA070801183000185230002230Naturally, Sadie                                  EP: 53                                                        A39175 1055607ACC3                             
PRCFAMCHA070801185230185235000005Astral ID (FEB05)                                                                                                           150                                
PRCFAMCHA070801185235185246000011xxNS - 03 - RAVEN/SMART (APR06) (:11 - :13) $$$                                                                             150                                
PROFAMCHA070801185246185315000029That's So Raven (AUG06) BEAUTY MARK - NS - Coming                                                                           150                                
PROFAMCHA070801185315185345000030xxSuite Life Vol. 2 Blast - Available Aug 07 (July                                                                          150                                
PROFAMCHA070801185345185416000031Smart Guy FIGHT (JUNE06) NS - Tonight @ 7:30                                                                                150                                
PRCFAMCHA070801185416185816000400xxMS - Underdog - Dog Trainers - Coming Soon (July                                                                          150                                
PROFAMCHA070801185816185845000029Hannah Montana SCIENCE (NS) - New Eps Friday's @ 5                                                                          150                                
PROFAMCHA070801185845185921000036xxBratz Kidz Sleep-Over Contest Available Now (Jul                                                                          150                                
PROFAMCHA070801185921185933000012xxZoey 101 - SCREAM (NS) (JULY07) - New Eps - Frid                                                                          150                                
PROFAMCHA070801185933185947000014xxSummer Chill Bumpers - Hanna Montana Mon-Fri 5:3                                                                          150                                
ID FAMCHA070801185947185955000008Magic of Disney - NS/NSW/PB - Wipe (:06-:09) $$$                                                                            150                                
PRCFAMCHA070801185955190004000009CC Disclaimer - FAST - Family.ca (:08-:10) $$$                                                                              150                                
PGRFAMCHA070801190004192242002238That's So Raven                                   EPS # 1-056                                                          6068607BCC                              
PROFAMCHA070801192242192312000030Smart Guy MOE MUSIC (JUNE06) NS Coming Up Next                                                                              150                                
PROFAMCHA070801192312192402000050xxKellogg's Vanilla Version 2  (July 30 - August 1                                                                          150                                
PROFAMCHA070801192402192438000036Suite Life of Z & C - NS - GOLF - Tonight @ 8:00 (                                                                          150                                
PRCFAMCHA070801192438192608000130xxMS - Underdog - Kyle Massey Music Video Coming S                                                                          150                                
PRCFAMCHA070801192608192638000030Life with Derek (NS) MORE FUN (OCT06)  Tonight @ 8                                                                          150                                
PRCFAMCHA070801192638192706000028Life WD Derek Bloopers #13 (NS/NSW)                                                                                         150                                
PROFAMCHA070801192706192736000030xx8 Simple Rules (MAY07) (NS) FAKE ID Tonight @ 9:                                                                          150                                
PGRFAMCHA070801192736192829000053xxPlanet Rock Profiles - Nickelback (Studio AnthemEP: 46                                                              A70687120                                
PROFAMCHA070801192829192849000020xxPopular (JULY06) (ALI MCB) - Tonight  @ 10pm                                                                              150                                
PROFAMCHA070801192849192919000030xxAre We Done Yet DVD Blast- Available Aug 07 (Aug                                                                          150                                
PRCFAMCHA070801192919192931000012xxDC Games 2007 IDs - Corbin Bleu - Saturday After                                                                          150                                
PRCFAMCHA070801192931192943000012NS Bumper $$$ - Fashion (:12-:14) APR06 **DNU                                                                               150                                
ID FAMCHA070801192943192951000008Magic of Disney - NS/NSW/PB - Shape (:06-:09) $$$                                                                           150                                
PRCFAMCHA070801192951193000000009CC Disclaimer - FAST - Generic (:08-:10) $$$                                                                                150                                
PGRFAMCHA070801193000195228002228Smart Guy                                         EP: 1-019                                                           A6068807BCC                              
PRCFAMCHA070801195228195233000005Astral ID (FEB05)                                                                                                           150                                
PRCFAMCHA070801195233195316000043xxRoad to HSM 2 Promo - Every Friday Night                                                                                  150                                
PROFAMCHA070801195316195350000034Suite Life of Z & C - NS - SCOUT TROOP - Coming Up                                                                          150                                
PGRFAMCHA070801195350195420000030xxHannah Montana CD Blast Available Now  $$$ (June                                                                    A60688120                                
PRCFAMCHA070801195420195438000018Life with Derek NS OJ (SEPT06) Tonight at 8:30pm                                                                            150                                
PRCFAMCHA070801195438195801000323xxAnother Side of Corbin Bleu / HSM 2 premieres Au                                                                          150                                
PROFAMCHA070801195801195831000030xx8 Simple Rules (MAY07) (NS) SHOUT Tonight @ 9:00                                                                          150                                
PROFAMCHA070801195831195901000030xxBratz Interstitial Spot - In Theatres Aug 3rd (J                                                                          150                                
PROFAMCHA070801195901195927000026xxDC Games 2007 Short - Sat afternoons after your                                                                           150                                
PRCFAMCHA070801195927195943000016NS Bumper $$$- Tennis (:15-:17) APR06                                                                                       150                                
ID FAMCHA070801195943195951000008Magic of Disney - NS/NSW/PB - Wipe (:06-:09) $$$                                                                            150                                
PRCFAMCHA070801195951200000000009CC Disclaimer - FAST - Family.ca (:08-:10) $$$                                                                              150                                
PGRFAMCHA070801200000202238002238Suite Life of Zack and Cody, The                  EP: 40                                                               6068607BCC                              
PRCFAMCHA070801202238202250000012xxNS - 06 - DEREK/8 SIMPLE RULES (FEB07) (:11-:13)                                                                          150                                
PRCFAMCHA070801202250202320000030Life with Derek (NS) MORE FUN (OCT06)  Coming Up N                                                                          150                                
PROFAMCHA070801202320202350000030xxSuite Life Vol. 2 Blast - Available Aug 07 (July                                                                          150                                
PROFAMCHA070801202350202420000030xx8 Simple Rules (MAY07) (NS) FAKE ID Tonight @ 9:                                                                          150                                
PGRFAMCHA070801202420202718000258xxRoad to HSM 2 Interstitial #7 (NS) - Premiering                                                                     A60688120                                
PROFAMCHA070801202718202738000020xxPopular (JULY06) (ALI MCB) - Tonight  @ 10pm                                                                              150                                
PGRFAMCHA070801202738202819000041xxPlanet Rock Profiles - Ashanti (JLo)            EP: 46                                                              A70687120                                
PROFAMCHA070801202819202856000037xxNaturally Sadie - New Episodes TEENAGE (NSW) Sun                                                                          150                                
PROFAMCHA070801202856202926000030xxAre We Done Yet DVD Blast- Available Aug 07 (Aug                                                                          150                                
PRCFAMCHA070801202926202943000017xxHSM 2 Movie Trailer - Premiers August 17 @ 8pm                                                                            150                                
PRCFAMCHA070801202943202951000008NS Bumper $$$ - Dodgeball (:07-:09) APR06                                                                                   150                                
PRCFAMCHA070801202951203000000009CC Disclaimer - FAST - Generic (:08-:10) $$$                                                                                150                                
PGRFAMCHA070801203000205230002230Life with Derek                                   EP: 20                                                        C26679A1055607BCC3                             
PRCFAMCHA070801205230205235000005Astral ID (FEB05)                                                                                                           150                                
PRCFAMCHA070801205235205246000011xxNS - 07 -8 SIMPLE RULES/SINBAD (FEB07) (:11-:13)                                                                          150                                
PROFAMCHA070801205246205316000030xx8 Simple Rules (MAY07) (NS) SHOUT Coming Up Next                                                                          150                                
PROFAMCHA070801205316205356000040xxBratz The Movie Contest - In Theatres Aug 3 (Jul                                                                          150                                
PROFAMCHA070801205356205433000037Naturally Sadie - TEENAGE (NS) Tonight @ 12:00 (MA                                                                          150                                
PRCFAMCHA070801205433205615000142xxGet'cha Head In The Game - Baseball Version 2                                                                             150                                
PROFAMCHA070801205615205645000030Zoey 101 - QUINN (NS) (MAR07) - Tomorrow @ 6                                                                                150                                
PGRFAMCHA070801205645205829000144xxPlanet Rock Profiles - BNL - One Week           EP: 46                                                              A70687120                                
PROFAMCHA070801205829205858000029That's So Raven (APR06) HELLO LADIES (NS) - Tomorr                                                                          150                                
PROFAMCHA070801205858205928000030xxDaddy Day Camp In Theatres Aug 8 (July 23-Aug 7)                                                                          150                                
PRCFAMCHA070801205928205940000012xxDC Games 2007 IDs - Corbin Bleu - Saturday After                                                                          150                                
PROFAMCHA070801205940205951000011xxSummer Chill Bumpers - Generic Summer Chill (Aug                                                                          150                                
PRCFAMCHA070801205951210000000009CC Disclaimer - SLOW - Generic (:08-:10) $$$                                                                                150                                
PGRFAMCHA0708012100002121370021378 Simple Rules                                    EP: 54                                                              B2068807BCC                              
PRCFAMCHA070801212137212150000013xxNS - 08 -SINBAD/POPULAR (FEB07) (:11-:13) $$$                                                                             150                                
PROFAMCHA070801212150212220000030xxSinbad Show NS Responsible (SEPT06) Coming Up Ne                                                                          150                                
PGRFAMCHA070801212220212250000030xxHannah Montana CD Blast Available Now  $$$ (June                                                                    A60688120                                
PROFAMCHA070801212250212310000020xxPopular (JULY06) (ALI MCB) - Tonight  @ 10pm                                                                              150                                
PRCFAMCHA070801212310212455000145xxMS - Underdog - Tessa Interviews Cast - Coming S                                                                          150                                
PROFAMCHA070801212455212524000029Hannah Montana SCIENCE (NS) - New Eps Friday's @ 5                                                                          150                                
PROFAMCHA070801212524212534000010FAMJAM - Open/Close                                                                                                         150                                
PGRFAMCHA070801212534212828000254MV - Eva Avila - I Owe It All To You (Jan07)                                                                          A20688120                                
PROFAMCHA070801212828212842000014xxFAMJAM - Close (FAMILY) xxDNUxx                                                                                           150                                
PROFAMCHA070801212842212854000012xxZoey 101 - SCREAM (NS) (JULY07) - New Eps - Frid                                                                          150                                
PROFAMCHA070801212854212931000037xxFamily Fest Phase 2 (July 30-Sept.2) $$$                                                                                  150                                
PRCFAMCHA070801212931212945000014xxDC Games 2007 IDs - Monique Coleman - Saturday A                                                                          150                                
PRCFAMCHA070801212945212959000014NS Bumper $$$ - Fashion (:12-:14) APR06 **DNU                                                                               150                                
PGRFAMCHA070801212959215222002223The Sinbad Show                                   EP: 21                                                               2068507B                                
PRCFAMCHA070801215222215227000005Astral ID (FEB05)                                                                                                           150                                
PRCFAMCHA070801215227215239000012xxNS - 09 - POPULAR/8 SIMPLE (APR06) (:11 - :13) $                                                                          150                                
PROFAMCHA070801215239215259000020xxPopular (JULY06) (ALI MCB) - Coming Up Next                                                                               150                                
PGRFAMCHA070801215259215342000043xxSummer Chill Contest - Sing it All or Nothing (t                                                                    A60688120                                
PROFAMCHA070801215342215412000030xx8 Simple Rules (MAY07) (NS) FAKE ID Tonight @ 11                                                                          150                                
PRCFAMCHA070801215412215539000127xxGet'cha Head In The Game - Skateboard Version 1                                                                           150                                
PROFAMCHA070801215539215609000030Smart Guy MOE MUSIC (JUNE06) NS Tomorrow night @ 7                                                                          150                                
PROFAMCHA070801215609215619000010FAMJAM - Open/Close                                                                                                         150                                
MVCFAMCHA070801215619215749000130MV Disney - (MD/NS/NSW) - Jesse McCartney - Just S                                                                     60688120                                
PROFAMCHA070801215749215803000014xxFAMJAM - Close (FAMILY) xxDNUxx                                                                                           150                                
PROFAMCHA070801215803215832000029Hannah Montana SCIENCE (NS) - New Eps Friday's @ 5                                                                          150                                
PRCFAMCHA070801215832215912000040Magazine Spot (MD,NS,NSW) 2/3 day (not in PH) (til                                                                          150                                
PROFAMCHA070801215912215944000032xxSuite Life of Z & C (NSW) W Hotel - New Eps Star                                                                          150                                
PRCFAMCHA070801215944220000000016NS Bumper $$$- Tennis (:15-:17) APR06                                                                                       150                                
PGRFAMCHA070801220000224406004406Popular                                           EP: 03                                                              B2068807B                                
PRCFAMCHA070801224406224418000012xxNS - 10 - 8 SIMPLE/DEREK (SEPT06) (:11 - :13) $$                                                                          150                                
PROFAMCHA070801224418224448000030xx8 Simple Rules (MAY07) (NS) SHOUT Coming Up Next                                                                          150                                
PRCFAMCHA070801224448224848000400xxMS - Underdog - Dog Trainers - Coming Soon (July                                                                          150                                
PRCFAMCHA070801224848224918000030Life with Derek (NS) MORE FUN (OCT06)  Tonight @ 1                                                                          150                                
PROFAMCHA070801224918224928000010FAMJAM - Open/Close                                                                                                         150                                
PGRFAMCHA070801224928225058000130xxMV Disney - (MD/NS/NSW) - AnnasophiRobb-Keep You                                                                    A60688120                                
PROFAMCHA070801225058225112000014xxFAMJAM - Close (FAMILY) xxDNUxx                                                                                           150                                
PROFAMCHA070801225112225149000037Naturally Sadie - TEENAGE (NS) Tonight @ 12:00 (MA                                                                          150                                
PRCFAMCHA070801225149225316000127xxGet'cha Head In The Game - Soccer Version 1                                                                               150                                
PROFAMCHA070801225316225328000012xxZoey 101 - SCREAM (NS) (JULY07) - New Eps - Frid                                                                          150                                
PROFAMCHA070801225328225338000010FAMJAM - Open/Close                                                                                                         150                                
PGRFAMCHA070801225338225728000350MV Disney - (MD/NS/NSW) - Jesse McCartney - Just S                                                                     60688120                                
PROFAMCHA070801225728225742000014xxFAMJAM - Close (FAMILY) xxDNUxx                                                                                           150                                
PROFAMCHA070801225742225825000043Cory In The House (NSW) (MAR07) - Weekends @ 9:10a                                                                          150                                
PGRFAMCHA070801225825225905000040xxSummer Chill Event Spot  REVISED (Till Aug 26)                                                                      A60688120                                
PROFAMCHA070801225905225943000038Double Teamed (SEPT12) - Next Friday @ 7:30pm                                                                               150                                
PRCFAMCHA070801225943225951000008NS Bumper $$$ - Dodgeball (:07-:09) APR06                                                                                   150                                
PRCFAMCHA070801225951230000000009CC Disclaimer - SLOW - Family.ca (:08-:10) $$$                                                                              150                                
PGRFAMCHA0708012300002321360021368 Simple Rules                                    EP: 61                                                              B2068807BCC                              
PRCFAMCHA070801232136232141000005Astral ID (FEB05)                                                                                                           150                                
PRCFAMCHA070801232141232224000043xxRoad to HSM 2 Promo - Every Friday Night                                                                                  150                                
PRCFAMCHA070801232224232254000030Life WD - Dinnertime Coming Up Next                                                                                         150                                
PRCFAMCHA070801232254232421000127xxGet'cha Head In The Game - Baseball Version 1                                                                             150                                
PROFAMCHA070801232421232458000037Naturally Sadie - TEENAGE (NS) Tonight @ 12:30 (MA                                                                          150                                
PROFAMCHA070801232458232508000010FAMJAM - Open/Close                                                                                                         150                                
PGRFAMCHA070801232508232832000324xxMV Disney - (MD/NS/NSW) - Ashley Tisdale - Kiss                                                                      60688120                                
PROFAMCHA070801232832232846000014xxFAMJAM - Close (FAMILY) xxDNUxx                                                                                           150                                
PROFAMCHA070801232846232938000052xxDC Games 2007 Long - Sat afternoons after your f                                                                          150                                
PRCFAMCHA070801232938232951000013NS Bumper $$$ - Fashion (:12-:14) APR06 **DNU                                                                               150                                
PRCFAMCHA070801232951233000000009CC Disclaimer - SLOW - Generic (:08-:10) $$$                                                                                150                                
PGRFAMCHA070801233000235230002230Life with Derek                                   EP: 23                                                        C26679A1065607BCC                              
PROFAMCHA070801235230235307000037Naturally Sadie - TEENAGE (NS) NEXT (MAY07)                                                                                 150                                
PRCFAMCHA070801235307235434000127xxGet'cha Head In The Game - Skateboard Version 2                                                                           150                                
PROFAMCHA070801235434235503000029Hannah Montana SCIENCE (NS) - New Eps Friday's @ 5                                                                          150                                
PROFAMCHA070801235503235513000010FAMJAM - Open/Close                                                                                                         150                                
PGRFAMCHA070801235513235834000321xxMV Disney - (MD/NS/NSW) - Everlife - Real Wild C                                                                     60688120                                
PROFAMCHA070801235834235848000014xxFAMJAM - Close (FAMILY) xxDNUxx                                                                                           150                                
PRCFAMCHA070801235848235935000047xxHSM 2 Movie Trailer - Premiers August 17 @ 8pm                                                                            150                                
PRCFAMCHA070801235935235951000016NS Bumper $$$- Tennis (:15-:17) APR06                                                                                       150                                
PRCFAMCHA070801235951000000000009CC Disclaimer - SLOW - Family.ca (:08-:10) $$$                                                                              150                                
PGRFAMCHA070801000000002230002230Naturally, Sadie                                  EP: 38                                                        C25428 1065607ACC                              
PRCFAMCHA070801002230002235000005Astral ID (FEB05)                                                                                                           150                                
PROFAMCHA070801002235002312000037Naturally Sadie - TEENAGE (NS) NEXT (MAY07)                                                                                 150                                
PRCFAMCHA070801002312002442000130xxMS - Underdog - Kyle Massey Music Video Coming S                                                                          150                                
PROFAMCHA070801002442002454000012xxZoey 101 - SCREAM (NS) (JULY07) - New Eps - Frid                                                                          150                                
PROFAMCHA070801002454002504000010FAMJAM - Open/Close                                                                                                         150                                
PGRFAMCHA070801002504002840000336xxMV Disney - (MD/NS/NSW) - Cheetah Girls - So Thi                                                                     60688120                                
PROFAMCHA070801002840002854000014xxFAMJAM - Close (FAMILY) xxDNUxx                                                                                           150                                
PRCFAMCHA070801002854002937000043xxRoad to HSM 2 Promo - Every Friday Night                                                                                  150                                
PROFAMCHA070801002937002953000016xxSummer Chill Bumpers - HSM 2 Premieres Aug 17                                                                             150                                
PRCFAMCHA070801002953003002000009CC Disclaimer - SLOW - Generic (:08-:10) $$$                                                                                150                                
PGRFAMCHA070801003002005232002230Naturally, Sadie                                  EP: 16                                                        C24010 1065607ACC                              
PROFAMCHA070801005232005302000030xx8 Simple Rules (MAY07) (NS) FAKE ID Coming Up Ne                                                                          150                                
PRCFAMCHA070801005302005702000400xxMS - Underdog - Dog Trainers - Coming Soon (July                                                                          150                                
PROFAMCHA070801005702005731000029Hannah Montana SCIENCE (NS) - New Eps Friday's @ 5                                                                          150                                
PRCFAMCHA070801005731005811000040Magazine Spot (MD,NS,NSW) 2/3 day (not in PH) (til                                                                          150                                
PROFAMCHA070801005811005843000032xxSuite Life of Z & C (NSW) W Hotel - New Eps Star                                                                          150                                
PRCFAMCHA070801005843005851000008NS Bumper $$$ - Dodgeball (:07-:09) APR06                                                                                   150                                
PRCFAMCHA070801005851005900000009CC Disclaimer - SLOW - Family.ca (:08-:10) $$$                                                                              150                                
PGRFAMCHA0708010059000120320021328 Simple Rules                                    EP: 31                                                              B2068807BCC                              
PRCFAMCHA070801012032012037000005Astral ID (FEB05)                                                                                                           150                                
PROFAMCHA070801012037012057000020xxPopular (JULY06) (ALI MCB) - Coming Up Next                                                                               150                                
PROFAMCHA070801012057012149000052xxDC Games 2007 Long - Sat afternoons after your f                                                                          150                                
PRCFAMCHA070801012149012201000012NS Bumper $$$ - Fashion (:12-:14) APR06 **DNU                                                                               150                                
PGRFAMCHA070801012201020605004404Popular                                           EP: 31                                                              B2068807B                                
PROFAMCHA070801020605020618000013xxBonnie - Life With NSW - Coming Up Next (Sept 06                                                                          150                                
PROFAMCHA070801020618020654000036Flight 29 Down - Weekend Nights @ 6:30pm (JUNE07)                                                                           150                                
PRCFAMCHA070801020654020741000047xxHSM 2 Movie Trailer - Premiers August 17 @ 8pm                                                                            150                                
PRCFAMCHA070801020741020758000017NS Bumper $$$- Tennis (:15-:17) APR06                                                                                       150                                
PGRFAMCHA070801020758022939002141Life With Bonnie                                  EP: 32                                                               2068507B                                
PRCFAMCHA070801022939022944000005Astral ID (FEB05)                                                                                                           150                                
PRCFAMCHA070801022944022951000007NS Bumper $$$ - Dodgeball (:07-:09) APR06                                                                                   150                                
PRCFAMCHA070801022951023000000009CC Disclaimer - SLOW - Generic (:08-:10) $$$                                                                                150                                
PGRFAMCHA070801023000025230002230Life With Derek                                   EP: 06                                                        C23968A1065607BCC                              
PRCFAMCHA070801025230025313000043xxRoad to HSM 2 Promo - Every Friday Night                                                                                  150                                
PROFAMCHA070801025313025345000032xxSinbad Show NS Dance (SEPT06) Coming Up Next                                                                              150                                
PRCFAMCHA070801025345025359000014NS Bumper $$$ - Fashion (:12-:14) APR06 **DNU                                                                               150                                
PGRFAMCHA070801025359031651002252The Sinbad Show                                   EP: 08                                                               2068507B                                
PRCFAMCHA070801031651031656000005Astral ID (FEB05)                                                                                                           150                                
PROFAMCHA070801031656031709000013xxSummer Chill Bumpers - Family.ca (Aug Only)                                                                               150                                
ID FAMCHA070801031709031715000006Magic of Disney - NS/NSW/PB - Shape (:06-:09) $$$                                                                           150                                
PRCFAMCHA070801031715031725000010CC Disclaimer - SLOW - Generic (:08-:10) $$$                                                                                150                                
PGRFAMCHA070801031725034009002244That's So Raven                                   EPS # 1-033                                                          6068607BCC                              
PRCFAMCHA070801034009034024000015NS Bumper $$$- Tennis (:15-:17) APR06                                                                                       150                                
ID FAMCHA070801034024034032000008Magic of Disney - NS/NSW/PB - Wipe (:06-:09) $$$                                                                            150                                
PGRFAMCHA070801034032040313002241Suite Life of Zack and Cody, The                  EP: 32                                                               6068607B                                
PRCFAMCHA070801040313040318000005Astral ID (FEB05)                                                                                                           150                                
PRCFAMCHA070801040318040335000017xxHSM 2 Movie Trailer - Premiers August 17 @ 8pm                                                                            150                                
PRCFAMCHA070801040335040406000031Life WD - Generic BATHROOM (JULY06) Coming Up Next                                                                          150                                
PRCFAMCHA070801040406040449000043xxRoad to HSM 2 Promo - Every Friday Night                                                                                  150                                
PRCFAMCHA070801040449040458000009NS Bumper $$$ - Dodgeball (:07-:09) APR06                                                                                   150                                
PRCFAMCHA070801040458040507000009CC Disclaimer - SLOW - Generic (:08-:10) $$$                                                                                150                                
PGRFAMCHA070801040507042737002230Life With Derek                                   EP: 06                                                        C23968A1065607BCC                              
PRCFAMCHA070801042737042754000017xxHSM 2 Movie Trailer - Premiers August 17 @ 8pm                                                                            150                                
PRCFAMCHA070801042754042939000145xxMS - Underdog - Tessa Interviews Cast - Coming S                                                                          150                                
PRCFAMCHA070801042939042948000009Naturally Sadie ID's - You're watching Family...NA                                                                          150                                
PROFAMCHA070801042948042959000011xxSummer Chill Bumpers - Generic Summer Chill (Aug                                                                          150                                
OFFFAMCHA070801042959043000000001OFF AIR                                                                                                                                                        
SO FAMCHA070802043000043011000011Sign On (oct 1)                                                                                                                                                
PRCFAMCHA070802043011043020000009CC Disclaimer - FAST - Family.ca (:08-:10) $$$                                                                              150                                
PGRFAMCHA070802043020045658002638Katie And Orbie                                   EP: 4-045                                                     C19664A1065607ECC                              
PRCFAMCHA070802045658045713000015xxPH - 04 - FRANNY/SOMETHING/HOZE  (:14 - :16) (AP                                                                          150                                
ID FAMCHA070802045713045726000013PS Playhouse AM Block Open (:10-:15) $$$                                                                                    150                                
PRCFAMCHA070802045726045735000009CC Disclaimer - FAST - Generic (:08-:10) $$$                                                                                150                                
PGRFAMCHA070802045735052005002230Franny's Feet                                     EPS # 17                                                      C23971 1065607ECC                              
PRCFAMCHA070802052005052010000005Astral ID (FEB05)                                                                                                           150                                
ID FAMCHA070802052010052023000013PS Playhouse AM Block Open (:10-:15) $$$                                                                                    150                                
PRCFAMCHA070802052023052032000009CC Disclaimer - FAST - Family.ca (:08-:10) $$$                                                                              150                                
PGRFAMCHA070802052032054303002231Something Else                                    EP: 1-012                                                     B69266A1065607ECC                              
ID FAMCHA070802054303054316000013PS Playhouse AM Block Open (:10-:15) $$$                                                                                    150                                
PRCFAMCHA070802054316054325000009CC Disclaimer - FAST - Generic (:08-:10) $$$                                                                                150                                
PGRFAMCHA070802054325060603002238Hoze Houndz                                       EPS # 6-068                                                   C22818A1065607ECC                              
PRCFAMCHA070802060603060608000005Astral ID (FEB05)                                                                                                           150                                
ID FAMCHA070802060608060621000013PS Playhouse AM Block Open (:10-:15) $$$                                                                                    150                                
PRCFAMCHA070802060621060630000009CC Disclaimer - FAST - Family.ca (:08-:10) $$$                                                                              150                                
PGRFAMCHA070802060630063035002405Henry's World                                     EPS # 2-021                                                   B81052A1065607GCC                              
ID FAMCHA070802063035063048000013PS Playhouse AM Block Open (:10-:15) $$$                                                                                    150                                
PRCFAMCHA070802063048063057000009CC Disclaimer - FAST - Generic (:08-:10) $$$                                                                                150                                
PGRFAMCHA070802063057065327002230King                                              EP: 4-044                                                     C25350 1065607ECC                              
PRCFAMCHA070802065327065332000005Astral ID (FEB05)                                                                                                           150                                
PRCFAMCHA070802065332065347000015xxMMM - 01 (AM) - KIM/RECESS/WEEKENDERS (OCT05) (:                                                                          150                                
PROFAMCHA070802065347065403000016Kim Possible FINGER TAUNT (MMM) (July 06) Coming U                                                                          150                                
PROFAMCHA070802065403065448000045Recess - SNACKS FOR SNITCHES (MMM) - (MAY06) - Thi                                                                          150                                
PROFAMCHA070802065448065527000039Weekenders - (MMM) Alternate Universe - This Morni                                                                          150                                
PRCFAMCHA070802065527065541000014xxDC Games 2007 IDs - Jason Earles - Saturday Afte                                                                          150                                
PROFAMCHA070802065541065600000019MadMadMornings Block Open $$$                                                                                               150                                
PRCFAMCHA070802065600065609000009CC Disclaimer - FAST - Family.ca (:08-:10) $$$                                                                              150                                
PGRFAMCHA070802065609071857002248Disney's Kim Possible                             EPS # 1-024                                                         A6068607ECC                              
PRCFAMCHA070802071857071912000015xxMMM - 02 (AM) - RECESS/WEEKENDERS/LILO (OCT05) (                                                                          150                                
PRCFAMCHA070802071912071929000017xxHSM 2 Movie Trailer - Premiers August 17 @ 8pm                                                                            150                                
PROFAMCHA070802071929071953000024Recess - MONTAGE (MMM) - (JULY06) - Coming Up Next                                                                          150                                
PROFAMCHA070802071953072030000037xxFamily Fest Phase 2 (July 30-Sept.2) $$$                                                                                  150                                
PROFAMCHA070802072030072109000039Weekenders - (MMM) Alternate Universe - This Morni                                                                          150                                
PRCFAMCHA070802072109072236000127xxGet'cha Head In The Game - Soccer Version 1                                                                               150                                
PROFAMCHA070802072236072301000025xxLilo & Stitch (MMM) (APR06) CRAM - This Morning                                                                           150                                
PGRFAMCHA070802072301072341000040xxSummer Chill Event Spot  REVISED (Till Aug 26)                                                                      A60688120                                
PROFAMCHA070802072341072400000019MadMadMornings Block Open $$$                                                                                               150                                
PGRFAMCHA070802072400074635002235Disney's Recess                                   EP: 1-003                                                            6068607E                                
PRCFAMCHA070802074635074640000005Astral ID (FEB05)                                                                                                           150                                
PRCFAMCHA070802074640074654000014xxPH - 09 - WEEKENDERS/LILO/EINSTEINS (:14 - :16)                                                                           150                                
PROFAMCHA070802074654074726000032xxDC Games 2007 Game Face - Sat afternoons after y                                                                          150                                
PROFAMCHA070802074726074805000039Weekenders - (MMM) Alternate Universe - Coming Up                                                                           150                                
PROFAMCHA070802074805074835000030xxSuite Life Vol. 2 Blast - Available Aug 07 (July                                                                          150                                
PROFAMCHA070802074835074900000025xxLilo & Stitch (MMM) (APR06) CRAM - This Morning                                                                           150                                
PROFAMCHA070802074900074907000007MadMadMornings Bumper                                                                                                       150                                
PROFAMCHA070802074907074925000018Kim Possible WHEELS MD (MAY 07) This afternoon @ 1                                                                          150                                
PROFAMCHA070802074925074956000031American Dragon Jake Long (MD) (APR07) HERO This A                                                                          150                                
PROFAMCHA070802074956075032000036xxBratz Kidz Sleep-Over Contest Available Now (Jul                                                                          150                                
PRCFAMCHA070802075032075041000009xxHSM 2 ID - Corbin Blue - Premiering August 17 @                                                                           150                                
PROFAMCHA070802075041075100000019MadMadMornings Block Open $$$                                                                                               150                                
PRCFAMCHA070802075100075109000009CC Disclaimer - FAST - Generic (:08-:10) $$$                                                                                150                                
PGRFAMCHA070802075109081403002254Disney's The Weekenders                           EP: 1-003                                                           A6068607ECC                              
PROFAMCHA070802081403081433000030Popcorn Pix - Slapstick - Friday Night @ 7:30pm                                                                             150                                
PROFAMCHA070802081433081458000025xxLilo & Stitch (MMM) (APR06) CRAM - Coming up Nex                                                                          150                                
PROFAMCHA070802081458081535000037xxFamily Fest Phase 2 (July 30-Sept.2) $$$                                                                                  150                                
PROFAMCHA070802081535081559000024Recess - MONTAGE (MD) - JULY06 - This morn @ 11:50                                                                          150                                
PROFAMCHA070802081559081618000019Emperor's New School - Too Much Info - This Aftern                                                                          150                                
PRCFAMCHA070802081618081658000040Magazine Spot (MD,NS,NSW) 2/3 day (not in PH) (til                                                                          150                                
PGRFAMCHA070802081658081741000043xxSummer Chill Contest - Sing it All or Nothing (t                                                                    A60688120                                
PROFAMCHA070802081741081800000019MadMadMornings Block Open $$$                                                                                               150                                
PGRFAMCHA070802081800084039002239Disney's Lilo & Stitch                            EPS # 39                                                            A6068607E                                
PRCFAMCHA070802084039084044000005Astral ID (FEB05)                                                                                                           150                                
PROFAMCHA070802084044084123000039Little Einstein (PH) LOVE - Coming Up Next (MAY07)                                                                          150                                
PGRFAMCHA070802084123084418000255They Might Be Giants (ABC's) - The Alphabet Lost a                                                                     60688120                                
PROFAMCHA070802084418084448000030Mickey Mouse Clubhouse GENERIC - This Morning @ 10                                                                          150                                
ID FAMCHA070802084448084500000012PS Playhouse AM Block Open (:10-:15) $$$                                                                                    150                                
PGRFAMCHA070802084500090905002405Disney's Little Einsteins                         EP: 02                                                               6068607E                                
PRCFAMCHA070802090905090935000030Franny's Feet - Concept  (APR06)(PH-M/Wknd) - Comi                                                                          150                                
PROFAMCHA070802090935091006000031xxJohnny and the Sprites (CRAZY THINGS) (PH) This                                                                           150                                
PROFAMCHA070802091006091048000042xxHigglytown HEROES - (MAR07) - This morning @ 10:                                                                          150                                
ID FAMCHA070802091048091100000012PS Playhouse AM Block Open (:10-:15) $$$                                                                                    150                                
PRCFAMCHA070802091100091109000009CC Disclaimer - FAST - Family.ca (:08-:10) $$$                                                                              150                                
PGRFAMCHA070802091109093339002230Franny's Feet                                     EPS # 34                                                      C23971 1065607ECC                              
PRCFAMCHA070802093339093344000005Astral ID (FEB05)                                                                                                           150                                
PRCFAMCHA070802093344093404000020Benjamin Bear - Snack (PH) (APR06) - Coming Up Nex                                                                          150                                
PGRFAMCHA070802093404093549000145They Might Be Giants (ABC's) - D and W                                                                                 60688120                                
PRCFAMCHA070802093549093620000031King (PH) (APR06) - This Morning @ 11:25am                                                                                  150                                
PROFAMCHA070802093620093649000029xxBear In The Big Blue House (BOOK) (PH TUES) Tues                                                                          150                                
ID FAMCHA070802093649093700000011PS Playhouse AM Block Open (:10-:15) $$$                                                                                    150                                
PRCFAMCHA070802093700093710000010CC Disclaimer - FAST - Generic (:08-:10) $$$                                                                                150                                
PGRFAMCHA070802093710095945002235The Secret World Of Benjamin Bear                 EPS # 1-008                                                   B75153 1065607ECC                              
PROFAMCHA070802095945100015000030Mickey Mouse Clubhouse GENERIC - Coming Up Next                                                                             150                                
PGRFAMCHA070802100015100303000248xxMV Disney - (PH) - Teacher's Pet (Christy Romano                                                                     60688120                                
PROFAMCHA070802100303100345000042xxHigglytown HEROES - (MAR07) - This morning @ 10:                                                                          150                                
ID FAMCHA070802100345100400000015PS Playhouse AM Block Open (:10-:15) $$$                                                                                    150                                
PGRFAMCHA070802100400102802002402Disney's Mickey Mouse Clubhouse                   EP: 09                                                               6068607E                                
PRCFAMCHA070802102802102807000005Astral ID (FEB05)                                                                                                           150                                
