SO FAMCHA050201043000043011000011Sign On (oct 1)                                                                                                                                                
PROFAMCHA050201043011043020000009CC Disclaimer - FAST - Family.ca (:08-:10)                                                                                  150                                
PGRFAMCHA050201043020045313002253Franklin                                          EP: 4-040                                                     B38147A1065607ECC                              
PROFAMCHA050201045313045328000015PS - 01(PH) - WTP/Benjamin/Franny                                                                                           150                                
ID FAMCHA050201045328045341000013PS Playhouse AM Block Open (:10-:15)                                                                                        150                                
PROFAMCHA050201045341045350000009CC Disclaimer - FAST - Family.ca (:08-:10)                                                                                  150                                
PGRFAMCHA050201045350051620002230King                                              EPS # 2-023                                                   B75778A1065607ECC                              
PROFAMCHA050201051620051635000015PS - 01(PH) - WTP/Benjamin/Franny                                                                                           150                                
ID FAMCHA050201051635051648000013PS Playhouse AM Block Open (:10-:15)                                                                                        150                                
PROFAMCHA050201051648051657000009CC Disclaimer - FAST - Family.ca (:08-:10)                                                                                  150                                
PGRFAMCHA050201051657054335002638Katie And Orbie                                   EP: 5-055                                                     C19665A1065607ECC3                             
PROFAMCHA050201054335054351000016PS - 01(PH) - WTP/Benjamin/Franny                                                                                           150                                
ID FAMCHA050201054351054404000013PS Playhouse AM Block Open (:10-:15)                                                                                        150                                
PROFAMCHA050201054404054413000009CC Disclaimer - FAST - Family.ca (:08-:10)                                                                                  150                                
PGRFAMCHA050201054413060706002253Franklin                                          EP: 4-041                                                     B38148A1065607ECC                              
PROFAMCHA050201060706060721000015PS - 01(PH) - WTP/Benjamin/Franny                                                                                           150                                
ID FAMCHA050201060721060734000013PS Playhouse AM Block Open (:10-:15)                                                                                        150                                
PROFAMCHA050201060734060743000009CC Disclaimer - FAST - Family.ca (:08-:10)                                                                                  150                                
PGRFAMCHA050201060743063014002231Something Else                                    EP: 1-011                                                     B69265A1065607ECC                              
PROFAMCHA050201063014063029000015PS - 01(PH) - WTP/Benjamin/Franny                                                                                           150                                
ID FAMCHA050201063029063044000015PS Playhouse AM Block Open (:10-:15)                                                                                        150                                
PROFAMCHA050201063044063054000010CC Disclaimer - FAST - Family.ca (:08-:10)                                                                                  150                                
PGRFAMCHA050201063054065329002235Hoze Houndz                                       EP: 2-020                                                     B34009 1065607ECC                              
PROFAMCHA050201065329065345000016PS - 01(PH) - WTP/Benjamin/Franny                                                                                           150                                
ID FAMCHA050201065345065400000015Mad Dash Block Open (:13-:15)                                                                                               150                                
PROFAMCHA050201065400065409000009CC Disclaimer - FAST - Family.ca (:08-:10)                                                                                  150                                
PGRFAMCHA050201065409071647002238Disney's Aladdin                                  EP: 1-039                                                            6068607ECC                              
PROFAMCHA050201071647071702000015PS - 01(PH) - WTP/Benjamin/Franny                                                                                           150                                
PROFAMCHA050201071702071732000030Kim Possible (NOV2003) - (MD) - Coming Up                                                                                   150                                
PROFAMCHA050201071732071800000028Lilo & Stitch (MD/AM) (JAN05) - Today @ 7:50am                                                                              150                                
PROFAMCHA050201071800071824000024Jason (Hiking) - Today @ 11:25am                                                                                            150                                
INTFAMCHA050201071824071916000052xxGagsters - Balloon Busters                      EP: 46                                                              A20686120                                
PROFAMCHA050201071916071947000031Hercules (Wits) - Today @ 12:10pm                                                                                           150                                
PROFAMCHA050201071947072017000030Brotherly Love (NSW) - Tomorrow @ 11:30am                                                                                   150                                
PRCFAMCHA050201072017072047000030Mad Dash - AM (OLDER) - You're Watching                                                                                     150                                
ID FAMCHA050201072047072100000013Mad Dash Block Open (:13-:15)                                                                                               150                                
PGRFAMCHA050201072100074351002251Disney's Kim Possible                             EPS # 1-023                                                         A6068607E                                
PROFAMCHA050201074351074406000015PS - 01(PH) - WTP/Benjamin/Franny                                                                                           150                                
PROFAMCHA050201074406074434000028Lilo & Stitch (MD) (JAN05) - Coming Up Next                                                                                 150                                
PROFAMCHA050201074434074458000024Jason (Hiking) - Today @ 11:25am                                                                                            150                                
PROFAMCHA050201074458074529000031Hercules (Wits) - Today @ 12:10pm                                                                                           150                                
PROFAMCHA050201074529074603000034Fillmore (STYLISH) - (NSW) - Weekends @ 4:15pm                                                                              150                                
PRCFAMCHA050201074603074648000045Famous Players Popcorn Parties                                                                                              150                                
PROFAMCHA050201074648074719000031Proud Family (BOND) - (MD) - Coming Up                                                                                      150                                
PROFAMCHA050201074719074749000030Brotherly Love (NSW) - Tomorrow @ 11:30am                                                                                   150                                
PROFAMCHA050201074749074817000028Proud Family (BOND) - (MD) - Coming Up                                                                                      150                                
PRCFAMCHA050201074817074847000030Mad Dash - AM (OLDER) - You're Watching                                                                                     150                                
ID FAMCHA050201074847074900000013Mad Dash Block Open (:13-:15)                                                                                               150                                
PGRFAMCHA050201074900081139002239Disney's Lilo & Stitch                            EPS # 22                                                            A6068607E                                
PROFAMCHA050201081139081154000015PS - 01(PH) - WTP/Benjamin/Franny                                                                                           150                                
PRCFAMCHA050201081154081224000030Mad Dash - AM (YOUNGER) - You're Watching                                                                                   150                                
PROFAMCHA050201081224081248000024Jason (Hiking) - Today @ 11:25am                                                                                            150                                
PROFAMCHA050201081248081316000028Lilo & Stitch (MD/L) (JAN05) - Today @ 11:50am                                                                              150                                
PROFAMCHA050201081316081340000024Hercules (Count) - Today @ 12:10pm                                                                                          150                                
INTFAMCHA050201081340081518000138xxGagsters - Excuse Me                            EP: 46                                                              A20686120                                
PROFAMCHA050201081518081548000030xxWeekenders (REALITY) - Coming Up                                                                                          150                                
PROFAMCHA050201081548081618000030Kim Possible (NOV2003) - (MD) - Coming Up                                                                                   150                                
PROFAMCHA050201081618081646000028Proud Family (BOND) - (MD) - Coming Up                                                                                      150                                
ID FAMCHA050201081646081700000014Mad Dash Block Open (:13-:15)                                                                                               150                                
PROFAMCHA050201081700081709000009CC Disclaimer - FAST - Family.ca (:08-:10)                                                                                  150                                
PGRFAMCHA050201081709084011002302The Little Mermaid                                EP: 1-022                                                            6068607ECC                              
PROFAMCHA050201084011084026000015PS - 01(PH) - WTP/Benjamin/Franny                                                                                           150                                
PRCFAMCHA050201084026084058000032Benjamin Bear (PH) - Coming Up Next                                                                                         150                                
PROFAMCHA050201084058084127000029Winnie the Pooh (TRAP) (PH/AM) - Today @ 9:10am                                                                             150                                
PROFAMCHA050201084127084157000030Jojo's Circus - (PH/AM) - Weekdays @ 9:45am                                                                                 150                                
PROFAMCHA050201084157084241000044xxStanley - (AUG04) - (PH-M/W/F) - Today @ 10:05am                                                                          150                                
PRCFAMCHA050201084241084327000046Playhouse - STANLEY - Squirrel Song                                                                                         150                                
PROFAMCHA050201084327084346000019Henry's World (JAN05) - Today @ 10:35am                                                                                     150                                
PRCFAMCHA050201084346084417000031King (FRIENDS/0804) (PH/AM) - Weekdays @ 11am                                                                               150                                
PRCFAMCHA050201084417084447000030Franny's Feet (PH-M/W/F) - Tomorrow @ 8:45am                                                                                150                                
ID FAMCHA050201084447084500000013PS Playhouse AM Block Open (:10-:15)                                                                                        150                                
PROFAMCHA050201084500084509000009CC Disclaimer - FAST - Family.ca (:08-:10)                                                                                  150                                
PGRFAMCHA050201084509090744002235The Secret World Of Benjamin Bear                 EPS # 1-007                                                   A75152A1065607ECC                              
PROFAMCHA050201090744090759000015PS - 01(PH) - WTP/Benjamin/Franny                                                                                           150                                
PROFAMCHA050201090759090828000029Winnie the Pooh (TRAP) (PH/AM) - Coming Up Next                                                                             150                                
PROFAMCHA050201090828090858000030Jojo's Circus - (PH/AM) - Weekdays @ 9:45am                                                                                 150                                
PROFAMCHA050201090858090942000044xxStanley - (AUG04) - (PH-M/W/F) - Today @ 10:05am                                                                          150                                
INTFAMCHA050201090942091157000215Disney Circle Time - Endless Story (anywhere but D                                                                     60688120                                
PROFAMCHA050201091157091216000019Henry's World (JAN05) - Today @ 10:35am                                                                                     150                                
PRCFAMCHA050201091216091247000031King (FRIENDS/0804) (PH/AM) - Weekdays @ 11am                                                                               150                                
ID FAMCHA050201091247091300000013PS Playhouse AM Block Open (:10-:15)                                                                                        150                                
PROFAMCHA050201091300091309000009CC Disclaimer - FAST - Family.ca (:08-:10)                                                                                  150                                
PGRFAMCHA050201091309093552002243The New Adventures of Winnie the Pooh             EP: 1-011                                                            6068607ECC                              
PROFAMCHA050201093552093607000015PS - 01(PH) - WTP/Benjamin/Franny                                                                                           150                                
PROFAMCHA050201093607093637000030Jojo's Circus - (PH/AM) - Weekdays @ 9:45am                                                                                 150                                
PROFAMCHA050201093637093721000044xxStanley - (AUG04) - (PH-M/W/F) - Today @ 10:05am                                                                          150                                
PROFAMCHA050201093721093740000019Henry's World (JAN05) - Today @ 10:35am                                                                                     150                                
PRCFAMCHA050201093740093846000106Playhouse - WINNIE THE POOH - Christopher Robin                                                                             150                                
PRCFAMCHA050201093846093917000031King (FRIENDS/0804) (PH/AM) - Weekdays @ 11am                                                                               150                                
PRCFAMCHA050201093917093947000030Franny's Feet (PH-M/W/F) - Tomorrow @ 8:45am                                                                                150                                
ID FAMCHA050201093947094001000014PS Playhouse AM Block Open (:10-:15)                                                                                        150                                
PGRFAMCHA050201094001100406002405JoJo's Circus                                     EPS # 37                                                             6028607E                                
PROFAMCHA050201100406100422000016PS - 01(PH) - WTP/Benjamin/Franny                                                                                           150                                
PROFAMCHA050201100422100506000044xxStanley - (AUG04) - (PH-M/W/F) - Coming Up Next                                                                           150                                
PROFAMCHA050201100506100525000019Henry's World (JAN05) - Today @ 10:35am                                                                                     150                                
PRCFAMCHA050201100525100556000031King (FRIENDS/0804) (PH/AM) - Weekdays @ 11am                                                                               150                                
PRCFAMCHA050201100556100626000030Franny's Feet (PH-M/W/F) - Tomorrow @ 8:45am                                                                                150                                
PRCFAMCHA050201100626100701000035Playhouse - KATIE & ORBIE - Discoveries                                                                                     150                                
INTFAMCHA050201100701100733000032Benjamin Bear (PH-T/T) Tuesday & Thursday @ 8:45am                                                                     102  120                                
PRCFAMCHA050201100733100745000012Family Bumpers - (Phase 1 Spring 04) - Funhouse (P                                                                          150                                
ID FAMCHA050201100745100800000015PS Playhouse AM Block Open (:10-:15)                                                                                        150                                
PROFAMCHA050201100800100809000009CC Disclaimer - FAST - Family.ca (:08-:10)                                                                                  150                                
PGRFAMCHA050201100809103211002402Stanley                                           EP: 1-030                                                           A6068607ECC                              
PROFAMCHA050201103211103226000015PS - 01(PH) - WTP/Benjamin/Franny                                                                                           150                                
PROFAMCHA050201103226103245000019Henry's World (JAN05) - Coming Up Next                                                                                      150                                
PRCFAMCHA050201103245103316000031King (FRIENDS/0804) (PH/AM) - Weekdays @ 11am                                                                               150                                
PRCFAMCHA050201103316103346000030Franny's Feet (PH-M/W/F) - Tomorrow @ 8:45am                                                                                150                                
ID FAMCHA050201103346103400000014PS Playhouse AM Block Open (:10-:15)                                                                                        150                                
PROFAMCHA050201103400103409000009CC Disclaimer - FAST - Family.ca (:08-:10)                                                                                  150                                
PGRFAMCHA050201103409105811002402Henry's World                                     EP: 2-026                                                     A81057A1065607GCC                              
PROFAMCHA050201105811105826000015PS - 01(PH) - WTP/Benjamin/Franny                                                                                           150                                
PRCFAMCHA050201105826105857000031King (FRIENDS/0804) (PH/AM) - Weekdays @ 11am                                                                               150                                
PRCFAMCHA050201105857105916000019Playhouse - FRANKLIN - Party                                                                                                150                                
PROFAMCHA050201105916105946000030Jojo's Circus - (PH/AM) - Weekdays @ 9:45am                                                                                 150                                
ID FAMCHA050201105946110000000014PS Playhouse AM Block Open (:10-:15)                                                                                        150                                
PROFAMCHA050201110000110009000009CC Disclaimer - FAST - Family.ca (:08-:10)                                                                                  150                                
PGRFAMCHA050201110009112239002230King                                              EPS # 2-015                                                   B75770A1065607ECC                              
PROFAMCHA050201112239112254000015PS - 01(PH) - WTP/Benjamin/Franny                                                                                           150                                
PRCFAMCHA050201112254112324000030xxMad Dash Lunch (NOV04) - Coming Up Next                                                                                   150                                
PROFAMCHA050201112324112352000028Lilo & Stitch (MD/L) (JAN05) - Today @ 11:50am                                                                              150                                
PROFAMCHA050201112352112416000024Hercules (Count) - Today @ 12:10pm                                                                                          150                                
INTFAMCHA050201112416112546000130Klootz - Olympics 02                                                                                                  A10658120                                
PROFAMCHA050201112546112616000030Brotherly Love (NSW) - Tomorrow @ 11:30am                                                                                   150                                
PROFAMCHA050201112616112640000024Jason (Hiking) - Coming Up Next                                                                                             150                                
PRCFAMCHA050201112640112647000007Family Bumpers - (Phase 2 F/W 04) - Snow Twirl (MD                                                                          150                                
ID FAMCHA050201112647112700000013Mad Dash Block Open (:13-:15)                                                                                               150                                
PGRFAMCHA050201112700114915002215Jason and the Heroes of Mount Olympus             EPS # 11                                                             6068607E                                
PROFAMCHA050201114915114930000015PS - 01(PH) - WTP/Benjamin/Franny                                                                                           150                                
PROFAMCHA050201114930114946000016Proud Family (BOND) - (MD) - Coming Up                                                                                      150                                
ID FAMCHA050201114946115000000014Mad Dash Block Open (:13-:15)                                                                                               150                                
PGRFAMCHA050201115000121239002239Disney's Lilo & Stitch                            EPS # 35                                                            A6068607E                                
PROFAMCHA050201121248121303000015PS - 01(PH) - WTP/Benjamin/Franny                                                                                           150                                
ID FAMCHA050201121303121317000014Mad Dash Block Open (:13-:15)                                                                                               150                                
PROFAMCHA050201121308121317000009CC Disclaimer - FAST - Family.ca (:08-:10)                                                                                  150                                
PGRFAMCHA050201121308121259000-09Disney's Hercules                                 EP: 1-049                                                            6068607ECC                              
PGRFAMCHA050201121317123615002258Disney's Hercules                                 EP: 1-049                                                            6068607ECC                              
PROFAMCHA050201123615123630000015PS - 01(PH) - WTP/Benjamin/Franny                                                                                           150                                
PROFAMCHA050201123630123646000016Proud Family (BOND) - (MD) - Coming Up                                                                                      150                                
ID FAMCHA050201123646123700000014Mad Dash Block Open (:13-:15)                                                                                               150                                
PROFAMCHA050201123700123709000009CC Disclaimer - FAST - Family.ca (:08-:10)                                                                                  150                                
PGRFAMCHA050201123709125955002246Goof Troop                                        EP: 1-037                                                            6068607ECC                              
PROFAMCHA050201125955130010000015PS - 01(PH) - WTP/Benjamin/Franny                                                                                           150                                
PRCFAMCHA050201130010130045000035Playhouse - KATIE & ORBIE - Discoveries                                                                                     150                                
ID FAMCHA050201130045130100000015PS Playhouse PM Block Open (:10-:15)                                                                                        150                                
PROFAMCHA050201130100130109000009CC Disclaimer - FAST - Family.ca (:08-:10)                                                                                  150                                
PGRFAMCHA050201130109132410002301The Little Mermaid                                EP: 1-028                                                            6068607ECC                              
PROFAMCHA050201132410132426000016PS - 01(PH) - WTP/Benjamin/Franny                                                                                           150                                
PRCFAMCHA050201132426132445000019Playhouse - HOZE HOUNDZ - Code Blue                                                                                         150                                
ID FAMCHA050201132445132500000015PS Playhouse PM Block Open (:10-:15)                                                                                        150                                
PROFAMCHA050201132500132509000009CC Disclaimer - FAST - Family.ca (:08-:10)                                                                                  150                                
PGRFAMCHA050201132509134746002237Disney's Aladdin                                  EP: 1-066                                                            6068607ECC                              
PROFAMCHA050201134746134801000015PS - 01(PH) - WTP/Benjamin/Franny                                                                                           150                                
ID FAMCHA050201134801134816000015PS Playhouse PM Block Open (:10-:15)                                                                                        150                                
PGRFAMCHA050201134816141104002248Disney's 101 Dalmatians: The Series               EPS # 1-041                                                         A6068607E                                
PROFAMCHA050201141104141120000016PS - 01(PH) - WTP/Benjamin/Franny                                                                                           150                                
PROFAMCHA050201141120141145000025Hoze Houndz (AUG04) (PH) - Coming Up Next                                                                                   150                                
ID FAMCHA050201141145141200000015PS Playhouse PM Block Open (:10-:15)                                                                                        150                                
PROFAMCHA050201141200141209000009CC Disclaimer - FAST - Family.ca (:08-:10)                                                                                  150                                
PGRFAMCHA050201141209143447002238Hoze Houndz                                       EP: 4-044                                                     B63380A1065607ECC                              
PROFAMCHA050201143447143502000015PS - 01(PH) - WTP/Benjamin/Franny                                                                                           150                                
PROFAMCHA050201143502143532000030Jojo's Circus - (PH/AM) - Weekdays @ 9:45am                                                                                 150                                
PRCFAMCHA050201143532143546000014Playhouse - HOZE HOUNDZ - Skater                                                                                            150                                
ID FAMCHA050201143546143600000014PS Playhouse PM Block Open (:10-:15)                                                                                        150                                
PGRFAMCHA050201143600145832002232Disney's House Of Mouse                           EP: 1-023                                                           A6068607E                                
PROFAMCHA050201145832145847000015PS - 01(PH) - WTP/Benjamin/Franny                                                                                           150                                
PROFAMCHA050201145847145921000034Fillmore (STYLISH) - (NSW) - Weekends @ 4:15pm                                                                              150                                
PROFAMCHA050201145921145945000024Jason (Hiking) - Tomorrow @ 11:25am                                                                                         150                                
ID FAMCHA050201145945150000000015Mad Dash Block Open (:13-:15)                                                                                               150                                
PGRFAMCHA050201150000152238002238Disney's Fillmore!                                EPS # 1-008                                                         A6068607E                                
PROFAMCHA050201152238152252000014PS - 01(PH) - WTP/Benjamin/Franny                                                                                           150                                
PROFAMCHA050201152252152308000016Cheetah Girls (PP) - Friday @ 7:30pm                                                                                        150                                
PROFAMCHA050201152308152338000030xxWeekenders (REALITY) - Coming Up                                                                                          150                                
PROFAMCHA050201152338152408000030Recess (AUG04) - Weekdays @ 3:50pm                                                                                          150                                
PROFAMCHA050201152408152438000030Brotherly Love (NSW) - Tomorrow @ 11:30am                                                                                   150                                
PRCFAMCHA050201152438152447000009Family Bumpers - (Phase 2 F/W 04) - Skateboard (MD                                                                          150                                
ID FAMCHA050201152447152500000013Mad Dash Block Open (:13-:15)                                                                                               150                                
PGRFAMCHA050201152500154755002255Disney's The Weekenders                           EP: 1-011                                                           A6068607E                                
PROFAMCHA050201154755154810000015PS - 01(PH) - WTP/Benjamin/Franny                                                                                           150                                
PROFAMCHA050201154810154858000048Kim Possible (NOV2003) - (MD) - Coming Up                                                                                   150                                
PROFAMCHA050201154858154914000016Cheetah Girls (PP) - Friday @ 7:30pm                                                                                        150                                
PRCFAMCHA050201154914154946000032Mad Dash - WEEKENDERS - Mom                                                                                                 150                                
ID FAMCHA050201154946155000000014Mad Dash Block Open (:13-:15)                                                                                               150                                
PGRFAMCHA050201155000161234002234Disney's Recess                                   EP: 1-002                                                            6068607E                                
PROFAMCHA050201161234161249000015PS - 01(PH) - WTP/Benjamin/Franny                                                                                           150                                
PROFAMCHA050201161249161319000030Brotherly Love (NSW) - Tomorrow @ 11:30am                                                                                   150                                
PRCFAMCHA050201161319161404000045Famous Players Popcorn Parties                                                                                              150                                
PROFAMCHA050201161404161434000030Kim Possible (NOV2003) - (MD) - Coming Up                                                                                   150                                
PROFAMCHA050201161434161509000035Kim Possible (NOV2003) - (MD) - Coming Up                                                                                   150                                
PROFAMCHA050201161509161537000028Proud Family (BOND) - (MD) - Coming Up                                                                                      150                                
PROFAMCHA050201161537161546000009Raven ID's II - You're Watching Family, NADM                                                                                150                                
ID FAMCHA050201161546161600000014Mad Dash Block Open (:13-:15)                                                                                               150                                
PGRFAMCHA050201161600163838002238Disney's Dave the Barbarian                       EPS # 11                                                             6068607E                                
PROFAMCHA050201163838163853000015PS - 01(PH) - WTP/Benjamin/Franny                                                                                           150                                
PROFAMCHA050201163853163941000048Kim Possible (NOV2003) - (MD) - Coming Up                                                                                   150                                
PROFAMCHA050201163941164011000030Kim Possible (NOV2003) - (MD) - Coming Up                                                                                   150                                
PRCFAMCHA050201164011164045000034First Daughter DVD Contest - Available Now (Jan 25                                                                          150                                
PROFAMCHA050201164045164113000028Proud Family (BOND) - (MD) - Coming Up                                                                                      150                                
PRCFAMCHA050201164113164130000017Radio Free Roscoe - Webthrow (Question Mark)                                                                                150                                
PROFAMCHA050201164130164146000016Cheetah Girls (PP) - Friday @ 7:30pm                                                                                        150                                
ID FAMCHA050201164146164200000014Mad Dash Block Open (:13-:15)                                                                                               150                                
PGRFAMCHA050201164200170454002254Disney's Kim Possible                             EPS # 1-031                                                         A6068607E                                
PROFAMCHA050201170454170508000014PS - 01(PH) - WTP/Benjamin/Franny                                                                                           150                                
PROFAMCHA050201170508170536000028Proud Family (BOND) - (MD) - Coming Up                                                                                      150                                
PRCFAMCHA050201170536170623000047Son of the Mask - In Theatres Feb 18 (Jan 31-Feb 1                                                                          150                                
PROFAMCHA050201170623170654000031xxLizzie McGuire - GROWN UP (MD) - Coming Up                                                                                150                                
PROFAMCHA050201170654170724000030That's So Raven (GOOD LIFE) - Mon to Thu @ 6:30pm                                                                           150                                
PROFAMCHA050201170724170732000008Raven ID's II - Log onto family.ca                                                                                          150                                
PROFAMCHA050201170732170748000016Cheetah Girls (PP) - Friday @ 7:30pm                                                                                        150                                
ID FAMCHA050201170748170801000013Mad Dash Block Open (:13-:15)                                                                                               150                                
PROFAMCHA050201170801170809000008CC Disclaimer - FAST - Family.ca (:08-:10)                                                                                  150                                
PGRFAMCHA050201170809173047002238The Proud Family                                  EP: 2-016                                                           A6068807ECC                              
PROFAMCHA050201173047173101000014PS - 01(PH) - WTP/Benjamin/Franny                                                                                           150                                
PROFAMCHA050201173101173149000048Kim Possible (NOV2003) - (MD) - Coming Up                                                                                   150                                
PROFAMCHA050201173149173220000031xxLizzie McGuire - GROWN UP (MD) - Coming Up                                                                                150                                
PROFAMCHA050201173220173250000030That's So Raven (GOOD LIFE) - Mon to Thu @ 6:30pm                                                                           150                                
PROFAMCHA050201173250173322000032Even Stevens (SIBLINGS) - (NS) - Coming Up                                                                                  150                                
PRCFAMCHA050201173322173331000009Radio Free Roscoe ID (MAR) - You're Watching Famil                                                                          150                                
PROFAMCHA050201173331173347000016Cheetah Girls (PP) - Friday @ 7:30pm                                                                                        150                                
ID FAMCHA050201173347173400000013Mad Dash Block Open (:13-:15)                                                                                               150                                
ID FAMCHA050201173400173407000007Magic of Disney - MAD DASH - Shape (:06-:09)                                                                                150                                
PGRFAMCHA050201173407175639002232Lizzie McGuire                                    EP: 1-022                                                           A6068607B                                
PROFAMCHA050201175639175653000014PS - 01(PH) - WTP/Benjamin/Franny                                                                                           150                                
PROFAMCHA050201175653175723000030That's So Raven (GOOD LIFE) - Mon to Thu @ 6:30pm                                                                           150                                
PRCFAMCHA050201175723175757000034First Daughter DVD Contest - Available Now (Jan 25                                                                          150                                
PROFAMCHA050201175757175829000032Even Stevens (SIBLINGS) - (NS) - Coming Up                                                                                  150                                
PROFAMCHA050201175829175855000026Smart Guy (APR04) - Mon to Thurs @ 11:30pm                                                                                  150                                
PROFAMCHA050201175855175930000035Kim Possible (NOV2003) - (MD) - Coming Up                                                                                   150                                
PROFAMCHA050201175930175946000016Cheetah Girls (PP) - Friday @ 7:30pm                                                                                        150                                
ID FAMCHA050201175946180000000014Nonstop Block Open (:14-:17)                                                                                                150                                
PGRFAMCHA050201180000182240002240That's So Raven                                   EPS # 1-022                                                         A6068807B                                
PROFAMCHA050201182240182255000015PS - 01(PH) - WTP/Benjamin/Franny                                                                                           150                                
PROFAMCHA050201182255182311000016Cheetah Girls (PP) - Friday @ 7:30pm                                                                                        150                                
PROFAMCHA050201182311182343000032Even Stevens (SIBLINGS) - (NS) - Coming Up                                                                                  150                                
PROFAMCHA050201182343182418000035Kim Possible (NOV2003) - (MD) - Coming Up                                                                                   150                                
PROFAMCHA050201182418182457000039Brotherly Love (NSW) - Tomorrow @ 11:30am                                                                                   150                                
PRCFAMCHA050201182457182542000045Famous Players Popcorn Parties                                                                                              150                                
PRCFAMCHA050201182542182612000030xxRadio Free Roscoe II - V2 (NS1) - Tonight @ 7:30                                                                          150                                
PROFAMCHA050201182612182642000030Double Teamed (SEPT12) - Next Friday @ 7:30pm                                                                               150                                
PROFAMCHA050201182642182652000010FAMJAM - Open/Close                                                                                                         150                                
INTFAMCHA050201182652182752000100MV Disney - I Can't Wait (HILARY DUFF)                                                                                 60688120                                
PROFAMCHA050201182752182806000014xxFAMJAM - Close (FAMILY) xxDNUxx                                                                                           150                                
PROFAMCHA050201182806182836000030Knock First (AUG04) (NSW/PM) - Weekends @ 7:50pm                                                                            150                                
PROFAMCHA050201182836182906000030That's So Raven (GOOD LIFE) - Mon to Thu @ 6:30pm                                                                           150                                
PRCFAMCHA050201182906182936000030Phil of the Future (NS) (PHIL) (DEC04) - Fridays @                                                                          150                                
PRCFAMCHA050201182936182945000009Family Bumpers - (Phase 1 Spring 04) - DJ Spinning                                                                          150                                
ID FAMCHA050201182945183000000015Nonstop Block Open (:14-:17)                                                                                                150                                
PROFAMCHA050201183000183009000009CC Disclaimer - FAST - Family.ca (:08-:10)                                                                                  150                                
PGRFAMCHA050201183009185251002242Even Stevens                                      EP: 1-002                                                           A6068807BCC                              
PROFAMCHA050201185251185306000015PS - 01(PH) - WTP/Benjamin/Franny                                                                                           150                                
PROFAMCHA050201185306185345000039Brotherly Love (NSW) - Tomorrow @ 11:30am                                                                                   150                                
PRCFAMCHA050201185345185415000030xxRadio Free Roscoe II - V2 (NS1) - Tonight @ 7:30                                                                          150                                
INTFAMCHA050201185415185526000111Gagsters                                          EP: 46                                                              A20686120                                
PROFAMCHA050201185526185556000030Double Teamed (SEPT12) - Next Friday @ 7:30pm                                                                               150                                
PROFAMCHA050201185556185626000030Knock First (AUG04) (NSW/PM) - Weekends @ 7:50pm                                                                            150                                
PROFAMCHA050201185626185636000010FAMJAM - Open/Close                                                                                                         150                                
INTFAMCHA050201185636185806000130MV Disney - (FAMILY HITS) That's So Raven Theme So                                                                     60688120                                
PROFAMCHA050201185806185820000014xxFAMJAM - Close (FAMILY) xxDNUxx                                                                                           150                                
PRCFAMCHA050201185820185850000030Phil of the Future (NS) (PHIL) (DEC04) - Fridays @                                                                          150                                
PROFAMCHA050201185850185916000026Smart Guy (APR04) - Mon to Thurs @ 11:30pm                                                                                  150                                
PROFAMCHA050201185916185946000030Knock First (AUG04) (NSW/PM) - Weekends @ 7:50pm                                                                            150                                
ID FAMCHA050201185946190000000014Nonstop Block Open (:14-:17)                                                                                                150                                
PGRFAMCHA050201190000192204002204Brotherly Love                                    EPS # 15                                                             6068807B                                
PROFAMCHA050201192204192218000014PS - 01(PH) - WTP/Benjamin/Franny                                                                                           150                                
PROFAMCHA050201192218192306000048Kim Possible (NOV2003) - (MD) - Coming Up                                                                                   150                                
PRCFAMCHA050201192306192336000030xxRadio Free Roscoe II - V1 (NS) - Coming Up Next                                                                           150                                
PROFAMCHA050201192336192406000030Double Teamed (SEPT12) - Next Friday @ 7:30pm                                                                               150                                
PROFAMCHA050201192406192436000030Knock First (AUG04) (NSW/PM) - Weekends @ 7:50pm                                                                            150                                
PRCFAMCHA050201192436192506000030Phil of the Future (NS) (PHIL) (DEC04) - Fridays @                                                                          150                                
PROFAMCHA050201192506192516000010FAMJAM - Open/Close                                                                                                         150                                
INTFAMCHA050201192516192839000323MV Disney - Superstition (Raven)                                                                                       60688120                                
PROFAMCHA050201192839192853000014xxFAMJAM - Close (FAMILY) xxDNUxx                                                                                           150                                
PROFAMCHA050201192853192919000026Smart Guy (APR04) - Mon to Thurs @ 11:30pm                                                                                  150                                
PROFAMCHA050201192919192935000016Cheetah Girls (PP) - Friday @ 7:30pm                                                                                        150                                
PRCFAMCHA050201192935192949000014Family Bumpers - (Phase 1 Spring 04) - Basketball                                                                           150                                
ID FAMCHA050201192949193003000014Nonstop Block Open (:14-:17)                                                                                                150                                
PROFAMCHA050201193003193012000009CC Disclaimer - FAST - Family.ca (:08-:10)                                                                                  150                                
PGRFAMCHA050201193012195242002230Radio Free Roscoe                                 EPS # 005                                                     B88720A1065607ACC                              
PROFAMCHA050201195242195257000015PS - 01(PH) - WTP/Benjamin/Franny                                                                                           150                                
PROFAMCHA050201195257195327000030Double Teamed (SEPT12) - Next Friday @ 7:30pm                                                                               150                                
PRCFAMCHA050201195327195357000030xxRadio Free Roscoe II - V1 (NS2) - Tonight @ 8:30                                                                          150                                
PRCFAMCHA050201195357195444000047Son of the Mask - In Theatres Feb 18 (Jan 31-Feb 1                                                                          150                                
PRCFAMCHA050201195444195514000030Phil of the Future (NS) (PIM) (DEC04) - Friday @ 6                                                                          150                                
PROFAMCHA050201195514195524000010FAMJAM - Open/Close                                                                                                         150                                
INTFAMCHA050201195524195739000215MV Disney - Cinderella (Cheetah Girls) - Textless                                                                      60688120                                
PROFAMCHA050201195739195753000014xxFAMJAM - Close (FAMILY) xxDNUxx                                                                                           150                                
PROFAMCHA050201195753195823000030That's So Raven (GOOD LIFE) - Mon to Thu @ 6:30pm                                                                           150                                
PROFAMCHA050201195823195855000032Even Stevens (SIBLINGS) - (NS) - Coming Up                                                                                  150                                
PRCFAMCHA050201195855195917000022Nonstop - BOY MEETS WORLD - Girl's Washroom                                                                                 150                                
PROFAMCHA050201195917195943000026Smart Guy (APR04) - Mon to Thurs @ 11:30pm                                                                                  150                                
ID FAMCHA050201195943200000000017Nonstop Block Open (:14-:17)                                                                                                150                                
PROFAMCHA050201200000200009000009CC Disclaimer - FAST - Family.ca (:08-:10)                                                                                  150                                
PGRFAMCHA050201200009202144002135Boy Meets World                                   EP: 1-147                                                           B6068807BCC                              
PROFAMCHA050201202144202159000015PS - 01(PH) - WTP/Benjamin/Franny                                                                                           150                                
PRCFAMCHA050201202159202229000030xxRadio Free Roscoe II - V2 (NS) - Coming Up Next                                                                           150                                
PROFAMCHA050201202229202259000030That's So Raven (GOOD LIFE) - Mon to Thu @ 6:30pm                                                                           150                                
PROFAMCHA050201202259202331000032Even Stevens (SIBLINGS) - (NS) - Coming Up                                                                                  150                                
PROFAMCHA050201202331202410000039Brotherly Love (NSW) - Tomorrow @ 11:30am                                                                                   150                                
PROFAMCHA050201202410202420000010FAMJAM - Open/Close                                                                                                         150                                
INTFAMCHA050201202420202815000355MV Disney - Come Clean (Hillary Duff)                                                                                  60688120                                
PROFAMCHA050201202815202829000014xxFAMJAM - Close (FAMILY) xxDNUxx                                                                                           150                                
PRCFAMCHA050201202829202859000030Phil of the Future (NS) (PHIL) (DEC04) - Fridays @                                                                          150                                
PRCFAMCHA050201202859202917000018Radio Free Roscoe - Webthrow (Waller)                                                                                       150                                
PROFAMCHA050201202917202933000016Cheetah Girls (PP) - Friday @ 7:30pm                                                                                        150                                
PRCFAMCHA050201202933202945000012Family Bumpers - (Phase 1 Spring 04) - Pillow Figh                                                                          150                                
ID FAMCHA050201202945203000000015Nonstop Block Open (:14-:17)                                                                                                150                                
PROFAMCHA050201203000203009000009CC Disclaimer - FAST - Family.ca (:08-:10)                                                                                  150                                
PGRFAMCHA050201203009205239002230Radio Free Roscoe                                 EPS # 005                                                     B88721A1065607ACC                              
PROFAMCHA050201205239205253000014Nightly Pix Line-up (SEPT) - GENERIC (:14-:16)                                                                              150                                
PROFAMCHA050201205253205309000016Cheetah Girls (PP) - Friday @ 7:30pm                                                                                        150                                
PROFAMCHA050201205309205339000030That's So Raven (GOOD LIFE) - Mon to Thu @ 6:30pm                                                                           150                                
PROFAMCHA050201205339205411000032Even Stevens (SIBLINGS) - (NS) - Coming Up                                                                                  150                                
PROFAMCHA050201205411205421000010FAMJAM - Open/Close                                                                                                         150                                
INTFAMCHA050201205421205745000324MV - 1, 2 Step (Ciara f/ Missy Elliot)                                                                                A20687120                                
PROFAMCHA050201205745205759000014xxFAMJAM - Close (FAMILY) xxDNUxx                                                                                           150                                
PROFAMCHA050201205759205838000039Brotherly Love (NSW) - Tomorrow @ 11:30am                                                                                   150                                
PRCFAMCHA050201205838205908000030Phil of the Future (NS) (PHIL) (DEC04) - Fridays @                                                                          150                                
PROFAMCHA050201205908205938000030Double Teamed (SEPT12) - Next Friday @ 7:30pm                                                                               150                                
PROFAMCHA050201205938205946000008Raven ID's II - Log onto family.ca                                                                                          150                                
ID FAMCHA050201205946210000000014Nonstop Block Open (:14-:17)                                                                                                150                                
ID FAMCHA050201210000210009000009Rating - PG - Ian (:08-:10)                                                                                                 150                                
PGRFAMCHA050201210009224713014704Baby Boom                                                                                                             B2068807D                                
PROFAMCHA050201224713224728000015PS - 01(PH) - WTP/Benjamin/Franny                                                                                           150                                
ID FAMCHA050201224728224743000015Nonstop Block Open (:14-:17)                                                                                                150                                
PROFAMCHA050201224743224752000009CC Disclaimer - SLOW - Family.ca (:08-:10)                                                                                  150                                
PGRFAMCHA050201224752230948002156Boy Meets World                                   EP: 1-079                                                           B6068807BCC                              
PROFAMCHA050201230948231003000015PS - 01(PH) - WTP/Benjamin/Franny                                                                                           150                                
ID FAMCHA050201231003231018000015Nonstop Block Open (:14-:17)                                                                                                150                                
PGRFAMCHA050201231018235859004841My So-Called Life                                 EPS # 16                                                             2068807A                                
PROFAMCHA050201235859235914000015PS - 01(PH) - WTP/Benjamin/Franny                                                                                           150                                
ID FAMCHA050201235914235929000015Nonstop Block Open (:14-:17)                                                                                                150                                
PROFAMCHA050201235929235938000009CC Disclaimer - SLOW - Family.ca (:08-:10)                                                                                  150                                
PGRFAMCHA050201235938002249002311Mentors                                           EP: 3-029                                                     C18998A1065607ACC3                             
PROFAMCHA050201002249002304000015PS - 01(PH) - WTP/Benjamin/Franny                                                                                           150                                
ID FAMCHA050201002304002319000015Nonstop Block Open (:14-:17)                                                                                                150                                
PGRFAMCHA050201002319004738002419Are You Afraid Of The Dark?                       EP: 1-003                                                     SR0302 1066807A                                
PROFAMCHA050201004738004753000015PS - 01(PH) - WTP/Benjamin/Franny                                                                                           150                                
ID FAMCHA050201004753004808000015Nonstop Block Open (:14-:17)                                                                                                150                                
PGRFAMCHA050201004808010807001959Art Attack                                        EP: 1-095                                                            60686110                                
PRCFAMCHA050201010807010837000030Astral - Clock (until June 26)                                                                                              150                                
SO FAMCHA050201010837010849000012Sign Off                                                                                                                                                       
OFFFAMCHA050201010849043000032111OFF AIR                                                                                                                                                        
SO FAMCHA050202043000043011000011Sign On (oct 1)                                                                                                                                                
PROFAMCHA050202043011043021000010CC Disclaimer - FAST - Generic (:08-:10)                                                                                    150                                
PGRFAMCHA050202043021045314002253Franklin                                          EPS # 4-042                                                   B38149A1065607ECC                              
PROFAMCHA050202045314045328000014PS - 01(PH) - WTP/Benjamin/Franny                                                                                           150                                
ID FAMCHA050202045328045338000010PS Playhouse AM Block Open (:10-:15)                                                                                        150                                
PROFAMCHA050202045338045348000010CC Disclaimer - FAST - Generic (:08-:10)                                                                                    150                                
PGRFAMCHA050202045348051618002230King                                              EPS # 2-024                                                   B75779A1065607ECC                              
PROFAMCHA050202051618051632000014PS - 01(PH) - WTP/Benjamin/Franny                                                                                           150                                
ID FAMCHA050202051632051642000010PS Playhouse AM Block Open (:10-:15)                                                                                        150                                
PROFAMCHA050202051642051652000010CC Disclaimer - FAST - Generic (:08-:10)                                                                                    150                                
PGRFAMCHA050202051652054331002639Katie And Orbie                                   EP: 5-056                                                     C19665A1065607ECC3                             
PROFAMCHA050202054331054345000014PS - 01(PH) - WTP/Benjamin/Franny                                                                                           150                                
ID FAMCHA050202054345054355000010PS Playhouse AM Block Open (:10-:15)                                                                                        150                                
PROFAMCHA050202054355054405000010CC Disclaimer - FAST - Generic (:08-:10)                                                                                    150                                
PGRFAMCHA050202054405060658002253Franklin                                          EP: 4-043                                                     B38150A1065607ECC                              
PROFAMCHA050202060658060712000014PS - 01(PH) - WTP/Benjamin/Franny                                                                                           150                                
ID FAMCHA050202060712060722000010PS Playhouse AM Block Open (:10-:15)                                                                                        150                                
PROFAMCHA050202060722060732000010CC Disclaimer - FAST - Generic (:08-:10)                                                                                    150                                
PGRFAMCHA050202060732063003002231Something Else                                    EP: 1-012                                                     B69266A1065607ECC                              
PROFAMCHA050202063003063017000014PS - 01(PH) - WTP/Benjamin/Franny                                                                                           150                                
ID FAMCHA050202063017063027000010PS Playhouse AM Block Open (:10-:15)                                                                                        150                                
PROFAMCHA050202063027063037000010CC Disclaimer - FAST - Generic (:08-:10)                                                                                    150                                
PGRFAMCHA050202063037065312002235Hoze Houndz                                       EP: 2-021                                                     B34010 1065607ECC                              
PROFAMCHA050202065312065326000014PS - 01(PH) - WTP/Benjamin/Franny                                                                                           150                                
PRCFAMCHA050202065326065356000030Mad Dash - AM (OLDER) - Coming Up Next                                                                                      150                                
ID FAMCHA050202065356065409000013Mad Dash Block Open (:13-:15)                                                                                               150                                
PROFAMCHA050202065409065419000010CC Disclaimer - FAST - Generic (:08-:10)                                                                                    150                                
PGRFAMCHA050202065419071700002241Disney's Aladdin                                  EP: 1-040                                                            6068607ECC                              
PROFAMCHA050202071700071714000014PS - 01(PH) - WTP/Benjamin/Franny                                                                                           150                                
PROFAMCHA050202071714071744000030Kim Possible (MD) (AUG04) - Tomorrow @ 4:40pm                                                                               150                                
PROFAMCHA050202071744071808000024Jason (Hiking) - Today @ 11:25am                                                                                            150                                
PRCFAMCHA050202071808071838000030Mad Dash - AM (OLDER) - You're Watching                                                                                     150                                
PROFAMCHA050202071838071902000024Hercules (Count) - Today @ 12:10pm                                                                                          150                                
PRCFAMCHA050202071902071925000023Mad Dash - WEEKENDERS - Pizza                                                                                               150                                
PROFAMCHA050202071925071959000034Fillmore (STYLISH) - (NSW) - Weekends @ 4:15pm                                                                              150                                
PROFAMCHA050202071959072047000048Kim Possible (NOV2003) - (MD) - Coming Up                                                                                   150                                
ID FAMCHA050202072047072100000013Mad Dash Block Open (:13-:15)                                                                                               150                                
PGRFAMCHA050202072100074349002249Disney's Kim Possible                             EPS # 1-024                                                         A6068607E                                
PROFAMCHA050202074349074404000015PS - 01(PH) - WTP/Benjamin/Franny                                                                                           150                                
PROFAMCHA050202074404074432000028Lilo & Stitch (MD) (JAN05) - Coming Up Next                                                                                 150                                
PRCFAMCHA050202074432074502000030xxMad Dash Lunch (NOV04 - Today @ 11:30am                                                                                   150                                
PROFAMCHA050202074502074536000034Fillmore (STYLISH) - (NSW) - Weekends @ 4:15pm                                                                              150                                
PROFAMCHA050202074536074606000030xxWeekenders (REALITY) - Coming Up                                                                                          150                                
INTFAMCHA050202074606074732000126Gagsters -  Dog Gone It                           EP: 46                                                              A20686120                                
PROFAMCHA050202074732074802000030Recess (AUG04) - Weekdays @ 3:50pm                                                                                          150                                
PROFAMCHA050202074802074832000030Brotherly Love (NSW) - Tomorrow @ 11:30am                                                                                   150                                
PRCFAMCHA050202074832074846000014Family Bumpers - (Phase 1 Spring 04) - Basketball                                                                           150                                
ID FAMCHA050202074846074900000014Mad Dash Block Open (:13-:15)                                                                                               150                                
PGRFAMCHA050202074900081139002239Disney's Lilo & Stitch                            EPS # 23                                                            A6068607E                                
PROFAMCHA050202081139081153000014PS - 01(PH) - WTP/Benjamin/Franny                                                                                           150                                
PROFAMCHA050202081153081217000024Jason (Hiking) - Today @ 11:25am                                                                                            150                                
PRCFAMCHA050202081217081247000030Mad Dash - AM (OLDER) - You're Watching                                                                                     150                                
PROFAMCHA050202081247081318000031Hercules (Wits) - Today @ 12:10pm                                                                                           150                                
PROFAMCHA050202081318081328000010FAMJAM - Open/Close                                                                                                         150                                
INTFAMCHA050202081328081426000058MV Disney - (FAMILY HITS) That's So Raven Theme So                                                                     60688120                                
PROFAMCHA050202081426081440000014xxFAMJAM - Close (FAMILY) xxDNUxx                                                                                           150                                
PROFAMCHA050202081440081514000034Fillmore (STYLISH) - (NSW) - Weekends @ 4:15pm                                                                              150                                
PROFAMCHA050202081514081602000048Kim Possible (NOV2003) - (MD) - Coming Up                                                                                   150                                
PROFAMCHA050202081602081614000012Mad Dash - RECESS - Sprinkler                                                                                               150                                
PROFAMCHA050202081614081630000016Proud Family (BOND) - (MD) - Coming Up                                                                                      150                                
PROFAMCHA050202081630081700000030Recess (AUG04) - Weekdays @ 3:50pm                                                                                          150                                
ID FAMCHA050202081700081714000014Mad Dash Block Open (:13-:15)                                                                                               150                                
PROFAMCHA050202081714081724000010CC Disclaimer - FAST - Generic (:08-:10)                                                                                    150                                
PGRFAMCHA050202081724084028002304The Little Mermaid                                EP: 1-023                                                            6068607ECC                              
PROFAMCHA050202084028084043000015PS - 01(PH) - WTP/Benjamin/Franny                                                                                           150                                
PROFAMCHA050202084043084113000030Playhouse (FUNTIMES) - (AM) - Weekdays @ 8:30am                                                                       A     150                                
PROFAMCHA050202084113084142000029Winnie the Pooh (TRAP) (PH/AM) - Today @ 9:10am                                                                             150                                
PROFAMCHA050202084142084212000030Jojo's Circus - (PH/AM) - Weekdays @ 9:45am                                                                                 150                                
INTFAMCHA050202084212084357000145Disney Circle Time - The Milkmaids Pail (anywhere                                                                      60688120                                
PROFAMCHA050202084357084441000044xxStanley - (AUG04) - (PH-M/W/F) - Today @ 10:05am                                                                          150                                
PRCFAMCHA050202084441084511000030Franny's Feet (PH) - Coming Up Next                                                                                         150                                
PRCFAMCHA050202084511084523000012Family Bumpers - (Phase 1 Spring 04) - Funhouse (P                                                                          150                                
ID FAMCHA050202084523084537000014PS Playhouse PM Block Open (:10-:15)                                                                                        150                                
PROFAMCHA050202084537084547000010CC Disclaimer - FAST - Generic (:08-:10)                                                                                    150                                
PGRFAMCHA050202084547090817002230Franny's Feet                                     EPS # 1-005                                                   B84194A1065607ECC                              
PROFAMCHA050202090817090832000015PS - 01(PH) - WTP/Benjamin/Franny                                                                                           150                                
PROFAMCHA050202090832090901000029Winnie the Pooh (TRAP) (PH/AM) - Coming Up Next                                                                             150                                
PROFAMCHA050202090901090931000030Jojo's Circus - (PH/AM) - Weekdays @ 9:45am                                                                                 150                                
PROFAMCHA050202090931091001000030Playhouse (FUNTIMES) - (AM) - Weekdays @ 8:30am                                                                       A     150                                
PROFAMCHA050202091001091045000044xxStanley - (AUG04) - (PH-M/W/F) - Today @ 10:05am                                                                          150                                
INTFAMCHA050202091045091215000130Disney Circle Time - Growing Smiles (anywhere but                                                                      60688120                                
PRCFAMCHA050202091215091247000032Benjamin Bear (PH-T/T) - Tomorrow @ 8:45am                                                                                  150                                
ID FAMCHA050202091247091300000013PS Playhouse AM Block Open (:10-:15)                                                                                        150                                
PROFAMCHA050202091300091310000010CC Disclaimer - FAST - Generic (:08-:10)                                                                                    150                                
PGRFAMCHA050202091310093551002241The New Adventures of Winnie the Pooh             EP: 1-012                                                           A6068607ECC                              
PROFAMCHA050202093551093606000015PS - 01(PH) - WTP/Benjamin/Franny                                                                                           150                                
PROFAMCHA050202093606093636000030Jojo's Circus - (PH/AM) - Weekdays @ 9:45am                                                                                 150                                
PROFAMCHA050202093636093720000044xxStanley - (AUG04) - (PH-M/W/F) - Today @ 10:05am                                                                          150                                
PRCFAMCHA050202093720093755000035Playhouse - KATIE & ORBIE - Discoveries                                                                                     150                                
PROFAMCHA050202093755093814000019Henry's World (JAN05) - Today @ 10:35am                                                                                     150                                
PROFAMCHA050202093814093844000030Princess Block (NOV04) - Today @ 1pm                                                                                        150                                
PRCFAMCHA050202093844093915000031King (FRIENDS/0804) (PH/AM) - Weekdays @ 11am                                                                               150                                
INTFAMCHA050202093915093947000032Benjamin Bear (PH-T/T) Tuesday & Thursday @ 8:45am                                                                     106  120                                
ID FAMCHA050202093947094000000013PS Playhouse AM Block Open (:10-:15)                                                                                        150                                
PGRFAMCHA050202094000100404002404JoJo's Circus                                     EPS # 27                                                             6068607E                                
PROFAMCHA050202100404100419000015PS - 01(PH) - WTP/Benjamin/Franny                                                                                           150                                
PROFAMCHA050202100419100503000044xxStanley - (AUG04) - (PH-M/W/F) - Coming Up Next                                                                           150                                
PROFAMCHA050202100503100522000019Henry's World (JAN05) - Today @ 10:35am                                                                                     150                                
PROFAMCHA050202100522100552000030Playhouse (FUNTIMES) - (AM) - Weekdays @ 8:30am                                                                       A     150                                
PRCFAMCHA050202100552100623000031King (FRIENDS/0804) (PH/AM) - Weekdays @ 11am                                                                               150                                
PRCFAMCHA050202100623100650000027Playhouse - HENRY'S WORLD - Snowball                                                                                        150                                
PROFAMCHA050202100650100715000025Hoze Houndz (Can't Fly) (PH/PM) - Today @ 2:10pm                                                                            150                                
PRCFAMCHA050202100715100747000032Benjamin Bear (PH-T/T) - Tomorrow @ 8:45am                                                                                  150                                
ID FAMCHA050202100747100800000013PS Playhouse AM Block Open (:10-:15)                                                                                        150                                
PROFAMCHA050202100800100810000010CC Disclaimer - FAST - Generic (:08-:10)                                                                                    150                                
PGRFAMCHA050202100810103212002402Stanley                                           EP: 1-031                                                           A6068607ECC                              
PROFAMCHA050202103212103227000015PS - 01(PH) - WTP/Benjamin/Franny                                                                                           150                                
PROFAMCHA050202103227103246000019Henry's World (JAN05) - Coming Up Next                                                                                      150                                
PROFAMCHA050202103246103316000030Princess Block (NOV04) - Today @ 1pm                                                                                        150                                
PRCFAMCHA050202103316103347000031King (FRIENDS/0804) (PH/AM) - Weekdays @ 11am                                                                               150                                
ID FAMCHA050202103347103400000013PS Playhouse AM Block Open (:10-:15)                                                                                        150                                
PROFAMCHA050202103400103410000010CC Disclaimer - FAST - Generic (:08-:10)                                                                                    150                                
PGRFAMCHA050202103410105803002353Henry's World                                     EP: 1-001                                                     B66543A1065607GCC                              
PROFAMCHA050202105803105819000016PS - 01(PH) - WTP/Benjamin/Franny                                                                                           150                                
PRCFAMCHA050202105819105850000031King (FRIENDS/0804) (PH/AM) - Weekdays @ 11am                                                                               150                                
PROFAMCHA050202105850105920000030Playhouse (FUNTIMES) - (AM) - Weekdays @ 8:30am                                                                       A     150                                
PROFAMCHA050202105920105945000025Hoze Houndz (Can't Fly) (PH/PM) - Today @ 2:10pm                                                                            150                                
ID FAMCHA050202105945110000000015PS Playhouse AM Block Open (:10-:15)                                                                                        150                                
PROFAMCHA050202110000110010000010CC Disclaimer - FAST - Generic (:08-:10)                                                                                    150                                
PGRFAMCHA050202110010112240002230King                                              EPS # 2-016                                                   B75771A1065607ECC                              
PROFAMCHA050202112240112255000015PS - 01(PH) - WTP/Benjamin/Franny                                                                                           150                                
PRCFAMCHA050202112255112325000030xxMad Dash Lunch (NOV04) - Coming Up Next                                                                                   150                                
PROFAMCHA050202112325112413000048Kim Possible (NOV2003) - (MD) - Coming Up                                                                                   150                                
PROFAMCHA050202112413112444000031Hercules (Wits) - Today @ 12:10pm                                                                                           150                                
PROFAMCHA050202112444112518000034Fillmore (STYLISH) - (NSW) - Weekends @ 4:15pm                                                                              150                                
PRCFAMCHA050202112518112542000024Mad Dash - RECESS - Removal                                                                                                 150                                
PROFAMCHA050202112542112612000030Recess (AUG04) - Weekdays @ 3:50pm                                                                                          150                                
PROFAMCHA050202112612112636000024Jason (Hiking) - Coming Up Next                                                                                             150                                
PRCFAMCHA050202112636112645000009Family Bumpers - (Phase 2 F/W 04) - Skateboard (MD                                                                          150                                
ID FAMCHA050202112645112700000015Mad Dash Block Open (:13-:15)                                                                                               150                                
PGRFAMCHA050202112700114915002215Jason and the Heroes of Mount Olympus             EPS # 12                                                             6068607E                                
PROFAMCHA050202114915114931000016PS - 01(PH) - WTP/Benjamin/Franny                                                                                           150                                
PROFAMCHA050202114931114943000012Mad Dash - RECESS - Sprinkler                                                                                               150                                
ID FAMCHA050202114943114958000015Mad Dash Block Open (:13-:15)                                                                                               150                                
PROFAMCHA050202114958115008000010CC Disclaimer - FAST - Generic (:08-:10)                                                                                    150                                
PGRFAMCHA050202115008121247002239Disney's Lilo & Stitch                            EPS # 36                                                            A6068607E                                
PROFAMCHA050202121247121303000016PS - 01(PH) - WTP/Benjamin/Franny                                                                                           150                                
ID FAMCHA050202121303121316000013Mad Dash Block Open (:13-:15)                                                                                               150                                
PROFAMCHA050202121316121326000010CC Disclaimer - FAST - Generic (:08-:10)                                                                                    150                                
PGRFAMCHA050202121326123627002301Disney's Hercules                                 EP: 1-050                                                            6068607ECC                              
PROFAMCHA050202123627123641000014PS - 01(PH) - WTP/Benjamin/Franny                                                                                           150                                
PRCFAMCHA050202123641123648000007xxFrankie Muniz ID - You're Watching Family                                                                                 150                                
ID FAMCHA050202123648123701000013Mad Dash Block Open (:13-:15)                                                                                               150                                
PROFAMCHA050202123701123711000010CC Disclaimer - FAST - Generic (:08-:10)                                                                                    150                                
PGRFAMCHA050202123711125954002243Goof Troop                                        EP: 1-038                                                            6068607ECC                              
PROFAMCHA050202125954130008000014PS - 01(PH) - WTP/Benjamin/Franny                                                                                           150                                
PROFAMCHA050202130008130038000030Princess Block (NOV04) - Coming Up Next                                                                                     150                                
PRCFAMCHA050202130038130052000014Playhouse - HOZE HOUNDZ - Skater                                                                                            150                                
ID FAMCHA050202130052130102000010PS Playhouse PM Block Open (:10-:15)                                                                                        150                                
PROFAMCHA050202130102130112000010CC Disclaimer - FAST - Generic (:08-:10)                                                                                    150                                
PGRFAMCHA050202130112132413002301The Little Mermaid                                EP: 1-029                                                            6068607ECC                              
PROFAMCHA050202132413132428000015PS - 01(PH) - WTP/Benjamin/Franny                                                                                           150                                
PRCFAMCHA050202132428132447000019Playhouse - FRANKLIN - Party                                                                                                150                                
ID FAMCHA050202132447132500000013PS Playhouse PM Block Open (:10-:15)                                                                                        150                                
PROFAMCHA050202132500132510000010CC Disclaimer - FAST - Generic (:08-:10)                                                                                    150                                
PGRFAMCHA050202132510134748002238Disney's Aladdin                                  EP: 1-067                                                            6068607ECC                              
PROFAMCHA050202134748134802000014PS - 01(PH) - WTP/Benjamin/Franny                                                                                           150                                
ID FAMCHA050202134802134812000010PS Playhouse PM Block Open (:10-:15)                                                                                        150                                
PGRFAMCHA050202134812141056002244Disney's 101 Dalmatians: The Series               EPS # 1-042                                                         A6068607E                                
PROFAMCHA050202141056141110000014PS - 01(PH) - WTP/Benjamin/Franny                                                                                           150                                
PRCFAMCHA050202141110141156000046Playhouse - STANLEY - Squirrel Song                                                                                         150                                
ID FAMCHA050202141156141206000010PS Playhouse PM Block Open (:10-:15)                                                                                        150                                
PROFAMCHA050202141206141216000010CC Disclaimer - FAST - Generic (:08-:10)                                                                                    150                                
PGRFAMCHA050202141216143454002238Hoze Houndz                                       EP: 4-045                                                     B63381A1065607ECC                              
PROFAMCHA050202143454143510000016PS - 01(PH) - WTP/Benjamin/Franny                                                                                           150                                
PRCFAMCHA050202143510143543000033Playhouse - HOUSE OF MOUSE - Someone's Watching                                                                             150                                
ID FAMCHA050202143543143558000015PS Playhouse PM Block Open (:10-:15)                                                                                        150                                
PGRFAMCHA050202143558145832002234Disney's House Of Mouse                           EP: 1-024                                                           A6068607E                                
PROFAMCHA050202145832145846000014PS - 01(PH) - WTP/Benjamin/Franny                                                                                           150                                
PRCFAMCHA050202145846145916000030xxMad Dash - GUIDE - Tomorrow starting @ 3pm                                                                                150                                
PROFAMCHA050202145916145951000035Kim Possible (NOV2003) - (MD) - Coming Up                                                                                   150                                
ID FAMCHA050202145951150004000013Mad Dash Block Open (:13-:15)                                                                                               150                                
PGRFAMCHA050202150004152242002238Disney's Fillmore!                                EPS # 1-009                                                         A6068607E                                
PROFAMCHA050202152242152257000015PS - 01(PH) - WTP/Benjamin/Franny                                                                                           150                                
