SO FAMCHA080601043000043011000011Sign On (oct 1)                                                                                                                                                
PRCFAMCHA080601043011043020000009CC Disclaimer - FAST - Generic (:09-:10)                                                                                    150                                
PGRFAMCHA080601043020045424002404Henry's World                                     EPS # 2-025                                                   B81056A1065607GCC                              
PRCFAMCHA080601045424045430000006Astral ID (DEC 2007)                                                                                                        150                                
PRCFAMCHA080601045430045446000016PH - 21 - BENJAMIN/FRANNY'S/KING(:14 - :16) (SEPT0                                                                          150                                
ID FAMCHA080601045446045459000013PS Playhouse AM Block Open (:10-:15)                                                                                        150                                
PRCFAMCHA080601045459045507000008CC Disclaimer - FAST - Family.ca (:08-:10)                                                                                  150                                
PGRFAMCHA080601045507051742002235The Secret World Of Benjamin Bear                 EPS # 1-008                                                   B75153 1065607ECC                              
PRCFAMCHA080601051742051757000015PH - 22 - FRANNY'S/KING (:14 - :16) (SEPT07)                                                                                150                                
ID FAMCHA080601051757051810000013PS Playhouse AM Block Open (:10-:15)                                                                                        150                                
PRCFAMCHA080601051810051819000009CC Disclaimer - FAST - Generic (:09-:10)                                                                                    150                                
PGRFAMCHA080601051819054049002230Franny's Feet                                     EPS # 1-008                                                   C23970A1065607ECC                              
PRCFAMCHA080601054049054055000006Astral ID (DEC 2007)                                                                                                        150                                
PRCFAMCHA080601054055054110000015PH - 23 - KING (:14 - :16) (SEPT07)                                                                                         150                                
ID FAMCHA080601054110054123000013PS Playhouse AM Block Open (:10-:15)                                                                                        150                                
PRCFAMCHA080601054123054132000009CC Disclaimer - FAST - Family.ca (:08-:10)                                                                                  150                                
PGRFAMCHA080601054132060402002230King                                              EPS # 028                                                     C25350 1065607ECC                              
PROFAMCHA080601060402060423000021Jetix Block Open (:18-:21)                                                                                                  150                                
PRCFAMCHA080601060423060432000009CC Disclaimer - FAST - Generic (:09-:10)                                                                                    150                                
PGRFAMCHA080601060432062704002232Power Rangers:  Operation Overdrive               EP: 30                                                               2068607BCC                              
PRCFAMCHA080601062704062710000006Astral ID (DEC 2007)                                                                                                        150                                
PRCFAMCHA080601062710062758000048Family Video Player Promo - No Tag 3/day (not in P                                                                          150                                
PRCFAMCHA080601062758062842000044xxMeet The Jonas Brothers Contest - 3-4 x Day in M                                                                          150                                
PROFAMCHA080601062842062901000019Jetix Block Open (:18-:21)                                                                                                  150                                
PRCFAMCHA080601062901062909000008CC Disclaimer - FAST - Family.ca (:08-:10)                                                                                  150                                
PGRFAMCHA080601062909065141002232Power Rangers Jungle Fury                         EP: 13                                                               2068607ACC                              
PROFAMCHA080601065141065156000015Camp Rock Promo Tease - Prems June 20 @ 8pm                                                                                 150                                
PGRFAMCHA080601065156065324000128xxReally Short Report - National Treasure 2 (Till                                                                     A60688120                                
PROFAMCHA080601065324065342000018Cory In The House IDs - (NSW) Jason - This Morning                                                                          150                                
PROFAMCHA080601065342065400000018Jetix Block Open (:18-:21)                                                                                                  150                                
PRCFAMCHA080601065400065409000009CC Disclaimer - FAST - Generic (:09-:10)                                                                                    150                                
PGRFAMCHA080601065409071640002231Yin Yang Yo!                                      EP: 04                                                               2068607ECC                              
PRCFAMCHA080601071640071646000006Astral ID (DEC 2007)                                                                                                        150                                
PROFAMCHA080601071646071724000038Radio Free Roscoe Online Promo REVISION (MD/NS/NSW                                                                          150                                
PRCFAMCHA080601071724071730000006xxFamily Bumpers - (Phase 2 F/W 04) - Gymnastics (                                                                          150                                
PROFAMCHA080601071730071740000010FAMJAM - Open/Close                                                                                                         150                                
PGRFAMCHA080601071740071840000100MV Disney - (MD/NS/NSW) - Jesse McCartney - Just S                                                                     60688120                                
PROFAMCHA080601071840071854000014xxFAMJAM - Close (FAMILY) xxDNUxx                                                                                           150                                
PRCFAMCHA080601071854071942000048Family Video Player Promo - No Tag 3/day (not in P                                                                          150                                
PROFAMCHA080601071942072000000018Jetix Block Open (:18-:21)                                                                                                  150                                
PRCFAMCHA080601072000072009000009CC Disclaimer - FAST - Family.ca (:08-:10)                                                                                  150                                
PGRFAMCHA080601072009074225002216Pucca                                             EP: 14                                                               2068607ECC                              
PRCFAMCHA080601074225074237000012NSW - 01 - HANNAH/SUITE LIFE (:11 - :13) (SEPT07)                                                                           150                                
PRCFAMCHA080601074237074321000044xxMeet The Jonas Brothers Contest - 3-4 x Day in M                                                                          150                                
PROFAMCHA080601074321074429000108xxKung Fu Panda Contest -  (May 20 - June 5) $$$                                                                            150                                
PROFAMCHA080601074429074501000032Suite Life of Z & C (NSW) Wonderful Hotel - This M                                                                          150                                
PROFAMCHA080601074501074646000145Camp Rock Trailer REVISED 2 Prems June 20 @ 8pm                                                                             150                                
PRCFAMCHA080601074646074652000006xxFamily Bumpers - Reptile Pet - Car Horn (MD/NS/N                                                                          150                                
PROFAMCHA080601074652074729000037Hannah Montana 3D Concert CD Blast (May 20 - July                                                                           150                                
PROFAMCHA080601074729074743000014Hannah Montana IDs - (NSW) Miley # 2 - Next                                                                                 150                                
PROFAMCHA080601074743074800000017Nonstop Weekend Block Open (:16-:18) APR06                                                                                  150                                
ID FAMCHA080601074800074808000008Magic of Disney - NS/NSW/PB - Shape (:06-:09)                                                                               150                                
PRCFAMCHA080601074808074817000009CC Disclaimer - FAST - Generic (:09-:10)                                                                                    150                                
PGRFAMCHA080601074817081055002238Hannah Montana                                    EP: 17                                                               6068807BCC                              
PRCFAMCHA080601081055081101000006Astral ID (DEC 2007)                                                                                                        150                                
PRCFAMCHA080601081101081114000013NSW - 02 - SUITE LIFE/ZOEY 101 (:11 - :13) (SEPT07                                                                          150                                
PROFAMCHA080601081114081144000030Suite Life of Z & C - NSW Disclaimer Coming Up Nex                                                                          150                                
PROFAMCHA080601081144081219000035xxMinutemen DVD - Available Now (May 27 - June 2)                                                                           150                                
PROFAMCHA080601081219081249000030Zoey 101 - QUINN (NSW) (MAR07) - This morning @ 8:                                                                          150                                
PGRFAMCHA080601081249081342000053Cole & Dylan Sprouse Interview 1 (No PH) (May 19 -                                                                    A10618120                                
PRCFAMCHA080601081342081356000014xxFamily Bumpers - (Phase 1 Spring 04) - Basketbal                                                                          150                                
PROFAMCHA080601081356081431000035Chronicles Of Narnia Video Game - Available Now (M                                                                          150                                
PROFAMCHA080601081431081446000015Camp Rock Promo Tease - Prems June 20 @ 8pm                                                                                 150                                
PRCFAMCHA080601081446081500000014NSW Bumper - Fashion (:12-:14) JUNE06                                                                                       150                                
ID FAMCHA080601081500081508000008Magic of Disney - MAD DASH - Wipe (:06-:09)                                                                                 150                                
PRCFAMCHA080601081508081517000009CC Disclaimer - FAST - Family.ca (:08-:10)                                                                                  150                                
PGRFAMCHA080601081517083728002211Suite Life of Zack and Cody, The                  EP: 18                                                               6068607BCC                              
PRCFAMCHA080601083728083741000013NSW - 03 - ZOEY 101/CORY IN THE HOUSE (:11 - :13)                                                                           150                                
PROFAMCHA080601083741083801000020Zoey 101 - He Loves Her 1 - (NSW) Coming Up Next (                                                                          150                                
PROFAMCHA080601083801083901000100xxKid Fit - Phase One - Audition Camp Rock Contest                                                                          150                                
PROFAMCHA080601083901083944000043Cory In The House (NSW) (MAR07) - This morning @ 9                                                                          150                                
PROFAMCHA080601083944084156000212Camp Rock DCOM Extra 1- Prems June 20 @ 8pm                                                                                 150                                
PRCFAMCHA080601084156084244000048Family Video Player Promo - No Tag 3/day (not in P                                                                          150                                
PRCFAMCHA080601084244084300000016NSW Bumper - Tennis (:15-:17) APR06                                                                                         150                                
PRCFAMCHA080601084300084309000009CC Disclaimer - FAST - Generic (:09-:10)                                                                                    150                                
PGRFAMCHA080601084309090626002317Zoey 101                                          EPS # 01                                                             2068707BCC                              
PRCFAMCHA080601090626090632000006Astral ID (DEC 2007)                                                                                                        150                                
PRCFAMCHA080601090632090643000011NSW - 04 - CORY IN THE HOUSE/RAVEN (:11 - :13) (SE                                                                          150                                
PROFAMCHA080601090643090743000100Cory In The House - Cory vs. Sophie (NSW) Coming U                                                                          150                                
PROFAMCHA080601090743090818000035xxMinutemen DVD - Available Now (May 27 - June 2)                                                                           150                                
PROFAMCHA080601090818090840000022That's So Raven (BEAR) (NSW) This Morning @ 9:40 (                                                                          150                                
PROFAMCHA080601090840091038000158Camp Rock DCOM Extra 2 - Prems June 20 @ 8pm                                                                                150                                
PROFAMCHA080601091038091108000030Wizards of Waverrly Place JUSTIN (NSW) - This Morn                                                                          150                                
PRCFAMCHA080601091108091152000044xxMeet The Jonas Brothers Contest - 3-4 x Day in M                                                                          150                                
PRCFAMCHA080601091152091200000008NSW Bumper - Dodgeball (:07-:09) APR06                                                                                      150                                
ID FAMCHA080601091200091208000008Magic of Disney - NS/NSW/PB - Shape (:06-:09)                                                                               150                                
PRCFAMCHA080601091208091217000009CC Disclaimer - FAST - Family.ca (:08-:10)                                                                                  150                                
PGRFAMCHA080601091217093418002201Cory in the House Season 2                        EP: 10                                                               6068607BCC                              
PRCFAMCHA080601093418093431000013NSW - 05 - RAVEN/PHIL (:11 - :13) (SEPT07)                                                                                  150                                
PROFAMCHA080601093431093451000020That's So Raven (JUNE06) NO PANTS (NSW) - Coming U                                                                          150                                
PROFAMCHA080601093451093536000045xxFamily Favourites - Jonas Brothers CD (May 20 -                                                                           150                                
PROFAMCHA080601093536093606000030xxWizards of Waverrly Place SIBLING (NSW) - This M                                                                          150                                
PROFAMCHA080601093606093817000211Camp Rock DCOM Extra 3 - Prems June 20 @ 8pm                                                                                150                                
PRCFAMCHA080601093817093823000006xxFamily Bumpers - Reptile Pet - Cow (MD/NS/NSW)                                                                            150                                
PROFAMCHA080601093823093918000055Disney Behind The Curtain (MD, NS, NSW) 2 x Day  (                                                                          150                                
PROFAMCHA080601093918093938000020Ned's DSSG - Drum Roll (JUNE06) NSW This Morn @ 11                                                                          150                                
PRCFAMCHA080601093938094008000030Cineplex Latest Buzz Popcorn Parties Post-Launch 3                                                                          150                                
PROFAMCHA080601094008094046000038Radio Free Roscoe Online Promo REVISION (MD/NS/NSW                                                                          150                                
PRCFAMCHA080601094046094100000014NSW Bumper - Fashion (:12-:14) JUNE06                                                                                       150                                
ID FAMCHA080601094100094107000007Magic of Disney - NS/NSW/PB - Wipe (:06-:09)                                                                                150                                
PRCFAMCHA080601094107094116000009CC Disclaimer - FAST - Generic (:09-:10)                                                                                    150                                
PGRFAMCHA080601094116100355002239That's So Raven                                   EPS # 1-022                                                          6068607BCC                              
PRCFAMCHA080601100355100401000006Astral ID (DEC 2007)                                                                                                        150                                
PROFAMCHA080601100401100431000030Camp Rock - Boy Sell Promo - Prems June 20 @ 8pm                                                                            150                                
PROFAMCHA080601100431100508000037Hannah Montana 3D Concert CD Blast (May 20 - July                                                                           150                                
PROFAMCHA080601100508100539000031Ned's DSSG - Cookie Clip (APR06)(NSW) This Morning                                                                          150                                
PRCFAMCHA080601100539100553000014xxFamily Bumpers - (Phase 1 Spring 04) - Basketbal                                                                          150                                
PGRFAMCHA080601100553100720000127xxReally Short Report - Minutemen (Till June 15)                                                                      A60688120                                
PROFAMCHA080601100720100817000057Suite Life of Z & C FABULOUS LIFESTYLES (NSW) This                                                                          150                                
PROFAMCHA080601100817100925000108xxKung Fu Panda Contest -  (May 20 - June 5) $$$                                                                            150                                
PROFAMCHA080601100925100943000018Phil of the Future IDs - Ricky Caveman - stay tune                                                                          150                                
PRCFAMCHA080601100943100959000016NSW Bumper - Tennis (:15-:17) APR06                                                                                         150                                
ID FAMCHA080601100959101007000008Magic of Disney - NS/NSW/PB - Shape (:06-:09)                                                                               150                                
PRCFAMCHA080601101007101016000009CC Disclaimer - FAST - Family.ca (:08-:10)                                                                                  150                                
PGRFAMCHA080601101016103255002239Phil of the Future                                EPS # 18                                                             6068607BCC                              
PROFAMCHA080601103255103325000030xxWizards of Waverrly Place SIBLING (NSW) - Coming                                                                          150                                
PROFAMCHA080601103325103400000035Chronicles Of Narnia Video Game - Available Now (M                                                                          150                                
PROFAMCHA080601103400103422000022Ned's DSSG - CRAZY DOG (AUG06) NSW This Morn @ 11:                                                                          150                                
PRCFAMCHA080601103422103428000006xxFamily Bumpers - Reptile Pet - Elephant (MD/NS/N                                                                          150                                
PROFAMCHA080601103428103613000145Camp Rock Trailer REVISED 2 Prems June 20 @ 8pm                                                                             150                                
PROFAMCHA080601103613103649000036Suite Life of Z & C GOLF (NSW) - This Morning @ 11                                                                          150                                
PROFAMCHA080601103649103707000018Phineas & Ferb (NSW) Candace Tease - New Episodes                                                                           150                                
PRCFAMCHA080601103707103751000044xxMeet The Jonas Brothers Contest - 3-4 x Day in M                                                                          150                                
PRCFAMCHA080601103751103759000008NSW Bumper - Dodgeball (:07-:09) APR06                                                                                      150                                
PRCFAMCHA080601103759103808000009CC Disclaimer - FAST - Generic (:09-:10)                                                                                    150                                
PGRFAMCHA080601103808110041002233Disney Wizards of Waverly Place                   EP: 14                                                               6068607BCC                              
PRCFAMCHA080601110041110047000006Astral ID (DEC 2007)                                                                                                        150                                
PRCFAMCHA080601110047110100000013NSW - 08 - NED'S/SUITE LIFE (:11 - :13) (SEPT07)                                                                            150                                
PROFAMCHA080601110100110131000031Ned's DSSG - Cookie Clip (APR06)(NSW) Coming Up Ne                                                                          150                                
PROFAMCHA080601110131110231000100xxKid Fit - Phase One - Audition Camp Rock Contest                                                                          150                                
PROFAMCHA080601110231110304000033Suite Life of Z & C SCOUT (NSW) - This Morning @ 1                                                                          150                                
PROFAMCHA080601110304110314000010FAMJAM - Open/Close                                                                                                         150                                
PGRFAMCHA080601110314110414000100MV Disney - (MD/NS/NSW) - Jesse McCartney - Just S                                                                     60688120                                
PROFAMCHA080601110414110428000014xxFAMJAM - Close (FAMILY) xxDNUxx                                                                                           150                                
PROFAMCHA080601110428110446000018Cory In The House IDs - (NSW) Jason - This Afterno                                                                          150                                
PRCFAMCHA080601110446110459000013NSW Bumper - Fashion (:12-:14) JUNE06                                                                                       150                                
PRCFAMCHA080601110459110508000009CC Disclaimer - FAST - Family.ca (:08-:10)                                                                                  150                                
PGRFAMCHA080601110508112924002416Ned's Declassified School Survival Guide          EP: 47                                                               2068807BCC                              
PRCFAMCHA080601112924112936000012NSW - 09 - SUITE LIFE/POPCORN PIX (:11 - :13) (SEP                                                                          150                                
PROFAMCHA080601112936113015000039Suite Life of Z & C - NSW - GIRLFRIEND 1 - Coming                                                                           150                                
PROFAMCHA080601113015113100000045xxFamily Favourites - Jonas Brothers CD (May 20 -                                                                           150                                
PRCFAMCHA080601113100113111000011xxFamily Bumpers - (Phase 2 F/W 04) - Science (MD-                                                                          150                                
PGRFAMCHA080601113111113146000035Cole & Dylan Sprouse Interview 2 (No PH) (May 19 -                                                                    A10618120                                
PROFAMCHA080601113146113217000031Phineas & Ferb (NSW) Perry Character Sell - New Ep                                                                          150                                
PROFAMCHA080601113217113312000055Disney Behind The Curtain (MD, NS, NSW) 2 x Day  (                                                                          150                                
PROFAMCHA080601113312113342000030Camp Rock - We Rock Promo - Prems June 20 @ 8pm                                                                             150                                
PRCFAMCHA080601113342113358000016NSW Bumper - Tennis (:15-:17) APR06                                                                                         150                                
ID FAMCHA080601113358113406000008Magic of Disney - NS/NSW/PB - Shape (:06-:09)                                                                               150                                
PRCFAMCHA080601113406113415000009CC Disclaimer - FAST - Generic (:09-:10)                                                                                    150                                
PGRFAMCHA080601113415115654002239Suite Life of Zack & Cody, The                    EP: 15                                                               6068607BCC                              
PRCFAMCHA080601115654115700000006Astral ID (DEC 2007)                                                                                                        150                                
PRCFAMCHA080601115700115711000011NSW - 10 - POPCORN PIX/POPCORN PIX (:11 - :13) (SE                                                                          150                                
PROFAMCHA080601115711115741000030Camp Rock - Boy Sell Promo - Prems June 20 @ 8pm                                                                            150                                
PROFAMCHA080601115741115849000108xxKung Fu Panda Contest -  (May 20 - June 5) $$$                                                                            150                                
PROFAMCHA080601115849115939000050PHD Promo - MFT&P - Super Sleuth Week Promo - Star                                                                          150                                
ID FAMCHA080601115939115959000020Popcorn Pix Block Open (JUNE 06) (:18-:20)                                                                                  150                                
ID FAMCHA080601115959120009000010Ratings - G - Popcorn Pix Only (July 07)                                                                                    150                                
PRCFAMCHA080601120009120018000009CC Disclaimer - FAST - Family.ca (:08-:10)                                                                                  150                                
ID FAMCHA080601120018120026000008Magic of Disney - PIX - Shape (:06-:09)                                                                                     150                                
PGRFAMCHA080601120026133726013700Zenon, Girl Of The 21st Century                                                                                       A6068807CCC                              
ID FAMCHA080601133726133745000019Popcorn Pix Block Open (JUNE 06) (:18-:20)                                                                                  150                                
ID FAMCHA080601133745133755000010Ratings - G - Popcorn Pix Only (July 07)                                                                                    150                                
PRCFAMCHA080601133755133804000009CC Disclaimer - FAST - Generic (:09-:10)                                                                                    150                                
PGRFAMCHA080601133804150716012912Coyote Summer                                                                                                         A2068807DCC                              
PRCFAMCHA080601150716150722000006Astral ID (DEC 2007)                                                                                                        150                                
PRCFAMCHA080601150722150734000012NSW - 13 - CORY IN THE HOUSE/SUITE LIFE (:11 - :13                                                                          150                                
PROFAMCHA080601150734150824000050PHD Promo - MFT&P - Super Sleuth Week Promo - Star                                                                          150                                
PROFAMCHA080601150824150924000100Cory In The House - Cory vs. Sophie (NSW) Coming U                                                                          150                                
PROFAMCHA080601150924151136000212Camp Rock DCOM Extra 1- Prems June 20 @ 8pm                                                                                 150                                
PROFAMCHA080601151136151233000057Suite Life of Z & C FABULOUS LIFESTYLES (NSW) This                                                                          150                                
PGRFAMCHA080601151233151401000128xxReally Short Report - National Treasure 2 (Till                                                                     A60688120                                
PROFAMCHA080601151401151450000049Proud Family (APR06) STRIKE (NSW) - This Afternoon                                                                          150                                
PROFAMCHA080601151450151500000010FAMJAM - Open/Close                                                                                                         150                                
PGRFAMCHA080601151500151848000348MV Disney - (MD/NS/NSW) - Jesse McCartney - Just S                                                                     60288120                                
PROFAMCHA080601151848151902000014xxFAMJAM - Close (FAMILY) xxDNUxx                                                                                           150                                
PROFAMCHA080601151902151932000030Phineas & Ferb (NSW) Candace Character Sell - New                                                                           150                                
PROFAMCHA080601151932152027000055Disney Behind The Curtain (MD, NS, NSW) 2 x Day  (                                                                          150                                
PROFAMCHA080601152027152059000032Kim Possible RON FACTOR (NSW) (July 06) This after                                                                          150                                
PRCFAMCHA080601152059152259000200Movie Entertainment (8)                                                                                                     150                                
PROFAMCHA080601152259152401000102Hannah Montana (NSW) Mockumentry - This Afternoon                                                                           150                                
PRCFAMCHA080601152401152431000030Cineplex Latest Buzz Popcorn Parties Post-Launch 3                                                                          150                                
PROFAMCHA080601152431152442000011Roxy Hunter ID #2 - Saturday @ 12 Noon                                                                                      150                                
PROFAMCHA080601152442152500000018Nonstop Weekend Block Open (:16-:18) APR06                                                                                  150                                
ID FAMCHA080601152500152508000008Magic of Disney - NS/NSW/PB - Shape (:06-:09)                                                                               150                                
PRCFAMCHA080601152508152517000009CC Disclaimer - FAST - Family.ca (:08-:10)                                                                                  150                                
PGRFAMCHA080601152517154753002236Cory in the House                                 EP: 18                                                               6068607BCC                              
PRCFAMCHA080601154753154806000013NSW - 14 - SUITE LIFE/PROUD FAMILY (:11 - :13) (SE                                                                          150                                
PROFAMCHA080601154806154836000030Suite Life of Z & C - NSW Disclaimer Coming Up Nex                                                                          150                                
PROFAMCHA080601154836155034000158Camp Rock DCOM Extra 2 - Prems June 20 @ 8pm                                                                                150                                
PROFAMCHA080601155034155046000012Hannah Montana IDs - (NSW) Miley # 1 - This Aftern                                                                          150                                
PRCFAMCHA080601155046155100000014NSW Bumper - Fashion (:12-:14) JUNE06                                                                                       150                                
ID FAMCHA080601155100155108000008Magic of Disney - NS/NSW/PB - Wipe (:06-:09)                                                                                150                                
PRCFAMCHA080601155108155117000009CC Disclaimer - FAST - Generic (:09-:10)                                                                                    150                                
PGRFAMCHA080601155117161356002239Suite Life of Zack & Cody, The                    EP: 13                                                               6068607BCC                              
PRCFAMCHA080601161356161402000006Astral ID (DEC 2007)                                                                                                        150                                
PROFAMCHA080601161402161437000035Proud Family - IDOL (NSW) - Coming Up Next (MARCH0                                                                          150                                
PGRFAMCHA080601161437161512000035Cole & Dylan Sprouse Interview 2 (No PH) (May 19 -                                                                    A10618120                                
PRCFAMCHA080601161512161518000006xxFamily Bumpers - Reptile Pet - Horse  (MD/NS/NSW                                                                          150                                
PROFAMCHA080601161518161729000211Camp Rock DCOM Extra 3 - Prems June 20 @ 8pm                                                                                150                                
PROFAMCHA080601161729161743000014Phil of the Future IDs - Ricky Tomato - watching f                                                                          150                                
PRCFAMCHA080601161743161800000017NSW Bumper - Tennis (:15-:17) APR06                                                                                         150                                
ID FAMCHA080601161800161808000008Magic of Disney - NS/NSW/PB - Shape (:06-:09)                                                                               150                                
PRCFAMCHA080601161808161816000008CC Disclaimer - FAST - Family.ca (:08-:10)                                                                                  150                                
PGRFAMCHA080601161816164046002230The Proud Family                                  EP: 1-008                                                           A6068607ECC                              
PRCFAMCHA080601164046164058000012NSW - 16 - PHINEAS/KIM POSSIBLE (:11 - :13) (MARCH                                                                          150                                
PROFAMCHA080601164058164115000017Phineas & Ferb (NSW) Candace Tease - Coming Up Nex                                                                          150                                
PROFAMCHA080601164115164223000108xxKung Fu Panda Contest -  (May 20 - June 5) $$$                                                                            150                                
PROFAMCHA080601164223164240000017Zoey 101 (NSW)  ZOEY, ZOEY, ZOEY - Tonight @ 7:20p                                                                          150                                
PGRFAMCHA080601164240164407000127xxReally Short Report - Minutemen (Till June 15)                                                                      A60688120                                
PRCFAMCHA080601164407164451000044xxMeet The Jonas Brothers Contest - 3-4 x Day in M                                                                          150                                
PRCFAMCHA080601164451164500000009NSW Bumper - Dodgeball (:07-:09) APR06                                                                                      150                                
PRCFAMCHA080601164500164509000009CC Disclaimer - FAST - Generic (:09-:10)                                                                                    150                                
PGRFAMCHA080601164509170739002230Phineas & Ferb                                    EP: 04                                                               6068607ECC                              
PRCFAMCHA080601170739170745000006Astral ID (DEC 2007)                                                                                                        150                                
PRCFAMCHA080601170745170758000013NSW - 17 - KIM/HANNAH (:11 - :13) (SEPT07)                                                                                  150                                
PROFAMCHA080601170758170836000038Radio Free Roscoe Online Promo REVISION (MD/NS/NSW                                                                          150                                
PROFAMCHA080601170836170908000032Kim Possible RON FACTOR (NSW) (July 06) Coming Up                                                                           150                                
PROFAMCHA080601170908170943000035Chronicles Of Narnia Video Game - Available Now (M                                                                          150                                
PRCFAMCHA080601170943170949000006xxFamily Bumpers - Reptile Pet - Lion (MD/NS/NSW)                                                                           150                                
PROFAMCHA080601170949171134000145Camp Rock Trailer REVISED 2 Prems June 20 @ 8pm                                                                             150                                
PROFAMCHA080601171134171146000012Hannah Montana IDs - (NSW) Miley # 1 - This Aftern                                                                          150                                
PRCFAMCHA080601171146171200000014NSW Bumper - Fashion (:12-:14) JUNE06                                                                                       150                                
PRCFAMCHA080601171200171209000009CC Disclaimer - FAST - Family.ca (:08-:10)                                                                                  150                                
PGRFAMCHA080601171209173500002251Disney's Kim Possible                             EP: 1-007                                                           A6068607ECC                              
PRCFAMCHA080601173500173513000013NSW - 18 - HANNAH/SADIE (:11 - :13) (SEPT07)                                                                                150                                
PRCFAMCHA080601173513173557000044xxMeet The Jonas Brothers Contest - 3-4 x Day in M                                                                          150                                
PROFAMCHA080601173557173631000034Hannah Montana (NSW) Wig Auditions - Coming Up Nex                                                                          150                                
PROFAMCHA080601173631173731000100xxKid Fit - Phase One - Audition Camp Rock Contest                                                                          150                                
PRCFAMCHA080601173731173800000029Naturally Sadie - CLIP (NSW) Tonight @ 6:05pm (MAR                                                                          150                                
PROFAMCHA080601173800173836000036Flight 29 Down - (NSW) Tonight @ 6:30pm (JUNE07)                                                                            150                                
PROFAMCHA080601173836173844000008Raven ID's II - Log onto family.ca                                                                                          150                                
PRCFAMCHA080601173844173900000016NSW Bumper - Tennis (:15-:17) APR06                                                                                         150                                
ID FAMCHA080601173900173907000007Magic of Disney - NS/NSW/PB - Wipe (:06-:09)                                                                                150                                
PRCFAMCHA080601173907173916000009CC Disclaimer - FAST - Generic (:09-:10)                                                                                    150                                
PGRFAMCHA080601173916180305002349Hannah Montana                                    EP: 01                                                               6068807BCC                              
PRCFAMCHA080601180305180311000006Astral ID (DEC 2007)                                                                                                        150                                
PRCFAMCHA080601180311180324000013NSW - 19 - SADIE/FLIGHT 29 DOWN (:11 - :13) (SEPT0                                                                          150                                
PROFAMCHA080601180324180409000045xxFamily Favourites - Jonas Brothers CD (May 20 -                                                                           150                                
PROFAMCHA080601180409180431000022That's So Raven (BEAR) (NSW) Tonight @ 7:00 (APR07                                                                          150                                
PROFAMCHA080601180431180539000108xxKung Fu Panda Contest -  (May 20 - June 5) $$$                                                                            150                                
PRCFAMCHA080601180539180551000012Naturally Sadie ID's (NOV06) - Ben - Sadie Next                                                                             150                                
PRCFAMCHA080601180551180559000008NSW Bumper - Dodgeball (:07-:09) APR06                                                                                      150                                
PRCFAMCHA080601180559180608000009CC Disclaimer - FAST - Family.ca (:08-:10)                                                                                  150                                
PGRFAMCHA080601180608182838002230Naturally, Sadie                                  EP: 16                                                        C24010 1065607ACC                              
PRCFAMCHA080601182838182851000013NSW - 20 - FLIGHT 29 DOWN/RAVEN (:11 - :13) (SEPT0                                                                          150                                
PRCFAMCHA080601182851182939000048Family Video Player Promo - No Tag 3/day (not in P                                                                          150                                
PRCFAMCHA080601182939182945000006xxFamily Bumpers - Reptile Pet - Meow (MD/NS/NSW)                                                                           150                                
PROFAMCHA080601182945183045000100xxKid Fit - Phase One - Audition Camp Rock Contest                                                                          150                                
PRCFAMCHA080601183045183059000014NSW Bumper - Fashion (:12-:14) JUNE06                                                                                       150                                
PGRFAMCHA080601183059185229002130Flight 29 Down                                    EP: 20                                                               2068807A                                
PRCFAMCHA080601185229185235000006Astral ID (DEC 2007)                                                                                                        150                                
PRCFAMCHA080601185235185248000013NSW - 21 - RAVEN/ZOEY 101 (:11 - :13) (SEPT07)                                                                              150                                
PROFAMCHA080601185248185318000030Camp Rock - Boy Sell Promo - Prems June 20 @ 8pm                                                                            150                                
PROFAMCHA080601185318185345000027That''s So Raven CLIP (NSW) Coming Up Next (APR08)                                                                          150                                
PROFAMCHA080601185345185420000035xxMinutemen DVD - Available Now (May 27 - June 2)                                                                           150                                
PROFAMCHA080601185420185450000030Zoey 101 - QUINN (NSW) (MAR07) - Tonight @ 7:25                                                                             150                                
PRCFAMCHA080601185450185528000038Life W D (NSW) Edwin Mystery Man - Tonight @ 7:50p                                                                          150                                
PRCFAMCHA080601185528185558000030Cineplex Latest Buzz Popcorn Parties Post-Launch 3                                                                          150                                
PRCFAMCHA080601185558185642000044xxMeet The Jonas Brothers Contest - 3-4 x Day in M                                                                          150                                
PRCFAMCHA080601185642185659000017NSW Bumper - Tennis (:15-:17) APR06                                                                                         150                                
ID FAMCHA080601185659185707000008Magic of Disney - NS/NSW/PB - Shape (:06-:09)                                                                               150                                
PRCFAMCHA080601185707185716000009CC Disclaimer - FAST - Generic (:09-:10)                                                                                    150                                
PGRFAMCHA080601185716192014002258That's So Raven                                   EPS # 1-039                                                          6068607BCC                              
PRCFAMCHA080601192014192027000013NSW - 21 - ZOEY 101/LIFE WITH DEREK (:11 - :13) (S                                                                          150                                
PROFAMCHA080601192027192135000108xxKung Fu Panda Contest -  (May 20 - June 5) $$$                                                                            150                                
PROFAMCHA080601192135192151000016Camp Rock ID #2 - Prems June 20 @ 8pm                                                                                       150                                
PRCFAMCHA080601192151192200000009NSW Bumper - Dodgeball (:07-:09) APR06                                                                                      150                                
PRCFAMCHA080601192200192209000009CC Disclaimer - FAST - Family.ca (:08-:10)                                                                                  150                                
PGRFAMCHA080601192209194526002317Zoey 101                                          EPS # 01                                                             2068707BCC                              
PRCFAMCHA080601194526194532000006Astral ID (DEC 2007)                                                                                                        150                                
PRCFAMCHA080601194532194545000013NSW - 22 - LIFE WITH DEREK/SUITE LIFE (:11 - :13)                                                                           150                                
PROFAMCHA080601194545194620000035xxMinutemen DVD - Available Now (May 27 - June 2)                                                                           150                                
PRCFAMCHA080601194620194631000011xxFamily Bumpers - (Phase 2 F/W 04) - Science (MD-                                                                          150                                
PROFAMCHA080601194631194731000100xxKid Fit - Phase One - Audition Camp Rock Contest                                                                          150                                
PROFAMCHA080601194731194746000015Camp Rock Promo Tease - Prems June 20 @ 8pm                                                                                 150                                
PRCFAMCHA080601194746194800000014NSW Bumper - Fashion (:12-:14) JUNE06                                                                                       150                                
PRCFAMCHA080601194800194809000009CC Disclaimer - FAST - Generic (:09-:10)                                                                                    150                                
PGRFAMCHA080601194809201039002230Life with Derek                                   EP: 19                                                        C26679A1055607BCC3                             
PRCFAMCHA080601201039201051000012NSW - 23 - SUITE LIFE/HANNAH (:11 - :13) (SEPT07)                                                                           150                                
PROFAMCHA080601201051201126000035Chronicles Of Narnia Video Game - Available Now (M                                                                          150                                
PROFAMCHA080601201126201144000018Camp Rock ID #1 - Prems June 20 @ 8pm                                                                                       150                                
PRCFAMCHA080601201144201200000016NSW Bumper - Tennis (:15-:17) APR06                                                                                         150                                
ID FAMCHA080601201200201208000008Magic of Disney - NS/NSW/PB - Wipe (:06-:09)                                                                                150                                
PRCFAMCHA080601201208201217000009CC Disclaimer - FAST - Family.ca (:08-:10)                                                                                  150                                
PGRFAMCHA080601201217203455002238Suite Life of Zack & Cody, The                    EP: 16                                                               6068607BCC                              
PRCFAMCHA080601203455203501000006Astral ID (DEC 2007)                                                                                                        150                                
PRCFAMCHA080601203501203514000013NSW - 24 - HANNAH/NIGHTLY PIX (:11 - :13) (SEPT07)                                                                          150                                
PROFAMCHA080601203514203551000037Hannah Montana 3D Concert CD Blast (May 20 - July                                                                           150                                
PRCFAMCHA080601203551203600000009NSW Bumper - Dodgeball (:07-:09) APR06                                                                                      150                                
ID FAMCHA080601203600203607000007Magic of Disney - NS/NSW/PB - Shape (:06-:09)                                                                               150                                
PRCFAMCHA080601203607203616000009CC Disclaimer - FAST - Generic (:09-:10)                                                                                    150                                
PGRFAMCHA080601203616205854002238Hannah Montana                                    EP: 10                                                               6068807BCC                              
PROFAMCHA080601205854205944000050PHD Promo - MFT&P - Super Sleuth Week Promo - Star                                                                          150                                
PROFAMCHA080601205944205959000015xxNightly Pix Movie Open (:10-:15)                                                                                          150                                
ID FAMCHA080601205959210008000009Rating - PG - Nightly Pix Only  (DEC05) (:08 - :10                                                                          150                                
PRCFAMCHA080601210008210018000010CC Disclaimer - SLOW - Family.ca (:08-:10)                                                                                  150                                
PGRFAMCHA080601210018225428015410Goonies                                                                                                               B2068807DCC                              
PROFAMCHA080601225428225438000010xxNightly Pix Movie Open (:10-:15)                                                                                          150                                
ID FAMCHA080601225438225446000008Rating - PG - Nightly Pix Only  (DEC05) (:08 - :10                                                                          150                                
PRCFAMCHA080601225446225454000008CC Disclaimer - SLOW - Generic (:08-:10)                                                                                    150                                
PGRFAMCHA080601225454002507013013Wish Upon A Star                                                                                                      B2068807DCC                              
PRCFAMCHA080601002507002513000006Astral ID (DEC 2007)                                                                                                        150                                
PRCFAMCHA080601002513002526000013NSW - 27 - SADIE/HANNAH (:11 - :13) (SEPT07)                                                                                150                                
PRCFAMCHA080601002526002606000040Naturally Sadie - ROMANTIC (NSW) Coming Up Next (M                                                                          150                                
PRCFAMCHA080601002606002658000052Life With Derek (NS) Casey & Derek - Tomorrow Nigh                                                                          150                                
PROFAMCHA080601002658002843000145Camp Rock Trailer REVISED 2 Prems June 20 @ 8pm                                                                             150                                
PROFAMCHA080601002843002937000054That's So Raven FORTUNE TELLER (NS) Tomorrow Night                                                                          150                                
PROFAMCHA080601002937002955000018Nonstop Weekend Block Open (:16-:18) APR06                                                                                  150                                
PRCFAMCHA080601002955003005000010CC Disclaimer - SLOW - Generic (:08-:10)                                                                                    150                                
PGRFAMCHA080601003005005239002234Naturally, Sadie                                  EP: 62                                                        A39184 1065607ACC                              
PRCFAMCHA080601005239005323000044xxMeet The Jonas Brothers Contest - 3-4 x Day in M                                                                          150                                
PROFAMCHA080601005323005357000034Hannah Montana (NSW) Wig Auditions - Coming Up Nex                                                                          150                                
PRCFAMCHA080601005357005542000145Movie Entertainment (8)                                                                                                     150                                
PROFAMCHA080601005542005622000040Zoey 101 (NS) SAFETY CUPCAKE - Tomorrow Night @ 6p                                                                          150                                
PROFAMCHA080601005622005632000010FAMJAM - Open/Close                                                                                                         150                                
PGRFAMCHA080601005632005802000130MV Disney - (MD/NS/NSW) - Jesse McCartney - Just S                                                                     60688120                                
PROFAMCHA080601005802005816000014xxFAMJAM - Close (FAMILY) xxDNUxx                                                                                           150                                
PROFAMCHA080601005816005913000057Suite Life of Z & C FABULOUS LIFESTYLES (NS) Tomor                                                                          150                                
PROFAMCHA080601005913005943000030Camp Rock - We Rock Promo - Prems June 20 @ 8pm                                                                             150                                
PRCFAMCHA080601005943010000000017NSW Bumper - Tennis (:15-:17) APR06                                                                                         150                                
ID FAMCHA080601010000010008000008Magic of Disney - NS/NSW/PB - Shape (:06-:09)                                                                               150                                
PRCFAMCHA080601010008010017000009CC Disclaimer - SLOW - Family.ca (:08-:10)                                                                                  150                                
PGRFAMCHA080601010017012406002349Hannah Montana                                    EP: 01                                                               6068807BCC                              
PRCFAMCHA080601012406012412000006Astral ID (DEC 2007)                                                                                                        150                                
PRCFAMCHA080601012412012421000009NSW Bumper - Dodgeball (:07-:09) APR06                                                                                      150                                
ID FAMCHA080601012421012430000009Magic of Disney - NS/NSW/PB - Wipe (:06-:09)                                                                                150                                
PRCFAMCHA080601012430012440000010CC Disclaimer - SLOW - Generic (:08-:10)                                                                                    150                                
PGRFAMCHA080601012440014718002238Cory in the House                                 EP: 12                                                               6068607BCC                              
PRCFAMCHA080601014718014731000013NSW Bumper - Fashion (:12-:14) JUNE06                                                                                       150                                
ID FAMCHA080601014731014739000008Magic of Disney - NS/NSW/PB - Shape (:06-:09)                                                                               150                                
PRCFAMCHA080601014739014747000008CC Disclaimer - SLOW - Family.ca (:08-:10)                                                                                  150                                
PGRFAMCHA080601014747021013002226Smart Guy                                         EP: 1-043                                                            6068807BCC                              
PRCFAMCHA080601021013021019000006Astral ID (DEC 2007)                                                                                                        150                                
PRCFAMCHA080601021019021030000011NSW - 31 - BOY MEETS WORLD/DEREK (:11 - :13) (SEPT                                                                          150                                
PRCFAMCHA080601021030021046000016NSW Bumper - Tennis (:15-:17) APR06                                                                                         150                                
ID FAMCHA080601021046021054000008Magic of Disney - NS/NSW/PB - Wipe (:06-:09)                                                                                150                                
PGRFAMCHA080601021054023146002052Boy Meets World                                   EP: 1-132                                                           B6068807B                                
PRCFAMCHA080601023146023159000013NSW - 32 - DEREK/CORY IN THE HOUSE (:11 - :13) (SE                                                                          150                                
PRCFAMCHA080601023159023207000008NSW Bumper - Dodgeball (:07-:09) APR06                                                                                      150                                
PRCFAMCHA080601023207023216000009CC Disclaimer - SLOW - Family.ca (:08-:10)                                                                                  150                                
PGRFAMCHA080601023216025446002230Life with Derek                                   EP: 02                                                        C23968A1065607BCC                              
PRCFAMCHA080601025446025452000006Astral ID (DEC 2007)                                                                                                        150                                
PRCFAMCHA080601025452025505000013NSW - 33 - CORY IN THE HOUSE/RAVEN (:11 - :13) (SE                                                                          150                                
PRCFAMCHA080601025505025518000013NSW Bumper - Fashion (:12-:14) JUNE06                                                                                       150                                
ID FAMCHA080601025518025524000006Magic of Disney - NS/NSW/PB - Wipe (:06-:09)                                                                                150                                
PRCFAMCHA080601025524025533000009CC Disclaimer - SLOW - Generic (:08-:10)                                                                                    150                                
PGRFAMCHA080601025533031809002236Cory in the House                                 EP: 17                                                               6068607BCC                              
PRCFAMCHA080601031809031822000013NSW - 34 - RAVEN/SUITE LIFE (:11 - :13) (SEPT07)                                                                            150                                
PRCFAMCHA080601031822031839000017NSW Bumper - Tennis (:15-:17) APR06                                                                                         150                                
ID FAMCHA080601031839031848000009Magic of Disney - NS/NSW/PB - Shape (:06-:09)                                                                               150                                
PRCFAMCHA080601031848031858000010CC Disclaimer - SLOW - Family.ca (:08-:10)                                                                                  150                                
PGRFAMCHA080601031858034120002222That's So Raven                                   EPS # 1-053                                                          6068607BCC                              
PRCFAMCHA080601034120034126000006Astral ID (DEC 2007)                                                                                                        150                                
PRCFAMCHA080601034126034139000013NSW - 35 - SUITE LIFE/DEREK (:11 - :13) (SEPT07)                                                                            150                                
PRCFAMCHA080601034139034148000009NSW Bumper - Dodgeball (:07-:09) APR06                                                                                      150                                
ID FAMCHA080601034148034157000009Magic of Disney - NS/NSW/PB - Wipe (:06-:09)                                                                                150                                
PRCFAMCHA080601034157034207000010CC Disclaimer - SLOW - Generic (:08-:10)                                                                                    150                                
PGRFAMCHA080601034207040447002240Suite Life of Zack & Cody, The                    EP: 20                                                               6068607BCC                              
PRCFAMCHA080601040447040500000013NSW - 36 - LIFE WITH DEREK (:11 - :13) (SEPT07)                                                                             150                                
PRCFAMCHA080601040500040514000014NSW Bumper - Fashion (:12-:14) JUNE06                                                                                       150                                
PRCFAMCHA080601040514040524000010CC Disclaimer - SLOW - Family.ca (:08-:10)                                                                                  150                                
PGRFAMCHA080601040524042754002230Life with Derek                                   EP: 10                                                        C26822 1065607BCC                              
PRCFAMCHA080601042754042800000006Astral ID (DEC 2007)                                                                                                        150                                
PRCFAMCHA080601042800042816000016PH - 01 - KATIE/FRANNY/SOMETHING  (:14 - :16) (SEP                                                                          150                                
PROFAMCHA080601042816042906000050PHD Promo - MFT&P - Super Sleuth Week Promo - Star                                                                          150                                
PROFAMCHA080601042906042943000037PHD Promo - A Fathers Day Handy Manny Morning - Su                                                                          150                                
ID FAMCHA080601042943042958000015PS Playhouse AM Block Open (:10-:15)                                                                                        150                                
OFFFAMCHA080601042958043000000002OFF AIR                                                                                                                                                        
SO FAMCHA080602043000043011000011Sign On (oct 1)                                                                                                                                                
PGRFAMCHA080602043011045646002635Katie And Orbie                                   EP: 1-013                                                     P16152A1065607E                                
PRCFAMCHA080602045646045702000016PH - 02 - FRANNY/SOMETHING/HOZE (:14 - :16) (SEPT0                                                                          150                                
ID FAMCHA080602045702045715000013PS Playhouse AM Block Open (:10-:15)                                                                                        150                                
PRCFAMCHA080602045715045724000009CC Disclaimer - FAST - Generic (:09-:10)                                                                                    150                                
PGRFAMCHA080602045724051954002230Franny's Feet                                     EPS # 1-008                                                   C23970A1065607ECC                              
PRCFAMCHA080602051954052000000006Astral ID (DEC 2007)                                                                                                        150                                
PRCFAMCHA080602052000052016000016PH - 03 - SOMETHING/HOZE/HENRY'S (:14 - :16) (SEPT                                                                          150                                
ID FAMCHA080602052016052029000013PS Playhouse AM Block Open (:10-:15)                                                                                        150                                
PRCFAMCHA080602052029052038000009CC Disclaimer - FAST - Family.ca (:08-:10)                                                                                  150                                
PGRFAMCHA080602052038054309002231Something Else                                    EP: 1-008                                                     B69262A1065607ECC                              
PRCFAMCHA080602054309054325000016PH - 04 - HOZE/HENRY'S/KING (:14 - :16) (SEPT07)                                                                            150                                
ID FAMCHA080602054325054338000013PS Playhouse AM Block Open (:10-:15)                                                                                        150                                
PRCFAMCHA080602054338054347000009CC Disclaimer - FAST - Generic (:09-:10)                                                                                    150                                
PGRFAMCHA080602054347060625002238Hoze Houndz                                       EPS # 6-077                                                   C22818A1065607ECC                              
PRCFAMCHA080602060625060631000006Astral ID (DEC 2007)                                                                                                        150                                
PRCFAMCHA080602060631060647000016PH - 05 - HENRY'S WORLD/KING (:14 - :16) (SEPT07)                                                                           150                                
ID FAMCHA080602060647060700000013PS Playhouse AM Block Open (:10-:15)                                                                                        150                                
PRCFAMCHA080602060700060709000009CC Disclaimer - FAST - Family.ca (:08-:10)                                                                                  150                                
PGRFAMCHA080602060709063113002404Henry's World                                     EPS # 2-025                                                   B81056A1065607GCC                              
ID FAMCHA080602063113063123000010PS Playhouse AM Block Open (:10-:15)                                                                                        150                                
PRCFAMCHA080602063123063132000009CC Disclaimer - FAST - Generic (:09-:10)                                                                                    150                                
PGRFAMCHA080602063132065402002230King                                              EP: 001                                                       B75756 1065607ECC                              
PRCFAMCHA080602065402065408000006Astral ID (DEC 2007)                                                                                                        150                                
PROFAMCHA080602065408065438000030Kim Possible EVIL (MMM) (MAY07) Coming Up Next                                                                              150                                
PROFAMCHA080602065438065523000045xxFamily Favourites - Jonas Brothers CD (May 20 -                                                                           150                                
PRCFAMCHA080602065523065532000009Naturally Sadie ID's - You're watching Family...NA                                                                          150                                
PROFAMCHA080602065532065551000019MadMadMornings Block Open                                                                                                   150                                
PRCFAMCHA080602065551065600000009CC Disclaimer - FAST - Family.ca (:08-:10)                                                                                  150                                
PGRFAMCHA080602065600071853002253Disney's Kim Possible                             EP: 05                                                               6068607ECC                              
PROFAMCHA080602071853071918000025Recess - CAREER DAY (MMM) - (JULY06) - Coming Up N                                                                          150                                
PROFAMCHA080602071918072026000108xxKung Fu Panda Contest -  (May 20 - June 5) $$$                                                                            150                                
PROFAMCHA080602072026072102000036Weekenders - PIZZA (MMM) - (APR06) - This Morning                                                                           150                                
PRCFAMCHA080602072102072302000200Movie Entertainment (8)                                                                                                     150                                
PROFAMCHA080602072302072332000030Camp Rock - Boy Sell Promo - Prems June 20 @ 8pm                                                                            150                                
PROFAMCHA080602072332072351000019MadMadMornings Block Open                                                                                                   150                                
PRCFAMCHA080602072351072401000010CC Disclaimer - FAST - Generic (:09-:10)                                                                                    150                                
PGRFAMCHA080602072401074637002236Disney's Recess                                   EP: 1-043                                                            6068607ECC                              
PRCFAMCHA080602074637074643000006Astral ID (DEC 2007)                                                                                                        150                                
PROFAMCHA080602074643074719000036Weekenders - PIZZA (MMM) - (APR06) - Coming Up Nex                                                                          150                                
PROFAMCHA080602074719074754000035Chronicles Of Narnia Video Game - Available Now (M                                                                          150                                
PROFAMCHA080602074754074824000030Kim Possible EVIL (MD) (MAY07) Today @ 12:10                                                                                150                                
PROFAMCHA080602074824074919000055Disney Behind The Curtain (MD, NS, NSW) 2 x Day  (                                                                          150                                
PROFAMCHA080602074919074950000031American Dragon Jake Long (MD) (APR07) HERO This A                                                                          150                                
PRCFAMCHA080602074950075034000044xxMeet The Jonas Brothers Contest - 3-4 x Day in M                                                                          150                                
PROFAMCHA080602075034075053000019MadMadMornings Block Open                                                                                                   150                                
PRCFAMCHA080602075053075102000009CC Disclaimer - FAST - Family.ca (:08-:10)                                                                                  150                                
PGRFAMCHA080602075102081356002254Disney's The Weekenders                           EP: 1-002                                                           A6068607ECC                              
PROFAMCHA080602081356081427000031American Dragon Jake Long (MD) (APR07) HERO Coming                                                                          150                                
PROFAMCHA080602081427081504000037Hannah Montana 3D Concert CD Blast (May 20 - July                                                                           150                                
PRCFAMCHA080602081504081510000006xxFamily Bumpers - (Phase 3 Spring 05) - Bubble Gu                                                                          150                                
PGRFAMCHA080602081510081637000127xxReally Short Report - Minutemen (Till June 15)                                                                      A60688120                                
PROFAMCHA080602081637081655000018Emperor's New School  MD - Butt In Urn - This Afte                                                                          150                                
PRCFAMCHA080602081655081725000030Cineplex Latest Buzz Popcorn Parties Post-Launch 3                                                                          150                                
PROFAMCHA080602081725081734000009Raven ID's II - You're Watching Family, NADM                                                                                150                                
PROFAMCHA080602081734081753000019MadMadMornings Block Open                                                                                                   150                                
PRCFAMCHA080602081753081803000010CC Disclaimer - FAST - Generic (:09-:10)                                                                                    150                                
PGRFAMCHA080602081803084057002254Disney's Lloyd In Space                           EP: 06                                                               6068607ECC                              
PRCFAMCHA080602084057084103000006Astral ID (DEC 2007)                                                                                                        150                                
PRCFAMCHA080602084103084119000016PH - 07 - EINSTEINS/FRANNY'S/TIGGER & POOH (:14 -                                                                           150                                
PROFAMCHA080602084119084149000030Little Einstein (PH) (PRESCHOOL) - Coming Up Next                                                                           150                                
PGRFAMCHA080602084149084349000200xxDisney Behind The Ears (PH only) PH on Stage 1 (                                                                    A60688120                                
PROFAMCHA080602084349084439000050PHD Promo - MFT&P - Super Sleuth Week Promo - Star                                                                          150                                
ID FAMCHA080602084439084450000011PS Playhouse AM Block Open (:10-:15)                                                                                        150                                
PRCFAMCHA080602084450084459000009CC Disclaimer - FAST - Family.ca (:08-:10)                                                                                  150                                
PGRFAMCHA080602084459090904002405Disney's Little Einsteins                         EP: 19                                                               6068607ECC                              
PRCFAMCHA080602090904090920000016PH - 08 - FRANNY'S/TIGGER & POOH/ CLUB HOUSE (:14                                                                           150                                
PRCFAMCHA080602090920090950000030Franny's Feet - Concept  (APR06)(PH-M/Wknd) - Comi                                                                          150                                
PRCFAMCHA080602090950091004000014xxPlayhouse - HOZE HOUNDZ - Skater                                                                                          150                                
PROFAMCHA080602091004091035000031PHD Promo - Web Sell on Family - PHD 24/7 Ooh & Aa                                                                          150                                
ID FAMCHA080602091035091050000015PS Playhouse AM Block Open (:10-:15)                                                                                        150                                
PRCFAMCHA080602091050091059000009CC Disclaimer - FAST - Generic (:09-:10)                                                                                    150                                
PGRFAMCHA080602091059093329002230Franny's Feet                                     EPS # 17                                                      C23971 1065607ECC                              
PRCFAMCHA080602093329093335000006Astral ID (DEC 2007)                                                                                                        150                                
PROFAMCHA080602093335093425000050Tigger & Pooh WHAT'S NEW (PH) Coming Up Next (SEPT                                                                          150                                
PGRFAMCHA080602093425093550000125Pixie Previews - (MMM, PH) Iredessa                                                                                   A60688120                                
PROFAMCHA080602093550093640000050PHD Promo - MFT&P - Super Sleuth Week Promo - Star                                                                          150                                
ID FAMCHA080602093640093651000011PS Playhouse AM Block Open (:10-:15)                                                                                        150                                
PRCFAMCHA080602093651093700000009CC Disclaimer - FAST - Family.ca (:08-:10)                                                                                  150                                
PGRFAMCHA080602093700100108002408Disney My Friends Tigger and Pooh                 EP: 05                                                               6068607ECC                              
PRCFAMCHA080602100108100124000016PH - 12 - CLUB HOUSE/HANDY/BENJAMIN BEAR (:14 - :1                                                                          150                                
PROFAMCHA080602100124100154000030Mickey Mouse Clubhouse GENERIC - Coming Up Next                                                                             150                                
PROFAMCHA080602100154100254000100Handy Mandy GENERIC (PH) This Morning @ 10:30am (A                                                                          150                                
PROFAMCHA080602100254100331000037PHD Promo - A Fathers Day Handy Manny Morning - Su                                                                          150                                
ID FAMCHA080602100331100343000012PS Playhouse AM Block Open (:10-:15)                                                                                        150                                
ID FAMCHA080602100343100350000007Magic of Disney - PLAYHOUSE - Shape (:06-:09)                                                                               150                                
PRCFAMCHA080602100350100359000009CC Disclaimer - FAST - Generic (:09-:10)                                                                                    150                                
PGRFAMCHA080602100359102801002402Disney's Mickey Mouse Clubhouse                   EP: 13                                                               6068607ECC                              
PRCFAMCHA080602102801102807000006Astral ID (DEC 2007)                                                                                                        150                                
PROFAMCHA080602102807102837000030Handy Mandy NEIGHBOURS (PH) Coming Up Next (APR08)                                                                          150                                
PGRFAMCHA080602102837102937000100MV Disney - (MD/NS/NSW) - Jesse McCartney - Just S                                                                     60688120                                
PROFAMCHA080602102937103027000050PHD Promo - MFT&P - Super Sleuth Week Promo - Star                                                                          150                                
ID FAMCHA080602103027103042000015PS Playhouse AM Block Open (:10-:15)                                                                                        150                                
ID FAMCHA080602103042103050000008Magic of Disney - PLAYHOUSE - Wipe (:06-:09)                                                                                150                                
PRCFAMCHA080602103050103059000009CC Disclaimer - FAST - Family.ca (:08-:10)                                                                                  150                                
PGRFAMCHA080602103059105504002405Handy Manny                                       EP: 19                                                               6068607ECC                              
PRCFAMCHA080602105504105520000016PH - 18 - BENJAMIN BEAR/KING/RECESS (:14 - :16) (S                                                                          150                                
PRCFAMCHA080602105520105540000020Benjamin Bear - Snack (PH) (APR06) - Coming Up Nex                                                                          150                                
PRCFAMCHA080602105540105559000019xxPlayhouse - HOZE HOUNDZ - Code Blue                                                                                       150                                
PROFAMCHA080602105559105636000037PHD Promo - A Fathers Day Handy Manny Morning - Su                                                                          150                                
ID FAMCHA080602105636105648000012PS Playhouse AM Block Open (:10-:15)                                                                                        150                                
PRCFAMCHA080602105648105658000010CC Disclaimer - FAST - Generic (:09-:10)                                                                                    150                                
PGRFAMCHA080602105658111928002230Secret World of Benjamin Bear, The                EP: 39                                                        C27272 1065607ECC                              
PRCFAMCHA080602111928111934000006Astral ID (DEC 2007)                                                                                                        150                                
PRCFAMCHA080602111934112005000031King (PH) (APR06) - Coming Up Next                                                                                          150                                
PGRFAMCHA080602112005112205000200MV Disney - (MD/NS/NSW) - Jesse McCartney - Just S                                                                     60688120                                
PRCFAMCHA080602112205112217000012xxFamily Bumpers - (Phase 1 Spring 04) - Funhouse                                                                           150                                
PGRFAMCHA080602112217112342000125Pixie Previews - (MMM, PH) Fawn & Butterfly                                                                           A60688120                                
PROFAMCHA080602112342112432000050PHD Promo - MFT&P - Super Sleuth Week Promo - Star                                                                          150                                
ID FAMCHA080602112432112447000015PS Playhouse AM Block Open (:10-:15)                                                                                        150                                
PRCFAMCHA080602112447112457000010CC Disclaimer - FAST - Family.ca (:08-:10)                                                                                  150                                
PGRFAMCHA080602112457114727002230King                                              EPS # 029                                                     C25350 1065607ECC                              
PRCFAMCHA080602114727114738000011MD - 01 - RECESS/KIM (:11 - :13) (SEPT07)                                                                                   150                                
PROFAMCHA080602114738114803000025Recess - CAREER DAY (MD) - (JULY06) - Coming Up Ne                                                                          150                                
PROFAMCHA080602114803114833000030Camp Rock - We Rock Promo - Prems June 20 @ 8pm                                                                             150                                
PROFAMCHA080602114833114850000017Mad Dash Block Open (:16-:18) APR06                                                                                         150                                
PRCFAMCHA080602114850114859000009CC Disclaimer - FAST - Generic (:09-:10)                                                                                    150                                
PGRFAMCHA080602114859121134002235Disney's Recess                                   EP: 1-035                                                            6068607ECC                              
PRCFAMCHA080602121134121140000006Astral ID (DEC 2007)                                                                                                        150                                
PRCFAMCHA080602121140121151000011MD - 02 - KIM/WEEKENDERS (:11 - :13) (SEPT07)                                                                               150                                
PROFAMCHA080602121151121206000015Kim Possible BOYFRIEND (MD) Coming Up Next (SEPT07                                                                          150                                
PROFAMCHA080602121206121244000038Radio Free Roscoe Online Promo REVISION (MD/NS/NSW                                                                          150                                
PRCFAMCHA080602121244121251000007MD Bumper - Ski Race (:07-:09) APR06                                                                                        150                                
PRCFAMCHA080602121251121259000008CC Disclaimer - FAST - Family.ca (:08-:10)                                                                                  150                                
PGRFAMCHA080602121259123551002252Disney's Kim Possible                             EP: 07                                                               6068607ECC                              
PRCFAMCHA080602123551123602000011MD - 03 - WEEKENDERS/AMERICAN DRAGON (:11 - :13) (                                                                          150                                
PROFAMCHA080602123602123641000039Weekenders ALT UNIVERSE (MD) Coming Up Next (SEPT0                                                                          150                                
PRCFAMCHA080602123641123649000008MD Bumper - Race Cars (:08-:10) APR06                                                                                       150                                
PRCFAMCHA080602123649123658000009CC Disclaimer - FAST - Generic (:09-:10)                                                                                    150                                
PGRFAMCHA080602123658125930002232Disney's The Weekenders                           EP: 1-019                                                           A6068607ECC                              
PRCFAMCHA080602125930125936000006Astral ID (DEC 2007)                                                                                                        150                                
PRCFAMCHA080602125936125953000017MD Bumper - Shopping Race (:15-:17) APR06                                                                                   150                                
PRCFAMCHA080602125953130001000008CC Disclaimer - FAST - Family.ca (:08-:10)                                                                                  150                                
PGRFAMCHA080602130001132240002239Disney's American Dragon: Jake Long               EP: 47                                                               6068607ECC                              
PROFAMCHA080602132240132258000018Emperor's New School  MD - Butt In Urn - Coming Up                                                                          150                                
PRCFAMCHA080602132258132342000044xxMeet The Jonas Brothers Contest - 3-4 x Day in M                                                                          150                                
PRCFAMCHA080602132342132350000008MD Bumper - Ski Race (:07-:09) APR06                                                                                        150                                
PRCFAMCHA080602132350132400000010CC Disclaimer - FAST - Generic (:09-:10)                                                                                    150                                
PGRFAMCHA080602132400134635002235Disney's The Emperor's New School                 EP: 06                                                               6068807ECC                              
PRCFAMCHA080602134635134641000006Astral ID (DEC 2007)                                                                                                        150                                
PROFAMCHA080602134641134703000022Fillmore! - POLLY (MD) (APR06) - Coming Up Next                                                                             150                                
PROFAMCHA080602134703134741000038Radio Free Roscoe Online Promo REVISION (MD/NS/NSW                                                                          150                                
PRCFAMCHA080602134741134749000008MD Bumper - Race Cars (:08-:10) APR06                                                                                       150                                
PRCFAMCHA080602134749134757000008CC Disclaimer - FAST - Family.ca (:08-:10)                                                                                  150                                
PGRFAMCHA080602134757141035002238Disney's Fillmore!                                EPS # 1-007                                                          6068607ECC                              
PRCFAMCHA080602141035141048000013MD - 07 - PROUD FAMILY/WEEKENDERS (:11 - :13) (SEP                                                                          150                                
PROFAMCHA080602141048141122000034Proud Family (APR06) GET BURNED (MD) - Coming Up N                                                                          150                                
