SO FAMCHA011201043000043011000011Sign On (oct 1)                                                                                                                                                
PGRFAMCHA011201043011045216002205Out of the Box                                    A Place Called Space                                                 60686110                                
ID FAMCHA011201045216045226000010Generic ID - Bubbles                                                                                                        150                                
PROFAMCHA011201045226045254000028Art Attack (SCOTSMAN) - Coming Up                                                                                           150                                
PROFAMCHA011201045254045311000017Katie and Orbie (OCT2001) - Today @ 9:55am                                                                                  150                                
PROFAMCHA011201045311045329000018Stanley - Today @ 5pm                                                                                                       150                                
PRCFAMCHA011201045329045339000010Morning Block menu background (flex time)                                                                                   150                                
ID FAMCHA011201045339045400000021Prime time open count down                                                                                                  150                                
PGRFAMCHA011201045400050903001503Art Attack                                        1-030                                                                60686110                                
ID FAMCHA011201050903050908000005Generic ID - Bubbles*                                                                                                       150                                
PROFAMCHA011201050908050929000021XMAS - Frosty's Wonderland - Premieres Friday @ 7p                                                                          150                                
PROFAMCHA011201050929050946000017Katie and Orbie (OCT2001) - Coming Up                                                                                       150                                
INTFAMCHA011201050946051309000323Schoolhouse Rock - The Good Eleven                                                                                    A60686120                                
ID FAMCHA011201051309051316000007Silly Stories Teaser - Male                                                                                                 150                                
PROFAMCHA011201051316051322000006Little Lulu (AUG2001) - Lulu - Today @ 6:05am                                                                               150                                
ID FAMCHA011201051322051357000035Silly Stories - Green Car                                                                                                   150                                
PROFAMCHA011201051357051427000030XMAS - Holiday "Faces" - Starting Monday @ 7pm                                                                              150                                
PRCFAMCHA011201051427051439000012Morning Block menu background (flex time)                                                                                   150                                
ID FAMCHA011201051439051500000021Prime time open count down                                                                                                  150                                
PROFAMCHA011201051500051508000008CC Is Brought To You By - Lark **DNU AFTER 09/22**                                                                          150                                
PGRFAMCHA011201051508054143002635Katie And Orbie                                   Shop and Seek/Surprise!/Katie's Music Box                     C12449A1065607ECC                              
ID FAMCHA011201054143054153000010Generic ID - Hula Hoop                                                                                                      150                                
PROFAMCHA011201054153054219000026DuckTales (CLIP) - Coming Up                                                                                                150                                
PROFAMCHA011201054219054239000020Hoze Houndz (AUG2001) - Tonight @ 7:05pm                                                                                    150                                
ID FAMCHA011201054239054300000021Prime time open count down                                                                                                  150                                
PROFAMCHA011201054300054308000008CC Is Brought To You By - Ian **DNU AFTER 09/22**                                                                           150                                
PGRFAMCHA011201054308060555002247Disney's DuckTales                                Send In The Clones                                                  A6068607ECC                              
ID FAMCHA011201060555060606000011Generic ID - soccer                                                                                                         150                                
PROFAMCHA011201060606060612000006Little Lulu (AUG2001) - Lulu - Coming Up                                                                                    150                                
PROFAMCHA011201060612060630000018Stanley - Today @ 5pm                                                                                                       150                                
PRCFAMCHA011201060630060639000009Morning Block menu background (flex time)                                                                                   150                                
ID FAMCHA011201060639060700000021Prime time open count down                                                                                                  150                                
PROFAMCHA011201060700060708000008CC Is Brought To You By - Lark **DNU AFTER 09/22**                                                                          150                                
PGRFAMCHA011201060708063059002351Little Lulu Show; The                             Hairy Day/Noses Off/Boy Cannon Ball                           C19509A1065607ECC                              
ID FAMCHA011201063059063104000005Generic ID - Marbles                                                                                                        150                                
PROFAMCHA011201063104063139000035XMAS - Franklin's Christmas - Premieres December 2                                                                          150                                
ID FAMCHA011201063139063200000021Prime time open count down                                                                                                  150                                
PGRFAMCHA011201063200065440002240Madeline                                          Madeline and the Fashion Show                                        6068607E                                
ID FAMCHA011201065440065445000005Generic ID - Couch 2*                                                                                                       150                                
PROFAMCHA011201065445065506000021XMAS - Frosty's Wonderland - Premieres Friday @ 7p                                                                          150                                
PROFAMCHA011201065506065539000033Totally Circus - Today @ 8:30am                                                                                             150                                
INTFAMCHA011201065539065839000300Art Attack - Jack-In-The-Box                                                                                           60686120                                
PROFAMCHA011201065839065859000020Weekenders (D12/WEEKENDS) - Today @ 4:35pm                                                                                  150                                
PROFAMCHA011201065859065929000030XMAS - Holiday "Tradition" - Starting Monday @ 7pm                                                                          150                                
PRCFAMCHA011201065929065939000010Morning Block menu background (flex time)                                                                                   150                                
ID FAMCHA011201065939070000000021Prime time open count down                                                                                                  150                                
PGRFAMCHA011201070000072420002420Adventures of Pete & Pete; The                    My Little Viking Part 1                                             A2068607B                                
ID FAMCHA011201072420072430000010Generic ID - Ring around the rosie                                                                                          150                                
PROFAMCHA011201072430072508000038XMAS - Stingiest Man - Premieres Next Saturday                                                                              150                                
PROFAMCHA011201072508072538000030Mighty Ducks (AUG2001) - Coming Up                                                                                          150                                
PROFAMCHA011201072538072608000030Lizzie McGuire (KATE) - Today @ 10:40am                                                                                     150                                
INTFAMCHA011201072608072843000235Art Attack - Car Bike                                                                                                  60686120                                
PROFAMCHA011201072843072913000030Proud Family - Today @ 4:10pm                                                                                               150                                
PROFAMCHA011201072913072940000027Even Stevens (DREAM) - Today @ 8am                                                                                          150                                
PRCFAMCHA011201072940072950000010Morning Block menu background (flex time)                                                                                   150                                
ID FAMCHA011201072950073000000010xxMagic of Disney - V4 - TEEN FEMALE                                                                                        150                                
PGRFAMCHA011201073000075239002239Mighty Ducks: The Animated Series                 Power Play                                                          A6028607E                                
ID FAMCHA011201075239075249000010Generic ID - Hula Hoop                                                                                                      150                                
PROFAMCHA011201075249075319000030XMAS - Holiday "Faces" - Starting Monday @ 7pm                                                                              150                                
PROFAMCHA011201075319075349000030Even Stevens (GUITAR) - Coming Up                                                                                           150                                
PROFAMCHA011201075349075419000030Weekenders (D12/WEEKENDS) - Today @ 4:35pm                                                                                  150                                
INTFAMCHA011201075419075748000329Art Attack - Fireman                                                                                                   60686120                                
PRCFAMCHA011201075748075846000058Mentors - CHATROOM (AUG2001) - Today @ 8:55am                                                                               150                                
PROFAMCHA011201075846075939000053Your Big Break - Tomorrow @ 8pm                                                                                             150                                
PRCFAMCHA011201075939075950000011Morning Block menu background (flex time)                                                                                   150                                
ID FAMCHA011201075950080000000010xxMagic of Disney - V3(water) - TEEN FEMALE                                                                                 150                                
PROFAMCHA011201080000080008000008CC Is Brought To You By - Games                                                                                             150                                
PGRFAMCHA011201080008082250002242Even Stevens                                      Movie Madness                                                       A6068807BCC                              
ID FAMCHA011201082250082301000011Generic ID - soccer                                                                                                         150                                
PROFAMCHA011201082301082339000038XMAS - Stingiest Man - Premieres Next Saturday                                                                              150                                
PROFAMCHA011201082339082412000033Totally Circus - Coming Up                                                                                                  150                                
PROFAMCHA011201082412082442000030Lizzie McGuire (KATE) - Today @ 10:40am                                                                                     150                                
INTFAMCHA011201082442082824000342Art Attack - Fencing                                                                                                   60686120                                
PROFAMCHA011201082824082844000020Weekenders (D12/WEEKENDS) - Today @ 4:35pm                                                                                  150                                
PROFAMCHA011201082844082908000024Honey, I Shrunk the Kids (AUG2001) - Tonight @ 8pm                                                                          150                                
PROFAMCHA011201082908082929000021XMAS - Frosty's Wonderland - Premieres Friday @ 7p                                                                          150                                
PRCFAMCHA011201082929082939000010Morning Block menu background (flex time)                                                                                   150                                
ID FAMCHA011201082939083000000021Prime time open count down                                                                                                  150                                
PROFAMCHA011201083000083009000009CC Is Brought To You By - Click Club                                                                                        150                                
PGRFAMCHA011201083009085409002400Totally Circus                                    1-001                                                               A6068607ACC                              
ID FAMCHA011201085409085414000005Generic ID - Marbles                                                                                                        150                                
PROFAMCHA011201085414085444000030XMAS - Holiday "Tradition" - Starting Monday @ 7pm                                                                          150                                
PRCFAMCHA011201085444085514000030Mentors - KISS (AUG2001) - Coming Up                                                                                        150                                
PROFAMCHA011201085514085544000030Lizzie McGuire (KATE) - Today @ 10:40am                                                                                     150                                
PROFAMCHA011201085544085559000015Weekenders (D12/WEEKENDS) - Today @ 4:35pm                                                                                  150                                
PROFAMCHA011201085559085629000030Proud Family - Today @ 4:10pm                                                                                               150                                
PRCFAMCHA011201085629085639000010Morning Block menu background (flex time)                                                                                   150                                
ID FAMCHA011201085639085700000021Prime time open count down                                                                                                  150                                
PROFAMCHA011201085700085708000008CC Is Brought To You By - Games                                                                                             150                                
PGRFAMCHA011201085708092019002311Mentors                                           Little Emperor                                                C14730 1055607ACC3                             
ID FAMCHA011201092019092024000005Generic ID - Fingerpaint                                                                                                    150                                
PROFAMCHA011201092024092054000030Proud Family - Today @ 4:10pm                                                                                               150                                
PROFAMCHA011201092054092116000022Even Stevens (KARAOKE) - Today @ 11:35am                                                                                    150                                
ID FAMCHA011201092116092150000034Wonder Kid - Stage                                                                                                          150                                
ID FAMCHA011201092150092202000012Wonder Kid Tag - Female                                                                                                     150                                
PROFAMCHA011201092202092212000010Weekenders (D12/WEEKENDS) - Today @ 4:35pm                                                                                  150                                
PROFAMCHA011201092212092250000038XMAS - Stingiest Man - Premieres Next Saturday                                                                              150                                
ID FAMCHA011201092250092300000010xxMagic of Disney - V3(water) - TEEN MALE                                                                                   150                                
PROFAMCHA011201092300092308000008CC Is Brought To You By - Games                                                                                             150                                
PGRFAMCHA011201092308094539002231Jersey; The                                       Ouch                                                                 6068607ACC                              
ID FAMCHA011201094539094549000010Generic ID - Hula Hoop                                                                                                      150                                
PROFAMCHA011201094549094619000030XMAS - Holiday "Faces" - Starting Monday @ 7pm                                                                              150                                
PROFAMCHA011201094619094641000022Even Stevens (KARAOKE) - Today @ 11:35am                                                                                    150                                
PRCFAMCHA011201094641094711000030Mentors - KISS (AUG2001) - Tonight @ 7:30pm                                                                                 150                                
PROFAMCHA011201094711094739000028Recess (LOGIC-D12/WKNDS) - Weekdays @ 5:30pm                                                                                150                                
PROFAMCHA011201094739094809000030Raw Toonage (AUG2001) - Today @ 3pm                                                                                         150                                
PROFAMCHA011201094809094829000020Hoze Houndz (AUG2001) - Tonight @ 7:05pm                                                                                    150                                
PROFAMCHA011201094829094850000021XMAS - Frosty's Wonderland - Premieres Friday @ 7p                                                                          150                                
ID FAMCHA011201094850094900000010xxMagic of Disney - V4 - TEEN FEMALE                                                                                        150                                
PGRFAMCHA011201094900101304002404So Weird                                          Singularity                                                          6068807A                                
ID FAMCHA011201101304101309000005Generic ID - Bubbles*                                                                                                       150                                
PROFAMCHA011201101309101347000038XMAS - Stingiest Man - Premieres Next Saturday                                                                              150                                
PROFAMCHA011201101347101417000030Lizzie McGuire (KATE) - Today @ 10:40am                                                                                     150                                
PROFAMCHA011201101417101438000021XMAS - Frosty's Wonderland - Premieres Friday @ 7p                                                                          150                                
ID FAMCHA011201101438101455000017Web Fun Stuff - Female                                                                                                      150                                
PROFAMCHA011201101455101529000034SP - Stepsister From Planet Weird - Tomorrow @ 12p                                                                          150                                
PRCFAMCHA011201101529101539000010Morning Block menu background (flex time)                                                                                   150                                
ID FAMCHA011201101539101600000021Prime time open count down                                                                                                  150                                
PROFAMCHA011201101600101608000008CC Is Brought To You By - Lark **DNU AFTER 09/22**                                                                          150                                
PGRFAMCHA011201101608104038002430Famous Jett Jackson; The                          Awakenings Part 1                                             B57179 1065607ACC                              
ID FAMCHA011201104038104048000010Generic ID - Family w/dog                                                                                                   150                                
PROFAMCHA011201104048104118000030XMAS - Holiday "Tradition" - Starting Monday @ 7pm                                                                          150                                
PROFAMCHA011201104118104148000030Lizzie McGuire (KATE) - Coming Up                                                                                           150                                
INTFAMCHA011201104148104318000130MV Disney - Mambo #5 (LOU BEGA)                                                                                        60688120                                
PROFAMCHA011201104318104340000022Even Stevens (KARAOKE) - Today @ 11:35am                                                                                    150                                
PRCFAMCHA011201104340104350000010Morning Block menu background (flex time)                                                                                   150                                
ID FAMCHA011201104350104400000010xxMagic of Disney - V2(sky) - TEEN MALE                                                                                     150                                
PGRFAMCHA011201104400110635002235Lizzie McGuire                                    Gordo's Video                                                       A6028607B                                
ID FAMCHA011201110635110645000010Generic ID - Hula Hoop                                                                                                      150                                
PROFAMCHA011201110645110715000030XMAS - Holiday "Faces" - Starting Monday @ 7pm                                                                              150                                
PROFAMCHA011201110715110745000030Even Stevens (GUITAR) - Today @ 11:35am                                                                                     150                                
ID FAMCHA011201110745110802000017Web Fun Stuff - Male                                                                                                        150                                
PROFAMCHA011201110802110826000024Honey, I Shrunk the Kids (AUG2001) - Tonight @ 8pm                                                                          150                                
PROFAMCHA011201110826110856000030Proud Family - Today @ 4:10pm                                                                                               150                                
PROFAMCHA011201110856110930000034SP - Stepsister From Planet Weird - Tomorrow @ 12p                                                                          150                                
PRCFAMCHA011201110930110939000009Morning Block menu background (flex time)                                                                                   150                                
ID FAMCHA011201110939111000000021Prime time open count down                                                                                                  150                                
PROFAMCHA011201111000111008000008CC Is Brought To You By - Games                                                                                             150                                
PGRFAMCHA011201111008113137002129ALF                                               Turkey and the Strawberry Part 2                                    A2068807BCC                              
ID FAMCHA011201113137113142000005Generic ID - Couch 1*                                                                                                       150                                
PROFAMCHA011201113142113220000038XMAS - Stingiest Man - Premieres Next Saturday                                                                              150                                
PROFAMCHA011201113220113233000013Even Stevens (WASSUP?) - Coming Up                                                                                          150                                
INTFAMCHA011201113233113349000116Bill Nye - How Can We Communicate?                                                                                     60688120                                
PRCFAMCHA011201113349113419000030Mentors - KISS (AUG2001) - Tonight @ 7:30pm                                                                                 150                                
PROFAMCHA011201113419113440000021XMAS - Frosty's Wonderland - Premieres Friday @ 7p                                                                          150                                
PRCFAMCHA011201113440113450000010Morning Block menu background (flex time)                                                                                   150                                
ID FAMCHA011201113450113500000010xxMagic of Disney - V3(water) - TEEN MALE                                                                                   150                                
PROFAMCHA011201113500113508000008CC Is Brought To You By - Games                                                                                             150                                
PGRFAMCHA011201113508115750002242Even Stevens                                      Movie Madness                                                       A6068807BCC                              
ID FAMCHA011201115750115755000005Generic ID - Marbles                                                                                                        150                                
PROFAMCHA011201115755115829000034SP - Stepsister From Planet Weird - Tomorrow @ 12p                                                                          150                                
PROFAMCHA011201115829115902000033Totally Circus - Tomorrow @ 8:30am                                                                                          150                                
PROFAMCHA011201115902115940000038XMAS - Stingiest Man - Premieres Next Saturday                                                                              150                                
ID FAMCHA011201115940120000000020Move open family size movie                                                                                                 150                                
PROFAMCHA011201120000120007000007Rating - G - Ian                                                                                                            150                                
PROFAMCHA011201120007120048000041Vault Disney Opening                                                                                                        150                                
PGRFAMCHA011201120048144613024525Happiest Millionaire; The                                                                                             A6068807D                                
ID FAMCHA011201144613144623000010Generic ID - Pink inner tube                                                                                                150                                
PROFAMCHA011201144623144658000035XMAS - Franklin's Christmas - Premieres December 2                                                                          150                                
PROFAMCHA011201144658144728000030Weekenders (D12/WEEKENDS) - Today @ 4:35pm                                                                                  150                                
PROFAMCHA011201144728144738000010MV FAMJAM - Teaser (Generic)                                                                                                150                                
PROFAMCHA011201144738144808000030Raw Toonage (AUG2001) - Today @ 3pm                                                                                         150                                
INTFAMCHA011201144808145116000308xMV - Not Too Young, Not Too Old (Aaron Carter)                                                                       A20688120                                
PROFAMCHA011201145116145125000009MV Web Throw - music@family.ca                                                                                              150                                
PROFAMCHA011201145125145155000030Proud Family - Today @ 4:10pm                                                                                               150                                
INTFAMCHA011201145155145546000351MV Disney - Miracles Happen (MYRA)                                                                                     60688120                                
PROFAMCHA011201145546145606000020Hoze Houndz (AUG2001) - Tonight @ 7:05pm                                                                                    150                                
INTFAMCHA011201145606145842000236Art Attack - Frog                                                                                                      60686120                                
PROFAMCHA011201145842145902000020Disney's One, Too (AUG2001) - Weekdays @ 4pm                                                                                150                                
PROFAMCHA011201145902145940000038XMAS - Stingiest Man - Premieres Next Saturday                                                                              150                                
PRCFAMCHA011201145940145950000010Morning Block menu background (flex time)                                                                                   150                                
ID FAMCHA011201145950150000000010xxMagic of Disney - V4 - TEEN FEMALE                                                                                        150                                
PGRFAMCHA011201150000152339002339Raw Toonage                                       1-003                                                               A6068607E                                
ID FAMCHA011201152339152349000010Generic ID - confetti                                                                                                       150                                
PROFAMCHA011201152349152419000030Shnookums & Meat (AUG2001) - Coming Up (3:25pm)                                                                             150                                
PROFAMCHA011201152419152439000020Hoze Houndz (AUG2001) - Tonight @ 7:05pm                                                                                    150                                
ID FAMCHA011201152439152500000021Prime time open count down                                                                                                  150                                
PGRFAMCHA011201152500154754002254Shnookums & Meat Funny Cartoon Show; The          1-008                                                               A6068607E                                
ID FAMCHA011201154754154804000010Generic ID - Pink inner tube                                                                                                150                                
PROFAMCHA011201154804154842000038XMAS - Stingiest Man - Premieres Next Saturday                                                                              150                                
PROFAMCHA011201154842154850000008MV Web Throw - family.ca                                                                                                    150                                
ID FAMCHA011201154850154900000010Prime time open top of hour                                                                                                 150                                
PROFAMCHA011201154900154908000008CC Is Brought To You By - Lark **DNU AFTER 09/22**                                                                          150                                
PGRFAMCHA011201154908161037002129ALF                                               Turkey and the Strawberry Part 2                                    A2068807BCC                              
ID FAMCHA011201161037161042000005Generic ID - Couch 2*                                                                                                       150                                
PROFAMCHA011201161042161112000030XMAS - Holiday "Tradition" - Starting Monday @ 7pm                                                                          150                                
PROFAMCHA011201161112161142000030Proud Family - Coming Up                                                                                                    150                                
PROFAMCHA011201161142161210000028Recess (LOGIC-D12/WKNDS) - Weekdays @ 5:30pm                                                                                150                                
PROFAMCHA011201161210161240000030Weekenders (D12/WEEKENDS) - Today @ 4:35pm                                                                                  150                                
ID FAMCHA011201161240161301000021Prime time open count down                                                                                                  150                                
PROFAMCHA011201161301161310000009CC Is Brought To You By - Lark                                                                                              150                                
PGRFAMCHA011201161310163547002237Proud Family; The                                 Spelling Bee                                                        A6068807ECC                              
ID FAMCHA011201163547163552000005Generic ID - Fingerpaint                                                                                                    150                                
PROFAMCHA011201163552163630000038XMAS - Stingiest Man - Premieres Next Saturday                                                                              150                                
PROFAMCHA011201163630163645000015Weekenders (D12/WEEKENDS) - Coming Up                                                                                       150                                
PROFAMCHA011201163645163705000020Hoze Houndz (AUG2001) - Tonight @ 7:05pm                                                                                    150                                
PROFAMCHA011201163705163739000034SP - Stepsister From Planet Weird - Tomorrow @ 12p                                                                          150                                
ID FAMCHA011201163739163800000021Prime time open count down                                                                                                  150                                
PGRFAMCHA011201163800170054002254Disney's The Weekenders                           Best/Broken                                                         A6068607E                                
ID FAMCHA011201170054170101000007Generic ID - Whisper*                                                                                                       150                                
PROFAMCHA011201170101170119000018Stanley - Coming Up                                                                                                         150                                
PROFAMCHA011201170119170157000038XMAS - Stingiest Man - Premieres Next Saturday                                                                              150                                
PROFAMCHA011201170157170230000033Totally Circus - Tomorrow @ 8:30am                                                                                          150                                
PRCFAMCHA011201170230170239000009Morning Block menu background (flex time)                                                                                   150                                
ID FAMCHA011201170239170300000021Prime time open count down                                                                                                  150                                
PROFAMCHA011201170300170308000008CC Is Brought To You By - Ian **DNU AFTER 09/22**                                                                           150                                
PGRFAMCHA011201170308172706002358Stanley                                           A Whale of a Song/Sloth for a Day                                   A6068607ECC                              
ID FAMCHA011201172706172716000010Generic ID - Pink inner tube                                                                                                150                                
PROFAMCHA011201172716172751000035ELMO'S WORLD CONTEST                                                                                                        150                                
ID FAMCHA011201172751172801000010Prime time open top of hour                                                                                                 150                                
PROFAMCHA011201172801172809000008CC Is Brought To You By - Lark **DNU AFTER 09/22**                                                                          150                                
PGRFAMCHA011201172809175139002330PB&J Otter                                        Mama Peanut/Bye-Bye Bubbles                                         A6068607ECC                              
ID FAMCHA011201175139175144000005Generic ID - Couch 1*                                                                                                       150                                
PROFAMCHA011201175144175219000035XMAS - Franklin's Christmas - Premieres December 2                                                                          150                                
PROFAMCHA011201175219175254000035ELMO'S WORLD CONTEST                                                                                                        150                                
ID FAMCHA011201175254175304000010xxMagic of Disney - V2(sky) - TEEN FEMALE                                                                                   150                                
PROFAMCHA011201175304175314000010CC Is Brought To You By - Ian                                                                                               150                                
PGRFAMCHA011201175314181625002311New Adventures of Winnie the Pooh; The            Pooh Moon/Caws and Effect                                            6068607ECC                              
ID FAMCHA011201181625181635000010Generic ID - confetti                                                                                                       150                                
PRCFAMCHA011201181635181643000008Franklin (AUG2001) - Slide - Coming Up                                                                                      150                                
PROFAMCHA011201181643181649000006Little Lulu (AUG2001) - Lulu - Tonight @ 6:40pm                                                                             150                                
ID FAMCHA011201181649181659000010Prime time open top of hour                                                                                                 150                                
PROFAMCHA011201181659181706000007CC Is Brought To You By - Lark                                                                                              150                                
PGRFAMCHA011201181706183959002253Franklin                                          Franklin Goes To School/Franklin Is Lost                      B10182A1065607ECC                              
ID FAMCHA011201183959184009000010Generic ID - Ring around the rosie                                                                                          150                                
PROFAMCHA011201184009184015000006Little Lulu (AUG2001) - Lulu - Coming Up                                                                                    150                                
PROFAMCHA011201184015184050000035ELMO'S WORLD CONTEST                                                                                                        150                                
ID FAMCHA011201184050184100000010Prime time open top of hour                                                                                                 150                                
PROFAMCHA011201184100184108000008CC Is Brought To You By - Ian **DNU AFTER 09/22**                                                                           150                                
PGRFAMCHA011201184108190439002331Little Lulu Show; The                             Involuntary Volunteers, Malpractice Makes Perfect,            B20206A1065607ECC                              
ID FAMCHA011201190439190449000010Generic ID - Hula Hoop                                                                                                      150                                
PROFAMCHA011201190449190524000035XMAS - Franklin's Christmas - Premieres December 2                                                                          150                                
PROFAMCHA011201190524190550000026DuckTales (CLIP) - Weekdays @ 3:10pm                                                                                        150                                
ID FAMCHA011201190550190600000010Prime time open top of hour                                                                                                 150                                
PROFAMCHA011201190600190608000008CC Is Brought To You By - Lark **DNU AFTER 09/22**                                                                          150                                
PGRFAMCHA011201190608192848002240Hoze Houndz                                       Byte-Sized/Attack Of The 50 Foot Barber                       B45780A1065607ECC                              
ID FAMCHA011201192848192855000007Generic ID - Whisper*                                                                                                       150                                
PROFAMCHA011201192855192933000038XMAS - Stingiest Man - Premieres Next Saturday                                                                              150                                
ID FAMCHA011201192933192950000017Web Fun Stuff - Male                                                                                                        150                                
ID FAMCHA011201192950193000000010Prime time open top of hour                                                                                                 150                                
PROFAMCHA011201193000193008000008CC Is Brought To You By - Games                                                                                             150                                
PGRFAMCHA011201193008195319002311Mentors                                           Wilde Carde                                                   C14730 1055607ACC3                             
ID FAMCHA011201195319195329000010Generic ID - Pink inner tube                                                                                                150                                
PROFAMCHA011201195329195350000021XMAS - Frosty's Wonderland - Premieres Friday @ 7p                                                                          150                                
PROFAMCHA011201195350195414000024Honey, I Shrunk the Kids (AUG2001) - Coming Up                                                                              150                                
PROFAMCHA011201195414195507000053Your Big Break - Tomorrow @ 8pm                                                                                             150                                
INTFAMCHA011201195507195756000249MV Disney - My Funny Friend & Me (STING)                                                                               60688120                                
PROFAMCHA011201195756195822000026Weekenders (FUNVILLE) - Tomorrow @ 4:35pm                                                                                   150                                
PROFAMCHA011201195822195855000033Totally Circus - Tomorrow @ 8:30am                                                                                          150                                
PRCFAMCHA011201195855195940000045Color Purple (DEC07) - Premieres Friday @ 9pm                                                                               150                                
PRCFAMCHA011201195940195950000010Morning Block menu background (flex time)                                                                                   150                                
ID FAMCHA011201195950200000000010xxMagic of Disney - V4 - ADULT MALE                                                                                         150                                
PGRFAMCHA011201200000204245004245Disney's Honey, I Shrunk The Kids: The TV Show    The Garbage Took Us Out                                              6068807B                                
ID FAMCHA011201204245204255000010Generic ID - Family w/dog                                                                                                   150                                
PROFAMCHA011201204255204333000038XMAS - Stingiest Man - Premieres Next Saturday                                                                              150                                
ID FAMCHA011201204333204345000012Web Rant - Wrong Basket                                                                                                     150                                
PRCFAMCHA011201204345204430000045Color Purple (DEC07) - Premieres Friday @ 9pm                                                                               150                                
PRCFAMCHA011201204430204439000009Morning Block menu background (flex time)                                                                                   150                                
ID FAMCHA011201204439204500000021Prime time open count down                                                                                                  150                                
PGRFAMCHA011201204500205805001305Are You Afraid of the Dark?                       Mystical Mirror Pt.1                                          SR0306A1066807A                                
ID FAMCHA011201205805205816000011Generic ID - soccer                                                                                                         150                                
PRCFAMCHA011201205816205901000045Color Purple (DEC07) - Premieres Friday @ 9pm                                                                               150                                
PROFAMCHA011201205901205910000009MV Web Throw - family.ca                                                                                                    150                                
PROFAMCHA011201205910205930000020Weekenders (D12/WEEKENDS) - Today @ 4:35pm                                                                                  150                                
PRCFAMCHA011201205930205940000010Morning Block menu background (flex time)                                                                                   150                                
ID FAMCHA011201205940210000000020Move open family size movie                                                                                                 150                                
PROFAMCHA011201210000210007000007Rating - PG - Lark                                                                                                          150                                
PROFAMCHA011201210007210014000007CC Is Brought To You By - Games                                                                                             150                                
PGRFAMCHA011201210014223117013103Made In America                                                                                                       B2028807DCC                              
ID FAMCHA011201223117223122000005Generic ID - Couch 2*                                                                                                       150                                
ID FAMCHA011201223122223142000020Move open family size movie                                                                                                 150                                
PROFAMCHA011201223142223149000007Rating - PG - Ian                                                                                                           150                                
PROFAMCHA011201223149223156000007CC Is Brought To You By - Click Club                                                                                        150                                
PGRFAMCHA011201223156000310013114My Girl                                                                                                               B2068807DCC                              
ID FAMCHA011201000310000315000005Generic ID - Marbles                                                                                                        150                                
PROFAMCHA011201000315000323000008CC Is Brought To You By - Click Club                                                                                        150                                
PGRFAMCHA011201000323002452002129ALF                                               Turkey and the Strawberry Part 2                                    A2068807BCC                              
ID FAMCHA011201002452002502000010Generic ID - Bubbles                                                                                                        150                                
PROFAMCHA011201002502002532000030XMAS - Holiday "Faces" - Starting Monday @ 7pm                                                                              150                                
PROFAMCHA011201002532002554000022Even Stevens (KARAOKE) - Tomorrow @ 8am                                                                                     150                                
PROFAMCHA011201002554002647000053Your Big Break - Tomorrow @ 8pm                                                                                             150                                
INTFAMCHA011201002647002821000134MV Disney - He's A Tramp                                                                                               60688120                                
PROFAMCHA011201002821002854000033Totally Circus - Tomorrow @ 8:30am                                                                                          150                                
PRCFAMCHA011201002854002939000045Color Purple (DEC07) - Premieres Friday @ 9pm                                                                               150                                
ID FAMCHA011201002939003000000021Prime time open count down                                                                                                  150                                
PGRFAMCHA011201003000005422002422Are You Afraid Of The Dark?                       The Tale of the Dangerous Soup                                SR0304 1066807A                                
ID FAMCHA011201005422005432000010Generic ID - Hula Hoop                                                                                                      150                                
PRCFAMCHA011201005432005517000045Color Purple (DEC07) - Premieres Friday @ 9pm                                                                               150                                
PROFAMCHA011201005517005610000053Your Big Break - Tomorrow @ 8pm                                                                                             150                                
PROFAMCHA011201005610005640000030Proud Family - Tomorrow @ 4:10pm                                                                                            150                                
INTFAMCHA011201005640005810000130Klootz - Medecin 05 (post 7PM)                                                                                        A10658120                                
INTFAMCHA011201005810010200000350Art Attack - Airplane Departing                                                                                        60686120                                
SO FAMCHA011201010200010212000012Sign Off (oct 1)                                                                                                                                               
OFFFAMCHA011201010212043000032748                                                                                                                                                               
SO FAMCHA011202043000043011000011Sign On (oct 1)                                                                                                                                                
PGRFAMCHA011202043011045216002205Out of the Box                                    Box Full Of Boxes                                                    60686110                                
ID FAMCHA011202045216045226000010Generic ID - Bubbles                                                                                                        150                                
PROFAMCHA011202045226045256000030XMAS - Holiday "Faces" - Starting Tomorrow @ 7pm                                                                            150                                
PROFAMCHA011202045256045308000012New Adv of WTP (AUG2001) - Blustery - Today @ 5:50                                                                          150                                
PROFAMCHA011202045308045329000021XMAS - Frosty's Wonderland - Premieres Friday @ 7p                                                                          150                                
PRCFAMCHA011202045329045339000010Morning Block menu background (flex time)                                                                                   150                                
ID FAMCHA011202045339045400000021Prime time open count down                                                                                                  150                                
PGRFAMCHA011202045400050913001513Art Attack                                        1-031                                                                60686110                                
ID FAMCHA011202050913050918000005Generic ID - Bubbles*                                                                                                       150                                
PROFAMCHA011202050918050948000030XMAS - Holiday "Tradition" - Starting Tomorrow @ 7                                                                          150                                
PROFAMCHA011202050948051005000017Katie and Orbie (OCT2001) - Coming Up                                                                                       150                                
PROFAMCHA011202051005051040000035XMAS - Franklin's Christmas - Premieres December 2                                                                          150                                
PROFAMCHA011202051040051127000047DuckTales (AUG2001) - Today @ 5:40am                                                                                        150                                
INTFAMCHA011202051127051405000238MV Disney - We Are One (LION KING 2) Animated air                                                                      60688120                                
PROFAMCHA011202051405051411000006Little Lulu (AUG2001) - Lulu - Today @ 6:05am                                                                               150                                
PROFAMCHA011202051411051429000018XMAS - Jiminy Cricket - Premieres Next Sunday                                                                               150                                
PRCFAMCHA011202051429051439000010Morning Block menu background (flex time)                                                                                   150                                
ID FAMCHA011202051439051500000021Prime time open count down                                                                                                  150                                
PROFAMCHA011202051500051508000008CC Is Brought To You By - Ian **DNU AFTER 09/22**                                                                           150                                
PGRFAMCHA011202051508054144002636Katie And Orbie                                   The Library/Rollerskates/Scary Movie                          C12449A1065607ECC                              
ID FAMCHA011202054144054159000015Generic ID - confetti                                                                                                       150                                
PROFAMCHA011202054159054229000030XMAS - Holiday "Faces" - Starting Tomorrow @ 7pm                                                                            150                                
PRCFAMCHA011202054229054239000010Morning Block menu background (flex time)                                                                                   150                                
ID FAMCHA011202054239054300000021Prime time open count down                                                                                                  150                                
PROFAMCHA011202054300054308000008CC Is Brought To You By - Lark **DNU AFTER 09/22**                                                                          150                                
PGRFAMCHA011202054308060556002248Disney's DuckTales                                Sphinx For The Memories                                             A6068607ECC                              
ID FAMCHA011202060556060611000015Generic ID - confetti                                                                                                       150                                
PROFAMCHA011202060611060629000018XMAS - Jiminy Cricket - Premieres Next Sunday                                                                               150                                
PRCFAMCHA011202060629060639000010Morning Block menu background (flex time)                                                                                   150                                
ID FAMCHA011202060639060700000021Prime time open count down                                                                                                  150                                
PROFAMCHA011202060700060708000008CC Is Brought To You By - Ian **DNU AFTER 09/22**                                                                           150                                
PGRFAMCHA011202060708063100002352Little Lulu Show; The                             Popcorn Theif/The Little Tornando/She Flies Throug            C19509A1065607ECC                              
ID FAMCHA011202063100063106000006Generic ID - soccer                                                                                                         150                                
PROFAMCHA011202063106063127000021XMAS - Frosty's Wonderland - Premieres Friday @ 7p                                                                          150                                
PROFAMCHA011202063127063139000012New Adv of WTP (AUG2001) - Blustery - Today @ 5:50                                                                          150                                
ID FAMCHA011202063139063200000021Prime time open count down                                                                                                  150                                
PGRFAMCHA011202063200065443002243Madeline                                          Madeline's Halloween                                                 6068607E                                
ID FAMCHA011202065443065448000005Generic ID - Couch 2*                                                                                                       150                                
PROFAMCHA011202065448065518000030XMAS - Holiday "Tradition" - Starting Tomorrow @ 7                                                                          150                                
PROFAMCHA011202065518065548000030Mighty Ducks (AUG2001) - Today @ 7:30am                                                                                     150                                
PROFAMCHA011202065548065623000035XMAS - Franklin's Christmas - Premieres December 2                                                                          150                                
INTFAMCHA011202065623065848000225Art Attack - Snooker                                                                                                   60686120                                
PROFAMCHA011202065848065910000022Even Stevens (KARAOKE) - Today @ 8am                                                                                        150                                
PROFAMCHA011202065910065928000018XMAS - Jiminy Cricket - Premieres Next Sunday                                                                               150                                
PRCFAMCHA011202065928065939000011Morning Block menu background (flex time)                                                                                   150                                
ID FAMCHA011202065939070000000021Prime time open count down                                                                                                  150                                
PGRFAMCHA011202070000072420002420Adventures of Pete & Pete; The                    My Little Viking Part 2                                             A2068607B                                
ID FAMCHA011202072420072425000005Generic ID - Couch 2*                                                                                                       150                                
PROFAMCHA011202072425072455000030XMAS - Holiday "Faces" - Starting Tomorrow @ 7pm                                                                            150                                
PROFAMCHA011202072455072525000030Mighty Ducks (AUG2001) - Coming Up                                                                                          150                                
PROFAMCHA011202072525072546000021XMAS - Frosty's Wonderland - Premieres Friday @ 7p                                                                          150                                
PROFAMCHA011202072546072559000013Even Stevens (WASSUP?) - Today @ 8am                                                                                        150                                
INTFAMCHA011202072559072839000240Art Attack - Baggage Plane                                                                                             60688120                                
PROFAMCHA011202072839072912000033Totally Circus - Today @ 8:30am                                                                                             150                                
PROFAMCHA011202072912072950000038XMAS - Stingiest Man - Premieres Saturday @ 7:10pm                                                                          150                                
ID FAMCHA011202072950073000000010xxMagic of Disney - V2(sky) - TEEN FEMALE                                                                                   150                                
PGRFAMCHA011202073000075239002239Mighty Ducks: The Animated Series                 Power Play                                                          A6068607E                                
ID FAMCHA011202075239075244000005Generic ID - Fingerpaint                                                                                                    150                                
PROFAMCHA011202075244075314000030XMAS - Holiday "Tradition" - Starting Tomorrow @ 7                                                                          150                                
PROFAMCHA011202075314075344000030Even Stevens (GUITAR) - Coming Up                                                                                           150                                
PROFAMCHA011202075344075354000010MV FAMJAM - Teaser (Generic)                                                                                                150                                
PROFAMCHA011202075354075429000035XMAS - ALF Christmas Eps. Pt.1 - December 11th                                                                              150                                
INTFAMCHA011202075429075818000349xMV - Crush (Mandy Moore)                                                                                             A20688120                                
PROFAMCHA011202075818075828000010MV Web Throw - music@family.ca                                                                                              150                                
PROFAMCHA011202075828075849000021XMAS - Frosty's Wonderland - Premieres Friday @ 7p                                                                          150                                
PROFAMCHA011202075849075922000033Totally Circus - Today @ 8:30am                                                                                             150                                
PROFAMCHA011202075922075940000018XMAS - Jiminy Cricket - Premieres Next Sunday                                                                               150                                
PRCFAMCHA011202075940075950000010Morning Block menu background (flex time)                                                                                   150                                
ID FAMCHA011202075950080000000010xxMagic of Disney - V2(sky) - TEEN MALE                                                                                     150                                
PROFAMCHA011202080000080008000008CC Is Brought To You By - Games                                                                                             150                                
PGRFAMCHA011202080008082250002242Even Stevens                                      Movie Madness                                                       A6068807BCC                              
ID FAMCHA011202082250082305000015Generic ID - confetti                                                                                                       150                                
PROFAMCHA011202082305082339000034SP - Stepsister From Planet Weird - Today @ 12pm                                                                            150                                
PROFAMCHA011202082339082412000033Totally Circus - Coming Up                                                                                                  150                                
PROFAMCHA011202082412082442000030XMAS - Holiday "Faces" - Starting Tomorrow @ 7pm                                                                            150                                
PRCFAMCHA011202082442082540000058Mentors - CHATROOM (AUG2001) - Today @ 8:55am                                                                               150                                
ID FAMCHA011202082540082617000037Wonder Kid - Artist 1                                                                                                       150                                
ID FAMCHA011202082617082631000014Wonder Kid Tag - Male                                                                                                       150                                
PROFAMCHA011202082631082652000021XMAS - Frosty's Wonderland - Premieres Friday @ 7p                                                                          150                                
INTFAMCHA011202082652082822000130MV Disney - Walk The Llama Llama                                                                                       60688120                                
PROFAMCHA011202082822082852000030Lizzie McGuire (KATE) - Today @ 10:40am                                                                                     150                                
PROFAMCHA011202082852082930000038XMAS - Stingiest Man - Premieres Saturday @ 7:10pm                                                                          150                                
PRCFAMCHA011202082930082939000009Morning Block menu background (flex time)                                                                                   150                                
ID FAMCHA011202082939083000000021Prime time open count down                                                                                                  150                                
PROFAMCHA011202083000083008000008CC Is Brought To You By - Click Club                                                                                        150                                
PGRFAMCHA011202083008085408002400Totally Circus                                    1-002                                                               A6068607ACC                              
ID FAMCHA011202085408085413000005Generic ID - Marbles                                                                                                        150                                
PROFAMCHA011202085413085443000030XMAS - Holiday "Tradition" - Starting Tomorrow @ 7                                                                          150                                
PRCFAMCHA011202085443085513000030Mentors - KISS (AUG2001) - Coming Up                                                                                        150                                
PROFAMCHA011202085513085548000035XMAS - ALF Christmas Eps. Pt.1 - December 11th                                                                              150                                
PROFAMCHA011202085548085606000018XMAS - Jiminy Cricket - Premieres Next Sunday                                                                               150                                
PROFAMCHA011202085606085640000034SP - Stepsister From Planet Weird - Today @ 12pm                                                                            150                                
ID FAMCHA011202085640085701000021Prime time open count down                                                                                                  150                                
PROFAMCHA011202085701085708000007CC Is Brought To You By - Games                                                                                             150                                
PGRFAMCHA011202085708092019002311Mentors                                           The Raven                                                     C16301 1055607ACC3                             
ID FAMCHA011202092019092024000005Generic ID - Fingerpaint                                                                                                    150                                
PROFAMCHA011202092024092058000034SP - Stepsister From Planet Weird - Today @ 12pm                                                                            150                                
PROFAMCHA011202092058092128000030XMAS - Holiday "Faces" - Starting Tomorrow @ 7pm                                                                            150                                
PROFAMCHA011202092128092149000021XMAS - Frosty's Wonderland - Premieres Friday @ 7p                                                                          150                                
PROFAMCHA011202092149092202000013Even Stevens (WASSUP?) - Today @ 11:35am                                                                                    150                                
PROFAMCHA011202092202092240000038XMAS - Stingiest Man - Premieres Saturday @ 7:10pm                                                                          150                                
PRCFAMCHA011202092240092250000010Morning Block menu background (flex time)                                                                                   150                                
ID FAMCHA011202092250092300000010xxMagic of Disney - V3(water) - TEEN FEMALE                                                                                 150                                
PROFAMCHA011202092300092308000008CC Is Brought To You By - Click Club                                                                                        150                                
PGRFAMCHA011202092308094539002231Jersey; The                                       Ouch                                                                 6068607ACC                              
ID FAMCHA011202094539094549000010Generic ID - Ring around the rosie                                                                                          150                                
PROFAMCHA011202094549094619000030XMAS - Holiday "Tradition" - Starting Tomorrow @ 7                                                                          150                                
PROFAMCHA011202094619094649000030Lizzie McGuire (KATE) - Today @ 10:40am                                                                                     150                                
ID FAMCHA011202094649094701000012Web Rant - Wrong Basket                                                                                                     150                                
PROFAMCHA011202094701094736000035XMAS - ALF Christmas Eps. Pt.1 - December 11th                                                                              150                                
PROFAMCHA011202094736094758000022Even Stevens (KARAOKE) - Today @ 11:35am                                                                                    150                                
PROFAMCHA011202094758094816000018XMAS - Jiminy Cricket - Premieres Next Sunday                                                                               150                                
PROFAMCHA011202094816094850000034SP - Stepsister From Planet Weird - Today @ 12pm                                                                            150                                
ID FAMCHA011202094850094900000010xxMagic of Disney - V3(water) - TEEN MALE                                                                                   150                                
PROFAMCHA011202094900094908000008CC Is Brought To You By - Games                                                                                             150                                
PGRFAMCHA011202094908101316002408So Weird                                          Tulpa                                                                6068807ACC                              
ID FAMCHA011202101316101322000006Generic ID - soccer                                                                                                         150                                
PROFAMCHA011202101322101352000030XMAS - Holiday "Faces" - Starting Tomorrow @ 7pm                                                                            150                                
PROFAMCHA011202101352101426000034SP - Stepsister From Planet Weird - Today @ 12pm                                                                            150                                
PROFAMCHA011202101426101447000021XMAS - Frosty's Wonderland - Premieres Friday @ 7p                                                                          150                                
ID FAMCHA011202101447101501000014Web Blast - Male                                                                                                            150                                
PROFAMCHA011202101501101539000038XMAS - Stingiest Man - Premieres Saturday @ 7:10pm                                                                          150                                
ID FAMCHA011202101539101600000021Prime time open count down                                                                                                  150                                
PROFAMCHA011202101600101608000008CC Is Brought To You By - Click Club                                                                                        150                                
PGRFAMCHA011202101608104038002430Famous Jett Jackson; The                          Awakenings Part 2                                             B57180 1065607ACC                              
ID FAMCHA011202104038104044000006Generic ID - soccer                                                                                                         150                                
PROFAMCHA011202104044104114000030XMAS - Holiday "Tradition" - Starting Tomorrow @ 7                                                                          150                                
PROFAMCHA011202104114104144000030Lizzie McGuire (KATE) - Coming Up                                                                                           150                                
PROFAMCHA011202104144104219000035XMAS - ALF Christmas Eps. Pt.1 - December 11th                                                                              150                                
PROFAMCHA011202104219104249000030Even Stevens (GUITAR) - Today @ 8am                                                                                         150                                
PROFAMCHA011202104249104307000018XMAS - Jiminy Cricket - Premieres Next Sunday                                                                               150                                
PROFAMCHA011202104307104341000034SP - Stepsister From Planet Weird - Today @ 12pm                                                                            150                                
PRCFAMCHA011202104341104350000009Morning Block menu background (flex time)                                                                                   150                                
ID FAMCHA011202104350104400000010xxMagic of Disney - V4 - TEEN FEMALE                                                                                        150                                
PGRFAMCHA011202104400110635002235Lizzie McGuire                                    Gordo's Video                                                       A6068607B                                
ID FAMCHA011202110635110645000010Generic ID - Bubbles                                                                                                        150                                
PROFAMCHA011202110645110719000034SP - Stepsister From Planet Weird - Today @ 12pm                                                                            150                                
PROFAMCHA011202110719110749000030XMAS - Holiday "Faces" - Starting Tomorrow @ 7pm                                                                            150                                
PROFAMCHA011202110749110811000022Even Stevens (KARAOKE) - Today @ 11:35am                                                                                    150                                
PROFAMCHA011202110811110832000021XMAS - Frosty's Wonderland - Premieres Friday @ 7p                                                                          150                                
PROFAMCHA011202110832110902000030Legend of Tarzan -1- WHERE'S TARZAN - Weekdays @ 5                                                                          150                                
PROFAMCHA011202110902110940000038XMAS - Stingiest Man - Premieres Saturday @ 7:10pm                                                                          150                                
ID FAMCHA011202110940111001000021Prime time open count down                                                                                                  150                                
PROFAMCHA011202111001111008000007CC Is Brought To You By - Games                                                                                             150                                
PGRFAMCHA011202111008113137002129ALF                                               Promises, Promises                                                  A2068807BCC                              
ID FAMCHA011202113137113147000010Generic ID - Bubbles                                                                                                        150                                
PROFAMCHA011202113147113217000030XMAS - Holiday "Tradition" - Starting Tomorrow @ 7                                                                          150                                
PROFAMCHA011202113217113244000027Even Stevens (DREAM) - Coming Up                                                                                            150                                
PROFAMCHA011202113244113319000035XMAS - ALF Christmas Eps. Pt.1 - December 11th                                                                              150                                
PROFAMCHA011202113319113347000028Recess (LOGIC-D12/WKNDS) - Weekdays @ 5:30pm                                                                                150                                
PROFAMCHA011202113347113405000018XMAS - Jiminy Cricket - Premieres Next Sunday                                                                               150                                
PROFAMCHA011202113405113439000034SP - Stepsister From Planet Weird - Today @ 12pm                                                                            150                                
PRCFAMCHA011202113439113450000011Morning Block menu background (flex time)                                                                                   150                                
ID FAMCHA011202113450113500000010xxMagic of Disney - V4 - TEEN MALE                                                                                          150                                
PROFAMCHA011202113500113508000008CC Is Brought To You By - Click Club                                                                                        150                                
PGRFAMCHA011202113508115750002242Even Stevens                                      Movie Madness                                                       A6068807BCC                              
ID FAMCHA011202115750115755000005Generic ID - Bubbles*                                                                                                       150                                
PROFAMCHA011202115755115825000030XMAS - Holiday "Faces" - Starting Tomorrow @ 7pm                                                                            150                                
PROFAMCHA011202115825115859000034SP - Stepsister From Planet Weird - Coming Up                                                                               150                                
PROFAMCHA011202115859115920000021XMAS - Frosty's Wonderland - Premieres Friday @ 7p                                                                          150                                
PROFAMCHA011202115920115940000020Hoze Houndz (AUG2001) - Tonight @ 7:05pm                                                                                    150                                
ID FAMCHA011202115940120000000020Move open family size movie                                                                                                 150                                
PROFAMCHA011202120000120008000008Rating - G - Ian                                                                                                            150                                
PROFAMCHA011202120008120016000008CC Is Brought To You By - Lark **DNU AFTER 09/22**                                                                          150                                
ID FAMCHA011202120016120026000010xxMagic of Disney - V2(sky) - TEEN FEMALE                                                                                   150                                
PGRFAMCHA011202120026132616012550Stepsister From Planet Weird                                                                                          A6068807CCC                              
PROFAMCHA011202132616132624000008CC Was Brought To You By - Lark                                                                                             150                                
ID FAMCHA011202132624132639000015Generic ID - confetti                                                                                                       150                                
PROFAMCHA011202132639132709000030XMAS - Holiday "Tradition" - Starting Tomorrow @ 7                                                                          150                                
PROFAMCHA011202132709132739000030Proud Family - Today @ 4:10pm                                                                                               150                                
PROFAMCHA011202132739132814000035XMAS - ALF Christmas Eps. Pt.1 - December 11th                                                                              150                                
PROFAMCHA011202132814132844000030Weekenders (GENERIC-PT) - Today @ 4:35pm                                                                                    150                                
PROFAMCHA011202132844132912000028Recess (LOGIC-D12/WKNDS) - Weekdays @ 5:30pm                                                                                150                                
PROFAMCHA011202132912132930000018XMAS - Jiminy Cricket - Premieres Next Sunday                                                                               150                                
PRCFAMCHA011202132930132940000010Morning Block menu background (flex time)                                                                                   150                                
ID FAMCHA011202132940133000000020Move open family size movie                                                                                                 150                                
PROFAMCHA011202133000133008000008Rating - PG - Ian                                                                                                           150                                
PROFAMCHA011202133008133016000008CC Is Brought To You By - Lark **DNU AFTER 09/22**                                                                          150                                
PGRFAMCHA011202133016151145014129Adventures In Babysitting                                                                                             B6068807DCC                              
ID FAMCHA011202151145151150000005Generic ID - Bubbles*                                                                                                       150                                
PGRFAMCHA011202151150153529002339Raw Toonage                                       1-003                                                               A6068607E                                
ID FAMCHA011202153529153534000005Generic ID - Couch 1*                                                                                                       150                                
PGRFAMCHA011202153534155825002251Shnookums & Meat Funny Cartoon Show; The          1-009                                                               A6068607E                                
ID FAMCHA011202155825155830000005Generic ID - Couch 2*                                                                                                       150                                
PROFAMCHA011202155830155838000008CC Is Brought To You By - Games                                                                                             150                                
PGRFAMCHA011202155838162007002129ALF                                               Promises, Promises                                                  A2068807BCC                              
ID FAMCHA011202162007162012000005Generic ID - Couch 1*                                                                                                       150                                
PROFAMCHA011202162012162020000008CC Is Brought To You By - Click Club                                                                                        150                                
PGRFAMCHA011202162020164254002234Proud Family; The                                 She's Got Game                                                      A6028807ECC                              
ID FAMCHA011202164254164259000005Generic ID - Fingerpaint                                                                                                    150                                
PGRFAMCHA011202164259170553002254Disney's The Weekenders                           Father's Day/Follow the Leader                                      A6068607E                                
ID FAMCHA011202170553170558000005Generic ID - Marbles                                                                                                        150                                
PROFAMCHA011202170558170606000008CC Is Brought To You By - Lark **DNU AFTER 09/22**                                                                          150                                
PGRFAMCHA011202170606173004002358Stanley                                           Dolphin Talk/Whole Lotta' Snakin' Goin' On'                         A6028607ECC                              
ID FAMCHA011202173004173009000005Generic ID - Marbles                                                                                                        150                                
PROFAMCHA011202173009173017000008CC Is Brought To You By - Ian **DNU AFTER 09/22**                                                                           150                                
PGRFAMCHA011202173017175347002330PB&J Otter                                        Follow Your Nose                                                    A6068607ECC                              
ID FAMCHA011202175347175352000005Generic ID - Fingerpaint                                                                                                    150                                
PROFAMCHA011202175352175400000008CC Is Brought To You By - Lark **DNU AFTER 09/22**                                                                          150                                
PGRFAMCHA011202175400181642002242New Adventures of Winnie the Pooh; The            Oh, Bottle/Owl In The Family                                         6068607ECC                              
ID FAMCHA011202181642181647000005Generic ID - Bubbles*                                                                                                       150                                
PROFAMCHA011202181647181722000035ELMO'S WORLD CONTEST                                                                                                        150                                
ID FAMCHA011202181722181732000010Prime time open top of hour                                                                                                 150                                
PROFAMCHA011202181732181740000008CC Is Brought To You By - Ian **DNU AFTER 09/22**                                                                           150                                
PGRFAMCHA011202181740184033002253Franklin                                          Franklin Rides A Bike/Franklin Is Messy                       B10184A1065607ECC                              
ID FAMCHA011202184033184038000005Generic ID - Bubbles*                                                                                                       150                                
PROFAMCHA011202184038184113000035ELMO'S WORLD CONTEST                                                                                                        150                                
ID FAMCHA011202184113184123000010Prime time open top of hour                                                                                                 150                                
PROFAMCHA011202184123184130000007CC Is Brought To You By - Lark                                                                                              150                                
PGRFAMCHA011202184130190504002334Little Lulu Show; The                             Castaway Kids, Wrestling Away, Never Too Late                 B20207A1065607ECC                              
ID FAMCHA011202190504190509000005Generic ID - Couch 2*                                                                                                       150                                
PROFAMCHA011202190509190544000035ELMO'S WORLD CONTEST                                                                                                        150                                
ID FAMCHA011202190544190605000021Prime time open count down                                                                                                  150                                
PROFAMCHA011202190605190613000008CC Was Brought To You By - Click Club                                                                                       150                                
PGRFAMCHA011202190613192848002235Hoze Houndz                                       Ghost in the Machine/Savage Steamer                           B17121A1065607ECC                              
ID FAMCHA011202192848192859000011Generic ID - soccer                                                                                                         150                                
PROFAMCHA011202192859192929000030XMAS - Holiday "Faces" - Starting Tomorrow @ 7pm                                                                            150                                
PROFAMCHA011202192929192950000021XMAS - Frosty's Wonderland - Premieres Friday @ 7p                                                                          150                                
ID FAMCHA011202192950193000000010Prime time open top of hour                                                                                                 150                                
PROFAMCHA011202193000193008000008CC Is Brought To You By - Games                                                                                             150                                
