SO FAMCHA090801043000043011000011Sign On (oct 1)                                                                                                                                                
PRCFAMCHA090801043011043020000009CC Disclaimer - FAST - Family.ca (:09-:10)                                                                                  150                                
PGRFAMCHA090801043020045421002401Henry's World                                     EP: 2-015                                                     B81046A1065607GCC                              
PRCFAMCHA090801045421045433000012FJR - 15A - BENJAMIN BEAR 4:55 / FRANNY'S FEET 5:2                                                                          150                                
PROFAMCHA090801045433045508000035PH-D Gerald McBoing Boing - Prem on PH-D/Family Sn                                                                          150                                
PRCFAMCHA090801045508045543000035Benjamin Bear (FJR) TEDDY - Coming Up Next (JUNE09                                                                          150                                
PROFAMCHA090801045543045643000100Tigger and Pooh (FJR) SUPER SLEUTH - Weekday Morni                                                                          150                                
PRCFAMCHA090801045643045654000011Family Jr. Bumper - Acrobat (:10- :13) (JUL08)                                                                              150                                
PRCFAMCHA090801045654045703000009CC Disclaimer - FAST - Generic (:09-:10)                                                                                    150                                
PGRFAMCHA090801045703051933002230Secret World of Benjamin Bear, The                EP: 31                                                        C27272 1065607ECC                              
PRCFAMCHA090801051933051939000006Astral ID - Family Jr. Version (MAR 2009)                                                                                   150                                
PRCFAMCHA090801051939051951000012FJR - 16A - FRANNY'S FEET 5:20 / KING 5:50  (:11 -                                                                          150                                
PROFAMCHA090801051951052042000051PH-D HM Superstar Summer Sundays - Tomorrow Mornin                                                                          150                                
PROFAMCHA090801052042052127000045Tigger and Pooh (FJR) POOH SELL - Weekday Mornings                                                                          150                                
PRCFAMCHA090801052127052212000045Franny's Feet (FJR) PERFECT 10 - Coming Up Next (J                                                                          150                                
PRCFAMCHA090801052212052237000025PH-D Promo - Ooh & Ahh PH-D Throw 2009 - Call Your                                                                          150                                
PRCFAMCHA090801052237052249000012Family Jr. Bumper - Collide (:11- :14) (JUL08)                                                                              150                                
PRCFAMCHA090801052249052258000009CC Disclaimer - FAST - Family.ca (:09-:10)                                                                                  150                                
PGRFAMCHA090801052258054528002230Franny's Feet                                     EPS # 16                                                      C23971 1065607ECC                              
PRCFAMCHA090801054528054540000012FJR - 17 - KING 5:50  (:11 - :13) (APRIL 09)                                                                                150                                
PROFAMCHA090801054540054615000035PH-D Gerald McBoing Boing - Prem on PH-D/Family Sn                                                                          150                                
PGRFAMCHA090801054615054711000056PH-D Wow! Wow! Wubbzy! (Ep. 203 I The Bubble Conte                                                                    A60688120                                
PROFAMCHA090801054711054726000015PH-D WWWubbzy - Watch Full Episodes of WWWubbzy On                                                                          150                                
PRCFAMCHA090801054726054806000040King (FJR) GUS - Coming Up Next (JUNE09)                                                                                    150                                
PRCFAMCHA090801054806054841000035PH-D Videoplayer Spot (Family Jr. Only)                                                                                     150                                
PRCFAMCHA090801054841054853000012Family Jr. Bumper - Music (:11- :14) (JUL08)                                                                                150                                
PRCFAMCHA090801054853054902000009CC Disclaimer - FAST - Generic (:09-:10)                                                                                    150                                
PGRFAMCHA090801054902061133002231King                                              EP: 4-047                                                     C25350 1065607ECC                              
PRCFAMCHA090801061133061139000006Astral ID - Family Jr. Version (MAR 2009)                                                                                   150                                
PRCFAMCHA090801061139061219000040Yes Way VaCay August Overall Spot #1 (August 1-28)                                                                          150                                
PGRFAMCHA090801061219061319000100Synergy - Jonas Brothers - Paranoid - Behind The S                                                                    A60688120                                
PROFAMCHA090801061319061334000015Mackenzie Falls - Blood and Water Episode Promo (J                                                                          150                                
PROFAMCHA090801061334061350000016Nonstop Weekend Block Open (:16-:18) APR06                                                                                  150                                
PRCFAMCHA090801061350061359000009CC Disclaimer - FAST - Family.ca (:09-:10)                                                                                  150                                
PGRFAMCHA090801061359063631002232Power Rangers:  Operation Overdrive               EP: 20                                                               2068607ECC                              
PRCFAMCHA090801063631063710000039Really Big Birthdays - October - 3-4 X Day (August                                                                          150                                
PROFAMCHA090801063710063834000124WOWP The Movie DCOM Extra 1 - Prems August 28 @ 8p                                                                          150                                
PRCFAMCHA090801063834063850000016NSW Bumper - Tennis (:15-:17) APR06                                                                                         150                                
PRCFAMCHA090801063850063859000009CC Disclaimer - FAST - Generic (:09-:10)                                                                                    150                                
PGRFAMCHA090801063859070132002233Power Rangers Jungle Fury                         EP: 16                                                               2068607ACC                              
PRCFAMCHA090801070132070138000006Astral ID (FEB 2009)                                                                                                        150                                
PRCFAMCHA090801070138070208000030Family Kicks Event Spot - 4 Per Day (July 11 - Sep                                                                          150                                
PRCFAMCHA090801070208070220000012Family Kicks Video Bumper (After Every Family Kick                                                                          150                                
PROFAMCHA090801070220070229000009Family Bumpers - (Phase 3 Spring 05) - Giant Food                                                                           150                                
PROFAMCHA090801070229070259000030Read It and Weep - This Friday @ 7:30pm (JULY09)                                                                            150                                
PROFAMCHA090801070259070310000011WOWP The Movie "D. Henrie ID - Coming Soon" - Prem                                                                          150                                
PRCFAMCHA090801070310070348000038FOD - Family On Demand - Generic - Check you local                                                                          150                                
PRCFAMCHA090801070348070354000006YES WAY Bumper - Hiking (JULY09)                                                                                            150                                
PRCFAMCHA090801070354070404000010CC Disclaimer - FAST - Family.ca (:09-:10)                                                                                  150                                
PGRFAMCHA090801070404072609002205Digimon Data Squad                                EP: 47                                                               2068607ECC                              
PRCFAMCHA090801072609072621000012YES WAY WKND - 01 - CORY / SUITE LIFE OF Z & C (:1                                                                          150                                
PROFAMCHA090801072621072636000015Mackenzie Falls Overall - Now Playing @ Family.ca                                                                           150                                
PROFAMCHA090801072636072707000031Suite Life of Z & C (NSW) TONY HAWK - This Morning                                                                          150                                
PROFAMCHA090801072707072716000009Family Bumpers - (Phase 3 Spring 05) - Hip Hop (MD                                                                          150                                
PROFAMCHA090801072716072728000012Family Bumpers - (Phase 1 Spring 04) - Picnic (MD-                                                                          150                                
PROFAMCHA090801072728072738000010FAMJAM - Open/Close                                                                                                         150                                
PGRFAMCHA090801072738072908000130MV Disney - (MD/NS/NSW) - Jesse McCartney - Just S                                                                     60688120                                
PROFAMCHA090801072908072922000014xxFAMJAM - Close (FAMILY) xxDNUxx                                                                                           150                                
PROFAMCHA090801072922072940000018Cory In The House IDs - (NSW) Jason - Next                                                                                  150                                
PRCFAMCHA090801072940072958000018YES WAY Bumper - Kite Long (JULY09)                                                                                         150                                
PRCFAMCHA090801072958073007000009CC Disclaimer - FAST - Generic (:09-:10)                                                                                    150                                
PGRFAMCHA090801073007073227000220Disney Cory in the House                          EP: 11                                                               6068607BCC                              
PGRFAMCHA090801073227073926000659Disney Cory in the House                          EP: 11                                                               6068607BCC                              
PRCFAMCHA090801073926074006000040Yes Way VaCay August Overall Spot #1 (August 1-28)                                                                          150                                
PROFAMCHA090801074006074038000032Suite Life of Z & C (NSW) RHYMING - This Morning @                                                                          150                                
PROFAMCHA090801074038074202000124WOWP The Movie DCOM Extra 1 - Prems August 28 @ 8p                                                                          150                                
PROFAMCHA090801074202074233000031Zoey 101 (NSW) ANGELS This Morning @ 9am (JULY09)                                                                           150                                
PGRFAMCHA090801074233075426001153Disney Cory in the House                          EP: 11                                                               6068607BCC                              
PGRFAMCHA090801075426075549000123Disney Cory in the House                          EP: 11                                                               6068607BCC                              
PRCFAMCHA090801075549075555000006Astral ID (FEB 2009)                                                                                                        150                                
PRCFAMCHA090801075555075605000010YES WAY WKND - 02 - SUITE LIFE OF Z & C / NED'S (:                                                                          150                                
PROFAMCHA090801075605075648000043Ned's DSSG (NSW) Too Cool for School  - This Morni                                                                          150                                
PROFAMCHA090801075648075728000040Aliens In The Attic Blast - In Theatres Now (July                                                                           150                                
PROFAMCHA090801075728075759000031Zoey 101 (NSW) ANGELS This Morning @ 9am (JULY09)                                                                           150                                
PROFAMCHA090801075759075836000037That's So Raven DANCE (NSW) This Morning @ 9:30am                                                                           150                                
PROFAMCHA090801075836075916000040Ashley Tisdale Guilty Pleasure CD - Available Now                                                                           150                                
PROFAMCHA090801075916075948000032Suite Life of Z & C (NSW) IMPRESS - Coming Up Next                                                                          150                                
PRCFAMCHA090801075948075954000006YES WAY Bumper - Bleachers (JUNE09)                                                                                         150                                
ID FAMCHA090801075954080002000008Magic of Disney - MAD DASH - Wipe (:06-:09)                                                                                 150                                
PRCFAMCHA090801080002080011000009CC Disclaimer - FAST - Family.ca (:09-:10)                                                                                  150                                
PGRFAMCHA090801080011080128000117Suite Life of Zack & Cody, The                    EP: 05                                                               6068607BCC                              
PGRFAMCHA090801080128081042000914Suite Life of Zack & Cody, The                    EP: 05                                                               6068607BCC                              
PROFAMCHA090801081042081057000015Mackenzie Falls - Generic New Season Promo (Aug 1-                                                                          150                                
PROFAMCHA090801081057081132000035Robin Hood Family First Ticket PreSale $$$                                                                                  150                                
PROFAMCHA090801081132081219000047Wizards of Waverly Place BOXING (NSW) This Morning                                                                          150                                
PROFAMCHA090801081219081302000043Ned's DSSG (NSW) Too Cool for School  - This Morni                                                                          150                                
PGRFAMCHA090801081302082303001001Suite Life of Zack & Cody, The                    EP: 05                                                               6068607BCC                              
PGRFAMCHA090801082303082508000205Suite Life of Zack & Cody, The                    EP: 05                                                               6068607BCC                              
PRCFAMCHA090801082508082520000012YES WAY WKND - 03 - NED'S / ZOEY 101 (:10 - :12) (                                                                          150                                
PRCFAMCHA090801082520082559000039Really Big Birthdays - October - 3-4 X Day (August                                                                          150                                
PROFAMCHA090801082559082639000040Race to Witch Mountain DVD - Available Aug 4 (July                                                                          150                                
PROFAMCHA090801082639082718000039JONAS PREMISE SELL (YWVC) - Tonight @ 6:30pm (MAY0                                                                          150                                
PROFAMCHA090801082718082728000010FAMJAM - Open/Close                                                                                                         150                                
PGRFAMCHA090801082728082842000114MV Disney - (MD/NS/NSW) - Jesse McCartney - Just S                                                                     60688120                                
PROFAMCHA090801082842082856000014xxFAMJAM - Close (FAMILY) xxDNUxx                                                                                           150                                
PROFAMCHA090801082856082907000011WOWP The Movie "D. Henrie ID - Coming Soon" - Prem                                                                          150                                
PROFAMCHA090801082907082950000043Ned's DSSG (NSW) Too Cool for School  - Coming Up                                                                           150                                
PRCFAMCHA090801082950083003000013YES WAY Bumper - Fishing (JULY09)                                                                                           150                                
PRCFAMCHA090801083003083012000009CC Disclaimer - FAST - Generic (:09-:10)                                                                                    150                                
PGRFAMCHA090801083012083052000040Ned's Declassified School Survival Guide          EPS # 09                                                             2068807BCC                              
PGRFAMCHA090801083052084134001042Ned's Declassified School Survival Guide          EPS # 09                                                             2068807BCC                              
PRCFAMCHA090801084134084212000038FOD - Family On Demand - Generic - Check you local                                                                          150                                
PROFAMCHA090801084212084254000042Tennis Canada "Everyday Champions" Contest (Aug 1-                                                                          150                                
PROFAMCHA090801084254084325000031Zoey 101 (NSW) ANGELS This Morning @ 9am (JULY09)                                                                           150                                
PROFAMCHA090801084325084352000027That's So Raven CLIP (NSW) This Morning @ 9:30am (                                                                          150                                
PGRFAMCHA090801084352085419001027Ned's Declassified School Survival Guide          EPS # 09                                                             2068807BCC                              
PGRFAMCHA090801085419085504000045Ned's Declassified School Survival Guide          EPS # 09                                                             2068807BCC                              
PRCFAMCHA090801085504085510000006Astral ID (FEB 2009)                                                                                                        150                                
PRCFAMCHA090801085510085521000011YES WAY WKND - 04 - ZOEY 101/ THAT'S SO RAVEN (:10                                                                          150                                
PRCFAMCHA090801085521085601000040Yes Way VaCay August Overall Spot #1 (August 1-28)                                                                          150                                
PROFAMCHA090801085601085641000040Demi Lovato 'Here We Go Again' - Available Now (Ju                                                                          150                                
PROFAMCHA090801085641085718000037That's So Raven DANCE (NSW) This Morning @ 9:30am                                                                           150                                
PROFAMCHA090801085718085842000124WOWP The Movie DCOM Extra 1 - Prems August 28 @ 8p                                                                          150                                
PROFAMCHA090801085842085922000040Hannah Montana (NSW) Everywhere - This Morning @ 1                                                                          150                                
PROFAMCHA090801085922085952000030Zoey 101 (NSW) ANOTHER DAY AT PCA - Coming Up Next                                                                          150                                
PRCFAMCHA090801085952090003000011YES WAY Bumper - Log Long (JULY09)                                                                                          150                                
PRCFAMCHA090801090003090012000009CC Disclaimer - FAST - Family.ca (:09-:10)                                                                                  150                                
PGRFAMCHA090801090012090112000100Zoey 101                                          EP: 39                                                               2068807BCC                              
PGRFAMCHA090801090112091228001116Zoey 101                                          EP: 39                                                               2068807BCC                              
PRCFAMCHA090801091228091258000030Family Kicks Event Spot - 4 Per Day (July 11 - Sep                                                                          150                                
PRCFAMCHA090801091258091310000012Family Kicks Video Bumper (After Every Family Kick                                                                          150                                
PROFAMCHA090801091310091345000035Robin Hood Family First Ticket PreSale $$$                                                                                  150                                
PROFAMCHA090801091345091422000037That's So Raven DANCE (NSW) This Morning @ 9:30am                                                                           150                                
PROFAMCHA090801091422091502000040Hannah Montana (NSW) Everywhere - This Morning @ 1                                                                          150                                
PGRFAMCHA090801091502092229000727Zoey 101                                          EP: 39                                                               2068807BCC                              
PGRFAMCHA090801092229092615000346Zoey 101                                          EP: 39                                                               2068807BCC                              
PRCFAMCHA090801092615092626000011YES WAY WKND - 05 - THAT'S SO RAVEN / HANNAH MONTA                                                                          150                                
PROFAMCHA090801092626092713000047Wizards of Waverly Place BOXING (NSW) This Morning                                                                          150                                
PROFAMCHA090801092713092753000040Demi Lovato 'Here We Go Again' - Available Now (Ju                                                                          150                                
PROFAMCHA090801092753092838000045Sonny With A Chance BOYS (NSW) - This Morning @ 11                                                                          150                                
PROFAMCHA090801092838092932000054That's So Raven FORTUNE TELLER (NSW) Coming Up Nex                                                                          150                                
PROFAMCHA090801092932093002000030Read It and Weep - This Friday @ 7:30pm (JULY09)                                                                            150                                
PRCFAMCHA090801093002093011000009YES WAY Bumper - Sand Art (JULY09)                                                                                          150                                
ID FAMCHA090801093011093018000007Magic of Disney - NS/NSW/PB - Wipe (:06-:09)                                                                                150                                
PRCFAMCHA090801093018093027000009CC Disclaimer - FAST - Generic (:09-:10)                                                                                    150                                
PGRFAMCHA090801093027093337000310That's So Raven                                   EPS # 1-055                                                          6068607BCC                              
PGRFAMCHA090801093337093933000556That's So Raven                                   EPS # 1-055                                                          6068607BCC                              
PROFAMCHA090801093933093948000015Mackenzie Falls - Blood and Water Episode Promo (J                                                                          150                                
PROFAMCHA090801093948094028000040Hannah Montana (NSW) Everywhere - This Morning @ 1                                                                          150                                
PROFAMCHA090801094028094053000025Wizards of Waverly Place HOODIE (NSW) This Morning                                                                          150                                
PROFAMCHA090801094053094138000045Sonny With A Chance BOYS (NSW) - This Morning @ 11                                                                          150                                
PRCFAMCHA090801094138094218000040Yes Way VaCay August Overall Spot #1 (August 1-28)                                                                          150                                
PGRFAMCHA090801094218095416001158That's So Raven                                   EPS # 1-055                                                          6068607BCC                              
PGRFAMCHA090801095416095527000111That's So Raven                                   EPS # 1-055                                                          6068607BCC                              
PRCFAMCHA090801095527095533000006Astral ID (FEB 2009)                                                                                                        150                                
PRCFAMCHA090801095533095545000012YES WAY WKND - 06 - HANNAH MONTANA / WIZARDS (:10                                                                           150                                
PRCFAMCHA090801095545095624000039Really Big Birthdays - October - 3-4 X Day (August                                                                          150                                
PROFAMCHA090801095624095704000040Hannah Montana 3 Soundtrack - Available Now (July                                                                           150                                
PROFAMCHA090801095704095725000021Wizards of Waverly Place LAMP (NSW) This Morning @                                                                          150                                
PROFAMCHA090801095725095736000011WOWP The Movie "D. Henrie ID - Coming Soon" - Prem                                                                          150                                
PROFAMCHA090801095736095746000010FAMJAM - Open/Close                                                                                                         150                                
PGRFAMCHA090801095746095916000130MV Disney - (MD/NS/NSW) - Jesse McCartney - Just S                                                                     60688120                                
PROFAMCHA090801095916095930000014xxFAMJAM - Close (FAMILY) xxDNUxx                                                                                           150                                
PROFAMCHA090801095930100002000032Hannah Montana (NSW) Sweet 16 - Coming Up Next (JU                                                                          150                                
PRCFAMCHA090801100002100009000007YES WAY Bumper - Soccer (JUNE09)                                                                                            150                                
PRCFAMCHA090801100009100018000009CC Disclaimer - FAST - Family.ca (:09-:10)                                                                                  150                                
PGRFAMCHA090801100018100345000327Hannah Montana                                    EP: 28                                                               6068807BCC                              
PGRFAMCHA090801100345101413001028Hannah Montana                                    EP: 28                                                               6068807BCC                              
PRCFAMCHA090801101413101451000038FOD - Family On Demand - Generic - Check you local                                                                          150                                
PROFAMCHA090801101451101526000035Robin Hood Family First Ticket PreSale $$$                                                                                  150                                
PROFAMCHA090801101526101556000030Wizards of Waverly Place METRIC SYSTEM (NSW) This                                                                           150                                
PGRFAMCHA090801101556102357000801Hannah Montana                                    EP: 28                                                               6068807BCC                              
PGRFAMCHA090801102357102432000035Hannah Montana                                    EP: 28                                                               6068807BCC                              
PRCFAMCHA090801102432102443000011YES WAY WKND - 07 - WIZARDS / SONNY  (:10 - :12) (                                                                          150                                
PRCFAMCHA090801102443102513000030Family Kicks Event Spot - 4 Per Day (July 11 - Sep                                                                          150                                
PRCFAMCHA090801102513102525000012Family Kicks Video Bumper (After Every Family Kick                                                                          150                                
PROFAMCHA090801102525102600000035Robin Hood Family First Ticket PreSale $$$                                                                                  150                                
PROFAMCHA090801102600102639000039JONAS July Retag (NSW) - Tonight @ 6pm (MAY09)                                                                              150                                
PGRFAMCHA090801102639102839000200Synergy - Hannah Montana - Sing Whaaaat?! Spot #2                                                                     A60688120                                
PROFAMCHA090801102839102926000047Wizards of Waverly Place BOXING (NSW) Coming Up Ne                                                                          150                                
PROFAMCHA090801102926102956000030Read It and Weep - This Friday @ 7:30pm (JULY09)                                                                            150                                
PRCFAMCHA090801102956103007000011YES WAY Bumper - Watermelon Long (JULY09)                                                                                   150                                
PRCFAMCHA090801103007103016000009CC Disclaimer - FAST - Generic (:09-:10)                                                                                    150                                
PGRFAMCHA090801103016103312000256Disney Wizards of Waverly Place                   EP: 07                                                               6068607BCC                              
PGRFAMCHA090801103312104104000752Disney Wizards of Waverly Place                   EP: 07                                                               6068607BCC                              
PROFAMCHA090801104104104119000015Mackenzie Falls Overall - Now Playing @ Family.ca                                                                           150                                
PROFAMCHA090801104119104201000042Tennis Canada "Everyday Champions" Contest (Aug 1-                                                                          150                                
PROFAMCHA090801104201104246000045Sonny With A Chance BOYS (NSW) - This Morning @ 11                                                                          150                                
PROFAMCHA090801104246104305000019Suite Life on Deck MR. MONSTER (NSW) This Morning                                                                           150                                
PGRFAMCHA090801104305105431001126Disney Wizards of Waverly Place                   EP: 07                                                               6068607BCC                              
PGRFAMCHA090801105431105518000047Disney Wizards of Waverly Place                   EP: 07                                                               6068607BCC                              
PRCFAMCHA090801105518105524000006Astral ID (FEB 2009)                                                                                                        150                                
PRCFAMCHA090801105524105536000012YES WAY WKND - 08 - SONNY / SUITE LIFE ON DECK (:1                                                                          150                                
PRCFAMCHA090801105536105616000040Yes Way VaCay August Overall Spot #1 (August 1-28)                                                                          150                                
PROFAMCHA090801105616105656000040Demi Lovato 'Here We Go Again' - Available Now (Ju                                                                          150                                
PROFAMCHA090801105656105715000019Suite Life on Deck MR. MONSTER (NSW) This Morning                                                                           150                                
PROFAMCHA090801105715105725000010FAMJAM - Open/Close                                                                                                         150                                
PGRFAMCHA090801105725105855000130MV Disney - (MD/NS/NSW) - Jesse McCartney - Just S                                                                     60688120                                
PROFAMCHA090801105855105909000014xxFAMJAM - Close (FAMILY) xxDNUxx                                                                                           150                                
PROFAMCHA090801105909105941000032Suite Life of Z & C (NSW) This Afternoon @ 3pm (JU                                                                          150                                
PROFAMCHA090801105941105956000015Sonny With A Chance SO RANDOM (NSW) - Coming Up Ne                                                                          150                                
PRCFAMCHA090801105956110006000010YES WAY Bumper - Chalk Art (JUNE09)                                                                                         150                                
PRCFAMCHA090801110006110015000009CC Disclaimer - FAST - Family.ca (:09-:10)                                                                                  150                                
PGRFAMCHA090801110015110234000219Disney Sonny With A Chance                        EP: 09                                                               6068507BCC                              
PGRFAMCHA090801110234111057000823Disney Sonny With A Chance                        EP: 09                                                               6068507BCC                              
PRCFAMCHA090801111057111136000039Really Big Birthdays - October - 3-4 X Day (August                                                                          150                                
PROFAMCHA090801111136111216000040Hannah Montana 3 Soundtrack - Available Now (July                                                                           150                                
PROFAMCHA090801111216111340000124WOWP The Movie DCOM Extra 1 - Prems August 28 @ 8p                                                                          150                                
PROFAMCHA090801111340111359000019Suite Life on Deck MR. MONSTER (NSW) This Morning                                                                           150                                
PGRFAMCHA090801111359112448001049Disney Sonny With A Chance                        EP: 09                                                               6068507BCC                              
PGRFAMCHA090801112448112531000043Disney Sonny With A Chance                        EP: 09                                                               6068507BCC                              
PRCFAMCHA090801112531112543000012YES WAY NSW - 09 - SUITE LIFE ON DECK/POPCORN PIX(                                                                          150                                
PROFAMCHA090801112543112615000032Suite Life of Z & C (NSW) This Afternoon @ 3pm (JU                                                                          150                                
PROFAMCHA090801112615112655000040Race to Witch Mountain DVD - Available Aug 4 (July                                                                          150                                
PROFAMCHA090801112655112742000047Wizards of Waverly Place BOXING (NSW) This Afterno                                                                          150                                
PROFAMCHA090801112742112751000009Family Bumpers - (Phase 3 Spring 05) - Giant Food                                                                           150                                
PROFAMCHA090801112751112801000010FAMJAM - Open/Close                                                                                                         150                                
PGRFAMCHA090801112801112931000130MV Disney - (MD/NS/NSW) - Jesse McCartney - Just S                                                                     60688120                                
PROFAMCHA090801112931112945000014xxFAMJAM - Close (FAMILY) xxDNUxx                                                                                           150                                
PROFAMCHA090801112945113004000019Suite Life on Deck MR. MONSTER (NSW) Coming Up Nex                                                                          150                                
PRCFAMCHA090801113004113010000006YES WAY Bumper - Halifax (JULY09)                                                                                           150                                
PRCFAMCHA090801113010113020000010CC Disclaimer - FAST - Generic (:09-:10)                                                                                    150                                
PGRFAMCHA090801113020113237000217Suite Life on Deck, The                           EP: 09                                                               6068807BCC                              
PGRFAMCHA090801113237114134000857Suite Life on Deck, The                           EP: 09                                                               6068807BCC                              
PRCFAMCHA090801114134114204000030Family Kicks Event Spot - 4 Per Day (July 11 - Sep                                                                          150                                
PRCFAMCHA090801114204114216000012Family Kicks Video Bumper (After Every Family Kick                                                                          150                                
PROFAMCHA090801114216114227000011WOWP The Movie "D. Henrie ID - Coming Soon" - Prem                                                                          150                                
PROFAMCHA090801114227114259000032Suite Life of Z & C (NSW) This Afternoon @ 3pm (JU                                                                          150                                
PROFAMCHA090801114259114338000039JONAS PREMISE SELL (YWVC) - NEW EPS - Friday Night                                                                          150                                
PGRFAMCHA090801114338115411001033Suite Life on Deck, The                           EP: 09                                                               6068807BCC                              
PGRFAMCHA090801115411115453000042Suite Life on Deck, The                           EP: 09                                                               6068807BCC                              
PRCFAMCHA090801115453115459000006Astral ID (FEB 2009)                                                                                                        150                                
PRCFAMCHA090801115459115511000012NSW - 10 - POPCORN PIX/POPCORN PIX (:11 - :13) (SE                                                                          150                                
PROFAMCHA090801115511115526000015Mackenzie Falls - Blood and Water Episode Promo (J                                                                          150                                
PROFAMCHA090801115526115606000040Bandslam - In Theatres August 14 (July 20 - Aug 13                                                                          150                                
PROFAMCHA090801115606115638000032Suite Life of Z & C (NSW) This Afternoon @ 3pm (JU                                                                          150                                
PROFAMCHA090801115638115648000010FAMJAM - Open/Close                                                                                                         150                                
PGRFAMCHA090801115648115818000130MV Disney - (MD/NS/NSW) - Jesse McCartney - Just S                                                                     60688120                                
PROFAMCHA090801115818115832000014xxFAMJAM - Close (FAMILY) xxDNUxx                                                                                           150                                
PROFAMCHA090801115832115851000019Suite Life on Deck MR. MONSTER (NSW) This Afternoo                                                                          150                                
PROFAMCHA090801115851115921000030Wizards of Waverly Place JUSTIN (NSW) This Afterno                                                                          150                                
PRCFAMCHA090801115921115959000038FOD - Family On Demand - Generic - Check you local                                                                          150                                
ID FAMCHA090801115959120018000019Popcorn Pix Block Open (JUNE 06) (:18-:20)                                                                                  150                                
ID FAMCHA090801120018120028000010Ratings - G - Popcorn Pix Only (July 07)                                                                                    150                                
PRCFAMCHA090801120028120037000009CC Disclaimer - FAST - Generic (:09-:10)                                                                                    150                                
PGRFAMCHA090801120037133117013040My Magic Dog                                                                                                          A2068807DCC                              
PRCFAMCHA090801133117133128000011YES WAY NSW - 11 - POPCORN PIX/SUITE LIFE OF Z & C                                                                          150                                
PROFAMCHA090801133128133158000030Wizards of Waverly Place ALEX (NSW) This Afternoon                                                                          150                                
ID FAMCHA090801133158133216000018Popcorn Pix Block Open (JUNE 06) (:18-:20)                                                                                  150                                
ID FAMCHA090801133216133226000010Ratings - G - Popcorn Pix Only (July 07)                                                                                    150                                
PGRFAMCHA090801133226145617012351Lenny the Wonder Dog                                                                                                  A2068807D                                
PRCFAMCHA090801145617145623000006Astral ID (FEB 2009)                                                                                                        150                                
PRCFAMCHA090801145623145702000039Really Big Birthdays - October - 3-4 X Day (August                                                                          150                                
PROFAMCHA090801145702145721000019Suite Life on Deck MR. MONSTER (NSW) This Afternoo                                                                          150                                
PROFAMCHA090801145721145732000011WOWP The Movie "D. Henrie ID - Coming Soon" - Prem                                                                          150                                
PROFAMCHA090801145732145742000010FAMJAM - Open/Close                                                                                                         150                                
PGRFAMCHA090801145742145908000126MV Disney - (MD/NS/NSW) - Jesse McCartney - Just S                                                                     60688120                                
PROFAMCHA090801145908145922000014xxFAMJAM - Close (FAMILY) xxDNUxx                                                                                           150                                
PROFAMCHA090801145922145953000031Suite Life of Z & C (NSW) TONY HAWK - Coming Up Ne                                                                          150                                
PROFAMCHA090801145953150010000017Nonstop Weekend Block Open (:16-:18) APR06                                                                                  150                                
ID FAMCHA090801150010150016000006Magic of Disney - NS/NSW/PB - Wipe (:06-:09)                                                                                150                                
PRCFAMCHA090801150016150025000009CC Disclaimer - FAST - Family.ca (:09-:10)                                                                                  150                                
PGRFAMCHA090801150025152256002231Suite Life of Zack and Cody, The                  EP: 09                                                               6068607BCC                              
PRCFAMCHA090801152256152307000011YES WAY WKND - 12 - SUITE LIFE ON DECK / WIZARDS (                                                                          150                                
PRCFAMCHA090801152307152347000040Yes Way VaCay August Overall Spot #1 (August 1-28)                                                                          150                                
PROFAMCHA090801152347152417000030Wizards of Waverly Place ALEX (NSW) This Afternoon                                                                          150                                
PROFAMCHA090801152417152431000014Cory In The House (NSW) CORY - This Afternoon @ 4:                                                                          150                                
PROFAMCHA090801152431152450000019Suite Life on Deck MR. MONSTER (NSW) Coming Up Nex                                                                          150                                
PRCFAMCHA090801152450152506000016YES WAY Bumper - Marco Polo (JULY09)                                                                                        150                                
PRCFAMCHA090801152506152516000010CC Disclaimer - FAST - Generic (:09-:10)                                                                                    150                                
PGRFAMCHA090801152516154733002217Suite Life on Deck, The                           EP: 17                                                               6068807BCC                              
PRCFAMCHA090801154733154739000006Astral ID (FEB 2009)                                                                                                        150                                
PRCFAMCHA090801154739154750000011YES WAY WKND - 13 - WIZARDS / CORY IN THE HOUSE (:                                                                          150                                
PROFAMCHA090801154750154804000014Cory In The House (NSW) CORY - This Afternoon @ 4:                                                                          150                                
PROFAMCHA090801154804154842000038That's So Raven DANCE (NSW) This Afternoon @ 4:45p                                                                          150                                
PROFAMCHA090801154842154927000045Sonny With A Chance BOYS (NSW) - This Afternoon @                                                                           150                                
PROFAMCHA090801154927154957000030Wizards of Waverly Place METRIC SYSTEM (NSW) Comin                                                                          150                                
PRCFAMCHA090801154957155004000007YES WAY Bumper - School Door (JUNE09)                                                                                       150                                
PRCFAMCHA090801155004155013000009CC Disclaimer - FAST - Generic (:09-:10)                                                                                    150                                
PGRFAMCHA090801155013155341000328Disney Wizards of Waverly Place                   EP: 13                                                               6068607BCC                              
PGRFAMCHA090801155341160326000945Disney Wizards of Waverly Place                   EP: 13                                                               6068607BCC                              
PGRFAMCHA090801160326161203000837Disney Wizards of Waverly Place                   EP: 13                                                               6068607BCC                              
PGRFAMCHA090801161203161243000040Disney Wizards of Waverly Place                   EP: 13                                                               6068607BCC                              
PRCFAMCHA090801161243161254000011YES WAY WKND - 14 - CORY IN THE HOUSE / THAT'S SO                                                                           150                                
PRCFAMCHA090801161254161324000030Family Kicks Event Spot - 4 Per Day (July 11 - Sep                                                                          150                                
PRCFAMCHA090801161324161336000012Family Kicks Video Bumper (After Every Family Kick                                                                          150                                
PROFAMCHA090801161336161418000042Tennis Canada "Everyday Champions" Contest (Aug 1-                                                                          150                                
PROFAMCHA090801161418161456000038That's So Raven DANCE (NSW) This Afternoon @ 4:45p                                                                          150                                
PROFAMCHA090801161456161511000015Sonny With A Chance SO RANDOM (NSW) - This Afterno                                                                          150                                
PROFAMCHA090801161511161635000124WOWP The Movie DCOM Extra 1 - Prems August 28 @ 8p                                                                          150                                
PROFAMCHA090801161635161649000014Cory In The House (NSW) CORY - Coming Up Next (JUN                                                                          150                                
PROFAMCHA090801161649161704000015Mackenzie Falls - Generic New Season Promo (Aug 1-                                                                          150                                
PRCFAMCHA090801161704161715000011YES WAY Bumper - Watermelon Long (JULY09)                                                                                   150                                
PRCFAMCHA090801161715161724000009CC Disclaimer - FAST - Family.ca (:09-:10)                                                                                  150                                
PGRFAMCHA090801161724161928000204Disney Cory in the House                          EP: 09                                                               6068607BCC                              
PGRFAMCHA090801161928162751000823Disney Cory in the House                          EP: 09                                                               6068607BCC                              
PGRFAMCHA090801162751163837001046Disney Cory in the House                          EP: 09                                                               6068607BCC                              
PGRFAMCHA090801163837163955000118Disney Cory in the House                          EP: 09                                                               6068607BCC                              
PRCFAMCHA090801163955164001000006Astral ID (FEB 2009)                                                                                                        150                                
PRCFAMCHA090801164001164011000010YES WAY WKND - 15 - THAT'S SO RAVEN / SONNY (:10 -                                                                          150                                
PRCFAMCHA090801164011164051000040Yes Way VaCay August Overall Spot #1 (August 1-28)                                                                          150                                
PROFAMCHA090801164051164131000040Aliens In The Attic Blast - In Theatres Now (July                                                                           150                                
PROFAMCHA090801164131164146000015Sonny With A Chance SO RANDOM (NSW) - This Afterno                                                                          150                                
PRCFAMCHA090801164146164206000020Latest Buzz - SIZZLE (NSW) Tonight @ 6:30pm (JUNE0                                                                          150                                
PROFAMCHA090801164206164233000027That's So Raven CLIP (NSW) Coming Up Next (APR08)                                                                           150                                
PRCFAMCHA090801164233164311000038FOD - Family On Demand - Generic - Check you local                                                                          150                                
PRCFAMCHA090801164311164317000006YES WAY Bumper - Bleachers (JUNE09)                                                                                         150                                
ID FAMCHA090801164317164325000008Magic of Disney - NS/NSW/PB - Shape (:06-:09)                                                                               150                                
PRCFAMCHA090801164325164334000009CC Disclaimer - FAST - Generic (:09-:10)                                                                                    150                                
PGRFAMCHA090801164334170613002239That's So Raven                                   EP: 085                                                              6068607BCC                              
PRCFAMCHA090801170613170625000012YES WAY NSW - 15 - SONNY/HANNAH MONTANA (:10 - :12                                                                          150                                
PROFAMCHA090801170625170657000032JONAS "Joe and Stella" (NSW) - Tonight @ 6:00pm (J                                                                          150                                
PROFAMCHA090801170657170737000040Demi Lovato 'Here We Go Again' - Available Now (Ju                                                                          150                                
PRCFAMCHA090801170737170807000030Latest Buzz - LOCO (NSW) Tonight @ 6:30pm (JUNE09)                                                                          150                                
PROFAMCHA090801170807170818000011WOWP The Movie "D. Henrie ID - Coming Soon" - Prem                                                                          150                                
PROFAMCHA090801170818170903000045Sonny With A Chance BOYS (NSW) - Coming Up Next (J                                                                          150                                
PRCFAMCHA090801170903170916000013YES WAY Bumper - Fishing (JULY09)                                                                                           150                                
PRCFAMCHA090801170916170925000009CC Disclaimer - FAST - Family.ca (:09-:10)                                                                                  150                                
PGRFAMCHA090801170925171212000247Disney Sonny With A Chance                        EP: 03                                                               6068507BCC                              
PGRFAMCHA090801171212172003000751Disney Sonny With A Chance                        EP: 03                                                               6068507BCC                              
PGRFAMCHA090801172003173054001051Disney Sonny With A Chance                        EP: 03                                                               6068507BCC                              
PGRFAMCHA090801173054173155000101Disney Sonny With A Chance                        EP: 03                                                               6068507BCC                              
PRCFAMCHA090801173155173201000006Astral ID (FEB 2009)                                                                                                        150                                
PRCFAMCHA090801173201173212000011YES WAY WKND - 16 - HANNAH MONTANA / JONAS (:10 -                                                                           150                                
PROFAMCHA090801173212173227000015Mackenzie Falls - Blood and Water Episode Promo (J                                                                          150                                
PROFAMCHA090801173227173307000040Race to Witch Mountain DVD - Available Aug 4 (July                                                                          150                                
PROFAMCHA090801173307173316000009Family Bumpers - (Phase 2 F/W 04) - Skateboard (MD                                                                          150                                
PROFAMCHA090801173316173355000039JONAS July Retag (NSW) - Tonight @ 6pm (MAY09)                                                                              150                                
PROFAMCHA090801173355173435000040Hannah Montana 3 Soundtrack - Available Now (July                                                                           150                                
PROFAMCHA090801173435173504000029Hannah Montana (NSW) Super Awesome - Coming Up Nex                                                                          150                                
PRCFAMCHA090801173504173515000011YES WAY Bumper - Log Long (JULY09)                                                                                          150                                
PRCFAMCHA090801173515173524000009CC Disclaimer - FAST - Generic (:09-:10)                                                                                    150                                
PGRFAMCHA090801173524173721000157Hannah Montana                                    EP: 10                                                               6068807BCC                              
PGRFAMCHA090801173721174548000827Hannah Montana                                    EP: 10                                                               6068807BCC                              
PGRFAMCHA090801174548175644001056Hannah Montana                                    EP: 10                                                               6068807BCC                              
PGRFAMCHA090801175644175754000110Hannah Montana                                    EP: 10                                                               6068807BCC                              
PRCFAMCHA090801175754175805000011YES WAY WKND - 18 - JONAS / LATEST BUZZ (:10 - :12                                                                          150                                
PRCFAMCHA090801175805175844000039Really Big Birthdays - October - 3-4 X Day (August                                                                          150                                
PROFAMCHA090801175844175924000040Ashley Tisdale Guilty Pleasure CD - Available Now                                                                           150                                
PRCFAMCHA090801175924175954000030Latest Buzz - LOCO (NSW) Tonight @ 6:30pm (JUNE09)                                                                          150                                
PROFAMCHA090801175954180013000019Suite Life on Deck MR. MONSTER (NSW) Tonight @ 6:5                                                                          150                                
PROFAMCHA090801180013180030000017Zoey 101 (NSW)  ZOEY, ZOEY, ZOEY - Tonight @ 7:20p                                                                          150                                
PROFAMCHA090801180030180102000032JONAS "Joe and Stella" (NSW) - Coming Up Next (JUL                                                                          150                                
PRCFAMCHA090801180102180111000009YES WAY Bumper - Sand Art (JULY09)                                                                                          150                                
PRCFAMCHA090801180111180120000009CC Disclaimer - FAST - Generic (:09-:10)                                                                                    150                                
PGRFAMCHA090801180120182338002218Disney JONAS                                      EP: 04                                                               6068507BCC                              
PRCFAMCHA090801182338182344000006Astral ID (FEB 2009)                                                                                                        150                                
PRCFAMCHA090801182344182355000011YES WAY WKND - 19 - LATEST BUZZ / SUITE LIFE ON DE                                                                          150                                
PRCFAMCHA090801182355182425000030Family Kicks Event Spot - 4 Per Day (July 11 - Sep                                                                          150                                
PRCFAMCHA090801182425182437000012Family Kicks Video Bumper (After Every Family Kick                                                                          150                                
PROFAMCHA090801182437182516000039JONAS PREMISE SELL (YWVC) - NEW EPS - Friday Night                                                                          150                                
PROFAMCHA090801182516182526000010FAMJAM - Open/Close                                                                                                         150                                
PGRFAMCHA090801182526182626000100MV Disney - (MD/NS/NSW) - Jesse McCartney - Just S                                                                     60688120                                
PROFAMCHA090801182626182640000014xxFAMJAM - Close (FAMILY) xxDNUxx                                                                                           150                                
PRCFAMCHA090801182640182710000030Latest Buzz - LOCO (NSW) Coming Up Next (JUNE09)                                                                            150                                
PRCFAMCHA090801182710182717000007YES WAY Bumper - Soccer (JUNE09)                                                                                            150                                
PGRFAMCHA090801182717184952002235Latest Buzz II                                    EP: 19                                                        C29635 1055607BCC3                             
PRCFAMCHA090801184952185003000011YES WAY WKND - 20 - SUITE LIFE ON DECK / ZOEY 101                                                                           150                                
PRCFAMCHA090801185003185043000040Yes Way VaCay August Overall Spot #1 (August 1-28)                                                                          150                                
PROFAMCHA090801185043185123000040Aliens In The Attic Blast - In Theatres Now (July                                                                           150                                
PRCFAMCHA090801185123185132000009Family Bumpers - (Phase 1 Spring 04) - Soccer (MD-                                                                          150                                
PROFAMCHA090801185132185157000025Zoey 101 - BOOTH (NSW) Tonight @ 7:20pm (SEPT08)                                                                            150                                
PRCFAMCHA090801185157185228000031Life W D (NSW) A WHOLE NEW DEREK - Tonight @ 7:45p                                                                          150                                
PROFAMCHA090801185228185247000019Suite Life on Deck MR. MONSTER (NSW) Coming Up Nex                                                                          150                                
PROFAMCHA090801185247185302000015Mackenzie Falls Overall - Now Playing @ Family.ca                                                                           150                                
PRCFAMCHA090801185302185313000011YES WAY Bumper - Watermelon Long (JULY09)                                                                                   150                                
PRCFAMCHA090801185313185322000009CC Disclaimer - FAST - Generic (:09-:10)                                                                                    150                                
PGRFAMCHA090801185322185611000249Suite Life on Deck, The                           EP: 03                                                               6068807BCC                              
PGRFAMCHA090801185611190647001036Suite Life on Deck, The                           EP: 03                                                               6068807BCC                              
PGRFAMCHA090801190647191359000712Suite Life on Deck, The                           EP: 03                                                               6068807BCC                              
PGRFAMCHA090801191359191552000153Suite Life on Deck, The                           EP: 03                                                               6068807BCC                              
PRCFAMCHA090801191552191558000006Astral ID (FEB 2009)                                                                                                        150                                
PRCFAMCHA090801191558191609000011YES WAY WKND - 20 - ZOEY 101 / LIFE WITH DEREK (:1                                                                          150                                
PROFAMCHA090801191609191621000012Hannah Montana (NSW) IDs - Miley # 1 - Tonight @ 8                                                                          150                                
PROFAMCHA090801191621191745000124WOWP The Movie DCOM Extra 1 - Prems August 28 @ 8p                                                                          150                                
PROFAMCHA090801191745191825000040Zoey 101 (NSW) SAFETY CUPCAKE - Coming Up Next (MA                                                                          150                                
PRCFAMCHA090801191825191903000038FOD - Family On Demand - Generic - Check you local                                                                          150                                
PRCFAMCHA090801191903191913000010YES WAY Bumper - Chalk Art (JUNE09)                                                                                         150                                
PRCFAMCHA090801191913191923000010CC Disclaimer - FAST - Family.ca (:09-:10)                                                                                  150                                
PGRFAMCHA090801191923192023000100Zoey 101                                          EP: 39                                                               2068807BCC                              
PGRFAMCHA090801192023193138001115Zoey 101                                          EP: 39                                                               2068807BCC                              
PGRFAMCHA090801193138193906000728Zoey 101                                          EP: 39                                                               2068807BCC                              
PGRFAMCHA090801193906194252000346Zoey 101                                          EP: 39                                                               2068807BCC                              
PRCFAMCHA090801194252194303000011YES WAY WKND - 21 - LIFE WITH DEREK / SUITE LIFE O                                                                          150                                
PROFAMCHA090801194303194334000031Suite Life of Z & C (NSW) TONY HAWK - Tonight @ 8:                                                                          150                                
PROFAMCHA090801194334194414000040Race to Witch Mountain DVD - Available Aug 4 (July                                                                          150                                
PROFAMCHA090801194414194423000009Family Bumpers - (Phase 1 Spring 04) - DJ Spinning                                                                          150                                
PRCFAMCHA090801194423194515000052Life W D (NSW) Casey & Derek - Coming Up Next (MAR                                                                          150                                
PRCFAMCHA090801194515194521000006YES WAY Bumper - Halifax (JULY09)                                                                                           150                                
PRCFAMCHA090801194521194531000010CC Disclaimer - FAST - Generic (:09-:10)                                                                                    150                                
PGRFAMCHA090801194531200801002230Life with Derek                                   EP: 24                                                        C26679A1065607BCC                              
PRCFAMCHA090801200801200807000006Astral ID (FEB 2009)                                                                                                        150                                
PRCFAMCHA090801200807200818000011YES WAY WKND - 22 - SUITE LIFE OF Z & C / HANNAH M                                                                          150                                
PRCFAMCHA090801200818200857000039Really Big Birthdays - October - 3-4 X Day (August                                                                          150                                
PROFAMCHA090801200857200937000040Hannah Montana 3 Soundtrack - Available Now (July                                                                           150                                
PROFAMCHA090801200937201009000032Suite Life of Z & C (NSW) IMPRESS - Coming Up Next                                                                          150                                
PRCFAMCHA090801201009201020000011YES WAY Bumper - Log Long (JULY09)                                                                                          150                                
ID FAMCHA090801201020201026000006Magic of Disney - NS/NSW/PB - Wipe (:06-:09)                                                                                150                                
PRCFAMCHA090801201026201035000009CC Disclaimer - FAST - Family.ca (:09-:10)                                                                                  150                                
PGRFAMCHA090801201035203315002240Suite Life of Zack & Cody, The                    EP: 09                                                               6068607BCC                              
PRCFAMCHA090801203315203326000011YES WAY WKND - 23 - HANNAH MONTANA (:10 - :12) (JU                                                                          150                                
PRCFAMCHA090801203326203406000040Yes Way VaCay August Overall Spot #1 (August 1-28)                                                                          150                                
PROFAMCHA090801203406203445000039JONAS PREMISE SELL (YWVC) - NEW EPS - Friday Night                                                                          150                                
PROFAMCHA090801203445203547000102Hannah Montana (NSW) Mockumentry - Coming Up Next                                                                           150                                
PROFAMCHA090801203547203602000015Mackenzie Falls - Blood and Water Episode Promo (J                                                                          150                                
PRCFAMCHA090801203602203611000009YES WAY Bumper - Sand Art (JULY09)                                                                                          150                                
PRCFAMCHA090801203611203620000009CC Disclaimer - FAST - Generic (:09-:10)                                                                                    150                                
PGRFAMCHA090801203620204343000723Hannah Montana                                    EP: 22                                                               6068807BCC                              
PGRFAMCHA090801204343204738000355Hannah Montana                                    EP: 22                                                               6068807BCC                              
PGRFAMCHA090801204738205334000556Hannah Montana                                    EP: 22                                                               6068807BCC                              
PGRFAMCHA090801205334205848000514Hannah Montana                                    EP: 22                                                               6068807BCC                              
PRCFAMCHA090801205848205854000006Astral ID (FEB 2009)                                                                                                        150                                
PRCFAMCHA090801205854205906000012NSW - 25 - NIGHTLY PIX/NIGHTLY PIX (no time) :11 -                                                                          150                                
PROFAMCHA090801205906205938000032JONAS "Joe and Stella" (NSW) - Tomorrow Night @ 6:                                                                          150                                
PROFAMCHA090801205938205953000015Mackenzie Falls Overall - Now Playing @ Family.ca                                                                           150                                
PROFAMCHA090801205953210003000010xxNightly Pix Movie Open (:10-:15)                                                                                          150                                
ID FAMCHA090801210003210013000010Rating - PG - Nightly Pix Only  (DEC05) (:08 - :10                                                                          150                                
PRCFAMCHA090801210013210022000009CC Disclaimer - SLOW - Family.ca (:09-:10)                                                                                  150                                
PGRFAMCHA090801210022221958011936Bridges of Madison County                                                                                             B2068807DCC                              
PGRFAMCHA090801221958231219005221Bridges of Madison County                                                                                             B2068807DCC                              
PRCFAMCHA090801231219231230000011NSW - 25c - NIGHTLY PIX/HANNAH (1:00)( :11 - :13)                                                                           150                                
PROFAMCHA090801231230231240000010xxNightly Pix Movie Open (:10-:15)                                                                                          150                                
PRCFAMCHA090801231240231249000009CC Disclaimer - SLOW - Generic (:09 -:10)                                                                                   150                                
PGRFAMCHA090801231249004243012954The Adventures of the Cactus Kid                                                                                       2068807DCC                              
PRCFAMCHA090801004243004249000006Astral ID (FEB 2009)                                                                                                        150                                
PRCFAMCHA090801004249004302000013NSW - 26 - SADIE/SADIE (:11 - :13) (SEPT07)                                                                                 150                                
PRCFAMCHA090801004302004342000040Yes Way VaCay August Overall Spot #1 (August 1-28)                                                                          150                                
PROFAMCHA090801004342004427000045Sonny With A Chance BOYS (NSW) - Tomorrow Afternoo                                                                          150                                
PROFAMCHA090801004427004446000019Suite Life on Deck MR. MONSTER (NSW) Tomorrow Nigh                                                                          150                                
PROFAMCHA090801004446004456000010FAMJAM - Open/Close                                                                                                         150                                
PGRFAMCHA090801004456004845000349MV Disney - (MD/NS/NSW) - Jesse McCartney - Just S                                                                     60688120                                
PROFAMCHA090801004845004859000014xxFAMJAM - Close (FAMILY) xxDNUxx                                                                                           150                                
PROFAMCHA090801004859004956000057Suite Life of Z & C FABULOUS LIFESTYLES (NSW) Tomo                                                                          150                                
PROFAMCHA090801004956005035000039JONAS PREMISE SELL (YWVC) - NEW EPS - Friday Night                                                                          150                                
PROFAMCHA090801005035005045000010FAMJAM - Open/Close                                                                                                         150                                
PGRFAMCHA090801005045005448000403MV Disney - (MD/NS/NSW) - Jesse McCartney - Just S                                                                     20688120                                
PROFAMCHA090801005448005502000014xxFAMJAM - Close (FAMILY) xxDNUxx                                                                                           150                                
PROFAMCHA090801005502005517000015Mackenzie Falls - Blood and Water Episode Promo (J                                                                          150                                
PROFAMCHA090801005517005641000124WOWP The Movie DCOM Extra 1 - Prems August 28 @ 8p                                                                          150                                
PROFAMCHA090801005641005651000010FAMJAM - Open/Close                                                                                                         150                                
PGRFAMCHA090801005651005821000130MV Disney - (MD/NS/NSW) - Jesse McCartney - Just S                                                                     60688120                                
PROFAMCHA090801005821005835000014xxFAMJAM - Close (FAMILY) xxDNUxx                                                                                           150                                
PROFAMCHA090801005835005916000041Hannah Montana (NSW) Everywhere - Coming Up Next (                                                                          150                                
PRCFAMCHA090801005916005946000030Family Kicks Event Spot - 4 Per Day (July 11 - Sep                                                                          150                                
PRCFAMCHA090801005946005958000012Family Kicks Video Bumper (After Every Family Kick                                                                          150                                
PROFAMCHA090801005958010015000017Nonstop Weekend Block Open (:16-:18) APR06                                                                                  150                                
PRCFAMCHA090801010015010024000009CC Disclaimer - SLOW - Family.ca (:09-:10)                                                                                  150                                
PGRFAMCHA090801010024010449000425Hannah Montana                                    EP: 18                                                               6068807BCC                              
PGRFAMCHA090801010449011254000805Hannah Montana                                    EP: 18                                                               6068807BCC                              
PGRFAMCHA090801011254012211000917Hannah Montana                                    EP: 18                                                               6068807BCC                              
PGRFAMCHA090801012211012254000043Hannah Montana                                    EP: 18                                                               6068807BCC                              
PRCFAMCHA090801012254012305000011NSW - 29 - CORY/PHIL  (:11 - :13) (OCT08)                                                                                   150                                
PRCFAMCHA090801012305012312000007YES WAY Bumper - Soccer (JUNE09)                                                                                            150                                
ID FAMCHA090801012312012319000007Magic of Disney - NS/NSW/PB - Wipe (:06-:09)                                                                                150                                
PRCFAMCHA090801012319012328000009CC Disclaimer - SLOW - Generic (:09 -:10)                                                                                   150                                
PGRFAMCHA090801012328012903000535Disney Cory in the House                          EP: 13                                                               6068607BCC                              
PGRFAMCHA090801012903013413000510Disney Cory in the House                          EP: 13                                                               6068607BCC                              
PGRFAMCHA090801013413013921000508Disney Cory in the House                          EP: 13                                                               6068607BCC                              
PGRFAMCHA090801013921014605000644Disney Cory in the House                          EP: 13                                                               6068607BCC                              
PRCFAMCHA090801014605014611000006Astral ID (FEB 2009)                                                                                                        150                                
PRCFAMCHA090801014611014622000011NSW - 30 - PHIL/LIZZIE (:11 - :13) (OCT08)                                                                                  150                                
PRCFAMCHA090801014622014633000011YES WAY Bumper - Watermelon Long (JULY09)                                                                                   150                                
ID FAMCHA090801014633014639000006Magic of Disney - NS/NSW/PB - Shape (:06-:09)                                                                               150                                
PRCFAMCHA090801014639014648000009CC Disclaimer - SLOW - Family.ca (:09-:10)                                                                                  150                                
PGRFAMCHA090801014648020927002239Phil of the Future                                EPS # 06                                                             6068607BCC                              
PRCFAMCHA090801020927020938000011NSW - 31 - LIZZIE/LIFE WITH DEREK (:11 - :13) (OCT                                                                          150                                
PRCFAMCHA090801020938020944000006YES WAY Bumper - Bleachers (JUNE09)                                                                                         150                                
ID FAMCHA090801020944020951000007Magic of Disney - NS/NSW/PB - Wipe (:06-:09)                                                                                150                                
PRCFAMCHA090801020951021000000009CC Disclaimer - SLOW - Generic (:09 -:10)                                                                                   150                                
PGRFAMCHA090801021000023235002235Lizzie McGuire                                    EP: 1-023                                                            6068607BCC                              
PRCFAMCHA090801023235023241000006Astral ID (FEB 2009)                                                                                                        150                                
PRCFAMCHA090801023241023252000011NSW - 32 - DEREK/CORY IN THE HOUSE (:11 - :13) (SE                                                                          150                                
PRCFAMCHA090801023252023305000013YES WAY Bumper - Fishing (JULY09)                                                                                           150                                
PRCFAMCHA090801023305023314000009CC Disclaimer - SLOW - Family.ca (:09-:10)                                                                                  150                                
PGRFAMCHA090801023314025544002230Life with Derek                                   EP: 20                                                        C26679A1065607BCC                              
PRCFAMCHA090801025544025555000011NSW - 33 - CORY IN THE HOUSE/RAVEN (:11 - :13) (SE                                                                          150                                
PRCFAMCHA090801025555025606000011YES WAY Bumper - Log Long (JULY09)                                                                                          150                                
PRCFAMCHA090801025606025615000009CC Disclaimer - SLOW - Generic (:09 -:10)                                                                                   150                                
PGRFAMCHA090801025615025819000204Disney Cory in the House                          EP: 09                                                               6068607BCC                              
PGRFAMCHA090801025819030642000823Disney Cory in the House                          EP: 09                                                               6068607BCC                              
PGRFAMCHA090801030642031728001046Disney Cory in the House                          EP: 09                                                               6068607BCC                              
PGRFAMCHA090801031728031846000118Disney Cory in the House                          EP: 09                                                               6068607BCC                              
PRCFAMCHA090801031846031852000006Astral ID (FEB 2009)                                                                                                        150                                
PRCFAMCHA090801031852031904000012NSW - 34 - RAVEN/SUITE LIFE (:11 - :13) (SEPT07)                                                                            150                                
PRCFAMCHA090801031904031920000016YES WAY Bumper - Marco Polo (JULY09)                                                                                        150                                
ID FAMCHA090801031920031926000006Magic of Disney - NS/NSW/PB - Shape (:06-:09)                                                                               150                                
PRCFAMCHA090801031926031935000009CC Disclaimer - SLOW - Family.ca (:09-:10)                                                                                  150                                
PGRFAMCHA090801031935032222000247That's So Raven                                   EPS # 1-028                                                          6068607BCC                              
PGRFAMCHA090801032222032952000730That's So Raven                                   EPS # 1-028                                                          6068607BCC                              
PGRFAMCHA090801032952034053001101That's So Raven                                   EPS # 1-028                                                          6068607BCC                              
PGRFAMCHA090801034053034211000118That's So Raven                                   EPS # 1-028                                                          6068607BCC                              
PRCFAMCHA090801034211034222000011NSW - 35 - SUITE LIFE/DEREK (:11 - :13) (SEPT07)                                                                            150                                
PRCFAMCHA090801034222034231000009YES WAY Bumper - Sand Art (JULY09)                                                                                          150                                
ID FAMCHA090801034231034237000006Magic of Disney - NS/NSW/PB - Wipe (:06-:09)                                                                                150                                
PRCFAMCHA090801034237034246000009CC Disclaimer - SLOW - Generic (:09 -:10)                                                                                   150                                
PGRFAMCHA090801034246040517002231Suite Life of Zack and Cody, The                  EP: 08                                                               6068607BCC                              
PRCFAMCHA090801040517040523000006Astral ID (FEB 2009)                                                                                                        150                                
PRCFAMCHA090801040523040535000012NSW - 36 - LIFE WITH DEREK (:11 - :13) (SEPT07)                                                                             150                                
PRCFAMCHA090801040535040542000007YES WAY Bumper - School Door (JUNE09)                                                                                       150                                
PRCFAMCHA090801040542040551000009CC Disclaimer - SLOW - Family.ca (:09-:10)                                                                                  150                                
PGRFAMCHA090801040551042821002230Life with Derek                                   EP: 21                                                        C26679A1065607BCC                              
PRCFAMCHA090801042821042834000013FJR - 14 - HENRY'S WORLD / BENJAMIN BEAR (SEPT08)                                                                           150                                
PROFAMCHA090801042834042909000035PH-D Gerald McBoing Boing - Prem on PH-D/Family Sn                                                                          150                                
PRCFAMCHA090801042909042944000035PH-D Videoplayer Spot (Family Jr. Only)                                                                                     150                                
ID FAMCHA090801042944042959000015Family Jr. Block Open (:14-:17) (JUL08)                                                                                     150                                
OFFFAMCHA090801042959043000000001OFF AIR                                                                                                                                                        
SO FAMCHA090802043000043011000011Sign On (oct 1)                                                                                                                                                
PRCFAMCHA090802043011043020000009CC Disclaimer - FAST - Family.ca (:09-:10)                                                                                  150                                
PGRFAMCHA090802043020045420002400Henry's World                                     EP: 2-016                                                     B81047A1065607GCC                              
PRCFAMCHA090802045420045432000012FJR - 15A - BENJAMIN BEAR 4:55 / FRANNY'S FEET 5:2                                                                          150                                
PRCFAMCHA090802045432045507000035PH-D Videoplayer Spot (Family Jr. Only)                                                                                     150                                
PROFAMCHA090802045507045524000017Mickey Mouse Clubhouse (FJR) GOOFY SELL- NEW EPS -                                                                          150                                
PRCFAMCHA090802045524045559000035Benjamin Bear (FJR) TEDDY - Coming Up Next (JUNE09                                                                          150                                
PROFAMCHA090802045559045650000051PH-D HM Superstar Summer Sundays - This Morning @                                                                           150                                
PRCFAMCHA090802045650045702000012Family Jr. Bumper - Collide (:11- :14) (JUL08)                                                                              150                                
PRCFAMCHA090802045702045711000009CC Disclaimer - FAST - Generic (:09-:10)                                                                                    150                                
PGRFAMCHA090802045711051941002230Secret World of Benjamin Bear, The                EP: 32                                                        C27272 1065607ECC                              
PRCFAMCHA090802051941051947000006Astral ID - Family Jr. Version (MAR 2009)                                                                                   150                                
PRCFAMCHA090802051947051959000012FJR - 16A - FRANNY'S FEET 5:20 / KING 5:50  (:11 -                                                                          150                                
PROFAMCHA090802051959052034000035PH-D Gerald McBoing Boing - Prem on PH-D/Family Sn                                                                          150                                
PROFAMCHA090802052034052049000015Handy Manny (FJR) TIME - Tomorrow Morning @ 10:30                                                                           150                                
PROFAMCHA090802052049052104000015Mickey Mouse Clubhouse (FJR) GROOVES - New Eps - F                                                                          150                                
PRCFAMCHA090802052104052149000045Franny's Feet (FJR) PERFECT 10 - Coming Up Next (J                                                                          150                                
PROFAMCHA090802052149052240000051PH-D LE Sing A Song w/Annie Week - Starting Tomorr                                                                          150                                
PRCFAMCHA090802052240052251000011Family Jr. Bumper - Music (:11- :14) (JUL08)                                                                                150                                
