SO FAMCHA090601043000043011000011Sign On (oct 1)                                                                                                                                                
PRCFAMCHA090601043011043020000009CC Disclaimer - FAST - Family.ca (:09-:10)                                                                                  150                                
PGRFAMCHA090601043020045658002638Katie And Orbie                                   EP: 6-067                                                     B62270A1065607ECC                              
PRCFAMCHA090601045658045704000006Astral ID - Family Jr. Version (MAR 2009)                                                                                   150                                
PRCFAMCHA090601045704045715000011FJR - 02 - FRANNY'S FEET / BENJAMIN BEAR (SEPT08)                                                                           150                                
PRCFAMCHA090601045715045726000011Family Jr. Bumper - Music (:11- :14) (JUL08)                                                                                150                                
PRCFAMCHA090601045726045735000009CC Disclaimer - FAST - Generic (:09-:10)                                                                                    150                                
PGRFAMCHA090601045735052005002230Franny's Feet                                     EPS # 1-005                                                   C23970A1065607ECC                              
PRCFAMCHA090601052005052018000013FJR - 03 - BENJAMIN BEAR / HOZE HOUNDZ (SEPT08)                                                                             150                                
PRCFAMCHA090601052018052030000012Family Jr. Bumper - Collide (:11- :14) (JUL08)                                                                              150                                
PRCFAMCHA090601052030052039000009CC Disclaimer - FAST - Family.ca (:09-:10)                                                                                  150                                
PGRFAMCHA090601052039054309002230Secret World of Benjamin Bear, The                EP: 35                                                        C27272 1065607ECC                              
PRCFAMCHA090601054309054315000006Astral ID - Family Jr. Version (MAR 2009)                                                                                   150                                
PRCFAMCHA090601054315054326000011FJR - 04 - HOZE HOUNDZ / HENRY'S WORLD (SEPT08)                                                                             150                                
PRCFAMCHA090601054326054337000011Family Jr. Bumper - Acrobat (:10- :13) (JUL08)                                                                              150                                
PRCFAMCHA090601054337054346000009CC Disclaimer - FAST - Generic (:09-:10)                                                                                    150                                
PGRFAMCHA090601054346060624002238Hoze Houndz                                       EPS # 6-071                                                   C22818A1065607ECC                              
PRCFAMCHA090601060624060637000013FJR - 05 - HENRY'S WORLD / KING (SEPT08)                                                                                    150                                
PRCFAMCHA090601060637060652000015Family Jr. Bumper - Portal (:14- :17) (JUL08)                                                                               150                                
PRCFAMCHA090601060652060701000009CC Disclaimer - FAST - Family.ca (:09-:10)                                                                                  150                                
PGRFAMCHA090601060701063102002401Henry's World                                     EP: 2-015                                                     B81046A1065607GCC                              
PRCFAMCHA090601063102063108000006Astral ID - Family Jr. Version (MAR 2009)                                                                                   150                                
PRCFAMCHA090601063108063119000011FJR - 06 - KING (SEPT08)                                                                                                    150                                
PRCFAMCHA090601063119063131000012Family Jr. Bumper - Music (:11- :14) (JUL08)                                                                                150                                
PRCFAMCHA090601063131063140000009CC Disclaimer - FAST - Generic (:09-:10)                                                                                    150                                
PGRFAMCHA090601063140065410002230King                                              EP: 4-048                                                     C25350 1065607ECC                              
PRCFAMCHA090601065410065422000012MMM - 01 - RECESS/PHINEAS (:11 - :13) (OCT08)                                                                               150                                
PRCFAMCHA090601065422065502000040Really Big Birthdays - August - 3-4 X Day (June 1                                                                           150                                
PROFAMCHA090601065502065527000025Recess - CAREER DAY (MMM) - (JULY06) - Coming Up N                                                                          150                                
PROFAMCHA090601065527065557000030Proud Family Movie (Oct06) Sunday @ 12                                                                                      150                                
PROFAMCHA090601065557065616000019MadMadMornings Block Open                                                                                                   150                                
PRCFAMCHA090601065616065625000009CC Disclaimer - FAST - Generic (:09-:10)                                                                                    150                                
PGRFAMCHA090601065625071859002234Disney's Recess                                   EP: 1-022                                                            6068607ECC                              
PRCFAMCHA090601071859071905000006Astral ID (FEB 2009)                                                                                                        150                                
PRCFAMCHA090601071905071918000013MMM - 02 - PHINEAS/WEEKENDERS (:11 - :13) (OCT08)                                                                           150                                
PRCFAMCHA090601071918071956000038Family Web Player Version 2 Promo - No Tag 3/day (                                                                          150                                
PROFAMCHA090601071956072029000033Weekenders - TINO (MMM) This Morning @ 7:50am (NOV                                                                          150                                
PROFAMCHA090601072029072039000010FAMJAM - Open/Close                                                                                                         150                                
PGRFAMCHA090601072039072209000130MV Disney - (MD/NS/NSW) - Jonas Brothers - When Yo                                                                     60288120                                
PROFAMCHA090601072209072223000014xxFAMJAM - Close (FAMILY) xxDNUxx                                                                                           150                                
PROFAMCHA090601072223072234000011Kim Possible BAD GUYS (MMM) Today @ 8:20am (OCT08)                                                                          150                                
PROFAMCHA090601072234072303000029Phineas & Ferb (MMM) FREAK OUT - Coming Up Next (M                                                                          150                                
PROFAMCHA090601072303072333000030Akeelah and the Bee - Friday Night @ 7:30pm (JUNE0                                                                          150                                
PROFAMCHA090601072333072352000019MadMadMornings Block Open                                                                                                   150                                
PRCFAMCHA090601072352072401000009CC Disclaimer - FAST - Family.ca (:09-:10)                                                                                  150                                
PGRFAMCHA090601072401074631002230Disney Phineas & Ferb                             EP: 04                                                               6068607ECC                              
PRCFAMCHA090601074631074643000012MMM - 03 - WEEKENDERS/KIM POSSIBLE (:11 - :13) (OC                                                                          150                                
PRCFAMCHA090601074643074713000030Family Kicks Event Spot - 4 Per Day (July 11 - TBA                                                                          150                                
PROFAMCHA090601074713074723000010FAMJAM - Open/Close                                                                                                         150                                
PGRFAMCHA090601074723074953000230MV Disney - (MD/NS/NSW) - Jonas Brothers - Poor Un                                                                     60288120                                
PROFAMCHA090601074953075007000014xxFAMJAM - Close (FAMILY) xxDNUxx                                                                                           150                                
PROFAMCHA090601075007075034000027Weekenders - CARVER (MMM) Coming Up Next (NOV08)                                                                            150                                
PROFAMCHA090601075034075104000030Proud Family Movie (Oct06) Sunday @ 12                                                                                      150                                
PROFAMCHA090601075104075123000019MadMadMornings Block Open                                                                                                   150                                
PRCFAMCHA090601075123075132000009CC Disclaimer - FAST - Family.ca (:09-:10)                                                                                  150                                
PGRFAMCHA090601075132081422002250Disney's The Weekenders                           EP: 1-004                                                           A6068607ECC                              
PRCFAMCHA090601081422081428000006Astral ID (FEB 2009)                                                                                                        150                                
PRCFAMCHA090601081428081439000011MMM - 04 - KIM POSSIBLE (:11 - :13) (OCT08)                                                                                 150                                
PRCFAMCHA090601081439081531000052Yes Way VaCay June Overall Spot (June 1-3)                                                                                  150                                
PROFAMCHA090601081531081622000051Imagine That - In Theatres June 12 (May 26 - June                                                                           150                                
PROFAMCHA090601081622081709000047Kim Possible MISSION (MMM) Coming Up Next (JAN09)                                                                           150                                
PROFAMCHA090601081709081740000031Jump In - Saturday @ 12                                                                                                     150                                
PROFAMCHA090601081740081759000019MadMadMornings Block Open                                                                                                   150                                
PRCFAMCHA090601081759081808000009CC Disclaimer - FAST - Generic (:09-:10)                                                                                    150                                
PGRFAMCHA090601081808084058002250Disney's Kim Possible                             EPS # 1-025                                                         A6068607ECC                              
PRCFAMCHA090601084058084104000006Astral ID (FEB 2009)                                                                                                        150                                
PRCFAMCHA090601084104084117000013FJR - 11 - IMAGINATION MOVERS/FRANNY'S FEET (JAN09                                                                          150                                
PRCFAMCHA090601084117084202000045PH-D Banana's 4 Bday - August's Entry's (June 1-30                                                                          150                                
PRCFAMCHA090601084202084237000035Franny's Feet (FJR) GENERIC - This Morning @ 9:10                                                                           150                                
PROFAMCHA090601084237084308000031Mickey Mouse Clubhouse (FJR) GENERIC 31 - This Mor                                                                          150                                
PROFAMCHA090601084308084338000030Handy Manny (FJR) NEIGHBOURS - This Mornings @ 10:                                                                          150                                
PROFAMCHA090601084338084408000030Imagination Movers (FJR) Coming Up Next (JAN09)                                                                             150                                
PRCFAMCHA090601084408084443000035PH-D Videoplayer Spot (Family Jr. Only)                                                                                     150                                
ID FAMCHA090601084443084459000016Family Jr. Block Open (:14-:17) (JUL08)                                                                                     150                                
PRCFAMCHA090601084459084508000009CC Disclaimer - FAST - Family.ca (:09-:10)                                                                                  150                                
PGRFAMCHA090601084508090908002400Disney Imagination Movers                         EP: 04                                                               6068607ACC                              
PRCFAMCHA090601090908090917000009FJR - 12 - FRANNY'S FEET/TIGGER & POOH (:09 - :12)                                                                          150                                
PRCFAMCHA090601090917090942000025PH-D Promo - Ooh & Ahh PH-D Throw 2009 - Call Your                                                                          150                                
PRCFAMCHA090601090942091017000035Franny's Feet (FJR) GENERIC - Coming Up Next (JUL0                                                                          150                                
PRCFAMCHA090601091017091047000030PH-D Oso Online Show Site Contest (May 17- June 12                                                                          150                                
PRCFAMCHA090601091047091059000012Family Jr. Bumper - Collide (:11- :14) (JUL08)                                                                              150                                
PRCFAMCHA090601091059091108000009CC Disclaimer - FAST - Generic (:09-:10)                                                                                    150                                
PGRFAMCHA090601091108093338002230Franny's Feet                                     EPS # 14                                                      C23971 1065607ECC                              
PRCFAMCHA090601093338093344000006Astral ID - Family Jr. Version (MAR 2009)                                                                                   150                                
PRCFAMCHA090601093344093355000011FJR - 13 - TIGGER & POOH/MICKEY MOUSE CLUBHOUSE (:                                                                          150                                
PROFAMCHA090601093355093446000051PH-D Mouskatool & Handy Manny - Saturday June 13th                                                                          150                                
PROFAMCHA090601093446093501000015Handy Manny (FJR) TIME - This Morning @ 10:30 (JUL                                                                          150                                
PRCFAMCHA090601093501093531000030King (FJR) GENERIC - This Morning @ 11:25 (JUL08)                                                                           150                                
PROFAMCHA090601093531093616000045Tigger and Pooh (FJR) POOH SELL - Coming Up Next (                                                                          150                                
PRCFAMCHA090601093616093651000035PH-D Videoplayer Spot (Family Jr. Only)                                                                                     150                                
PRCFAMCHA090601093651093702000011Family Jr. Bumper - Acrobat (:10- :13) (JUL08)                                                                              150                                
PRCFAMCHA090601093702093711000009CC Disclaimer - FAST - Family.ca (:09-:10)                                                                                  150                                
PGRFAMCHA090601093711100111002400Disney My Friends Tigger and Pooh                 EP: 09                                                               6068607ECC                              
PRCFAMCHA090601100111100122000011FJR - 14 - MICKEY MOUSE CLUBHOUSE/HANDY MANNY (:10                                                                          150                                
PRCFAMCHA090601100122100207000045PH-D Banana's 4 Bday - August's Entry's (June 1-30                                                                          150                                
PROFAMCHA090601100207100237000030Handy Manny (FJR) HOP UP/JUMP IN - This Morning @                                                                           150                                
PROFAMCHA090601100237100307000030Tigger and Pooh (FJR) DARBY SELL - New Eps - Frida                                                                          150                                
PROFAMCHA090601100307100338000031Mickey Mouse Clubhouse (FJR) GENERIC 31 - Coming U                                                                          150                                
PROFAMCHA090601100338100347000009PH-D Promo - Ooh & Aah Web Throw - PH-D.CA                                                                                  150                                
PRCFAMCHA090601100347100402000015Family Jr. Bumper - Portal (:14- :17) (JUL08)                                                                               150                                
PRCFAMCHA090601100402100411000009CC Disclaimer - FAST - Generic (:09-:10)                                                                                    150                                
PGRFAMCHA090601100411102811002400Disney's Mickey Mouse Clubhouse                   EP: 15                                                               6068607ECC                              
PRCFAMCHA090601102811102817000006Astral ID - Family Jr. Version (MAR 2009)                                                                                   150                                
PRCFAMCHA090601102817102827000010FJR - 15 - HANDY MANNY/BENJAMIN BEAR (:10 - :13) (                                                                          150                                
PROFAMCHA090601102827102857000030PH-D Promo - Ooh & Aah.Ca Throw 08 - PH-D.CA                                                                                150                                
PROFAMCHA090601102857102912000015Handy Manny (FJR) TIME - Coming Up Next (JUL08)                                                                             150                                
PRCFAMCHA090601102912102942000030PH-D Oso Online Show Site Contest (May 17- June 12                                                                          150                                
PRCFAMCHA090601102942102954000012Family Jr. Bumper - Music (:11- :14) (JUL08)                                                                                150                                
PRCFAMCHA090601102954103003000009CC Disclaimer - FAST - Family.ca (:09-:10)                                                                                  150                                
PGRFAMCHA090601103003105401002358Handy Manny                                       EP: 13                                                               6068607ECC                              
PRCFAMCHA090601105401105413000012FJR - 16 - BENJAMIN BEAR/KING (:10 - :13) (JULY08)                                                                          150                                
PRCFAMCHA090601105413105458000045PH-D Banana's 4 Bday - August's Entry's (June 1-30                                                                          150                                
PROFAMCHA090601105458105513000015Mickey Mouse Clubhouse (FJR) GROOVES - Tomorrow Mo                                                                          150                                
PROFAMCHA090601105513105543000030Tigger and Pooh (FJR) DARBY SELL - New Eps - Frida                                                                          150                                
PRCFAMCHA090601105543105613000030Benjamin Bear (FJR) GENERIC - Coming Up Next (JUL0                                                                          150                                
PRCFAMCHA090601105613105648000035PH-D Videoplayer Spot (Family Jr. Only)                                                                                     150                                
PRCFAMCHA090601105648105700000012Family Jr. Bumper - Collide (:11- :14) (JUL08)                                                                              150                                
PRCFAMCHA090601105700105709000009CC Disclaimer - FAST - Generic (:09-:10)                                                                                    150                                
PGRFAMCHA090601105709111939002230Secret World of Benjamin Bear, The                EP: 38                                                        C27272 1065607ECC                              
PRCFAMCHA090601111939111945000006Astral ID - Family Jr. Version (MAR 2009)                                                                                   150                                
PRCFAMCHA090601111945111955000010FJR - 13 - KING/RECESS (:09 - :12) (JULY08)                                                                                 150                                
PROFAMCHA090601111955112046000051PH-D Mouskatool & Handy Manny - Saturday June 13th                                                                          150                                
PROFAMCHA090601112046112146000100Tigger and Pooh (FJR) SUPER SLEUTH - New Eps - Fri                                                                          150                                
PGRFAMCHA090601112146112417000231Cars Toons # 1 (Rescue Squad Mater)                                                                                   A60688120                                
PRCFAMCHA090601112417112447000030King (FJR) GENERIC - Coming Up Next (JUL08)                                                                                 150                                
PRCFAMCHA090601112447112458000011Family Jr. Bumper - Acrobat (:10- :13) (JUL08)                                                                              150                                
PRCFAMCHA090601112458112507000009CC Disclaimer - FAST - Family.ca (:09-:10)                                                                                  150                                
PGRFAMCHA090601112507114737002230King                                              EP: 4-040                                                     C25350 1065607ECC                              
PRCFAMCHA090601114737114749000012MD - 01 - RECESS/KIM (:11 - :13) (JULY08)                                                                                   150                                
PROFAMCHA090601114749114819000030Proud Family Movie (Oct06) Sunday @ 12                                                                                      150                                
PROFAMCHA090601114819114844000025Recess - CAREER DAY (MD) - (JULY06) - Coming Up Ne                                                                          150                                
PROFAMCHA090601114844114901000017Mad Dash Block Open (:16-:18) APR06                                                                                         150                                
PRCFAMCHA090601114901114910000009CC Disclaimer - FAST - Generic (:09-:10)                                                                                    150                                
PGRFAMCHA090601114910121145002235Disney's Recess                                   EP: 1-019                                                            6068607ECC                              
PRCFAMCHA090601121145121151000006Astral ID (FEB 2009)                                                                                                        150                                
PRCFAMCHA090601121151121203000012MD - 02 - KIM/WEEKENDERS (:11 - :13) (JULY08)                                                                               150                                
PRCFAMCHA090601121203121233000030Family Kicks Event Spot - 4 Per Day (July 11 - TBA                                                                          150                                
PROFAMCHA090601121233121247000014American Dragon Jake Long (MD) JAKE - This Afterno                                                                          150                                
PROFAMCHA090601121247121305000018Emperor's New School (MD) BUTT IN URN - This After                                                                          150                                
PROFAMCHA090601121305121322000017Kim Possible WHEELS (MD) Coming Up Next (JULY08)                                                                            150                                
PROFAMCHA090601121322121352000030Akeelah and the Bee - Friday Night @ 7:30pm (JUNE0                                                                          150                                
PRCFAMCHA090601121352121400000008MD Bumper - Ski Race (:07-:09) APR06                                                                                        150                                
PRCFAMCHA090601121400121409000009CC Disclaimer - FAST - Family.ca (:09-:10)                                                                                  150                                
PGRFAMCHA090601121409123703002254Disney's Kim Possible                             EP: 13                                                               6068607ECC                              
PRCFAMCHA090601123703123715000012MD - 03 - WEEKENDERS/AMERICAN DRAGON (:11 - :13) (                                                                          150                                
PRCFAMCHA090601123715123805000050Family Online Community Promo - 2x a Day (not in P                                                                          150                                
PROFAMCHA090601123805123823000018American Dragon Jake Long (MD) TRIXIE - This After                                                                          150                                
PROFAMCHA090601123823123850000027Weekenders - CARVER (MD) Coming Up Next (NOV08)                                                                             150                                
PRCFAMCHA090601123850123906000016MD Bumper - Shopping Race (:15-:17) APR06                                                                                   150                                
PRCFAMCHA090601123906123915000009CC Disclaimer - FAST - Generic (:09-:10)                                                                                    150                                
PGRFAMCHA090601123915130147002232Disney's The Weekenders                           EP: 1-015                                                           A6068607ECC                              
PRCFAMCHA090601130147130153000006Astral ID (FEB 2009)                                                                                                        150                                
PRCFAMCHA090601130153130205000012MD - 04 - AMERICAN DRAGON/EMPERORS'S (:11 - :13) (                                                                          150                                
PRCFAMCHA090601130205130257000052Yes Way VaCay June Overall Spot (June 1-3)                                                                                  150                                
PROFAMCHA090601130257130315000018Emperor's New School (MD) BUTT IN URN - This After                                                                          150                                
PROFAMCHA090601130315130329000014American Dragon Jake Long (MD) JAKE - Coming Up Ne                                                                          150                                
PROFAMCHA090601130329130359000030Proud Family Movie (Oct06) Sunday @ 12                                                                                      150                                
PRCFAMCHA090601130359130407000008MD Bumper - Race Cars (:08-:10) JUNE06                                                                                      150                                
PRCFAMCHA090601130407130416000009CC Disclaimer - FAST - Family.ca (:09-:10)                                                                                  150                                
PGRFAMCHA090601130416132655002239Disney's American Dragon: Jake Long               EPS # 02                                                             6068607ECC                              
PRCFAMCHA090601132655132707000012MD - 05 - EMPEROR'S/FILLMORE (:11 - :13) (JULY08)                                                                           150                                
PRCFAMCHA090601132707132747000040Really Big Birthdays - August - 3-4 X Day (June 1                                                                           150                                
PROFAMCHA090601132747132831000044Emperor's New School (MD) KUZCO - Coming Up Next (                                                                          150                                
PROFAMCHA090601132831132901000030Proud Family Movie (Oct06) Sunday @ 12                                                                                      150                                
PRCFAMCHA090601132901132909000008MD Bumper - Ski Race (:07-:09) APR06                                                                                        150                                
PRCFAMCHA090601132909132918000009CC Disclaimer - FAST - Generic (:09-:10)                                                                                    150                                
PGRFAMCHA090601132918135149002231Disney's The Emperor's New School                 EP: 18                                                               6068807ECC                              
PRCFAMCHA090601135149135155000006Astral ID (FEB 2009)                                                                                                        150                                
PRCFAMCHA090601135155135207000012MD - 06 - FILLMORE/WEEKENDERS (:11 - :13) (JULY08)                                                                          150                                
PRCFAMCHA090601135207135248000041PPP Ask The Stars - 4 Per Day (May 19 - June 12)                                                                            150                                
PROFAMCHA090601135248135318000030Fillmore (MD) LAW & ORDER - Coming Up Next (AUG08)                                                                          150                                
PROFAMCHA090601135318135349000031Jump In - Saturday @ 12                                                                                                     150                                
PRCFAMCHA090601135349135405000016MD Bumper - Shopping Race (:15-:17) APR06                                                                                   150                                
PRCFAMCHA090601135405135414000009CC Disclaimer - FAST - Family.ca (:09-:10)                                                                                  150                                
PGRFAMCHA090601135414141652002238Disney's Fillmore!                                EPS # 1-022                                                          6068607ECC                              
PRCFAMCHA090601141652141704000012MD - 07 - WEEKENDERS/KIM (:11 - :13) (JULY08)                                                                               150                                
PRCFAMCHA090601141704141721000017Family First Generic Throw - Promo SHORT VERSION -                                                                          150                                
PROFAMCHA090601141721141750000029Replacements (MD) BABYSITTER - This Afternoon @ 3:                                                                          150                                
PROFAMCHA090601141750141823000033Weekenders - TINO (MD) Coming Up Next (NOV08)                                                                               150                                
PROFAMCHA090601141823141853000030Proud Family Movie (Oct06) Sunday @ 12                                                                                      150                                
PRCFAMCHA090601141853141902000009MD Bumper - Race Cars (:08-:10) JUNE06                                                                                      150                                
PRCFAMCHA090601141902141911000009CC Disclaimer - FAST - Family.ca (:09-:10)                                                                                  150                                
PGRFAMCHA090601141911144149002238Disney's The Weekenders                           EP: 1-035                                                           A6068607ECC                              
PRCFAMCHA090601144149144155000006Astral ID (FEB 2009)                                                                                                        150                                
PRCFAMCHA090601144155144207000012MD - 08 - KIM/REPLACEMENTS (:11 - :13) (JULY08)                                                                             150                                
PRCFAMCHA090601144207144245000038FOD - Family On Demand - Generic - Check you local                                                                          150                                
PROFAMCHA090601144245144320000035Barbie I Can Be  (May 25 - June 21) $$$                                                                                     150                                
PROFAMCHA090601144320144338000018Emperor's New School (MD) BUTT IN UR - This Aftern                                                                          150                                
PROFAMCHA090601144338144354000016Kim Possible RON POSSIBLE (MD) Coming Up Next (OCT                                                                          150                                
PRCFAMCHA090601144354144402000008MD Bumper - Ski Race (:07-:09) APR06                                                                                        150                                
PRCFAMCHA090601144402144411000009CC Disclaimer - FAST - Generic (:09-:10)                                                                                    150                                
PGRFAMCHA090601144411150657002246Disney's Kim Possible                             EP: 22                                                               6068607ECC                              
PRCFAMCHA090601150657150709000012MD - 09 - REPLACEMENTS/EMPEROR (:11 - :13) (JULY08                                                                          150                                
PRCFAMCHA090601150709150739000030Family Kicks Event Spot - 4 Per Day (July 11 - TBA                                                                          150                                
PROFAMCHA090601150739150810000031Replacements - GENERIC (MD) Coming Up Next (JULY08                                                                          150                                
PROFAMCHA090601150810150820000010FAMJAM - Open/Close                                                                                                         150                                
PGRFAMCHA090601150820151050000230MV Disney - (MD/NS/NSW) - Jonas Brothers - Poor Un                                                                     60688120                                
PROFAMCHA090601151050151104000014xxFAMJAM - Close (FAMILY) xxDNUxx                                                                                           150                                
PGRFAMCHA090601151104151114000010UP Movie Family Station ID                                                                                            A60688120                                
PROFAMCHA090601151114151144000030Proud Family Movie (Oct06) Sunday @ 12                                                                                      150                                
PRCFAMCHA090601151144151200000016MD Bumper - Shopping Race (:15-:17) APR06                                                                                   150                                
PRCFAMCHA090601151200151209000009CC Disclaimer - FAST - Family.ca (:09-:10)                                                                                  150                                
PGRFAMCHA090601151209153445002236The Replacements                                  EP: 02                                                               2068607ECC                              
PRCFAMCHA090601153445153451000006Astral ID (FEB 2009)                                                                                                        150                                
PRCFAMCHA090601153451153503000012MD - 10 - EMPEROR 3:40/RECESS 4:10 (:11 - :13) (JA                                                                          150                                
PROFAMCHA090601153503153533000030Proud Family Movie (Oct06) Sunday @ 12                                                                                      150                                
PGRFAMCHA090601153533153842000309MS - UP Featurette 1 - PIXAR Visit  - In Theatres                                                                     A60688120                                
PROFAMCHA090601153842153906000024Emperor's New School (MD) ZIT - Coming Up Next (JU                                                                          150                                
PRCFAMCHA090601153906153949000043Jonas Fly Away Contest - 3 X Day (May 30 - June 11                                                                          150                                
PRCFAMCHA090601153949153958000009MD Bumper - Race Cars (:08-:10) JUNE06                                                                                      150                                
PRCFAMCHA090601153958154007000009CC Disclaimer - FAST - Generic (:09-:10)                                                                                    150                                
PGRFAMCHA090601154007160238002231Disney's The Emperor's New School                 EP: 14                                                               6068807ECC                              
PRCFAMCHA090601160238160249000011MD - 11 - RECESS 4:10/PHINEAS 4:35 (:11 - :13) (JA                                                                          150                                
PROFAMCHA090601160249160319000030Akeelah and the Bee - Friday Night @ 7:30pm (JUNE0                                                                          150                                
PROFAMCHA090601160319160410000051Imagine That - In Theatres June 12 (May 26 - June                                                                           150                                
PROFAMCHA090601160410160439000029Phineas & Ferb (MD) FREAK OUT - This Afternoon @ 4                                                                          150                                
PROFAMCHA090601160439160449000010FAMJAM - Open/Close                                                                                                         150                                
PGRFAMCHA090601160449160619000130MV Disney - (MD/NS/NSW) - Jesse McCartney - Just S                                                                     60688120                                
PROFAMCHA090601160619160633000014xxFAMJAM - Close (FAMILY) xxDNUxx                                                                                           150                                
PROFAMCHA090601160633160706000033Recess - COOTIE SHOTS (MD) - Coming Up Next (NOV08                                                                          150                                
PRCFAMCHA090601160706160747000041PPP Ask The Stars - 4 Per Day (May 19 - June 12)                                                                            150                                
PRCFAMCHA090601160747160755000008MD Bumper - Ski Race (:07-:09) APR06                                                                                        150                                
PRCFAMCHA090601160755160804000009CC Disclaimer - FAST - Family.ca (:09-:10)                                                                                  150                                
PGRFAMCHA090601160804163040002236Disney's Recess                                   EP: 1-039                                                           A6068607ECC                              
PRCFAMCHA090601163040163046000006Astral ID (FEB 2009)                                                                                                        150                                
PRCFAMCHA090601163046163059000013MD - 12 - PHINEAS 4:35/ SUITE LIFE OF Z & C 5:05 (                                                                          150                                
PROFAMCHA090601163059163129000030Proud Family Movie (Oct06) Sunday @ 12                                                                                      150                                
PROFAMCHA090601163129163209000040Jonas Brothers Family First (June 1 - 15) $$$                                                                               150                                
PROFAMCHA090601163209163241000032Suite Life of Z & C (MD) RHYMING - This Afternoon                                                                           150                                
PRCFAMCHA090601163241163247000006xxFamily Bumpers - (Phase 3 Spring 05) - Bubble Gu                                                                          150                                
PROFAMCHA090601163247163257000010FAMJAM - Open/Close                                                                                                         150                                
PGRFAMCHA090601163257163512000215MV Disney - (MD/NS/NSW) - Jonas Brothers - We Rock                                                                     60288120                                
PROFAMCHA090601163512163526000014xxFAMJAM - Close (FAMILY) xxDNUxx                                                                                           150                                
PROFAMCHA090601163526163544000018Phineas & Ferb (MD) Candace Tease - Coming Up Next                                                                          150                                
PRCFAMCHA090601163544163600000016MD Bumper - Shopping Race (:15-:17) APR06                                                                                   150                                
PRCFAMCHA090601163600163609000009CC Disclaimer - FAST - Generic (:09-:10)                                                                                    150                                
PGRFAMCHA090601163609165839002230Disney Phineas & Ferb                             EP: 11                                                               6068607ECC                              
PRCFAMCHA090601165839165851000012MD - 13 - SUITE LIFE/HANNAH (:11 - :13) (JULY08)                                                                            150                                
PRCFAMCHA090601165851165931000040Really Big Birthdays - August - 3-4 X Day (June 1                                                                           150                                
PROFAMCHA090601165931170006000035Barbie I Can Be  (May 25 - June 21) $$$                                                                                     150                                
PROFAMCHA090601170006170035000029Hannah Montana - SUPER AWESOME (MD) This Afternoon                                                                          150                                
PROFAMCHA090601170035170045000010FAMJAM - Open/Close                                                                                                         150                                
PGRFAMCHA090601170045170215000130MV Disney - (MD/NS/NSW) - Jonas Brothers - Play My                                                                     60288120                                
PROFAMCHA090601170215170229000014xxFAMJAM - Close (FAMILY) xxDNUxx                                                                                           150                                
PROFAMCHA090601170229170301000032Suite Life of Z & C (MD) Wonderful Hotel - Coming                                                                           150                                
PRCFAMCHA090601170301170351000050Family Online Community Promo - 2x a Day (not in P                                                                          150                                
PRCFAMCHA090601170351170400000009MD Bumper - Race Cars (:08-:10) JUNE06                                                                                      150                                
ID FAMCHA090601170400170408000008Magic of Disney - MAD DASH - Shape (:06-:09)                                                                                150                                
PRCFAMCHA090601170408170417000009CC Disclaimer - FAST - Family.ca (:09-:10)                                                                                  150                                
PGRFAMCHA090601170417172656002239Suite Life of Zack & Cody, The                    EP: 08                                                               6068607BCC                              
PRCFAMCHA090601172656172702000006Astral ID (FEB 2009)                                                                                                        150                                
PRCFAMCHA090601172702172715000013MD - 14 - HANNAH/ZOEY (:11 - :13) (JULY08)                                                                                  150                                
PRCFAMCHA090601172715172807000052Yes Way VaCay June Overall Spot (June 1-3)                                                                                  150                                
PROFAMCHA090601172807172822000015Best Western Billboard #1 (June 1-7) $$$                                                                                    150                                
PROFAMCHA090601172822172907000045Sonny With A Chance BOYS (NS) - NEW EPS - Friday N                                                                          150                                
PROFAMCHA090601172907172917000010FAMJAM - Open/Close                                                                                                         150                                
PGRFAMCHA090601172917173047000130MV Disney - (MD/NS/NSW) - Jesse McCartney - Just S                                                                     60688120                                
PROFAMCHA090601173047173101000014xxFAMJAM - Close (FAMILY) xxDNUxx                                                                                           150                                
PROFAMCHA090601173101173112000011Hannah Montana IDs - (MD) Miley # 1 - Next                                                                                  150                                
PROFAMCHA090601173112173152000040Jonas Brothers Family First (June 1 - 15) $$$                                                                               150                                
PRCFAMCHA090601173152173230000038FOD - Family On Demand - Generic - Check you local                                                                          150                                
PRCFAMCHA090601173230173237000007MD Bumper - Ski Race (:07-:09) APR06                                                                                        150                                
PRCFAMCHA090601173237173246000009CC Disclaimer - FAST - Generic (:09-:10)                                                                                    150                                
PGRFAMCHA090601173246175517002231Hannah Montana                                    EP: 21                                                               6068807BCC                              
PRCFAMCHA090601175517175529000012NS - 01 - ZOEY 101/DEREK (:11 - :13) (MARCH08)                                                                              150                                
PRCFAMCHA090601175529175612000043Jonas Fly Away Contest - 3 X Day (May 30 - June 11                                                                          150                                
PROFAMCHA090601175612175647000035Barbie I Can Be  (May 25 - June 21) $$$                                                                                     150                                
PRCFAMCHA090601175647175730000043Life W Derek (NS) Trailer Generic - Tonight @ 6:30                                                                          150                                
PROFAMCHA090601175730175811000041Hannah Montana - EVERYWHERE (NS) NEW EPS - Friday                                                                           150                                
PROFAMCHA090601175811175842000031Jump In - Saturday @ 12                                                                                                     150                                
PROFAMCHA090601175842175859000017Zoey 101 (NS)  ZOEY, ZOEY, ZOEY - Coming Up Next (                                                                          150                                
PRCFAMCHA090601175859175940000041PPP Ask The Stars - 4 Per Day (May 19 - June 12)                                                                            150                                
PROFAMCHA090601175940175957000017Nonstop Block Open (:16-:18) APR06                                                                                          150                                
PRCFAMCHA090601175957180006000009CC Disclaimer - FAST - Family.ca (:09-:10)                                                                                  150                                
PGRFAMCHA090601180006182337002331Zoey 101                                          EP: 56                                                               2068807BCC                              
PRCFAMCHA090601182337182343000006Astral ID (FEB 2009)                                                                                                        150                                
PRCFAMCHA090601182343182355000012NS - 02 - DEREK/WIZARDS (:11 - :13) (OCT08)                                                                                 150                                
PROFAMCHA090601182355182425000030Akeelah and the Bee - Friday Night @ 7:30pm (JUNE0                                                                          150                                
PROFAMCHA090601182425182505000040Jonas Brothers Family First (June 1 - 15) $$$                                                                               150                                
PROFAMCHA090601182505182552000047Wizards of Waverly Place BOXING (NS) Tonight @ 7pm                                                                          150                                
PROFAMCHA090601182552182602000010FAMJAM - Open/Close                                                                                                         150                                
PGRFAMCHA090601182602182732000130MV Disney - (MD/NS/NSW) - Jonas Brothers - Start T                                                                     60288120                                
PROFAMCHA090601182732182746000014xxFAMJAM - Close (FAMILY) xxDNUxx                                                                                           150                                
PROFAMCHA090601182746182815000029Hannah Montana - SUPER AWESOME (NS) New Eps - Fri                                                                           150                                
PROFAMCHA090601182815182847000032Sonny With A Chance TEASE PROMO (NS) - NEW EPS - F                                                                          150                                
PRCFAMCHA090601182847182925000038Life W D (NS) Edwin Mystery Man - Coming Up Next (                                                                          150                                
PRCFAMCHA090601182925182942000017Family First Generic Throw - Promo SHORT VERSION -                                                                          150                                
PRCFAMCHA090601182942182958000016NS Bumper - Tennis (:15-:17) APR06                                                                                          150                                
PRCFAMCHA090601182958183007000009CC Disclaimer - FAST - Generic (:09-:10)                                                                                    150                                
PGRFAMCHA090601183007185237002230Life with Derek                                   EP: 18                                                        C26822 1055607BCC3                             
PRCFAMCHA090601185237185248000011NS - 03 - WIZARDS/HANNAH (:11 - :13) (FEB09)                                                                                150                                
PRCFAMCHA090601185248185318000030Family Kicks Event Spot - 4 Per Day (July 11 - TBA                                                                          150                                
PROFAMCHA090601185318185409000051Imagine That - In Theatres June 12 (May 26 - June                                                                           150                                
PROFAMCHA090601185409185438000029Hannah Montana - SUPER AWESOME (NS) Tonight @ 7:30                                                                          150                                
PROFAMCHA090601185438185448000010FAMJAM - Open/Close                                                                                                         150                                
PGRFAMCHA090601185448185821000333MV Disney - (MD/NS/NSW) - Jonas Brothers - Tonight                                                                     60288120                                
PROFAMCHA090601185821185835000014xxFAMJAM - Close (FAMILY) xxDNUxx                                                                                           150                                
PROFAMCHA090601185835185907000032Suite Life of Z & C (NS) Wonderful Hotel - Tonight                                                                          150                                
PROFAMCHA090601185907185922000015Best Western Billboard #1 (June 1-7) $$$                                                                                    150                                
PROFAMCHA090601185922185947000025Wizards of Waverly Place HOODIE (NS) Coming Up Nex                                                                          150                                
PRCFAMCHA090601185947185959000012NS Bumper - Fashion (:12-:14) JUNE06                                                                                        150                                
PRCFAMCHA090601185959190008000009CC Disclaimer - FAST - Family.ca (:09-:10)                                                                                  150                                
PGRFAMCHA090601190008192254002246Disney Wizards of Waverly Place                   EP: 02                                                               6068607BCC                              
PRCFAMCHA090601192254192300000006Astral ID (FEB 2009)                                                                                                        150                                
PRCFAMCHA090601192300192313000013NS - 04 - HANNAH/SUITE LIFE (:11 - :13) (FEB09)                                                                             150                                
PRCFAMCHA090601192313192349000036Yes Way VaCay Jonas Launch Stunt - Friday June 12                                                                           150                                
PROFAMCHA090601192349192421000032Suite Life of Z & C (NS) RHYMING - Tonight @ 8pm (                                                                          150                                
PROFAMCHA090601192421192431000010FAMJAM - Open/Close                                                                                                         150                                
PGRFAMCHA090601192431192818000347MV Disney - (MD/NS/NSW) - Jesse McCartney - Just S                                                                     60688120                                
PROFAMCHA090601192818192832000014xxFAMJAM - Close (FAMILY) xxDNUxx                                                                                           150                                
PROFAMCHA090601192832192913000041Hannah Montana - EVERYWHERE (NS) Coming Up Next (O                                                                          150                                
PRCFAMCHA090601192913192956000043Jonas Fly Away Contest - 3 X Day (May 30 - June 11                                                                          150                                
PRCFAMCHA090601192956193005000009NS Bumper - Dodgeball (:07-:09) APR06                                                                                       150                                
PRCFAMCHA090601193005193014000009CC Disclaimer - FAST - Family.ca (:09-:10)                                                                                  150                                
PGRFAMCHA090601193014195252002238Hannah Montana                                    EP: 09                                                               6068807BCC                              
PRCFAMCHA090601195252195303000011NS - 05 - SUITE LIFE 8:00/LATEST BUZZ 8:30 (:11 -                                                                           150                                
PRCFAMCHA090601195303195355000052Yes Way VaCay June Overall Spot (June 1-3)                                                                                  150                                
PROFAMCHA090601195355195446000051Imagine That - In Theatres June 12 (May 26 - June                                                                           150                                
PRCFAMCHA090601195446195506000020Latest Buzz - SIZZLE (NS) Tonight @ 8:30pm (JAN09)                                                                          150                                
PROFAMCHA090601195506195547000041Hannah Montana - EVERYWHERE (NS) NEW EPS - Friday                                                                           150                                
PROFAMCHA090601195547195557000010FAMJAM - Open/Close                                                                                                         150                                
PGRFAMCHA090601195557195852000255MV Disney - (MD/NS/NSW) - Jesse McCartney - Just S                                                                     60688120                                
PROFAMCHA090601195852195906000014xxFAMJAM - Close (FAMILY) xxDNUxx                                                                                           150                                
PROFAMCHA090601195906195915000009Suite Life ID - You're watching Suite Life on Fami                                                                          150                                
PRCFAMCHA090601195915195953000038Family Web Player Version 2 Promo - No Tag 3/day (                                                                          150                                
PRCFAMCHA090601195953200008000015NS Bumper - Tennis (:15-:17) APR06                                                                                          150                                
ID FAMCHA090601200008200016000008Magic of Disney - NS/NSW/PB - Shape (:06-:09)                                                                               150                                
PRCFAMCHA090601200016200025000009CC Disclaimer - FAST - Family.ca (:09-:10)                                                                                  150                                
PGRFAMCHA090601200025202303002238Suite Life of Zack & Cody, The                    EP: 10                                                               6068607BCC                              
PRCFAMCHA090601202303202309000006Astral ID (FEB 2009)                                                                                                        150                                
PRCFAMCHA090601202309202321000012NS - 06 - LATEST BUZZ 8:30/WIZARDS 9:00 (:11 - :13                                                                          150                                
PRCFAMCHA090601202321202401000040Really Big Birthdays - August - 3-4 X Day (June 1                                                                           150                                
PROFAMCHA090601202401202416000015Best Western Billboard #1 (June 1-7) $$$                                                                                    150                                
PROFAMCHA090601202416202441000025Zoey 101 - BOOTH (NS) Tomorrow Night @ 6pm (SEPT08                                                                          150                                
PROFAMCHA090601202441202514000033Sonny With A Chance PREMISE PROMO (NS) - NEW EPS -                                                                          150                                
PROFAMCHA090601202514202524000010FAMJAM - Open/Close                                                                                                         150                                
PGRFAMCHA090601202524202739000215MV Disney - (MD/NS/NSW) - Jonas Brothers - We Rock                                                                     60688120                                
PROFAMCHA090601202739202753000014xxFAMJAM - Close (FAMILY) xxDNUxx                                                                                           150                                
PROFAMCHA090601202753202833000040Jonas Brothers Family First (June 1 - 15) $$$                                                                               150                                
PRCFAMCHA090601202833202923000050Latest Buzz - REPORTER QUIZ (NS) Coming Up Next (M                                                                          150                                
PROFAMCHA090601202923202953000030Akeelah and the Bee - Friday Night @ 7:30pm (JUNE0                                                                          150                                
PRCFAMCHA090601202953203006000013NS Bumper - Fashion (:12-:14) JUNE06                                                                                        150                                
PRCFAMCHA090601203006203015000009CC Disclaimer - FAST - Generic (:09-:10)                                                                                    150                                
PGRFAMCHA090601203015205250002235Latest Buzz II                                    EP: 16                                                        C29635 1055607BCC3                             
PRCFAMCHA090601205250205302000012NS - 07 - WIZARDS 9:00/LIFE WITH DEREK 9:30 (:11 -                                                                          150                                
PRCFAMCHA090601205302205343000041PPP Ask The Stars - 4 Per Day (May 19 - June 12)                                                                            150                                
PRCFAMCHA090601205343205410000027Life W D (NS) CLIP - Tonight @ 9:30pm (JULY08)                                                                              150                                
PROFAMCHA090601205410205451000041Ned's DSSG (NS) COOKIE - Tonight @ 10pm (JAN09)                                                                             150                                
PROFAMCHA090601205451205522000031Jump In - Saturday @ 12                                                                                                     150                                
PROFAMCHA090601205522205532000010FAMJAM - Open/Close                                                                                                         150                                
PGRFAMCHA090601205532205827000255MV Disney - (MD/NS/NSW) - Jesse McCartney - Just S                                                                     60688120                                
PROFAMCHA090601205827205841000014xxFAMJAM - Close (FAMILY) xxDNUxx                                                                                           150                                
PROFAMCHA090601205841205928000047Wizards of Waverly Place BOXING (NS) Coming Up Nex                                                                          150                                
PRCFAMCHA090601205928210004000036Yes Way VaCay Jonas Launch Stunt - Friday June 12                                                                           150                                
PRCFAMCHA090601210004210012000008NS Bumper - Dodgeball (:07-:09) APR06                                                                                       150                                
PRCFAMCHA090601210012210021000009CC Disclaimer - SLOW - Family.ca (:09-:10)                                                                                  150                                
PGRFAMCHA090601210021210314000253Disney Wizards of Waverly Place                   EP: 14                                                               6068607BCC                              
PGRFAMCHA090601210314211014000700Disney Wizards of Waverly Place                   EP: 14                                                               6068607BCC                              
PGRFAMCHA090601211014211900000846Disney Wizards of Waverly Place                   EP: 14                                                               6068607BCC                              
PGRFAMCHA090601211900212253000353Disney Wizards of Waverly Place                   EP: 14                                                               6068607BCC                              
PRCFAMCHA090601212253212259000006Astral ID (FEB 2009)                                                                                                        150                                
PRCFAMCHA090601212259212310000011NS - 08 - DEREK/NED'S (:11 - :13) (MARCH08)                                                                                 150                                
PRCFAMCHA090601212310212348000038FOD - Family On Demand - Generic - Check you local                                                                          150                                
PROFAMCHA090601212348212431000043Ned's DSSG (NS) Too Cool for School  - Tonight @ 1                                                                          150                                
PROFAMCHA090601212431212514000043Cory In The House (NS) Tonight @ 10:30pm (SEPT07)                                                                           150                                
PGRFAMCHA090601212514212714000200MS - UP Interstitial 2 - Now In Theatres (May 29 -                                                                    A60688120                                
PROFAMCHA090601212714212811000057Suite Life of Z & C FABULOUS LIFESTYLES (NS) Tonig                                                                          150                                
PRCFAMCHA090601212811212903000052Life With Derek (NS) Casey & Derek - Coming Up Nex                                                                          150                                
PRCFAMCHA090601212903212946000043Jonas Fly Away Contest - 3 X Day (May 30 - June 11                                                                          150                                
PRCFAMCHA090601212946213002000016NS Bumper - Tennis (:15-:17) APR06                                                                                          150                                
PRCFAMCHA090601213002213011000009CC Disclaimer - FAST - Generic (:09-:10)                                                                                    150                                
PGRFAMCHA090601213011215241002230Life With Derek IV (eps 53-70)                    EP: 08                                                        C24891 1055607BCC3                             
PRCFAMCHA090601215241215253000012NS - 09 - NEDS/CORY IN THE HOUSE (:11 - :13) (SEPT                                                                          150                                
PRCFAMCHA090601215253215334000041PPP Ask The Stars - 4 Per Day (May 19 - June 12)                                                                            150                                
PROFAMCHA090601215334215407000033Cory In The House (NS) WHAT THEY'RE SAYING - Tonig                                                                          150                                
PROFAMCHA090601215407215436000029Hannah Montana - SUPER AWESOME (NS) New Eps - Fri                                                                           150                                
PROFAMCHA090601215436215446000010FAMJAM - Open/Close                                                                                                         150                                
PGRFAMCHA090601215446215756000310MV Disney - (MD/NS/NSW) - Jonas Brothers - Play My                                                                     60288120                                
PROFAMCHA090601215756215810000014xxFAMJAM - Close (FAMILY) xxDNUxx                                                                                           150                                
PROFAMCHA090601215810215851000041Ned's DSSG (NS) COOKIE - Coming Up Next (JAN09)                                                                             150                                
PRCFAMCHA090601215851215943000052Yes Way VaCay June Overall Spot (June 1-3)                                                                                  150                                
PRCFAMCHA090601215943215955000012NS Bumper - Fashion (:12-:14) JUNE06                                                                                        150                                
PRCFAMCHA090601215955220004000009CC Disclaimer - SLOW - Family.ca (:09-:10)                                                                                  150                                
PGRFAMCHA090601220004220319000315Ned's Declassified School Survival Guide          EP: 48                                                               2068807BCC                              
PGRFAMCHA090601220319221110000751Ned's Declassified School Survival Guide          EP: 48                                                               2068807BCC                              
PGRFAMCHA090601221110221956000846Ned's Declassified School Survival Guide          EP: 48                                                               2068807BCC                              
PGRFAMCHA090601221956222418000422Ned's Declassified School Survival Guide          EP: 48                                                               2068807BCC                              
PRCFAMCHA090601222418222424000006Astral ID (FEB 2009)                                                                                                        150                                
PRCFAMCHA090601222424222436000012NS - 10 - CORY IN THE HOUSE/SUITE LIFE (:11 - :13)                                                                          150                                
PRCFAMCHA090601222436222512000036Yes Way VaCay Jonas Launch Stunt - Friday June 12                                                                           150                                
PROFAMCHA090601222512222543000031Suite Life of Z & C (NS) TONY HAWK - Tonight @ 11p                                                                          150                                
PRCFAMCHA090601222543222635000052Life With Derek (NS) Casey & Derek - Tonight @ 11:                                                                          150                                
PGRFAMCHA090601222635222736000101MS - UP Interstitial 1 - Now In Theatres (May 29 -                                                                    A60688120                                
PROFAMCHA090601222736222836000100Sonny With A Chance OVERALL PROMO (NS) - NEW EPS -                                                                          150                                
PROFAMCHA090601222836222906000030Akeelah and the Bee - Friday Night @ 7:30pm (JUNE0                                                                          150                                
PROFAMCHA090601222906222926000020Cory In The House IDs - (NS) Jason - Next                                                                                   150                                
PRCFAMCHA090601222926222956000030Family Kicks Event Spot - 4 Per Day (July 11 - TBA                                                                          150                                
PRCFAMCHA090601222956223004000008NS Bumper - Dodgeball (:07-:09) APR06                                                                                       150                                
PRCFAMCHA090601223004223013000009CC Disclaimer - SLOW - Generic (:09 -:10)                                                                                   150                                
PGRFAMCHA090601223013225251002238Disney Cory in the House                          EP: 05                                                               6068607BCC                              
PRCFAMCHA090601225251225303000012NS - 11 - SUITE LIFE/LIFE WITH DEREK (:11 - :13) (                                                                          150                                
PRCFAMCHA090601225303225341000038FOD - Family On Demand - Generic - Check you local                                                                          150                                
PROFAMCHA090601225341225422000041Hannah Montana - EVERYWHERE (NS) NEW EPS - Friday                                                                           150                                
PROFAMCHA090601225422225432000010FAMJAM - Open/Close                                                                                                         150                                
PGRFAMCHA090601225432225841000409MV Disney - (MD/NS/NSW) - Jonas Brothers - When Yo                                                                     60288120                                
PROFAMCHA090601225841225855000014xxFAMJAM - Close (FAMILY) xxDNUxx                                                                                           150                                
PROFAMCHA090601225855225926000031Suite Life of Z & C (NS) TONY HAWK - Coming Up Nex                                                                          150                                
PROFAMCHA090601225926225957000031Jump In - Saturday @ 12                                                                                                     150                                
PRCFAMCHA090601225957230013000016NS Bumper - Tennis (:15-:17) APR06                                                                                          150                                
ID FAMCHA090601230013230021000008Magic of Disney - NS/NSW/PB - Shape (:06-:09)                                                                               150                                
PRCFAMCHA090601230021230030000009CC Disclaimer - SLOW - Family.ca (:09-:10)                                                                                  150                                
PGRFAMCHA090601230030232308002238Suite Life of Zack & Cody, The                    EP: 19                                                               6068607BCC                              
PRCFAMCHA090601232308232314000006Astral ID (FEB 2009)                                                                                                        150                                
PRCFAMCHA090601232314232325000011NS - 12 - LIFE WITH DEREK/SADIE (:11 - :13) (SEPT0                                                                          150                                
PRCFAMCHA090601232325232408000043Jonas Fly Away Contest - 3 X Day (May 30 - June 11                                                                          150                                
PRCFAMCHA090601232408232444000036Yes Way VaCay Jonas Launch Stunt - Friday June 12                                                                           150                                
PRCFAMCHA090601232444232513000029Naturally Sadie - CLIP (NSW) Tonight @ 12:00am (MA                                                                          150                                
PROFAMCHA090601232513232523000010FAMJAM - Open/Close                                                                                                         150                                
PGRFAMCHA090601232523232823000300MV Disney - (MD/NS/NSW) - Jonas Brothers - This Is                                                                     60288120                                
PROFAMCHA090601232823232837000014xxFAMJAM - Close (FAMILY) xxDNUxx                                                                                           150                                
PRCFAMCHA090601232837232907000030Life W D (NS) A WHOLE NEW DEREK - Coming Up Next (                                                                          150                                
PRCFAMCHA090601232907232947000040Really Big Birthdays - August - 3-4 X Day (June 1                                                                           150                                
PRCFAMCHA090601232947233000000013NS Bumper - Fashion (:12-:14) JUNE06                                                                                        150                                
PRCFAMCHA090601233000233009000009CC Disclaimer - SLOW - Generic (:09 -:10)                                                                                   150                                
PGRFAMCHA090601233009235239002230Life with Derek                                   EP: 20                                                        C26679A1065607BCC                              
PRCFAMCHA090601235239235252000013NS - 13 - SADIE/SADIE (:11 - :13) (SEPT07)                                                                                  150                                
PRCFAMCHA090601235252235333000041PPP Ask The Stars - 4 Per Day (May 19 - June 12)                                                                            150                                
PROFAMCHA090601235333235420000047Wizards of Waverly Place BOXING (NS) Tomorrow Nigh                                                                          150                                
PROFAMCHA090601235420235451000031Suite Life of Z & C (NS) TONY HAWK - Tomorrow Nigh                                                                          150                                
PROFAMCHA090601235451235501000010FAMJAM - Open/Close                                                                                                         150                                
PGRFAMCHA090601235501235756000255MV Disney - (MD/NS/NSW) - Jesse McCartney - Just S                                                                     60688120                                
PROFAMCHA090601235756235810000014xxFAMJAM - Close (FAMILY) xxDNUxx                                                                                           150                                
PROFAMCHA090601235810235832000022Sonny With A Chance ID (NS) DEMI LOVATO - NEW EPS                                                                           150                                
PRCFAMCHA090601235832235912000040Naturally Sadie - ROMANTIC (NS) Coming Up Next (MA                                                                          150                                
PRCFAMCHA090601235912000004000052Yes Way VaCay June Overall Spot (June 1-3)                                                                                  150                                
PRCFAMCHA090601000004000011000007NS Bumper - Dodgeball (:07-:09) APR06                                                                                       150                                
PRCFAMCHA090601000011000020000009CC Disclaimer - SLOW - Family.ca (:09-:10)                                                                                  150                                
PGRFAMCHA090601000020002250002230Naturally, Sadie                                  EP: 51                                                        C25428 1065607ACC                              
PRCFAMCHA090601002250002256000006Astral ID (FEB 2009)                                                                                                        150                                
PRCFAMCHA090601002256002307000011NS - 14 - SADIE/HANNAH (:11 - :13) (SEPT07)                                                                                 150                                
PRCFAMCHA090601002307002337000030Family Kicks Event Spot - 4 Per Day (July 11 - TBA                                                                          150                                
PROFAMCHA090601002337002402000025Wizards of Waverly Place HOODIE (NS) Tomorrow Nigh                                                                          150                                
PROFAMCHA090601002402002431000029Hannah Montana - SUPER AWESOME (NS) New Eps - Fri                                                                           150                                
PROFAMCHA090601002431002441000010FAMJAM - Open/Close                                                                                                         150                                
PGRFAMCHA090601002441002741000300MV Disney - (MD/NS/NSW) - Jesse McCartney - Just S                                                                     60688120                                
PROFAMCHA090601002741002755000014xxFAMJAM - Close (FAMILY) xxDNUxx                                                                                           150                                
PRCFAMCHA090601002755002809000014xxFamily Bumpers - (Phase 1 Spring 04) - Basketbal                                                                          150                                
PROFAMCHA090601002809002839000030Akeelah and the Bee - Friday Night @ 7:30pm (JUNE0                                                                          150                                
PRCFAMCHA090601002839002908000029Naturally Sadie - CLIP (NS) Coming Up Next (MARCH0                                                                          150                                
PRCFAMCHA090601002908002944000036Yes Way VaCay Jonas Launch Stunt - Friday June 12                                                                           150                                
PRCFAMCHA090601002944003000000016NS Bumper - Tennis (:15-:17) APR06                                                                                          150                                
PRCFAMCHA090601003000003009000009CC Disclaimer - SLOW - Generic (:09 -:10)                                                                                   150                                
PGRFAMCHA090601003009005239002230Naturally, Sadie                                  EP: 32                                                        C25428 1065607ACC                              
PRCFAMCHA090601005239005251000012NS - 15 - HANNAH/CORY (:11 - :13) (OCT08)                                                                                   150                                
PRCFAMCHA090601005251005341000050Family Online Community Promo - 2x a Day (not in P                                                                          150                                
PROFAMCHA090601005341005426000045Sonny With A Chance BOYS (NS) - NEW EPS - Friday N                                                                          150                                
PROFAMCHA090601005426005436000010FAMJAM - Open/Close                                                                                                         150                                
PGRFAMCHA090601005436005823000347MV Disney - (MD/NS/NSW) - Jesse McCartney - Just S                                                                     60688120                                
PROFAMCHA090601005823005837000014xxFAMJAM - Close (FAMILY) xxDNUxx                                                                                           150                                
PRCFAMCHA090601005837005843000006xxFamily Bumpers - Reptile Pet - Silly Horn (MD/NS                                                                          150                                
PROFAMCHA090601005843005912000029Hannah Montana - SUPER AWESOME (NS) Coming Up Next                                                                          150                                
PRCFAMCHA090601005912005950000038FOD - Family On Demand - Generic - Check you local                                                                          150                                
PRCFAMCHA090601005950010002000012NS Bumper - Fashion (:12-:14) JUNE06                                                                                        150                                
PRCFAMCHA090601010002010011000009CC Disclaimer - SLOW - Family.ca (:09-:10)                                                                                  150                                
PGRFAMCHA090601010011010534000523Hannah Montana                                    EP: 19                                                               6068807BCC                              
PGRFAMCHA090601010534011310000736Hannah Montana                                    EP: 19                                                               6068807BCC                              
PGRFAMCHA090601011310012147000837Hannah Montana                                    EP: 19                                                               6068807BCC                              
PGRFAMCHA090601012147012241000054Hannah Montana                                    EP: 19                                                               6068807BCC                              
PRCFAMCHA090601012241012247000006Astral ID (FEB 2009)                                                                                                        150                                
PRCFAMCHA090601012247012258000011NS - 16 - CORY/PHIL (:11 - :13) (OCT08)                                                                                     150                                
PRCFAMCHA090601012258012306000008NS Bumper - Dodgeball (:07-:09) APR06                                                                                       150                                
PRCFAMCHA090601012306012315000009CC Disclaimer - SLOW - Generic (:09 -:10)                                                                                   150                                
PGRFAMCHA090601012315013150000835Disney Cory in the House                          EP: 19                                                               6068607BCC                              
PGRFAMCHA090601013150013647000457Disney Cory in the House                          EP: 19                                                               6068607BCC                              
PGRFAMCHA090601013647014023000336Disney Cory in the House                          EP: 19                                                               6068607BCC                              
PGRFAMCHA090601014023014549000526Disney Cory in the House                          EP: 19                                                               6068607BCC                              
PRCFAMCHA090601014549014600000011NS - 17 - PHIL/LIZZIE (:11 - :13) (OCT08)                                                                                   150                                
PRCFAMCHA090601014600014615000015NS Bumper - Tennis (:15-:17) APR06                                                                                          150                                
ID FAMCHA090601014615014623000008Magic of Disney - NS/NSW/PB - Shape (:06-:09)                                                                               150                                
PRCFAMCHA090601014623014632000009CC Disclaimer - SLOW - Family.ca (:09-:10)                                                                                  150                                
PGRFAMCHA090601014632014844000212Phil of the Future Yr 2                           EP: 24                                                               6068607BCC                              
PGRFAMCHA090601014844015754000910Phil of the Future Yr 2                           EP: 24                                                               6068607BCC                              
PGRFAMCHA090601015754020738000944Phil of the Future Yr 2                           EP: 24                                                               6068607BCC                              
PGRFAMCHA090601020738020835000057Phil of the Future Yr 2                           EP: 24                                                               6068607BCC                              
PRCFAMCHA090601020835020841000006Astral ID (FEB 2009)                                                                                                        150                                
PRCFAMCHA090601020841020852000011NS - 18 - LIZZIE/LIFE WITH DEREK (:11 - :13) (OCT0                                                                          150                                
PRCFAMCHA090601020852020904000012NS Bumper - Fashion (:12-:14) JUNE06                                                                                        150                                
ID FAMCHA090601020904020912000008Magic of Disney - NS/NSW/PB - Wipe (:06-:09)                                                                                150                                
PRCFAMCHA090601020912020921000009CC Disclaimer - SLOW - Generic (:09 -:10)                                                                                   150                                
PGRFAMCHA090601020921023155002234Lizzie McGuire                                    EP: 1-005                                                            6068607BCC                              
PRCFAMCHA090601023155023206000011NS - 19 - LIFE WITH DEREK/CORY IN THE HOUSE (:11 -                                                                          150                                
PRCFAMCHA090601023206023213000007NS Bumper - Dodgeball (:07-:09) APR06                                                                                       150                                
PRCFAMCHA090601023213023222000009CC Disclaimer - SLOW - Family.ca (:09-:10)                                                                                  150                                
PGRFAMCHA090601023222025452002230Life with Derek                                   EP: 26                                                        C26679A1065607BCC                              
PRCFAMCHA090601025452025458000006Astral ID (FEB 2009)                                                                                                        150                                
PRCFAMCHA090601025458025509000011NS - 20 - CORY IN THE HOUSE/RAVEN (:11 - :13) (SEP                                                                          150                                
PRCFAMCHA090601025509025524000015NS Bumper - Tennis (:15-:17) APR06                                                                                          150                                
PRCFAMCHA090601025524025533000009CC Disclaimer - SLOW - Generic (:09 -:10)                                                                                   150                                
PGRFAMCHA090601025533031811002238Disney Cory in the House                          EP: 05                                                               6068607BCC                              
PRCFAMCHA090601031811031822000011NS - 21 - RAVEN/ SUITE LIFE (:11 - :13) (SEPT07)                                                                            150                                
PRCFAMCHA090601031822031835000013NS Bumper - Fashion (:12-:14) JUNE06                                                                                        150                                
ID FAMCHA090601031835031843000008Magic of Disney - NS/NSW/PB - Shape (:06-:09)                                                                               150                                
PRCFAMCHA090601031843031852000009CC Disclaimer - SLOW - Family.ca (:09-:10)                                                                                  150                                
PGRFAMCHA090601031852034131002239That's So Raven                                   EPS # 1-058                                                          6068607BCC                              
PRCFAMCHA090601034131034137000006Astral ID (FEB 2009)                                                                                                        150                                
PRCFAMCHA090601034137034150000013NS - 22 - SUITE LIFE/LIFE WITH DEREK (:11 - :13) (                                                                          150                                
PRCFAMCHA090601034150034159000009NS Bumper - Dodgeball (:07-:09) APR06                                                                                       150                                
ID FAMCHA090601034159034208000009Magic of Disney - NS/NSW/PB - Wipe (:06-:09)                                                                                150                                
PRCFAMCHA090601034208034218000010CC Disclaimer - SLOW - Generic (:09 -:10)                                                                                   150                                
PGRFAMCHA090601034218034349000131Suite Life of Zack & Cody, The                    EP: 11                                                               6068607BCC                              
PGRFAMCHA090601034349035228000839Suite Life of Zack & Cody, The                    EP: 11                                                               6068607BCC                              
PGRFAMCHA090601035228040356001128Suite Life of Zack & Cody, The                    EP: 11                                                               6068607BCC                              
PGRFAMCHA090601040356040455000059Suite Life of Zack & Cody, The                    EP: 11                                                               6068607BCC                              
PRCFAMCHA090601040455040508000013NS - 23 - LIFE WITH DEREK (:11 - :13) (SEPT07)                                                                              150                                
PRCFAMCHA090601040508040525000017NS Bumper - Tennis (:15-:17) APR06                                                                                          150                                
