SO FAMCHA070201043000043011000011Sign On (oct 1)                                                                                                                                                
PRCFAMCHA070201043011043020000009CC Disclaimer - FAST - Family.ca (:08-:10) $$$                                                                              150                                
PGRFAMCHA070201043020045658002638Katie And Orbie                                   EP: 4-045                                                     C19664A1065607ECC                              
PRCFAMCHA070201045658045703000005Astral ID (FEB05) $$$                                                                                                       150                                
PRCFAMCHA070201045703045718000015PH - 04 - FRANNY/SOMETHING/HOZE  (:14 - :16) (APR0                                                                          150                                
ID FAMCHA070201045718045731000013PS Playhouse AM Block Open (:10-:15) $$$                                                                                    150                                
PRCFAMCHA070201045731045740000009CC Disclaimer - FAST - Generic (:08-:10) $$$                                                                                150                                
PGRFAMCHA070201045740052010002230Franny's Feet                                     EPS # 1-004                                                   C23970A1065607ECC                              
PRCFAMCHA070201052010052026000016PH - 05 - SOMETHING/HOZE/KING (:14 - :16) (APR06)                                                                           150                                
ID FAMCHA070201052026052039000013PS Playhouse AM Block Open (:10-:15) $$$                                                                                    150                                
PRCFAMCHA070201052039052048000009CC Disclaimer - FAST - Family.ca (:08-:10) $$$                                                                              150                                
PGRFAMCHA070201052048054319002231Something Else                                    EP: 1-012                                                     B69266A1065607ECC                              
PRCFAMCHA070201054319054324000005Astral ID (FEB05) $$$                                                                                                       150                                
PRCFAMCHA070201054324054340000016PH - 06 - HOZE/KING/SPIDERMAN (:14 - :16) (APR06)                                                                           150                                
ID FAMCHA070201054340054353000013PS Playhouse AM Block Open (:10-:15) $$$                                                                                    150                                
PRCFAMCHA070201054353054402000009CC Disclaimer - FAST - Generic (:08-:10) $$$                                                                                150                                
PGRFAMCHA070201054402060640002238Hoze Houndz                                       EP: 4-042                                                     B63378A1065607ECC                              
PRCFAMCHA070201060640060656000016PH - 07 - KING/SPIDERMAN/KIM  (:14 - :16) (APR06)                                                                           150                                
ID FAMCHA070201060656060709000013PS Playhouse AM Block Open (:10-:15) $$$                                                                                    150                                
PRCFAMCHA070201060709060718000009CC Disclaimer - FAST - Family.ca (:08-:10) $$$                                                                              150                                
PGRFAMCHA070201060718062948002230King                                              EPS # 2-020                                                   B75775A1065607ECC                              
PRCFAMCHA070201062948062953000005Astral ID (FEB05) $$$                                                                                                       150                                
PRCFAMCHA070201062953063009000016PH - 08- SPIDERMAN/KIM ( (:14 - :16) (APR06) $$$                                                                            150                                
PROFAMCHA070201063009063028000019MadMadMornings Block Open $$$                                                                                               150                                
PGRFAMCHA070201063028065209002141Spiderman                                         EP: 07                                                        C02618 1065607E                                
PRCFAMCHA070201065209065224000015MMM - 01 (AM) - KIM/RECESS/WEEKENDERS (OCT05) (:14                                                                          150                                
PROFAMCHA070201065224065256000032Kim Possible RON FACTOR (MMM) (July 06)  Coming Up                                                                          150                                
PROFAMCHA070201065256065326000030Jump In Soundtrack (Avail Now) (Jan 30-Apr22) $$$                                                                           150                                
PROFAMCHA070201065326065333000007MadMadMornings Bumper                                                                                                       150                                
PROFAMCHA070201065333065343000010FAMJAM - Open/Close                                                                                                         150                                
PGRFAMCHA070201065343065458000115MV Disney - (FAMILY HITS) - Naked Mole Rap                                                                             60688120                                
PROFAMCHA070201065458065512000014xxFAMJAM - Close (FAMILY) xxDNUxx                                                                                           150                                
PROFAMCHA070201065512065542000030Life is Ruff (AUG06) Sunday @ 12                                                                                            150                                
PROFAMCHA070201065542065601000019MadMadMornings Block Open $$$                                                                                               150                                
PRCFAMCHA070201065601065610000009CC Disclaimer - FAST - Family.ca (:08-:10) $$$                                                                              150                                
PGRFAMCHA070201065610071859002249Disney's Kim Possible                             EPS # 1-029                                                         A6068607ECC                              
PRCFAMCHA070201071859071904000005Astral ID (FEB05) $$$                                                                                                       150                                
PRCFAMCHA070201071904071919000015MMM - 02 (AM) - RECESS/WEEKENDERS/LILO (OCT05) (:1                                                                          150                                
PROFAMCHA070201071919072004000045Recess - SNACKS FOR SNITCHES (MMM) - (MAY06) - Com                                                                          150                                
PROFAMCHA070201072004072039000035xxCinderella III DVD (Avail Feb 6) (Jan 25-Feb5) $                                                                          150                                
PROFAMCHA070201072039072115000036Weekenders - PIZZA (MMM) - (APR06) - This Morning                                                                           150                                
PROFAMCHA070201072115072149000034Proud Family (JULY06) MOM YELLS (MD) -  This After                                                                          150                                
PROFAMCHA070201072149072312000123xxDisneyworld Winner - Spot 2 (Jan19-Feb2) 3xday P                                                                    A     150                                
PROFAMCHA070201072312072336000024Lloyd In Space (DATE) (JUNE06) MD- This aftternoon                                                                          150                                
PROFAMCHA070201072336072342000006Phil of the Future IDs - You're Watching Family...                                                                          150                                
PROFAMCHA070201072342072401000019MadMadMornings Block Open $$$                                                                                               150                                
PGRFAMCHA070201072401074651002250Disney's Recess                                   EP: 1-064                                                           A6068607E                                
PRCFAMCHA070201074651074706000015PH - 09 - WEEKENDERS/LILO/EINSTEINS (:14 - :16) (A                                                                          150                                
PROFAMCHA070201074706074742000036Weekenders - PIZZA (MMM) - (APR06) - Coming Up Nex                                                                          150                                
PROFAMCHA070201074742074807000025xxRecess Sketches OCT 06 - K SURPRISE - ABCs                                                                                150                                
PROFAMCHA070201074807074817000010FAMJAM - Open/Close                                                                                                         150                                
PGRFAMCHA070201074817074947000130MV Disney - Superstition (Raven)                                                                                       60688120                                
PROFAMCHA070201074947075001000014xxFAMJAM - Close (FAMILY) xxDNUxx                                                                                           150                                
PROFAMCHA070201075001075031000030Life is Ruff (AUG06) Sunday @ 12                                                                                            150                                
PROFAMCHA070201075031075038000007Chef Boyardee BB - MMM $$$                                                                                            A     150                                
PROFAMCHA070201075038075057000019MadMadMornings Block Open $$$                                                                                               150                                
PRCFAMCHA070201075057075106000009CC Disclaimer - FAST - Generic (:08-:10) $$$                                                                                150                                
PGRFAMCHA070201075106081338002232Disney's The Weekenders                           EP: 1-020                                                           A6068607ECC                              
PRCFAMCHA070201081338081343000005Astral ID (FEB05) $$$                                                                                                       150                                
PRCFAMCHA070201081343081358000015PH - 10 - LILO/EINSTEINS/WINNIE (:14 - :16) (APR06                                                                          150                                
PROFAMCHA070201081358081423000025xxLilo & Stitch (MMM) (APR06) CRAM- coming up Next                                                                          150                                
PROFAMCHA070201081423081448000025xxRecess Sketches OCT 06 - K SURPRISE - Colour                                                                              150                                
PROFAMCHA070201081448081458000010FAMJAM - Open/Close                                                                                                         150                                
PGRFAMCHA070201081458081643000145MV Disney - Superstition (Raven)                                                                                       60688120                                
PROFAMCHA070201081643081657000014xxFAMJAM - Close (FAMILY) xxDNUxx                                                                                           150                                
PROFAMCHA070201081657081727000030xxJump In - Prem Feb 16 @ 7:30 (Jan 16-Feb8) every                                                                          150                                
PROFAMCHA070201081727081734000007Chef Boyardee BB - MMM $$$                                                                                            A     150                                
PROFAMCHA070201081734081753000019MadMadMornings Block Open $$$                                                                                               150                                
PGRFAMCHA070201081753084032002239Disney's Lilo & Stitch                            EPS # 39                                                            A6068607E                                
PRCFAMCHA070201084032084048000016PH - 11 -EINSTEINS/WINNIE/BEAR  (:14 - :16) (NOV06                                                                          150                                
PROFAMCHA070201084048084118000030Little Einstein (PH) (PRESCHOOL) - Coming Up Next                                                                           150                                
PROFAMCHA070201084118084153000035xxCinderella III DVD (Avail Feb 6) (Jan 25-Feb5) $                                                                          150                                
PROFAMCHA070201084153084336000143Little Mermaid - OCT 06 - Long - This morn @ 10:30                                                                          150                                
PROFAMCHA070201084336084436000100Mickey Mouse Clubhouse (Video 1) Tomorrow morn @ 1                                                                          150                                
ID FAMCHA070201084436084449000013PS Playhouse AM Block Open (:10-:15) $$$                                                                                    150                                
PGRFAMCHA070201084449090854002405Disney's Little Einsteins                         EP: 16                                                               6068607E                                
PRCFAMCHA070201090854090859000005Astral ID (FEB05) $$$                                                                                                       150                                
PRCFAMCHA070201090859090915000016PH - 12 -WINNIE/BEAR/JOJO  (:14 - :16) (NOV06) $$$                                                                          150                                
PROFAMCHA070201090915090945000030Winnie the Pooh (PH/AM) (APR06) - Coming Up Next                                                                            150                                
PRCFAMCHA070201090945091020000035Playhouse - KATIE & ORBIE - Did You Know?                                                                                   150                                
PRCFAMCHA070201091020091051000031King (PH) (APR06) - This Morning @ 11:25am                                                                                  150                                
ID FAMCHA070201091051091104000013PS Playhouse AM Block Open (:10-:15) $$$                                                                                    150                                
PRCFAMCHA070201091104091113000009CC Disclaimer - FAST - Family.ca (:08-:10) $$$                                                                              150                                
PGRFAMCHA070201091113093421002308The New Adventures of Winnie the Pooh             EP: 1-030                                                            6068607ECC                              
PRCFAMCHA070201093421093437000016PH - 13 -BEAR/JOJO/MERMAID (:14 - :16) (NOV06) $$$                                                                          150                                
PROFAMCHA070201093437093453000016Jojo's Circus - MAGIC - OCT 06 - This morn @ 10:05                                                                          150                                
PROFAMCHA070201093453093549000056xxPlayhouse - STANLEY - Fish Song                                                                                           150                                
PROFAMCHA070201093549093619000030Little Einstein (PH) (PRESCHOOL) - Tomorrow @ 8:45                                                                          150                                
PROFAMCHA070201093619093649000030Winnie the Pooh (PH/AM) (APR06) - Tomorrow Morning                                                                          150                                
ID FAMCHA070201093649093702000013PS Playhouse AM Block Open (:10-:15) $$$                                                                                    150                                
PGRFAMCHA070201093702100107002405Bear In the Big Blue House                        EP: 013                                                              2068607E                                
PRCFAMCHA070201100107100112000005Astral ID (FEB05) $$$                                                                                                       150                                
PRCFAMCHA070201100112100128000016PH - 14 -JOJO/MERMAID/STANLEY (:14- :16) (APR06) $                                                                          150                                
PROFAMCHA070201100128100146000018xxJojo's Circus - HIP HOP - OCT 06 - Coming Up Nex                                                                          150                                
PROFAMCHA070201100146100252000106Playhouse - WINNIE THE POOH - Christopher Robin                                                                             150                                
PROFAMCHA070201100252100352000100Mickey Mouse Clubhouse (Video 2) Tomorrow morn @ 1                                                                          150                                
ID FAMCHA070201100352100405000013PS Playhouse AM Block Open (:10-:15) $$$                                                                                    150                                
PGRFAMCHA070201100405102813002408JoJo's Circus                                     EPS # 24                                                            A6068607E                                
PRCFAMCHA070201102813102829000016PH - 15 -MERMAID/STANLEY/KING  (:14 - :16) (APR06)                                                                          150                                
PROFAMCHA070201102829103012000143Little Mermaid - OCT 06 - Long - NEXT                                                                                       150                                
PRCFAMCHA070201103012103042000030Franny's Feet - Concept (APR06)(PH-Mon) - Monday M                                                                          150                                
ID FAMCHA070201103042103055000013PS Playhouse AM Block Open (:10-:15) $$$                                                                                    150                                
ID FAMCHA070201103055103103000008Magic of Disney - PLAYHOUSE - Shape (:06-:09) $$$                                                                           150                                
PRCFAMCHA070201103103103112000009CC Disclaimer - FAST - Family.ca (:08-:10) $$$                                                                              150                                
PGRFAMCHA070201103112105410002258The Little Mermaid                                EP: 1-021                                                            6068607ECC                              
PRCFAMCHA070201105410105415000005Astral ID (FEB05) $$$                                                                                                       150                                
PRCFAMCHA070201105415105430000015PH - 16 -STANLEY/KING/RECESS (:14- :16) (APR06) $$                                                                          150                                
PRCFAMCHA070201105430105500000030xxStanley - Get Into It (MAR05) - (PH-M/W/F) - Com                                                                          150                                
PRCFAMCHA070201105500105527000027Playhouse Web Promo - Family.ca                                                                                             150                                
PROFAMCHA070201105527105543000016Jojo's Circus - MAGIC - OCT 06 - Tomorrow morn @ 1                                                                          150                                
PGRFAMCHA070201105543105653000110They Might Be Giants (ABC's) - Letter/Not A Letter                                                                     60688120                                
ID FAMCHA070201105653105706000013PS Playhouse AM Block Open (:10-:15) $$$                                                                                    150                                
PGRFAMCHA070201105706112111002405Stanley                                           EPS # 1-061                                                         A6068607E                                
PRCFAMCHA070201112111112126000015PH - 17 -KING/RECESS/KIM (:14 - :16) (APR06) $$$                                                                            150                                
PRCFAMCHA070201112126112157000031King (PH) (APR06) - Coming Up Next                                                                                          150                                
PGRFAMCHA070201112157112317000120They Might Be Giants (ABC's) - Go for G                                                                                60688120                                
PROFAMCHA070201112317112347000030Little Einstein (PH) (PRESCHOOL) - Tomorrow @ 8:45                                                                          150                                
PROFAMCHA070201112347112447000100Mickey Mouse Clubhouse (Video 1) Tomorrow morn @ 1                                                                          150                                
ID FAMCHA070201112447112500000013PS Playhouse AM Block Open (:10-:15) $$$                                                                                    150                                
PRCFAMCHA070201112500112509000009CC Disclaimer - FAST - Family.ca (:08-:10) $$$                                                                              150                                
PGRFAMCHA070201112509114739002230King                                              EP: 005                                                       B75760A1065607ECC                              
PRCFAMCHA070201114739114744000005Astral ID (FEB05) $$$                                                                                                       150                                
PRCFAMCHA070201114744114756000012MD - 01 - RECESS/KIM (APR06) (:11 - :13) $$$                                                                                150                                
PROFAMCHA070201114756114820000024Recess - MONTAGE (MD) - JULY06 - Coming Up Next                                                                             150                                
PROFAMCHA070201114820114844000024Lloyd In Space (DATE) (JUNE06) MD- This aftternoon                                                                          150                                
PROFAMCHA070201114844114901000017Mad Dash Block Open (:16-:18) APR06 $$$                                                                                     150                                
PGRFAMCHA070201114901121136002235Disney's Recess                                   EP: 1-018                                                            6068607E                                
PRCFAMCHA070201121136121148000012MD - 02 - KIM/WEEKENDERS (APR06) (:11 - :13) $$$                                                                            150                                
PROFAMCHA070201121148121220000032Kim Possible RON FACTOR (MD) (July 06)  Coming Up                                                                           150                                
PROFAMCHA070201121220121250000030Life is Ruff (AUG06) Sunday @ 12                                                                                            150                                
PROFAMCHA070201121250121257000007Chef Boyardee BB - MD $$$                                                                                             A     150                                
PRCFAMCHA070201121257121305000008MD Bumper - $$$ Ski Race (:07-:09) APR06                                                                                    150                                
PRCFAMCHA070201121305121314000009CC Disclaimer - FAST - Generic (:08-:10) $$$                                                                                150                                
PGRFAMCHA070201121314123607002253Disney's Kim Possible                             EPS # 1-060                                                          6068607ECC                              
PRCFAMCHA070201123607123612000005Astral ID (FEB05) $$$                                                                                                       150                                
PRCFAMCHA070201123612123624000012MD - 03 - WEEKENDERS/AMERICAN DRAGON (JAN07) (:11                                                                           150                                
PROFAMCHA070201123624123649000025xxRecess Sketches OCT 06 - K SURPRISE - Kitty                                                                               150                                
PRCFAMCHA070201123649123705000016MD Bumper - $$$ Shopping Race (:15-:17) APR06                                                                               150                                
PRCFAMCHA070201123705123714000009CC Disclaimer - FAST - Family.ca (:08-:10) $$$                                                                              150                                
PGRFAMCHA070201123714125951002237Disney's The Weekenders                           EP: 1-026                                                           A6068607ECC                              
PRCFAMCHA070201125951130003000012MD - 04 - AMERICAN DRAGON/EMPEROR (JAN07) (:11 - :                                                                          150                                
PRCFAMCHA070201130003130012000009MD Bumper $$$ - Race Cars (:08-:10) APR06 **DNU                                                                             150                                
ID FAMCHA070201130012130020000008Magic of Disney - MAD DASH - Shape (:06-:09) $$$                                                                            150                                
PGRFAMCHA070201130020132258002238Disney's American Dragon:Jake Long                EPS # 04                                                             6068607E                                
PRCFAMCHA070201132258132303000005Astral ID (FEB05) $$$                                                                                                       150                                
PRCFAMCHA070201132303132315000012MD - 05 - EMPEROR/LILO (JAN07) (:11 - :13) $$$                                                                              150                                
PROFAMCHA070201132315132340000025xxLilo & Stitch (MD) CRAM (APR06) - This Afternoon                                                                          150                                
PRCFAMCHA070201132340132348000008MD Bumper - $$$ Ski Race (:07-:09) APR06                                                                                    150                                
ID FAMCHA070201132348132356000008Magic of Disney - MAD DASH - Shape (:06-:09) $$$                                                                            150                                
PGRFAMCHA070201132356134631002235Disney's The Emperor's New School                 EP: 04                                                               6068807E                                
PRCFAMCHA070201134631134643000012MD - 06 - LILO/FILLMORE! (APR06) (:11 - :13) $$$                                                                            150                                
PROFAMCHA070201134643134708000025xxLilo & Stitch (MD) CRAM (APR06) - Coming UP Next                                                                          150                                
PROFAMCHA070201134708134738000030Life is Ruff (AUG06) Sunday @ 12                                                                                            150                                
PRCFAMCHA070201134738134754000016MD Bumper - $$$ Shopping Race (:15-:17) APR06                                                                               150                                
PGRFAMCHA070201134754141033002239Disney's Lilo & Stitch: The Series                EP: 61                                                               6068607E                                
PRCFAMCHA070201141033141038000005Astral ID (FEB05) $$$                                                                                                       150                                
PRCFAMCHA070201141038141050000012MD - 07 - FILLMORE!/PROUD (APR06) (:11 - :13) $$$                                                                           150                                
PROFAMCHA070201141050141112000022Fillmore! - POLLY (MD) (APR06) - coming up next                                                                             150                                
PROFAMCHA070201141112141137000025xxRecess Sketches OCT 06 - K SURPRISE - Plank                                                                               150                                
PRCFAMCHA070201141137141146000009xxJump In ID - Corbin Bleu (FEB07) - Premiering Fe                                                                          150                                
PROFAMCHA070201141146141153000007Chef Boyardee BB - MD $$$                                                                                             A     150                                
PRCFAMCHA070201141153141202000009MD Bumper $$$ - Race Cars (:08-:10) APR06 **DNU                                                                             150                                
PGRFAMCHA070201141202143440002238Disney's Fillmore!                                EPS # 1-026                                                         A6068607E                                
PRCFAMCHA070201143440143452000012MD - 08 - PROUD/WEEKENDERS (APR06) (:11 - :13) $$$                                                                          150                                
PROFAMCHA070201143452143526000034Proud Family (APR06) GET BURNED (MD) - Coming Up N                                                                          150                                
PROFAMCHA070201143526143556000030xxJump In - Prem Feb 16 @ 7:30 (Jan 16-Feb8) every                                                                          150                                
PRCFAMCHA070201143556143604000008MD Bumper - $$$ Ski Race (:07-:09) APR06                                                                                    150                                
PRCFAMCHA070201143604143613000009CC Disclaimer - FAST - Generic (:08-:10) $$$                                                                                150                                
PGRFAMCHA070201143613145755002142The Proud Family                                  EP: 1-006                                                           A6068607ECC                              
PRCFAMCHA070201145755145800000005Astral ID (FEB05) $$$                                                                                                       150                                
PRCFAMCHA070201145800145812000012MD - 09 - WEEKENDERS/LLOYD (APR06) (:11 - :13) $$$                                                                          150                                
PROFAMCHA070201145812145848000036Weekenders - PIZZA (MD) - (APR06) - Coming Up Next                                                                          150                                
PRCFAMCHA070201145848145905000017Web Games Promo - 3x daily MD/MMM/NS/NSW                                                                                    150                                
PROFAMCHA070201145905145938000033xxDave the Barbarian - RACE CAR (MD) - This Aftern                                                                          150                                
PROFAMCHA070201145938145945000007Chef Boyardee BB - MD $$$                                                                                             A     150                                
PROFAMCHA070201145945150002000017Mad Dash Block Open (:16-:18) APR06 $$$                                                                                     150                                
PRCFAMCHA070201150002150011000009CC Disclaimer - FAST - Family.ca (:08-:10) $$$                                                                              150                                
PGRFAMCHA070201150011152305002254Disney's The Weekenders                           EP: 1-001                                                           A6068607ECC                              
PRCFAMCHA070201152305152317000012MD - 10 - LLOYD/DAVE (APR06) (:11 - :13) $$$                                                                                150                                
PROFAMCHA070201152317152354000037Lloyd In Space (Star Wars) (APR06) - Coming Up Nex                                                                          150                                
PRCFAMCHA070201152354152424000030MMM Tomorrow @ 6:55 (APR06)                                                                                                 150                                
PROFAMCHA070201152424152454000030Life is Ruff (AUG06) Sunday @ 12                                                                                            150                                
PRCFAMCHA070201152454152510000016MD Bumper - $$$ Shopping Race (:15-:17) APR06                                                                               150                                
ID FAMCHA070201152510152518000008Magic of Disney - MAD DASH - Shape (:06-:09) $$$                                                                            150                                
PGRFAMCHA070201152518154811002253Disney's Lloyd In Space                           EP: 13                                                               6068607E                                
PRCFAMCHA070201154811154816000005Astral ID (FEB05) $$$                                                                                                       150                                
PRCFAMCHA070201154816154828000012MD - 11 - DAVE/PROUD (APR06) (:11 - :13) $$$                                                                                150                                
PROFAMCHA070201154828154846000018xxDave the Barbarian - COOL PANT (MD) - Coming Up                                                                           150                                
PGRFAMCHA070201154846155016000130xxMovie Surfers - Bridge to Terabithia - Coming So                                                                    A60688120                                
PROFAMCHA070201155016155041000025xxRecess Sketches OCT 06 - K SURPRISE - Soaps                                                                               150                                
PROFAMCHA070201155041155053000012xxFamily Bumpers - (Phase 1 Spring 04) - Pillow Fi                                                                          150                                
PROFAMCHA070201155053155115000022Fillmore! - POLLY (MD) (APR06) - Tomorrow Afternoo                                                                          150                                
PROFAMCHA070201155115155145000030xxJump In - Prem Feb 16 @ 7:30 (Jan 16-Feb8) every                                                                          150                                
PROFAMCHA070201155145155152000007Chef Boyardee BB - MD $$$                                                                                             A     150                                
PRCFAMCHA070201155152155201000009MD Bumper $$$ - Race Cars (:08-:10) APR06 **DNU                                                                             150                                
PRCFAMCHA070201155201155210000009CC Disclaimer - FAST - Family.ca (:08-:10) $$$                                                                              150                                
PGRFAMCHA070201155210161448002238Disney's Dave the Barbarian                       EPS # 07                                                             6068607ECC                              
PRCFAMCHA070201161448161500000012MD - 12 - PROUD/RECESS (APR06) (:11 - :13) $$$                                                                              150                                
PROFAMCHA070201161500161534000034Proud Family (JULY06) MOM YELLS (MD) -  Coming Up                                                                           150                                
PRCFAMCHA070201161534161610000036Famous Players Popcorn Parties REVISED (Nov06) 3/d                                                                          150                                
PROFAMCHA070201161610161655000045Recess - SNACKS FOR SNITCHES (MD) - (MAY06) - This                                                                          150                                
PRCFAMCHA070201161655161703000008MD Bumper - $$$ Ski Race (:07-:09) APR06                                                                                    150                                
PGRFAMCHA070201161703163937002234The Proud Family                                  EPS # 2-031                                                         A6068607E                                
PRCFAMCHA070201163937163942000005Astral ID (FEB05) $$$                                                                                                       150                                
PRCFAMCHA070201163942163954000012MD - 13 - RECESS/KIM (APR06) (:11 - :13) $$$                                                                                150                                
PROFAMCHA070201163954164018000024Recess - MONTAGE (MD) - JULY06 - Coming Up Next                                                                             150                                
PROFAMCHA070201164018164030000012xxFamily Bumpers - (Phase 3 Spring 05) - Bake (MD/                                                                          150                                
PROFAMCHA070201164030164100000030xxSuite Life of Z & C -MD Girlfriend 2 - This afte                                                                          150                                
PRCFAMCHA070201164100164136000036Famous Players Popcorn Parties REVISED (Nov06) 3/d                                                                          150                                
PROFAMCHA070201164136164206000030Lizzie McGuire - (Romeo) (APR06) (NSW/PM) - Weeken                                                                          150                                
PROFAMCHA070201164206164236000030Life is Ruff (AUG06) Sunday @ 12                                                                                            150                                
PROFAMCHA070201164236164243000007Chef Boyardee BB - MD $$$                                                                                             A     150                                
PRCFAMCHA070201164243164259000016MD Bumper - $$$ Shopping Race (:15-:17) APR06                                                                               150                                
PGRFAMCHA070201164259170547002248Disney's Recess                                   EP: 1-059                                                           A6068607E                                
PRCFAMCHA070201170547170600000013MD - 20 (PM-M-TH) - KIM/SUITE (JULY06) (:11-:13) $                                                                          150                                
PROFAMCHA070201170600170616000016xxKim Possible FINGER TAUNT (MD) (July 06) Coming                                                                           150                                
PROFAMCHA070201170616170650000034Open Season DVD Blast (Avail now) (Jan 30-Feb11) $                                                                          150                                
PROFAMCHA070201170650170718000028Lizzie McGuire - (Sick) (APR06) (NSW/AM) - Weekend                                                                          150                                
PROFAMCHA070201170718170748000030xxJump In - Prem Feb 16 @ 7:30 (Jan 16-Feb8) every                                                                          150                                
PROFAMCHA070201170748170755000007Chef Boyardee BB - MD $$$                                                                                             A     150                                
PRCFAMCHA070201170755170804000009MD Bumper $$$ - Race Cars (:08-:10) APR06 **DNU                                                                             150                                
PRCFAMCHA070201170804170813000009CC Disclaimer - FAST - Family.ca (:08-:10) $$$                                                                              150                                
PGRFAMCHA070201170813173107002254Disney's Kim Possible                             EPS # 1-040                                                         A6068607ECC                              
PRCFAMCHA070201173107173112000005Astral ID (FEB05) $$$                                                                                                       150                                
PRCFAMCHA070201173112173124000012MD - 21 (PM-M-TH) - SUITE/LITTLE (JULY06) (:11-:13                                                                          150                                
PROFAMCHA070201173124173203000039Suite Life of Z & C -MD Girlfriend - Coming Up Nex                                                                          150                                
PROFAMCHA070201173203173238000035xxCinderella III DVD (Avail Feb 6) (Jan 25-Feb5) $                                                                          150                                
PROFAMCHA070201173238173323000045Recess - SNACKS FOR SNITCHES (MMM) - (MAY06) - Tom                                                                          150                                
PROFAMCHA070201173323173353000030Life is Ruff (AUG06) Sunday @ 12                                                                                            150                                
PRCFAMCHA070201173353173401000008MD Bumper - $$$ Ski Race (:07-:09) APR06                                                                                    150                                
PGRFAMCHA070201173401175641002240Suite Life of Zack & Cody, The                    EP: 18                                                               6068607B                                
PRCFAMCHA070201175641175653000012NS - 01 - TIME/DARCY (APR06) (:11 - :13) $$$                                                                                150                                
PROFAMCHA070201175653175721000028So Little Time (NS Flat Tire) (APR06) - Coming Up                                                                           150                                
PROFAMCHA070201175721175751000030Jump In Soundtrack (Avail Now) (Jan 30-Apr22) $$$                                                                           150                                
PRCFAMCHA070201175751175821000030Darcy's Wild Life (NEWS) NS (APR06) - Tonight @ 6:                                                                          150                                
PROFAMCHA070201175821175913000052That's So Raven (JUNE06) SHOW ME (NS) - Tonight @                                                                           150                                
PROFAMCHA070201175913175943000030xxSmart Guy MOE MUSIC (JUNE06) NS Tonight @ 7:30                                                                            150                                
PROFAMCHA070201175943180000000017Nonstop Block Open (:16-:18) APR06 $$$                                                                                      150                                
PGRFAMCHA070201180000182134002134So Little Time                                    EP: 26                                                              A2068607B                                
PRCFAMCHA070201182134182139000005Astral ID (FEB05) $$$                                                                                                       150                                
PRCFAMCHA070201182139182151000012NS - 02 - DARCY/RAVEN (APR06) (:11 - :13) $$$                                                                               150                                
PROFAMCHA070201182151182221000030Life is Ruff (AUG06) Sunday @ 12                                                                                            150                                
PRCFAMCHA070201182221182251000030Darcy's Wild Life (NEWS) NS (APR06) - Coming Up Ne                                                                          150                                
PROFAMCHA070201182251182326000035xxAshley Tisdale CD Blast (Avail Feb 6) (Jan29-Feb                                                                          150                                
PROFAMCHA070201182326182355000029xxThat's So Raven (APR06) HELLO LADIES (NS) - Toni                                                                          150                                
PRCFAMCHA070201182355182431000036Famous Players Popcorn Parties REVISED (Nov06) 3/d                                                                          150                                
PRCFAMCHA070201182431182449000018Life with Derek NS OJ (SEPT06) Tonight at 8:30pm                                                                            150                                
PROFAMCHA070201182449182459000010FAMJAM - Open/Close                                                                                                         150                                
PROFAMCHA070201182804182818000014xxFAMJAM - Close (FAMILY) xxDNUxx                                                                                           150                                
PROFAMCHA070201182818182855000037xxHannah Montana - NS - Achy Breaky (Oct06) Tomorr                                                                          150                                
PROFAMCHA070201182855182916000021xxNeds DSSG - Rock Idol NS (MAY06) Tomorrow night                                                                           150                                
PROFAMCHA070201182916182946000030xxJump In - Prem Feb 16 @ 7:30 (Jan 16-Feb8) every                                                                          150                                
PRCFAMCHA070201182946183000000014NS Bumper $$$ - Fashion (:12-:14) APR06 **DNU                                                                               150                                
PRCFAMCHA070201183000183009000009CC Disclaimer - FAST - Generic (:08-:10) $$$                                                                                150                                
PGRFAMCHA070201183009185139002130Darcy's Wild Life                                 EP: 33                                                        A23422A1065607BCC                              
PRCFAMCHA070201185139185151000012NS - 03 - RAVEN/SMART (APR06) (:11 - :13) $$$                                                                               150                                
PROFAMCHA070201185151185243000052That's So Raven (JUNE06) SHOW ME (NS) - Coming Up                                                                           150                                
PROFAMCHA070201185243185313000030Jump In Soundtrack (Avail Now) (Jan 30-Apr22) $$$                                                                           150                                
PROFAMCHA070201185313185344000031xxSmart Guy FIGHT (JUNE06) NS - Tonight @ 7:30                                                                              150                                
PROFAMCHA070201185344185354000010FAMJAM - Open/Close                                                                                                         150                                
PGRFAMCHA070201185354185527000133MV Disney - Superstition (Raven)                                                                                       60688120                                
PROFAMCHA070201185527185541000014xxFAMJAM - Close (FAMILY) xxDNUxx                                                                                           150                                
PRCFAMCHA070201185541185611000030Life with Derek (NS) MORE FUN (OCT06)  Tonight @ 8                                                                          150                                
PGRFAMCHA070201185611185651000040Planet Rock Profiles - Nelly Furtado (Stevie WondeEP: 46                                                              A70687120                                
PROFAMCHA070201185651185711000020Popular (JULY06) (ALI MCB) - Tonight  @ 10pm                                                                                150                                
PGRFAMCHA070201185711185841000130xxMovie Surfers - Bridge to Terabithia - Coming So                                                                    A60688120                                
PROFAMCHA070201185841185925000044Zoey 101 - PHONE DIARY (NS) (JUNE06) - Tomorrow ni                                                                          150                                
PROFAMCHA070201185925185955000030Double Teamed (SEPT12) - Next Friday @ 7:30pm                                                                               150                                
PRCFAMCHA070201185955190003000008NS Bumper $$$ - Dodgeball (:07-:09) APR06                                                                                   150                                
PRCFAMCHA070201190003190012000009CC Disclaimer - FAST - Family.ca (:08-:10) $$$                                                                              150                                
PGRFAMCHA070201190012192251002239That's So Raven                                   EP: 82                                                               6068607BCC                              
PRCFAMCHA070201192251192256000005Astral ID (FEB05) $$$                                                                                                       150                                
PRCFAMCHA070201192256192308000012NS - 04 - SMART/SUITE (FEB07) (:11 - :13) $$$                                                                               150                                
PROFAMCHA070201192308192338000030xxSmart Guy MOE MUSIC (JUNE06) NS Coming Up Next                                                                            150                                
PROFAMCHA070201192338192412000034Open Season DVD Blast (Avail now) (Jan 30-Feb11) $                                                                          150                                
PROFAMCHA0702011924121924390000278 Simple Rules (APR06) (NS) - DAD JUMPS GUN - Toni                                                                          150                                
PROFAMCHA070201192439192449000010FAMJAM - Open/Close                                                                                                         150                                
PGRFAMCHA070201192449192755000306MV Disney - Superstition (Raven)                                                                                       60688120                                
PROFAMCHA070201192755192809000014xxFAMJAM - Close (FAMILY) xxDNUxx                                                                                           150                                
PROFAMCHA070201192809192827000018xxHannah Montana - NS - CROSSDRESSER (Oct06) Tomor                                                                          150                                
PROFAMCHA070201192827192902000035xxCinderella III DVD (Avail Feb 6) (Jan 25-Feb5) $                                                                          150                                
PROFAMCHA070201192902192932000030Life is Ruff (AUG06) Sunday @ 12                                                                                            150                                
PRCFAMCHA070201192932192941000009xxJump In ID - Corbin Bleu (FEB07) - Premiering Fe                                                                          150                                
PRCFAMCHA070201192941192957000016NS Bumper $$$- Tennis (:15-:17) APR06                                                                                       150                                
PRCFAMCHA070201192957193006000009CC Disclaimer - FAST - Generic (:08-:10) $$$                                                                                150                                
PGRFAMCHA070201193006195237002231Smart Guy                                         EP: 1-018                                                           A6068807BCC                              
PRCFAMCHA070201195237195249000012NS - 05 -SUITE/DEREK (FEB07) (:11 - :13) $$$                                                                                150                                
PRCFAMCHA070201195249195307000018Life with Derek NS OJ (SEPT06) Tonight at 8:30pm                                                                            150                                
PROFAMCHA070201195307195342000035xxAshley Tisdale CD Blast (Avail Feb 6) (Jan29-Feb                                                                          150                                
PROFAMCHA070201195342195402000020Popular (JULY06) (ALI MCB) - Tonight  @ 10pm                                                                                150                                
PROFAMCHA070201195402195412000010FAMJAM - Open/Close                                                                                                         150                                
PGRFAMCHA070201195412195658000246MV Disney - Superstition (Raven)                                                                                       60688120                                
PROFAMCHA070201195658195712000014xxFAMJAM - Close (FAMILY) xxDNUxx                                                                                           150                                
PROFAMCHA0702011957121957340000228 Simple Rules (APR06) (NS) - BRIDGET DRUMS - Toni                                                                          150                                
PRCFAMCHA070201195734195751000017Web Games Promo - 3x daily MD/MMM/NS/NSW                                                                                    150                                
PROFAMCHA070201195751195826000035xxNeds DSSG - Superheroes - NS (JULY 06) Tomorrow                                                                           150                                
PRCFAMCHA070201195826195926000100Family Lab- Duplicator (DEC06) use as filler (min                                                                           150                                
PROFAMCHA070201195926195956000030xxJump In - Prem Feb 16 @ 7:30 (Jan 16-Feb8) every                                                                          150                                
PRCFAMCHA070201195956200009000013NS Bumper $$$ - Fashion (:12-:14) APR06 **DNU                                                                               150                                
PGRFAMCHA070201200009202248002239The Suite Life of Zack & Cody                     EP: 01                                                               6068607B                                
PRCFAMCHA070201202248202253000005Astral ID (FEB05) $$$                                                                                                       150                                
PRCFAMCHA070201202253202305000012NS - 06 - DEREK/8 SIMPLE RULES (FEB07) (:11-:13) $                                                                          150                                
PRCFAMCHA070201202305202330000025Life WD Generic ID #1- Casey Coming Up Next                                                                                 150                                
PROFAMCHA070201202330202453000123xxDisneyworld Winner - Spot 2 (Jan19-Feb2) 3xday P                                                                    A     150                                
PROFAMCHA070201202453202537000044Zoey 101 - PHONE DIARY (NS) (JUNE06) - Tomorrow ni                                                                          150                                
PROFAMCHA070201202537202547000010FAMJAM - Open/Close                                                                                                         150                                
PGRFAMCHA070201202547202857000310MV Disney - Superstition (Raven)                                                                                       60688120                                
PROFAMCHA070201202857202911000014xxFAMJAM - Close (FAMILY) xxDNUxx                                                                                           150                                
PRCFAMCHA070201202911202951000040Naturally Sadie (APR06) - Weekends @ 6:05pm                                                                                 150                                
PRCFAMCHA070201202951202959000008NS Bumper $$$ - Dodgeball (:07-:09) APR06                                                                                   150                                
PRCFAMCHA070201202959203008000009CC Disclaimer - FAST - Generic (:08-:10) $$$                                                                                150                                
PGRFAMCHA070201203008205238002230Life with Derek Season 2                          EP: 21                                                        C26679A1055607BCC3                             
PRCFAMCHA070201205238205250000012NS - 07 -8 SIMPLE RULES/SINBAD (FEB07) (:11-:13) $                                                                          150                                
PRCFAMCHA070201205250205259000009xxJump In ID - Corbin Bleu (FEB07) - Premiering Fe                                                                          150                                
PROFAMCHA0702012052592053260000278 Simple Rules (APR06) (NS) - DAD JUMPS GUN - Comi                                                                          150                                
PRCFAMCHA070201205326205333000007xxFamily Bumpers - (Phase 2 F/W 04) - Hockey (MD-L                                                                          150                                
PROFAMCHA070201205333205353000020Popular (JULY06) (ALI MCB) - Tonight  @ 10pm                                                                                150                                
PROFAMCHA070201205353205423000030Life is Ruff (AUG06) Sunday @ 12                                                                                            150                                
PROFAMCHA070201205423205923000500xxMovie Surfers - 2007 Sneak Peak (with Pirates) (                                                                    A     150                                
PRCFAMCHA070201205923205942000019Life WD - Grow Up - Casey and Derek - Keep Watchin                                                                          150                                
PRCFAMCHA070201205942205959000017NS Bumper $$$- Tennis (:15-:17) APR06                                                                                       150                                
PRCFAMCHA070201205959210008000009CC Disclaimer - SLOW - Family.ca (:08-:10) $$$                                                                              150                                
PGRFAMCHA0702012100082121420021348 Simple Rules                                    EP: 20                                                              B2068807BCC                              
PRCFAMCHA070201212142212147000005Astral ID (FEB05) $$$                                                                                                       150                                
PRCFAMCHA070201212147212159000012NS - 08 -SINBAD/POPULAR (FEB07) (:11-:13) $$$                                                                               150                                
PROFAMCHA070201212159212229000030Life is Ruff (AUG06) Sunday @ 12                                                                                            150                                
PROFAMCHA070201212229212259000030Sinbad Show NS Responsible (SEPT06) Coming Up Next                                                                          150                                
PROFAMCHA070201212259212309000010FAMJAM - Open/Close                                                                                                         150                                
PROFAMCHA070201212734212748000014xxFAMJAM - Close (FAMILY) xxDNUxx                                                                                           150                                
PROFAMCHA070201212748212808000020Popular (JULY06) (ALI MCB) - Tonight  @ 10pm                                                                                150                                
PRCFAMCHA070201212808212826000018Life with Derek NS OJ (SEPT06) Tonight at 11:30pm                                                                           150                                
PRCFAMCHA070201212826212843000017Web Games Promo - 3x daily MD/MMM/NS/NSW                                                                                    150                                
PROFAMCHA070201212843212901000018xxHannah Montana - NS - CROSSDRESSER (Oct06) Tomor                                                                          150                                
PROFAMCHA070201212901212945000044Zoey 101 - PHONE DIARY (NS) (JUNE06) - Tomorrow ni                                                                          150                                
PRCFAMCHA070201212945212958000013NS Bumper $$$ - Fashion (:12-:14) APR06 **DNU                                                                               150                                
PGRFAMCHA070201212958215219002221The Sinbad Show                                   EP: 14                                                               2068507B                                
PRCFAMCHA070201215219215231000012NS - 09 - POPULAR/8 SIMPLE (APR06) (:11 - :13) $$$                                                                          150                                
PROFAMCHA070201215231215251000020Popular (JULY06) (ALI MCB) - Coming Up Next                                                                                 150                                
PROFAMCHA070201215251215414000123xxDisneyworld Winner - Spot 2 (Jan19-Feb2) 3xday P                                                                    A     150                                
PROFAMCHA0702012154142154360000228 Simple Rules (APR06) (NS) - BRIDGET DRUMS - Toni                                                                          150                                
PROFAMCHA070201215436215446000010FAMJAM - Open/Close                                                                                                         150                                
PGRFAMCHA070201215446215616000130MV Disney - (MD/NS/NSW) - HSM - Karaoke Song (Marc                                                                     60688120                                
PROFAMCHA070201215616215630000014xxFAMJAM - Close (FAMILY) xxDNUxx                                                                                           150                                
PROFAMCHA070201215630215705000035xxNeds DSSG - Superheroes - NS (JULY 06) Tomorrow                                                                           150                                
PGRFAMCHA070201215705215905000200xxMovie Surfers - Bridge to Terabithia - Coming So                                                                    A60688120                                
PROFAMCHA070201215905215935000030xxJump In - Prem Feb 16 @ 7:30 (Jan 16-Feb8) every                                                                          150                                
PRCFAMCHA070201215935215954000019Naturally Sadie ID's (NOV06) - Ben - Podcast versi                                                                          150                                
PRCFAMCHA070201215954220002000008NS Bumper $$$ - Dodgeball (:07-:09) APR06                                                                                   150                                
PGRFAMCHA070201220002224416004414Popular                                           EP: 29                                                              B2068807B                                
PRCFAMCHA070201224416224421000005Astral ID (FEB05) $$$                                                                                                       150                                
PRCFAMCHA070201224421224434000013NS - 10 - 8 SIMPLE/DEREK (SEPT06) (:11 - :13) $$$                                                                           150                                
PROFAMCHA070201224434224504000030Life is Ruff (AUG06) Sunday @ 12                                                                                            150                                
PROFAMCHA0702012245042245310000278 Simple Rules (APR06) (NS) - DAD JUMPS GUN - Comi                                                                          150                                
PRCFAMCHA070201224531224601000030Life with Derek (NS) MORE FUN (OCT06)  Tonight @ 1                                                                          150                                
PROFAMCHA070201224601224611000010FAMJAM - Open/Close                                                                                                         150                                
PGRFAMCHA070201224611225003000352MV Disney - Superstition (Raven)                                                                                       60688120                                
PROFAMCHA070201225003225017000014xxFAMJAM - Close (FAMILY) xxDNUxx                                                                                           150                                
PROFAMCHA070201225017225054000037xxHannah Montana - NS - Achy Breaky (Oct06) Tomorr                                                                          150                                
PGRFAMCHA070201225054225149000055Planet Rock Profiles - Green Day (Burgers) xxDNUxxEP: 46                                                              A70687120                                
PROFAMCHA070201225149225233000044Zoey 101 - PHONE DIARY (NS) (JUNE06) - Tomorrow ni                                                                          150                                
PROFAMCHA070201225233225241000008xxFamily Bumpers - (Phase 2 F/W 04) - Snow Ball (M                                                                          150                                
PGRFAMCHA070201225241225322000041Planet Rock Profiles - Ashanti (JLo)              EP: 46                                                              A70687120                                
PROFAMCHA070201225322225414000052That's So Raven (JUNE06) SHOW ME (NSW) - Weekend m                                                                          150                                
PROFAMCHA070201225414225424000010FAMJAM - Open/Close                                                                                                         150                                
PGRFAMCHA070201225424225749000325MV Disney - Superstition (Raven)                                                                                       60688120                                
PROFAMCHA070201225749225803000014xxFAMJAM - Close (FAMILY) xxDNUxx                                                                                           150                                
PROFAMCHA070201225803225834000031xxSmart Guy FIGHT (JUNE06) NSW - Weekend afternoon                                                                          150                                
PRCFAMCHA070201225834225918000044Family Lab- EZ Traveller (Nov06) use as filler (mi                                                                          150                                
PROFAMCHA070201225918225948000030xxJump In - Prem Feb 16 @ 7:30 (Jan 16-Feb8) every                                                                          150                                
PRCFAMCHA070201225948230005000017NS Bumper $$$- Tennis (:15-:17) APR06                                                                                       150                                
PRCFAMCHA070201230005230015000010CC Disclaimer - SLOW - Generic (:08-:10) $$$                                                                                150                                
PGRFAMCHA0702012300152321500021358 Simple Rules                                    EP: 29                                                              B2068807BCC                              
PRCFAMCHA070201232150232203000013NS - 11 - DEREK/RADIO (SEPT06) (:11 - :13) $$$                                                                              150                                
PRCFAMCHA070201232203232221000018Life with Derek NS OJ (SEPT06) Coming Up Next                                                                               150                                
PRCFAMCHA070201232221232302000041Family Lab- Hair Growth Cream (Nov06) 3/day in MMM                                                                          150                                
PROFAMCHA070201232302232333000031xxNed's DSSG - Cookie Clip (APR06)(NSW) Weekend Mo                                                                          150                                
PROFAMCHA070201232333232403000030Phil of the Future THINGS TO COME (NSW) (APR06) -                                                                           150                                
PROFAMCHA070201232403232413000010FAMJAM - Open/Close                                                                                                         150                                
PGRFAMCHA070201232413232910000457MV Disney - (FAMILY HITS) That's So Raven Theme So                                                                     60688120                                
PROFAMCHA070201232910232924000014xxFAMJAM - Close (FAMILY) xxDNUxx                                                                                           150                                
PROFAMCHA0702012329242329510000278 Simple Rules (APR06) (NSW) - DAD JUMPS GUN - Wee                                                                          150                                
PRCFAMCHA070201232951233005000014NS Bumper $$$ - Fashion (:12-:14) APR06 **DNU                                                                               150                                
PRCFAMCHA070201233005233014000009CC Disclaimer - SLOW - Family.ca (:08-:10) $$$                                                                              150                                
PGRFAMCHA070201233014235244002230Life with Derek Season 2                          EP: 24                                                        C26679A1065607BCC                              
PRCFAMCHA070201235244235249000005Astral ID (FEB05) $$$                                                                                                       150                                
PRCFAMCHA070201235249235301000012NS - 12 - RADIO/SPIDER (SEPT06) (:11 - :13) $$$                                                                             150                                
PRCFAMCHA070201235301235331000030Radio Free Roscoe - (NS/M-Th) (JUNE06) Coming up                                                                            150                                
PRCFAMCHA070201235331235415000044Family Lab - Pet Talker (Nov06) use as filler (min                                                                          150                                
PROFAMCHA070201235415235433000018xxHannah Montana - NS - CROSSDRESSER (Oct06) Tomor                                                                          150                                
PROFAMCHA070201235433235443000010FAMJAM - Open/Close                                                                                                         150                                
PGRFAMCHA070201235443235727000244MV Disney - Superstition (Raven)                                                                                       60688120                                
PROFAMCHA070201235727235741000014xxFAMJAM - Close (FAMILY) xxDNUxx                                                                                           150                                
PRCFAMCHA070201235741235816000035xxLife WD - TV Remote - Tomorrow Night @ 6:30pm NS                                                                          150                                
PROFAMCHA070201235816235823000007xxFamily Bumpers - (Phase 2 F/W 04) - Snow Twirl (                                                                          150                                
PROFAMCHA070201235823235853000030Double Teamed (SEPT12) - Next Friday @ 7:30pm                                                                               150                                
PRCFAMCHA070201235853235933000040Naturally Sadie (APR06) - Weekends @ 6:05pm                                                                                 150                                
PRCFAMCHA070201235933000003000030Darcy's Wild Life (NEWS) NSW (APR06) - Weekend @ 6                                                                          150                                
PRCFAMCHA070201000003000012000009NS Bumper $$$ - Dodgeball (:07-:09) APR06                                                                                   150                                
PRCFAMCHA070201000012000021000009CC Disclaimer - SLOW - Generic (:08-:10) $$$                                                                                150                                
PGRFAMCHA070201000021002251002230Radio Free Roscoe                                 EPS # 43                                                      A05976A1065607ACC                              
PRCFAMCHA070201002251002302000011NS - 13 - SPIDER (APR06) (:11 - :13) $$$                                                                                    150                                
PROFAMCHA070201002302002332000030Life is Ruff (AUG06) Sunday @ 12                                                                                            150                                
PROFAMCHA070201002332002409000037xxHannah Montana - NS - Achy Breaky (Oct06) Tomorr                                                                          150                                
PROFAMCHA070201002409002453000044Zoey 101 - PHONE DIARY (NS) (JUNE06) - Tomorrow ni                                                                          150                                
PROFAMCHA070201002453002503000010FAMJAM - Open/Close                                                                                                         150                                
PGRFAMCHA070201002503002801000258MV Disney - Superstition (Raven)                                                                                       60688120                                
PROFAMCHA070201002801002815000014xxFAMJAM - Close (FAMILY) xxDNUxx                                                                                           150                                
PRCFAMCHA070201002815002833000018Life with Derek NS OJ Tomorrow @ 6:30 (DEC06)                                                                               150                                
PROFAMCHA070201002833002911000038xxNeds DSSG - Survivor NS (DEC06) Tomorrow nights                                                                           150                                
PRCFAMCHA070201002911002951000040Naturally Sadie (APR06) - Weekends @ 6:05pm                                                                                 150                                
PRCFAMCHA070201002951003008000017NS Bumper $$$- Tennis (:15-:17) APR06                                                                                       150                                
PGRFAMCHA070201003008005151002143Spiderman                                         EP: 02                                                        C02618 1065607E                                
PRCFAMCHA070201005151005156000005Astral ID (FEB05) $$$                                                                                                       150                                
PROFAMCHA070201005156005226000030xxJump In - Prem Feb 16 @ 7:30 (Jan 16-Feb8) every                                                                          150                                
PROFAMCHA070201005226005250000024Get Ed (JETIX) - Weekends @ 6am (Sept06)                                                                                    150                                
PROFAMCHA070201005250005300000010FAMJAM - Open/Close                                                                                                         150                                
PGRFAMCHA070201005300005529000229MV Disney - (MD/NS/NSW) - Jonas Brothers - Poor Un                                                                     60688120                                
PROFAMCHA070201005529005543000014xxFAMJAM - Close (FAMILY) xxDNUxx                                                                                           150                                
PROFAMCHA070201005543005605000022Power Rangers: Mystic Force (JETIX) - Weekend morn                                                                          150                                
PROFAMCHA070201005605005625000020Oban Star Racers (JETIX) - Weekends mornings @ 6:5                                                                          150                                
PROFAMCHA070201005625005648000023WITCH (JETIX) - Weekend mornings @ 7:20 (Sept06)                                                                            150                                
PROFAMCHA070201005648005658000010FAMJAM - Open/Close                                                                                                         150                                
PGRFAMCHA070201005658005954000256MV Disney - (MD/NS/NSW) - Aly & A.J. - No One (Jul                                                                     60688120                                
PROFAMCHA070201005954010008000014xxFAMJAM - Close (FAMILY) xxDNUxx                                                                                           150                                
PROFAMCHA070201010008010047000039Suite Life of Z & C - NSW - GIRLFRIEND 1 - Weekend                                                                          150                                
PROFAMCHA070201010047010114000027Zoey 101 - LOGAN - NSW (MAY06) (may13-aug30) Weeke                                                                          150                                
PROFAMCHA070201010114010144000030Phil of the Future THINGS TO COME (NSW) (APR06) -                                                                           150                                
PRCFAMCHA070201010144010157000013Naturally Sadie ID's (NOV06) - Ben - Podcast versi                                                                          150                                
PRCFAMCHA070201010157010211000014NS Bumper $$$ - Fashion (:12-:14) APR06 **DNU                                                                               150                                
SO FAMCHA070201010211010223000012Sign Off                                                                                                                                                       
OFFFAMCHA070201010223043000032737OFF AIR                                                                                                                                                        
SO FAMCHA070202043000043011000011Sign On (oct 1)                                                                                                                                                
PRCFAMCHA070202043011043020000009CC Disclaimer - FAST - Family.ca (:08-:10) $$$                                                                              150                                
PGRFAMCHA070202043020045658002638Katie And Orbie                                   EP: 4-046                                                     C19664A1065607ECC                              
PRCFAMCHA070202045658045713000015PH - 04 - FRANNY/SOMETHING/HOZE  (:14 - :16) (APR0                                                                          150                                
ID FAMCHA070202045713045726000013PS Playhouse AM Block Open (:10-:15) $$$                                                                                    150                                
PRCFAMCHA070202045726045735000009CC Disclaimer - FAST - Generic (:08-:10) $$$                                                                                150                                
PGRFAMCHA070202045735052005002230Franny's Feet                                     EPS # 1-005                                                   C23970A1065607ECC                              
PRCFAMCHA070202052005052010000005Astral ID (FEB05) $$$                                                                                                       150                                
PRCFAMCHA070202052010052025000015PH - 05 - SOMETHING/HOZE/KING (:14 - :16) (APR06)                                                                           150                                
ID FAMCHA070202052025052038000013PS Playhouse AM Block Open (:10-:15) $$$                                                                                    150                                
PRCFAMCHA070202052038052047000009CC Disclaimer - FAST - Family.ca (:08-:10) $$$                                                                              150                                
PGRFAMCHA070202052047054318002231Something Else                                    EP: 1-013                                                     B69267A1065607ECC                              
PRCFAMCHA070202054318054333000015PH - 06 - HOZE/KING/SPIDERMAN (:14 - :16) (APR06)                                                                           150                                
ID FAMCHA070202054333054346000013PS Playhouse AM Block Open (:10-:15) $$$                                                                                    150                                
PRCFAMCHA070202054346054355000009CC Disclaimer - FAST - Generic (:08-:10) $$$                                                                                150                                
PGRFAMCHA070202054355060633002238Hoze Houndz                                       EP: 4-043                                                     B63379A1065607ECC                              
PRCFAMCHA070202060633060638000005Astral ID (FEB05) $$$                                                                                                       150                                
PRCFAMCHA070202060638060653000015PH - 07 - KING/SPIDERMAN/KIM  (:14 - :16) (APR06)                                                                           150                                
ID FAMCHA070202060653060706000013PS Playhouse AM Block Open (:10-:15) $$$                                                                                    150                                
PRCFAMCHA070202060706060715000009CC Disclaimer - FAST - Family.ca (:08-:10) $$$                                                                              150                                
PGRFAMCHA070202060715062945002230King                                              EPS # 2-021                                                   B75776A1065607ECC                              
PRCFAMCHA070202062945063000000015PH - 08- SPIDERMAN/KIM ( (:14 - :16) (APR06) $$$                                                                            150                                
PROFAMCHA070202063000063019000019MadMadMornings Block Open $$$                                                                                               150                                
PGRFAMCHA070202063019065201002142Spiderman                                         EP: 08                                                        C02618 1065607E                                
PRCFAMCHA070202065201065206000005Astral ID (FEB05) $$$                                                                                                       150                                
PRCFAMCHA070202065206065222000016MMM - 01 (AM) - KIM/RECESS/WEEKENDERS (OCT05) (:14                                                                          150                                
PROFAMCHA070202065222065252000030xxJump In - Prem Feb 16 @ 7:30 (Jan 16-Feb8) every                                                                          150                                
PROFAMCHA070202065252065308000016xxKim Possible FINGER TAUNT (MMM) (July 06) Coming                                                                          150                                
PROFAMCHA070202065308065431000123xxDisneyworld Winner - Spot 2 (Jan19-Feb2) 3xday P                                                                    A     150                                
PROFAMCHA070202065431065455000024Recess - MONTAGE (MMM) - (JULY06) - This morning @                                                                          150                                
PROFAMCHA070202065455065531000036Weekenders - PIZZA (MMM) - (APR06) - This Morning                                                                           150                                
PROFAMCHA070202065531065538000007Chef Boyardee BB - MMM $$$                                                                                            A     150                                
PROFAMCHA070202065538065557000019MadMadMornings Block Open $$$                                                                                               150                                
PRCFAMCHA070202065557065606000009CC Disclaimer - FAST - Family.ca (:08-:10) $$$                                                                              150                                
PGRFAMCHA070202065606071859002253Disney's Kim Possible                             EPS # 1-030                                                         A6068607ECC                              
PRCFAMCHA070202071859071914000015MMM - 02 (AM) - RECESS/WEEKENDERS/LILO (OCT05) (:1                                                                          150                                
PROFAMCHA070202071914071938000024Recess - MONTAGE (MMM) - (JULY06) - Coming Up Next                                                                          150                                
PROFAMCHA070202071938072008000030Jump In Soundtrack (Avail Now) (Jan 30-Apr22) $$$                                                                           150                                
PROFAMCHA070202072008072044000036Weekenders - PIZZA (MMM) - (APR06) - This Morning                                                                           150                                
PGRFAMCHA070202072044072244000200xxMovie Surfers - Bridge to Terabithia - Coming So                                                                    A60688120                                
PROFAMCHA070202072244072309000025xxLilo & Stitch (MMM) (APR06) CRAM - This Morning                                                                           150                                
PRCFAMCHA070202072309072326000017Web Games Promo - 3x daily MD/MMM/NS/NSW                                                                                    150                                
PROFAMCHA070202072326072342000016xxKim Possible FINGER TAUNT (MD) (July 06) This af                                                                          150                                
PROFAMCHA070202072342072401000019MadMadMornings Block Open $$$                                                                                               150                                
PGRFAMCHA070202072401074636002235Disney's Recess                                   EP: 1-065                                                           A6068607E                                
PRCFAMCHA070202074636074641000005Astral ID (FEB05) $$$                                                                                                       150                                
PRCFAMCHA070202074641074657000016PH - 09 - WEEKENDERS/LILO/EINSTEINS (:14 - :16) (A                                                                          150                                
PROFAMCHA070202074657074727000030xxJump In - Prem Feb 16 @ 7:30 (Jan 16-Feb8) every                                                                          150                                
PROFAMCHA070202074727074803000036Weekenders - PIZZA (MMM) - (APR06) - Coming Up Nex                                                                          150                                
PROFAMCHA070202074803074828000025xxLilo & Stitch (MMM) (APR06) CRAM - This Morning                                                                           150                                
PROFAMCHA070202074828074835000007MadMadMornings Bumper                                                                                                       150                                
PROFAMCHA070202074835074857000022Fillmore! - POLLY (MD) (APR06) - This Afternoon @                                                                           150                                
PROFAMCHA070202074857074931000034Proud Family (JULY06) MOM YELLS (MD) -  This After                                                                          150                                
PRCFAMCHA070202074931075007000036Famous Players Popcorn Parties REVISED (Nov06) 3/d                                                                          150                                
PROFAMCHA070202075007075032000025xxRecess Sketches OCT 06 - K SURPRISE - Soaps                                                                               150                                
PROFAMCHA070202075032075039000007Chef Boyardee BB - MMM $$$                                                                                            A     150                                
PROFAMCHA070202075039075058000019MadMadMornings Block Open $$$                                                                                               150                                
PRCFAMCHA070202075058075107000009CC Disclaimer - FAST - Generic (:08-:10) $$$                                                                                150                                
PGRFAMCHA070202075107081339002232Disney's The Weekenders                           EP: 1-021                                                           A6068607ECC                              
PRCFAMCHA070202081339081354000015PH - 10 - LILO/EINSTEINS/WINNIE (:14 - :16) (APR06                                                                          150                                
PROFAMCHA070202081354081424000030Life is Ruff (AUG06) Sunday @ 12                                                                                            150                                
PROFAMCHA070202081424081449000025xxLilo & Stitch (MMM) (APR06) CRAM- coming up Next                                                                          150                                
PROFAMCHA070202081449081524000035xxCinderella III DVD (Avail Feb 6) (Jan 25-Feb5) $                                                                          150                                
PROFAMCHA070202081524081548000024Recess - MONTAGE (MD) - JULY06 - This morn @ 11:50                                                                          150                                
PRCFAMCHA070202081548081648000100Family Lab- Duplicator (DEC06) use as filler (min                                                                           150                                
PROFAMCHA070202081648081712000024Lloyd In Space (DATE) (JUNE06) MD- This aftternoon                                                                          150                                
PRCFAMCHA070202081712081742000030MMM Weekdays @ 6:55 (APR06)                                                                                                 150                                
PROFAMCHA070202081742081801000019MadMadMornings Block Open $$$                                                                                               150                                
PGRFAMCHA070202081801084040002239Disney's Lilo & Stitch: The Series                EPS # 40                                                             6068607E                                
PRCFAMCHA070202084040084045000005Astral ID (FEB05) $$$                                                                                                       150                                
PRCFAMCHA070202084045084100000015PH - 11 -EINSTEINS/WINNIE/BEAR  (:14 - :16) (NOV06                                                                          150                                
PROFAMCHA070202084100084130000030Little Einstein (PH) (PRESCHOOL) - Coming Up Next                                                                           150                                
PRCFAMCHA070202084130084157000027Playhouse Web Promo - Family.ca                                                                                             150                                
PROFAMCHA070202084157084227000030Winnie the Pooh (PH/AM) (APR06) - This Morning @ 9                                                                          150                                
PGRFAMCHA070202084227084412000145They Might Be Giants (ABC's) - D and W                                                                                 60688120                                
PROFAMCHA070202084412084430000018xxJojo's Circus - HIP HOP - OCT 06 - This morn @ 1                                                                          150                                
PRCFAMCHA070202084430084449000019Playhouse - HOZE HOUNDZ - Code Blue                                                                                         150                                
ID FAMCHA070202084449084502000013PS Playhouse AM Block Open (:10-:15) $$$                                                                                    150                                
PGRFAMCHA070202084502090907002405Disney's Little Einsteins                         EP: 17                                                               6068607E                                
PRCFAMCHA070202090907090923000016PH - 12 -WINNIE/BEAR/JOJO  (:14 - :16) (NOV06) $$$                                                                          150                                
PROFAMCHA070202090923090953000030Winnie the Pooh (PH/AM) (APR06) - Coming Up Next                                                                            150                                
PRCFAMCHA070202090953091028000035Playhouse - KATIE & ORBIE - Did You Know?                                                                                   150                                
PROFAMCHA070202091028091044000016Jojo's Circus - MAGIC - OCT 06 - This morn @ 10:05                                                                          150                                
ID FAMCHA070202091044091059000015PS Playhouse AM Block Open (:10-:15) $$$                                                                                    150                                
