SO FAMCHA010601043000043011000011Sign On (oct 1)                                                                                                         02                                     
PROFAMCHA010601043011043019000008CC Is Brought To You By - Ian                                                                                           02  150                                
PGRFAMCHA010601043019045419002400Hello Mrs. Cherrywinkle                           Can't Stop Dancing                                            B18883A1025607ACC                              
PROFAMCHA010601045419045427000008CC Was Brought To You By - Ian                                                                                          02  150                                
ID FAMCHA010601045427045432000005Generic ID - Marbles                                                                                                    02  150                                
PRCFAMCHA010601045432045440000008Franklin Bumper - Slide - This Morning @ 7am                                                                           102  150                                
ID FAMCHA010601045440045500000020Morning block open play pen                                                                                             02  150                                
PROFAMCHA010601045500045508000008CC Is Brought To You By - Lark                                                                                          02  150                                
PGRFAMCHA010601045508051918002410Busy World Of Richard Scarry; The                 Mr. Raccoon's Different Day/Mario, The Venetian               P17880 1025607ECC                              
PROFAMCHA010601051918051926000008CC Was Brought To You By - Lark                                                                                         02  150                                
ID FAMCHA010601051926051931000005Generic ID - Bubbles                                                                                                    02  150                                
PROFAMCHA010601051931051940000009House of Mouse Bumpers - No TV - Tomorrow Afternoo                                                                      02  150                                
ID FAMCHA010601051940052000000020Morning block open play pen                                                                                             06  150                                
PROFAMCHA010601052000052008000008CC Is Brought To You By - Ian                                                                                           06  150                                
PGRFAMCHA010601052008054331002323Billy The Cat                                     The Pigeon That Fell To The Earth                             B27659A1025607ECC                              
PROFAMCHA010601054331054339000008CC Was Brought To You By - Ian                                                                                          06  150                                
ID FAMCHA010601054339054354000015Generic ID - confetti                                                                                                   02  150                                
PRCFAMCHA010601054354054430000036Goof Troop (MARCH2001) - Weekends @ 4pm                                                                                 02  150                                
PRCFAMCHA010601054430054440000010Morning Block menu background (flex time)                                                                               02  150                                
ID FAMCHA010601054440054500000020Morning block open play pen                                                                                             06  150                                
PROFAMCHA010601054500054508000008CC Is Brought To You By - Lark                                                                                          06  150                                
PGRFAMCHA010601054508061128002620Little Lulu Show; The                             Friends & Enemies/The Beauty Contest/Rich Little P            P22335A1025607ECC                              
PROFAMCHA010601061128061136000008CC Was Brought To You By - Lark                                                                                         06  150                                
ID FAMCHA010601061136061141000005Generic ID - Couch 2                                                                                                    02  150                                
PROFAMCHA010601061141061149000008CC Is Brought To You By - Ian                                                                                           06  150                                
PGRFAMCHA010601061149063549002400Big Garage; The                                   The Mix-Up                                                    P21454 1025607ECC                              
PROFAMCHA010601063549063557000008CC Was Brought To You By - Ian                                                                                          06  150                                
ID FAMCHA010601063557063602000005Generic ID - Couch 1                                                                                                    02  150                                
PGRFAMCHA010601063602070006002404Clarissa                                          A New Morn                                                           2028607B                                
ID FAMCHA010601070006070011000005Generic ID - Couch 2                                                                                                    06  150                                
PROFAMCHA010601070011070019000008CC Is Brought To You By - Lark                                                                                          06  150                                
PGRFAMCHA010601070019072312002253Franklin                                          Franklin's Canoe Trip/Interview                                     A1025607ECC                              
PROFAMCHA010601072312072320000008CC Was Brought To You By - Lark                                                                                         06  150                                
ID FAMCHA010601072320072330000010Generic ID - Family w/dog                                                                                               02  150                                
PROFAMCHA010601072330072428000058Enter Elmo's World Contest                                                                                             102  150                                
PROFAMCHA010601072428072458000030New Adventures of WTP (MARCH2001) - Coming Up                                                                           02  150                                
PRCFAMCHA010601072458072505000007Book of Pooh Bumper - Gang - This Morning                                                                              102  150                                
INTFAMCHA010601072505072929000424Art Attack - Bowler                                                                                                    60286120                                
PRCFAMCHA010601072929072940000011Elmo's World Bumper - Tricycle - This Morning                                                                          102  150                                
PRCFAMCHA010601072940072950000010Morning Block menu background (flex time)                                                                               06  150                                
ID FAMCHA010601072950073000000010Magic of Disney - V2(sky) - KID FEMALE                                                                                  02  150                                
PROFAMCHA010601073000073008000008CC Is Brought To You By - Ian                                                                                           06  150                                
PGRFAMCHA010601073008075245002237New Adventures of Winnie the Pooh; The            A Pooh Day Afternoon                                                 6028607ECC                              
PROFAMCHA010601075245075253000008CC Was Brought To You By - Ian                                                                                          06  150                                
ID FAMCHA010601075253075308000015Generic ID - confetti                                                                                                   06  150                                
PROFAMCHA010601075308075406000058Enter Elmo's World Contest                                                                                             106  150                                
PROFAMCHA010601075406075415000009PB&J Bumpers - Open - This Morning                                                                                      02  150                                
INTFAMCHA010601075415075914000459Art Attack - Bride & Groom                                                                                             60286120                                
PRCFAMCHA010601075914075950000036Goof Troop (MARCH2001) - Weekends @ 4pm                                                                                 06  150                                
PROFAMCHA010601075950080000000010Triple Line-up - 01 - ART/LULU/ELMO                                                                                     02  150                                
PGRFAMCHA010601080000082004002004Art Attack                                        1-053                                                                60286110                                
ID FAMCHA010601082004082014000010Generic ID - Hula Hoop                                                                                                  02  150                                
PROFAMCHA010601082014082112000058Enter Elmo's World Contest                                                                                             106  150                                
PROFAMCHA010601082112082150000038Dual Combo Promo - PB&J/ALADDIN (air ONLY before T                                                                      02  150                                
PROFAMCHA010601082150082200000010Triple Line-up - 02 - LULU/ELMO/PB&J                                                                                    02  150                                
PROFAMCHA010601082200082208000008CC Is Brought To You By - Lark                                                                                          06  150                                
PGRFAMCHA010601082208084559002351Little Lulu Show; The                             Hairy Day/Noses Off/Boy Cannon Ball                           B03813A1025607ECC                              
PROFAMCHA010601084559084607000008CC Was Brought To You By - Lark                                                                                         06  150                                
ID FAMCHA010601084607084612000005Generic ID - Marbles                                                                                                    06  150                                
PRCFAMCHA010601084612084623000011Elmo's World Bumper - Tricycle - Coming Up                                                                             102  150                                
PROFAMCHA010601084623084639000016ALF (Description) - Today @ 12pm                                                                                        02  150                                
PRCFAMCHA010601084639084714000035Little Lulu (MARCH2001) - Tomorrow @ 6:30pm                                                                            102  150                                
PROFAMCHA010601084714084750000036Dual Combo Promo - GOOF/ELMO (air ONLY before TLU)                                                                      02  150                                
PROFAMCHA010601084750084800000010Triple Line-up - 03 - ELMO/PB&J/POOH                                                                                    02  150                                
PGRFAMCHA010601084800090333001533Elmo's World                                      Bananas                                                             A2028607G                                
ID FAMCHA010601090333090343000010Generic ID - Pink inner tube                                                                                            02  150                                
PROFAMCHA010601090343090428000045PB&J Otter (MARCH2001) - Coming Up                                                                                     202  150                                
PRCFAMCHA010601090428090435000007Book of Pooh Bumper - Gang - This Morning                                                                              106  150                                
PRCFAMCHA010601090435090507000032Funshine 2001 - GENERIC TOUR SPOT #1                                                                                   102 5150                                
PRCFAMCHA010601090507090534000027Funshine 2001 - Spot #03 - MAY 28 TO JUNE 03                                                                           102 5150                                
INTFAMCHA010601090534090744000210Music Break - Sebastian's Party Gras: Iko Iko                                                                          60286120                                
PROFAMCHA010601090744090750000006Little Lulu Bumpers - Lulu - This Morning                                                                               02  150                                
PROFAMCHA010601090750090800000010Triple Line-up - 04 - PB&J/POOH/BUSY                                                                                    02  150                                
PROFAMCHA010601090800090808000008CC Is Brought To You By - Ian                                                                                           06  150                                
PGRFAMCHA010601090808093138002330PB&J Otter                                        Mayor Flick/Greatest Sleepover Ever                                 A6028607ECC                              
PROFAMCHA010601093138093146000008CC Was Brought To You By - Ian                                                                                          06  150                                
ID FAMCHA010601093146093156000010Generic ID - Ring around the rosie                                                                                      02  150                                
PRCFAMCHA010601093156093203000007Book of Pooh Bumper - Gang - Coming Up                                                                                 102  150                                
PRCFAMCHA010601093203093235000032Funshine 2001 - GENERIC TOUR SPOT #1                                                                                   106 5150                                
PRCFAMCHA010601093235093302000027Funshine 2001 - Spot #03 - MAY 28 TO JUNE 03                                                                           106 5150                                
PROFAMCHA010601093302093340000038Dual Combo Promo - PB&J/ALADDIN (air ONLY before T                                                                      06  150                                
PROFAMCHA010601093340093350000010Triple Line-up - 05 - POOH/BUSY/MADELINE                                                                                02  150                                
ID FAMCHA010601093350093400000010Magic of Disney - V2(sky) - KID MALE                                                                                    02  150                                
PGRFAMCHA010601093400095802002402Book Of Pooh; The                                 Night of the Brussels Sprout/I Could Have Laughed                    6028607G                                
ID FAMCHA010601095802095812000010Generic ID - soccer                                                                                                     02  150                                
PROFAMCHA010601095812095850000038Dual Combo Promo - PB&J/ALADDIN (air ONLY before T                                                                      06  150                                
PROFAMCHA010601095850095900000010Triple Line-up - 06 - BUSY/MADELINE/OOTB                                                                                02  150                                
PROFAMCHA010601095900095908000008CC Is Brought To You By - Lark                                                                                          06  150                                
PGRFAMCHA010601095908102320002412Busy World Of Richard Scarry; The                 The Best Mistake Ever/Sneef, The Best Detective               P17881 1025607ECC                              
PROFAMCHA010601102320102328000008CC Was Brought To You By - Lark                                                                                         06  150                                
ID FAMCHA010601102328102333000005Generic ID - soccer                                                                                                     02  150                                
PRCFAMCHA010601102333102341000008Franklin Bumper - Slide - Today                                                                                        102  150                                
PROFAMCHA010601102341102350000009House of Mouse Bumpers - No TV - Tomorrow Afternoo                                                                      06  150                                
PROFAMCHA010601102350102400000010Triple Line-up - 07 - MADELINE/OOTB/GOOF                                                                                02  150                                
PGRFAMCHA010601102400104635002235Madeline                                          Madeline and the Mean, Nasty, Horrible Hats                          6028607E                                
ID FAMCHA010601104635104642000007Generic ID - Whisper                                                                                                    02  150                                
PRCFAMCHA010601104642104718000036Goof Troop (MARCH2001) - Weekends @ 4pm                                                                                 06  150                                
PRCFAMCHA010601104718104726000008Franklin Bumper - Slide - Today                                                                                        106  150                                
PROFAMCHA010601104726104750000024ALF - Today @ Noon                                                                                                      02  150                                
PROFAMCHA010601104750104800000010Triple Line-up - 08 - OOTB/GOOF/ALADDIN                                                                                 02  150                                
PROFAMCHA010601104800104807000007CC Is Brought To You By - Ian                                                                                           06  150                                
PGRFAMCHA010601104807111012002205Out Of The Box                                    Feet First                                                           60286110CC                              
PROFAMCHA010601111012111019000007CC Was Brought To You By - Ian                                                                                          06  150                                
ID FAMCHA010601111019111029000010Generic ID - Bubbles                                                                                                    02  150                                
PRCFAMCHA010601111029111105000036Goof Troop (MARCH2001) - Coming Up                                                                                      02  150                                
PRCFAMCHA010601111105111116000011Elmo's World Bumper - Tricycle - This Afternoon                                                                        102  150                                
PRCFAMCHA010601111116111148000032Funshine 2001 - GENERIC TOUR SPOT #1                                                                                   106 5150                                
PRCFAMCHA010601111148111215000027Funshine 2001 - Spot #03 - MAY 28 TO JUNE 03                                                                           106 5150                                
PROFAMCHA010601111215111229000014ALF (Dreams) - Today @ 12pm                                                                                             02  150                                
PROFAMCHA010601111229111238000009PB&J Bumpers - Open - This Afternoon                                                                                    02  150                                
PROFAMCHA010601111238111248000010Triple Line-up - 09 - GOOF/ALADDIN/ALF                                                                                  02  150                                
ID FAMCHA010601111248111258000010Magic of Disney - V3(water) - KID FEMALE                                                                                02  150                                
PROFAMCHA010601111258111306000008CC Is Brought To You By - Lark                                                                                          06  150                                
PGRFAMCHA010601111306113549002243Goof Troop                                        Leader Of The Pack (goof Troop)                                      6028607ECC                              
PROFAMCHA010601113549113557000008CC Was Brought To You By - Lark                                                                                         06  150                                
ID FAMCHA010601113557113602000005Generic ID - Bubbles                                                                                                    06  150                                
PROFAMCHA010601113602113638000036Dual Combo Promo - ALF/LULU (air ONLY before TLU)                                                                       02  150                                
PROFAMCHA010601113638113648000010Triple Line-up - 10 - ALADDIN/ALF/FRANKLIN                                                                              02  150                                
ID FAMCHA010601113648113658000010Magic of Disney - V3(water) - KID MALE                                                                                  02  150                                
PROFAMCHA010601113658113705000007CC Is Brought To You By - Ian                                                                                           06  150                                
PGRFAMCHA010601113705115940002235Disney's Aladdin                                  The Lost Ones                                                        6028607ECC                              
PROFAMCHA010601115940115947000007CC Was Brought To You By - Ian                                                                                          02  150                                
ID FAMCHA010601115947115952000005Generic ID - Bubbles                                                                                                    06  150                                
PROFAMCHA010601115952120002000010Triple Line-up - 11 - ALF/FRANKLIN/ELMO                                                                                 02  150                                
PROFAMCHA010601120002120010000008CC Is Brought To You By - Lark                                                                                          06  150                                
PGRFAMCHA010601120010122138002128ALF                                               Border Song                                                         A2028807BCC                              
PROFAMCHA010601122138122145000007CC Was Brought To You By - Lark                                                                                         02  150                                
ID FAMCHA010601122145122155000010Generic ID - confetti                                                                                                   02  150                                
PRCFAMCHA010601122155122209000014Franklin Bumper - Leaf - Coming Up                                                                                     102  150                                
PROFAMCHA010601122209122247000038Dual Combo Promo - PB&J/ALADDIN (air ONLY before T                                                                      06  150                                
PROFAMCHA010601122247122257000010Triple Line-up - 12 - FRANKLIN/ELMO/PB&J                                                                                02  150                                
PROFAMCHA010601122257122305000008CC Is Brought To You By - Ian                                                                                           06  150                                
PGRFAMCHA010601122305124558002253Franklin                                          The Puppet/Stopwatch                                                A1025607ECC                              
PROFAMCHA010601124558124606000008CC Was Brought To You By - Ian                                                                                          06  150                                
ID FAMCHA010601124606124611000005Generic ID - Couch 1                                                                                                    06  150                                
PROFAMCHA010601124611124647000036Dual Combo Promo - GOOF/ELMO (air ONLY before TLU)                                                                      06  150                                
PROFAMCHA010601124647124657000010Triple Line-up - 13 - ELMO/PB&J/POOH                                                                                    02  150                                
PGRFAMCHA010601124657130121001424Elmo's World                                      Exercise                                                            A2028607G                                
ID FAMCHA010601130121130126000005Generic ID - Couch 2                                                                                                    06  150                                
PROFAMCHA010601130126130224000058Enter Elmo's World Contest                                                                                             106  150                                
PROFAMCHA010601130224130309000045PB&J Otter (MARCH2001) - Coming Up                                                                                     206  150                                
PRCFAMCHA010601130309130316000007Book of Pooh Bumper - Gang - This Afternoon                                                                            102  150                                
INTFAMCHA010601130316130618000302Art Attack - Ballerina                                                                                                 60286120                                
PRCFAMCHA010601130618130648000030Madeline (MARCH2001) - Tomorrow @ 6:35am                                                                               102  150                                
PROFAMCHA010601130648130658000010Triple Line-up - 14 - PB&J/POOH/BUSY                                                                                    02  150                                
PROFAMCHA010601130658130706000008CC Is Brought To You By - Lark                                                                                          06  150                                
PGRFAMCHA010601130706133036002330PB&J Otter                                        Save Oaky Oak Tree/Duck Who Cried Wolf                              A6028607ECC                              
PROFAMCHA010601133036133044000008CC Was Brought To You By - Lark                                                                                         06  150                                
ID FAMCHA010601133044133054000010Generic ID - Family w/dog                                                                                               06  150                                
PROFAMCHA010601133054133152000058Enter Elmo's World Contest                                                                                             106  150                                
PRCFAMCHA010601133152133159000007Book of Pooh Bumper - Gang - Coming Up                                                                                 106  150                                
PROFAMCHA010601133159133237000038Dual Combo Promo - PB&J/ALADDIN (air ONLY before T                                                                      06  150                                
PROFAMCHA010601133237133247000010Triple Line-up - 15 - POOH/BUSY/MADELINE                                                                                02  150                                
ID FAMCHA010601133247133257000010Magic of Disney - V4 - TEEN FEMALE                                                                                      02  150                                
PGRFAMCHA010601133257135659002402Book Of Pooh; The                                 Night of the Brussels Sprout/I Could Have Laughed                    6068607G                                
ID FAMCHA010601135659135704000005Generic ID - Fingerpaint                                                                                                02  150                                
PROFAMCHA010601135704135711000007PB&J Bumpers - Kite - Weekday Mornings                                                                                  02  150                                
PROFAMCHA010601135711135747000036Dual Combo Promo - ALF/LULU (air ONLY before TLU)                                                                       06  150                                
PROFAMCHA010601135747135757000010Triple Line-up - 16 - BUSY/MADELINE/OOTB                                                                                02  150                                
PROFAMCHA010601135757135805000008CC Is Brought To You By - Ian                                                                                           06  150                                
PGRFAMCHA010601135805142215002410Busy World Of Richard Scarry; The                 Mr. Frumble's New Cars/Ernst And Heidi In The Alps            P17882 1025607ECC                              
PROFAMCHA010601142215142223000008CC Was Brought To You By - Ian                                                                                          06  150                                
ID FAMCHA010601142223142233000010Generic ID - Hula Hoop                                                                                                  06  150                                
PROFAMCHA010601142233142247000014ALF (Dreams) - Tonight @ 7:30pm                                                                                         02  150                                
PROFAMCHA010601142247142257000010Triple Line-up - 17 - MADELINE/OOTB/GOOF                                                                                02  150                                
PGRFAMCHA010601142257144533002236Madeline                                          Madeline and the Talking Parrot                                      6028607E                                
ID FAMCHA010601144533144538000005Generic ID - Marbles                                                                                                    06  150                                
PROFAMCHA010601144538144636000058Enter Elmo's World Contest                                                                                             106  150                                
PRCFAMCHA010601144636144647000011Elmo's World Bumper - Tricycle - Weekday Mornings                                                                      102  150                                
PROFAMCHA010601144647144657000010Triple Line-up - 18 - OOTB/GOOF/ALADDIN                                                                                 02  150                                
PGRFAMCHA010601144657151027002330Out Of The Box                                    Playhouse Mouse                                                      60286110                                
ID FAMCHA010601151027151032000005Generic ID - Bubbles                                                                                                    06  150                                
PRCFAMCHA010601151032151104000032Funshine 2001 - GENERIC TOUR SPOT #1                                                                                   106 5150                                
PRCFAMCHA010601151104151131000027Funshine 2001 - Spot #03 - MAY 28 TO JUNE 03                                                                           106 5150                                
PRCFAMCHA010601151131151137000006Book of Pooh Bumper - Hug - Weekday Mornings                                                                           102  150                                
PROFAMCHA010601151137151147000010Triple Line-up - 19 - GOOF/ALADDIN                                                                                      02  150                                
ID FAMCHA010601151147151157000010Magic of Disney - V3(water) - TEEN MALE                                                                                 02  150                                
PROFAMCHA010601151157151204000007CC Is Brought To You By - Lark                                                                                          06  150                                
PGRFAMCHA010601151204153450002246Goof Troop                                        Inspector Goofy                                                      6028607ECC                              
PROFAMCHA010601153450153458000008CC Was Brought To You By - Lark                                                                                         06  150                                
ID FAMCHA010601153458153508000010Generic ID - Ring around the rosie                                                                                      06  150                                
PROFAMCHA010601153508153536000028Honey (MARCH2001) - Tonight @ 8pm                                                                                       02  150                                
PROFAMCHA010601153536153546000010Triple Line-up - 21 - ALADDIN/DS12                                                                                      02  150                                
ID FAMCHA010601153546153556000010Magic of Disney - V4 - TEEN MALE                                                                                        02  150                                
PROFAMCHA010601153556153604000008CC Is Brought To You By - Ian                                                                                           06  150                                
PGRFAMCHA010601153604155841002237Disney's Aladdin                                  Eye Of The Beholder                                                  6028607ECC                              
PROFAMCHA010601155841155849000008CC Was Brought To You By - Ian                                                                                          06  150                                
ID FAMCHA010601155849155854000005Generic ID - Bubbles                                                                                                    06  150                                
PROFAMCHA010601155854155912000018D12 - Recess/Buzz - Coming Up                                                                                           02  150                                
PROFAMCHA010601155912155936000024ALF - Tonight @ 7:30pm                                                                                                  02  150                                
PROFAMCHA010601155936155946000010Triple Line-up - 22 - DS12                                                                                              02  150                                
ID FAMCHA010601155946155956000010Magic of Disney - V2(sky) - TEEN FEMALE                                                                                 02  150                                
PROFAMCHA010601155956160026000030Disney's One Too - Opening                                                                                              02  150                                
PGRFAMCHA010601160026162251002225Disney's Doug                                     Doug's Grand Band Plan                                               6028607E                                
ID FAMCHA010601162251162256000005Generic ID - soccer                                                                                                     06  150                                
PROFAMCHA010601162256162356000100Honey, Our Vacation Dreams Came True Contest                                                                          A102 8150                                
PROFAMCHA010601162356162426000030Pepper Ann (MARCH2001) - Coming Up                                                                                      02  150                                
PRCFAMCHA010601162426162506000040Famous Jett Jackson (MARCH2001) - Tonight @ 7pm                                                                        102  150                                
INTFAMCHA010601162506162519000013Toy Story Treats - Alien On Board                                                                                      60286120                                
ID FAMCHA010601162519162533000014Wonder Kid Tag - Male                                                                                                   02  150                                
PRCFAMCHA010601162533162615000042Gargoyles (MARCH2001) - Tonight @ 6:30pm                                                                                02  150                                
ID FAMCHA010601162615162655000040Wonder Kid - Coin                                                                                                       02  150                                
PROFAMCHA010601162655162725000030House of Mouse - Tomorrow @ 4:30pm                                                                                      02  150                                
INTFAMCHA010601162725162829000104Jack and Marcel: Ep.017 "The Hair-Dryer"                                                                              A40288120                                
INTFAMCHA010601162829162842000013Toy Story Treats - Art Class                                                                                           60286120                                
PROFAMCHA010601162842162858000016ALF (Description) - Tonight @ 7:30pm                                                                                    02  150                                
INTFAMCHA010601162858162911000013Toy Story Treats - Magic Mirror                                                                                        60286120                                
PROFAMCHA0106011629111629410000302 Hour Tour with Nobody's Angel - Sunday @ 7:30pm                                                                       02  150                                
ID FAMCHA010601162941162956000015Afternoon block pinball open                                                                                            02  150                                
PROFAMCHA010601162956163026000030Disney's One Too - Opening                                                                                              06  150                                
PROFAMCHA010601163026163034000008CC Is Brought To You By - Lark                                                                                          06  150                                
PGRFAMCHA010601163034165323002249Disney's Pepper Ann                               Presenting Stuart Walldinger/PA's Life, In A Nutsh                   6028607ECC                              
PROFAMCHA010601165323165331000008CC Was Brought To You By - Lark                                                                                         06  150                                
ID FAMCHA010601165331165338000007Generic ID - Whisper                                                                                                    06  150                                
PROFAMCHA0106011653381654080000302 Hour Tour with Nobody's Angel - Sunday @ 7:30pm                                                                       06  150                                
PROFAMCHA010601165408165440000032Recess (Experiment) - Coming Up                                                                                         02  150                                
PROFAMCHA010601165440165510000030Your Big Break - Sunday Morning                                                                                         02  150                                
INTFAMCHA010601165510165531000021Recess Sketches - Bad Weather                                                                                          60286120                                
INTFAMCHA010601165531165653000122Disney Dinner Time(05)- Amelia Earhart (D12 only)                                                                      60286120                                
INTFAMCHA010601165653165714000021Recess Sketches - Mickey's World Record - Card Hou                                                                     60286120                                
INTFAMCHA010601165714165744000030Disney Magic Drawings(03)- Donald (D12 only)                                                                           60286120                                
INTFAMCHA010601165744165805000021Recess Sketches - The Word - Originality                                                                               60286120                                
PROFAMCHA010601165805165833000028Honey (MARCH2001) - Tonight @ 8pm                                                                                       06  150                                
PROFAMCHA010601165833165841000008House of Mouse Bumpers - Clap - Tomorrow @ 4:30pm                                                                       02  150                                
PROFAMCHA010601165841165941000100Honey, Our Vacation Dreams Came True Contest                                                                          A106 8150                                
ID FAMCHA010601165941165956000015Afternoon block pinball open                                                                                            06  150                                
PROFAMCHA010601165956170026000030Disney's One Too - Opening                                                                                              06  150                                
PGRFAMCHA010601170026172302002236Disney's Recess                                   A Genius Among Us/The Spy Who Came In From the Pla                   6028607E                                
ID FAMCHA010601172302172312000010Generic ID - Bubbles                                                                                                    06  150                                
PROFAMCHA010601172312172412000100Honey, Our Vacation Dreams Came True Contest                                                                          A106 8150                                
PROFAMCHA010601172412172433000021Buzz Lightyear (DISNEY'S ONE TOO) - Coming Up                                                                           02  150                                
PROFAMCHA010601172433172503000030House of Mouse - Tomorrow @ 4:30pm                                                                                      06  150                                
INTFAMCHA010601172503172516000013Toy Story Treats - Mad Scientist                                                                                       60286120                                
INTFAMCHA010601172516172648000132Disney Magic Shop(01)- Mysterious Rising Ring (D12                                                                     60286120                                
INTFAMCHA010601172648172701000013Toy Story Treats - Team Work                                                                                           60286120                                
INTFAMCHA010601172701172805000104Jack and Marcel: Ep.031 "The Postman Always Rings                                                                     A40288120                                
INTFAMCHA010601172805172818000013Toy Story Treats - The Shark's Tale                                                                                    60286120                                
PROFAMCHA010601172818172848000030Your Big Break - Sunday Morning                                                                                         06  150                                
INTFAMCHA010601172848172901000013Toy Story Treats - Used Car                                                                                            60286120                                
PROFAMCHA0106011729011729310000302 Hour Tour with Nobody's Angel - Sunday @ 7:30pm                                                                       06  150                                
PRCFAMCHA010601172931172945000014Morning Block menu background (flex time)                                                                               06  150                                
ID FAMCHA010601172945173000000015Afternoon block pinball open                                                                                            06  150                                
PROFAMCHA010601173000173030000030Disney's One Too - Opening                                                                                              06  150                                
PROFAMCHA010601173030173038000008CC Is Brought To You By - Ian                                                                                           06  150                                
PGRFAMCHA010601173038175230002152Disney/Pixar's Buzz Lightyear of Star Command     Sunquake                                                             6028607ECC                              
PROFAMCHA010601175230175238000008CC Was Brought To You By - Ian                                                                                          06  150                                
ID FAMCHA010601175238175248000010Generic ID - Pink inner tube                                                                                            06  150                                
PROFAMCHA0106011752481753180000302 Hour Tour with Nobody's Angel - Sunday @ 7:30pm                                                                       06  150                                
PRCFAMCHA010601175318175400000042Gargoyles (MARCH2001) - Tonight @ 6:30pm                                                                                06  150                                
INTFAMCHA010601175400175810000410MV Disney - Colours of the wind (oct 1)                                                                                60288120                                
PRCFAMCHA010601175810175850000040Famous Jett Jackson (MARCH2001) - Tonight @ 7pm                                                                        106  150                                
PROFAMCHA010601175850175950000100Honey, Our Vacation Dreams Came True Contest                                                                          A106 8150                                
ID FAMCHA010601175950180000000010Magic of Disney - V3(water) - TEEN MALE                                                                                 06  150                                
PROFAMCHA010601180000180008000008CC Is Brought To You By - Lark                                                                                          06  150                                
PGRFAMCHA010601180008182250002242Lion King's Timon & Pumbaa; The                   Klondike Con/Isle Find Out                                           6028607ECC                              
PROFAMCHA010601182250182258000008CC Was Brought To You By - Lark                                                                                         06  150                                
ID FAMCHA010601182258182313000015Generic ID - confetti                                                                                                   06  150                                
PROFAMCHA0106011823131823430000302 Hour Tour with Nobody's Angel - Sunday @ 7:30pm                                                                       06  150                                
PRCFAMCHA010601182343182425000042Gargoyles (MARCH2001) - Coming Up                                                                                       02  150                                
PROFAMCHA010601182425182443000018D12 - Recess/Buzz - Weekdays, starting @ 4:00pm                                                                         02  150                                
PRCFAMCHA010601182443182515000032Funshine 2001 - GENERIC TOUR SPOT #1                                                                                   106 5150                                
PRCFAMCHA010601182515182542000027Funshine 2001 - Spot #03 - MAY 28 TO JUNE 03                                                                           106 5150                                
INTFAMCHA010601182542182915000333MV Disney - Reflection (oct 1)                                                                                         60288120                                
PROFAMCHA010601182915182945000030Your Big Break - Sunday Morning                                                                                         06  150                                
ID FAMCHA010601182945183000000015Afternoon block pinball open                                                                                            06  150                                
PGRFAMCHA010601183000185250002250Gargoyles                                         Heritage                                                             6028607E                                
ID FAMCHA010601185250185300000010Generic ID - confetti                                                                                                   06  150                                
PROFAMCHA0106011853001853300000302 Hour Tour with Nobody's Angel - Sunday @ 7:30pm                                                                       06  150                                
PRCFAMCHA010601185330185410000040Famous Jett Jackson (MARCH2001) - Coming Up                                                                            102  150                                
PROFAMCHA010601185410185426000016ALF (Description) - Tonight @ 7:30pm                                                                                    06  150                                
INTFAMCHA010601185426185556000130Klootz - Espace 04                                                                                                    A10258120                                
PRCFAMCHA010601185556185628000032Funshine 2001 - GENERIC TOUR SPOT #1                                                                                   106 5150                                
PRCFAMCHA010601185628185655000027Funshine 2001 - Spot #03 - MAY 28 TO JUNE 03                                                                           106 5150                                
PRCFAMCHA010601185655185731000036Goof Troop (MARCH2001) - Weekends @ 4pm                                                                                 06  150                                
INTFAMCHA010601185731185901000130Klootz - Olympics 06                                                                                                  A10258120                                
PROFAMCHA010601185901185929000028Honey (MARCH2001) - Tonight @ 8pm                                                                                       06  150                                
PRCFAMCHA010601185929185939000010Morning Block menu background (flex time)                                                                               06  150                                
ID FAMCHA010601185939190000000021Prime time open count down                                                                                              02  150                                
PROFAMCHA010601190000190008000008CC Is Brought To You By - Lark                                                                                          06  150                                
PGRFAMCHA010601190008192441002433Famous Jett Jackson; The                          Field of Dweebs                                                      1025607ACC                              
PROFAMCHA010601192441192449000008CC Was Brought To You By - Lark                                                                                         06  150                                
ID FAMCHA010601192449192454000005Generic ID - Couch 1                                                                                                    06  150                                
PROFAMCHA0106011924541925240000302 Hour Tour with Nobody's Angel - Sunday @ 7:30pm                                                                       06  150                                
PROFAMCHA010601192524192548000024ALF - Coming Up                                                                                                         02  150                                
PROFAMCHA010601192548192616000028Honey (MARCH2001) - Tonight @ 8pm                                                                                       06  150                                
INTFAMCHA010601192616192759000143MV Disney - Siamese Cat Song (oct)                                                                                     60288120                                
ID FAMCHA010601192759192811000012Web Rant - Never Believe                                                                                                02  150                                
PRCFAMCHA010601192811192839000028Are You Afraid...Dark? (45MIN) - Tonight @ 8:45pm                                                                       02  150                                
PROFAMCHA010601192839192939000100Honey, Our Vacation Dreams Came True Contest                                                                          A106 8150                                
ID FAMCHA010601192939193000000021Prime time open count down                                                                                              06  150                                
PROFAMCHA010601193000193008000008CC Is Brought To You By - Ian                                                                                           06  150                                
PGRFAMCHA010601193008195136002128ALF                                               Border Song                                                         A2068807BCC                              
PROFAMCHA010601195136195145000009CC Was Brought To You By - Ian                                                                                          02  150                                
ID FAMCHA010601195145195150000005Generic ID - Couch 2                                                                                                    06  150                                
PROFAMCHA0106011951501952200000302 Hour Tour with Nobody's Angel - Sunday @ 7:30pm                                                                       06  150                                
PROFAMCHA010601195220195248000028Honey (MARCH2001) - Coming Up                                                                                           02  150                                
PROFAMCHA010601195248195258000010MV FAMJAM - Teaser (Generic)                                                                                           602 5150                                
PRCFAMCHA010601195258195328000030In A Heartbeat (MARCH2001) - Tomorrow @ 8:30pm                                                                         102  150                                
INTFAMCHA010601195328195659000331MV - This Is Me                                                                                                       A20288120                                
PROFAMCHA010601195659195709000010MV Web Throw - music@family.ca                                                                                         602 5150                                
PROFAMCHA010601195709195746000037So Weird (EARTH101) - Sunday @ 8pm                                                                                      02  150                                
INTFAMCHA010601195746195850000104Jack and Marcel: Ep.061 "The Tree"                                                                                    A40288120                                
PROFAMCHA010601195850195950000100Honey, Our Vacation Dreams Came True Contest                                                                          A106 8150                                
ID FAMCHA010601195950200000000010Magic of Disney - V2(sky) - ADULT MALE                                                                                  02  150                                
PGRFAMCHA010601200000204314004314Disney's Honey, I Shrunk The Kids: The TV Show    We're Young At Heart                                                 6028807B                                
ID FAMCHA010601204314204324000010Generic ID - Family w/dog                                                                                               06  150                                
PRCFAMCHA010601204324204352000028Are You Afraid...Dark? (45MIN) - Coming Up                                                                              02  150                                
PROFAMCHA0106012043522044220000302 Hour Tour with Nobody's Angel - Sunday @ 7:30pm                                                                       06  150                                
PROFAMCHA010601204422204429000007MV Web Throw - family.ca                                                                                               602 5150                                
PRCFAMCHA010601204429204439000010Morning Block menu background (flex time)                                                                               06  150                                
ID FAMCHA010601204439204500000021Prime time open count down                                                                                              06  150                                
PROFAMCHA010601204500204508000008CC Is Brought To You By - Lark                                                                                          06  150                                
PGRFAMCHA010601204508205831001323Are You Afraid of the Dark?                       Misfortune Cookie Pt.2                                              A1025807ACC                              
PROFAMCHA010601205831205839000008CC Was Brought To You By - Lark                                                                                         06  150                                
ID FAMCHA010601205839205844000005Generic ID - Fingerpaint                                                                                                06  150                                
PROFAMCHA0106012058442059140000302 Hour Tour with Nobody's Angel - Sunday @ 7:30pm                                                                       06  150                                
PROFAMCHA010601205914205939000025Recess (Finster) - Weekdays @ 5pm                                                                                       02  150                                
ID FAMCHA010601205939210000000021Move open family size movie                                                                                             02  150                                
PROFAMCHA010601210000210008000008Rating - PG - Ian                                                                                                       02  150                                
PGRFAMCHA010601210008230153020145Being There                                                                                                           B2028807D                                
ID FAMCHA010601230153230158000005Generic ID - Couch 1                                                                                                    06  150                                
PROFAMCHA0106012301582302280000302 Hour Tour with Nobody's Angel - Sunday @ 7:30pm                                                                       06  150                                
INTFAMCHA010601230228230359000131Bill Nye - The Faster You Push Me                                                                                      60288120                                
PROFAMCHA010601230359230429000030Your Big Break - Sunday Morning                                                                                         06  150                                
PRCFAMCHA010601230429230439000010Morning Block menu background (flex time)                                                                               06  150                                
ID FAMCHA010601230439230500000021Move open family size movie                                                                                             06  150                                
PROFAMCHA010601230500230508000008Rating - AA - Lark                                                                                                      02  150                                
PGRFAMCHA010601230508003738013230River Rat; The                                                                                                        C2028807D                                
ID FAMCHA010601003738003743000005Generic ID - Marbles                                                                                                    06  150                                
PROFAMCHA010601003743003750000007MV Web Throw - family.ca                                                                                               606 5150                                
ID FAMCHA010601003750003800000010Prime time open top of hour                                                                                             02  150                                
PGRFAMCHA010601003800010226002426Are You Afraid Of The Dark?                       The Tale of the Midnight Ride                                        1025807A                                
SO FAMCHA010601010226010238000012Sign Off (oct 1)                                                                                                        02                                     
OFFFAMCHA010601010238043000032722                                                                                                                                                               
SO FAMCHA010602043000043011000011Sign On (oct 1)                                                                                                         02                                     
PROFAMCHA010602043011043019000008CC Is Brought To You By - Ian                                                                                           02  150                                
PGRFAMCHA010602043019045419002400Hello Mrs. Cherrywinkle                           Murray In Love                                                B18884A1025607ACC                              
PROFAMCHA010602045419045427000008CC Was Brought To You By - Ian                                                                                          02  150                                
ID FAMCHA010602045427045437000010Generic ID - confetti                                                                                                   02  150                                
PROFAMCHA010602045437045450000013Buzz Lightyear (DISNEY'S ONE TOO) - Weekdays @ 5:3                                                                      02  150                                
ID FAMCHA010602045450045500000010Prime time open top of hour                                                                                             02  150                                
PROFAMCHA010602045500045508000008CC Is Brought To You By - Lark                                                                                          02  150                                
PGRFAMCHA010602045508051919002411Busy World Of Richard Scarry; The                 The Snowstorm/Professor Dig And His Egyptian Mummy            P17883 1025607ECC                              
PROFAMCHA010602051919051926000007CC Was Brought To You By - Lark                                                                                         02  150                                
ID FAMCHA010602051926051936000010Generic ID - Hula Hoop                                                                                                  02  150                                
PRCFAMCHA010602051936051950000014Franklin Bumper - Leaf - Tonight @ 6pm                                                                                 102  150                                
ID FAMCHA010602051950052000000010Prime time open top of hour                                                                                             06  150                                
PROFAMCHA010602052000052008000008CC Is Brought To You By - Ian                                                                                           06  150                                
PGRFAMCHA010602052008054429002421Billy The Cat                                     Curse Of Catopatra                                            B27660A1025607ECC                              
PROFAMCHA010602054429054436000007CC Was Brought To You By - Ian                                                                                          06  150                                
ID FAMCHA010602054436054441000005Generic ID - Marbles                                                                                                    02  150                                
PROFAMCHA010602054441054450000009PB&J Bumpers - Open - This Afternoon                                                                                    02  150                                
ID FAMCHA010602054450054500000010Prime time open top of hour                                                                                             06  150                                
PROFAMCHA010602054500054508000008CC Is Brought To You By - Lark                                                                                          06  150                                
PGRFAMCHA010602054508060900002352Little Lulu Show; The                             Popcorn Theif/The Little Tornando/She Flies Throug            B03814A1025607ECC                              
PROFAMCHA010602060900060908000008CC Was Brought To You By - Lark                                                                                         06  150                                
ID FAMCHA010602060908060918000010Generic ID - Family w/dog                                                                                               02  150                                
PROFAMCHA010602060918060939000021Buzz Lightyear (DISNEY'S ONE TOO) - Weekdays @ 5:3                                                                      02  150                                
ID FAMCHA010602060939061000000021Prime time open count down                                                                                              02  150                                
PROFAMCHA010602061000061008000008CC Is Brought To You By - Ian                                                                                           06  150                                
PGRFAMCHA010602061008063408002400Big Garage; The                                   Share And Share Alike                                         P21455 1025607ECC                              
PROFAMCHA010602063408063415000007CC Was Brought To You By - Ian                                                                                          06  150                                
ID FAMCHA010602063415063420000005Generic ID - soccer                                                                                                     02  150                                
PRCFAMCHA010602063420063450000030Madeline (MARCH2001) - Coming Up                                                                                       102  150                                
ID FAMCHA010602063450063500000010Prime time open top of hour                                                                                             06  150                                
PGRFAMCHA010602063500065740002240Madeline                                          Madeline in New York                                                 6028607E                                
ID FAMCHA010602065740065750000010Generic ID - confetti                                                                                                   06  150                                
PROFAMCHA010602065750065802000012New Adv of WTP Bumpers - Blustery - Today @ 5:30pm                                                                      02  150                                
PRCFAMCHA010602065802065810000008Franklin Bumper - Slide - Tonight @ 6pm                                                                                102  150                                
INTFAMCHA010602065810065934000124Bill Nye - R.E.C.Y.C.L.E                                                                                               60288120                                
PROFAMCHA010602065934065950000016ALF (Description) - Today @ 9:51am                                                                                      02  150                                
ID FAMCHA010602065950070000000010Magic of Disney - V2(sky) - TEEN FEMALE                                                                                 02  150                                
PROFAMCHA010602070000070008000008CC Is Brought To You By - Ian                                                                                           06  150                                
PGRFAMCHA010602070008072247002239Adventures of the Gummi Bears; The                Bubble Trouble/Close Encounters Of The Gummi Kind                    6028607ECC                              
PROFAMCHA010602072247072255000008CC Was Brought To You By - Ian                                                                                          06  150                                
ID FAMCHA010602072255072305000010Generic ID - Ring around the rosie                                                                                      02  150                                
PRCFAMCHA010602072305072311000006Book of Pooh Bumper - Hug - Weekday Mornings                                                                           102  150                                
ID FAMCHA010602072311072318000007Silly Stories Teaser - Female                                                                                           02  150                                
PROFAMCHA010602072318072327000009House of Mouse Bumpers - No TV - Today @ 4:30pm                                                                         02  150                                
ID FAMCHA010602072327072409000042Silly Stories - Neener                                                                                                  02  150                                
PRCFAMCHA010602072409072445000036Goof Troop (MARCH2001) - Today @ 4pm                                                                                    02  150                                
INTFAMCHA010602072445072935000450MV Disney - Circle of Life (oct 1)                                                                                     60288120                                
PROFAMCHA010602072935072950000015New Adv of WTP Bumpers - Poem - Today @ 5:30pm                                                                          02  150                                
ID FAMCHA010602072950073000000010Magic of Disney - V3(water) - TEEN MALE                                                                                 02  150                                
PROFAMCHA010602073000073008000008CC Is Brought To You By - Lark                                                                                          06  150                                
PGRFAMCHA010602073008075233002225Darkwing Duck                                     Whiffle While You Work                                               6028607ECC                              
PROFAMCHA010602075233075241000008CC Was Brought To You By - Lark                                                                                         06  150                                
ID FAMCHA010602075241075251000010Generic ID - soccer                                                                                                     02  150                                
PROFAMCHA010602075251075305000014ALF (Dreams) - Today @ 9:51am                                                                                           02  150                                
PROFAMCHA010602075305075313000008House of Mouse Bumpers - Clap - Today @ 4:30pm                                                                          02  150                                
INTFAMCHA010602075313075754000441Art Attack - Horse                                                                                                     60286120                                
PROFAMCHA010602075754075819000025Recess (Finster) - Weekdays @ 5pm                                                                                       02  150                                
PRCFAMCHA010602075819075849000030Hoze Houndz - Tonight @ 7pm                                                                                             02  150                                
PRCFAMCHA010602075849075929000040Famous Jett Jackson (MARCH2001) - Today @ 10:41am                                                                      102  150                                
PRCFAMCHA010602075929075939000010Morning Block menu background (flex time)                                                                               02  150                                
ID FAMCHA010602075939080000000021Prime time open count down                                                                                              06  150                                
PGRFAMCHA010602080000082213002213Sherlock Holmes In The 22nd Century               Fall and Rise of Sherlock Holmes                                     6028607E                                
ID FAMCHA010602082213082223000010Generic ID - Bubbles                                                                                                    02  150                                
PROFAMCHA0106020822230822530000302 Hour Tour with Nobody's Angel - Tomorrow @ 7:30p                                                                      02  150                                
PROFAMCHA010602082253082323000030Your Big Break - Tomorrow Morning                                                                                       02  150                                
INTFAMCHA010602082323082757000434Art Attack - Family By Bonfire                                                                                         60286120                                
PROFAMCHA010602082757082805000008House of Mouse Bumpers - Clap - Today @ 4:30pm                                                                          06  150                                
PROFAMCHA010602082805082823000018D12 - Recess/Buzz - Weekdays, starting @ 4:00pm                                                                         02  150                                
PRCFAMCHA010602082823082859000036Goof Troop (MARCH2001) - Today @ 4pm                                                                                    06  150                                
PRCFAMCHA010602082859082939000040Famous Jett Jackson (MARCH2001) - Today @ 10:41am                                                                      106  150                                
PRCFAMCHA010602082939082950000011Morning Block menu background (flex time)                                                                               06  150                                
ID FAMCHA010602082950083000000010Magic of Disney - V2(sky) - TEEN FEMALE                                                                                 06  150                                
PGRFAMCHA010602083000085400002400Z Games                                           1-002                                                                60286110                                
ID FAMCHA010602085400085405000005Generic ID - Couch 1                                                                                                    02  150                                
PROFAMCHA0106020854050854350000302 Hour Tour with Nobody's Angel - Tomorrow @ 7:30p                                                                      06  150                                
PROFAMCHA010602085435085449000014ALF (Dreams) - Today @ 9:51am                                                                                           06  150                                
PRCFAMCHA010602085449085521000032Funshine 2001 - GENERIC TOUR SPOT #1                                                                                   102 5150                                
PRCFAMCHA010602085521085548000027Funshine 2001 - Spot #03 - MAY 28 TO JUNE 03                                                                           102 5150                                
PRCFAMCHA010602085548085628000040Famous Jett Jackson (MARCH2001) - Today @ 10:41am                                                                      106  150                                
PRCFAMCHA010602085628085639000011Morning Block menu background (flex time)                                                                               06  150                                
ID FAMCHA010602085639085700000021Prime time open count down                                                                                              06  150                                
PROFAMCHA010602085700085708000008CC Is Brought To You By - Lark                                                                                          06  150                                
PGRFAMCHA010602085708092108002400Bug Juice                                         New Kids on the Bus                                                  6028607ACC                              
PROFAMCHA010602092108092116000008CC Was Brought To You By - Lark                                                                                         06  150                                
ID FAMCHA010602092116092126000010Generic ID - Bubbles                                                                                                    06  150                                
PROFAMCHA0106020921260921560000302 Hour Tour with Nobody's Angel - Tomorrow @ 7:30p                                                                      06  150                                
PROFAMCHA010602092156092226000030Jersey (MARCH2001) - Today @ 10:16am                                                                                    02  150                                
INTFAMCHA010602092226092330000104Jack and Marcel: Ep.004 "Banzai and Sushi"                                                                             40288120                                
PROFAMCHA010602092330092338000008House of Mouse Bumpers - Clap - Today @ 4:30pm                                                                          06  150                                
PROFAMCHA010602092338092359000021Buzz Lightyear (DISNEY'S ONE TOO) - Weekdays @ 5:3                                                                      06  150                                
PRCFAMCHA010602092359092439000040Famous Jett Jackson (MARCH2001) - Today @ 10:41am                                                                      106  150                                
ID FAMCHA010602092439092500000021Prime time open count down                                                                                              06  150                                
PROFAMCHA010602092500092508000008CC Is Brought To You By - Ian                                                                                           06  150                                
PGRFAMCHA010602092508094819002311Mentors                                           Genius                                                        C13889 1025607ACC                              
PROFAMCHA010602094819094827000008CC Was Brought To You By - Ian                                                                                          06  150                                
ID FAMCHA010602094827094834000007Generic ID - Whisper                                                                                                    02  150                                
PROFAMCHA0106020948340949040000302 Hour Tour with Nobody's Angel - Tomorrow @ 7:30p                                                                      06  150                                
PROFAMCHA010602094904094920000016ALF (Description) - Coming Up                                                                                           02  150                                
PRCFAMCHA010602094920094950000030Hoze Houndz - Tonight @ 7pm                                                                                             06  150                                
PROFAMCHA010602094950094959000009House of Mouse Bumpers - No TV - Today @ 4:30pm                                                                         06  150                                
PROFAMCHA010602094959095029000030Jersey (MARCH2001) - Today @ 10:16am                                                                                    06  150                                
PRCFAMCHA010602095029095039000010Morning Block menu background (flex time)                                                                               06  150                                
ID FAMCHA010602095039095100000021Prime time open count down                                                                                              06  150                                
PROFAMCHA010602095100095108000008CC Is Brought To You By - Ian                                                                                           06  150                                
PGRFAMCHA010602095108101234002126ALF                                               Pilot                                                               A2028807BCC                              
PROFAMCHA010602101234101242000008CC Was Brought To You By - Ian                                                                                          06  150                                
ID FAMCHA010602101242101252000010Generic ID - Family w/dog                                                                                               06  150                                
PROFAMCHA0106021012521013220000302 Hour Tour with Nobody's Angel - Tomorrow @ 7:30p                                                                      06  150                                
PROFAMCHA010602101322101352000030Jersey (MARCH2001) - Coming Up                                                                                          02  150                                
ID FAMCHA010602101352101404000012Wonder Kid Tag - Male                                                                                                   02  150                                
PRCFAMCHA010602101404101444000040Famous Jett Jackson (MARCH2001) - Today @ 10:41am                                                                      106  150                                
ID FAMCHA010602101444101518000034Wonder Kid - Stage                                                                                                      02  150                                
PROFAMCHA010602101518101540000022Greystoke - Friday @ 9pm                                                                                                02  150                                
PRCFAMCHA010602101540101550000010Morning Block menu background (flex time)                                                                               06  150                                
ID FAMCHA010602101550101600000010Magic of Disney - V2(sky) - TEEN MALE                                                                                   02  150                                
PROFAMCHA010602101600101608000008CC Is Brought To You By - Lark                                                                                          06  150                                
PGRFAMCHA010602101608103839002231Jersey; The                                       Batgirl                                                              6028607ACC                              
PROFAMCHA010602103839103847000008CC Was Brought To You By - Lark                                                                                         06  150                                
ID FAMCHA010602103847103857000010Generic ID - Pink inner tube                                                                                            02  150                                
PROFAMCHA0106021038571039270000302 Hour Tour with Nobody's Angel - Tomorrow @ 7:30p                                                                      06  150                                
PRCFAMCHA010602103927104007000040Famous Jett Jackson (MARCH2001) - Coming Up                                                                            102  150                                
PRCFAMCHA010602104007104039000032Funshine 2001 - GENERIC TOUR SPOT #1                                                                                   106 5150                                
PRCFAMCHA010602104039104106000027Funshine 2001 - Spot #03 - MAY 28 TO JUNE 03                                                                           106 5150                                
PROFAMCHA010602104106104139000033Recess (King Gus) - Weekdays @ 5:00pm                                                                                   02  150                                
ID FAMCHA010602104139104200000021Prime time open count down                                                                                              06  150                                
PROFAMCHA010602104200104208000008CC Is Brought To You By - Ian                                                                                           06  150                                
PGRFAMCHA010602104208110641002433Famous Jett Jackson; The                          What You Wish For                                                    1025607ACC                              
PROFAMCHA010602110641110649000008CC Was Brought To You By - Ian                                                                                          06  150                                
ID FAMCHA010602110649110659000010Generic ID - Bubbles                                                                                                    06  150                                
PROFAMCHA0106021106591107290000302 Hour Tour with Nobody's Angel - Tomorrow @ 7:30p                                                                      06  150                                
PROFAMCHA010602110729110759000030House of Mouse - Today @ 4:30pm                                                                                         02  150                                
PROFAMCHA010602110759110831000032Recess (Experiment) - Weekdays @ 5:00pm                                                                                 02  150                                
PRCFAMCHA010602110831110907000036Goof Troop (MARCH2001) - Today @ 4pm                                                                                    06  150                                
PROFAMCHA010602110907110929000022Greystoke - Friday @ 9pm                                                                                                06  150                                
PRCFAMCHA010602110929110939000010Morning Block menu background (flex time)                                                                               06  150                                
ID FAMCHA010602110939111000000021Prime time open count down                                                                                              06  150                                
PROFAMCHA010602111000111008000008CC Is Brought To You By - Lark                                                                                          06  150                                
PGRFAMCHA010602111008113217002209Misguided Angels                                  The Devil Went Down                                           A29536 1027807BCC                              
PROFAMCHA010602113217113225000008CC Was Brought To You By - Lark                                                                                         06  150                                
ID FAMCHA010602113225113235000010Generic ID - Hula Hoop                                                                                                  06  150                                
PRCFAMCHA010602113235113259000024In A Heartbeat (MARCH2001) - Tonight @ 8:30pm                                                                          102  150                                
PRCFAMCHA010602113259113335000036Goof Troop (MARCH2001) - Today @ 4pm                                                                                    06  150                                
PROFAMCHA010602113335113400000025Recess (Finster) - Weekdays @ 5pm                                                                                       06  150                                
PROFAMCHA0106021134001134300000302 Hour Tour with Nobody's Angel - Tomorrow @ 7:30p                                                                      06  150                                
PRCFAMCHA010602113430113439000009Morning Block menu background (flex time)                                                                               06  150                                
ID FAMCHA010602113439113500000021Prime time open count down                                                                                              06  150                                
PGRFAMCHA010602113500115827002327Secrets of the Animal Kingdom                     Animal I.Q. Test                                                     60286110                                
ID FAMCHA010602115827115832000005Generic ID - Couch 1                                                                                                    06  150                                
PROFAMCHA0106021158321159020000302 Hour Tour with Nobody's Angel - Tomorrow @ 7:30p                                                                      06  150                                
PROFAMCHA010602115902115917000015Doug (MARCH2001) - Weekdays @ 4pm                                                                                       02  150                                
PROFAMCHA010602115917115930000013Buzz Lightyear (DISNEY'S ONE TOO) - Today @ 5:30pm                                                                      02  150                                
PRCFAMCHA010602115930115939000009Morning Block menu background (flex time)                                                                               06  150                                
ID FAMCHA010602115939120000000021Move open family size movie                                                                                             02  150                                
PROFAMCHA010602120000120008000008Rating - G - Lark                                                                                                       02  150                                
PROFAMCHA010602120008120016000008CC Is Brought To You By - Ian                                                                                           06  150                                
ID FAMCHA010602120016120026000010Magic of Disney - V3(water) - TEEN MALE                                                                                 06  150                                
PGRFAMCHA010602120026131119011053Many Adventures Of Winnie The Pooh; The                                                                               A6028607ECC                              
PROFAMCHA010602131119131127000008CC Was Brought To You By - Ian                                                                                          06  150                                
ID FAMCHA010602131127131137000010Generic ID - Pink inner tube                                                                                            06  150                                
PROFAMCHA010602131137131237000100Honey, Our Vacation Dreams Came True Contest                                                                          A102 8150                                
PROFAMCHA010602131237131307000030House of Mouse - Today @ 4:30pm                                                                                         06  150                                
PROFAMCHA010602131307131322000015New Adv of WTP Bumpers - Poem - Today @ 5:30pm                                                                          06  150                                
PRCFAMCHA010602131322131352000030Hoze Houndz - Tonight @ 7pm                                                                                             06  150                                
PRCFAMCHA010602131352131428000036Goof Troop (MARCH2001) - Today @ 4pm                                                                                    06  150                                
PRCFAMCHA010602131428131439000011Morning Block menu background (flex time)                                                                               06  150                                
ID FAMCHA010602131439131500000021Move open family size movie                                                                                             06  150                                
PROFAMCHA010602131500131509000009Rating - PG - Ian                                                                                                       02  150                                
PROFAMCHA010602131509131517000008CC Is Brought To You By - Lark                                                                                          06  150                                
ID FAMCHA010602131517131527000010Magic of Disney - V2(sky) - TEEN FEMALE                                                                                 06  150                                
PGRFAMCHA010602131527145848014321D3: The Mighty Ducks                                                                                                  B6028807DCC                              
PROFAMCHA010602145848145856000008CC Was Brought To You By - Lark                                                                                         06  150                                
ID FAMCHA010602145856145901000005Generic ID - Bubbles                                                                                                    02  150                                
PROFAMCHA010602145901150001000100Honey, Our Vacation Dreams Came True Contest                                                                          A106 8150                                
ID FAMCHA010602150001150011000010Magic of Disney - V3(water) - TEEN FEMALE                                                                               02  150                                
PROFAMCHA010602150011150019000008CC Is Brought To You By - Ian                                                                                           06  150                                
PGRFAMCHA010602150019152254002235Disney's Aladdin                                  The Hunted                                                           6028607ECC                              
PROFAMCHA010602152254152302000008CC Was Brought To You By - Ian                                                                                          06  150                                
ID FAMCHA010602152302152312000010Generic ID - Family w/dog                                                                                               06  150                                
PROFAMCHA0106021523121523420000302 Hour Tour with Nobody's Angel - Tomorrow @ 7:30p                                                                      06  150                                
PROFAMCHA010602152342152350000008House of Mouse Bumpers - Clap - Today @ 4:30pm                                                                          06  150                                
