SO FAMCHA081201043000043011000011Sign On (oct 1)                                                                                                                                                
PRCFAMCHA081201043011043020000009CC Disclaimer - FAST - Family.ca (:09-:10)                                                                                  150                                
PGRFAMCHA081201043020045655002635Katie And Orbie                                   EP: 2-015                                                     C11896A1065607ECC                              
PRCFAMCHA081201045655045706000011FJR - 02 - FRANNY'S FEET / BENJAMIN BEAR (SEPT08)                                                                           150                                
PRCFAMCHA081201045706045721000015Family Jr. Bumper - Portal (:14- :17) (JUL08)                                                                               150                                
PRCFAMCHA081201045721045730000009CC Disclaimer - FAST - Generic (:09-:10)                                                                                    150                                
PGRFAMCHA081201045730052000002230Franny's Feet                                     EPS # 24                                                      C23971 1065607ECC                              
PRCFAMCHA081201052000052006000006Astral ID (DEC 2007)                                                                                                        150                                
PRCFAMCHA081201052006052019000013FJR - 03 - BENJAMIN BEAR / HOZE HOUNDZ (SEPT08)                                                                             150                                
PRCFAMCHA081201052019052030000011Family Jr. Bumper - Acrobat (:10- :13) (JUL08)                                                                              150                                
PRCFAMCHA081201052030052039000009CC Disclaimer - FAST - Family.ca (:09-:10)                                                                                  150                                
PGRFAMCHA081201052039054309002230Secret World of Benjamin Bear, The                EP: 30                                                        C27272 1065607ECC                              
PRCFAMCHA081201054309054320000011FJR - 04 - HOZE HOUNDZ / HENRY'S WORLD (SEPT08)                                                                             150                                
PRCFAMCHA081201054320054332000012Family Jr. Bumper - Collide (:11- :14) (JUL08)                                                                              150                                
PRCFAMCHA081201054332054341000009CC Disclaimer - FAST - Generic (:09-:10)                                                                                    150                                
PGRFAMCHA081201054341060619002238Hoze Houndz                                       EP: 5-054                                                     B63390A1065607ECC                              
PRCFAMCHA081201060619060625000006Astral ID (DEC 2007)                                                                                                        150                                
PRCFAMCHA081201060625060638000013FJR - 05 - HENRY'S WORLD / KING (SEPT08)                                                                                    150                                
PRCFAMCHA081201060638060650000012Family Jr. Bumper - Music (:11- :14) (JUL08)                                                                                150                                
PRCFAMCHA081201060650060659000009CC Disclaimer - FAST - Family.ca (:09-:10)                                                                                  150                                
PGRFAMCHA081201060659063059002400Henry's World                                     EP: 2-020                                                     B81051A1065607GCC                              
PRCFAMCHA081201063059063110000011FJR - 06 - KING (SEPT08)                                                                                                    150                                
PRCFAMCHA081201063110063125000015Family Jr. Bumper - Portal (:14- :17) (JUL08)                                                                               150                                
PRCFAMCHA081201063125063134000009CC Disclaimer - FAST - Generic (:09-:10)                                                                                    150                                
PGRFAMCHA081201063134065404002230King                                              EP: 4-042                                                     C25350 1065607ECC                              
PRCFAMCHA081201065404065410000006Astral ID (DEC 2007)                                                                                                        150                                
PRCFAMCHA081201065410065422000012MMM - 01 - RECESS/PHINEAS (:11 - :13) (OCT08)                                                                               150                                
PROFAMCHA081201065422065440000018Phineas & Ferb (MMM) Phineas Tease - This Morning                                                                           150                                
PROFAMCHA081201065440065520000040Barbie And The Diamond Castle DVD- Available (Nov1                                                                          150                                
PROFAMCHA081201065520065545000025Recess - CAREER DAY (MMM) - (JULY06) - Coming Up N                                                                          150                                
PROFAMCHA081201065545065604000019MadMadMornings Block Open                                                                                                   150                                
PRCFAMCHA081201065604065613000009CC Disclaimer - FAST - Generic (:09-:10)                                                                                    150                                
PGRFAMCHA081201065613071848002235Disney's Recess                                   EP: 1-015                                                            6068607ECC                              
PRCFAMCHA081201071848071900000012MMM - 02 - PHINEAS/WEEKENDERS (:11 - :13) (OCT08)                                                                           150                                
PRCFAMCHA081201071900071947000047Yeti Another Holiday Event Spot - 4 X Day                                                                                   150                                
PROFAMCHA081201071947072027000040Chronicles Of Narnia Prince Caspian DVD - Availabl                                                                          150                                
PROFAMCHA081201072027072054000027Weekenders - CARVER (MMM) This Morning @ 7:50am (N                                                                          150                                
PROFAMCHA081201072054072104000010FAMJAM - Open/Close                                                                                                         150                                
PGRFAMCHA081201072104072234000130MV Disney - (MD/NS/NSW) - Jesse McCartney - Just S                                                                     60688120                                
PROFAMCHA081201072234072248000014xxFAMJAM - Close (FAMILY) xxDNUxx                                                                                           150                                
PROFAMCHA081201072248072300000012Family Bumpers - (Phase 1 Spring 04) - Pillow Figh                                                                          150                                
PROFAMCHA081201072300072340000040Bolt Video Game - Available Now (Nov 18 - Dec 8) $                                                                          150                                
PROFAMCHA081201072340072358000018Phineas & Ferb (MMM) Perry Tease - Coming Up Next                                                                           150                                
PROFAMCHA081201072358072417000019MadMadMornings Block Open                                                                                                   150                                
PRCFAMCHA081201072417072426000009CC Disclaimer - FAST - Family.ca (:09-:10)                                                                                  150                                
PGRFAMCHA081201072426074656002230Phineas & Ferb                                    EP: 07                                                               6068607ECC                              
PRCFAMCHA081201074656074702000006Astral ID (DEC 2007)                                                                                                        150                                
PRCFAMCHA081201074702074714000012MMM - 03 - WEEKENDERS/KIM POSSIBLE (:11 - :13) (OC                                                                          150                                
PRCFAMCHA081201074714074734000020Bullying Cuff Spot Short - 4xDay till Nov 14 & 3xD                                                                          150                                
PROFAMCHA081201074734074814000040Rice Krispies - Strawberry Pop Fly (Nov 17- Dec 14                                                                          150                                
PROFAMCHA081201074814074825000011Kim Possible BAD GUYS (MMM) Today @ 8:20am (OCT08)                                                                          150                                
PROFAMCHA081201074825074858000033Recess - COOTIE SHOTS (MD) - This Morning @ 11:50a                                                                          150                                
PROFAMCHA081201074858074938000040Disney Wish List - Sing It (Nov 24 - Dec 3) $$$                                                                             150                                
PROFAMCHA081201074938075008000030Phineas & Ferb (NSW) Candace Character Sell - New                                                                           150                                
PROFAMCHA081201075008075041000033Weekenders - TINO (MMM) Coming Up Next (NOV08)                                                                              150                                
PROFAMCHA081201075041075100000019MadMadMornings Block Open                                                                                                   150                                
PRCFAMCHA081201075100075109000009CC Disclaimer - FAST - Family.ca (:09-:10)                                                                                  150                                
PGRFAMCHA081201075109081355002246Disney's The Weekenders                           EP: 1-027                                                           A6068607ECC                              
PRCFAMCHA081201081355081407000012MMM - 04 - KIM POSSIBLE (:11 - :13) (OCT08)                                                                                 150                                
PROFAMCHA081201081407081434000027Weekenders - CARVER (MD) This Afternoon @ 12:40pm                                                                           150                                
PROFAMCHA081201081434081519000045Hasbro Little Pet Shop - a MAZE ing Friends Contes                                                                          150                                
PROFAMCHA081201081519081549000030American Dragon Jake Long (MD) HERO - This Afterno                                                                          150                                
PROFAMCHA081201081549081613000024Emperor's New School (MD) ZIT - This Afternoon @ 1                                                                          150                                
PROFAMCHA081201081613081644000031Replacements - GENERIC (MD) This Afternoon @ 3:10p                                                                          150                                
PROFAMCHA081201081644081724000040HSM - The Ice Tour Blast On Sale (Nov 19 - Dec 30)                                                                          150                                
PROFAMCHA081201081724081739000015Kim Possible RON POSSIBLE (MMM) Coming Up Next (OC                                                                          150                                
PROFAMCHA081201081739081758000019MadMadMornings Block Open                                                                                                   150                                
PRCFAMCHA081201081758081807000009CC Disclaimer - FAST - Generic (:09-:10)                                                                                    150                                
PGRFAMCHA081201081807084101002254Disney's Kim Possible - Yr. 4                     EP: 02                                                               6068607ECC                              
PRCFAMCHA081201084101084107000006Astral ID (DEC 2007)                                                                                                        150                                
PRCFAMCHA081201084107084117000010FJR - 07 - LITTLE EINSTEINS/FRANNY'S FEET (:09 - :                                                                          150                                
PROFAMCHA081201084117084223000106PH-D Promo - Little Einsteins June - Starts Monday                                                                          150                                
PROFAMCHA081201084223084303000040Tale Of Desperaux REVISION - In Theatres Dec 19 (D                                                                          150                                
PRCFAMCHA081201084303084338000035Franny's Feet (FJR) GENERIC - This Morning @ 9:10                                                                           150                                
PROFAMCHA081201084338084353000015Handy Manny (FJR) TIME - This Morning @ 10:30 (JUL                                                                          150                                
PROFAMCHA081201084353084408000015Little Einsteins (FJR) GENERIC - Coming Up Next (J                                                                          150                                
PRCFAMCHA081201084408084438000030PH-D Promo - Kid Sell (JUNE 2008)                                                                                           150                                
ID FAMCHA081201084438084453000015Family Jr. Block Open (:14-:17) (JUL08)                                                                                     150                                
PRCFAMCHA081201084453084502000009CC Disclaimer - FAST - Family.ca (:09-:10)                                                                                  150                                
PGRFAMCHA081201084502090907002405Disney's Little Einsteins                         EP: 05                                                               6068607ECC                              
PRCFAMCHA081201090907090917000010FJR - 08 - FRANNY'S FEET/TIGGER & POOH (:09 - :12)                                                                          150                                
PROFAMCHA081201090917090932000015Handy Manny (FJR) HOP UP/JUMP IN SHORT- This Morni                                                                          150                                
PROFAMCHA081201090932091012000040Tale Of Desperaux REVISION - In Theatres Dec 19 (D                                                                          150                                
PRCFAMCHA081201091012091047000035Franny's Feet (FJR) GENERIC - Coming Up Next (JUL0                                                                          150                                
PRCFAMCHA081201091047091058000011Family Jr. Bumper - Acrobat (:10- :13) (JUL08)                                                                              150                                
PRCFAMCHA081201091058091107000009CC Disclaimer - FAST - Generic (:09-:10)                                                                                    150                                
PGRFAMCHA081201091107093337002230Franny's Feet                                     EPS # 37                                                      C23971 1065607ECC                              
PRCFAMCHA081201093337093343000006Astral ID (DEC 2007)                                                                                                        150                                
PRCFAMCHA081201093343093354000011FJR - 09 - TIGGER & POOH/MICKEY MOUSE CLUBHOUSE (:                                                                          150                                
PROFAMCHA081201093354093439000045PH-D Promo - 1st Bday Mexx Parks Contest 2-3xDay (                                                                          150                                
PROFAMCHA081201093439093510000031Mickey Mouse Clubhouse (FJR) GENERIC - This Mornin                                                                          150                                
PROFAMCHA081201093510093540000030Handy Manny (FJR) NEIGHBOURS - This Mornings @ 10:                                                                          150                                
PROFAMCHA081201093540093640000100Tigger and Pooh (FJR) SUPER SLEUTH - Coming Up Nex                                                                          150                                
PRCFAMCHA081201093640093652000012Family Jr. Bumper - Collide (:11- :14) (JUL08)                                                                              150                                
PRCFAMCHA081201093652093701000009CC Disclaimer - FAST - Family.ca (:09-:10)                                                                                  150                                
PGRFAMCHA081201093701100101002400Disney My Friends Tigger and Pooh                 EP: 20                                                               6068607ECC                              
PRCFAMCHA081201100101100112000011FJR - 10 - MICKEY MOUSE CLUBHOUSE/HANDY MANNY (:10                                                                          150                                
PROFAMCHA081201100112100218000106PH-D Promo - Little Einsteins June - Starts Monday                                                                          150                                
PRCFAMCHA081201100218100248000030Benjamin Bear (FJR) GENERIC - This Morning @ 10:55                                                                          150                                
PROFAMCHA081201100248100319000031Mickey Mouse Clubhouse (FJR) GENERIC - Coming Up N                                                                          150                                
PRCFAMCHA081201100319100349000030PH-D Promo - Parent Sell (JUNE 2008)                                                                                        150                                
PRCFAMCHA081201100349100401000012Family Jr. Bumper - Music (:11- :14) (JUL08)                                                                                150                                
ID FAMCHA081201100401100409000008Magic of Disney - PLAYHOUSE - Shape (:06-:09)                                                                               150                                
PRCFAMCHA081201100409100418000009CC Disclaimer - FAST - Generic (:09-:10)                                                                                    150                                
PGRFAMCHA081201100418102818002400Disney's Mickey Mouse Clubhouse                   EP: 11                                                               6068607ECC                              
PRCFAMCHA081201102818102824000006Astral ID (DEC 2007)                                                                                                        150                                
PRCFAMCHA081201102824102835000011FJR - 11 - HANDY MANNY/BENJAMIN BEAR (:10 - :13) (                                                                          150                                
PRCFAMCHA081201102835102905000030Benjamin Bear (FJR) GENERIC - This Morning @ 10:55                                                                          150                                
PROFAMCHA081201102905102945000040Tale Of Desperaux REVISION - In Theatres Dec 19 (D                                                                          150                                
PROFAMCHA081201102945103015000030Imagination Movers (FJR) Tomorrow Morning @ 10:30a                                                                          150                                
PROFAMCHA081201103015103045000030Handy Manny (FJR) HOP UP/JUMP IN - Coming Up Next                                                                           150                                
PRCFAMCHA081201103045103100000015Family Jr. Bumper - Portal (:14- :17) (JUL08)                                                                               150                                
ID FAMCHA081201103100103108000008Magic of Disney - PLAYHOUSE - Wipe (:06-:09)                                                                                150                                
PRCFAMCHA081201103108103117000009CC Disclaimer - FAST - Family.ca (:09-:10)                                                                                  150                                
PGRFAMCHA081201103117105522002405Handy Manny                                       EP: 13                                                               6068607ECC                              
PRCFAMCHA081201105522105533000011FJR - 12 - BENJAMIN BEAR/KING (:10 - :13) (JULY08)                                                                          150                                
PROFAMCHA081201105533105548000015Little Einsteins (FJR) GENERIC - Tomorrow Morning                                                                           150                                
PROFAMCHA081201105548105628000040Tale Of Desperaux REVISION - In Theatres Dec 19 (D                                                                          150                                
PRCFAMCHA081201105628105658000030Benjamin Bear (FJR) GENERIC - Coming Up Next (JUL0                                                                          150                                
PRCFAMCHA081201105658105709000011Family Jr. Bumper - Acrobat (:10- :13) (JUL08)                                                                              150                                
PRCFAMCHA081201105709105718000009CC Disclaimer - FAST - Generic (:09-:10)                                                                                    150                                
PGRFAMCHA081201105718111948002230Secret World of Benjamin Bear, The                EP: 19                                                        C26066 1065607ECC                              
PRCFAMCHA081201111948111954000006Astral ID (DEC 2007)                                                                                                        150                                
PRCFAMCHA081201111954112004000010FJR - 13 - KING/RECESS (:09 - :12) (JULY08)                                                                                 150                                
PROFAMCHA081201112004112035000031PH-D Promo - Web Sell on Family -  24/7 Ooh & Aah                                                                           150                                
PRCFAMCHA081201112035112110000035Franny's Feet (FJR) GENERIC - Tomorrow Morning @ 9                                                                          150                                
PROFAMCHA081201112110112210000100Tigger and Pooh (FJR) SUPER SLEUTH - Tomorrow Morn                                                                          150                                
PROFAMCHA081201112210112241000031Mickey Mouse Clubhouse (FJR) GENERIC - Tomorrow Mo                                                                          150                                
PROFAMCHA081201112241112311000030Imagination Movers (FJR) Tomorrow Morning @ 10:30a                                                                          150                                
PRCFAMCHA081201112311112341000030King (FJR) GENERIC - Coming Up Next (JUL08)                                                                                 150                                
PROFAMCHA081201112341112447000106PH-D Promo - Little Einsteins June - Starts Monday                                                                          150                                
PRCFAMCHA081201112447112459000012Family Jr. Bumper - Collide (:11- :14) (JUL08)                                                                              150                                
PRCFAMCHA081201112459112508000009CC Disclaimer - FAST - Family.ca (:09-:10)                                                                                  150                                
PGRFAMCHA081201112508114738002230King                                              EPS # 031                                                     C25350 1065607ECC                              
PRCFAMCHA081201114738114750000012MD - 01 - RECESS/KIM (:11 - :13) (JULY08)                                                                                   150                                
PROFAMCHA081201114750114820000030American Dragon Jake Long (MD) HERO - This Afterno                                                                          150                                
PROFAMCHA081201114820114846000026Recess (MD) CAREER DAY - Coming Up Next (JULY08)                                                                            150                                
PROFAMCHA081201114846114903000017Mad Dash Block Open (:16-:18) APR06                                                                                         150                                
PRCFAMCHA081201114903114912000009CC Disclaimer - FAST - Generic (:09-:10)                                                                                    150                                
PGRFAMCHA081201114912121146002234Disney's Recess                                   EP: 1-008                                                            6068607ECC                              
PRCFAMCHA081201121146121152000006Astral ID (DEC 2007)                                                                                                        150                                
PRCFAMCHA081201121152121204000012MD - 02 - KIM/WEEKENDERS (:11 - :13) (JULY08)                                                                               150                                
PROFAMCHA081201121204121231000027Weekenders - CARVER (MD) This Afternoon @ 12:40pm                                                                           150                                
PROFAMCHA081201121231121255000024Emperor's New School (MD) ZIT - This Afternoon @ 1                                                                          150                                
PRCFAMCHA081201121255121302000007Family Bumpers - (Phase 2 F/W 04) - Hockey (MD-L/M                                                                          150                                
PROFAMCHA081201121302121332000030Fillmore (MD) LAW & ORDER - This Afternoon @ 1:55                                                                           150                                
PROFAMCHA081201121332121344000012Kim Possible BAD GUYS (MD) Coming Up Next (OCT08)                                                                           150                                
PRCFAMCHA081201121344121400000016MD Bumper - Shopping Race (:15-:17) APR06                                                                                   150                                
PRCFAMCHA081201121400121409000009CC Disclaimer - FAST - Family.ca (:09-:10)                                                                                  150                                
PGRFAMCHA081201121409123658002249Disney's Kim Possible                             EP: 13                                                              A6068607ECC                              
PRCFAMCHA081201123658123711000013MD - 03 - WEEKENDERS/AMERICAN DRAGON (:11 - :13) (                                                                          150                                
PROFAMCHA081201123711123729000018Emperor's New School (MD) BUTT IN URN - This After                                                                          150                                
PROFAMCHA081201123729123751000022Fillmore (MD) POLLY - This Afternoon @ 1:55 (JULY0                                                                          150                                
PROFAMCHA081201123751123821000030Phineas & Ferb (NSW) Candace Character Sell - New                                                                           150                                
PROFAMCHA081201123821123854000033Weekenders - TINO (MD) Coming Up Next (NOV08)                                                                               150                                
PRCFAMCHA081201123854123903000009MD Bumper - Ski Race (:07-:09) APR06                                                                                        150                                
PRCFAMCHA081201123903123913000010CC Disclaimer - FAST - Generic (:09-:10)                                                                                    150                                
PGRFAMCHA081201123913130205002252Disney's The Weekenders                           EP: 1-013                                                           A6068607ECC                              
PRCFAMCHA081201130205130211000006Astral ID (DEC 2007)                                                                                                        150                                
PRCFAMCHA081201130211130222000011MD - 04 - AMERICAN DRAGON/EMPERORS'S (:11 - :13) (                                                                          150                                
PRCFAMCHA081201130222130309000047Yeti Another Holiday Event Spot - 4 X Day                                                                                   150                                
PROFAMCHA081201130309130331000022Fillmore (MD) POLLY - This Afternoon @ 1:55 (JULY0                                                                          150                                
PROFAMCHA081201130331130401000030American Dragon Jake Long (MD) HERO - Coming Up Ne                                                                          150                                
PRCFAMCHA081201130401130409000008MD Bumper - Race Cars (:08-:10) APR06                                                                                       150                                
PRCFAMCHA081201130409130418000009CC Disclaimer - FAST - Family.ca (:09-:10)                                                                                  150                                
PGRFAMCHA081201130418132654002236Disney's American Dragon: Jake Long               EP: 37                                                               6068607ECC                              
PRCFAMCHA081201132654132705000011MD - 05 - EMPEROR'S/FILLMORE (:11 - :13) (JULY08)                                                                           150                                
PRCFAMCHA081201132705132753000048Family Video Player Promo - No Tag 3/day (not in P                                                                          150                                
PROFAMCHA081201132753132815000022Fillmore (MD) POLLY - This Afternoon @ 1:55 (JULY0                                                                          150                                
PROFAMCHA081201132815132827000012Family Bumpers - (Phase 3 Spring 05) - Bake (MD/NS                                                                          150                                
PROFAMCHA081201132827132845000018Emperor's New School (MD) BUTT IN URN - Coming Up                                                                           150                                
PRCFAMCHA081201132845132901000016MD Bumper - Shopping Race (:15-:17) APR06                                                                                   150                                
PRCFAMCHA081201132901132910000009CC Disclaimer - FAST - Generic (:09-:10)                                                                                    150                                
PGRFAMCHA081201132910135146002236Disney's The Emperor's New School                 EP: 08                                                               6068807ECC                              
PRCFAMCHA081201135146135152000006Astral ID (DEC 2007)                                                                                                        150                                
PRCFAMCHA081201135152135203000011MD - 06 - FILLMORE/WEEKENDERS (:11 - :13) (JULY08)                                                                          150                                
PRCFAMCHA081201135203135317000114Bullying Shaftesbury PSA 2 - Black & White 2 x Day                                                                          150                                
PROFAMCHA081201135317135324000007Family Bumpers - (Phase 2 F/W 04) - Snow Twirl (MD                                                                          150                                
PROFAMCHA081201135324135354000030Fillmore (MD) LAW & ORDER - Coming Up Next (AUG08)                                                                          150                                
PRCFAMCHA081201135354135402000008MD Bumper - Ski Race (:07-:09) APR06                                                                                        150                                
PRCFAMCHA081201135402135411000009CC Disclaimer - FAST - Family.ca (:09-:10)                                                                                  150                                
PGRFAMCHA081201135411141649002238Disney's Fillmore!                                EPS # 1-007                                                          6068607ECC                              
PRCFAMCHA081201141649141701000012MD - 07 - WEEKENDERS/KIM (:11 - :13) (JULY08)                                                                               150                                
PROFAMCHA081201141701141716000015Kim Possible BOYFRIEND (MD) This Afternoons @ 2:45                                                                          150                                
PROFAMCHA081201141716141747000031Replacements - GENERIC (MD) This Afternoon @ 3:10p                                                                          150                                
PROFAMCHA081201141747141821000034Proud Family - GET BURNED (MD) This Afternoon @ 4:                                                                          150                                
PROFAMCHA081201141821141854000033Weekenders - TINO (MD) Coming Up Next (NOV08)                                                                               150                                
PRCFAMCHA081201141854141903000009MD Bumper - Race Cars (:08-:10) APR06                                                                                       150                                
PRCFAMCHA081201141903141912000009CC Disclaimer - FAST - Family.ca (:09-:10)                                                                                  150                                
PGRFAMCHA081201141912144144002232Disney's The Weekenders                           EP: 1-021                                                           A6068607ECC                              
PRCFAMCHA081201144144144150000006Astral ID (DEC 2007)                                                                                                        150                                
PRCFAMCHA081201144150144202000012MD - 08 - KIM/REPLACEMENTS (:11 - :13) (JULY08)                                                                             150                                
PROFAMCHA081201144202144220000018Emperor's New School (MD) BUTT IN UR - This Aftern                                                                          150                                
PROFAMCHA081201144220144300000040Chronicles Of Narnia Prince Caspian DVD - Availabl                                                                          150                                
PROFAMCHA081201144300144330000030Phineas & Ferb (NSW) Candace Character Sell - New                                                                           150                                
PROFAMCHA081201144330144342000012Kim Possible BAD GUYS (MD) Coming Up Next (OCT08)                                                                           150                                
PRCFAMCHA081201144342144358000016MD Bumper - Shopping Race (:15-:17) APR06                                                                                   150                                
PRCFAMCHA081201144358144407000009CC Disclaimer - FAST - Generic (:09-:10)                                                                                    150                                
PGRFAMCHA081201144407150700002253Disney's Kim Possible                             EPS # 1-053                                                          6068607ECC                              
PRCFAMCHA081201150700150712000012MD - 09 - REPLACEMENTS/EMPEROR (:11 - :13) (JULY08                                                                          150                                
PROFAMCHA081201150712150801000049Proud Family (MD) STRIKE - This Afternoon @ 4:10 (                                                                          150                                
PROFAMCHA081201150801150841000040Barbie And The Diamond Castle DVD- Available (Nov1                                                                          150                                
PRCFAMCHA081201150841151046000205Bullying Stand Up Music Video PSA 3-4 X Day (Oct 1                                                                          150                                
PROFAMCHA081201151046151126000040Rice Krispies - Strawberry Pop Fly (Nov 17- Dec 14                                                                          150                                
PROFAMCHA081201151126151155000029Replacements (MD) BABYSITTER - Coming Up Next (JUL                                                                          150                                
PRCFAMCHA081201151155151203000008MD Bumper - Ski Race (:07-:09) APR06                                                                                        150                                
PRCFAMCHA081201151203151212000009CC Disclaimer - FAST - Family.ca (:09-:10)                                                                                  150                                
PGRFAMCHA081201151212153442002230The Replacements                                  EP: 14                                                               6068607ECC                              
PRCFAMCHA081201153442153448000006Astral ID (DEC 2007)                                                                                                        150                                
PRCFAMCHA081201153448153500000012MD - 10 - EMPEROR/PROUD FAMILY (:11 - :13) (JULY08                                                                          150                                
PRCFAMCHA081201153500153550000050Family Online Community Promo - 3/4 Day (not in PH                                                                          150                                
PROFAMCHA081201153550153630000040Bolt Video Game - Available Now (Nov 18 - Dec 8) $                                                                          150                                
PROFAMCHA081201153630153705000035Proud Family - IDOL (MD) This Afternoon @ 4:10pm (                                                                          150                                
PROFAMCHA081201153705153755000050HSM Ice Tour Flight 2 Family First ONSALE (Nov 26                                                                           150                                
PROFAMCHA081201153755153826000031Replacements - GENERIC (MD) New Eps - Friday After                                                                          150                                
PROFAMCHA081201153826153906000040Horton Hears A Who DVD Blast - Available Dec 9 (De                                                                          150                                
PROFAMCHA081201153906153950000044Emperor's New School (MD) KUZCO - Coming Up Next (                                                                          150                                
PRCFAMCHA081201153950154006000016MD Bumper - Shopping Race (:15-:17) APR06                                                                                   150                                
PRCFAMCHA081201154006154015000009CC Disclaimer - FAST - Generic (:09-:10)                                                                                    150                                
PGRFAMCHA081201154015160251002236Disney's The Emperor's New School                 EP: 10                                                               6068807ECC                              
PRCFAMCHA081201160251160303000012MD - 11 - PROUD FAMILY/RECESS (:11 - :13) (JULY08)                                                                          150                                
PRCFAMCHA081201160303160338000035Family First Overall Promo - 3/4 Per Day (Sept.6 -                                                                          150                                
PROFAMCHA081201160338160418000040Horton Hears A Who DVD Blast - Available Dec 9 (De                                                                          150                                
PROFAMCHA081201160418160444000026Recess (MD) CAREER DAY - This Afternoon @ 4:35 (JU                                                                          150                                
PROFAMCHA081201160444160544000100Sony BMG Tween Artists Blast (Dec 1 - 14) $$$                                                                               150                                
PROFAMCHA081201160544160616000032Suite Life of Z & C (MD) IMPRESS - This Afternoon                                                                           150                                
PROFAMCHA081201160616160656000040HSM - The Ice Tour Blast On Sale (Nov 19 - Dec 30)                                                                          150                                
PROFAMCHA081201160656160745000049Proud Family (MD) STRIKE - Coming Up Next (JULY08)                                                                          150                                
PRCFAMCHA081201160745160754000009MD Bumper - Race Cars (:08-:10) APR06                                                                                       150                                
ID FAMCHA081201160754160802000008Magic of Disney - MAD DASH - Wipe (:06-:09)                                                                                 150                                
PRCFAMCHA081201160802160811000009CC Disclaimer - FAST - Family.ca (:09-:10)                                                                                  150                                
PGRFAMCHA081201160811163056002245The Proud Family                                  EP: 1-019                                                           A6068607ECC                              
PRCFAMCHA081201163056163102000006Astral ID (DEC 2007)                                                                                                        150                                
PRCFAMCHA081201163102163114000012MD - 12 - RECESS/SUITE LIFE (:11 - :13) (JULY08)                                                                            150                                
PRCFAMCHA081201163114163201000047Yeti Another Holiday Event Spot - 4 X Day                                                                                   150                                
PROFAMCHA081201163201163241000040HSM - The Ice Tour Blast On Sale (Nov 19 - Dec 30)                                                                          150                                
PROFAMCHA081201163241163312000031Suite Life of Z & C (MD) TONY HAWK - This Afternoo                                                                          150                                
PROFAMCHA081201163312163352000040Rice Krispies - Strawberry Pop Fly (Nov 17- Dec 14                                                                          150                                
PROFAMCHA081201163352163421000029Hannah Montana - SUPER AWESOME (MD) This Afternoon                                                                          150                                
PROFAMCHA081201163421163451000030Phineas & Ferb (NSW) Candace Character Sell - New                                                                           150                                
PROFAMCHA081201163451163526000035Barbie Pass - Rock Out & B Yourself (Nov 17- Dec 1                                                                          150                                
PROFAMCHA081201163526163559000033Recess - COOTIE SHOTS (MD) - Coming Up Next (NOV08                                                                          150                                
PRCFAMCHA081201163559163607000008MD Bumper - Ski Race (:07-:09) APR06                                                                                        150                                
PRCFAMCHA081201163607163616000009CC Disclaimer - FAST - Generic (:09-:10)                                                                                    150                                
PGRFAMCHA081201163616165851002235Disney's Recess                                   EP: 1-024                                                            6068607ECC                              
PRCFAMCHA081201165851165903000012MD - 13 - SUITE LIFE/HANNAH (:11 - :13) (JULY08)                                                                            150                                
PROFAMCHA081201165903165935000032Hannah Montana - WIG AUDITIONS (MD) This Afternoon                                                                          150                                
PROFAMCHA081201165935170015000040Chronicles Of Narnia Prince Caspian DVD - Availabl                                                                          150                                
PRCFAMCHA081201170015170035000020Bullying Cuff Spot Short - 4xDay till Nov 14 & 3xD                                                                          150                                
PROFAMCHA081201170035170107000032Kim Possible RON FACTOR (MD) (July 06)  Tomorrow a                                                                          150                                
PROFAMCHA081201170107170157000050HSM Ice Tour Flight 2 Family First ONSALE (Nov 26                                                                           150                                
PROFAMCHA081201170157170228000031Replacements - GENERIC (MD) New Eps - Friday After                                                                          150                                
PROFAMCHA081201170228170308000040Hasbro U-Dance - Step Into The Game Contest (Nov 1                                                                          150                                
PROFAMCHA081201170308170340000032Suite Life of Z & C (MD) Wonderful Hotel - Coming                                                                           150                                
PRCFAMCHA081201170340170356000016MD Bumper - Shopping Race (:15-:17) APR06                                                                                   150                                
ID FAMCHA081201170356170404000008Magic of Disney - MAD DASH - Shape (:06-:09)                                                                                150                                
PRCFAMCHA081201170404170413000009CC Disclaimer - FAST - Family.ca (:09-:10)                                                                                  150                                
PGRFAMCHA081201170413172653002240Suite Life of Zack & Cody, The                    EP: 01                                                               6068607BCC                              
PRCFAMCHA081201172653172659000006Astral ID (DEC 2007)                                                                                                        150                                
PRCFAMCHA081201172659172711000012MD - 14 - HANNAH/ZOEY (:11 - :13) (JULY08)                                                                                  150                                
PROFAMCHA081201172711172751000040Zoey 101 (NS) SAFETY CUPCAKE - Tonight @ 6pm (MAR0                                                                          150                                
PROFAMCHA081201172751172831000040Barbie And The Diamond Castle DVD- Available (Nov1                                                                          150                                
PRCFAMCHA081201172831172901000030Life W D (NS) A WHOLE NEW DEREK - Tonight @ 6:30pm                                                                          150                                
PROFAMCHA081201172901173001000100Sony BMG Tween Artists Blast (Dec 1 - 14) $$$                                                                               150                                
PROFAMCHA081201173001173014000013Family Bumpers - (Phase 2 F/W 04) - Leaves (PB/MD-                                                                          150                                
PROFAMCHA081201173014173046000032Suite Life of Z & C (NS) Wonderful Hotel - Tonight                                                                          150                                
PROFAMCHA081201173046173121000035Barbie Pass - Rock Out & B Yourself (Nov 17- Dec 1                                                                          150                                
PROFAMCHA081201173121173150000029Hannah Montana (MD) SCIENCE - Coming Up Next (JULY                                                                          150                                
PRCFAMCHA081201173150173159000009MD Bumper - Race Cars (:08-:10) APR06                                                                                       150                                
ID FAMCHA081201173159173207000008Magic of Disney - MAD DASH - Shape (:06-:09)                                                                                150                                
PRCFAMCHA081201173207173216000009CC Disclaimer - FAST - Generic (:09-:10)                                                                                    150                                
PGRFAMCHA081201173216175452002236Hannah Montana - Season 2                         EP: 01                                                               6068807BCC                              
PRCFAMCHA081201175452175504000012NS - 01 - ZOEY 101/DEREK (:11 - :13) (MARCH08)                                                                              150                                
PROFAMCHA081201175504175534000030Wizards of Waverrly Place ALEX (NS) - Tonight @7.0                                                                          150                                
PROFAMCHA081201175534175614000040Rice Krispies - Strawberry Pop Fly (Nov 17- Dec 14                                                                          150                                
PROFAMCHA081201175614175643000029Hannah Montana - SUPER AWESOME (NS) New Eps - Fri                                                                           150                                
PROFAMCHA081201175643175728000045Hasbro Little Pet Shop - a MAZE ing Friends Contes                                                                          150                                
PGRFAMCHA081201175728175838000110Suite Life on Deck - Blooper 1 - Weekend Afternoon                                                                    A60688120                                
PROFAMCHA081201175838175923000045Bratz World! (Nov 10 - Dec 15) $$$                                                                                          150                                
PROFAMCHA081201175923175948000025Zoey 101 - BOOTH (NS) Coming Up Next (SEPT08)                                                                               150                                
PROFAMCHA081201175948180005000017Nonstop Block Open (:16-:18) APR06                                                                                          150                                
PRCFAMCHA081201180005180014000009CC Disclaimer - FAST - Family.ca (:09-:10)                                                                                  150                                
PGRFAMCHA081201180014182346002332Zoey 101                                          EP: 22                                                              A2068807BCC                              
PRCFAMCHA081201182346182352000006Astral ID (DEC 2007)                                                                                                        150                                
PRCFAMCHA081201182352182404000012NS - 02 - DEREK/WIZARDS (:11 - :13) (OCT08)                                                                                 150                                
PROFAMCHA081201182404182434000030Wizards of Waverrly Place JUSTIN (NS) - Tonight @                                                                           150                                
PROFAMCHA081201182434182514000040Bolt Video Game - Available Now (Nov 18 - Dec 8) $                                                                          150                                
PROFAMCHA081201182514182554000040Zoey 101 (NS) SAFETY CUPCAKE - NEW EPISODE - Frida                                                                          150                                
PROFAMCHA081201182554182644000050HSM Ice Tour Flight 2 Family First ONSALE (Nov 26                                                                           150                                
PRCFAMCHA081201182644182822000138Bullying Shaftesbury PSA 1 - Michael Seater 1 x Da                                                                          150                                
PROFAMCHA081201182822182902000040Hasbro U-Dance - Step Into The Game Contest (Nov 1                                                                          150                                
PRCFAMCHA081201182902182945000043Life W Derek (NS) Trailer Generic - Coming Up Next                                                                          150                                
PRCFAMCHA081201182945183001000016NS Bumper - Tennis (:15-:17) APR06                                                                                          150                                
PRCFAMCHA081201183001183010000009CC Disclaimer - FAST - Generic (:09-:10)                                                                                    150                                
PGRFAMCHA081201183010185240002230Life with Derek                                   EP: 26                                                        C26822 1055607BCC3                             
PRCFAMCHA081201185240185252000012NS - 03 - WIZARDS/RAVEN (:11 - :13) (OCT08)                                                                                 150                                
PRCFAMCHA081201185252185340000048Family Video Player Promo - No Tag 3/day (not in P                                                                          150                                
PROFAMCHA081201185340185434000054That's So Raven FORTUNE TELLER (NS) Tonight @ 7:30                                                                          150                                
PROFAMCHA081201185434185514000040Disney Wish List - Sing It (Nov 24 - Dec 3) $$$                                                                             150                                
PROFAMCHA081201185514185611000057Suite Life of Z & C FABULOUS LIFESTYLES (NS) Tonig                                                                          150                                
PRCFAMCHA081201185611185741000130Movie Entertainment (8)                                                                                                     150                                
PROFAMCHA081201185741185811000030Wizards of Waverrly Place SIBLING (NS) - Coming up                                                                          150                                
PROFAMCHA081201185811185856000045Bratz World! (Nov 10 - Dec 15) $$$                                                                                          150                                
PRCFAMCHA081201185856185943000047Yeti Another Holiday Event Spot - 4 X Day                                                                                   150                                
PRCFAMCHA081201185943185956000013NS Bumper - Fashion (:12-:14) APR06                                                                                         150                                
PRCFAMCHA081201185956190005000009CC Disclaimer - FAST - Family.ca (:09-:10)                                                                                  150                                
PGRFAMCHA081201190005192236002231Disney Wizards of Waverly Place                   EP: 13                                                               6068607BCC                              
PRCFAMCHA081201192236192242000006Astral ID (DEC 2007)                                                                                                        150                                
PRCFAMCHA081201192242192254000012NS - 04 - RAVEN/SUITE LIFE (:11 - :13) (OCT08)                                                                              150                                
PRCFAMCHA081201192254192329000035Family First Overall Promo - 3/4 Per Day (Sept.6 -                                                                          150                                
PROFAMCHA081201192329192401000032Suite Life of Z & C (NS) Wonderful Hotel - Tonight                                                                          150                                
PROFAMCHA081201192401192501000100Sony BMG Tween Artists Blast (Dec 1 - 14) $$$                                                                               150                                
PRCFAMCHA081201192501192541000040Naturally Sadie - ROMANTIC (NS) Tonight @ 8:30pm (                                                                          150                                
PROFAMCHA081201192541192610000029Hannah Montana SCIENCE (NS) - New Eps Friday's @ 5                                                                          150                                
PROFAMCHA081201192610192620000010FAMJAM - Open/Close                                                                                                         150                                
PGRFAMCHA081201192620192750000130MV Disney - (MD/NS/NSW) - Jesse McCartney - Just S                                                                     60688120                                
PROFAMCHA081201192750192804000014xxFAMJAM - Close (FAMILY) xxDNUxx                                                                                           150                                
PROFAMCHA081201192804192832000028Suite Life on Deck PREMISE (NSW) NEW EPS Sunday Af                                                                          150                                
PRCFAMCHA081201192832192902000030Life W D (NSW) A WHOLE NEW DEREK - NEW EPS Sunday                                                                           150                                
PROFAMCHA081201192902192942000040Hasbro U-Dance - Step Into The Game Contest (Nov 1                                                                          150                                
PROFAMCHA081201192942192948000006Raven ID's II - Stay tuned, That's So Raven Coming                                                                          150                                
PRCFAMCHA081201192948192956000008NS Bumper - Dodgeball (:07-:09) APR06                                                                                       150                                
ID FAMCHA081201192956193004000008Magic of Disney - NS/NSW/PB - Wipe (:06-:09)                                                                                150                                
PRCFAMCHA081201193004193013000009CC Disclaimer - FAST - Generic (:09-:10)                                                                                    150                                
PGRFAMCHA081201193013195252002239That's So Raven                                   EPS # 1-046                                                          6068607BCC                              
PRCFAMCHA081201195252195303000011NS - 05 - SUITE LIFE 8:00/SADIE 8:30 (:11 - :13) (                                                                          150                                
PRCFAMCHA081201195303195323000020Bullying Cuff Spot Short - 4xDay till Nov 14 & 3xD                                                                          150                                
PROFAMCHA081201195323195408000045Hasbro Little Pet Shop - a MAZE ing Friends Contes                                                                          150                                
PRCFAMCHA081201195408195437000029Naturally Sadie - CLIP (NS) Tonight @ 8:30pm (MARC                                                                          150                                
PROFAMCHA081201195437195447000010FAMJAM - Open/Close                                                                                                         150                                
PGRFAMCHA081201195447195744000257MV - Brett Ryan - If It Feels Right (JUN08)                                                                            20688120                                
PROFAMCHA081201195744195758000014xxFAMJAM - Close (FAMILY) xxDNUxx                                                                                           150                                
PROFAMCHA081201195758195827000029Hannah Montana - SUPER AWESOME (NS) Tonight @ 9pm                                                                           150                                
PROFAMCHA081201195827195912000045Bratz World! (Nov 10 - Dec 15) $$$                                                                                          150                                
PROFAMCHA081201195912195943000031Suite Life of Z & C (NS) TONY HAWK - Coming Up Nex                                                                          150                                
PRCFAMCHA081201195943195959000016NS Bumper - Tennis (:15-:17) APR06                                                                                          150                                
ID FAMCHA081201195959200007000008Magic of Disney - NS/NSW/PB - Shape (:06-:09)                                                                               150                                
PRCFAMCHA081201200007200016000009CC Disclaimer - FAST - Family.ca (:09-:10)                                                                                  150                                
PGRFAMCHA081201200016202255002239Suite Life of Zack & Cody, The                    EP: 10                                                               6068607BCC                              
PRCFAMCHA081201202255202301000006Astral ID (DEC 2007)                                                                                                        150                                
PRCFAMCHA081201202301202314000013NS - 06 - N. SADIE/HANNAH M (:11 - :13) (MARCH08)                                                                           150                                
PRCFAMCHA081201202314202349000035Family First Overall Promo - 3/4 Per Day (Sept.6 -                                                                          150                                
PROFAMCHA081201202349202429000040Chronicles Of Narnia Prince Caspian DVD - Availabl                                                                          150                                
PROFAMCHA081201202429202531000102Hannah Montana (NS) Mockumentry - Tonight @ 9pm (J                                                                          150                                
PGRFAMCHA081201202531202731000200MS - Bolt Interstitial #2 - Now Playing (Till Nov                                                                     A60688120                                
PROFAMCHA081201202731202743000012Family Bumpers - (Phase 3 Spring 05) - Bake (MD/NS                                                                          150                                
PROFAMCHA081201202743202826000043Ned's DSSG (NS) Too Cool for School  - Tonight @ 1                                                                          150                                
PROFAMCHA081201202826202911000045Bratz World! (Nov 10 - Dec 15) $$$                                                                                          150                                
PRCFAMCHA081201202911202947000036Naturally Sadie - TEENAGER (NS) Coming Up Next (MA                                                                          150                                
PRCFAMCHA081201202947203000000013NS Bumper - Fashion (:12-:14) APR06                                                                                         150                                
PRCFAMCHA081201203000203009000009CC Disclaimer - FAST - Generic (:09-:10)                                                                                    150                                
PGRFAMCHA081201203009205239002230Naturally, Sadie                                  EP: 57                                                        C29639 1055607ACC3                             
PRCFAMCHA081201205239205250000011NS - 07 - HANNAH M/DEREK (:11 - :13) (MARCH08)                                                                              150                                
PRCFAMCHA081201205250205320000030Life W D (NS) A WHOLE NEW DEREK - Tonight @ 9:30pm                                                                          150                                
PROFAMCHA081201205320205355000035Barbie Pass - Rock Out & B Yourself (Nov 17- Dec 1                                                                          150                                
PRCFAMCHA081201205355205600000205Bullying Stand Up Music Video PSA 3-4 X Day (Oct 1                                                                          150                                
PROFAMCHA081201205600205610000010FAMJAM - Open/Close                                                                                                         150                                
PGRFAMCHA081201205610205740000130Jonas Brothers Burning Up Music Video/ Camp Rock B                                                                     60688120                                
PROFAMCHA081201205740205754000014xxFAMJAM - Close (FAMILY) xxDNUxx                                                                                           150                                
PROFAMCHA081201205754205834000040Zoey 101 (NS) SAFETY CUPCAKE - NEW EPISODE - Frida                                                                          150                                
PROFAMCHA081201205834205919000045Bratz World! (Nov 10 - Dec 15) $$$                                                                                          150                                
PROFAMCHA081201205919205953000034Hannah Montana (NS) Wig Auditions - Coming Up Next                                                                          150                                
PRCFAMCHA081201205953210001000008NS Bumper - Dodgeball (:07-:09) APR06                                                                                       150                                
ID FAMCHA081201210001210009000008Magic of Disney - MAD DASH - Shape (:06-:09)                                                                                150                                
PRCFAMCHA081201210009210018000009CC Disclaimer - SLOW - Family.ca (:09-:10)                                                                                  150                                
PGRFAMCHA081201210018212256002238Hannah Montana                                    EP: 07                                                               6068807BCC                              
PRCFAMCHA081201212256212302000006Astral ID (DEC 2007)                                                                                                        150                                
PRCFAMCHA081201212302212314000012NS - 08 - DEREK/NED'S (:11 - :13) (MARCH08)                                                                                 150                                
PRCFAMCHA081201212314212401000047Yeti Another Holiday Event Spot - 4 X Day                                                                                   150                                
PROFAMCHA081201212401212446000045Walmart/Family Favourites Holiday CD (Nov 18 - Jan                                                                          150                                
PROFAMCHA081201212446212529000043Ned's DSSG (NS) Too Cool for School  - Tonight @ 1                                                                          150                                
PROFAMCHA081201212529212629000100Cory In The House - Cory vs. Sophie (NS) Tonight @                                                                          150                                
PROFAMCHA081201212629212658000029Hannah Montana SCIENCE (NS) - New Eps Friday's @ 5                                                                          150                                
PRCFAMCHA081201212658212812000114Bullying Shaftesbury PSA 2 - Black & White 2 x Day                                                                          150                                
PRCFAMCHA081201212812212855000043Life W Derek (NS) Trailer Generic - Coming Up Next                                                                          150                                
PRCFAMCHA081201212855212945000050Family Online Community Promo - 3/4 Day (not in PH                                                                          150                                
PRCFAMCHA081201212945213001000016NS Bumper - Tennis (:15-:17) APR06                                                                                          150                                
PRCFAMCHA081201213001213010000009CC Disclaimer - FAST - Generic (:09-:10)                                                                                    150                                
PGRFAMCHA081201213010215240002230Life with Derek                                   EP: 05                                                        C26822 1055607BCC3                             
PRCFAMCHA081201215240215252000012NS - 09 - NEDS/CORY IN THE HOUSE (:11 - :13) (SEPT                                                                          150                                
PROFAMCHA081201215252215325000033Cory In The House (NS) WHAT THEY'RE SAYING - Tonig                                                                          150                                
PROFAMCHA081201215325215357000032Latest Buzz - HEADLINES (NS) NEW EPS Friday Nights                                                                          150                                
PROFAMCHA081201215357215442000045Suite Life on Deck TWINS (NSW) NEW EPS Sunday Afte                                                                          150                                
PROFAMCHA081201215442215452000010FAMJAM - Open/Close                                                                                                         150                                
PGRFAMCHA081201215452215731000239MV Disney - (MD/NS/NSW) - Jesse McCartney - Just S                                                                     20688120                                
PROFAMCHA081201215731215745000014xxFAMJAM - Close (FAMILY) xxDNUxx                                                                                           150                                
PRCFAMCHA081201215745215815000030Life W D (NSW) A WHOLE NEW DEREK - NEW EPS Sunday                                                                           150                                
PROFAMCHA081201215815215900000045Walmart/Family Favourites Holiday CD (Nov 18 - Jan                                                                          150                                
PROFAMCHA081201215900215943000043Ned's DSSG (NS) Too Cool for School  - Coming Up N                                                                          150                                
PRCFAMCHA081201215943215956000013NS Bumper - Fashion (:12-:14) APR06                                                                                         150                                
PRCFAMCHA081201215956220005000009CC Disclaimer - SLOW - Family.ca (:09-:10)                                                                                  150                                
PGRFAMCHA081201220005222421002416Ned's Declassified School Survival Guide          EP: 53                                                               2068807BCC                              
PRCFAMCHA081201222421222427000006Astral ID (DEC 2007)                                                                                                        150                                
PRCFAMCHA081201222427222439000012NS - 10 - CORY IN THE HOUSE/SUITE LIFE (:11 - :13)                                                                          150                                
PRCFAMCHA081201222439222456000017Family First Generic Throw - Promo SHORT VERSION -                                                                          150                                
PROFAMCHA081201222456222528000032Suite Life of Z & C (NS) Wonderful Hotel - Tonight                                                                          150                                
PRCFAMCHA081201222528222557000029Naturally Sadie - CLIP (NSW) Tonight @ 12:00am (MA                                                                          150                                
PROFAMCHA081201222557222607000010FAMJAM - Open/Close                                                                                                         150                                
PGRFAMCHA081201222607222809000202MV NON-DISNEY (MD/NS/NSW) - Roxy Hunter - I'll Fig                                                                     20688120                                
PROFAMCHA081201222809222823000014xxFAMJAM - Close (FAMILY) xxDNUxx                                                                                           150                                
PROFAMCHA081201222823222840000017Zoey 101 (NS)  ZOEY, ZOEY, ZOEY - Tomorrow Night @                                                                          150                                
PROFAMCHA081201222840222910000030Wizards of Waverrly Place ALEX (NS) - Tomorrow Nig                                                                          150                                
PROFAMCHA081201222910222953000043Cory In The House (NS) Coming Up Next (SEPT07)                                                                              150                                
PRCFAMCHA081201222953223001000008NS Bumper - Dodgeball (:07-:09) APR06                                                                                       150                                
ID FAMCHA081201223001223009000008Magic of Disney - NS/NSW/PB - Wipe (:06-:09)                                                                                150                                
PRCFAMCHA081201223009223018000009CC Disclaimer - SLOW - Generic (:09 -:10)                                                                                   150                                
PGRFAMCHA081201223018225256002238Cory in the House                                 EP: 08                                                               6068607BCC                              
PRCFAMCHA081201225256225308000012NS - 11 - SUITE LIFE/LIFE WITH DEREK (:11 - :13) (                                                                          150                                
PRCFAMCHA081201225308225338000030Life W D (NS) A WHOLE NEW DEREK - Tonight @ 11:30p                                                                          150                                
PROFAMCHA081201225338225405000027That's So Raven CLIP (NS) Tomorrow Night @ 7:30pm                                                                           150                                
PROFAMCHA081201225405225415000010FAMJAM - Open/Close                                                                                                         150                                
PGRFAMCHA081201225415225825000410MV Disney - (MD/NS/NSW) - Jesse McCartney - Just S                                                                     60688120                                
PROFAMCHA081201225825225839000014xxFAMJAM - Close (FAMILY) xxDNUxx                                                                                           150                                
PROFAMCHA081201225839225908000029Hannah Montana SCIENCE (NS) - New Eps Friday's @ 5                                                                          150                                
PROFAMCHA081201225908225939000031Suite Life of Z & C (NS) TONY HAWK - Coming Up Nex                                                                          150                                
PRCFAMCHA081201225939225955000016NS Bumper - Tennis (:15-:17) APR06                                                                                          150                                
ID FAMCHA081201225955230003000008Magic of Disney - NS/NSW/PB - Shape (:06-:09)                                                                               150                                
PRCFAMCHA081201230003230012000009CC Disclaimer - SLOW - Family.ca (:09-:10)                                                                                  150                                
PGRFAMCHA081201230012232251002239Suite Life of Zack & Cody, The                    EP: 21                                                               6068607BCC                              
PRCFAMCHA081201232251232257000006Astral ID (DEC 2007)                                                                                                        150                                
PRCFAMCHA081201232257232310000013NS - 12 - LIFE WITH DEREK/SADIE (:11 - :13) (SEPT0                                                                          150                                
PRCFAMCHA081201232310232357000047Yeti Another Holiday Event Spot - 4 X Day                                                                                   150                                
PROFAMCHA081201232357232427000030Wizards of Waverrly Place JUSTIN (NS) - Tomorrow N                                                                          150                                
PRCFAMCHA081201232427232557000130Movie Entertainment (8)                                                                                                     150                                
PROFAMCHA081201232557232651000054That's So Raven FORTUNE TELLER (NS) Tomorrow Night                                                                          150                                
PGRFAMCHA081201232651232901000210Suite Life on Deck - Blooper 2 - Weekend Afternoon                                                                    A60688120                                
PROFAMCHA081201232901232941000040Zoey 101 (NS) SAFETY CUPCAKE - NEW EPISODE - Frida                                                                          150                                
PRCFAMCHA081201232941233008000027Life W D (NS) CLIP - Coming Up Next (JULY08)                                                                                150                                
PRCFAMCHA081201233008233021000013NS Bumper - Fashion (:12-:14) APR06                                                                                         150                                
PRCFAMCHA081201233021233030000009CC Disclaimer - SLOW - Generic (:09 -:10)                                                                                   150                                
PGRFAMCHA081201233030235300002230Life with Derek                                   EP: 26                                                        C26822 1065607BCC                              
PRCFAMCHA081201235300235311000011NS - 13 - SADIE/SADIE (:11 - :13) (SEPT07)                                                                                  150                                
PRCFAMCHA081201235311235401000050Family Online Community Promo - 3/4 Day (not in PH                                                                          150                                
PRCFAMCHA081201235401235539000138Bullying Shaftesbury PSA 1 - Michael Seater 1 x Da                                                                          150                                
PROFAMCHA081201235539235611000032Suite Life of Z & C (NS) IMPRESS - Tomrorrow Night                                                                          150                                
PROFAMCHA081201235611235621000010FAMJAM - Open/Close                                                                                                         150                                
PGRFAMCHA081201235621235721000100MV Disney - (MD/NS/NSW) - Jesse McCartney - Just S                                                                     60688120                                
PROFAMCHA081201235721235735000014xxFAMJAM - Close (FAMILY) xxDNUxx                                                                                           150                                
PROFAMCHA081201235735235818000043Ned's DSSG (NS) Too Cool for School  - Tomorrow Ni                                                                          150                                
PROFAMCHA081201235818235918000100Cory In The House - Cory vs. Sophie (NS) Tomorrow                                                                           150                                
PRCFAMCHA081201235918235954000036Naturally Sadie - TEENAGER (NS) Coming Up Next (MA                                                                          150                                
PRCFAMCHA081201235954000002000008NS Bumper - Dodgeball (:07-:09) APR06                                                                                       150                                
PRCFAMCHA081201000002000011000009CC Disclaimer - SLOW - Family.ca (:09-:10)                                                                                  150                                
PGRFAMCHA081201000011002241002230Naturally, Sadie                                  EP: 59                                                        C29639 1065607ACC                              
PRCFAMCHA081201002241002247000006Astral ID (DEC 2007)                                                                                                        150                                
PRCFAMCHA081201002247002300000013NS - 14 - SADIE/HANNAH (:11 - :13) (SEPT07)                                                                                 150                                
PRCFAMCHA081201002300002505000205Bullying Stand Up Music Video PSA 3-4 X Day (Oct 1                                                                          150                                
PROFAMCHA081201002505002545000040Zoey 101 (NS) SAFETY CUPCAKE - NEW EPISODE - Tomor                                                                          150                                
PROFAMCHA081201002545002615000030Wizards of Waverrly Place ALEX (NS) - Tomorrow Nig                                                                          150                                
PROFAMCHA081201002615002656000041Hannah Montana - EVERYWHERE (NS) Tomorrow Night @                                                                           150                                
PROFAMCHA081201002656002706000010FAMJAM - Open/Close                                                                                                         150                                
PGRFAMCHA081201002706002806000100MV Disney - (MD/NS/NSW) - Jesse McCartney - Just S                                                                     60688120                                
PROFAMCHA081201002806002820000014xxFAMJAM - Close (FAMILY) xxDNUxx                                                                                           150                                
PROFAMCHA081201002820002852000032Latest Buzz - HEADLINES (NS) NEW EPS Friday Nights                                                                          150                                
PRCFAMCHA081201002852002922000030Life W D (NSW) A WHOLE NEW DEREK - NEW EPS Sunday                                                                           150                                
PRCFAMCHA081201002922003002000040Naturally Sadie - ROMANTIC (NS) Coming Up Next (MA                                                                          150                                
PRCFAMCHA081201003002003018000016NS Bumper - Tennis (:15-:17) APR06                                                                                          150                                
PRCFAMCHA081201003018003027000009CC Disclaimer - SLOW - Generic (:09 -:10)                                                                                   150                                
PGRFAMCHA081201003027005257002230Naturally, Sadie                                  EP: 29                                                        C25428 1065607ACC                              
PRCFAMCHA081201005257005309000012NS - 15 - HANNAH/CORY (:11 - :13) (OCT08)                                                                                   150                                
PRCFAMCHA081201005309005326000017Family First Generic Throw - Promo SHORT VERSION -                                                                          150                                
PRCFAMCHA081201005326005404000038Life W D (NS) Edwin Mystery Man - Tomorrow Night @                                                                          150                                
PRCFAMCHA081201005404005424000020Bullying Cuff Spot Short - 4xDay till Nov 14 & 3xD                                                                          150                                
PROFAMCHA081201005424005507000043Ned's DSSG (NS) Too Cool for School  - Tomorrow Ni                                                                          150                                
PROFAMCHA081201005507005607000100Cory In The House - Cory vs. Sophie (NS) Tomorrow                                                                           150                                
PRCFAMCHA081201005607005614000007Family Bumpers - (Phase 2 F/W 04) - Hockey (MD-L/M                                                                          150                                
PROFAMCHA081201005614005654000040Zoey 101 (NS) SAFETY CUPCAKE - NEW EPISODE - Frida                                                                          150                                
PROFAMCHA081201005654005722000028Suite Life on Deck PREMISE (NSW) NEW EPS Sunday Af                                                                          150                                
PROFAMCHA081201005722005758000036Flight 29 Down - (NSW) Weekend Nights @ 6:30pm (JU                                                                          150                                
PROFAMCHA081201005758005900000102Hannah Montana (NS) Mockumentry - Coming Up Next (                                                                          150                                
PRCFAMCHA081201005900005947000047Yeti Another Holiday Event Spot - 4 X Day                                                                                   150                                
PRCFAMCHA081201005947010000000013NS Bumper - Fashion (:12-:14) APR06                                                                                         150                                
ID FAMCHA081201010000010008000008Magic of Disney - NS/NSW/PB - Shape (:06-:09)                                                                               150                                
PRCFAMCHA081201010008010017000009CC Disclaimer - SLOW - Family.ca (:09-:10)                                                                                  150                                
PGRFAMCHA081201010017012253002236Hannah Montana - Season 2                         EP: 02                                                               6068807BCC                              
PRCFAMCHA081201012253012259000006Astral ID (DEC 2007)                                                                                                        150                                
PRCFAMCHA081201012259012311000012NS - 16 -CORY/PHIL (:11 - :13) (OCT08)                                                                                      150                                
PRCFAMCHA081201012311012319000008NS Bumper - Dodgeball (:07-:09) APR06                                                                                       150                                
ID FAMCHA081201012319012327000008Magic of Disney - NS/NSW/PB - Wipe (:06-:09)                                                                                150                                
PRCFAMCHA081201012327012336000009CC Disclaimer - SLOW - Generic (:09 -:10)                                                                                   150                                
PGRFAMCHA081201012336014614002238Cory in the House                                 EP: 01                                                               6068607BCC                              
PRCFAMCHA081201014614014625000011NS - 17 - PHIL/LIZZIE (:11 - :13) (OCT08)                                                                                   150                                
PRCFAMCHA081201014625014641000016NS Bumper - Tennis (:15-:17) APR06                                                                                          150                                
ID FAMCHA081201014641014649000008Magic of Disney - NS/NSW/PB - Shape (:06-:09)                                                                               150                                
PRCFAMCHA081201014649014658000009CC Disclaimer - SLOW - Family.ca (:09-:10)                                                                                  150                                
PGRFAMCHA081201014658020934002236Phil of the Future Yr 2                           EP: 25                                                               6068607BCC                              
PRCFAMCHA081201020934020940000006Astral ID (DEC 2007)                                                                                                        150                                
PRCFAMCHA081201020940020953000013NS - 18 - LIZZIE/LIFE WITH DEREK (:11 - :13) (OCT0                                                                          150                                
PRCFAMCHA081201020953021006000013NS Bumper - Fashion (:12-:14) APR06                                                                                         150                                
ID FAMCHA081201021006021014000008Magic of Disney - NS/NSW/PB - Wipe (:06-:09)                                                                                150                                
PRCFAMCHA081201021014021023000009CC Disclaimer - SLOW - Generic (:09 -:10)                                                                                   150                                
PGRFAMCHA081201021023023257002234Lizzie McGuire                                    EP: 2-019                                                            6068607BCC                              
PRCFAMCHA081201023257023308000011NS - 19 - LIFE WITH DEREK/CORY IN THE HOUSE (:11 -                                                                          150                                
PRCFAMCHA081201023308023316000008NS Bumper - Dodgeball (:07-:09) APR06                                                                                       150                                
PRCFAMCHA081201023316023325000009CC Disclaimer - SLOW - Family.ca (:09-:10)                                                                                  150                                
PGRFAMCHA081201023325025555002230Life with Derek                                   EP: 14                                                        C26822 1065607BCC                              
PRCFAMCHA081201025555025601000006Astral ID (DEC 2007)                                                                                                        150                                
PRCFAMCHA081201025601025613000012NS - 20 -CORY IN THE HOUSE/RAVEN (:11 - :13) (SEPT                                                                          150                                
PRCFAMCHA081201025613025629000016NS Bumper - Tennis (:15-:17) APR06                                                                                          150                                
ID FAMCHA081201025629025637000008Magic of Disney - NS/NSW/PB - Wipe (:06-:09)                                                                                150                                
PRCFAMCHA081201025637025646000009CC Disclaimer - SLOW - Generic (:09 -:10)                                                                                   150                                
PGRFAMCHA081201025646031918002232Cory in the House Season 2                        EP: 01                                                               6068607BCC                              
PRCFAMCHA081201031918031930000012NS - 21 - RAVEN/ SUITE LIFE (:11 - :13) (SEPT07)                                                                            150                                
PRCFAMCHA081201031930031943000013NS Bumper - Fashion (:12-:14) APR06                                                                                         150                                
ID FAMCHA081201031943031951000008Magic of Disney - NS/NSW/PB - Shape (:06-:09)                                                                               150                                
PRCFAMCHA081201031951032000000009CC Disclaimer - SLOW - Family.ca (:09-:10)                                                                                  150                                
PGRFAMCHA081201032000034238002238That's So Raven                                   EPS # 1-056                                                          6068607BCC                              
PRCFAMCHA081201034238034244000006Astral ID (DEC 2007)                                                                                                        150                                
PRCFAMCHA081201034244034257000013NS - 22 - SUITE LIFE/LIFE WITH DEREK (:11 - :13) (                                                                          150                                
PRCFAMCHA081201034257034306000009NS Bumper - Dodgeball (:07-:09) APR06                                                                                       150                                
ID FAMCHA081201034306034315000009Magic of Disney - NS/NSW/PB - Wipe (:06-:09)                                                                                150                                
PRCFAMCHA081201034315034325000010CC Disclaimer - SLOW - Generic (:09 -:10)                                                                                   150                                
PGRFAMCHA081201034325040538002213Suite Life of Zack and Cody, The                  EP: 12                                                               6068607BCC                              
PRCFAMCHA081201040538040544000006Astral ID (DEC 2007)                                                                                                        150                                
PRCFAMCHA081201040544040557000013NS - 23 - LIFE WITH DEREK (:11 - :13) (SEPT07)                                                                              150                                
