SO FAMCHA090901043000043011000011Sign On (oct 1)                                                                                                                                                
PRCFAMCHA090901043011043020000009CC Disclaimer - FAST - Family.ca (:09-:10)                                                                                  150                                
PGRFAMCHA090901043020045658002638Katie And Orbie                                   EP: 5-055                                                     C19665A1065607ECC                              
PRCFAMCHA090901045658045709000011FJR - 02 - FRANNY'S FEET / BENJAMIN BEAR (SEPT08)                                                                           150                                
PRCFAMCHA090901045709045720000011Family Jr. Bumper - Acrobat (:10- :13) (JUL08)                                                                              150                                
PRCFAMCHA090901045720045729000009CC Disclaimer - FAST - Generic (:09-:10)                                                                                    150                                
PGRFAMCHA090901045729051959002230Franny's Feet                                     EPS # 35                                                      C23971 1065607ECC                              
PRCFAMCHA090901051959052005000006Astral ID - Family Jr. Version (MAR 2009)                                                                                   150                                
PRCFAMCHA090901052005052018000013FJR - 03 - BENJAMIN BEAR / HOZE HOUNDZ (SEPT08)                                                                             150                                
PRCFAMCHA090901052018052030000012Family Jr. Bumper - Collide (:11- :14) (JUL08)                                                                              150                                
PRCFAMCHA090901052030052039000009CC Disclaimer - FAST - Family.ca (:09-:10)                                                                                  150                                
PGRFAMCHA090901052039054309002230Secret World of Benjamin Bear, The                EP: 27                                                        C27272 1065607ECC                              
PRCFAMCHA090901054309054320000011FJR - 04 - HOZE HOUNDZ / HENRY'S WORLD (SEPT08)                                                                             150                                
PRCFAMCHA090901054320054332000012Family Jr. Bumper - Music (:11- :14) (JUL08)                                                                                150                                
PRCFAMCHA090901054332054341000009CC Disclaimer - FAST - Generic (:09-:10)                                                                                    150                                
PGRFAMCHA090901054341060619002238Hoze Houndz                                       EPS # 6-066                                                   C22818A1065607ECC                              
PRCFAMCHA090901060619060625000006Astral ID - Family Jr. Version (MAR 2009)                                                                                   150                                
PRCFAMCHA090901060625060638000013FJR - 05 - HENRY'S WORLD / KING (SEPT08)                                                                                    150                                
PRCFAMCHA090901060638060653000015Family Jr. Bumper - Portal (:14- :17) (JUL08)                                                                               150                                
PRCFAMCHA090901060653060702000009CC Disclaimer - FAST - Family.ca (:09-:10)                                                                                  150                                
PGRFAMCHA090901060702063103002401Henry's World                                     EP: 2-015                                                     B81046A1065607GCC                              
PRCFAMCHA090901063103063115000012FJR - 06 - KING/MICKEY MOUSE CLUBHOUSE (:11-:13) (                                                                          150                                
PRCFAMCHA090901063115063126000011Family Jr. Bumper - Acrobat (:10- :13) (JUL08)                                                                              150                                
PRCFAMCHA090901063126063135000009CC Disclaimer - FAST - Generic (:09-:10)                                                                                    150                                
PGRFAMCHA090901063135065405002230King                                              EPS # 036                                                     C25350 1065607ECC                              
PRCFAMCHA090901065405065411000006Astral ID - Family Jr. Version (MAR 2009)                                                                                   150                                
PRCFAMCHA090901065411065422000011FJR - 07 - MICKEY MOUSE CLUBHOUSE/MICKEY MOUSE CLU                                                                          150                                
PRCFAMCHA090901065422065457000035PH-D Videoplayer Spot (Family Jr. Only)                                                                                     150                                
PROFAMCHA090901065457065528000031Mickey Mouse Clubhouse (FJR) GENERIC 31 - Coming U                                                                          150                                
PRCFAMCHA090901065528065553000025PH-D Promo - Ooh & Ahh PH-D Throw 2009 - Call Your                                                                          150                                
PRCFAMCHA090901065553065605000012Family Jr. Bumper - Collide (:11- :14) (JUL08)                                                                              150                                
PRCFAMCHA090901065605065614000009CC Disclaimer - FAST - Family.ca (:09-:10)                                                                                  150                                
PGRFAMCHA090901065614072019002405Disney's Mickey Mouse Clubhouse                   EP: 20                                                               6068607ECC                              
PRCFAMCHA090901072019072028000009FJR - 08 - MICKEY MOUSE CLUBHOUSE/HANDY MANNY (:08                                                                          150                                
PROFAMCHA090901072028072058000030PH-D Gerald McBoing Boing - On PH-D (JULY 2009)                                                                             150                                
PROFAMCHA090901072058072128000030Handy Manny (FJR) HOP UP/JUMP IN 30 - This Morning                                                                          150                                
PROFAMCHA090901072128072158000030Imagination Movers (FJR) This Morning @ 8:45am (JA                                                                          150                                
PRCFAMCHA090901072158072243000045Franny's Feet (FJR) PERFECT 10 - This Morning @ 9:                                                                          150                                
PROFAMCHA090901072243072313000030Tigger and Pooh (FJR) DARBY SELL - This Morning @                                                                           150                                
PROFAMCHA090901072313072328000015Mickey Mouse Clubhouse (FJR) GROOVES - Coming Up N                                                                          150                                
PROFAMCHA090901072328072358000030PH-D Promo - Ooh & Aah.Ca Throw 08 - PH-D.CA                                                                                150                                
PRCFAMCHA090901072358072410000012Family Jr. Bumper - Music (:11- :14) (JUL08)                                                                                150                                
PRCFAMCHA090901072410072419000009CC Disclaimer - FAST - Generic (:09-:10)                                                                                    150                                
PGRFAMCHA090901072419074821002402Disney's Mickey Mouse Clubhouse                   EP: 01                                                               6068607ECC                              
PRCFAMCHA090901074821074827000006Astral ID - Family Jr. Version (MAR 2009)                                                                                   150                                
PRCFAMCHA090901074827074836000009FJR - 09 - HANDY MANNY/HANDY MANNY (:08-:10) (AUG0                                                                          150                                
PROFAMCHA090901074836074845000009PH-D Promo - Ooh & Aah Web Throw - PH-D.CA                                                                                  150                                
PRCFAMCHA090901074845074920000035Benjamin Bear (FJR) TEDDY - This Morning @ 10:55 (                                                                          150                                
PROFAMCHA090901074920074950000030Handy Manny (FJR) NEIGHBOURS - Coming Up Next (JUL                                                                          150                                
PROFAMCHA090901074950075035000045PH-D Storybook Weekend -  Starting Sept 12 @ 6:10a                                                                          150                                
PRCFAMCHA090901075035075050000015Family Jr. Bumper - Portal (:14- :17) (JUL08)                                                                               150                                
PRCFAMCHA090901075050075059000009CC Disclaimer - FAST - Family.ca (:09-:10)                                                                                  150                                
PGRFAMCHA090901075059081504002405Handy Manny                                       EP: 15                                                               6068607ECC                              
PRCFAMCHA090901081504081516000012FJR - 10 - HANDY MANNY/IMAGINATION MOVERS (:11-:13                                                                          150                                
PRCFAMCHA090901081516081551000035PH-D Videoplayer Spot (Family Jr. Only)                                                                                     150                                
PROFAMCHA090901081551081621000030Imagination Movers (FJR) This Morning @ 8:45am (JA                                                                          150                                
PRCFAMCHA090901081621081656000035Franny's Feet (FJR) GENERIC - This Morning @ 9:10                                                                           150                                
PROFAMCHA090901081656081726000030Handy Manny (FJR) HOP UP/JUMP IN 30 - Coming Up Ne                                                                          150                                
PRCFAMCHA090901081726081751000025PH-D Promo - Ooh & Ahh PH-D Throw 2009 - Call Your                                                                          150                                
PRCFAMCHA090901081751081802000011Family Jr. Bumper - Acrobat (:10- :13) (JUL08)                                                                              150                                
PRCFAMCHA090901081802081811000009CC Disclaimer - FAST - Generic (:09-:10)                                                                                    150                                
PGRFAMCHA090901081811084209002358Handy Manny                                       EP: 28                                                               6068607ECC                              
PRCFAMCHA090901084209084215000006Astral ID - Family Jr. Version (MAR 2009)                                                                                   150                                
PRCFAMCHA090901084215084228000013FJR - 11 - IMAGINATION MOVERS/FRANNY'S FEET (JAN09                                                                          150                                
PROFAMCHA090901084228084313000045PH-D New Timeslot: More MMCH and HM Weekday Morn 6                                                                          150                                
PROFAMCHA090901084313084330000017Mickey Mouse Clubhouse (FJR) GOOFY SELL- This Morn                                                                          150                                
PROFAMCHA090901084330084400000030Imagination Movers (FJR) Coming Up Next (JAN09)                                                                             150                                
PROFAMCHA090901084400084445000045PH-D Storybook Weekend -  Starting Sept 12 @ 6:10a                                                                          150                                
PRCFAMCHA090901084445084457000012Family Jr. Bumper - Collide (:11- :14) (JUL08)                                                                              150                                
PRCFAMCHA090901084457084506000009CC Disclaimer - FAST - Family.ca (:09-:10)                                                                                  150                                
PGRFAMCHA090901084506090906002400Disney Imagination Movers                         EP: 15                                                               6068607ACC                              
PRCFAMCHA090901090906090916000010FJR - 12 - FRANNY'S FEET/TIGGER & POOH (:09 - :12)                                                                          150                                
PROFAMCHA090901090916090946000030PH-D Gerald McBoing Boing - On PH-D (JULY 2009)                                                                             150                                
PRCFAMCHA090901090946091031000045Franny's Feet (FJR) PERFECT 10 - Coming Up Next (J                                                                          150                                
PROFAMCHA090901091031091040000009PH-D Promo - Ooh & Aah Web Throw - PH-D.CA                                                                                  150                                
PRCFAMCHA090901091040091052000012Family Jr. Bumper - Music (:11- :14) (JUL08)                                                                                150                                
PRCFAMCHA090901091052091101000009CC Disclaimer - FAST - Generic (:09-:10)                                                                                    150                                
PGRFAMCHA090901091101093331002230Franny's Feet                                     EPS # 19                                                      C23971 1065607ECC                              
PRCFAMCHA090901093331093337000006Astral ID - Family Jr. Version (MAR 2009)                                                                                   150                                
PRCFAMCHA090901093337093348000011FJR - 13 - TIGGER & POOH/MICKEY MOUSE CLUBHOUSE (:                                                                          150                                
PRCFAMCHA090901093348093413000025PH-D Promo - Ooh & Ahh PH-D Throw 2009 - Call Your                                                                          150                                
PROFAMCHA090901093413093443000030Handy Manny (FJR) HOP UP/JUMP IN 30 - This Morning                                                                          150                                
PRCFAMCHA090901093443093518000035Benjamin Bear (FJR) TEDDY - This Morning @ 10:55 (                                                                          150                                
PROFAMCHA090901093518093603000045Tigger and Pooh (FJR) POOH SELL - Coming Up Next (                                                                          150                                
PROFAMCHA090901093603093648000045PH-D Storybook Weekend -  Starting Sept 12 @ 6:10a                                                                          150                                
PRCFAMCHA090901093648093703000015Family Jr. Bumper - Portal (:14- :17) (JUL08)                                                                               150                                
PRCFAMCHA090901093703093712000009CC Disclaimer - FAST - Family.ca (:09-:10)                                                                                  150                                
PGRFAMCHA090901093712100114002402Disney My Friends Tigger & Pooh                   EP: 08                                                               6068607ECC                              
PRCFAMCHA090901100114100125000011FJR - 14 - MICKEY MOUSE CLUBHOUSE/HANDY MANNY (:10                                                                          150                                
PROFAMCHA090901100125100210000045PH-D Storybook Weekend -  Starting Sept 12 @ 6:10a                                                                          150                                
PROFAMCHA090901100210100240000030Handy Manny (FJR) NEIGHBOURS - This Morning @ 10:3                                                                          150                                
PRCFAMCHA090901100240100310000030Benjamin Bear (FJR) GENERIC - This Morning @ 10:55                                                                          150                                
PROFAMCHA090901100310100326000016Mickey Mouse Clubhouse (FJR) GENERIC 16 - Coming U                                                                          150                                
PROFAMCHA090901100326100356000030PH-D Promo - Ooh & Aah.Ca Throw 08 - PH-D.CA                                                                                150                                
PRCFAMCHA090901100356100407000011Family Jr. Bumper - Acrobat (:10- :13) (JUL08)                                                                              150                                
PRCFAMCHA090901100407100416000009CC Disclaimer - FAST - Generic (:09-:10)                                                                                    150                                
PGRFAMCHA090901100416102818002402Disney's Mickey Mouse Clubhouse                   EP: 15                                                               6068607ECC                              
PRCFAMCHA090901102818102824000006Astral ID - Family Jr. Version (MAR 2009)                                                                                   150                                
PRCFAMCHA090901102824102835000011FJR - 15 - HANDY MANNY/BENJAMIN BEAR (:10 - :13) (                                                                          150                                
PRCFAMCHA090901102835102910000035PH-D Videoplayer Spot (Family Jr. Only)                                                                                     150                                
PRCFAMCHA090901102910102940000030King (FJR) GENERIC - This Morning @ 11:25 (JUL08)                                                                           150                                
PROFAMCHA090901102940102955000015Handy Manny (FJR) HOP UP/JUMP IN 15 - Coming Up Ne                                                                          150                                
PROFAMCHA090901102955103004000009PH-D Promo - Ooh & Aah Web Throw - PH-D.CA                                                                                  150                                
PRCFAMCHA090901103004103016000012Family Jr. Bumper - Collide (:11- :14) (JUL08)                                                                              150                                
PRCFAMCHA090901103016103025000009CC Disclaimer - FAST - Family.ca (:09-:10)                                                                                  150                                
PGRFAMCHA090901103025105430002405Handy Manny                                       EP: 12                                                               6068607ECC                              
PRCFAMCHA090901105430105441000011FJR - 16 - BENJAMIN BEAR/KING (:10 - :13) (JULY08)                                                                          150                                
PROFAMCHA090901105441105526000045PH-D New Timeslot: More MMCH and HM Weekday Morn 6                                                                          150                                
PRCFAMCHA090901105526105606000040King (FJR) GUS - This Morning @ 11:25 (JUNE09)                                                                              150                                
PRCFAMCHA090901105606105641000035Benjamin Bear (FJR) TEDDY - Coming Up Next (JUNE09                                                                          150                                
PROFAMCHA090901105641105711000030PH-D Gerald McBoing Boing - On PH-D (JULY 2009)                                                                             150                                
PRCFAMCHA090901105711105723000012Family Jr. Bumper - Music (:11- :14) (JUL08)                                                                                150                                
PRCFAMCHA090901105723105732000009CC Disclaimer - FAST - Generic (:09-:10)                                                                                    150                                
PGRFAMCHA090901105732112002002230Secret World of Benjamin Bear, The                EP: 30                                                        C27272 1065607ECC                              
PRCFAMCHA090901112002112008000006Astral ID - Family Jr. Version (MAR 2009)                                                                                   150                                
PRCFAMCHA090901112008112019000011FJR - 06 - KING (SEPT08)                                                                                                    150                                
PROFAMCHA090901112019112104000045PH-D Storybook Weekend -  Starting Sept 12 @ 6:10a                                                                          150                                
PROFAMCHA090901112104112121000017Mickey Mouse Clubhouse (FJR) GOOFY SELL- Tomorrow                                                                           150                                
PROFAMCHA090901112121112151000030Handy Manny (FJR) HOP UP/JUMP IN 30 - Tomorrow Mor                                                                          150                                
PROFAMCHA090901112151112221000030Imagination Movers (FJR) Tomorrow Morning @ 8:45am                                                                          150                                
PRCFAMCHA090901112221112306000045Franny's Feet (FJR) PERFECT 10 - Tomorrow Morning                                                                           150                                
PROFAMCHA090901112306112351000045Tigger and Pooh (FJR) TIGGER SELL - Tomorrow Morni                                                                          150                                
PRCFAMCHA090901112351112421000030King (FJR) GENERIC - Coming Up Next (JUL08)                                                                                 150                                
PRCFAMCHA090901112421112446000025PH-D Promo - Ooh & Ahh PH-D Throw 2009 - Call Your                                                                          150                                
PRCFAMCHA090901112446112501000015Family Jr. Bumper - Portal (:14- :17) (JUL08)                                                                               150                                
PRCFAMCHA090901112501112511000010CC Disclaimer - FAST - Family.ca (:09-:10)                                                                                  150                                
PGRFAMCHA090901112511114741002230King                                              EP: 4-044                                                     C25350 1065607ECC                              
PRCFAMCHA090901114741114753000012MD - 01 - RECESS/KIM (:11 - :13) (JULY08)                                                                                   150                                
PROFAMCHA090901114753114823000030Herbie Fully Loaded - Prems This Friday @ 7:30                                                                              150                                
PROFAMCHA090901114823114848000025Recess - CAREER DAY (MD) - (JULY06) - Coming Up Ne                                                                          150                                
PROFAMCHA090901114848114904000016Mad Dash Block Open (:16-:18) APR06                                                                                         150                                
PRCFAMCHA090901114904114913000009CC Disclaimer - FAST - Generic (:09-:10)                                                                                    150                                
PGRFAMCHA090901114913121148002235Disney's Recess                                   EP: 1-023                                                            6068607ECC                              
PRCFAMCHA090901121148121154000006Astral ID (FEB 2009)                                                                                                        150                                
PRCFAMCHA090901121154121206000012MD - 02 - KIM/WEEKENDERS (:11 - :13) (JULY08)                                                                               150                                
PRCFAMCHA090901121206121236000030Family Kicks Event Spot - 4 Per Day (July 11 - Oct                                                                          150                                
PRCFAMCHA090901121236121251000015Make Your Mark Bumper - Basketball                                                                                          150                                
PROFAMCHA090901121251121320000029Kim Possible BAKING CLIP (MD) Coming Up Next (JULY                                                                          150                                
PROFAMCHA090901121320121350000030Princess Proctection Program - Sunday @ Noon (JUNE                                                                          150                                
PRCFAMCHA090901121350121359000009MD Bumper - Race Cars (:08-:10) JUNE06                                                                                      150                                
PRCFAMCHA090901121359121408000009CC Disclaimer - FAST - Family.ca (:09-:10)                                                                                  150                                
PGRFAMCHA090901121408123700002252Disney's Kim Possible                             EPS # 1-051                                                         A6068607ECC                              
PRCFAMCHA090901123700123712000012MD - 03 - WEEKENDERS/AMERICAN DRAGON (:11 - :13) (                                                                          150                                
PRCFAMCHA090901123712123751000039Really Big Birthdays - November - 3-4 X Day (Septe                                                                          150                                
PROFAMCHA090901123751123822000031Weekenders - LOR (MD) Coming Up Next (JAN09)                                                                                150                                
PROFAMCHA090901123822123852000030Herbie Fully Loaded - Prems This Friday @ 7:30                                                                              150                                
PRCFAMCHA090901123852123900000008MD Bumper - Ski Race (:07-:09) APR06                                                                                        150                                
PRCFAMCHA090901123900123909000009CC Disclaimer - FAST - Generic (:09-:10)                                                                                    150                                
PGRFAMCHA090901123909130147002238Disney's The Weekenders                           EP: 1-038                                                           A6068607ECC                              
PRCFAMCHA090901130147130153000006Astral ID (FEB 2009)                                                                                                        150                                
PRCFAMCHA090901130153130205000012MD - 04 - AMERICAN DRAGON/EMPERORS'S (:11 - :13) (                                                                          150                                
PROFAMCHA090901130205130219000014Emperor's New School (MD) 101 - This Afternoon @ 1                                                                          150                                
PROFAMCHA090901130219130246000027Weekenders - CARVER (MD) This Afternoon @ 2:20pm (                                                                          150                                
PROFAMCHA090901130246130301000015Mickey Mouse Clubhouse (FJR) GROOVES - Weekday Mor                                                                          150                                
PROFAMCHA090901130301130319000018American Dragon Jake Long (MD) TRIXIE - Coming Up                                                                           150                                
PROFAMCHA090901130319130349000030Princess Proctection Program - Sunday @ Noon (JUNE                                                                          150                                
PRCFAMCHA090901130349130358000009MD Bumper - Race Cars (:08-:10) JUNE06                                                                                      150                                
PRCFAMCHA090901130358130407000009CC Disclaimer - FAST - Family.ca (:09-:10)                                                                                  150                                
PGRFAMCHA090901130407132646002239Disney's American Dragon: Jake Long               EPS # 09                                                             6068607E                                
PRCFAMCHA090901132646132658000012MD - 05 - EMPEROR'S/FILLMORE (:11 - :13) (JULY08)                                                                           150                                
PROFAMCHA090901132658132728000030Herbie Fully Loaded - Prems This Friday @ 7:30                                                                              150                                
PROFAMCHA090901132728132751000023Fillmore (MD) POLLY - This Afternoon @ 1:55pm (JUN                                                                          150                                
PROFAMCHA090901132751132821000030Weekenders - TISH (MD) This Afternoon @ 2:20pm (NO                                                                          150                                
PROFAMCHA090901132821132835000014Emperor's New School (MD) 101 - Coming Up Next (JU                                                                          150                                
PRCFAMCHA090901132835132851000016MD Bumper - Shopping Race (:15-:17) APR06                                                                                   150                                
PRCFAMCHA090901132851132900000009CC Disclaimer - FAST - Generic (:09-:10)                                                                                    150                                
PGRFAMCHA090901132900135130002230Disney's The Emperor's New School                 EP: 24                                                               6068807ECC                              
PRCFAMCHA090901135130135136000006Astral ID (FEB 2009)                                                                                                        150                                
PRCFAMCHA090901135136135149000013MD - 06 - FILLMORE/WEEKENDERS (:11 - :13) (JULY08)                                                                          150                                
PROFAMCHA090901135149135219000030Princess Proctection Program - Sunday @ Noon (JUNE                                                                          150                                
PROFAMCHA090901135219135231000012Kim Possible BAD GUYS (MD) Today @ 2:45pm (OCT08)                                                                           150                                
PRCFAMCHA090901135231135258000027Make Your Mark ID - Mitchel Musso (Aug09)                                                                                   150                                
PROFAMCHA090901135258135328000030Handy Manny (FJR) NEIGHBOURS - Weekday Mornings @                                                                           150                                
PROFAMCHA090901135328135351000023Fillmore (MD) POLLY - Coming Up Next (JUNE09)                                                                               150                                
PRCFAMCHA090901135351135400000009MD Bumper - Ski Race (:07-:09) APR06                                                                                        150                                
PRCFAMCHA090901135400135409000009CC Disclaimer - FAST - Family.ca (:09-:10)                                                                                  150                                
PGRFAMCHA090901135409141647002238Disney's Fillmore!                                EP: 1-001                                                            6068607ECC                              
PRCFAMCHA090901141647141659000012MD - 07 - WEEKENDERS/KIM (:11 - :13) (JULY08)                                                                               150                                
PROFAMCHA090901141659141744000045Labour Day Event Spot - This Monday Starting @ 11:                                                                          150                                
PROFAMCHA090901141744141823000039Weekenders (MD) ALT UNIVERSE - Coming Up Next (JUL                                                                          150                                
PROFAMCHA090901141823141853000030Herbie Fully Loaded - Prems This Friday @ 7:30                                                                              150                                
PRCFAMCHA090901141853141902000009MD Bumper - Race Cars (:08-:10) JUNE06                                                                                      150                                
PRCFAMCHA090901141902141911000009CC Disclaimer - FAST - Family.ca (:09-:10)                                                                                  150                                
PGRFAMCHA090901141911144143002232Disney's The Weekenders                           EP: 1-021                                                           A6068607ECC                              
PRCFAMCHA090901144143144149000006Astral ID (FEB 2009)                                                                                                        150                                
PRCFAMCHA090901144149144201000012MD - 08 - KIM/REPLACEMENTS (:11 - :13) (JULY08)                                                                             150                                
PROFAMCHA090901144201144231000030Princess Proctection Program - Sunday @ Noon (JUNE                                                                          150                                
PROFAMCHA090901144231144248000017Mickey Mouse Clubhouse (FJR) GOOFY SELL- Weekday M                                                                          150                                
PROFAMCHA090901144248144303000015Kim Possible BOYFRIEND (MD) Coming Up Next (JULY08                                                                          150                                
PRCFAMCHA090901144303144341000038FOD - Family On Demand - Generic - Check you local                                                                          150                                
PRCFAMCHA090901144341144356000015MD Bumper - Shopping Race (:15-:17) APR06                                                                                   150                                
PRCFAMCHA090901144356144405000009CC Disclaimer - FAST - Generic (:09-:10)                                                                                    150                                
PGRFAMCHA090901144405150658002253Disney's Kim Possible                             EP: 07                                                               6068607ECC                              
PRCFAMCHA090901150658150709000011MD - 09 - REPLACEMENTS/EMPEROR (:11 - :13) (JULY08                                                                          150                                
PROFAMCHA090901150709150739000030Herbie Fully Loaded - Prems This Friday @ 7:30                                                                              150                                
PROFAMCHA090901150739150824000045Universal Home Entertainment                                                                                                150                                
PROFAMCHA090901150824150857000033Recess - COOTIE SHOTS (MD) - This Afternoon @ 4:10                                                                          150                                
PROFAMCHA090901150857150907000010FAMJAM - Open/Close                                                                                                         150                                
PGRFAMCHA090901150907151037000130MV Disney - (MD/NS/NSW) - Jesse McCartney - Just S                                                                     60688120                                
PROFAMCHA090901151037151051000014xxFAMJAM - Close (FAMILY) xxDNUxx                                                                                           150                                
PROFAMCHA090901151051151109000018Phineas & Ferb (MD) Candace Tease - This Afternoon                                                                          150                                
PROFAMCHA090901151109151138000029Replacements (MD) LIBRARIAN - Coming Up Next (JULY                                                                          150                                
PROFAMCHA090901151138151153000015Cheetah Girls 2 (Short) Sun @ 1:30                                                                                          150                                
PRCFAMCHA090901151153151202000009MD Bumper - Ski Race (:07-:09) APR06                                                                                        150                                
PRCFAMCHA090901151202151211000009CC Disclaimer - FAST - Family.ca (:09-:10)                                                                                  150                                
PGRFAMCHA090901151211153450002239The Replacements                                  EP: 09                                                               2068607ECC                              
PRCFAMCHA090901153450153456000006Astral ID (FEB 2009)                                                                                                        150                                
PRCFAMCHA090901153456153508000012MD - 10 - EMPEROR 3:40/RECESS 4:10 (:11 - :13) (JA                                                                          150                                
PRCFAMCHA090901153508153547000039Really Big Birthdays - November - 3-4 X Day (Septe                                                                          150                                
PROFAMCHA090901153547153632000045Universal Home Entertainment                                                                                                150                                
PROFAMCHA090901153632153705000033Recess - COOTIE SHOTS (MD) - This Afternoon @ 4:10                                                                          150                                
PROFAMCHA090901153705153715000010FAMJAM - Open/Close                                                                                                         150                                
PGRFAMCHA090901153715153815000100MV Disney - (MD/NS/NSW) - Jesse McCartney - Just S                                                                     20688120                                
PROFAMCHA090901153815153829000014xxFAMJAM - Close (FAMILY) xxDNUxx                                                                                           150                                
PROFAMCHA090901153829153859000030Princess Proctection Program - Sunday @ Noon (JUNE                                                                          150                                
PROFAMCHA090901153859153913000014Emperor's New School (MD) 101 - Coming Up Next (JU                                                                          150                                
PRCFAMCHA090901153913153941000028Make Your Mark Contest Spot (4-5day) (Aug28-Sept23                                                                          150                                
PRCFAMCHA090901153941153950000009MD Bumper - Race Cars (:08-:10) JUNE06                                                                                      150                                
PRCFAMCHA090901153950153959000009CC Disclaimer - FAST - Generic (:09-:10)                                                                                    150                                
PGRFAMCHA090901153959160229002230Disney's The Emperor's New School                 EP: 24                                                               6068807ECC                              
PRCFAMCHA090901160229160241000012MD - 11 - RECESS 4:10/PHINEAS 4:35 (:11 - :13) (JA                                                                          150                                
PROFAMCHA090901160241160311000030Herbie Fully Loaded - Prems This Friday @ 7:30                                                                              150                                
PROFAMCHA090901160311160351000040Sony Pictures                                                                                                               150                                
PROFAMCHA090901160351160409000018Phineas & Ferb (MD) Candace Tease - This Afternoon                                                                          150                                
PROFAMCHA090901160409160506000057Suite Life of Z & C (MD) FAB LIFESTYLES - This Aft                                                                          150                                
PRCFAMCHA090901160506160636000130Movie Entertainment (8)                                                                                                     150                                
PROFAMCHA090901160636160710000034Recess - HEROES (MD) - (APR06) - Coming Up Next                                                                             150                                
PRCFAMCHA090901160710160740000030Family Kicks Event Spot - 4 Per Day (July 11 - Oct                                                                          150                                
PRCFAMCHA090901160740160756000016MD Bumper - Shopping Race (:15-:17) APR06                                                                                   150                                
PRCFAMCHA090901160756160805000009CC Disclaimer - FAST - Family.ca (:09-:10)                                                                                  150                                
PGRFAMCHA090901160805163040002235Disney's Recess                                   EP: 1-044                                                            6068607ECC                              
PRCFAMCHA090901163040163046000006Astral ID (FEB 2009)                                                                                                        150                                
PRCFAMCHA090901163046163058000012MD - 12 - PHINEAS 4:35/ SUITE LIFE OF Z & C 5:05 (                                                                          150                                
PROFAMCHA090901163058163143000045Labour Day Event Spot - This Monday Starting @ 11:                                                                          150                                
PROFAMCHA090901163143163214000031Suite Life of Z & C (MD) TONY HAWK - This Afternoo                                                                          150                                
PROFAMCHA090901163214163243000029Hannah Montana (MD) Science - This Afternoon @ 5:3                                                                          150                                
PROFAMCHA090901163243163313000030Princess Proctection Program - Sunday @ Noon (JUNE                                                                          150                                
PROFAMCHA090901163313163323000010FAMJAM - Open/Close                                                                                                         150                                
PGRFAMCHA090901163323163453000130MV Disney - (MD/NS/NSW) - Jesse McCartney - Just S                                                                     60688120                                
PROFAMCHA090901163453163507000014xxFAMJAM - Close (FAMILY) xxDNUxx                                                                                           150                                
PROFAMCHA090901163507163537000030Phineas & Ferb (MD) Phineas Char. Sell  - Coming U                                                                          150                                
PRCFAMCHA090901163537163605000028Make Your Mark Contest Spot (4-5day) (Aug28-Sept23                                                                          150                                
PRCFAMCHA090901163605163613000008MD Bumper - Ski Race (:07-:09) APR06                                                                                        150                                
PRCFAMCHA090901163613163622000009CC Disclaimer - FAST - Generic (:09-:10)                                                                                    150                                
PGRFAMCHA090901163622165853002231Disney Phineas & Ferb                             EP: 07                                                               6068607ECC                              
PRCFAMCHA090901165853165905000012MD - 13 - SUITE LIFE/HANNAH (:11 - :13) (JULY08)                                                                            150                                
PROFAMCHA090901165905165935000030Herbie Fully Loaded - Prems This Friday @ 7:30                                                                              150                                
PROFAMCHA090901165935170016000041Hannah Montana (MD) Everywhere - This Afternoon @                                                                           150                                
PROFAMCHA090901170016170102000046Phineas & Ferb (MD) INSIDE - NEW EPS Thursday Afte                                                                          150                                
PROFAMCHA090901170102170112000010FAMJAM - Open/Close                                                                                                         150                                
PGRFAMCHA090901170112170226000114MV Disney - (MD/NS/NSW) - Jesse McCartney - Just S                                                                     60688120                                
PROFAMCHA090901170226170240000014xxFAMJAM - Close (FAMILY) xxDNUxx                                                                                           150                                
PROFAMCHA090901170240170312000032Suite Life of Z & C (MD) Wonderful Hotel - Coming                                                                           150                                
PROFAMCHA090901170312170357000045Cheetah Girls 2 (Long) Sun @ 1:30                                                                                           150                                
PRCFAMCHA090901170357170406000009MD Bumper - Race Cars (:08-:10) JUNE06                                                                                      150                                
ID FAMCHA090901170406170414000008Magic of Disney - MAD DASH - Shape (:06-:09)                                                                                150                                
PRCFAMCHA090901170414170423000009CC Disclaimer - FAST - Family.ca (:09-:10)                                                                                  150                                
PGRFAMCHA090901170423170637000214Suite Life of Zack & Cody, The                    EP: 16                                                               6068607BCC                              
PGRFAMCHA090901170637171732001055Suite Life of Zack & Cody, The                    EP: 16                                                               6068607BCC                              
PGRFAMCHA090901171732172601000829Suite Life of Zack & Cody, The                    EP: 16                                                               6068607BCC                              
PGRFAMCHA090901172601172658000057Suite Life of Zack & Cody, The                    EP: 16                                                               6068607BCC                              
PRCFAMCHA090901172658172704000006Astral ID (FEB 2009)                                                                                                        150                                
PRCFAMCHA090901172704172716000012MD - 14 - HANNAH/ZOEY (:11 - :13) (JULY08)                                                                                  150                                
PROFAMCHA090901172716172746000030Princess Proctection Program - Sunday @ Noon (JUNE                                                                          150                                
PROFAMCHA090901172746172832000046Phineas & Ferb (MD) INSIDE - NEW EPS Thursday Afte                                                                          150                                
PROFAMCHA090901172832172842000010FAMJAM - Open/Close                                                                                                         150                                
PGRFAMCHA090901172842172942000100MV Disney - (MD/NS/NSW) - Jesse McCartney - Just S                                                                     60688120                                
PROFAMCHA090901172942172956000014xxFAMJAM - Close (FAMILY) xxDNUxx                                                                                           150                                
PROFAMCHA090901172956173059000103Hannah Montana (MD) Mockumentary - Coming Up Next                                                                           150                                
PROFAMCHA090901173059173144000045Labour Day Event Spot - This Monday Starting @ 11:                                                                          150                                
PRCFAMCHA090901173144173200000016MD Bumper - Shopping Race (:15-:17) APR06                                                                                   150                                
PRCFAMCHA090901173200173209000009CC Disclaimer - FAST - Generic (:09-:10)                                                                                    150                                
PGRFAMCHA090901173209173452000243Hannah Montana                                    EP: 24                                                               6068807BCC                              
PGRFAMCHA090901173452174002000510Hannah Montana                                    EP: 24                                                               6068807BCC                              
PGRFAMCHA090901174002175333001331Hannah Montana                                    EP: 24                                                               6068807BCC                              
PGRFAMCHA090901175333175440000107Hannah Montana                                    EP: 24                                                               6068807BCC                              
PRCFAMCHA090901175440175452000012NS - 01 - ZOEY 101/DEREK (:11 - :13) (MARCH08)                                                                              150                                
PROFAMCHA090901175452175522000030Herbie Fully Loaded - Prems This Friday @ 7:30                                                                              150                                
PRCFAMCHA090901175522175614000052Life W D (NS) Casey & Derek - Tonight @ 6:30 (MAR0                                                                          150                                
PRCFAMCHA090901175614175714000100Movie Entertainment (8)                                                                                                     150                                
PROFAMCHA090901175714175801000047Wizards of Waverly Place BOXING (NS) Tonight @ 7pm                                                                          150                                
PROFAMCHA090901175801175813000012Overruled Prem ID (Coming Soon) - Jacob - Prem Sep                                                                          150                                
PROFAMCHA090901175813175854000041Hannah Montana (NS) Everywhere - NEW EPS Friday Af                                                                          150                                
PROFAMCHA090901175854175924000030Zoey 101 (NS) ANOTHER DAY AT PCA - Coming Up Next                                                                           150                                
PRCFAMCHA090901175924175952000028Make Your Mark Contest Spot (4-5day) (Aug28-Sept23                                                                          150                                
PROFAMCHA090901175952180008000016Nonstop Block Open (:16-:18) APR06                                                                                          150                                
PRCFAMCHA090901180008180017000009CC Disclaimer - FAST - Family.ca (:09-:10)                                                                                  150                                
PGRFAMCHA090901180017182349002332Zoey 101                                          EP: 54                                                               2068807BCC                              
PRCFAMCHA090901182349182355000006Astral ID (FEB 2009)                                                                                                        150                                
PRCFAMCHA090901182355182407000012NS - 02 - DEREK/WIZARDS (:11 - :13) (OCT08)                                                                                 150                                
PROFAMCHA090901182407182501000054Overruled Prem and Family.ca (Aug31-Sept6)                                                                                  150                                
PROFAMCHA090901182501182541000040Sony Pictures                                                                                                               150                                
PROFAMCHA090901182541182611000030Wizards of Waverly Place METRIC SYSTEM (NS) Tonigh                                                                          150                                
PROFAMCHA090901182611182621000010FAMJAM - Open/Close                                                                                                         150                                
PGRFAMCHA090901182621182751000130MV Disney - (MD/NS/NSW) - Jesse McCartney - Just S                                                                     60688120                                
PROFAMCHA090901182751182805000014xxFAMJAM - Close (FAMILY) xxDNUxx                                                                                           150                                
PRCFAMCHA090901182805182825000020Latest Buzz - SIZZLE (NS) Tonight @ 8:30pm (JAN09)                                                                          150                                
PRCFAMCHA090901182825182840000015Make Your Mark Bumper - Basketball                                                                                          150                                
PRCFAMCHA090901182840182918000038Life W D (NS) Edwin Mystery Man - Coming Up Next (                                                                          150                                
PROFAMCHA090901182918182948000030Princess Proctection Program - Sunday @ Noon (JUNE                                                                          150                                
PRCFAMCHA090901182948183004000016NS Bumper - Tennis (:15-:17) APR06                                                                                          150                                
PRCFAMCHA090901183004183013000009CC Disclaimer - FAST - Generic (:09-:10)                                                                                    150                                
PGRFAMCHA090901183013185243002230Life with Derek                                   EP: 01                                                        C26822 1065607BCC                              
PRCFAMCHA090901185243185255000012NS - 03 - WIZARDS/HANNAH (:11 - :13) (FEB09)                                                                                150                                
PROFAMCHA090901185255185340000045Labour Day Event Spot - This Monday Starting @ 11:                                                                          150                                
PROFAMCHA090901185340185425000045Universal Home Entertainment                                                                                                150                                
PROFAMCHA090901185425185459000034Suite Life of Z & C (NS) RHYMING - Tonight @ 8pm (                                                                          150                                
PROFAMCHA090901185459185509000010FAMJAM - Open/Close                                                                                                         150                                
PGRFAMCHA090901185509185804000255MV Disney - (MD/NS/NSW) - Jesse McCartney - Just S                                                                     60688120                                
PROFAMCHA090901185804185818000014xxFAMJAM - Close (FAMILY) xxDNUxx                                                                                           150                                
PROFAMCHA090901185818185851000033JONAS "Joe and Stella" (NS) - NEW EPS Friday Night                                                                          150                                
PROFAMCHA090901185851185906000015Cheetah Girls 2 (Short) Sun @ 1:30                                                                                          150                                
PROFAMCHA090901185906185927000021Wizards of Waverly Place LAMP (NS) Coming Up Next                                                                           150                                
PROFAMCHA090901185927185957000030Herbie Fully Loaded - Prems This Friday @ 7:30                                                                              150                                
PRCFAMCHA090901185957190005000008NS Bumper - Dodgeball (:07-:09) APR06                                                                                       150                                
PRCFAMCHA090901190005190014000009CC Disclaimer - FAST - Family.ca (:09-:10)                                                                                  150                                
PGRFAMCHA090901190014190226000212Disney Wizards of Waverly Place                   EP: 08                                                               6068607BCC                              
PGRFAMCHA090901190226191213000947Disney Wizards of Waverly Place                   EP: 08                                                               6068607BCC                              
PGRFAMCHA090901191213192229001016Disney Wizards of Waverly Place                   EP: 08                                                               6068607BCC                              
PGRFAMCHA090901192229192300000031Disney Wizards of Waverly Place                   EP: 08                                                               6068607BCC                              
PRCFAMCHA090901192300192306000006Astral ID (FEB 2009)                                                                                                        150                                
PRCFAMCHA090901192306192317000011NS - 04 - HANNAH/SUITE LIFE (:11 - :13) (FEB09)                                                                             150                                
PRCFAMCHA090901192317192356000039Really Big Birthdays - November - 3-4 X Day (Septe                                                                          150                                
PROFAMCHA090901192356192427000031Suite Life of Z & C (NS) TONY HAWK - Tonight @ 8pm                                                                          150                                
PROFAMCHA090901192427192440000013Overruled Prem ID (Coming Soon) - Jasmine - Prem S                                                                          150                                
PROFAMCHA090901192440192450000010FAMJAM - Open/Close                                                                                                         150                                
PGRFAMCHA090901192450192837000347MV Disney - (MD/NS/NSW) - Jesse McCartney - Just S                                                                     60688120                                
PROFAMCHA090901192837192851000014xxFAMJAM - Close (FAMILY) xxDNUxx                                                                                           150                                
PROFAMCHA090901192851192920000029Hannah Montana (NS) Super Awesome - Coming Up Next                                                                          150                                
PROFAMCHA090901192920192950000030Princess Proctection Program - Sunday @ Noon (JUNE                                                                          150                                
PRCFAMCHA090901192950193003000013NS Bumper - Fashion (:12-:14) JUNE06                                                                                        150                                
PRCFAMCHA090901193003193012000009CC Disclaimer - FAST - Family.ca (:09-:10)                                                                                  150                                
PGRFAMCHA090901193012193411000359Hannah Montana Season 3                           EP: 06                                                               6068607BCC                              
PGRFAMCHA090901193411194135000724Hannah Montana Season 3                           EP: 06                                                               6068607BCC                              
PGRFAMCHA090901194135195053000918Hannah Montana Season 3                           EP: 06                                                               6068607BCC                              
PGRFAMCHA090901195053195217000124Hannah Montana Season 3                           EP: 06                                                               6068607BCC                              
PRCFAMCHA090901195217195228000011NS - 05 - SUITE LIFE 8:00/LATEST BUZZ 8:30 (:11 -                                                                           150                                
PRCFAMCHA090901195228195256000028Make Your Mark Contest Spot (4-5day) (Aug28-Sept23                                                                          150                                
PRCFAMCHA090901195256195346000050Latest Buzz - REPORTER (NS) Tonight @ 8:30pm (JAN0                                                                          150                                
PRCFAMCHA090901195346195411000025Make Your Mark ID - Shiloh (Aug09)                                                                                          150                                
PROFAMCHA090901195411195421000010FAMJAM - Open/Close                                                                                                         150                                
PGRFAMCHA090901195421195721000300MV Disney - (MD/NS/NSW) - Jesse McCartney - Just S                                                                     60688120                                
PROFAMCHA090901195721195735000014xxFAMJAM - Close (FAMILY) xxDNUxx                                                                                           150                                
PROFAMCHA090901195735195804000029Hannah Montana (NS) Super Awesome - New Eps - Fri                                                                           150                                
PRCFAMCHA090901195804195819000015Make Your Mark Bumper - Paperboy                                                                                            150                                
PROFAMCHA090901195819195852000033JONAS "Joe and Stella" (NS) - NEW EPS Friday Night                                                                          150                                
PROFAMCHA090901195852195924000032Suite Life of Z & C (NS) Wonderful Hotel - Coming                                                                           150                                
PROFAMCHA090901195924195954000030Herbie Fully Loaded - Prems This Friday @ 7:30                                                                              150                                
PRCFAMCHA090901195954200009000015NS Bumper - Tennis (:15-:17) APR06                                                                                          150                                
ID FAMCHA090901200009200016000007Magic of Disney - NS/NSW/PB - Shape (:06-:09)                                                                               150                                
PRCFAMCHA090901200016200025000009CC Disclaimer - FAST - Family.ca (:09-:10)                                                                                  150                                
PGRFAMCHA090901200025202304002239Suite Life of Zack & Cody, The                    EP: 05                                                               6068607BCC                              
PRCFAMCHA090901202304202310000006Astral ID (FEB 2009)                                                                                                        150                                
PRCFAMCHA090901202310202322000012NS - 06 - LATEST BUZZ 8:30/WIZARDS 9:00 (:11 - :13                                                                          150                                
PROFAMCHA090901202322202416000054Overruled Prem and FOD(Aug31-Sept6)                                                                                         150                                
PROFAMCHA090901202416202501000045Universal Home Entertainment                                                                                                150                                
PROFAMCHA090901202501202548000047Wizards of Waverly Place BOXING (NS) Tonight @ 9pm                                                                          150                                
PRCFAMCHA090901202548202640000052Life W D (NS) Casey & Derek - Tonight @ 9:30 (MAR0                                                                          150                                
PROFAMCHA090901202640202650000010FAMJAM - Open/Close                                                                                                         150                                
PGRFAMCHA090901202650202750000100MV Disney - (MD/NS/NSW) - Jesse McCartney - Just S                                                                     20688120                                
PROFAMCHA090901202750202804000014xxFAMJAM - Close (FAMILY) xxDNUxx                                                                                           150                                
PROFAMCHA090901202804202819000015Sonny With A Chance SO RANDOM (NS) - Friday Nights                                                                          150                                
PROFAMCHA090901202819202849000030Princess Proctection Program - Sunday @ Noon (JUNE                                                                          150                                
PRCFAMCHA090901202849202909000020Latest Buzz - SIZZLE (NS) Coming Up Next (JUN08)                                                                            150                                
PROFAMCHA090901202909202954000045Labour Day Event Spot - This Monday Starting @ 11:                                                                          150                                
PRCFAMCHA090901202954203002000008NS Bumper - Dodgeball (:07-:09) APR06                                                                                       150                                
PRCFAMCHA090901203002203011000009CC Disclaimer - FAST - Generic (:09-:10)                                                                                    150                                
PGRFAMCHA090901203011205246002235Latest Buzz, The                                  EP: 12                                                        C29140 1055607BCC3                             
PRCFAMCHA090901205246205258000012NS - 07 - WIZARDS 9:00/LIFE WITH DEREK 9:30 (:11 -                                                                          150                                
PRCFAMCHA090901205258205328000030Family Kicks Event Spot - 4 Per Day (July 11 - Oct                                                                          150                                
PRCFAMCHA090901205328205358000030Life W D (NS) A Whole New Derek - Tonight @ 9:30pm                                                                          150                                
PROFAMCHA090901205358205408000010FAMJAM - Open/Close                                                                                                         150                                
PGRFAMCHA090901205408205538000130MV Disney - (MD/NS/NSW) - Jesse McCartney - Just S                                                                     60688120                                
PROFAMCHA090901205538205552000014xxFAMJAM - Close (FAMILY) xxDNUxx                                                                                           150                                
PROFAMCHA090901205552205635000043Ned's DSSG (NS) Too Cool for School  - Tonight @ 1                                                                          150                                
PROFAMCHA090901205635205707000032Hannah Montana (NS) Sweet 16 - NEW EPS Friday Afte                                                                          150                                
PROFAMCHA090901205707205726000019Suite Life on Deck MR. MONSTER (NSW) Weekend Morni                                                                          150                                
PRCFAMCHA090901205726205856000130Movie Entertainment (8)                                                                                                     150                                
PROFAMCHA090901205856205926000030Wizards of Waverly Place METRIC SYSTEM (NS) Coming                                                                          150                                
PROFAMCHA090901205926205956000030Herbie Fully Loaded - Prems This Friday @ 7:30                                                                              150                                
PRCFAMCHA090901205956210009000013NS Bumper - Fashion (:12-:14) JUNE06                                                                                        150                                
PRCFAMCHA090901210009210018000009CC Disclaimer - SLOW - Family.ca (:09-:10)                                                                                  150                                
PGRFAMCHA090901210018210352000334Disney Wizards of Waverly Place                   EP: 18                                                               6068607BCC                              
PGRFAMCHA090901210352211400001008Disney Wizards of Waverly Place                   EP: 18                                                               6068607BCC                              
PGRFAMCHA090901211400212204000804Disney Wizards of Waverly Place                   EP: 18                                                               6068607BCC                              
PGRFAMCHA090901212204212249000045Disney Wizards of Waverly Place                   EP: 18                                                               6068607BCC                              
PRCFAMCHA090901212249212255000006Astral ID (FEB 2009)                                                                                                        150                                
PRCFAMCHA090901212255212307000012NS - 08 - DEREK/NED'S (:11 - :13) (MARCH08)                                                                                 150                                
PROFAMCHA090901212307212337000030Princess Proctection Program - Sunday @ Noon (JUNE                                                                          150                                
PROFAMCHA090901212337212418000041Ned's DSSG (NS) COOKIE - Tonight @ 10pm (JAN09)                                                                             150                                
PROFAMCHA090901212418212451000033JONAS "Joe and Stella" (NS) - NEW EPS Friday Night                                                                          150                                
PROFAMCHA090901212451212536000045Cheetah Girls 2 (Long) Sun @ 1:30                                                                                           150                                
PROFAMCHA090901212536212546000010FAMJAM - Open/Close                                                                                                         150                                
PGRFAMCHA090901212546212831000245MV Disney - (MD/NS/NSW) - Jesse McCartney - Just S                                                                     60688120                                
PROFAMCHA090901212831212845000014xxFAMJAM - Close (FAMILY) xxDNUxx                                                                                           150                                
PRCFAMCHA090901212845212912000027Life W D (NS) CLIP - Coming Up Next (JULY08)                                                                                150                                
PRCFAMCHA090901212912212950000038FOD - Family On Demand - Generic - Check you local                                                                          150                                
PRCFAMCHA090901212950213006000016NS Bumper - Tennis (:15-:17) APR06                                                                                          150                                
PRCFAMCHA090901213006213015000009CC Disclaimer - FAST - Generic (:09-:10)                                                                                    150                                
PGRFAMCHA090901213015215245002230Life with Derek                                   EP: 23                                                        C26822 1065607BCC                              
PRCFAMCHA090901215245215257000012NS - 09 - NEDS/CORY IN THE HOUSE (:11 - :13) (SEPT                                                                          150                                
PROFAMCHA090901215257215327000030Herbie Fully Loaded - Prems This Friday @ 7:30                                                                              150                                
PROFAMCHA090901215327215346000019Cory In The House (NS) SOPHIE - Tonight @ 10:30pm                                                                           150                                
PROFAMCHA090901215346215356000010FAMJAM - Open/Close                                                                                                         150                                
PGRFAMCHA090901215356215759000403MV Disney - (MD/NS/NSW) - Jesse McCartney - Just S                                                                     20688120                                
PROFAMCHA090901215759215813000014xxFAMJAM - Close (FAMILY) xxDNUxx                                                                                           150                                
PROFAMCHA090901215813215910000057Suite Life of Z & C FABULOUS LIFESTYLES (NS) Tonig                                                                          150                                
PROFAMCHA090901215910215922000012Overruled Prem ID (Coming Soon) - Jacob - Prem Sep                                                                          150                                
PROFAMCHA090901215922220005000043Ned's DSSG (NS) Too Cool for School  - Coming Up N                                                                          150                                
PRCFAMCHA090901220005220013000008NS Bumper - Dodgeball (:07-:09) APR06                                                                                       150                                
PRCFAMCHA090901220013220022000009CC Disclaimer - SLOW - Family.ca (:09-:10)                                                                                  150                                
PGRFAMCHA090901220022220838000816Ned's Declassified School Survival Guide          EP: 47                                                               2068807BCC                              
PGRFAMCHA090901220838221238000400Ned's Declassified School Survival Guide          EP: 47                                                               2068807BCC                              
PGRFAMCHA090901221238221952000714Ned's Declassified School Survival Guide          EP: 47                                                               2068807BCC                              
PGRFAMCHA090901221952222436000444Ned's Declassified School Survival Guide          EP: 47                                                               2068807BCC                              
PRCFAMCHA090901222436222442000006Astral ID (FEB 2009)                                                                                                        150                                
PRCFAMCHA090901222442222454000012NS - 10 - CORY IN THE HOUSE/SUITE LIFE (:11 - :13)                                                                          150                                
PRCFAMCHA090901222454222522000028Make Your Mark Contest Spot (4-5day) (Aug28-Sept23                                                                          150                                
PROFAMCHA090901222522222619000057Suite Life of Z & C FABULOUS LIFESTYLES (NS) Tonig                                                                          150                                
PRCFAMCHA090901222619222702000043Life W D (NS) Trailer Generic - Tonight @ 11:30pm                                                                           150                                
PROFAMCHA090901222702222735000033JONAS "Joe and Stella" (NS) - NEW EPS Friday Night                                                                          150                                
PROFAMCHA090901222735222805000030Princess Proctection Program - Sunday @ Noon (JUNE                                                                          150                                
PROFAMCHA090901222805222820000015Cheetah Girls 2 (Short) Sun @ 1:30                                                                                          150                                
PRCFAMCHA090901222820222835000015Make Your Mark Bumper - Basketball                                                                                          150                                
PROFAMCHA090901222835222935000100Cory In The House - Cory vs. Sophie (NS) Coming Up                                                                          150                                
PROFAMCHA090901222935223020000045Labour Day Event Spot - This Monday Starting @ 11:                                                                          150                                
PRCFAMCHA090901223020223033000013NS Bumper - Fashion (:12-:14) JUNE06                                                                                        150                                
PRCFAMCHA090901223033223042000009CC Disclaimer - SLOW - Generic (:09 -:10)                                                                                   150                                
PGRFAMCHA090901223042223253000211Disney Cory in the House                          EP: 04                                                               6068607BCC                              
PGRFAMCHA090901223253223858000605Disney Cory in the House                          EP: 04                                                               6068607BCC                              
PGRFAMCHA090901223858225147001249Disney Cory in the House                          EP: 04                                                               6068607BCC                              
PGRFAMCHA090901225147225312000125Disney Cory in the House                          EP: 04                                                               6068607BCC                              
PRCFAMCHA090901225312225325000013NS - 11 - SUITE LIFE/LIFE WITH DEREK (:11 - :13) (                                                                          150                                
PRCFAMCHA090901225325225404000039Really Big Birthdays - November - 3-4 X Day (Septe                                                                          150                                
PROFAMCHA090901225404225458000054Overruled Prem and Family.ca (Aug31-Sept6)                                                                                  150                                
PRCFAMCHA090901225458225536000038Life W D (NS) Edwin Mystery Man - Tonight @ 11:30p                                                                          150                                
PROFAMCHA090901225536225546000010FAMJAM - Open/Close                                                                                                         150                                
PGRFAMCHA090901225546225810000224MV Disney - (MD/NS/NSW) - Jesse McCartney - Just S                                                                     20688120                                
PROFAMCHA090901225810225824000014xxFAMJAM - Close (FAMILY) xxDNUxx                                                                                           150                                
PRCFAMCHA090901225824225851000027Make Your Mark ID - Mitchel Musso (Aug09)                                                                                   150                                
PROFAMCHA090901225851225922000031Suite Life of Z & C (NS) TONY HAWK - Coming Up Nex                                                                          150                                
PROFAMCHA090901225922225952000030Herbie Fully Loaded - Prems This Friday @ 7:30                                                                              150                                
PRCFAMCHA090901225952230007000015NS Bumper - Tennis (:15-:17) APR06                                                                                          150                                
ID FAMCHA090901230007230013000006Magic of Disney - NS/NSW/PB - Shape (:06-:09)                                                                               150                                
PRCFAMCHA090901230013230022000009CC Disclaimer - SLOW - Family.ca (:09-:10)                                                                                  150                                
PGRFAMCHA090901230022230240000218Suite Life of Zack & Cody, The                    EP: 16                                                               6068607BCC                              
PGRFAMCHA090901230240231055000815Suite Life of Zack & Cody, The                    EP: 16                                                               6068607BCC                              
PGRFAMCHA090901231055232128001033Suite Life of Zack & Cody, The                    EP: 16                                                               6068607BCC                              
PGRFAMCHA090901232128232259000131Suite Life of Zack & Cody, The                    EP: 16                                                               6068607BCC                              
PRCFAMCHA090901232259232305000006Astral ID (FEB 2009)                                                                                                        150                                
PRCFAMCHA090901232305232317000012NS - 12 - LIFE WITH DEREK/SADIE (:11 - :13) (SEPT0                                                                          150                                
PROFAMCHA090901232317232347000030Princess Proctection Program - Sunday @ Noon (JUNE                                                                          150                                
PROFAMCHA090901232347232420000033JONAS "Joe and Stella" (NS) - NEW EPS Friday Night                                                                          150                                
PROFAMCHA090901232420232430000010FAMJAM - Open/Close                                                                                                         150                                
PGRFAMCHA090901232430232819000349MV Disney - (MD/NS/NSW) - Jesse McCartney - Just S                                                                     60688120                                
PROFAMCHA090901232819232833000014xxFAMJAM - Close (FAMILY) xxDNUxx                                                                                           150                                
PRCFAMCHA090901232833232916000043Life W D (NS) Trailer Generic - Coming Up Next (SE                                                                          150                                
PROFAMCHA090901232916233001000045Labour Day Event Spot - This Monday Starting @ 11:                                                                          150                                
PRCFAMCHA090901233001233008000007NS Bumper - Dodgeball (:07-:09) APR06                                                                                       150                                
PRCFAMCHA090901233008233017000009CC Disclaimer - SLOW - Generic (:09 -:10)                                                                                   150                                
PGRFAMCHA090901233017235247002230Life with Derek                                   EP: 04                                                        C23968A1065607BCC                              
PRCFAMCHA090901235247235259000012NS - 13 - SADIE/SADIE (:11 - :13) (SEPT07)                                                                                  150                                
PRCFAMCHA090901235259235329000030Family Kicks Event Spot - 4 Per Day (July 11 - Oct                                                                          150                                
PRCFAMCHA090901235329235429000100Movie Entertainment (8)                                                                                                     150                                
PROFAMCHA090901235429235454000025Wizards of Waverly Place HOODIE (NS) Tomorrow Nigh                                                                          150                                
PROFAMCHA090901235454235504000010FAMJAM - Open/Close                                                                                                         150                                
PGRFAMCHA090901235504235834000330MV Disney - (MD/NS/NSW) - Jesse McCartney - Just S                                                                     60688120                                
PROFAMCHA090901235834235848000014xxFAMJAM - Close (FAMILY) xxDNUxx                                                                                           150                                
PROFAMCHA090901235848235859000011Overruled Prem ID (Coming Soon) - Sally - Prem Sep                                                                          150                                
PRCFAMCHA090901235859235939000040Naturally Sadie - ROMANTIC (NS) Coming Up Next (MA                                                                          150                                
PROFAMCHA090901235939000009000030Herbie Fully Loaded - Prems This Friday @ 7:30                                                                              150                                
PRCFAMCHA090901000009000022000013NS Bumper - Fashion (:12-:14) JUNE06                                                                                        150                                
PRCFAMCHA090901000022000031000009CC Disclaimer - SLOW - Family.ca (:09-:10)                                                                                  150                                
PGRFAMCHA090901000031002301002230Naturally, Sadie                                  EP: 05                                                        C24010 1065607ACC                              
PRCFAMCHA090901002301002307000006Astral ID (FEB 2009)                                                                                                        150                                
PRCFAMCHA090901002307002319000012NS - 14 - SADIE/HANNAH (:11 - :13) (SEPT07)                                                                                 150                                
PROFAMCHA090901002319002349000030Princess Proctection Program - Sunday @ Noon (JUNE                                                                          150                                
PROFAMCHA090901002349002404000015Cheetah Girls 2 (Short) Sun @ 1:30                                                                                          150                                
PRCFAMCHA090901002404002419000015Make Your Mark Bumper - Paperboy                                                                                            150                                
PROFAMCHA090901002419002452000033JONAS "Joe and Stella" (NS) - NEW EPS Friday Night                                                                          150                                
PROFAMCHA090901002452002502000010FAMJAM - Open/Close                                                                                                         150                                
PGRFAMCHA090901002502002839000337MV Disney - (MD/NS/NSW) - Jesse McCartney - Just S                                                                     60688120                                
PROFAMCHA090901002839002853000014xxFAMJAM - Close (FAMILY) xxDNUxx                                                                                           150                                
PRCFAMCHA090901002853002922000029Naturally Sadie - CLIP (NS) Coming Up Next (MARCH0                                                                          150                                
PRCFAMCHA090901002922003000000038FOD - Family On Demand - Generic - Check you local                                                                          150                                
PRCFAMCHA090901003000003016000016NS Bumper - Tennis (:15-:17) APR06                                                                                          150                                
PRCFAMCHA090901003016003025000009CC Disclaimer - SLOW - Generic (:09 -:10)                                                                                   150                                
PGRFAMCHA090901003025005255002230Naturally, Sadie                                  EP: 54                                                        C29639 1065607ACC                              
PRCFAMCHA090901005255005307000012NS - 15 - HANNAH/CORY (:11 - :13) (OCT08)                                                                                   150                                
PROFAMCHA090901005307005352000045Labour Day Event Spot - This Monday Starting @ 11:                                                                          150                                
PROFAMCHA090901005352005409000017Zoey 101 (NS)  ZOEY, ZOEY, ZOEY - Tomorrow Night @                                                                          150                                
PROFAMCHA090901005409005419000010FAMJAM - Open/Close                                                                                                         150                                
PGRFAMCHA090901005419005810000351MV Disney - (MD/NS/NSW) - Jesse McCartney - Just S                                                                     60688120                                
PROFAMCHA090901005810005824000014xxFAMJAM - Close (FAMILY) xxDNUxx                                                                                           150                                
PRCFAMCHA090901005824005854000030Latest Buzz - LOCO (NS) Tomorrow Night @ 8:30pm (J                                                                          150                                
PROFAMCHA090901005854005926000032Hannah Montana (NS) Sweet 16 - Coming Up Next (JUN                                                                          150                                
PROFAMCHA090901005926005956000030Herbie Fully Loaded - Prems This Friday @ 7:30                                                                              150                                
PRCFAMCHA090901005956010003000007NS Bumper - Dodgeball (:07-:09) APR06                                                                                       150                                
PRCFAMCHA090901010003010012000009CC Disclaimer - SLOW - Family.ca (:09-:10)                                                                                  150                                
PGRFAMCHA090901010012012250002238Hannah Montana                                    EP: 11                                                               6068807BCC                              
PRCFAMCHA090901012250012256000006Astral ID (FEB 2009)                                                                                                        150                                
PRCFAMCHA090901012256012307000011NS - 16 - CORY/PHIL (:11 - :13) (OCT08)                                                                                     150                                
PRCFAMCHA090901012307012320000013NS Bumper - Fashion (:12-:14) JUNE06                                                                                        150                                
PRCFAMCHA090901012320012329000009CC Disclaimer - SLOW - Generic (:09 -:10)                                                                                   150                                
PGRFAMCHA090901012329012522000153Disney Cory in the House                          EP: 07                                                               6068607BCC                              
PGRFAMCHA090901012522013213000651Disney Cory in the House                          EP: 07                                                               6068607BCC                              
PGRFAMCHA090901013213014425001212Disney Cory in the House                          EP: 07                                                               6068607BCC                              
PGRFAMCHA090901014425014604000139Disney Cory in the House                          EP: 07                                                               6068607BCC                              
PRCFAMCHA090901014604014616000012NS - 17 - PHIL/LIZZIE (:11 - :13) (OCT08)                                                                                   150                                
PRCFAMCHA090901014616014631000015NS Bumper - Tennis (:15-:17) APR06                                                                                          150                                
ID FAMCHA090901014631014637000006Magic of Disney - NS/NSW/PB - Shape (:06-:09)                                                                               150                                
PRCFAMCHA090901014637014646000009CC Disclaimer - SLOW - Family.ca (:09-:10)                                                                                  150                                
PGRFAMCHA090901014646014912000226Phil of the Future                                EPS # 01                                                             6068607BCC                              
PGRFAMCHA090901014912015807000855Phil of the Future                                EPS # 01                                                             6068607BCC                              
PGRFAMCHA090901015807020822001015Phil of the Future                                EPS # 01                                                             6068607BCC                              
