SO FAMCHA041001043000043011000011Sign On (oct 1)                                                                                                                                                
PROFAMCHA041001043011043020000009CC Disclaimer - FAST - Family.ca (:08-:10)                                                                                  150                                
PGRFAMCHA041001043020045313002253Franklin                                          Franklin Finds a Puppy/Franklin Takes the Bus                 B36670A1065607ECC                              
PROFAMCHA041001045313045328000015PS - 01(PH) - KING/KATIE/FRANKLIN (:14-:16) (AUG04                                                                          150                                
ID FAMCHA041001045328045341000013PS Playhouse AM Block Open (:10-:15)                                                                                        150                                
PROFAMCHA041001045341045350000009CC Disclaimer - FAST - Family.ca (:08-:10)                                                                                  150                                
PGRFAMCHA041001045350051620002230King                                              Monsteritis                                                   B75768A1065607ECC                              
PROFAMCHA041001051620051635000015PS - 02(PH) - KATIE/FRANKLIN/SOMETHING (:14-:16) (                                                                          150                                
ID FAMCHA041001051635051648000013PS Playhouse AM Block Open (:10-:15)                                                                                        150                                
PROFAMCHA041001051648051657000009CC Disclaimer - FAST - Family.ca (:08-:10)                                                                                  150                                
PGRFAMCHA041001051657054335002638Katie And Orbie                                   Bike Path/Neighbourhood Picnic/Cleaning Out The Ba            C19664A1065607ECC                              
PROFAMCHA041001054335054350000015PS - 03(PH) - FRANKLIN/SOMETHING/DAIGUNDER (:14-:1                                                                          150                                
ID FAMCHA041001054350054403000013PS Playhouse AM Block Open (:10-:15)                                                                                        150                                
PROFAMCHA041001054403054412000009CC Disclaimer - FAST - Family.ca (:08-:10)                                                                                  150                                
PGRFAMCHA041001054412060705002253Franklin                                          Franklin the Copycat/Big Brother Franklin                     B36671A1065607ECC                              
PROFAMCHA041001060705060720000015PS - 04(PH) - SOMETHING/DAIGUNDER/KNIGHTS (:14-:16                                                                          150                                
ID FAMCHA041001060720060735000015PS Playhouse AM Block Open (:10-:15)                                                                                        150                                
PROFAMCHA041001060735060745000010CC Disclaimer - FAST - Family.ca (:08-:10)                                                                                  150                                
PROFAMCHA041001060735060745000010CC Disclaimer - FAST - Family.ca (:08-:10)                                                                                  150                                
PGRFAMCHA041001060745063016002231Something Else                                    The Trip/The Sitters                                          B69256A1065607ECC                              
PROFAMCHA041001063016063030000014PS - 05(PB) - DAIGUNDER/KNIGHTS/NINJA (:14-:16) (A                                                                          150                                
ID FAMCHA041001063030063043000013Power Box Block Open (:12-:15)                                                                                              150                                
PGRFAMCHA041001063043065212002129Daigunder                                         EPS # 30                                                             2028607E                                
PROFAMCHA041001065212065228000016PS - 06(PBH) - KNIGHTS/NINJA/HOZE (:14-:16) (AUG04                                                                          150                                
PROFAMCHA041001065228065258000030Mon Colle Knights - (AUG04) - Coming Up Next                                                                                150                                
PROFAMCHA041001065258065328000030Power Rangers Ninja Storm (AUG04) (PB/WKDAY) - Tod                                                                          150                                
INTFAMCHA041001065328065433000105Gagsters - Magic Milk                                                                                                 A20686120                                
PRCFAMCHA041001065433065503000030xxPower Box Block Promo (AUG04) - (PB) - You're Wa                                                                          150                                
PROFAMCHA041001065503065539000036Power Rangers Dino Thunder (LONG/0804) - Tomorrow                                                                           150                                
PRCFAMCHA041001065539065553000014Family Bumpers - (Phase 1 Spring 04) - Basketball                                                                           150                                
ID FAMCHA041001065553065608000015Power Box Block Open (:12-:15)                                                                                              150                                
PGRFAMCHA041001065608071732002124Mon Colle Knights                                 EPS # 1-004                                                         A6068607E                                
PROFAMCHA041001071732071747000015PS - 07(PH) - NINJA/HOZE/HENRY (:14-:16) (AUG04)                                                                            150                                
PROFAMCHA041001071747071817000030Power Rangers Ninja Storm (AUG04) (PB) - Coming Up                                                                          150                                
INTFAMCHA041001071817071943000126Gagsters - Arm Chair                                                                                                  A20686120                                
PROFAMCHA041001071943072019000036Power Rangers Dino Thunder (LONG/0804) - Tomorrow                                                                           150                                
PROFAMCHA041001072019072049000030Dave the Barbarian (MD) - Today @ 4:15pm                                                                                    150                                
PROFAMCHA041001072049072119000030Weekenders (AUG04) - Today @ 3:25pm                                                                                         150                                
PRCFAMCHA041001072119072149000030xxPower Box Block Promo (AUG04) - (PB) - You're Wa                                                                          150                                
ID FAMCHA041001072149072204000015Power Box Block Open (:12-:15)                                                                                              150                                
PGRFAMCHA041001072204074328002124Power Rangers Ninja Storm                         EPS # 1-033                                                         A6068607E                                
PROFAMCHA041001074328074342000014PS - 08(PH-M/W/F) - HOZE/HENRY/FRANNY (:14-:16) (A                                                                          150                                
PROFAMCHA041001074342074407000025Hoze Houndz (AUG04) (PH) - Coming Up Next                                                                                   150                                
PROFAMCHA041001074407074449000042Jojo's Circus - (CRAB/0804) - (PH/AM) - Today @ 9:                                                                          150                                
PROFAMCHA041001074449074533000044Stanley - (AUG04) - (PH) - Today @ 10:05am                                                                                  150                                
PRCFAMCHA041001074533074551000018Henry's World (AUG04) (PH/AM) - Today @ 8:15am                                                                              150                                
INTFAMCHA041001074551074721000130Disney Circle Time - Growing Smiles (anywhere but                                                                      60688120                                
   FAMCHA041001074721074750000029Winnie the Pooh (TRAP) (PH/AM) - Today @ 9:10am                                                                                                                
ID FAMCHA041001074750074800000010PS Playhouse AM Block Open (:10-:15)                                                                                        150                                
PROFAMCHA041001074800074810000010CC Disclaimer - FAST - Family.ca (:08-:10)                                                                                  150                                
PGRFAMCHA041001074810081045002235Hoze Houndz                                       Ship Of Fools/Room and Boards                                 B45774A1065607ECC                              
PROFAMCHA041001081045081101000016PS - 09(PH-M/W/F) - HENRY/FRANNY/WTP (:14-:16) (AU                                                                          150                                
PRCFAMCHA041001081101081119000018Henry's World (AUG04) (PH/AM) - Coming Up Next                                                                              150                                
   FAMCHA041001081119081148000029Winnie the Pooh (TRAP) (PH/AM) - Today @ 9:10am                                                                                                                
PROFAMCHA041001081148081230000042Jojo's Circus - (CRAB/0804) - (PH/AM) - Today @ 9:                                                                          150                                
PROFAMCHA041001081230081314000044Stanley - (AUG04) - (PH) - Today @ 10:05am                                                                                  150                                
PRCFAMCHA041001081314081345000031King (AUG04) (PH/AM) - Today @ 11am                                                                                         150                                
PROFAMCHA041001081345081415000030Playhouse (PEDAL) - (PH/AM) - You're Watching                                                                         A     150                                
INTFAMCHA041001081415081545000130MV Disney - (PH) Walk The Llama Llama                                                                                  60688120                                
ID FAMCHA041001081545081600000015PS Playhouse AM Block Open (:10-:15)                                                                                        150                                
PROFAMCHA041001081600081609000009CC Disclaimer - FAST - Family.ca (:08-:10)                                                                                  150                                
PGRFAMCHA041001081609084014002405Henry's World                                     EPS # 2-021                                                   A81052A1065607GCC                              
PROFAMCHA041001084014084029000015PS - 10(PH-M/W/F) - FRANNY/WTP/JOJO (:14-:16) (AUG                                                                          150                                
PROFAMCHA041001084029084059000030Playhouse (PEDAL) - (PH/AM) - You're Watching                                                                         A     150                                
   FAMCHA041001084059084128000029Winnie the Pooh (TRAP) (PH/AM) - Today @ 9:10am                                                                                                                
PROFAMCHA041001084128084210000042Jojo's Circus - (CRAB/0804) - (PH/AM) - Today @ 9:                                                                          150                                
PROFAMCHA041001084210084254000044Stanley - (AUG04) - (PH) - Today @ 10:05am                                                                                  150                                
PRCFAMCHA041001084254084400000106Playhouse - WINNIE THE POOH - Christopher Robin                                                                             150                                
PRCFAMCHA041001084400084431000031King (AUG04) (PH/AM) - Today @ 11am                                                                                         150                                
PRCFAMCHA041001084431084445000014Playhouse - HOZE HOUNDZ - Skater                                                                                            150                                
ID FAMCHA041001084445084500000015PS Playhouse AM Block Open (:10-:15)                                                                                        150                                
PROFAMCHA041001084500084509000009CC Disclaimer - FAST - Family.ca (:08-:10)                                                                                  150                                
PGRFAMCHA041001084509090739002230Franny's Feet                                     EPS # 1-005                                                   A84194A1065607ECC                              
PROFAMCHA041001090739090754000015PS - 11(PH) - WTP/JOJO/STANLEY (:14-:16) (AUG04)                                                                            150                                
   FAMCHA041001090754090823000029Winnie the Pooh (TRAP) (PH/AM) - Coming Up Next                                                                                                                
PRCFAMCHA041001090823090850000027Playhouse - FRANKLIN - Laundry                                                                                              150                                
PROFAMCHA041001090850090932000042Jojo's Circus - (CRAB/0804) - (PH/AM) - Today @ 9:                                                                          150                                
PROFAMCHA041001090932091016000044Stanley - (AUG04) - (PH) - Today @ 10:05am                                                                                  150                                
INTFAMCHA041001091016091216000200Disney Circle Time - The Lion & The Mouse Fable (a                                                                     60688120                                
PRCFAMCHA041001091216091247000031King (AUG04) (PH/AM) - Today @ 11am                                                                                         150                                
ID FAMCHA041001091247091300000013PS Playhouse AM Block Open (:10-:15)                                                                                        150                                
PROFAMCHA041001091300091309000009CC Disclaimer - FAST - Family.ca (:08-:10)                                                                                  150                                
PGRFAMCHA041001091309093628002319New Adventures of Winnie the Pooh; The            Me and My Shadow/To Catch a Hiccup                                   6068607ECC                              
PROFAMCHA041001093628093643000015PS - 12(PH) - JOJO/STANLEY/ART (:14-:16) (AUG04)                                                                            150                                
PROFAMCHA041001093643093725000042Jojo's Circus - (CRAB/0804) - (PH/AM) - Coming Up                                                                           150                                
PROFAMCHA041001093725093809000044Stanley - (AUG04) - (PH) - Today @ 10:05am                                                                                  150                                
PRCFAMCHA041001093809093840000031King (AUG04) (PH/AM) - Today @ 11am                                                                                         150                                
PRCFAMCHA041001093840093915000035Playhouse - KATIE & ORBIE - Did You Know?                                                                                   150                                
PROFAMCHA041001093915093945000030Playhouse (PRINCESS) (PH/PM) - Today @ 1pm                                                                                  150                                
ID FAMCHA041001093945094000000015PS Playhouse AM Block Open (:10-:15)                                                                                        150                                
PGRFAMCHA041001094000100408002408JoJo's Circus                                     EPS # 07                                                            A6068607E                                
PROFAMCHA041001100408100423000015PS - 13(PH) - STANLEY/ART/KING (:14-:16) (AUG04)                                                                            150                                
PROFAMCHA041001100423100507000044Stanley - (AUG04) - (PH) - Coming Up Next                                                                                   150                                
PRCFAMCHA041001100507100538000031King (AUG04) (PH/AM) - Today @ 11am                                                                                         150                                
PROFAMCHA041001100538100608000030Playhouse (PRINCESS) (PH/PM) - Today @ 1pm                                                                                  150                                
PROFAMCHA041001100608100633000025Hoze Houndz (Can't Fly) (PH/PM) - Today @ 2:10pm                                                                            150                                
PRCFAMCHA041001100633100656000023Playhouse - HOUSE OF MOUSE - Calculator                                                                                     150                                
PRCFAMCHA041001100656100749000053Franklin (AUG04) - (PH) - Weekdays @ 5:40am                                                                                 150                                
ID FAMCHA041001100749100800000011PS Playhouse AM Block Open (:10-:15)                                                                                        150                                
PROFAMCHA041001100800100809000009CC Disclaimer - FAST - Family.ca (:08-:10)                                                                                  150                                
PGRFAMCHA041001100809103207002358Stanley                                           Dolphin Talk/Whole Lotta' Snakin' Goin' On'                         A6068607ECC                              
PROFAMCHA041001103207103222000015PS - 14(PH) - ART/KING/JASON (:14-:16) (AUG04)                                                                              150                                
PRCFAMCHA041001103222103253000031King (AUG04) (PH/AM) - Today @ 11am                                                                                         150                                
PROFAMCHA041001103253103323000030Playhouse (PEDAL) - (PH/AM) - You're Watching                                                                         A     150                                
PRCFAMCHA041001103323103409000046Playhouse - STANLEY - Squirrel Song                                                                                         150                                
   FAMCHA041001103409103438000029Winnie the Pooh (TRAP) (PH/AM) - Weekdays @ 9:10am                                                                                                             
PROFAMCHA041001103438103520000042Jojo's Circus - (CRAB/0804) - (PH/AM) - Weekdays @                                                                          150                                
PROFAMCHA041001103520103550000030Playhouse (PRINCESS) (PH/PM) - Today @ 1pm                                                                                  150                                
ID FAMCHA041001103550103600000010PS Playhouse AM Block Open (:10-:15)                                                                                        150                                
PGRFAMCHA041001103600105541001941Art Attack                                                                                                            A60686110                                
PROFAMCHA041001105541105556000015PS - 15(PH) - KING/JASON/LILO (:14-:16) (AUG04)                                                                             150                                
PRCFAMCHA041001105556105627000031King (AUG04) (PH/AM) - Coming Up Next                                                                                       150                                
PROFAMCHA041001105627105657000030Playhouse (PEDAL) - (PH/AM) - You're Watching                                                                         A     150                                
PROFAMCHA041001105657105739000042Jojo's Circus - (CRAB/0804) - (PH/AM) - Weekdays @                                                                          150                                
PRCFAMCHA041001105739105832000053Franklin (AUG04) - (PH) - Weekdays @ 5:40am                                                                                 150                                
PRCFAMCHA041001105832105938000106Playhouse - WINNIE THE POOH - Christopher Robin                                                                             150                                
PRCFAMCHA041001105938105950000012Family Bumpers - (Phase 1 Spring 04) - Funhouse (P                                                                          150                                
ID FAMCHA041001105950110000000010PS Playhouse AM Block Open (:10-:15)                                                                                        150                                
PROFAMCHA041001110000110009000009CC Disclaimer - FAST - Family.ca (:08-:10)                                                                                  150                                
PGRFAMCHA041001110009112239002230King                                              Very Big Faces                                                B75763A1065607ECC                              
PROFAMCHA041001112239112253000014PS - 16(MD/L) - JASON/LILO/HERCULES (:14-:16) (AUG                                                                          150                                
PROFAMCHA041001112253112323000030xxJason - HEROES - (MD/L) - Coming Up Next                                                                                  150                                
PROFAMCHA041001112323112353000030Lilo & Stitch (AUG04) - (MD) - Today @ 11:50am                                                                              150                                
PROFAMCHA041001112353112427000034Fillmore (AUG04) - (MD) - Today @ 3pm                                                                                       150                                
INTFAMCHA041001112427112547000120Gagsters - See Ya                                                                                                     A20686120                                
PROFAMCHA041001112547112617000030Weekenders (AUG04) - Today @ 3:25pm                                                                                         150                                
PROFAMCHA041001112617112647000030Recess (AUG04) - Today @ 3:50pm                                                                                             150                                
ID FAMCHA041001112647112701000014Mad Dash Block Open (:13-:15)                                                                                               150                                
PGRFAMCHA041001112701114920002219Jason and the Heroes of Mount Olympus             EPS # 03                                                             6068607E                                
PROFAMCHA041001114920114936000016PS - 17(MD/L) - LILO/HERCULES/GOOF (:14-:16) (AUG0                                                                          150                                
PRCFAMCHA041001114936114945000009xxFamily Bumpers - (Phase 1 Spring 04) - Baseball                                                                           150                                
ID FAMCHA041001114945115000000015Mad Dash Block Open (:13-:15)                                                                                               150                                
PGRFAMCHA041001115000121239002239Disney's Lilo & Stitch: The Series                EPS # 29                                                            A6068607E                                
PROFAMCHA041001121239121254000015PS - 18(MD/L) - HERCULES/GOOF/MERMAID (:14-:16) (A                                                                          150                                
ID FAMCHA041001121254121308000014Mad Dash Block Open (:13-:15)                                                                                               150                                
PGRFAMCHA041001121308123609002301Disney's Hercules: The Series                     Hercules And The Comedy Of Arrows                                    6068607E                                
PROFAMCHA041001123609123624000015PS - 19(MD/L) - GOOF/MERMAID/ALADDIN (:14-:16) (AU                                                                          150                                
PRCFAMCHA041001123624123647000023Mad Dash - WEEKENDERS - Pizza                                                                                               150                                
ID FAMCHA041001123647123701000014Mad Dash Block Open (:13-:15)                                                                                               150                                
PROFAMCHA041001123701123711000010CC Disclaimer - FAST - Family.ca (:08-:10)                                                                                  150                                
PGRFAMCHA041001123711125959002248Goof Troop                                        Goodbye, Mr. Goofy                                                   6068607ECC                              
PROFAMCHA041001125959130015000016PS - 20(PH) - MERMAID/ALADDIN/DALMATIANS (:14-:16)                                                                          150                                
PROFAMCHA041001130015130045000030Playhouse (PRINCESS) (PH/PM) - Coming Up Next                                                                               150                                
ID FAMCHA041001130045130100000015PS Playhouse PM Block Open (:10-:15)                                                                                        150                                
PROFAMCHA041001130100130109000009CC Disclaimer - FAST - Family.ca (:08-:10)                                                                                  150                                
PGRFAMCHA041001130109132410002301Little Mermaid; The                               Ariel's Treasures                                                    6068607ECC                              
PROFAMCHA041001132410132425000015PS - 21(PH) - ALADDIN/DALMATIANS/HOZE (:14-:16) (A                                                                          150                                
PRCFAMCHA041001132425132448000023Playhouse - HOUSE OF MOUSE - Calculator                                                                                     150                                
ID FAMCHA041001132448132500000012PS Playhouse PM Block Open (:10-:15)                                                                                        150                                
PROFAMCHA041001132500132509000009CC Disclaimer - FAST - Family.ca (:08-:10)                                                                                  150                                
PGRFAMCHA041001132509134748002239Disney's Aladdin                                  Strike Up The Sand                                                  A6068607ECC                              
PROFAMCHA041001134748134803000015PS - 22(PH) - DALMATIANS/HOZE/HOUSE (:14-:16) (AUG                                                                          150                                
ID FAMCHA041001134803134818000015PS Playhouse PM Block Open (:10-:15)                                                                                        150                                
PGRFAMCHA041001134818141104002246Disney's 101 Dalmatians: The Series               EPS # 1-028                                                         A6068607E                                
PROFAMCHA041001141104141119000015PS - 23(PH) - HOZE/HOUSE/FILLMORE (:14-:16) (AUG04                                                                          150                                
PRCFAMCHA041001141119141146000027Playhouse - FRANKLIN - Laundry                                                                                              150                                
ID FAMCHA041001141146141200000014PS Playhouse AM Block Open (:10-:15)                                                                                        150                                
PROFAMCHA041001141200141209000009CC Disclaimer - FAST - Family.ca (:08-:10)                                                                                  150                                
PGRFAMCHA041001141209143445002236Hoze Houndz                                       Blasterpiece/When The Flu Hits The Fan                        B45775A1065607ECC                              
PROFAMCHA041001143445143500000015PS - 24(PH) - HOUSE/FILLMORE/WEEKENDERS (:14-:16)                                                                           150                                
PRCFAMCHA041001143500143546000046Playhouse - STANLEY - Squirrel Song                                                                                         150                                
ID FAMCHA041001143546143600000014PS Playhouse PM Block Open (:10-:15)                                                                                        150                                
PROFAMCHA041001143600143609000009CC Disclaimer - FAST - Family.ca (:08-:10)                                                                                  150                                
PGRFAMCHA041001143609145846002237Disney's House Of Mouse                           House Of Scrooge                                                    A6068607ECC                              
PROFAMCHA041001145846145901000015Mad Dash - 01 - FILLMORE/WEEKENDERS/RECESS (:14-:1                                                                          150                                
PROFAMCHA041001145901145935000034Fillmore (AUG04) - (MD) - Coming Up Next                                                                                    150                                
PRCFAMCHA041001145935145945000010Mad Dash - LIZZIE MCGUIRE - Going In                                                                                        150                                
ID FAMCHA041001145945150000000015Mad Dash Block Open (:13-:15)                                                                                               150                                
PGRFAMCHA041001150000152238002238Disney's Fillmore!                                Nappers Never Sleep                                                 A6068607E                                
PROFAMCHA041001152238152254000016Mad Dash - 02 - WEEKENDERS/RECESS/DAVE (:14-:16) (                                                                          150                                
PROFAMCHA041001152254152324000030Weekenders (AUG04) - Coming Up Next                                                                                         150                                
PROFAMCHA041001152324152354000030My Scene Masquerade - Contest (Sep 27 - Oct 16)                                                                             150                                
PROFAMCHA041001152354152424000030Recess (AUG04) - Today @ 3:50pm                                                                                             150                                
PROFAMCHA041001152424152436000012Mad Dash - RECESS - Sprinkler                                                                                               150                                
PRCFAMCHA041001152436152445000009Family Bumpers - (Phase 1 Spring 04) - Soccer (MD-                                                                          150                                
ID FAMCHA041001152445152500000015Mad Dash Block Open (:13-:15)                                                                                               150                                
PGRFAMCHA041001152500154740002240Disney's The Weekenders                           New Friends/The Awful Weekend                                       A6068607E                                
PROFAMCHA041001154740154755000015Mad Dash - 03 - RECESS/DAVE/KIM (:14-:16) (AUG04)                                                                           150                                
PROFAMCHA041001154755154825000030Recess (AUG04) - Coming Up Next                                                                                             150                                
PRCFAMCHA041001154825154855000030Barbie: Princess & Pauper Blast! - Avail. Now (Sep                                                                          150                                
PROFAMCHA041001154855154925000030Dave the Barbarian (MD) - Today @ 4:15pm                                                                                    150                                
PRCFAMCHA041001154925154947000022Mad Dash - LIZZIE MCGUIRE - Chase                                                                                           150                                
ID FAMCHA041001154947155000000013Mad Dash Block Open (:13-:15)                                                                                               150                                
PGRFAMCHA041001155000161235002235Disney's Recess                                   The Dude/Bonky Fever                                                 6068607E                                
PROFAMCHA041001161235161251000016Mad Dash - 04 - DAVE/KIM/PROUD (:14-:16) (AUG04)                                                                            150                                
PROFAMCHA041001161251161321000030Dave the Barbarian (MD) - Coming Up Next                                                                                    150                                
PROFAMCHA041001161321161352000031Lizzie McGuire - (AUG04) (MD) - Today @ 5:35pm                                                                              150                                
PRCFAMCHA041001161352161422000030Mad Dash Combo (AUG04) - You're Experiencing                                                                                150                                
INTFAMCHA041001161422161536000114Gagsters - Eye Dropper                                                                                                A20686120                                
PRCFAMCHA041001161536161545000009Family Bumpers - (Phase 1 Spring 04) - Soccer (MD-                                                                          150                                
ID FAMCHA041001161545161600000015Mad Dash Block Open (:13-:15)                                                                                               150                                
PGRFAMCHA041001161600163839002239Disney's Dave the Barbarian                       EPS # 09                                                             6068607E                                
PROFAMCHA041001163839163855000016Mad Dash - 05 - KIM/PROUD/LIZZIE (:14-:16) (AUG04)                                                                          150                                
PRCFAMCHA041001163855163925000030Mad Dash Combo (AUG04) - You're Experiencing                                                                                150                                
PROFAMCHA041001163925163955000030My Scene Masquerade - Contest (Sep 27 - Oct 16)                                                                             150                                
PROFAMCHA041001163955164025000030All That (AUG04) (FRI) - Tonight @ 6pm                                                                                      150                                
INTFAMCHA041001164025164120000055Gagsters - Bouncing Ball                                                                                              A20686120                                
PROFAMCHA041001164120164145000025xxEven Stevens (AUG04) - (NS) - Tonight @ 6:30pm                                                                            150                                
ID FAMCHA041001164145164200000015Mad Dash Block Open (:13-:15)                                                                                               150                                
PGRFAMCHA041001164200170454002254Disney's Kim Possible                             EPS # 1-048                                                         A6068607E                                
PROFAMCHA041001170454170510000016Mad Dash - 06 (FRI) - PROUD/LIZZIE/ALL (:14-:16) (                                                                          150                                
PROFAMCHA041001170510170541000031Lizzie McGuire - (AUG04) (MD) - Today @ 5:35pm                                                                              150                                
PROFAMCHA041001170541170611000030All That (AUG04) (FRI) - Tonight @ 6pm                                                                                      150                                
PRCFAMCHA041001170611170641000030Mad Dash Combo (AUG04) - You're Experiencing                                                                                150                                
PROFAMCHA041001170641170706000025xxEven Stevens (AUG04) - (NS) - Tonight @ 6:30pm                                                                            150                                
PROFAMCHA041001170706170744000038Teen Angel (AUG04) (NSW) - Tomorrow @ 7:50am                                                                                150                                
ID FAMCHA041001170744170759000015Mad Dash Block Open (:13-:15)                                                                                               150                                
PROFAMCHA041001170759170808000009CC Disclaimer - FAST - Family.ca (:08-:10)                                                                                  150                                
PGRFAMCHA041001170808173017002209Proud Family; The                                 Rumors                                                              A6068807ECC                              
PROFAMCHA041001173017173031000014Mad Dash - 07 (FRI) - LIZZIE/ALL/EVEN (:14-:16) (A                                                                          150                                
PROFAMCHA041001173031173102000031Lizzie McGuire - (AUG04) (MD) - Coming Up Next                                                                              150                                
PRCFAMCHA041001173102173132000030Raise Your Voice Blast! - In Theatres Oct 8 (Sept                                                                           150                                
PROFAMCHA041001173132173202000030All That (AUG04) (FRI) - Tonight @ 6pm                                                                                      150                                
PROFAMCHA041001173202173227000025xxEven Stevens (AUG04) - (NS) - Tonight @ 6:30pm                                                                            150                                
PROFAMCHA041001173227173253000026Smart Guy (AUG04) - (NS/FRI) - Tonight @ 7pm                                                                                150                                
PROFAMCHA041001173253173338000045My So-Called Life - Mon - Thurs @ 11pm                                                                                      150                                
PRCFAMCHA041001173338173347000009Family Bumpers - (Phase 1 Spring 04) - Soccer (MD-                                                                          150                                
ID FAMCHA041001173347173400000013Mad Dash Block Open (:13-:15)                                                                                               150                                
ID FAMCHA041001173400173408000008Magic of Disney - MAD DASH - Shape (:06-:09)                                                                                150                                
PGRFAMCHA041001173408175642002234Lizzie McGuire                                    When Moms Attack                                                    A6068607B                                
PROFAMCHA041001175642175656000014Nonstop - 01(FRI) - ALL/EVEN/SMART (:14-:16) (AUG0                                                                          150                                
PROFAMCHA041001175656175726000030All That (AUG04) (FRI) - Coming Up Next                                                                                     150                                
PROFAMCHA041001175726175751000025xxEven Stevens (AUG04) - (NS) - Tonight @ 6:30pm                                                                            150                                
PROFAMCHA041001175751175817000026Smart Guy (AUG04) - (NS/FRI) - Tonight @ 7pm                                                                                150                                
PROFAMCHA041001175817175855000038Teen Angel (AUG04) (NSW) - Tomorrow @ 7:50am                                                                                150                                
INTFAMCHA041001175855175946000051Gagsters - Munchin Mouse                                                                                              A20686120                                
ID FAMCHA041001175946180000000014Nonstop Block Open (:14-:17)                                                                                                150                                
PGRFAMCHA041001180000182000002000All That                                          EPS # 949                                                           A20686090                                
PROFAMCHA041001182000182015000015Nonstop - 02(FRI) - EVEN/SMART/P-PIX (:14-:16) (AU                                                                          150                                
PROFAMCHA041001182015182040000025xxEven Stevens (AUG04) - (NS) - Coming Up Next                                                                              150                                
PRCFAMCHA041001182040182110000030Barbie: Princess & Pauper Blast! - Avail. Now (Sep                                                                          150                                
PROFAMCHA041001182110182136000026Smart Guy (AUG04) - (NS/FRI) - Tonight @ 7pm                                                                                150                                
PROFAMCHA041001182136182146000010FAMJAM - Open                                                                                                               150                                
INTFAMCHA041001182146182523000337MV Disney - (MD/NS/NSW) - Backflip (Raven)                                                                             60688120                                
PROFAMCHA041001182523182537000014FAMJAM - Close (LOGO)                                                                                                       150                                
PROFAMCHA041001182537182615000038Teen Angel (AUG04) (NSW) - Tomorrow @ 7:50am                                                                                150                                
PRCFAMCHA041001182615182645000030Radio Free Roscoe II - V1 (NSW/AM) - Tomorrow @ 8:                                                                          150                                
PROFAMCHA041001182645182715000030Boy Meets World (AUG04) - (NSW) - Tomorrow @ 10:40                                                                          150                                
INTFAMCHA041001182715182821000106Gagsters - Comic Craziness                                                                                            A20686120                                
PROFAMCHA041001182821182852000031xxThat's So Raven (AUG04) - (NSW/AM) - Tomorrow @                                                                           150                                
PROFAMCHA041001182852182931000039Brotherly Love (NSW) - Tomorrow @ 11:30am                                                                                   150                                
PRCFAMCHA041001182931182945000014Family Bumpers - (Phase 1 Spring 04) - Basketball                                                                           150                                
ID FAMCHA041001182945183000000015Nonstop Block Open (:14-:17)                                                                                                150                                
PROFAMCHA041001183000183009000009CC Disclaimer - FAST - Family.ca (:08-:10)                                                                                  150                                
PGRFAMCHA041001183009185240002231Even Stevens                                      Steven's Manor                                                      A6068807BCC                              
PROFAMCHA041001185240185255000015Nonstop - 03(FRI) - SMART/P-PIX (:14-:16) (AUG04)                                                                           150                                
PROFAMCHA041001185255185321000026Smart Guy (AUG04) - (NS/FRI) - Coming Up Next                                                                               150                                
PRCFAMCHA041001185321185351000030Popcorn Pix Block Promo (ACTION) - Tonight @ 7:30p                                                                          150                                
PROFAMCHA041001185351185422000031Lizzie McGuire - (AUG04) (NSW/AM) - Tomorrow @ 7:2                                                                          150                                
PROFAMCHA041001185422185432000010FAMJAM - Open                                                                                                               150                                
INTFAMCHA041001185432185809000337MV Disney - So Yesterday LIVE (Hillary Duff)                                                                           60688120                                
PROFAMCHA041001185809185823000014FAMJAM - Close (EMAIL)                                                                                                      150                                
PRCFAMCHA041001185823185853000030Radio Free Roscoe II - V2 (NSW/AM) - Tomorrow @ 8:                                                                          150                                
PROFAMCHA041001185853185923000030Boy Meets World (AUG04) - (NSW) - Tomorrow @ 10:40                                                                          150                                
PRCFAMCHA041001185923185935000012Family Bumpers - (Phase 1 Spring 04) - Pillow Figh                                                                          150                                
PRCFAMCHA041001185935185944000009Radio Free Roscoe ID (MAR) - You're Watching Famil                                                                          150                                
ID FAMCHA041001185944190000000016Nonstop Block Open (:14-:17)                                                                                                150                                
PROFAMCHA041001190000190010000010CC Disclaimer - FAST - Family.ca (:08-:10)                                                                                  150                                
PGRFAMCHA041001190010192238002228Smart Guy                                         Goodbye Mr. Chimps                                                  A6068807BCC                              
PROFAMCHA041001192238192254000016Nonstop - 04(FRI) - RADIO/DARK (:14-:16) (AUG04)                                                                            150                                
PROFAMCHA041001192254192332000038Teen Angel (AUG04) (NSW) - Tomorrow @ 7:50am                                                                                150                                
PRCFAMCHA041001192332192402000030Radio Free Roscoe II - V1 (NSW/AM) - Tomorrow @ 8:                                                                          150                                
PROFAMCHA041001192402192441000039Brotherly Love (NSW) - Tomorrow @ 11:30am                                                                                   150                                
PROFAMCHA041001192441192451000010FAMJAM - Open                                                                                                               150                                
MVCFAMCHA041001192441192740000259MV - Forca (Nelly Furtado)                                                                                            A10678120                                
PROFAMCHA041001192750192804000014FAMJAM - Close (EMAIL)                                                                                                      150                                
PRCFAMCHA041001192804192824000020Radio Free Roscoe - Webthrow (Shady Lane)                                                                                   150                                
PROFAMCHA041001192824192857000033In A Heartbeat (AUG04) (NSW) - Tomorrow @ 7:25pm                                                                            150                                
PROFAMCHA041001192857192927000030Knock First (AUG04) (NSW/PM) - Tomorrow @ 7:50pm                                                                            150                                
PRCFAMCHA041001192927192936000009Family Bumpers - (Phase 1 Spring 04) - DJ Spinning                                                                          150                                
ID FAMCHA041001192936192953000017Nonstop Block Open (:14-:17)                                                                                                150                                
ID FAMCHA041001192953193003000010Rating - PG - Ian (:08-:10)                                                                                                 150                                
PROFAMCHA041001193003193013000010CC Disclaimer - FAST - Family.ca (:08-:10)                                                                                  150                                
PGRFAMCHA041001193013211113014100Groundhog Day                                                                                                         B2068807DCC                              
PROFAMCHA041001211113211129000016Nightly Pix Line-up (SEPT) - GENERIC (:14-:16)                                                                              150                                
ID FAMCHA041001211129211144000015Nightly Pix Movie Open (:10-:15)                                                                                            150                                
ID FAMCHA041001211144211154000010Rating - PG - Ian (:08-:10)                                                                                                 150                                
PROFAMCHA041001211154211204000010CC Disclaimer - SLOW - Family.ca (:08-:10)                                                                                  150                                
PGRFAMCHA041001211204225042013838Marvin's Room                                                                                                         B2068807ECC                              
PROFAMCHA041001225042225058000016Nightly Pix Line-up (SEPT) - GENERIC (:14-:16)                                                                              150                                
ID FAMCHA041001225058225113000015Nightly Pix Movie Open (:10-:15)                                                                                            150                                
ID FAMCHA041001225113225122000009Rating - AA - Ian (:08-:10)                                                                                                 150                                
PROFAMCHA041001225122225132000010CC Disclaimer - SLOW - Family.ca (:08-:10)                                                                                  150                                
PGRFAMCHA041001225132002245013113Distinguished Gentleman, The                                                                                          C6068807DCC                              
PROFAMCHA041001002245002301000016Nonstop - 04(FRI) - RADIO/DARK (:14-:16) (AUG04)                                                                            150                                
ID FAMCHA041001002301002318000017Nonstop Block Open (:14-:17)                                                                                                150                                
PROFAMCHA041001002318002327000009CC Disclaimer - SLOW - Family.ca (:08-:10)                                                                                  150                                
PGRFAMCHA041001002327004557002230Radio Free Roscoe                                 EPS # 010                                                     A88726A1065607ACC                              
PROFAMCHA041001004557004613000016Nonstop - 10 (FRI) - DARK (:14-:16) (AUG04)                                                                                 150                                
ID FAMCHA041001004613004628000015Nonstop Block Open (:14-:17)                                                                                                150                                
PGRFAMCHA041001004628011052002424Are You Afraid Of The Dark?                       The Tale of the Midnight Madness                              SR0303 1066807A                                
PRCFAMCHA041001011052011122000030Astral - Clock                                                                                                              150                                
SO FAMCHA041001011122012322001200Sign Off                                                                                                                                                       
OFFFAMCHA041001012322043000030638OFF AIR                                                                                                                                                        
SO FAMCHA041002043000043011000011Sign On (oct 1)                                                                                                                                                
PROFAMCHA041002043011043021000010CC Disclaimer - FAST - Generic (:08-:10)                                                                                    150                                
PGRFAMCHA041002043021045314002253Franklin                                          Franklin and the Grump/Franklin's Promise                     B36672A1065607ECC                              
PROFAMCHA041002045314045328000014Nnstp Wknd - 01(PH) - WTP/BENJAMIN/FRANNY (:14-:16                                                                          150                                
ID FAMCHA041002045328045338000010PS Playhouse AM Block Open (:10-:15)                                                                                        150                                
PROFAMCHA041002045338045348000010CC Disclaimer - FAST - Generic (:08-:10)                                                                                    150                                
PGRFAMCHA041002045348051631002243New Adventures of Winnie the Pooh; The            Gone With The Wind/Nothing But the Tooth                             6068607ECC                              
PROFAMCHA041002051631051647000016Nnstp Wknd - 02(PH) - BENJAMIN/FRANNY/HOZE (:14-:1                                                                          150                                
ID FAMCHA041002051647051700000013PS Playhouse AM Block Open (:10-:15)                                                                                        150                                
PROFAMCHA041002051700051710000010CC Disclaimer - FAST - Generic (:08-:10)                                                                                    150                                
INTFAMCHA041002051700053935002235Secret World Of Benjamin Bear; The                EPS # 1-011                                                   A75156A10656120CC                              
PROFAMCHA041002053945054001000016Nnstp Wknd - 03(PH) - FRANNY/HOZE/NINJA (:14-:16)                                                                           150                                
PRCFAMCHA041002054001054034000033Playhouse - HOUSE OF MOUSE - Someone's Watching                                                                             150                                
PRCFAMCHA041002054034054046000012Family Bumpers - (Phase 1 Spring 04) - Funhouse (P                                                                          150                                
ID FAMCHA041002054046054100000014PS Playhouse AM Block Open (:10-:15)                                                                                        150                                
PROFAMCHA041002054100054110000010CC Disclaimer - FAST - Generic (:08-:10)                                                                                    150                                
PGRFAMCHA041002054110060340002230Franny's Feet                                     EPS # 1-011                                                   A84200A1065607ECC                              
PROFAMCHA041002060340060356000016Nnstp Wknd - 04(PH) - HOZE/NINJA/DINO (:14-:16) (A                                                                          150                                
PROFAMCHA041002060356060426000030Family Image AUG04 - Playhouse                                                                                        A     150                                
PRCFAMCHA041002060426060449000023Playhouse - HOUSE OF MOUSE - Calculator                                                                                     150                                
ID FAMCHA041002060449060500000011PS Playhouse AM Block Open (:10-:15)                                                                                        150                                
PROFAMCHA041002060500060510000010CC Disclaimer - FAST - Generic (:08-:10)                                                                                    150                                
PGRFAMCHA041002060510062744002234Hoze Houndz                                       Jump On The Boy Bandwagon/Game Overkill                       B45769A1065607ECC                              
PROFAMCHA041002062744062800000016Nnstp Wknd - 05(PB) - NINJA/DINO/LIZZIE (:14-:16)                                                                           150                                
PROFAMCHA041002062800062830000030Power Rangers Ninja Storm (AUG04) (PB) - Coming Up                                                                          150                                
INTFAMCHA041002062830062911000041Gagsters - Messy Mouth                                                                                                A20686120                                
PROFAMCHA041002062911062947000036Power Rangers Dino Thunder (LONG/0804) - Today @ 6                                                                          150                                
ID FAMCHA041002062947063000000013Power Box Block Open (:12-:15)                                                                                              150                                
PGRFAMCHA041002063000065124002124Power Rangers Ninja Storm                         EPS # 1-036                                                         A6068607E                                
PROFAMCHA041002065124065140000016Nnstp Wknd - 06(PB) - DINO/LIZZIE/TEEN (:14-:16) (                                                                          150                                
PROFAMCHA041002065140065216000036Power Rangers Dino Thunder (LONG/0804) - Coming Up                                                                          150                                
PROFAMCHA041002065216065254000038Teen Angel (AUG04) (NSW) - Today @ 7:50am                                                                                   150                                
INTFAMCHA041002065254065418000124Gagsters - Copy Cat                                                                                                   A20686120                                
PROFAMCHA041002065418065436000018Lizzie McGuire - ACTING (NSW/AM) - Today @ 7:20am                                                                           150                                
PRCFAMCHA041002065436065445000009Family Bumpers - (Phase 1 Spring 04) - DJ Spinning                                                                          150                                
ID FAMCHA041002065445065500000015Power Box Block Open (:12-:15)                                                                                              150                                
PGRFAMCHA041002065500071629002129Power Rangers Dino Thunder                        EPS # 28                                                            A6068607E                                
PROFAMCHA041002071629071645000016Nnstp Wknd - 07 - LIZZIE/TEEN/RADIO (:14-:16) (AUG                                                                          150                                
PROFAMCHA041002071645071716000031Lizzie McGuire - (AUG04) (NSW) - Coming Up Next                                                                             150                                
PROFAMCHA041002071716071746000030My Scene Masquerade - Contest (Sep 27 - Oct 16)                                                                             150                                
PROFAMCHA041002071746071824000038Teen Angel (AUG04) (NSW) - Today @ 7:50am                                                                                   150                                
INTFAMCHA041002071824071954000130Klootz - Oasis 01                                                                                                     A10658120                                
PRCFAMCHA041002071954072024000030Radio Free Roscoe II - V1 (NSW/AM) - Today @ 8:15a                                                                          150                                
PROFAMCHA041002072024072045000021Proud Family - TIC TAC TOE (NSW) - Today @ 4:45pm                                                                           150                                
ID FAMCHA041002072045072100000015Nonstop Weekend Block Open (:14-:17)                                                                                        150                                
ID FAMCHA041002072100072108000008Magic of Disney - NS/NSW/PB - Shape (:06-:09)                                                                               150                                
PGRFAMCHA041002072108074343002235Lizzie McGuire                                    I Do, I Don't                                                       A6068607B                                
PROFAMCHA041002074343074359000016Nnstp Wknd - 08 - TEEN/RADIO/AMANDA (:14-:16) (AUG                                                                          150                                
PROFAMCHA041002074359074437000038Teen Angel (AUG04) (NSW) - Coming Up Next                                                                                   150                                
PRCFAMCHA041002074437074507000030Radio Free Roscoe II - V2 (NSW/AM) - Today @ 8:15a                                                                          150                                
PROFAMCHA041002074507074517000010FAMJAM - Open                                                                                                               150                                
INTFAMCHA041002074517074732000215MV Disney - (MD/NS/NSW) - Cinderella (Cheetah Girl                                                                     60688120                                
PROFAMCHA041002074732074746000014FAMJAM - Close (LOGO)                                                                                                       150                                
PROFAMCHA041002074746074816000030Amanda Show - (AUG04) - (NSW) - Today @ 8:45am                                                                              150                                
PROFAMCHA041002074816074846000030All That (AUG04) (NSW) - Today @ 9:15am                                                                                     150                                
ID FAMCHA041002074846074900000014Nonstop Weekend Block Open (:14-:17)                                                                                        150                                
PROFAMCHA041002074900074910000010CC Disclaimer - FAST - Generic (:08-:10)                                                                                    150                                
PGRFAMCHA041002074910081056002146Teen Angel                                        Date With An Angel                                                  A6068807BCC                              
PROFAMCHA041002081056081112000016Nnstp Wknd - 09 - RADIO/AMANDA/ALL (:14-:16) (AUG0                                                                          150                                
PRCFAMCHA041002081112081142000030Radio Free Roscoe II - V1 (NSW) - Coming Up Next                                                                            150                                
PRCFAMCHA041002081142081206000024Nonstop Weekend - EVEN STEVENS - Banned                                                                                     150                                
PROFAMCHA041002081206081236000030Amanda Show - (AUG04) - (NSW) - Today @ 8:45am                                                                              150                                
PROFAMCHA041002081236081306000030All That (AUG04) (NSW) - Today @ 9:15am                                                                                     150                                
INTFAMCHA041002081306081436000130Klootz - Grand Escape #6                                                                                              A10658120                                
PROFAMCHA041002081436081507000031xxThat's So Raven (AUG04) - (NSW/AM) - Today @ 9:4                                                                          150                                
PROFAMCHA041002081507081532000025xxEven Stevens (AUG04) - (NSW) - Today @ 10:10am                                                                            150                                
PRCFAMCHA041002081532081546000014Family Bumpers - (Phase 1 Spring 04) - Basketball                                                                           150                                
ID FAMCHA041002081546081600000014Nonstop Weekend Block Open (:14-:17)                                                                                        150                                
PROFAMCHA041002081600081610000010CC Disclaimer - FAST - Generic (:08-:10)                                                                                    150                                
PGRFAMCHA041002081610083840002230Radio Free Roscoe                                 EPS # 008                                                     A88724A1065607ACC                              
PROFAMCHA041002083840083856000016Nnstp Wknd - 10 - AMANDA/ALL/RAVEN (:14-:16) (AUG0                                                                          150                                
PROFAMCHA041002083856083926000030Amanda Show - (AUG04) - (NSW) - Coming Up Next                                                                              150                                
PROFAMCHA041002083926083956000030All That (AUG04) (NSW) - Today @ 9:15am                                                                                     150                                
PRCFAMCHA041002083956084015000019Nonstop Weekend - EVEN STEVENS - Locker                                                                                     150                                
PROFAMCHA041002084015084046000031xxThat's So Raven (AUG04) - (NSW/AM) - Today @ 9:4                                                                          150                                
INTFAMCHA041002084046084216000130Klootz - Western 04                                                                                                   A10658120                                
PROFAMCHA041002084216084241000025xxEven Stevens (AUG04) - (NSW) - Today @ 10:10am                                                                            150                                
PRCFAMCHA041002084241084305000024Nonstop Weekend - KIM POSSIBLE - Gadgets                                                                                    150                                
PROFAMCHA041002084305084335000030Boy Meets World (AUG04) - (NSW) - Today @ 10:40am                                                                           150                                
PRCFAMCHA041002084335084344000009Family Bumpers - (Phase 1 Spring 04) - Soccer (MD-                                                                          150                                
ID FAMCHA041002084344084400000016Nonstop Weekend Block Open (:14-:17)                                                                                        150                                
PGRFAMCHA041002084400090820002420Amanda Show; The                                                                                                      A20686090                                
PROFAMCHA041002090820090836000016Nnstp Wknd - 11 - ALL/RAVEN/EVEN (:14-:16) (AUG04)                                                                          150                                
PROFAMCHA041002090836090906000030All That (AUG04) (NSW) - Coming Up Next                                                                                     150                                
PROFAMCHA041002090906090936000030My Scene Masquerade - Contest (Sep 27 - Oct 16)                                                                             150                                
PROFAMCHA041002090936091007000031xxThat's So Raven (AUG04) - (NSW/AM) - Today @ 9:4                                                                          150                                
INTFAMCHA041002091007091225000218Art Attack - Windmill                                                                                                  60688120                                
PROFAMCHA041002091225091250000025xxEven Stevens (AUG04) - (NSW) - Today @ 10:10am                                                                            150                                
PROFAMCHA041002091250091320000030Boy Meets World (AUG04) - (NSW) - Today @ 10:40am                                                                           150                                
PROFAMCHA041002091320091346000026Smart Guy (AUG04) - (NSW/AM) - Today @ 11:05am                                                                              150                                
ID FAMCHA041002091346091400000014Nonstop Weekend Block Open (:14-:17)                                                                                        150                                
PGRFAMCHA041002091400093400002000All That                                          EPS # 946                                                           A20686090                                
PROFAMCHA041002093400093416000016Nnstp Wknd - 12 - RAVEN/EVEN/BMW (:14-:16) (AUG04)                                                                          150                                
PROFAMCHA041002093416093447000031xxThat's So Raven (AUG04) - (NSW) - Coming Up Next                                                                          150                                
PROFAMCHA041002093447093512000025xxEven Stevens (AUG04) - (NSW) - Today @ 10:10am                                                                            150                                
PROFAMCHA041002093512093542000030Boy Meets World (AUG04) - (NSW) - Today @ 10:40am                                                                           150                                
PROFAMCHA041002093542093552000010FAMJAM - Open                                                                                                               150                                
INTFAMCHA041002093552093943000351MV Disney - Fly (Hillary Duff)                                                                                         60688120                                
PROFAMCHA041002093943093957000014FAMJAM - Close (LOGO)                                                                                                       150                                
PROFAMCHA041002093957094023000026Smart Guy (AUG04) - (NSW/AM) - Today @ 11:05am                                                                              150                                
PROFAMCHA041002094023094102000039Brotherly Love (NSW) - Today @ 11:30am                                                                                      150                                
INTFAMCHA041002094102094205000103Gagsters - Box Of Chocolates                                                                                          A20686120                                
PRCFAMCHA041002094205094235000030Weekend Double Pix Promo (ACTION) - Today, Startin                                                                          150                                
PRCFAMCHA041002094235094244000009Family Bumpers - (Phase 1 Spring 04) - DJ Spinning                                                                          150                                
ID FAMCHA041002094244094300000016Nonstop Weekend Block Open (:14-:17)                                                                                        150                                
PGRFAMCHA041002094300100539002239That's So Raven                                   EPS # 1-050                                                          6068807B                                
PROFAMCHA041002100539100555000016Nnstp Wknd - 13 - EVEN/BMW/SMART (:14-:16) (AUG04)                                                                          150                                
PROFAMCHA041002100555100620000025xxEven Stevens (AUG04) - (NSW) - Coming Up Next                                                                             150                                
PROFAMCHA041002100620100650000030Boy Meets World (AUG04) - (NSW) - Today @ 10:40am                                                                           150                                
INTFAMCHA041002100650100820000130Klootz - Sand Castle Awards #49                                                                                       A10658120                                
PROFAMCHA041002100820100846000026Smart Guy (AUG04) - (NSW/AM) - Today @ 11:05am                                                                              150                                
PROFAMCHA041002100846100925000039Brotherly Love (NSW) - Today @ 11:30am                                                                                      150                                
PRCFAMCHA041002100925100944000019Nonstop Weekend - EVEN STEVENS - Locker                                                                                     150                                
PRCFAMCHA041002100944101014000030Weekend Double Pix Promo (ACTION) - Today, Startin                                                                          150                                
PROFAMCHA041002101014101045000031Lizzie McGuire - (AUG04) (NSW/PM) - Today @ 3:25pm                                                                          150                                
ID FAMCHA041002101045101100000015Nonstop Weekend Block Open (:14-:17)                                                                                        150                                
ID FAMCHA041002101100101108000008Magic of Disney - NS/NSW/PB - Wipe (:06-:09)                                                                                150                                
PROFAMCHA041002101108101118000010CC Disclaimer - FAST - Generic (:08-:10)                                                                                    150                                
PGRFAMCHA041002101118103349002231Even Stevens                                      Steven's Manor                                                      A6068807BCC                              
PROFAMCHA041002103349103405000016Nnstp Wknd - 14 - BMW/SMART/BROTHERLY (:14-:16) (A                                                                          150                                
PROFAMCHA041002103405103435000030Boy Meets World (AUG04) - (NSW) - Coming Up Next                                                                            150                                
PROFAMCHA041002103435103501000026Smart Guy (AUG04) - (NSW/AM) - Today @ 11:05am                                                                              150                                
PROFAMCHA041002103501103540000039Brotherly Love (NSW) - Today @ 11:30am                                                                                      150                                
INTFAMCHA041002103540103653000113Gagsters - Planet of the Gagsters                                                                                     A20286120                                
PRCFAMCHA041002103653103723000030Weekend Double Pix Promo (ACTION) - Today, Startin                                                                          150                                
PROFAMCHA041002103723103754000031Lizzie McGuire - (AUG04) (NSW/PM) - Today @ 3:25pm                                                                          150                                
PRCFAMCHA041002103754103812000018Radio Free Roscoe - Webthrow (Waller)                                                                                       150                                
PROFAMCHA041002103812103846000034Fillmore (AUG04) - (NSW) - Today @ 5:10pm                                                                                   150                                
ID FAMCHA041002103846103900000014Nonstop Weekend Block Open (:14-:17)                                                                                        150                                
PROFAMCHA041002103900103910000010CC Disclaimer - FAST - Generic (:08-:10)                                                                                    150                                
PGRFAMCHA041002103910110051002141Boy Meets World                                   Poetic Licence: An Ode To Holden Caulfield                          B6068807BCC                              
PROFAMCHA041002110051110107000016Nnstp Wknd - 15 - SMART/BROTHERL/WD-PIX (:14-:16)                                                                           150                                
PROFAMCHA041002110107110133000026Smart Guy (AUG04) - (NSW) - Coming Up Next                                                                                  150                                
PROFAMCHA041002110133110212000039Brotherly Love (NSW) - Today @ 11:30am                                                                                      150                                
PRCFAMCHA041002110212110242000030Weekend Double Pix Promo (ACTION) - Today, Startin                                                                          150                                
PROFAMCHA041002110242110252000010FAMJAM - Open                                                                                                               150                                
INTFAMCHA041002110252110422000130MV Disney - Enjoy Yourself (The Proud Family) - LO                                                                     60688120                                
PROFAMCHA041002110422110436000014FAMJAM - Close (LOGO)                                                                                                       150                                
PROFAMCHA041002110436110507000031Lizzie McGuire - (AUG04) (NSW/PM) - Today @ 3:25pm                                                                          150                                
PROFAMCHA041002110507110541000034Fillmore (AUG04) - (NSW) - Today @ 5:10pm                                                                                   150                                
ID FAMCHA041002110541110558000017Nonstop Weekend Block Open (:14-:17)                                                                                        150                                
PROFAMCHA041002110558110608000010CC Disclaimer - FAST - Generic (:08-:10)                                                                                    150                                
PGRFAMCHA041002110608112836002228Smart Guy                                         Goodbye Mr. Chimps                                                  A6068807BCC                              
PROFAMCHA041002112836112852000016Nnstp Wknd - 16 - BROTHERLY/WD-PIX (:14-:16) (AUG0                                                                          150                                
PROFAMCHA041002112852112931000039Brotherly Love (NSW) - Coming Up Next                                                                                       150                                
PRCFAMCHA041002112931113001000030Weekend Double Pix Promo (ACTION) - Today, Startin                                                                          150                                
PROFAMCHA041002113001113032000031Lizzie McGuire - (AUG04) (NSW/PM) - Today @ 3:25pm                                                                          150                                
INTFAMCHA041002113032113202000130Klootz - Espace 04                                                                                                    A10658120                                
PROFAMCHA041002113202113236000034Fillmore (AUG04) - (NSW) - Today @ 5:10pm                                                                                   150                                
PRCFAMCHA041002113236113245000009Family Bumpers - (Phase 1 Spring 04) - Soccer (MD-                                                                          150                                
ID FAMCHA041002113245113300000015Nonstop Weekend Block Open (:14-:17)                                                                                        150                                
PGRFAMCHA041002113300115549002249Brotherly Love                                    EPS # 11                                                             6068807B                                
PROFAMCHA041002115549115605000016Nnstp Wknd - 17(SEP) - WDP MOVIE (:14-:16)                                                                                  150                                
PRCFAMCHA041002115605115635000030Weekend Double Pix Promo (ACTION) - Coming Up                                                                               150                                
PROFAMCHA041002115635115701000026Smart Guy (AUG04) - (NSW/PM) - Today @ 3pm                                                                                  150                                
PROFAMCHA041002115701115732000031Lizzie McGuire - (AUG04) (NSW/PM) - Today @ 3:25pm                                                                          150                                
INTFAMCHA041002115732115838000106Gagsters - Cafe Chaos                                                                                                 A20686120                                
PROFAMCHA041002115838115909000031xxThat's So Raven (AUG04) - (NSW/PM) - Today @ 3:5                                                                          150                                
PROFAMCHA041002115909115943000034Fillmore (AUG04) - (NSW) - Today @ 5:10pm                                                                                   150                                
ID FAMCHA041002115943120000000017Weekend Double Pix Movie Open (:13-:17)                                                                                     150                                
ID FAMCHA041002120000120009000009Rating - G - Ian (:08-:10)                                                                                                  150                                
PGRFAMCHA041002120009133041013032Invisible Dad                                                                                                         A2068807E                                
PROFAMCHA041002133041133055000014Nnstp Wknd - 17(SEP) - WDP MOVIE (:14-:16)                                                                                  150                                
ID FAMCHA041002133055133108000013Weekend Double Pix Movie Open (:13-:17)                                                                                     150                                
ID FAMCHA041002133108133117000009Rating - PG - Ian (:08-:10)                                                                                                 150                                
PGRFAMCHA041002133117144111010954Magic In The Mirror                                                                                                   B2068807D                                
PROFAMCHA041002144111144127000016Nnstp Wknd - 17 - SMART/LIZZIE/RAVEN (:14-:16) (AU                                                                          150                                
PROFAMCHA041002144127144153000026Smart Guy (AUG04) - (NSW) - Coming Up Next                                                                                  150                                
PROFAMCHA041002144153144224000031Lizzie McGuire - (AUG04) (NSW/PM) - Today @ 3:25pm                                                                          150                                
PROFAMCHA041002144224144255000031xxThat's So Raven (AUG04) - (NSW/PM) - Today @ 3:5                                                                          150                                
PROFAMCHA041002144255144329000034Fillmore (AUG04) - (NSW) - Today @ 5:10pm                                                                                   150                                
PROFAMCHA041002144329144339000010FAMJAM - Open                                                                                                               150                                
INTFAMCHA041002144339144734000355MV Disney - (MD/NS/NSW) - Breakaway (Kelly Clarkso                                                                     60688120                                
PROFAMCHA041002144734144748000014FAMJAM - Close (LOGO)                                                                                                       150                                
PROFAMCHA041002144748144818000030Lilo & Stitch (AUG04) - (NSW) - Today @ 4:20pm                                                                              150                                
PROFAMCHA041002144818144839000021Proud Family - TIC TAC TOE (NSW) - Today @ 4:45pm                                                                           150                                
INTFAMCHA041002144839145004000125Gagsters - Creepy Crawlers                                                                                            A20686120                                
PROFAMCHA041002145004145038000034Fillmore (AUG04) - (NSW) - Today @ 5:10pm                                                                                   150                                
PROFAMCHA041002145038145108000030xxKim Possible (AUG04) - (NSW) - Today @ 5:40pm                                                                             150                                
PROFAMCHA041002145108145138000030Dave the Barbarian (NSW) - Today @ 6:05pm                                                                                   150                                
PROFAMCHA041002145138145148000010FAMJAM - Open                                                                                                               150                                
INTFAMCHA041002145148145539000351MV Disney - Miracles Happen (MYRA)                                                                                     60688120                                
PROFAMCHA041002145539145553000014FAMJAM - Close (EMAIL)                                                                                                      150                                
PROFAMCHA041002145553145623000030Mentors (AUG04) (NSW) - Tonight @ 6:30pm                                                                                    150                                
PRCFAMCHA041002145623145653000030Radio Free Roscoe (SEP04) (NSW/PM) - Tonight @ 7pm                                                                          150                                
INTFAMCHA041002145653145813000120Gagsters - Random Runner                                                                                              A20686120                                
PROFAMCHA041002145813145843000030Knock First (AUG04) (NSW/PM) - Tonight @ 7:50pm                                                                             150                                
PROFAMCHA041002145843145943000100Family Image AUG04 - Full                                                                                             A     150                                
ID FAMCHA041002145943150000000017Nonstop Weekend Block Open (:14-:17)                                                                                        150                                
PROFAMCHA041002150000150010000010CC Disclaimer - FAST - Generic (:08-:10)                                                                                    150                                
PGRFAMCHA041002150010152245002235Smart Guy                                         Boomerang                                                           A6068807BCC                              
PROFAMCHA041002152245152259000014Nnstp Wknd - 18 - LIZZIE/RAVEN/LILO (:14-:16) (AUG                                                                          150                                
PROFAMCHA041002152259152330000031Lizzie McGuire - (AUG04) (NSW) - Coming Up Next                                                                             150                                
PROFAMCHA041002152330152401000031xxThat's So Raven (AUG04) - (NSW/PM) - Today @ 3:5                                                                          150                                
INTFAMCHA041002152401152504000103Gagsters - Clucking Chicken                                                                                           A20686120                                
PROFAMCHA041002152504152534000030Lilo & Stitch (AUG04) - (NSW) - Today @ 4:20pm                                                                              150                                
PROFAMCHA041002152534152555000021Proud Family - TIC TAC TOE (NSW) - Today @ 4:45pm                                                                           150                                
ID FAMCHA041002152555152609000014Nonstop Weekend Block Open (:14-:17)                                                                                        150                                
ID FAMCHA041002152609152617000008Magic of Disney - NS/NSW/PB - Shape (:06-:09)                                                                               150                                
PGRFAMCHA041002152617154851002234Lizzie McGuire                                    Bad Girl McGuire                                                    A6068607B                                
PROFAMCHA041002154851154907000016Nnstp Wknd - 19 - RAVEN/LILO/PROUD (:14-:16) (AUG0                                                                          150                                
PROFAMCHA041002154907154938000031xxThat's So Raven (AUG04) - (NSW) - Coming Up Next                                                                          150                                
PROFAMCHA041002154938155008000030Lilo & Stitch (AUG04) - (NSW) - Today @ 4:20pm                                                                              150                                
PROFAMCHA041002155008155029000021Proud Family - TIC TAC TOE (NSW) - Today @ 4:45pm                                                                           150                                
INTFAMCHA041002155029155159000130Klootz - Warming Fire #52                                                                                             A10658120                                
PROFAMCHA041002155159155233000034Fillmore (AUG04) - (NSW) - Today @ 5:10pm                                                                                   150                                
PRCFAMCHA041002155233155245000012Family Bumpers - (Phase 1 Spring 04) - Pillow Figh                                                                          150                                
ID FAMCHA041002155245155300000015Nonstop Weekend Block Open (:14-:17)                                                                                        150                                
PGRFAMCHA041002155300161539002239That's So Raven                                   EPS # 1-050                                                          6068807B                                
PROFAMCHA041002161539161555000016Nnstp Wknd - 20 - LILO/PROUD/FILLMORE (:14-:16) (A                                                                          150                                
PROFAMCHA041002161555161625000030Lilo & Stitch (AUG04) - (NSW) - Comin Up Next                                                                               150                                
PROFAMCHA041002161625161640000015Proud Family - BAD CATCH (NSW) - Today @ 4:45pm                                                                             150                                
INTFAMCHA041002161640161810000130Klootz - North Pole 04                                                                                                A10658120                                
PROFAMCHA041002161810161844000034Fillmore (AUG04) - (NSW) - Today @ 5:10pm                                                                                   150                                
PROFAMCHA041002161844161914000030xxKim Possible (AUG04) - (NSW) - Today @ 5:40pm                                                                             150                                
PROFAMCHA041002161914161939000025xxEven Stevens (AUG04) - (NSW) - Tomorrow @ 10:10a                                                                          150                                
ID FAMCHA041002161939161946000007Lindsay Lohan ID - You're Watching Family                                                                                   150                                
ID FAMCHA041002161946162000000014Nonstop Weekend Block Open (:14-:17)                                                                                        150                                
PGRFAMCHA041002162000164239002239Disney's Lilo & Stitch: The Series                EPS # 19                                                            A6068607E                                
PROFAMCHA041002164239164255000016Nnstp Wknd - 21 - PROUD/FILLMORE/KIM (:14-:16) (AU                                                                          150                                
PROFAMCHA041002164255164316000021Proud Family - TIC TAC TOE (NSW) - Coming Up Next                                                                           150                                
