PGRFAMCHA140801043000045232002232The Secret World of Benjamin Bear                 EPS # 1-010                                                   B75155 1065607ECC                              
PROFAMCHA140801045232045239000007D-JR Live Action ID - Franny's Feet - Coming Up (M                                                                          150                                
PROFAMCHA140801045239045304000025D-JR Live Action ID - #20 Calendar (May2012)                                                                                150                                
PROFAMCHA140801045304045400000056D-JR OOB - Callie 117 - New Ep Sunday Aug 3 @ 1130                                                                          150                                
PROFAMCHA140801045400045425000025D-JR Promo - JATNP - Get more on the channel REV (                                                                          150                                
PROFAMCHA140801045425045509000044D-JR OOB - Summer Marathons Weekdays @ 130 (Jul3-A                                                                          150                                
PROFAMCHA140801045509045534000025D-JR Live Action ID - # Learning Hot and Cold (Oct                                                                          150                                
PROFAMCHA140801045534045541000007D-JR Live Action ID - Franny's Feet - Now (May2012                                                                          150                                
PROFAMCHA140801045541045556000015D-JR - Daily ID - Friday (Feb2014)                                                                                          150                                
PGRFAMCHA140801045556051829002233Franny's Feet                                     EP: 51                                                        C31292 1065607ECC                              
PROFAMCHA140801051829051836000007D-JR Live Action ID - SWOBB - Coming Up (May2012)                                                                           150                                
PROFAMCHA140801051836051901000025D-JR Live Action ID - #15 Sidewalk Chalk (Sep2013)                                                                          150                                
PROFAMCHA140801051901051957000056D-JR OOB - Callie 117 - New Ep Sunday Aug 3 @ 1130                                                                          150                                
PROFAMCHA140801051957052027000030D-JR OOB - Jake 316 New Ep Wednesday Aug 6 @ 430 (                                                                          150                                
PROFAMCHA140801052027052052000025D-JR Live Action ID - #42 Brush Teeth (May2012)                                                                             150                                
PROFAMCHA140801052052052059000007D-JR Live Action ID - SWOBB - Now (May2012)                                                                                 150                                
PROFAMCHA140801052059052109000010D-JR - Hero Flex ID - Purple (:06-:10) (Feb2014)                                                                            150                                
PGRFAMCHA140801052109054340002231The Secret World of Benjamin Bear                 EP: 34                                                        C27272 1065607ECC                              
PROFAMCHA140801054340054347000007D-JR Live Action ID - Harry & His Dinosaurs - Comi                                                                          150                                
PROFAMCHA140801054347054412000025D-JR Live Action ID - #28 Clapping Game (Sep2013)                                                                           150                                
PROFAMCHA140801054412054427000015D-JR - Monthly ID - August (Aug2014)                                                                                        150                                
PROFAMCHA140801054427054452000025D-JR Live Action ID - #10 Build A Block Tower (Sep                                                                          150                                
PROFAMCHA140801054452054459000007D-JR Live Action ID - Harry & His Dinosaurs - Now                                                                           150                                
PGRFAMCHA140801054459060637002138Harry and His Bucket Full of Dinosaurs            EP: 06                                                        B05025 1065607ECC                              
PROFAMCHA140801060637060645000008D-JR Live Action ID - Stella & Sam - Coming Up (Ma                                                                          150                                
PROFAMCHA140801060645060710000025D-JR Live Action ID - #64 Pick Up Room/Turn off Li                                                                          150                                
PROFAMCHA140801060710060806000056D-JR OOB - Callie 117 - New Ep Sunday Aug 3 @ 1130                                                                          150                                
PROFAMCHA140801060806060851000045D-JR OOB - Sizzling Summer Movies & Specials 2 - W                                                                          150                                
PROFAMCHA140801060851060921000030D-JR OOB - Jake 316 New Ep Wednesday Aug 6 @ 430 (                                                                          150                                
PROFAMCHA140801060921060946000025D-JR Live Action ID - #50 Feed Dog (Sep2013)                                                                                150                                
PROFAMCHA140801060946060954000008D-JR Live Action ID - Stella & Sam - Now (Mar2013)                                                                          150                                
PROFAMCHA140801060954061004000010D-JR - Hero Flex ID - Green (:06-:10) (Feb2014)                                                                             150                                
PGRFAMCHA140801061004063320002316Stella and Sam                                    EP: 09                                                        C33973 1065607ECC                              
PROFAMCHA140801063320063357000037Stunt OOTW A (HD) Tonight Starting @ 530 (cont Aug                                                                          150                                
PROFAMCHA140801063357063442000045How To Build A Better Boy(HD)Chyna&Kelli - Prems F                                                                          150                                
PROFAMCHA140801063442063512000030Girl Meets World (HD) Friends Sell - Premieres Ton                                                                          150                                
PGRFAMCHA140801063512065743002231Wingin' It                                        EP: 05                                                        C32727 1065607ACD                              
PROFAMCHA140801065743065820000037Stunt OOTW A (HD) Tonight Starting @ 530 (cont Aug                                                                          150                                
PRCFAMCHA140801065820065833000013BTS Concert 2014 (HD) Megan's Concert Liner#3 (Jul                                                                          150                                
PROFAMCHA140801065833065923000050Best Western                                                                                                                150                                
PRCFAMCHA140801065923065935000012Family Bumper (HD) BTS Pool (Jul-Aug2014)                                                                                   150                                
PROFAMCHA140801065935070006000031Episodic Yoda Chronicles (HD) #6 - New Ep Wednesda                                                                          150                                
PROFAMCHA140801070006070012000006WOWP (HD) ID - Jennifer Stone 2 "Coming Up Next" (                                                                          150                                
PGRFAMCHA140801070012072247002235Disney Wizards of Waverly Place                   EP: 01                                                               6068607BCC                              
PRCFAMCHA140801072247072314000027Episodic IDDI (HD) 119 New Ep Tonight @ 630 (Aug1)                                                                          150                                
PRCFAMCHA140801072314072328000014Family Flex Next (HD) SIU - Zendaya (:12-:14) (Apr                                                                          150                                
PROFAMCHA140801072328072339000011How To Build A Better Boy (HD) Kelli - Prems Aug 1                                                                          150                                
PROFAMCHA140801072339072429000050Walt Disney Pictures                                                                                                        150                                
PROFAMCHA140801072429072500000031Episodic GMW (HD) 106 New Ep Tonight @ 7 (Aug1)                                                                             150                                
PGRFAMCHA140801072500072715000215Short GF Mabel's Scrapbook (HD) Petting Zoo (Jul30                                                                     60688120                                
PRCFAMCHA140801072715072731000016Next Step Summer (HD) James - Today @ Noon (Jun30-                                                                          150                                
PROFAMCHA140801072731072816000045Episodic DWAB (HD) 220 New Ep Tonight @ 6 (Aug1)                                                                            150                                
PROFAMCHA140801072816072916000100Lego                                                                                                                        150                                
PROFAMCHA140801072916073001000045Episodic A&A (HD) 321 New Ep Today @ 530 (Aug1)                                                                             150                                
PRCFAMCHA140801073001073014000013Family Flex Next (HD) SIU - Rashawn (:12-:13) (Apr                                                                          150                                
PGRFAMCHA140801073014075250002236Disney Shake It Up                                EP: 05                                                               6068707BCC                              
PROFAMCHA140801075250075327000037Stunt OOTW A (HD) Tonight Starting @ 530 (cont Aug                                                                          150                                
PRCFAMCHA140801075327075341000014Family Flex Next (HD) SIU - Zendaya (:12-:14) (Apr                                                                          150                                
PROFAMCHA140801075341075444000103Super Buddies (HD) Prems Sunday Aug 10 @ Noon (Jul                                                                          150                                
PROFAMCHA140801075444075515000031Episodic Yoda Chronicles (HD) #6 - New Ep Wednesda                                                                          150                                
PROFAMCHA140801075515075615000100Lego                                                                                                                        150                                
PROFAMCHA140801075615075650000035BTS 2014 (HD) All Access - Check family.ca for sec                                                                          150                                
PRCFAMCHA140801075650075711000021Family Bumper Flex (HD) Garage Band (:17-:21) (Nov                                                                          150                                
PRCFAMCHA140801075711075810000059BTS 2014 Playlist (HD) Tuesday Nights @ 6 (Jun25-A                                                                          150                                
PROFAMCHA140801075810075900000050Paramount Pictures                                                                                                          150                                
PRCFAMCHA140801075900075922000022Web Game Change July (HD) Fridays Only - Family.ca                                                                          150                                
PROFAMCHA140801075922080007000045Girl Meets World (HD) Maya & Riley - Premieres Ton                                                                          150                                
PRCFAMCHA140801080007080021000014Family Flex Next (HD) SIU - Adam (:12-:14) (Apr201                                                                          150                                
PGRFAMCHA140801080021082255002234Disney Shake It Up                                EP: 07                                                               6068707BCC                              
PROFAMCHA140801082255082339000044How To Build A Better Boy (HD) Comedy - Prems Frid                                                                          150                                
PROFAMCHA140801082339082354000015ANT Farm (HD) Refresh CT - Coming Up Next (April 2                                                                          150                                
PROFAMCHA140801082354082431000037Girl Meets World (HD) Take on the world - Premiere                                                                          150                                
PGRFAMCHA140801082431082739000308MV Non Disney (HD) Taylor Matthews - Do What You W                                                                     10615120CC                              
PROFAMCHA140801082739082819000040Kellogg's                                                                                                                   150                                
PRCFAMCHA140801082819082837000018Family Bumper Flex (HD) Flex ID - Jessie ID (:15-:                                                                          150                                
PROFAMCHA140801082837082927000050Best Western                                                                                                                150                                
PROFAMCHA140801082927083004000037Stunt OOTW A (HD) Tonight Starting @ 530 (cont Aug                                                                          150                                
PRCFAMCHA140801083004083018000014Family Flex Next (HD) ANT Farm - Jake (:12-:14) (A                                                                          150                                
PGRFAMCHA140801083018085252002234Disney A.N.T. Farm                                EP: 14                                                               6068607BCC                              
PROFAMCHA140801085252085337000045Episodic A&A (HD) 321 New Ep Today @ 530 (Aug1)                                                                             150                                
PROFAMCHA140801085337085419000042ANT Farm Refresh 2014 (HD) Coming Up Next (Mar2014                                                                          150                                
PROFAMCHA140801085419085522000103Super Buddies (HD) Prems Sunday Aug 10 @ Noon (Jul                                                                          150                                
PRCFAMCHA140801085522085544000022Web Game Change July (HD) Fridays Only - Family.ca                                                                          150                                
PGRFAMCHA140801085544085743000159Dogs Rule! (HD) 108 Dogs vs Cats (Jul16)                                                                               60688120                                
PROFAMCHA140801085743085828000045Episodic DWAB (HD) 220 New Ep Tonight @ 6 (Aug1)                                                                            150                                
PROFAMCHA140801085828085854000026Stunt BTS 2014 (HD) Weds Marathon Lab Rats - Weds                                                                           150                                
PROFAMCHA140801085854085925000031Episodic GMW (HD) 106 New Ep Tonight @ 7 (Aug1)                                                                             150                                
PRCFAMCHA140801085925085935000010Family Bumper (HD) BTSC Bumper 1 (Jul-Aug2014)                                                                              150                                
PRCFAMCHA140801085935090002000027Episodic IDDI (HD) 119 New Ep Tonight @ 630 (Aug1)                                                                          150                                
PRCFAMCHA140801090002090016000014Family Flex Next (HD) ANT Farm - Jake (:12-:14) (A                                                                          150                                
PGRFAMCHA140801090016092349002333Disney A.N.T. Farm                                EP: 16                                                               6068607BCC                              
PROFAMCHA140801092349092359000010How To Build A Better Boy (HD) China - Prems Aug 1                                                                          150                                
PROFAMCHA140801092359092418000019GLC Promo 2 (HD) Coming Up Next (Sep2013)                                                                                   150                                
PRCFAMCHA140801092418092445000027Episodic IDDI (HD) 119 New Ep Tonight @ 630 (Aug1)                                                                          150                                
PRCFAMCHA140801092445092456000011Next Step Summer (HD) Victoria - Today @ Noon (Jun                                                                          150                                
PROFAMCHA140801092456092541000045Episodic DWAB (HD) 220 New Ep Tonight @ 6 (Aug1)                                                                            150                                
PRCFAMCHA140801092541092602000021Family Bumper Flex (HD) Dog Park (:19-:21) (Mar201                                                                          150                                
PROFAMCHA140801092602092633000031Episodic GMW (HD) 106 New Ep Tonight @ 7 (Aug1)                                                                             150                                
PGRFAMCHA140801092633092921000248MV Non Disney (HD) Cody Simpson - Pretty Brown Eye                                                                     10615120CC                              
PROFAMCHA140801092921093006000045Episodic A&A (HD) 321 New Ep Today @ 530 (Aug1)                                                                             150                                
PRCFAMCHA140801093006093020000014Family Flex Next (HD) GLC - Jason (:12-:14) (Apr20                                                                          150                                
PGRFAMCHA140801093020095241002221Disney Good Luck Charlie                          EP: 23                                                               6068807BCC                              
PROFAMCHA140801095241095318000037Stunt OOTW A (HD) Tonight Starting @ 530 (cont Aug                                                                          150                                
PRCFAMCHA140801095318095352000034GLC Marching Band (HD) Coming Up Next (Nov2013)                                                                             150                                
PROFAMCHA140801095352095418000026Stunt BTS 2014 (HD) Weds Marathon Lab Rats - Weds                                                                           150                                
PROFAMCHA140801095418095521000103Super Buddies (HD) Prems Sunday Aug 10 @ Noon (Jul                                                                          150                                
PROFAMCHA140801095521095552000031Episodic Yoda Chronicles (HD) #6 - New Ep Wednesda                                                                          150                                
PRCFAMCHA140801095552095604000012Family Bumper (HD) BTS Pool (Jul-Aug2014)                                                                                   150                                
PRCFAMCHA140801095604095617000013BTS Concert 2014 (HD) Megan's Concert Liner#3 (Jul                                                                          150                                
PRCFAMCHA140801095617095639000022Web Game Change July (HD) Fridays Only - Family.ca                                                                          150                                
PRCFAMCHA140801095639095738000059BTS 2014 Playlist (HD) Tuesday Nights @ 6 (Jun25-A                                                                          150                                
PGRFAMCHA140801095738095923000145ME (HD) Planes: Fire & Rescue - In Theatres Now (3                                                                     10615120CC                              
PROFAMCHA140801095923100010000047Girl Meets World (HD) Take on the world - Premiere                                                                          150                                
PRCFAMCHA140801100010100024000014Family Flex Next (HD) GLC - Jason (:12-:14) (Apr20                                                                          150                                
PGRFAMCHA140801100024102259002235Disney Good Luck Charlie                          EP: 27                                                               6068807BCC                              
PROFAMCHA140801102259102344000045How To Build A Better Boy (HD) Alt - Prems Friday                                                                           150                                
PRCFAMCHA140801102344102359000015Family Flex Next (HD) A&A Raini (Aug 2013) (:13-:1                                                                          150                                
PRCFAMCHA140801102359102426000027Episodic IDDI (HD) 119 New Ep Tonight @ 630 (Aug1)                                                                          150                                
MVCFAMCHA140801102426102740000314MV Disney (HD) R5 - One Last Dance (Jun1-Aug13)                                                                        60688120                                
PROFAMCHA140801102740102811000031Episodic GMW (HD) 106 New Ep Tonight @ 7 (Aug1)                                                                             150                                
PRCFAMCHA140801102811102829000018Family Bumper Flex (HD) Flip Book (:15-:18) (Nov 2                                                                          150                                
PROFAMCHA140801102829102914000045Episodic DWAB (HD) 220 New Ep Tonight @ 6 (Aug1)                                                                            150                                
PRCFAMCHA140801102914102926000012Next Step Summer (HD) Michelle - Today @ Noon (Jul                                                                          150                                
PROFAMCHA140801102926103011000045Episodic A&A (HD) 321 New Ep Today @ 530 (Aug1)                                                                             150                                
PRCFAMCHA140801103011103025000014Family Flex Next (HD) A&A - Laura (:12-:14) (Apr20                                                                          150                                
PGRFAMCHA140801103025105314002249Disney Austin & Ally                              EP: 15                                                               6068807BCC                              
PROFAMCHA140801105314105344000030Girl Meets World (HD) Friends Sell - Premieres Ton                                                                          150                                
PRCFAMCHA140801105344105358000014Family Flex Next (HD) SIU - Zendaya (:12-:14) (Apr                                                                          150                                
PROFAMCHA140801105358105424000026Stunt BTS 2014 (HD) Weds Marathon Lab Rats - Weds                                                                           150                                
PGRFAMCHA140801105424105833000409MV Universal (HD) Serena Ryder - Heavy Love (Jun16                                                                     10615120CC                              
PROFAMCHA140801105833105933000100Lego                                                                                                                        150                                
PRCFAMCHA140801105933105945000012Family Bumper (HD) BTS Beach (Jul-Aug2014)                                                                                  150                                
PROFAMCHA140801105945110022000037Stunt OOTW A (HD) Tonight Starting @ 530 (cont Aug                                                                          150                                
PRCFAMCHA140801110022110035000013Family Flex Next (HD) SIU - Rashawn (:12-:13) (Apr                                                                          150                                
PGRFAMCHA140801110035112309002234Disney Shake It Up                                EP: 06                                                               6068707BCC                              
PROFAMCHA140801112309112320000011How To Build A Better Boy (HD) Kelli - Prems Aug 1                                                                          150                                
PROFAMCHA140801112320112350000030Shake It Up (HD) Flynn Sell - Coming Up Next (Jun2                                                                          150                                
PROFAMCHA140801112350112421000031Episodic GMW (HD) 106 New Ep Tonight @ 7 (Aug1)                                                                             150                                
PGRFAMCHA140801112421112751000330MV Non Disney (HD) V Duffield - More Than Friends                                                                      10615120                                
PROFAMCHA140801112751112847000056D-JR OOB - Callie 117 - New Ep Sunday Aug 3 @ 1130                                                                          150                                
PROFAMCHA140801112847112921000034BTS 2014 Playlist (HD) Jordan & Lamar - New Tuesda                                                                          150                                
PRCFAMCHA140801112921112937000016Next Step Summer (HD) James - Today @ Noon (Jun30-                                                                          150                                
PROFAMCHA140801112937113014000037Stunt OOTW A (HD) Tonight Starting @ 530 (cont Aug                                                                          150                                
PRCFAMCHA140801113014113028000014Family Flex Next (HD) SIU - Adam (:12-:14) (Apr201                                                                          150                                
PGRFAMCHA140801113028115319002251Disney Shake It Up                                EP: 05                                                               6068707BCC                              
PROFAMCHA140801115319115410000051Girl Meets World (HD) Take on the world - Premiere                                                                          150                                
PRCFAMCHA140801115410115424000014Next Step Summer (HD) West - Coming Up Next @ Noon                                                                          150                                
PRCFAMCHA140801115424115451000027Episodic IDDI (HD) 119 New Ep Tonight @ 630 (Aug1)                                                                          150                                
PROFAMCHA140801115451115554000103Super Buddies (HD) Prems Sunday Aug 10 @ Noon (Jul                                                                          150                                
PROFAMCHA140801115554115644000050Walt Disney Pictures                                                                                                        150                                
PROFAMCHA140801115644115729000045Episodic A&A (HD) 321 New Ep Today @ 530 (Aug1)                                                                             150                                
PRCFAMCHA140801115729115742000013BTS Concert 2014 (HD) Sabrina's Concert Liner#3 (J                                                                          150                                
PRCFAMCHA140801115742115754000012Family Bumper (HD) BTS Pool (Jul-Aug2014)                                                                                   150                                
PROFAMCHA140801115754115839000045Episodic DWAB (HD) 220 New Ep Tonight @ 6 (Aug1)                                                                            150                                
PRCFAMCHA140801115839115938000059BTS 2014 Playlist (HD) Tuesday Nights @ 6 (Jun25-A                                                                          150                                
PRCFAMCHA140801115938115949000011Next Step Summer (HD) Victoria - Coming Up Next (J                                                                          150                                
PGRFAMCHA140801115949120029000040Int Next Step (HD) 208 Open (Jul9)                                                                                     10618120                                
PGRFAMCHA140801120029122317002248The Next Step                                     EP: 08                                                        A36426 1065607ACD                              
PGRFAMCHA140801122317122533000216Int Next Step (HD) 208 Close (Jul9)                                                                                    10618120                                
PROFAMCHA140801122533122623000050E One Films - Family/Home Entertainment                                                                                     150                                
PROFAMCHA140801122623122638000015ANT Farm (HD) Refresh CT - Coming Up Next (April 2                                                                          150                                
PROFAMCHA140801122638122715000037Stunt OOTW A (HD) Tonight Starting @ 530 (cont Aug                                                                          150                                
PROFAMCHA140801122715122746000031Episodic Yoda Chronicles (HD) #6 - New Ep Wednesda                                                                          150                                
PROFAMCHA140801122746122836000050Best Western                                                                                                                150                                
PROFAMCHA140801122836122906000030D-JR OOB - Jake 316 New Ep Wednesday Aug 6 @ 430 (                                                                          150                                
PROFAMCHA140801122906122932000026Stunt BTS 2014 (HD) Weds Marathon Lab Rats - Weds                                                                           150                                
PROFAMCHA140801122932123017000045Girl Meets World (HD) Family Sell - Prems Tonight                                                                           150                                
PROFAMCHA140801123017123027000010How To Build A Better Boy (HD) China - Prems Aug 1                                                                          150                                
PRCFAMCHA140801123027123041000014Family Flex Next (HD) ANT Farm - Jake (:12-:14) (A                                                                          150                                
PGRFAMCHA140801123041125413002332Disney A.N.T. Farm                                EP: 10                                                               6068607BCC                              
PRCFAMCHA140801125413125440000027Episodic IDDI (HD) 119 New Ep Tonight @ 630 (Aug1)                                                                          150                                
PRCFAMCHA140801125440125454000014Family Flex Next (HD) Jessie - Ravi (:12-:14) (Apr                                                                          150                                
PROFAMCHA140801125454125541000047Girl Meets World (HD) Take on the world - Premiere                                                                          150                                
PROFAMCHA140801125541125631000050Best Western                                                                                                                150                                
PROFAMCHA140801125631125716000045Episodic DWAB (HD) 220 New Ep Tonight @ 6 (Aug1)                                                                            150                                
PROFAMCHA140801125716125756000040Kellogg's                                                                                                                   150                                
PGRFAMCHA140801125756125941000145ME (HD) Planes: Fire & Rescue - In Theatres Now (3                                                                     10615120CC                              
PROFAMCHA140801125941130026000045Episodic A&A (HD) 321 New Ep Today @ 530 (Aug1)                                                                             150                                
PRCFAMCHA140801130026130040000014Family Flex Next (HD) Jessie - Zuri (:12-:14) (Apr                                                                          150                                
PGRFAMCHA140801130040132400002320Disney Jessie                                     EP: 25                                                               6068807BCC                              
PROFAMCHA140801132400132437000037Stunt OOTW A (HD) Tonight Starting @ 530 (cont Aug                                                                          150                                
PROFAMCHA140801132437132502000025GLC Promo 1 (HD) Coming Up Next (Sep2013)                                                                                   150                                
PROFAMCHA140801132502132546000044How To Build A Better Boy (HD) Comedy - Prems Frid                                                                          150                                
PROFAMCHA140801132546132646000100Lego                                                                                                                        150                                
PROFAMCHA140801132646132717000031Episodic Yoda Chronicles (HD) #6 - New Ep Wednesda                                                                          150                                
PRCFAMCHA140801132717132738000021Family Bumper Flex (HD) Trampoline (:15-:21) (Mar2                                                                          150                                
PROFAMCHA140801132738132834000056D-JR OOB - Callie 117 - New Ep Sunday Aug 3 @ 1130                                                                          150                                
PROFAMCHA140801132834132914000040Kellogg's                                                                                                                   150                                
PROFAMCHA140801132914132940000026Stunt BTS 2014 (HD) Weds Marathon Lab Rats - Weds                                                                           150                                
PROFAMCHA140801132940133025000045Girl Meets World (HD) Farkle/Comedy Sell - Prems T                                                                          150                                
PRCFAMCHA140801133025133039000014Family Flex Next (HD) GLC - Jason (:12-:14) (Apr20                                                                          150                                
PGRFAMCHA140801133039135257002218Good Luck Charlie                                 EP: 07                                                               6068707BCC                              
PRCFAMCHA140801135257135324000027Episodic IDDI (HD) 119 New Ep Tonight @ 630 (Aug1)                                                                          150                                
PROFAMCHA140801135324135343000019GLC Promo 2 (HD) Coming Up Next (Sep2013)                                                                                   150                                
PRCFAMCHA140801135343135405000022Web Game Change August (HD) Fridays Only - Family.                                                                          150                                
PROFAMCHA140801135405135436000031Episodic GMW (HD) 106 New Ep Tonight @ 7 (Aug1)                                                                             150                                
PGRFAMCHA140801135436135845000409MV Universal (HD) Serena Ryder - Heavy Love (Jun16                                                                     10615120CC                              
PROFAMCHA140801135845135930000045Episodic DWAB (HD) 220 New Ep Tonight @ 6 (Aug1)                                                                            150                                
PRCFAMCHA140801135930135942000012Family Bumper (HD) BTS Beach (Jul-Aug2014)                                                                                  150                                
PROFAMCHA140801135942140027000045Episodic A&A (HD) 321 New Ep Today @ 530 (Aug1)                                                                             150                                
PRCFAMCHA140801140027140041000014Family Flex Next (HD) GLC - Jason (:12-:14) (Apr20                                                                          150                                
PGRFAMCHA140801140041142315002234Good Luck Charlie                                 EP: 18                                                               6068707BCC                              
PROFAMCHA140801142315142352000037Stunt OOTW A (HD) Tonight Starting @ 530 (cont Aug                                                                          150                                
PRCFAMCHA140801142352142407000015Family Flex Next (HD) A&A Raini (Aug 2013) (:13-:1                                                                          150                                
PROFAMCHA140801142407142452000045Girl Meets World (HD) Farkle/Comedy Sell - Prems T                                                                          150                                
PRCFAMCHA140801142452142618000126How To Build A Better Boy (HD) BTS #2 - Prems Frid                                                                          150                                
PROFAMCHA140801142618142649000031Episodic Yoda Chronicles (HD) #6 - New Ep Wednesda                                                                          150                                
PROFAMCHA140801142649142749000100Lego                                                                                                                        150                                
PROFAMCHA140801142749142849000100D-JR OOB - Stunt Start Your Engines Starting Sunda                                                                          150                                
PRCFAMCHA140801142849142856000007Selena Gomez Station ID (HD) You're Watching Famil                                                                          150                                
PRCFAMCHA140801142856142957000101BTS Concert 2014 (HD) Calum's Poetry #1 (Jul17-Aug                                                                          150                                
PROFAMCHA140801142957143031000034BTS 2014 Playlist (HD) Jordan & Lamar - New Tuesda                                                                          150                                
PRCFAMCHA140801143031143045000014Family Flex Next (HD) A&A - Laura (:12-:14) (Apr20                                                                          150                                
PGRFAMCHA140801143045145318002233Disney Austin & Ally                              EP: 04                                                               6068807BCC                              
PROFAMCHA140801145318145403000045Episodic A&A (HD) 321 New Ep Today @ 530 (Aug1)                                                                             150                                
PROFAMCHA140801145403145426000023WOWP (HD) Harper - Coming Up Next (April 2013)                                                                              150                                
PROFAMCHA140801145426145503000037Girl Meets World (HD) Take on the world - Premiere                                                                          150                                
PGRFAMCHA140801145503145811000308MV Non Disney (HD) Taylor Matthews - Do What You W                                                                     10615120CC                              
PRCFAMCHA140801145811145838000027Episodic IDDI (HD) 119 New Ep Tonight @ 630 (Aug1)                                                                          150                                
PROFAMCHA140801145838145928000050Best Western                                                                                                                150                                
PRCFAMCHA140801145928145938000010Family Bumper (HD) BTSC Bumper 2 (Jul-Aug2014)                                                                              150                                
PROFAMCHA140801145938150023000045Episodic DWAB (HD) 220 New Ep Tonight @ 6 (Aug1)                                                                            150                                
PROFAMCHA140801150023150042000019WOWP (HD) Clip Bad Time - Coming Up Next (April 20                                                                          150                                
PGRFAMCHA140801150042152316002234Disney Wizards of Waverly Place                   EP: 13                                                               6068607BCC                              
PROFAMCHA140801152316152401000045Girl Meets World (HD) Family Sell - Prems Tonight                                                                           150                                
PROFAMCHA140801152401152426000025DWAB (HD) Clip Promo - Coming Up Next (Oct2013)                                                                             150                                
PRCFAMCHA140801152426152508000042How To Build A Better Boy (HD) BTS #3 - Prems Frid                                                                          150                                
PRCFAMCHA140801152508152710000202BTS Concert 2014 (HD) Calum & Megan Singing Lesson                                                                          150                                
PROFAMCHA140801152710152736000026Stunt BTS 2014 (HD) Weds Marathon Lab Rats - Weds                                                                           150                                
PROFAMCHA140801152736152826000050Best Western                                                                                                                150                                
PRCFAMCHA140801152826152856000030DXD Supercharged Sunday (HD) Sunday August 3 Start                                                                          150                                
PRCFAMCHA140801152856152955000059BTS 2014 Playlist (HD) Tuesday Nights @ 6 (Jun25-A                                                                          150                                
PROFAMCHA140801152955153032000037Stunt OOTW A (HD) Tonight Starting @ 530 (cont Aug                                                                          150                                
PRCFAMCHA140801153032153047000015Family Flex Next (HD) DWAB Ghannelius (Aug 2013) (                                                                          150                                
PGRFAMCHA140801153047155307002220Disney Dog with a Blog                            EP: 19                                                               6068807BCC                              
PROFAMCHA140801155307155352000045Episodic DWAB (HD) 220 New Ep Tonight @ 6 (Aug1)                                                                            150                                
PRCFAMCHA140801155352155411000019Family Flex Next (HD) LAM - Joey (:10-:19) (Jul201                                                                          150                                
PROFAMCHA140801155411155446000035BTS 2014 (HD) All Access - Check family.ca for sec                                                                          150                                
PROFAMCHA140801155446155531000045Episodic A&A (HD) 321 New Ep Today @ 530 (Aug1)                                                                             150                                
PROFAMCHA140801155531155616000045E One Films                                                                                                                 150                                
PRCFAMCHA140801155616155627000011BTS Concert 2014 (HD) Cody Simpson Liner - Family.                                                                          150                                
PRCFAMCHA140801155627155654000027Episodic IDDI (HD) 119 New Ep Tonight @ 630 (Aug1)                                                                          150                                
PRCFAMCHA140801155654155706000012Family Bumper (HD) BTS Pool (Jul-Aug2014)                                                                                   150                                
PROFAMCHA140801155706155806000100Lego                                                                                                                        150                                
PROFAMCHA140801155806155853000047Girl Meets World (HD) Take on the world - Premiere                                                                          150                                
PRCFAMCHA140801155853155912000019Family Flex Next (HD) LAM - Dove (:10-:19) (Jul201                                                                          150                                
PGRFAMCHA140801155912162317002405Disney Liv and Maddie                             EP: 01                                                               6068807BCC                              
PROFAMCHA140801162317162354000037Stunt OOTW A (HD) Tonight Starting @ 530 (cont Aug                                                                          150                                
PRCFAMCHA140801162354162414000020Family Flex Next (HD) GMW - Rowan (:10-:20) (Jul20                                                                          150                                
PROFAMCHA140801162414162424000010How To Build A Better Boy (HD) China - Prems Aug 1                                                                          150                                
PGRFAMCHA140801162424162754000330MV Non Disney (HD) V Duffield - More Than Friends                                                                      10615120                                
PRCFAMCHA140801162754162809000015DXD Grizzly Cup 2014 (HD) Kelowna (Jul26-Aug1)                                                                              150                                
PRCFAMCHA140801162809162831000022Family Bumper Flex (HD) Fifteen Logos (:21-:22) (N                                                                          150                                
PROFAMCHA140801162831162902000031Episodic Yoda Chronicles (HD) #6 - New Ep Wednesda                                                                          150                                
PRCFAMCHA140801162902162921000019Family Flex Next (HD) GMW - Sabrina (:10-:19) (Jul                                                                          150                                
PGRFAMCHA140801162921165141002220Disney Girl Meets World                           EP: 01                                                              A6068707BCC                              
PROFAMCHA140801165141165212000031Episodic GMW (HD) 106 New Ep Tonight @ 7 (Aug1)                                                                             150                                
PRCFAMCHA140801165212165311000059BTS 2014 Playlist (HD) Coming Up Next (Jul1-Aug26)                                                                          150                                
PROFAMCHA140801165311165337000026Stunt BTS 2014 (HD) Weds Marathon Lab Rats - Weds                                                                           150                                
PRCFAMCHA140801165337165404000027Episodic IDDI (HD) 119 New Ep Tonight @ 630 (Aug1)                                                                          150                                
PROFAMCHA140801165404165454000050Paramount Pictures                                                                                                          150                                
PROFAMCHA140801165454165539000045Episodic DWAB (HD) 220 New Ep Tonight @ 6 (Aug1)                                                                            150                                
PROFAMCHA140801165539165642000103Super Buddies (HD) Prems Sunday Aug 10 @ Noon (Jul                                                                          150                                
PRCFAMCHA140801165642165652000010Family Bumper (HD) BTSC Bumper 2 (Jul-Aug2014)                                                                              150                                
PRCFAMCHA140801165652165811000119BTS Concert 2014 (HD) Calum's Poetry #2 (Jul27-Aug                                                                          150                                
PROFAMCHA140801165811165856000045Episodic A&A (HD) 321 New Ep Today @ 530 (Aug1)                                                                             150                                
PRCFAMCHA140801165856165918000022BTS 2014 Playlist (HD) Megan & Sabrina - Coming Up                                                                          150                                
PGRFAMCHA140801165918172348002430Big Ticket Summer Playlist                        EP: 05                                                              A2068808ACC                              
PROFAMCHA140801172348172422000034BTS 2014 Playlist (HD) Jordan & Lamar - New Tuesda                                                                          150                                
PROFAMCHA140801172422172459000037Stunt OOTW A (HD) Starting Next @ 530 (Aug1)                                                                                150                                
PROFAMCHA140801172459172543000044How To Build A Better Boy (HD) Comedy - Prems Frid                                                                          150                                
PRCFAMCHA140801172543172613000030DXD Supercharged Sunday (HD) Sunday August 3 Start                                                                          150                                
PGRFAMCHA140801172613172758000145ME (HD) Planes: Fire & Rescue - In Theatres Now (3                                                                     10615120CC                              
PRCFAMCHA140801172758172836000038BTS Concert 2014 (HD) Calum's Poetry #3 (Jul17-Aug                                                                          150                                
PROFAMCHA140801172836172913000037Girl Meets World (HD) Take on the world - Premiere                                                                          150                                
PROFAMCHA140801172913172958000045Episodic A&A (HD) 321 New Ep Next @ 530 (Aug1)                                                                              150                                
PGRFAMCHA140801172958175232002234Disney Austin & Ally                              EP: 21                                                               6028807BCC                              
PROFAMCHA140801175232175309000037Stunt OOTW A (HD) Continues Next (Aug1)                                                                                     150                                
PROFAMCHA140801175309175340000031Episodic Yoda Chronicles (HD) #6 - New Ep Wednesda                                                                          150                                
MVCFAMCHA140801175340175654000314MV Disney (HD) R5 - One Last Dance (Jun1-Aug13)                                                                        60688120                                
PROFAMCHA140801175654175739000045E One Films                                                                                                                 150                                
PROFAMCHA140801175739175805000026Stunt BTS 2014 (HD) Weds Marathon Lab Rats - Weds                                                                           150                                
PRCFAMCHA140801175805175823000018Family Bumper Flex (HD) Flex ID - Music ID (:14-:1                                                                          150                                
PROFAMCHA140801175823175908000045Girl Meets World (HD) Maya & Riley - Premieres Ton                                                                          150                                
PROFAMCHA140801175908175953000045Episodic DWAB (HD) 220 New Ep Next @ 6 (Aug1)                                                                               150                                
PGRFAMCHA140801175953182230002237Disney Dog with a Blog                            EP: 20                                                               6028807BCC                              
PGRFAMCHA140801182230182429000159Dogs Rule! (HD) 109 Dogs Got Talent (Aug1)                                                                             60288120                                
PRCFAMCHA140801182429182456000027Episodic IDDI (HD) 119 New Ep Next @ 630 (Aug1)                                                                             150                                
PROFAMCHA140801182456182541000045How To Build A Better Boy (HD) Alt - Prems Friday                                                                           150                                
PROFAMCHA140801182541182631000050E One Films - Family/Home Entertainment                                                                                     150                                
PRCFAMCHA140801182631182653000022Web Game Change August (HD) Fridays Only - Family.                                                                          150                                
PROFAMCHA140801182653182724000031Muppets (HD) Retag - Friday Aug 8 @ 730 (Aug1-3)                                                                            150                                
PRCFAMCHA140801182724182739000015DXD Grizzly Cup 2014 (HD) Kelowna (Jul26-Aug1)                                                                              150                                
PRCFAMCHA140801182739182751000012Family Bumper (HD) BTS Pool (Jul-Aug2014)                                                                                   150                                
PRCFAMCHA140801182751182802000011BTS Concert 2014 (HD) Cody Simpson Liner - Family.                                                                          150                                
PROFAMCHA140801182802182847000045E One Films                                                                                                                 150                                
PROFAMCHA140801182847182938000051Girl Meets World (HD) Take on the world - Premiere                                                                          150                                
PRCFAMCHA140801182938182957000019Family Flex Next (HD) IDDI - Olivia NEW Ep (:10-:1                                                                          150                                
PGRFAMCHA140801182957185246002249Disney I Didn't Do It                             EP: 19                                                               6028607BCC                              
PROFAMCHA140801185246185312000026Stunt BTS 2014 (HD) Weds Marathon Lab Rats - Weds                                                                           150                                
PROFAMCHA140801185312185342000030Girl Meets World (HD) Friends Sell - Premieres Nex                                                                          150                                
PROFAMCHA140801185342185413000031Muppets (HD) Retag - Friday Aug 8 @ 730 (Aug1-3)                                                                            150                                
PROFAMCHA140801185413185503000050Warner Bros. Pictures                                                                                                       150                                
PRCFAMCHA140801185503185516000013BTS Concert 2014 (HD) Megan's Concert Liner#3 (Jul                                                                          150                                
PRCFAMCHA140801185516185649000133Int In Studio (HD) Victoria Duffield Interview (Au                                                                          150                                
PROFAMCHA140801185649185729000040Kellogg's                                                                                                                   150                                
PROFAMCHA140801185729185832000103Super Buddies (HD) Prems Sunday Aug 10 @ Noon (Jul                                                                          150                                
PRCFAMCHA140801185832185856000024Family Bumper Flex (HD) Bike Trails (:20-:24) (Mar                                                                          150                                
PROFAMCHA140801185856185931000035BTS 2014 (HD) All Access - Check family.ca for sec                                                                          150                                
PROFAMCHA140801185931190002000031Episodic GMW (HD) 106 New Ep Next @ 7 (Aug1)                                                                                150                                
PGRFAMCHA140801190002192107002105Disney Girl Meets World                           EP: 06                                                              A6028707BCC                              
PROFAMCHA140801192107192137000030Episodic GMW (HD) 102 - New Ep Friday Aug 8 @ 7 (A                                                                          150                                
PROFAMCHA140801192137192157000020IDDI (HD) Refresh - Coming Up Next  (May2014)                                                                               150                                
PROFAMCHA140801192157192237000040Stunt OOTW B (HD) Cont Friday Aug 8 @ 5 (Aug1-3)                                                                            150                                
PROFAMCHA140801192237192327000050Paramount Pictures                                                                                                          150                                
PRCFAMCHA140801192327192357000030DXD Supercharged Sunday (HD) Sunday August 3 Start                                                                          150                                
PRCFAMCHA140801192357192409000012Family Bumper (HD) BTS Beach (Jul-Aug2014)                                                                                  150                                
PROFAMCHA140801192409192509000100Lego                                                                                                                        150                                
PRCFAMCHA140801192509192628000119BTS Concert 2014 (HD) Calum's Poetry #2 (Jul27-Aug                                                                          150                                
PROFAMCHA140801192628192659000031Muppets (HD) Retag - Friday Aug 8 @ 730 (Aug1-3)                                                                            150                                
PROFAMCHA140801192659192749000050Walt Disney Pictures                                                                                                        150                                
PROFAMCHA140801192749192823000034BTS 2014 Playlist (HD) Jordan & Lamar - New Tuesda                                                                          150                                
PRCFAMCHA140801192823192949000126How To Build A Better Boy (HD) BTS #2 - Prems Frid                                                                          150                                
PRCFAMCHA140801192949193008000019Family Flex Next (HD) IDDI - Olivia (:10-:19) (Jul                                                                          150                                
PGRFAMCHA140801193008195312002304Disney I Didn't Do It                             EP: 10                                                               6068607BCC                              
PROFAMCHA140801195312195346000034BTS 2014 Playlist (HD) Jordan & Lamar - New Tuesda                                                                          150                                
PROFAMCHA140801195346195416000030Zapped (HD) Comedy - Coming Up Next (Jun2014)                                                                               150                                
PROFAMCHA140801195416195447000031Episodic Yoda Chronicles (HD) #6 - New Ep Wednesda                                                                          150                                
PROFAMCHA140801195447195547000100Lego                                                                                                                        150                                
PRCFAMCHA140801195547195722000135BTS Concert 2014 (HD) Megan's Interview #1 (Jul18-                                                                          150                                
PROFAMCHA140801195722195812000050Walt Disney Pictures                                                                                                        150                                
PROFAMCHA140801195812195857000045Episodic LAM (HD) 121 - New Ep Friday Aug 8 @ 630                                                                           150                                
PROFAMCHA140801195857195927000030Zapped (HD) Comedy - Coming Up Next (Jun2014)                                                                               150                                
ID FAMCHA140801195927195942000015Popcorn Pix Block Open (HD)  (Jan2011)                                                                                      150                                
ID FAMCHA140801195942195951000009Popcorn Pix Rating Slate (HD) - G (Jan 2011)                                                                                150                                
ID FAMCHA140801195951195957000006Popcorn Pix Magic of Disney Bumper (HD) (Apr2013)                                                                           150                                
PGRFAMCHA140801195957213335013338Zapped                                                                                                          A36614A1065607DCC                              
PROFAMCHA140801213335213435000100Lego                                                                                                                        150                                
PRCFAMCHA140801213435213450000015Family Flex Next (HD) DWAB Ghannelius (Aug 2013) (                                                                          150                                
PGRFAMCHA140801213450215725002235Disney Dog with a Blog                            EP: 17                                                               6068807BCC                              
PROFAMCHA140801215725215751000026Stunt BTS 2014 (HD) Weds Marathon Lab Rats - Weds                                                                           150                                
PROFAMCHA140801215751215836000045E One Films                                                                                                                 150                                
PROFAMCHA140801215836215906000030D-JR OOB - Jake 316 New Ep Wednesday Aug 6 @ 430 (                                                                          150                                
PROFAMCHA140801215906215935000029Lemonade Mouth (HD) Trailer CD - Coming Up Next (A                                                                          150                                
ID FAMCHA140801215935215950000015Popcorn Pix Block Open (HD)  (Jan2011)                                                                                      150                                
ID FAMCHA140801215950215959000009Popcorn Pix Rating Slate (HD) - G (Jan 2011)                                                                                150                                
ID FAMCHA140801215959220005000006Popcorn Pix Magic of Disney Bumper (HD) (Apr2013)                                                                           150                                
PGRFAMCHA140801220005234740014735Lemonade Mouth                                                                                                        A6068807CCC                              
PROFAMCHA140801234740234806000026Stunt BTS 2014 (HD) Weds Marathon Lab Rats - Weds                                                                           150                                
PRCFAMCHA140801234806234818000012Family Bumper (HD) BTS Pool (Jul-Aug2014)                                                                                   150                                
PGRFAMCHA140801234818001049002231Life with Derek                                   EP: 20                                                        C26679A1065607BCC                              
PROFAMCHA140801001049001100000011How To Build A Better Boy (HD) Kelli - Prems Aug 1                                                                          150                                
PRCFAMCHA140801001100001112000012Family Bumper (HD) BTS Pool (Jul-Aug2014)                                                                                   150                                
PGRFAMCHA140801001112003347002235The Latest Buzz                                   EP: 04                                                        C30362 1065607BCC                              
PRCFAMCHA140801003347003357000010Family Bumper (HD) BTSC Bumper 2 (Jul-Aug2014)                                                                              150                                
PGRFAMCHA140801003357005629002232Overruled!                                        EP: 06                                                        C28762 1065607ACC                              
PROFAMCHA140801005629005700000031Episodic Yoda Chronicles (HD) #6 - New Ep Wednesda                                                                          150                                
PGRFAMCHA140801005700005845000145How To Build A Better Boy (HD) Abt The Movie - Pre                                                                     10215120CC                              
PRCFAMCHA140801005845005922000037BTS Concert 2014 (HD) Announce Promo #2 (Jun3-Aug2                                                                          150                                
PROFAMCHA140801005922010002000040Stunt OOTW B (HD) Cont Friday Aug 8 @ 5 (Aug1-3)                                                                            150                                
PGRFAMCHA140801010002012235002233DEBRA!                                            EP: 13                                                        C35763 1065607ACD                              
PRCFAMCHA140801012235012306000031Family Bumper Flex (HD) Flex ID - Austin & Ally (F                                                                          150                                
PGRFAMCHA140801012306014607002301What's Up, Warthogs!                              EP: 18                                                        C32738 1065607BCC                              
PRCFAMCHA140801014607014619000012Family Bumper (HD) BTS Beach (Jul-Aug2014)                                                                                  150                                
PGRFAMCHA140801014619020822002203Disney Wizards of Waverly Place                   EP: 11                                                               6068507BCC                              
PRCFAMCHA140801020822020843000021Family Bumper Flex (HD) Break Dance (:18-:21) (Mar                                                                          150                                
PGRFAMCHA140801020843023115002232Really Me                                         EP: 12                                                        C35342 1065607ACD                              
PRCFAMCHA140801023115023137000022Family Bumper Flex (HD) Fifteen Logos (:21-:22) (N                                                                          150                                
PGRFAMCHA140801023137025407002230Life with Derek                                   EP: 02                                                        C26822 1065607BCC                              
PRCFAMCHA140801025407025425000018Family Bumper Flex (HD) Flex ID - Music ID (:14-:1                                                                          150                                
PGRFAMCHA140801025425031627002202Slugterra                                         EP: 13                                                        A33763 1065607ACC                              
PRCFAMCHA140801031627031637000010Family Bumper (HD) BTSC Bumper 2 (Jul-Aug2014)                                                                              150                                
PGRFAMCHA140801031637033909002232Overruled!                                        EP: 09                                                        C28762 1065607ACC                              
PRCFAMCHA140801033909033929000020Family Bumper Flex (HD) Flex ID - ANT Farm (:16-:2                                                                          150                                
PGRFAMCHA140801033929040204002235The Latest Buzz                                   EP: 24                                                        C30362 1065607BCC                              
PRCFAMCHA140801040204040225000021Family Bumper Flex (HD) Longboard (:19-:21) (Mar20                                                                          150                                
PGRFAMCHA140801040225042456002231Life with Derek                                   EP: 02                                                        C23968A1065607BCC                              
PROFAMCHA140801042456042556000100D-JR OOB - Stunt Start Your Engines Starting Sunda                                                                          150                                
PROFAMCHA140801042556042753000157PH-D Short - Can You...Alligator Manners S1 - 08 -                                                                          150                                
PROFAMCHA140801042753042823000030D-JR OOB - Jake 316 New Ep Wednesday Aug 6 @ 430 (                                                                          150                                
PROFAMCHA140801042823042853000030D-JR Promo - Henry Hugglemonster - Get More Henry                                                                           150                                
PROFAMCHA140801042853042949000056D-JR OOB - Callie 117 - New Ep Sunday Aug 3 @ 1130                                                                          150                                
PROFAMCHA140801042949042959000010D-JR - Hero Flex ID - Purple (:06-:10) (Feb2014)                                                                            150                                
OFFFAMCHA140801042959043000000001OFF AIR                                                                                                                                                        
PGRFAMCHA140802043000045233002233Franny's Feet                                     EP: 50                                                        C31292 1065607ECC                              
PROFAMCHA140802045233045240000007D-JR Live Action ID - SWOBB - Coming Up (May2012)                                                                           150                                
PROFAMCHA140802045240045305000025D-JR Live Action ID - #94 Jump Rope (Sep2013)                                                                               150                                
PROFAMCHA140802045305045405000100D-JR OOB - Pirate & Princesses Weekday Afternoons                                                                           150                                
PROFAMCHA140802045405045447000042D-JR Promo - Bananas in Pajamas - Get more on the                                                                           150                                
PROFAMCHA140802045447045747000300PH-D Short - Mickey Mousekersize Shorts - 09 - Fol                                                                          150CC                              
PROFAMCHA140802045747045832000045D-JR Promo - Sheriff Callie - Weekends @ 1130 on D                                                                          150                                
PROFAMCHA140802045832045917000045D-JR OOB - Sizzling Summer Movies & Specials 2 - W                                                                          150                                
PROFAMCHA140802045917045942000025D-JR Live Action ID - #51 Chores Board (Sep2013)                                                                            150                                
PROFAMCHA140802045942045949000007D-JR Live Action ID - SWOBB - Now (May2012)                                                                                 150                                
PROFAMCHA140802045949045959000010D-JR - Hero Flex ID - Yellow (:06-:10) (Feb2014)                                                                            150                                
PGRFAMCHA140802045959052230002231The Secret World of Benjamin Bear                 EP: 19                                                        C26066 1065607ECC                              
PROFAMCHA140802052230052237000007D-JR Live Action ID - Harry & His Dinosaurs - Comi                                                                          150                                
PROFAMCHA140802052237052302000025D-JR Live Action ID - #28 Clapping Game (Sep2013)                                                                           150                                
PROFAMCHA140802052302052402000100D-JR OOB - Stunt Start Your Engines Starting Sunda                                                                          150                                
PROFAMCHA140802052402052444000042D-JR Promo - Sofia The First - Get More Wknds @ 11                                                                          150                                
PROFAMCHA140802052444052714000230D-JR Short - Choo Choo Soul - 1-06 (Jul2013)                                                                                150CC                              
PROFAMCHA140802052714052759000045D-JR OOB - Sizzling Summer Movies & Specials 2 - W                                                                          150                                
PROFAMCHA140802052759052851000052D-JR Promo - Doc McStuffins - Get more on the chan                                                                          150                                
PROFAMCHA140802052851052921000030D-JR OOB - Jake 316 New Ep Wednesday Aug 6 @ 430 (                                                                          150                                
PROFAMCHA140802052921052946000025D-JR Live Action ID - #8 Reading Book/Quiet Time (                                                                          150                                
PROFAMCHA140802052946052953000007D-JR Live Action ID - Harry & His Dinosaurs - Now                                                                           150                                
PROFAMCHA140802052953053003000010D-JR - Hero Flex ID - Purple (:06-:10) (Feb2014)                                                                            150                                
PGRFAMCHA140802053003055142002139Harry and His Bucket Full of Dinosaurs            EP: 11                                                        B05030 1065607ECC                              
PROFAMCHA140802055142055218000036Replay Stunt OOTW A (HD) Tomorrow Morning @ 10 (Au                                                                          150                                
PROFAMCHA140802055218055418000200SYN (HD) DMS Planes - Air Attack (Jul24-Aug17)                                                                              150                                
PROFAMCHA140802055418055433000015Web A&A Online Game (HD) Play games at family.ca/h                                                                          150                                
PRCFAMCHA140802055433055451000018Family Bumper Flex (HD) Flip Book (:15-:18) (Nov 2                                                                          150                                
PGRFAMCHA140802055451055737000246MV Disney (HD) Sabrina C-Can't Blame A Girl For Tr                                                                     10615120                                
PROFAMCHA140802055737055822000045Episodic Jessie (HD) 318 - New Ep Friday Aug 8 @ 5                                                                          150                                
PGRFAMCHA140802055822060007000145How To Build A Better Boy (HD) Abt The Movie - Pre                                                                     10615120CC                              
PGRFAMCHA140802060007062211002204Slugterra                                         EP: 10                                                        A33763 1065607ACC                              
PROFAMCHA140802062211062306000055Jack & The Beanstalk (HD) Today @ Noon (Aug2013)                                                                            150                                
PROFAMCHA140802062306062340000034BTS 2014 Playlist (HD) Jordan & Lamar - New Tuesda                                                                          150                                
PGRFAMCHA140802062340062749000409MV Universal (HD) Serena Ryder - Heavy Love (Jun16                                                                     10615120CC                              
PRCFAMCHA140802062749062800000011BTS Concert 2014 (HD) Cody Simpson Liner - Family.                                                                          150                                
PRCFAMCHA140802062800062810000010Family Bumper (HD) BTSC Bumper 3 (Jul-Aug2014)                                                                              150                                
PGRFAMCHA140802062810062855000045Short (HD) The Time I... Slept over at my Grandpar                                                                     10618120                                
PROFAMCHA140802062855062926000031Episodic Yoda Chronicles (HD) #6 - New Ep Wednesda                                                                          150                                
PROFAMCHA140802062926063006000040Stunt OOTW B (HD) Cont Friday Aug 8 @ 5 (Aug1-3)                                                                            150                                
PGRFAMCHA140802063006065236002230Wingin' It                                        EP: 07                                                        C35822 1065607ACD                              
PROFAMCHA140802065236065320000044How To Build A Better Boy (HD) Comedy - Prems Frid                                                                          150                                
PROFAMCHA140802065320065411000051Gravity Falls (HD) Refresh - Coming Up Next (Jun20                                                                          150                                
PROFAMCHA140802065411065437000026Stunt BTS 2014 (HD) Weds Marathon Lab Rats - Weds                                                                           150                                
PROFAMCHA140802065437065507000030Episodic GMW (HD) 102 - New Ep Friday Aug 8 @ 7 (A                                                                          150                                
PRCFAMCHA140802065507065537000030DXD Supercharged Sunday (HD) Sunday August 3 Start                                                                          150                                
PROFAMCHA140802065537065707000130MV Disney (HD) LAM Dove Cameron - Count on Me (Jul                                                                          150                                
PROFAMCHA140802065707065752000045Episodic LAM (HD) 121 - New Ep Friday Aug 8 @ 630                                                                           150                                
PRCFAMCHA140802065752065808000016Family Bumper Flex (HD) Flex ID - Music ID (:14-:1                                                                          150                                
PROFAMCHA140802065808065911000103Super Buddies (HD) Prems Sunday Aug 10 @ Noon (Jul                                                                          150                                
PROFAMCHA140802065911065947000036Replay Stunt OOTW A (HD) Tomorrow Morning @ 10 (Au                                                                          150                                
PRCFAMCHA140802065947070010000023Gravity Falls (HD) Comedy Sell - Coming Up Next (A                                                                          150                                
PGRFAMCHA140802070010072214002204Disney Gravity Falls                              EP: 11                                                               6068607ECC                              
PROFAMCHA140802072214072254000040Stunt OOTW B (HD) Cont Friday Aug 8 @ 5 (Aug1-3)                                                                            150                                
PROFAMCHA140802072254072313000019WOWP (HD) Clip Bad Time - Coming Up Next (April 20                                                                          150                                
PROFAMCHA140802072313072408000055Jack & The Beanstalk (HD) Today @ Noon (Aug2013)                                                                            150                                
PGRFAMCHA140802072408072743000335MV Playlist (HD) The Vamps - Last Night (Jul10-Sep                                                                     10615120CC                              
PRCFAMCHA140802072743072811000028Episodic PAF (HD) 435 - New Ep Friday Aug 8 @ 530                                                                           150                                
PROFAMCHA140802072811072856000045E One Films                                                                                                                 150                                
PRCFAMCHA140802072856072917000021Family Bumper Flex (HD) Garage Band (:17-:21) (Nov                                                                          150                                
PROFAMCHA140802072917073002000045Episodic Jessie (HD) 318 - New Ep Friday Aug 8 @ 5                                                                          150                                
PROFAMCHA140802073002073008000006WOWP (HD) ID - Jennifer Stone 1 "Coming Up Next" (                                                                          150                                
PGRFAMCHA140802073008075241002233Disney Wizards of Waverly Place                   EP: 12                                                               6068507BCC                              
PRCFAMCHA140802075241075407000126How To Build A Better Boy (HD) BTS #2 - Prems Frid                                                                          150                                
PROFAMCHA140802075407075422000015ANT Farm (HD) Refresh CT - Coming Up Next (April 2                                                                          150                                
PROFAMCHA140802075422075458000036Replay Stunt OOTW A (HD) Tomorrow Morning @ 10 (Au                                                                          150                                
PGRFAMCHA140802075458075819000321MV Playlist (HD) Megan Nicole - Never Wanna Let Yo                                                                     10615120CC                              
PRCFAMCHA140802075819075834000015DXD Grizzly Cup 2014 (HD) Calgary (Aug2-8)                                                                                  150                                
PROFAMCHA140802075834075919000045E One Films                                                                                                                 150                                
PRCFAMCHA140802075919075931000012Family Bumper (HD) BTS Pool (Jul-Aug2014)                                                                                   150                                
PROFAMCHA140802075931080002000031Episodic Yoda Chronicles (HD) #6 - New Ep Wednesda                                                                          150                                
PRCFAMCHA140802080002080016000014Family Flex Next (HD) ANT Farm - Jake (:12-:14) (A                                                                          150                                
PGRFAMCHA140802080016082247002231Disney A.N.T. Farm                                EP: 07                                                               6068607BCC                              
PROFAMCHA140802082247082327000040Stunt OOTW B (HD) Cont Friday Aug 8 @ 5 (Aug1-3)                                                                            150                                
PRCFAMCHA140802082327082341000014Family Flex Next (HD) SIU - Adam (:12-:14) (Apr201                                                                          150                                
PROFAMCHA140802082341082436000055Jack & The Beanstalk (HD) Today @ Noon (Aug2013)                                                                            150                                
PROFAMCHA140802082436082502000026Stunt BTS 2014 (HD) Weds Marathon Lab Rats - Weds                                                                           150                                
PRCFAMCHA140802082502082704000202BTS Concert 2014 (HD) Calum & Megan Singing Lesson                                                                          150                                
PROFAMCHA140802082704082749000045Episodic LAM (HD) 121 - New Ep Friday Aug 8 @ 630                                                                           150                                
PROFAMCHA140802082749082823000034BTS 2014 Playlist (HD) Jordan & Lamar - New Tuesda                                                                          150                                
PROFAMCHA140802082823082926000103Super Buddies (HD) Prems Sunday Aug 10 @ Noon (Jul                                                                          150                                
PROFAMCHA140802082926082956000030Episodic GMW (HD) 102 - New Ep Friday Aug 8 @ 7 (A                                                                          150                                
PRCFAMCHA140802082956083008000012Family Flex Next (HD) SIU - Zendaya (:12-:14) (Apr                                                                          150                                
PGRFAMCHA140802083008085256002248Disney Shake It Up                                EP: 09                                                               6068707BCC                              
PROFAMCHA140802085256085341000045How To Build A Better Boy(HD)Chyna&Kelli - Prems F                                                                          150                                
PROFAMCHA140802085341085400000019GLC Promo 2 (HD) Coming Up Next (Sep2013)                                                                                   150                                
PROFAMCHA140802085400085445000045Episodic Jessie (HD) 318 - New Ep Friday Aug 8 @ 5                                                                          150                                
PRCFAMCHA140802085445085515000030DXD Supercharged Sunday (HD) Sunday August 3 Start                                                                          150                                
PROFAMCHA140802085515085555000040Kellogg's                                                                                                                   150                                
PRCFAMCHA140802085555085623000028Episodic PAF (HD) 435 - New Ep Friday Aug 8 @ 530                                                                           150                                
PGRFAMCHA140802085623085808000145ME (HD) Planes: Fire & Rescue - In Theatres Now (3                                                                     10615120CC                              
PRCFAMCHA140802085808085819000011BTS Concert 2014 (HD) Cody Simpson Liner - Family.                                                                          150                                
PRCFAMCHA140802085819085840000021Family Bumper Flex (HD) Longboard (:19-:21) (Mar20                                                                          150                                
PROFAMCHA140802085840085911000031Muppets (HD) Retag - Friday Aug 8 @ 730 (Aug1-3)                                                                            150                                
PROFAMCHA140802085911085947000036Replay Stunt OOTW A (HD) Tomorrow Morning @ 10 (Au                                                                          150                                
PRCFAMCHA140802085947090001000014Family Flex Next (HD) GLC - Jason (:12-:14) (Apr20                                                                          150                                
PGRFAMCHA140802090001092304002303Disney Good Luck Charlie                          EP: 26                                                               6068807BCC                              
PROFAMCHA140802092304092344000040Stunt OOTW B (HD) Cont Friday Aug 8 @ 5 (Aug1-3)                                                                            150                                
PROFAMCHA140802092344092427000043Austin & Ally (HD) Bud Sell Refresh - Coming Up Ne                                                                          150                                
PROFAMCHA140802092427092522000055Jack & The Beanstalk (HD) Today @ Noon (Aug2013)                                                                            150                                
PROFAMCHA140802092522092612000050Best Western                                                                                                                150                                
PGRFAMCHA140802092612092907000255MV Non Disney (HD) Cody Simpson - Got Me Good (BTS                                                                     10615120                                
PRCFAMCHA140802092907092917000010Family Bumper (HD) BTSC Bumper 2 (Jul-Aug2014)                                                                              150                                
PROFAMCHA140802092917092948000031Episodic Yoda Chronicles (HD) #6 - New Ep Wednesda                                                                          150                                
PRCFAMCHA140802092948093002000014Family Flex Next (HD) A&A - Laura (:12-:14) (Apr20                                                                          150                                
PGRFAMCHA140802093002095233002231Disney Austin & Ally                              EP: 10                                                               6068807BCC                              
PGRFAMCHA140802095233095415000142How To Build A Better Boy (HD) Char&Actors - Prems                                                                     10218120                                
PRCFAMCHA140802095415095436000021DWAB Tango Refresh (HD) Coming Up Next (Mar2014)                                                                            150                                
PROFAMCHA140802095436095512000036Replay Stunt OOTW A (HD) Tomorrow Morning @ 10 (Au                                                                          150                                
PROFAMCHA140802095512095615000103Super Buddies (HD) Prems Sunday Aug 10 @ Noon (Jul                                                                          150                                
PROFAMCHA140802095615095705000050Paramount Pictures                                                                                                          150                                
PROFAMCHA140802095705095750000045Episodic LAM (HD) 121 - New Ep Friday Aug 8 @ 630                                                                           150                                
PRCFAMCHA140802095750095805000015DXD Grizzly Cup 2014 (HD) Calgary (Aug2-8)                                                                                  150                                
PROFAMCHA140802095805095905000100Lego                                                                                                                        150                                
PROFAMCHA140802095905095935000030Episodic GMW (HD) 102 - New Ep Friday Aug 8 @ 7 (A                                                                          150                                
PROFAMCHA140802095935100001000026Stunt BTS 2014 (HD) Weds Marathon Lab Rats - Weds                                                                           150                                
PRCFAMCHA140802100001100016000015Family Flex Next (HD) DWAB Ghannelius (Aug 2013) (                                                                          150                                
PGRFAMCHA140802100016102234002218Disney Dog with a Blog                            EP: 18                                                               6068807BCC                              
PROFAMCHA140802102234102314000040Stunt OOTW B (HD) Cont Friday Aug 8 @ 5 (Aug1-3)                                                                            150                                
PRCFAMCHA140802102314102328000014Family Flex Next (HD) Jessie - Luke (:12-:14) (Apr                                                                          150                                
PROFAMCHA140802102328102423000055Jack & The Beanstalk (HD) Today @ Noon (Aug2013)                                                                            150                                
PROFAMCHA140802102423102458000035BTS 2014 (HD) All Access - Check family.ca for sec                                                                          150                                
PROFAMCHA140802102458102548000050E One Films - Family/Home Entertainment                                                                                     150                                
PRCFAMCHA140802102548102616000028Episodic PAF (HD) 435 - New Ep Friday Aug 8 @ 530                                                                           150                                
PGRFAMCHA140802102616102816000200This Is Who I Am (HD) Zendaya (Aug1-Oct31)                                                                             60285120CC                              
PRCFAMCHA140802102816102834000018Family Bumper Flex (HD) Trampoline (:15-:21) (Mar2                                                                          150                                
PROFAMCHA140802102834102908000034BTS 2014 Playlist (HD) Jordan & Lamar - New Tuesda                                                                          150                                
PROFAMCHA140802102908102953000045Episodic Jessie (HD) 318 - New Ep Friday Aug 8 @ 5                                                                          150                                
PRCFAMCHA140802102953103007000014Family Flex Next (HD) Jessie - Ravi (:12-:14) (Apr                                                                          150                                
PGRFAMCHA140802103007105357002350Disney Jessie                                     EP: 19                                                               6068807BCC                              
PROFAMCHA140802105357105441000044How To Build A Better Boy (HD) Comedy - Prems Frid                                                                          150                                
